{
	"smartContract/contracts/3_Ballot.sol": {
		"Ballot": {
			"abi": [
				{
					"inputs": [],
					"stateMutability": "nonpayable",
					"type": "constructor"
				},
				{
					"inputs": [],
					"name": "countV",
					"outputs": [
						{
							"internalType": "int256",
							"name": "",
							"type": "int256"
						}
					],
					"stateMutability": "view",
					"type": "function"
				},
				{
					"inputs": [
						{
							"internalType": "uint256",
							"name": "_id",
							"type": "uint256"
						}
					],
					"name": "res",
					"outputs": [
						{
							"components": [
								{
									"internalType": "string",
									"name": "name",
									"type": "string"
								},
								{
									"internalType": "uint256",
									"name": "Total_Votes",
									"type": "uint256"
								},
								{
									"internalType": "uint256",
									"name": "Votes_District0",
									"type": "uint256"
								},
								{
									"internalType": "uint256",
									"name": "Votes_District1",
									"type": "uint256"
								},
								{
									"internalType": "uint256",
									"name": "Votes_District2",
									"type": "uint256"
								},
								{
									"internalType": "uint256",
									"name": "Votes_District3",
									"type": "uint256"
								},
								{
									"internalType": "uint256",
									"name": "Votes_District4",
									"type": "uint256"
								},
								{
									"internalType": "uint256",
									"name": "Votes_District5",
									"type": "uint256"
								},
								{
									"internalType": "uint256",
									"name": "Votes_District6",
									"type": "uint256"
								},
								{
									"internalType": "uint256",
									"name": "Votes_District7",
									"type": "uint256"
								},
								{
									"internalType": "uint256",
									"name": "Votes_District8",
									"type": "uint256"
								},
								{
									"internalType": "uint256",
									"name": "Votes_District9",
									"type": "uint256"
								}
							],
							"internalType": "struct Ballot.Proposal",
							"name": "",
							"type": "tuple"
						}
					],
					"stateMutability": "view",
					"type": "function"
				},
				{
					"inputs": [],
					"name": "vote",
					"outputs": [],
					"stateMutability": "nonpayable",
					"type": "function"
				}
			],
			"devdoc": {
				"details": "Implements voting process along with vote delegation",
				"kind": "dev",
				"methods": {},
				"title": "Ballot",
				"version": 1
			},
			"evm": {
				"assembly": "    /* \"smartContract/contracts/3_Ballot.sol\":157:4319  contract Ballot {... */\n  mstore(0x40, 0x80)\n    /* \"smartContract/contracts/3_Ballot.sol\":2100:2101  0 */\n  0x00\n    /* \"smartContract/contracts/3_Ballot.sol\":2080:2101  int public countV = 0 */\n  0x03\n  sstore\n    /* \"smartContract/contracts/3_Ballot.sol\":1196:2038  constructor() {... */\n  callvalue\n  dup1\n  iszero\n  tag_1\n  jumpi\n  0x00\n  dup1\n  revert\ntag_1:\n  pop\n    /* \"smartContract/contracts/3_Ballot.sol\":1234:1244  msg.sender */\n  caller\n    /* \"smartContract/contracts/3_Ballot.sol\":1220:1231  chairperson */\n  0x00\n  dup1\n    /* \"smartContract/contracts/3_Ballot.sol\":1220:1244  chairperson = msg.sender */\n  0x0100\n  exp\n  dup2\n  sload\n  dup2\n  0xffffffffffffffffffffffffffffffffffffffff\n  mul\n  not\n  and\n  swap1\n  dup4\n  0xffffffffffffffffffffffffffffffffffffffff\n  and\n  mul\n  or\n  swap1\n  sstore\n  pop\n    /* \"smartContract/contracts/3_Ballot.sol\":1283:1284  1 */\n  0x01\n    /* \"smartContract/contracts/3_Ballot.sol\":1254:1260  voters */\n  dup1\n    /* \"smartContract/contracts/3_Ballot.sol\":1254:1273  voters[chairperson] */\n  0x00\n    /* \"smartContract/contracts/3_Ballot.sol\":1261:1272  chairperson */\n  dup1\n  0x00\n  swap1\n  sload\n  swap1\n  0x0100\n  exp\n  swap1\n  div\n  0xffffffffffffffffffffffffffffffffffffffff\n  and\n    /* \"smartContract/contracts/3_Ballot.sol\":1254:1273  voters[chairperson] */\n  0xffffffffffffffffffffffffffffffffffffffff\n  and\n  0xffffffffffffffffffffffffffffffffffffffff\n  and\n  dup2\n  mstore\n  0x20\n  add\n  swap1\n  dup2\n  mstore\n  0x20\n  add\n  0x00\n  keccak256\n    /* \"smartContract/contracts/3_Ballot.sol\":1254:1280  voters[chairperson].weight */\n  0x00\n  add\n    /* \"smartContract/contracts/3_Ballot.sol\":1254:1284  voters[chairperson].weight = 1 */\n  dup2\n  swap1\n  sstore\n  pop\n    /* \"smartContract/contracts/3_Ballot.sol\":1294:1324  string[5] memory proposalNames */\n  0x00\n    /* \"smartContract/contracts/3_Ballot.sol\":1294:1348  string[5] memory proposalNames = [\"a\",\"b\",\"c\",\"d\",\"e\"] */\n  mload(0x40)\n  dup1\n  0xa0\n  add\n  0x40\n  mstore\n  dup1\n  mload(0x40)\n  dup1\n  0x40\n  add\n  0x40\n  mstore\n  dup1\n  0x01\n  dup2\n  mstore\n  0x20\n  add\n  0x6100000000000000000000000000000000000000000000000000000000000000\n  dup2\n  mstore\n  pop\n  dup2\n  mstore\n  0x20\n  add\n  mload(0x40)\n  dup1\n  0x40\n  add\n  0x40\n  mstore\n  dup1\n  0x01\n  dup2\n  mstore\n  0x20\n  add\n  0x6200000000000000000000000000000000000000000000000000000000000000\n  dup2\n  mstore\n  pop\n  dup2\n  mstore\n  0x20\n  add\n  mload(0x40)\n  dup1\n  0x40\n  add\n  0x40\n  mstore\n  dup1\n  0x01\n  dup2\n  mstore\n  0x20\n  add\n  0x6300000000000000000000000000000000000000000000000000000000000000\n  dup2\n  mstore\n  pop\n  dup2\n  mstore\n  0x20\n  add\n  mload(0x40)\n  dup1\n  0x40\n  add\n  0x40\n  mstore\n  dup1\n  0x01\n  dup2\n  mstore\n  0x20\n  add\n  0x6400000000000000000000000000000000000000000000000000000000000000\n  dup2\n  mstore\n  pop\n  dup2\n  mstore\n  0x20\n  add\n  mload(0x40)\n  dup1\n  0x40\n  add\n  0x40\n  mstore\n  dup1\n  0x01\n  dup2\n  mstore\n  0x20\n  add\n  0x6500000000000000000000000000000000000000000000000000000000000000\n  dup2\n  mstore\n  pop\n  dup2\n  mstore\n  pop\n  swap1\n  pop\n    /* \"smartContract/contracts/3_Ballot.sol\":1388:1389  5 */\n  0x05\n    /* \"smartContract/contracts/3_Ballot.sol\":1366:1386  proposalNames.length */\n  dup1\n    /* \"smartContract/contracts/3_Ballot.sol\":1366:1389  proposalNames.length==5 */\n  eq\n    /* \"smartContract/contracts/3_Ballot.sol\":1358:1414  require(proposalNames.length==5,\"Candidates must be 5.\") */\n  tag_4\n  jumpi\n  mload(0x40)\n  0x08c379a000000000000000000000000000000000000000000000000000000000\n  dup2\n  mstore\n  0x04\n  add\n  tag_5\n  swap1\n  tag_6\n  jump\t// in\ntag_5:\n  mload(0x40)\n  dup1\n  swap2\n  sub\n  swap1\n  revert\ntag_4:\n    /* \"smartContract/contracts/3_Ballot.sol\":1429:1435  uint i */\n  0x00\n    /* \"smartContract/contracts/3_Ballot.sol\":1424:2032  for (uint i = 0; i < proposalNames.length; i++) {... */\ntag_7:\n    /* \"smartContract/contracts/3_Ballot.sol\":1445:1465  proposalNames.length */\n  0x05\n    /* \"smartContract/contracts/3_Ballot.sol\":1441:1442  i */\n  dup2\n    /* \"smartContract/contracts/3_Ballot.sol\":1441:1465  i < proposalNames.length */\n  lt\n    /* \"smartContract/contracts/3_Ballot.sol\":1424:2032  for (uint i = 0; i < proposalNames.length; i++) {... */\n  iszero\n  tag_8\n  jumpi\n    /* \"smartContract/contracts/3_Ballot.sol\":1486:1495  proposals */\n  0x02\n    /* \"smartContract/contracts/3_Ballot.sol\":1501:2020  Proposal({... */\n  mload(0x40)\n  dup1\n  0x0180\n  add\n  0x40\n  mstore\n  dup1\n    /* \"smartContract/contracts/3_Ballot.sol\":1534:1547  proposalNames */\n  dup5\n    /* \"smartContract/contracts/3_Ballot.sol\":1548:1549  i */\n  dup5\n    /* \"smartContract/contracts/3_Ballot.sol\":1534:1550  proposalNames[i] */\n  0x05\n  dup2\n  lt\n  tag_10\n  jumpi\n  tag_11\n  tag_12\n  jump\t// in\ntag_11:\ntag_10:\n  0x20\n  mul\n  add\n  mload\n    /* \"smartContract/contracts/3_Ballot.sol\":1501:2020  Proposal({... */\n  dup2\n  mstore\n  0x20\n  add\n    /* \"smartContract/contracts/3_Ballot.sol\":1644:1645  0 */\n  0x00\n    /* \"smartContract/contracts/3_Ballot.sol\":1501:2020  Proposal({... */\n  dup2\n  mstore\n  0x20\n  add\n    /* \"smartContract/contracts/3_Ballot.sol\":1680:1681  0 */\n  0x00\n    /* \"smartContract/contracts/3_Ballot.sol\":1501:2020  Proposal({... */\n  dup2\n  mstore\n  0x20\n  add\n    /* \"smartContract/contracts/3_Ballot.sol\":1716:1717  0 */\n  0x00\n    /* \"smartContract/contracts/3_Ballot.sol\":1501:2020  Proposal({... */\n  dup2\n  mstore\n  0x20\n  add\n    /* \"smartContract/contracts/3_Ballot.sol\":1752:1753  0 */\n  0x00\n    /* \"smartContract/contracts/3_Ballot.sol\":1501:2020  Proposal({... */\n  dup2\n  mstore\n  0x20\n  add\n    /* \"smartContract/contracts/3_Ballot.sol\":1788:1789  0 */\n  0x00\n    /* \"smartContract/contracts/3_Ballot.sol\":1501:2020  Proposal({... */\n  dup2\n  mstore\n  0x20\n  add\n    /* \"smartContract/contracts/3_Ballot.sol\":1824:1825  0 */\n  0x00\n    /* \"smartContract/contracts/3_Ballot.sol\":1501:2020  Proposal({... */\n  dup2\n  mstore\n  0x20\n  add\n    /* \"smartContract/contracts/3_Ballot.sol\":1860:1861  0 */\n  0x00\n    /* \"smartContract/contracts/3_Ballot.sol\":1501:2020  Proposal({... */\n  dup2\n  mstore\n  0x20\n  add\n    /* \"smartContract/contracts/3_Ballot.sol\":1896:1897  0 */\n  0x00\n    /* \"smartContract/contracts/3_Ballot.sol\":1501:2020  Proposal({... */\n  dup2\n  mstore\n  0x20\n  add\n    /* \"smartContract/contracts/3_Ballot.sol\":1932:1933  0 */\n  0x00\n    /* \"smartContract/contracts/3_Ballot.sol\":1501:2020  Proposal({... */\n  dup2\n  mstore\n  0x20\n  add\n    /* \"smartContract/contracts/3_Ballot.sol\":1968:1969  0 */\n  0x00\n    /* \"smartContract/contracts/3_Ballot.sol\":1501:2020  Proposal({... */\n  dup2\n  mstore\n  0x20\n  add\n    /* \"smartContract/contracts/3_Ballot.sol\":2004:2005  0 */\n  0x00\n    /* \"smartContract/contracts/3_Ballot.sol\":1501:2020  Proposal({... */\n  dup2\n  mstore\n  pop\n    /* \"smartContract/contracts/3_Ballot.sol\":1486:2021  proposals.push(Proposal({... */\n  swap1\n  dup1\n  0x01\n  dup2\n  sload\n  add\n  dup1\n  dup3\n  sstore\n  dup1\n  swap2\n  pop\n  pop\n  0x01\n  swap1\n  sub\n  swap1\n  0x00\n  mstore\n  keccak256(0x00, 0x20)\n  swap1\n  0x0c\n  mul\n  add\n  0x00\n  swap1\n  swap2\n  swap1\n  swap2\n  swap1\n  swap2\n  pop\n  0x00\n  dup3\n  add\n  mload\n  dup2\n  0x00\n  add\n  swap1\n  dup1\n  mload\n  swap1\n  0x20\n  add\n  swap1\n  tag_14\n  swap3\n  swap2\n  swap1\n  tag_15\n  jump\t// in\ntag_14:\n  pop\n  0x20\n  dup3\n  add\n  mload\n  dup2\n  0x01\n  add\n  sstore\n  0x40\n  dup3\n  add\n  mload\n  dup2\n  0x02\n  add\n  sstore\n  0x60\n  dup3\n  add\n  mload\n  dup2\n  0x03\n  add\n  sstore\n  0x80\n  dup3\n  add\n  mload\n  dup2\n  0x04\n  add\n  sstore\n  0xa0\n  dup3\n  add\n  mload\n  dup2\n  0x05\n  add\n  sstore\n  0xc0\n  dup3\n  add\n  mload\n  dup2\n  0x06\n  add\n  sstore\n  0xe0\n  dup3\n  add\n  mload\n  dup2\n  0x07\n  add\n  sstore\n  0x0100\n  dup3\n  add\n  mload\n  dup2\n  0x08\n  add\n  sstore\n  0x0120\n  dup3\n  add\n  mload\n  dup2\n  0x09\n  add\n  sstore\n  0x0140\n  dup3\n  add\n  mload\n  dup2\n  0x0a\n  add\n  sstore\n  0x0160\n  dup3\n  add\n  mload\n  dup2\n  0x0b\n  add\n  sstore\n  pop\n  pop\n    /* \"smartContract/contracts/3_Ballot.sol\":1467:1470  i++ */\n  dup1\n  dup1\n  tag_16\n  swap1\n  tag_17\n  jump\t// in\ntag_16:\n  swap2\n  pop\n  pop\n    /* \"smartContract/contracts/3_Ballot.sol\":1424:2032  for (uint i = 0; i < proposalNames.length; i++) {... */\n  jump(tag_7)\ntag_8:\n  pop\n    /* \"smartContract/contracts/3_Ballot.sol\":1210:2038  {... */\n  pop\n    /* \"smartContract/contracts/3_Ballot.sol\":157:4319  contract Ballot {... */\n  jump(tag_18)\ntag_15:\n  dup3\n  dup1\n  sload\n  tag_19\n  swap1\n  tag_20\n  jump\t// in\ntag_19:\n  swap1\n  0x00\n  mstore\n  keccak256(0x00, 0x20)\n  swap1\n  0x1f\n  add\n  0x20\n  swap1\n  div\n  dup2\n  add\n  swap3\n  dup3\n  tag_22\n  jumpi\n  0x00\n  dup6\n  sstore\n  jump(tag_21)\ntag_22:\n  dup3\n  0x1f\n  lt\n  tag_23\n  jumpi\n  dup1\n  mload\n  not(0xff)\n  and\n  dup4\n  dup1\n  add\n  or\n  dup6\n  sstore\n  jump(tag_21)\ntag_23:\n  dup3\n  dup1\n  add\n  0x01\n  add\n  dup6\n  sstore\n  dup3\n  iszero\n  tag_21\n  jumpi\n  swap2\n  dup3\n  add\ntag_24:\n  dup3\n  dup2\n  gt\n  iszero\n  tag_25\n  jumpi\n  dup3\n  mload\n  dup3\n  sstore\n  swap2\n  0x20\n  add\n  swap2\n  swap1\n  0x01\n  add\n  swap1\n  jump(tag_24)\ntag_25:\ntag_21:\n  pop\n  swap1\n  pop\n  tag_26\n  swap2\n  swap1\n  tag_27\n  jump\t// in\ntag_26:\n  pop\n  swap1\n  jump\t// out\ntag_27:\ntag_28:\n  dup1\n  dup3\n  gt\n  iszero\n  tag_29\n  jumpi\n  0x00\n  dup2\n  0x00\n  swap1\n  sstore\n  pop\n  0x01\n  add\n  jump(tag_28)\ntag_29:\n  pop\n  swap1\n  jump\t// out\n    /* \"#utility.yul\":7:373   */\ntag_31:\n    /* \"#utility.yul\":149:152   */\n  0x00\n    /* \"#utility.yul\":170:237   */\n  tag_33\n    /* \"#utility.yul\":234:236   */\n  0x15\n    /* \"#utility.yul\":229:232   */\n  dup4\n    /* \"#utility.yul\":170:237   */\n  tag_34\n  jump\t// in\ntag_33:\n    /* \"#utility.yul\":163:237   */\n  swap2\n  pop\n    /* \"#utility.yul\":246:339   */\n  tag_35\n    /* \"#utility.yul\":335:338   */\n  dup3\n    /* \"#utility.yul\":246:339   */\n  tag_36\n  jump\t// in\ntag_35:\n    /* \"#utility.yul\":364:366   */\n  0x20\n    /* \"#utility.yul\":359:362   */\n  dup3\n    /* \"#utility.yul\":355:367   */\n  add\n    /* \"#utility.yul\":348:367   */\n  swap1\n  pop\n    /* \"#utility.yul\":7:373   */\n  swap2\n  swap1\n  pop\n  jump\t// out\n    /* \"#utility.yul\":379:798   */\ntag_6:\n    /* \"#utility.yul\":545:549   */\n  0x00\n    /* \"#utility.yul\":583:585   */\n  0x20\n    /* \"#utility.yul\":572:581   */\n  dup3\n    /* \"#utility.yul\":568:586   */\n  add\n    /* \"#utility.yul\":560:586   */\n  swap1\n  pop\n    /* \"#utility.yul\":632:641   */\n  dup2\n    /* \"#utility.yul\":626:630   */\n  dup2\n    /* \"#utility.yul\":622:642   */\n  sub\n    /* \"#utility.yul\":618:619   */\n  0x00\n    /* \"#utility.yul\":607:616   */\n  dup4\n    /* \"#utility.yul\":603:620   */\n  add\n    /* \"#utility.yul\":596:643   */\n  mstore\n    /* \"#utility.yul\":660:791   */\n  tag_38\n    /* \"#utility.yul\":786:790   */\n  dup2\n    /* \"#utility.yul\":660:791   */\n  tag_31\n  jump\t// in\ntag_38:\n    /* \"#utility.yul\":652:791   */\n  swap1\n  pop\n    /* \"#utility.yul\":379:798   */\n  swap2\n  swap1\n  pop\n  jump\t// out\n    /* \"#utility.yul\":804:973   */\ntag_34:\n    /* \"#utility.yul\":888:899   */\n  0x00\n    /* \"#utility.yul\":922:928   */\n  dup3\n    /* \"#utility.yul\":917:920   */\n  dup3\n    /* \"#utility.yul\":910:929   */\n  mstore\n    /* \"#utility.yul\":962:966   */\n  0x20\n    /* \"#utility.yul\":957:960   */\n  dup3\n    /* \"#utility.yul\":953:967   */\n  add\n    /* \"#utility.yul\":938:967   */\n  swap1\n  pop\n    /* \"#utility.yul\":804:973   */\n  swap3\n  swap2\n  pop\n  pop\n  jump\t// out\n    /* \"#utility.yul\":979:1056   */\ntag_40:\n    /* \"#utility.yul\":1016:1023   */\n  0x00\n    /* \"#utility.yul\":1045:1050   */\n  dup2\n    /* \"#utility.yul\":1034:1050   */\n  swap1\n  pop\n    /* \"#utility.yul\":979:1056   */\n  swap2\n  swap1\n  pop\n  jump\t// out\n    /* \"#utility.yul\":1062:1382   */\ntag_20:\n    /* \"#utility.yul\":1106:1112   */\n  0x00\n    /* \"#utility.yul\":1143:1144   */\n  0x02\n    /* \"#utility.yul\":1137:1141   */\n  dup3\n    /* \"#utility.yul\":1133:1145   */\n  div\n    /* \"#utility.yul\":1123:1145   */\n  swap1\n  pop\n    /* \"#utility.yul\":1190:1191   */\n  0x01\n    /* \"#utility.yul\":1184:1188   */\n  dup3\n    /* \"#utility.yul\":1180:1192   */\n  and\n    /* \"#utility.yul\":1211:1229   */\n  dup1\n    /* \"#utility.yul\":1201:1282   */\n  tag_43\n  jumpi\n    /* \"#utility.yul\":1267:1271   */\n  0x7f\n    /* \"#utility.yul\":1259:1265   */\n  dup3\n    /* \"#utility.yul\":1255:1272   */\n  and\n    /* \"#utility.yul\":1245:1272   */\n  swap2\n  pop\n    /* \"#utility.yul\":1201:1282   */\ntag_43:\n    /* \"#utility.yul\":1329:1331   */\n  0x20\n    /* \"#utility.yul\":1321:1327   */\n  dup3\n    /* \"#utility.yul\":1318:1332   */\n  lt\n    /* \"#utility.yul\":1298:1316   */\n  dup2\n    /* \"#utility.yul\":1295:1333   */\n  eq\n    /* \"#utility.yul\":1292:1376   */\n  iszero\n  tag_44\n  jumpi\n    /* \"#utility.yul\":1348:1366   */\n  tag_45\n  tag_46\n  jump\t// in\ntag_45:\n    /* \"#utility.yul\":1292:1376   */\ntag_44:\n    /* \"#utility.yul\":1113:1382   */\n  pop\n    /* \"#utility.yul\":1062:1382   */\n  swap2\n  swap1\n  pop\n  jump\t// out\n    /* \"#utility.yul\":1388:1621   */\ntag_17:\n    /* \"#utility.yul\":1427:1430   */\n  0x00\n    /* \"#utility.yul\":1450:1474   */\n  tag_48\n    /* \"#utility.yul\":1468:1473   */\n  dup3\n    /* \"#utility.yul\":1450:1474   */\n  tag_40\n  jump\t// in\ntag_48:\n    /* \"#utility.yul\":1441:1474   */\n  swap2\n  pop\n    /* \"#utility.yul\":1496:1562   */\n  0xffffffffffffffffffffffffffffffffffffffffffffffffffffffffffffffff\n    /* \"#utility.yul\":1489:1494   */\n  dup3\n    /* \"#utility.yul\":1486:1563   */\n  eq\n    /* \"#utility.yul\":1483:1586   */\n  iszero\n  tag_49\n  jumpi\n    /* \"#utility.yul\":1566:1584   */\n  tag_50\n  tag_51\n  jump\t// in\ntag_50:\n    /* \"#utility.yul\":1483:1586   */\ntag_49:\n    /* \"#utility.yul\":1613:1614   */\n  0x01\n    /* \"#utility.yul\":1606:1611   */\n  dup3\n    /* \"#utility.yul\":1602:1615   */\n  add\n    /* \"#utility.yul\":1595:1615   */\n  swap1\n  pop\n    /* \"#utility.yul\":1388:1621   */\n  swap2\n  swap1\n  pop\n  jump\t// out\n    /* \"#utility.yul\":1627:1807   */\ntag_51:\n    /* \"#utility.yul\":1675:1752   */\n  0x4e487b7100000000000000000000000000000000000000000000000000000000\n    /* \"#utility.yul\":1672:1673   */\n  0x00\n    /* \"#utility.yul\":1665:1753   */\n  mstore\n    /* \"#utility.yul\":1772:1776   */\n  0x11\n    /* \"#utility.yul\":1769:1770   */\n  0x04\n    /* \"#utility.yul\":1762:1777   */\n  mstore\n    /* \"#utility.yul\":1796:1800   */\n  0x24\n    /* \"#utility.yul\":1793:1794   */\n  0x00\n    /* \"#utility.yul\":1786:1801   */\n  revert\n    /* \"#utility.yul\":1813:1993   */\ntag_46:\n    /* \"#utility.yul\":1861:1938   */\n  0x4e487b7100000000000000000000000000000000000000000000000000000000\n    /* \"#utility.yul\":1858:1859   */\n  0x00\n    /* \"#utility.yul\":1851:1939   */\n  mstore\n    /* \"#utility.yul\":1958:1962   */\n  0x22\n    /* \"#utility.yul\":1955:1956   */\n  0x04\n    /* \"#utility.yul\":1948:1963   */\n  mstore\n    /* \"#utility.yul\":1982:1986   */\n  0x24\n    /* \"#utility.yul\":1979:1980   */\n  0x00\n    /* \"#utility.yul\":1972:1987   */\n  revert\n    /* \"#utility.yul\":1999:2179   */\ntag_12:\n    /* \"#utility.yul\":2047:2124   */\n  0x4e487b7100000000000000000000000000000000000000000000000000000000\n    /* \"#utility.yul\":2044:2045   */\n  0x00\n    /* \"#utility.yul\":2037:2125   */\n  mstore\n    /* \"#utility.yul\":2144:2148   */\n  0x32\n    /* \"#utility.yul\":2141:2142   */\n  0x04\n    /* \"#utility.yul\":2134:2149   */\n  mstore\n    /* \"#utility.yul\":2168:2172   */\n  0x24\n    /* \"#utility.yul\":2165:2166   */\n  0x00\n    /* \"#utility.yul\":2158:2173   */\n  revert\n    /* \"#utility.yul\":2185:2356   */\ntag_36:\n    /* \"#utility.yul\":2325:2348   */\n  0x43616e64696461746573206d75737420626520352e0000000000000000000000\n    /* \"#utility.yul\":2321:2322   */\n  0x00\n    /* \"#utility.yul\":2313:2319   */\n  dup3\n    /* \"#utility.yul\":2309:2323   */\n  add\n    /* \"#utility.yul\":2302:2349   */\n  mstore\n    /* \"#utility.yul\":2185:2356   */\n  pop\n  jump\t// out\n    /* \"smartContract/contracts/3_Ballot.sol\":157:4319  contract Ballot {... */\ntag_18:\n  dataSize(sub_0)\n  dup1\n  dataOffset(sub_0)\n  0x00\n  codecopy\n  0x00\n  return\nstop\n\nsub_0: assembly {\n        /* \"smartContract/contracts/3_Ballot.sol\":157:4319  contract Ballot {... */\n      mstore(0x40, 0x80)\n      callvalue\n      dup1\n      iszero\n      tag_1\n      jumpi\n      0x00\n      dup1\n      revert\n    tag_1:\n      pop\n      jumpi(tag_2, lt(calldatasize, 0x04))\n      shr(0xe0, calldataload(0x00))\n      dup1\n      0x632a9a52\n      eq\n      tag_3\n      jumpi\n      dup1\n      0x6d8f3f10\n      eq\n      tag_4\n      jumpi\n      dup1\n      0xd4e8fd2e\n      eq\n      tag_5\n      jumpi\n    tag_2:\n      0x00\n      dup1\n      revert\n        /* \"smartContract/contracts/3_Ballot.sol\":2467:4214  function vote() public {... */\n    tag_3:\n      tag_6\n      tag_7\n      jump\t// in\n    tag_6:\n      stop\n        /* \"smartContract/contracts/3_Ballot.sol\":2080:2101  int public countV = 0 */\n    tag_4:\n      tag_8\n      tag_9\n      jump\t// in\n    tag_8:\n      mload(0x40)\n      tag_10\n      swap2\n      swap1\n      tag_11\n      jump\t// in\n    tag_10:\n      mload(0x40)\n      dup1\n      swap2\n      sub\n      swap1\n      return\n        /* \"smartContract/contracts/3_Ballot.sol\":4220:4317  function res(uint _id) public view returns(Proposal memory){... */\n    tag_5:\n      tag_12\n      0x04\n      dup1\n      calldatasize\n      sub\n      dup2\n      add\n      swap1\n      tag_13\n      swap2\n      swap1\n      tag_14\n      jump\t// in\n    tag_13:\n      tag_15\n      jump\t// in\n    tag_12:\n      mload(0x40)\n      tag_16\n      swap2\n      swap1\n      tag_17\n      jump\t// in\n    tag_16:\n      mload(0x40)\n      dup1\n      swap2\n      sub\n      swap1\n      return\n        /* \"smartContract/contracts/3_Ballot.sol\":2467:4214  function vote() public {... */\n    tag_7:\n        /* \"smartContract/contracts/3_Ballot.sol\":2510:2516  voters */\n      0x01\n        /* \"smartContract/contracts/3_Ballot.sol\":2510:2528  voters[msg.sender] */\n      0x00\n        /* \"smartContract/contracts/3_Ballot.sol\":2517:2527  msg.sender */\n      caller\n        /* \"smartContract/contracts/3_Ballot.sol\":2510:2528  voters[msg.sender] */\n      0xffffffffffffffffffffffffffffffffffffffff\n      and\n      0xffffffffffffffffffffffffffffffffffffffff\n      and\n      dup2\n      mstore\n      0x20\n      add\n      swap1\n      dup2\n      mstore\n      0x20\n      add\n      0x00\n      keccak256\n        /* \"smartContract/contracts/3_Ballot.sol\":2510:2534  voters[msg.sender].voted */\n      0x01\n      add\n      0x00\n      swap1\n      sload\n      swap1\n      0x0100\n      exp\n      swap1\n      div\n      0xff\n      and\n        /* \"smartContract/contracts/3_Ballot.sol\":2509:2534  !voters[msg.sender].voted */\n      iszero\n        /* \"smartContract/contracts/3_Ballot.sol\":2501:2575  require(!voters[msg.sender].voted,... */\n      tag_19\n      jumpi\n      mload(0x40)\n      0x08c379a000000000000000000000000000000000000000000000000000000000\n      dup2\n      mstore\n      0x04\n      add\n      tag_20\n      swap1\n      tag_21\n      jump\t// in\n    tag_20:\n      mload(0x40)\n      dup1\n      swap2\n      sub\n      swap1\n      revert\n    tag_19:\n        /* \"smartContract/contracts/3_Ballot.sol\":2666:2667  1 */\n      0x01\n        /* \"smartContract/contracts/3_Ballot.sol\":2638:2644  voters */\n      dup1\n        /* \"smartContract/contracts/3_Ballot.sol\":2638:2656  voters[msg.sender] */\n      0x00\n        /* \"smartContract/contracts/3_Ballot.sol\":2645:2655  msg.sender */\n      caller\n        /* \"smartContract/contracts/3_Ballot.sol\":2638:2656  voters[msg.sender] */\n      0xffffffffffffffffffffffffffffffffffffffff\n      and\n      0xffffffffffffffffffffffffffffffffffffffff\n      and\n      dup2\n      mstore\n      0x20\n      add\n      swap1\n      dup2\n      mstore\n      0x20\n      add\n      0x00\n      keccak256\n        /* \"smartContract/contracts/3_Ballot.sol\":2638:2663  voters[msg.sender].weight */\n      0x00\n      add\n        /* \"smartContract/contracts/3_Ballot.sol\":2638:2667  voters[msg.sender].weight = 1 */\n      dup2\n      swap1\n      sstore\n      pop\n        /* \"smartContract/contracts/3_Ballot.sol\":2693:2696  100 */\n      0x64\n        /* \"smartContract/contracts/3_Ballot.sol\":2685:2691  countV */\n      sload(0x03)\n        /* \"smartContract/contracts/3_Ballot.sol\":2685:2696  countV<=100 */\n      sgt\n      iszero\n        /* \"smartContract/contracts/3_Ballot.sol\":2677:2719  require(countV<=100,\"Reached max voters.\") */\n      tag_22\n      jumpi\n      mload(0x40)\n      0x08c379a000000000000000000000000000000000000000000000000000000000\n      dup2\n      mstore\n      0x04\n      add\n      tag_23\n      swap1\n      tag_24\n      jump\t// in\n    tag_23:\n      mload(0x40)\n      dup1\n      swap2\n      sub\n      swap1\n      revert\n    tag_22:\n        /* \"smartContract/contracts/3_Ballot.sol\":2758:2775  random_district() */\n      tag_25\n        /* \"smartContract/contracts/3_Ballot.sol\":2758:2773  random_district */\n      tag_26\n        /* \"smartContract/contracts/3_Ballot.sol\":2758:2775  random_district() */\n      jump\t// in\n    tag_25:\n        /* \"smartContract/contracts/3_Ballot.sol\":2730:2736  voters */\n      0x01\n        /* \"smartContract/contracts/3_Ballot.sol\":2730:2748  voters[msg.sender] */\n      0x00\n        /* \"smartContract/contracts/3_Ballot.sol\":2737:2747  msg.sender */\n      caller\n        /* \"smartContract/contracts/3_Ballot.sol\":2730:2748  voters[msg.sender] */\n      0xffffffffffffffffffffffffffffffffffffffff\n      and\n      0xffffffffffffffffffffffffffffffffffffffff\n      and\n      dup2\n      mstore\n      0x20\n      add\n      swap1\n      dup2\n      mstore\n      0x20\n      add\n      0x00\n      keccak256\n        /* \"smartContract/contracts/3_Ballot.sol\":2730:2757  voters[msg.sender].district */\n      0x02\n      add\n        /* \"smartContract/contracts/3_Ballot.sol\":2730:2775  voters[msg.sender].district=random_district() */\n      dup2\n      swap1\n      sstore\n      pop\n        /* \"smartContract/contracts/3_Ballot.sol\":2786:2806  Voter storage sender */\n      0x00\n        /* \"smartContract/contracts/3_Ballot.sol\":2809:2815  voters */\n      0x01\n        /* \"smartContract/contracts/3_Ballot.sol\":2809:2827  voters[msg.sender] */\n      0x00\n        /* \"smartContract/contracts/3_Ballot.sol\":2816:2826  msg.sender */\n      caller\n        /* \"smartContract/contracts/3_Ballot.sol\":2809:2827  voters[msg.sender] */\n      0xffffffffffffffffffffffffffffffffffffffff\n      and\n      0xffffffffffffffffffffffffffffffffffffffff\n      and\n      dup2\n      mstore\n      0x20\n      add\n      swap1\n      dup2\n      mstore\n      0x20\n      add\n      0x00\n      keccak256\n        /* \"smartContract/contracts/3_Ballot.sol\":2786:2827  Voter storage sender = voters[msg.sender] */\n      swap1\n      pop\n        /* \"smartContract/contracts/3_Ballot.sol\":2960:2966  sender */\n      dup1\n        /* \"smartContract/contracts/3_Ballot.sol\":2960:2972  sender.voted */\n      0x01\n      add\n      0x00\n      swap1\n      sload\n      swap1\n      0x0100\n      exp\n      swap1\n      div\n      0xff\n      and\n        /* \"smartContract/contracts/3_Ballot.sol\":2959:2972  !sender.voted */\n      iszero\n        /* \"smartContract/contracts/3_Ballot.sol\":2951:2991  require(!sender.voted, \"Already voted.\") */\n      tag_27\n      jumpi\n      mload(0x40)\n      0x08c379a000000000000000000000000000000000000000000000000000000000\n      dup2\n      mstore\n      0x04\n      add\n      tag_28\n      swap1\n      tag_29\n      jump\t// in\n    tag_28:\n      mload(0x40)\n      dup1\n      swap2\n      sub\n      swap1\n      revert\n    tag_27:\n        /* \"smartContract/contracts/3_Ballot.sol\":3016:3020  true */\n      0x01\n        /* \"smartContract/contracts/3_Ballot.sol\":3001:3007  sender */\n      dup2\n        /* \"smartContract/contracts/3_Ballot.sol\":3001:3013  sender.voted */\n      0x01\n      add\n      0x00\n        /* \"smartContract/contracts/3_Ballot.sol\":3001:3020  sender.voted = true */\n      0x0100\n      exp\n      dup2\n      sload\n      dup2\n      0xff\n      mul\n      not\n      and\n      swap1\n      dup4\n      iszero\n      iszero\n      mul\n      or\n      swap1\n      sstore\n      pop\n        /* \"smartContract/contracts/3_Ballot.sol\":3045:3058  random_vote() */\n      tag_30\n        /* \"smartContract/contracts/3_Ballot.sol\":3045:3056  random_vote */\n      tag_31\n        /* \"smartContract/contracts/3_Ballot.sol\":3045:3058  random_vote() */\n      jump\t// in\n    tag_30:\n        /* \"smartContract/contracts/3_Ballot.sol\":3031:3037  sender */\n      dup2\n        /* \"smartContract/contracts/3_Ballot.sol\":3031:3042  sender.vote */\n      0x03\n      add\n        /* \"smartContract/contracts/3_Ballot.sol\":3031:3058  sender.vote = random_vote() */\n      dup2\n      swap1\n      sstore\n      pop\n        /* \"smartContract/contracts/3_Ballot.sol\":3068:3081  countVoters() */\n      tag_32\n        /* \"smartContract/contracts/3_Ballot.sol\":3068:3079  countVoters */\n      tag_33\n        /* \"smartContract/contracts/3_Ballot.sol\":3068:3081  countVoters() */\n      jump\t// in\n    tag_32:\n        /* \"smartContract/contracts/3_Ballot.sol\":3140:3146  sender */\n      dup1\n        /* \"smartContract/contracts/3_Ballot.sol\":3140:3153  sender.weight */\n      0x00\n      add\n      sload\n        /* \"smartContract/contracts/3_Ballot.sol\":3100:3109  proposals */\n      0x02\n        /* \"smartContract/contracts/3_Ballot.sol\":3110:3123  random_vote() */\n      tag_34\n        /* \"smartContract/contracts/3_Ballot.sol\":3110:3121  random_vote */\n      tag_31\n        /* \"smartContract/contracts/3_Ballot.sol\":3110:3123  random_vote() */\n      jump\t// in\n    tag_34:\n        /* \"smartContract/contracts/3_Ballot.sol\":3100:3124  proposals[random_vote()] */\n      dup2\n      sload\n      dup2\n      lt\n      tag_35\n      jumpi\n      tag_36\n      tag_37\n      jump\t// in\n    tag_36:\n    tag_35:\n      swap1\n      0x00\n      mstore\n      keccak256(0x00, 0x20)\n      swap1\n      0x0c\n      mul\n      add\n        /* \"smartContract/contracts/3_Ballot.sol\":3100:3136  proposals[random_vote()].Total_Votes */\n      0x01\n      add\n      0x00\n        /* \"smartContract/contracts/3_Ballot.sol\":3100:3153  proposals[random_vote()].Total_Votes += sender.weight */\n      dup3\n      dup3\n      sload\n      tag_39\n      swap2\n      swap1\n      tag_40\n      jump\t// in\n    tag_39:\n      swap3\n      pop\n      pop\n      dup2\n      swap1\n      sstore\n      pop\n        /* \"smartContract/contracts/3_Ballot.sol\":3184:3185  0 */\n      0x00\n        /* \"smartContract/contracts/3_Ballot.sol\":3167:3173  sender */\n      dup2\n        /* \"smartContract/contracts/3_Ballot.sol\":3167:3182  sender.district */\n      0x02\n      add\n      sload\n        /* \"smartContract/contracts/3_Ballot.sol\":3167:3185  sender.district==0 */\n      eq\n        /* \"smartContract/contracts/3_Ballot.sol\":3163:4096  if (sender.district==0){proposals[random_vote()].Votes_District0 += sender.weight;}... */\n      iszero\n      tag_41\n      jumpi\n        /* \"smartContract/contracts/3_Ballot.sol\":3231:3237  sender */\n      dup1\n        /* \"smartContract/contracts/3_Ballot.sol\":3231:3244  sender.weight */\n      0x00\n      add\n      sload\n        /* \"smartContract/contracts/3_Ballot.sol\":3187:3196  proposals */\n      0x02\n        /* \"smartContract/contracts/3_Ballot.sol\":3197:3210  random_vote() */\n      tag_42\n        /* \"smartContract/contracts/3_Ballot.sol\":3197:3208  random_vote */\n      tag_31\n        /* \"smartContract/contracts/3_Ballot.sol\":3197:3210  random_vote() */\n      jump\t// in\n    tag_42:\n        /* \"smartContract/contracts/3_Ballot.sol\":3187:3211  proposals[random_vote()] */\n      dup2\n      sload\n      dup2\n      lt\n      tag_43\n      jumpi\n      tag_44\n      tag_37\n      jump\t// in\n    tag_44:\n    tag_43:\n      swap1\n      0x00\n      mstore\n      keccak256(0x00, 0x20)\n      swap1\n      0x0c\n      mul\n      add\n        /* \"smartContract/contracts/3_Ballot.sol\":3187:3227  proposals[random_vote()].Votes_District0 */\n      0x02\n      add\n      0x00\n        /* \"smartContract/contracts/3_Ballot.sol\":3187:3244  proposals[random_vote()].Votes_District0 += sender.weight */\n      dup3\n      dup3\n      sload\n      tag_46\n      swap2\n      swap1\n      tag_40\n      jump\t// in\n    tag_46:\n      swap3\n      pop\n      pop\n      dup2\n      swap1\n      sstore\n      pop\n        /* \"smartContract/contracts/3_Ballot.sol\":3163:4096  if (sender.district==0){proposals[random_vote()].Votes_District0 += sender.weight;}... */\n      jump(tag_47)\n    tag_41:\n        /* \"smartContract/contracts/3_Ballot.sol\":3281:3282  1 */\n      0x01\n        /* \"smartContract/contracts/3_Ballot.sol\":3264:3270  sender */\n      dup2\n        /* \"smartContract/contracts/3_Ballot.sol\":3264:3279  sender.district */\n      0x02\n      add\n      sload\n        /* \"smartContract/contracts/3_Ballot.sol\":3264:3282  sender.district==1 */\n      eq\n        /* \"smartContract/contracts/3_Ballot.sol\":3260:4096  if (sender.district==1){proposals[random_vote()].Votes_District1 += sender.weight;}... */\n      iszero\n      tag_48\n      jumpi\n        /* \"smartContract/contracts/3_Ballot.sol\":3328:3334  sender */\n      dup1\n        /* \"smartContract/contracts/3_Ballot.sol\":3328:3341  sender.weight */\n      0x00\n      add\n      sload\n        /* \"smartContract/contracts/3_Ballot.sol\":3284:3293  proposals */\n      0x02\n        /* \"smartContract/contracts/3_Ballot.sol\":3294:3307  random_vote() */\n      tag_49\n        /* \"smartContract/contracts/3_Ballot.sol\":3294:3305  random_vote */\n      tag_31\n        /* \"smartContract/contracts/3_Ballot.sol\":3294:3307  random_vote() */\n      jump\t// in\n    tag_49:\n        /* \"smartContract/contracts/3_Ballot.sol\":3284:3308  proposals[random_vote()] */\n      dup2\n      sload\n      dup2\n      lt\n      tag_50\n      jumpi\n      tag_51\n      tag_37\n      jump\t// in\n    tag_51:\n    tag_50:\n      swap1\n      0x00\n      mstore\n      keccak256(0x00, 0x20)\n      swap1\n      0x0c\n      mul\n      add\n        /* \"smartContract/contracts/3_Ballot.sol\":3284:3324  proposals[random_vote()].Votes_District1 */\n      0x03\n      add\n      0x00\n        /* \"smartContract/contracts/3_Ballot.sol\":3284:3341  proposals[random_vote()].Votes_District1 += sender.weight */\n      dup3\n      dup3\n      sload\n      tag_53\n      swap2\n      swap1\n      tag_40\n      jump\t// in\n    tag_53:\n      swap3\n      pop\n      pop\n      dup2\n      swap1\n      sstore\n      pop\n        /* \"smartContract/contracts/3_Ballot.sol\":3260:4096  if (sender.district==1){proposals[random_vote()].Votes_District1 += sender.weight;}... */\n      jump(tag_54)\n    tag_48:\n        /* \"smartContract/contracts/3_Ballot.sol\":3378:3379  2 */\n      0x02\n        /* \"smartContract/contracts/3_Ballot.sol\":3361:3367  sender */\n      dup2\n        /* \"smartContract/contracts/3_Ballot.sol\":3361:3376  sender.district */\n      0x02\n      add\n      sload\n        /* \"smartContract/contracts/3_Ballot.sol\":3361:3379  sender.district==2 */\n      eq\n        /* \"smartContract/contracts/3_Ballot.sol\":3357:4096  if (sender.district==2){proposals[random_vote()].Votes_District2 += sender.weight;}... */\n      iszero\n      tag_55\n      jumpi\n        /* \"smartContract/contracts/3_Ballot.sol\":3425:3431  sender */\n      dup1\n        /* \"smartContract/contracts/3_Ballot.sol\":3425:3438  sender.weight */\n      0x00\n      add\n      sload\n        /* \"smartContract/contracts/3_Ballot.sol\":3381:3390  proposals */\n      0x02\n        /* \"smartContract/contracts/3_Ballot.sol\":3391:3404  random_vote() */\n      tag_56\n        /* \"smartContract/contracts/3_Ballot.sol\":3391:3402  random_vote */\n      tag_31\n        /* \"smartContract/contracts/3_Ballot.sol\":3391:3404  random_vote() */\n      jump\t// in\n    tag_56:\n        /* \"smartContract/contracts/3_Ballot.sol\":3381:3405  proposals[random_vote()] */\n      dup2\n      sload\n      dup2\n      lt\n      tag_57\n      jumpi\n      tag_58\n      tag_37\n      jump\t// in\n    tag_58:\n    tag_57:\n      swap1\n      0x00\n      mstore\n      keccak256(0x00, 0x20)\n      swap1\n      0x0c\n      mul\n      add\n        /* \"smartContract/contracts/3_Ballot.sol\":3381:3421  proposals[random_vote()].Votes_District2 */\n      0x04\n      add\n      0x00\n        /* \"smartContract/contracts/3_Ballot.sol\":3381:3438  proposals[random_vote()].Votes_District2 += sender.weight */\n      dup3\n      dup3\n      sload\n      tag_60\n      swap2\n      swap1\n      tag_40\n      jump\t// in\n    tag_60:\n      swap3\n      pop\n      pop\n      dup2\n      swap1\n      sstore\n      pop\n        /* \"smartContract/contracts/3_Ballot.sol\":3357:4096  if (sender.district==2){proposals[random_vote()].Votes_District2 += sender.weight;}... */\n      jump(tag_61)\n    tag_55:\n        /* \"smartContract/contracts/3_Ballot.sol\":3475:3476  3 */\n      0x03\n        /* \"smartContract/contracts/3_Ballot.sol\":3458:3464  sender */\n      dup2\n        /* \"smartContract/contracts/3_Ballot.sol\":3458:3473  sender.district */\n      0x02\n      add\n      sload\n        /* \"smartContract/contracts/3_Ballot.sol\":3458:3476  sender.district==3 */\n      eq\n        /* \"smartContract/contracts/3_Ballot.sol\":3454:4096  if (sender.district==3){proposals[random_vote()].Votes_District3 += sender.weight;}... */\n      iszero\n      tag_62\n      jumpi\n        /* \"smartContract/contracts/3_Ballot.sol\":3522:3528  sender */\n      dup1\n        /* \"smartContract/contracts/3_Ballot.sol\":3522:3535  sender.weight */\n      0x00\n      add\n      sload\n        /* \"smartContract/contracts/3_Ballot.sol\":3478:3487  proposals */\n      0x02\n        /* \"smartContract/contracts/3_Ballot.sol\":3488:3501  random_vote() */\n      tag_63\n        /* \"smartContract/contracts/3_Ballot.sol\":3488:3499  random_vote */\n      tag_31\n        /* \"smartContract/contracts/3_Ballot.sol\":3488:3501  random_vote() */\n      jump\t// in\n    tag_63:\n        /* \"smartContract/contracts/3_Ballot.sol\":3478:3502  proposals[random_vote()] */\n      dup2\n      sload\n      dup2\n      lt\n      tag_64\n      jumpi\n      tag_65\n      tag_37\n      jump\t// in\n    tag_65:\n    tag_64:\n      swap1\n      0x00\n      mstore\n      keccak256(0x00, 0x20)\n      swap1\n      0x0c\n      mul\n      add\n        /* \"smartContract/contracts/3_Ballot.sol\":3478:3518  proposals[random_vote()].Votes_District3 */\n      0x05\n      add\n      0x00\n        /* \"smartContract/contracts/3_Ballot.sol\":3478:3535  proposals[random_vote()].Votes_District3 += sender.weight */\n      dup3\n      dup3\n      sload\n      tag_67\n      swap2\n      swap1\n      tag_40\n      jump\t// in\n    tag_67:\n      swap3\n      pop\n      pop\n      dup2\n      swap1\n      sstore\n      pop\n        /* \"smartContract/contracts/3_Ballot.sol\":3454:4096  if (sender.district==3){proposals[random_vote()].Votes_District3 += sender.weight;}... */\n      jump(tag_68)\n    tag_62:\n        /* \"smartContract/contracts/3_Ballot.sol\":3572:3573  4 */\n      0x04\n        /* \"smartContract/contracts/3_Ballot.sol\":3555:3561  sender */\n      dup2\n        /* \"smartContract/contracts/3_Ballot.sol\":3555:3570  sender.district */\n      0x02\n      add\n      sload\n        /* \"smartContract/contracts/3_Ballot.sol\":3555:3573  sender.district==4 */\n      eq\n        /* \"smartContract/contracts/3_Ballot.sol\":3551:4096  if (sender.district==4){proposals[random_vote()].Votes_District4 += sender.weight;}... */\n      iszero\n      tag_69\n      jumpi\n        /* \"smartContract/contracts/3_Ballot.sol\":3619:3625  sender */\n      dup1\n        /* \"smartContract/contracts/3_Ballot.sol\":3619:3632  sender.weight */\n      0x00\n      add\n      sload\n        /* \"smartContract/contracts/3_Ballot.sol\":3575:3584  proposals */\n      0x02\n        /* \"smartContract/contracts/3_Ballot.sol\":3585:3598  random_vote() */\n      tag_70\n        /* \"smartContract/contracts/3_Ballot.sol\":3585:3596  random_vote */\n      tag_31\n        /* \"smartContract/contracts/3_Ballot.sol\":3585:3598  random_vote() */\n      jump\t// in\n    tag_70:\n        /* \"smartContract/contracts/3_Ballot.sol\":3575:3599  proposals[random_vote()] */\n      dup2\n      sload\n      dup2\n      lt\n      tag_71\n      jumpi\n      tag_72\n      tag_37\n      jump\t// in\n    tag_72:\n    tag_71:\n      swap1\n      0x00\n      mstore\n      keccak256(0x00, 0x20)\n      swap1\n      0x0c\n      mul\n      add\n        /* \"smartContract/contracts/3_Ballot.sol\":3575:3615  proposals[random_vote()].Votes_District4 */\n      0x06\n      add\n      0x00\n        /* \"smartContract/contracts/3_Ballot.sol\":3575:3632  proposals[random_vote()].Votes_District4 += sender.weight */\n      dup3\n      dup3\n      sload\n      tag_74\n      swap2\n      swap1\n      tag_40\n      jump\t// in\n    tag_74:\n      swap3\n      pop\n      pop\n      dup2\n      swap1\n      sstore\n      pop\n        /* \"smartContract/contracts/3_Ballot.sol\":3551:4096  if (sender.district==4){proposals[random_vote()].Votes_District4 += sender.weight;}... */\n      jump(tag_75)\n    tag_69:\n        /* \"smartContract/contracts/3_Ballot.sol\":3669:3670  5 */\n      0x05\n        /* \"smartContract/contracts/3_Ballot.sol\":3652:3658  sender */\n      dup2\n        /* \"smartContract/contracts/3_Ballot.sol\":3652:3667  sender.district */\n      0x02\n      add\n      sload\n        /* \"smartContract/contracts/3_Ballot.sol\":3652:3670  sender.district==5 */\n      eq\n        /* \"smartContract/contracts/3_Ballot.sol\":3648:4096  if (sender.district==5){proposals[random_vote()].Votes_District5 += sender.weight;}... */\n      iszero\n      tag_76\n      jumpi\n        /* \"smartContract/contracts/3_Ballot.sol\":3716:3722  sender */\n      dup1\n        /* \"smartContract/contracts/3_Ballot.sol\":3716:3729  sender.weight */\n      0x00\n      add\n      sload\n        /* \"smartContract/contracts/3_Ballot.sol\":3672:3681  proposals */\n      0x02\n        /* \"smartContract/contracts/3_Ballot.sol\":3682:3695  random_vote() */\n      tag_77\n        /* \"smartContract/contracts/3_Ballot.sol\":3682:3693  random_vote */\n      tag_31\n        /* \"smartContract/contracts/3_Ballot.sol\":3682:3695  random_vote() */\n      jump\t// in\n    tag_77:\n        /* \"smartContract/contracts/3_Ballot.sol\":3672:3696  proposals[random_vote()] */\n      dup2\n      sload\n      dup2\n      lt\n      tag_78\n      jumpi\n      tag_79\n      tag_37\n      jump\t// in\n    tag_79:\n    tag_78:\n      swap1\n      0x00\n      mstore\n      keccak256(0x00, 0x20)\n      swap1\n      0x0c\n      mul\n      add\n        /* \"smartContract/contracts/3_Ballot.sol\":3672:3712  proposals[random_vote()].Votes_District5 */\n      0x07\n      add\n      0x00\n        /* \"smartContract/contracts/3_Ballot.sol\":3672:3729  proposals[random_vote()].Votes_District5 += sender.weight */\n      dup3\n      dup3\n      sload\n      tag_81\n      swap2\n      swap1\n      tag_40\n      jump\t// in\n    tag_81:\n      swap3\n      pop\n      pop\n      dup2\n      swap1\n      sstore\n      pop\n        /* \"smartContract/contracts/3_Ballot.sol\":3648:4096  if (sender.district==5){proposals[random_vote()].Votes_District5 += sender.weight;}... */\n      jump(tag_82)\n    tag_76:\n        /* \"smartContract/contracts/3_Ballot.sol\":3766:3767  6 */\n      0x06\n        /* \"smartContract/contracts/3_Ballot.sol\":3749:3755  sender */\n      dup2\n        /* \"smartContract/contracts/3_Ballot.sol\":3749:3764  sender.district */\n      0x02\n      add\n      sload\n        /* \"smartContract/contracts/3_Ballot.sol\":3749:3767  sender.district==6 */\n      eq\n        /* \"smartContract/contracts/3_Ballot.sol\":3745:4096  if (sender.district==6){proposals[random_vote()].Votes_District6 += sender.weight;}... */\n      iszero\n      tag_83\n      jumpi\n        /* \"smartContract/contracts/3_Ballot.sol\":3813:3819  sender */\n      dup1\n        /* \"smartContract/contracts/3_Ballot.sol\":3813:3826  sender.weight */\n      0x00\n      add\n      sload\n        /* \"smartContract/contracts/3_Ballot.sol\":3769:3778  proposals */\n      0x02\n        /* \"smartContract/contracts/3_Ballot.sol\":3779:3792  random_vote() */\n      tag_84\n        /* \"smartContract/contracts/3_Ballot.sol\":3779:3790  random_vote */\n      tag_31\n        /* \"smartContract/contracts/3_Ballot.sol\":3779:3792  random_vote() */\n      jump\t// in\n    tag_84:\n        /* \"smartContract/contracts/3_Ballot.sol\":3769:3793  proposals[random_vote()] */\n      dup2\n      sload\n      dup2\n      lt\n      tag_85\n      jumpi\n      tag_86\n      tag_37\n      jump\t// in\n    tag_86:\n    tag_85:\n      swap1\n      0x00\n      mstore\n      keccak256(0x00, 0x20)\n      swap1\n      0x0c\n      mul\n      add\n        /* \"smartContract/contracts/3_Ballot.sol\":3769:3809  proposals[random_vote()].Votes_District6 */\n      0x08\n      add\n      0x00\n        /* \"smartContract/contracts/3_Ballot.sol\":3769:3826  proposals[random_vote()].Votes_District6 += sender.weight */\n      dup3\n      dup3\n      sload\n      tag_88\n      swap2\n      swap1\n      tag_40\n      jump\t// in\n    tag_88:\n      swap3\n      pop\n      pop\n      dup2\n      swap1\n      sstore\n      pop\n        /* \"smartContract/contracts/3_Ballot.sol\":3745:4096  if (sender.district==6){proposals[random_vote()].Votes_District6 += sender.weight;}... */\n      jump(tag_89)\n    tag_83:\n        /* \"smartContract/contracts/3_Ballot.sol\":3863:3864  7 */\n      0x07\n        /* \"smartContract/contracts/3_Ballot.sol\":3846:3852  sender */\n      dup2\n        /* \"smartContract/contracts/3_Ballot.sol\":3846:3861  sender.district */\n      0x02\n      add\n      sload\n        /* \"smartContract/contracts/3_Ballot.sol\":3846:3864  sender.district==7 */\n      eq\n        /* \"smartContract/contracts/3_Ballot.sol\":3842:4096  if (sender.district==7){proposals[random_vote()].Votes_District7 += sender.weight;}... */\n      iszero\n      tag_90\n      jumpi\n        /* \"smartContract/contracts/3_Ballot.sol\":3910:3916  sender */\n      dup1\n        /* \"smartContract/contracts/3_Ballot.sol\":3910:3923  sender.weight */\n      0x00\n      add\n      sload\n        /* \"smartContract/contracts/3_Ballot.sol\":3866:3875  proposals */\n      0x02\n        /* \"smartContract/contracts/3_Ballot.sol\":3876:3889  random_vote() */\n      tag_91\n        /* \"smartContract/contracts/3_Ballot.sol\":3876:3887  random_vote */\n      tag_31\n        /* \"smartContract/contracts/3_Ballot.sol\":3876:3889  random_vote() */\n      jump\t// in\n    tag_91:\n        /* \"smartContract/contracts/3_Ballot.sol\":3866:3890  proposals[random_vote()] */\n      dup2\n      sload\n      dup2\n      lt\n      tag_92\n      jumpi\n      tag_93\n      tag_37\n      jump\t// in\n    tag_93:\n    tag_92:\n      swap1\n      0x00\n      mstore\n      keccak256(0x00, 0x20)\n      swap1\n      0x0c\n      mul\n      add\n        /* \"smartContract/contracts/3_Ballot.sol\":3866:3906  proposals[random_vote()].Votes_District7 */\n      0x09\n      add\n      0x00\n        /* \"smartContract/contracts/3_Ballot.sol\":3866:3923  proposals[random_vote()].Votes_District7 += sender.weight */\n      dup3\n      dup3\n      sload\n      tag_95\n      swap2\n      swap1\n      tag_40\n      jump\t// in\n    tag_95:\n      swap3\n      pop\n      pop\n      dup2\n      swap1\n      sstore\n      pop\n        /* \"smartContract/contracts/3_Ballot.sol\":3842:4096  if (sender.district==7){proposals[random_vote()].Votes_District7 += sender.weight;}... */\n      jump(tag_96)\n    tag_90:\n        /* \"smartContract/contracts/3_Ballot.sol\":3960:3961  8 */\n      0x08\n        /* \"smartContract/contracts/3_Ballot.sol\":3943:3949  sender */\n      dup2\n        /* \"smartContract/contracts/3_Ballot.sol\":3943:3958  sender.district */\n      0x02\n      add\n      sload\n        /* \"smartContract/contracts/3_Ballot.sol\":3943:3961  sender.district==8 */\n      eq\n        /* \"smartContract/contracts/3_Ballot.sol\":3939:4096  if (sender.district==8){proposals[random_vote()].Votes_District8 += sender.weight;}... */\n      iszero\n      tag_97\n      jumpi\n        /* \"smartContract/contracts/3_Ballot.sol\":4007:4013  sender */\n      dup1\n        /* \"smartContract/contracts/3_Ballot.sol\":4007:4020  sender.weight */\n      0x00\n      add\n      sload\n        /* \"smartContract/contracts/3_Ballot.sol\":3963:3972  proposals */\n      0x02\n        /* \"smartContract/contracts/3_Ballot.sol\":3973:3986  random_vote() */\n      tag_98\n        /* \"smartContract/contracts/3_Ballot.sol\":3973:3984  random_vote */\n      tag_31\n        /* \"smartContract/contracts/3_Ballot.sol\":3973:3986  random_vote() */\n      jump\t// in\n    tag_98:\n        /* \"smartContract/contracts/3_Ballot.sol\":3963:3987  proposals[random_vote()] */\n      dup2\n      sload\n      dup2\n      lt\n      tag_99\n      jumpi\n      tag_100\n      tag_37\n      jump\t// in\n    tag_100:\n    tag_99:\n      swap1\n      0x00\n      mstore\n      keccak256(0x00, 0x20)\n      swap1\n      0x0c\n      mul\n      add\n        /* \"smartContract/contracts/3_Ballot.sol\":3963:4003  proposals[random_vote()].Votes_District8 */\n      0x0a\n      add\n      0x00\n        /* \"smartContract/contracts/3_Ballot.sol\":3963:4020  proposals[random_vote()].Votes_District8 += sender.weight */\n      dup3\n      dup3\n      sload\n      tag_102\n      swap2\n      swap1\n      tag_40\n      jump\t// in\n    tag_102:\n      swap3\n      pop\n      pop\n      dup2\n      swap1\n      sstore\n      pop\n        /* \"smartContract/contracts/3_Ballot.sol\":3939:4096  if (sender.district==8){proposals[random_vote()].Votes_District8 += sender.weight;}... */\n      jump(tag_103)\n    tag_97:\n        /* \"smartContract/contracts/3_Ballot.sol\":4081:4087  sender */\n      dup1\n        /* \"smartContract/contracts/3_Ballot.sol\":4081:4094  sender.weight */\n      0x00\n      add\n      sload\n        /* \"smartContract/contracts/3_Ballot.sol\":4037:4046  proposals */\n      0x02\n        /* \"smartContract/contracts/3_Ballot.sol\":4047:4060  random_vote() */\n      tag_104\n        /* \"smartContract/contracts/3_Ballot.sol\":4047:4058  random_vote */\n      tag_31\n        /* \"smartContract/contracts/3_Ballot.sol\":4047:4060  random_vote() */\n      jump\t// in\n    tag_104:\n        /* \"smartContract/contracts/3_Ballot.sol\":4037:4061  proposals[random_vote()] */\n      dup2\n      sload\n      dup2\n      lt\n      tag_105\n      jumpi\n      tag_106\n      tag_37\n      jump\t// in\n    tag_106:\n    tag_105:\n      swap1\n      0x00\n      mstore\n      keccak256(0x00, 0x20)\n      swap1\n      0x0c\n      mul\n      add\n        /* \"smartContract/contracts/3_Ballot.sol\":4037:4077  proposals[random_vote()].Votes_District9 */\n      0x0b\n      add\n      0x00\n        /* \"smartContract/contracts/3_Ballot.sol\":4037:4094  proposals[random_vote()].Votes_District9 += sender.weight */\n      dup3\n      dup3\n      sload\n      tag_108\n      swap2\n      swap1\n      tag_40\n      jump\t// in\n    tag_108:\n      swap3\n      pop\n      pop\n      dup2\n      swap1\n      sstore\n      pop\n        /* \"smartContract/contracts/3_Ballot.sol\":3939:4096  if (sender.district==8){proposals[random_vote()].Votes_District8 += sender.weight;}... */\n    tag_103:\n        /* \"smartContract/contracts/3_Ballot.sol\":3842:4096  if (sender.district==7){proposals[random_vote()].Votes_District7 += sender.weight;}... */\n    tag_96:\n        /* \"smartContract/contracts/3_Ballot.sol\":3745:4096  if (sender.district==6){proposals[random_vote()].Votes_District6 += sender.weight;}... */\n    tag_89:\n        /* \"smartContract/contracts/3_Ballot.sol\":3648:4096  if (sender.district==5){proposals[random_vote()].Votes_District5 += sender.weight;}... */\n    tag_82:\n        /* \"smartContract/contracts/3_Ballot.sol\":3551:4096  if (sender.district==4){proposals[random_vote()].Votes_District4 += sender.weight;}... */\n    tag_75:\n        /* \"smartContract/contracts/3_Ballot.sol\":3454:4096  if (sender.district==3){proposals[random_vote()].Votes_District3 += sender.weight;}... */\n    tag_68:\n        /* \"smartContract/contracts/3_Ballot.sol\":3357:4096  if (sender.district==2){proposals[random_vote()].Votes_District2 += sender.weight;}... */\n    tag_61:\n        /* \"smartContract/contracts/3_Ballot.sol\":3260:4096  if (sender.district==1){proposals[random_vote()].Votes_District1 += sender.weight;}... */\n    tag_54:\n        /* \"smartContract/contracts/3_Ballot.sol\":3163:4096  if (sender.district==0){proposals[random_vote()].Votes_District0 += sender.weight;}... */\n    tag_47:\n        /* \"smartContract/contracts/3_Ballot.sol\":2490:4214  {... */\n      pop\n        /* \"smartContract/contracts/3_Ballot.sol\":2467:4214  function vote() public {... */\n      jump\t// out\n        /* \"smartContract/contracts/3_Ballot.sol\":2080:2101  int public countV = 0 */\n    tag_9:\n      sload(0x03)\n      dup2\n      jump\t// out\n        /* \"smartContract/contracts/3_Ballot.sol\":4220:4317  function res(uint _id) public view returns(Proposal memory){... */\n    tag_15:\n        /* \"smartContract/contracts/3_Ballot.sol\":4263:4278  Proposal memory */\n      tag_109\n      tag_110\n      jump\t// in\n    tag_109:\n        /* \"smartContract/contracts/3_Ballot.sol\":4296:4305  proposals */\n      0x02\n        /* \"smartContract/contracts/3_Ballot.sol\":4306:4309  _id */\n      dup3\n        /* \"smartContract/contracts/3_Ballot.sol\":4296:4310  proposals[_id] */\n      dup2\n      sload\n      dup2\n      lt\n      tag_112\n      jumpi\n      tag_113\n      tag_37\n      jump\t// in\n    tag_113:\n    tag_112:\n      swap1\n      0x00\n      mstore\n      keccak256(0x00, 0x20)\n      swap1\n      0x0c\n      mul\n      add\n        /* \"smartContract/contracts/3_Ballot.sol\":4289:4310  return proposals[_id] */\n      mload(0x40)\n      dup1\n      0x0180\n      add\n      0x40\n      mstore\n      swap1\n      dup2\n      0x00\n      dup3\n      add\n      dup1\n      sload\n      tag_115\n      swap1\n      tag_116\n      jump\t// in\n    tag_115:\n      dup1\n      0x1f\n      add\n      0x20\n      dup1\n      swap2\n      div\n      mul\n      0x20\n      add\n      mload(0x40)\n      swap1\n      dup2\n      add\n      0x40\n      mstore\n      dup1\n      swap3\n      swap2\n      swap1\n      dup2\n      dup2\n      mstore\n      0x20\n      add\n      dup3\n      dup1\n      sload\n      tag_117\n      swap1\n      tag_116\n      jump\t// in\n    tag_117:\n      dup1\n      iszero\n      tag_118\n      jumpi\n      dup1\n      0x1f\n      lt\n      tag_119\n      jumpi\n      0x0100\n      dup1\n      dup4\n      sload\n      div\n      mul\n      dup4\n      mstore\n      swap2\n      0x20\n      add\n      swap2\n      jump(tag_118)\n    tag_119:\n      dup3\n      add\n      swap2\n      swap1\n      0x00\n      mstore\n      keccak256(0x00, 0x20)\n      swap1\n    tag_120:\n      dup2\n      sload\n      dup2\n      mstore\n      swap1\n      0x01\n      add\n      swap1\n      0x20\n      add\n      dup1\n      dup4\n      gt\n      tag_120\n      jumpi\n      dup3\n      swap1\n      sub\n      0x1f\n      and\n      dup3\n      add\n      swap2\n    tag_118:\n      pop\n      pop\n      pop\n      pop\n      pop\n      dup2\n      mstore\n      0x20\n      add\n      0x01\n      dup3\n      add\n      sload\n      dup2\n      mstore\n      0x20\n      add\n      0x02\n      dup3\n      add\n      sload\n      dup2\n      mstore\n      0x20\n      add\n      0x03\n      dup3\n      add\n      sload\n      dup2\n      mstore\n      0x20\n      add\n      0x04\n      dup3\n      add\n      sload\n      dup2\n      mstore\n      0x20\n      add\n      0x05\n      dup3\n      add\n      sload\n      dup2\n      mstore\n      0x20\n      add\n      0x06\n      dup3\n      add\n      sload\n      dup2\n      mstore\n      0x20\n      add\n      0x07\n      dup3\n      add\n      sload\n      dup2\n      mstore\n      0x20\n      add\n      0x08\n      dup3\n      add\n      sload\n      dup2\n      mstore\n      0x20\n      add\n      0x09\n      dup3\n      add\n      sload\n      dup2\n      mstore\n      0x20\n      add\n      0x0a\n      dup3\n      add\n      sload\n      dup2\n      mstore\n      0x20\n      add\n      0x0b\n      dup3\n      add\n      sload\n      dup2\n      mstore\n      pop\n      pop\n      swap1\n      pop\n        /* \"smartContract/contracts/3_Ballot.sol\":4220:4317  function res(uint _id) public view returns(Proposal memory){... */\n      swap2\n      swap1\n      pop\n      jump\t// out\n        /* \"smartContract/contracts/3_Ballot.sol\":1015:1186  function random_district() private view returns(uint){... */\n    tag_26:\n        /* \"smartContract/contracts/3_Ballot.sol\":1063:1067  uint */\n      0x00\n        /* \"smartContract/contracts/3_Ballot.sol\":1177:1179  10 */\n      0x0a\n        /* \"smartContract/contracts/3_Ballot.sol\":1117:1132  block.timestamp */\n      timestamp\n        /* \"smartContract/contracts/3_Ballot.sol\":1133:1149  block.difficulty */\n      difficulty\n        /* \"smartContract/contracts/3_Ballot.sol\":1161:1171  msg.sender */\n      caller\n        /* \"smartContract/contracts/3_Ballot.sol\":1100:1172  abi.encodePacked(block.timestamp,block.difficulty,  ... */\n      add(0x20, mload(0x40))\n      tag_122\n      swap4\n      swap3\n      swap2\n      swap1\n      tag_123\n      jump\t// in\n    tag_122:\n      mload(0x40)\n      0x20\n      dup2\n      dup4\n      sub\n      sub\n      dup2\n      mstore\n      swap1\n      0x40\n      mstore\n        /* \"smartContract/contracts/3_Ballot.sol\":1090:1173  keccak256(abi.encodePacked(block.timestamp,block.difficulty,  ... */\n      dup1\n      mload\n      swap1\n      0x20\n      add\n      keccak256\n        /* \"smartContract/contracts/3_Ballot.sol\":1085:1174  uint(keccak256(abi.encodePacked(block.timestamp,block.difficulty,  ... */\n      0x00\n      shr\n        /* \"smartContract/contracts/3_Ballot.sol\":1085:1179  uint(keccak256(abi.encodePacked(block.timestamp,block.difficulty,  ... */\n      tag_124\n      swap2\n      swap1\n      tag_125\n      jump\t// in\n    tag_124:\n        /* \"smartContract/contracts/3_Ballot.sol\":1078:1179  return uint(keccak256(abi.encodePacked(block.timestamp,block.difficulty,  ... */\n      swap1\n      pop\n        /* \"smartContract/contracts/3_Ballot.sol\":1015:1186  function random_district() private view returns(uint){... */\n      swap1\n      jump\t// out\n        /* \"smartContract/contracts/3_Ballot.sol\":2283:2461  function random_vote() private view returns(uint){... */\n    tag_31:\n        /* \"smartContract/contracts/3_Ballot.sol\":2327:2331  uint */\n      0x00\n        /* \"smartContract/contracts/3_Ballot.sol\":2449:2450  5 */\n      0x05\n        /* \"smartContract/contracts/3_Ballot.sol\":2385:2400  block.timestamp */\n      timestamp\n        /* \"smartContract/contracts/3_Ballot.sol\":2401:2417  block.difficulty */\n      difficulty\n        /* \"smartContract/contracts/3_Ballot.sol\":2433:2443  msg.sender */\n      caller\n        /* \"smartContract/contracts/3_Ballot.sol\":2368:2444  abi.encodePacked(block.timestamp,block.difficulty,  ... */\n      add(0x20, mload(0x40))\n      tag_127\n      swap4\n      swap3\n      swap2\n      swap1\n      tag_123\n      jump\t// in\n    tag_127:\n      mload(0x40)\n      0x20\n      dup2\n      dup4\n      sub\n      sub\n      dup2\n      mstore\n      swap1\n      0x40\n      mstore\n        /* \"smartContract/contracts/3_Ballot.sol\":2358:2445  keccak256(abi.encodePacked(block.timestamp,block.difficulty,  ... */\n      dup1\n      mload\n      swap1\n      0x20\n      add\n      keccak256\n        /* \"smartContract/contracts/3_Ballot.sol\":2353:2446  uint(keccak256(abi.encodePacked(block.timestamp,block.difficulty,  ... */\n      0x00\n      shr\n        /* \"smartContract/contracts/3_Ballot.sol\":2353:2450  uint(keccak256(abi.encodePacked(block.timestamp,block.difficulty,  ... */\n      tag_128\n      swap2\n      swap1\n      tag_125\n      jump\t// in\n    tag_128:\n        /* \"smartContract/contracts/3_Ballot.sol\":2346:2450  return uint(keccak256(abi.encodePacked(block.timestamp,block.difficulty,  ... */\n      swap1\n      pop\n        /* \"smartContract/contracts/3_Ballot.sol\":2283:2461  function random_vote() private view returns(uint){... */\n      swap1\n      jump\t// out\n        /* \"smartContract/contracts/3_Ballot.sol\":2107:2166  function countVoters() private {... */\n    tag_33:\n        /* \"smartContract/contracts/3_Ballot.sol\":2158:2159  1 */\n      0x01\n        /* \"smartContract/contracts/3_Ballot.sol\":2148:2154  countV */\n      0x03\n      0x00\n        /* \"smartContract/contracts/3_Ballot.sol\":2148:2159  countV += 1 */\n      dup3\n      dup3\n      sload\n      tag_130\n      swap2\n      swap1\n      tag_131\n      jump\t// in\n    tag_130:\n      swap3\n      pop\n      pop\n      dup2\n      swap1\n      sstore\n      pop\n        /* \"smartContract/contracts/3_Ballot.sol\":2107:2166  function countVoters() private {... */\n      jump\t// out\n    tag_110:\n      mload(0x40)\n      dup1\n      0x0180\n      add\n      0x40\n      mstore\n      dup1\n      0x60\n      dup2\n      mstore\n      0x20\n      add\n      0x00\n      dup2\n      mstore\n      0x20\n      add\n      0x00\n      dup2\n      mstore\n      0x20\n      add\n      0x00\n      dup2\n      mstore\n      0x20\n      add\n      0x00\n      dup2\n      mstore\n      0x20\n      add\n      0x00\n      dup2\n      mstore\n      0x20\n      add\n      0x00\n      dup2\n      mstore\n      0x20\n      add\n      0x00\n      dup2\n      mstore\n      0x20\n      add\n      0x00\n      dup2\n      mstore\n      0x20\n      add\n      0x00\n      dup2\n      mstore\n      0x20\n      add\n      0x00\n      dup2\n      mstore\n      0x20\n      add\n      0x00\n      dup2\n      mstore\n      pop\n      swap1\n      jump\t// out\n        /* \"#utility.yul\":7:146   */\n    tag_133:\n        /* \"#utility.yul\":53:58   */\n      0x00\n        /* \"#utility.yul\":91:97   */\n      dup2\n        /* \"#utility.yul\":78:98   */\n      calldataload\n        /* \"#utility.yul\":69:98   */\n      swap1\n      pop\n        /* \"#utility.yul\":107:140   */\n      tag_135\n        /* \"#utility.yul\":134:139   */\n      dup2\n        /* \"#utility.yul\":107:140   */\n      tag_136\n      jump\t// in\n    tag_135:\n        /* \"#utility.yul\":7:146   */\n      swap3\n      swap2\n      pop\n      pop\n      jump\t// out\n        /* \"#utility.yul\":152:481   */\n    tag_14:\n        /* \"#utility.yul\":211:217   */\n      0x00\n        /* \"#utility.yul\":260:262   */\n      0x20\n        /* \"#utility.yul\":248:257   */\n      dup3\n        /* \"#utility.yul\":239:246   */\n      dup5\n        /* \"#utility.yul\":235:258   */\n      sub\n        /* \"#utility.yul\":231:263   */\n      slt\n        /* \"#utility.yul\":228:347   */\n      iszero\n      tag_138\n      jumpi\n        /* \"#utility.yul\":266:345   */\n      tag_139\n      tag_140\n      jump\t// in\n    tag_139:\n        /* \"#utility.yul\":228:347   */\n    tag_138:\n        /* \"#utility.yul\":386:387   */\n      0x00\n        /* \"#utility.yul\":411:464   */\n      tag_141\n        /* \"#utility.yul\":456:463   */\n      dup5\n        /* \"#utility.yul\":447:453   */\n      dup3\n        /* \"#utility.yul\":436:445   */\n      dup6\n        /* \"#utility.yul\":432:454   */\n      add\n        /* \"#utility.yul\":411:464   */\n      tag_133\n      jump\t// in\n    tag_141:\n        /* \"#utility.yul\":401:464   */\n      swap2\n      pop\n        /* \"#utility.yul\":357:474   */\n      pop\n        /* \"#utility.yul\":152:481   */\n      swap3\n      swap2\n      pop\n      pop\n      jump\t// out\n        /* \"#utility.yul\":487:644   */\n    tag_142:\n        /* \"#utility.yul\":592:637   */\n      tag_144\n        /* \"#utility.yul\":612:636   */\n      tag_145\n        /* \"#utility.yul\":630:635   */\n      dup3\n        /* \"#utility.yul\":612:636   */\n      tag_146\n      jump\t// in\n    tag_145:\n        /* \"#utility.yul\":592:637   */\n      tag_147\n      jump\t// in\n    tag_144:\n        /* \"#utility.yul\":587:590   */\n      dup3\n        /* \"#utility.yul\":580:638   */\n      mstore\n        /* \"#utility.yul\":487:644   */\n      pop\n      pop\n      jump\t// out\n        /* \"#utility.yul\":650:765   */\n    tag_148:\n        /* \"#utility.yul\":735:758   */\n      tag_150\n        /* \"#utility.yul\":752:757   */\n      dup2\n        /* \"#utility.yul\":735:758   */\n      tag_151\n      jump\t// in\n    tag_150:\n        /* \"#utility.yul\":730:733   */\n      dup3\n        /* \"#utility.yul\":723:759   */\n      mstore\n        /* \"#utility.yul\":650:765   */\n      pop\n      pop\n      jump\t// out\n        /* \"#utility.yul\":771:1115   */\n    tag_152:\n        /* \"#utility.yul\":849:852   */\n      0x00\n        /* \"#utility.yul\":877:916   */\n      tag_154\n        /* \"#utility.yul\":910:915   */\n      dup3\n        /* \"#utility.yul\":877:916   */\n      tag_155\n      jump\t// in\n    tag_154:\n        /* \"#utility.yul\":932:993   */\n      tag_156\n        /* \"#utility.yul\":986:992   */\n      dup2\n        /* \"#utility.yul\":981:984   */\n      dup6\n        /* \"#utility.yul\":932:993   */\n      tag_157\n      jump\t// in\n    tag_156:\n        /* \"#utility.yul\":925:993   */\n      swap4\n      pop\n        /* \"#utility.yul\":1002:1054   */\n      tag_158\n        /* \"#utility.yul\":1047:1053   */\n      dup2\n        /* \"#utility.yul\":1042:1045   */\n      dup6\n        /* \"#utility.yul\":1035:1039   */\n      0x20\n        /* \"#utility.yul\":1028:1033   */\n      dup7\n        /* \"#utility.yul\":1024:1040   */\n      add\n        /* \"#utility.yul\":1002:1054   */\n      tag_159\n      jump\t// in\n    tag_158:\n        /* \"#utility.yul\":1079:1108   */\n      tag_160\n        /* \"#utility.yul\":1101:1107   */\n      dup2\n        /* \"#utility.yul\":1079:1108   */\n      tag_161\n      jump\t// in\n    tag_160:\n        /* \"#utility.yul\":1074:1077   */\n      dup5\n        /* \"#utility.yul\":1070:1109   */\n      add\n        /* \"#utility.yul\":1063:1109   */\n      swap2\n      pop\n        /* \"#utility.yul\":853:1115   */\n      pop\n        /* \"#utility.yul\":771:1115   */\n      swap3\n      swap2\n      pop\n      pop\n      jump\t// out\n        /* \"#utility.yul\":1121:1487   */\n    tag_162:\n        /* \"#utility.yul\":1263:1266   */\n      0x00\n        /* \"#utility.yul\":1284:1351   */\n      tag_164\n        /* \"#utility.yul\":1348:1350   */\n      0x0e\n        /* \"#utility.yul\":1343:1346   */\n      dup4\n        /* \"#utility.yul\":1284:1351   */\n      tag_165\n      jump\t// in\n    tag_164:\n        /* \"#utility.yul\":1277:1351   */\n      swap2\n      pop\n        /* \"#utility.yul\":1360:1453   */\n      tag_166\n        /* \"#utility.yul\":1449:1452   */\n      dup3\n        /* \"#utility.yul\":1360:1453   */\n      tag_167\n      jump\t// in\n    tag_166:\n        /* \"#utility.yul\":1478:1480   */\n      0x20\n        /* \"#utility.yul\":1473:1476   */\n      dup3\n        /* \"#utility.yul\":1469:1481   */\n      add\n        /* \"#utility.yul\":1462:1481   */\n      swap1\n      pop\n        /* \"#utility.yul\":1121:1487   */\n      swap2\n      swap1\n      pop\n      jump\t// out\n        /* \"#utility.yul\":1493:1859   */\n    tag_168:\n        /* \"#utility.yul\":1635:1638   */\n      0x00\n        /* \"#utility.yul\":1656:1723   */\n      tag_170\n        /* \"#utility.yul\":1720:1722   */\n      0x18\n        /* \"#utility.yul\":1715:1718   */\n      dup4\n        /* \"#utility.yul\":1656:1723   */\n      tag_165\n      jump\t// in\n    tag_170:\n        /* \"#utility.yul\":1649:1723   */\n      swap2\n      pop\n        /* \"#utility.yul\":1732:1825   */\n      tag_171\n        /* \"#utility.yul\":1821:1824   */\n      dup3\n        /* \"#utility.yul\":1732:1825   */\n      tag_172\n      jump\t// in\n    tag_171:\n        /* \"#utility.yul\":1850:1852   */\n      0x20\n        /* \"#utility.yul\":1845:1848   */\n      dup3\n        /* \"#utility.yul\":1841:1853   */\n      add\n        /* \"#utility.yul\":1834:1853   */\n      swap1\n      pop\n        /* \"#utility.yul\":1493:1859   */\n      swap2\n      swap1\n      pop\n      jump\t// out\n        /* \"#utility.yul\":1865:2231   */\n    tag_173:\n        /* \"#utility.yul\":2007:2010   */\n      0x00\n        /* \"#utility.yul\":2028:2095   */\n      tag_175\n        /* \"#utility.yul\":2092:2094   */\n      0x13\n        /* \"#utility.yul\":2087:2090   */\n      dup4\n        /* \"#utility.yul\":2028:2095   */\n      tag_165\n      jump\t// in\n    tag_175:\n        /* \"#utility.yul\":2021:2095   */\n      swap2\n      pop\n        /* \"#utility.yul\":2104:2197   */\n      tag_176\n        /* \"#utility.yul\":2193:2196   */\n      dup3\n        /* \"#utility.yul\":2104:2197   */\n      tag_177\n      jump\t// in\n    tag_176:\n        /* \"#utility.yul\":2222:2224   */\n      0x20\n        /* \"#utility.yul\":2217:2220   */\n      dup3\n        /* \"#utility.yul\":2213:2225   */\n      add\n        /* \"#utility.yul\":2206:2225   */\n      swap1\n      pop\n        /* \"#utility.yul\":1865:2231   */\n      swap2\n      swap1\n      pop\n      jump\t// out\n        /* \"#utility.yul\":2293:4772   */\n    tag_178:\n        /* \"#utility.yul\":2410:2413   */\n      0x00\n        /* \"#utility.yul\":2446:2452   */\n      0x0180\n        /* \"#utility.yul\":2441:2444   */\n      dup4\n        /* \"#utility.yul\":2437:2453   */\n      add\n        /* \"#utility.yul\":2535:2539   */\n      0x00\n        /* \"#utility.yul\":2528:2533   */\n      dup4\n        /* \"#utility.yul\":2524:2540   */\n      add\n        /* \"#utility.yul\":2518:2541   */\n      mload\n        /* \"#utility.yul\":2588:2591   */\n      dup5\n        /* \"#utility.yul\":2582:2586   */\n      dup3\n        /* \"#utility.yul\":2578:2592   */\n      sub\n        /* \"#utility.yul\":2571:2575   */\n      0x00\n        /* \"#utility.yul\":2566:2569   */\n      dup7\n        /* \"#utility.yul\":2562:2576   */\n      add\n        /* \"#utility.yul\":2555:2593   */\n      mstore\n        /* \"#utility.yul\":2614:2687   */\n      tag_180\n        /* \"#utility.yul\":2682:2686   */\n      dup3\n        /* \"#utility.yul\":2668:2680   */\n      dup3\n        /* \"#utility.yul\":2614:2687   */\n      tag_152\n      jump\t// in\n    tag_180:\n        /* \"#utility.yul\":2606:2687   */\n      swap2\n      pop\n        /* \"#utility.yul\":2463:2698   */\n      pop\n        /* \"#utility.yul\":2787:2791   */\n      0x20\n        /* \"#utility.yul\":2780:2785   */\n      dup4\n        /* \"#utility.yul\":2776:2792   */\n      add\n        /* \"#utility.yul\":2770:2793   */\n      mload\n        /* \"#utility.yul\":2806:2869   */\n      tag_181\n        /* \"#utility.yul\":2863:2867   */\n      0x20\n        /* \"#utility.yul\":2858:2861   */\n      dup7\n        /* \"#utility.yul\":2854:2868   */\n      add\n        /* \"#utility.yul\":2840:2852   */\n      dup3\n        /* \"#utility.yul\":2806:2869   */\n      tag_182\n      jump\t// in\n    tag_181:\n        /* \"#utility.yul\":2708:2879   */\n      pop\n        /* \"#utility.yul\":2972:2976   */\n      0x40\n        /* \"#utility.yul\":2965:2970   */\n      dup4\n        /* \"#utility.yul\":2961:2977   */\n      add\n        /* \"#utility.yul\":2955:2978   */\n      mload\n        /* \"#utility.yul\":2991:3054   */\n      tag_183\n        /* \"#utility.yul\":3048:3052   */\n      0x40\n        /* \"#utility.yul\":3043:3046   */\n      dup7\n        /* \"#utility.yul\":3039:3053   */\n      add\n        /* \"#utility.yul\":3025:3037   */\n      dup3\n        /* \"#utility.yul\":2991:3054   */\n      tag_182\n      jump\t// in\n    tag_183:\n        /* \"#utility.yul\":2889:3064   */\n      pop\n        /* \"#utility.yul\":3157:3161   */\n      0x60\n        /* \"#utility.yul\":3150:3155   */\n      dup4\n        /* \"#utility.yul\":3146:3162   */\n      add\n        /* \"#utility.yul\":3140:3163   */\n      mload\n        /* \"#utility.yul\":3176:3239   */\n      tag_184\n        /* \"#utility.yul\":3233:3237   */\n      0x60\n        /* \"#utility.yul\":3228:3231   */\n      dup7\n        /* \"#utility.yul\":3224:3238   */\n      add\n        /* \"#utility.yul\":3210:3222   */\n      dup3\n        /* \"#utility.yul\":3176:3239   */\n      tag_182\n      jump\t// in\n    tag_184:\n        /* \"#utility.yul\":3074:3249   */\n      pop\n        /* \"#utility.yul\":3342:3346   */\n      0x80\n        /* \"#utility.yul\":3335:3340   */\n      dup4\n        /* \"#utility.yul\":3331:3347   */\n      add\n        /* \"#utility.yul\":3325:3348   */\n      mload\n        /* \"#utility.yul\":3361:3424   */\n      tag_185\n        /* \"#utility.yul\":3418:3422   */\n      0x80\n        /* \"#utility.yul\":3413:3416   */\n      dup7\n        /* \"#utility.yul\":3409:3423   */\n      add\n        /* \"#utility.yul\":3395:3407   */\n      dup3\n        /* \"#utility.yul\":3361:3424   */\n      tag_182\n      jump\t// in\n    tag_185:\n        /* \"#utility.yul\":3259:3434   */\n      pop\n        /* \"#utility.yul\":3527:3531   */\n      0xa0\n        /* \"#utility.yul\":3520:3525   */\n      dup4\n        /* \"#utility.yul\":3516:3532   */\n      add\n        /* \"#utility.yul\":3510:3533   */\n      mload\n        /* \"#utility.yul\":3546:3609   */\n      tag_186\n        /* \"#utility.yul\":3603:3607   */\n      0xa0\n        /* \"#utility.yul\":3598:3601   */\n      dup7\n        /* \"#utility.yul\":3594:3608   */\n      add\n        /* \"#utility.yul\":3580:3592   */\n      dup3\n        /* \"#utility.yul\":3546:3609   */\n      tag_182\n      jump\t// in\n    tag_186:\n        /* \"#utility.yul\":3444:3619   */\n      pop\n        /* \"#utility.yul\":3712:3716   */\n      0xc0\n        /* \"#utility.yul\":3705:3710   */\n      dup4\n        /* \"#utility.yul\":3701:3717   */\n      add\n        /* \"#utility.yul\":3695:3718   */\n      mload\n        /* \"#utility.yul\":3731:3794   */\n      tag_187\n        /* \"#utility.yul\":3788:3792   */\n      0xc0\n        /* \"#utility.yul\":3783:3786   */\n      dup7\n        /* \"#utility.yul\":3779:3793   */\n      add\n        /* \"#utility.yul\":3765:3777   */\n      dup3\n        /* \"#utility.yul\":3731:3794   */\n      tag_182\n      jump\t// in\n    tag_187:\n        /* \"#utility.yul\":3629:3804   */\n      pop\n        /* \"#utility.yul\":3897:3901   */\n      0xe0\n        /* \"#utility.yul\":3890:3895   */\n      dup4\n        /* \"#utility.yul\":3886:3902   */\n      add\n        /* \"#utility.yul\":3880:3903   */\n      mload\n        /* \"#utility.yul\":3916:3979   */\n      tag_188\n        /* \"#utility.yul\":3973:3977   */\n      0xe0\n        /* \"#utility.yul\":3968:3971   */\n      dup7\n        /* \"#utility.yul\":3964:3978   */\n      add\n        /* \"#utility.yul\":3950:3962   */\n      dup3\n        /* \"#utility.yul\":3916:3979   */\n      tag_182\n      jump\t// in\n    tag_188:\n        /* \"#utility.yul\":3814:3989   */\n      pop\n        /* \"#utility.yul\":4082:4088   */\n      0x0100\n        /* \"#utility.yul\":4075:4080   */\n      dup4\n        /* \"#utility.yul\":4071:4089   */\n      add\n        /* \"#utility.yul\":4065:4090   */\n      mload\n        /* \"#utility.yul\":4103:4168   */\n      tag_189\n        /* \"#utility.yul\":4160:4166   */\n      0x0100\n        /* \"#utility.yul\":4155:4158   */\n      dup7\n        /* \"#utility.yul\":4151:4167   */\n      add\n        /* \"#utility.yul\":4137:4149   */\n      dup3\n        /* \"#utility.yul\":4103:4168   */\n      tag_182\n      jump\t// in\n    tag_189:\n        /* \"#utility.yul\":3999:4178   */\n      pop\n        /* \"#utility.yul\":4271:4277   */\n      0x0120\n        /* \"#utility.yul\":4264:4269   */\n      dup4\n        /* \"#utility.yul\":4260:4278   */\n      add\n        /* \"#utility.yul\":4254:4279   */\n      mload\n        /* \"#utility.yul\":4292:4357   */\n      tag_190\n        /* \"#utility.yul\":4349:4355   */\n      0x0120\n        /* \"#utility.yul\":4344:4347   */\n      dup7\n        /* \"#utility.yul\":4340:4356   */\n      add\n        /* \"#utility.yul\":4326:4338   */\n      dup3\n        /* \"#utility.yul\":4292:4357   */\n      tag_182\n      jump\t// in\n    tag_190:\n        /* \"#utility.yul\":4188:4367   */\n      pop\n        /* \"#utility.yul\":4460:4466   */\n      0x0140\n        /* \"#utility.yul\":4453:4458   */\n      dup4\n        /* \"#utility.yul\":4449:4467   */\n      add\n        /* \"#utility.yul\":4443:4468   */\n      mload\n        /* \"#utility.yul\":4481:4546   */\n      tag_191\n        /* \"#utility.yul\":4538:4544   */\n      0x0140\n        /* \"#utility.yul\":4533:4536   */\n      dup7\n        /* \"#utility.yul\":4529:4545   */\n      add\n        /* \"#utility.yul\":4515:4527   */\n      dup3\n        /* \"#utility.yul\":4481:4546   */\n      tag_182\n      jump\t// in\n    tag_191:\n        /* \"#utility.yul\":4377:4556   */\n      pop\n        /* \"#utility.yul\":4649:4655   */\n      0x0160\n        /* \"#utility.yul\":4642:4647   */\n      dup4\n        /* \"#utility.yul\":4638:4656   */\n      add\n        /* \"#utility.yul\":4632:4657   */\n      mload\n        /* \"#utility.yul\":4670:4735   */\n      tag_192\n        /* \"#utility.yul\":4727:4733   */\n      0x0160\n        /* \"#utility.yul\":4722:4725   */\n      dup7\n        /* \"#utility.yul\":4718:4734   */\n      add\n        /* \"#utility.yul\":4704:4716   */\n      dup3\n        /* \"#utility.yul\":4670:4735   */\n      tag_182\n      jump\t// in\n    tag_192:\n        /* \"#utility.yul\":4566:4745   */\n      pop\n        /* \"#utility.yul\":4762:4766   */\n      dup1\n        /* \"#utility.yul\":4755:4766   */\n      swap2\n      pop\n        /* \"#utility.yul\":2415:4772   */\n      pop\n        /* \"#utility.yul\":2293:4772   */\n      swap3\n      swap2\n      pop\n      pop\n      jump\t// out\n        /* \"#utility.yul\":4778:4886   */\n    tag_182:\n        /* \"#utility.yul\":4855:4879   */\n      tag_194\n        /* \"#utility.yul\":4873:4878   */\n      dup2\n        /* \"#utility.yul\":4855:4879   */\n      tag_195\n      jump\t// in\n    tag_194:\n        /* \"#utility.yul\":4850:4853   */\n      dup3\n        /* \"#utility.yul\":4843:4880   */\n      mstore\n        /* \"#utility.yul\":4778:4886   */\n      pop\n      pop\n      jump\t// out\n        /* \"#utility.yul\":4892:5049   */\n    tag_196:\n        /* \"#utility.yul\":4997:5042   */\n      tag_198\n        /* \"#utility.yul\":5017:5041   */\n      tag_199\n        /* \"#utility.yul\":5035:5040   */\n      dup3\n        /* \"#utility.yul\":5017:5041   */\n      tag_195\n      jump\t// in\n    tag_199:\n        /* \"#utility.yul\":4997:5042   */\n      tag_200\n      jump\t// in\n    tag_198:\n        /* \"#utility.yul\":4992:4995   */\n      dup3\n        /* \"#utility.yul\":4985:5043   */\n      mstore\n        /* \"#utility.yul\":4892:5049   */\n      pop\n      pop\n      jump\t// out\n        /* \"#utility.yul\":5055:5593   */\n    tag_123:\n        /* \"#utility.yul\":5223:5226   */\n      0x00\n        /* \"#utility.yul\":5238:5313   */\n      tag_202\n        /* \"#utility.yul\":5309:5312   */\n      dup3\n        /* \"#utility.yul\":5300:5306   */\n      dup7\n        /* \"#utility.yul\":5238:5313   */\n      tag_196\n      jump\t// in\n    tag_202:\n        /* \"#utility.yul\":5338:5340   */\n      0x20\n        /* \"#utility.yul\":5333:5336   */\n      dup3\n        /* \"#utility.yul\":5329:5341   */\n      add\n        /* \"#utility.yul\":5322:5341   */\n      swap2\n      pop\n        /* \"#utility.yul\":5351:5426   */\n      tag_203\n        /* \"#utility.yul\":5422:5425   */\n      dup3\n        /* \"#utility.yul\":5413:5419   */\n      dup6\n        /* \"#utility.yul\":5351:5426   */\n      tag_196\n      jump\t// in\n    tag_203:\n        /* \"#utility.yul\":5451:5453   */\n      0x20\n        /* \"#utility.yul\":5446:5449   */\n      dup3\n        /* \"#utility.yul\":5442:5454   */\n      add\n        /* \"#utility.yul\":5435:5454   */\n      swap2\n      pop\n        /* \"#utility.yul\":5464:5539   */\n      tag_204\n        /* \"#utility.yul\":5535:5538   */\n      dup3\n        /* \"#utility.yul\":5526:5532   */\n      dup5\n        /* \"#utility.yul\":5464:5539   */\n      tag_142\n      jump\t// in\n    tag_204:\n        /* \"#utility.yul\":5564:5566   */\n      0x14\n        /* \"#utility.yul\":5559:5562   */\n      dup3\n        /* \"#utility.yul\":5555:5567   */\n      add\n        /* \"#utility.yul\":5548:5567   */\n      swap2\n      pop\n        /* \"#utility.yul\":5584:5587   */\n      dup2\n        /* \"#utility.yul\":5577:5587   */\n      swap1\n      pop\n        /* \"#utility.yul\":5055:5593   */\n      swap5\n      swap4\n      pop\n      pop\n      pop\n      pop\n      jump\t// out\n        /* \"#utility.yul\":5599:5817   */\n    tag_11:\n        /* \"#utility.yul\":5690:5694   */\n      0x00\n        /* \"#utility.yul\":5728:5730   */\n      0x20\n        /* \"#utility.yul\":5717:5726   */\n      dup3\n        /* \"#utility.yul\":5713:5731   */\n      add\n        /* \"#utility.yul\":5705:5731   */\n      swap1\n      pop\n        /* \"#utility.yul\":5741:5810   */\n      tag_206\n        /* \"#utility.yul\":5807:5808   */\n      0x00\n        /* \"#utility.yul\":5796:5805   */\n      dup4\n        /* \"#utility.yul\":5792:5809   */\n      add\n        /* \"#utility.yul\":5783:5789   */\n      dup5\n        /* \"#utility.yul\":5741:5810   */\n      tag_148\n      jump\t// in\n    tag_206:\n        /* \"#utility.yul\":5599:5817   */\n      swap3\n      swap2\n      pop\n      pop\n      jump\t// out\n        /* \"#utility.yul\":5823:6242   */\n    tag_29:\n        /* \"#utility.yul\":5989:5993   */\n      0x00\n        /* \"#utility.yul\":6027:6029   */\n      0x20\n        /* \"#utility.yul\":6016:6025   */\n      dup3\n        /* \"#utility.yul\":6012:6030   */\n      add\n        /* \"#utility.yul\":6004:6030   */\n      swap1\n      pop\n        /* \"#utility.yul\":6076:6085   */\n      dup2\n        /* \"#utility.yul\":6070:6074   */\n      dup2\n        /* \"#utility.yul\":6066:6086   */\n      sub\n        /* \"#utility.yul\":6062:6063   */\n      0x00\n        /* \"#utility.yul\":6051:6060   */\n      dup4\n        /* \"#utility.yul\":6047:6064   */\n      add\n        /* \"#utility.yul\":6040:6087   */\n      mstore\n        /* \"#utility.yul\":6104:6235   */\n      tag_208\n        /* \"#utility.yul\":6230:6234   */\n      dup2\n        /* \"#utility.yul\":6104:6235   */\n      tag_162\n      jump\t// in\n    tag_208:\n        /* \"#utility.yul\":6096:6235   */\n      swap1\n      pop\n        /* \"#utility.yul\":5823:6242   */\n      swap2\n      swap1\n      pop\n      jump\t// out\n        /* \"#utility.yul\":6248:6667   */\n    tag_21:\n        /* \"#utility.yul\":6414:6418   */\n      0x00\n        /* \"#utility.yul\":6452:6454   */\n      0x20\n        /* \"#utility.yul\":6441:6450   */\n      dup3\n        /* \"#utility.yul\":6437:6455   */\n      add\n        /* \"#utility.yul\":6429:6455   */\n      swap1\n      pop\n        /* \"#utility.yul\":6501:6510   */\n      dup2\n        /* \"#utility.yul\":6495:6499   */\n      dup2\n        /* \"#utility.yul\":6491:6511   */\n      sub\n        /* \"#utility.yul\":6487:6488   */\n      0x00\n        /* \"#utility.yul\":6476:6485   */\n      dup4\n        /* \"#utility.yul\":6472:6489   */\n      add\n        /* \"#utility.yul\":6465:6512   */\n      mstore\n        /* \"#utility.yul\":6529:6660   */\n      tag_210\n        /* \"#utility.yul\":6655:6659   */\n      dup2\n        /* \"#utility.yul\":6529:6660   */\n      tag_168\n      jump\t// in\n    tag_210:\n        /* \"#utility.yul\":6521:6660   */\n      swap1\n      pop\n        /* \"#utility.yul\":6248:6667   */\n      swap2\n      swap1\n      pop\n      jump\t// out\n        /* \"#utility.yul\":6673:7092   */\n    tag_24:\n        /* \"#utility.yul\":6839:6843   */\n      0x00\n        /* \"#utility.yul\":6877:6879   */\n      0x20\n        /* \"#utility.yul\":6866:6875   */\n      dup3\n        /* \"#utility.yul\":6862:6880   */\n      add\n        /* \"#utility.yul\":6854:6880   */\n      swap1\n      pop\n        /* \"#utility.yul\":6926:6935   */\n      dup2\n        /* \"#utility.yul\":6920:6924   */\n      dup2\n        /* \"#utility.yul\":6916:6936   */\n      sub\n        /* \"#utility.yul\":6912:6913   */\n      0x00\n        /* \"#utility.yul\":6901:6910   */\n      dup4\n        /* \"#utility.yul\":6897:6914   */\n      add\n        /* \"#utility.yul\":6890:6937   */\n      mstore\n        /* \"#utility.yul\":6954:7085   */\n      tag_212\n        /* \"#utility.yul\":7080:7084   */\n      dup2\n        /* \"#utility.yul\":6954:7085   */\n      tag_173\n      jump\t// in\n    tag_212:\n        /* \"#utility.yul\":6946:7085   */\n      swap1\n      pop\n        /* \"#utility.yul\":6673:7092   */\n      swap2\n      swap1\n      pop\n      jump\t// out\n        /* \"#utility.yul\":7098:7467   */\n    tag_17:\n        /* \"#utility.yul\":7239:7243   */\n      0x00\n        /* \"#utility.yul\":7277:7279   */\n      0x20\n        /* \"#utility.yul\":7266:7275   */\n      dup3\n        /* \"#utility.yul\":7262:7280   */\n      add\n        /* \"#utility.yul\":7254:7280   */\n      swap1\n      pop\n        /* \"#utility.yul\":7326:7335   */\n      dup2\n        /* \"#utility.yul\":7320:7324   */\n      dup2\n        /* \"#utility.yul\":7316:7336   */\n      sub\n        /* \"#utility.yul\":7312:7313   */\n      0x00\n        /* \"#utility.yul\":7301:7310   */\n      dup4\n        /* \"#utility.yul\":7297:7314   */\n      add\n        /* \"#utility.yul\":7290:7337   */\n      mstore\n        /* \"#utility.yul\":7354:7460   */\n      tag_214\n        /* \"#utility.yul\":7455:7459   */\n      dup2\n        /* \"#utility.yul\":7446:7452   */\n      dup5\n        /* \"#utility.yul\":7354:7460   */\n      tag_178\n      jump\t// in\n    tag_214:\n        /* \"#utility.yul\":7346:7460   */\n      swap1\n      pop\n        /* \"#utility.yul\":7098:7467   */\n      swap3\n      swap2\n      pop\n      pop\n      jump\t// out\n        /* \"#utility.yul\":7554:7653   */\n    tag_155:\n        /* \"#utility.yul\":7606:7612   */\n      0x00\n        /* \"#utility.yul\":7640:7645   */\n      dup2\n        /* \"#utility.yul\":7634:7646   */\n      mload\n        /* \"#utility.yul\":7624:7646   */\n      swap1\n      pop\n        /* \"#utility.yul\":7554:7653   */\n      swap2\n      swap1\n      pop\n      jump\t// out\n        /* \"#utility.yul\":7659:7818   */\n    tag_157:\n        /* \"#utility.yul\":7733:7744   */\n      0x00\n        /* \"#utility.yul\":7767:7773   */\n      dup3\n        /* \"#utility.yul\":7762:7765   */\n      dup3\n        /* \"#utility.yul\":7755:7774   */\n      mstore\n        /* \"#utility.yul\":7807:7811   */\n      0x20\n        /* \"#utility.yul\":7802:7805   */\n      dup3\n        /* \"#utility.yul\":7798:7812   */\n      add\n        /* \"#utility.yul\":7783:7812   */\n      swap1\n      pop\n        /* \"#utility.yul\":7659:7818   */\n      swap3\n      swap2\n      pop\n      pop\n      jump\t// out\n        /* \"#utility.yul\":7824:7993   */\n    tag_165:\n        /* \"#utility.yul\":7908:7919   */\n      0x00\n        /* \"#utility.yul\":7942:7948   */\n      dup3\n        /* \"#utility.yul\":7937:7940   */\n      dup3\n        /* \"#utility.yul\":7930:7949   */\n      mstore\n        /* \"#utility.yul\":7982:7986   */\n      0x20\n        /* \"#utility.yul\":7977:7980   */\n      dup3\n        /* \"#utility.yul\":7973:7987   */\n      add\n        /* \"#utility.yul\":7958:7987   */\n      swap1\n      pop\n        /* \"#utility.yul\":7824:7993   */\n      swap3\n      swap2\n      pop\n      pop\n      jump\t// out\n        /* \"#utility.yul\":7999:8524   */\n    tag_131:\n        /* \"#utility.yul\":8038:8041   */\n      0x00\n        /* \"#utility.yul\":8057:8076   */\n      tag_221\n        /* \"#utility.yul\":8074:8075   */\n      dup3\n        /* \"#utility.yul\":8057:8076   */\n      tag_151\n      jump\t// in\n    tag_221:\n        /* \"#utility.yul\":8052:8076   */\n      swap2\n      pop\n        /* \"#utility.yul\":8090:8109   */\n      tag_222\n        /* \"#utility.yul\":8107:8108   */\n      dup4\n        /* \"#utility.yul\":8090:8109   */\n      tag_151\n      jump\t// in\n    tag_222:\n        /* \"#utility.yul\":8085:8109   */\n      swap3\n      pop\n        /* \"#utility.yul\":8278:8279   */\n      dup2\n        /* \"#utility.yul\":8210:8276   */\n      0x7fffffffffffffffffffffffffffffffffffffffffffffffffffffffffffffff\n        /* \"#utility.yul\":8206:8280   */\n      sub\n        /* \"#utility.yul\":8203:8204   */\n      dup4\n        /* \"#utility.yul\":8199:8281   */\n      sgt\n        /* \"#utility.yul\":8194:8195   */\n      0x00\n        /* \"#utility.yul\":8191:8192   */\n      dup4\n        /* \"#utility.yul\":8187:8196   */\n      slt\n        /* \"#utility.yul\":8180:8197   */\n      iszero\n        /* \"#utility.yul\":8176:8282   */\n      and\n        /* \"#utility.yul\":8173:8305   */\n      iszero\n      tag_223\n      jumpi\n        /* \"#utility.yul\":8285:8303   */\n      tag_224\n      tag_225\n      jump\t// in\n    tag_224:\n        /* \"#utility.yul\":8173:8305   */\n    tag_223:\n        /* \"#utility.yul\":8465:8466   */\n      dup2\n        /* \"#utility.yul\":8397:8463   */\n      0x8000000000000000000000000000000000000000000000000000000000000000\n        /* \"#utility.yul\":8393:8467   */\n      sub\n        /* \"#utility.yul\":8390:8391   */\n      dup4\n        /* \"#utility.yul\":8386:8468   */\n      slt\n        /* \"#utility.yul\":8382:8383   */\n      0x00\n        /* \"#utility.yul\":8379:8380   */\n      dup4\n        /* \"#utility.yul\":8375:8384   */\n      slt\n        /* \"#utility.yul\":8371:8469   */\n      and\n        /* \"#utility.yul\":8368:8492   */\n      iszero\n      tag_226\n      jumpi\n        /* \"#utility.yul\":8472:8490   */\n      tag_227\n      tag_225\n      jump\t// in\n    tag_227:\n        /* \"#utility.yul\":8368:8492   */\n    tag_226:\n        /* \"#utility.yul\":8516:8517   */\n      dup3\n        /* \"#utility.yul\":8513:8514   */\n      dup3\n        /* \"#utility.yul\":8509:8518   */\n      add\n        /* \"#utility.yul\":8502:8518   */\n      swap1\n      pop\n        /* \"#utility.yul\":7999:8524   */\n      swap3\n      swap2\n      pop\n      pop\n      jump\t// out\n        /* \"#utility.yul\":8530:8835   */\n    tag_40:\n        /* \"#utility.yul\":8570:8573   */\n      0x00\n        /* \"#utility.yul\":8589:8609   */\n      tag_229\n        /* \"#utility.yul\":8607:8608   */\n      dup3\n        /* \"#utility.yul\":8589:8609   */\n      tag_195\n      jump\t// in\n    tag_229:\n        /* \"#utility.yul\":8584:8609   */\n      swap2\n      pop\n        /* \"#utility.yul\":8623:8643   */\n      tag_230\n        /* \"#utility.yul\":8641:8642   */\n      dup4\n        /* \"#utility.yul\":8623:8643   */\n      tag_195\n      jump\t// in\n    tag_230:\n        /* \"#utility.yul\":8618:8643   */\n      swap3\n      pop\n        /* \"#utility.yul\":8777:8778   */\n      dup3\n        /* \"#utility.yul\":8709:8775   */\n      0xffffffffffffffffffffffffffffffffffffffffffffffffffffffffffffffff\n        /* \"#utility.yul\":8705:8779   */\n      sub\n        /* \"#utility.yul\":8702:8703   */\n      dup3\n        /* \"#utility.yul\":8699:8780   */\n      gt\n        /* \"#utility.yul\":8696:8803   */\n      iszero\n      tag_231\n      jumpi\n        /* \"#utility.yul\":8783:8801   */\n      tag_232\n      tag_225\n      jump\t// in\n    tag_232:\n        /* \"#utility.yul\":8696:8803   */\n    tag_231:\n        /* \"#utility.yul\":8827:8828   */\n      dup3\n        /* \"#utility.yul\":8824:8825   */\n      dup3\n        /* \"#utility.yul\":8820:8829   */\n      add\n        /* \"#utility.yul\":8813:8829   */\n      swap1\n      pop\n        /* \"#utility.yul\":8530:8835   */\n      swap3\n      swap2\n      pop\n      pop\n      jump\t// out\n        /* \"#utility.yul\":8841:8937   */\n    tag_146:\n        /* \"#utility.yul\":8878:8885   */\n      0x00\n        /* \"#utility.yul\":8907:8931   */\n      tag_234\n        /* \"#utility.yul\":8925:8930   */\n      dup3\n        /* \"#utility.yul\":8907:8931   */\n      tag_235\n      jump\t// in\n    tag_234:\n        /* \"#utility.yul\":8896:8931   */\n      swap1\n      pop\n        /* \"#utility.yul\":8841:8937   */\n      swap2\n      swap1\n      pop\n      jump\t// out\n        /* \"#utility.yul\":8943:9019   */\n    tag_151:\n        /* \"#utility.yul\":8979:8986   */\n      0x00\n        /* \"#utility.yul\":9008:9013   */\n      dup2\n        /* \"#utility.yul\":8997:9013   */\n      swap1\n      pop\n        /* \"#utility.yul\":8943:9019   */\n      swap2\n      swap1\n      pop\n      jump\t// out\n        /* \"#utility.yul\":9025:9151   */\n    tag_235:\n        /* \"#utility.yul\":9062:9069   */\n      0x00\n        /* \"#utility.yul\":9102:9144   */\n      0xffffffffffffffffffffffffffffffffffffffff\n        /* \"#utility.yul\":9095:9100   */\n      dup3\n        /* \"#utility.yul\":9091:9145   */\n      and\n        /* \"#utility.yul\":9080:9145   */\n      swap1\n      pop\n        /* \"#utility.yul\":9025:9151   */\n      swap2\n      swap1\n      pop\n      jump\t// out\n        /* \"#utility.yul\":9157:9234   */\n    tag_195:\n        /* \"#utility.yul\":9194:9201   */\n      0x00\n        /* \"#utility.yul\":9223:9228   */\n      dup2\n        /* \"#utility.yul\":9212:9228   */\n      swap1\n      pop\n        /* \"#utility.yul\":9157:9234   */\n      swap2\n      swap1\n      pop\n      jump\t// out\n        /* \"#utility.yul\":9240:9547   */\n    tag_159:\n        /* \"#utility.yul\":9308:9309   */\n      0x00\n        /* \"#utility.yul\":9318:9431   */\n    tag_240:\n        /* \"#utility.yul\":9332:9338   */\n      dup4\n        /* \"#utility.yul\":9329:9330   */\n      dup2\n        /* \"#utility.yul\":9326:9339   */\n      lt\n        /* \"#utility.yul\":9318:9431   */\n      iszero\n      tag_242\n      jumpi\n        /* \"#utility.yul\":9417:9418   */\n      dup1\n        /* \"#utility.yul\":9412:9415   */\n      dup3\n        /* \"#utility.yul\":9408:9419   */\n      add\n        /* \"#utility.yul\":9402:9420   */\n      mload\n        /* \"#utility.yul\":9398:9399   */\n      dup2\n        /* \"#utility.yul\":9393:9396   */\n      dup5\n        /* \"#utility.yul\":9389:9400   */\n      add\n        /* \"#utility.yul\":9382:9421   */\n      mstore\n        /* \"#utility.yul\":9354:9356   */\n      0x20\n        /* \"#utility.yul\":9351:9352   */\n      dup2\n        /* \"#utility.yul\":9347:9357   */\n      add\n        /* \"#utility.yul\":9342:9357   */\n      swap1\n      pop\n        /* \"#utility.yul\":9318:9431   */\n      jump(tag_240)\n    tag_242:\n        /* \"#utility.yul\":9449:9455   */\n      dup4\n        /* \"#utility.yul\":9446:9447   */\n      dup2\n        /* \"#utility.yul\":9443:9456   */\n      gt\n        /* \"#utility.yul\":9440:9541   */\n      iszero\n      tag_243\n      jumpi\n        /* \"#utility.yul\":9529:9530   */\n      0x00\n        /* \"#utility.yul\":9520:9526   */\n      dup5\n        /* \"#utility.yul\":9515:9518   */\n      dup5\n        /* \"#utility.yul\":9511:9527   */\n      add\n        /* \"#utility.yul\":9504:9531   */\n      mstore\n        /* \"#utility.yul\":9440:9541   */\n    tag_243:\n        /* \"#utility.yul\":9289:9547   */\n      pop\n        /* \"#utility.yul\":9240:9547   */\n      pop\n      pop\n      pop\n      jump\t// out\n        /* \"#utility.yul\":9553:9873   */\n    tag_116:\n        /* \"#utility.yul\":9597:9603   */\n      0x00\n        /* \"#utility.yul\":9634:9635   */\n      0x02\n        /* \"#utility.yul\":9628:9632   */\n      dup3\n        /* \"#utility.yul\":9624:9636   */\n      div\n        /* \"#utility.yul\":9614:9636   */\n      swap1\n      pop\n        /* \"#utility.yul\":9681:9682   */\n      0x01\n        /* \"#utility.yul\":9675:9679   */\n      dup3\n        /* \"#utility.yul\":9671:9683   */\n      and\n        /* \"#utility.yul\":9702:9720   */\n      dup1\n        /* \"#utility.yul\":9692:9773   */\n      tag_245\n      jumpi\n        /* \"#utility.yul\":9758:9762   */\n      0x7f\n        /* \"#utility.yul\":9750:9756   */\n      dup3\n        /* \"#utility.yul\":9746:9763   */\n      and\n        /* \"#utility.yul\":9736:9763   */\n      swap2\n      pop\n        /* \"#utility.yul\":9692:9773   */\n    tag_245:\n        /* \"#utility.yul\":9820:9822   */\n      0x20\n        /* \"#utility.yul\":9812:9818   */\n      dup3\n        /* \"#utility.yul\":9809:9823   */\n      lt\n        /* \"#utility.yul\":9789:9807   */\n      dup2\n        /* \"#utility.yul\":9786:9824   */\n      eq\n        /* \"#utility.yul\":9783:9867   */\n      iszero\n      tag_246\n      jumpi\n        /* \"#utility.yul\":9839:9857   */\n      tag_247\n      tag_248\n      jump\t// in\n    tag_247:\n        /* \"#utility.yul\":9783:9867   */\n    tag_246:\n        /* \"#utility.yul\":9604:9873   */\n      pop\n        /* \"#utility.yul\":9553:9873   */\n      swap2\n      swap1\n      pop\n      jump\t// out\n        /* \"#utility.yul\":9879:9979   */\n    tag_147:\n        /* \"#utility.yul\":9918:9925   */\n      0x00\n        /* \"#utility.yul\":9947:9973   */\n      tag_250\n        /* \"#utility.yul\":9967:9972   */\n      dup3\n        /* \"#utility.yul\":9947:9973   */\n      tag_251\n      jump\t// in\n    tag_250:\n        /* \"#utility.yul\":9936:9973   */\n      swap1\n      pop\n        /* \"#utility.yul\":9879:9979   */\n      swap2\n      swap1\n      pop\n      jump\t// out\n        /* \"#utility.yul\":9985:10079   */\n    tag_251:\n        /* \"#utility.yul\":10024:10031   */\n      0x00\n        /* \"#utility.yul\":10053:10073   */\n      tag_253\n        /* \"#utility.yul\":10067:10072   */\n      dup3\n        /* \"#utility.yul\":10053:10073   */\n      tag_254\n      jump\t// in\n    tag_253:\n        /* \"#utility.yul\":10042:10073   */\n      swap1\n      pop\n        /* \"#utility.yul\":9985:10079   */\n      swap2\n      swap1\n      pop\n      jump\t// out\n        /* \"#utility.yul\":10085:10164   */\n    tag_200:\n        /* \"#utility.yul\":10124:10131   */\n      0x00\n        /* \"#utility.yul\":10153:10158   */\n      dup2\n        /* \"#utility.yul\":10142:10158   */\n      swap1\n      pop\n        /* \"#utility.yul\":10085:10164   */\n      swap2\n      swap1\n      pop\n      jump\t// out\n        /* \"#utility.yul\":10170:10346   */\n    tag_125:\n        /* \"#utility.yul\":10202:10203   */\n      0x00\n        /* \"#utility.yul\":10219:10239   */\n      tag_257\n        /* \"#utility.yul\":10237:10238   */\n      dup3\n        /* \"#utility.yul\":10219:10239   */\n      tag_195\n      jump\t// in\n    tag_257:\n        /* \"#utility.yul\":10214:10239   */\n      swap2\n      pop\n        /* \"#utility.yul\":10253:10273   */\n      tag_258\n        /* \"#utility.yul\":10271:10272   */\n      dup4\n        /* \"#utility.yul\":10253:10273   */\n      tag_195\n      jump\t// in\n    tag_258:\n        /* \"#utility.yul\":10248:10273   */\n      swap3\n      pop\n        /* \"#utility.yul\":10292:10293   */\n      dup3\n        /* \"#utility.yul\":10282:10317   */\n      tag_259\n      jumpi\n        /* \"#utility.yul\":10297:10315   */\n      tag_260\n      tag_261\n      jump\t// in\n    tag_260:\n        /* \"#utility.yul\":10282:10317   */\n    tag_259:\n        /* \"#utility.yul\":10338:10339   */\n      dup3\n        /* \"#utility.yul\":10335:10336   */\n      dup3\n        /* \"#utility.yul\":10331:10340   */\n      mod\n        /* \"#utility.yul\":10326:10340   */\n      swap1\n      pop\n        /* \"#utility.yul\":10170:10346   */\n      swap3\n      swap2\n      pop\n      pop\n      jump\t// out\n        /* \"#utility.yul\":10352:10532   */\n    tag_225:\n        /* \"#utility.yul\":10400:10477   */\n      0x4e487b7100000000000000000000000000000000000000000000000000000000\n        /* \"#utility.yul\":10397:10398   */\n      0x00\n        /* \"#utility.yul\":10390:10478   */\n      mstore\n        /* \"#utility.yul\":10497:10501   */\n      0x11\n        /* \"#utility.yul\":10494:10495   */\n      0x04\n        /* \"#utility.yul\":10487:10502   */\n      mstore\n        /* \"#utility.yul\":10521:10525   */\n      0x24\n        /* \"#utility.yul\":10518:10519   */\n      0x00\n        /* \"#utility.yul\":10511:10526   */\n      revert\n        /* \"#utility.yul\":10538:10718   */\n    tag_261:\n        /* \"#utility.yul\":10586:10663   */\n      0x4e487b7100000000000000000000000000000000000000000000000000000000\n        /* \"#utility.yul\":10583:10584   */\n      0x00\n        /* \"#utility.yul\":10576:10664   */\n      mstore\n        /* \"#utility.yul\":10683:10687   */\n      0x12\n        /* \"#utility.yul\":10680:10681   */\n      0x04\n        /* \"#utility.yul\":10673:10688   */\n      mstore\n        /* \"#utility.yul\":10707:10711   */\n      0x24\n        /* \"#utility.yul\":10704:10705   */\n      0x00\n        /* \"#utility.yul\":10697:10712   */\n      revert\n        /* \"#utility.yul\":10724:10904   */\n    tag_248:\n        /* \"#utility.yul\":10772:10849   */\n      0x4e487b7100000000000000000000000000000000000000000000000000000000\n        /* \"#utility.yul\":10769:10770   */\n      0x00\n        /* \"#utility.yul\":10762:10850   */\n      mstore\n        /* \"#utility.yul\":10869:10873   */\n      0x22\n        /* \"#utility.yul\":10866:10867   */\n      0x04\n        /* \"#utility.yul\":10859:10874   */\n      mstore\n        /* \"#utility.yul\":10893:10897   */\n      0x24\n        /* \"#utility.yul\":10890:10891   */\n      0x00\n        /* \"#utility.yul\":10883:10898   */\n      revert\n        /* \"#utility.yul\":10910:11090   */\n    tag_37:\n        /* \"#utility.yul\":10958:11035   */\n      0x4e487b7100000000000000000000000000000000000000000000000000000000\n        /* \"#utility.yul\":10955:10956   */\n      0x00\n        /* \"#utility.yul\":10948:11036   */\n      mstore\n        /* \"#utility.yul\":11055:11059   */\n      0x32\n        /* \"#utility.yul\":11052:11053   */\n      0x04\n        /* \"#utility.yul\":11045:11060   */\n      mstore\n        /* \"#utility.yul\":11079:11083   */\n      0x24\n        /* \"#utility.yul\":11076:11077   */\n      0x00\n        /* \"#utility.yul\":11069:11084   */\n      revert\n        /* \"#utility.yul\":11219:11336   */\n    tag_140:\n        /* \"#utility.yul\":11328:11329   */\n      0x00\n        /* \"#utility.yul\":11325:11326   */\n      dup1\n        /* \"#utility.yul\":11318:11330   */\n      revert\n        /* \"#utility.yul\":11342:11444   */\n    tag_161:\n        /* \"#utility.yul\":11383:11389   */\n      0x00\n        /* \"#utility.yul\":11434:11436   */\n      0x1f\n        /* \"#utility.yul\":11430:11437   */\n      not\n        /* \"#utility.yul\":11425:11427   */\n      0x1f\n        /* \"#utility.yul\":11418:11423   */\n      dup4\n        /* \"#utility.yul\":11414:11428   */\n      add\n        /* \"#utility.yul\":11410:11438   */\n      and\n        /* \"#utility.yul\":11400:11438   */\n      swap1\n      pop\n        /* \"#utility.yul\":11342:11444   */\n      swap2\n      swap1\n      pop\n      jump\t// out\n        /* \"#utility.yul\":11450:11544   */\n    tag_254:\n        /* \"#utility.yul\":11483:11491   */\n      0x00\n        /* \"#utility.yul\":11531:11536   */\n      dup2\n        /* \"#utility.yul\":11527:11529   */\n      0x60\n        /* \"#utility.yul\":11523:11537   */\n      shl\n        /* \"#utility.yul\":11502:11537   */\n      swap1\n      pop\n        /* \"#utility.yul\":11450:11544   */\n      swap2\n      swap1\n      pop\n      jump\t// out\n        /* \"#utility.yul\":11550:11714   */\n    tag_167:\n        /* \"#utility.yul\":11690:11706   */\n      0x416c726561647920766f7465642e000000000000000000000000000000000000\n        /* \"#utility.yul\":11686:11687   */\n      0x00\n        /* \"#utility.yul\":11678:11684   */\n      dup3\n        /* \"#utility.yul\":11674:11688   */\n      add\n        /* \"#utility.yul\":11667:11707   */\n      mstore\n        /* \"#utility.yul\":11550:11714   */\n      pop\n      jump\t// out\n        /* \"#utility.yul\":11720:11894   */\n    tag_172:\n        /* \"#utility.yul\":11860:11886   */\n      0x54686520766f74657220616c726561647920766f7465642e0000000000000000\n        /* \"#utility.yul\":11856:11857   */\n      0x00\n        /* \"#utility.yul\":11848:11854   */\n      dup3\n        /* \"#utility.yul\":11844:11858   */\n      add\n        /* \"#utility.yul\":11837:11887   */\n      mstore\n        /* \"#utility.yul\":11720:11894   */\n      pop\n      jump\t// out\n        /* \"#utility.yul\":11900:12069   */\n    tag_177:\n        /* \"#utility.yul\":12040:12061   */\n      0x52656163686564206d617820766f746572732e00000000000000000000000000\n        /* \"#utility.yul\":12036:12037   */\n      0x00\n        /* \"#utility.yul\":12028:12034   */\n      dup3\n        /* \"#utility.yul\":12024:12038   */\n      add\n        /* \"#utility.yul\":12017:12062   */\n      mstore\n        /* \"#utility.yul\":11900:12069   */\n      pop\n      jump\t// out\n        /* \"#utility.yul\":12075:12197   */\n    tag_136:\n        /* \"#utility.yul\":12148:12172   */\n      tag_275\n        /* \"#utility.yul\":12166:12171   */\n      dup2\n        /* \"#utility.yul\":12148:12172   */\n      tag_195\n      jump\t// in\n    tag_275:\n        /* \"#utility.yul\":12141:12146   */\n      dup2\n        /* \"#utility.yul\":12138:12173   */\n      eq\n        /* \"#utility.yul\":12128:12191   */\n      tag_276\n      jumpi\n        /* \"#utility.yul\":12187:12188   */\n      0x00\n        /* \"#utility.yul\":12184:12185   */\n      dup1\n        /* \"#utility.yul\":12177:12189   */\n      revert\n        /* \"#utility.yul\":12128:12191   */\n    tag_276:\n        /* \"#utility.yul\":12075:12197   */\n      pop\n      jump\t// out\n\n    auxdata: 0xa26469706673582212207a0f4589a22e87f8247855e01a91ef16f1ea2aa43d3318f7df6bf1efe283d45d64736f6c63430008070033\n}\n",
				"bytecode": {
					"linkReferences": {},
					"object": "608060405260006003553480156200001657600080fd5b50336000806101000a81548173ffffffffffffffffffffffffffffffffffffffff021916908373ffffffffffffffffffffffffffffffffffffffff16021790555060018060008060009054906101000a900473ffffffffffffffffffffffffffffffffffffffff1673ffffffffffffffffffffffffffffffffffffffff1673ffffffffffffffffffffffffffffffffffffffff1681526020019081526020016000206000018190555060006040518060a001604052806040518060400160405280600181526020017f610000000000000000000000000000000000000000000000000000000000000081525081526020016040518060400160405280600181526020017f620000000000000000000000000000000000000000000000000000000000000081525081526020016040518060400160405280600181526020017f630000000000000000000000000000000000000000000000000000000000000081525081526020016040518060400160405280600181526020017f640000000000000000000000000000000000000000000000000000000000000081525081526020016040518060400160405280600181526020017f650000000000000000000000000000000000000000000000000000000000000081525081525090506005801462000239576040517f08c379a0000000000000000000000000000000000000000000000000000000008152600401620002309062000470565b60405180910390fd5b60005b6005811015620003915760026040518061018001604052808484600581106200026a57620002696200058f565b5b6020020151815260200160008152602001600081526020016000815260200160008152602001600081526020016000815260200160008152602001600081526020016000815260200160008152602001600081525090806001815401808255809150506001900390600052602060002090600c020160009091909190915060008201518160000190805190602001906200030692919062000399565b506020820151816001015560408201518160020155606082015181600301556080820151816004015560a0820151816005015560c0820151816006015560e082015181600701556101008201518160080155610120820151816009015561014082015181600a015561016082015181600b0155505080806200038890620004e3565b9150506200023c565b5050620005e7565b828054620003a790620004ad565b90600052602060002090601f016020900481019282620003cb576000855562000417565b82601f10620003e657805160ff191683800117855562000417565b8280016001018555821562000417579182015b8281111562000416578251825591602001919060010190620003f9565b5b5090506200042691906200042a565b5090565b5b80821115620004455760008160009055506001016200042b565b5090565b60006200045860158362000492565b91506200046582620005be565b602082019050919050565b600060208201905081810360008301526200048b8162000449565b9050919050565b600082825260208201905092915050565b6000819050919050565b60006002820490506001821680620004c657607f821691505b60208210811415620004dd57620004dc62000560565b5b50919050565b6000620004f082620004a3565b91507fffffffffffffffffffffffffffffffffffffffffffffffffffffffffffffffff82141562000526576200052562000531565b5b600182019050919050565b7f4e487b7100000000000000000000000000000000000000000000000000000000600052601160045260246000fd5b7f4e487b7100000000000000000000000000000000000000000000000000000000600052602260045260246000fd5b7f4e487b7100000000000000000000000000000000000000000000000000000000600052603260045260246000fd5b7f43616e64696461746573206d75737420626520352e0000000000000000000000600082015250565b610fa680620005f76000396000f3fe608060405234801561001057600080fd5b50600436106100415760003560e01c8063632a9a52146100465780636d8f3f1014610050578063d4e8fd2e1461006e575b600080fd5b61004e61009e565b005b61005861068e565b6040516100659190610b41565b60405180910390f35b610088600480360381019061008391906108e5565b610694565b6040516100959190610bbc565b60405180910390f35b600160003373ffffffffffffffffffffffffffffffffffffffff1673ffffffffffffffffffffffffffffffffffffffff16815260200190815260200160002060010160009054906101000a900460ff161561012e576040517f08c379a000000000000000000000000000000000000000000000000000000000815260040161012590610b7c565b60405180910390fd5b60018060003373ffffffffffffffffffffffffffffffffffffffff1673ffffffffffffffffffffffffffffffffffffffff16815260200190815260200160002060000181905550606460035413156101bb576040517f08c379a00000000000000000000000000000000000000000000000000000000081526004016101b290610b9c565b60405180910390fd5b6101c36107d1565b600160003373ffffffffffffffffffffffffffffffffffffffff1673ffffffffffffffffffffffffffffffffffffffff168152602001908152602001600020600201819055506000600160003373ffffffffffffffffffffffffffffffffffffffff1673ffffffffffffffffffffffffffffffffffffffff16815260200190815260200160002090508060010160009054906101000a900460ff161561029e576040517f08c379a000000000000000000000000000000000000000000000000000000000815260040161029590610b5c565b60405180910390fd5b60018160010160006101000a81548160ff0219169083151502179055506102c3610812565b81600301819055506102d3610853565b806000015460026102e2610812565b815481106102f3576102f2610e8c565b5b90600052602060002090600c020160010160008282546103139190610c9f565b925050819055506000816002015414156103735780600001546002610336610812565b8154811061034757610346610e8c565b5b90600052602060002090600c020160020160008282546103679190610c9f565b9250508190555061068b565b6001816002015414156103cc578060000154600261038f610812565b815481106103a05761039f610e8c565b5b90600052602060002090600c020160030160008282546103c09190610c9f565b9250508190555061068a565b60028160020154141561042557806000015460026103e8610812565b815481106103f9576103f8610e8c565b5b90600052602060002090600c020160040160008282546104199190610c9f565b92505081905550610689565b60038160020154141561047e5780600001546002610441610812565b8154811061045257610451610e8c565b5b90600052602060002090600c020160050160008282546104729190610c9f565b92505081905550610688565b6004816002015414156104d7578060000154600261049a610812565b815481106104ab576104aa610e8c565b5b90600052602060002090600c020160060160008282546104cb9190610c9f565b92505081905550610687565b60058160020154141561053057806000015460026104f3610812565b8154811061050457610503610e8c565b5b90600052602060002090600c020160070160008282546105249190610c9f565b92505081905550610686565b600681600201541415610589578060000154600261054c610812565b8154811061055d5761055c610e8c565b5b90600052602060002090600c0201600801600082825461057d9190610c9f565b92505081905550610685565b6007816002015414156105e257806000015460026105a5610812565b815481106105b6576105b5610e8c565b5b90600052602060002090600c020160090160008282546105d69190610c9f565b92505081905550610684565b60088160020154141561063b57806000015460026105fe610812565b8154811061060f5761060e610e8c565b5b90600052602060002090600c0201600a01600082825461062f9190610c9f565b92505081905550610683565b8060000154600261064a610812565b8154811061065b5761065a610e8c565b5b90600052602060002090600c0201600b01600082825461067b9190610c9f565b925050819055505b5b5b5b5b5b5b5b5b50565b60035481565b61069c61086f565b600282815481106106b0576106af610e8c565b5b90600052602060002090600c0201604051806101800160405290816000820180546106da90610d6e565b80601f016020809104026020016040519081016040528092919081815260200182805461070690610d6e565b80156107535780601f1061072857610100808354040283529160200191610753565b820191906000526020600020905b81548152906001019060200180831161073657829003601f168201915b50505050508152602001600182015481526020016002820154815260200160038201548152602001600482015481526020016005820154815260200160068201548152602001600782015481526020016008820154815260200160098201548152602001600a8201548152602001600b820154815250509050919050565b6000600a4244336040516020016107ea93929190610b04565b6040516020818303038152906040528051906020012060001c61080d9190610dce565b905090565b6000600542443360405160200161082b93929190610b04565b6040516020818303038152906040528051906020012060001c61084e9190610dce565b905090565b6001600360008282546108669190610c0b565b92505081905550565b6040518061018001604052806060815260200160008152602001600081526020016000815260200160008152602001600081526020016000815260200160008152602001600081526020016000815260200160008152602001600081525090565b6000813590506108df81610f59565b92915050565b6000602082840312156108fb576108fa610ebb565b5b6000610909848285016108d0565b91505092915050565b61092361091e82610cf5565b610da0565b82525050565b61093281610d07565b82525050565b600061094382610bde565b61094d8185610be9565b935061095d818560208601610d3b565b61096681610ec0565b840191505092915050565b600061097e600e83610bfa565b915061098982610ede565b602082019050919050565b60006109a1601883610bfa565b91506109ac82610f07565b602082019050919050565b60006109c4601383610bfa565b91506109cf82610f30565b602082019050919050565b60006101808301600083015184820360008601526109f88282610938565b9150506020830151610a0d6020860182610ade565b506040830151610a206040860182610ade565b506060830151610a336060860182610ade565b506080830151610a466080860182610ade565b5060a0830151610a5960a0860182610ade565b5060c0830151610a6c60c0860182610ade565b5060e0830151610a7f60e0860182610ade565b50610100830151610a94610100860182610ade565b50610120830151610aa9610120860182610ade565b50610140830151610abe610140860182610ade565b50610160830151610ad3610160860182610ade565b508091505092915050565b610ae781610d31565b82525050565b610afe610af982610d31565b610dc4565b82525050565b6000610b108286610aed565b602082019150610b208285610aed565b602082019150610b308284610912565b601482019150819050949350505050565b6000602082019050610b566000830184610929565b92915050565b60006020820190508181036000830152610b7581610971565b9050919050565b60006020820190508181036000830152610b9581610994565b9050919050565b60006020820190508181036000830152610bb5816109b7565b9050919050565b60006020820190508181036000830152610bd681846109da565b905092915050565b600081519050919050565b600082825260208201905092915050565b600082825260208201905092915050565b6000610c1682610d07565b9150610c2183610d07565b9250817f7fffffffffffffffffffffffffffffffffffffffffffffffffffffffffffffff03831360008312151615610c5c57610c5b610dff565b5b817f8000000000000000000000000000000000000000000000000000000000000000038312600083121615610c9457610c93610dff565b5b828201905092915050565b6000610caa82610d31565b9150610cb583610d31565b9250827fffffffffffffffffffffffffffffffffffffffffffffffffffffffffffffffff03821115610cea57610ce9610dff565b5b828201905092915050565b6000610d0082610d11565b9050919050565b6000819050919050565b600073ffffffffffffffffffffffffffffffffffffffff82169050919050565b6000819050919050565b60005b83811015610d59578082015181840152602081019050610d3e565b83811115610d68576000848401525b50505050565b60006002820490506001821680610d8657607f821691505b60208210811415610d9a57610d99610e5d565b5b50919050565b6000610dab82610db2565b9050919050565b6000610dbd82610ed1565b9050919050565b6000819050919050565b6000610dd982610d31565b9150610de483610d31565b925082610df457610df3610e2e565b5b828206905092915050565b7f4e487b7100000000000000000000000000000000000000000000000000000000600052601160045260246000fd5b7f4e487b7100000000000000000000000000000000000000000000000000000000600052601260045260246000fd5b7f4e487b7100000000000000000000000000000000000000000000000000000000600052602260045260246000fd5b7f4e487b7100000000000000000000000000000000000000000000000000000000600052603260045260246000fd5b600080fd5b6000601f19601f8301169050919050565b60008160601b9050919050565b7f416c726561647920766f7465642e000000000000000000000000000000000000600082015250565b7f54686520766f74657220616c726561647920766f7465642e0000000000000000600082015250565b7f52656163686564206d617820766f746572732e00000000000000000000000000600082015250565b610f6281610d31565b8114610f6d57600080fd5b5056fea26469706673582212207a0f4589a22e87f8247855e01a91ef16f1ea2aa43d3318f7df6bf1efe283d45d64736f6c63430008070033",
					"opcodes": "PUSH1 0x80 PUSH1 0x40 MSTORE PUSH1 0x0 PUSH1 0x3 SSTORE CALLVALUE DUP1 ISZERO PUSH3 0x16 JUMPI PUSH1 0x0 DUP1 REVERT JUMPDEST POP CALLER PUSH1 0x0 DUP1 PUSH2 0x100 EXP DUP2 SLOAD DUP2 PUSH20 0xFFFFFFFFFFFFFFFFFFFFFFFFFFFFFFFFFFFFFFFF MUL NOT AND SWAP1 DUP4 PUSH20 0xFFFFFFFFFFFFFFFFFFFFFFFFFFFFFFFFFFFFFFFF AND MUL OR SWAP1 SSTORE POP PUSH1 0x1 DUP1 PUSH1 0x0 DUP1 PUSH1 0x0 SWAP1 SLOAD SWAP1 PUSH2 0x100 EXP SWAP1 DIV PUSH20 0xFFFFFFFFFFFFFFFFFFFFFFFFFFFFFFFFFFFFFFFF AND PUSH20 0xFFFFFFFFFFFFFFFFFFFFFFFFFFFFFFFFFFFFFFFF AND PUSH20 0xFFFFFFFFFFFFFFFFFFFFFFFFFFFFFFFFFFFFFFFF AND DUP2 MSTORE PUSH1 0x20 ADD SWAP1 DUP2 MSTORE PUSH1 0x20 ADD PUSH1 0x0 KECCAK256 PUSH1 0x0 ADD DUP2 SWAP1 SSTORE POP PUSH1 0x0 PUSH1 0x40 MLOAD DUP1 PUSH1 0xA0 ADD PUSH1 0x40 MSTORE DUP1 PUSH1 0x40 MLOAD DUP1 PUSH1 0x40 ADD PUSH1 0x40 MSTORE DUP1 PUSH1 0x1 DUP2 MSTORE PUSH1 0x20 ADD PUSH32 0x6100000000000000000000000000000000000000000000000000000000000000 DUP2 MSTORE POP DUP2 MSTORE PUSH1 0x20 ADD PUSH1 0x40 MLOAD DUP1 PUSH1 0x40 ADD PUSH1 0x40 MSTORE DUP1 PUSH1 0x1 DUP2 MSTORE PUSH1 0x20 ADD PUSH32 0x6200000000000000000000000000000000000000000000000000000000000000 DUP2 MSTORE POP DUP2 MSTORE PUSH1 0x20 ADD PUSH1 0x40 MLOAD DUP1 PUSH1 0x40 ADD PUSH1 0x40 MSTORE DUP1 PUSH1 0x1 DUP2 MSTORE PUSH1 0x20 ADD PUSH32 0x6300000000000000000000000000000000000000000000000000000000000000 DUP2 MSTORE POP DUP2 MSTORE PUSH1 0x20 ADD PUSH1 0x40 MLOAD DUP1 PUSH1 0x40 ADD PUSH1 0x40 MSTORE DUP1 PUSH1 0x1 DUP2 MSTORE PUSH1 0x20 ADD PUSH32 0x6400000000000000000000000000000000000000000000000000000000000000 DUP2 MSTORE POP DUP2 MSTORE PUSH1 0x20 ADD PUSH1 0x40 MLOAD DUP1 PUSH1 0x40 ADD PUSH1 0x40 MSTORE DUP1 PUSH1 0x1 DUP2 MSTORE PUSH1 0x20 ADD PUSH32 0x6500000000000000000000000000000000000000000000000000000000000000 DUP2 MSTORE POP DUP2 MSTORE POP SWAP1 POP PUSH1 0x5 DUP1 EQ PUSH3 0x239 JUMPI PUSH1 0x40 MLOAD PUSH32 0x8C379A000000000000000000000000000000000000000000000000000000000 DUP2 MSTORE PUSH1 0x4 ADD PUSH3 0x230 SWAP1 PUSH3 0x470 JUMP JUMPDEST PUSH1 0x40 MLOAD DUP1 SWAP2 SUB SWAP1 REVERT JUMPDEST PUSH1 0x0 JUMPDEST PUSH1 0x5 DUP2 LT ISZERO PUSH3 0x391 JUMPI PUSH1 0x2 PUSH1 0x40 MLOAD DUP1 PUSH2 0x180 ADD PUSH1 0x40 MSTORE DUP1 DUP5 DUP5 PUSH1 0x5 DUP2 LT PUSH3 0x26A JUMPI PUSH3 0x269 PUSH3 0x58F JUMP JUMPDEST JUMPDEST PUSH1 0x20 MUL ADD MLOAD DUP2 MSTORE PUSH1 0x20 ADD PUSH1 0x0 DUP2 MSTORE PUSH1 0x20 ADD PUSH1 0x0 DUP2 MSTORE PUSH1 0x20 ADD PUSH1 0x0 DUP2 MSTORE PUSH1 0x20 ADD PUSH1 0x0 DUP2 MSTORE PUSH1 0x20 ADD PUSH1 0x0 DUP2 MSTORE PUSH1 0x20 ADD PUSH1 0x0 DUP2 MSTORE PUSH1 0x20 ADD PUSH1 0x0 DUP2 MSTORE PUSH1 0x20 ADD PUSH1 0x0 DUP2 MSTORE PUSH1 0x20 ADD PUSH1 0x0 DUP2 MSTORE PUSH1 0x20 ADD PUSH1 0x0 DUP2 MSTORE PUSH1 0x20 ADD PUSH1 0x0 DUP2 MSTORE POP SWAP1 DUP1 PUSH1 0x1 DUP2 SLOAD ADD DUP1 DUP3 SSTORE DUP1 SWAP2 POP POP PUSH1 0x1 SWAP1 SUB SWAP1 PUSH1 0x0 MSTORE PUSH1 0x20 PUSH1 0x0 KECCAK256 SWAP1 PUSH1 0xC MUL ADD PUSH1 0x0 SWAP1 SWAP2 SWAP1 SWAP2 SWAP1 SWAP2 POP PUSH1 0x0 DUP3 ADD MLOAD DUP2 PUSH1 0x0 ADD SWAP1 DUP1 MLOAD SWAP1 PUSH1 0x20 ADD SWAP1 PUSH3 0x306 SWAP3 SWAP2 SWAP1 PUSH3 0x399 JUMP JUMPDEST POP PUSH1 0x20 DUP3 ADD MLOAD DUP2 PUSH1 0x1 ADD SSTORE PUSH1 0x40 DUP3 ADD MLOAD DUP2 PUSH1 0x2 ADD SSTORE PUSH1 0x60 DUP3 ADD MLOAD DUP2 PUSH1 0x3 ADD SSTORE PUSH1 0x80 DUP3 ADD MLOAD DUP2 PUSH1 0x4 ADD SSTORE PUSH1 0xA0 DUP3 ADD MLOAD DUP2 PUSH1 0x5 ADD SSTORE PUSH1 0xC0 DUP3 ADD MLOAD DUP2 PUSH1 0x6 ADD SSTORE PUSH1 0xE0 DUP3 ADD MLOAD DUP2 PUSH1 0x7 ADD SSTORE PUSH2 0x100 DUP3 ADD MLOAD DUP2 PUSH1 0x8 ADD SSTORE PUSH2 0x120 DUP3 ADD MLOAD DUP2 PUSH1 0x9 ADD SSTORE PUSH2 0x140 DUP3 ADD MLOAD DUP2 PUSH1 0xA ADD SSTORE PUSH2 0x160 DUP3 ADD MLOAD DUP2 PUSH1 0xB ADD SSTORE POP POP DUP1 DUP1 PUSH3 0x388 SWAP1 PUSH3 0x4E3 JUMP JUMPDEST SWAP2 POP POP PUSH3 0x23C JUMP JUMPDEST POP POP PUSH3 0x5E7 JUMP JUMPDEST DUP3 DUP1 SLOAD PUSH3 0x3A7 SWAP1 PUSH3 0x4AD JUMP JUMPDEST SWAP1 PUSH1 0x0 MSTORE PUSH1 0x20 PUSH1 0x0 KECCAK256 SWAP1 PUSH1 0x1F ADD PUSH1 0x20 SWAP1 DIV DUP2 ADD SWAP3 DUP3 PUSH3 0x3CB JUMPI PUSH1 0x0 DUP6 SSTORE PUSH3 0x417 JUMP JUMPDEST DUP3 PUSH1 0x1F LT PUSH3 0x3E6 JUMPI DUP1 MLOAD PUSH1 0xFF NOT AND DUP4 DUP1 ADD OR DUP6 SSTORE PUSH3 0x417 JUMP JUMPDEST DUP3 DUP1 ADD PUSH1 0x1 ADD DUP6 SSTORE DUP3 ISZERO PUSH3 0x417 JUMPI SWAP2 DUP3 ADD JUMPDEST DUP3 DUP2 GT ISZERO PUSH3 0x416 JUMPI DUP3 MLOAD DUP3 SSTORE SWAP2 PUSH1 0x20 ADD SWAP2 SWAP1 PUSH1 0x1 ADD SWAP1 PUSH3 0x3F9 JUMP JUMPDEST JUMPDEST POP SWAP1 POP PUSH3 0x426 SWAP2 SWAP1 PUSH3 0x42A JUMP JUMPDEST POP SWAP1 JUMP JUMPDEST JUMPDEST DUP1 DUP3 GT ISZERO PUSH3 0x445 JUMPI PUSH1 0x0 DUP2 PUSH1 0x0 SWAP1 SSTORE POP PUSH1 0x1 ADD PUSH3 0x42B JUMP JUMPDEST POP SWAP1 JUMP JUMPDEST PUSH1 0x0 PUSH3 0x458 PUSH1 0x15 DUP4 PUSH3 0x492 JUMP JUMPDEST SWAP2 POP PUSH3 0x465 DUP3 PUSH3 0x5BE JUMP JUMPDEST PUSH1 0x20 DUP3 ADD SWAP1 POP SWAP2 SWAP1 POP JUMP JUMPDEST PUSH1 0x0 PUSH1 0x20 DUP3 ADD SWAP1 POP DUP2 DUP2 SUB PUSH1 0x0 DUP4 ADD MSTORE PUSH3 0x48B DUP2 PUSH3 0x449 JUMP JUMPDEST SWAP1 POP SWAP2 SWAP1 POP JUMP JUMPDEST PUSH1 0x0 DUP3 DUP3 MSTORE PUSH1 0x20 DUP3 ADD SWAP1 POP SWAP3 SWAP2 POP POP JUMP JUMPDEST PUSH1 0x0 DUP2 SWAP1 POP SWAP2 SWAP1 POP JUMP JUMPDEST PUSH1 0x0 PUSH1 0x2 DUP3 DIV SWAP1 POP PUSH1 0x1 DUP3 AND DUP1 PUSH3 0x4C6 JUMPI PUSH1 0x7F DUP3 AND SWAP2 POP JUMPDEST PUSH1 0x20 DUP3 LT DUP2 EQ ISZERO PUSH3 0x4DD JUMPI PUSH3 0x4DC PUSH3 0x560 JUMP JUMPDEST JUMPDEST POP SWAP2 SWAP1 POP JUMP JUMPDEST PUSH1 0x0 PUSH3 0x4F0 DUP3 PUSH3 0x4A3 JUMP JUMPDEST SWAP2 POP PUSH32 0xFFFFFFFFFFFFFFFFFFFFFFFFFFFFFFFFFFFFFFFFFFFFFFFFFFFFFFFFFFFFFFFF DUP3 EQ ISZERO PUSH3 0x526 JUMPI PUSH3 0x525 PUSH3 0x531 JUMP JUMPDEST JUMPDEST PUSH1 0x1 DUP3 ADD SWAP1 POP SWAP2 SWAP1 POP JUMP JUMPDEST PUSH32 0x4E487B7100000000000000000000000000000000000000000000000000000000 PUSH1 0x0 MSTORE PUSH1 0x11 PUSH1 0x4 MSTORE PUSH1 0x24 PUSH1 0x0 REVERT JUMPDEST PUSH32 0x4E487B7100000000000000000000000000000000000000000000000000000000 PUSH1 0x0 MSTORE PUSH1 0x22 PUSH1 0x4 MSTORE PUSH1 0x24 PUSH1 0x0 REVERT JUMPDEST PUSH32 0x4E487B7100000000000000000000000000000000000000000000000000000000 PUSH1 0x0 MSTORE PUSH1 0x32 PUSH1 0x4 MSTORE PUSH1 0x24 PUSH1 0x0 REVERT JUMPDEST PUSH32 0x43616E64696461746573206D75737420626520352E0000000000000000000000 PUSH1 0x0 DUP3 ADD MSTORE POP JUMP JUMPDEST PUSH2 0xFA6 DUP1 PUSH3 0x5F7 PUSH1 0x0 CODECOPY PUSH1 0x0 RETURN INVALID PUSH1 0x80 PUSH1 0x40 MSTORE CALLVALUE DUP1 ISZERO PUSH2 0x10 JUMPI PUSH1 0x0 DUP1 REVERT JUMPDEST POP PUSH1 0x4 CALLDATASIZE LT PUSH2 0x41 JUMPI PUSH1 0x0 CALLDATALOAD PUSH1 0xE0 SHR DUP1 PUSH4 0x632A9A52 EQ PUSH2 0x46 JUMPI DUP1 PUSH4 0x6D8F3F10 EQ PUSH2 0x50 JUMPI DUP1 PUSH4 0xD4E8FD2E EQ PUSH2 0x6E JUMPI JUMPDEST PUSH1 0x0 DUP1 REVERT JUMPDEST PUSH2 0x4E PUSH2 0x9E JUMP JUMPDEST STOP JUMPDEST PUSH2 0x58 PUSH2 0x68E JUMP JUMPDEST PUSH1 0x40 MLOAD PUSH2 0x65 SWAP2 SWAP1 PUSH2 0xB41 JUMP JUMPDEST PUSH1 0x40 MLOAD DUP1 SWAP2 SUB SWAP1 RETURN JUMPDEST PUSH2 0x88 PUSH1 0x4 DUP1 CALLDATASIZE SUB DUP2 ADD SWAP1 PUSH2 0x83 SWAP2 SWAP1 PUSH2 0x8E5 JUMP JUMPDEST PUSH2 0x694 JUMP JUMPDEST PUSH1 0x40 MLOAD PUSH2 0x95 SWAP2 SWAP1 PUSH2 0xBBC JUMP JUMPDEST PUSH1 0x40 MLOAD DUP1 SWAP2 SUB SWAP1 RETURN JUMPDEST PUSH1 0x1 PUSH1 0x0 CALLER PUSH20 0xFFFFFFFFFFFFFFFFFFFFFFFFFFFFFFFFFFFFFFFF AND PUSH20 0xFFFFFFFFFFFFFFFFFFFFFFFFFFFFFFFFFFFFFFFF AND DUP2 MSTORE PUSH1 0x20 ADD SWAP1 DUP2 MSTORE PUSH1 0x20 ADD PUSH1 0x0 KECCAK256 PUSH1 0x1 ADD PUSH1 0x0 SWAP1 SLOAD SWAP1 PUSH2 0x100 EXP SWAP1 DIV PUSH1 0xFF AND ISZERO PUSH2 0x12E JUMPI PUSH1 0x40 MLOAD PUSH32 0x8C379A000000000000000000000000000000000000000000000000000000000 DUP2 MSTORE PUSH1 0x4 ADD PUSH2 0x125 SWAP1 PUSH2 0xB7C JUMP JUMPDEST PUSH1 0x40 MLOAD DUP1 SWAP2 SUB SWAP1 REVERT JUMPDEST PUSH1 0x1 DUP1 PUSH1 0x0 CALLER PUSH20 0xFFFFFFFFFFFFFFFFFFFFFFFFFFFFFFFFFFFFFFFF AND PUSH20 0xFFFFFFFFFFFFFFFFFFFFFFFFFFFFFFFFFFFFFFFF AND DUP2 MSTORE PUSH1 0x20 ADD SWAP1 DUP2 MSTORE PUSH1 0x20 ADD PUSH1 0x0 KECCAK256 PUSH1 0x0 ADD DUP2 SWAP1 SSTORE POP PUSH1 0x64 PUSH1 0x3 SLOAD SGT ISZERO PUSH2 0x1BB JUMPI PUSH1 0x40 MLOAD PUSH32 0x8C379A000000000000000000000000000000000000000000000000000000000 DUP2 MSTORE PUSH1 0x4 ADD PUSH2 0x1B2 SWAP1 PUSH2 0xB9C JUMP JUMPDEST PUSH1 0x40 MLOAD DUP1 SWAP2 SUB SWAP1 REVERT JUMPDEST PUSH2 0x1C3 PUSH2 0x7D1 JUMP JUMPDEST PUSH1 0x1 PUSH1 0x0 CALLER PUSH20 0xFFFFFFFFFFFFFFFFFFFFFFFFFFFFFFFFFFFFFFFF AND PUSH20 0xFFFFFFFFFFFFFFFFFFFFFFFFFFFFFFFFFFFFFFFF AND DUP2 MSTORE PUSH1 0x20 ADD SWAP1 DUP2 MSTORE PUSH1 0x20 ADD PUSH1 0x0 KECCAK256 PUSH1 0x2 ADD DUP2 SWAP1 SSTORE POP PUSH1 0x0 PUSH1 0x1 PUSH1 0x0 CALLER PUSH20 0xFFFFFFFFFFFFFFFFFFFFFFFFFFFFFFFFFFFFFFFF AND PUSH20 0xFFFFFFFFFFFFFFFFFFFFFFFFFFFFFFFFFFFFFFFF AND DUP2 MSTORE PUSH1 0x20 ADD SWAP1 DUP2 MSTORE PUSH1 0x20 ADD PUSH1 0x0 KECCAK256 SWAP1 POP DUP1 PUSH1 0x1 ADD PUSH1 0x0 SWAP1 SLOAD SWAP1 PUSH2 0x100 EXP SWAP1 DIV PUSH1 0xFF AND ISZERO PUSH2 0x29E JUMPI PUSH1 0x40 MLOAD PUSH32 0x8C379A000000000000000000000000000000000000000000000000000000000 DUP2 MSTORE PUSH1 0x4 ADD PUSH2 0x295 SWAP1 PUSH2 0xB5C JUMP JUMPDEST PUSH1 0x40 MLOAD DUP1 SWAP2 SUB SWAP1 REVERT JUMPDEST PUSH1 0x1 DUP2 PUSH1 0x1 ADD PUSH1 0x0 PUSH2 0x100 EXP DUP2 SLOAD DUP2 PUSH1 0xFF MUL NOT AND SWAP1 DUP4 ISZERO ISZERO MUL OR SWAP1 SSTORE POP PUSH2 0x2C3 PUSH2 0x812 JUMP JUMPDEST DUP2 PUSH1 0x3 ADD DUP2 SWAP1 SSTORE POP PUSH2 0x2D3 PUSH2 0x853 JUMP JUMPDEST DUP1 PUSH1 0x0 ADD SLOAD PUSH1 0x2 PUSH2 0x2E2 PUSH2 0x812 JUMP JUMPDEST DUP2 SLOAD DUP2 LT PUSH2 0x2F3 JUMPI PUSH2 0x2F2 PUSH2 0xE8C JUMP JUMPDEST JUMPDEST SWAP1 PUSH1 0x0 MSTORE PUSH1 0x20 PUSH1 0x0 KECCAK256 SWAP1 PUSH1 0xC MUL ADD PUSH1 0x1 ADD PUSH1 0x0 DUP3 DUP3 SLOAD PUSH2 0x313 SWAP2 SWAP1 PUSH2 0xC9F JUMP JUMPDEST SWAP3 POP POP DUP2 SWAP1 SSTORE POP PUSH1 0x0 DUP2 PUSH1 0x2 ADD SLOAD EQ ISZERO PUSH2 0x373 JUMPI DUP1 PUSH1 0x0 ADD SLOAD PUSH1 0x2 PUSH2 0x336 PUSH2 0x812 JUMP JUMPDEST DUP2 SLOAD DUP2 LT PUSH2 0x347 JUMPI PUSH2 0x346 PUSH2 0xE8C JUMP JUMPDEST JUMPDEST SWAP1 PUSH1 0x0 MSTORE PUSH1 0x20 PUSH1 0x0 KECCAK256 SWAP1 PUSH1 0xC MUL ADD PUSH1 0x2 ADD PUSH1 0x0 DUP3 DUP3 SLOAD PUSH2 0x367 SWAP2 SWAP1 PUSH2 0xC9F JUMP JUMPDEST SWAP3 POP POP DUP2 SWAP1 SSTORE POP PUSH2 0x68B JUMP JUMPDEST PUSH1 0x1 DUP2 PUSH1 0x2 ADD SLOAD EQ ISZERO PUSH2 0x3CC JUMPI DUP1 PUSH1 0x0 ADD SLOAD PUSH1 0x2 PUSH2 0x38F PUSH2 0x812 JUMP JUMPDEST DUP2 SLOAD DUP2 LT PUSH2 0x3A0 JUMPI PUSH2 0x39F PUSH2 0xE8C JUMP JUMPDEST JUMPDEST SWAP1 PUSH1 0x0 MSTORE PUSH1 0x20 PUSH1 0x0 KECCAK256 SWAP1 PUSH1 0xC MUL ADD PUSH1 0x3 ADD PUSH1 0x0 DUP3 DUP3 SLOAD PUSH2 0x3C0 SWAP2 SWAP1 PUSH2 0xC9F JUMP JUMPDEST SWAP3 POP POP DUP2 SWAP1 SSTORE POP PUSH2 0x68A JUMP JUMPDEST PUSH1 0x2 DUP2 PUSH1 0x2 ADD SLOAD EQ ISZERO PUSH2 0x425 JUMPI DUP1 PUSH1 0x0 ADD SLOAD PUSH1 0x2 PUSH2 0x3E8 PUSH2 0x812 JUMP JUMPDEST DUP2 SLOAD DUP2 LT PUSH2 0x3F9 JUMPI PUSH2 0x3F8 PUSH2 0xE8C JUMP JUMPDEST JUMPDEST SWAP1 PUSH1 0x0 MSTORE PUSH1 0x20 PUSH1 0x0 KECCAK256 SWAP1 PUSH1 0xC MUL ADD PUSH1 0x4 ADD PUSH1 0x0 DUP3 DUP3 SLOAD PUSH2 0x419 SWAP2 SWAP1 PUSH2 0xC9F JUMP JUMPDEST SWAP3 POP POP DUP2 SWAP1 SSTORE POP PUSH2 0x689 JUMP JUMPDEST PUSH1 0x3 DUP2 PUSH1 0x2 ADD SLOAD EQ ISZERO PUSH2 0x47E JUMPI DUP1 PUSH1 0x0 ADD SLOAD PUSH1 0x2 PUSH2 0x441 PUSH2 0x812 JUMP JUMPDEST DUP2 SLOAD DUP2 LT PUSH2 0x452 JUMPI PUSH2 0x451 PUSH2 0xE8C JUMP JUMPDEST JUMPDEST SWAP1 PUSH1 0x0 MSTORE PUSH1 0x20 PUSH1 0x0 KECCAK256 SWAP1 PUSH1 0xC MUL ADD PUSH1 0x5 ADD PUSH1 0x0 DUP3 DUP3 SLOAD PUSH2 0x472 SWAP2 SWAP1 PUSH2 0xC9F JUMP JUMPDEST SWAP3 POP POP DUP2 SWAP1 SSTORE POP PUSH2 0x688 JUMP JUMPDEST PUSH1 0x4 DUP2 PUSH1 0x2 ADD SLOAD EQ ISZERO PUSH2 0x4D7 JUMPI DUP1 PUSH1 0x0 ADD SLOAD PUSH1 0x2 PUSH2 0x49A PUSH2 0x812 JUMP JUMPDEST DUP2 SLOAD DUP2 LT PUSH2 0x4AB JUMPI PUSH2 0x4AA PUSH2 0xE8C JUMP JUMPDEST JUMPDEST SWAP1 PUSH1 0x0 MSTORE PUSH1 0x20 PUSH1 0x0 KECCAK256 SWAP1 PUSH1 0xC MUL ADD PUSH1 0x6 ADD PUSH1 0x0 DUP3 DUP3 SLOAD PUSH2 0x4CB SWAP2 SWAP1 PUSH2 0xC9F JUMP JUMPDEST SWAP3 POP POP DUP2 SWAP1 SSTORE POP PUSH2 0x687 JUMP JUMPDEST PUSH1 0x5 DUP2 PUSH1 0x2 ADD SLOAD EQ ISZERO PUSH2 0x530 JUMPI DUP1 PUSH1 0x0 ADD SLOAD PUSH1 0x2 PUSH2 0x4F3 PUSH2 0x812 JUMP JUMPDEST DUP2 SLOAD DUP2 LT PUSH2 0x504 JUMPI PUSH2 0x503 PUSH2 0xE8C JUMP JUMPDEST JUMPDEST SWAP1 PUSH1 0x0 MSTORE PUSH1 0x20 PUSH1 0x0 KECCAK256 SWAP1 PUSH1 0xC MUL ADD PUSH1 0x7 ADD PUSH1 0x0 DUP3 DUP3 SLOAD PUSH2 0x524 SWAP2 SWAP1 PUSH2 0xC9F JUMP JUMPDEST SWAP3 POP POP DUP2 SWAP1 SSTORE POP PUSH2 0x686 JUMP JUMPDEST PUSH1 0x6 DUP2 PUSH1 0x2 ADD SLOAD EQ ISZERO PUSH2 0x589 JUMPI DUP1 PUSH1 0x0 ADD SLOAD PUSH1 0x2 PUSH2 0x54C PUSH2 0x812 JUMP JUMPDEST DUP2 SLOAD DUP2 LT PUSH2 0x55D JUMPI PUSH2 0x55C PUSH2 0xE8C JUMP JUMPDEST JUMPDEST SWAP1 PUSH1 0x0 MSTORE PUSH1 0x20 PUSH1 0x0 KECCAK256 SWAP1 PUSH1 0xC MUL ADD PUSH1 0x8 ADD PUSH1 0x0 DUP3 DUP3 SLOAD PUSH2 0x57D SWAP2 SWAP1 PUSH2 0xC9F JUMP JUMPDEST SWAP3 POP POP DUP2 SWAP1 SSTORE POP PUSH2 0x685 JUMP JUMPDEST PUSH1 0x7 DUP2 PUSH1 0x2 ADD SLOAD EQ ISZERO PUSH2 0x5E2 JUMPI DUP1 PUSH1 0x0 ADD SLOAD PUSH1 0x2 PUSH2 0x5A5 PUSH2 0x812 JUMP JUMPDEST DUP2 SLOAD DUP2 LT PUSH2 0x5B6 JUMPI PUSH2 0x5B5 PUSH2 0xE8C JUMP JUMPDEST JUMPDEST SWAP1 PUSH1 0x0 MSTORE PUSH1 0x20 PUSH1 0x0 KECCAK256 SWAP1 PUSH1 0xC MUL ADD PUSH1 0x9 ADD PUSH1 0x0 DUP3 DUP3 SLOAD PUSH2 0x5D6 SWAP2 SWAP1 PUSH2 0xC9F JUMP JUMPDEST SWAP3 POP POP DUP2 SWAP1 SSTORE POP PUSH2 0x684 JUMP JUMPDEST PUSH1 0x8 DUP2 PUSH1 0x2 ADD SLOAD EQ ISZERO PUSH2 0x63B JUMPI DUP1 PUSH1 0x0 ADD SLOAD PUSH1 0x2 PUSH2 0x5FE PUSH2 0x812 JUMP JUMPDEST DUP2 SLOAD DUP2 LT PUSH2 0x60F JUMPI PUSH2 0x60E PUSH2 0xE8C JUMP JUMPDEST JUMPDEST SWAP1 PUSH1 0x0 MSTORE PUSH1 0x20 PUSH1 0x0 KECCAK256 SWAP1 PUSH1 0xC MUL ADD PUSH1 0xA ADD PUSH1 0x0 DUP3 DUP3 SLOAD PUSH2 0x62F SWAP2 SWAP1 PUSH2 0xC9F JUMP JUMPDEST SWAP3 POP POP DUP2 SWAP1 SSTORE POP PUSH2 0x683 JUMP JUMPDEST DUP1 PUSH1 0x0 ADD SLOAD PUSH1 0x2 PUSH2 0x64A PUSH2 0x812 JUMP JUMPDEST DUP2 SLOAD DUP2 LT PUSH2 0x65B JUMPI PUSH2 0x65A PUSH2 0xE8C JUMP JUMPDEST JUMPDEST SWAP1 PUSH1 0x0 MSTORE PUSH1 0x20 PUSH1 0x0 KECCAK256 SWAP1 PUSH1 0xC MUL ADD PUSH1 0xB ADD PUSH1 0x0 DUP3 DUP3 SLOAD PUSH2 0x67B SWAP2 SWAP1 PUSH2 0xC9F JUMP JUMPDEST SWAP3 POP POP DUP2 SWAP1 SSTORE POP JUMPDEST JUMPDEST JUMPDEST JUMPDEST JUMPDEST JUMPDEST JUMPDEST JUMPDEST JUMPDEST POP JUMP JUMPDEST PUSH1 0x3 SLOAD DUP2 JUMP JUMPDEST PUSH2 0x69C PUSH2 0x86F JUMP JUMPDEST PUSH1 0x2 DUP3 DUP2 SLOAD DUP2 LT PUSH2 0x6B0 JUMPI PUSH2 0x6AF PUSH2 0xE8C JUMP JUMPDEST JUMPDEST SWAP1 PUSH1 0x0 MSTORE PUSH1 0x20 PUSH1 0x0 KECCAK256 SWAP1 PUSH1 0xC MUL ADD PUSH1 0x40 MLOAD DUP1 PUSH2 0x180 ADD PUSH1 0x40 MSTORE SWAP1 DUP2 PUSH1 0x0 DUP3 ADD DUP1 SLOAD PUSH2 0x6DA SWAP1 PUSH2 0xD6E JUMP JUMPDEST DUP1 PUSH1 0x1F ADD PUSH1 0x20 DUP1 SWAP2 DIV MUL PUSH1 0x20 ADD PUSH1 0x40 MLOAD SWAP1 DUP2 ADD PUSH1 0x40 MSTORE DUP1 SWAP3 SWAP2 SWAP1 DUP2 DUP2 MSTORE PUSH1 0x20 ADD DUP3 DUP1 SLOAD PUSH2 0x706 SWAP1 PUSH2 0xD6E JUMP JUMPDEST DUP1 ISZERO PUSH2 0x753 JUMPI DUP1 PUSH1 0x1F LT PUSH2 0x728 JUMPI PUSH2 0x100 DUP1 DUP4 SLOAD DIV MUL DUP4 MSTORE SWAP2 PUSH1 0x20 ADD SWAP2 PUSH2 0x753 JUMP JUMPDEST DUP3 ADD SWAP2 SWAP1 PUSH1 0x0 MSTORE PUSH1 0x20 PUSH1 0x0 KECCAK256 SWAP1 JUMPDEST DUP2 SLOAD DUP2 MSTORE SWAP1 PUSH1 0x1 ADD SWAP1 PUSH1 0x20 ADD DUP1 DUP4 GT PUSH2 0x736 JUMPI DUP3 SWAP1 SUB PUSH1 0x1F AND DUP3 ADD SWAP2 JUMPDEST POP POP POP POP POP DUP2 MSTORE PUSH1 0x20 ADD PUSH1 0x1 DUP3 ADD SLOAD DUP2 MSTORE PUSH1 0x20 ADD PUSH1 0x2 DUP3 ADD SLOAD DUP2 MSTORE PUSH1 0x20 ADD PUSH1 0x3 DUP3 ADD SLOAD DUP2 MSTORE PUSH1 0x20 ADD PUSH1 0x4 DUP3 ADD SLOAD DUP2 MSTORE PUSH1 0x20 ADD PUSH1 0x5 DUP3 ADD SLOAD DUP2 MSTORE PUSH1 0x20 ADD PUSH1 0x6 DUP3 ADD SLOAD DUP2 MSTORE PUSH1 0x20 ADD PUSH1 0x7 DUP3 ADD SLOAD DUP2 MSTORE PUSH1 0x20 ADD PUSH1 0x8 DUP3 ADD SLOAD DUP2 MSTORE PUSH1 0x20 ADD PUSH1 0x9 DUP3 ADD SLOAD DUP2 MSTORE PUSH1 0x20 ADD PUSH1 0xA DUP3 ADD SLOAD DUP2 MSTORE PUSH1 0x20 ADD PUSH1 0xB DUP3 ADD SLOAD DUP2 MSTORE POP POP SWAP1 POP SWAP2 SWAP1 POP JUMP JUMPDEST PUSH1 0x0 PUSH1 0xA TIMESTAMP DIFFICULTY CALLER PUSH1 0x40 MLOAD PUSH1 0x20 ADD PUSH2 0x7EA SWAP4 SWAP3 SWAP2 SWAP1 PUSH2 0xB04 JUMP JUMPDEST PUSH1 0x40 MLOAD PUSH1 0x20 DUP2 DUP4 SUB SUB DUP2 MSTORE SWAP1 PUSH1 0x40 MSTORE DUP1 MLOAD SWAP1 PUSH1 0x20 ADD KECCAK256 PUSH1 0x0 SHR PUSH2 0x80D SWAP2 SWAP1 PUSH2 0xDCE JUMP JUMPDEST SWAP1 POP SWAP1 JUMP JUMPDEST PUSH1 0x0 PUSH1 0x5 TIMESTAMP DIFFICULTY CALLER PUSH1 0x40 MLOAD PUSH1 0x20 ADD PUSH2 0x82B SWAP4 SWAP3 SWAP2 SWAP1 PUSH2 0xB04 JUMP JUMPDEST PUSH1 0x40 MLOAD PUSH1 0x20 DUP2 DUP4 SUB SUB DUP2 MSTORE SWAP1 PUSH1 0x40 MSTORE DUP1 MLOAD SWAP1 PUSH1 0x20 ADD KECCAK256 PUSH1 0x0 SHR PUSH2 0x84E SWAP2 SWAP1 PUSH2 0xDCE JUMP JUMPDEST SWAP1 POP SWAP1 JUMP JUMPDEST PUSH1 0x1 PUSH1 0x3 PUSH1 0x0 DUP3 DUP3 SLOAD PUSH2 0x866 SWAP2 SWAP1 PUSH2 0xC0B JUMP JUMPDEST SWAP3 POP POP DUP2 SWAP1 SSTORE POP JUMP JUMPDEST PUSH1 0x40 MLOAD DUP1 PUSH2 0x180 ADD PUSH1 0x40 MSTORE DUP1 PUSH1 0x60 DUP2 MSTORE PUSH1 0x20 ADD PUSH1 0x0 DUP2 MSTORE PUSH1 0x20 ADD PUSH1 0x0 DUP2 MSTORE PUSH1 0x20 ADD PUSH1 0x0 DUP2 MSTORE PUSH1 0x20 ADD PUSH1 0x0 DUP2 MSTORE PUSH1 0x20 ADD PUSH1 0x0 DUP2 MSTORE PUSH1 0x20 ADD PUSH1 0x0 DUP2 MSTORE PUSH1 0x20 ADD PUSH1 0x0 DUP2 MSTORE PUSH1 0x20 ADD PUSH1 0x0 DUP2 MSTORE PUSH1 0x20 ADD PUSH1 0x0 DUP2 MSTORE PUSH1 0x20 ADD PUSH1 0x0 DUP2 MSTORE PUSH1 0x20 ADD PUSH1 0x0 DUP2 MSTORE POP SWAP1 JUMP JUMPDEST PUSH1 0x0 DUP2 CALLDATALOAD SWAP1 POP PUSH2 0x8DF DUP2 PUSH2 0xF59 JUMP JUMPDEST SWAP3 SWAP2 POP POP JUMP JUMPDEST PUSH1 0x0 PUSH1 0x20 DUP3 DUP5 SUB SLT ISZERO PUSH2 0x8FB JUMPI PUSH2 0x8FA PUSH2 0xEBB JUMP JUMPDEST JUMPDEST PUSH1 0x0 PUSH2 0x909 DUP5 DUP3 DUP6 ADD PUSH2 0x8D0 JUMP JUMPDEST SWAP2 POP POP SWAP3 SWAP2 POP POP JUMP JUMPDEST PUSH2 0x923 PUSH2 0x91E DUP3 PUSH2 0xCF5 JUMP JUMPDEST PUSH2 0xDA0 JUMP JUMPDEST DUP3 MSTORE POP POP JUMP JUMPDEST PUSH2 0x932 DUP2 PUSH2 0xD07 JUMP JUMPDEST DUP3 MSTORE POP POP JUMP JUMPDEST PUSH1 0x0 PUSH2 0x943 DUP3 PUSH2 0xBDE JUMP JUMPDEST PUSH2 0x94D DUP2 DUP6 PUSH2 0xBE9 JUMP JUMPDEST SWAP4 POP PUSH2 0x95D DUP2 DUP6 PUSH1 0x20 DUP7 ADD PUSH2 0xD3B JUMP JUMPDEST PUSH2 0x966 DUP2 PUSH2 0xEC0 JUMP JUMPDEST DUP5 ADD SWAP2 POP POP SWAP3 SWAP2 POP POP JUMP JUMPDEST PUSH1 0x0 PUSH2 0x97E PUSH1 0xE DUP4 PUSH2 0xBFA JUMP JUMPDEST SWAP2 POP PUSH2 0x989 DUP3 PUSH2 0xEDE JUMP JUMPDEST PUSH1 0x20 DUP3 ADD SWAP1 POP SWAP2 SWAP1 POP JUMP JUMPDEST PUSH1 0x0 PUSH2 0x9A1 PUSH1 0x18 DUP4 PUSH2 0xBFA JUMP JUMPDEST SWAP2 POP PUSH2 0x9AC DUP3 PUSH2 0xF07 JUMP JUMPDEST PUSH1 0x20 DUP3 ADD SWAP1 POP SWAP2 SWAP1 POP JUMP JUMPDEST PUSH1 0x0 PUSH2 0x9C4 PUSH1 0x13 DUP4 PUSH2 0xBFA JUMP JUMPDEST SWAP2 POP PUSH2 0x9CF DUP3 PUSH2 0xF30 JUMP JUMPDEST PUSH1 0x20 DUP3 ADD SWAP1 POP SWAP2 SWAP1 POP JUMP JUMPDEST PUSH1 0x0 PUSH2 0x180 DUP4 ADD PUSH1 0x0 DUP4 ADD MLOAD DUP5 DUP3 SUB PUSH1 0x0 DUP7 ADD MSTORE PUSH2 0x9F8 DUP3 DUP3 PUSH2 0x938 JUMP JUMPDEST SWAP2 POP POP PUSH1 0x20 DUP4 ADD MLOAD PUSH2 0xA0D PUSH1 0x20 DUP7 ADD DUP3 PUSH2 0xADE JUMP JUMPDEST POP PUSH1 0x40 DUP4 ADD MLOAD PUSH2 0xA20 PUSH1 0x40 DUP7 ADD DUP3 PUSH2 0xADE JUMP JUMPDEST POP PUSH1 0x60 DUP4 ADD MLOAD PUSH2 0xA33 PUSH1 0x60 DUP7 ADD DUP3 PUSH2 0xADE JUMP JUMPDEST POP PUSH1 0x80 DUP4 ADD MLOAD PUSH2 0xA46 PUSH1 0x80 DUP7 ADD DUP3 PUSH2 0xADE JUMP JUMPDEST POP PUSH1 0xA0 DUP4 ADD MLOAD PUSH2 0xA59 PUSH1 0xA0 DUP7 ADD DUP3 PUSH2 0xADE JUMP JUMPDEST POP PUSH1 0xC0 DUP4 ADD MLOAD PUSH2 0xA6C PUSH1 0xC0 DUP7 ADD DUP3 PUSH2 0xADE JUMP JUMPDEST POP PUSH1 0xE0 DUP4 ADD MLOAD PUSH2 0xA7F PUSH1 0xE0 DUP7 ADD DUP3 PUSH2 0xADE JUMP JUMPDEST POP PUSH2 0x100 DUP4 ADD MLOAD PUSH2 0xA94 PUSH2 0x100 DUP7 ADD DUP3 PUSH2 0xADE JUMP JUMPDEST POP PUSH2 0x120 DUP4 ADD MLOAD PUSH2 0xAA9 PUSH2 0x120 DUP7 ADD DUP3 PUSH2 0xADE JUMP JUMPDEST POP PUSH2 0x140 DUP4 ADD MLOAD PUSH2 0xABE PUSH2 0x140 DUP7 ADD DUP3 PUSH2 0xADE JUMP JUMPDEST POP PUSH2 0x160 DUP4 ADD MLOAD PUSH2 0xAD3 PUSH2 0x160 DUP7 ADD DUP3 PUSH2 0xADE JUMP JUMPDEST POP DUP1 SWAP2 POP POP SWAP3 SWAP2 POP POP JUMP JUMPDEST PUSH2 0xAE7 DUP2 PUSH2 0xD31 JUMP JUMPDEST DUP3 MSTORE POP POP JUMP JUMPDEST PUSH2 0xAFE PUSH2 0xAF9 DUP3 PUSH2 0xD31 JUMP JUMPDEST PUSH2 0xDC4 JUMP JUMPDEST DUP3 MSTORE POP POP JUMP JUMPDEST PUSH1 0x0 PUSH2 0xB10 DUP3 DUP7 PUSH2 0xAED JUMP JUMPDEST PUSH1 0x20 DUP3 ADD SWAP2 POP PUSH2 0xB20 DUP3 DUP6 PUSH2 0xAED JUMP JUMPDEST PUSH1 0x20 DUP3 ADD SWAP2 POP PUSH2 0xB30 DUP3 DUP5 PUSH2 0x912 JUMP JUMPDEST PUSH1 0x14 DUP3 ADD SWAP2 POP DUP2 SWAP1 POP SWAP5 SWAP4 POP POP POP POP JUMP JUMPDEST PUSH1 0x0 PUSH1 0x20 DUP3 ADD SWAP1 POP PUSH2 0xB56 PUSH1 0x0 DUP4 ADD DUP5 PUSH2 0x929 JUMP JUMPDEST SWAP3 SWAP2 POP POP JUMP JUMPDEST PUSH1 0x0 PUSH1 0x20 DUP3 ADD SWAP1 POP DUP2 DUP2 SUB PUSH1 0x0 DUP4 ADD MSTORE PUSH2 0xB75 DUP2 PUSH2 0x971 JUMP JUMPDEST SWAP1 POP SWAP2 SWAP1 POP JUMP JUMPDEST PUSH1 0x0 PUSH1 0x20 DUP3 ADD SWAP1 POP DUP2 DUP2 SUB PUSH1 0x0 DUP4 ADD MSTORE PUSH2 0xB95 DUP2 PUSH2 0x994 JUMP JUMPDEST SWAP1 POP SWAP2 SWAP1 POP JUMP JUMPDEST PUSH1 0x0 PUSH1 0x20 DUP3 ADD SWAP1 POP DUP2 DUP2 SUB PUSH1 0x0 DUP4 ADD MSTORE PUSH2 0xBB5 DUP2 PUSH2 0x9B7 JUMP JUMPDEST SWAP1 POP SWAP2 SWAP1 POP JUMP JUMPDEST PUSH1 0x0 PUSH1 0x20 DUP3 ADD SWAP1 POP DUP2 DUP2 SUB PUSH1 0x0 DUP4 ADD MSTORE PUSH2 0xBD6 DUP2 DUP5 PUSH2 0x9DA JUMP JUMPDEST SWAP1 POP SWAP3 SWAP2 POP POP JUMP JUMPDEST PUSH1 0x0 DUP2 MLOAD SWAP1 POP SWAP2 SWAP1 POP JUMP JUMPDEST PUSH1 0x0 DUP3 DUP3 MSTORE PUSH1 0x20 DUP3 ADD SWAP1 POP SWAP3 SWAP2 POP POP JUMP JUMPDEST PUSH1 0x0 DUP3 DUP3 MSTORE PUSH1 0x20 DUP3 ADD SWAP1 POP SWAP3 SWAP2 POP POP JUMP JUMPDEST PUSH1 0x0 PUSH2 0xC16 DUP3 PUSH2 0xD07 JUMP JUMPDEST SWAP2 POP PUSH2 0xC21 DUP4 PUSH2 0xD07 JUMP JUMPDEST SWAP3 POP DUP2 PUSH32 0x7FFFFFFFFFFFFFFFFFFFFFFFFFFFFFFFFFFFFFFFFFFFFFFFFFFFFFFFFFFFFFFF SUB DUP4 SGT PUSH1 0x0 DUP4 SLT ISZERO AND ISZERO PUSH2 0xC5C JUMPI PUSH2 0xC5B PUSH2 0xDFF JUMP JUMPDEST JUMPDEST DUP2 PUSH32 0x8000000000000000000000000000000000000000000000000000000000000000 SUB DUP4 SLT PUSH1 0x0 DUP4 SLT AND ISZERO PUSH2 0xC94 JUMPI PUSH2 0xC93 PUSH2 0xDFF JUMP JUMPDEST JUMPDEST DUP3 DUP3 ADD SWAP1 POP SWAP3 SWAP2 POP POP JUMP JUMPDEST PUSH1 0x0 PUSH2 0xCAA DUP3 PUSH2 0xD31 JUMP JUMPDEST SWAP2 POP PUSH2 0xCB5 DUP4 PUSH2 0xD31 JUMP JUMPDEST SWAP3 POP DUP3 PUSH32 0xFFFFFFFFFFFFFFFFFFFFFFFFFFFFFFFFFFFFFFFFFFFFFFFFFFFFFFFFFFFFFFFF SUB DUP3 GT ISZERO PUSH2 0xCEA JUMPI PUSH2 0xCE9 PUSH2 0xDFF JUMP JUMPDEST JUMPDEST DUP3 DUP3 ADD SWAP1 POP SWAP3 SWAP2 POP POP JUMP JUMPDEST PUSH1 0x0 PUSH2 0xD00 DUP3 PUSH2 0xD11 JUMP JUMPDEST SWAP1 POP SWAP2 SWAP1 POP JUMP JUMPDEST PUSH1 0x0 DUP2 SWAP1 POP SWAP2 SWAP1 POP JUMP JUMPDEST PUSH1 0x0 PUSH20 0xFFFFFFFFFFFFFFFFFFFFFFFFFFFFFFFFFFFFFFFF DUP3 AND SWAP1 POP SWAP2 SWAP1 POP JUMP JUMPDEST PUSH1 0x0 DUP2 SWAP1 POP SWAP2 SWAP1 POP JUMP JUMPDEST PUSH1 0x0 JUMPDEST DUP4 DUP2 LT ISZERO PUSH2 0xD59 JUMPI DUP1 DUP3 ADD MLOAD DUP2 DUP5 ADD MSTORE PUSH1 0x20 DUP2 ADD SWAP1 POP PUSH2 0xD3E JUMP JUMPDEST DUP4 DUP2 GT ISZERO PUSH2 0xD68 JUMPI PUSH1 0x0 DUP5 DUP5 ADD MSTORE JUMPDEST POP POP POP POP JUMP JUMPDEST PUSH1 0x0 PUSH1 0x2 DUP3 DIV SWAP1 POP PUSH1 0x1 DUP3 AND DUP1 PUSH2 0xD86 JUMPI PUSH1 0x7F DUP3 AND SWAP2 POP JUMPDEST PUSH1 0x20 DUP3 LT DUP2 EQ ISZERO PUSH2 0xD9A JUMPI PUSH2 0xD99 PUSH2 0xE5D JUMP JUMPDEST JUMPDEST POP SWAP2 SWAP1 POP JUMP JUMPDEST PUSH1 0x0 PUSH2 0xDAB DUP3 PUSH2 0xDB2 JUMP JUMPDEST SWAP1 POP SWAP2 SWAP1 POP JUMP JUMPDEST PUSH1 0x0 PUSH2 0xDBD DUP3 PUSH2 0xED1 JUMP JUMPDEST SWAP1 POP SWAP2 SWAP1 POP JUMP JUMPDEST PUSH1 0x0 DUP2 SWAP1 POP SWAP2 SWAP1 POP JUMP JUMPDEST PUSH1 0x0 PUSH2 0xDD9 DUP3 PUSH2 0xD31 JUMP JUMPDEST SWAP2 POP PUSH2 0xDE4 DUP4 PUSH2 0xD31 JUMP JUMPDEST SWAP3 POP DUP3 PUSH2 0xDF4 JUMPI PUSH2 0xDF3 PUSH2 0xE2E JUMP JUMPDEST JUMPDEST DUP3 DUP3 MOD SWAP1 POP SWAP3 SWAP2 POP POP JUMP JUMPDEST PUSH32 0x4E487B7100000000000000000000000000000000000000000000000000000000 PUSH1 0x0 MSTORE PUSH1 0x11 PUSH1 0x4 MSTORE PUSH1 0x24 PUSH1 0x0 REVERT JUMPDEST PUSH32 0x4E487B7100000000000000000000000000000000000000000000000000000000 PUSH1 0x0 MSTORE PUSH1 0x12 PUSH1 0x4 MSTORE PUSH1 0x24 PUSH1 0x0 REVERT JUMPDEST PUSH32 0x4E487B7100000000000000000000000000000000000000000000000000000000 PUSH1 0x0 MSTORE PUSH1 0x22 PUSH1 0x4 MSTORE PUSH1 0x24 PUSH1 0x0 REVERT JUMPDEST PUSH32 0x4E487B7100000000000000000000000000000000000000000000000000000000 PUSH1 0x0 MSTORE PUSH1 0x32 PUSH1 0x4 MSTORE PUSH1 0x24 PUSH1 0x0 REVERT JUMPDEST PUSH1 0x0 DUP1 REVERT JUMPDEST PUSH1 0x0 PUSH1 0x1F NOT PUSH1 0x1F DUP4 ADD AND SWAP1 POP SWAP2 SWAP1 POP JUMP JUMPDEST PUSH1 0x0 DUP2 PUSH1 0x60 SHL SWAP1 POP SWAP2 SWAP1 POP JUMP JUMPDEST PUSH32 0x416C726561647920766F7465642E000000000000000000000000000000000000 PUSH1 0x0 DUP3 ADD MSTORE POP JUMP JUMPDEST PUSH32 0x54686520766F74657220616C726561647920766F7465642E0000000000000000 PUSH1 0x0 DUP3 ADD MSTORE POP JUMP JUMPDEST PUSH32 0x52656163686564206D617820766F746572732E00000000000000000000000000 PUSH1 0x0 DUP3 ADD MSTORE POP JUMP JUMPDEST PUSH2 0xF62 DUP2 PUSH2 0xD31 JUMP JUMPDEST DUP2 EQ PUSH2 0xF6D JUMPI PUSH1 0x0 DUP1 REVERT JUMPDEST POP JUMP INVALID LOG2 PUSH5 0x6970667358 0x22 SLT KECCAK256 PUSH27 0xF4589A22E87F8247855E01A91EF16F1EA2AA43D3318F7DF6BF1EF 0xE2 DUP4 0xD4 0x5D PUSH5 0x736F6C6343 STOP ADDMOD SMOD STOP CALLER "
				},
				"gasEstimates": {
					"creation": {
						"codeDepositCost": "801200",
						"executionCost": "infinite",
						"totalCost": "infinite"
					},
					"external": {
						"countV()": "2429",
						"res(uint256)": "infinite",
						"vote()": "infinite"
					},
					"internal": {
						"countVoters()": "infinite",
						"random_district()": "infinite",
						"random_vote()": "infinite"
					}
				},
				"methodIdentifiers": {
					"countV()": "6d8f3f10",
					"res(uint256)": "d4e8fd2e",
					"vote()": "632a9a52"
				}
			},
			"storageLayout": {
				"storage": [
					{
						"astId": 38,
						"contract": "smartContract/contracts/3_Ballot.sol:Ballot",
						"label": "chairperson",
						"offset": 0,
						"slot": "0",
						"type": "t_address"
					},
					{
						"astId": 43,
						"contract": "smartContract/contracts/3_Ballot.sol:Ballot",
						"label": "voters",
						"offset": 0,
						"slot": "1",
						"type": "t_mapping(t_address,t_struct(Voter)11_storage)"
					},
					{
						"astId": 47,
						"contract": "smartContract/contracts/3_Ballot.sol:Ballot",
						"label": "proposals",
						"offset": 0,
						"slot": "2",
						"type": "t_array(t_struct(Proposal)36_storage)dyn_storage"
					},
					{
						"astId": 144,
						"contract": "smartContract/contracts/3_Ballot.sol:Ballot",
						"label": "countV",
						"offset": 0,
						"slot": "3",
						"type": "t_int256"
					}
				],
				"types": {
					"t_address": {
						"encoding": "inplace",
						"label": "address",
						"numberOfBytes": "20"
					},
					"t_array(t_struct(Proposal)36_storage)dyn_storage": {
						"base": "t_struct(Proposal)36_storage",
						"encoding": "dynamic_array",
						"label": "struct Ballot.Proposal[]",
						"numberOfBytes": "32"
					},
					"t_bool": {
						"encoding": "inplace",
						"label": "bool",
						"numberOfBytes": "1"
					},
					"t_int256": {
						"encoding": "inplace",
						"label": "int256",
						"numberOfBytes": "32"
					},
					"t_mapping(t_address,t_struct(Voter)11_storage)": {
						"encoding": "mapping",
						"key": "t_address",
						"label": "mapping(address => struct Ballot.Voter)",
						"numberOfBytes": "32",
						"value": "t_struct(Voter)11_storage"
					},
					"t_string_storage": {
						"encoding": "bytes",
						"label": "string",
						"numberOfBytes": "32"
					},
					"t_struct(Proposal)36_storage": {
						"encoding": "inplace",
						"label": "struct Ballot.Proposal",
						"members": [
							{
								"astId": 13,
								"contract": "smartContract/contracts/3_Ballot.sol:Ballot",
								"label": "name",
								"offset": 0,
								"slot": "0",
								"type": "t_string_storage"
							},
							{
								"astId": 15,
								"contract": "smartContract/contracts/3_Ballot.sol:Ballot",
								"label": "Total_Votes",
								"offset": 0,
								"slot": "1",
								"type": "t_uint256"
							},
							{
								"astId": 17,
								"contract": "smartContract/contracts/3_Ballot.sol:Ballot",
								"label": "Votes_District0",
								"offset": 0,
								"slot": "2",
								"type": "t_uint256"
							},
							{
								"astId": 19,
								"contract": "smartContract/contracts/3_Ballot.sol:Ballot",
								"label": "Votes_District1",
								"offset": 0,
								"slot": "3",
								"type": "t_uint256"
							},
							{
								"astId": 21,
								"contract": "smartContract/contracts/3_Ballot.sol:Ballot",
								"label": "Votes_District2",
								"offset": 0,
								"slot": "4",
								"type": "t_uint256"
							},
							{
								"astId": 23,
								"contract": "smartContract/contracts/3_Ballot.sol:Ballot",
								"label": "Votes_District3",
								"offset": 0,
								"slot": "5",
								"type": "t_uint256"
							},
							{
								"astId": 25,
								"contract": "smartContract/contracts/3_Ballot.sol:Ballot",
								"label": "Votes_District4",
								"offset": 0,
								"slot": "6",
								"type": "t_uint256"
							},
							{
								"astId": 27,
								"contract": "smartContract/contracts/3_Ballot.sol:Ballot",
								"label": "Votes_District5",
								"offset": 0,
								"slot": "7",
								"type": "t_uint256"
							},
							{
								"astId": 29,
								"contract": "smartContract/contracts/3_Ballot.sol:Ballot",
								"label": "Votes_District6",
								"offset": 0,
								"slot": "8",
								"type": "t_uint256"
							},
							{
								"astId": 31,
								"contract": "smartContract/contracts/3_Ballot.sol:Ballot",
								"label": "Votes_District7",
								"offset": 0,
								"slot": "9",
								"type": "t_uint256"
							},
							{
								"astId": 33,
								"contract": "smartContract/contracts/3_Ballot.sol:Ballot",
								"label": "Votes_District8",
								"offset": 0,
								"slot": "10",
								"type": "t_uint256"
							},
							{
								"astId": 35,
								"contract": "smartContract/contracts/3_Ballot.sol:Ballot",
								"label": "Votes_District9",
								"offset": 0,
								"slot": "11",
								"type": "t_uint256"
							}
						],
						"numberOfBytes": "384"
					},
					"t_struct(Voter)11_storage": {
						"encoding": "inplace",
						"label": "struct Ballot.Voter",
						"members": [
							{
								"astId": 4,
								"contract": "smartContract/contracts/3_Ballot.sol:Ballot",
								"label": "weight",
								"offset": 0,
								"slot": "0",
								"type": "t_uint256"
							},
							{
								"astId": 6,
								"contract": "smartContract/contracts/3_Ballot.sol:Ballot",
								"label": "voted",
								"offset": 0,
								"slot": "1",
								"type": "t_bool"
							},
							{
								"astId": 8,
								"contract": "smartContract/contracts/3_Ballot.sol:Ballot",
								"label": "district",
								"offset": 0,
								"slot": "2",
								"type": "t_uint256"
							},
							{
								"astId": 10,
								"contract": "smartContract/contracts/3_Ballot.sol:Ballot",
								"label": "vote",
								"offset": 0,
								"slot": "3",
								"type": "t_uint256"
							}
						],
						"numberOfBytes": "128"
					},
					"t_uint256": {
						"encoding": "inplace",
						"label": "uint256",
						"numberOfBytes": "32"
					}
				}
			},
			"userdoc": {
				"kind": "user",
				"methods": {},
				"version": 1
			}
		}
	}
}