{
	"smartContract/contracts/3_Ballot.sol": {
		"Ballot": {
			"abi": [
				{
					"inputs": [],
					"stateMutability": "nonpayable",
					"type": "constructor"
				},
				{
					"inputs": [],
					"name": "getInfo",
					"outputs": [
						{
							"internalType": "string",
							"name": "",
							"type": "string"
						}
					],
					"stateMutability": "view",
					"type": "function"
				},
				{
					"inputs": [],
					"name": "random_vote",
					"outputs": [
						{
							"internalType": "uint256",
							"name": "",
							"type": "uint256"
						}
					],
					"stateMutability": "view",
					"type": "function"
				},
				{
					"inputs": [
						{
							"internalType": "uint256",
							"name": "_id",
							"type": "uint256"
						}
					],
					"name": "res",
					"outputs": [
						{
							"components": [
								{
									"internalType": "string",
									"name": "name",
									"type": "string"
								},
								{
									"internalType": "uint256",
									"name": "Total_Votes",
									"type": "uint256"
								},
								{
									"internalType": "uint256",
									"name": "Votes_District0",
									"type": "uint256"
								},
								{
									"internalType": "uint256",
									"name": "Votes_District1",
									"type": "uint256"
								},
								{
									"internalType": "uint256",
									"name": "Votes_District2",
									"type": "uint256"
								},
								{
									"internalType": "uint256",
									"name": "Votes_District3",
									"type": "uint256"
								},
								{
									"internalType": "uint256",
									"name": "Votes_District4",
									"type": "uint256"
								},
								{
									"internalType": "uint256",
									"name": "Votes_District5",
									"type": "uint256"
								},
								{
									"internalType": "uint256",
									"name": "Votes_District6",
									"type": "uint256"
								},
								{
									"internalType": "uint256",
									"name": "Votes_District7",
									"type": "uint256"
								},
								{
									"internalType": "uint256",
									"name": "Votes_District8",
									"type": "uint256"
								},
								{
									"internalType": "uint256",
									"name": "Votes_District9",
									"type": "uint256"
								}
							],
							"internalType": "struct Ballot.Proposal",
							"name": "",
							"type": "tuple"
						}
					],
					"stateMutability": "view",
					"type": "function"
				},
				{
					"inputs": [
						{
							"internalType": "string",
							"name": "_info",
							"type": "string"
						}
					],
					"name": "setInfo",
					"outputs": [],
					"stateMutability": "nonpayable",
					"type": "function"
				},
				{
					"inputs": [
						{
							"internalType": "address",
							"name": "_address",
							"type": "address"
						}
					],
					"name": "vote",
					"outputs": [],
					"stateMutability": "nonpayable",
					"type": "function"
				},
				{
					"inputs": [
						{
							"internalType": "address",
							"name": "",
							"type": "address"
						}
					],
					"name": "voters",
					"outputs": [
						{
							"internalType": "uint256",
							"name": "weight",
							"type": "uint256"
						},
						{
							"internalType": "bool",
							"name": "voted",
							"type": "bool"
						},
						{
							"internalType": "uint256",
							"name": "district",
							"type": "uint256"
						},
						{
							"internalType": "uint256",
							"name": "vote",
							"type": "uint256"
						}
					],
					"stateMutability": "view",
					"type": "function"
				}
			],
			"devdoc": {
				"details": "Implements voting process along with vote delegation",
				"kind": "dev",
				"methods": {},
				"title": "Ballot",
				"version": 1
			},
			"evm": {
				"assembly": "    /* \"smartContract/contracts/3_Ballot.sol\":157:5942  contract Ballot {... */\n  mstore(0x40, 0x80)\n    /* \"smartContract/contracts/3_Ballot.sol\":2780:2781  0 */\n  0x00\n    /* \"smartContract/contracts/3_Ballot.sol\":2760:2781  int private count = 0 */\n  0x04\n  sstore\n    /* \"smartContract/contracts/3_Ballot.sol\":3410:3411  0 */\n  0x00\n    /* \"smartContract/contracts/3_Ballot.sol\":3389:3411  int private count2 = 0 */\n  0x05\n  sstore\n    /* \"smartContract/contracts/3_Ballot.sol\":1471:2313  constructor() {... */\n  callvalue\n  dup1\n  iszero\n  tag_1\n  jumpi\n  0x00\n  dup1\n  revert\ntag_1:\n  pop\n    /* \"smartContract/contracts/3_Ballot.sol\":1509:1519  msg.sender */\n  caller\n    /* \"smartContract/contracts/3_Ballot.sol\":1495:1506  chairperson */\n  0x00\n  dup1\n    /* \"smartContract/contracts/3_Ballot.sol\":1495:1519  chairperson = msg.sender */\n  0x0100\n  exp\n  dup2\n  sload\n  dup2\n  0xffffffffffffffffffffffffffffffffffffffff\n  mul\n  not\n  and\n  swap1\n  dup4\n  0xffffffffffffffffffffffffffffffffffffffff\n  and\n  mul\n  or\n  swap1\n  sstore\n  pop\n    /* \"smartContract/contracts/3_Ballot.sol\":1558:1559  1 */\n  0x01\n    /* \"smartContract/contracts/3_Ballot.sol\":1529:1535  voters */\n  dup1\n    /* \"smartContract/contracts/3_Ballot.sol\":1529:1548  voters[chairperson] */\n  0x00\n    /* \"smartContract/contracts/3_Ballot.sol\":1536:1547  chairperson */\n  dup1\n  0x00\n  swap1\n  sload\n  swap1\n  0x0100\n  exp\n  swap1\n  div\n  0xffffffffffffffffffffffffffffffffffffffff\n  and\n    /* \"smartContract/contracts/3_Ballot.sol\":1529:1548  voters[chairperson] */\n  0xffffffffffffffffffffffffffffffffffffffff\n  and\n  0xffffffffffffffffffffffffffffffffffffffff\n  and\n  dup2\n  mstore\n  0x20\n  add\n  swap1\n  dup2\n  mstore\n  0x20\n  add\n  0x00\n  keccak256\n    /* \"smartContract/contracts/3_Ballot.sol\":1529:1555  voters[chairperson].weight */\n  0x00\n  add\n    /* \"smartContract/contracts/3_Ballot.sol\":1529:1559  voters[chairperson].weight = 1 */\n  dup2\n  swap1\n  sstore\n  pop\n    /* \"smartContract/contracts/3_Ballot.sol\":1569:1599  string[5] memory proposalNames */\n  0x00\n    /* \"smartContract/contracts/3_Ballot.sol\":1569:1623  string[5] memory proposalNames = [\"a\",\"b\",\"c\",\"d\",\"e\"] */\n  mload(0x40)\n  dup1\n  0xa0\n  add\n  0x40\n  mstore\n  dup1\n  mload(0x40)\n  dup1\n  0x40\n  add\n  0x40\n  mstore\n  dup1\n  0x01\n  dup2\n  mstore\n  0x20\n  add\n  0x6100000000000000000000000000000000000000000000000000000000000000\n  dup2\n  mstore\n  pop\n  dup2\n  mstore\n  0x20\n  add\n  mload(0x40)\n  dup1\n  0x40\n  add\n  0x40\n  mstore\n  dup1\n  0x01\n  dup2\n  mstore\n  0x20\n  add\n  0x6200000000000000000000000000000000000000000000000000000000000000\n  dup2\n  mstore\n  pop\n  dup2\n  mstore\n  0x20\n  add\n  mload(0x40)\n  dup1\n  0x40\n  add\n  0x40\n  mstore\n  dup1\n  0x01\n  dup2\n  mstore\n  0x20\n  add\n  0x6300000000000000000000000000000000000000000000000000000000000000\n  dup2\n  mstore\n  pop\n  dup2\n  mstore\n  0x20\n  add\n  mload(0x40)\n  dup1\n  0x40\n  add\n  0x40\n  mstore\n  dup1\n  0x01\n  dup2\n  mstore\n  0x20\n  add\n  0x6400000000000000000000000000000000000000000000000000000000000000\n  dup2\n  mstore\n  pop\n  dup2\n  mstore\n  0x20\n  add\n  mload(0x40)\n  dup1\n  0x40\n  add\n  0x40\n  mstore\n  dup1\n  0x01\n  dup2\n  mstore\n  0x20\n  add\n  0x6500000000000000000000000000000000000000000000000000000000000000\n  dup2\n  mstore\n  pop\n  dup2\n  mstore\n  pop\n  swap1\n  pop\n    /* \"smartContract/contracts/3_Ballot.sol\":1663:1664  5 */\n  0x05\n    /* \"smartContract/contracts/3_Ballot.sol\":1641:1661  proposalNames.length */\n  dup1\n    /* \"smartContract/contracts/3_Ballot.sol\":1641:1664  proposalNames.length==5 */\n  eq\n    /* \"smartContract/contracts/3_Ballot.sol\":1633:1689  require(proposalNames.length==5,\"Candidates must be 5.\") */\n  tag_4\n  jumpi\n  mload(0x40)\n  0x08c379a000000000000000000000000000000000000000000000000000000000\n  dup2\n  mstore\n  0x04\n  add\n  tag_5\n  swap1\n  tag_6\n  jump\t// in\ntag_5:\n  mload(0x40)\n  dup1\n  swap2\n  sub\n  swap1\n  revert\ntag_4:\n    /* \"smartContract/contracts/3_Ballot.sol\":1704:1710  uint i */\n  0x00\n    /* \"smartContract/contracts/3_Ballot.sol\":1699:2307  for (uint i = 0; i < proposalNames.length; i++) {... */\ntag_7:\n    /* \"smartContract/contracts/3_Ballot.sol\":1720:1740  proposalNames.length */\n  0x05\n    /* \"smartContract/contracts/3_Ballot.sol\":1716:1717  i */\n  dup2\n    /* \"smartContract/contracts/3_Ballot.sol\":1716:1740  i < proposalNames.length */\n  lt\n    /* \"smartContract/contracts/3_Ballot.sol\":1699:2307  for (uint i = 0; i < proposalNames.length; i++) {... */\n  iszero\n  tag_8\n  jumpi\n    /* \"smartContract/contracts/3_Ballot.sol\":1761:1770  proposals */\n  0x02\n    /* \"smartContract/contracts/3_Ballot.sol\":1776:2295  Proposal({... */\n  mload(0x40)\n  dup1\n  0x0180\n  add\n  0x40\n  mstore\n  dup1\n    /* \"smartContract/contracts/3_Ballot.sol\":1809:1822  proposalNames */\n  dup5\n    /* \"smartContract/contracts/3_Ballot.sol\":1823:1824  i */\n  dup5\n    /* \"smartContract/contracts/3_Ballot.sol\":1809:1825  proposalNames[i] */\n  0x05\n  dup2\n  lt\n  tag_10\n  jumpi\n  tag_11\n  tag_12\n  jump\t// in\ntag_11:\ntag_10:\n  0x20\n  mul\n  add\n  mload\n    /* \"smartContract/contracts/3_Ballot.sol\":1776:2295  Proposal({... */\n  dup2\n  mstore\n  0x20\n  add\n    /* \"smartContract/contracts/3_Ballot.sol\":1919:1920  0 */\n  0x00\n    /* \"smartContract/contracts/3_Ballot.sol\":1776:2295  Proposal({... */\n  dup2\n  mstore\n  0x20\n  add\n    /* \"smartContract/contracts/3_Ballot.sol\":1955:1956  0 */\n  0x00\n    /* \"smartContract/contracts/3_Ballot.sol\":1776:2295  Proposal({... */\n  dup2\n  mstore\n  0x20\n  add\n    /* \"smartContract/contracts/3_Ballot.sol\":1991:1992  0 */\n  0x00\n    /* \"smartContract/contracts/3_Ballot.sol\":1776:2295  Proposal({... */\n  dup2\n  mstore\n  0x20\n  add\n    /* \"smartContract/contracts/3_Ballot.sol\":2027:2028  0 */\n  0x00\n    /* \"smartContract/contracts/3_Ballot.sol\":1776:2295  Proposal({... */\n  dup2\n  mstore\n  0x20\n  add\n    /* \"smartContract/contracts/3_Ballot.sol\":2063:2064  0 */\n  0x00\n    /* \"smartContract/contracts/3_Ballot.sol\":1776:2295  Proposal({... */\n  dup2\n  mstore\n  0x20\n  add\n    /* \"smartContract/contracts/3_Ballot.sol\":2099:2100  0 */\n  0x00\n    /* \"smartContract/contracts/3_Ballot.sol\":1776:2295  Proposal({... */\n  dup2\n  mstore\n  0x20\n  add\n    /* \"smartContract/contracts/3_Ballot.sol\":2135:2136  0 */\n  0x00\n    /* \"smartContract/contracts/3_Ballot.sol\":1776:2295  Proposal({... */\n  dup2\n  mstore\n  0x20\n  add\n    /* \"smartContract/contracts/3_Ballot.sol\":2171:2172  0 */\n  0x00\n    /* \"smartContract/contracts/3_Ballot.sol\":1776:2295  Proposal({... */\n  dup2\n  mstore\n  0x20\n  add\n    /* \"smartContract/contracts/3_Ballot.sol\":2207:2208  0 */\n  0x00\n    /* \"smartContract/contracts/3_Ballot.sol\":1776:2295  Proposal({... */\n  dup2\n  mstore\n  0x20\n  add\n    /* \"smartContract/contracts/3_Ballot.sol\":2243:2244  0 */\n  0x00\n    /* \"smartContract/contracts/3_Ballot.sol\":1776:2295  Proposal({... */\n  dup2\n  mstore\n  0x20\n  add\n    /* \"smartContract/contracts/3_Ballot.sol\":2279:2280  0 */\n  0x00\n    /* \"smartContract/contracts/3_Ballot.sol\":1776:2295  Proposal({... */\n  dup2\n  mstore\n  pop\n    /* \"smartContract/contracts/3_Ballot.sol\":1761:2296  proposals.push(Proposal({... */\n  swap1\n  dup1\n  0x01\n  dup2\n  sload\n  add\n  dup1\n  dup3\n  sstore\n  dup1\n  swap2\n  pop\n  pop\n  0x01\n  swap1\n  sub\n  swap1\n  0x00\n  mstore\n  keccak256(0x00, 0x20)\n  swap1\n  0x0c\n  mul\n  add\n  0x00\n  swap1\n  swap2\n  swap1\n  swap2\n  swap1\n  swap2\n  pop\n  0x00\n  dup3\n  add\n  mload\n  dup2\n  0x00\n  add\n  swap1\n  dup1\n  mload\n  swap1\n  0x20\n  add\n  swap1\n  tag_14\n  swap3\n  swap2\n  swap1\n  tag_15\n  jump\t// in\ntag_14:\n  pop\n  0x20\n  dup3\n  add\n  mload\n  dup2\n  0x01\n  add\n  sstore\n  0x40\n  dup3\n  add\n  mload\n  dup2\n  0x02\n  add\n  sstore\n  0x60\n  dup3\n  add\n  mload\n  dup2\n  0x03\n  add\n  sstore\n  0x80\n  dup3\n  add\n  mload\n  dup2\n  0x04\n  add\n  sstore\n  0xa0\n  dup3\n  add\n  mload\n  dup2\n  0x05\n  add\n  sstore\n  0xc0\n  dup3\n  add\n  mload\n  dup2\n  0x06\n  add\n  sstore\n  0xe0\n  dup3\n  add\n  mload\n  dup2\n  0x07\n  add\n  sstore\n  0x0100\n  dup3\n  add\n  mload\n  dup2\n  0x08\n  add\n  sstore\n  0x0120\n  dup3\n  add\n  mload\n  dup2\n  0x09\n  add\n  sstore\n  0x0140\n  dup3\n  add\n  mload\n  dup2\n  0x0a\n  add\n  sstore\n  0x0160\n  dup3\n  add\n  mload\n  dup2\n  0x0b\n  add\n  sstore\n  pop\n  pop\n    /* \"smartContract/contracts/3_Ballot.sol\":1742:1745  i++ */\n  dup1\n  dup1\n  tag_16\n  swap1\n  tag_17\n  jump\t// in\ntag_16:\n  swap2\n  pop\n  pop\n    /* \"smartContract/contracts/3_Ballot.sol\":1699:2307  for (uint i = 0; i < proposalNames.length; i++) {... */\n  jump(tag_7)\ntag_8:\n  pop\n    /* \"smartContract/contracts/3_Ballot.sol\":1485:2313  {... */\n  pop\n    /* \"smartContract/contracts/3_Ballot.sol\":157:5942  contract Ballot {... */\n  jump(tag_18)\ntag_15:\n  dup3\n  dup1\n  sload\n  tag_19\n  swap1\n  tag_20\n  jump\t// in\ntag_19:\n  swap1\n  0x00\n  mstore\n  keccak256(0x00, 0x20)\n  swap1\n  0x1f\n  add\n  0x20\n  swap1\n  div\n  dup2\n  add\n  swap3\n  dup3\n  tag_22\n  jumpi\n  0x00\n  dup6\n  sstore\n  jump(tag_21)\ntag_22:\n  dup3\n  0x1f\n  lt\n  tag_23\n  jumpi\n  dup1\n  mload\n  not(0xff)\n  and\n  dup4\n  dup1\n  add\n  or\n  dup6\n  sstore\n  jump(tag_21)\ntag_23:\n  dup3\n  dup1\n  add\n  0x01\n  add\n  dup6\n  sstore\n  dup3\n  iszero\n  tag_21\n  jumpi\n  swap2\n  dup3\n  add\ntag_24:\n  dup3\n  dup2\n  gt\n  iszero\n  tag_25\n  jumpi\n  dup3\n  mload\n  dup3\n  sstore\n  swap2\n  0x20\n  add\n  swap2\n  swap1\n  0x01\n  add\n  swap1\n  jump(tag_24)\ntag_25:\ntag_21:\n  pop\n  swap1\n  pop\n  tag_26\n  swap2\n  swap1\n  tag_27\n  jump\t// in\ntag_26:\n  pop\n  swap1\n  jump\t// out\ntag_27:\ntag_28:\n  dup1\n  dup3\n  gt\n  iszero\n  tag_29\n  jumpi\n  0x00\n  dup2\n  0x00\n  swap1\n  sstore\n  pop\n  0x01\n  add\n  jump(tag_28)\ntag_29:\n  pop\n  swap1\n  jump\t// out\n    /* \"#utility.yul\":7:373   */\ntag_31:\n    /* \"#utility.yul\":149:152   */\n  0x00\n    /* \"#utility.yul\":170:237   */\n  tag_33\n    /* \"#utility.yul\":234:236   */\n  0x15\n    /* \"#utility.yul\":229:232   */\n  dup4\n    /* \"#utility.yul\":170:237   */\n  tag_34\n  jump\t// in\ntag_33:\n    /* \"#utility.yul\":163:237   */\n  swap2\n  pop\n    /* \"#utility.yul\":246:339   */\n  tag_35\n    /* \"#utility.yul\":335:338   */\n  dup3\n    /* \"#utility.yul\":246:339   */\n  tag_36\n  jump\t// in\ntag_35:\n    /* \"#utility.yul\":364:366   */\n  0x20\n    /* \"#utility.yul\":359:362   */\n  dup3\n    /* \"#utility.yul\":355:367   */\n  add\n    /* \"#utility.yul\":348:367   */\n  swap1\n  pop\n    /* \"#utility.yul\":7:373   */\n  swap2\n  swap1\n  pop\n  jump\t// out\n    /* \"#utility.yul\":379:798   */\ntag_6:\n    /* \"#utility.yul\":545:549   */\n  0x00\n    /* \"#utility.yul\":583:585   */\n  0x20\n    /* \"#utility.yul\":572:581   */\n  dup3\n    /* \"#utility.yul\":568:586   */\n  add\n    /* \"#utility.yul\":560:586   */\n  swap1\n  pop\n    /* \"#utility.yul\":632:641   */\n  dup2\n    /* \"#utility.yul\":626:630   */\n  dup2\n    /* \"#utility.yul\":622:642   */\n  sub\n    /* \"#utility.yul\":618:619   */\n  0x00\n    /* \"#utility.yul\":607:616   */\n  dup4\n    /* \"#utility.yul\":603:620   */\n  add\n    /* \"#utility.yul\":596:643   */\n  mstore\n    /* \"#utility.yul\":660:791   */\n  tag_38\n    /* \"#utility.yul\":786:790   */\n  dup2\n    /* \"#utility.yul\":660:791   */\n  tag_31\n  jump\t// in\ntag_38:\n    /* \"#utility.yul\":652:791   */\n  swap1\n  pop\n    /* \"#utility.yul\":379:798   */\n  swap2\n  swap1\n  pop\n  jump\t// out\n    /* \"#utility.yul\":804:973   */\ntag_34:\n    /* \"#utility.yul\":888:899   */\n  0x00\n    /* \"#utility.yul\":922:928   */\n  dup3\n    /* \"#utility.yul\":917:920   */\n  dup3\n    /* \"#utility.yul\":910:929   */\n  mstore\n    /* \"#utility.yul\":962:966   */\n  0x20\n    /* \"#utility.yul\":957:960   */\n  dup3\n    /* \"#utility.yul\":953:967   */\n  add\n    /* \"#utility.yul\":938:967   */\n  swap1\n  pop\n    /* \"#utility.yul\":804:973   */\n  swap3\n  swap2\n  pop\n  pop\n  jump\t// out\n    /* \"#utility.yul\":979:1056   */\ntag_40:\n    /* \"#utility.yul\":1016:1023   */\n  0x00\n    /* \"#utility.yul\":1045:1050   */\n  dup2\n    /* \"#utility.yul\":1034:1050   */\n  swap1\n  pop\n    /* \"#utility.yul\":979:1056   */\n  swap2\n  swap1\n  pop\n  jump\t// out\n    /* \"#utility.yul\":1062:1382   */\ntag_20:\n    /* \"#utility.yul\":1106:1112   */\n  0x00\n    /* \"#utility.yul\":1143:1144   */\n  0x02\n    /* \"#utility.yul\":1137:1141   */\n  dup3\n    /* \"#utility.yul\":1133:1145   */\n  div\n    /* \"#utility.yul\":1123:1145   */\n  swap1\n  pop\n    /* \"#utility.yul\":1190:1191   */\n  0x01\n    /* \"#utility.yul\":1184:1188   */\n  dup3\n    /* \"#utility.yul\":1180:1192   */\n  and\n    /* \"#utility.yul\":1211:1229   */\n  dup1\n    /* \"#utility.yul\":1201:1282   */\n  tag_43\n  jumpi\n    /* \"#utility.yul\":1267:1271   */\n  0x7f\n    /* \"#utility.yul\":1259:1265   */\n  dup3\n    /* \"#utility.yul\":1255:1272   */\n  and\n    /* \"#utility.yul\":1245:1272   */\n  swap2\n  pop\n    /* \"#utility.yul\":1201:1282   */\ntag_43:\n    /* \"#utility.yul\":1329:1331   */\n  0x20\n    /* \"#utility.yul\":1321:1327   */\n  dup3\n    /* \"#utility.yul\":1318:1332   */\n  lt\n    /* \"#utility.yul\":1298:1316   */\n  dup2\n    /* \"#utility.yul\":1295:1333   */\n  eq\n    /* \"#utility.yul\":1292:1376   */\n  iszero\n  tag_44\n  jumpi\n    /* \"#utility.yul\":1348:1366   */\n  tag_45\n  tag_46\n  jump\t// in\ntag_45:\n    /* \"#utility.yul\":1292:1376   */\ntag_44:\n    /* \"#utility.yul\":1113:1382   */\n  pop\n    /* \"#utility.yul\":1062:1382   */\n  swap2\n  swap1\n  pop\n  jump\t// out\n    /* \"#utility.yul\":1388:1621   */\ntag_17:\n    /* \"#utility.yul\":1427:1430   */\n  0x00\n    /* \"#utility.yul\":1450:1474   */\n  tag_48\n    /* \"#utility.yul\":1468:1473   */\n  dup3\n    /* \"#utility.yul\":1450:1474   */\n  tag_40\n  jump\t// in\ntag_48:\n    /* \"#utility.yul\":1441:1474   */\n  swap2\n  pop\n    /* \"#utility.yul\":1496:1562   */\n  0xffffffffffffffffffffffffffffffffffffffffffffffffffffffffffffffff\n    /* \"#utility.yul\":1489:1494   */\n  dup3\n    /* \"#utility.yul\":1486:1563   */\n  eq\n    /* \"#utility.yul\":1483:1586   */\n  iszero\n  tag_49\n  jumpi\n    /* \"#utility.yul\":1566:1584   */\n  tag_50\n  tag_51\n  jump\t// in\ntag_50:\n    /* \"#utility.yul\":1483:1586   */\ntag_49:\n    /* \"#utility.yul\":1613:1614   */\n  0x01\n    /* \"#utility.yul\":1606:1611   */\n  dup3\n    /* \"#utility.yul\":1602:1615   */\n  add\n    /* \"#utility.yul\":1595:1615   */\n  swap1\n  pop\n    /* \"#utility.yul\":1388:1621   */\n  swap2\n  swap1\n  pop\n  jump\t// out\n    /* \"#utility.yul\":1627:1807   */\ntag_51:\n    /* \"#utility.yul\":1675:1752   */\n  0x4e487b7100000000000000000000000000000000000000000000000000000000\n    /* \"#utility.yul\":1672:1673   */\n  0x00\n    /* \"#utility.yul\":1665:1753   */\n  mstore\n    /* \"#utility.yul\":1772:1776   */\n  0x11\n    /* \"#utility.yul\":1769:1770   */\n  0x04\n    /* \"#utility.yul\":1762:1777   */\n  mstore\n    /* \"#utility.yul\":1796:1800   */\n  0x24\n    /* \"#utility.yul\":1793:1794   */\n  0x00\n    /* \"#utility.yul\":1786:1801   */\n  revert\n    /* \"#utility.yul\":1813:1993   */\ntag_46:\n    /* \"#utility.yul\":1861:1938   */\n  0x4e487b7100000000000000000000000000000000000000000000000000000000\n    /* \"#utility.yul\":1858:1859   */\n  0x00\n    /* \"#utility.yul\":1851:1939   */\n  mstore\n    /* \"#utility.yul\":1958:1962   */\n  0x22\n    /* \"#utility.yul\":1955:1956   */\n  0x04\n    /* \"#utility.yul\":1948:1963   */\n  mstore\n    /* \"#utility.yul\":1982:1986   */\n  0x24\n    /* \"#utility.yul\":1979:1980   */\n  0x00\n    /* \"#utility.yul\":1972:1987   */\n  revert\n    /* \"#utility.yul\":1999:2179   */\ntag_12:\n    /* \"#utility.yul\":2047:2124   */\n  0x4e487b7100000000000000000000000000000000000000000000000000000000\n    /* \"#utility.yul\":2044:2045   */\n  0x00\n    /* \"#utility.yul\":2037:2125   */\n  mstore\n    /* \"#utility.yul\":2144:2148   */\n  0x32\n    /* \"#utility.yul\":2141:2142   */\n  0x04\n    /* \"#utility.yul\":2134:2149   */\n  mstore\n    /* \"#utility.yul\":2168:2172   */\n  0x24\n    /* \"#utility.yul\":2165:2166   */\n  0x00\n    /* \"#utility.yul\":2158:2173   */\n  revert\n    /* \"#utility.yul\":2185:2356   */\ntag_36:\n    /* \"#utility.yul\":2325:2348   */\n  0x43616e64696461746573206d75737420626520352e0000000000000000000000\n    /* \"#utility.yul\":2321:2322   */\n  0x00\n    /* \"#utility.yul\":2313:2319   */\n  dup3\n    /* \"#utility.yul\":2309:2323   */\n  add\n    /* \"#utility.yul\":2302:2349   */\n  mstore\n    /* \"#utility.yul\":2185:2356   */\n  pop\n  jump\t// out\n    /* \"smartContract/contracts/3_Ballot.sol\":157:5942  contract Ballot {... */\ntag_18:\n  dataSize(sub_0)\n  dup1\n  dataOffset(sub_0)\n  0x00\n  codecopy\n  0x00\n  return\nstop\n\nsub_0: assembly {\n        /* \"smartContract/contracts/3_Ballot.sol\":157:5942  contract Ballot {... */\n      mstore(0x40, 0x80)\n      callvalue\n      dup1\n      iszero\n      tag_1\n      jumpi\n      0x00\n      dup1\n      revert\n    tag_1:\n      pop\n      jumpi(tag_2, lt(calldatasize, 0x04))\n      shr(0xe0, calldataload(0x00))\n      dup1\n      0x5a9b0b89\n      eq\n      tag_3\n      jumpi\n      dup1\n      0x6dd7d8ea\n      eq\n      tag_4\n      jumpi\n      dup1\n      0x937f6e77\n      eq\n      tag_5\n      jumpi\n      dup1\n      0xa3ec138d\n      eq\n      tag_6\n      jumpi\n      dup1\n      0xcfa1f037\n      eq\n      tag_7\n      jumpi\n      dup1\n      0xd4e8fd2e\n      eq\n      tag_8\n      jumpi\n    tag_2:\n      0x00\n      dup1\n      revert\n        /* \"smartContract/contracts/3_Ballot.sol\":1378:1461  function getInfo() public view returns (string memory) {... */\n    tag_3:\n      tag_9\n      tag_10\n      jump\t// in\n    tag_9:\n      mload(0x40)\n      tag_11\n      swap2\n      swap1\n      tag_12\n      jump\t// in\n    tag_11:\n      mload(0x40)\n      dup1\n      swap2\n      sub\n      swap1\n      return\n        /* \"smartContract/contracts/3_Ballot.sol\":3671:5837  function vote(address _address) public {... */\n    tag_4:\n      tag_13\n      0x04\n      dup1\n      calldatasize\n      sub\n      dup2\n      add\n      swap1\n      tag_14\n      swap2\n      swap1\n      tag_15\n      jump\t// in\n    tag_14:\n      tag_16\n      jump\t// in\n    tag_13:\n      stop\n        /* \"smartContract/contracts/3_Ballot.sol\":1298:1372  function setInfo(string memory _info) public {... */\n    tag_5:\n      tag_17\n      0x04\n      dup1\n      calldatasize\n      sub\n      dup2\n      add\n      swap1\n      tag_18\n      swap2\n      swap1\n      tag_19\n      jump\t// in\n    tag_18:\n      tag_20\n      jump\t// in\n    tag_17:\n      stop\n        /* \"smartContract/contracts/3_Ballot.sol\":896:935  mapping(address => Voter) public voters */\n    tag_6:\n      tag_21\n      0x04\n      dup1\n      calldatasize\n      sub\n      dup2\n      add\n      swap1\n      tag_22\n      swap2\n      swap1\n      tag_15\n      jump\t// in\n    tag_22:\n      tag_23\n      jump\t// in\n    tag_21:\n      mload(0x40)\n      tag_24\n      swap5\n      swap4\n      swap3\n      swap2\n      swap1\n      tag_25\n      jump\t// in\n    tag_24:\n      mload(0x40)\n      dup1\n      swap2\n      sub\n      swap1\n      return\n        /* \"smartContract/contracts/3_Ballot.sol\":3488:3665  function random_vote() public view returns(uint){... */\n    tag_7:\n      tag_26\n      tag_27\n      jump\t// in\n    tag_26:\n      mload(0x40)\n      tag_28\n      swap2\n      swap1\n      tag_29\n      jump\t// in\n    tag_28:\n      mload(0x40)\n      dup1\n      swap2\n      sub\n      swap1\n      return\n        /* \"smartContract/contracts/3_Ballot.sol\":5843:5940  function res(uint _id) public view returns(Proposal memory){... */\n    tag_8:\n      tag_30\n      0x04\n      dup1\n      calldatasize\n      sub\n      dup2\n      add\n      swap1\n      tag_31\n      swap2\n      swap1\n      tag_32\n      jump\t// in\n    tag_31:\n      tag_33\n      jump\t// in\n    tag_30:\n      mload(0x40)\n      tag_34\n      swap2\n      swap1\n      tag_35\n      jump\t// in\n    tag_34:\n      mload(0x40)\n      dup1\n      swap2\n      sub\n      swap1\n      return\n        /* \"smartContract/contracts/3_Ballot.sol\":1378:1461  function getInfo() public view returns (string memory) {... */\n    tag_10:\n        /* \"smartContract/contracts/3_Ballot.sol\":1418:1431  string memory */\n      0x60\n        /* \"smartContract/contracts/3_Ballot.sol\":1450:1454  info */\n      0x03\n        /* \"smartContract/contracts/3_Ballot.sol\":1443:1454  return info */\n      dup1\n      sload\n      tag_37\n      swap1\n      tag_38\n      jump\t// in\n    tag_37:\n      dup1\n      0x1f\n      add\n      0x20\n      dup1\n      swap2\n      div\n      mul\n      0x20\n      add\n      mload(0x40)\n      swap1\n      dup2\n      add\n      0x40\n      mstore\n      dup1\n      swap3\n      swap2\n      swap1\n      dup2\n      dup2\n      mstore\n      0x20\n      add\n      dup3\n      dup1\n      sload\n      tag_39\n      swap1\n      tag_38\n      jump\t// in\n    tag_39:\n      dup1\n      iszero\n      tag_40\n      jumpi\n      dup1\n      0x1f\n      lt\n      tag_41\n      jumpi\n      0x0100\n      dup1\n      dup4\n      sload\n      div\n      mul\n      dup4\n      mstore\n      swap2\n      0x20\n      add\n      swap2\n      jump(tag_40)\n    tag_41:\n      dup3\n      add\n      swap2\n      swap1\n      0x00\n      mstore\n      keccak256(0x00, 0x20)\n      swap1\n    tag_42:\n      dup2\n      sload\n      dup2\n      mstore\n      swap1\n      0x01\n      add\n      swap1\n      0x20\n      add\n      dup1\n      dup4\n      gt\n      tag_42\n      jumpi\n      dup3\n      swap1\n      sub\n      0x1f\n      and\n      dup3\n      add\n      swap2\n    tag_40:\n      pop\n      pop\n      pop\n      pop\n      pop\n      swap1\n      pop\n        /* \"smartContract/contracts/3_Ballot.sol\":1378:1461  function getInfo() public view returns (string memory) {... */\n      swap1\n      jump\t// out\n        /* \"smartContract/contracts/3_Ballot.sol\":3671:5837  function vote(address _address) public {... */\n    tag_16:\n        /* \"smartContract/contracts/3_Ballot.sol\":3756:3762  voters */\n      0x01\n        /* \"smartContract/contracts/3_Ballot.sol\":3756:3772  voters[_address] */\n      0x00\n        /* \"smartContract/contracts/3_Ballot.sol\":3763:3771  _address */\n      dup3\n        /* \"smartContract/contracts/3_Ballot.sol\":3756:3772  voters[_address] */\n      0xffffffffffffffffffffffffffffffffffffffff\n      and\n      0xffffffffffffffffffffffffffffffffffffffff\n      and\n      dup2\n      mstore\n      0x20\n      add\n      swap1\n      dup2\n      mstore\n      0x20\n      add\n      0x00\n      keccak256\n        /* \"smartContract/contracts/3_Ballot.sol\":3756:3778  voters[_address].voted */\n      0x01\n      add\n      0x00\n      swap1\n      sload\n      swap1\n      0x0100\n      exp\n      swap1\n      div\n      0xff\n      and\n        /* \"smartContract/contracts/3_Ballot.sol\":3755:3778  !voters[_address].voted */\n      iszero\n        /* \"smartContract/contracts/3_Ballot.sol\":3734:3828  require(... */\n      tag_44\n      jumpi\n      mload(0x40)\n      0x08c379a000000000000000000000000000000000000000000000000000000000\n      dup2\n      mstore\n      0x04\n      add\n      tag_45\n      swap1\n      tag_46\n      jump\t// in\n    tag_45:\n      mload(0x40)\n      dup1\n      swap2\n      sub\n      swap1\n      revert\n    tag_44:\n        /* \"smartContract/contracts/3_Ballot.sol\":3873:3874  0 */\n      0x00\n        /* \"smartContract/contracts/3_Ballot.sol\":3846:3852  voters */\n      0x01\n        /* \"smartContract/contracts/3_Ballot.sol\":3846:3862  voters[_address] */\n      0x00\n        /* \"smartContract/contracts/3_Ballot.sol\":3853:3861  _address */\n      dup4\n        /* \"smartContract/contracts/3_Ballot.sol\":3846:3862  voters[_address] */\n      0xffffffffffffffffffffffffffffffffffffffff\n      and\n      0xffffffffffffffffffffffffffffffffffffffff\n      and\n      dup2\n      mstore\n      0x20\n      add\n      swap1\n      dup2\n      mstore\n      0x20\n      add\n      0x00\n      keccak256\n        /* \"smartContract/contracts/3_Ballot.sol\":3846:3869  voters[_address].weight */\n      0x00\n      add\n      sload\n        /* \"smartContract/contracts/3_Ballot.sol\":3846:3874  voters[_address].weight == 0 */\n      eq\n        /* \"smartContract/contracts/3_Ballot.sol\":3838:3875  require(voters[_address].weight == 0) */\n      tag_47\n      jumpi\n      0x00\n      dup1\n      revert\n    tag_47:\n        /* \"smartContract/contracts/3_Ballot.sol\":3911:3912  1 */\n      0x01\n        /* \"smartContract/contracts/3_Ballot.sol\":3885:3891  voters */\n      dup1\n        /* \"smartContract/contracts/3_Ballot.sol\":3885:3901  voters[_address] */\n      0x00\n        /* \"smartContract/contracts/3_Ballot.sol\":3892:3900  _address */\n      dup4\n        /* \"smartContract/contracts/3_Ballot.sol\":3885:3901  voters[_address] */\n      0xffffffffffffffffffffffffffffffffffffffff\n      and\n      0xffffffffffffffffffffffffffffffffffffffff\n      and\n      dup2\n      mstore\n      0x20\n      add\n      swap1\n      dup2\n      mstore\n      0x20\n      add\n      0x00\n      keccak256\n        /* \"smartContract/contracts/3_Ballot.sol\":3885:3908  voters[_address].weight */\n      0x00\n      add\n        /* \"smartContract/contracts/3_Ballot.sol\":3885:3912  voters[_address].weight = 1 */\n      dup2\n      swap1\n      sstore\n      pop\n        /* \"smartContract/contracts/3_Ballot.sol\":3972:3990  incrementCounter() */\n      tag_48\n        /* \"smartContract/contracts/3_Ballot.sol\":3972:3988  incrementCounter */\n      tag_49\n        /* \"smartContract/contracts/3_Ballot.sol\":3972:3990  incrementCounter() */\n      jump\t// in\n    tag_48:\n        /* \"smartContract/contracts/3_Ballot.sol\":4026:4043  random_district() */\n      tag_50\n        /* \"smartContract/contracts/3_Ballot.sol\":4026:4041  random_district */\n      tag_51\n        /* \"smartContract/contracts/3_Ballot.sol\":4026:4043  random_district() */\n      jump\t// in\n    tag_50:\n        /* \"smartContract/contracts/3_Ballot.sol\":4000:4006  voters */\n      0x01\n        /* \"smartContract/contracts/3_Ballot.sol\":4000:4016  voters[_address] */\n      0x00\n        /* \"smartContract/contracts/3_Ballot.sol\":4007:4015  _address */\n      dup4\n        /* \"smartContract/contracts/3_Ballot.sol\":4000:4016  voters[_address] */\n      0xffffffffffffffffffffffffffffffffffffffff\n      and\n      0xffffffffffffffffffffffffffffffffffffffff\n      and\n      dup2\n      mstore\n      0x20\n      add\n      swap1\n      dup2\n      mstore\n      0x20\n      add\n      0x00\n      keccak256\n        /* \"smartContract/contracts/3_Ballot.sol\":4000:4025  voters[_address].district */\n      0x02\n      add\n        /* \"smartContract/contracts/3_Ballot.sol\":4000:4043  voters[_address].district=random_district() */\n      dup2\n      swap1\n      sstore\n      pop\n        /* \"smartContract/contracts/3_Ballot.sol\":4071:4091  Voter storage sender */\n      0x00\n        /* \"smartContract/contracts/3_Ballot.sol\":4094:4100  voters */\n      0x01\n        /* \"smartContract/contracts/3_Ballot.sol\":4094:4110  voters[_address] */\n      0x00\n        /* \"smartContract/contracts/3_Ballot.sol\":4101:4109  _address */\n      dup4\n        /* \"smartContract/contracts/3_Ballot.sol\":4094:4110  voters[_address] */\n      0xffffffffffffffffffffffffffffffffffffffff\n      and\n      0xffffffffffffffffffffffffffffffffffffffff\n      and\n      dup2\n      mstore\n      0x20\n      add\n      swap1\n      dup2\n      mstore\n      0x20\n      add\n      0x00\n      keccak256\n        /* \"smartContract/contracts/3_Ballot.sol\":4071:4110  Voter storage sender = voters[_address] */\n      swap1\n      pop\n        /* \"smartContract/contracts/3_Ballot.sol\":4241:4247  sender */\n      dup1\n        /* \"smartContract/contracts/3_Ballot.sol\":4241:4253  sender.voted */\n      0x01\n      add\n      0x00\n      swap1\n      sload\n      swap1\n      0x0100\n      exp\n      swap1\n      div\n      0xff\n      and\n        /* \"smartContract/contracts/3_Ballot.sol\":4240:4253  !sender.voted */\n      iszero\n        /* \"smartContract/contracts/3_Ballot.sol\":4232:4272  require(!sender.voted, \"Already voted.\") */\n      tag_52\n      jumpi\n      mload(0x40)\n      0x08c379a000000000000000000000000000000000000000000000000000000000\n      dup2\n      mstore\n      0x04\n      add\n      tag_53\n      swap1\n      tag_54\n      jump\t// in\n    tag_53:\n      mload(0x40)\n      dup1\n      swap2\n      sub\n      swap1\n      revert\n    tag_52:\n        /* \"smartContract/contracts/3_Ballot.sol\":4297:4301  true */\n      0x01\n        /* \"smartContract/contracts/3_Ballot.sol\":4282:4288  sender */\n      dup2\n        /* \"smartContract/contracts/3_Ballot.sol\":4282:4294  sender.voted */\n      0x01\n      add\n      0x00\n        /* \"smartContract/contracts/3_Ballot.sol\":4282:4301  sender.voted = true */\n      0x0100\n      exp\n      dup2\n      sload\n      dup2\n      0xff\n      mul\n      not\n      and\n      swap1\n      dup4\n      iszero\n      iszero\n      mul\n      or\n      swap1\n      sstore\n      pop\n        /* \"smartContract/contracts/3_Ballot.sol\":4360:4373  random_vote() */\n      tag_55\n        /* \"smartContract/contracts/3_Ballot.sol\":4360:4371  random_vote */\n      tag_27\n        /* \"smartContract/contracts/3_Ballot.sol\":4360:4373  random_vote() */\n      jump\t// in\n    tag_55:\n        /* \"smartContract/contracts/3_Ballot.sol\":4346:4352  sender */\n      dup2\n        /* \"smartContract/contracts/3_Ballot.sol\":4346:4357  sender.vote */\n      0x03\n      add\n        /* \"smartContract/contracts/3_Ballot.sol\":4346:4373  sender.vote = random_vote() */\n      dup2\n      swap1\n      sstore\n      pop\n        /* \"smartContract/contracts/3_Ballot.sol\":4734:4740  sender */\n      dup1\n        /* \"smartContract/contracts/3_Ballot.sol\":4734:4747  sender.weight */\n      0x00\n      add\n      sload\n        /* \"smartContract/contracts/3_Ballot.sol\":4694:4703  proposals */\n      0x02\n        /* \"smartContract/contracts/3_Ballot.sol\":4704:4717  random_vote() */\n      tag_56\n        /* \"smartContract/contracts/3_Ballot.sol\":4704:4715  random_vote */\n      tag_27\n        /* \"smartContract/contracts/3_Ballot.sol\":4704:4717  random_vote() */\n      jump\t// in\n    tag_56:\n        /* \"smartContract/contracts/3_Ballot.sol\":4694:4718  proposals[random_vote()] */\n      dup2\n      sload\n      dup2\n      lt\n      tag_57\n      jumpi\n      tag_58\n      tag_59\n      jump\t// in\n    tag_58:\n    tag_57:\n      swap1\n      0x00\n      mstore\n      keccak256(0x00, 0x20)\n      swap1\n      0x0c\n      mul\n      add\n        /* \"smartContract/contracts/3_Ballot.sol\":4694:4730  proposals[random_vote()].Total_Votes */\n      0x01\n      add\n      0x00\n        /* \"smartContract/contracts/3_Ballot.sol\":4694:4747  proposals[random_vote()].Total_Votes += sender.weight */\n      dup3\n      dup3\n      sload\n      tag_61\n      swap2\n      swap1\n      tag_62\n      jump\t// in\n    tag_61:\n      swap3\n      pop\n      pop\n      dup2\n      swap1\n      sstore\n      pop\n        /* \"smartContract/contracts/3_Ballot.sol\":4778:4779  0 */\n      0x00\n        /* \"smartContract/contracts/3_Ballot.sol\":4761:4767  sender */\n      dup2\n        /* \"smartContract/contracts/3_Ballot.sol\":4761:4776  sender.district */\n      0x02\n      add\n      sload\n        /* \"smartContract/contracts/3_Ballot.sol\":4761:4779  sender.district==0 */\n      eq\n        /* \"smartContract/contracts/3_Ballot.sol\":4757:5690  if (sender.district==0){proposals[random_vote()].Votes_District0 += sender.weight;}... */\n      iszero\n      tag_63\n      jumpi\n        /* \"smartContract/contracts/3_Ballot.sol\":4825:4831  sender */\n      dup1\n        /* \"smartContract/contracts/3_Ballot.sol\":4825:4838  sender.weight */\n      0x00\n      add\n      sload\n        /* \"smartContract/contracts/3_Ballot.sol\":4781:4790  proposals */\n      0x02\n        /* \"smartContract/contracts/3_Ballot.sol\":4791:4804  random_vote() */\n      tag_64\n        /* \"smartContract/contracts/3_Ballot.sol\":4791:4802  random_vote */\n      tag_27\n        /* \"smartContract/contracts/3_Ballot.sol\":4791:4804  random_vote() */\n      jump\t// in\n    tag_64:\n        /* \"smartContract/contracts/3_Ballot.sol\":4781:4805  proposals[random_vote()] */\n      dup2\n      sload\n      dup2\n      lt\n      tag_65\n      jumpi\n      tag_66\n      tag_59\n      jump\t// in\n    tag_66:\n    tag_65:\n      swap1\n      0x00\n      mstore\n      keccak256(0x00, 0x20)\n      swap1\n      0x0c\n      mul\n      add\n        /* \"smartContract/contracts/3_Ballot.sol\":4781:4821  proposals[random_vote()].Votes_District0 */\n      0x02\n      add\n      0x00\n        /* \"smartContract/contracts/3_Ballot.sol\":4781:4838  proposals[random_vote()].Votes_District0 += sender.weight */\n      dup3\n      dup3\n      sload\n      tag_68\n      swap2\n      swap1\n      tag_62\n      jump\t// in\n    tag_68:\n      swap3\n      pop\n      pop\n      dup2\n      swap1\n      sstore\n      pop\n        /* \"smartContract/contracts/3_Ballot.sol\":4757:5690  if (sender.district==0){proposals[random_vote()].Votes_District0 += sender.weight;}... */\n      jump(tag_69)\n    tag_63:\n        /* \"smartContract/contracts/3_Ballot.sol\":4875:4876  1 */\n      0x01\n        /* \"smartContract/contracts/3_Ballot.sol\":4858:4864  sender */\n      dup2\n        /* \"smartContract/contracts/3_Ballot.sol\":4858:4873  sender.district */\n      0x02\n      add\n      sload\n        /* \"smartContract/contracts/3_Ballot.sol\":4858:4876  sender.district==1 */\n      eq\n        /* \"smartContract/contracts/3_Ballot.sol\":4854:5690  if (sender.district==1){proposals[random_vote()].Votes_District1 += sender.weight;}... */\n      iszero\n      tag_70\n      jumpi\n        /* \"smartContract/contracts/3_Ballot.sol\":4922:4928  sender */\n      dup1\n        /* \"smartContract/contracts/3_Ballot.sol\":4922:4935  sender.weight */\n      0x00\n      add\n      sload\n        /* \"smartContract/contracts/3_Ballot.sol\":4878:4887  proposals */\n      0x02\n        /* \"smartContract/contracts/3_Ballot.sol\":4888:4901  random_vote() */\n      tag_71\n        /* \"smartContract/contracts/3_Ballot.sol\":4888:4899  random_vote */\n      tag_27\n        /* \"smartContract/contracts/3_Ballot.sol\":4888:4901  random_vote() */\n      jump\t// in\n    tag_71:\n        /* \"smartContract/contracts/3_Ballot.sol\":4878:4902  proposals[random_vote()] */\n      dup2\n      sload\n      dup2\n      lt\n      tag_72\n      jumpi\n      tag_73\n      tag_59\n      jump\t// in\n    tag_73:\n    tag_72:\n      swap1\n      0x00\n      mstore\n      keccak256(0x00, 0x20)\n      swap1\n      0x0c\n      mul\n      add\n        /* \"smartContract/contracts/3_Ballot.sol\":4878:4918  proposals[random_vote()].Votes_District1 */\n      0x03\n      add\n      0x00\n        /* \"smartContract/contracts/3_Ballot.sol\":4878:4935  proposals[random_vote()].Votes_District1 += sender.weight */\n      dup3\n      dup3\n      sload\n      tag_75\n      swap2\n      swap1\n      tag_62\n      jump\t// in\n    tag_75:\n      swap3\n      pop\n      pop\n      dup2\n      swap1\n      sstore\n      pop\n        /* \"smartContract/contracts/3_Ballot.sol\":4854:5690  if (sender.district==1){proposals[random_vote()].Votes_District1 += sender.weight;}... */\n      jump(tag_76)\n    tag_70:\n        /* \"smartContract/contracts/3_Ballot.sol\":4972:4973  2 */\n      0x02\n        /* \"smartContract/contracts/3_Ballot.sol\":4955:4961  sender */\n      dup2\n        /* \"smartContract/contracts/3_Ballot.sol\":4955:4970  sender.district */\n      0x02\n      add\n      sload\n        /* \"smartContract/contracts/3_Ballot.sol\":4955:4973  sender.district==2 */\n      eq\n        /* \"smartContract/contracts/3_Ballot.sol\":4951:5690  if (sender.district==2){proposals[random_vote()].Votes_District2 += sender.weight;}... */\n      iszero\n      tag_77\n      jumpi\n        /* \"smartContract/contracts/3_Ballot.sol\":5019:5025  sender */\n      dup1\n        /* \"smartContract/contracts/3_Ballot.sol\":5019:5032  sender.weight */\n      0x00\n      add\n      sload\n        /* \"smartContract/contracts/3_Ballot.sol\":4975:4984  proposals */\n      0x02\n        /* \"smartContract/contracts/3_Ballot.sol\":4985:4998  random_vote() */\n      tag_78\n        /* \"smartContract/contracts/3_Ballot.sol\":4985:4996  random_vote */\n      tag_27\n        /* \"smartContract/contracts/3_Ballot.sol\":4985:4998  random_vote() */\n      jump\t// in\n    tag_78:\n        /* \"smartContract/contracts/3_Ballot.sol\":4975:4999  proposals[random_vote()] */\n      dup2\n      sload\n      dup2\n      lt\n      tag_79\n      jumpi\n      tag_80\n      tag_59\n      jump\t// in\n    tag_80:\n    tag_79:\n      swap1\n      0x00\n      mstore\n      keccak256(0x00, 0x20)\n      swap1\n      0x0c\n      mul\n      add\n        /* \"smartContract/contracts/3_Ballot.sol\":4975:5015  proposals[random_vote()].Votes_District2 */\n      0x04\n      add\n      0x00\n        /* \"smartContract/contracts/3_Ballot.sol\":4975:5032  proposals[random_vote()].Votes_District2 += sender.weight */\n      dup3\n      dup3\n      sload\n      tag_82\n      swap2\n      swap1\n      tag_62\n      jump\t// in\n    tag_82:\n      swap3\n      pop\n      pop\n      dup2\n      swap1\n      sstore\n      pop\n        /* \"smartContract/contracts/3_Ballot.sol\":4951:5690  if (sender.district==2){proposals[random_vote()].Votes_District2 += sender.weight;}... */\n      jump(tag_83)\n    tag_77:\n        /* \"smartContract/contracts/3_Ballot.sol\":5069:5070  3 */\n      0x03\n        /* \"smartContract/contracts/3_Ballot.sol\":5052:5058  sender */\n      dup2\n        /* \"smartContract/contracts/3_Ballot.sol\":5052:5067  sender.district */\n      0x02\n      add\n      sload\n        /* \"smartContract/contracts/3_Ballot.sol\":5052:5070  sender.district==3 */\n      eq\n        /* \"smartContract/contracts/3_Ballot.sol\":5048:5690  if (sender.district==3){proposals[random_vote()].Votes_District3 += sender.weight;}... */\n      iszero\n      tag_84\n      jumpi\n        /* \"smartContract/contracts/3_Ballot.sol\":5116:5122  sender */\n      dup1\n        /* \"smartContract/contracts/3_Ballot.sol\":5116:5129  sender.weight */\n      0x00\n      add\n      sload\n        /* \"smartContract/contracts/3_Ballot.sol\":5072:5081  proposals */\n      0x02\n        /* \"smartContract/contracts/3_Ballot.sol\":5082:5095  random_vote() */\n      tag_85\n        /* \"smartContract/contracts/3_Ballot.sol\":5082:5093  random_vote */\n      tag_27\n        /* \"smartContract/contracts/3_Ballot.sol\":5082:5095  random_vote() */\n      jump\t// in\n    tag_85:\n        /* \"smartContract/contracts/3_Ballot.sol\":5072:5096  proposals[random_vote()] */\n      dup2\n      sload\n      dup2\n      lt\n      tag_86\n      jumpi\n      tag_87\n      tag_59\n      jump\t// in\n    tag_87:\n    tag_86:\n      swap1\n      0x00\n      mstore\n      keccak256(0x00, 0x20)\n      swap1\n      0x0c\n      mul\n      add\n        /* \"smartContract/contracts/3_Ballot.sol\":5072:5112  proposals[random_vote()].Votes_District3 */\n      0x05\n      add\n      0x00\n        /* \"smartContract/contracts/3_Ballot.sol\":5072:5129  proposals[random_vote()].Votes_District3 += sender.weight */\n      dup3\n      dup3\n      sload\n      tag_89\n      swap2\n      swap1\n      tag_62\n      jump\t// in\n    tag_89:\n      swap3\n      pop\n      pop\n      dup2\n      swap1\n      sstore\n      pop\n        /* \"smartContract/contracts/3_Ballot.sol\":5048:5690  if (sender.district==3){proposals[random_vote()].Votes_District3 += sender.weight;}... */\n      jump(tag_90)\n    tag_84:\n        /* \"smartContract/contracts/3_Ballot.sol\":5166:5167  4 */\n      0x04\n        /* \"smartContract/contracts/3_Ballot.sol\":5149:5155  sender */\n      dup2\n        /* \"smartContract/contracts/3_Ballot.sol\":5149:5164  sender.district */\n      0x02\n      add\n      sload\n        /* \"smartContract/contracts/3_Ballot.sol\":5149:5167  sender.district==4 */\n      eq\n        /* \"smartContract/contracts/3_Ballot.sol\":5145:5690  if (sender.district==4){proposals[random_vote()].Votes_District4 += sender.weight;}... */\n      iszero\n      tag_91\n      jumpi\n        /* \"smartContract/contracts/3_Ballot.sol\":5213:5219  sender */\n      dup1\n        /* \"smartContract/contracts/3_Ballot.sol\":5213:5226  sender.weight */\n      0x00\n      add\n      sload\n        /* \"smartContract/contracts/3_Ballot.sol\":5169:5178  proposals */\n      0x02\n        /* \"smartContract/contracts/3_Ballot.sol\":5179:5192  random_vote() */\n      tag_92\n        /* \"smartContract/contracts/3_Ballot.sol\":5179:5190  random_vote */\n      tag_27\n        /* \"smartContract/contracts/3_Ballot.sol\":5179:5192  random_vote() */\n      jump\t// in\n    tag_92:\n        /* \"smartContract/contracts/3_Ballot.sol\":5169:5193  proposals[random_vote()] */\n      dup2\n      sload\n      dup2\n      lt\n      tag_93\n      jumpi\n      tag_94\n      tag_59\n      jump\t// in\n    tag_94:\n    tag_93:\n      swap1\n      0x00\n      mstore\n      keccak256(0x00, 0x20)\n      swap1\n      0x0c\n      mul\n      add\n        /* \"smartContract/contracts/3_Ballot.sol\":5169:5209  proposals[random_vote()].Votes_District4 */\n      0x06\n      add\n      0x00\n        /* \"smartContract/contracts/3_Ballot.sol\":5169:5226  proposals[random_vote()].Votes_District4 += sender.weight */\n      dup3\n      dup3\n      sload\n      tag_96\n      swap2\n      swap1\n      tag_62\n      jump\t// in\n    tag_96:\n      swap3\n      pop\n      pop\n      dup2\n      swap1\n      sstore\n      pop\n        /* \"smartContract/contracts/3_Ballot.sol\":5145:5690  if (sender.district==4){proposals[random_vote()].Votes_District4 += sender.weight;}... */\n      jump(tag_97)\n    tag_91:\n        /* \"smartContract/contracts/3_Ballot.sol\":5263:5264  5 */\n      0x05\n        /* \"smartContract/contracts/3_Ballot.sol\":5246:5252  sender */\n      dup2\n        /* \"smartContract/contracts/3_Ballot.sol\":5246:5261  sender.district */\n      0x02\n      add\n      sload\n        /* \"smartContract/contracts/3_Ballot.sol\":5246:5264  sender.district==5 */\n      eq\n        /* \"smartContract/contracts/3_Ballot.sol\":5242:5690  if (sender.district==5){proposals[random_vote()].Votes_District5 += sender.weight;}... */\n      iszero\n      tag_98\n      jumpi\n        /* \"smartContract/contracts/3_Ballot.sol\":5310:5316  sender */\n      dup1\n        /* \"smartContract/contracts/3_Ballot.sol\":5310:5323  sender.weight */\n      0x00\n      add\n      sload\n        /* \"smartContract/contracts/3_Ballot.sol\":5266:5275  proposals */\n      0x02\n        /* \"smartContract/contracts/3_Ballot.sol\":5276:5289  random_vote() */\n      tag_99\n        /* \"smartContract/contracts/3_Ballot.sol\":5276:5287  random_vote */\n      tag_27\n        /* \"smartContract/contracts/3_Ballot.sol\":5276:5289  random_vote() */\n      jump\t// in\n    tag_99:\n        /* \"smartContract/contracts/3_Ballot.sol\":5266:5290  proposals[random_vote()] */\n      dup2\n      sload\n      dup2\n      lt\n      tag_100\n      jumpi\n      tag_101\n      tag_59\n      jump\t// in\n    tag_101:\n    tag_100:\n      swap1\n      0x00\n      mstore\n      keccak256(0x00, 0x20)\n      swap1\n      0x0c\n      mul\n      add\n        /* \"smartContract/contracts/3_Ballot.sol\":5266:5306  proposals[random_vote()].Votes_District5 */\n      0x07\n      add\n      0x00\n        /* \"smartContract/contracts/3_Ballot.sol\":5266:5323  proposals[random_vote()].Votes_District5 += sender.weight */\n      dup3\n      dup3\n      sload\n      tag_103\n      swap2\n      swap1\n      tag_62\n      jump\t// in\n    tag_103:\n      swap3\n      pop\n      pop\n      dup2\n      swap1\n      sstore\n      pop\n        /* \"smartContract/contracts/3_Ballot.sol\":5242:5690  if (sender.district==5){proposals[random_vote()].Votes_District5 += sender.weight;}... */\n      jump(tag_104)\n    tag_98:\n        /* \"smartContract/contracts/3_Ballot.sol\":5360:5361  6 */\n      0x06\n        /* \"smartContract/contracts/3_Ballot.sol\":5343:5349  sender */\n      dup2\n        /* \"smartContract/contracts/3_Ballot.sol\":5343:5358  sender.district */\n      0x02\n      add\n      sload\n        /* \"smartContract/contracts/3_Ballot.sol\":5343:5361  sender.district==6 */\n      eq\n        /* \"smartContract/contracts/3_Ballot.sol\":5339:5690  if (sender.district==6){proposals[random_vote()].Votes_District6 += sender.weight;}... */\n      iszero\n      tag_105\n      jumpi\n        /* \"smartContract/contracts/3_Ballot.sol\":5407:5413  sender */\n      dup1\n        /* \"smartContract/contracts/3_Ballot.sol\":5407:5420  sender.weight */\n      0x00\n      add\n      sload\n        /* \"smartContract/contracts/3_Ballot.sol\":5363:5372  proposals */\n      0x02\n        /* \"smartContract/contracts/3_Ballot.sol\":5373:5386  random_vote() */\n      tag_106\n        /* \"smartContract/contracts/3_Ballot.sol\":5373:5384  random_vote */\n      tag_27\n        /* \"smartContract/contracts/3_Ballot.sol\":5373:5386  random_vote() */\n      jump\t// in\n    tag_106:\n        /* \"smartContract/contracts/3_Ballot.sol\":5363:5387  proposals[random_vote()] */\n      dup2\n      sload\n      dup2\n      lt\n      tag_107\n      jumpi\n      tag_108\n      tag_59\n      jump\t// in\n    tag_108:\n    tag_107:\n      swap1\n      0x00\n      mstore\n      keccak256(0x00, 0x20)\n      swap1\n      0x0c\n      mul\n      add\n        /* \"smartContract/contracts/3_Ballot.sol\":5363:5403  proposals[random_vote()].Votes_District6 */\n      0x08\n      add\n      0x00\n        /* \"smartContract/contracts/3_Ballot.sol\":5363:5420  proposals[random_vote()].Votes_District6 += sender.weight */\n      dup3\n      dup3\n      sload\n      tag_110\n      swap2\n      swap1\n      tag_62\n      jump\t// in\n    tag_110:\n      swap3\n      pop\n      pop\n      dup2\n      swap1\n      sstore\n      pop\n        /* \"smartContract/contracts/3_Ballot.sol\":5339:5690  if (sender.district==6){proposals[random_vote()].Votes_District6 += sender.weight;}... */\n      jump(tag_111)\n    tag_105:\n        /* \"smartContract/contracts/3_Ballot.sol\":5457:5458  7 */\n      0x07\n        /* \"smartContract/contracts/3_Ballot.sol\":5440:5446  sender */\n      dup2\n        /* \"smartContract/contracts/3_Ballot.sol\":5440:5455  sender.district */\n      0x02\n      add\n      sload\n        /* \"smartContract/contracts/3_Ballot.sol\":5440:5458  sender.district==7 */\n      eq\n        /* \"smartContract/contracts/3_Ballot.sol\":5436:5690  if (sender.district==7){proposals[random_vote()].Votes_District7 += sender.weight;}... */\n      iszero\n      tag_112\n      jumpi\n        /* \"smartContract/contracts/3_Ballot.sol\":5504:5510  sender */\n      dup1\n        /* \"smartContract/contracts/3_Ballot.sol\":5504:5517  sender.weight */\n      0x00\n      add\n      sload\n        /* \"smartContract/contracts/3_Ballot.sol\":5460:5469  proposals */\n      0x02\n        /* \"smartContract/contracts/3_Ballot.sol\":5470:5483  random_vote() */\n      tag_113\n        /* \"smartContract/contracts/3_Ballot.sol\":5470:5481  random_vote */\n      tag_27\n        /* \"smartContract/contracts/3_Ballot.sol\":5470:5483  random_vote() */\n      jump\t// in\n    tag_113:\n        /* \"smartContract/contracts/3_Ballot.sol\":5460:5484  proposals[random_vote()] */\n      dup2\n      sload\n      dup2\n      lt\n      tag_114\n      jumpi\n      tag_115\n      tag_59\n      jump\t// in\n    tag_115:\n    tag_114:\n      swap1\n      0x00\n      mstore\n      keccak256(0x00, 0x20)\n      swap1\n      0x0c\n      mul\n      add\n        /* \"smartContract/contracts/3_Ballot.sol\":5460:5500  proposals[random_vote()].Votes_District7 */\n      0x09\n      add\n      0x00\n        /* \"smartContract/contracts/3_Ballot.sol\":5460:5517  proposals[random_vote()].Votes_District7 += sender.weight */\n      dup3\n      dup3\n      sload\n      tag_117\n      swap2\n      swap1\n      tag_62\n      jump\t// in\n    tag_117:\n      swap3\n      pop\n      pop\n      dup2\n      swap1\n      sstore\n      pop\n        /* \"smartContract/contracts/3_Ballot.sol\":5436:5690  if (sender.district==7){proposals[random_vote()].Votes_District7 += sender.weight;}... */\n      jump(tag_118)\n    tag_112:\n        /* \"smartContract/contracts/3_Ballot.sol\":5554:5555  8 */\n      0x08\n        /* \"smartContract/contracts/3_Ballot.sol\":5537:5543  sender */\n      dup2\n        /* \"smartContract/contracts/3_Ballot.sol\":5537:5552  sender.district */\n      0x02\n      add\n      sload\n        /* \"smartContract/contracts/3_Ballot.sol\":5537:5555  sender.district==8 */\n      eq\n        /* \"smartContract/contracts/3_Ballot.sol\":5533:5690  if (sender.district==8){proposals[random_vote()].Votes_District8 += sender.weight;}... */\n      iszero\n      tag_119\n      jumpi\n        /* \"smartContract/contracts/3_Ballot.sol\":5601:5607  sender */\n      dup1\n        /* \"smartContract/contracts/3_Ballot.sol\":5601:5614  sender.weight */\n      0x00\n      add\n      sload\n        /* \"smartContract/contracts/3_Ballot.sol\":5557:5566  proposals */\n      0x02\n        /* \"smartContract/contracts/3_Ballot.sol\":5567:5580  random_vote() */\n      tag_120\n        /* \"smartContract/contracts/3_Ballot.sol\":5567:5578  random_vote */\n      tag_27\n        /* \"smartContract/contracts/3_Ballot.sol\":5567:5580  random_vote() */\n      jump\t// in\n    tag_120:\n        /* \"smartContract/contracts/3_Ballot.sol\":5557:5581  proposals[random_vote()] */\n      dup2\n      sload\n      dup2\n      lt\n      tag_121\n      jumpi\n      tag_122\n      tag_59\n      jump\t// in\n    tag_122:\n    tag_121:\n      swap1\n      0x00\n      mstore\n      keccak256(0x00, 0x20)\n      swap1\n      0x0c\n      mul\n      add\n        /* \"smartContract/contracts/3_Ballot.sol\":5557:5597  proposals[random_vote()].Votes_District8 */\n      0x0a\n      add\n      0x00\n        /* \"smartContract/contracts/3_Ballot.sol\":5557:5614  proposals[random_vote()].Votes_District8 += sender.weight */\n      dup3\n      dup3\n      sload\n      tag_124\n      swap2\n      swap1\n      tag_62\n      jump\t// in\n    tag_124:\n      swap3\n      pop\n      pop\n      dup2\n      swap1\n      sstore\n      pop\n        /* \"smartContract/contracts/3_Ballot.sol\":5533:5690  if (sender.district==8){proposals[random_vote()].Votes_District8 += sender.weight;}... */\n      jump(tag_125)\n    tag_119:\n        /* \"smartContract/contracts/3_Ballot.sol\":5675:5681  sender */\n      dup1\n        /* \"smartContract/contracts/3_Ballot.sol\":5675:5688  sender.weight */\n      0x00\n      add\n      sload\n        /* \"smartContract/contracts/3_Ballot.sol\":5631:5640  proposals */\n      0x02\n        /* \"smartContract/contracts/3_Ballot.sol\":5641:5654  random_vote() */\n      tag_126\n        /* \"smartContract/contracts/3_Ballot.sol\":5641:5652  random_vote */\n      tag_27\n        /* \"smartContract/contracts/3_Ballot.sol\":5641:5654  random_vote() */\n      jump\t// in\n    tag_126:\n        /* \"smartContract/contracts/3_Ballot.sol\":5631:5655  proposals[random_vote()] */\n      dup2\n      sload\n      dup2\n      lt\n      tag_127\n      jumpi\n      tag_128\n      tag_59\n      jump\t// in\n    tag_128:\n    tag_127:\n      swap1\n      0x00\n      mstore\n      keccak256(0x00, 0x20)\n      swap1\n      0x0c\n      mul\n      add\n        /* \"smartContract/contracts/3_Ballot.sol\":5631:5671  proposals[random_vote()].Votes_District9 */\n      0x0b\n      add\n      0x00\n        /* \"smartContract/contracts/3_Ballot.sol\":5631:5688  proposals[random_vote()].Votes_District9 += sender.weight */\n      dup3\n      dup3\n      sload\n      tag_130\n      swap2\n      swap1\n      tag_62\n      jump\t// in\n    tag_130:\n      swap3\n      pop\n      pop\n      dup2\n      swap1\n      sstore\n      pop\n        /* \"smartContract/contracts/3_Ballot.sol\":5533:5690  if (sender.district==8){proposals[random_vote()].Votes_District8 += sender.weight;}... */\n    tag_125:\n        /* \"smartContract/contracts/3_Ballot.sol\":5436:5690  if (sender.district==7){proposals[random_vote()].Votes_District7 += sender.weight;}... */\n    tag_118:\n        /* \"smartContract/contracts/3_Ballot.sol\":5339:5690  if (sender.district==6){proposals[random_vote()].Votes_District6 += sender.weight;}... */\n    tag_111:\n        /* \"smartContract/contracts/3_Ballot.sol\":5242:5690  if (sender.district==5){proposals[random_vote()].Votes_District5 += sender.weight;}... */\n    tag_104:\n        /* \"smartContract/contracts/3_Ballot.sol\":5145:5690  if (sender.district==4){proposals[random_vote()].Votes_District4 += sender.weight;}... */\n    tag_97:\n        /* \"smartContract/contracts/3_Ballot.sol\":5048:5690  if (sender.district==3){proposals[random_vote()].Votes_District3 += sender.weight;}... */\n    tag_90:\n        /* \"smartContract/contracts/3_Ballot.sol\":4951:5690  if (sender.district==2){proposals[random_vote()].Votes_District2 += sender.weight;}... */\n    tag_83:\n        /* \"smartContract/contracts/3_Ballot.sol\":4854:5690  if (sender.district==1){proposals[random_vote()].Votes_District1 += sender.weight;}... */\n    tag_76:\n        /* \"smartContract/contracts/3_Ballot.sol\":4757:5690  if (sender.district==0){proposals[random_vote()].Votes_District0 += sender.weight;}... */\n    tag_69:\n        /* \"smartContract/contracts/3_Ballot.sol\":5811:5830  incrementCounter2() */\n      tag_131\n        /* \"smartContract/contracts/3_Ballot.sol\":5811:5828  incrementCounter2 */\n      tag_132\n        /* \"smartContract/contracts/3_Ballot.sol\":5811:5830  incrementCounter2() */\n      jump\t// in\n    tag_131:\n        /* \"smartContract/contracts/3_Ballot.sol\":3710:5837  {... */\n      pop\n        /* \"smartContract/contracts/3_Ballot.sol\":3671:5837  function vote(address _address) public {... */\n      pop\n      jump\t// out\n        /* \"smartContract/contracts/3_Ballot.sol\":1298:1372  function setInfo(string memory _info) public {... */\n    tag_20:\n        /* \"smartContract/contracts/3_Ballot.sol\":1360:1365  _info */\n      dup1\n        /* \"smartContract/contracts/3_Ballot.sol\":1353:1357  info */\n      0x03\n        /* \"smartContract/contracts/3_Ballot.sol\":1353:1365  info = _info */\n      swap1\n      dup1\n      mload\n      swap1\n      0x20\n      add\n      swap1\n      tag_134\n      swap3\n      swap2\n      swap1\n      tag_135\n      jump\t// in\n    tag_134:\n      pop\n        /* \"smartContract/contracts/3_Ballot.sol\":1298:1372  function setInfo(string memory _info) public {... */\n      pop\n      jump\t// out\n        /* \"smartContract/contracts/3_Ballot.sol\":896:935  mapping(address => Voter) public voters */\n    tag_23:\n      mstore(0x20, 0x01)\n      dup1\n      0x00\n      mstore\n      keccak256(0x00, 0x40)\n      0x00\n      swap2\n      pop\n      swap1\n      pop\n      dup1\n      0x00\n      add\n      sload\n      swap1\n      dup1\n      0x01\n      add\n      0x00\n      swap1\n      sload\n      swap1\n      0x0100\n      exp\n      swap1\n      div\n      0xff\n      and\n      swap1\n      dup1\n      0x02\n      add\n      sload\n      swap1\n      dup1\n      0x03\n      add\n      sload\n      swap1\n      pop\n      dup5\n      jump\t// out\n        /* \"smartContract/contracts/3_Ballot.sol\":3488:3665  function random_vote() public view returns(uint){... */\n    tag_27:\n        /* \"smartContract/contracts/3_Ballot.sol\":3531:3535  uint */\n      0x00\n        /* \"smartContract/contracts/3_Ballot.sol\":3653:3654  5 */\n      0x05\n        /* \"smartContract/contracts/3_Ballot.sol\":3589:3604  block.timestamp */\n      timestamp\n        /* \"smartContract/contracts/3_Ballot.sol\":3605:3621  block.difficulty */\n      difficulty\n        /* \"smartContract/contracts/3_Ballot.sol\":3637:3647  msg.sender */\n      caller\n        /* \"smartContract/contracts/3_Ballot.sol\":3572:3648  abi.encodePacked(block.timestamp,block.difficulty,  ... */\n      add(0x20, mload(0x40))\n      tag_137\n      swap4\n      swap3\n      swap2\n      swap1\n      tag_138\n      jump\t// in\n    tag_137:\n      mload(0x40)\n      0x20\n      dup2\n      dup4\n      sub\n      sub\n      dup2\n      mstore\n      swap1\n      0x40\n      mstore\n        /* \"smartContract/contracts/3_Ballot.sol\":3562:3649  keccak256(abi.encodePacked(block.timestamp,block.difficulty,  ... */\n      dup1\n      mload\n      swap1\n      0x20\n      add\n      keccak256\n        /* \"smartContract/contracts/3_Ballot.sol\":3557:3650  uint(keccak256(abi.encodePacked(block.timestamp,block.difficulty,  ... */\n      0x00\n      shr\n        /* \"smartContract/contracts/3_Ballot.sol\":3557:3654  uint(keccak256(abi.encodePacked(block.timestamp,block.difficulty,  ... */\n      tag_139\n      swap2\n      swap1\n      tag_140\n      jump\t// in\n    tag_139:\n        /* \"smartContract/contracts/3_Ballot.sol\":3550:3654  return uint(keccak256(abi.encodePacked(block.timestamp,block.difficulty,  ... */\n      swap1\n      pop\n        /* \"smartContract/contracts/3_Ballot.sol\":3488:3665  function random_vote() public view returns(uint){... */\n      swap1\n      jump\t// out\n        /* \"smartContract/contracts/3_Ballot.sol\":5843:5940  function res(uint _id) public view returns(Proposal memory){... */\n    tag_33:\n        /* \"smartContract/contracts/3_Ballot.sol\":5886:5901  Proposal memory */\n      tag_141\n      tag_142\n      jump\t// in\n    tag_141:\n        /* \"smartContract/contracts/3_Ballot.sol\":5919:5928  proposals */\n      0x02\n        /* \"smartContract/contracts/3_Ballot.sol\":5929:5932  _id */\n      dup3\n        /* \"smartContract/contracts/3_Ballot.sol\":5919:5933  proposals[_id] */\n      dup2\n      sload\n      dup2\n      lt\n      tag_144\n      jumpi\n      tag_145\n      tag_59\n      jump\t// in\n    tag_145:\n    tag_144:\n      swap1\n      0x00\n      mstore\n      keccak256(0x00, 0x20)\n      swap1\n      0x0c\n      mul\n      add\n        /* \"smartContract/contracts/3_Ballot.sol\":5912:5933  return proposals[_id] */\n      mload(0x40)\n      dup1\n      0x0180\n      add\n      0x40\n      mstore\n      swap1\n      dup2\n      0x00\n      dup3\n      add\n      dup1\n      sload\n      tag_147\n      swap1\n      tag_38\n      jump\t// in\n    tag_147:\n      dup1\n      0x1f\n      add\n      0x20\n      dup1\n      swap2\n      div\n      mul\n      0x20\n      add\n      mload(0x40)\n      swap1\n      dup2\n      add\n      0x40\n      mstore\n      dup1\n      swap3\n      swap2\n      swap1\n      dup2\n      dup2\n      mstore\n      0x20\n      add\n      dup3\n      dup1\n      sload\n      tag_148\n      swap1\n      tag_38\n      jump\t// in\n    tag_148:\n      dup1\n      iszero\n      tag_149\n      jumpi\n      dup1\n      0x1f\n      lt\n      tag_150\n      jumpi\n      0x0100\n      dup1\n      dup4\n      sload\n      div\n      mul\n      dup4\n      mstore\n      swap2\n      0x20\n      add\n      swap2\n      jump(tag_149)\n    tag_150:\n      dup3\n      add\n      swap2\n      swap1\n      0x00\n      mstore\n      keccak256(0x00, 0x20)\n      swap1\n    tag_151:\n      dup2\n      sload\n      dup2\n      mstore\n      swap1\n      0x01\n      add\n      swap1\n      0x20\n      add\n      dup1\n      dup4\n      gt\n      tag_151\n      jumpi\n      dup3\n      swap1\n      sub\n      0x1f\n      and\n      dup3\n      add\n      swap2\n    tag_149:\n      pop\n      pop\n      pop\n      pop\n      pop\n      dup2\n      mstore\n      0x20\n      add\n      0x01\n      dup3\n      add\n      sload\n      dup2\n      mstore\n      0x20\n      add\n      0x02\n      dup3\n      add\n      sload\n      dup2\n      mstore\n      0x20\n      add\n      0x03\n      dup3\n      add\n      sload\n      dup2\n      mstore\n      0x20\n      add\n      0x04\n      dup3\n      add\n      sload\n      dup2\n      mstore\n      0x20\n      add\n      0x05\n      dup3\n      add\n      sload\n      dup2\n      mstore\n      0x20\n      add\n      0x06\n      dup3\n      add\n      sload\n      dup2\n      mstore\n      0x20\n      add\n      0x07\n      dup3\n      add\n      sload\n      dup2\n      mstore\n      0x20\n      add\n      0x08\n      dup3\n      add\n      sload\n      dup2\n      mstore\n      0x20\n      add\n      0x09\n      dup3\n      add\n      sload\n      dup2\n      mstore\n      0x20\n      add\n      0x0a\n      dup3\n      add\n      sload\n      dup2\n      mstore\n      0x20\n      add\n      0x0b\n      dup3\n      add\n      sload\n      dup2\n      mstore\n      pop\n      pop\n      swap1\n      pop\n        /* \"smartContract/contracts/3_Ballot.sol\":5843:5940  function res(uint _id) public view returns(Proposal memory){... */\n      swap2\n      swap1\n      pop\n      jump\t// out\n        /* \"smartContract/contracts/3_Ballot.sol\":2787:2850  function incrementCounter() private {... */\n    tag_49:\n        /* \"smartContract/contracts/3_Ballot.sol\":2842:2843  1 */\n      0x01\n        /* \"smartContract/contracts/3_Ballot.sol\":2833:2838  count */\n      0x04\n      0x00\n        /* \"smartContract/contracts/3_Ballot.sol\":2833:2843  count += 1 */\n      dup3\n      dup3\n      sload\n      tag_153\n      swap2\n      swap1\n      tag_154\n      jump\t// in\n    tag_153:\n      swap3\n      pop\n      pop\n      dup2\n      swap1\n      sstore\n      pop\n        /* \"smartContract/contracts/3_Ballot.sol\":2787:2850  function incrementCounter() private {... */\n      jump\t// out\n        /* \"smartContract/contracts/3_Ballot.sol\":1096:1267  function random_district() private view returns(uint){... */\n    tag_51:\n        /* \"smartContract/contracts/3_Ballot.sol\":1144:1148  uint */\n      0x00\n        /* \"smartContract/contracts/3_Ballot.sol\":1258:1260  10 */\n      0x0a\n        /* \"smartContract/contracts/3_Ballot.sol\":1198:1213  block.timestamp */\n      timestamp\n        /* \"smartContract/contracts/3_Ballot.sol\":1214:1230  block.difficulty */\n      difficulty\n        /* \"smartContract/contracts/3_Ballot.sol\":1242:1252  msg.sender */\n      caller\n        /* \"smartContract/contracts/3_Ballot.sol\":1181:1253  abi.encodePacked(block.timestamp,block.difficulty,  ... */\n      add(0x20, mload(0x40))\n      tag_156\n      swap4\n      swap3\n      swap2\n      swap1\n      tag_138\n      jump\t// in\n    tag_156:\n      mload(0x40)\n      0x20\n      dup2\n      dup4\n      sub\n      sub\n      dup2\n      mstore\n      swap1\n      0x40\n      mstore\n        /* \"smartContract/contracts/3_Ballot.sol\":1171:1254  keccak256(abi.encodePacked(block.timestamp,block.difficulty,  ... */\n      dup1\n      mload\n      swap1\n      0x20\n      add\n      keccak256\n        /* \"smartContract/contracts/3_Ballot.sol\":1166:1255  uint(keccak256(abi.encodePacked(block.timestamp,block.difficulty,  ... */\n      0x00\n      shr\n        /* \"smartContract/contracts/3_Ballot.sol\":1166:1260  uint(keccak256(abi.encodePacked(block.timestamp,block.difficulty,  ... */\n      tag_157\n      swap2\n      swap1\n      tag_140\n      jump\t// in\n    tag_157:\n        /* \"smartContract/contracts/3_Ballot.sol\":1159:1260  return uint(keccak256(abi.encodePacked(block.timestamp,block.difficulty,  ... */\n      swap1\n      pop\n        /* \"smartContract/contracts/3_Ballot.sol\":1096:1267  function random_district() private view returns(uint){... */\n      swap1\n      jump\t// out\n        /* \"smartContract/contracts/3_Ballot.sol\":3417:3482  function incrementCounter2() private {... */\n    tag_132:\n        /* \"smartContract/contracts/3_Ballot.sol\":3474:3475  1 */\n      0x01\n        /* \"smartContract/contracts/3_Ballot.sol\":3464:3470  count2 */\n      0x05\n      0x00\n        /* \"smartContract/contracts/3_Ballot.sol\":3464:3475  count2 += 1 */\n      dup3\n      dup3\n      sload\n      tag_159\n      swap2\n      swap1\n      tag_154\n      jump\t// in\n    tag_159:\n      swap3\n      pop\n      pop\n      dup2\n      swap1\n      sstore\n      pop\n        /* \"smartContract/contracts/3_Ballot.sol\":3417:3482  function incrementCounter2() private {... */\n      jump\t// out\n    tag_135:\n      dup3\n      dup1\n      sload\n      tag_160\n      swap1\n      tag_38\n      jump\t// in\n    tag_160:\n      swap1\n      0x00\n      mstore\n      keccak256(0x00, 0x20)\n      swap1\n      0x1f\n      add\n      0x20\n      swap1\n      div\n      dup2\n      add\n      swap3\n      dup3\n      tag_162\n      jumpi\n      0x00\n      dup6\n      sstore\n      jump(tag_161)\n    tag_162:\n      dup3\n      0x1f\n      lt\n      tag_163\n      jumpi\n      dup1\n      mload\n      not(0xff)\n      and\n      dup4\n      dup1\n      add\n      or\n      dup6\n      sstore\n      jump(tag_161)\n    tag_163:\n      dup3\n      dup1\n      add\n      0x01\n      add\n      dup6\n      sstore\n      dup3\n      iszero\n      tag_161\n      jumpi\n      swap2\n      dup3\n      add\n    tag_164:\n      dup3\n      dup2\n      gt\n      iszero\n      tag_165\n      jumpi\n      dup3\n      mload\n      dup3\n      sstore\n      swap2\n      0x20\n      add\n      swap2\n      swap1\n      0x01\n      add\n      swap1\n      jump(tag_164)\n    tag_165:\n    tag_161:\n      pop\n      swap1\n      pop\n      tag_166\n      swap2\n      swap1\n      tag_167\n      jump\t// in\n    tag_166:\n      pop\n      swap1\n      jump\t// out\n    tag_142:\n      mload(0x40)\n      dup1\n      0x0180\n      add\n      0x40\n      mstore\n      dup1\n      0x60\n      dup2\n      mstore\n      0x20\n      add\n      0x00\n      dup2\n      mstore\n      0x20\n      add\n      0x00\n      dup2\n      mstore\n      0x20\n      add\n      0x00\n      dup2\n      mstore\n      0x20\n      add\n      0x00\n      dup2\n      mstore\n      0x20\n      add\n      0x00\n      dup2\n      mstore\n      0x20\n      add\n      0x00\n      dup2\n      mstore\n      0x20\n      add\n      0x00\n      dup2\n      mstore\n      0x20\n      add\n      0x00\n      dup2\n      mstore\n      0x20\n      add\n      0x00\n      dup2\n      mstore\n      0x20\n      add\n      0x00\n      dup2\n      mstore\n      0x20\n      add\n      0x00\n      dup2\n      mstore\n      pop\n      swap1\n      jump\t// out\n    tag_167:\n    tag_168:\n      dup1\n      dup3\n      gt\n      iszero\n      tag_169\n      jumpi\n      0x00\n      dup2\n      0x00\n      swap1\n      sstore\n      pop\n      0x01\n      add\n      jump(tag_168)\n    tag_169:\n      pop\n      swap1\n      jump\t// out\n        /* \"#utility.yul\":7:419   */\n    tag_171:\n        /* \"#utility.yul\":85:90   */\n      0x00\n        /* \"#utility.yul\":110:176   */\n      tag_173\n        /* \"#utility.yul\":126:175   */\n      tag_174\n        /* \"#utility.yul\":168:174   */\n      dup5\n        /* \"#utility.yul\":126:175   */\n      tag_175\n      jump\t// in\n    tag_174:\n        /* \"#utility.yul\":110:176   */\n      tag_176\n      jump\t// in\n    tag_173:\n        /* \"#utility.yul\":101:176   */\n      swap1\n      pop\n        /* \"#utility.yul\":199:205   */\n      dup3\n        /* \"#utility.yul\":192:197   */\n      dup2\n        /* \"#utility.yul\":185:206   */\n      mstore\n        /* \"#utility.yul\":237:241   */\n      0x20\n        /* \"#utility.yul\":230:235   */\n      dup2\n        /* \"#utility.yul\":226:242   */\n      add\n        /* \"#utility.yul\":275:278   */\n      dup5\n        /* \"#utility.yul\":266:272   */\n      dup5\n        /* \"#utility.yul\":261:264   */\n      dup5\n        /* \"#utility.yul\":257:273   */\n      add\n        /* \"#utility.yul\":254:279   */\n      gt\n        /* \"#utility.yul\":251:363   */\n      iszero\n      tag_177\n      jumpi\n        /* \"#utility.yul\":282:361   */\n      tag_178\n      tag_179\n      jump\t// in\n    tag_178:\n        /* \"#utility.yul\":251:363   */\n    tag_177:\n        /* \"#utility.yul\":372:413   */\n      tag_180\n        /* \"#utility.yul\":406:412   */\n      dup5\n        /* \"#utility.yul\":401:404   */\n      dup3\n        /* \"#utility.yul\":396:399   */\n      dup6\n        /* \"#utility.yul\":372:413   */\n      tag_181\n      jump\t// in\n    tag_180:\n        /* \"#utility.yul\":91:419   */\n      pop\n        /* \"#utility.yul\":7:419   */\n      swap4\n      swap3\n      pop\n      pop\n      pop\n      jump\t// out\n        /* \"#utility.yul\":425:564   */\n    tag_182:\n        /* \"#utility.yul\":471:476   */\n      0x00\n        /* \"#utility.yul\":509:515   */\n      dup2\n        /* \"#utility.yul\":496:516   */\n      calldataload\n        /* \"#utility.yul\":487:516   */\n      swap1\n      pop\n        /* \"#utility.yul\":525:558   */\n      tag_184\n        /* \"#utility.yul\":552:557   */\n      dup2\n        /* \"#utility.yul\":525:558   */\n      tag_185\n      jump\t// in\n    tag_184:\n        /* \"#utility.yul\":425:564   */\n      swap3\n      swap2\n      pop\n      pop\n      jump\t// out\n        /* \"#utility.yul\":584:924   */\n    tag_186:\n        /* \"#utility.yul\":640:645   */\n      0x00\n        /* \"#utility.yul\":689:692   */\n      dup3\n        /* \"#utility.yul\":682:686   */\n      0x1f\n        /* \"#utility.yul\":674:680   */\n      dup4\n        /* \"#utility.yul\":670:687   */\n      add\n        /* \"#utility.yul\":666:693   */\n      slt\n        /* \"#utility.yul\":656:778   */\n      tag_188\n      jumpi\n        /* \"#utility.yul\":697:776   */\n      tag_189\n      tag_190\n      jump\t// in\n    tag_189:\n        /* \"#utility.yul\":656:778   */\n    tag_188:\n        /* \"#utility.yul\":814:820   */\n      dup2\n        /* \"#utility.yul\":801:821   */\n      calldataload\n        /* \"#utility.yul\":839:918   */\n      tag_191\n        /* \"#utility.yul\":914:917   */\n      dup5\n        /* \"#utility.yul\":906:912   */\n      dup3\n        /* \"#utility.yul\":899:903   */\n      0x20\n        /* \"#utility.yul\":891:897   */\n      dup7\n        /* \"#utility.yul\":887:904   */\n      add\n        /* \"#utility.yul\":839:918   */\n      tag_171\n      jump\t// in\n    tag_191:\n        /* \"#utility.yul\":830:918   */\n      swap2\n      pop\n        /* \"#utility.yul\":646:924   */\n      pop\n        /* \"#utility.yul\":584:924   */\n      swap3\n      swap2\n      pop\n      pop\n      jump\t// out\n        /* \"#utility.yul\":930:1069   */\n    tag_192:\n        /* \"#utility.yul\":976:981   */\n      0x00\n        /* \"#utility.yul\":1014:1020   */\n      dup2\n        /* \"#utility.yul\":1001:1021   */\n      calldataload\n        /* \"#utility.yul\":992:1021   */\n      swap1\n      pop\n        /* \"#utility.yul\":1030:1063   */\n      tag_194\n        /* \"#utility.yul\":1057:1062   */\n      dup2\n        /* \"#utility.yul\":1030:1063   */\n      tag_195\n      jump\t// in\n    tag_194:\n        /* \"#utility.yul\":930:1069   */\n      swap3\n      swap2\n      pop\n      pop\n      jump\t// out\n        /* \"#utility.yul\":1075:1404   */\n    tag_15:\n        /* \"#utility.yul\":1134:1140   */\n      0x00\n        /* \"#utility.yul\":1183:1185   */\n      0x20\n        /* \"#utility.yul\":1171:1180   */\n      dup3\n        /* \"#utility.yul\":1162:1169   */\n      dup5\n        /* \"#utility.yul\":1158:1181   */\n      sub\n        /* \"#utility.yul\":1154:1186   */\n      slt\n        /* \"#utility.yul\":1151:1270   */\n      iszero\n      tag_197\n      jumpi\n        /* \"#utility.yul\":1189:1268   */\n      tag_198\n      tag_199\n      jump\t// in\n    tag_198:\n        /* \"#utility.yul\":1151:1270   */\n    tag_197:\n        /* \"#utility.yul\":1309:1310   */\n      0x00\n        /* \"#utility.yul\":1334:1387   */\n      tag_200\n        /* \"#utility.yul\":1379:1386   */\n      dup5\n        /* \"#utility.yul\":1370:1376   */\n      dup3\n        /* \"#utility.yul\":1359:1368   */\n      dup6\n        /* \"#utility.yul\":1355:1377   */\n      add\n        /* \"#utility.yul\":1334:1387   */\n      tag_182\n      jump\t// in\n    tag_200:\n        /* \"#utility.yul\":1324:1387   */\n      swap2\n      pop\n        /* \"#utility.yul\":1280:1397   */\n      pop\n        /* \"#utility.yul\":1075:1404   */\n      swap3\n      swap2\n      pop\n      pop\n      jump\t// out\n        /* \"#utility.yul\":1410:1919   */\n    tag_19:\n        /* \"#utility.yul\":1479:1485   */\n      0x00\n        /* \"#utility.yul\":1528:1530   */\n      0x20\n        /* \"#utility.yul\":1516:1525   */\n      dup3\n        /* \"#utility.yul\":1507:1514   */\n      dup5\n        /* \"#utility.yul\":1503:1526   */\n      sub\n        /* \"#utility.yul\":1499:1531   */\n      slt\n        /* \"#utility.yul\":1496:1615   */\n      iszero\n      tag_202\n      jumpi\n        /* \"#utility.yul\":1534:1613   */\n      tag_203\n      tag_199\n      jump\t// in\n    tag_203:\n        /* \"#utility.yul\":1496:1615   */\n    tag_202:\n        /* \"#utility.yul\":1682:1683   */\n      0x00\n        /* \"#utility.yul\":1671:1680   */\n      dup3\n        /* \"#utility.yul\":1667:1684   */\n      add\n        /* \"#utility.yul\":1654:1685   */\n      calldataload\n        /* \"#utility.yul\":1712:1730   */\n      0xffffffffffffffff\n        /* \"#utility.yul\":1704:1710   */\n      dup2\n        /* \"#utility.yul\":1701:1731   */\n      gt\n        /* \"#utility.yul\":1698:1815   */\n      iszero\n      tag_204\n      jumpi\n        /* \"#utility.yul\":1734:1813   */\n      tag_205\n      tag_206\n      jump\t// in\n    tag_205:\n        /* \"#utility.yul\":1698:1815   */\n    tag_204:\n        /* \"#utility.yul\":1839:1902   */\n      tag_207\n        /* \"#utility.yul\":1894:1901   */\n      dup5\n        /* \"#utility.yul\":1885:1891   */\n      dup3\n        /* \"#utility.yul\":1874:1883   */\n      dup6\n        /* \"#utility.yul\":1870:1892   */\n      add\n        /* \"#utility.yul\":1839:1902   */\n      tag_186\n      jump\t// in\n    tag_207:\n        /* \"#utility.yul\":1829:1902   */\n      swap2\n      pop\n        /* \"#utility.yul\":1625:1912   */\n      pop\n        /* \"#utility.yul\":1410:1919   */\n      swap3\n      swap2\n      pop\n      pop\n      jump\t// out\n        /* \"#utility.yul\":1925:2254   */\n    tag_32:\n        /* \"#utility.yul\":1984:1990   */\n      0x00\n        /* \"#utility.yul\":2033:2035   */\n      0x20\n        /* \"#utility.yul\":2021:2030   */\n      dup3\n        /* \"#utility.yul\":2012:2019   */\n      dup5\n        /* \"#utility.yul\":2008:2031   */\n      sub\n        /* \"#utility.yul\":2004:2036   */\n      slt\n        /* \"#utility.yul\":2001:2120   */\n      iszero\n      tag_209\n      jumpi\n        /* \"#utility.yul\":2039:2118   */\n      tag_210\n      tag_199\n      jump\t// in\n    tag_210:\n        /* \"#utility.yul\":2001:2120   */\n    tag_209:\n        /* \"#utility.yul\":2159:2160   */\n      0x00\n        /* \"#utility.yul\":2184:2237   */\n      tag_211\n        /* \"#utility.yul\":2229:2236   */\n      dup5\n        /* \"#utility.yul\":2220:2226   */\n      dup3\n        /* \"#utility.yul\":2209:2218   */\n      dup6\n        /* \"#utility.yul\":2205:2227   */\n      add\n        /* \"#utility.yul\":2184:2237   */\n      tag_192\n      jump\t// in\n    tag_211:\n        /* \"#utility.yul\":2174:2237   */\n      swap2\n      pop\n        /* \"#utility.yul\":2130:2247   */\n      pop\n        /* \"#utility.yul\":1925:2254   */\n      swap3\n      swap2\n      pop\n      pop\n      jump\t// out\n        /* \"#utility.yul\":2260:2417   */\n    tag_212:\n        /* \"#utility.yul\":2365:2410   */\n      tag_214\n        /* \"#utility.yul\":2385:2409   */\n      tag_215\n        /* \"#utility.yul\":2403:2408   */\n      dup3\n        /* \"#utility.yul\":2385:2409   */\n      tag_216\n      jump\t// in\n    tag_215:\n        /* \"#utility.yul\":2365:2410   */\n      tag_217\n      jump\t// in\n    tag_214:\n        /* \"#utility.yul\":2360:2363   */\n      dup3\n        /* \"#utility.yul\":2353:2411   */\n      mstore\n        /* \"#utility.yul\":2260:2417   */\n      pop\n      pop\n      jump\t// out\n        /* \"#utility.yul\":2423:2532   */\n    tag_218:\n        /* \"#utility.yul\":2504:2525   */\n      tag_220\n        /* \"#utility.yul\":2519:2524   */\n      dup2\n        /* \"#utility.yul\":2504:2525   */\n      tag_221\n      jump\t// in\n    tag_220:\n        /* \"#utility.yul\":2499:2502   */\n      dup3\n        /* \"#utility.yul\":2492:2526   */\n      mstore\n        /* \"#utility.yul\":2423:2532   */\n      pop\n      pop\n      jump\t// out\n        /* \"#utility.yul\":2538:2882   */\n    tag_222:\n        /* \"#utility.yul\":2616:2619   */\n      0x00\n        /* \"#utility.yul\":2644:2683   */\n      tag_224\n        /* \"#utility.yul\":2677:2682   */\n      dup3\n        /* \"#utility.yul\":2644:2683   */\n      tag_225\n      jump\t// in\n    tag_224:\n        /* \"#utility.yul\":2699:2760   */\n      tag_226\n        /* \"#utility.yul\":2753:2759   */\n      dup2\n        /* \"#utility.yul\":2748:2751   */\n      dup6\n        /* \"#utility.yul\":2699:2760   */\n      tag_227\n      jump\t// in\n    tag_226:\n        /* \"#utility.yul\":2692:2760   */\n      swap4\n      pop\n        /* \"#utility.yul\":2769:2821   */\n      tag_228\n        /* \"#utility.yul\":2814:2820   */\n      dup2\n        /* \"#utility.yul\":2809:2812   */\n      dup6\n        /* \"#utility.yul\":2802:2806   */\n      0x20\n        /* \"#utility.yul\":2795:2800   */\n      dup7\n        /* \"#utility.yul\":2791:2807   */\n      add\n        /* \"#utility.yul\":2769:2821   */\n      tag_229\n      jump\t// in\n    tag_228:\n        /* \"#utility.yul\":2846:2875   */\n      tag_230\n        /* \"#utility.yul\":2868:2874   */\n      dup2\n        /* \"#utility.yul\":2846:2875   */\n      tag_231\n      jump\t// in\n    tag_230:\n        /* \"#utility.yul\":2841:2844   */\n      dup5\n        /* \"#utility.yul\":2837:2876   */\n      add\n        /* \"#utility.yul\":2830:2876   */\n      swap2\n      pop\n        /* \"#utility.yul\":2620:2882   */\n      pop\n        /* \"#utility.yul\":2538:2882   */\n      swap3\n      swap2\n      pop\n      pop\n      jump\t// out\n        /* \"#utility.yul\":2888:3252   */\n    tag_232:\n        /* \"#utility.yul\":2976:2979   */\n      0x00\n        /* \"#utility.yul\":3004:3043   */\n      tag_234\n        /* \"#utility.yul\":3037:3042   */\n      dup3\n        /* \"#utility.yul\":3004:3043   */\n      tag_225\n      jump\t// in\n    tag_234:\n        /* \"#utility.yul\":3059:3130   */\n      tag_235\n        /* \"#utility.yul\":3123:3129   */\n      dup2\n        /* \"#utility.yul\":3118:3121   */\n      dup6\n        /* \"#utility.yul\":3059:3130   */\n      tag_236\n      jump\t// in\n    tag_235:\n        /* \"#utility.yul\":3052:3130   */\n      swap4\n      pop\n        /* \"#utility.yul\":3139:3191   */\n      tag_237\n        /* \"#utility.yul\":3184:3190   */\n      dup2\n        /* \"#utility.yul\":3179:3182   */\n      dup6\n        /* \"#utility.yul\":3172:3176   */\n      0x20\n        /* \"#utility.yul\":3165:3170   */\n      dup7\n        /* \"#utility.yul\":3161:3177   */\n      add\n        /* \"#utility.yul\":3139:3191   */\n      tag_229\n      jump\t// in\n    tag_237:\n        /* \"#utility.yul\":3216:3245   */\n      tag_238\n        /* \"#utility.yul\":3238:3244   */\n      dup2\n        /* \"#utility.yul\":3216:3245   */\n      tag_231\n      jump\t// in\n    tag_238:\n        /* \"#utility.yul\":3211:3214   */\n      dup5\n        /* \"#utility.yul\":3207:3246   */\n      add\n        /* \"#utility.yul\":3200:3246   */\n      swap2\n      pop\n        /* \"#utility.yul\":2980:3252   */\n      pop\n        /* \"#utility.yul\":2888:3252   */\n      swap3\n      swap2\n      pop\n      pop\n      jump\t// out\n        /* \"#utility.yul\":3258:3624   */\n    tag_239:\n        /* \"#utility.yul\":3400:3403   */\n      0x00\n        /* \"#utility.yul\":3421:3488   */\n      tag_241\n        /* \"#utility.yul\":3485:3487   */\n      0x0e\n        /* \"#utility.yul\":3480:3483   */\n      dup4\n        /* \"#utility.yul\":3421:3488   */\n      tag_236\n      jump\t// in\n    tag_241:\n        /* \"#utility.yul\":3414:3488   */\n      swap2\n      pop\n        /* \"#utility.yul\":3497:3590   */\n      tag_242\n        /* \"#utility.yul\":3586:3589   */\n      dup3\n        /* \"#utility.yul\":3497:3590   */\n      tag_243\n      jump\t// in\n    tag_242:\n        /* \"#utility.yul\":3615:3617   */\n      0x20\n        /* \"#utility.yul\":3610:3613   */\n      dup3\n        /* \"#utility.yul\":3606:3618   */\n      add\n        /* \"#utility.yul\":3599:3618   */\n      swap1\n      pop\n        /* \"#utility.yul\":3258:3624   */\n      swap2\n      swap1\n      pop\n      jump\t// out\n        /* \"#utility.yul\":3630:3996   */\n    tag_244:\n        /* \"#utility.yul\":3772:3775   */\n      0x00\n        /* \"#utility.yul\":3793:3860   */\n      tag_246\n        /* \"#utility.yul\":3857:3859   */\n      0x18\n        /* \"#utility.yul\":3852:3855   */\n      dup4\n        /* \"#utility.yul\":3793:3860   */\n      tag_236\n      jump\t// in\n    tag_246:\n        /* \"#utility.yul\":3786:3860   */\n      swap2\n      pop\n        /* \"#utility.yul\":3869:3962   */\n      tag_247\n        /* \"#utility.yul\":3958:3961   */\n      dup3\n        /* \"#utility.yul\":3869:3962   */\n      tag_248\n      jump\t// in\n    tag_247:\n        /* \"#utility.yul\":3987:3989   */\n      0x20\n        /* \"#utility.yul\":3982:3985   */\n      dup3\n        /* \"#utility.yul\":3978:3990   */\n      add\n        /* \"#utility.yul\":3971:3990   */\n      swap1\n      pop\n        /* \"#utility.yul\":3630:3996   */\n      swap2\n      swap1\n      pop\n      jump\t// out\n        /* \"#utility.yul\":4058:6537   */\n    tag_249:\n        /* \"#utility.yul\":4175:4178   */\n      0x00\n        /* \"#utility.yul\":4211:4217   */\n      0x0180\n        /* \"#utility.yul\":4206:4209   */\n      dup4\n        /* \"#utility.yul\":4202:4218   */\n      add\n        /* \"#utility.yul\":4300:4304   */\n      0x00\n        /* \"#utility.yul\":4293:4298   */\n      dup4\n        /* \"#utility.yul\":4289:4305   */\n      add\n        /* \"#utility.yul\":4283:4306   */\n      mload\n        /* \"#utility.yul\":4353:4356   */\n      dup5\n        /* \"#utility.yul\":4347:4351   */\n      dup3\n        /* \"#utility.yul\":4343:4357   */\n      sub\n        /* \"#utility.yul\":4336:4340   */\n      0x00\n        /* \"#utility.yul\":4331:4334   */\n      dup7\n        /* \"#utility.yul\":4327:4341   */\n      add\n        /* \"#utility.yul\":4320:4358   */\n      mstore\n        /* \"#utility.yul\":4379:4452   */\n      tag_251\n        /* \"#utility.yul\":4447:4451   */\n      dup3\n        /* \"#utility.yul\":4433:4445   */\n      dup3\n        /* \"#utility.yul\":4379:4452   */\n      tag_222\n      jump\t// in\n    tag_251:\n        /* \"#utility.yul\":4371:4452   */\n      swap2\n      pop\n        /* \"#utility.yul\":4228:4463   */\n      pop\n        /* \"#utility.yul\":4552:4556   */\n      0x20\n        /* \"#utility.yul\":4545:4550   */\n      dup4\n        /* \"#utility.yul\":4541:4557   */\n      add\n        /* \"#utility.yul\":4535:4558   */\n      mload\n        /* \"#utility.yul\":4571:4634   */\n      tag_252\n        /* \"#utility.yul\":4628:4632   */\n      0x20\n        /* \"#utility.yul\":4623:4626   */\n      dup7\n        /* \"#utility.yul\":4619:4633   */\n      add\n        /* \"#utility.yul\":4605:4617   */\n      dup3\n        /* \"#utility.yul\":4571:4634   */\n      tag_253\n      jump\t// in\n    tag_252:\n        /* \"#utility.yul\":4473:4644   */\n      pop\n        /* \"#utility.yul\":4737:4741   */\n      0x40\n        /* \"#utility.yul\":4730:4735   */\n      dup4\n        /* \"#utility.yul\":4726:4742   */\n      add\n        /* \"#utility.yul\":4720:4743   */\n      mload\n        /* \"#utility.yul\":4756:4819   */\n      tag_254\n        /* \"#utility.yul\":4813:4817   */\n      0x40\n        /* \"#utility.yul\":4808:4811   */\n      dup7\n        /* \"#utility.yul\":4804:4818   */\n      add\n        /* \"#utility.yul\":4790:4802   */\n      dup3\n        /* \"#utility.yul\":4756:4819   */\n      tag_253\n      jump\t// in\n    tag_254:\n        /* \"#utility.yul\":4654:4829   */\n      pop\n        /* \"#utility.yul\":4922:4926   */\n      0x60\n        /* \"#utility.yul\":4915:4920   */\n      dup4\n        /* \"#utility.yul\":4911:4927   */\n      add\n        /* \"#utility.yul\":4905:4928   */\n      mload\n        /* \"#utility.yul\":4941:5004   */\n      tag_255\n        /* \"#utility.yul\":4998:5002   */\n      0x60\n        /* \"#utility.yul\":4993:4996   */\n      dup7\n        /* \"#utility.yul\":4989:5003   */\n      add\n        /* \"#utility.yul\":4975:4987   */\n      dup3\n        /* \"#utility.yul\":4941:5004   */\n      tag_253\n      jump\t// in\n    tag_255:\n        /* \"#utility.yul\":4839:5014   */\n      pop\n        /* \"#utility.yul\":5107:5111   */\n      0x80\n        /* \"#utility.yul\":5100:5105   */\n      dup4\n        /* \"#utility.yul\":5096:5112   */\n      add\n        /* \"#utility.yul\":5090:5113   */\n      mload\n        /* \"#utility.yul\":5126:5189   */\n      tag_256\n        /* \"#utility.yul\":5183:5187   */\n      0x80\n        /* \"#utility.yul\":5178:5181   */\n      dup7\n        /* \"#utility.yul\":5174:5188   */\n      add\n        /* \"#utility.yul\":5160:5172   */\n      dup3\n        /* \"#utility.yul\":5126:5189   */\n      tag_253\n      jump\t// in\n    tag_256:\n        /* \"#utility.yul\":5024:5199   */\n      pop\n        /* \"#utility.yul\":5292:5296   */\n      0xa0\n        /* \"#utility.yul\":5285:5290   */\n      dup4\n        /* \"#utility.yul\":5281:5297   */\n      add\n        /* \"#utility.yul\":5275:5298   */\n      mload\n        /* \"#utility.yul\":5311:5374   */\n      tag_257\n        /* \"#utility.yul\":5368:5372   */\n      0xa0\n        /* \"#utility.yul\":5363:5366   */\n      dup7\n        /* \"#utility.yul\":5359:5373   */\n      add\n        /* \"#utility.yul\":5345:5357   */\n      dup3\n        /* \"#utility.yul\":5311:5374   */\n      tag_253\n      jump\t// in\n    tag_257:\n        /* \"#utility.yul\":5209:5384   */\n      pop\n        /* \"#utility.yul\":5477:5481   */\n      0xc0\n        /* \"#utility.yul\":5470:5475   */\n      dup4\n        /* \"#utility.yul\":5466:5482   */\n      add\n        /* \"#utility.yul\":5460:5483   */\n      mload\n        /* \"#utility.yul\":5496:5559   */\n      tag_258\n        /* \"#utility.yul\":5553:5557   */\n      0xc0\n        /* \"#utility.yul\":5548:5551   */\n      dup7\n        /* \"#utility.yul\":5544:5558   */\n      add\n        /* \"#utility.yul\":5530:5542   */\n      dup3\n        /* \"#utility.yul\":5496:5559   */\n      tag_253\n      jump\t// in\n    tag_258:\n        /* \"#utility.yul\":5394:5569   */\n      pop\n        /* \"#utility.yul\":5662:5666   */\n      0xe0\n        /* \"#utility.yul\":5655:5660   */\n      dup4\n        /* \"#utility.yul\":5651:5667   */\n      add\n        /* \"#utility.yul\":5645:5668   */\n      mload\n        /* \"#utility.yul\":5681:5744   */\n      tag_259\n        /* \"#utility.yul\":5738:5742   */\n      0xe0\n        /* \"#utility.yul\":5733:5736   */\n      dup7\n        /* \"#utility.yul\":5729:5743   */\n      add\n        /* \"#utility.yul\":5715:5727   */\n      dup3\n        /* \"#utility.yul\":5681:5744   */\n      tag_253\n      jump\t// in\n    tag_259:\n        /* \"#utility.yul\":5579:5754   */\n      pop\n        /* \"#utility.yul\":5847:5853   */\n      0x0100\n        /* \"#utility.yul\":5840:5845   */\n      dup4\n        /* \"#utility.yul\":5836:5854   */\n      add\n        /* \"#utility.yul\":5830:5855   */\n      mload\n        /* \"#utility.yul\":5868:5933   */\n      tag_260\n        /* \"#utility.yul\":5925:5931   */\n      0x0100\n        /* \"#utility.yul\":5920:5923   */\n      dup7\n        /* \"#utility.yul\":5916:5932   */\n      add\n        /* \"#utility.yul\":5902:5914   */\n      dup3\n        /* \"#utility.yul\":5868:5933   */\n      tag_253\n      jump\t// in\n    tag_260:\n        /* \"#utility.yul\":5764:5943   */\n      pop\n        /* \"#utility.yul\":6036:6042   */\n      0x0120\n        /* \"#utility.yul\":6029:6034   */\n      dup4\n        /* \"#utility.yul\":6025:6043   */\n      add\n        /* \"#utility.yul\":6019:6044   */\n      mload\n        /* \"#utility.yul\":6057:6122   */\n      tag_261\n        /* \"#utility.yul\":6114:6120   */\n      0x0120\n        /* \"#utility.yul\":6109:6112   */\n      dup7\n        /* \"#utility.yul\":6105:6121   */\n      add\n        /* \"#utility.yul\":6091:6103   */\n      dup3\n        /* \"#utility.yul\":6057:6122   */\n      tag_253\n      jump\t// in\n    tag_261:\n        /* \"#utility.yul\":5953:6132   */\n      pop\n        /* \"#utility.yul\":6225:6231   */\n      0x0140\n        /* \"#utility.yul\":6218:6223   */\n      dup4\n        /* \"#utility.yul\":6214:6232   */\n      add\n        /* \"#utility.yul\":6208:6233   */\n      mload\n        /* \"#utility.yul\":6246:6311   */\n      tag_262\n        /* \"#utility.yul\":6303:6309   */\n      0x0140\n        /* \"#utility.yul\":6298:6301   */\n      dup7\n        /* \"#utility.yul\":6294:6310   */\n      add\n        /* \"#utility.yul\":6280:6292   */\n      dup3\n        /* \"#utility.yul\":6246:6311   */\n      tag_253\n      jump\t// in\n    tag_262:\n        /* \"#utility.yul\":6142:6321   */\n      pop\n        /* \"#utility.yul\":6414:6420   */\n      0x0160\n        /* \"#utility.yul\":6407:6412   */\n      dup4\n        /* \"#utility.yul\":6403:6421   */\n      add\n        /* \"#utility.yul\":6397:6422   */\n      mload\n        /* \"#utility.yul\":6435:6500   */\n      tag_263\n        /* \"#utility.yul\":6492:6498   */\n      0x0160\n        /* \"#utility.yul\":6487:6490   */\n      dup7\n        /* \"#utility.yul\":6483:6499   */\n      add\n        /* \"#utility.yul\":6469:6481   */\n      dup3\n        /* \"#utility.yul\":6435:6500   */\n      tag_253\n      jump\t// in\n    tag_263:\n        /* \"#utility.yul\":6331:6510   */\n      pop\n        /* \"#utility.yul\":6527:6531   */\n      dup1\n        /* \"#utility.yul\":6520:6531   */\n      swap2\n      pop\n        /* \"#utility.yul\":4180:6537   */\n      pop\n        /* \"#utility.yul\":4058:6537   */\n      swap3\n      swap2\n      pop\n      pop\n      jump\t// out\n        /* \"#utility.yul\":6543:6651   */\n    tag_253:\n        /* \"#utility.yul\":6620:6644   */\n      tag_265\n        /* \"#utility.yul\":6638:6643   */\n      dup2\n        /* \"#utility.yul\":6620:6644   */\n      tag_266\n      jump\t// in\n    tag_265:\n        /* \"#utility.yul\":6615:6618   */\n      dup3\n        /* \"#utility.yul\":6608:6645   */\n      mstore\n        /* \"#utility.yul\":6543:6651   */\n      pop\n      pop\n      jump\t// out\n        /* \"#utility.yul\":6657:6775   */\n    tag_267:\n        /* \"#utility.yul\":6744:6768   */\n      tag_269\n        /* \"#utility.yul\":6762:6767   */\n      dup2\n        /* \"#utility.yul\":6744:6768   */\n      tag_266\n      jump\t// in\n    tag_269:\n        /* \"#utility.yul\":6739:6742   */\n      dup3\n        /* \"#utility.yul\":6732:6769   */\n      mstore\n        /* \"#utility.yul\":6657:6775   */\n      pop\n      pop\n      jump\t// out\n        /* \"#utility.yul\":6781:6938   */\n    tag_270:\n        /* \"#utility.yul\":6886:6931   */\n      tag_272\n        /* \"#utility.yul\":6906:6930   */\n      tag_273\n        /* \"#utility.yul\":6924:6929   */\n      dup3\n        /* \"#utility.yul\":6906:6930   */\n      tag_266\n      jump\t// in\n    tag_273:\n        /* \"#utility.yul\":6886:6931   */\n      tag_274\n      jump\t// in\n    tag_272:\n        /* \"#utility.yul\":6881:6884   */\n      dup3\n        /* \"#utility.yul\":6874:6932   */\n      mstore\n        /* \"#utility.yul\":6781:6938   */\n      pop\n      pop\n      jump\t// out\n        /* \"#utility.yul\":6944:7482   */\n    tag_138:\n        /* \"#utility.yul\":7112:7115   */\n      0x00\n        /* \"#utility.yul\":7127:7202   */\n      tag_276\n        /* \"#utility.yul\":7198:7201   */\n      dup3\n        /* \"#utility.yul\":7189:7195   */\n      dup7\n        /* \"#utility.yul\":7127:7202   */\n      tag_270\n      jump\t// in\n    tag_276:\n        /* \"#utility.yul\":7227:7229   */\n      0x20\n        /* \"#utility.yul\":7222:7225   */\n      dup3\n        /* \"#utility.yul\":7218:7230   */\n      add\n        /* \"#utility.yul\":7211:7230   */\n      swap2\n      pop\n        /* \"#utility.yul\":7240:7315   */\n      tag_277\n        /* \"#utility.yul\":7311:7314   */\n      dup3\n        /* \"#utility.yul\":7302:7308   */\n      dup6\n        /* \"#utility.yul\":7240:7315   */\n      tag_270\n      jump\t// in\n    tag_277:\n        /* \"#utility.yul\":7340:7342   */\n      0x20\n        /* \"#utility.yul\":7335:7338   */\n      dup3\n        /* \"#utility.yul\":7331:7343   */\n      add\n        /* \"#utility.yul\":7324:7343   */\n      swap2\n      pop\n        /* \"#utility.yul\":7353:7428   */\n      tag_278\n        /* \"#utility.yul\":7424:7427   */\n      dup3\n        /* \"#utility.yul\":7415:7421   */\n      dup5\n        /* \"#utility.yul\":7353:7428   */\n      tag_212\n      jump\t// in\n    tag_278:\n        /* \"#utility.yul\":7453:7455   */\n      0x14\n        /* \"#utility.yul\":7448:7451   */\n      dup3\n        /* \"#utility.yul\":7444:7456   */\n      add\n        /* \"#utility.yul\":7437:7456   */\n      swap2\n      pop\n        /* \"#utility.yul\":7473:7476   */\n      dup2\n        /* \"#utility.yul\":7466:7476   */\n      swap1\n      pop\n        /* \"#utility.yul\":6944:7482   */\n      swap5\n      swap4\n      pop\n      pop\n      pop\n      pop\n      jump\t// out\n        /* \"#utility.yul\":7488:7801   */\n    tag_12:\n        /* \"#utility.yul\":7601:7605   */\n      0x00\n        /* \"#utility.yul\":7639:7641   */\n      0x20\n        /* \"#utility.yul\":7628:7637   */\n      dup3\n        /* \"#utility.yul\":7624:7642   */\n      add\n        /* \"#utility.yul\":7616:7642   */\n      swap1\n      pop\n        /* \"#utility.yul\":7688:7697   */\n      dup2\n        /* \"#utility.yul\":7682:7686   */\n      dup2\n        /* \"#utility.yul\":7678:7698   */\n      sub\n        /* \"#utility.yul\":7674:7675   */\n      0x00\n        /* \"#utility.yul\":7663:7672   */\n      dup4\n        /* \"#utility.yul\":7659:7676   */\n      add\n        /* \"#utility.yul\":7652:7699   */\n      mstore\n        /* \"#utility.yul\":7716:7794   */\n      tag_280\n        /* \"#utility.yul\":7789:7793   */\n      dup2\n        /* \"#utility.yul\":7780:7786   */\n      dup5\n        /* \"#utility.yul\":7716:7794   */\n      tag_232\n      jump\t// in\n    tag_280:\n        /* \"#utility.yul\":7708:7794   */\n      swap1\n      pop\n        /* \"#utility.yul\":7488:7801   */\n      swap3\n      swap2\n      pop\n      pop\n      jump\t// out\n        /* \"#utility.yul\":7807:8226   */\n    tag_54:\n        /* \"#utility.yul\":7973:7977   */\n      0x00\n        /* \"#utility.yul\":8011:8013   */\n      0x20\n        /* \"#utility.yul\":8000:8009   */\n      dup3\n        /* \"#utility.yul\":7996:8014   */\n      add\n        /* \"#utility.yul\":7988:8014   */\n      swap1\n      pop\n        /* \"#utility.yul\":8060:8069   */\n      dup2\n        /* \"#utility.yul\":8054:8058   */\n      dup2\n        /* \"#utility.yul\":8050:8070   */\n      sub\n        /* \"#utility.yul\":8046:8047   */\n      0x00\n        /* \"#utility.yul\":8035:8044   */\n      dup4\n        /* \"#utility.yul\":8031:8048   */\n      add\n        /* \"#utility.yul\":8024:8071   */\n      mstore\n        /* \"#utility.yul\":8088:8219   */\n      tag_282\n        /* \"#utility.yul\":8214:8218   */\n      dup2\n        /* \"#utility.yul\":8088:8219   */\n      tag_239\n      jump\t// in\n    tag_282:\n        /* \"#utility.yul\":8080:8219   */\n      swap1\n      pop\n        /* \"#utility.yul\":7807:8226   */\n      swap2\n      swap1\n      pop\n      jump\t// out\n        /* \"#utility.yul\":8232:8651   */\n    tag_46:\n        /* \"#utility.yul\":8398:8402   */\n      0x00\n        /* \"#utility.yul\":8436:8438   */\n      0x20\n        /* \"#utility.yul\":8425:8434   */\n      dup3\n        /* \"#utility.yul\":8421:8439   */\n      add\n        /* \"#utility.yul\":8413:8439   */\n      swap1\n      pop\n        /* \"#utility.yul\":8485:8494   */\n      dup2\n        /* \"#utility.yul\":8479:8483   */\n      dup2\n        /* \"#utility.yul\":8475:8495   */\n      sub\n        /* \"#utility.yul\":8471:8472   */\n      0x00\n        /* \"#utility.yul\":8460:8469   */\n      dup4\n        /* \"#utility.yul\":8456:8473   */\n      add\n        /* \"#utility.yul\":8449:8496   */\n      mstore\n        /* \"#utility.yul\":8513:8644   */\n      tag_284\n        /* \"#utility.yul\":8639:8643   */\n      dup2\n        /* \"#utility.yul\":8513:8644   */\n      tag_244\n      jump\t// in\n    tag_284:\n        /* \"#utility.yul\":8505:8644   */\n      swap1\n      pop\n        /* \"#utility.yul\":8232:8651   */\n      swap2\n      swap1\n      pop\n      jump\t// out\n        /* \"#utility.yul\":8657:9026   */\n    tag_35:\n        /* \"#utility.yul\":8798:8802   */\n      0x00\n        /* \"#utility.yul\":8836:8838   */\n      0x20\n        /* \"#utility.yul\":8825:8834   */\n      dup3\n        /* \"#utility.yul\":8821:8839   */\n      add\n        /* \"#utility.yul\":8813:8839   */\n      swap1\n      pop\n        /* \"#utility.yul\":8885:8894   */\n      dup2\n        /* \"#utility.yul\":8879:8883   */\n      dup2\n        /* \"#utility.yul\":8875:8895   */\n      sub\n        /* \"#utility.yul\":8871:8872   */\n      0x00\n        /* \"#utility.yul\":8860:8869   */\n      dup4\n        /* \"#utility.yul\":8856:8873   */\n      add\n        /* \"#utility.yul\":8849:8896   */\n      mstore\n        /* \"#utility.yul\":8913:9019   */\n      tag_286\n        /* \"#utility.yul\":9014:9018   */\n      dup2\n        /* \"#utility.yul\":9005:9011   */\n      dup5\n        /* \"#utility.yul\":8913:9019   */\n      tag_249\n      jump\t// in\n    tag_286:\n        /* \"#utility.yul\":8905:9019   */\n      swap1\n      pop\n        /* \"#utility.yul\":8657:9026   */\n      swap3\n      swap2\n      pop\n      pop\n      jump\t// out\n        /* \"#utility.yul\":9032:9254   */\n    tag_29:\n        /* \"#utility.yul\":9125:9129   */\n      0x00\n        /* \"#utility.yul\":9163:9165   */\n      0x20\n        /* \"#utility.yul\":9152:9161   */\n      dup3\n        /* \"#utility.yul\":9148:9166   */\n      add\n        /* \"#utility.yul\":9140:9166   */\n      swap1\n      pop\n        /* \"#utility.yul\":9176:9247   */\n      tag_288\n        /* \"#utility.yul\":9244:9245   */\n      0x00\n        /* \"#utility.yul\":9233:9242   */\n      dup4\n        /* \"#utility.yul\":9229:9246   */\n      add\n        /* \"#utility.yul\":9220:9226   */\n      dup5\n        /* \"#utility.yul\":9176:9247   */\n      tag_267\n      jump\t// in\n    tag_288:\n        /* \"#utility.yul\":9032:9254   */\n      swap3\n      swap2\n      pop\n      pop\n      jump\t// out\n        /* \"#utility.yul\":9260:9801   */\n    tag_25:\n        /* \"#utility.yul\":9431:9435   */\n      0x00\n        /* \"#utility.yul\":9469:9472   */\n      0x80\n        /* \"#utility.yul\":9458:9467   */\n      dup3\n        /* \"#utility.yul\":9454:9473   */\n      add\n        /* \"#utility.yul\":9446:9473   */\n      swap1\n      pop\n        /* \"#utility.yul\":9483:9554   */\n      tag_290\n        /* \"#utility.yul\":9551:9552   */\n      0x00\n        /* \"#utility.yul\":9540:9549   */\n      dup4\n        /* \"#utility.yul\":9536:9553   */\n      add\n        /* \"#utility.yul\":9527:9533   */\n      dup8\n        /* \"#utility.yul\":9483:9554   */\n      tag_267\n      jump\t// in\n    tag_290:\n        /* \"#utility.yul\":9564:9630   */\n      tag_291\n        /* \"#utility.yul\":9626:9628   */\n      0x20\n        /* \"#utility.yul\":9615:9624   */\n      dup4\n        /* \"#utility.yul\":9611:9629   */\n      add\n        /* \"#utility.yul\":9602:9608   */\n      dup7\n        /* \"#utility.yul\":9564:9630   */\n      tag_218\n      jump\t// in\n    tag_291:\n        /* \"#utility.yul\":9640:9712   */\n      tag_292\n        /* \"#utility.yul\":9708:9710   */\n      0x40\n        /* \"#utility.yul\":9697:9706   */\n      dup4\n        /* \"#utility.yul\":9693:9711   */\n      add\n        /* \"#utility.yul\":9684:9690   */\n      dup6\n        /* \"#utility.yul\":9640:9712   */\n      tag_267\n      jump\t// in\n    tag_292:\n        /* \"#utility.yul\":9722:9794   */\n      tag_293\n        /* \"#utility.yul\":9790:9792   */\n      0x60\n        /* \"#utility.yul\":9779:9788   */\n      dup4\n        /* \"#utility.yul\":9775:9793   */\n      add\n        /* \"#utility.yul\":9766:9772   */\n      dup5\n        /* \"#utility.yul\":9722:9794   */\n      tag_267\n      jump\t// in\n    tag_293:\n        /* \"#utility.yul\":9260:9801   */\n      swap6\n      swap5\n      pop\n      pop\n      pop\n      pop\n      pop\n      jump\t// out\n        /* \"#utility.yul\":9807:9936   */\n    tag_176:\n        /* \"#utility.yul\":9841:9847   */\n      0x00\n        /* \"#utility.yul\":9868:9888   */\n      tag_295\n      tag_296\n      jump\t// in\n    tag_295:\n        /* \"#utility.yul\":9858:9888   */\n      swap1\n      pop\n        /* \"#utility.yul\":9897:9930   */\n      tag_297\n        /* \"#utility.yul\":9925:9929   */\n      dup3\n        /* \"#utility.yul\":9917:9923   */\n      dup3\n        /* \"#utility.yul\":9897:9930   */\n      tag_298\n      jump\t// in\n    tag_297:\n        /* \"#utility.yul\":9807:9936   */\n      swap2\n      swap1\n      pop\n      jump\t// out\n        /* \"#utility.yul\":9942:10017   */\n    tag_296:\n        /* \"#utility.yul\":9975:9981   */\n      0x00\n        /* \"#utility.yul\":10008:10010   */\n      0x40\n        /* \"#utility.yul\":10002:10011   */\n      mload\n        /* \"#utility.yul\":9992:10011   */\n      swap1\n      pop\n        /* \"#utility.yul\":9942:10017   */\n      swap1\n      jump\t// out\n        /* \"#utility.yul\":10023:10331   */\n    tag_175:\n        /* \"#utility.yul\":10085:10089   */\n      0x00\n        /* \"#utility.yul\":10175:10193   */\n      0xffffffffffffffff\n        /* \"#utility.yul\":10167:10173   */\n      dup3\n        /* \"#utility.yul\":10164:10194   */\n      gt\n        /* \"#utility.yul\":10161:10217   */\n      iszero\n      tag_301\n      jumpi\n        /* \"#utility.yul\":10197:10215   */\n      tag_302\n      tag_303\n      jump\t// in\n    tag_302:\n        /* \"#utility.yul\":10161:10217   */\n    tag_301:\n        /* \"#utility.yul\":10235:10264   */\n      tag_304\n        /* \"#utility.yul\":10257:10263   */\n      dup3\n        /* \"#utility.yul\":10235:10264   */\n      tag_231\n      jump\t// in\n    tag_304:\n        /* \"#utility.yul\":10227:10264   */\n      swap1\n      pop\n        /* \"#utility.yul\":10319:10323   */\n      0x20\n        /* \"#utility.yul\":10313:10317   */\n      dup2\n        /* \"#utility.yul\":10309:10324   */\n      add\n        /* \"#utility.yul\":10301:10324   */\n      swap1\n      pop\n        /* \"#utility.yul\":10023:10331   */\n      swap2\n      swap1\n      pop\n      jump\t// out\n        /* \"#utility.yul\":10337:10436   */\n    tag_225:\n        /* \"#utility.yul\":10389:10395   */\n      0x00\n        /* \"#utility.yul\":10423:10428   */\n      dup2\n        /* \"#utility.yul\":10417:10429   */\n      mload\n        /* \"#utility.yul\":10407:10429   */\n      swap1\n      pop\n        /* \"#utility.yul\":10337:10436   */\n      swap2\n      swap1\n      pop\n      jump\t// out\n        /* \"#utility.yul\":10442:10601   */\n    tag_227:\n        /* \"#utility.yul\":10516:10527   */\n      0x00\n        /* \"#utility.yul\":10550:10556   */\n      dup3\n        /* \"#utility.yul\":10545:10548   */\n      dup3\n        /* \"#utility.yul\":10538:10557   */\n      mstore\n        /* \"#utility.yul\":10590:10594   */\n      0x20\n        /* \"#utility.yul\":10585:10588   */\n      dup3\n        /* \"#utility.yul\":10581:10595   */\n      add\n        /* \"#utility.yul\":10566:10595   */\n      swap1\n      pop\n        /* \"#utility.yul\":10442:10601   */\n      swap3\n      swap2\n      pop\n      pop\n      jump\t// out\n        /* \"#utility.yul\":10607:10776   */\n    tag_236:\n        /* \"#utility.yul\":10691:10702   */\n      0x00\n        /* \"#utility.yul\":10725:10731   */\n      dup3\n        /* \"#utility.yul\":10720:10723   */\n      dup3\n        /* \"#utility.yul\":10713:10732   */\n      mstore\n        /* \"#utility.yul\":10765:10769   */\n      0x20\n        /* \"#utility.yul\":10760:10763   */\n      dup3\n        /* \"#utility.yul\":10756:10770   */\n      add\n        /* \"#utility.yul\":10741:10770   */\n      swap1\n      pop\n        /* \"#utility.yul\":10607:10776   */\n      swap3\n      swap2\n      pop\n      pop\n      jump\t// out\n        /* \"#utility.yul\":10782:11307   */\n    tag_154:\n        /* \"#utility.yul\":10821:10824   */\n      0x00\n        /* \"#utility.yul\":10840:10859   */\n      tag_309\n        /* \"#utility.yul\":10857:10858   */\n      dup3\n        /* \"#utility.yul\":10840:10859   */\n      tag_310\n      jump\t// in\n    tag_309:\n        /* \"#utility.yul\":10835:10859   */\n      swap2\n      pop\n        /* \"#utility.yul\":10873:10892   */\n      tag_311\n        /* \"#utility.yul\":10890:10891   */\n      dup4\n        /* \"#utility.yul\":10873:10892   */\n      tag_310\n      jump\t// in\n    tag_311:\n        /* \"#utility.yul\":10868:10892   */\n      swap3\n      pop\n        /* \"#utility.yul\":11061:11062   */\n      dup2\n        /* \"#utility.yul\":10993:11059   */\n      0x7fffffffffffffffffffffffffffffffffffffffffffffffffffffffffffffff\n        /* \"#utility.yul\":10989:11063   */\n      sub\n        /* \"#utility.yul\":10986:10987   */\n      dup4\n        /* \"#utility.yul\":10982:11064   */\n      sgt\n        /* \"#utility.yul\":10977:10978   */\n      0x00\n        /* \"#utility.yul\":10974:10975   */\n      dup4\n        /* \"#utility.yul\":10970:10979   */\n      slt\n        /* \"#utility.yul\":10963:10980   */\n      iszero\n        /* \"#utility.yul\":10959:11065   */\n      and\n        /* \"#utility.yul\":10956:11088   */\n      iszero\n      tag_312\n      jumpi\n        /* \"#utility.yul\":11068:11086   */\n      tag_313\n      tag_314\n      jump\t// in\n    tag_313:\n        /* \"#utility.yul\":10956:11088   */\n    tag_312:\n        /* \"#utility.yul\":11248:11249   */\n      dup2\n        /* \"#utility.yul\":11180:11246   */\n      0x8000000000000000000000000000000000000000000000000000000000000000\n        /* \"#utility.yul\":11176:11250   */\n      sub\n        /* \"#utility.yul\":11173:11174   */\n      dup4\n        /* \"#utility.yul\":11169:11251   */\n      slt\n        /* \"#utility.yul\":11165:11166   */\n      0x00\n        /* \"#utility.yul\":11162:11163   */\n      dup4\n        /* \"#utility.yul\":11158:11167   */\n      slt\n        /* \"#utility.yul\":11154:11252   */\n      and\n        /* \"#utility.yul\":11151:11275   */\n      iszero\n      tag_315\n      jumpi\n        /* \"#utility.yul\":11255:11273   */\n      tag_316\n      tag_314\n      jump\t// in\n    tag_316:\n        /* \"#utility.yul\":11151:11275   */\n    tag_315:\n        /* \"#utility.yul\":11299:11300   */\n      dup3\n        /* \"#utility.yul\":11296:11297   */\n      dup3\n        /* \"#utility.yul\":11292:11301   */\n      add\n        /* \"#utility.yul\":11285:11301   */\n      swap1\n      pop\n        /* \"#utility.yul\":10782:11307   */\n      swap3\n      swap2\n      pop\n      pop\n      jump\t// out\n        /* \"#utility.yul\":11313:11618   */\n    tag_62:\n        /* \"#utility.yul\":11353:11356   */\n      0x00\n        /* \"#utility.yul\":11372:11392   */\n      tag_318\n        /* \"#utility.yul\":11390:11391   */\n      dup3\n        /* \"#utility.yul\":11372:11392   */\n      tag_266\n      jump\t// in\n    tag_318:\n        /* \"#utility.yul\":11367:11392   */\n      swap2\n      pop\n        /* \"#utility.yul\":11406:11426   */\n      tag_319\n        /* \"#utility.yul\":11424:11425   */\n      dup4\n        /* \"#utility.yul\":11406:11426   */\n      tag_266\n      jump\t// in\n    tag_319:\n        /* \"#utility.yul\":11401:11426   */\n      swap3\n      pop\n        /* \"#utility.yul\":11560:11561   */\n      dup3\n        /* \"#utility.yul\":11492:11558   */\n      0xffffffffffffffffffffffffffffffffffffffffffffffffffffffffffffffff\n        /* \"#utility.yul\":11488:11562   */\n      sub\n        /* \"#utility.yul\":11485:11486   */\n      dup3\n        /* \"#utility.yul\":11482:11563   */\n      gt\n        /* \"#utility.yul\":11479:11586   */\n      iszero\n      tag_320\n      jumpi\n        /* \"#utility.yul\":11566:11584   */\n      tag_321\n      tag_314\n      jump\t// in\n    tag_321:\n        /* \"#utility.yul\":11479:11586   */\n    tag_320:\n        /* \"#utility.yul\":11610:11611   */\n      dup3\n        /* \"#utility.yul\":11607:11608   */\n      dup3\n        /* \"#utility.yul\":11603:11612   */\n      add\n        /* \"#utility.yul\":11596:11612   */\n      swap1\n      pop\n        /* \"#utility.yul\":11313:11618   */\n      swap3\n      swap2\n      pop\n      pop\n      jump\t// out\n        /* \"#utility.yul\":11624:11720   */\n    tag_216:\n        /* \"#utility.yul\":11661:11668   */\n      0x00\n        /* \"#utility.yul\":11690:11714   */\n      tag_323\n        /* \"#utility.yul\":11708:11713   */\n      dup3\n        /* \"#utility.yul\":11690:11714   */\n      tag_324\n      jump\t// in\n    tag_323:\n        /* \"#utility.yul\":11679:11714   */\n      swap1\n      pop\n        /* \"#utility.yul\":11624:11720   */\n      swap2\n      swap1\n      pop\n      jump\t// out\n        /* \"#utility.yul\":11726:11816   */\n    tag_221:\n        /* \"#utility.yul\":11760:11767   */\n      0x00\n        /* \"#utility.yul\":11803:11808   */\n      dup2\n        /* \"#utility.yul\":11796:11809   */\n      iszero\n        /* \"#utility.yul\":11789:11810   */\n      iszero\n        /* \"#utility.yul\":11778:11810   */\n      swap1\n      pop\n        /* \"#utility.yul\":11726:11816   */\n      swap2\n      swap1\n      pop\n      jump\t// out\n        /* \"#utility.yul\":11822:11898   */\n    tag_310:\n        /* \"#utility.yul\":11858:11865   */\n      0x00\n        /* \"#utility.yul\":11887:11892   */\n      dup2\n        /* \"#utility.yul\":11876:11892   */\n      swap1\n      pop\n        /* \"#utility.yul\":11822:11898   */\n      swap2\n      swap1\n      pop\n      jump\t// out\n        /* \"#utility.yul\":11904:12030   */\n    tag_324:\n        /* \"#utility.yul\":11941:11948   */\n      0x00\n        /* \"#utility.yul\":11981:12023   */\n      0xffffffffffffffffffffffffffffffffffffffff\n        /* \"#utility.yul\":11974:11979   */\n      dup3\n        /* \"#utility.yul\":11970:12024   */\n      and\n        /* \"#utility.yul\":11959:12024   */\n      swap1\n      pop\n        /* \"#utility.yul\":11904:12030   */\n      swap2\n      swap1\n      pop\n      jump\t// out\n        /* \"#utility.yul\":12036:12113   */\n    tag_266:\n        /* \"#utility.yul\":12073:12080   */\n      0x00\n        /* \"#utility.yul\":12102:12107   */\n      dup2\n        /* \"#utility.yul\":12091:12107   */\n      swap1\n      pop\n        /* \"#utility.yul\":12036:12113   */\n      swap2\n      swap1\n      pop\n      jump\t// out\n        /* \"#utility.yul\":12119:12273   */\n    tag_181:\n        /* \"#utility.yul\":12203:12209   */\n      dup3\n        /* \"#utility.yul\":12198:12201   */\n      dup2\n        /* \"#utility.yul\":12193:12196   */\n      dup4\n        /* \"#utility.yul\":12180:12210   */\n      calldatacopy\n        /* \"#utility.yul\":12265:12266   */\n      0x00\n        /* \"#utility.yul\":12256:12262   */\n      dup4\n        /* \"#utility.yul\":12251:12254   */\n      dup4\n        /* \"#utility.yul\":12247:12263   */\n      add\n        /* \"#utility.yul\":12240:12267   */\n      mstore\n        /* \"#utility.yul\":12119:12273   */\n      pop\n      pop\n      pop\n      jump\t// out\n        /* \"#utility.yul\":12279:12586   */\n    tag_229:\n        /* \"#utility.yul\":12347:12348   */\n      0x00\n        /* \"#utility.yul\":12357:12470   */\n    tag_331:\n        /* \"#utility.yul\":12371:12377   */\n      dup4\n        /* \"#utility.yul\":12368:12369   */\n      dup2\n        /* \"#utility.yul\":12365:12378   */\n      lt\n        /* \"#utility.yul\":12357:12470   */\n      iszero\n      tag_333\n      jumpi\n        /* \"#utility.yul\":12456:12457   */\n      dup1\n        /* \"#utility.yul\":12451:12454   */\n      dup3\n        /* \"#utility.yul\":12447:12458   */\n      add\n        /* \"#utility.yul\":12441:12459   */\n      mload\n        /* \"#utility.yul\":12437:12438   */\n      dup2\n        /* \"#utility.yul\":12432:12435   */\n      dup5\n        /* \"#utility.yul\":12428:12439   */\n      add\n        /* \"#utility.yul\":12421:12460   */\n      mstore\n        /* \"#utility.yul\":12393:12395   */\n      0x20\n        /* \"#utility.yul\":12390:12391   */\n      dup2\n        /* \"#utility.yul\":12386:12396   */\n      add\n        /* \"#utility.yul\":12381:12396   */\n      swap1\n      pop\n        /* \"#utility.yul\":12357:12470   */\n      jump(tag_331)\n    tag_333:\n        /* \"#utility.yul\":12488:12494   */\n      dup4\n        /* \"#utility.yul\":12485:12486   */\n      dup2\n        /* \"#utility.yul\":12482:12495   */\n      gt\n        /* \"#utility.yul\":12479:12580   */\n      iszero\n      tag_334\n      jumpi\n        /* \"#utility.yul\":12568:12569   */\n      0x00\n        /* \"#utility.yul\":12559:12565   */\n      dup5\n        /* \"#utility.yul\":12554:12557   */\n      dup5\n        /* \"#utility.yul\":12550:12566   */\n      add\n        /* \"#utility.yul\":12543:12570   */\n      mstore\n        /* \"#utility.yul\":12479:12580   */\n    tag_334:\n        /* \"#utility.yul\":12328:12586   */\n      pop\n        /* \"#utility.yul\":12279:12586   */\n      pop\n      pop\n      pop\n      jump\t// out\n        /* \"#utility.yul\":12592:12912   */\n    tag_38:\n        /* \"#utility.yul\":12636:12642   */\n      0x00\n        /* \"#utility.yul\":12673:12674   */\n      0x02\n        /* \"#utility.yul\":12667:12671   */\n      dup3\n        /* \"#utility.yul\":12663:12675   */\n      div\n        /* \"#utility.yul\":12653:12675   */\n      swap1\n      pop\n        /* \"#utility.yul\":12720:12721   */\n      0x01\n        /* \"#utility.yul\":12714:12718   */\n      dup3\n        /* \"#utility.yul\":12710:12722   */\n      and\n        /* \"#utility.yul\":12741:12759   */\n      dup1\n        /* \"#utility.yul\":12731:12812   */\n      tag_336\n      jumpi\n        /* \"#utility.yul\":12797:12801   */\n      0x7f\n        /* \"#utility.yul\":12789:12795   */\n      dup3\n        /* \"#utility.yul\":12785:12802   */\n      and\n        /* \"#utility.yul\":12775:12802   */\n      swap2\n      pop\n        /* \"#utility.yul\":12731:12812   */\n    tag_336:\n        /* \"#utility.yul\":12859:12861   */\n      0x20\n        /* \"#utility.yul\":12851:12857   */\n      dup3\n        /* \"#utility.yul\":12848:12862   */\n      lt\n        /* \"#utility.yul\":12828:12846   */\n      dup2\n        /* \"#utility.yul\":12825:12863   */\n      eq\n        /* \"#utility.yul\":12822:12906   */\n      iszero\n      tag_337\n      jumpi\n        /* \"#utility.yul\":12878:12896   */\n      tag_338\n      tag_339\n      jump\t// in\n    tag_338:\n        /* \"#utility.yul\":12822:12906   */\n    tag_337:\n        /* \"#utility.yul\":12643:12912   */\n      pop\n        /* \"#utility.yul\":12592:12912   */\n      swap2\n      swap1\n      pop\n      jump\t// out\n        /* \"#utility.yul\":12918:13199   */\n    tag_298:\n        /* \"#utility.yul\":13001:13028   */\n      tag_341\n        /* \"#utility.yul\":13023:13027   */\n      dup3\n        /* \"#utility.yul\":13001:13028   */\n      tag_231\n      jump\t// in\n    tag_341:\n        /* \"#utility.yul\":12993:12999   */\n      dup2\n        /* \"#utility.yul\":12989:13029   */\n      add\n        /* \"#utility.yul\":13131:13137   */\n      dup2\n        /* \"#utility.yul\":13119:13129   */\n      dup2\n        /* \"#utility.yul\":13116:13138   */\n      lt\n        /* \"#utility.yul\":13095:13113   */\n      0xffffffffffffffff\n        /* \"#utility.yul\":13083:13093   */\n      dup3\n        /* \"#utility.yul\":13080:13114   */\n      gt\n        /* \"#utility.yul\":13077:13139   */\n      or\n        /* \"#utility.yul\":13074:13162   */\n      iszero\n      tag_342\n      jumpi\n        /* \"#utility.yul\":13142:13160   */\n      tag_343\n      tag_303\n      jump\t// in\n    tag_343:\n        /* \"#utility.yul\":13074:13162   */\n    tag_342:\n        /* \"#utility.yul\":13182:13192   */\n      dup1\n        /* \"#utility.yul\":13178:13180   */\n      0x40\n        /* \"#utility.yul\":13171:13193   */\n      mstore\n        /* \"#utility.yul\":12961:13199   */\n      pop\n        /* \"#utility.yul\":12918:13199   */\n      pop\n      pop\n      jump\t// out\n        /* \"#utility.yul\":13205:13305   */\n    tag_217:\n        /* \"#utility.yul\":13244:13251   */\n      0x00\n        /* \"#utility.yul\":13273:13299   */\n      tag_345\n        /* \"#utility.yul\":13293:13298   */\n      dup3\n        /* \"#utility.yul\":13273:13299   */\n      tag_346\n      jump\t// in\n    tag_345:\n        /* \"#utility.yul\":13262:13299   */\n      swap1\n      pop\n        /* \"#utility.yul\":13205:13305   */\n      swap2\n      swap1\n      pop\n      jump\t// out\n        /* \"#utility.yul\":13311:13405   */\n    tag_346:\n        /* \"#utility.yul\":13350:13357   */\n      0x00\n        /* \"#utility.yul\":13379:13399   */\n      tag_348\n        /* \"#utility.yul\":13393:13398   */\n      dup3\n        /* \"#utility.yul\":13379:13399   */\n      tag_349\n      jump\t// in\n    tag_348:\n        /* \"#utility.yul\":13368:13399   */\n      swap1\n      pop\n        /* \"#utility.yul\":13311:13405   */\n      swap2\n      swap1\n      pop\n      jump\t// out\n        /* \"#utility.yul\":13411:13490   */\n    tag_274:\n        /* \"#utility.yul\":13450:13457   */\n      0x00\n        /* \"#utility.yul\":13479:13484   */\n      dup2\n        /* \"#utility.yul\":13468:13484   */\n      swap1\n      pop\n        /* \"#utility.yul\":13411:13490   */\n      swap2\n      swap1\n      pop\n      jump\t// out\n        /* \"#utility.yul\":13496:13672   */\n    tag_140:\n        /* \"#utility.yul\":13528:13529   */\n      0x00\n        /* \"#utility.yul\":13545:13565   */\n      tag_352\n        /* \"#utility.yul\":13563:13564   */\n      dup3\n        /* \"#utility.yul\":13545:13565   */\n      tag_266\n      jump\t// in\n    tag_352:\n        /* \"#utility.yul\":13540:13565   */\n      swap2\n      pop\n        /* \"#utility.yul\":13579:13599   */\n      tag_353\n        /* \"#utility.yul\":13597:13598   */\n      dup4\n        /* \"#utility.yul\":13579:13599   */\n      tag_266\n      jump\t// in\n    tag_353:\n        /* \"#utility.yul\":13574:13599   */\n      swap3\n      pop\n        /* \"#utility.yul\":13618:13619   */\n      dup3\n        /* \"#utility.yul\":13608:13643   */\n      tag_354\n      jumpi\n        /* \"#utility.yul\":13623:13641   */\n      tag_355\n      tag_356\n      jump\t// in\n    tag_355:\n        /* \"#utility.yul\":13608:13643   */\n    tag_354:\n        /* \"#utility.yul\":13664:13665   */\n      dup3\n        /* \"#utility.yul\":13661:13662   */\n      dup3\n        /* \"#utility.yul\":13657:13666   */\n      mod\n        /* \"#utility.yul\":13652:13666   */\n      swap1\n      pop\n        /* \"#utility.yul\":13496:13672   */\n      swap3\n      swap2\n      pop\n      pop\n      jump\t// out\n        /* \"#utility.yul\":13678:13858   */\n    tag_314:\n        /* \"#utility.yul\":13726:13803   */\n      0x4e487b7100000000000000000000000000000000000000000000000000000000\n        /* \"#utility.yul\":13723:13724   */\n      0x00\n        /* \"#utility.yul\":13716:13804   */\n      mstore\n        /* \"#utility.yul\":13823:13827   */\n      0x11\n        /* \"#utility.yul\":13820:13821   */\n      0x04\n        /* \"#utility.yul\":13813:13828   */\n      mstore\n        /* \"#utility.yul\":13847:13851   */\n      0x24\n        /* \"#utility.yul\":13844:13845   */\n      0x00\n        /* \"#utility.yul\":13837:13852   */\n      revert\n        /* \"#utility.yul\":13864:14044   */\n    tag_356:\n        /* \"#utility.yul\":13912:13989   */\n      0x4e487b7100000000000000000000000000000000000000000000000000000000\n        /* \"#utility.yul\":13909:13910   */\n      0x00\n        /* \"#utility.yul\":13902:13990   */\n      mstore\n        /* \"#utility.yul\":14009:14013   */\n      0x12\n        /* \"#utility.yul\":14006:14007   */\n      0x04\n        /* \"#utility.yul\":13999:14014   */\n      mstore\n        /* \"#utility.yul\":14033:14037   */\n      0x24\n        /* \"#utility.yul\":14030:14031   */\n      0x00\n        /* \"#utility.yul\":14023:14038   */\n      revert\n        /* \"#utility.yul\":14050:14230   */\n    tag_339:\n        /* \"#utility.yul\":14098:14175   */\n      0x4e487b7100000000000000000000000000000000000000000000000000000000\n        /* \"#utility.yul\":14095:14096   */\n      0x00\n        /* \"#utility.yul\":14088:14176   */\n      mstore\n        /* \"#utility.yul\":14195:14199   */\n      0x22\n        /* \"#utility.yul\":14192:14193   */\n      0x04\n        /* \"#utility.yul\":14185:14200   */\n      mstore\n        /* \"#utility.yul\":14219:14223   */\n      0x24\n        /* \"#utility.yul\":14216:14217   */\n      0x00\n        /* \"#utility.yul\":14209:14224   */\n      revert\n        /* \"#utility.yul\":14236:14416   */\n    tag_59:\n        /* \"#utility.yul\":14284:14361   */\n      0x4e487b7100000000000000000000000000000000000000000000000000000000\n        /* \"#utility.yul\":14281:14282   */\n      0x00\n        /* \"#utility.yul\":14274:14362   */\n      mstore\n        /* \"#utility.yul\":14381:14385   */\n      0x32\n        /* \"#utility.yul\":14378:14379   */\n      0x04\n        /* \"#utility.yul\":14371:14386   */\n      mstore\n        /* \"#utility.yul\":14405:14409   */\n      0x24\n        /* \"#utility.yul\":14402:14403   */\n      0x00\n        /* \"#utility.yul\":14395:14410   */\n      revert\n        /* \"#utility.yul\":14422:14602   */\n    tag_303:\n        /* \"#utility.yul\":14470:14547   */\n      0x4e487b7100000000000000000000000000000000000000000000000000000000\n        /* \"#utility.yul\":14467:14468   */\n      0x00\n        /* \"#utility.yul\":14460:14548   */\n      mstore\n        /* \"#utility.yul\":14567:14571   */\n      0x41\n        /* \"#utility.yul\":14564:14565   */\n      0x04\n        /* \"#utility.yul\":14557:14572   */\n      mstore\n        /* \"#utility.yul\":14591:14595   */\n      0x24\n        /* \"#utility.yul\":14588:14589   */\n      0x00\n        /* \"#utility.yul\":14581:14596   */\n      revert\n        /* \"#utility.yul\":14608:14725   */\n    tag_190:\n        /* \"#utility.yul\":14717:14718   */\n      0x00\n        /* \"#utility.yul\":14714:14715   */\n      dup1\n        /* \"#utility.yul\":14707:14719   */\n      revert\n        /* \"#utility.yul\":14731:14848   */\n    tag_179:\n        /* \"#utility.yul\":14840:14841   */\n      0x00\n        /* \"#utility.yul\":14837:14838   */\n      dup1\n        /* \"#utility.yul\":14830:14842   */\n      revert\n        /* \"#utility.yul\":14854:14971   */\n    tag_206:\n        /* \"#utility.yul\":14963:14964   */\n      0x00\n        /* \"#utility.yul\":14960:14961   */\n      dup1\n        /* \"#utility.yul\":14953:14965   */\n      revert\n        /* \"#utility.yul\":14977:15094   */\n    tag_199:\n        /* \"#utility.yul\":15086:15087   */\n      0x00\n        /* \"#utility.yul\":15083:15084   */\n      dup1\n        /* \"#utility.yul\":15076:15088   */\n      revert\n        /* \"#utility.yul\":15100:15202   */\n    tag_231:\n        /* \"#utility.yul\":15141:15147   */\n      0x00\n        /* \"#utility.yul\":15192:15194   */\n      0x1f\n        /* \"#utility.yul\":15188:15195   */\n      not\n        /* \"#utility.yul\":15183:15185   */\n      0x1f\n        /* \"#utility.yul\":15176:15181   */\n      dup4\n        /* \"#utility.yul\":15172:15186   */\n      add\n        /* \"#utility.yul\":15168:15196   */\n      and\n        /* \"#utility.yul\":15158:15196   */\n      swap1\n      pop\n        /* \"#utility.yul\":15100:15202   */\n      swap2\n      swap1\n      pop\n      jump\t// out\n        /* \"#utility.yul\":15208:15302   */\n    tag_349:\n        /* \"#utility.yul\":15241:15249   */\n      0x00\n        /* \"#utility.yul\":15289:15294   */\n      dup2\n        /* \"#utility.yul\":15285:15287   */\n      0x60\n        /* \"#utility.yul\":15281:15295   */\n      shl\n        /* \"#utility.yul\":15260:15295   */\n      swap1\n      pop\n        /* \"#utility.yul\":15208:15302   */\n      swap2\n      swap1\n      pop\n      jump\t// out\n        /* \"#utility.yul\":15308:15472   */\n    tag_243:\n        /* \"#utility.yul\":15448:15464   */\n      0x416c726561647920766f7465642e000000000000000000000000000000000000\n        /* \"#utility.yul\":15444:15445   */\n      0x00\n        /* \"#utility.yul\":15436:15442   */\n      dup3\n        /* \"#utility.yul\":15432:15446   */\n      add\n        /* \"#utility.yul\":15425:15465   */\n      mstore\n        /* \"#utility.yul\":15308:15472   */\n      pop\n      jump\t// out\n        /* \"#utility.yul\":15478:15652   */\n    tag_248:\n        /* \"#utility.yul\":15618:15644   */\n      0x54686520766f74657220616c726561647920766f7465642e0000000000000000\n        /* \"#utility.yul\":15614:15615   */\n      0x00\n        /* \"#utility.yul\":15606:15612   */\n      dup3\n        /* \"#utility.yul\":15602:15616   */\n      add\n        /* \"#utility.yul\":15595:15645   */\n      mstore\n        /* \"#utility.yul\":15478:15652   */\n      pop\n      jump\t// out\n        /* \"#utility.yul\":15658:15780   */\n    tag_185:\n        /* \"#utility.yul\":15731:15755   */\n      tag_371\n        /* \"#utility.yul\":15749:15754   */\n      dup2\n        /* \"#utility.yul\":15731:15755   */\n      tag_216\n      jump\t// in\n    tag_371:\n        /* \"#utility.yul\":15724:15729   */\n      dup2\n        /* \"#utility.yul\":15721:15756   */\n      eq\n        /* \"#utility.yul\":15711:15774   */\n      tag_372\n      jumpi\n        /* \"#utility.yul\":15770:15771   */\n      0x00\n        /* \"#utility.yul\":15767:15768   */\n      dup1\n        /* \"#utility.yul\":15760:15772   */\n      revert\n        /* \"#utility.yul\":15711:15774   */\n    tag_372:\n        /* \"#utility.yul\":15658:15780   */\n      pop\n      jump\t// out\n        /* \"#utility.yul\":15786:15908   */\n    tag_195:\n        /* \"#utility.yul\":15859:15883   */\n      tag_374\n        /* \"#utility.yul\":15877:15882   */\n      dup2\n        /* \"#utility.yul\":15859:15883   */\n      tag_266\n      jump\t// in\n    tag_374:\n        /* \"#utility.yul\":15852:15857   */\n      dup2\n        /* \"#utility.yul\":15849:15884   */\n      eq\n        /* \"#utility.yul\":15839:15902   */\n      tag_375\n      jumpi\n        /* \"#utility.yul\":15898:15899   */\n      0x00\n        /* \"#utility.yul\":15895:15896   */\n      dup1\n        /* \"#utility.yul\":15888:15900   */\n      revert\n        /* \"#utility.yul\":15839:15902   */\n    tag_375:\n        /* \"#utility.yul\":15786:15908   */\n      pop\n      jump\t// out\n\n    auxdata: 0xa2646970667358221220dd5f234195d0e34559960af677c764ce2fef1e891f3ce86739b3ad292344301b64736f6c63430008070033\n}\n",
				"bytecode": {
					"linkReferences": {},
					"object": "6080604052600060045560006005553480156200001b57600080fd5b50336000806101000a81548173ffffffffffffffffffffffffffffffffffffffff021916908373ffffffffffffffffffffffffffffffffffffffff16021790555060018060008060009054906101000a900473ffffffffffffffffffffffffffffffffffffffff1673ffffffffffffffffffffffffffffffffffffffff1673ffffffffffffffffffffffffffffffffffffffff1681526020019081526020016000206000018190555060006040518060a001604052806040518060400160405280600181526020017f610000000000000000000000000000000000000000000000000000000000000081525081526020016040518060400160405280600181526020017f620000000000000000000000000000000000000000000000000000000000000081525081526020016040518060400160405280600181526020017f630000000000000000000000000000000000000000000000000000000000000081525081526020016040518060400160405280600181526020017f640000000000000000000000000000000000000000000000000000000000000081525081526020016040518060400160405280600181526020017f65000000000000000000000000000000000000000000000000000000000000008152508152509050600580146200023e576040517f08c379a0000000000000000000000000000000000000000000000000000000008152600401620002359062000475565b60405180910390fd5b60005b6005811015620003965760026040518061018001604052808484600581106200026f576200026e62000594565b5b6020020151815260200160008152602001600081526020016000815260200160008152602001600081526020016000815260200160008152602001600081526020016000815260200160008152602001600081525090806001815401808255809150506001900390600052602060002090600c020160009091909190915060008201518160000190805190602001906200030b9291906200039e565b506020820151816001015560408201518160020155606082015181600301556080820151816004015560a0820151816005015560c0820151816006015560e082015181600701556101008201518160080155610120820151816009015561014082015181600a015561016082015181600b0155505080806200038d90620004e8565b91505062000241565b5050620005ec565b828054620003ac90620004b2565b90600052602060002090601f016020900481019282620003d057600085556200041c565b82601f10620003eb57805160ff19168380011785556200041c565b828001600101855582156200041c579182015b828111156200041b578251825591602001919060010190620003fe565b5b5090506200042b91906200042f565b5090565b5b808211156200044a57600081600090555060010162000430565b5090565b60006200045d60158362000497565b91506200046a82620005c3565b602082019050919050565b6000602082019050818103600083015262000490816200044e565b9050919050565b600082825260208201905092915050565b6000819050919050565b60006002820490506001821680620004cb57607f821691505b60208210811415620004e257620004e162000565565b5b50919050565b6000620004f582620004a8565b91507fffffffffffffffffffffffffffffffffffffffffffffffffffffffffffffffff8214156200052b576200052a62000536565b5b600182019050919050565b7f4e487b7100000000000000000000000000000000000000000000000000000000600052601160045260246000fd5b7f4e487b7100000000000000000000000000000000000000000000000000000000600052602260045260246000fd5b7f4e487b7100000000000000000000000000000000000000000000000000000000600052603260045260246000fd5b7f43616e64696461746573206d75737420626520352e0000000000000000000000600082015250565b61142f80620005fc6000396000f3fe608060405234801561001057600080fd5b50600436106100625760003560e01c80635a9b0b89146100675780636dd7d8ea14610085578063937f6e77146100a1578063a3ec138d146100bd578063cfa1f037146100f0578063d4e8fd2e1461010e575b600080fd5b61006f61013e565b60405161007c9190610eb5565b60405180910390f35b61009f600480360381019061009a9190610bbe565b6101d0565b005b6100bb60048036038101906100b69190610beb565b6107d2565b005b6100d760048036038101906100d29190610bbe565b6107ec565b6040516100e79493929190610f54565b60405180910390f35b6100f8610829565b6040516101059190610f39565b60405180910390f35b61012860048036038101906101239190610c34565b61086a565b6040516101359190610f17565b60405180910390f35b60606003805461014d9061119a565b80601f01602080910402602001604051908101604052809291908181526020018280546101799061119a565b80156101c65780601f1061019b576101008083540402835291602001916101c6565b820191906000526020600020905b8154815290600101906020018083116101a957829003601f168201915b5050505050905090565b600160008273ffffffffffffffffffffffffffffffffffffffff1673ffffffffffffffffffffffffffffffffffffffff16815260200190815260200160002060010160009054906101000a900460ff1615610260576040517f08c379a000000000000000000000000000000000000000000000000000000000815260040161025790610ef7565b60405180910390fd5b6000600160008373ffffffffffffffffffffffffffffffffffffffff1673ffffffffffffffffffffffffffffffffffffffff16815260200190815260200160002060000154146102af57600080fd5b60018060008373ffffffffffffffffffffffffffffffffffffffff1673ffffffffffffffffffffffffffffffffffffffff168152602001908152602001600020600001819055506102fe6109a7565b6103066109c3565b600160008373ffffffffffffffffffffffffffffffffffffffff1673ffffffffffffffffffffffffffffffffffffffff168152602001908152602001600020600201819055506000600160008373ffffffffffffffffffffffffffffffffffffffff1673ffffffffffffffffffffffffffffffffffffffff16815260200190815260200160002090508060010160009054906101000a900460ff16156103e1576040517f08c379a00000000000000000000000000000000000000000000000000000000081526004016103d890610ed7565b60405180910390fd5b60018160010160006101000a81548160ff021916908315150217905550610406610829565b81600301819055508060000154600261041d610829565b8154811061042e5761042d6112e9565b5b90600052602060002090600c0201600101600082825461044e91906110b0565b925050819055506000816002015414156104ae5780600001546002610471610829565b81548110610482576104816112e9565b5b90600052602060002090600c020160020160008282546104a291906110b0565b925050819055506107c6565b60018160020154141561050757806000015460026104ca610829565b815481106104db576104da6112e9565b5b90600052602060002090600c020160030160008282546104fb91906110b0565b925050819055506107c5565b6002816002015414156105605780600001546002610523610829565b81548110610534576105336112e9565b5b90600052602060002090600c0201600401600082825461055491906110b0565b925050819055506107c4565b6003816002015414156105b9578060000154600261057c610829565b8154811061058d5761058c6112e9565b5b90600052602060002090600c020160050160008282546105ad91906110b0565b925050819055506107c3565b60048160020154141561061257806000015460026105d5610829565b815481106105e6576105e56112e9565b5b90600052602060002090600c0201600601600082825461060691906110b0565b925050819055506107c2565b60058160020154141561066b578060000154600261062e610829565b8154811061063f5761063e6112e9565b5b90600052602060002090600c0201600701600082825461065f91906110b0565b925050819055506107c1565b6006816002015414156106c45780600001546002610687610829565b81548110610698576106976112e9565b5b90600052602060002090600c020160080160008282546106b891906110b0565b925050819055506107c0565b60078160020154141561071d57806000015460026106e0610829565b815481106106f1576106f06112e9565b5b90600052602060002090600c0201600901600082825461071191906110b0565b925050819055506107bf565b6008816002015414156107765780600001546002610739610829565b8154811061074a576107496112e9565b5b90600052602060002090600c0201600a01600082825461076a91906110b0565b925050819055506107be565b80600001546002610785610829565b81548110610796576107956112e9565b5b90600052602060002090600c0201600b0160008282546107b691906110b0565b925050819055505b5b5b5b5b5b5b5b5b6107ce610a04565b5050565b80600390805190602001906107e8929190610a20565b5050565b60016020528060005260406000206000915090508060000154908060010160009054906101000a900460ff16908060020154908060030154905084565b6000600542443360405160200161084293929190610e78565b6040516020818303038152906040528051906020012060001c610865919061122b565b905090565b610872610aa6565b60028281548110610886576108856112e9565b5b90600052602060002090600c0201604051806101800160405290816000820180546108b09061119a565b80601f01602080910402602001604051908101604052809291908181526020018280546108dc9061119a565b80156109295780601f106108fe57610100808354040283529160200191610929565b820191906000526020600020905b81548152906001019060200180831161090c57829003601f168201915b50505050508152602001600182015481526020016002820154815260200160038201548152602001600482015481526020016005820154815260200160068201548152602001600782015481526020016008820154815260200160098201548152602001600a8201548152602001600b820154815250509050919050565b6001600460008282546109ba919061101c565b92505081905550565b6000600a4244336040516020016109dc93929190610e78565b6040516020818303038152906040528051906020012060001c6109ff919061122b565b905090565b600160056000828254610a17919061101c565b92505081905550565b828054610a2c9061119a565b90600052602060002090601f016020900481019282610a4e5760008555610a95565b82601f10610a6757805160ff1916838001178555610a95565b82800160010185558215610a95579182015b82811115610a94578251825591602001919060010190610a79565b5b509050610aa29190610b07565b5090565b6040518061018001604052806060815260200160008152602001600081526020016000815260200160008152602001600081526020016000815260200160008152602001600081526020016000815260200160008152602001600081525090565b5b80821115610b20576000816000905550600101610b08565b5090565b6000610b37610b3284610fbe565b610f99565b905082815260208101848484011115610b5357610b5261134c565b5b610b5e848285611158565b509392505050565b600081359050610b75816113cb565b92915050565b600082601f830112610b9057610b8f611347565b5b8135610ba0848260208601610b24565b91505092915050565b600081359050610bb8816113e2565b92915050565b600060208284031215610bd457610bd3611356565b5b6000610be284828501610b66565b91505092915050565b600060208284031215610c0157610c00611356565b5b600082013567ffffffffffffffff811115610c1f57610c1e611351565b5b610c2b84828501610b7b565b91505092915050565b600060208284031215610c4a57610c49611356565b5b6000610c5884828501610ba9565b91505092915050565b610c72610c6d82611106565b6111fd565b82525050565b610c8181611118565b82525050565b6000610c9282610fef565b610c9c8185610ffa565b9350610cac818560208601611167565b610cb58161135b565b840191505092915050565b6000610ccb82610fef565b610cd5818561100b565b9350610ce5818560208601611167565b610cee8161135b565b840191505092915050565b6000610d06600e8361100b565b9150610d1182611379565b602082019050919050565b6000610d2960188361100b565b9150610d34826113a2565b602082019050919050565b6000610180830160008301518482036000860152610d5d8282610c87565b9150506020830151610d726020860182610e43565b506040830151610d856040860182610e43565b506060830151610d986060860182610e43565b506080830151610dab6080860182610e43565b5060a0830151610dbe60a0860182610e43565b5060c0830151610dd160c0860182610e43565b5060e0830151610de460e0860182610e43565b50610100830151610df9610100860182610e43565b50610120830151610e0e610120860182610e43565b50610140830151610e23610140860182610e43565b50610160830151610e38610160860182610e43565b508091505092915050565b610e4c8161114e565b82525050565b610e5b8161114e565b82525050565b610e72610e6d8261114e565b611221565b82525050565b6000610e848286610e61565b602082019150610e948285610e61565b602082019150610ea48284610c61565b601482019150819050949350505050565b60006020820190508181036000830152610ecf8184610cc0565b905092915050565b60006020820190508181036000830152610ef081610cf9565b9050919050565b60006020820190508181036000830152610f1081610d1c565b9050919050565b60006020820190508181036000830152610f318184610d3f565b905092915050565b6000602082019050610f4e6000830184610e52565b92915050565b6000608082019050610f696000830187610e52565b610f766020830186610c78565b610f836040830185610e52565b610f906060830184610e52565b95945050505050565b6000610fa3610fb4565b9050610faf82826111cc565b919050565b6000604051905090565b600067ffffffffffffffff821115610fd957610fd8611318565b5b610fe28261135b565b9050602081019050919050565b600081519050919050565b600082825260208201905092915050565b600082825260208201905092915050565b600061102782611124565b915061103283611124565b9250817f7fffffffffffffffffffffffffffffffffffffffffffffffffffffffffffffff0383136000831215161561106d5761106c61125c565b5b817f80000000000000000000000000000000000000000000000000000000000000000383126000831216156110a5576110a461125c565b5b828201905092915050565b60006110bb8261114e565b91506110c68361114e565b9250827fffffffffffffffffffffffffffffffffffffffffffffffffffffffffffffffff038211156110fb576110fa61125c565b5b828201905092915050565b60006111118261112e565b9050919050565b60008115159050919050565b6000819050919050565b600073ffffffffffffffffffffffffffffffffffffffff82169050919050565b6000819050919050565b82818337600083830152505050565b60005b8381101561118557808201518184015260208101905061116a565b83811115611194576000848401525b50505050565b600060028204905060018216806111b257607f821691505b602082108114156111c6576111c56112ba565b5b50919050565b6111d58261135b565b810181811067ffffffffffffffff821117156111f4576111f3611318565b5b80604052505050565b60006112088261120f565b9050919050565b600061121a8261136c565b9050919050565b6000819050919050565b60006112368261114e565b91506112418361114e565b9250826112515761125061128b565b5b828206905092915050565b7f4e487b7100000000000000000000000000000000000000000000000000000000600052601160045260246000fd5b7f4e487b7100000000000000000000000000000000000000000000000000000000600052601260045260246000fd5b7f4e487b7100000000000000000000000000000000000000000000000000000000600052602260045260246000fd5b7f4e487b7100000000000000000000000000000000000000000000000000000000600052603260045260246000fd5b7f4e487b7100000000000000000000000000000000000000000000000000000000600052604160045260246000fd5b600080fd5b600080fd5b600080fd5b600080fd5b6000601f19601f8301169050919050565b60008160601b9050919050565b7f416c726561647920766f7465642e000000000000000000000000000000000000600082015250565b7f54686520766f74657220616c726561647920766f7465642e0000000000000000600082015250565b6113d481611106565b81146113df57600080fd5b50565b6113eb8161114e565b81146113f657600080fd5b5056fea2646970667358221220dd5f234195d0e34559960af677c764ce2fef1e891f3ce86739b3ad292344301b64736f6c63430008070033",
					"opcodes": "PUSH1 0x80 PUSH1 0x40 MSTORE PUSH1 0x0 PUSH1 0x4 SSTORE PUSH1 0x0 PUSH1 0x5 SSTORE CALLVALUE DUP1 ISZERO PUSH3 0x1B JUMPI PUSH1 0x0 DUP1 REVERT JUMPDEST POP CALLER PUSH1 0x0 DUP1 PUSH2 0x100 EXP DUP2 SLOAD DUP2 PUSH20 0xFFFFFFFFFFFFFFFFFFFFFFFFFFFFFFFFFFFFFFFF MUL NOT AND SWAP1 DUP4 PUSH20 0xFFFFFFFFFFFFFFFFFFFFFFFFFFFFFFFFFFFFFFFF AND MUL OR SWAP1 SSTORE POP PUSH1 0x1 DUP1 PUSH1 0x0 DUP1 PUSH1 0x0 SWAP1 SLOAD SWAP1 PUSH2 0x100 EXP SWAP1 DIV PUSH20 0xFFFFFFFFFFFFFFFFFFFFFFFFFFFFFFFFFFFFFFFF AND PUSH20 0xFFFFFFFFFFFFFFFFFFFFFFFFFFFFFFFFFFFFFFFF AND PUSH20 0xFFFFFFFFFFFFFFFFFFFFFFFFFFFFFFFFFFFFFFFF AND DUP2 MSTORE PUSH1 0x20 ADD SWAP1 DUP2 MSTORE PUSH1 0x20 ADD PUSH1 0x0 KECCAK256 PUSH1 0x0 ADD DUP2 SWAP1 SSTORE POP PUSH1 0x0 PUSH1 0x40 MLOAD DUP1 PUSH1 0xA0 ADD PUSH1 0x40 MSTORE DUP1 PUSH1 0x40 MLOAD DUP1 PUSH1 0x40 ADD PUSH1 0x40 MSTORE DUP1 PUSH1 0x1 DUP2 MSTORE PUSH1 0x20 ADD PUSH32 0x6100000000000000000000000000000000000000000000000000000000000000 DUP2 MSTORE POP DUP2 MSTORE PUSH1 0x20 ADD PUSH1 0x40 MLOAD DUP1 PUSH1 0x40 ADD PUSH1 0x40 MSTORE DUP1 PUSH1 0x1 DUP2 MSTORE PUSH1 0x20 ADD PUSH32 0x6200000000000000000000000000000000000000000000000000000000000000 DUP2 MSTORE POP DUP2 MSTORE PUSH1 0x20 ADD PUSH1 0x40 MLOAD DUP1 PUSH1 0x40 ADD PUSH1 0x40 MSTORE DUP1 PUSH1 0x1 DUP2 MSTORE PUSH1 0x20 ADD PUSH32 0x6300000000000000000000000000000000000000000000000000000000000000 DUP2 MSTORE POP DUP2 MSTORE PUSH1 0x20 ADD PUSH1 0x40 MLOAD DUP1 PUSH1 0x40 ADD PUSH1 0x40 MSTORE DUP1 PUSH1 0x1 DUP2 MSTORE PUSH1 0x20 ADD PUSH32 0x6400000000000000000000000000000000000000000000000000000000000000 DUP2 MSTORE POP DUP2 MSTORE PUSH1 0x20 ADD PUSH1 0x40 MLOAD DUP1 PUSH1 0x40 ADD PUSH1 0x40 MSTORE DUP1 PUSH1 0x1 DUP2 MSTORE PUSH1 0x20 ADD PUSH32 0x6500000000000000000000000000000000000000000000000000000000000000 DUP2 MSTORE POP DUP2 MSTORE POP SWAP1 POP PUSH1 0x5 DUP1 EQ PUSH3 0x23E JUMPI PUSH1 0x40 MLOAD PUSH32 0x8C379A000000000000000000000000000000000000000000000000000000000 DUP2 MSTORE PUSH1 0x4 ADD PUSH3 0x235 SWAP1 PUSH3 0x475 JUMP JUMPDEST PUSH1 0x40 MLOAD DUP1 SWAP2 SUB SWAP1 REVERT JUMPDEST PUSH1 0x0 JUMPDEST PUSH1 0x5 DUP2 LT ISZERO PUSH3 0x396 JUMPI PUSH1 0x2 PUSH1 0x40 MLOAD DUP1 PUSH2 0x180 ADD PUSH1 0x40 MSTORE DUP1 DUP5 DUP5 PUSH1 0x5 DUP2 LT PUSH3 0x26F JUMPI PUSH3 0x26E PUSH3 0x594 JUMP JUMPDEST JUMPDEST PUSH1 0x20 MUL ADD MLOAD DUP2 MSTORE PUSH1 0x20 ADD PUSH1 0x0 DUP2 MSTORE PUSH1 0x20 ADD PUSH1 0x0 DUP2 MSTORE PUSH1 0x20 ADD PUSH1 0x0 DUP2 MSTORE PUSH1 0x20 ADD PUSH1 0x0 DUP2 MSTORE PUSH1 0x20 ADD PUSH1 0x0 DUP2 MSTORE PUSH1 0x20 ADD PUSH1 0x0 DUP2 MSTORE PUSH1 0x20 ADD PUSH1 0x0 DUP2 MSTORE PUSH1 0x20 ADD PUSH1 0x0 DUP2 MSTORE PUSH1 0x20 ADD PUSH1 0x0 DUP2 MSTORE PUSH1 0x20 ADD PUSH1 0x0 DUP2 MSTORE PUSH1 0x20 ADD PUSH1 0x0 DUP2 MSTORE POP SWAP1 DUP1 PUSH1 0x1 DUP2 SLOAD ADD DUP1 DUP3 SSTORE DUP1 SWAP2 POP POP PUSH1 0x1 SWAP1 SUB SWAP1 PUSH1 0x0 MSTORE PUSH1 0x20 PUSH1 0x0 KECCAK256 SWAP1 PUSH1 0xC MUL ADD PUSH1 0x0 SWAP1 SWAP2 SWAP1 SWAP2 SWAP1 SWAP2 POP PUSH1 0x0 DUP3 ADD MLOAD DUP2 PUSH1 0x0 ADD SWAP1 DUP1 MLOAD SWAP1 PUSH1 0x20 ADD SWAP1 PUSH3 0x30B SWAP3 SWAP2 SWAP1 PUSH3 0x39E JUMP JUMPDEST POP PUSH1 0x20 DUP3 ADD MLOAD DUP2 PUSH1 0x1 ADD SSTORE PUSH1 0x40 DUP3 ADD MLOAD DUP2 PUSH1 0x2 ADD SSTORE PUSH1 0x60 DUP3 ADD MLOAD DUP2 PUSH1 0x3 ADD SSTORE PUSH1 0x80 DUP3 ADD MLOAD DUP2 PUSH1 0x4 ADD SSTORE PUSH1 0xA0 DUP3 ADD MLOAD DUP2 PUSH1 0x5 ADD SSTORE PUSH1 0xC0 DUP3 ADD MLOAD DUP2 PUSH1 0x6 ADD SSTORE PUSH1 0xE0 DUP3 ADD MLOAD DUP2 PUSH1 0x7 ADD SSTORE PUSH2 0x100 DUP3 ADD MLOAD DUP2 PUSH1 0x8 ADD SSTORE PUSH2 0x120 DUP3 ADD MLOAD DUP2 PUSH1 0x9 ADD SSTORE PUSH2 0x140 DUP3 ADD MLOAD DUP2 PUSH1 0xA ADD SSTORE PUSH2 0x160 DUP3 ADD MLOAD DUP2 PUSH1 0xB ADD SSTORE POP POP DUP1 DUP1 PUSH3 0x38D SWAP1 PUSH3 0x4E8 JUMP JUMPDEST SWAP2 POP POP PUSH3 0x241 JUMP JUMPDEST POP POP PUSH3 0x5EC JUMP JUMPDEST DUP3 DUP1 SLOAD PUSH3 0x3AC SWAP1 PUSH3 0x4B2 JUMP JUMPDEST SWAP1 PUSH1 0x0 MSTORE PUSH1 0x20 PUSH1 0x0 KECCAK256 SWAP1 PUSH1 0x1F ADD PUSH1 0x20 SWAP1 DIV DUP2 ADD SWAP3 DUP3 PUSH3 0x3D0 JUMPI PUSH1 0x0 DUP6 SSTORE PUSH3 0x41C JUMP JUMPDEST DUP3 PUSH1 0x1F LT PUSH3 0x3EB JUMPI DUP1 MLOAD PUSH1 0xFF NOT AND DUP4 DUP1 ADD OR DUP6 SSTORE PUSH3 0x41C JUMP JUMPDEST DUP3 DUP1 ADD PUSH1 0x1 ADD DUP6 SSTORE DUP3 ISZERO PUSH3 0x41C JUMPI SWAP2 DUP3 ADD JUMPDEST DUP3 DUP2 GT ISZERO PUSH3 0x41B JUMPI DUP3 MLOAD DUP3 SSTORE SWAP2 PUSH1 0x20 ADD SWAP2 SWAP1 PUSH1 0x1 ADD SWAP1 PUSH3 0x3FE JUMP JUMPDEST JUMPDEST POP SWAP1 POP PUSH3 0x42B SWAP2 SWAP1 PUSH3 0x42F JUMP JUMPDEST POP SWAP1 JUMP JUMPDEST JUMPDEST DUP1 DUP3 GT ISZERO PUSH3 0x44A JUMPI PUSH1 0x0 DUP2 PUSH1 0x0 SWAP1 SSTORE POP PUSH1 0x1 ADD PUSH3 0x430 JUMP JUMPDEST POP SWAP1 JUMP JUMPDEST PUSH1 0x0 PUSH3 0x45D PUSH1 0x15 DUP4 PUSH3 0x497 JUMP JUMPDEST SWAP2 POP PUSH3 0x46A DUP3 PUSH3 0x5C3 JUMP JUMPDEST PUSH1 0x20 DUP3 ADD SWAP1 POP SWAP2 SWAP1 POP JUMP JUMPDEST PUSH1 0x0 PUSH1 0x20 DUP3 ADD SWAP1 POP DUP2 DUP2 SUB PUSH1 0x0 DUP4 ADD MSTORE PUSH3 0x490 DUP2 PUSH3 0x44E JUMP JUMPDEST SWAP1 POP SWAP2 SWAP1 POP JUMP JUMPDEST PUSH1 0x0 DUP3 DUP3 MSTORE PUSH1 0x20 DUP3 ADD SWAP1 POP SWAP3 SWAP2 POP POP JUMP JUMPDEST PUSH1 0x0 DUP2 SWAP1 POP SWAP2 SWAP1 POP JUMP JUMPDEST PUSH1 0x0 PUSH1 0x2 DUP3 DIV SWAP1 POP PUSH1 0x1 DUP3 AND DUP1 PUSH3 0x4CB JUMPI PUSH1 0x7F DUP3 AND SWAP2 POP JUMPDEST PUSH1 0x20 DUP3 LT DUP2 EQ ISZERO PUSH3 0x4E2 JUMPI PUSH3 0x4E1 PUSH3 0x565 JUMP JUMPDEST JUMPDEST POP SWAP2 SWAP1 POP JUMP JUMPDEST PUSH1 0x0 PUSH3 0x4F5 DUP3 PUSH3 0x4A8 JUMP JUMPDEST SWAP2 POP PUSH32 0xFFFFFFFFFFFFFFFFFFFFFFFFFFFFFFFFFFFFFFFFFFFFFFFFFFFFFFFFFFFFFFFF DUP3 EQ ISZERO PUSH3 0x52B JUMPI PUSH3 0x52A PUSH3 0x536 JUMP JUMPDEST JUMPDEST PUSH1 0x1 DUP3 ADD SWAP1 POP SWAP2 SWAP1 POP JUMP JUMPDEST PUSH32 0x4E487B7100000000000000000000000000000000000000000000000000000000 PUSH1 0x0 MSTORE PUSH1 0x11 PUSH1 0x4 MSTORE PUSH1 0x24 PUSH1 0x0 REVERT JUMPDEST PUSH32 0x4E487B7100000000000000000000000000000000000000000000000000000000 PUSH1 0x0 MSTORE PUSH1 0x22 PUSH1 0x4 MSTORE PUSH1 0x24 PUSH1 0x0 REVERT JUMPDEST PUSH32 0x4E487B7100000000000000000000000000000000000000000000000000000000 PUSH1 0x0 MSTORE PUSH1 0x32 PUSH1 0x4 MSTORE PUSH1 0x24 PUSH1 0x0 REVERT JUMPDEST PUSH32 0x43616E64696461746573206D75737420626520352E0000000000000000000000 PUSH1 0x0 DUP3 ADD MSTORE POP JUMP JUMPDEST PUSH2 0x142F DUP1 PUSH3 0x5FC PUSH1 0x0 CODECOPY PUSH1 0x0 RETURN INVALID PUSH1 0x80 PUSH1 0x40 MSTORE CALLVALUE DUP1 ISZERO PUSH2 0x10 JUMPI PUSH1 0x0 DUP1 REVERT JUMPDEST POP PUSH1 0x4 CALLDATASIZE LT PUSH2 0x62 JUMPI PUSH1 0x0 CALLDATALOAD PUSH1 0xE0 SHR DUP1 PUSH4 0x5A9B0B89 EQ PUSH2 0x67 JUMPI DUP1 PUSH4 0x6DD7D8EA EQ PUSH2 0x85 JUMPI DUP1 PUSH4 0x937F6E77 EQ PUSH2 0xA1 JUMPI DUP1 PUSH4 0xA3EC138D EQ PUSH2 0xBD JUMPI DUP1 PUSH4 0xCFA1F037 EQ PUSH2 0xF0 JUMPI DUP1 PUSH4 0xD4E8FD2E EQ PUSH2 0x10E JUMPI JUMPDEST PUSH1 0x0 DUP1 REVERT JUMPDEST PUSH2 0x6F PUSH2 0x13E JUMP JUMPDEST PUSH1 0x40 MLOAD PUSH2 0x7C SWAP2 SWAP1 PUSH2 0xEB5 JUMP JUMPDEST PUSH1 0x40 MLOAD DUP1 SWAP2 SUB SWAP1 RETURN JUMPDEST PUSH2 0x9F PUSH1 0x4 DUP1 CALLDATASIZE SUB DUP2 ADD SWAP1 PUSH2 0x9A SWAP2 SWAP1 PUSH2 0xBBE JUMP JUMPDEST PUSH2 0x1D0 JUMP JUMPDEST STOP JUMPDEST PUSH2 0xBB PUSH1 0x4 DUP1 CALLDATASIZE SUB DUP2 ADD SWAP1 PUSH2 0xB6 SWAP2 SWAP1 PUSH2 0xBEB JUMP JUMPDEST PUSH2 0x7D2 JUMP JUMPDEST STOP JUMPDEST PUSH2 0xD7 PUSH1 0x4 DUP1 CALLDATASIZE SUB DUP2 ADD SWAP1 PUSH2 0xD2 SWAP2 SWAP1 PUSH2 0xBBE JUMP JUMPDEST PUSH2 0x7EC JUMP JUMPDEST PUSH1 0x40 MLOAD PUSH2 0xE7 SWAP5 SWAP4 SWAP3 SWAP2 SWAP1 PUSH2 0xF54 JUMP JUMPDEST PUSH1 0x40 MLOAD DUP1 SWAP2 SUB SWAP1 RETURN JUMPDEST PUSH2 0xF8 PUSH2 0x829 JUMP JUMPDEST PUSH1 0x40 MLOAD PUSH2 0x105 SWAP2 SWAP1 PUSH2 0xF39 JUMP JUMPDEST PUSH1 0x40 MLOAD DUP1 SWAP2 SUB SWAP1 RETURN JUMPDEST PUSH2 0x128 PUSH1 0x4 DUP1 CALLDATASIZE SUB DUP2 ADD SWAP1 PUSH2 0x123 SWAP2 SWAP1 PUSH2 0xC34 JUMP JUMPDEST PUSH2 0x86A JUMP JUMPDEST PUSH1 0x40 MLOAD PUSH2 0x135 SWAP2 SWAP1 PUSH2 0xF17 JUMP JUMPDEST PUSH1 0x40 MLOAD DUP1 SWAP2 SUB SWAP1 RETURN JUMPDEST PUSH1 0x60 PUSH1 0x3 DUP1 SLOAD PUSH2 0x14D SWAP1 PUSH2 0x119A JUMP JUMPDEST DUP1 PUSH1 0x1F ADD PUSH1 0x20 DUP1 SWAP2 DIV MUL PUSH1 0x20 ADD PUSH1 0x40 MLOAD SWAP1 DUP2 ADD PUSH1 0x40 MSTORE DUP1 SWAP3 SWAP2 SWAP1 DUP2 DUP2 MSTORE PUSH1 0x20 ADD DUP3 DUP1 SLOAD PUSH2 0x179 SWAP1 PUSH2 0x119A JUMP JUMPDEST DUP1 ISZERO PUSH2 0x1C6 JUMPI DUP1 PUSH1 0x1F LT PUSH2 0x19B JUMPI PUSH2 0x100 DUP1 DUP4 SLOAD DIV MUL DUP4 MSTORE SWAP2 PUSH1 0x20 ADD SWAP2 PUSH2 0x1C6 JUMP JUMPDEST DUP3 ADD SWAP2 SWAP1 PUSH1 0x0 MSTORE PUSH1 0x20 PUSH1 0x0 KECCAK256 SWAP1 JUMPDEST DUP2 SLOAD DUP2 MSTORE SWAP1 PUSH1 0x1 ADD SWAP1 PUSH1 0x20 ADD DUP1 DUP4 GT PUSH2 0x1A9 JUMPI DUP3 SWAP1 SUB PUSH1 0x1F AND DUP3 ADD SWAP2 JUMPDEST POP POP POP POP POP SWAP1 POP SWAP1 JUMP JUMPDEST PUSH1 0x1 PUSH1 0x0 DUP3 PUSH20 0xFFFFFFFFFFFFFFFFFFFFFFFFFFFFFFFFFFFFFFFF AND PUSH20 0xFFFFFFFFFFFFFFFFFFFFFFFFFFFFFFFFFFFFFFFF AND DUP2 MSTORE PUSH1 0x20 ADD SWAP1 DUP2 MSTORE PUSH1 0x20 ADD PUSH1 0x0 KECCAK256 PUSH1 0x1 ADD PUSH1 0x0 SWAP1 SLOAD SWAP1 PUSH2 0x100 EXP SWAP1 DIV PUSH1 0xFF AND ISZERO PUSH2 0x260 JUMPI PUSH1 0x40 MLOAD PUSH32 0x8C379A000000000000000000000000000000000000000000000000000000000 DUP2 MSTORE PUSH1 0x4 ADD PUSH2 0x257 SWAP1 PUSH2 0xEF7 JUMP JUMPDEST PUSH1 0x40 MLOAD DUP1 SWAP2 SUB SWAP1 REVERT JUMPDEST PUSH1 0x0 PUSH1 0x1 PUSH1 0x0 DUP4 PUSH20 0xFFFFFFFFFFFFFFFFFFFFFFFFFFFFFFFFFFFFFFFF AND PUSH20 0xFFFFFFFFFFFFFFFFFFFFFFFFFFFFFFFFFFFFFFFF AND DUP2 MSTORE PUSH1 0x20 ADD SWAP1 DUP2 MSTORE PUSH1 0x20 ADD PUSH1 0x0 KECCAK256 PUSH1 0x0 ADD SLOAD EQ PUSH2 0x2AF JUMPI PUSH1 0x0 DUP1 REVERT JUMPDEST PUSH1 0x1 DUP1 PUSH1 0x0 DUP4 PUSH20 0xFFFFFFFFFFFFFFFFFFFFFFFFFFFFFFFFFFFFFFFF AND PUSH20 0xFFFFFFFFFFFFFFFFFFFFFFFFFFFFFFFFFFFFFFFF AND DUP2 MSTORE PUSH1 0x20 ADD SWAP1 DUP2 MSTORE PUSH1 0x20 ADD PUSH1 0x0 KECCAK256 PUSH1 0x0 ADD DUP2 SWAP1 SSTORE POP PUSH2 0x2FE PUSH2 0x9A7 JUMP JUMPDEST PUSH2 0x306 PUSH2 0x9C3 JUMP JUMPDEST PUSH1 0x1 PUSH1 0x0 DUP4 PUSH20 0xFFFFFFFFFFFFFFFFFFFFFFFFFFFFFFFFFFFFFFFF AND PUSH20 0xFFFFFFFFFFFFFFFFFFFFFFFFFFFFFFFFFFFFFFFF AND DUP2 MSTORE PUSH1 0x20 ADD SWAP1 DUP2 MSTORE PUSH1 0x20 ADD PUSH1 0x0 KECCAK256 PUSH1 0x2 ADD DUP2 SWAP1 SSTORE POP PUSH1 0x0 PUSH1 0x1 PUSH1 0x0 DUP4 PUSH20 0xFFFFFFFFFFFFFFFFFFFFFFFFFFFFFFFFFFFFFFFF AND PUSH20 0xFFFFFFFFFFFFFFFFFFFFFFFFFFFFFFFFFFFFFFFF AND DUP2 MSTORE PUSH1 0x20 ADD SWAP1 DUP2 MSTORE PUSH1 0x20 ADD PUSH1 0x0 KECCAK256 SWAP1 POP DUP1 PUSH1 0x1 ADD PUSH1 0x0 SWAP1 SLOAD SWAP1 PUSH2 0x100 EXP SWAP1 DIV PUSH1 0xFF AND ISZERO PUSH2 0x3E1 JUMPI PUSH1 0x40 MLOAD PUSH32 0x8C379A000000000000000000000000000000000000000000000000000000000 DUP2 MSTORE PUSH1 0x4 ADD PUSH2 0x3D8 SWAP1 PUSH2 0xED7 JUMP JUMPDEST PUSH1 0x40 MLOAD DUP1 SWAP2 SUB SWAP1 REVERT JUMPDEST PUSH1 0x1 DUP2 PUSH1 0x1 ADD PUSH1 0x0 PUSH2 0x100 EXP DUP2 SLOAD DUP2 PUSH1 0xFF MUL NOT AND SWAP1 DUP4 ISZERO ISZERO MUL OR SWAP1 SSTORE POP PUSH2 0x406 PUSH2 0x829 JUMP JUMPDEST DUP2 PUSH1 0x3 ADD DUP2 SWAP1 SSTORE POP DUP1 PUSH1 0x0 ADD SLOAD PUSH1 0x2 PUSH2 0x41D PUSH2 0x829 JUMP JUMPDEST DUP2 SLOAD DUP2 LT PUSH2 0x42E JUMPI PUSH2 0x42D PUSH2 0x12E9 JUMP JUMPDEST JUMPDEST SWAP1 PUSH1 0x0 MSTORE PUSH1 0x20 PUSH1 0x0 KECCAK256 SWAP1 PUSH1 0xC MUL ADD PUSH1 0x1 ADD PUSH1 0x0 DUP3 DUP3 SLOAD PUSH2 0x44E SWAP2 SWAP1 PUSH2 0x10B0 JUMP JUMPDEST SWAP3 POP POP DUP2 SWAP1 SSTORE POP PUSH1 0x0 DUP2 PUSH1 0x2 ADD SLOAD EQ ISZERO PUSH2 0x4AE JUMPI DUP1 PUSH1 0x0 ADD SLOAD PUSH1 0x2 PUSH2 0x471 PUSH2 0x829 JUMP JUMPDEST DUP2 SLOAD DUP2 LT PUSH2 0x482 JUMPI PUSH2 0x481 PUSH2 0x12E9 JUMP JUMPDEST JUMPDEST SWAP1 PUSH1 0x0 MSTORE PUSH1 0x20 PUSH1 0x0 KECCAK256 SWAP1 PUSH1 0xC MUL ADD PUSH1 0x2 ADD PUSH1 0x0 DUP3 DUP3 SLOAD PUSH2 0x4A2 SWAP2 SWAP1 PUSH2 0x10B0 JUMP JUMPDEST SWAP3 POP POP DUP2 SWAP1 SSTORE POP PUSH2 0x7C6 JUMP JUMPDEST PUSH1 0x1 DUP2 PUSH1 0x2 ADD SLOAD EQ ISZERO PUSH2 0x507 JUMPI DUP1 PUSH1 0x0 ADD SLOAD PUSH1 0x2 PUSH2 0x4CA PUSH2 0x829 JUMP JUMPDEST DUP2 SLOAD DUP2 LT PUSH2 0x4DB JUMPI PUSH2 0x4DA PUSH2 0x12E9 JUMP JUMPDEST JUMPDEST SWAP1 PUSH1 0x0 MSTORE PUSH1 0x20 PUSH1 0x0 KECCAK256 SWAP1 PUSH1 0xC MUL ADD PUSH1 0x3 ADD PUSH1 0x0 DUP3 DUP3 SLOAD PUSH2 0x4FB SWAP2 SWAP1 PUSH2 0x10B0 JUMP JUMPDEST SWAP3 POP POP DUP2 SWAP1 SSTORE POP PUSH2 0x7C5 JUMP JUMPDEST PUSH1 0x2 DUP2 PUSH1 0x2 ADD SLOAD EQ ISZERO PUSH2 0x560 JUMPI DUP1 PUSH1 0x0 ADD SLOAD PUSH1 0x2 PUSH2 0x523 PUSH2 0x829 JUMP JUMPDEST DUP2 SLOAD DUP2 LT PUSH2 0x534 JUMPI PUSH2 0x533 PUSH2 0x12E9 JUMP JUMPDEST JUMPDEST SWAP1 PUSH1 0x0 MSTORE PUSH1 0x20 PUSH1 0x0 KECCAK256 SWAP1 PUSH1 0xC MUL ADD PUSH1 0x4 ADD PUSH1 0x0 DUP3 DUP3 SLOAD PUSH2 0x554 SWAP2 SWAP1 PUSH2 0x10B0 JUMP JUMPDEST SWAP3 POP POP DUP2 SWAP1 SSTORE POP PUSH2 0x7C4 JUMP JUMPDEST PUSH1 0x3 DUP2 PUSH1 0x2 ADD SLOAD EQ ISZERO PUSH2 0x5B9 JUMPI DUP1 PUSH1 0x0 ADD SLOAD PUSH1 0x2 PUSH2 0x57C PUSH2 0x829 JUMP JUMPDEST DUP2 SLOAD DUP2 LT PUSH2 0x58D JUMPI PUSH2 0x58C PUSH2 0x12E9 JUMP JUMPDEST JUMPDEST SWAP1 PUSH1 0x0 MSTORE PUSH1 0x20 PUSH1 0x0 KECCAK256 SWAP1 PUSH1 0xC MUL ADD PUSH1 0x5 ADD PUSH1 0x0 DUP3 DUP3 SLOAD PUSH2 0x5AD SWAP2 SWAP1 PUSH2 0x10B0 JUMP JUMPDEST SWAP3 POP POP DUP2 SWAP1 SSTORE POP PUSH2 0x7C3 JUMP JUMPDEST PUSH1 0x4 DUP2 PUSH1 0x2 ADD SLOAD EQ ISZERO PUSH2 0x612 JUMPI DUP1 PUSH1 0x0 ADD SLOAD PUSH1 0x2 PUSH2 0x5D5 PUSH2 0x829 JUMP JUMPDEST DUP2 SLOAD DUP2 LT PUSH2 0x5E6 JUMPI PUSH2 0x5E5 PUSH2 0x12E9 JUMP JUMPDEST JUMPDEST SWAP1 PUSH1 0x0 MSTORE PUSH1 0x20 PUSH1 0x0 KECCAK256 SWAP1 PUSH1 0xC MUL ADD PUSH1 0x6 ADD PUSH1 0x0 DUP3 DUP3 SLOAD PUSH2 0x606 SWAP2 SWAP1 PUSH2 0x10B0 JUMP JUMPDEST SWAP3 POP POP DUP2 SWAP1 SSTORE POP PUSH2 0x7C2 JUMP JUMPDEST PUSH1 0x5 DUP2 PUSH1 0x2 ADD SLOAD EQ ISZERO PUSH2 0x66B JUMPI DUP1 PUSH1 0x0 ADD SLOAD PUSH1 0x2 PUSH2 0x62E PUSH2 0x829 JUMP JUMPDEST DUP2 SLOAD DUP2 LT PUSH2 0x63F JUMPI PUSH2 0x63E PUSH2 0x12E9 JUMP JUMPDEST JUMPDEST SWAP1 PUSH1 0x0 MSTORE PUSH1 0x20 PUSH1 0x0 KECCAK256 SWAP1 PUSH1 0xC MUL ADD PUSH1 0x7 ADD PUSH1 0x0 DUP3 DUP3 SLOAD PUSH2 0x65F SWAP2 SWAP1 PUSH2 0x10B0 JUMP JUMPDEST SWAP3 POP POP DUP2 SWAP1 SSTORE POP PUSH2 0x7C1 JUMP JUMPDEST PUSH1 0x6 DUP2 PUSH1 0x2 ADD SLOAD EQ ISZERO PUSH2 0x6C4 JUMPI DUP1 PUSH1 0x0 ADD SLOAD PUSH1 0x2 PUSH2 0x687 PUSH2 0x829 JUMP JUMPDEST DUP2 SLOAD DUP2 LT PUSH2 0x698 JUMPI PUSH2 0x697 PUSH2 0x12E9 JUMP JUMPDEST JUMPDEST SWAP1 PUSH1 0x0 MSTORE PUSH1 0x20 PUSH1 0x0 KECCAK256 SWAP1 PUSH1 0xC MUL ADD PUSH1 0x8 ADD PUSH1 0x0 DUP3 DUP3 SLOAD PUSH2 0x6B8 SWAP2 SWAP1 PUSH2 0x10B0 JUMP JUMPDEST SWAP3 POP POP DUP2 SWAP1 SSTORE POP PUSH2 0x7C0 JUMP JUMPDEST PUSH1 0x7 DUP2 PUSH1 0x2 ADD SLOAD EQ ISZERO PUSH2 0x71D JUMPI DUP1 PUSH1 0x0 ADD SLOAD PUSH1 0x2 PUSH2 0x6E0 PUSH2 0x829 JUMP JUMPDEST DUP2 SLOAD DUP2 LT PUSH2 0x6F1 JUMPI PUSH2 0x6F0 PUSH2 0x12E9 JUMP JUMPDEST JUMPDEST SWAP1 PUSH1 0x0 MSTORE PUSH1 0x20 PUSH1 0x0 KECCAK256 SWAP1 PUSH1 0xC MUL ADD PUSH1 0x9 ADD PUSH1 0x0 DUP3 DUP3 SLOAD PUSH2 0x711 SWAP2 SWAP1 PUSH2 0x10B0 JUMP JUMPDEST SWAP3 POP POP DUP2 SWAP1 SSTORE POP PUSH2 0x7BF JUMP JUMPDEST PUSH1 0x8 DUP2 PUSH1 0x2 ADD SLOAD EQ ISZERO PUSH2 0x776 JUMPI DUP1 PUSH1 0x0 ADD SLOAD PUSH1 0x2 PUSH2 0x739 PUSH2 0x829 JUMP JUMPDEST DUP2 SLOAD DUP2 LT PUSH2 0x74A JUMPI PUSH2 0x749 PUSH2 0x12E9 JUMP JUMPDEST JUMPDEST SWAP1 PUSH1 0x0 MSTORE PUSH1 0x20 PUSH1 0x0 KECCAK256 SWAP1 PUSH1 0xC MUL ADD PUSH1 0xA ADD PUSH1 0x0 DUP3 DUP3 SLOAD PUSH2 0x76A SWAP2 SWAP1 PUSH2 0x10B0 JUMP JUMPDEST SWAP3 POP POP DUP2 SWAP1 SSTORE POP PUSH2 0x7BE JUMP JUMPDEST DUP1 PUSH1 0x0 ADD SLOAD PUSH1 0x2 PUSH2 0x785 PUSH2 0x829 JUMP JUMPDEST DUP2 SLOAD DUP2 LT PUSH2 0x796 JUMPI PUSH2 0x795 PUSH2 0x12E9 JUMP JUMPDEST JUMPDEST SWAP1 PUSH1 0x0 MSTORE PUSH1 0x20 PUSH1 0x0 KECCAK256 SWAP1 PUSH1 0xC MUL ADD PUSH1 0xB ADD PUSH1 0x0 DUP3 DUP3 SLOAD PUSH2 0x7B6 SWAP2 SWAP1 PUSH2 0x10B0 JUMP JUMPDEST SWAP3 POP POP DUP2 SWAP1 SSTORE POP JUMPDEST JUMPDEST JUMPDEST JUMPDEST JUMPDEST JUMPDEST JUMPDEST JUMPDEST JUMPDEST PUSH2 0x7CE PUSH2 0xA04 JUMP JUMPDEST POP POP JUMP JUMPDEST DUP1 PUSH1 0x3 SWAP1 DUP1 MLOAD SWAP1 PUSH1 0x20 ADD SWAP1 PUSH2 0x7E8 SWAP3 SWAP2 SWAP1 PUSH2 0xA20 JUMP JUMPDEST POP POP JUMP JUMPDEST PUSH1 0x1 PUSH1 0x20 MSTORE DUP1 PUSH1 0x0 MSTORE PUSH1 0x40 PUSH1 0x0 KECCAK256 PUSH1 0x0 SWAP2 POP SWAP1 POP DUP1 PUSH1 0x0 ADD SLOAD SWAP1 DUP1 PUSH1 0x1 ADD PUSH1 0x0 SWAP1 SLOAD SWAP1 PUSH2 0x100 EXP SWAP1 DIV PUSH1 0xFF AND SWAP1 DUP1 PUSH1 0x2 ADD SLOAD SWAP1 DUP1 PUSH1 0x3 ADD SLOAD SWAP1 POP DUP5 JUMP JUMPDEST PUSH1 0x0 PUSH1 0x5 TIMESTAMP DIFFICULTY CALLER PUSH1 0x40 MLOAD PUSH1 0x20 ADD PUSH2 0x842 SWAP4 SWAP3 SWAP2 SWAP1 PUSH2 0xE78 JUMP JUMPDEST PUSH1 0x40 MLOAD PUSH1 0x20 DUP2 DUP4 SUB SUB DUP2 MSTORE SWAP1 PUSH1 0x40 MSTORE DUP1 MLOAD SWAP1 PUSH1 0x20 ADD KECCAK256 PUSH1 0x0 SHR PUSH2 0x865 SWAP2 SWAP1 PUSH2 0x122B JUMP JUMPDEST SWAP1 POP SWAP1 JUMP JUMPDEST PUSH2 0x872 PUSH2 0xAA6 JUMP JUMPDEST PUSH1 0x2 DUP3 DUP2 SLOAD DUP2 LT PUSH2 0x886 JUMPI PUSH2 0x885 PUSH2 0x12E9 JUMP JUMPDEST JUMPDEST SWAP1 PUSH1 0x0 MSTORE PUSH1 0x20 PUSH1 0x0 KECCAK256 SWAP1 PUSH1 0xC MUL ADD PUSH1 0x40 MLOAD DUP1 PUSH2 0x180 ADD PUSH1 0x40 MSTORE SWAP1 DUP2 PUSH1 0x0 DUP3 ADD DUP1 SLOAD PUSH2 0x8B0 SWAP1 PUSH2 0x119A JUMP JUMPDEST DUP1 PUSH1 0x1F ADD PUSH1 0x20 DUP1 SWAP2 DIV MUL PUSH1 0x20 ADD PUSH1 0x40 MLOAD SWAP1 DUP2 ADD PUSH1 0x40 MSTORE DUP1 SWAP3 SWAP2 SWAP1 DUP2 DUP2 MSTORE PUSH1 0x20 ADD DUP3 DUP1 SLOAD PUSH2 0x8DC SWAP1 PUSH2 0x119A JUMP JUMPDEST DUP1 ISZERO PUSH2 0x929 JUMPI DUP1 PUSH1 0x1F LT PUSH2 0x8FE JUMPI PUSH2 0x100 DUP1 DUP4 SLOAD DIV MUL DUP4 MSTORE SWAP2 PUSH1 0x20 ADD SWAP2 PUSH2 0x929 JUMP JUMPDEST DUP3 ADD SWAP2 SWAP1 PUSH1 0x0 MSTORE PUSH1 0x20 PUSH1 0x0 KECCAK256 SWAP1 JUMPDEST DUP2 SLOAD DUP2 MSTORE SWAP1 PUSH1 0x1 ADD SWAP1 PUSH1 0x20 ADD DUP1 DUP4 GT PUSH2 0x90C JUMPI DUP3 SWAP1 SUB PUSH1 0x1F AND DUP3 ADD SWAP2 JUMPDEST POP POP POP POP POP DUP2 MSTORE PUSH1 0x20 ADD PUSH1 0x1 DUP3 ADD SLOAD DUP2 MSTORE PUSH1 0x20 ADD PUSH1 0x2 DUP3 ADD SLOAD DUP2 MSTORE PUSH1 0x20 ADD PUSH1 0x3 DUP3 ADD SLOAD DUP2 MSTORE PUSH1 0x20 ADD PUSH1 0x4 DUP3 ADD SLOAD DUP2 MSTORE PUSH1 0x20 ADD PUSH1 0x5 DUP3 ADD SLOAD DUP2 MSTORE PUSH1 0x20 ADD PUSH1 0x6 DUP3 ADD SLOAD DUP2 MSTORE PUSH1 0x20 ADD PUSH1 0x7 DUP3 ADD SLOAD DUP2 MSTORE PUSH1 0x20 ADD PUSH1 0x8 DUP3 ADD SLOAD DUP2 MSTORE PUSH1 0x20 ADD PUSH1 0x9 DUP3 ADD SLOAD DUP2 MSTORE PUSH1 0x20 ADD PUSH1 0xA DUP3 ADD SLOAD DUP2 MSTORE PUSH1 0x20 ADD PUSH1 0xB DUP3 ADD SLOAD DUP2 MSTORE POP POP SWAP1 POP SWAP2 SWAP1 POP JUMP JUMPDEST PUSH1 0x1 PUSH1 0x4 PUSH1 0x0 DUP3 DUP3 SLOAD PUSH2 0x9BA SWAP2 SWAP1 PUSH2 0x101C JUMP JUMPDEST SWAP3 POP POP DUP2 SWAP1 SSTORE POP JUMP JUMPDEST PUSH1 0x0 PUSH1 0xA TIMESTAMP DIFFICULTY CALLER PUSH1 0x40 MLOAD PUSH1 0x20 ADD PUSH2 0x9DC SWAP4 SWAP3 SWAP2 SWAP1 PUSH2 0xE78 JUMP JUMPDEST PUSH1 0x40 MLOAD PUSH1 0x20 DUP2 DUP4 SUB SUB DUP2 MSTORE SWAP1 PUSH1 0x40 MSTORE DUP1 MLOAD SWAP1 PUSH1 0x20 ADD KECCAK256 PUSH1 0x0 SHR PUSH2 0x9FF SWAP2 SWAP1 PUSH2 0x122B JUMP JUMPDEST SWAP1 POP SWAP1 JUMP JUMPDEST PUSH1 0x1 PUSH1 0x5 PUSH1 0x0 DUP3 DUP3 SLOAD PUSH2 0xA17 SWAP2 SWAP1 PUSH2 0x101C JUMP JUMPDEST SWAP3 POP POP DUP2 SWAP1 SSTORE POP JUMP JUMPDEST DUP3 DUP1 SLOAD PUSH2 0xA2C SWAP1 PUSH2 0x119A JUMP JUMPDEST SWAP1 PUSH1 0x0 MSTORE PUSH1 0x20 PUSH1 0x0 KECCAK256 SWAP1 PUSH1 0x1F ADD PUSH1 0x20 SWAP1 DIV DUP2 ADD SWAP3 DUP3 PUSH2 0xA4E JUMPI PUSH1 0x0 DUP6 SSTORE PUSH2 0xA95 JUMP JUMPDEST DUP3 PUSH1 0x1F LT PUSH2 0xA67 JUMPI DUP1 MLOAD PUSH1 0xFF NOT AND DUP4 DUP1 ADD OR DUP6 SSTORE PUSH2 0xA95 JUMP JUMPDEST DUP3 DUP1 ADD PUSH1 0x1 ADD DUP6 SSTORE DUP3 ISZERO PUSH2 0xA95 JUMPI SWAP2 DUP3 ADD JUMPDEST DUP3 DUP2 GT ISZERO PUSH2 0xA94 JUMPI DUP3 MLOAD DUP3 SSTORE SWAP2 PUSH1 0x20 ADD SWAP2 SWAP1 PUSH1 0x1 ADD SWAP1 PUSH2 0xA79 JUMP JUMPDEST JUMPDEST POP SWAP1 POP PUSH2 0xAA2 SWAP2 SWAP1 PUSH2 0xB07 JUMP JUMPDEST POP SWAP1 JUMP JUMPDEST PUSH1 0x40 MLOAD DUP1 PUSH2 0x180 ADD PUSH1 0x40 MSTORE DUP1 PUSH1 0x60 DUP2 MSTORE PUSH1 0x20 ADD PUSH1 0x0 DUP2 MSTORE PUSH1 0x20 ADD PUSH1 0x0 DUP2 MSTORE PUSH1 0x20 ADD PUSH1 0x0 DUP2 MSTORE PUSH1 0x20 ADD PUSH1 0x0 DUP2 MSTORE PUSH1 0x20 ADD PUSH1 0x0 DUP2 MSTORE PUSH1 0x20 ADD PUSH1 0x0 DUP2 MSTORE PUSH1 0x20 ADD PUSH1 0x0 DUP2 MSTORE PUSH1 0x20 ADD PUSH1 0x0 DUP2 MSTORE PUSH1 0x20 ADD PUSH1 0x0 DUP2 MSTORE PUSH1 0x20 ADD PUSH1 0x0 DUP2 MSTORE PUSH1 0x20 ADD PUSH1 0x0 DUP2 MSTORE POP SWAP1 JUMP JUMPDEST JUMPDEST DUP1 DUP3 GT ISZERO PUSH2 0xB20 JUMPI PUSH1 0x0 DUP2 PUSH1 0x0 SWAP1 SSTORE POP PUSH1 0x1 ADD PUSH2 0xB08 JUMP JUMPDEST POP SWAP1 JUMP JUMPDEST PUSH1 0x0 PUSH2 0xB37 PUSH2 0xB32 DUP5 PUSH2 0xFBE JUMP JUMPDEST PUSH2 0xF99 JUMP JUMPDEST SWAP1 POP DUP3 DUP2 MSTORE PUSH1 0x20 DUP2 ADD DUP5 DUP5 DUP5 ADD GT ISZERO PUSH2 0xB53 JUMPI PUSH2 0xB52 PUSH2 0x134C JUMP JUMPDEST JUMPDEST PUSH2 0xB5E DUP5 DUP3 DUP6 PUSH2 0x1158 JUMP JUMPDEST POP SWAP4 SWAP3 POP POP POP JUMP JUMPDEST PUSH1 0x0 DUP2 CALLDATALOAD SWAP1 POP PUSH2 0xB75 DUP2 PUSH2 0x13CB JUMP JUMPDEST SWAP3 SWAP2 POP POP JUMP JUMPDEST PUSH1 0x0 DUP3 PUSH1 0x1F DUP4 ADD SLT PUSH2 0xB90 JUMPI PUSH2 0xB8F PUSH2 0x1347 JUMP JUMPDEST JUMPDEST DUP2 CALLDATALOAD PUSH2 0xBA0 DUP5 DUP3 PUSH1 0x20 DUP7 ADD PUSH2 0xB24 JUMP JUMPDEST SWAP2 POP POP SWAP3 SWAP2 POP POP JUMP JUMPDEST PUSH1 0x0 DUP2 CALLDATALOAD SWAP1 POP PUSH2 0xBB8 DUP2 PUSH2 0x13E2 JUMP JUMPDEST SWAP3 SWAP2 POP POP JUMP JUMPDEST PUSH1 0x0 PUSH1 0x20 DUP3 DUP5 SUB SLT ISZERO PUSH2 0xBD4 JUMPI PUSH2 0xBD3 PUSH2 0x1356 JUMP JUMPDEST JUMPDEST PUSH1 0x0 PUSH2 0xBE2 DUP5 DUP3 DUP6 ADD PUSH2 0xB66 JUMP JUMPDEST SWAP2 POP POP SWAP3 SWAP2 POP POP JUMP JUMPDEST PUSH1 0x0 PUSH1 0x20 DUP3 DUP5 SUB SLT ISZERO PUSH2 0xC01 JUMPI PUSH2 0xC00 PUSH2 0x1356 JUMP JUMPDEST JUMPDEST PUSH1 0x0 DUP3 ADD CALLDATALOAD PUSH8 0xFFFFFFFFFFFFFFFF DUP2 GT ISZERO PUSH2 0xC1F JUMPI PUSH2 0xC1E PUSH2 0x1351 JUMP JUMPDEST JUMPDEST PUSH2 0xC2B DUP5 DUP3 DUP6 ADD PUSH2 0xB7B JUMP JUMPDEST SWAP2 POP POP SWAP3 SWAP2 POP POP JUMP JUMPDEST PUSH1 0x0 PUSH1 0x20 DUP3 DUP5 SUB SLT ISZERO PUSH2 0xC4A JUMPI PUSH2 0xC49 PUSH2 0x1356 JUMP JUMPDEST JUMPDEST PUSH1 0x0 PUSH2 0xC58 DUP5 DUP3 DUP6 ADD PUSH2 0xBA9 JUMP JUMPDEST SWAP2 POP POP SWAP3 SWAP2 POP POP JUMP JUMPDEST PUSH2 0xC72 PUSH2 0xC6D DUP3 PUSH2 0x1106 JUMP JUMPDEST PUSH2 0x11FD JUMP JUMPDEST DUP3 MSTORE POP POP JUMP JUMPDEST PUSH2 0xC81 DUP2 PUSH2 0x1118 JUMP JUMPDEST DUP3 MSTORE POP POP JUMP JUMPDEST PUSH1 0x0 PUSH2 0xC92 DUP3 PUSH2 0xFEF JUMP JUMPDEST PUSH2 0xC9C DUP2 DUP6 PUSH2 0xFFA JUMP JUMPDEST SWAP4 POP PUSH2 0xCAC DUP2 DUP6 PUSH1 0x20 DUP7 ADD PUSH2 0x1167 JUMP JUMPDEST PUSH2 0xCB5 DUP2 PUSH2 0x135B JUMP JUMPDEST DUP5 ADD SWAP2 POP POP SWAP3 SWAP2 POP POP JUMP JUMPDEST PUSH1 0x0 PUSH2 0xCCB DUP3 PUSH2 0xFEF JUMP JUMPDEST PUSH2 0xCD5 DUP2 DUP6 PUSH2 0x100B JUMP JUMPDEST SWAP4 POP PUSH2 0xCE5 DUP2 DUP6 PUSH1 0x20 DUP7 ADD PUSH2 0x1167 JUMP JUMPDEST PUSH2 0xCEE DUP2 PUSH2 0x135B JUMP JUMPDEST DUP5 ADD SWAP2 POP POP SWAP3 SWAP2 POP POP JUMP JUMPDEST PUSH1 0x0 PUSH2 0xD06 PUSH1 0xE DUP4 PUSH2 0x100B JUMP JUMPDEST SWAP2 POP PUSH2 0xD11 DUP3 PUSH2 0x1379 JUMP JUMPDEST PUSH1 0x20 DUP3 ADD SWAP1 POP SWAP2 SWAP1 POP JUMP JUMPDEST PUSH1 0x0 PUSH2 0xD29 PUSH1 0x18 DUP4 PUSH2 0x100B JUMP JUMPDEST SWAP2 POP PUSH2 0xD34 DUP3 PUSH2 0x13A2 JUMP JUMPDEST PUSH1 0x20 DUP3 ADD SWAP1 POP SWAP2 SWAP1 POP JUMP JUMPDEST PUSH1 0x0 PUSH2 0x180 DUP4 ADD PUSH1 0x0 DUP4 ADD MLOAD DUP5 DUP3 SUB PUSH1 0x0 DUP7 ADD MSTORE PUSH2 0xD5D DUP3 DUP3 PUSH2 0xC87 JUMP JUMPDEST SWAP2 POP POP PUSH1 0x20 DUP4 ADD MLOAD PUSH2 0xD72 PUSH1 0x20 DUP7 ADD DUP3 PUSH2 0xE43 JUMP JUMPDEST POP PUSH1 0x40 DUP4 ADD MLOAD PUSH2 0xD85 PUSH1 0x40 DUP7 ADD DUP3 PUSH2 0xE43 JUMP JUMPDEST POP PUSH1 0x60 DUP4 ADD MLOAD PUSH2 0xD98 PUSH1 0x60 DUP7 ADD DUP3 PUSH2 0xE43 JUMP JUMPDEST POP PUSH1 0x80 DUP4 ADD MLOAD PUSH2 0xDAB PUSH1 0x80 DUP7 ADD DUP3 PUSH2 0xE43 JUMP JUMPDEST POP PUSH1 0xA0 DUP4 ADD MLOAD PUSH2 0xDBE PUSH1 0xA0 DUP7 ADD DUP3 PUSH2 0xE43 JUMP JUMPDEST POP PUSH1 0xC0 DUP4 ADD MLOAD PUSH2 0xDD1 PUSH1 0xC0 DUP7 ADD DUP3 PUSH2 0xE43 JUMP JUMPDEST POP PUSH1 0xE0 DUP4 ADD MLOAD PUSH2 0xDE4 PUSH1 0xE0 DUP7 ADD DUP3 PUSH2 0xE43 JUMP JUMPDEST POP PUSH2 0x100 DUP4 ADD MLOAD PUSH2 0xDF9 PUSH2 0x100 DUP7 ADD DUP3 PUSH2 0xE43 JUMP JUMPDEST POP PUSH2 0x120 DUP4 ADD MLOAD PUSH2 0xE0E PUSH2 0x120 DUP7 ADD DUP3 PUSH2 0xE43 JUMP JUMPDEST POP PUSH2 0x140 DUP4 ADD MLOAD PUSH2 0xE23 PUSH2 0x140 DUP7 ADD DUP3 PUSH2 0xE43 JUMP JUMPDEST POP PUSH2 0x160 DUP4 ADD MLOAD PUSH2 0xE38 PUSH2 0x160 DUP7 ADD DUP3 PUSH2 0xE43 JUMP JUMPDEST POP DUP1 SWAP2 POP POP SWAP3 SWAP2 POP POP JUMP JUMPDEST PUSH2 0xE4C DUP2 PUSH2 0x114E JUMP JUMPDEST DUP3 MSTORE POP POP JUMP JUMPDEST PUSH2 0xE5B DUP2 PUSH2 0x114E JUMP JUMPDEST DUP3 MSTORE POP POP JUMP JUMPDEST PUSH2 0xE72 PUSH2 0xE6D DUP3 PUSH2 0x114E JUMP JUMPDEST PUSH2 0x1221 JUMP JUMPDEST DUP3 MSTORE POP POP JUMP JUMPDEST PUSH1 0x0 PUSH2 0xE84 DUP3 DUP7 PUSH2 0xE61 JUMP JUMPDEST PUSH1 0x20 DUP3 ADD SWAP2 POP PUSH2 0xE94 DUP3 DUP6 PUSH2 0xE61 JUMP JUMPDEST PUSH1 0x20 DUP3 ADD SWAP2 POP PUSH2 0xEA4 DUP3 DUP5 PUSH2 0xC61 JUMP JUMPDEST PUSH1 0x14 DUP3 ADD SWAP2 POP DUP2 SWAP1 POP SWAP5 SWAP4 POP POP POP POP JUMP JUMPDEST PUSH1 0x0 PUSH1 0x20 DUP3 ADD SWAP1 POP DUP2 DUP2 SUB PUSH1 0x0 DUP4 ADD MSTORE PUSH2 0xECF DUP2 DUP5 PUSH2 0xCC0 JUMP JUMPDEST SWAP1 POP SWAP3 SWAP2 POP POP JUMP JUMPDEST PUSH1 0x0 PUSH1 0x20 DUP3 ADD SWAP1 POP DUP2 DUP2 SUB PUSH1 0x0 DUP4 ADD MSTORE PUSH2 0xEF0 DUP2 PUSH2 0xCF9 JUMP JUMPDEST SWAP1 POP SWAP2 SWAP1 POP JUMP JUMPDEST PUSH1 0x0 PUSH1 0x20 DUP3 ADD SWAP1 POP DUP2 DUP2 SUB PUSH1 0x0 DUP4 ADD MSTORE PUSH2 0xF10 DUP2 PUSH2 0xD1C JUMP JUMPDEST SWAP1 POP SWAP2 SWAP1 POP JUMP JUMPDEST PUSH1 0x0 PUSH1 0x20 DUP3 ADD SWAP1 POP DUP2 DUP2 SUB PUSH1 0x0 DUP4 ADD MSTORE PUSH2 0xF31 DUP2 DUP5 PUSH2 0xD3F JUMP JUMPDEST SWAP1 POP SWAP3 SWAP2 POP POP JUMP JUMPDEST PUSH1 0x0 PUSH1 0x20 DUP3 ADD SWAP1 POP PUSH2 0xF4E PUSH1 0x0 DUP4 ADD DUP5 PUSH2 0xE52 JUMP JUMPDEST SWAP3 SWAP2 POP POP JUMP JUMPDEST PUSH1 0x0 PUSH1 0x80 DUP3 ADD SWAP1 POP PUSH2 0xF69 PUSH1 0x0 DUP4 ADD DUP8 PUSH2 0xE52 JUMP JUMPDEST PUSH2 0xF76 PUSH1 0x20 DUP4 ADD DUP7 PUSH2 0xC78 JUMP JUMPDEST PUSH2 0xF83 PUSH1 0x40 DUP4 ADD DUP6 PUSH2 0xE52 JUMP JUMPDEST PUSH2 0xF90 PUSH1 0x60 DUP4 ADD DUP5 PUSH2 0xE52 JUMP JUMPDEST SWAP6 SWAP5 POP POP POP POP POP JUMP JUMPDEST PUSH1 0x0 PUSH2 0xFA3 PUSH2 0xFB4 JUMP JUMPDEST SWAP1 POP PUSH2 0xFAF DUP3 DUP3 PUSH2 0x11CC JUMP JUMPDEST SWAP2 SWAP1 POP JUMP JUMPDEST PUSH1 0x0 PUSH1 0x40 MLOAD SWAP1 POP SWAP1 JUMP JUMPDEST PUSH1 0x0 PUSH8 0xFFFFFFFFFFFFFFFF DUP3 GT ISZERO PUSH2 0xFD9 JUMPI PUSH2 0xFD8 PUSH2 0x1318 JUMP JUMPDEST JUMPDEST PUSH2 0xFE2 DUP3 PUSH2 0x135B JUMP JUMPDEST SWAP1 POP PUSH1 0x20 DUP2 ADD SWAP1 POP SWAP2 SWAP1 POP JUMP JUMPDEST PUSH1 0x0 DUP2 MLOAD SWAP1 POP SWAP2 SWAP1 POP JUMP JUMPDEST PUSH1 0x0 DUP3 DUP3 MSTORE PUSH1 0x20 DUP3 ADD SWAP1 POP SWAP3 SWAP2 POP POP JUMP JUMPDEST PUSH1 0x0 DUP3 DUP3 MSTORE PUSH1 0x20 DUP3 ADD SWAP1 POP SWAP3 SWAP2 POP POP JUMP JUMPDEST PUSH1 0x0 PUSH2 0x1027 DUP3 PUSH2 0x1124 JUMP JUMPDEST SWAP2 POP PUSH2 0x1032 DUP4 PUSH2 0x1124 JUMP JUMPDEST SWAP3 POP DUP2 PUSH32 0x7FFFFFFFFFFFFFFFFFFFFFFFFFFFFFFFFFFFFFFFFFFFFFFFFFFFFFFFFFFFFFFF SUB DUP4 SGT PUSH1 0x0 DUP4 SLT ISZERO AND ISZERO PUSH2 0x106D JUMPI PUSH2 0x106C PUSH2 0x125C JUMP JUMPDEST JUMPDEST DUP2 PUSH32 0x8000000000000000000000000000000000000000000000000000000000000000 SUB DUP4 SLT PUSH1 0x0 DUP4 SLT AND ISZERO PUSH2 0x10A5 JUMPI PUSH2 0x10A4 PUSH2 0x125C JUMP JUMPDEST JUMPDEST DUP3 DUP3 ADD SWAP1 POP SWAP3 SWAP2 POP POP JUMP JUMPDEST PUSH1 0x0 PUSH2 0x10BB DUP3 PUSH2 0x114E JUMP JUMPDEST SWAP2 POP PUSH2 0x10C6 DUP4 PUSH2 0x114E JUMP JUMPDEST SWAP3 POP DUP3 PUSH32 0xFFFFFFFFFFFFFFFFFFFFFFFFFFFFFFFFFFFFFFFFFFFFFFFFFFFFFFFFFFFFFFFF SUB DUP3 GT ISZERO PUSH2 0x10FB JUMPI PUSH2 0x10FA PUSH2 0x125C JUMP JUMPDEST JUMPDEST DUP3 DUP3 ADD SWAP1 POP SWAP3 SWAP2 POP POP JUMP JUMPDEST PUSH1 0x0 PUSH2 0x1111 DUP3 PUSH2 0x112E JUMP JUMPDEST SWAP1 POP SWAP2 SWAP1 POP JUMP JUMPDEST PUSH1 0x0 DUP2 ISZERO ISZERO SWAP1 POP SWAP2 SWAP1 POP JUMP JUMPDEST PUSH1 0x0 DUP2 SWAP1 POP SWAP2 SWAP1 POP JUMP JUMPDEST PUSH1 0x0 PUSH20 0xFFFFFFFFFFFFFFFFFFFFFFFFFFFFFFFFFFFFFFFF DUP3 AND SWAP1 POP SWAP2 SWAP1 POP JUMP JUMPDEST PUSH1 0x0 DUP2 SWAP1 POP SWAP2 SWAP1 POP JUMP JUMPDEST DUP3 DUP2 DUP4 CALLDATACOPY PUSH1 0x0 DUP4 DUP4 ADD MSTORE POP POP POP JUMP JUMPDEST PUSH1 0x0 JUMPDEST DUP4 DUP2 LT ISZERO PUSH2 0x1185 JUMPI DUP1 DUP3 ADD MLOAD DUP2 DUP5 ADD MSTORE PUSH1 0x20 DUP2 ADD SWAP1 POP PUSH2 0x116A JUMP JUMPDEST DUP4 DUP2 GT ISZERO PUSH2 0x1194 JUMPI PUSH1 0x0 DUP5 DUP5 ADD MSTORE JUMPDEST POP POP POP POP JUMP JUMPDEST PUSH1 0x0 PUSH1 0x2 DUP3 DIV SWAP1 POP PUSH1 0x1 DUP3 AND DUP1 PUSH2 0x11B2 JUMPI PUSH1 0x7F DUP3 AND SWAP2 POP JUMPDEST PUSH1 0x20 DUP3 LT DUP2 EQ ISZERO PUSH2 0x11C6 JUMPI PUSH2 0x11C5 PUSH2 0x12BA JUMP JUMPDEST JUMPDEST POP SWAP2 SWAP1 POP JUMP JUMPDEST PUSH2 0x11D5 DUP3 PUSH2 0x135B JUMP JUMPDEST DUP2 ADD DUP2 DUP2 LT PUSH8 0xFFFFFFFFFFFFFFFF DUP3 GT OR ISZERO PUSH2 0x11F4 JUMPI PUSH2 0x11F3 PUSH2 0x1318 JUMP JUMPDEST JUMPDEST DUP1 PUSH1 0x40 MSTORE POP POP POP JUMP JUMPDEST PUSH1 0x0 PUSH2 0x1208 DUP3 PUSH2 0x120F JUMP JUMPDEST SWAP1 POP SWAP2 SWAP1 POP JUMP JUMPDEST PUSH1 0x0 PUSH2 0x121A DUP3 PUSH2 0x136C JUMP JUMPDEST SWAP1 POP SWAP2 SWAP1 POP JUMP JUMPDEST PUSH1 0x0 DUP2 SWAP1 POP SWAP2 SWAP1 POP JUMP JUMPDEST PUSH1 0x0 PUSH2 0x1236 DUP3 PUSH2 0x114E JUMP JUMPDEST SWAP2 POP PUSH2 0x1241 DUP4 PUSH2 0x114E JUMP JUMPDEST SWAP3 POP DUP3 PUSH2 0x1251 JUMPI PUSH2 0x1250 PUSH2 0x128B JUMP JUMPDEST JUMPDEST DUP3 DUP3 MOD SWAP1 POP SWAP3 SWAP2 POP POP JUMP JUMPDEST PUSH32 0x4E487B7100000000000000000000000000000000000000000000000000000000 PUSH1 0x0 MSTORE PUSH1 0x11 PUSH1 0x4 MSTORE PUSH1 0x24 PUSH1 0x0 REVERT JUMPDEST PUSH32 0x4E487B7100000000000000000000000000000000000000000000000000000000 PUSH1 0x0 MSTORE PUSH1 0x12 PUSH1 0x4 MSTORE PUSH1 0x24 PUSH1 0x0 REVERT JUMPDEST PUSH32 0x4E487B7100000000000000000000000000000000000000000000000000000000 PUSH1 0x0 MSTORE PUSH1 0x22 PUSH1 0x4 MSTORE PUSH1 0x24 PUSH1 0x0 REVERT JUMPDEST PUSH32 0x4E487B7100000000000000000000000000000000000000000000000000000000 PUSH1 0x0 MSTORE PUSH1 0x32 PUSH1 0x4 MSTORE PUSH1 0x24 PUSH1 0x0 REVERT JUMPDEST PUSH32 0x4E487B7100000000000000000000000000000000000000000000000000000000 PUSH1 0x0 MSTORE PUSH1 0x41 PUSH1 0x4 MSTORE PUSH1 0x24 PUSH1 0x0 REVERT JUMPDEST PUSH1 0x0 DUP1 REVERT JUMPDEST PUSH1 0x0 DUP1 REVERT JUMPDEST PUSH1 0x0 DUP1 REVERT JUMPDEST PUSH1 0x0 DUP1 REVERT JUMPDEST PUSH1 0x0 PUSH1 0x1F NOT PUSH1 0x1F DUP4 ADD AND SWAP1 POP SWAP2 SWAP1 POP JUMP JUMPDEST PUSH1 0x0 DUP2 PUSH1 0x60 SHL SWAP1 POP SWAP2 SWAP1 POP JUMP JUMPDEST PUSH32 0x416C726561647920766F7465642E000000000000000000000000000000000000 PUSH1 0x0 DUP3 ADD MSTORE POP JUMP JUMPDEST PUSH32 0x54686520766F74657220616C726561647920766F7465642E0000000000000000 PUSH1 0x0 DUP3 ADD MSTORE POP JUMP JUMPDEST PUSH2 0x13D4 DUP2 PUSH2 0x1106 JUMP JUMPDEST DUP2 EQ PUSH2 0x13DF JUMPI PUSH1 0x0 DUP1 REVERT JUMPDEST POP JUMP JUMPDEST PUSH2 0x13EB DUP2 PUSH2 0x114E JUMP JUMPDEST DUP2 EQ PUSH2 0x13F6 JUMPI PUSH1 0x0 DUP1 REVERT JUMPDEST POP JUMP INVALID LOG2 PUSH5 0x6970667358 0x22 SLT KECCAK256 0xDD 0x5F 0x23 COINBASE SWAP6 0xD0 0xE3 GASLIMIT MSIZE SWAP7 EXP 0xF6 PUSH24 0xC764CE2FEF1E891F3CE86739B3AD292344301B64736F6C63 NUMBER STOP ADDMOD SMOD STOP CALLER "
				},
				"gasEstimates": {
					"creation": {
						"codeDepositCost": "1033400",
						"executionCost": "infinite",
						"totalCost": "infinite"
					},
					"external": {
						"getInfo()": "infinite",
						"random_vote()": "infinite",
						"res(uint256)": "infinite",
						"setInfo(string)": "infinite",
						"vote(address)": "infinite",
						"voters(address)": "infinite"
					},
					"internal": {
						"incrementCounter()": "infinite",
						"incrementCounter2()": "infinite",
						"random_district()": "infinite"
					}
				},
				"methodIdentifiers": {
					"getInfo()": "5a9b0b89",
					"random_vote()": "cfa1f037",
					"res(uint256)": "d4e8fd2e",
					"setInfo(string)": "937f6e77",
					"vote(address)": "6dd7d8ea",
					"voters(address)": "a3ec138d"
				}
			},
			"storageLayout": {
				"storage": [
					{
						"astId": 38,
						"contract": "smartContract/contracts/3_Ballot.sol:Ballot",
						"label": "chairperson",
						"offset": 0,
						"slot": "0",
						"type": "t_address"
					},
					{
						"astId": 43,
						"contract": "smartContract/contracts/3_Ballot.sol:Ballot",
						"label": "voters",
						"offset": 0,
						"slot": "1",
						"type": "t_mapping(t_address,t_struct(Voter)11_storage)"
					},
					{
						"astId": 47,
						"contract": "smartContract/contracts/3_Ballot.sol:Ballot",
						"label": "proposals",
						"offset": 0,
						"slot": "2",
						"type": "t_array(t_struct(Proposal)36_storage)dyn_storage"
					},
					{
						"astId": 72,
						"contract": "smartContract/contracts/3_Ballot.sol:Ballot",
						"label": "info",
						"offset": 0,
						"slot": "3",
						"type": "t_string_storage"
					},
					{
						"astId": 164,
						"contract": "smartContract/contracts/3_Ballot.sol:Ballot",
						"label": "count",
						"offset": 0,
						"slot": "4",
						"type": "t_int256"
					},
					{
						"astId": 175,
						"contract": "smartContract/contracts/3_Ballot.sol:Ballot",
						"label": "count2",
						"offset": 0,
						"slot": "5",
						"type": "t_int256"
					}
				],
				"types": {
					"t_address": {
						"encoding": "inplace",
						"label": "address",
						"numberOfBytes": "20"
					},
					"t_array(t_struct(Proposal)36_storage)dyn_storage": {
						"base": "t_struct(Proposal)36_storage",
						"encoding": "dynamic_array",
						"label": "struct Ballot.Proposal[]",
						"numberOfBytes": "32"
					},
					"t_bool": {
						"encoding": "inplace",
						"label": "bool",
						"numberOfBytes": "1"
					},
					"t_int256": {
						"encoding": "inplace",
						"label": "int256",
						"numberOfBytes": "32"
					},
					"t_mapping(t_address,t_struct(Voter)11_storage)": {
						"encoding": "mapping",
						"key": "t_address",
						"label": "mapping(address => struct Ballot.Voter)",
						"numberOfBytes": "32",
						"value": "t_struct(Voter)11_storage"
					},
					"t_string_storage": {
						"encoding": "bytes",
						"label": "string",
						"numberOfBytes": "32"
					},
					"t_struct(Proposal)36_storage": {
						"encoding": "inplace",
						"label": "struct Ballot.Proposal",
						"members": [
							{
								"astId": 13,
								"contract": "smartContract/contracts/3_Ballot.sol:Ballot",
								"label": "name",
								"offset": 0,
								"slot": "0",
								"type": "t_string_storage"
							},
							{
								"astId": 15,
								"contract": "smartContract/contracts/3_Ballot.sol:Ballot",
								"label": "Total_Votes",
								"offset": 0,
								"slot": "1",
								"type": "t_uint256"
							},
							{
								"astId": 17,
								"contract": "smartContract/contracts/3_Ballot.sol:Ballot",
								"label": "Votes_District0",
								"offset": 0,
								"slot": "2",
								"type": "t_uint256"
							},
							{
								"astId": 19,
								"contract": "smartContract/contracts/3_Ballot.sol:Ballot",
								"label": "Votes_District1",
								"offset": 0,
								"slot": "3",
								"type": "t_uint256"
							},
							{
								"astId": 21,
								"contract": "smartContract/contracts/3_Ballot.sol:Ballot",
								"label": "Votes_District2",
								"offset": 0,
								"slot": "4",
								"type": "t_uint256"
							},
							{
								"astId": 23,
								"contract": "smartContract/contracts/3_Ballot.sol:Ballot",
								"label": "Votes_District3",
								"offset": 0,
								"slot": "5",
								"type": "t_uint256"
							},
							{
								"astId": 25,
								"contract": "smartContract/contracts/3_Ballot.sol:Ballot",
								"label": "Votes_District4",
								"offset": 0,
								"slot": "6",
								"type": "t_uint256"
							},
							{
								"astId": 27,
								"contract": "smartContract/contracts/3_Ballot.sol:Ballot",
								"label": "Votes_District5",
								"offset": 0,
								"slot": "7",
								"type": "t_uint256"
							},
							{
								"astId": 29,
								"contract": "smartContract/contracts/3_Ballot.sol:Ballot",
								"label": "Votes_District6",
								"offset": 0,
								"slot": "8",
								"type": "t_uint256"
							},
							{
								"astId": 31,
								"contract": "smartContract/contracts/3_Ballot.sol:Ballot",
								"label": "Votes_District7",
								"offset": 0,
								"slot": "9",
								"type": "t_uint256"
							},
							{
								"astId": 33,
								"contract": "smartContract/contracts/3_Ballot.sol:Ballot",
								"label": "Votes_District8",
								"offset": 0,
								"slot": "10",
								"type": "t_uint256"
							},
							{
								"astId": 35,
								"contract": "smartContract/contracts/3_Ballot.sol:Ballot",
								"label": "Votes_District9",
								"offset": 0,
								"slot": "11",
								"type": "t_uint256"
							}
						],
						"numberOfBytes": "384"
					},
					"t_struct(Voter)11_storage": {
						"encoding": "inplace",
						"label": "struct Ballot.Voter",
						"members": [
							{
								"astId": 4,
								"contract": "smartContract/contracts/3_Ballot.sol:Ballot",
								"label": "weight",
								"offset": 0,
								"slot": "0",
								"type": "t_uint256"
							},
							{
								"astId": 6,
								"contract": "smartContract/contracts/3_Ballot.sol:Ballot",
								"label": "voted",
								"offset": 0,
								"slot": "1",
								"type": "t_bool"
							},
							{
								"astId": 8,
								"contract": "smartContract/contracts/3_Ballot.sol:Ballot",
								"label": "district",
								"offset": 0,
								"slot": "2",
								"type": "t_uint256"
							},
							{
								"astId": 10,
								"contract": "smartContract/contracts/3_Ballot.sol:Ballot",
								"label": "vote",
								"offset": 0,
								"slot": "3",
								"type": "t_uint256"
							}
						],
						"numberOfBytes": "128"
					},
					"t_uint256": {
						"encoding": "inplace",
						"label": "uint256",
						"numberOfBytes": "32"
					}
				}
			},
			"userdoc": {
				"kind": "user",
				"methods": {},
				"version": 1
			}
		}
	}
}