{
	"smartContract/contracts/3_Ballot.sol": {
		"Ballot": {
			"abi": [
				{
					"inputs": [],
					"stateMutability": "nonpayable",
					"type": "constructor"
				},
				{
					"inputs": [],
					"name": "countV",
					"outputs": [
						{
							"internalType": "int256",
							"name": "",
							"type": "int256"
						}
					],
					"stateMutability": "view",
					"type": "function"
				},
				{
					"inputs": [
						{
							"internalType": "uint256",
							"name": "_id",
							"type": "uint256"
						}
					],
					"name": "res",
					"outputs": [
						{
							"components": [
								{
									"internalType": "string",
									"name": "name",
									"type": "string"
								},
								{
									"internalType": "uint256",
									"name": "Total_Votes",
									"type": "uint256"
								},
								{
									"internalType": "uint256",
									"name": "Votes_District0",
									"type": "uint256"
								},
								{
									"internalType": "uint256",
									"name": "Votes_District1",
									"type": "uint256"
								},
								{
									"internalType": "uint256",
									"name": "Votes_District2",
									"type": "uint256"
								},
								{
									"internalType": "uint256",
									"name": "Votes_District3",
									"type": "uint256"
								},
								{
									"internalType": "uint256",
									"name": "Votes_District4",
									"type": "uint256"
								},
								{
									"internalType": "uint256",
									"name": "Votes_District5",
									"type": "uint256"
								},
								{
									"internalType": "uint256",
									"name": "Votes_District6",
									"type": "uint256"
								},
								{
									"internalType": "uint256",
									"name": "Votes_District7",
									"type": "uint256"
								},
								{
									"internalType": "uint256",
									"name": "Votes_District8",
									"type": "uint256"
								},
								{
									"internalType": "uint256",
									"name": "Votes_District9",
									"type": "uint256"
								}
							],
							"internalType": "struct Ballot.Proposal",
							"name": "",
							"type": "tuple"
						}
					],
					"stateMutability": "view",
					"type": "function"
				},
				{
					"inputs": [],
					"name": "vote",
					"outputs": [],
					"stateMutability": "nonpayable",
					"type": "function"
				},
				{
					"inputs": [
						{
							"internalType": "address",
							"name": "",
							"type": "address"
						}
					],
					"name": "voters",
					"outputs": [
						{
							"internalType": "uint256",
							"name": "weight",
							"type": "uint256"
						},
						{
							"internalType": "bool",
							"name": "voted",
							"type": "bool"
						},
						{
							"internalType": "uint256",
							"name": "district",
							"type": "uint256"
						},
						{
							"internalType": "uint256",
							"name": "vote",
							"type": "uint256"
						}
					],
					"stateMutability": "view",
					"type": "function"
				},
				{
					"inputs": [],
					"name": "winnerName",
					"outputs": [
						{
							"internalType": "string",
							"name": "winnerName_",
							"type": "string"
						}
					],
					"stateMutability": "view",
					"type": "function"
				},
				{
					"inputs": [],
					"name": "winningProposal",
					"outputs": [
						{
							"internalType": "uint256",
							"name": "winningProposal_",
							"type": "uint256"
						}
					],
					"stateMutability": "view",
					"type": "function"
				}
			],
			"devdoc": {
				"details": "Implements voting process along with vote delegation",
				"kind": "dev",
				"methods": {},
				"title": "Ballot",
				"version": 1
			},
			"evm": {
				"assembly": "    /* \"smartContract/contracts/3_Ballot.sol\":157:4719  contract Ballot {... */\n  mstore(0x40, 0x80)\n    /* \"smartContract/contracts/3_Ballot.sol\":1922:1923  0 */\n  0x00\n    /* \"smartContract/contracts/3_Ballot.sol\":1902:1923  int public countV = 0 */\n  0x03\n  sstore\n    /* \"smartContract/contracts/3_Ballot.sol\":1081:1860  constructor() {... */\n  callvalue\n  dup1\n  iszero\n  tag_1\n  jumpi\n  0x00\n  dup1\n  revert\ntag_1:\n  pop\n    /* \"smartContract/contracts/3_Ballot.sol\":1119:1129  msg.sender */\n  caller\n    /* \"smartContract/contracts/3_Ballot.sol\":1105:1116  chairperson */\n  0x00\n  dup1\n    /* \"smartContract/contracts/3_Ballot.sol\":1105:1129  chairperson = msg.sender */\n  0x0100\n  exp\n  dup2\n  sload\n  dup2\n  0xffffffffffffffffffffffffffffffffffffffff\n  mul\n  not\n  and\n  swap1\n  dup4\n  0xffffffffffffffffffffffffffffffffffffffff\n  and\n  mul\n  or\n  swap1\n  sstore\n  pop\n    /* \"smartContract/contracts/3_Ballot.sol\":1168:1169  1 */\n  0x01\n    /* \"smartContract/contracts/3_Ballot.sol\":1139:1145  voters */\n  dup1\n    /* \"smartContract/contracts/3_Ballot.sol\":1139:1158  voters[chairperson] */\n  0x00\n    /* \"smartContract/contracts/3_Ballot.sol\":1146:1157  chairperson */\n  dup1\n  0x00\n  swap1\n  sload\n  swap1\n  0x0100\n  exp\n  swap1\n  div\n  0xffffffffffffffffffffffffffffffffffffffff\n  and\n    /* \"smartContract/contracts/3_Ballot.sol\":1139:1158  voters[chairperson] */\n  0xffffffffffffffffffffffffffffffffffffffff\n  and\n  0xffffffffffffffffffffffffffffffffffffffff\n  and\n  dup2\n  mstore\n  0x20\n  add\n  swap1\n  dup2\n  mstore\n  0x20\n  add\n  0x00\n  keccak256\n    /* \"smartContract/contracts/3_Ballot.sol\":1139:1165  voters[chairperson].weight */\n  0x00\n  add\n    /* \"smartContract/contracts/3_Ballot.sol\":1139:1169  voters[chairperson].weight = 1 */\n  dup2\n  swap1\n  sstore\n  pop\n    /* \"smartContract/contracts/3_Ballot.sol\":1179:1209  string[5] memory proposalNames */\n  0x00\n    /* \"smartContract/contracts/3_Ballot.sol\":1179:1233  string[5] memory proposalNames = [\"a\",\"b\",\"c\",\"d\",\"e\"] */\n  mload(0x40)\n  dup1\n  0xa0\n  add\n  0x40\n  mstore\n  dup1\n  mload(0x40)\n  dup1\n  0x40\n  add\n  0x40\n  mstore\n  dup1\n  0x01\n  dup2\n  mstore\n  0x20\n  add\n  0x6100000000000000000000000000000000000000000000000000000000000000\n  dup2\n  mstore\n  pop\n  dup2\n  mstore\n  0x20\n  add\n  mload(0x40)\n  dup1\n  0x40\n  add\n  0x40\n  mstore\n  dup1\n  0x01\n  dup2\n  mstore\n  0x20\n  add\n  0x6200000000000000000000000000000000000000000000000000000000000000\n  dup2\n  mstore\n  pop\n  dup2\n  mstore\n  0x20\n  add\n  mload(0x40)\n  dup1\n  0x40\n  add\n  0x40\n  mstore\n  dup1\n  0x01\n  dup2\n  mstore\n  0x20\n  add\n  0x6300000000000000000000000000000000000000000000000000000000000000\n  dup2\n  mstore\n  pop\n  dup2\n  mstore\n  0x20\n  add\n  mload(0x40)\n  dup1\n  0x40\n  add\n  0x40\n  mstore\n  dup1\n  0x01\n  dup2\n  mstore\n  0x20\n  add\n  0x6400000000000000000000000000000000000000000000000000000000000000\n  dup2\n  mstore\n  pop\n  dup2\n  mstore\n  0x20\n  add\n  mload(0x40)\n  dup1\n  0x40\n  add\n  0x40\n  mstore\n  dup1\n  0x01\n  dup2\n  mstore\n  0x20\n  add\n  0x6500000000000000000000000000000000000000000000000000000000000000\n  dup2\n  mstore\n  pop\n  dup2\n  mstore\n  pop\n  swap1\n  pop\n    /* \"smartContract/contracts/3_Ballot.sol\":1273:1274  5 */\n  0x05\n    /* \"smartContract/contracts/3_Ballot.sol\":1251:1271  proposalNames.length */\n  dup1\n    /* \"smartContract/contracts/3_Ballot.sol\":1251:1274  proposalNames.length==5 */\n  eq\n    /* \"smartContract/contracts/3_Ballot.sol\":1243:1299  require(proposalNames.length==5,\"Candidates must be 5.\") */\n  tag_4\n  jumpi\n  mload(0x40)\n  0x08c379a000000000000000000000000000000000000000000000000000000000\n  dup2\n  mstore\n  0x04\n  add\n  tag_5\n  swap1\n  tag_6\n  jump\t// in\ntag_5:\n  mload(0x40)\n  dup1\n  swap2\n  sub\n  swap1\n  revert\ntag_4:\n    /* \"smartContract/contracts/3_Ballot.sol\":1314:1320  uint i */\n  0x00\n    /* \"smartContract/contracts/3_Ballot.sol\":1309:1854  for (uint i = 0; i < proposalNames.length; i++) {... */\ntag_7:\n    /* \"smartContract/contracts/3_Ballot.sol\":1330:1350  proposalNames.length */\n  0x05\n    /* \"smartContract/contracts/3_Ballot.sol\":1326:1327  i */\n  dup2\n    /* \"smartContract/contracts/3_Ballot.sol\":1326:1350  i < proposalNames.length */\n  lt\n    /* \"smartContract/contracts/3_Ballot.sol\":1309:1854  for (uint i = 0; i < proposalNames.length; i++) {... */\n  iszero\n  tag_8\n  jumpi\n    /* \"smartContract/contracts/3_Ballot.sol\":1371:1380  proposals */\n  0x02\n    /* \"smartContract/contracts/3_Ballot.sol\":1386:1842  Proposal({... */\n  mload(0x40)\n  dup1\n  0x0180\n  add\n  0x40\n  mstore\n  dup1\n    /* \"smartContract/contracts/3_Ballot.sol\":1419:1432  proposalNames */\n  dup5\n    /* \"smartContract/contracts/3_Ballot.sol\":1433:1434  i */\n  dup5\n    /* \"smartContract/contracts/3_Ballot.sol\":1419:1435  proposalNames[i] */\n  0x05\n  dup2\n  lt\n  tag_10\n  jumpi\n  tag_11\n  tag_12\n  jump\t// in\ntag_11:\ntag_10:\n  0x20\n  mul\n  add\n  mload\n    /* \"smartContract/contracts/3_Ballot.sol\":1386:1842  Proposal({... */\n  dup2\n  mstore\n  0x20\n  add\n    /* \"smartContract/contracts/3_Ballot.sol\":1466:1467  0 */\n  0x00\n    /* \"smartContract/contracts/3_Ballot.sol\":1386:1842  Proposal({... */\n  dup2\n  mstore\n  0x20\n  add\n    /* \"smartContract/contracts/3_Ballot.sol\":1502:1503  0 */\n  0x00\n    /* \"smartContract/contracts/3_Ballot.sol\":1386:1842  Proposal({... */\n  dup2\n  mstore\n  0x20\n  add\n    /* \"smartContract/contracts/3_Ballot.sol\":1538:1539  0 */\n  0x00\n    /* \"smartContract/contracts/3_Ballot.sol\":1386:1842  Proposal({... */\n  dup2\n  mstore\n  0x20\n  add\n    /* \"smartContract/contracts/3_Ballot.sol\":1574:1575  0 */\n  0x00\n    /* \"smartContract/contracts/3_Ballot.sol\":1386:1842  Proposal({... */\n  dup2\n  mstore\n  0x20\n  add\n    /* \"smartContract/contracts/3_Ballot.sol\":1610:1611  0 */\n  0x00\n    /* \"smartContract/contracts/3_Ballot.sol\":1386:1842  Proposal({... */\n  dup2\n  mstore\n  0x20\n  add\n    /* \"smartContract/contracts/3_Ballot.sol\":1646:1647  0 */\n  0x00\n    /* \"smartContract/contracts/3_Ballot.sol\":1386:1842  Proposal({... */\n  dup2\n  mstore\n  0x20\n  add\n    /* \"smartContract/contracts/3_Ballot.sol\":1682:1683  0 */\n  0x00\n    /* \"smartContract/contracts/3_Ballot.sol\":1386:1842  Proposal({... */\n  dup2\n  mstore\n  0x20\n  add\n    /* \"smartContract/contracts/3_Ballot.sol\":1718:1719  0 */\n  0x00\n    /* \"smartContract/contracts/3_Ballot.sol\":1386:1842  Proposal({... */\n  dup2\n  mstore\n  0x20\n  add\n    /* \"smartContract/contracts/3_Ballot.sol\":1754:1755  0 */\n  0x00\n    /* \"smartContract/contracts/3_Ballot.sol\":1386:1842  Proposal({... */\n  dup2\n  mstore\n  0x20\n  add\n    /* \"smartContract/contracts/3_Ballot.sol\":1790:1791  0 */\n  0x00\n    /* \"smartContract/contracts/3_Ballot.sol\":1386:1842  Proposal({... */\n  dup2\n  mstore\n  0x20\n  add\n    /* \"smartContract/contracts/3_Ballot.sol\":1826:1827  0 */\n  0x00\n    /* \"smartContract/contracts/3_Ballot.sol\":1386:1842  Proposal({... */\n  dup2\n  mstore\n  pop\n    /* \"smartContract/contracts/3_Ballot.sol\":1371:1843  proposals.push(Proposal({... */\n  swap1\n  dup1\n  0x01\n  dup2\n  sload\n  add\n  dup1\n  dup3\n  sstore\n  dup1\n  swap2\n  pop\n  pop\n  0x01\n  swap1\n  sub\n  swap1\n  0x00\n  mstore\n  keccak256(0x00, 0x20)\n  swap1\n  0x0c\n  mul\n  add\n  0x00\n  swap1\n  swap2\n  swap1\n  swap2\n  swap1\n  swap2\n  pop\n  0x00\n  dup3\n  add\n  mload\n  dup2\n  0x00\n  add\n  swap1\n  dup1\n  mload\n  swap1\n  0x20\n  add\n  swap1\n  tag_14\n  swap3\n  swap2\n  swap1\n  tag_15\n  jump\t// in\ntag_14:\n  pop\n  0x20\n  dup3\n  add\n  mload\n  dup2\n  0x01\n  add\n  sstore\n  0x40\n  dup3\n  add\n  mload\n  dup2\n  0x02\n  add\n  sstore\n  0x60\n  dup3\n  add\n  mload\n  dup2\n  0x03\n  add\n  sstore\n  0x80\n  dup3\n  add\n  mload\n  dup2\n  0x04\n  add\n  sstore\n  0xa0\n  dup3\n  add\n  mload\n  dup2\n  0x05\n  add\n  sstore\n  0xc0\n  dup3\n  add\n  mload\n  dup2\n  0x06\n  add\n  sstore\n  0xe0\n  dup3\n  add\n  mload\n  dup2\n  0x07\n  add\n  sstore\n  0x0100\n  dup3\n  add\n  mload\n  dup2\n  0x08\n  add\n  sstore\n  0x0120\n  dup3\n  add\n  mload\n  dup2\n  0x09\n  add\n  sstore\n  0x0140\n  dup3\n  add\n  mload\n  dup2\n  0x0a\n  add\n  sstore\n  0x0160\n  dup3\n  add\n  mload\n  dup2\n  0x0b\n  add\n  sstore\n  pop\n  pop\n    /* \"smartContract/contracts/3_Ballot.sol\":1352:1355  i++ */\n  dup1\n  dup1\n  tag_16\n  swap1\n  tag_17\n  jump\t// in\ntag_16:\n  swap2\n  pop\n  pop\n    /* \"smartContract/contracts/3_Ballot.sol\":1309:1854  for (uint i = 0; i < proposalNames.length; i++) {... */\n  jump(tag_7)\ntag_8:\n  pop\n    /* \"smartContract/contracts/3_Ballot.sol\":1095:1860  {... */\n  pop\n    /* \"smartContract/contracts/3_Ballot.sol\":157:4719  contract Ballot {... */\n  jump(tag_18)\ntag_15:\n  dup3\n  dup1\n  sload\n  tag_19\n  swap1\n  tag_20\n  jump\t// in\ntag_19:\n  swap1\n  0x00\n  mstore\n  keccak256(0x00, 0x20)\n  swap1\n  0x1f\n  add\n  0x20\n  swap1\n  div\n  dup2\n  add\n  swap3\n  dup3\n  tag_22\n  jumpi\n  0x00\n  dup6\n  sstore\n  jump(tag_21)\ntag_22:\n  dup3\n  0x1f\n  lt\n  tag_23\n  jumpi\n  dup1\n  mload\n  not(0xff)\n  and\n  dup4\n  dup1\n  add\n  or\n  dup6\n  sstore\n  jump(tag_21)\ntag_23:\n  dup3\n  dup1\n  add\n  0x01\n  add\n  dup6\n  sstore\n  dup3\n  iszero\n  tag_21\n  jumpi\n  swap2\n  dup3\n  add\ntag_24:\n  dup3\n  dup2\n  gt\n  iszero\n  tag_25\n  jumpi\n  dup3\n  mload\n  dup3\n  sstore\n  swap2\n  0x20\n  add\n  swap2\n  swap1\n  0x01\n  add\n  swap1\n  jump(tag_24)\ntag_25:\ntag_21:\n  pop\n  swap1\n  pop\n  tag_26\n  swap2\n  swap1\n  tag_27\n  jump\t// in\ntag_26:\n  pop\n  swap1\n  jump\t// out\ntag_27:\ntag_28:\n  dup1\n  dup3\n  gt\n  iszero\n  tag_29\n  jumpi\n  0x00\n  dup2\n  0x00\n  swap1\n  sstore\n  pop\n  0x01\n  add\n  jump(tag_28)\ntag_29:\n  pop\n  swap1\n  jump\t// out\n    /* \"#utility.yul\":7:373   */\ntag_31:\n    /* \"#utility.yul\":149:152   */\n  0x00\n    /* \"#utility.yul\":170:237   */\n  tag_33\n    /* \"#utility.yul\":234:236   */\n  0x15\n    /* \"#utility.yul\":229:232   */\n  dup4\n    /* \"#utility.yul\":170:237   */\n  tag_34\n  jump\t// in\ntag_33:\n    /* \"#utility.yul\":163:237   */\n  swap2\n  pop\n    /* \"#utility.yul\":246:339   */\n  tag_35\n    /* \"#utility.yul\":335:338   */\n  dup3\n    /* \"#utility.yul\":246:339   */\n  tag_36\n  jump\t// in\ntag_35:\n    /* \"#utility.yul\":364:366   */\n  0x20\n    /* \"#utility.yul\":359:362   */\n  dup3\n    /* \"#utility.yul\":355:367   */\n  add\n    /* \"#utility.yul\":348:367   */\n  swap1\n  pop\n    /* \"#utility.yul\":7:373   */\n  swap2\n  swap1\n  pop\n  jump\t// out\n    /* \"#utility.yul\":379:798   */\ntag_6:\n    /* \"#utility.yul\":545:549   */\n  0x00\n    /* \"#utility.yul\":583:585   */\n  0x20\n    /* \"#utility.yul\":572:581   */\n  dup3\n    /* \"#utility.yul\":568:586   */\n  add\n    /* \"#utility.yul\":560:586   */\n  swap1\n  pop\n    /* \"#utility.yul\":632:641   */\n  dup2\n    /* \"#utility.yul\":626:630   */\n  dup2\n    /* \"#utility.yul\":622:642   */\n  sub\n    /* \"#utility.yul\":618:619   */\n  0x00\n    /* \"#utility.yul\":607:616   */\n  dup4\n    /* \"#utility.yul\":603:620   */\n  add\n    /* \"#utility.yul\":596:643   */\n  mstore\n    /* \"#utility.yul\":660:791   */\n  tag_38\n    /* \"#utility.yul\":786:790   */\n  dup2\n    /* \"#utility.yul\":660:791   */\n  tag_31\n  jump\t// in\ntag_38:\n    /* \"#utility.yul\":652:791   */\n  swap1\n  pop\n    /* \"#utility.yul\":379:798   */\n  swap2\n  swap1\n  pop\n  jump\t// out\n    /* \"#utility.yul\":804:973   */\ntag_34:\n    /* \"#utility.yul\":888:899   */\n  0x00\n    /* \"#utility.yul\":922:928   */\n  dup3\n    /* \"#utility.yul\":917:920   */\n  dup3\n    /* \"#utility.yul\":910:929   */\n  mstore\n    /* \"#utility.yul\":962:966   */\n  0x20\n    /* \"#utility.yul\":957:960   */\n  dup3\n    /* \"#utility.yul\":953:967   */\n  add\n    /* \"#utility.yul\":938:967   */\n  swap1\n  pop\n    /* \"#utility.yul\":804:973   */\n  swap3\n  swap2\n  pop\n  pop\n  jump\t// out\n    /* \"#utility.yul\":979:1056   */\ntag_40:\n    /* \"#utility.yul\":1016:1023   */\n  0x00\n    /* \"#utility.yul\":1045:1050   */\n  dup2\n    /* \"#utility.yul\":1034:1050   */\n  swap1\n  pop\n    /* \"#utility.yul\":979:1056   */\n  swap2\n  swap1\n  pop\n  jump\t// out\n    /* \"#utility.yul\":1062:1382   */\ntag_20:\n    /* \"#utility.yul\":1106:1112   */\n  0x00\n    /* \"#utility.yul\":1143:1144   */\n  0x02\n    /* \"#utility.yul\":1137:1141   */\n  dup3\n    /* \"#utility.yul\":1133:1145   */\n  div\n    /* \"#utility.yul\":1123:1145   */\n  swap1\n  pop\n    /* \"#utility.yul\":1190:1191   */\n  0x01\n    /* \"#utility.yul\":1184:1188   */\n  dup3\n    /* \"#utility.yul\":1180:1192   */\n  and\n    /* \"#utility.yul\":1211:1229   */\n  dup1\n    /* \"#utility.yul\":1201:1282   */\n  tag_43\n  jumpi\n    /* \"#utility.yul\":1267:1271   */\n  0x7f\n    /* \"#utility.yul\":1259:1265   */\n  dup3\n    /* \"#utility.yul\":1255:1272   */\n  and\n    /* \"#utility.yul\":1245:1272   */\n  swap2\n  pop\n    /* \"#utility.yul\":1201:1282   */\ntag_43:\n    /* \"#utility.yul\":1329:1331   */\n  0x20\n    /* \"#utility.yul\":1321:1327   */\n  dup3\n    /* \"#utility.yul\":1318:1332   */\n  lt\n    /* \"#utility.yul\":1298:1316   */\n  dup2\n    /* \"#utility.yul\":1295:1333   */\n  eq\n    /* \"#utility.yul\":1292:1376   */\n  iszero\n  tag_44\n  jumpi\n    /* \"#utility.yul\":1348:1366   */\n  tag_45\n  tag_46\n  jump\t// in\ntag_45:\n    /* \"#utility.yul\":1292:1376   */\ntag_44:\n    /* \"#utility.yul\":1113:1382   */\n  pop\n    /* \"#utility.yul\":1062:1382   */\n  swap2\n  swap1\n  pop\n  jump\t// out\n    /* \"#utility.yul\":1388:1621   */\ntag_17:\n    /* \"#utility.yul\":1427:1430   */\n  0x00\n    /* \"#utility.yul\":1450:1474   */\n  tag_48\n    /* \"#utility.yul\":1468:1473   */\n  dup3\n    /* \"#utility.yul\":1450:1474   */\n  tag_40\n  jump\t// in\ntag_48:\n    /* \"#utility.yul\":1441:1474   */\n  swap2\n  pop\n    /* \"#utility.yul\":1496:1562   */\n  0xffffffffffffffffffffffffffffffffffffffffffffffffffffffffffffffff\n    /* \"#utility.yul\":1489:1494   */\n  dup3\n    /* \"#utility.yul\":1486:1563   */\n  eq\n    /* \"#utility.yul\":1483:1586   */\n  iszero\n  tag_49\n  jumpi\n    /* \"#utility.yul\":1566:1584   */\n  tag_50\n  tag_51\n  jump\t// in\ntag_50:\n    /* \"#utility.yul\":1483:1586   */\ntag_49:\n    /* \"#utility.yul\":1613:1614   */\n  0x01\n    /* \"#utility.yul\":1606:1611   */\n  dup3\n    /* \"#utility.yul\":1602:1615   */\n  add\n    /* \"#utility.yul\":1595:1615   */\n  swap1\n  pop\n    /* \"#utility.yul\":1388:1621   */\n  swap2\n  swap1\n  pop\n  jump\t// out\n    /* \"#utility.yul\":1627:1807   */\ntag_51:\n    /* \"#utility.yul\":1675:1752   */\n  0x4e487b7100000000000000000000000000000000000000000000000000000000\n    /* \"#utility.yul\":1672:1673   */\n  0x00\n    /* \"#utility.yul\":1665:1753   */\n  mstore\n    /* \"#utility.yul\":1772:1776   */\n  0x11\n    /* \"#utility.yul\":1769:1770   */\n  0x04\n    /* \"#utility.yul\":1762:1777   */\n  mstore\n    /* \"#utility.yul\":1796:1800   */\n  0x24\n    /* \"#utility.yul\":1793:1794   */\n  0x00\n    /* \"#utility.yul\":1786:1801   */\n  revert\n    /* \"#utility.yul\":1813:1993   */\ntag_46:\n    /* \"#utility.yul\":1861:1938   */\n  0x4e487b7100000000000000000000000000000000000000000000000000000000\n    /* \"#utility.yul\":1858:1859   */\n  0x00\n    /* \"#utility.yul\":1851:1939   */\n  mstore\n    /* \"#utility.yul\":1958:1962   */\n  0x22\n    /* \"#utility.yul\":1955:1956   */\n  0x04\n    /* \"#utility.yul\":1948:1963   */\n  mstore\n    /* \"#utility.yul\":1982:1986   */\n  0x24\n    /* \"#utility.yul\":1979:1980   */\n  0x00\n    /* \"#utility.yul\":1972:1987   */\n  revert\n    /* \"#utility.yul\":1999:2179   */\ntag_12:\n    /* \"#utility.yul\":2047:2124   */\n  0x4e487b7100000000000000000000000000000000000000000000000000000000\n    /* \"#utility.yul\":2044:2045   */\n  0x00\n    /* \"#utility.yul\":2037:2125   */\n  mstore\n    /* \"#utility.yul\":2144:2148   */\n  0x32\n    /* \"#utility.yul\":2141:2142   */\n  0x04\n    /* \"#utility.yul\":2134:2149   */\n  mstore\n    /* \"#utility.yul\":2168:2172   */\n  0x24\n    /* \"#utility.yul\":2165:2166   */\n  0x00\n    /* \"#utility.yul\":2158:2173   */\n  revert\n    /* \"#utility.yul\":2185:2356   */\ntag_36:\n    /* \"#utility.yul\":2325:2348   */\n  0x43616e64696461746573206d75737420626520352e0000000000000000000000\n    /* \"#utility.yul\":2321:2322   */\n  0x00\n    /* \"#utility.yul\":2313:2319   */\n  dup3\n    /* \"#utility.yul\":2309:2323   */\n  add\n    /* \"#utility.yul\":2302:2349   */\n  mstore\n    /* \"#utility.yul\":2185:2356   */\n  pop\n  jump\t// out\n    /* \"smartContract/contracts/3_Ballot.sol\":157:4719  contract Ballot {... */\ntag_18:\n  dataSize(sub_0)\n  dup1\n  dataOffset(sub_0)\n  0x00\n  codecopy\n  0x00\n  return\nstop\n\nsub_0: assembly {\n        /* \"smartContract/contracts/3_Ballot.sol\":157:4719  contract Ballot {... */\n      mstore(0x40, 0x80)\n      callvalue\n      dup1\n      iszero\n      tag_1\n      jumpi\n      0x00\n      dup1\n      revert\n    tag_1:\n      pop\n      jumpi(tag_2, lt(calldatasize, 0x04))\n      shr(0xe0, calldataload(0x00))\n      dup1\n      0x609ff1bd\n      eq\n      tag_3\n      jumpi\n      dup1\n      0x632a9a52\n      eq\n      tag_4\n      jumpi\n      dup1\n      0x6d8f3f10\n      eq\n      tag_5\n      jumpi\n      dup1\n      0xa3ec138d\n      eq\n      tag_6\n      jumpi\n      dup1\n      0xd4e8fd2e\n      eq\n      tag_7\n      jumpi\n      dup1\n      0xe2ba53f0\n      eq\n      tag_8\n      jumpi\n    tag_2:\n      0x00\n      dup1\n      revert\n        /* \"smartContract/contracts/3_Ballot.sol\":4026:4482  function winningProposal() public view... */\n    tag_3:\n      tag_9\n      tag_10\n      jump\t// in\n    tag_9:\n      mload(0x40)\n      tag_11\n      swap2\n      swap1\n      tag_12\n      jump\t// in\n    tag_11:\n      mload(0x40)\n      dup1\n      swap2\n      sub\n      swap1\n      return\n        /* \"smartContract/contracts/3_Ballot.sol\":2289:3916  function vote() public {... */\n    tag_4:\n      tag_13\n      tag_14\n      jump\t// in\n    tag_13:\n      stop\n        /* \"smartContract/contracts/3_Ballot.sol\":1902:1923  int public countV = 0 */\n    tag_5:\n      tag_15\n      tag_16\n      jump\t// in\n    tag_15:\n      mload(0x40)\n      tag_17\n      swap2\n      swap1\n      tag_18\n      jump\t// in\n    tag_17:\n      mload(0x40)\n      dup1\n      swap2\n      sub\n      swap1\n      return\n        /* \"smartContract/contracts/3_Ballot.sol\":814:853  mapping(address => Voter) public voters */\n    tag_6:\n      tag_19\n      0x04\n      dup1\n      calldatasize\n      sub\n      dup2\n      add\n      swap1\n      tag_20\n      swap2\n      swap1\n      tag_21\n      jump\t// in\n    tag_20:\n      tag_22\n      jump\t// in\n    tag_19:\n      mload(0x40)\n      tag_23\n      swap5\n      swap4\n      swap3\n      swap2\n      swap1\n      tag_24\n      jump\t// in\n    tag_23:\n      mload(0x40)\n      dup1\n      swap2\n      sub\n      swap1\n      return\n        /* \"smartContract/contracts/3_Ballot.sol\":3922:4019  function res(uint _id) public view returns(Proposal memory){... */\n    tag_7:\n      tag_25\n      0x04\n      dup1\n      calldatasize\n      sub\n      dup2\n      add\n      swap1\n      tag_26\n      swap2\n      swap1\n      tag_27\n      jump\t// in\n    tag_26:\n      tag_28\n      jump\t// in\n    tag_25:\n      mload(0x40)\n      tag_29\n      swap2\n      swap1\n      tag_30\n      jump\t// in\n    tag_29:\n      mload(0x40)\n      dup1\n      swap2\n      sub\n      swap1\n      return\n        /* \"smartContract/contracts/3_Ballot.sol\":4488:4717  function winnerName() public view... */\n    tag_8:\n      tag_31\n      tag_32\n      jump\t// in\n    tag_31:\n      mload(0x40)\n      tag_33\n      swap2\n      swap1\n      tag_34\n      jump\t// in\n    tag_33:\n      mload(0x40)\n      dup1\n      swap2\n      sub\n      swap1\n      return\n        /* \"smartContract/contracts/3_Ballot.sol\":4026:4482  function winningProposal() public view... */\n    tag_10:\n        /* \"smartContract/contracts/3_Ballot.sol\":4086:4107  uint winningProposal_ */\n      0x00\n        /* \"smartContract/contracts/3_Ballot.sol\":4123:4144  uint winningVoteCount */\n      dup1\n        /* \"smartContract/contracts/3_Ballot.sol\":4147:4148  0 */\n      0x00\n        /* \"smartContract/contracts/3_Ballot.sol\":4123:4148  uint winningVoteCount = 0 */\n      swap1\n      pop\n        /* \"smartContract/contracts/3_Ballot.sol\":4250:4256  uint p */\n      0x00\n        /* \"smartContract/contracts/3_Ballot.sol\":4245:4476  for (uint p = 0; p < proposals.length; p++) {... */\n    tag_36:\n        /* \"smartContract/contracts/3_Ballot.sol\":4266:4275  proposals */\n      0x02\n        /* \"smartContract/contracts/3_Ballot.sol\":4266:4282  proposals.length */\n      dup1\n      sload\n      swap1\n      pop\n        /* \"smartContract/contracts/3_Ballot.sol\":4262:4263  p */\n      dup2\n        /* \"smartContract/contracts/3_Ballot.sol\":4262:4282  p < proposals.length */\n      lt\n        /* \"smartContract/contracts/3_Ballot.sol\":4245:4476  for (uint p = 0; p < proposals.length; p++) {... */\n      iszero\n      tag_37\n      jumpi\n        /* \"smartContract/contracts/3_Ballot.sol\":4334:4350  winningVoteCount */\n      dup2\n        /* \"smartContract/contracts/3_Ballot.sol\":4307:4316  proposals */\n      0x02\n        /* \"smartContract/contracts/3_Ballot.sol\":4317:4318  p */\n      dup3\n        /* \"smartContract/contracts/3_Ballot.sol\":4307:4319  proposals[p] */\n      dup2\n      sload\n      dup2\n      lt\n      tag_39\n      jumpi\n      tag_40\n      tag_41\n      jump\t// in\n    tag_40:\n    tag_39:\n      swap1\n      0x00\n      mstore\n      keccak256(0x00, 0x20)\n      swap1\n      0x0c\n      mul\n      add\n        /* \"smartContract/contracts/3_Ballot.sol\":4307:4331  proposals[p].Total_Votes */\n      0x01\n      add\n      sload\n        /* \"smartContract/contracts/3_Ballot.sol\":4307:4350  proposals[p].Total_Votes > winningVoteCount */\n      gt\n        /* \"smartContract/contracts/3_Ballot.sol\":4303:4466  if (proposals[p].Total_Votes > winningVoteCount) {... */\n      iszero\n      tag_43\n      jumpi\n        /* \"smartContract/contracts/3_Ballot.sol\":4389:4398  proposals */\n      0x02\n        /* \"smartContract/contracts/3_Ballot.sol\":4399:4400  p */\n      dup2\n        /* \"smartContract/contracts/3_Ballot.sol\":4389:4401  proposals[p] */\n      dup2\n      sload\n      dup2\n      lt\n      tag_44\n      jumpi\n      tag_45\n      tag_41\n      jump\t// in\n    tag_45:\n    tag_44:\n      swap1\n      0x00\n      mstore\n      keccak256(0x00, 0x20)\n      swap1\n      0x0c\n      mul\n      add\n        /* \"smartContract/contracts/3_Ballot.sol\":4389:4413  proposals[p].Total_Votes */\n      0x01\n      add\n      sload\n        /* \"smartContract/contracts/3_Ballot.sol\":4370:4413  winningVoteCount = proposals[p].Total_Votes */\n      swap2\n      pop\n        /* \"smartContract/contracts/3_Ballot.sol\":4450:4451  p */\n      dup1\n        /* \"smartContract/contracts/3_Ballot.sol\":4431:4451  winningProposal_ = p */\n      swap3\n      pop\n        /* \"smartContract/contracts/3_Ballot.sol\":4303:4466  if (proposals[p].Total_Votes > winningVoteCount) {... */\n    tag_43:\n        /* \"smartContract/contracts/3_Ballot.sol\":4284:4287  p++ */\n      dup1\n      dup1\n      tag_47\n      swap1\n      tag_48\n      jump\t// in\n    tag_47:\n      swap2\n      pop\n      pop\n        /* \"smartContract/contracts/3_Ballot.sol\":4245:4476  for (uint p = 0; p < proposals.length; p++) {... */\n      jump(tag_36)\n    tag_37:\n      pop\n        /* \"smartContract/contracts/3_Ballot.sol\":4113:4482  {... */\n      pop\n        /* \"smartContract/contracts/3_Ballot.sol\":4026:4482  function winningProposal() public view... */\n      swap1\n      jump\t// out\n        /* \"smartContract/contracts/3_Ballot.sol\":2289:3916  function vote() public {... */\n    tag_14:\n        /* \"smartContract/contracts/3_Ballot.sol\":2332:2338  voters */\n      0x01\n        /* \"smartContract/contracts/3_Ballot.sol\":2332:2350  voters[msg.sender] */\n      0x00\n        /* \"smartContract/contracts/3_Ballot.sol\":2339:2349  msg.sender */\n      caller\n        /* \"smartContract/contracts/3_Ballot.sol\":2332:2350  voters[msg.sender] */\n      0xffffffffffffffffffffffffffffffffffffffff\n      and\n      0xffffffffffffffffffffffffffffffffffffffff\n      and\n      dup2\n      mstore\n      0x20\n      add\n      swap1\n      dup2\n      mstore\n      0x20\n      add\n      0x00\n      keccak256\n        /* \"smartContract/contracts/3_Ballot.sol\":2332:2356  voters[msg.sender].voted */\n      0x01\n      add\n      0x00\n      swap1\n      sload\n      swap1\n      0x0100\n      exp\n      swap1\n      div\n      0xff\n      and\n        /* \"smartContract/contracts/3_Ballot.sol\":2331:2356  !voters[msg.sender].voted */\n      iszero\n        /* \"smartContract/contracts/3_Ballot.sol\":2323:2397  require(!voters[msg.sender].voted,... */\n      tag_50\n      jumpi\n      mload(0x40)\n      0x08c379a000000000000000000000000000000000000000000000000000000000\n      dup2\n      mstore\n      0x04\n      add\n      tag_51\n      swap1\n      tag_52\n      jump\t// in\n    tag_51:\n      mload(0x40)\n      dup1\n      swap2\n      sub\n      swap1\n      revert\n    tag_50:\n        /* \"smartContract/contracts/3_Ballot.sol\":2436:2437  1 */\n      0x01\n        /* \"smartContract/contracts/3_Ballot.sol\":2408:2414  voters */\n      dup1\n        /* \"smartContract/contracts/3_Ballot.sol\":2408:2426  voters[msg.sender] */\n      0x00\n        /* \"smartContract/contracts/3_Ballot.sol\":2415:2425  msg.sender */\n      caller\n        /* \"smartContract/contracts/3_Ballot.sol\":2408:2426  voters[msg.sender] */\n      0xffffffffffffffffffffffffffffffffffffffff\n      and\n      0xffffffffffffffffffffffffffffffffffffffff\n      and\n      dup2\n      mstore\n      0x20\n      add\n      swap1\n      dup2\n      mstore\n      0x20\n      add\n      0x00\n      keccak256\n        /* \"smartContract/contracts/3_Ballot.sol\":2408:2433  voters[msg.sender].weight */\n      0x00\n      add\n        /* \"smartContract/contracts/3_Ballot.sol\":2408:2437  voters[msg.sender].weight = 1 */\n      dup2\n      swap1\n      sstore\n      pop\n        /* \"smartContract/contracts/3_Ballot.sol\":2463:2466  100 */\n      0x64\n        /* \"smartContract/contracts/3_Ballot.sol\":2455:2461  countV */\n      sload(0x03)\n        /* \"smartContract/contracts/3_Ballot.sol\":2455:2466  countV<=100 */\n      sgt\n      iszero\n        /* \"smartContract/contracts/3_Ballot.sol\":2447:2489  require(countV<=100,\"Reached max voters.\") */\n      tag_53\n      jumpi\n      mload(0x40)\n      0x08c379a000000000000000000000000000000000000000000000000000000000\n      dup2\n      mstore\n      0x04\n      add\n      tag_54\n      swap1\n      tag_55\n      jump\t// in\n    tag_54:\n      mload(0x40)\n      dup1\n      swap2\n      sub\n      swap1\n      revert\n    tag_53:\n        /* \"smartContract/contracts/3_Ballot.sol\":2528:2545  random_district() */\n      tag_56\n        /* \"smartContract/contracts/3_Ballot.sol\":2528:2543  random_district */\n      tag_57\n        /* \"smartContract/contracts/3_Ballot.sol\":2528:2545  random_district() */\n      jump\t// in\n    tag_56:\n        /* \"smartContract/contracts/3_Ballot.sol\":2500:2506  voters */\n      0x01\n        /* \"smartContract/contracts/3_Ballot.sol\":2500:2518  voters[msg.sender] */\n      0x00\n        /* \"smartContract/contracts/3_Ballot.sol\":2507:2517  msg.sender */\n      caller\n        /* \"smartContract/contracts/3_Ballot.sol\":2500:2518  voters[msg.sender] */\n      0xffffffffffffffffffffffffffffffffffffffff\n      and\n      0xffffffffffffffffffffffffffffffffffffffff\n      and\n      dup2\n      mstore\n      0x20\n      add\n      swap1\n      dup2\n      mstore\n      0x20\n      add\n      0x00\n      keccak256\n        /* \"smartContract/contracts/3_Ballot.sol\":2500:2527  voters[msg.sender].district */\n      0x02\n      add\n        /* \"smartContract/contracts/3_Ballot.sol\":2500:2545  voters[msg.sender].district=random_district() */\n      dup2\n      swap1\n      sstore\n      pop\n        /* \"smartContract/contracts/3_Ballot.sol\":2556:2576  Voter storage sender */\n      0x00\n        /* \"smartContract/contracts/3_Ballot.sol\":2579:2585  voters */\n      0x01\n        /* \"smartContract/contracts/3_Ballot.sol\":2579:2597  voters[msg.sender] */\n      0x00\n        /* \"smartContract/contracts/3_Ballot.sol\":2586:2596  msg.sender */\n      caller\n        /* \"smartContract/contracts/3_Ballot.sol\":2579:2597  voters[msg.sender] */\n      0xffffffffffffffffffffffffffffffffffffffff\n      and\n      0xffffffffffffffffffffffffffffffffffffffff\n      and\n      dup2\n      mstore\n      0x20\n      add\n      swap1\n      dup2\n      mstore\n      0x20\n      add\n      0x00\n      keccak256\n        /* \"smartContract/contracts/3_Ballot.sol\":2556:2597  Voter storage sender = voters[msg.sender] */\n      swap1\n      pop\n        /* \"smartContract/contracts/3_Ballot.sol\":2730:2736  sender */\n      dup1\n        /* \"smartContract/contracts/3_Ballot.sol\":2730:2742  sender.voted */\n      0x01\n      add\n      0x00\n      swap1\n      sload\n      swap1\n      0x0100\n      exp\n      swap1\n      div\n      0xff\n      and\n        /* \"smartContract/contracts/3_Ballot.sol\":2729:2742  !sender.voted */\n      iszero\n        /* \"smartContract/contracts/3_Ballot.sol\":2721:2761  require(!sender.voted, \"Already voted.\") */\n      tag_58\n      jumpi\n      mload(0x40)\n      0x08c379a000000000000000000000000000000000000000000000000000000000\n      dup2\n      mstore\n      0x04\n      add\n      tag_59\n      swap1\n      tag_60\n      jump\t// in\n    tag_59:\n      mload(0x40)\n      dup1\n      swap2\n      sub\n      swap1\n      revert\n    tag_58:\n        /* \"smartContract/contracts/3_Ballot.sol\":2786:2790  true */\n      0x01\n        /* \"smartContract/contracts/3_Ballot.sol\":2771:2777  sender */\n      dup2\n        /* \"smartContract/contracts/3_Ballot.sol\":2771:2783  sender.voted */\n      0x01\n      add\n      0x00\n        /* \"smartContract/contracts/3_Ballot.sol\":2771:2790  sender.voted = true */\n      0x0100\n      exp\n      dup2\n      sload\n      dup2\n      0xff\n      mul\n      not\n      and\n      swap1\n      dup4\n      iszero\n      iszero\n      mul\n      or\n      swap1\n      sstore\n      pop\n        /* \"smartContract/contracts/3_Ballot.sol\":2859:2872  random_vote() */\n      tag_61\n        /* \"smartContract/contracts/3_Ballot.sol\":2859:2870  random_vote */\n      tag_62\n        /* \"smartContract/contracts/3_Ballot.sol\":2859:2872  random_vote() */\n      jump\t// in\n    tag_61:\n        /* \"smartContract/contracts/3_Ballot.sol\":2845:2851  sender */\n      dup2\n        /* \"smartContract/contracts/3_Ballot.sol\":2845:2856  sender.vote */\n      0x03\n      add\n        /* \"smartContract/contracts/3_Ballot.sol\":2845:2872  sender.vote = random_vote() */\n      dup2\n      swap1\n      sstore\n      pop\n        /* \"smartContract/contracts/3_Ballot.sol\":2882:2895  countVoters() */\n      tag_63\n        /* \"smartContract/contracts/3_Ballot.sol\":2882:2893  countVoters */\n      tag_64\n        /* \"smartContract/contracts/3_Ballot.sol\":2882:2895  countVoters() */\n      jump\t// in\n    tag_63:\n        /* \"smartContract/contracts/3_Ballot.sol\":2954:2960  sender */\n      dup1\n        /* \"smartContract/contracts/3_Ballot.sol\":2954:2967  sender.weight */\n      0x00\n      add\n      sload\n        /* \"smartContract/contracts/3_Ballot.sol\":2914:2923  proposals */\n      0x02\n        /* \"smartContract/contracts/3_Ballot.sol\":2924:2937  random_vote() */\n      tag_65\n        /* \"smartContract/contracts/3_Ballot.sol\":2924:2935  random_vote */\n      tag_62\n        /* \"smartContract/contracts/3_Ballot.sol\":2924:2937  random_vote() */\n      jump\t// in\n    tag_65:\n        /* \"smartContract/contracts/3_Ballot.sol\":2914:2938  proposals[random_vote()] */\n      dup2\n      sload\n      dup2\n      lt\n      tag_66\n      jumpi\n      tag_67\n      tag_41\n      jump\t// in\n    tag_67:\n    tag_66:\n      swap1\n      0x00\n      mstore\n      keccak256(0x00, 0x20)\n      swap1\n      0x0c\n      mul\n      add\n        /* \"smartContract/contracts/3_Ballot.sol\":2914:2950  proposals[random_vote()].Total_Votes */\n      0x01\n      add\n      0x00\n        /* \"smartContract/contracts/3_Ballot.sol\":2914:2967  proposals[random_vote()].Total_Votes += sender.weight */\n      dup3\n      dup3\n      sload\n      tag_69\n      swap2\n      swap1\n      tag_70\n      jump\t// in\n    tag_69:\n      swap3\n      pop\n      pop\n      dup2\n      swap1\n      sstore\n      pop\n        /* \"smartContract/contracts/3_Ballot.sol\":2998:2999  0 */\n      0x00\n        /* \"smartContract/contracts/3_Ballot.sol\":2981:2987  sender */\n      dup2\n        /* \"smartContract/contracts/3_Ballot.sol\":2981:2996  sender.district */\n      0x02\n      add\n      sload\n        /* \"smartContract/contracts/3_Ballot.sol\":2981:2999  sender.district==0 */\n      eq\n        /* \"smartContract/contracts/3_Ballot.sol\":2977:3910  if (sender.district==0){proposals[random_vote()].Votes_District0 += sender.weight;}... */\n      iszero\n      tag_71\n      jumpi\n        /* \"smartContract/contracts/3_Ballot.sol\":3045:3051  sender */\n      dup1\n        /* \"smartContract/contracts/3_Ballot.sol\":3045:3058  sender.weight */\n      0x00\n      add\n      sload\n        /* \"smartContract/contracts/3_Ballot.sol\":3001:3010  proposals */\n      0x02\n        /* \"smartContract/contracts/3_Ballot.sol\":3011:3024  random_vote() */\n      tag_72\n        /* \"smartContract/contracts/3_Ballot.sol\":3011:3022  random_vote */\n      tag_62\n        /* \"smartContract/contracts/3_Ballot.sol\":3011:3024  random_vote() */\n      jump\t// in\n    tag_72:\n        /* \"smartContract/contracts/3_Ballot.sol\":3001:3025  proposals[random_vote()] */\n      dup2\n      sload\n      dup2\n      lt\n      tag_73\n      jumpi\n      tag_74\n      tag_41\n      jump\t// in\n    tag_74:\n    tag_73:\n      swap1\n      0x00\n      mstore\n      keccak256(0x00, 0x20)\n      swap1\n      0x0c\n      mul\n      add\n        /* \"smartContract/contracts/3_Ballot.sol\":3001:3041  proposals[random_vote()].Votes_District0 */\n      0x02\n      add\n      0x00\n        /* \"smartContract/contracts/3_Ballot.sol\":3001:3058  proposals[random_vote()].Votes_District0 += sender.weight */\n      dup3\n      dup3\n      sload\n      tag_76\n      swap2\n      swap1\n      tag_70\n      jump\t// in\n    tag_76:\n      swap3\n      pop\n      pop\n      dup2\n      swap1\n      sstore\n      pop\n        /* \"smartContract/contracts/3_Ballot.sol\":2977:3910  if (sender.district==0){proposals[random_vote()].Votes_District0 += sender.weight;}... */\n      jump(tag_77)\n    tag_71:\n        /* \"smartContract/contracts/3_Ballot.sol\":3095:3096  1 */\n      0x01\n        /* \"smartContract/contracts/3_Ballot.sol\":3078:3084  sender */\n      dup2\n        /* \"smartContract/contracts/3_Ballot.sol\":3078:3093  sender.district */\n      0x02\n      add\n      sload\n        /* \"smartContract/contracts/3_Ballot.sol\":3078:3096  sender.district==1 */\n      eq\n        /* \"smartContract/contracts/3_Ballot.sol\":3074:3910  if (sender.district==1){proposals[random_vote()].Votes_District1 += sender.weight;}... */\n      iszero\n      tag_78\n      jumpi\n        /* \"smartContract/contracts/3_Ballot.sol\":3142:3148  sender */\n      dup1\n        /* \"smartContract/contracts/3_Ballot.sol\":3142:3155  sender.weight */\n      0x00\n      add\n      sload\n        /* \"smartContract/contracts/3_Ballot.sol\":3098:3107  proposals */\n      0x02\n        /* \"smartContract/contracts/3_Ballot.sol\":3108:3121  random_vote() */\n      tag_79\n        /* \"smartContract/contracts/3_Ballot.sol\":3108:3119  random_vote */\n      tag_62\n        /* \"smartContract/contracts/3_Ballot.sol\":3108:3121  random_vote() */\n      jump\t// in\n    tag_79:\n        /* \"smartContract/contracts/3_Ballot.sol\":3098:3122  proposals[random_vote()] */\n      dup2\n      sload\n      dup2\n      lt\n      tag_80\n      jumpi\n      tag_81\n      tag_41\n      jump\t// in\n    tag_81:\n    tag_80:\n      swap1\n      0x00\n      mstore\n      keccak256(0x00, 0x20)\n      swap1\n      0x0c\n      mul\n      add\n        /* \"smartContract/contracts/3_Ballot.sol\":3098:3138  proposals[random_vote()].Votes_District1 */\n      0x03\n      add\n      0x00\n        /* \"smartContract/contracts/3_Ballot.sol\":3098:3155  proposals[random_vote()].Votes_District1 += sender.weight */\n      dup3\n      dup3\n      sload\n      tag_83\n      swap2\n      swap1\n      tag_70\n      jump\t// in\n    tag_83:\n      swap3\n      pop\n      pop\n      dup2\n      swap1\n      sstore\n      pop\n        /* \"smartContract/contracts/3_Ballot.sol\":3074:3910  if (sender.district==1){proposals[random_vote()].Votes_District1 += sender.weight;}... */\n      jump(tag_84)\n    tag_78:\n        /* \"smartContract/contracts/3_Ballot.sol\":3192:3193  2 */\n      0x02\n        /* \"smartContract/contracts/3_Ballot.sol\":3175:3181  sender */\n      dup2\n        /* \"smartContract/contracts/3_Ballot.sol\":3175:3190  sender.district */\n      0x02\n      add\n      sload\n        /* \"smartContract/contracts/3_Ballot.sol\":3175:3193  sender.district==2 */\n      eq\n        /* \"smartContract/contracts/3_Ballot.sol\":3171:3910  if (sender.district==2){proposals[random_vote()].Votes_District2 += sender.weight;}... */\n      iszero\n      tag_85\n      jumpi\n        /* \"smartContract/contracts/3_Ballot.sol\":3239:3245  sender */\n      dup1\n        /* \"smartContract/contracts/3_Ballot.sol\":3239:3252  sender.weight */\n      0x00\n      add\n      sload\n        /* \"smartContract/contracts/3_Ballot.sol\":3195:3204  proposals */\n      0x02\n        /* \"smartContract/contracts/3_Ballot.sol\":3205:3218  random_vote() */\n      tag_86\n        /* \"smartContract/contracts/3_Ballot.sol\":3205:3216  random_vote */\n      tag_62\n        /* \"smartContract/contracts/3_Ballot.sol\":3205:3218  random_vote() */\n      jump\t// in\n    tag_86:\n        /* \"smartContract/contracts/3_Ballot.sol\":3195:3219  proposals[random_vote()] */\n      dup2\n      sload\n      dup2\n      lt\n      tag_87\n      jumpi\n      tag_88\n      tag_41\n      jump\t// in\n    tag_88:\n    tag_87:\n      swap1\n      0x00\n      mstore\n      keccak256(0x00, 0x20)\n      swap1\n      0x0c\n      mul\n      add\n        /* \"smartContract/contracts/3_Ballot.sol\":3195:3235  proposals[random_vote()].Votes_District2 */\n      0x04\n      add\n      0x00\n        /* \"smartContract/contracts/3_Ballot.sol\":3195:3252  proposals[random_vote()].Votes_District2 += sender.weight */\n      dup3\n      dup3\n      sload\n      tag_90\n      swap2\n      swap1\n      tag_70\n      jump\t// in\n    tag_90:\n      swap3\n      pop\n      pop\n      dup2\n      swap1\n      sstore\n      pop\n        /* \"smartContract/contracts/3_Ballot.sol\":3171:3910  if (sender.district==2){proposals[random_vote()].Votes_District2 += sender.weight;}... */\n      jump(tag_91)\n    tag_85:\n        /* \"smartContract/contracts/3_Ballot.sol\":3289:3290  3 */\n      0x03\n        /* \"smartContract/contracts/3_Ballot.sol\":3272:3278  sender */\n      dup2\n        /* \"smartContract/contracts/3_Ballot.sol\":3272:3287  sender.district */\n      0x02\n      add\n      sload\n        /* \"smartContract/contracts/3_Ballot.sol\":3272:3290  sender.district==3 */\n      eq\n        /* \"smartContract/contracts/3_Ballot.sol\":3268:3910  if (sender.district==3){proposals[random_vote()].Votes_District3 += sender.weight;}... */\n      iszero\n      tag_92\n      jumpi\n        /* \"smartContract/contracts/3_Ballot.sol\":3336:3342  sender */\n      dup1\n        /* \"smartContract/contracts/3_Ballot.sol\":3336:3349  sender.weight */\n      0x00\n      add\n      sload\n        /* \"smartContract/contracts/3_Ballot.sol\":3292:3301  proposals */\n      0x02\n        /* \"smartContract/contracts/3_Ballot.sol\":3302:3315  random_vote() */\n      tag_93\n        /* \"smartContract/contracts/3_Ballot.sol\":3302:3313  random_vote */\n      tag_62\n        /* \"smartContract/contracts/3_Ballot.sol\":3302:3315  random_vote() */\n      jump\t// in\n    tag_93:\n        /* \"smartContract/contracts/3_Ballot.sol\":3292:3316  proposals[random_vote()] */\n      dup2\n      sload\n      dup2\n      lt\n      tag_94\n      jumpi\n      tag_95\n      tag_41\n      jump\t// in\n    tag_95:\n    tag_94:\n      swap1\n      0x00\n      mstore\n      keccak256(0x00, 0x20)\n      swap1\n      0x0c\n      mul\n      add\n        /* \"smartContract/contracts/3_Ballot.sol\":3292:3332  proposals[random_vote()].Votes_District3 */\n      0x05\n      add\n      0x00\n        /* \"smartContract/contracts/3_Ballot.sol\":3292:3349  proposals[random_vote()].Votes_District3 += sender.weight */\n      dup3\n      dup3\n      sload\n      tag_97\n      swap2\n      swap1\n      tag_70\n      jump\t// in\n    tag_97:\n      swap3\n      pop\n      pop\n      dup2\n      swap1\n      sstore\n      pop\n        /* \"smartContract/contracts/3_Ballot.sol\":3268:3910  if (sender.district==3){proposals[random_vote()].Votes_District3 += sender.weight;}... */\n      jump(tag_98)\n    tag_92:\n        /* \"smartContract/contracts/3_Ballot.sol\":3386:3387  4 */\n      0x04\n        /* \"smartContract/contracts/3_Ballot.sol\":3369:3375  sender */\n      dup2\n        /* \"smartContract/contracts/3_Ballot.sol\":3369:3384  sender.district */\n      0x02\n      add\n      sload\n        /* \"smartContract/contracts/3_Ballot.sol\":3369:3387  sender.district==4 */\n      eq\n        /* \"smartContract/contracts/3_Ballot.sol\":3365:3910  if (sender.district==4){proposals[random_vote()].Votes_District4 += sender.weight;}... */\n      iszero\n      tag_99\n      jumpi\n        /* \"smartContract/contracts/3_Ballot.sol\":3433:3439  sender */\n      dup1\n        /* \"smartContract/contracts/3_Ballot.sol\":3433:3446  sender.weight */\n      0x00\n      add\n      sload\n        /* \"smartContract/contracts/3_Ballot.sol\":3389:3398  proposals */\n      0x02\n        /* \"smartContract/contracts/3_Ballot.sol\":3399:3412  random_vote() */\n      tag_100\n        /* \"smartContract/contracts/3_Ballot.sol\":3399:3410  random_vote */\n      tag_62\n        /* \"smartContract/contracts/3_Ballot.sol\":3399:3412  random_vote() */\n      jump\t// in\n    tag_100:\n        /* \"smartContract/contracts/3_Ballot.sol\":3389:3413  proposals[random_vote()] */\n      dup2\n      sload\n      dup2\n      lt\n      tag_101\n      jumpi\n      tag_102\n      tag_41\n      jump\t// in\n    tag_102:\n    tag_101:\n      swap1\n      0x00\n      mstore\n      keccak256(0x00, 0x20)\n      swap1\n      0x0c\n      mul\n      add\n        /* \"smartContract/contracts/3_Ballot.sol\":3389:3429  proposals[random_vote()].Votes_District4 */\n      0x06\n      add\n      0x00\n        /* \"smartContract/contracts/3_Ballot.sol\":3389:3446  proposals[random_vote()].Votes_District4 += sender.weight */\n      dup3\n      dup3\n      sload\n      tag_104\n      swap2\n      swap1\n      tag_70\n      jump\t// in\n    tag_104:\n      swap3\n      pop\n      pop\n      dup2\n      swap1\n      sstore\n      pop\n        /* \"smartContract/contracts/3_Ballot.sol\":3365:3910  if (sender.district==4){proposals[random_vote()].Votes_District4 += sender.weight;}... */\n      jump(tag_105)\n    tag_99:\n        /* \"smartContract/contracts/3_Ballot.sol\":3483:3484  5 */\n      0x05\n        /* \"smartContract/contracts/3_Ballot.sol\":3466:3472  sender */\n      dup2\n        /* \"smartContract/contracts/3_Ballot.sol\":3466:3481  sender.district */\n      0x02\n      add\n      sload\n        /* \"smartContract/contracts/3_Ballot.sol\":3466:3484  sender.district==5 */\n      eq\n        /* \"smartContract/contracts/3_Ballot.sol\":3462:3910  if (sender.district==5){proposals[random_vote()].Votes_District5 += sender.weight;}... */\n      iszero\n      tag_106\n      jumpi\n        /* \"smartContract/contracts/3_Ballot.sol\":3530:3536  sender */\n      dup1\n        /* \"smartContract/contracts/3_Ballot.sol\":3530:3543  sender.weight */\n      0x00\n      add\n      sload\n        /* \"smartContract/contracts/3_Ballot.sol\":3486:3495  proposals */\n      0x02\n        /* \"smartContract/contracts/3_Ballot.sol\":3496:3509  random_vote() */\n      tag_107\n        /* \"smartContract/contracts/3_Ballot.sol\":3496:3507  random_vote */\n      tag_62\n        /* \"smartContract/contracts/3_Ballot.sol\":3496:3509  random_vote() */\n      jump\t// in\n    tag_107:\n        /* \"smartContract/contracts/3_Ballot.sol\":3486:3510  proposals[random_vote()] */\n      dup2\n      sload\n      dup2\n      lt\n      tag_108\n      jumpi\n      tag_109\n      tag_41\n      jump\t// in\n    tag_109:\n    tag_108:\n      swap1\n      0x00\n      mstore\n      keccak256(0x00, 0x20)\n      swap1\n      0x0c\n      mul\n      add\n        /* \"smartContract/contracts/3_Ballot.sol\":3486:3526  proposals[random_vote()].Votes_District5 */\n      0x07\n      add\n      0x00\n        /* \"smartContract/contracts/3_Ballot.sol\":3486:3543  proposals[random_vote()].Votes_District5 += sender.weight */\n      dup3\n      dup3\n      sload\n      tag_111\n      swap2\n      swap1\n      tag_70\n      jump\t// in\n    tag_111:\n      swap3\n      pop\n      pop\n      dup2\n      swap1\n      sstore\n      pop\n        /* \"smartContract/contracts/3_Ballot.sol\":3462:3910  if (sender.district==5){proposals[random_vote()].Votes_District5 += sender.weight;}... */\n      jump(tag_112)\n    tag_106:\n        /* \"smartContract/contracts/3_Ballot.sol\":3580:3581  6 */\n      0x06\n        /* \"smartContract/contracts/3_Ballot.sol\":3563:3569  sender */\n      dup2\n        /* \"smartContract/contracts/3_Ballot.sol\":3563:3578  sender.district */\n      0x02\n      add\n      sload\n        /* \"smartContract/contracts/3_Ballot.sol\":3563:3581  sender.district==6 */\n      eq\n        /* \"smartContract/contracts/3_Ballot.sol\":3559:3910  if (sender.district==6){proposals[random_vote()].Votes_District6 += sender.weight;}... */\n      iszero\n      tag_113\n      jumpi\n        /* \"smartContract/contracts/3_Ballot.sol\":3627:3633  sender */\n      dup1\n        /* \"smartContract/contracts/3_Ballot.sol\":3627:3640  sender.weight */\n      0x00\n      add\n      sload\n        /* \"smartContract/contracts/3_Ballot.sol\":3583:3592  proposals */\n      0x02\n        /* \"smartContract/contracts/3_Ballot.sol\":3593:3606  random_vote() */\n      tag_114\n        /* \"smartContract/contracts/3_Ballot.sol\":3593:3604  random_vote */\n      tag_62\n        /* \"smartContract/contracts/3_Ballot.sol\":3593:3606  random_vote() */\n      jump\t// in\n    tag_114:\n        /* \"smartContract/contracts/3_Ballot.sol\":3583:3607  proposals[random_vote()] */\n      dup2\n      sload\n      dup2\n      lt\n      tag_115\n      jumpi\n      tag_116\n      tag_41\n      jump\t// in\n    tag_116:\n    tag_115:\n      swap1\n      0x00\n      mstore\n      keccak256(0x00, 0x20)\n      swap1\n      0x0c\n      mul\n      add\n        /* \"smartContract/contracts/3_Ballot.sol\":3583:3623  proposals[random_vote()].Votes_District6 */\n      0x08\n      add\n      0x00\n        /* \"smartContract/contracts/3_Ballot.sol\":3583:3640  proposals[random_vote()].Votes_District6 += sender.weight */\n      dup3\n      dup3\n      sload\n      tag_118\n      swap2\n      swap1\n      tag_70\n      jump\t// in\n    tag_118:\n      swap3\n      pop\n      pop\n      dup2\n      swap1\n      sstore\n      pop\n        /* \"smartContract/contracts/3_Ballot.sol\":3559:3910  if (sender.district==6){proposals[random_vote()].Votes_District6 += sender.weight;}... */\n      jump(tag_119)\n    tag_113:\n        /* \"smartContract/contracts/3_Ballot.sol\":3677:3678  7 */\n      0x07\n        /* \"smartContract/contracts/3_Ballot.sol\":3660:3666  sender */\n      dup2\n        /* \"smartContract/contracts/3_Ballot.sol\":3660:3675  sender.district */\n      0x02\n      add\n      sload\n        /* \"smartContract/contracts/3_Ballot.sol\":3660:3678  sender.district==7 */\n      eq\n        /* \"smartContract/contracts/3_Ballot.sol\":3656:3910  if (sender.district==7){proposals[random_vote()].Votes_District7 += sender.weight;}... */\n      iszero\n      tag_120\n      jumpi\n        /* \"smartContract/contracts/3_Ballot.sol\":3724:3730  sender */\n      dup1\n        /* \"smartContract/contracts/3_Ballot.sol\":3724:3737  sender.weight */\n      0x00\n      add\n      sload\n        /* \"smartContract/contracts/3_Ballot.sol\":3680:3689  proposals */\n      0x02\n        /* \"smartContract/contracts/3_Ballot.sol\":3690:3703  random_vote() */\n      tag_121\n        /* \"smartContract/contracts/3_Ballot.sol\":3690:3701  random_vote */\n      tag_62\n        /* \"smartContract/contracts/3_Ballot.sol\":3690:3703  random_vote() */\n      jump\t// in\n    tag_121:\n        /* \"smartContract/contracts/3_Ballot.sol\":3680:3704  proposals[random_vote()] */\n      dup2\n      sload\n      dup2\n      lt\n      tag_122\n      jumpi\n      tag_123\n      tag_41\n      jump\t// in\n    tag_123:\n    tag_122:\n      swap1\n      0x00\n      mstore\n      keccak256(0x00, 0x20)\n      swap1\n      0x0c\n      mul\n      add\n        /* \"smartContract/contracts/3_Ballot.sol\":3680:3720  proposals[random_vote()].Votes_District7 */\n      0x09\n      add\n      0x00\n        /* \"smartContract/contracts/3_Ballot.sol\":3680:3737  proposals[random_vote()].Votes_District7 += sender.weight */\n      dup3\n      dup3\n      sload\n      tag_125\n      swap2\n      swap1\n      tag_70\n      jump\t// in\n    tag_125:\n      swap3\n      pop\n      pop\n      dup2\n      swap1\n      sstore\n      pop\n        /* \"smartContract/contracts/3_Ballot.sol\":3656:3910  if (sender.district==7){proposals[random_vote()].Votes_District7 += sender.weight;}... */\n      jump(tag_126)\n    tag_120:\n        /* \"smartContract/contracts/3_Ballot.sol\":3774:3775  8 */\n      0x08\n        /* \"smartContract/contracts/3_Ballot.sol\":3757:3763  sender */\n      dup2\n        /* \"smartContract/contracts/3_Ballot.sol\":3757:3772  sender.district */\n      0x02\n      add\n      sload\n        /* \"smartContract/contracts/3_Ballot.sol\":3757:3775  sender.district==8 */\n      eq\n        /* \"smartContract/contracts/3_Ballot.sol\":3753:3910  if (sender.district==8){proposals[random_vote()].Votes_District8 += sender.weight;}... */\n      iszero\n      tag_127\n      jumpi\n        /* \"smartContract/contracts/3_Ballot.sol\":3821:3827  sender */\n      dup1\n        /* \"smartContract/contracts/3_Ballot.sol\":3821:3834  sender.weight */\n      0x00\n      add\n      sload\n        /* \"smartContract/contracts/3_Ballot.sol\":3777:3786  proposals */\n      0x02\n        /* \"smartContract/contracts/3_Ballot.sol\":3787:3800  random_vote() */\n      tag_128\n        /* \"smartContract/contracts/3_Ballot.sol\":3787:3798  random_vote */\n      tag_62\n        /* \"smartContract/contracts/3_Ballot.sol\":3787:3800  random_vote() */\n      jump\t// in\n    tag_128:\n        /* \"smartContract/contracts/3_Ballot.sol\":3777:3801  proposals[random_vote()] */\n      dup2\n      sload\n      dup2\n      lt\n      tag_129\n      jumpi\n      tag_130\n      tag_41\n      jump\t// in\n    tag_130:\n    tag_129:\n      swap1\n      0x00\n      mstore\n      keccak256(0x00, 0x20)\n      swap1\n      0x0c\n      mul\n      add\n        /* \"smartContract/contracts/3_Ballot.sol\":3777:3817  proposals[random_vote()].Votes_District8 */\n      0x0a\n      add\n      0x00\n        /* \"smartContract/contracts/3_Ballot.sol\":3777:3834  proposals[random_vote()].Votes_District8 += sender.weight */\n      dup3\n      dup3\n      sload\n      tag_132\n      swap2\n      swap1\n      tag_70\n      jump\t// in\n    tag_132:\n      swap3\n      pop\n      pop\n      dup2\n      swap1\n      sstore\n      pop\n        /* \"smartContract/contracts/3_Ballot.sol\":3753:3910  if (sender.district==8){proposals[random_vote()].Votes_District8 += sender.weight;}... */\n      jump(tag_133)\n    tag_127:\n        /* \"smartContract/contracts/3_Ballot.sol\":3895:3901  sender */\n      dup1\n        /* \"smartContract/contracts/3_Ballot.sol\":3895:3908  sender.weight */\n      0x00\n      add\n      sload\n        /* \"smartContract/contracts/3_Ballot.sol\":3851:3860  proposals */\n      0x02\n        /* \"smartContract/contracts/3_Ballot.sol\":3861:3874  random_vote() */\n      tag_134\n        /* \"smartContract/contracts/3_Ballot.sol\":3861:3872  random_vote */\n      tag_62\n        /* \"smartContract/contracts/3_Ballot.sol\":3861:3874  random_vote() */\n      jump\t// in\n    tag_134:\n        /* \"smartContract/contracts/3_Ballot.sol\":3851:3875  proposals[random_vote()] */\n      dup2\n      sload\n      dup2\n      lt\n      tag_135\n      jumpi\n      tag_136\n      tag_41\n      jump\t// in\n    tag_136:\n    tag_135:\n      swap1\n      0x00\n      mstore\n      keccak256(0x00, 0x20)\n      swap1\n      0x0c\n      mul\n      add\n        /* \"smartContract/contracts/3_Ballot.sol\":3851:3891  proposals[random_vote()].Votes_District9 */\n      0x0b\n      add\n      0x00\n        /* \"smartContract/contracts/3_Ballot.sol\":3851:3908  proposals[random_vote()].Votes_District9 += sender.weight */\n      dup3\n      dup3\n      sload\n      tag_138\n      swap2\n      swap1\n      tag_70\n      jump\t// in\n    tag_138:\n      swap3\n      pop\n      pop\n      dup2\n      swap1\n      sstore\n      pop\n        /* \"smartContract/contracts/3_Ballot.sol\":3753:3910  if (sender.district==8){proposals[random_vote()].Votes_District8 += sender.weight;}... */\n    tag_133:\n        /* \"smartContract/contracts/3_Ballot.sol\":3656:3910  if (sender.district==7){proposals[random_vote()].Votes_District7 += sender.weight;}... */\n    tag_126:\n        /* \"smartContract/contracts/3_Ballot.sol\":3559:3910  if (sender.district==6){proposals[random_vote()].Votes_District6 += sender.weight;}... */\n    tag_119:\n        /* \"smartContract/contracts/3_Ballot.sol\":3462:3910  if (sender.district==5){proposals[random_vote()].Votes_District5 += sender.weight;}... */\n    tag_112:\n        /* \"smartContract/contracts/3_Ballot.sol\":3365:3910  if (sender.district==4){proposals[random_vote()].Votes_District4 += sender.weight;}... */\n    tag_105:\n        /* \"smartContract/contracts/3_Ballot.sol\":3268:3910  if (sender.district==3){proposals[random_vote()].Votes_District3 += sender.weight;}... */\n    tag_98:\n        /* \"smartContract/contracts/3_Ballot.sol\":3171:3910  if (sender.district==2){proposals[random_vote()].Votes_District2 += sender.weight;}... */\n    tag_91:\n        /* \"smartContract/contracts/3_Ballot.sol\":3074:3910  if (sender.district==1){proposals[random_vote()].Votes_District1 += sender.weight;}... */\n    tag_84:\n        /* \"smartContract/contracts/3_Ballot.sol\":2977:3910  if (sender.district==0){proposals[random_vote()].Votes_District0 += sender.weight;}... */\n    tag_77:\n        /* \"smartContract/contracts/3_Ballot.sol\":2312:3916  {... */\n      pop\n        /* \"smartContract/contracts/3_Ballot.sol\":2289:3916  function vote() public {... */\n      jump\t// out\n        /* \"smartContract/contracts/3_Ballot.sol\":1902:1923  int public countV = 0 */\n    tag_16:\n      sload(0x03)\n      dup2\n      jump\t// out\n        /* \"smartContract/contracts/3_Ballot.sol\":814:853  mapping(address => Voter) public voters */\n    tag_22:\n      mstore(0x20, 0x01)\n      dup1\n      0x00\n      mstore\n      keccak256(0x00, 0x40)\n      0x00\n      swap2\n      pop\n      swap1\n      pop\n      dup1\n      0x00\n      add\n      sload\n      swap1\n      dup1\n      0x01\n      add\n      0x00\n      swap1\n      sload\n      swap1\n      0x0100\n      exp\n      swap1\n      div\n      0xff\n      and\n      swap1\n      dup1\n      0x02\n      add\n      sload\n      swap1\n      dup1\n      0x03\n      add\n      sload\n      swap1\n      pop\n      dup5\n      jump\t// out\n        /* \"smartContract/contracts/3_Ballot.sol\":3922:4019  function res(uint _id) public view returns(Proposal memory){... */\n    tag_28:\n        /* \"smartContract/contracts/3_Ballot.sol\":3965:3980  Proposal memory */\n      tag_139\n      tag_140\n      jump\t// in\n    tag_139:\n        /* \"smartContract/contracts/3_Ballot.sol\":3998:4007  proposals */\n      0x02\n        /* \"smartContract/contracts/3_Ballot.sol\":4008:4011  _id */\n      dup3\n        /* \"smartContract/contracts/3_Ballot.sol\":3998:4012  proposals[_id] */\n      dup2\n      sload\n      dup2\n      lt\n      tag_142\n      jumpi\n      tag_143\n      tag_41\n      jump\t// in\n    tag_143:\n    tag_142:\n      swap1\n      0x00\n      mstore\n      keccak256(0x00, 0x20)\n      swap1\n      0x0c\n      mul\n      add\n        /* \"smartContract/contracts/3_Ballot.sol\":3991:4012  return proposals[_id] */\n      mload(0x40)\n      dup1\n      0x0180\n      add\n      0x40\n      mstore\n      swap1\n      dup2\n      0x00\n      dup3\n      add\n      dup1\n      sload\n      tag_145\n      swap1\n      tag_146\n      jump\t// in\n    tag_145:\n      dup1\n      0x1f\n      add\n      0x20\n      dup1\n      swap2\n      div\n      mul\n      0x20\n      add\n      mload(0x40)\n      swap1\n      dup2\n      add\n      0x40\n      mstore\n      dup1\n      swap3\n      swap2\n      swap1\n      dup2\n      dup2\n      mstore\n      0x20\n      add\n      dup3\n      dup1\n      sload\n      tag_147\n      swap1\n      tag_146\n      jump\t// in\n    tag_147:\n      dup1\n      iszero\n      tag_148\n      jumpi\n      dup1\n      0x1f\n      lt\n      tag_149\n      jumpi\n      0x0100\n      dup1\n      dup4\n      sload\n      div\n      mul\n      dup4\n      mstore\n      swap2\n      0x20\n      add\n      swap2\n      jump(tag_148)\n    tag_149:\n      dup3\n      add\n      swap2\n      swap1\n      0x00\n      mstore\n      keccak256(0x00, 0x20)\n      swap1\n    tag_150:\n      dup2\n      sload\n      dup2\n      mstore\n      swap1\n      0x01\n      add\n      swap1\n      0x20\n      add\n      dup1\n      dup4\n      gt\n      tag_150\n      jumpi\n      dup3\n      swap1\n      sub\n      0x1f\n      and\n      dup3\n      add\n      swap2\n    tag_148:\n      pop\n      pop\n      pop\n      pop\n      pop\n      dup2\n      mstore\n      0x20\n      add\n      0x01\n      dup3\n      add\n      sload\n      dup2\n      mstore\n      0x20\n      add\n      0x02\n      dup3\n      add\n      sload\n      dup2\n      mstore\n      0x20\n      add\n      0x03\n      dup3\n      add\n      sload\n      dup2\n      mstore\n      0x20\n      add\n      0x04\n      dup3\n      add\n      sload\n      dup2\n      mstore\n      0x20\n      add\n      0x05\n      dup3\n      add\n      sload\n      dup2\n      mstore\n      0x20\n      add\n      0x06\n      dup3\n      add\n      sload\n      dup2\n      mstore\n      0x20\n      add\n      0x07\n      dup3\n      add\n      sload\n      dup2\n      mstore\n      0x20\n      add\n      0x08\n      dup3\n      add\n      sload\n      dup2\n      mstore\n      0x20\n      add\n      0x09\n      dup3\n      add\n      sload\n      dup2\n      mstore\n      0x20\n      add\n      0x0a\n      dup3\n      add\n      sload\n      dup2\n      mstore\n      0x20\n      add\n      0x0b\n      dup3\n      add\n      sload\n      dup2\n      mstore\n      pop\n      pop\n      swap1\n      pop\n        /* \"smartContract/contracts/3_Ballot.sol\":3922:4019  function res(uint _id) public view returns(Proposal memory){... */\n      swap2\n      swap1\n      pop\n      jump\t// out\n        /* \"smartContract/contracts/3_Ballot.sol\":4488:4717  function winnerName() public view... */\n    tag_32:\n        /* \"smartContract/contracts/3_Ballot.sol\":4543:4568  string memory winnerName_ */\n      0x60\n        /* \"smartContract/contracts/3_Ballot.sol\":4677:4686  proposals */\n      0x02\n        /* \"smartContract/contracts/3_Ballot.sol\":4687:4704  winningProposal() */\n      tag_152\n        /* \"smartContract/contracts/3_Ballot.sol\":4687:4702  winningProposal */\n      tag_10\n        /* \"smartContract/contracts/3_Ballot.sol\":4687:4704  winningProposal() */\n      jump\t// in\n    tag_152:\n        /* \"smartContract/contracts/3_Ballot.sol\":4677:4705  proposals[winningProposal()] */\n      dup2\n      sload\n      dup2\n      lt\n      tag_153\n      jumpi\n      tag_154\n      tag_41\n      jump\t// in\n    tag_154:\n    tag_153:\n      swap1\n      0x00\n      mstore\n      keccak256(0x00, 0x20)\n      swap1\n      0x0c\n      mul\n      add\n        /* \"smartContract/contracts/3_Ballot.sol\":4677:4710  proposals[winningProposal()].name */\n      0x00\n      add\n        /* \"smartContract/contracts/3_Ballot.sol\":4663:4710  winnerName_ = proposals[winningProposal()].name */\n      dup1\n      sload\n      tag_156\n      swap1\n      tag_146\n      jump\t// in\n    tag_156:\n      dup1\n      0x1f\n      add\n      0x20\n      dup1\n      swap2\n      div\n      mul\n      0x20\n      add\n      mload(0x40)\n      swap1\n      dup2\n      add\n      0x40\n      mstore\n      dup1\n      swap3\n      swap2\n      swap1\n      dup2\n      dup2\n      mstore\n      0x20\n      add\n      dup3\n      dup1\n      sload\n      tag_157\n      swap1\n      tag_146\n      jump\t// in\n    tag_157:\n      dup1\n      iszero\n      tag_158\n      jumpi\n      dup1\n      0x1f\n      lt\n      tag_159\n      jumpi\n      0x0100\n      dup1\n      dup4\n      sload\n      div\n      mul\n      dup4\n      mstore\n      swap2\n      0x20\n      add\n      swap2\n      jump(tag_158)\n    tag_159:\n      dup3\n      add\n      swap2\n      swap1\n      0x00\n      mstore\n      keccak256(0x00, 0x20)\n      swap1\n    tag_160:\n      dup2\n      sload\n      dup2\n      mstore\n      swap1\n      0x01\n      add\n      swap1\n      0x20\n      add\n      dup1\n      dup4\n      gt\n      tag_160\n      jumpi\n      dup3\n      swap1\n      sub\n      0x1f\n      and\n      dup3\n      add\n      swap2\n    tag_158:\n      pop\n      pop\n      pop\n      pop\n      pop\n      swap1\n      pop\n        /* \"smartContract/contracts/3_Ballot.sol\":4488:4717  function winnerName() public view... */\n      swap1\n      jump\t// out\n        /* \"smartContract/contracts/3_Ballot.sol\":900:1071  function random_district() private view returns(uint){... */\n    tag_57:\n        /* \"smartContract/contracts/3_Ballot.sol\":948:952  uint */\n      0x00\n        /* \"smartContract/contracts/3_Ballot.sol\":1062:1064  10 */\n      0x0a\n        /* \"smartContract/contracts/3_Ballot.sol\":1002:1017  block.timestamp */\n      timestamp\n        /* \"smartContract/contracts/3_Ballot.sol\":1018:1034  block.difficulty */\n      difficulty\n        /* \"smartContract/contracts/3_Ballot.sol\":1046:1056  msg.sender */\n      caller\n        /* \"smartContract/contracts/3_Ballot.sol\":985:1057  abi.encodePacked(block.timestamp,block.difficulty,  ... */\n      add(0x20, mload(0x40))\n      tag_162\n      swap4\n      swap3\n      swap2\n      swap1\n      tag_163\n      jump\t// in\n    tag_162:\n      mload(0x40)\n      0x20\n      dup2\n      dup4\n      sub\n      sub\n      dup2\n      mstore\n      swap1\n      0x40\n      mstore\n        /* \"smartContract/contracts/3_Ballot.sol\":975:1058  keccak256(abi.encodePacked(block.timestamp,block.difficulty,  ... */\n      dup1\n      mload\n      swap1\n      0x20\n      add\n      keccak256\n        /* \"smartContract/contracts/3_Ballot.sol\":970:1059  uint(keccak256(abi.encodePacked(block.timestamp,block.difficulty,  ... */\n      0x00\n      shr\n        /* \"smartContract/contracts/3_Ballot.sol\":970:1064  uint(keccak256(abi.encodePacked(block.timestamp,block.difficulty,  ... */\n      tag_164\n      swap2\n      swap1\n      tag_165\n      jump\t// in\n    tag_164:\n        /* \"smartContract/contracts/3_Ballot.sol\":963:1064  return uint(keccak256(abi.encodePacked(block.timestamp,block.difficulty,  ... */\n      swap1\n      pop\n        /* \"smartContract/contracts/3_Ballot.sol\":900:1071  function random_district() private view returns(uint){... */\n      swap1\n      jump\t// out\n        /* \"smartContract/contracts/3_Ballot.sol\":2105:2283  function random_vote() private view returns(uint){... */\n    tag_62:\n        /* \"smartContract/contracts/3_Ballot.sol\":2149:2153  uint */\n      0x00\n        /* \"smartContract/contracts/3_Ballot.sol\":2271:2272  5 */\n      0x05\n        /* \"smartContract/contracts/3_Ballot.sol\":2207:2222  block.timestamp */\n      timestamp\n        /* \"smartContract/contracts/3_Ballot.sol\":2223:2239  block.difficulty */\n      difficulty\n        /* \"smartContract/contracts/3_Ballot.sol\":2255:2265  msg.sender */\n      caller\n        /* \"smartContract/contracts/3_Ballot.sol\":2190:2266  abi.encodePacked(block.timestamp,block.difficulty,  ... */\n      add(0x20, mload(0x40))\n      tag_167\n      swap4\n      swap3\n      swap2\n      swap1\n      tag_163\n      jump\t// in\n    tag_167:\n      mload(0x40)\n      0x20\n      dup2\n      dup4\n      sub\n      sub\n      dup2\n      mstore\n      swap1\n      0x40\n      mstore\n        /* \"smartContract/contracts/3_Ballot.sol\":2180:2267  keccak256(abi.encodePacked(block.timestamp,block.difficulty,  ... */\n      dup1\n      mload\n      swap1\n      0x20\n      add\n      keccak256\n        /* \"smartContract/contracts/3_Ballot.sol\":2175:2268  uint(keccak256(abi.encodePacked(block.timestamp,block.difficulty,  ... */\n      0x00\n      shr\n        /* \"smartContract/contracts/3_Ballot.sol\":2175:2272  uint(keccak256(abi.encodePacked(block.timestamp,block.difficulty,  ... */\n      tag_168\n      swap2\n      swap1\n      tag_165\n      jump\t// in\n    tag_168:\n        /* \"smartContract/contracts/3_Ballot.sol\":2168:2272  return uint(keccak256(abi.encodePacked(block.timestamp,block.difficulty,  ... */\n      swap1\n      pop\n        /* \"smartContract/contracts/3_Ballot.sol\":2105:2283  function random_vote() private view returns(uint){... */\n      swap1\n      jump\t// out\n        /* \"smartContract/contracts/3_Ballot.sol\":1929:1988  function countVoters() private {... */\n    tag_64:\n        /* \"smartContract/contracts/3_Ballot.sol\":1980:1981  1 */\n      0x01\n        /* \"smartContract/contracts/3_Ballot.sol\":1970:1976  countV */\n      0x03\n      0x00\n        /* \"smartContract/contracts/3_Ballot.sol\":1970:1981  countV += 1 */\n      dup3\n      dup3\n      sload\n      tag_170\n      swap2\n      swap1\n      tag_171\n      jump\t// in\n    tag_170:\n      swap3\n      pop\n      pop\n      dup2\n      swap1\n      sstore\n      pop\n        /* \"smartContract/contracts/3_Ballot.sol\":1929:1988  function countVoters() private {... */\n      jump\t// out\n    tag_140:\n      mload(0x40)\n      dup1\n      0x0180\n      add\n      0x40\n      mstore\n      dup1\n      0x60\n      dup2\n      mstore\n      0x20\n      add\n      0x00\n      dup2\n      mstore\n      0x20\n      add\n      0x00\n      dup2\n      mstore\n      0x20\n      add\n      0x00\n      dup2\n      mstore\n      0x20\n      add\n      0x00\n      dup2\n      mstore\n      0x20\n      add\n      0x00\n      dup2\n      mstore\n      0x20\n      add\n      0x00\n      dup2\n      mstore\n      0x20\n      add\n      0x00\n      dup2\n      mstore\n      0x20\n      add\n      0x00\n      dup2\n      mstore\n      0x20\n      add\n      0x00\n      dup2\n      mstore\n      0x20\n      add\n      0x00\n      dup2\n      mstore\n      0x20\n      add\n      0x00\n      dup2\n      mstore\n      pop\n      swap1\n      jump\t// out\n        /* \"#utility.yul\":7:146   */\n    tag_173:\n        /* \"#utility.yul\":53:58   */\n      0x00\n        /* \"#utility.yul\":91:97   */\n      dup2\n        /* \"#utility.yul\":78:98   */\n      calldataload\n        /* \"#utility.yul\":69:98   */\n      swap1\n      pop\n        /* \"#utility.yul\":107:140   */\n      tag_175\n        /* \"#utility.yul\":134:139   */\n      dup2\n        /* \"#utility.yul\":107:140   */\n      tag_176\n      jump\t// in\n    tag_175:\n        /* \"#utility.yul\":7:146   */\n      swap3\n      swap2\n      pop\n      pop\n      jump\t// out\n        /* \"#utility.yul\":152:291   */\n    tag_177:\n        /* \"#utility.yul\":198:203   */\n      0x00\n        /* \"#utility.yul\":236:242   */\n      dup2\n        /* \"#utility.yul\":223:243   */\n      calldataload\n        /* \"#utility.yul\":214:243   */\n      swap1\n      pop\n        /* \"#utility.yul\":252:285   */\n      tag_179\n        /* \"#utility.yul\":279:284   */\n      dup2\n        /* \"#utility.yul\":252:285   */\n      tag_180\n      jump\t// in\n    tag_179:\n        /* \"#utility.yul\":152:291   */\n      swap3\n      swap2\n      pop\n      pop\n      jump\t// out\n        /* \"#utility.yul\":297:626   */\n    tag_21:\n        /* \"#utility.yul\":356:362   */\n      0x00\n        /* \"#utility.yul\":405:407   */\n      0x20\n        /* \"#utility.yul\":393:402   */\n      dup3\n        /* \"#utility.yul\":384:391   */\n      dup5\n        /* \"#utility.yul\":380:403   */\n      sub\n        /* \"#utility.yul\":376:408   */\n      slt\n        /* \"#utility.yul\":373:492   */\n      iszero\n      tag_182\n      jumpi\n        /* \"#utility.yul\":411:490   */\n      tag_183\n      tag_184\n      jump\t// in\n    tag_183:\n        /* \"#utility.yul\":373:492   */\n    tag_182:\n        /* \"#utility.yul\":531:532   */\n      0x00\n        /* \"#utility.yul\":556:609   */\n      tag_185\n        /* \"#utility.yul\":601:608   */\n      dup5\n        /* \"#utility.yul\":592:598   */\n      dup3\n        /* \"#utility.yul\":581:590   */\n      dup6\n        /* \"#utility.yul\":577:599   */\n      add\n        /* \"#utility.yul\":556:609   */\n      tag_173\n      jump\t// in\n    tag_185:\n        /* \"#utility.yul\":546:609   */\n      swap2\n      pop\n        /* \"#utility.yul\":502:619   */\n      pop\n        /* \"#utility.yul\":297:626   */\n      swap3\n      swap2\n      pop\n      pop\n      jump\t// out\n        /* \"#utility.yul\":632:961   */\n    tag_27:\n        /* \"#utility.yul\":691:697   */\n      0x00\n        /* \"#utility.yul\":740:742   */\n      0x20\n        /* \"#utility.yul\":728:737   */\n      dup3\n        /* \"#utility.yul\":719:726   */\n      dup5\n        /* \"#utility.yul\":715:738   */\n      sub\n        /* \"#utility.yul\":711:743   */\n      slt\n        /* \"#utility.yul\":708:827   */\n      iszero\n      tag_187\n      jumpi\n        /* \"#utility.yul\":746:825   */\n      tag_188\n      tag_184\n      jump\t// in\n    tag_188:\n        /* \"#utility.yul\":708:827   */\n    tag_187:\n        /* \"#utility.yul\":866:867   */\n      0x00\n        /* \"#utility.yul\":891:944   */\n      tag_189\n        /* \"#utility.yul\":936:943   */\n      dup5\n        /* \"#utility.yul\":927:933   */\n      dup3\n        /* \"#utility.yul\":916:925   */\n      dup6\n        /* \"#utility.yul\":912:934   */\n      add\n        /* \"#utility.yul\":891:944   */\n      tag_177\n      jump\t// in\n    tag_189:\n        /* \"#utility.yul\":881:944   */\n      swap2\n      pop\n        /* \"#utility.yul\":837:954   */\n      pop\n        /* \"#utility.yul\":632:961   */\n      swap3\n      swap2\n      pop\n      pop\n      jump\t// out\n        /* \"#utility.yul\":967:1124   */\n    tag_190:\n        /* \"#utility.yul\":1072:1117   */\n      tag_192\n        /* \"#utility.yul\":1092:1116   */\n      tag_193\n        /* \"#utility.yul\":1110:1115   */\n      dup3\n        /* \"#utility.yul\":1092:1116   */\n      tag_194\n      jump\t// in\n    tag_193:\n        /* \"#utility.yul\":1072:1117   */\n      tag_195\n      jump\t// in\n    tag_192:\n        /* \"#utility.yul\":1067:1070   */\n      dup3\n        /* \"#utility.yul\":1060:1118   */\n      mstore\n        /* \"#utility.yul\":967:1124   */\n      pop\n      pop\n      jump\t// out\n        /* \"#utility.yul\":1130:1239   */\n    tag_196:\n        /* \"#utility.yul\":1211:1232   */\n      tag_198\n        /* \"#utility.yul\":1226:1231   */\n      dup2\n        /* \"#utility.yul\":1211:1232   */\n      tag_199\n      jump\t// in\n    tag_198:\n        /* \"#utility.yul\":1206:1209   */\n      dup3\n        /* \"#utility.yul\":1199:1233   */\n      mstore\n        /* \"#utility.yul\":1130:1239   */\n      pop\n      pop\n      jump\t// out\n        /* \"#utility.yul\":1245:1360   */\n    tag_200:\n        /* \"#utility.yul\":1330:1353   */\n      tag_202\n        /* \"#utility.yul\":1347:1352   */\n      dup2\n        /* \"#utility.yul\":1330:1353   */\n      tag_203\n      jump\t// in\n    tag_202:\n        /* \"#utility.yul\":1325:1328   */\n      dup3\n        /* \"#utility.yul\":1318:1354   */\n      mstore\n        /* \"#utility.yul\":1245:1360   */\n      pop\n      pop\n      jump\t// out\n        /* \"#utility.yul\":1366:1710   */\n    tag_204:\n        /* \"#utility.yul\":1444:1447   */\n      0x00\n        /* \"#utility.yul\":1472:1511   */\n      tag_206\n        /* \"#utility.yul\":1505:1510   */\n      dup3\n        /* \"#utility.yul\":1472:1511   */\n      tag_207\n      jump\t// in\n    tag_206:\n        /* \"#utility.yul\":1527:1588   */\n      tag_208\n        /* \"#utility.yul\":1581:1587   */\n      dup2\n        /* \"#utility.yul\":1576:1579   */\n      dup6\n        /* \"#utility.yul\":1527:1588   */\n      tag_209\n      jump\t// in\n    tag_208:\n        /* \"#utility.yul\":1520:1588   */\n      swap4\n      pop\n        /* \"#utility.yul\":1597:1649   */\n      tag_210\n        /* \"#utility.yul\":1642:1648   */\n      dup2\n        /* \"#utility.yul\":1637:1640   */\n      dup6\n        /* \"#utility.yul\":1630:1634   */\n      0x20\n        /* \"#utility.yul\":1623:1628   */\n      dup7\n        /* \"#utility.yul\":1619:1635   */\n      add\n        /* \"#utility.yul\":1597:1649   */\n      tag_211\n      jump\t// in\n    tag_210:\n        /* \"#utility.yul\":1674:1703   */\n      tag_212\n        /* \"#utility.yul\":1696:1702   */\n      dup2\n        /* \"#utility.yul\":1674:1703   */\n      tag_213\n      jump\t// in\n    tag_212:\n        /* \"#utility.yul\":1669:1672   */\n      dup5\n        /* \"#utility.yul\":1665:1704   */\n      add\n        /* \"#utility.yul\":1658:1704   */\n      swap2\n      pop\n        /* \"#utility.yul\":1448:1710   */\n      pop\n        /* \"#utility.yul\":1366:1710   */\n      swap3\n      swap2\n      pop\n      pop\n      jump\t// out\n        /* \"#utility.yul\":1716:2080   */\n    tag_214:\n        /* \"#utility.yul\":1804:1807   */\n      0x00\n        /* \"#utility.yul\":1832:1871   */\n      tag_216\n        /* \"#utility.yul\":1865:1870   */\n      dup3\n        /* \"#utility.yul\":1832:1871   */\n      tag_207\n      jump\t// in\n    tag_216:\n        /* \"#utility.yul\":1887:1958   */\n      tag_217\n        /* \"#utility.yul\":1951:1957   */\n      dup2\n        /* \"#utility.yul\":1946:1949   */\n      dup6\n        /* \"#utility.yul\":1887:1958   */\n      tag_218\n      jump\t// in\n    tag_217:\n        /* \"#utility.yul\":1880:1958   */\n      swap4\n      pop\n        /* \"#utility.yul\":1967:2019   */\n      tag_219\n        /* \"#utility.yul\":2012:2018   */\n      dup2\n        /* \"#utility.yul\":2007:2010   */\n      dup6\n        /* \"#utility.yul\":2000:2004   */\n      0x20\n        /* \"#utility.yul\":1993:1998   */\n      dup7\n        /* \"#utility.yul\":1989:2005   */\n      add\n        /* \"#utility.yul\":1967:2019   */\n      tag_211\n      jump\t// in\n    tag_219:\n        /* \"#utility.yul\":2044:2073   */\n      tag_220\n        /* \"#utility.yul\":2066:2072   */\n      dup2\n        /* \"#utility.yul\":2044:2073   */\n      tag_213\n      jump\t// in\n    tag_220:\n        /* \"#utility.yul\":2039:2042   */\n      dup5\n        /* \"#utility.yul\":2035:2074   */\n      add\n        /* \"#utility.yul\":2028:2074   */\n      swap2\n      pop\n        /* \"#utility.yul\":1808:2080   */\n      pop\n        /* \"#utility.yul\":1716:2080   */\n      swap3\n      swap2\n      pop\n      pop\n      jump\t// out\n        /* \"#utility.yul\":2086:2452   */\n    tag_221:\n        /* \"#utility.yul\":2228:2231   */\n      0x00\n        /* \"#utility.yul\":2249:2316   */\n      tag_223\n        /* \"#utility.yul\":2313:2315   */\n      0x0e\n        /* \"#utility.yul\":2308:2311   */\n      dup4\n        /* \"#utility.yul\":2249:2316   */\n      tag_218\n      jump\t// in\n    tag_223:\n        /* \"#utility.yul\":2242:2316   */\n      swap2\n      pop\n        /* \"#utility.yul\":2325:2418   */\n      tag_224\n        /* \"#utility.yul\":2414:2417   */\n      dup3\n        /* \"#utility.yul\":2325:2418   */\n      tag_225\n      jump\t// in\n    tag_224:\n        /* \"#utility.yul\":2443:2445   */\n      0x20\n        /* \"#utility.yul\":2438:2441   */\n      dup3\n        /* \"#utility.yul\":2434:2446   */\n      add\n        /* \"#utility.yul\":2427:2446   */\n      swap1\n      pop\n        /* \"#utility.yul\":2086:2452   */\n      swap2\n      swap1\n      pop\n      jump\t// out\n        /* \"#utility.yul\":2458:2824   */\n    tag_226:\n        /* \"#utility.yul\":2600:2603   */\n      0x00\n        /* \"#utility.yul\":2621:2688   */\n      tag_228\n        /* \"#utility.yul\":2685:2687   */\n      0x18\n        /* \"#utility.yul\":2680:2683   */\n      dup4\n        /* \"#utility.yul\":2621:2688   */\n      tag_218\n      jump\t// in\n    tag_228:\n        /* \"#utility.yul\":2614:2688   */\n      swap2\n      pop\n        /* \"#utility.yul\":2697:2790   */\n      tag_229\n        /* \"#utility.yul\":2786:2789   */\n      dup3\n        /* \"#utility.yul\":2697:2790   */\n      tag_230\n      jump\t// in\n    tag_229:\n        /* \"#utility.yul\":2815:2817   */\n      0x20\n        /* \"#utility.yul\":2810:2813   */\n      dup3\n        /* \"#utility.yul\":2806:2818   */\n      add\n        /* \"#utility.yul\":2799:2818   */\n      swap1\n      pop\n        /* \"#utility.yul\":2458:2824   */\n      swap2\n      swap1\n      pop\n      jump\t// out\n        /* \"#utility.yul\":2830:3196   */\n    tag_231:\n        /* \"#utility.yul\":2972:2975   */\n      0x00\n        /* \"#utility.yul\":2993:3060   */\n      tag_233\n        /* \"#utility.yul\":3057:3059   */\n      0x13\n        /* \"#utility.yul\":3052:3055   */\n      dup4\n        /* \"#utility.yul\":2993:3060   */\n      tag_218\n      jump\t// in\n    tag_233:\n        /* \"#utility.yul\":2986:3060   */\n      swap2\n      pop\n        /* \"#utility.yul\":3069:3162   */\n      tag_234\n        /* \"#utility.yul\":3158:3161   */\n      dup3\n        /* \"#utility.yul\":3069:3162   */\n      tag_235\n      jump\t// in\n    tag_234:\n        /* \"#utility.yul\":3187:3189   */\n      0x20\n        /* \"#utility.yul\":3182:3185   */\n      dup3\n        /* \"#utility.yul\":3178:3190   */\n      add\n        /* \"#utility.yul\":3171:3190   */\n      swap1\n      pop\n        /* \"#utility.yul\":2830:3196   */\n      swap2\n      swap1\n      pop\n      jump\t// out\n        /* \"#utility.yul\":3258:5737   */\n    tag_236:\n        /* \"#utility.yul\":3375:3378   */\n      0x00\n        /* \"#utility.yul\":3411:3417   */\n      0x0180\n        /* \"#utility.yul\":3406:3409   */\n      dup4\n        /* \"#utility.yul\":3402:3418   */\n      add\n        /* \"#utility.yul\":3500:3504   */\n      0x00\n        /* \"#utility.yul\":3493:3498   */\n      dup4\n        /* \"#utility.yul\":3489:3505   */\n      add\n        /* \"#utility.yul\":3483:3506   */\n      mload\n        /* \"#utility.yul\":3553:3556   */\n      dup5\n        /* \"#utility.yul\":3547:3551   */\n      dup3\n        /* \"#utility.yul\":3543:3557   */\n      sub\n        /* \"#utility.yul\":3536:3540   */\n      0x00\n        /* \"#utility.yul\":3531:3534   */\n      dup7\n        /* \"#utility.yul\":3527:3541   */\n      add\n        /* \"#utility.yul\":3520:3558   */\n      mstore\n        /* \"#utility.yul\":3579:3652   */\n      tag_238\n        /* \"#utility.yul\":3647:3651   */\n      dup3\n        /* \"#utility.yul\":3633:3645   */\n      dup3\n        /* \"#utility.yul\":3579:3652   */\n      tag_204\n      jump\t// in\n    tag_238:\n        /* \"#utility.yul\":3571:3652   */\n      swap2\n      pop\n        /* \"#utility.yul\":3428:3663   */\n      pop\n        /* \"#utility.yul\":3752:3756   */\n      0x20\n        /* \"#utility.yul\":3745:3750   */\n      dup4\n        /* \"#utility.yul\":3741:3757   */\n      add\n        /* \"#utility.yul\":3735:3758   */\n      mload\n        /* \"#utility.yul\":3771:3834   */\n      tag_239\n        /* \"#utility.yul\":3828:3832   */\n      0x20\n        /* \"#utility.yul\":3823:3826   */\n      dup7\n        /* \"#utility.yul\":3819:3833   */\n      add\n        /* \"#utility.yul\":3805:3817   */\n      dup3\n        /* \"#utility.yul\":3771:3834   */\n      tag_240\n      jump\t// in\n    tag_239:\n        /* \"#utility.yul\":3673:3844   */\n      pop\n        /* \"#utility.yul\":3937:3941   */\n      0x40\n        /* \"#utility.yul\":3930:3935   */\n      dup4\n        /* \"#utility.yul\":3926:3942   */\n      add\n        /* \"#utility.yul\":3920:3943   */\n      mload\n        /* \"#utility.yul\":3956:4019   */\n      tag_241\n        /* \"#utility.yul\":4013:4017   */\n      0x40\n        /* \"#utility.yul\":4008:4011   */\n      dup7\n        /* \"#utility.yul\":4004:4018   */\n      add\n        /* \"#utility.yul\":3990:4002   */\n      dup3\n        /* \"#utility.yul\":3956:4019   */\n      tag_240\n      jump\t// in\n    tag_241:\n        /* \"#utility.yul\":3854:4029   */\n      pop\n        /* \"#utility.yul\":4122:4126   */\n      0x60\n        /* \"#utility.yul\":4115:4120   */\n      dup4\n        /* \"#utility.yul\":4111:4127   */\n      add\n        /* \"#utility.yul\":4105:4128   */\n      mload\n        /* \"#utility.yul\":4141:4204   */\n      tag_242\n        /* \"#utility.yul\":4198:4202   */\n      0x60\n        /* \"#utility.yul\":4193:4196   */\n      dup7\n        /* \"#utility.yul\":4189:4203   */\n      add\n        /* \"#utility.yul\":4175:4187   */\n      dup3\n        /* \"#utility.yul\":4141:4204   */\n      tag_240\n      jump\t// in\n    tag_242:\n        /* \"#utility.yul\":4039:4214   */\n      pop\n        /* \"#utility.yul\":4307:4311   */\n      0x80\n        /* \"#utility.yul\":4300:4305   */\n      dup4\n        /* \"#utility.yul\":4296:4312   */\n      add\n        /* \"#utility.yul\":4290:4313   */\n      mload\n        /* \"#utility.yul\":4326:4389   */\n      tag_243\n        /* \"#utility.yul\":4383:4387   */\n      0x80\n        /* \"#utility.yul\":4378:4381   */\n      dup7\n        /* \"#utility.yul\":4374:4388   */\n      add\n        /* \"#utility.yul\":4360:4372   */\n      dup3\n        /* \"#utility.yul\":4326:4389   */\n      tag_240\n      jump\t// in\n    tag_243:\n        /* \"#utility.yul\":4224:4399   */\n      pop\n        /* \"#utility.yul\":4492:4496   */\n      0xa0\n        /* \"#utility.yul\":4485:4490   */\n      dup4\n        /* \"#utility.yul\":4481:4497   */\n      add\n        /* \"#utility.yul\":4475:4498   */\n      mload\n        /* \"#utility.yul\":4511:4574   */\n      tag_244\n        /* \"#utility.yul\":4568:4572   */\n      0xa0\n        /* \"#utility.yul\":4563:4566   */\n      dup7\n        /* \"#utility.yul\":4559:4573   */\n      add\n        /* \"#utility.yul\":4545:4557   */\n      dup3\n        /* \"#utility.yul\":4511:4574   */\n      tag_240\n      jump\t// in\n    tag_244:\n        /* \"#utility.yul\":4409:4584   */\n      pop\n        /* \"#utility.yul\":4677:4681   */\n      0xc0\n        /* \"#utility.yul\":4670:4675   */\n      dup4\n        /* \"#utility.yul\":4666:4682   */\n      add\n        /* \"#utility.yul\":4660:4683   */\n      mload\n        /* \"#utility.yul\":4696:4759   */\n      tag_245\n        /* \"#utility.yul\":4753:4757   */\n      0xc0\n        /* \"#utility.yul\":4748:4751   */\n      dup7\n        /* \"#utility.yul\":4744:4758   */\n      add\n        /* \"#utility.yul\":4730:4742   */\n      dup3\n        /* \"#utility.yul\":4696:4759   */\n      tag_240\n      jump\t// in\n    tag_245:\n        /* \"#utility.yul\":4594:4769   */\n      pop\n        /* \"#utility.yul\":4862:4866   */\n      0xe0\n        /* \"#utility.yul\":4855:4860   */\n      dup4\n        /* \"#utility.yul\":4851:4867   */\n      add\n        /* \"#utility.yul\":4845:4868   */\n      mload\n        /* \"#utility.yul\":4881:4944   */\n      tag_246\n        /* \"#utility.yul\":4938:4942   */\n      0xe0\n        /* \"#utility.yul\":4933:4936   */\n      dup7\n        /* \"#utility.yul\":4929:4943   */\n      add\n        /* \"#utility.yul\":4915:4927   */\n      dup3\n        /* \"#utility.yul\":4881:4944   */\n      tag_240\n      jump\t// in\n    tag_246:\n        /* \"#utility.yul\":4779:4954   */\n      pop\n        /* \"#utility.yul\":5047:5053   */\n      0x0100\n        /* \"#utility.yul\":5040:5045   */\n      dup4\n        /* \"#utility.yul\":5036:5054   */\n      add\n        /* \"#utility.yul\":5030:5055   */\n      mload\n        /* \"#utility.yul\":5068:5133   */\n      tag_247\n        /* \"#utility.yul\":5125:5131   */\n      0x0100\n        /* \"#utility.yul\":5120:5123   */\n      dup7\n        /* \"#utility.yul\":5116:5132   */\n      add\n        /* \"#utility.yul\":5102:5114   */\n      dup3\n        /* \"#utility.yul\":5068:5133   */\n      tag_240\n      jump\t// in\n    tag_247:\n        /* \"#utility.yul\":4964:5143   */\n      pop\n        /* \"#utility.yul\":5236:5242   */\n      0x0120\n        /* \"#utility.yul\":5229:5234   */\n      dup4\n        /* \"#utility.yul\":5225:5243   */\n      add\n        /* \"#utility.yul\":5219:5244   */\n      mload\n        /* \"#utility.yul\":5257:5322   */\n      tag_248\n        /* \"#utility.yul\":5314:5320   */\n      0x0120\n        /* \"#utility.yul\":5309:5312   */\n      dup7\n        /* \"#utility.yul\":5305:5321   */\n      add\n        /* \"#utility.yul\":5291:5303   */\n      dup3\n        /* \"#utility.yul\":5257:5322   */\n      tag_240\n      jump\t// in\n    tag_248:\n        /* \"#utility.yul\":5153:5332   */\n      pop\n        /* \"#utility.yul\":5425:5431   */\n      0x0140\n        /* \"#utility.yul\":5418:5423   */\n      dup4\n        /* \"#utility.yul\":5414:5432   */\n      add\n        /* \"#utility.yul\":5408:5433   */\n      mload\n        /* \"#utility.yul\":5446:5511   */\n      tag_249\n        /* \"#utility.yul\":5503:5509   */\n      0x0140\n        /* \"#utility.yul\":5498:5501   */\n      dup7\n        /* \"#utility.yul\":5494:5510   */\n      add\n        /* \"#utility.yul\":5480:5492   */\n      dup3\n        /* \"#utility.yul\":5446:5511   */\n      tag_240\n      jump\t// in\n    tag_249:\n        /* \"#utility.yul\":5342:5521   */\n      pop\n        /* \"#utility.yul\":5614:5620   */\n      0x0160\n        /* \"#utility.yul\":5607:5612   */\n      dup4\n        /* \"#utility.yul\":5603:5621   */\n      add\n        /* \"#utility.yul\":5597:5622   */\n      mload\n        /* \"#utility.yul\":5635:5700   */\n      tag_250\n        /* \"#utility.yul\":5692:5698   */\n      0x0160\n        /* \"#utility.yul\":5687:5690   */\n      dup7\n        /* \"#utility.yul\":5683:5699   */\n      add\n        /* \"#utility.yul\":5669:5681   */\n      dup3\n        /* \"#utility.yul\":5635:5700   */\n      tag_240\n      jump\t// in\n    tag_250:\n        /* \"#utility.yul\":5531:5710   */\n      pop\n        /* \"#utility.yul\":5727:5731   */\n      dup1\n        /* \"#utility.yul\":5720:5731   */\n      swap2\n      pop\n        /* \"#utility.yul\":3380:5737   */\n      pop\n        /* \"#utility.yul\":3258:5737   */\n      swap3\n      swap2\n      pop\n      pop\n      jump\t// out\n        /* \"#utility.yul\":5743:5851   */\n    tag_240:\n        /* \"#utility.yul\":5820:5844   */\n      tag_252\n        /* \"#utility.yul\":5838:5843   */\n      dup2\n        /* \"#utility.yul\":5820:5844   */\n      tag_253\n      jump\t// in\n    tag_252:\n        /* \"#utility.yul\":5815:5818   */\n      dup3\n        /* \"#utility.yul\":5808:5845   */\n      mstore\n        /* \"#utility.yul\":5743:5851   */\n      pop\n      pop\n      jump\t// out\n        /* \"#utility.yul\":5857:5975   */\n    tag_254:\n        /* \"#utility.yul\":5944:5968   */\n      tag_256\n        /* \"#utility.yul\":5962:5967   */\n      dup2\n        /* \"#utility.yul\":5944:5968   */\n      tag_253\n      jump\t// in\n    tag_256:\n        /* \"#utility.yul\":5939:5942   */\n      dup3\n        /* \"#utility.yul\":5932:5969   */\n      mstore\n        /* \"#utility.yul\":5857:5975   */\n      pop\n      pop\n      jump\t// out\n        /* \"#utility.yul\":5981:6138   */\n    tag_257:\n        /* \"#utility.yul\":6086:6131   */\n      tag_259\n        /* \"#utility.yul\":6106:6130   */\n      tag_260\n        /* \"#utility.yul\":6124:6129   */\n      dup3\n        /* \"#utility.yul\":6106:6130   */\n      tag_253\n      jump\t// in\n    tag_260:\n        /* \"#utility.yul\":6086:6131   */\n      tag_261\n      jump\t// in\n    tag_259:\n        /* \"#utility.yul\":6081:6084   */\n      dup3\n        /* \"#utility.yul\":6074:6132   */\n      mstore\n        /* \"#utility.yul\":5981:6138   */\n      pop\n      pop\n      jump\t// out\n        /* \"#utility.yul\":6144:6682   */\n    tag_163:\n        /* \"#utility.yul\":6312:6315   */\n      0x00\n        /* \"#utility.yul\":6327:6402   */\n      tag_263\n        /* \"#utility.yul\":6398:6401   */\n      dup3\n        /* \"#utility.yul\":6389:6395   */\n      dup7\n        /* \"#utility.yul\":6327:6402   */\n      tag_257\n      jump\t// in\n    tag_263:\n        /* \"#utility.yul\":6427:6429   */\n      0x20\n        /* \"#utility.yul\":6422:6425   */\n      dup3\n        /* \"#utility.yul\":6418:6430   */\n      add\n        /* \"#utility.yul\":6411:6430   */\n      swap2\n      pop\n        /* \"#utility.yul\":6440:6515   */\n      tag_264\n        /* \"#utility.yul\":6511:6514   */\n      dup3\n        /* \"#utility.yul\":6502:6508   */\n      dup6\n        /* \"#utility.yul\":6440:6515   */\n      tag_257\n      jump\t// in\n    tag_264:\n        /* \"#utility.yul\":6540:6542   */\n      0x20\n        /* \"#utility.yul\":6535:6538   */\n      dup3\n        /* \"#utility.yul\":6531:6543   */\n      add\n        /* \"#utility.yul\":6524:6543   */\n      swap2\n      pop\n        /* \"#utility.yul\":6553:6628   */\n      tag_265\n        /* \"#utility.yul\":6624:6627   */\n      dup3\n        /* \"#utility.yul\":6615:6621   */\n      dup5\n        /* \"#utility.yul\":6553:6628   */\n      tag_190\n      jump\t// in\n    tag_265:\n        /* \"#utility.yul\":6653:6655   */\n      0x14\n        /* \"#utility.yul\":6648:6651   */\n      dup3\n        /* \"#utility.yul\":6644:6656   */\n      add\n        /* \"#utility.yul\":6637:6656   */\n      swap2\n      pop\n        /* \"#utility.yul\":6673:6676   */\n      dup2\n        /* \"#utility.yul\":6666:6676   */\n      swap1\n      pop\n        /* \"#utility.yul\":6144:6682   */\n      swap5\n      swap4\n      pop\n      pop\n      pop\n      pop\n      jump\t// out\n        /* \"#utility.yul\":6688:6906   */\n    tag_18:\n        /* \"#utility.yul\":6779:6783   */\n      0x00\n        /* \"#utility.yul\":6817:6819   */\n      0x20\n        /* \"#utility.yul\":6806:6815   */\n      dup3\n        /* \"#utility.yul\":6802:6820   */\n      add\n        /* \"#utility.yul\":6794:6820   */\n      swap1\n      pop\n        /* \"#utility.yul\":6830:6899   */\n      tag_267\n        /* \"#utility.yul\":6896:6897   */\n      0x00\n        /* \"#utility.yul\":6885:6894   */\n      dup4\n        /* \"#utility.yul\":6881:6898   */\n      add\n        /* \"#utility.yul\":6872:6878   */\n      dup5\n        /* \"#utility.yul\":6830:6899   */\n      tag_200\n      jump\t// in\n    tag_267:\n        /* \"#utility.yul\":6688:6906   */\n      swap3\n      swap2\n      pop\n      pop\n      jump\t// out\n        /* \"#utility.yul\":6912:7225   */\n    tag_34:\n        /* \"#utility.yul\":7025:7029   */\n      0x00\n        /* \"#utility.yul\":7063:7065   */\n      0x20\n        /* \"#utility.yul\":7052:7061   */\n      dup3\n        /* \"#utility.yul\":7048:7066   */\n      add\n        /* \"#utility.yul\":7040:7066   */\n      swap1\n      pop\n        /* \"#utility.yul\":7112:7121   */\n      dup2\n        /* \"#utility.yul\":7106:7110   */\n      dup2\n        /* \"#utility.yul\":7102:7122   */\n      sub\n        /* \"#utility.yul\":7098:7099   */\n      0x00\n        /* \"#utility.yul\":7087:7096   */\n      dup4\n        /* \"#utility.yul\":7083:7100   */\n      add\n        /* \"#utility.yul\":7076:7123   */\n      mstore\n        /* \"#utility.yul\":7140:7218   */\n      tag_269\n        /* \"#utility.yul\":7213:7217   */\n      dup2\n        /* \"#utility.yul\":7204:7210   */\n      dup5\n        /* \"#utility.yul\":7140:7218   */\n      tag_214\n      jump\t// in\n    tag_269:\n        /* \"#utility.yul\":7132:7218   */\n      swap1\n      pop\n        /* \"#utility.yul\":6912:7225   */\n      swap3\n      swap2\n      pop\n      pop\n      jump\t// out\n        /* \"#utility.yul\":7231:7650   */\n    tag_60:\n        /* \"#utility.yul\":7397:7401   */\n      0x00\n        /* \"#utility.yul\":7435:7437   */\n      0x20\n        /* \"#utility.yul\":7424:7433   */\n      dup3\n        /* \"#utility.yul\":7420:7438   */\n      add\n        /* \"#utility.yul\":7412:7438   */\n      swap1\n      pop\n        /* \"#utility.yul\":7484:7493   */\n      dup2\n        /* \"#utility.yul\":7478:7482   */\n      dup2\n        /* \"#utility.yul\":7474:7494   */\n      sub\n        /* \"#utility.yul\":7470:7471   */\n      0x00\n        /* \"#utility.yul\":7459:7468   */\n      dup4\n        /* \"#utility.yul\":7455:7472   */\n      add\n        /* \"#utility.yul\":7448:7495   */\n      mstore\n        /* \"#utility.yul\":7512:7643   */\n      tag_271\n        /* \"#utility.yul\":7638:7642   */\n      dup2\n        /* \"#utility.yul\":7512:7643   */\n      tag_221\n      jump\t// in\n    tag_271:\n        /* \"#utility.yul\":7504:7643   */\n      swap1\n      pop\n        /* \"#utility.yul\":7231:7650   */\n      swap2\n      swap1\n      pop\n      jump\t// out\n        /* \"#utility.yul\":7656:8075   */\n    tag_52:\n        /* \"#utility.yul\":7822:7826   */\n      0x00\n        /* \"#utility.yul\":7860:7862   */\n      0x20\n        /* \"#utility.yul\":7849:7858   */\n      dup3\n        /* \"#utility.yul\":7845:7863   */\n      add\n        /* \"#utility.yul\":7837:7863   */\n      swap1\n      pop\n        /* \"#utility.yul\":7909:7918   */\n      dup2\n        /* \"#utility.yul\":7903:7907   */\n      dup2\n        /* \"#utility.yul\":7899:7919   */\n      sub\n        /* \"#utility.yul\":7895:7896   */\n      0x00\n        /* \"#utility.yul\":7884:7893   */\n      dup4\n        /* \"#utility.yul\":7880:7897   */\n      add\n        /* \"#utility.yul\":7873:7920   */\n      mstore\n        /* \"#utility.yul\":7937:8068   */\n      tag_273\n        /* \"#utility.yul\":8063:8067   */\n      dup2\n        /* \"#utility.yul\":7937:8068   */\n      tag_226\n      jump\t// in\n    tag_273:\n        /* \"#utility.yul\":7929:8068   */\n      swap1\n      pop\n        /* \"#utility.yul\":7656:8075   */\n      swap2\n      swap1\n      pop\n      jump\t// out\n        /* \"#utility.yul\":8081:8500   */\n    tag_55:\n        /* \"#utility.yul\":8247:8251   */\n      0x00\n        /* \"#utility.yul\":8285:8287   */\n      0x20\n        /* \"#utility.yul\":8274:8283   */\n      dup3\n        /* \"#utility.yul\":8270:8288   */\n      add\n        /* \"#utility.yul\":8262:8288   */\n      swap1\n      pop\n        /* \"#utility.yul\":8334:8343   */\n      dup2\n        /* \"#utility.yul\":8328:8332   */\n      dup2\n        /* \"#utility.yul\":8324:8344   */\n      sub\n        /* \"#utility.yul\":8320:8321   */\n      0x00\n        /* \"#utility.yul\":8309:8318   */\n      dup4\n        /* \"#utility.yul\":8305:8322   */\n      add\n        /* \"#utility.yul\":8298:8345   */\n      mstore\n        /* \"#utility.yul\":8362:8493   */\n      tag_275\n        /* \"#utility.yul\":8488:8492   */\n      dup2\n        /* \"#utility.yul\":8362:8493   */\n      tag_231\n      jump\t// in\n    tag_275:\n        /* \"#utility.yul\":8354:8493   */\n      swap1\n      pop\n        /* \"#utility.yul\":8081:8500   */\n      swap2\n      swap1\n      pop\n      jump\t// out\n        /* \"#utility.yul\":8506:8875   */\n    tag_30:\n        /* \"#utility.yul\":8647:8651   */\n      0x00\n        /* \"#utility.yul\":8685:8687   */\n      0x20\n        /* \"#utility.yul\":8674:8683   */\n      dup3\n        /* \"#utility.yul\":8670:8688   */\n      add\n        /* \"#utility.yul\":8662:8688   */\n      swap1\n      pop\n        /* \"#utility.yul\":8734:8743   */\n      dup2\n        /* \"#utility.yul\":8728:8732   */\n      dup2\n        /* \"#utility.yul\":8724:8744   */\n      sub\n        /* \"#utility.yul\":8720:8721   */\n      0x00\n        /* \"#utility.yul\":8709:8718   */\n      dup4\n        /* \"#utility.yul\":8705:8722   */\n      add\n        /* \"#utility.yul\":8698:8745   */\n      mstore\n        /* \"#utility.yul\":8762:8868   */\n      tag_277\n        /* \"#utility.yul\":8863:8867   */\n      dup2\n        /* \"#utility.yul\":8854:8860   */\n      dup5\n        /* \"#utility.yul\":8762:8868   */\n      tag_236\n      jump\t// in\n    tag_277:\n        /* \"#utility.yul\":8754:8868   */\n      swap1\n      pop\n        /* \"#utility.yul\":8506:8875   */\n      swap3\n      swap2\n      pop\n      pop\n      jump\t// out\n        /* \"#utility.yul\":8881:9103   */\n    tag_12:\n        /* \"#utility.yul\":8974:8978   */\n      0x00\n        /* \"#utility.yul\":9012:9014   */\n      0x20\n        /* \"#utility.yul\":9001:9010   */\n      dup3\n        /* \"#utility.yul\":8997:9015   */\n      add\n        /* \"#utility.yul\":8989:9015   */\n      swap1\n      pop\n        /* \"#utility.yul\":9025:9096   */\n      tag_279\n        /* \"#utility.yul\":9093:9094   */\n      0x00\n        /* \"#utility.yul\":9082:9091   */\n      dup4\n        /* \"#utility.yul\":9078:9095   */\n      add\n        /* \"#utility.yul\":9069:9075   */\n      dup5\n        /* \"#utility.yul\":9025:9096   */\n      tag_254\n      jump\t// in\n    tag_279:\n        /* \"#utility.yul\":8881:9103   */\n      swap3\n      swap2\n      pop\n      pop\n      jump\t// out\n        /* \"#utility.yul\":9109:9650   */\n    tag_24:\n        /* \"#utility.yul\":9280:9284   */\n      0x00\n        /* \"#utility.yul\":9318:9321   */\n      0x80\n        /* \"#utility.yul\":9307:9316   */\n      dup3\n        /* \"#utility.yul\":9303:9322   */\n      add\n        /* \"#utility.yul\":9295:9322   */\n      swap1\n      pop\n        /* \"#utility.yul\":9332:9403   */\n      tag_281\n        /* \"#utility.yul\":9400:9401   */\n      0x00\n        /* \"#utility.yul\":9389:9398   */\n      dup4\n        /* \"#utility.yul\":9385:9402   */\n      add\n        /* \"#utility.yul\":9376:9382   */\n      dup8\n        /* \"#utility.yul\":9332:9403   */\n      tag_254\n      jump\t// in\n    tag_281:\n        /* \"#utility.yul\":9413:9479   */\n      tag_282\n        /* \"#utility.yul\":9475:9477   */\n      0x20\n        /* \"#utility.yul\":9464:9473   */\n      dup4\n        /* \"#utility.yul\":9460:9478   */\n      add\n        /* \"#utility.yul\":9451:9457   */\n      dup7\n        /* \"#utility.yul\":9413:9479   */\n      tag_196\n      jump\t// in\n    tag_282:\n        /* \"#utility.yul\":9489:9561   */\n      tag_283\n        /* \"#utility.yul\":9557:9559   */\n      0x40\n        /* \"#utility.yul\":9546:9555   */\n      dup4\n        /* \"#utility.yul\":9542:9560   */\n      add\n        /* \"#utility.yul\":9533:9539   */\n      dup6\n        /* \"#utility.yul\":9489:9561   */\n      tag_254\n      jump\t// in\n    tag_283:\n        /* \"#utility.yul\":9571:9643   */\n      tag_284\n        /* \"#utility.yul\":9639:9641   */\n      0x60\n        /* \"#utility.yul\":9628:9637   */\n      dup4\n        /* \"#utility.yul\":9624:9642   */\n      add\n        /* \"#utility.yul\":9615:9621   */\n      dup5\n        /* \"#utility.yul\":9571:9643   */\n      tag_254\n      jump\t// in\n    tag_284:\n        /* \"#utility.yul\":9109:9650   */\n      swap6\n      swap5\n      pop\n      pop\n      pop\n      pop\n      pop\n      jump\t// out\n        /* \"#utility.yul\":9737:9836   */\n    tag_207:\n        /* \"#utility.yul\":9789:9795   */\n      0x00\n        /* \"#utility.yul\":9823:9828   */\n      dup2\n        /* \"#utility.yul\":9817:9829   */\n      mload\n        /* \"#utility.yul\":9807:9829   */\n      swap1\n      pop\n        /* \"#utility.yul\":9737:9836   */\n      swap2\n      swap1\n      pop\n      jump\t// out\n        /* \"#utility.yul\":9842:10001   */\n    tag_209:\n        /* \"#utility.yul\":9916:9927   */\n      0x00\n        /* \"#utility.yul\":9950:9956   */\n      dup3\n        /* \"#utility.yul\":9945:9948   */\n      dup3\n        /* \"#utility.yul\":9938:9957   */\n      mstore\n        /* \"#utility.yul\":9990:9994   */\n      0x20\n        /* \"#utility.yul\":9985:9988   */\n      dup3\n        /* \"#utility.yul\":9981:9995   */\n      add\n        /* \"#utility.yul\":9966:9995   */\n      swap1\n      pop\n        /* \"#utility.yul\":9842:10001   */\n      swap3\n      swap2\n      pop\n      pop\n      jump\t// out\n        /* \"#utility.yul\":10007:10176   */\n    tag_218:\n        /* \"#utility.yul\":10091:10102   */\n      0x00\n        /* \"#utility.yul\":10125:10131   */\n      dup3\n        /* \"#utility.yul\":10120:10123   */\n      dup3\n        /* \"#utility.yul\":10113:10132   */\n      mstore\n        /* \"#utility.yul\":10165:10169   */\n      0x20\n        /* \"#utility.yul\":10160:10163   */\n      dup3\n        /* \"#utility.yul\":10156:10170   */\n      add\n        /* \"#utility.yul\":10141:10170   */\n      swap1\n      pop\n        /* \"#utility.yul\":10007:10176   */\n      swap3\n      swap2\n      pop\n      pop\n      jump\t// out\n        /* \"#utility.yul\":10182:10707   */\n    tag_171:\n        /* \"#utility.yul\":10221:10224   */\n      0x00\n        /* \"#utility.yul\":10240:10259   */\n      tag_291\n        /* \"#utility.yul\":10257:10258   */\n      dup3\n        /* \"#utility.yul\":10240:10259   */\n      tag_203\n      jump\t// in\n    tag_291:\n        /* \"#utility.yul\":10235:10259   */\n      swap2\n      pop\n        /* \"#utility.yul\":10273:10292   */\n      tag_292\n        /* \"#utility.yul\":10290:10291   */\n      dup4\n        /* \"#utility.yul\":10273:10292   */\n      tag_203\n      jump\t// in\n    tag_292:\n        /* \"#utility.yul\":10268:10292   */\n      swap3\n      pop\n        /* \"#utility.yul\":10461:10462   */\n      dup2\n        /* \"#utility.yul\":10393:10459   */\n      0x7fffffffffffffffffffffffffffffffffffffffffffffffffffffffffffffff\n        /* \"#utility.yul\":10389:10463   */\n      sub\n        /* \"#utility.yul\":10386:10387   */\n      dup4\n        /* \"#utility.yul\":10382:10464   */\n      sgt\n        /* \"#utility.yul\":10377:10378   */\n      0x00\n        /* \"#utility.yul\":10374:10375   */\n      dup4\n        /* \"#utility.yul\":10370:10379   */\n      slt\n        /* \"#utility.yul\":10363:10380   */\n      iszero\n        /* \"#utility.yul\":10359:10465   */\n      and\n        /* \"#utility.yul\":10356:10488   */\n      iszero\n      tag_293\n      jumpi\n        /* \"#utility.yul\":10468:10486   */\n      tag_294\n      tag_295\n      jump\t// in\n    tag_294:\n        /* \"#utility.yul\":10356:10488   */\n    tag_293:\n        /* \"#utility.yul\":10648:10649   */\n      dup2\n        /* \"#utility.yul\":10580:10646   */\n      0x8000000000000000000000000000000000000000000000000000000000000000\n        /* \"#utility.yul\":10576:10650   */\n      sub\n        /* \"#utility.yul\":10573:10574   */\n      dup4\n        /* \"#utility.yul\":10569:10651   */\n      slt\n        /* \"#utility.yul\":10565:10566   */\n      0x00\n        /* \"#utility.yul\":10562:10563   */\n      dup4\n        /* \"#utility.yul\":10558:10567   */\n      slt\n        /* \"#utility.yul\":10554:10652   */\n      and\n        /* \"#utility.yul\":10551:10675   */\n      iszero\n      tag_296\n      jumpi\n        /* \"#utility.yul\":10655:10673   */\n      tag_297\n      tag_295\n      jump\t// in\n    tag_297:\n        /* \"#utility.yul\":10551:10675   */\n    tag_296:\n        /* \"#utility.yul\":10699:10700   */\n      dup3\n        /* \"#utility.yul\":10696:10697   */\n      dup3\n        /* \"#utility.yul\":10692:10701   */\n      add\n        /* \"#utility.yul\":10685:10701   */\n      swap1\n      pop\n        /* \"#utility.yul\":10182:10707   */\n      swap3\n      swap2\n      pop\n      pop\n      jump\t// out\n        /* \"#utility.yul\":10713:11018   */\n    tag_70:\n        /* \"#utility.yul\":10753:10756   */\n      0x00\n        /* \"#utility.yul\":10772:10792   */\n      tag_299\n        /* \"#utility.yul\":10790:10791   */\n      dup3\n        /* \"#utility.yul\":10772:10792   */\n      tag_253\n      jump\t// in\n    tag_299:\n        /* \"#utility.yul\":10767:10792   */\n      swap2\n      pop\n        /* \"#utility.yul\":10806:10826   */\n      tag_300\n        /* \"#utility.yul\":10824:10825   */\n      dup4\n        /* \"#utility.yul\":10806:10826   */\n      tag_253\n      jump\t// in\n    tag_300:\n        /* \"#utility.yul\":10801:10826   */\n      swap3\n      pop\n        /* \"#utility.yul\":10960:10961   */\n      dup3\n        /* \"#utility.yul\":10892:10958   */\n      0xffffffffffffffffffffffffffffffffffffffffffffffffffffffffffffffff\n        /* \"#utility.yul\":10888:10962   */\n      sub\n        /* \"#utility.yul\":10885:10886   */\n      dup3\n        /* \"#utility.yul\":10882:10963   */\n      gt\n        /* \"#utility.yul\":10879:10986   */\n      iszero\n      tag_301\n      jumpi\n        /* \"#utility.yul\":10966:10984   */\n      tag_302\n      tag_295\n      jump\t// in\n    tag_302:\n        /* \"#utility.yul\":10879:10986   */\n    tag_301:\n        /* \"#utility.yul\":11010:11011   */\n      dup3\n        /* \"#utility.yul\":11007:11008   */\n      dup3\n        /* \"#utility.yul\":11003:11012   */\n      add\n        /* \"#utility.yul\":10996:11012   */\n      swap1\n      pop\n        /* \"#utility.yul\":10713:11018   */\n      swap3\n      swap2\n      pop\n      pop\n      jump\t// out\n        /* \"#utility.yul\":11024:11120   */\n    tag_194:\n        /* \"#utility.yul\":11061:11068   */\n      0x00\n        /* \"#utility.yul\":11090:11114   */\n      tag_304\n        /* \"#utility.yul\":11108:11113   */\n      dup3\n        /* \"#utility.yul\":11090:11114   */\n      tag_305\n      jump\t// in\n    tag_304:\n        /* \"#utility.yul\":11079:11114   */\n      swap1\n      pop\n        /* \"#utility.yul\":11024:11120   */\n      swap2\n      swap1\n      pop\n      jump\t// out\n        /* \"#utility.yul\":11126:11216   */\n    tag_199:\n        /* \"#utility.yul\":11160:11167   */\n      0x00\n        /* \"#utility.yul\":11203:11208   */\n      dup2\n        /* \"#utility.yul\":11196:11209   */\n      iszero\n        /* \"#utility.yul\":11189:11210   */\n      iszero\n        /* \"#utility.yul\":11178:11210   */\n      swap1\n      pop\n        /* \"#utility.yul\":11126:11216   */\n      swap2\n      swap1\n      pop\n      jump\t// out\n        /* \"#utility.yul\":11222:11298   */\n    tag_203:\n        /* \"#utility.yul\":11258:11265   */\n      0x00\n        /* \"#utility.yul\":11287:11292   */\n      dup2\n        /* \"#utility.yul\":11276:11292   */\n      swap1\n      pop\n        /* \"#utility.yul\":11222:11298   */\n      swap2\n      swap1\n      pop\n      jump\t// out\n        /* \"#utility.yul\":11304:11430   */\n    tag_305:\n        /* \"#utility.yul\":11341:11348   */\n      0x00\n        /* \"#utility.yul\":11381:11423   */\n      0xffffffffffffffffffffffffffffffffffffffff\n        /* \"#utility.yul\":11374:11379   */\n      dup3\n        /* \"#utility.yul\":11370:11424   */\n      and\n        /* \"#utility.yul\":11359:11424   */\n      swap1\n      pop\n        /* \"#utility.yul\":11304:11430   */\n      swap2\n      swap1\n      pop\n      jump\t// out\n        /* \"#utility.yul\":11436:11513   */\n    tag_253:\n        /* \"#utility.yul\":11473:11480   */\n      0x00\n        /* \"#utility.yul\":11502:11507   */\n      dup2\n        /* \"#utility.yul\":11491:11507   */\n      swap1\n      pop\n        /* \"#utility.yul\":11436:11513   */\n      swap2\n      swap1\n      pop\n      jump\t// out\n        /* \"#utility.yul\":11519:11826   */\n    tag_211:\n        /* \"#utility.yul\":11587:11588   */\n      0x00\n        /* \"#utility.yul\":11597:11710   */\n    tag_311:\n        /* \"#utility.yul\":11611:11617   */\n      dup4\n        /* \"#utility.yul\":11608:11609   */\n      dup2\n        /* \"#utility.yul\":11605:11618   */\n      lt\n        /* \"#utility.yul\":11597:11710   */\n      iszero\n      tag_313\n      jumpi\n        /* \"#utility.yul\":11696:11697   */\n      dup1\n        /* \"#utility.yul\":11691:11694   */\n      dup3\n        /* \"#utility.yul\":11687:11698   */\n      add\n        /* \"#utility.yul\":11681:11699   */\n      mload\n        /* \"#utility.yul\":11677:11678   */\n      dup2\n        /* \"#utility.yul\":11672:11675   */\n      dup5\n        /* \"#utility.yul\":11668:11679   */\n      add\n        /* \"#utility.yul\":11661:11700   */\n      mstore\n        /* \"#utility.yul\":11633:11635   */\n      0x20\n        /* \"#utility.yul\":11630:11631   */\n      dup2\n        /* \"#utility.yul\":11626:11636   */\n      add\n        /* \"#utility.yul\":11621:11636   */\n      swap1\n      pop\n        /* \"#utility.yul\":11597:11710   */\n      jump(tag_311)\n    tag_313:\n        /* \"#utility.yul\":11728:11734   */\n      dup4\n        /* \"#utility.yul\":11725:11726   */\n      dup2\n        /* \"#utility.yul\":11722:11735   */\n      gt\n        /* \"#utility.yul\":11719:11820   */\n      iszero\n      tag_314\n      jumpi\n        /* \"#utility.yul\":11808:11809   */\n      0x00\n        /* \"#utility.yul\":11799:11805   */\n      dup5\n        /* \"#utility.yul\":11794:11797   */\n      dup5\n        /* \"#utility.yul\":11790:11806   */\n      add\n        /* \"#utility.yul\":11783:11810   */\n      mstore\n        /* \"#utility.yul\":11719:11820   */\n    tag_314:\n        /* \"#utility.yul\":11568:11826   */\n      pop\n        /* \"#utility.yul\":11519:11826   */\n      pop\n      pop\n      pop\n      jump\t// out\n        /* \"#utility.yul\":11832:12152   */\n    tag_146:\n        /* \"#utility.yul\":11876:11882   */\n      0x00\n        /* \"#utility.yul\":11913:11914   */\n      0x02\n        /* \"#utility.yul\":11907:11911   */\n      dup3\n        /* \"#utility.yul\":11903:11915   */\n      div\n        /* \"#utility.yul\":11893:11915   */\n      swap1\n      pop\n        /* \"#utility.yul\":11960:11961   */\n      0x01\n        /* \"#utility.yul\":11954:11958   */\n      dup3\n        /* \"#utility.yul\":11950:11962   */\n      and\n        /* \"#utility.yul\":11981:11999   */\n      dup1\n        /* \"#utility.yul\":11971:12052   */\n      tag_316\n      jumpi\n        /* \"#utility.yul\":12037:12041   */\n      0x7f\n        /* \"#utility.yul\":12029:12035   */\n      dup3\n        /* \"#utility.yul\":12025:12042   */\n      and\n        /* \"#utility.yul\":12015:12042   */\n      swap2\n      pop\n        /* \"#utility.yul\":11971:12052   */\n    tag_316:\n        /* \"#utility.yul\":12099:12101   */\n      0x20\n        /* \"#utility.yul\":12091:12097   */\n      dup3\n        /* \"#utility.yul\":12088:12102   */\n      lt\n        /* \"#utility.yul\":12068:12086   */\n      dup2\n        /* \"#utility.yul\":12065:12103   */\n      eq\n        /* \"#utility.yul\":12062:12146   */\n      iszero\n      tag_317\n      jumpi\n        /* \"#utility.yul\":12118:12136   */\n      tag_318\n      tag_319\n      jump\t// in\n    tag_318:\n        /* \"#utility.yul\":12062:12146   */\n    tag_317:\n        /* \"#utility.yul\":11883:12152   */\n      pop\n        /* \"#utility.yul\":11832:12152   */\n      swap2\n      swap1\n      pop\n      jump\t// out\n        /* \"#utility.yul\":12158:12391   */\n    tag_48:\n        /* \"#utility.yul\":12197:12200   */\n      0x00\n        /* \"#utility.yul\":12220:12244   */\n      tag_321\n        /* \"#utility.yul\":12238:12243   */\n      dup3\n        /* \"#utility.yul\":12220:12244   */\n      tag_253\n      jump\t// in\n    tag_321:\n        /* \"#utility.yul\":12211:12244   */\n      swap2\n      pop\n        /* \"#utility.yul\":12266:12332   */\n      0xffffffffffffffffffffffffffffffffffffffffffffffffffffffffffffffff\n        /* \"#utility.yul\":12259:12264   */\n      dup3\n        /* \"#utility.yul\":12256:12333   */\n      eq\n        /* \"#utility.yul\":12253:12356   */\n      iszero\n      tag_322\n      jumpi\n        /* \"#utility.yul\":12336:12354   */\n      tag_323\n      tag_295\n      jump\t// in\n    tag_323:\n        /* \"#utility.yul\":12253:12356   */\n    tag_322:\n        /* \"#utility.yul\":12383:12384   */\n      0x01\n        /* \"#utility.yul\":12376:12381   */\n      dup3\n        /* \"#utility.yul\":12372:12385   */\n      add\n        /* \"#utility.yul\":12365:12385   */\n      swap1\n      pop\n        /* \"#utility.yul\":12158:12391   */\n      swap2\n      swap1\n      pop\n      jump\t// out\n        /* \"#utility.yul\":12397:12497   */\n    tag_195:\n        /* \"#utility.yul\":12436:12443   */\n      0x00\n        /* \"#utility.yul\":12465:12491   */\n      tag_325\n        /* \"#utility.yul\":12485:12490   */\n      dup3\n        /* \"#utility.yul\":12465:12491   */\n      tag_326\n      jump\t// in\n    tag_325:\n        /* \"#utility.yul\":12454:12491   */\n      swap1\n      pop\n        /* \"#utility.yul\":12397:12497   */\n      swap2\n      swap1\n      pop\n      jump\t// out\n        /* \"#utility.yul\":12503:12597   */\n    tag_326:\n        /* \"#utility.yul\":12542:12549   */\n      0x00\n        /* \"#utility.yul\":12571:12591   */\n      tag_328\n        /* \"#utility.yul\":12585:12590   */\n      dup3\n        /* \"#utility.yul\":12571:12591   */\n      tag_329\n      jump\t// in\n    tag_328:\n        /* \"#utility.yul\":12560:12591   */\n      swap1\n      pop\n        /* \"#utility.yul\":12503:12597   */\n      swap2\n      swap1\n      pop\n      jump\t// out\n        /* \"#utility.yul\":12603:12682   */\n    tag_261:\n        /* \"#utility.yul\":12642:12649   */\n      0x00\n        /* \"#utility.yul\":12671:12676   */\n      dup2\n        /* \"#utility.yul\":12660:12676   */\n      swap1\n      pop\n        /* \"#utility.yul\":12603:12682   */\n      swap2\n      swap1\n      pop\n      jump\t// out\n        /* \"#utility.yul\":12688:12864   */\n    tag_165:\n        /* \"#utility.yul\":12720:12721   */\n      0x00\n        /* \"#utility.yul\":12737:12757   */\n      tag_332\n        /* \"#utility.yul\":12755:12756   */\n      dup3\n        /* \"#utility.yul\":12737:12757   */\n      tag_253\n      jump\t// in\n    tag_332:\n        /* \"#utility.yul\":12732:12757   */\n      swap2\n      pop\n        /* \"#utility.yul\":12771:12791   */\n      tag_333\n        /* \"#utility.yul\":12789:12790   */\n      dup4\n        /* \"#utility.yul\":12771:12791   */\n      tag_253\n      jump\t// in\n    tag_333:\n        /* \"#utility.yul\":12766:12791   */\n      swap3\n      pop\n        /* \"#utility.yul\":12810:12811   */\n      dup3\n        /* \"#utility.yul\":12800:12835   */\n      tag_334\n      jumpi\n        /* \"#utility.yul\":12815:12833   */\n      tag_335\n      tag_336\n      jump\t// in\n    tag_335:\n        /* \"#utility.yul\":12800:12835   */\n    tag_334:\n        /* \"#utility.yul\":12856:12857   */\n      dup3\n        /* \"#utility.yul\":12853:12854   */\n      dup3\n        /* \"#utility.yul\":12849:12858   */\n      mod\n        /* \"#utility.yul\":12844:12858   */\n      swap1\n      pop\n        /* \"#utility.yul\":12688:12864   */\n      swap3\n      swap2\n      pop\n      pop\n      jump\t// out\n        /* \"#utility.yul\":12870:13050   */\n    tag_295:\n        /* \"#utility.yul\":12918:12995   */\n      0x4e487b7100000000000000000000000000000000000000000000000000000000\n        /* \"#utility.yul\":12915:12916   */\n      0x00\n        /* \"#utility.yul\":12908:12996   */\n      mstore\n        /* \"#utility.yul\":13015:13019   */\n      0x11\n        /* \"#utility.yul\":13012:13013   */\n      0x04\n        /* \"#utility.yul\":13005:13020   */\n      mstore\n        /* \"#utility.yul\":13039:13043   */\n      0x24\n        /* \"#utility.yul\":13036:13037   */\n      0x00\n        /* \"#utility.yul\":13029:13044   */\n      revert\n        /* \"#utility.yul\":13056:13236   */\n    tag_336:\n        /* \"#utility.yul\":13104:13181   */\n      0x4e487b7100000000000000000000000000000000000000000000000000000000\n        /* \"#utility.yul\":13101:13102   */\n      0x00\n        /* \"#utility.yul\":13094:13182   */\n      mstore\n        /* \"#utility.yul\":13201:13205   */\n      0x12\n        /* \"#utility.yul\":13198:13199   */\n      0x04\n        /* \"#utility.yul\":13191:13206   */\n      mstore\n        /* \"#utility.yul\":13225:13229   */\n      0x24\n        /* \"#utility.yul\":13222:13223   */\n      0x00\n        /* \"#utility.yul\":13215:13230   */\n      revert\n        /* \"#utility.yul\":13242:13422   */\n    tag_319:\n        /* \"#utility.yul\":13290:13367   */\n      0x4e487b7100000000000000000000000000000000000000000000000000000000\n        /* \"#utility.yul\":13287:13288   */\n      0x00\n        /* \"#utility.yul\":13280:13368   */\n      mstore\n        /* \"#utility.yul\":13387:13391   */\n      0x22\n        /* \"#utility.yul\":13384:13385   */\n      0x04\n        /* \"#utility.yul\":13377:13392   */\n      mstore\n        /* \"#utility.yul\":13411:13415   */\n      0x24\n        /* \"#utility.yul\":13408:13409   */\n      0x00\n        /* \"#utility.yul\":13401:13416   */\n      revert\n        /* \"#utility.yul\":13428:13608   */\n    tag_41:\n        /* \"#utility.yul\":13476:13553   */\n      0x4e487b7100000000000000000000000000000000000000000000000000000000\n        /* \"#utility.yul\":13473:13474   */\n      0x00\n        /* \"#utility.yul\":13466:13554   */\n      mstore\n        /* \"#utility.yul\":13573:13577   */\n      0x32\n        /* \"#utility.yul\":13570:13571   */\n      0x04\n        /* \"#utility.yul\":13563:13578   */\n      mstore\n        /* \"#utility.yul\":13597:13601   */\n      0x24\n        /* \"#utility.yul\":13594:13595   */\n      0x00\n        /* \"#utility.yul\":13587:13602   */\n      revert\n        /* \"#utility.yul\":13737:13854   */\n    tag_184:\n        /* \"#utility.yul\":13846:13847   */\n      0x00\n        /* \"#utility.yul\":13843:13844   */\n      dup1\n        /* \"#utility.yul\":13836:13848   */\n      revert\n        /* \"#utility.yul\":13860:13962   */\n    tag_213:\n        /* \"#utility.yul\":13901:13907   */\n      0x00\n        /* \"#utility.yul\":13952:13954   */\n      0x1f\n        /* \"#utility.yul\":13948:13955   */\n      not\n        /* \"#utility.yul\":13943:13945   */\n      0x1f\n        /* \"#utility.yul\":13936:13941   */\n      dup4\n        /* \"#utility.yul\":13932:13946   */\n      add\n        /* \"#utility.yul\":13928:13956   */\n      and\n        /* \"#utility.yul\":13918:13956   */\n      swap1\n      pop\n        /* \"#utility.yul\":13860:13962   */\n      swap2\n      swap1\n      pop\n      jump\t// out\n        /* \"#utility.yul\":13968:14062   */\n    tag_329:\n        /* \"#utility.yul\":14001:14009   */\n      0x00\n        /* \"#utility.yul\":14049:14054   */\n      dup2\n        /* \"#utility.yul\":14045:14047   */\n      0x60\n        /* \"#utility.yul\":14041:14055   */\n      shl\n        /* \"#utility.yul\":14020:14055   */\n      swap1\n      pop\n        /* \"#utility.yul\":13968:14062   */\n      swap2\n      swap1\n      pop\n      jump\t// out\n        /* \"#utility.yul\":14068:14232   */\n    tag_225:\n        /* \"#utility.yul\":14208:14224   */\n      0x416c726561647920766f7465642e000000000000000000000000000000000000\n        /* \"#utility.yul\":14204:14205   */\n      0x00\n        /* \"#utility.yul\":14196:14202   */\n      dup3\n        /* \"#utility.yul\":14192:14206   */\n      add\n        /* \"#utility.yul\":14185:14225   */\n      mstore\n        /* \"#utility.yul\":14068:14232   */\n      pop\n      jump\t// out\n        /* \"#utility.yul\":14238:14412   */\n    tag_230:\n        /* \"#utility.yul\":14378:14404   */\n      0x54686520766f74657220616c726561647920766f7465642e0000000000000000\n        /* \"#utility.yul\":14374:14375   */\n      0x00\n        /* \"#utility.yul\":14366:14372   */\n      dup3\n        /* \"#utility.yul\":14362:14376   */\n      add\n        /* \"#utility.yul\":14355:14405   */\n      mstore\n        /* \"#utility.yul\":14238:14412   */\n      pop\n      jump\t// out\n        /* \"#utility.yul\":14418:14587   */\n    tag_235:\n        /* \"#utility.yul\":14558:14579   */\n      0x52656163686564206d617820766f746572732e00000000000000000000000000\n        /* \"#utility.yul\":14554:14555   */\n      0x00\n        /* \"#utility.yul\":14546:14552   */\n      dup3\n        /* \"#utility.yul\":14542:14556   */\n      add\n        /* \"#utility.yul\":14535:14580   */\n      mstore\n        /* \"#utility.yul\":14418:14587   */\n      pop\n      jump\t// out\n        /* \"#utility.yul\":14593:14715   */\n    tag_176:\n        /* \"#utility.yul\":14666:14690   */\n      tag_350\n        /* \"#utility.yul\":14684:14689   */\n      dup2\n        /* \"#utility.yul\":14666:14690   */\n      tag_194\n      jump\t// in\n    tag_350:\n        /* \"#utility.yul\":14659:14664   */\n      dup2\n        /* \"#utility.yul\":14656:14691   */\n      eq\n        /* \"#utility.yul\":14646:14709   */\n      tag_351\n      jumpi\n        /* \"#utility.yul\":14705:14706   */\n      0x00\n        /* \"#utility.yul\":14702:14703   */\n      dup1\n        /* \"#utility.yul\":14695:14707   */\n      revert\n        /* \"#utility.yul\":14646:14709   */\n    tag_351:\n        /* \"#utility.yul\":14593:14715   */\n      pop\n      jump\t// out\n        /* \"#utility.yul\":14721:14843   */\n    tag_180:\n        /* \"#utility.yul\":14794:14818   */\n      tag_353\n        /* \"#utility.yul\":14812:14817   */\n      dup2\n        /* \"#utility.yul\":14794:14818   */\n      tag_253\n      jump\t// in\n    tag_353:\n        /* \"#utility.yul\":14787:14792   */\n      dup2\n        /* \"#utility.yul\":14784:14819   */\n      eq\n        /* \"#utility.yul\":14774:14837   */\n      tag_354\n      jumpi\n        /* \"#utility.yul\":14833:14834   */\n      0x00\n        /* \"#utility.yul\":14830:14831   */\n      dup1\n        /* \"#utility.yul\":14823:14835   */\n      revert\n        /* \"#utility.yul\":14774:14837   */\n    tag_354:\n        /* \"#utility.yul\":14721:14843   */\n      pop\n      jump\t// out\n\n    auxdata: 0xa2646970667358221220bb9b5cd415874cc9387504e772a0b7a61ee3ba69d81e67fdf459dd2412ed14b864736f6c63430008070033\n}\n",
				"bytecode": {
					"linkReferences": {},
					"object": "608060405260006003553480156200001657600080fd5b50336000806101000a81548173ffffffffffffffffffffffffffffffffffffffff021916908373ffffffffffffffffffffffffffffffffffffffff16021790555060018060008060009054906101000a900473ffffffffffffffffffffffffffffffffffffffff1673ffffffffffffffffffffffffffffffffffffffff1673ffffffffffffffffffffffffffffffffffffffff1681526020019081526020016000206000018190555060006040518060a001604052806040518060400160405280600181526020017f610000000000000000000000000000000000000000000000000000000000000081525081526020016040518060400160405280600181526020017f620000000000000000000000000000000000000000000000000000000000000081525081526020016040518060400160405280600181526020017f630000000000000000000000000000000000000000000000000000000000000081525081526020016040518060400160405280600181526020017f640000000000000000000000000000000000000000000000000000000000000081525081526020016040518060400160405280600181526020017f650000000000000000000000000000000000000000000000000000000000000081525081525090506005801462000239576040517f08c379a0000000000000000000000000000000000000000000000000000000008152600401620002309062000470565b60405180910390fd5b60005b6005811015620003915760026040518061018001604052808484600581106200026a57620002696200058f565b5b6020020151815260200160008152602001600081526020016000815260200160008152602001600081526020016000815260200160008152602001600081526020016000815260200160008152602001600081525090806001815401808255809150506001900390600052602060002090600c020160009091909190915060008201518160000190805190602001906200030692919062000399565b506020820151816001015560408201518160020155606082015181600301556080820151816004015560a0820151816005015560c0820151816006015560e082015181600701556101008201518160080155610120820151816009015561014082015181600a015561016082015181600b0155505080806200038890620004e3565b9150506200023c565b5050620005e7565b828054620003a790620004ad565b90600052602060002090601f016020900481019282620003cb576000855562000417565b82601f10620003e657805160ff191683800117855562000417565b8280016001018555821562000417579182015b8281111562000416578251825591602001919060010190620003f9565b5b5090506200042691906200042a565b5090565b5b80821115620004455760008160009055506001016200042b565b5090565b60006200045860158362000492565b91506200046582620005be565b602082019050919050565b600060208201905081810360008301526200048b8162000449565b9050919050565b600082825260208201905092915050565b6000819050919050565b60006002820490506001821680620004c657607f821691505b60208210811415620004dd57620004dc62000560565b5b50919050565b6000620004f082620004a3565b91507fffffffffffffffffffffffffffffffffffffffffffffffffffffffffffffffff82141562000526576200052562000531565b5b600182019050919050565b7f4e487b7100000000000000000000000000000000000000000000000000000000600052601160045260246000fd5b7f4e487b7100000000000000000000000000000000000000000000000000000000600052602260045260246000fd5b7f4e487b7100000000000000000000000000000000000000000000000000000000600052603260045260246000fd5b7f43616e64696461746573206d75737420626520352e0000000000000000000000600082015250565b61133e80620005f76000396000f3fe608060405234801561001057600080fd5b50600436106100625760003560e01c8063609ff1bd14610067578063632a9a52146100855780636d8f3f101461008f578063a3ec138d146100ad578063d4e8fd2e146100e0578063e2ba53f014610110575b600080fd5b61006f61012e565b60405161007c9190610eaa565b60405180910390f35b61008d6101b6565b005b6100976107a6565b6040516100a49190610deb565b60405180910390f35b6100c760048036038101906100c29190610b0b565b6107ac565b6040516100d79493929190610ec5565b60405180910390f35b6100fa60048036038101906100f59190610b38565b6107e9565b6040516101079190610e88565b60405180910390f35b610118610926565b6040516101259190610e06565b60405180910390f35b6000806000905060005b6002805490508110156101b157816002828154811061015a5761015961120d565b5b90600052602060002090600c020160010154111561019e57600281815481106101865761018561120d565b5b90600052602060002090600c02016001015491508092505b80806101a9906110d8565b915050610138565b505090565b600160003373ffffffffffffffffffffffffffffffffffffffff1673ffffffffffffffffffffffffffffffffffffffff16815260200190815260200160002060010160009054906101000a900460ff1615610246576040517f08c379a000000000000000000000000000000000000000000000000000000000815260040161023d90610e48565b60405180910390fd5b60018060003373ffffffffffffffffffffffffffffffffffffffff1673ffffffffffffffffffffffffffffffffffffffff16815260200190815260200160002060000181905550606460035413156102d3576040517f08c379a00000000000000000000000000000000000000000000000000000000081526004016102ca90610e68565b60405180910390fd5b6102db6109e2565b600160003373ffffffffffffffffffffffffffffffffffffffff1673ffffffffffffffffffffffffffffffffffffffff168152602001908152602001600020600201819055506000600160003373ffffffffffffffffffffffffffffffffffffffff1673ffffffffffffffffffffffffffffffffffffffff16815260200190815260200160002090508060010160009054906101000a900460ff16156103b6576040517f08c379a00000000000000000000000000000000000000000000000000000000081526004016103ad90610e28565b60405180910390fd5b60018160010160006101000a81548160ff0219169083151502179055506103db610a23565b81600301819055506103eb610a64565b806000015460026103fa610a23565b8154811061040b5761040a61120d565b5b90600052602060002090600c0201600101600082825461042b9190610fcb565b9250508190555060008160020154141561048b578060000154600261044e610a23565b8154811061045f5761045e61120d565b5b90600052602060002090600c0201600201600082825461047f9190610fcb565b925050819055506107a3565b6001816002015414156104e457806000015460026104a7610a23565b815481106104b8576104b761120d565b5b90600052602060002090600c020160030160008282546104d89190610fcb565b925050819055506107a2565b60028160020154141561053d5780600001546002610500610a23565b815481106105115761051061120d565b5b90600052602060002090600c020160040160008282546105319190610fcb565b925050819055506107a1565b6003816002015414156105965780600001546002610559610a23565b8154811061056a5761056961120d565b5b90600052602060002090600c0201600501600082825461058a9190610fcb565b925050819055506107a0565b6004816002015414156105ef57806000015460026105b2610a23565b815481106105c3576105c261120d565b5b90600052602060002090600c020160060160008282546105e39190610fcb565b9250508190555061079f565b600581600201541415610648578060000154600261060b610a23565b8154811061061c5761061b61120d565b5b90600052602060002090600c0201600701600082825461063c9190610fcb565b9250508190555061079e565b6006816002015414156106a15780600001546002610664610a23565b815481106106755761067461120d565b5b90600052602060002090600c020160080160008282546106959190610fcb565b9250508190555061079d565b6007816002015414156106fa57806000015460026106bd610a23565b815481106106ce576106cd61120d565b5b90600052602060002090600c020160090160008282546106ee9190610fcb565b9250508190555061079c565b6008816002015414156107535780600001546002610716610a23565b815481106107275761072661120d565b5b90600052602060002090600c0201600a0160008282546107479190610fcb565b9250508190555061079b565b80600001546002610762610a23565b815481106107735761077261120d565b5b90600052602060002090600c0201600b0160008282546107939190610fcb565b925050819055505b5b5b5b5b5b5b5b5b50565b60035481565b60016020528060005260406000206000915090508060000154908060010160009054906101000a900460ff16908060020154908060030154905084565b6107f1610a80565b600282815481106108055761080461120d565b5b90600052602060002090600c02016040518061018001604052908160008201805461082f906110a6565b80601f016020809104026020016040519081016040528092919081815260200182805461085b906110a6565b80156108a85780601f1061087d576101008083540402835291602001916108a8565b820191906000526020600020905b81548152906001019060200180831161088b57829003601f168201915b50505050508152602001600182015481526020016002820154815260200160038201548152602001600482015481526020016005820154815260200160068201548152602001600782015481526020016008820154815260200160098201548152602001600a8201548152602001600b820154815250509050919050565b6060600261093261012e565b815481106109435761094261120d565b5b90600052602060002090600c0201600001805461095f906110a6565b80601f016020809104026020016040519081016040528092919081815260200182805461098b906110a6565b80156109d85780601f106109ad576101008083540402835291602001916109d8565b820191906000526020600020905b8154815290600101906020018083116109bb57829003601f168201915b5050505050905090565b6000600a4244336040516020016109fb93929190610dae565b6040516020818303038152906040528051906020012060001c610a1e919061114f565b905090565b60006005424433604051602001610a3c93929190610dae565b6040516020818303038152906040528051906020012060001c610a5f919061114f565b905090565b600160036000828254610a779190610f37565b92505081905550565b6040518061018001604052806060815260200160008152602001600081526020016000815260200160008152602001600081526020016000815260200160008152602001600081526020016000815260200160008152602001600081525090565b600081359050610af0816112da565b92915050565b600081359050610b05816112f1565b92915050565b600060208284031215610b2157610b2061123c565b5b6000610b2f84828501610ae1565b91505092915050565b600060208284031215610b4e57610b4d61123c565b5b6000610b5c84828501610af6565b91505092915050565b610b76610b7182611021565b611121565b82525050565b610b8581611033565b82525050565b610b948161103f565b82525050565b6000610ba582610f0a565b610baf8185610f15565b9350610bbf818560208601611073565b610bc881611241565b840191505092915050565b6000610bde82610f0a565b610be88185610f26565b9350610bf8818560208601611073565b610c0181611241565b840191505092915050565b6000610c19600e83610f26565b9150610c248261125f565b602082019050919050565b6000610c3c601883610f26565b9150610c4782611288565b602082019050919050565b6000610c5f601383610f26565b9150610c6a826112b1565b602082019050919050565b6000610180830160008301518482036000860152610c938282610b9a565b9150506020830151610ca86020860182610d79565b506040830151610cbb6040860182610d79565b506060830151610cce6060860182610d79565b506080830151610ce16080860182610d79565b5060a0830151610cf460a0860182610d79565b5060c0830151610d0760c0860182610d79565b5060e0830151610d1a60e0860182610d79565b50610100830151610d2f610100860182610d79565b50610120830151610d44610120860182610d79565b50610140830151610d59610140860182610d79565b50610160830151610d6e610160860182610d79565b508091505092915050565b610d8281611069565b82525050565b610d9181611069565b82525050565b610da8610da382611069565b611145565b82525050565b6000610dba8286610d97565b602082019150610dca8285610d97565b602082019150610dda8284610b65565b601482019150819050949350505050565b6000602082019050610e006000830184610b8b565b92915050565b60006020820190508181036000830152610e208184610bd3565b905092915050565b60006020820190508181036000830152610e4181610c0c565b9050919050565b60006020820190508181036000830152610e6181610c2f565b9050919050565b60006020820190508181036000830152610e8181610c52565b9050919050565b60006020820190508181036000830152610ea28184610c75565b905092915050565b6000602082019050610ebf6000830184610d88565b92915050565b6000608082019050610eda6000830187610d88565b610ee76020830186610b7c565b610ef46040830185610d88565b610f016060830184610d88565b95945050505050565b600081519050919050565b600082825260208201905092915050565b600082825260208201905092915050565b6000610f428261103f565b9150610f4d8361103f565b9250817f7fffffffffffffffffffffffffffffffffffffffffffffffffffffffffffffff03831360008312151615610f8857610f87611180565b5b817f8000000000000000000000000000000000000000000000000000000000000000038312600083121615610fc057610fbf611180565b5b828201905092915050565b6000610fd682611069565b9150610fe183611069565b9250827fffffffffffffffffffffffffffffffffffffffffffffffffffffffffffffffff0382111561101657611015611180565b5b828201905092915050565b600061102c82611049565b9050919050565b60008115159050919050565b6000819050919050565b600073ffffffffffffffffffffffffffffffffffffffff82169050919050565b6000819050919050565b60005b83811015611091578082015181840152602081019050611076565b838111156110a0576000848401525b50505050565b600060028204905060018216806110be57607f821691505b602082108114156110d2576110d16111de565b5b50919050565b60006110e382611069565b91507fffffffffffffffffffffffffffffffffffffffffffffffffffffffffffffffff82141561111657611115611180565b5b600182019050919050565b600061112c82611133565b9050919050565b600061113e82611252565b9050919050565b6000819050919050565b600061115a82611069565b915061116583611069565b925082611175576111746111af565b5b828206905092915050565b7f4e487b7100000000000000000000000000000000000000000000000000000000600052601160045260246000fd5b7f4e487b7100000000000000000000000000000000000000000000000000000000600052601260045260246000fd5b7f4e487b7100000000000000000000000000000000000000000000000000000000600052602260045260246000fd5b7f4e487b7100000000000000000000000000000000000000000000000000000000600052603260045260246000fd5b600080fd5b6000601f19601f8301169050919050565b60008160601b9050919050565b7f416c726561647920766f7465642e000000000000000000000000000000000000600082015250565b7f54686520766f74657220616c726561647920766f7465642e0000000000000000600082015250565b7f52656163686564206d617820766f746572732e00000000000000000000000000600082015250565b6112e381611021565b81146112ee57600080fd5b50565b6112fa81611069565b811461130557600080fd5b5056fea2646970667358221220bb9b5cd415874cc9387504e772a0b7a61ee3ba69d81e67fdf459dd2412ed14b864736f6c63430008070033",
					"opcodes": "PUSH1 0x80 PUSH1 0x40 MSTORE PUSH1 0x0 PUSH1 0x3 SSTORE CALLVALUE DUP1 ISZERO PUSH3 0x16 JUMPI PUSH1 0x0 DUP1 REVERT JUMPDEST POP CALLER PUSH1 0x0 DUP1 PUSH2 0x100 EXP DUP2 SLOAD DUP2 PUSH20 0xFFFFFFFFFFFFFFFFFFFFFFFFFFFFFFFFFFFFFFFF MUL NOT AND SWAP1 DUP4 PUSH20 0xFFFFFFFFFFFFFFFFFFFFFFFFFFFFFFFFFFFFFFFF AND MUL OR SWAP1 SSTORE POP PUSH1 0x1 DUP1 PUSH1 0x0 DUP1 PUSH1 0x0 SWAP1 SLOAD SWAP1 PUSH2 0x100 EXP SWAP1 DIV PUSH20 0xFFFFFFFFFFFFFFFFFFFFFFFFFFFFFFFFFFFFFFFF AND PUSH20 0xFFFFFFFFFFFFFFFFFFFFFFFFFFFFFFFFFFFFFFFF AND PUSH20 0xFFFFFFFFFFFFFFFFFFFFFFFFFFFFFFFFFFFFFFFF AND DUP2 MSTORE PUSH1 0x20 ADD SWAP1 DUP2 MSTORE PUSH1 0x20 ADD PUSH1 0x0 KECCAK256 PUSH1 0x0 ADD DUP2 SWAP1 SSTORE POP PUSH1 0x0 PUSH1 0x40 MLOAD DUP1 PUSH1 0xA0 ADD PUSH1 0x40 MSTORE DUP1 PUSH1 0x40 MLOAD DUP1 PUSH1 0x40 ADD PUSH1 0x40 MSTORE DUP1 PUSH1 0x1 DUP2 MSTORE PUSH1 0x20 ADD PUSH32 0x6100000000000000000000000000000000000000000000000000000000000000 DUP2 MSTORE POP DUP2 MSTORE PUSH1 0x20 ADD PUSH1 0x40 MLOAD DUP1 PUSH1 0x40 ADD PUSH1 0x40 MSTORE DUP1 PUSH1 0x1 DUP2 MSTORE PUSH1 0x20 ADD PUSH32 0x6200000000000000000000000000000000000000000000000000000000000000 DUP2 MSTORE POP DUP2 MSTORE PUSH1 0x20 ADD PUSH1 0x40 MLOAD DUP1 PUSH1 0x40 ADD PUSH1 0x40 MSTORE DUP1 PUSH1 0x1 DUP2 MSTORE PUSH1 0x20 ADD PUSH32 0x6300000000000000000000000000000000000000000000000000000000000000 DUP2 MSTORE POP DUP2 MSTORE PUSH1 0x20 ADD PUSH1 0x40 MLOAD DUP1 PUSH1 0x40 ADD PUSH1 0x40 MSTORE DUP1 PUSH1 0x1 DUP2 MSTORE PUSH1 0x20 ADD PUSH32 0x6400000000000000000000000000000000000000000000000000000000000000 DUP2 MSTORE POP DUP2 MSTORE PUSH1 0x20 ADD PUSH1 0x40 MLOAD DUP1 PUSH1 0x40 ADD PUSH1 0x40 MSTORE DUP1 PUSH1 0x1 DUP2 MSTORE PUSH1 0x20 ADD PUSH32 0x6500000000000000000000000000000000000000000000000000000000000000 DUP2 MSTORE POP DUP2 MSTORE POP SWAP1 POP PUSH1 0x5 DUP1 EQ PUSH3 0x239 JUMPI PUSH1 0x40 MLOAD PUSH32 0x8C379A000000000000000000000000000000000000000000000000000000000 DUP2 MSTORE PUSH1 0x4 ADD PUSH3 0x230 SWAP1 PUSH3 0x470 JUMP JUMPDEST PUSH1 0x40 MLOAD DUP1 SWAP2 SUB SWAP1 REVERT JUMPDEST PUSH1 0x0 JUMPDEST PUSH1 0x5 DUP2 LT ISZERO PUSH3 0x391 JUMPI PUSH1 0x2 PUSH1 0x40 MLOAD DUP1 PUSH2 0x180 ADD PUSH1 0x40 MSTORE DUP1 DUP5 DUP5 PUSH1 0x5 DUP2 LT PUSH3 0x26A JUMPI PUSH3 0x269 PUSH3 0x58F JUMP JUMPDEST JUMPDEST PUSH1 0x20 MUL ADD MLOAD DUP2 MSTORE PUSH1 0x20 ADD PUSH1 0x0 DUP2 MSTORE PUSH1 0x20 ADD PUSH1 0x0 DUP2 MSTORE PUSH1 0x20 ADD PUSH1 0x0 DUP2 MSTORE PUSH1 0x20 ADD PUSH1 0x0 DUP2 MSTORE PUSH1 0x20 ADD PUSH1 0x0 DUP2 MSTORE PUSH1 0x20 ADD PUSH1 0x0 DUP2 MSTORE PUSH1 0x20 ADD PUSH1 0x0 DUP2 MSTORE PUSH1 0x20 ADD PUSH1 0x0 DUP2 MSTORE PUSH1 0x20 ADD PUSH1 0x0 DUP2 MSTORE PUSH1 0x20 ADD PUSH1 0x0 DUP2 MSTORE PUSH1 0x20 ADD PUSH1 0x0 DUP2 MSTORE POP SWAP1 DUP1 PUSH1 0x1 DUP2 SLOAD ADD DUP1 DUP3 SSTORE DUP1 SWAP2 POP POP PUSH1 0x1 SWAP1 SUB SWAP1 PUSH1 0x0 MSTORE PUSH1 0x20 PUSH1 0x0 KECCAK256 SWAP1 PUSH1 0xC MUL ADD PUSH1 0x0 SWAP1 SWAP2 SWAP1 SWAP2 SWAP1 SWAP2 POP PUSH1 0x0 DUP3 ADD MLOAD DUP2 PUSH1 0x0 ADD SWAP1 DUP1 MLOAD SWAP1 PUSH1 0x20 ADD SWAP1 PUSH3 0x306 SWAP3 SWAP2 SWAP1 PUSH3 0x399 JUMP JUMPDEST POP PUSH1 0x20 DUP3 ADD MLOAD DUP2 PUSH1 0x1 ADD SSTORE PUSH1 0x40 DUP3 ADD MLOAD DUP2 PUSH1 0x2 ADD SSTORE PUSH1 0x60 DUP3 ADD MLOAD DUP2 PUSH1 0x3 ADD SSTORE PUSH1 0x80 DUP3 ADD MLOAD DUP2 PUSH1 0x4 ADD SSTORE PUSH1 0xA0 DUP3 ADD MLOAD DUP2 PUSH1 0x5 ADD SSTORE PUSH1 0xC0 DUP3 ADD MLOAD DUP2 PUSH1 0x6 ADD SSTORE PUSH1 0xE0 DUP3 ADD MLOAD DUP2 PUSH1 0x7 ADD SSTORE PUSH2 0x100 DUP3 ADD MLOAD DUP2 PUSH1 0x8 ADD SSTORE PUSH2 0x120 DUP3 ADD MLOAD DUP2 PUSH1 0x9 ADD SSTORE PUSH2 0x140 DUP3 ADD MLOAD DUP2 PUSH1 0xA ADD SSTORE PUSH2 0x160 DUP3 ADD MLOAD DUP2 PUSH1 0xB ADD SSTORE POP POP DUP1 DUP1 PUSH3 0x388 SWAP1 PUSH3 0x4E3 JUMP JUMPDEST SWAP2 POP POP PUSH3 0x23C JUMP JUMPDEST POP POP PUSH3 0x5E7 JUMP JUMPDEST DUP3 DUP1 SLOAD PUSH3 0x3A7 SWAP1 PUSH3 0x4AD JUMP JUMPDEST SWAP1 PUSH1 0x0 MSTORE PUSH1 0x20 PUSH1 0x0 KECCAK256 SWAP1 PUSH1 0x1F ADD PUSH1 0x20 SWAP1 DIV DUP2 ADD SWAP3 DUP3 PUSH3 0x3CB JUMPI PUSH1 0x0 DUP6 SSTORE PUSH3 0x417 JUMP JUMPDEST DUP3 PUSH1 0x1F LT PUSH3 0x3E6 JUMPI DUP1 MLOAD PUSH1 0xFF NOT AND DUP4 DUP1 ADD OR DUP6 SSTORE PUSH3 0x417 JUMP JUMPDEST DUP3 DUP1 ADD PUSH1 0x1 ADD DUP6 SSTORE DUP3 ISZERO PUSH3 0x417 JUMPI SWAP2 DUP3 ADD JUMPDEST DUP3 DUP2 GT ISZERO PUSH3 0x416 JUMPI DUP3 MLOAD DUP3 SSTORE SWAP2 PUSH1 0x20 ADD SWAP2 SWAP1 PUSH1 0x1 ADD SWAP1 PUSH3 0x3F9 JUMP JUMPDEST JUMPDEST POP SWAP1 POP PUSH3 0x426 SWAP2 SWAP1 PUSH3 0x42A JUMP JUMPDEST POP SWAP1 JUMP JUMPDEST JUMPDEST DUP1 DUP3 GT ISZERO PUSH3 0x445 JUMPI PUSH1 0x0 DUP2 PUSH1 0x0 SWAP1 SSTORE POP PUSH1 0x1 ADD PUSH3 0x42B JUMP JUMPDEST POP SWAP1 JUMP JUMPDEST PUSH1 0x0 PUSH3 0x458 PUSH1 0x15 DUP4 PUSH3 0x492 JUMP JUMPDEST SWAP2 POP PUSH3 0x465 DUP3 PUSH3 0x5BE JUMP JUMPDEST PUSH1 0x20 DUP3 ADD SWAP1 POP SWAP2 SWAP1 POP JUMP JUMPDEST PUSH1 0x0 PUSH1 0x20 DUP3 ADD SWAP1 POP DUP2 DUP2 SUB PUSH1 0x0 DUP4 ADD MSTORE PUSH3 0x48B DUP2 PUSH3 0x449 JUMP JUMPDEST SWAP1 POP SWAP2 SWAP1 POP JUMP JUMPDEST PUSH1 0x0 DUP3 DUP3 MSTORE PUSH1 0x20 DUP3 ADD SWAP1 POP SWAP3 SWAP2 POP POP JUMP JUMPDEST PUSH1 0x0 DUP2 SWAP1 POP SWAP2 SWAP1 POP JUMP JUMPDEST PUSH1 0x0 PUSH1 0x2 DUP3 DIV SWAP1 POP PUSH1 0x1 DUP3 AND DUP1 PUSH3 0x4C6 JUMPI PUSH1 0x7F DUP3 AND SWAP2 POP JUMPDEST PUSH1 0x20 DUP3 LT DUP2 EQ ISZERO PUSH3 0x4DD JUMPI PUSH3 0x4DC PUSH3 0x560 JUMP JUMPDEST JUMPDEST POP SWAP2 SWAP1 POP JUMP JUMPDEST PUSH1 0x0 PUSH3 0x4F0 DUP3 PUSH3 0x4A3 JUMP JUMPDEST SWAP2 POP PUSH32 0xFFFFFFFFFFFFFFFFFFFFFFFFFFFFFFFFFFFFFFFFFFFFFFFFFFFFFFFFFFFFFFFF DUP3 EQ ISZERO PUSH3 0x526 JUMPI PUSH3 0x525 PUSH3 0x531 JUMP JUMPDEST JUMPDEST PUSH1 0x1 DUP3 ADD SWAP1 POP SWAP2 SWAP1 POP JUMP JUMPDEST PUSH32 0x4E487B7100000000000000000000000000000000000000000000000000000000 PUSH1 0x0 MSTORE PUSH1 0x11 PUSH1 0x4 MSTORE PUSH1 0x24 PUSH1 0x0 REVERT JUMPDEST PUSH32 0x4E487B7100000000000000000000000000000000000000000000000000000000 PUSH1 0x0 MSTORE PUSH1 0x22 PUSH1 0x4 MSTORE PUSH1 0x24 PUSH1 0x0 REVERT JUMPDEST PUSH32 0x4E487B7100000000000000000000000000000000000000000000000000000000 PUSH1 0x0 MSTORE PUSH1 0x32 PUSH1 0x4 MSTORE PUSH1 0x24 PUSH1 0x0 REVERT JUMPDEST PUSH32 0x43616E64696461746573206D75737420626520352E0000000000000000000000 PUSH1 0x0 DUP3 ADD MSTORE POP JUMP JUMPDEST PUSH2 0x133E DUP1 PUSH3 0x5F7 PUSH1 0x0 CODECOPY PUSH1 0x0 RETURN INVALID PUSH1 0x80 PUSH1 0x40 MSTORE CALLVALUE DUP1 ISZERO PUSH2 0x10 JUMPI PUSH1 0x0 DUP1 REVERT JUMPDEST POP PUSH1 0x4 CALLDATASIZE LT PUSH2 0x62 JUMPI PUSH1 0x0 CALLDATALOAD PUSH1 0xE0 SHR DUP1 PUSH4 0x609FF1BD EQ PUSH2 0x67 JUMPI DUP1 PUSH4 0x632A9A52 EQ PUSH2 0x85 JUMPI DUP1 PUSH4 0x6D8F3F10 EQ PUSH2 0x8F JUMPI DUP1 PUSH4 0xA3EC138D EQ PUSH2 0xAD JUMPI DUP1 PUSH4 0xD4E8FD2E EQ PUSH2 0xE0 JUMPI DUP1 PUSH4 0xE2BA53F0 EQ PUSH2 0x110 JUMPI JUMPDEST PUSH1 0x0 DUP1 REVERT JUMPDEST PUSH2 0x6F PUSH2 0x12E JUMP JUMPDEST PUSH1 0x40 MLOAD PUSH2 0x7C SWAP2 SWAP1 PUSH2 0xEAA JUMP JUMPDEST PUSH1 0x40 MLOAD DUP1 SWAP2 SUB SWAP1 RETURN JUMPDEST PUSH2 0x8D PUSH2 0x1B6 JUMP JUMPDEST STOP JUMPDEST PUSH2 0x97 PUSH2 0x7A6 JUMP JUMPDEST PUSH1 0x40 MLOAD PUSH2 0xA4 SWAP2 SWAP1 PUSH2 0xDEB JUMP JUMPDEST PUSH1 0x40 MLOAD DUP1 SWAP2 SUB SWAP1 RETURN JUMPDEST PUSH2 0xC7 PUSH1 0x4 DUP1 CALLDATASIZE SUB DUP2 ADD SWAP1 PUSH2 0xC2 SWAP2 SWAP1 PUSH2 0xB0B JUMP JUMPDEST PUSH2 0x7AC JUMP JUMPDEST PUSH1 0x40 MLOAD PUSH2 0xD7 SWAP5 SWAP4 SWAP3 SWAP2 SWAP1 PUSH2 0xEC5 JUMP JUMPDEST PUSH1 0x40 MLOAD DUP1 SWAP2 SUB SWAP1 RETURN JUMPDEST PUSH2 0xFA PUSH1 0x4 DUP1 CALLDATASIZE SUB DUP2 ADD SWAP1 PUSH2 0xF5 SWAP2 SWAP1 PUSH2 0xB38 JUMP JUMPDEST PUSH2 0x7E9 JUMP JUMPDEST PUSH1 0x40 MLOAD PUSH2 0x107 SWAP2 SWAP1 PUSH2 0xE88 JUMP JUMPDEST PUSH1 0x40 MLOAD DUP1 SWAP2 SUB SWAP1 RETURN JUMPDEST PUSH2 0x118 PUSH2 0x926 JUMP JUMPDEST PUSH1 0x40 MLOAD PUSH2 0x125 SWAP2 SWAP1 PUSH2 0xE06 JUMP JUMPDEST PUSH1 0x40 MLOAD DUP1 SWAP2 SUB SWAP1 RETURN JUMPDEST PUSH1 0x0 DUP1 PUSH1 0x0 SWAP1 POP PUSH1 0x0 JUMPDEST PUSH1 0x2 DUP1 SLOAD SWAP1 POP DUP2 LT ISZERO PUSH2 0x1B1 JUMPI DUP2 PUSH1 0x2 DUP3 DUP2 SLOAD DUP2 LT PUSH2 0x15A JUMPI PUSH2 0x159 PUSH2 0x120D JUMP JUMPDEST JUMPDEST SWAP1 PUSH1 0x0 MSTORE PUSH1 0x20 PUSH1 0x0 KECCAK256 SWAP1 PUSH1 0xC MUL ADD PUSH1 0x1 ADD SLOAD GT ISZERO PUSH2 0x19E JUMPI PUSH1 0x2 DUP2 DUP2 SLOAD DUP2 LT PUSH2 0x186 JUMPI PUSH2 0x185 PUSH2 0x120D JUMP JUMPDEST JUMPDEST SWAP1 PUSH1 0x0 MSTORE PUSH1 0x20 PUSH1 0x0 KECCAK256 SWAP1 PUSH1 0xC MUL ADD PUSH1 0x1 ADD SLOAD SWAP2 POP DUP1 SWAP3 POP JUMPDEST DUP1 DUP1 PUSH2 0x1A9 SWAP1 PUSH2 0x10D8 JUMP JUMPDEST SWAP2 POP POP PUSH2 0x138 JUMP JUMPDEST POP POP SWAP1 JUMP JUMPDEST PUSH1 0x1 PUSH1 0x0 CALLER PUSH20 0xFFFFFFFFFFFFFFFFFFFFFFFFFFFFFFFFFFFFFFFF AND PUSH20 0xFFFFFFFFFFFFFFFFFFFFFFFFFFFFFFFFFFFFFFFF AND DUP2 MSTORE PUSH1 0x20 ADD SWAP1 DUP2 MSTORE PUSH1 0x20 ADD PUSH1 0x0 KECCAK256 PUSH1 0x1 ADD PUSH1 0x0 SWAP1 SLOAD SWAP1 PUSH2 0x100 EXP SWAP1 DIV PUSH1 0xFF AND ISZERO PUSH2 0x246 JUMPI PUSH1 0x40 MLOAD PUSH32 0x8C379A000000000000000000000000000000000000000000000000000000000 DUP2 MSTORE PUSH1 0x4 ADD PUSH2 0x23D SWAP1 PUSH2 0xE48 JUMP JUMPDEST PUSH1 0x40 MLOAD DUP1 SWAP2 SUB SWAP1 REVERT JUMPDEST PUSH1 0x1 DUP1 PUSH1 0x0 CALLER PUSH20 0xFFFFFFFFFFFFFFFFFFFFFFFFFFFFFFFFFFFFFFFF AND PUSH20 0xFFFFFFFFFFFFFFFFFFFFFFFFFFFFFFFFFFFFFFFF AND DUP2 MSTORE PUSH1 0x20 ADD SWAP1 DUP2 MSTORE PUSH1 0x20 ADD PUSH1 0x0 KECCAK256 PUSH1 0x0 ADD DUP2 SWAP1 SSTORE POP PUSH1 0x64 PUSH1 0x3 SLOAD SGT ISZERO PUSH2 0x2D3 JUMPI PUSH1 0x40 MLOAD PUSH32 0x8C379A000000000000000000000000000000000000000000000000000000000 DUP2 MSTORE PUSH1 0x4 ADD PUSH2 0x2CA SWAP1 PUSH2 0xE68 JUMP JUMPDEST PUSH1 0x40 MLOAD DUP1 SWAP2 SUB SWAP1 REVERT JUMPDEST PUSH2 0x2DB PUSH2 0x9E2 JUMP JUMPDEST PUSH1 0x1 PUSH1 0x0 CALLER PUSH20 0xFFFFFFFFFFFFFFFFFFFFFFFFFFFFFFFFFFFFFFFF AND PUSH20 0xFFFFFFFFFFFFFFFFFFFFFFFFFFFFFFFFFFFFFFFF AND DUP2 MSTORE PUSH1 0x20 ADD SWAP1 DUP2 MSTORE PUSH1 0x20 ADD PUSH1 0x0 KECCAK256 PUSH1 0x2 ADD DUP2 SWAP1 SSTORE POP PUSH1 0x0 PUSH1 0x1 PUSH1 0x0 CALLER PUSH20 0xFFFFFFFFFFFFFFFFFFFFFFFFFFFFFFFFFFFFFFFF AND PUSH20 0xFFFFFFFFFFFFFFFFFFFFFFFFFFFFFFFFFFFFFFFF AND DUP2 MSTORE PUSH1 0x20 ADD SWAP1 DUP2 MSTORE PUSH1 0x20 ADD PUSH1 0x0 KECCAK256 SWAP1 POP DUP1 PUSH1 0x1 ADD PUSH1 0x0 SWAP1 SLOAD SWAP1 PUSH2 0x100 EXP SWAP1 DIV PUSH1 0xFF AND ISZERO PUSH2 0x3B6 JUMPI PUSH1 0x40 MLOAD PUSH32 0x8C379A000000000000000000000000000000000000000000000000000000000 DUP2 MSTORE PUSH1 0x4 ADD PUSH2 0x3AD SWAP1 PUSH2 0xE28 JUMP JUMPDEST PUSH1 0x40 MLOAD DUP1 SWAP2 SUB SWAP1 REVERT JUMPDEST PUSH1 0x1 DUP2 PUSH1 0x1 ADD PUSH1 0x0 PUSH2 0x100 EXP DUP2 SLOAD DUP2 PUSH1 0xFF MUL NOT AND SWAP1 DUP4 ISZERO ISZERO MUL OR SWAP1 SSTORE POP PUSH2 0x3DB PUSH2 0xA23 JUMP JUMPDEST DUP2 PUSH1 0x3 ADD DUP2 SWAP1 SSTORE POP PUSH2 0x3EB PUSH2 0xA64 JUMP JUMPDEST DUP1 PUSH1 0x0 ADD SLOAD PUSH1 0x2 PUSH2 0x3FA PUSH2 0xA23 JUMP JUMPDEST DUP2 SLOAD DUP2 LT PUSH2 0x40B JUMPI PUSH2 0x40A PUSH2 0x120D JUMP JUMPDEST JUMPDEST SWAP1 PUSH1 0x0 MSTORE PUSH1 0x20 PUSH1 0x0 KECCAK256 SWAP1 PUSH1 0xC MUL ADD PUSH1 0x1 ADD PUSH1 0x0 DUP3 DUP3 SLOAD PUSH2 0x42B SWAP2 SWAP1 PUSH2 0xFCB JUMP JUMPDEST SWAP3 POP POP DUP2 SWAP1 SSTORE POP PUSH1 0x0 DUP2 PUSH1 0x2 ADD SLOAD EQ ISZERO PUSH2 0x48B JUMPI DUP1 PUSH1 0x0 ADD SLOAD PUSH1 0x2 PUSH2 0x44E PUSH2 0xA23 JUMP JUMPDEST DUP2 SLOAD DUP2 LT PUSH2 0x45F JUMPI PUSH2 0x45E PUSH2 0x120D JUMP JUMPDEST JUMPDEST SWAP1 PUSH1 0x0 MSTORE PUSH1 0x20 PUSH1 0x0 KECCAK256 SWAP1 PUSH1 0xC MUL ADD PUSH1 0x2 ADD PUSH1 0x0 DUP3 DUP3 SLOAD PUSH2 0x47F SWAP2 SWAP1 PUSH2 0xFCB JUMP JUMPDEST SWAP3 POP POP DUP2 SWAP1 SSTORE POP PUSH2 0x7A3 JUMP JUMPDEST PUSH1 0x1 DUP2 PUSH1 0x2 ADD SLOAD EQ ISZERO PUSH2 0x4E4 JUMPI DUP1 PUSH1 0x0 ADD SLOAD PUSH1 0x2 PUSH2 0x4A7 PUSH2 0xA23 JUMP JUMPDEST DUP2 SLOAD DUP2 LT PUSH2 0x4B8 JUMPI PUSH2 0x4B7 PUSH2 0x120D JUMP JUMPDEST JUMPDEST SWAP1 PUSH1 0x0 MSTORE PUSH1 0x20 PUSH1 0x0 KECCAK256 SWAP1 PUSH1 0xC MUL ADD PUSH1 0x3 ADD PUSH1 0x0 DUP3 DUP3 SLOAD PUSH2 0x4D8 SWAP2 SWAP1 PUSH2 0xFCB JUMP JUMPDEST SWAP3 POP POP DUP2 SWAP1 SSTORE POP PUSH2 0x7A2 JUMP JUMPDEST PUSH1 0x2 DUP2 PUSH1 0x2 ADD SLOAD EQ ISZERO PUSH2 0x53D JUMPI DUP1 PUSH1 0x0 ADD SLOAD PUSH1 0x2 PUSH2 0x500 PUSH2 0xA23 JUMP JUMPDEST DUP2 SLOAD DUP2 LT PUSH2 0x511 JUMPI PUSH2 0x510 PUSH2 0x120D JUMP JUMPDEST JUMPDEST SWAP1 PUSH1 0x0 MSTORE PUSH1 0x20 PUSH1 0x0 KECCAK256 SWAP1 PUSH1 0xC MUL ADD PUSH1 0x4 ADD PUSH1 0x0 DUP3 DUP3 SLOAD PUSH2 0x531 SWAP2 SWAP1 PUSH2 0xFCB JUMP JUMPDEST SWAP3 POP POP DUP2 SWAP1 SSTORE POP PUSH2 0x7A1 JUMP JUMPDEST PUSH1 0x3 DUP2 PUSH1 0x2 ADD SLOAD EQ ISZERO PUSH2 0x596 JUMPI DUP1 PUSH1 0x0 ADD SLOAD PUSH1 0x2 PUSH2 0x559 PUSH2 0xA23 JUMP JUMPDEST DUP2 SLOAD DUP2 LT PUSH2 0x56A JUMPI PUSH2 0x569 PUSH2 0x120D JUMP JUMPDEST JUMPDEST SWAP1 PUSH1 0x0 MSTORE PUSH1 0x20 PUSH1 0x0 KECCAK256 SWAP1 PUSH1 0xC MUL ADD PUSH1 0x5 ADD PUSH1 0x0 DUP3 DUP3 SLOAD PUSH2 0x58A SWAP2 SWAP1 PUSH2 0xFCB JUMP JUMPDEST SWAP3 POP POP DUP2 SWAP1 SSTORE POP PUSH2 0x7A0 JUMP JUMPDEST PUSH1 0x4 DUP2 PUSH1 0x2 ADD SLOAD EQ ISZERO PUSH2 0x5EF JUMPI DUP1 PUSH1 0x0 ADD SLOAD PUSH1 0x2 PUSH2 0x5B2 PUSH2 0xA23 JUMP JUMPDEST DUP2 SLOAD DUP2 LT PUSH2 0x5C3 JUMPI PUSH2 0x5C2 PUSH2 0x120D JUMP JUMPDEST JUMPDEST SWAP1 PUSH1 0x0 MSTORE PUSH1 0x20 PUSH1 0x0 KECCAK256 SWAP1 PUSH1 0xC MUL ADD PUSH1 0x6 ADD PUSH1 0x0 DUP3 DUP3 SLOAD PUSH2 0x5E3 SWAP2 SWAP1 PUSH2 0xFCB JUMP JUMPDEST SWAP3 POP POP DUP2 SWAP1 SSTORE POP PUSH2 0x79F JUMP JUMPDEST PUSH1 0x5 DUP2 PUSH1 0x2 ADD SLOAD EQ ISZERO PUSH2 0x648 JUMPI DUP1 PUSH1 0x0 ADD SLOAD PUSH1 0x2 PUSH2 0x60B PUSH2 0xA23 JUMP JUMPDEST DUP2 SLOAD DUP2 LT PUSH2 0x61C JUMPI PUSH2 0x61B PUSH2 0x120D JUMP JUMPDEST JUMPDEST SWAP1 PUSH1 0x0 MSTORE PUSH1 0x20 PUSH1 0x0 KECCAK256 SWAP1 PUSH1 0xC MUL ADD PUSH1 0x7 ADD PUSH1 0x0 DUP3 DUP3 SLOAD PUSH2 0x63C SWAP2 SWAP1 PUSH2 0xFCB JUMP JUMPDEST SWAP3 POP POP DUP2 SWAP1 SSTORE POP PUSH2 0x79E JUMP JUMPDEST PUSH1 0x6 DUP2 PUSH1 0x2 ADD SLOAD EQ ISZERO PUSH2 0x6A1 JUMPI DUP1 PUSH1 0x0 ADD SLOAD PUSH1 0x2 PUSH2 0x664 PUSH2 0xA23 JUMP JUMPDEST DUP2 SLOAD DUP2 LT PUSH2 0x675 JUMPI PUSH2 0x674 PUSH2 0x120D JUMP JUMPDEST JUMPDEST SWAP1 PUSH1 0x0 MSTORE PUSH1 0x20 PUSH1 0x0 KECCAK256 SWAP1 PUSH1 0xC MUL ADD PUSH1 0x8 ADD PUSH1 0x0 DUP3 DUP3 SLOAD PUSH2 0x695 SWAP2 SWAP1 PUSH2 0xFCB JUMP JUMPDEST SWAP3 POP POP DUP2 SWAP1 SSTORE POP PUSH2 0x79D JUMP JUMPDEST PUSH1 0x7 DUP2 PUSH1 0x2 ADD SLOAD EQ ISZERO PUSH2 0x6FA JUMPI DUP1 PUSH1 0x0 ADD SLOAD PUSH1 0x2 PUSH2 0x6BD PUSH2 0xA23 JUMP JUMPDEST DUP2 SLOAD DUP2 LT PUSH2 0x6CE JUMPI PUSH2 0x6CD PUSH2 0x120D JUMP JUMPDEST JUMPDEST SWAP1 PUSH1 0x0 MSTORE PUSH1 0x20 PUSH1 0x0 KECCAK256 SWAP1 PUSH1 0xC MUL ADD PUSH1 0x9 ADD PUSH1 0x0 DUP3 DUP3 SLOAD PUSH2 0x6EE SWAP2 SWAP1 PUSH2 0xFCB JUMP JUMPDEST SWAP3 POP POP DUP2 SWAP1 SSTORE POP PUSH2 0x79C JUMP JUMPDEST PUSH1 0x8 DUP2 PUSH1 0x2 ADD SLOAD EQ ISZERO PUSH2 0x753 JUMPI DUP1 PUSH1 0x0 ADD SLOAD PUSH1 0x2 PUSH2 0x716 PUSH2 0xA23 JUMP JUMPDEST DUP2 SLOAD DUP2 LT PUSH2 0x727 JUMPI PUSH2 0x726 PUSH2 0x120D JUMP JUMPDEST JUMPDEST SWAP1 PUSH1 0x0 MSTORE PUSH1 0x20 PUSH1 0x0 KECCAK256 SWAP1 PUSH1 0xC MUL ADD PUSH1 0xA ADD PUSH1 0x0 DUP3 DUP3 SLOAD PUSH2 0x747 SWAP2 SWAP1 PUSH2 0xFCB JUMP JUMPDEST SWAP3 POP POP DUP2 SWAP1 SSTORE POP PUSH2 0x79B JUMP JUMPDEST DUP1 PUSH1 0x0 ADD SLOAD PUSH1 0x2 PUSH2 0x762 PUSH2 0xA23 JUMP JUMPDEST DUP2 SLOAD DUP2 LT PUSH2 0x773 JUMPI PUSH2 0x772 PUSH2 0x120D JUMP JUMPDEST JUMPDEST SWAP1 PUSH1 0x0 MSTORE PUSH1 0x20 PUSH1 0x0 KECCAK256 SWAP1 PUSH1 0xC MUL ADD PUSH1 0xB ADD PUSH1 0x0 DUP3 DUP3 SLOAD PUSH2 0x793 SWAP2 SWAP1 PUSH2 0xFCB JUMP JUMPDEST SWAP3 POP POP DUP2 SWAP1 SSTORE POP JUMPDEST JUMPDEST JUMPDEST JUMPDEST JUMPDEST JUMPDEST JUMPDEST JUMPDEST JUMPDEST POP JUMP JUMPDEST PUSH1 0x3 SLOAD DUP2 JUMP JUMPDEST PUSH1 0x1 PUSH1 0x20 MSTORE DUP1 PUSH1 0x0 MSTORE PUSH1 0x40 PUSH1 0x0 KECCAK256 PUSH1 0x0 SWAP2 POP SWAP1 POP DUP1 PUSH1 0x0 ADD SLOAD SWAP1 DUP1 PUSH1 0x1 ADD PUSH1 0x0 SWAP1 SLOAD SWAP1 PUSH2 0x100 EXP SWAP1 DIV PUSH1 0xFF AND SWAP1 DUP1 PUSH1 0x2 ADD SLOAD SWAP1 DUP1 PUSH1 0x3 ADD SLOAD SWAP1 POP DUP5 JUMP JUMPDEST PUSH2 0x7F1 PUSH2 0xA80 JUMP JUMPDEST PUSH1 0x2 DUP3 DUP2 SLOAD DUP2 LT PUSH2 0x805 JUMPI PUSH2 0x804 PUSH2 0x120D JUMP JUMPDEST JUMPDEST SWAP1 PUSH1 0x0 MSTORE PUSH1 0x20 PUSH1 0x0 KECCAK256 SWAP1 PUSH1 0xC MUL ADD PUSH1 0x40 MLOAD DUP1 PUSH2 0x180 ADD PUSH1 0x40 MSTORE SWAP1 DUP2 PUSH1 0x0 DUP3 ADD DUP1 SLOAD PUSH2 0x82F SWAP1 PUSH2 0x10A6 JUMP JUMPDEST DUP1 PUSH1 0x1F ADD PUSH1 0x20 DUP1 SWAP2 DIV MUL PUSH1 0x20 ADD PUSH1 0x40 MLOAD SWAP1 DUP2 ADD PUSH1 0x40 MSTORE DUP1 SWAP3 SWAP2 SWAP1 DUP2 DUP2 MSTORE PUSH1 0x20 ADD DUP3 DUP1 SLOAD PUSH2 0x85B SWAP1 PUSH2 0x10A6 JUMP JUMPDEST DUP1 ISZERO PUSH2 0x8A8 JUMPI DUP1 PUSH1 0x1F LT PUSH2 0x87D JUMPI PUSH2 0x100 DUP1 DUP4 SLOAD DIV MUL DUP4 MSTORE SWAP2 PUSH1 0x20 ADD SWAP2 PUSH2 0x8A8 JUMP JUMPDEST DUP3 ADD SWAP2 SWAP1 PUSH1 0x0 MSTORE PUSH1 0x20 PUSH1 0x0 KECCAK256 SWAP1 JUMPDEST DUP2 SLOAD DUP2 MSTORE SWAP1 PUSH1 0x1 ADD SWAP1 PUSH1 0x20 ADD DUP1 DUP4 GT PUSH2 0x88B JUMPI DUP3 SWAP1 SUB PUSH1 0x1F AND DUP3 ADD SWAP2 JUMPDEST POP POP POP POP POP DUP2 MSTORE PUSH1 0x20 ADD PUSH1 0x1 DUP3 ADD SLOAD DUP2 MSTORE PUSH1 0x20 ADD PUSH1 0x2 DUP3 ADD SLOAD DUP2 MSTORE PUSH1 0x20 ADD PUSH1 0x3 DUP3 ADD SLOAD DUP2 MSTORE PUSH1 0x20 ADD PUSH1 0x4 DUP3 ADD SLOAD DUP2 MSTORE PUSH1 0x20 ADD PUSH1 0x5 DUP3 ADD SLOAD DUP2 MSTORE PUSH1 0x20 ADD PUSH1 0x6 DUP3 ADD SLOAD DUP2 MSTORE PUSH1 0x20 ADD PUSH1 0x7 DUP3 ADD SLOAD DUP2 MSTORE PUSH1 0x20 ADD PUSH1 0x8 DUP3 ADD SLOAD DUP2 MSTORE PUSH1 0x20 ADD PUSH1 0x9 DUP3 ADD SLOAD DUP2 MSTORE PUSH1 0x20 ADD PUSH1 0xA DUP3 ADD SLOAD DUP2 MSTORE PUSH1 0x20 ADD PUSH1 0xB DUP3 ADD SLOAD DUP2 MSTORE POP POP SWAP1 POP SWAP2 SWAP1 POP JUMP JUMPDEST PUSH1 0x60 PUSH1 0x2 PUSH2 0x932 PUSH2 0x12E JUMP JUMPDEST DUP2 SLOAD DUP2 LT PUSH2 0x943 JUMPI PUSH2 0x942 PUSH2 0x120D JUMP JUMPDEST JUMPDEST SWAP1 PUSH1 0x0 MSTORE PUSH1 0x20 PUSH1 0x0 KECCAK256 SWAP1 PUSH1 0xC MUL ADD PUSH1 0x0 ADD DUP1 SLOAD PUSH2 0x95F SWAP1 PUSH2 0x10A6 JUMP JUMPDEST DUP1 PUSH1 0x1F ADD PUSH1 0x20 DUP1 SWAP2 DIV MUL PUSH1 0x20 ADD PUSH1 0x40 MLOAD SWAP1 DUP2 ADD PUSH1 0x40 MSTORE DUP1 SWAP3 SWAP2 SWAP1 DUP2 DUP2 MSTORE PUSH1 0x20 ADD DUP3 DUP1 SLOAD PUSH2 0x98B SWAP1 PUSH2 0x10A6 JUMP JUMPDEST DUP1 ISZERO PUSH2 0x9D8 JUMPI DUP1 PUSH1 0x1F LT PUSH2 0x9AD JUMPI PUSH2 0x100 DUP1 DUP4 SLOAD DIV MUL DUP4 MSTORE SWAP2 PUSH1 0x20 ADD SWAP2 PUSH2 0x9D8 JUMP JUMPDEST DUP3 ADD SWAP2 SWAP1 PUSH1 0x0 MSTORE PUSH1 0x20 PUSH1 0x0 KECCAK256 SWAP1 JUMPDEST DUP2 SLOAD DUP2 MSTORE SWAP1 PUSH1 0x1 ADD SWAP1 PUSH1 0x20 ADD DUP1 DUP4 GT PUSH2 0x9BB JUMPI DUP3 SWAP1 SUB PUSH1 0x1F AND DUP3 ADD SWAP2 JUMPDEST POP POP POP POP POP SWAP1 POP SWAP1 JUMP JUMPDEST PUSH1 0x0 PUSH1 0xA TIMESTAMP DIFFICULTY CALLER PUSH1 0x40 MLOAD PUSH1 0x20 ADD PUSH2 0x9FB SWAP4 SWAP3 SWAP2 SWAP1 PUSH2 0xDAE JUMP JUMPDEST PUSH1 0x40 MLOAD PUSH1 0x20 DUP2 DUP4 SUB SUB DUP2 MSTORE SWAP1 PUSH1 0x40 MSTORE DUP1 MLOAD SWAP1 PUSH1 0x20 ADD KECCAK256 PUSH1 0x0 SHR PUSH2 0xA1E SWAP2 SWAP1 PUSH2 0x114F JUMP JUMPDEST SWAP1 POP SWAP1 JUMP JUMPDEST PUSH1 0x0 PUSH1 0x5 TIMESTAMP DIFFICULTY CALLER PUSH1 0x40 MLOAD PUSH1 0x20 ADD PUSH2 0xA3C SWAP4 SWAP3 SWAP2 SWAP1 PUSH2 0xDAE JUMP JUMPDEST PUSH1 0x40 MLOAD PUSH1 0x20 DUP2 DUP4 SUB SUB DUP2 MSTORE SWAP1 PUSH1 0x40 MSTORE DUP1 MLOAD SWAP1 PUSH1 0x20 ADD KECCAK256 PUSH1 0x0 SHR PUSH2 0xA5F SWAP2 SWAP1 PUSH2 0x114F JUMP JUMPDEST SWAP1 POP SWAP1 JUMP JUMPDEST PUSH1 0x1 PUSH1 0x3 PUSH1 0x0 DUP3 DUP3 SLOAD PUSH2 0xA77 SWAP2 SWAP1 PUSH2 0xF37 JUMP JUMPDEST SWAP3 POP POP DUP2 SWAP1 SSTORE POP JUMP JUMPDEST PUSH1 0x40 MLOAD DUP1 PUSH2 0x180 ADD PUSH1 0x40 MSTORE DUP1 PUSH1 0x60 DUP2 MSTORE PUSH1 0x20 ADD PUSH1 0x0 DUP2 MSTORE PUSH1 0x20 ADD PUSH1 0x0 DUP2 MSTORE PUSH1 0x20 ADD PUSH1 0x0 DUP2 MSTORE PUSH1 0x20 ADD PUSH1 0x0 DUP2 MSTORE PUSH1 0x20 ADD PUSH1 0x0 DUP2 MSTORE PUSH1 0x20 ADD PUSH1 0x0 DUP2 MSTORE PUSH1 0x20 ADD PUSH1 0x0 DUP2 MSTORE PUSH1 0x20 ADD PUSH1 0x0 DUP2 MSTORE PUSH1 0x20 ADD PUSH1 0x0 DUP2 MSTORE PUSH1 0x20 ADD PUSH1 0x0 DUP2 MSTORE PUSH1 0x20 ADD PUSH1 0x0 DUP2 MSTORE POP SWAP1 JUMP JUMPDEST PUSH1 0x0 DUP2 CALLDATALOAD SWAP1 POP PUSH2 0xAF0 DUP2 PUSH2 0x12DA JUMP JUMPDEST SWAP3 SWAP2 POP POP JUMP JUMPDEST PUSH1 0x0 DUP2 CALLDATALOAD SWAP1 POP PUSH2 0xB05 DUP2 PUSH2 0x12F1 JUMP JUMPDEST SWAP3 SWAP2 POP POP JUMP JUMPDEST PUSH1 0x0 PUSH1 0x20 DUP3 DUP5 SUB SLT ISZERO PUSH2 0xB21 JUMPI PUSH2 0xB20 PUSH2 0x123C JUMP JUMPDEST JUMPDEST PUSH1 0x0 PUSH2 0xB2F DUP5 DUP3 DUP6 ADD PUSH2 0xAE1 JUMP JUMPDEST SWAP2 POP POP SWAP3 SWAP2 POP POP JUMP JUMPDEST PUSH1 0x0 PUSH1 0x20 DUP3 DUP5 SUB SLT ISZERO PUSH2 0xB4E JUMPI PUSH2 0xB4D PUSH2 0x123C JUMP JUMPDEST JUMPDEST PUSH1 0x0 PUSH2 0xB5C DUP5 DUP3 DUP6 ADD PUSH2 0xAF6 JUMP JUMPDEST SWAP2 POP POP SWAP3 SWAP2 POP POP JUMP JUMPDEST PUSH2 0xB76 PUSH2 0xB71 DUP3 PUSH2 0x1021 JUMP JUMPDEST PUSH2 0x1121 JUMP JUMPDEST DUP3 MSTORE POP POP JUMP JUMPDEST PUSH2 0xB85 DUP2 PUSH2 0x1033 JUMP JUMPDEST DUP3 MSTORE POP POP JUMP JUMPDEST PUSH2 0xB94 DUP2 PUSH2 0x103F JUMP JUMPDEST DUP3 MSTORE POP POP JUMP JUMPDEST PUSH1 0x0 PUSH2 0xBA5 DUP3 PUSH2 0xF0A JUMP JUMPDEST PUSH2 0xBAF DUP2 DUP6 PUSH2 0xF15 JUMP JUMPDEST SWAP4 POP PUSH2 0xBBF DUP2 DUP6 PUSH1 0x20 DUP7 ADD PUSH2 0x1073 JUMP JUMPDEST PUSH2 0xBC8 DUP2 PUSH2 0x1241 JUMP JUMPDEST DUP5 ADD SWAP2 POP POP SWAP3 SWAP2 POP POP JUMP JUMPDEST PUSH1 0x0 PUSH2 0xBDE DUP3 PUSH2 0xF0A JUMP JUMPDEST PUSH2 0xBE8 DUP2 DUP6 PUSH2 0xF26 JUMP JUMPDEST SWAP4 POP PUSH2 0xBF8 DUP2 DUP6 PUSH1 0x20 DUP7 ADD PUSH2 0x1073 JUMP JUMPDEST PUSH2 0xC01 DUP2 PUSH2 0x1241 JUMP JUMPDEST DUP5 ADD SWAP2 POP POP SWAP3 SWAP2 POP POP JUMP JUMPDEST PUSH1 0x0 PUSH2 0xC19 PUSH1 0xE DUP4 PUSH2 0xF26 JUMP JUMPDEST SWAP2 POP PUSH2 0xC24 DUP3 PUSH2 0x125F JUMP JUMPDEST PUSH1 0x20 DUP3 ADD SWAP1 POP SWAP2 SWAP1 POP JUMP JUMPDEST PUSH1 0x0 PUSH2 0xC3C PUSH1 0x18 DUP4 PUSH2 0xF26 JUMP JUMPDEST SWAP2 POP PUSH2 0xC47 DUP3 PUSH2 0x1288 JUMP JUMPDEST PUSH1 0x20 DUP3 ADD SWAP1 POP SWAP2 SWAP1 POP JUMP JUMPDEST PUSH1 0x0 PUSH2 0xC5F PUSH1 0x13 DUP4 PUSH2 0xF26 JUMP JUMPDEST SWAP2 POP PUSH2 0xC6A DUP3 PUSH2 0x12B1 JUMP JUMPDEST PUSH1 0x20 DUP3 ADD SWAP1 POP SWAP2 SWAP1 POP JUMP JUMPDEST PUSH1 0x0 PUSH2 0x180 DUP4 ADD PUSH1 0x0 DUP4 ADD MLOAD DUP5 DUP3 SUB PUSH1 0x0 DUP7 ADD MSTORE PUSH2 0xC93 DUP3 DUP3 PUSH2 0xB9A JUMP JUMPDEST SWAP2 POP POP PUSH1 0x20 DUP4 ADD MLOAD PUSH2 0xCA8 PUSH1 0x20 DUP7 ADD DUP3 PUSH2 0xD79 JUMP JUMPDEST POP PUSH1 0x40 DUP4 ADD MLOAD PUSH2 0xCBB PUSH1 0x40 DUP7 ADD DUP3 PUSH2 0xD79 JUMP JUMPDEST POP PUSH1 0x60 DUP4 ADD MLOAD PUSH2 0xCCE PUSH1 0x60 DUP7 ADD DUP3 PUSH2 0xD79 JUMP JUMPDEST POP PUSH1 0x80 DUP4 ADD MLOAD PUSH2 0xCE1 PUSH1 0x80 DUP7 ADD DUP3 PUSH2 0xD79 JUMP JUMPDEST POP PUSH1 0xA0 DUP4 ADD MLOAD PUSH2 0xCF4 PUSH1 0xA0 DUP7 ADD DUP3 PUSH2 0xD79 JUMP JUMPDEST POP PUSH1 0xC0 DUP4 ADD MLOAD PUSH2 0xD07 PUSH1 0xC0 DUP7 ADD DUP3 PUSH2 0xD79 JUMP JUMPDEST POP PUSH1 0xE0 DUP4 ADD MLOAD PUSH2 0xD1A PUSH1 0xE0 DUP7 ADD DUP3 PUSH2 0xD79 JUMP JUMPDEST POP PUSH2 0x100 DUP4 ADD MLOAD PUSH2 0xD2F PUSH2 0x100 DUP7 ADD DUP3 PUSH2 0xD79 JUMP JUMPDEST POP PUSH2 0x120 DUP4 ADD MLOAD PUSH2 0xD44 PUSH2 0x120 DUP7 ADD DUP3 PUSH2 0xD79 JUMP JUMPDEST POP PUSH2 0x140 DUP4 ADD MLOAD PUSH2 0xD59 PUSH2 0x140 DUP7 ADD DUP3 PUSH2 0xD79 JUMP JUMPDEST POP PUSH2 0x160 DUP4 ADD MLOAD PUSH2 0xD6E PUSH2 0x160 DUP7 ADD DUP3 PUSH2 0xD79 JUMP JUMPDEST POP DUP1 SWAP2 POP POP SWAP3 SWAP2 POP POP JUMP JUMPDEST PUSH2 0xD82 DUP2 PUSH2 0x1069 JUMP JUMPDEST DUP3 MSTORE POP POP JUMP JUMPDEST PUSH2 0xD91 DUP2 PUSH2 0x1069 JUMP JUMPDEST DUP3 MSTORE POP POP JUMP JUMPDEST PUSH2 0xDA8 PUSH2 0xDA3 DUP3 PUSH2 0x1069 JUMP JUMPDEST PUSH2 0x1145 JUMP JUMPDEST DUP3 MSTORE POP POP JUMP JUMPDEST PUSH1 0x0 PUSH2 0xDBA DUP3 DUP7 PUSH2 0xD97 JUMP JUMPDEST PUSH1 0x20 DUP3 ADD SWAP2 POP PUSH2 0xDCA DUP3 DUP6 PUSH2 0xD97 JUMP JUMPDEST PUSH1 0x20 DUP3 ADD SWAP2 POP PUSH2 0xDDA DUP3 DUP5 PUSH2 0xB65 JUMP JUMPDEST PUSH1 0x14 DUP3 ADD SWAP2 POP DUP2 SWAP1 POP SWAP5 SWAP4 POP POP POP POP JUMP JUMPDEST PUSH1 0x0 PUSH1 0x20 DUP3 ADD SWAP1 POP PUSH2 0xE00 PUSH1 0x0 DUP4 ADD DUP5 PUSH2 0xB8B JUMP JUMPDEST SWAP3 SWAP2 POP POP JUMP JUMPDEST PUSH1 0x0 PUSH1 0x20 DUP3 ADD SWAP1 POP DUP2 DUP2 SUB PUSH1 0x0 DUP4 ADD MSTORE PUSH2 0xE20 DUP2 DUP5 PUSH2 0xBD3 JUMP JUMPDEST SWAP1 POP SWAP3 SWAP2 POP POP JUMP JUMPDEST PUSH1 0x0 PUSH1 0x20 DUP3 ADD SWAP1 POP DUP2 DUP2 SUB PUSH1 0x0 DUP4 ADD MSTORE PUSH2 0xE41 DUP2 PUSH2 0xC0C JUMP JUMPDEST SWAP1 POP SWAP2 SWAP1 POP JUMP JUMPDEST PUSH1 0x0 PUSH1 0x20 DUP3 ADD SWAP1 POP DUP2 DUP2 SUB PUSH1 0x0 DUP4 ADD MSTORE PUSH2 0xE61 DUP2 PUSH2 0xC2F JUMP JUMPDEST SWAP1 POP SWAP2 SWAP1 POP JUMP JUMPDEST PUSH1 0x0 PUSH1 0x20 DUP3 ADD SWAP1 POP DUP2 DUP2 SUB PUSH1 0x0 DUP4 ADD MSTORE PUSH2 0xE81 DUP2 PUSH2 0xC52 JUMP JUMPDEST SWAP1 POP SWAP2 SWAP1 POP JUMP JUMPDEST PUSH1 0x0 PUSH1 0x20 DUP3 ADD SWAP1 POP DUP2 DUP2 SUB PUSH1 0x0 DUP4 ADD MSTORE PUSH2 0xEA2 DUP2 DUP5 PUSH2 0xC75 JUMP JUMPDEST SWAP1 POP SWAP3 SWAP2 POP POP JUMP JUMPDEST PUSH1 0x0 PUSH1 0x20 DUP3 ADD SWAP1 POP PUSH2 0xEBF PUSH1 0x0 DUP4 ADD DUP5 PUSH2 0xD88 JUMP JUMPDEST SWAP3 SWAP2 POP POP JUMP JUMPDEST PUSH1 0x0 PUSH1 0x80 DUP3 ADD SWAP1 POP PUSH2 0xEDA PUSH1 0x0 DUP4 ADD DUP8 PUSH2 0xD88 JUMP JUMPDEST PUSH2 0xEE7 PUSH1 0x20 DUP4 ADD DUP7 PUSH2 0xB7C JUMP JUMPDEST PUSH2 0xEF4 PUSH1 0x40 DUP4 ADD DUP6 PUSH2 0xD88 JUMP JUMPDEST PUSH2 0xF01 PUSH1 0x60 DUP4 ADD DUP5 PUSH2 0xD88 JUMP JUMPDEST SWAP6 SWAP5 POP POP POP POP POP JUMP JUMPDEST PUSH1 0x0 DUP2 MLOAD SWAP1 POP SWAP2 SWAP1 POP JUMP JUMPDEST PUSH1 0x0 DUP3 DUP3 MSTORE PUSH1 0x20 DUP3 ADD SWAP1 POP SWAP3 SWAP2 POP POP JUMP JUMPDEST PUSH1 0x0 DUP3 DUP3 MSTORE PUSH1 0x20 DUP3 ADD SWAP1 POP SWAP3 SWAP2 POP POP JUMP JUMPDEST PUSH1 0x0 PUSH2 0xF42 DUP3 PUSH2 0x103F JUMP JUMPDEST SWAP2 POP PUSH2 0xF4D DUP4 PUSH2 0x103F JUMP JUMPDEST SWAP3 POP DUP2 PUSH32 0x7FFFFFFFFFFFFFFFFFFFFFFFFFFFFFFFFFFFFFFFFFFFFFFFFFFFFFFFFFFFFFFF SUB DUP4 SGT PUSH1 0x0 DUP4 SLT ISZERO AND ISZERO PUSH2 0xF88 JUMPI PUSH2 0xF87 PUSH2 0x1180 JUMP JUMPDEST JUMPDEST DUP2 PUSH32 0x8000000000000000000000000000000000000000000000000000000000000000 SUB DUP4 SLT PUSH1 0x0 DUP4 SLT AND ISZERO PUSH2 0xFC0 JUMPI PUSH2 0xFBF PUSH2 0x1180 JUMP JUMPDEST JUMPDEST DUP3 DUP3 ADD SWAP1 POP SWAP3 SWAP2 POP POP JUMP JUMPDEST PUSH1 0x0 PUSH2 0xFD6 DUP3 PUSH2 0x1069 JUMP JUMPDEST SWAP2 POP PUSH2 0xFE1 DUP4 PUSH2 0x1069 JUMP JUMPDEST SWAP3 POP DUP3 PUSH32 0xFFFFFFFFFFFFFFFFFFFFFFFFFFFFFFFFFFFFFFFFFFFFFFFFFFFFFFFFFFFFFFFF SUB DUP3 GT ISZERO PUSH2 0x1016 JUMPI PUSH2 0x1015 PUSH2 0x1180 JUMP JUMPDEST JUMPDEST DUP3 DUP3 ADD SWAP1 POP SWAP3 SWAP2 POP POP JUMP JUMPDEST PUSH1 0x0 PUSH2 0x102C DUP3 PUSH2 0x1049 JUMP JUMPDEST SWAP1 POP SWAP2 SWAP1 POP JUMP JUMPDEST PUSH1 0x0 DUP2 ISZERO ISZERO SWAP1 POP SWAP2 SWAP1 POP JUMP JUMPDEST PUSH1 0x0 DUP2 SWAP1 POP SWAP2 SWAP1 POP JUMP JUMPDEST PUSH1 0x0 PUSH20 0xFFFFFFFFFFFFFFFFFFFFFFFFFFFFFFFFFFFFFFFF DUP3 AND SWAP1 POP SWAP2 SWAP1 POP JUMP JUMPDEST PUSH1 0x0 DUP2 SWAP1 POP SWAP2 SWAP1 POP JUMP JUMPDEST PUSH1 0x0 JUMPDEST DUP4 DUP2 LT ISZERO PUSH2 0x1091 JUMPI DUP1 DUP3 ADD MLOAD DUP2 DUP5 ADD MSTORE PUSH1 0x20 DUP2 ADD SWAP1 POP PUSH2 0x1076 JUMP JUMPDEST DUP4 DUP2 GT ISZERO PUSH2 0x10A0 JUMPI PUSH1 0x0 DUP5 DUP5 ADD MSTORE JUMPDEST POP POP POP POP JUMP JUMPDEST PUSH1 0x0 PUSH1 0x2 DUP3 DIV SWAP1 POP PUSH1 0x1 DUP3 AND DUP1 PUSH2 0x10BE JUMPI PUSH1 0x7F DUP3 AND SWAP2 POP JUMPDEST PUSH1 0x20 DUP3 LT DUP2 EQ ISZERO PUSH2 0x10D2 JUMPI PUSH2 0x10D1 PUSH2 0x11DE JUMP JUMPDEST JUMPDEST POP SWAP2 SWAP1 POP JUMP JUMPDEST PUSH1 0x0 PUSH2 0x10E3 DUP3 PUSH2 0x1069 JUMP JUMPDEST SWAP2 POP PUSH32 0xFFFFFFFFFFFFFFFFFFFFFFFFFFFFFFFFFFFFFFFFFFFFFFFFFFFFFFFFFFFFFFFF DUP3 EQ ISZERO PUSH2 0x1116 JUMPI PUSH2 0x1115 PUSH2 0x1180 JUMP JUMPDEST JUMPDEST PUSH1 0x1 DUP3 ADD SWAP1 POP SWAP2 SWAP1 POP JUMP JUMPDEST PUSH1 0x0 PUSH2 0x112C DUP3 PUSH2 0x1133 JUMP JUMPDEST SWAP1 POP SWAP2 SWAP1 POP JUMP JUMPDEST PUSH1 0x0 PUSH2 0x113E DUP3 PUSH2 0x1252 JUMP JUMPDEST SWAP1 POP SWAP2 SWAP1 POP JUMP JUMPDEST PUSH1 0x0 DUP2 SWAP1 POP SWAP2 SWAP1 POP JUMP JUMPDEST PUSH1 0x0 PUSH2 0x115A DUP3 PUSH2 0x1069 JUMP JUMPDEST SWAP2 POP PUSH2 0x1165 DUP4 PUSH2 0x1069 JUMP JUMPDEST SWAP3 POP DUP3 PUSH2 0x1175 JUMPI PUSH2 0x1174 PUSH2 0x11AF JUMP JUMPDEST JUMPDEST DUP3 DUP3 MOD SWAP1 POP SWAP3 SWAP2 POP POP JUMP JUMPDEST PUSH32 0x4E487B7100000000000000000000000000000000000000000000000000000000 PUSH1 0x0 MSTORE PUSH1 0x11 PUSH1 0x4 MSTORE PUSH1 0x24 PUSH1 0x0 REVERT JUMPDEST PUSH32 0x4E487B7100000000000000000000000000000000000000000000000000000000 PUSH1 0x0 MSTORE PUSH1 0x12 PUSH1 0x4 MSTORE PUSH1 0x24 PUSH1 0x0 REVERT JUMPDEST PUSH32 0x4E487B7100000000000000000000000000000000000000000000000000000000 PUSH1 0x0 MSTORE PUSH1 0x22 PUSH1 0x4 MSTORE PUSH1 0x24 PUSH1 0x0 REVERT JUMPDEST PUSH32 0x4E487B7100000000000000000000000000000000000000000000000000000000 PUSH1 0x0 MSTORE PUSH1 0x32 PUSH1 0x4 MSTORE PUSH1 0x24 PUSH1 0x0 REVERT JUMPDEST PUSH1 0x0 DUP1 REVERT JUMPDEST PUSH1 0x0 PUSH1 0x1F NOT PUSH1 0x1F DUP4 ADD AND SWAP1 POP SWAP2 SWAP1 POP JUMP JUMPDEST PUSH1 0x0 DUP2 PUSH1 0x60 SHL SWAP1 POP SWAP2 SWAP1 POP JUMP JUMPDEST PUSH32 0x416C726561647920766F7465642E000000000000000000000000000000000000 PUSH1 0x0 DUP3 ADD MSTORE POP JUMP JUMPDEST PUSH32 0x54686520766F74657220616C726561647920766F7465642E0000000000000000 PUSH1 0x0 DUP3 ADD MSTORE POP JUMP JUMPDEST PUSH32 0x52656163686564206D617820766F746572732E00000000000000000000000000 PUSH1 0x0 DUP3 ADD MSTORE POP JUMP JUMPDEST PUSH2 0x12E3 DUP2 PUSH2 0x1021 JUMP JUMPDEST DUP2 EQ PUSH2 0x12EE JUMPI PUSH1 0x0 DUP1 REVERT JUMPDEST POP JUMP JUMPDEST PUSH2 0x12FA DUP2 PUSH2 0x1069 JUMP JUMPDEST DUP2 EQ PUSH2 0x1305 JUMPI PUSH1 0x0 DUP1 REVERT JUMPDEST POP JUMP INVALID LOG2 PUSH5 0x6970667358 0x22 SLT KECCAK256 0xBB SWAP12 0x5C 0xD4 ISZERO DUP8 0x4C 0xC9 CODESIZE PUSH22 0x4E772A0B7A61EE3BA69D81E67FDF459DD2412ED14B8 PUSH5 0x736F6C6343 STOP ADDMOD SMOD STOP CALLER "
				},
				"gasEstimates": {
					"creation": {
						"codeDepositCost": "985200",
						"executionCost": "infinite",
						"totalCost": "infinite"
					},
					"external": {
						"countV()": "2451",
						"res(uint256)": "infinite",
						"vote()": "infinite",
						"voters(address)": "infinite",
						"winnerName()": "infinite",
						"winningProposal()": "infinite"
					},
					"internal": {
						"countVoters()": "infinite",
						"random_district()": "infinite",
						"random_vote()": "infinite"
					}
				},
				"methodIdentifiers": {
					"countV()": "6d8f3f10",
					"res(uint256)": "d4e8fd2e",
					"vote()": "632a9a52",
					"voters(address)": "a3ec138d",
					"winnerName()": "e2ba53f0",
					"winningProposal()": "609ff1bd"
				}
			},
			"storageLayout": {
				"storage": [
					{
						"astId": 38,
						"contract": "smartContract/contracts/3_Ballot.sol:Ballot",
						"label": "chairperson",
						"offset": 0,
						"slot": "0",
						"type": "t_address"
					},
					{
						"astId": 43,
						"contract": "smartContract/contracts/3_Ballot.sol:Ballot",
						"label": "voters",
						"offset": 0,
						"slot": "1",
						"type": "t_mapping(t_address,t_struct(Voter)11_storage)"
					},
					{
						"astId": 47,
						"contract": "smartContract/contracts/3_Ballot.sol:Ballot",
						"label": "proposals",
						"offset": 0,
						"slot": "2",
						"type": "t_array(t_struct(Proposal)36_storage)dyn_storage"
					},
					{
						"astId": 144,
						"contract": "smartContract/contracts/3_Ballot.sol:Ballot",
						"label": "countV",
						"offset": 0,
						"slot": "3",
						"type": "t_int256"
					}
				],
				"types": {
					"t_address": {
						"encoding": "inplace",
						"label": "address",
						"numberOfBytes": "20"
					},
					"t_array(t_struct(Proposal)36_storage)dyn_storage": {
						"base": "t_struct(Proposal)36_storage",
						"encoding": "dynamic_array",
						"label": "struct Ballot.Proposal[]",
						"numberOfBytes": "32"
					},
					"t_bool": {
						"encoding": "inplace",
						"label": "bool",
						"numberOfBytes": "1"
					},
					"t_int256": {
						"encoding": "inplace",
						"label": "int256",
						"numberOfBytes": "32"
					},
					"t_mapping(t_address,t_struct(Voter)11_storage)": {
						"encoding": "mapping",
						"key": "t_address",
						"label": "mapping(address => struct Ballot.Voter)",
						"numberOfBytes": "32",
						"value": "t_struct(Voter)11_storage"
					},
					"t_string_storage": {
						"encoding": "bytes",
						"label": "string",
						"numberOfBytes": "32"
					},
					"t_struct(Proposal)36_storage": {
						"encoding": "inplace",
						"label": "struct Ballot.Proposal",
						"members": [
							{
								"astId": 13,
								"contract": "smartContract/contracts/3_Ballot.sol:Ballot",
								"label": "name",
								"offset": 0,
								"slot": "0",
								"type": "t_string_storage"
							},
							{
								"astId": 15,
								"contract": "smartContract/contracts/3_Ballot.sol:Ballot",
								"label": "Total_Votes",
								"offset": 0,
								"slot": "1",
								"type": "t_uint256"
							},
							{
								"astId": 17,
								"contract": "smartContract/contracts/3_Ballot.sol:Ballot",
								"label": "Votes_District0",
								"offset": 0,
								"slot": "2",
								"type": "t_uint256"
							},
							{
								"astId": 19,
								"contract": "smartContract/contracts/3_Ballot.sol:Ballot",
								"label": "Votes_District1",
								"offset": 0,
								"slot": "3",
								"type": "t_uint256"
							},
							{
								"astId": 21,
								"contract": "smartContract/contracts/3_Ballot.sol:Ballot",
								"label": "Votes_District2",
								"offset": 0,
								"slot": "4",
								"type": "t_uint256"
							},
							{
								"astId": 23,
								"contract": "smartContract/contracts/3_Ballot.sol:Ballot",
								"label": "Votes_District3",
								"offset": 0,
								"slot": "5",
								"type": "t_uint256"
							},
							{
								"astId": 25,
								"contract": "smartContract/contracts/3_Ballot.sol:Ballot",
								"label": "Votes_District4",
								"offset": 0,
								"slot": "6",
								"type": "t_uint256"
							},
							{
								"astId": 27,
								"contract": "smartContract/contracts/3_Ballot.sol:Ballot",
								"label": "Votes_District5",
								"offset": 0,
								"slot": "7",
								"type": "t_uint256"
							},
							{
								"astId": 29,
								"contract": "smartContract/contracts/3_Ballot.sol:Ballot",
								"label": "Votes_District6",
								"offset": 0,
								"slot": "8",
								"type": "t_uint256"
							},
							{
								"astId": 31,
								"contract": "smartContract/contracts/3_Ballot.sol:Ballot",
								"label": "Votes_District7",
								"offset": 0,
								"slot": "9",
								"type": "t_uint256"
							},
							{
								"astId": 33,
								"contract": "smartContract/contracts/3_Ballot.sol:Ballot",
								"label": "Votes_District8",
								"offset": 0,
								"slot": "10",
								"type": "t_uint256"
							},
							{
								"astId": 35,
								"contract": "smartContract/contracts/3_Ballot.sol:Ballot",
								"label": "Votes_District9",
								"offset": 0,
								"slot": "11",
								"type": "t_uint256"
							}
						],
						"numberOfBytes": "384"
					},
					"t_struct(Voter)11_storage": {
						"encoding": "inplace",
						"label": "struct Ballot.Voter",
						"members": [
							{
								"astId": 4,
								"contract": "smartContract/contracts/3_Ballot.sol:Ballot",
								"label": "weight",
								"offset": 0,
								"slot": "0",
								"type": "t_uint256"
							},
							{
								"astId": 6,
								"contract": "smartContract/contracts/3_Ballot.sol:Ballot",
								"label": "voted",
								"offset": 0,
								"slot": "1",
								"type": "t_bool"
							},
							{
								"astId": 8,
								"contract": "smartContract/contracts/3_Ballot.sol:Ballot",
								"label": "district",
								"offset": 0,
								"slot": "2",
								"type": "t_uint256"
							},
							{
								"astId": 10,
								"contract": "smartContract/contracts/3_Ballot.sol:Ballot",
								"label": "vote",
								"offset": 0,
								"slot": "3",
								"type": "t_uint256"
							}
						],
						"numberOfBytes": "128"
					},
					"t_uint256": {
						"encoding": "inplace",
						"label": "uint256",
						"numberOfBytes": "32"
					}
				}
			},
			"userdoc": {
				"kind": "user",
				"methods": {},
				"version": 1
			}
		}
	}
}