{
	"smartContract/contracts/3_Ballot.sol": {
		"Ballot": {
			"abi": [
				{
					"inputs": [],
					"stateMutability": "nonpayable",
					"type": "constructor"
				},
				{
					"inputs": [],
					"name": "getInfo",
					"outputs": [
						{
							"internalType": "string",
							"name": "",
							"type": "string"
						}
					],
					"stateMutability": "view",
					"type": "function"
				},
				{
					"inputs": [],
					"name": "random_vote",
					"outputs": [
						{
							"internalType": "uint256",
							"name": "",
							"type": "uint256"
						}
					],
					"stateMutability": "view",
					"type": "function"
				},
				{
					"inputs": [
						{
							"internalType": "uint256",
							"name": "_id",
							"type": "uint256"
						}
					],
					"name": "res",
					"outputs": [
						{
							"components": [
								{
									"internalType": "string",
									"name": "name",
									"type": "string"
								},
								{
									"internalType": "uint256",
									"name": "Total_Votes",
									"type": "uint256"
								},
								{
									"internalType": "uint256",
									"name": "Votes_District0",
									"type": "uint256"
								},
								{
									"internalType": "uint256",
									"name": "Votes_District1",
									"type": "uint256"
								},
								{
									"internalType": "uint256",
									"name": "Votes_District2",
									"type": "uint256"
								},
								{
									"internalType": "uint256",
									"name": "Votes_District3",
									"type": "uint256"
								},
								{
									"internalType": "uint256",
									"name": "Votes_District4",
									"type": "uint256"
								},
								{
									"internalType": "uint256",
									"name": "Votes_District5",
									"type": "uint256"
								},
								{
									"internalType": "uint256",
									"name": "Votes_District6",
									"type": "uint256"
								},
								{
									"internalType": "uint256",
									"name": "Votes_District7",
									"type": "uint256"
								},
								{
									"internalType": "uint256",
									"name": "Votes_District8",
									"type": "uint256"
								},
								{
									"internalType": "uint256",
									"name": "Votes_District9",
									"type": "uint256"
								}
							],
							"internalType": "struct Ballot.Proposal",
							"name": "",
							"type": "tuple"
						}
					],
					"stateMutability": "view",
					"type": "function"
				},
				{
					"inputs": [
						{
							"internalType": "string",
							"name": "_info",
							"type": "string"
						}
					],
					"name": "setInfo",
					"outputs": [],
					"stateMutability": "nonpayable",
					"type": "function"
				},
				{
					"inputs": [],
					"name": "vote",
					"outputs": [],
					"stateMutability": "nonpayable",
					"type": "function"
				},
				{
					"inputs": [
						{
							"internalType": "address",
							"name": "",
							"type": "address"
						}
					],
					"name": "voters",
					"outputs": [
						{
							"internalType": "uint256",
							"name": "weight",
							"type": "uint256"
						},
						{
							"internalType": "bool",
							"name": "voted",
							"type": "bool"
						},
						{
							"internalType": "uint256",
							"name": "district",
							"type": "uint256"
						},
						{
							"internalType": "uint256",
							"name": "vote",
							"type": "uint256"
						}
					],
					"stateMutability": "view",
					"type": "function"
				}
			],
			"devdoc": {
				"details": "Implements voting process along with vote delegation",
				"kind": "dev",
				"methods": {},
				"title": "Ballot",
				"version": 1
			},
			"evm": {
				"assembly": "    /* \"smartContract/contracts/3_Ballot.sol\":157:5938  contract Ballot {... */\n  mstore(0x40, 0x80)\n    /* \"smartContract/contracts/3_Ballot.sol\":2780:2781  0 */\n  0x00\n    /* \"smartContract/contracts/3_Ballot.sol\":2760:2781  int private count = 0 */\n  0x04\n  sstore\n    /* \"smartContract/contracts/3_Ballot.sol\":3410:3411  0 */\n  0x00\n    /* \"smartContract/contracts/3_Ballot.sol\":3389:3411  int private count2 = 0 */\n  0x05\n  sstore\n    /* \"smartContract/contracts/3_Ballot.sol\":1471:2313  constructor() {... */\n  callvalue\n  dup1\n  iszero\n  tag_1\n  jumpi\n  0x00\n  dup1\n  revert\ntag_1:\n  pop\n    /* \"smartContract/contracts/3_Ballot.sol\":1509:1519  msg.sender */\n  caller\n    /* \"smartContract/contracts/3_Ballot.sol\":1495:1506  chairperson */\n  0x00\n  dup1\n    /* \"smartContract/contracts/3_Ballot.sol\":1495:1519  chairperson = msg.sender */\n  0x0100\n  exp\n  dup2\n  sload\n  dup2\n  0xffffffffffffffffffffffffffffffffffffffff\n  mul\n  not\n  and\n  swap1\n  dup4\n  0xffffffffffffffffffffffffffffffffffffffff\n  and\n  mul\n  or\n  swap1\n  sstore\n  pop\n    /* \"smartContract/contracts/3_Ballot.sol\":1558:1559  1 */\n  0x01\n    /* \"smartContract/contracts/3_Ballot.sol\":1529:1535  voters */\n  dup1\n    /* \"smartContract/contracts/3_Ballot.sol\":1529:1548  voters[chairperson] */\n  0x00\n    /* \"smartContract/contracts/3_Ballot.sol\":1536:1547  chairperson */\n  dup1\n  0x00\n  swap1\n  sload\n  swap1\n  0x0100\n  exp\n  swap1\n  div\n  0xffffffffffffffffffffffffffffffffffffffff\n  and\n    /* \"smartContract/contracts/3_Ballot.sol\":1529:1548  voters[chairperson] */\n  0xffffffffffffffffffffffffffffffffffffffff\n  and\n  0xffffffffffffffffffffffffffffffffffffffff\n  and\n  dup2\n  mstore\n  0x20\n  add\n  swap1\n  dup2\n  mstore\n  0x20\n  add\n  0x00\n  keccak256\n    /* \"smartContract/contracts/3_Ballot.sol\":1529:1555  voters[chairperson].weight */\n  0x00\n  add\n    /* \"smartContract/contracts/3_Ballot.sol\":1529:1559  voters[chairperson].weight = 1 */\n  dup2\n  swap1\n  sstore\n  pop\n    /* \"smartContract/contracts/3_Ballot.sol\":1569:1599  string[5] memory proposalNames */\n  0x00\n    /* \"smartContract/contracts/3_Ballot.sol\":1569:1623  string[5] memory proposalNames = [\"a\",\"b\",\"c\",\"d\",\"e\"] */\n  mload(0x40)\n  dup1\n  0xa0\n  add\n  0x40\n  mstore\n  dup1\n  mload(0x40)\n  dup1\n  0x40\n  add\n  0x40\n  mstore\n  dup1\n  0x01\n  dup2\n  mstore\n  0x20\n  add\n  0x6100000000000000000000000000000000000000000000000000000000000000\n  dup2\n  mstore\n  pop\n  dup2\n  mstore\n  0x20\n  add\n  mload(0x40)\n  dup1\n  0x40\n  add\n  0x40\n  mstore\n  dup1\n  0x01\n  dup2\n  mstore\n  0x20\n  add\n  0x6200000000000000000000000000000000000000000000000000000000000000\n  dup2\n  mstore\n  pop\n  dup2\n  mstore\n  0x20\n  add\n  mload(0x40)\n  dup1\n  0x40\n  add\n  0x40\n  mstore\n  dup1\n  0x01\n  dup2\n  mstore\n  0x20\n  add\n  0x6300000000000000000000000000000000000000000000000000000000000000\n  dup2\n  mstore\n  pop\n  dup2\n  mstore\n  0x20\n  add\n  mload(0x40)\n  dup1\n  0x40\n  add\n  0x40\n  mstore\n  dup1\n  0x01\n  dup2\n  mstore\n  0x20\n  add\n  0x6400000000000000000000000000000000000000000000000000000000000000\n  dup2\n  mstore\n  pop\n  dup2\n  mstore\n  0x20\n  add\n  mload(0x40)\n  dup1\n  0x40\n  add\n  0x40\n  mstore\n  dup1\n  0x01\n  dup2\n  mstore\n  0x20\n  add\n  0x6500000000000000000000000000000000000000000000000000000000000000\n  dup2\n  mstore\n  pop\n  dup2\n  mstore\n  pop\n  swap1\n  pop\n    /* \"smartContract/contracts/3_Ballot.sol\":1663:1664  5 */\n  0x05\n    /* \"smartContract/contracts/3_Ballot.sol\":1641:1661  proposalNames.length */\n  dup1\n    /* \"smartContract/contracts/3_Ballot.sol\":1641:1664  proposalNames.length==5 */\n  eq\n    /* \"smartContract/contracts/3_Ballot.sol\":1633:1689  require(proposalNames.length==5,\"Candidates must be 5.\") */\n  tag_4\n  jumpi\n  mload(0x40)\n  0x08c379a000000000000000000000000000000000000000000000000000000000\n  dup2\n  mstore\n  0x04\n  add\n  tag_5\n  swap1\n  tag_6\n  jump\t// in\ntag_5:\n  mload(0x40)\n  dup1\n  swap2\n  sub\n  swap1\n  revert\ntag_4:\n    /* \"smartContract/contracts/3_Ballot.sol\":1704:1710  uint i */\n  0x00\n    /* \"smartContract/contracts/3_Ballot.sol\":1699:2307  for (uint i = 0; i < proposalNames.length; i++) {... */\ntag_7:\n    /* \"smartContract/contracts/3_Ballot.sol\":1720:1740  proposalNames.length */\n  0x05\n    /* \"smartContract/contracts/3_Ballot.sol\":1716:1717  i */\n  dup2\n    /* \"smartContract/contracts/3_Ballot.sol\":1716:1740  i < proposalNames.length */\n  lt\n    /* \"smartContract/contracts/3_Ballot.sol\":1699:2307  for (uint i = 0; i < proposalNames.length; i++) {... */\n  iszero\n  tag_8\n  jumpi\n    /* \"smartContract/contracts/3_Ballot.sol\":1761:1770  proposals */\n  0x02\n    /* \"smartContract/contracts/3_Ballot.sol\":1776:2295  Proposal({... */\n  mload(0x40)\n  dup1\n  0x0180\n  add\n  0x40\n  mstore\n  dup1\n    /* \"smartContract/contracts/3_Ballot.sol\":1809:1822  proposalNames */\n  dup5\n    /* \"smartContract/contracts/3_Ballot.sol\":1823:1824  i */\n  dup5\n    /* \"smartContract/contracts/3_Ballot.sol\":1809:1825  proposalNames[i] */\n  0x05\n  dup2\n  lt\n  tag_10\n  jumpi\n  tag_11\n  tag_12\n  jump\t// in\ntag_11:\ntag_10:\n  0x20\n  mul\n  add\n  mload\n    /* \"smartContract/contracts/3_Ballot.sol\":1776:2295  Proposal({... */\n  dup2\n  mstore\n  0x20\n  add\n    /* \"smartContract/contracts/3_Ballot.sol\":1919:1920  0 */\n  0x00\n    /* \"smartContract/contracts/3_Ballot.sol\":1776:2295  Proposal({... */\n  dup2\n  mstore\n  0x20\n  add\n    /* \"smartContract/contracts/3_Ballot.sol\":1955:1956  0 */\n  0x00\n    /* \"smartContract/contracts/3_Ballot.sol\":1776:2295  Proposal({... */\n  dup2\n  mstore\n  0x20\n  add\n    /* \"smartContract/contracts/3_Ballot.sol\":1991:1992  0 */\n  0x00\n    /* \"smartContract/contracts/3_Ballot.sol\":1776:2295  Proposal({... */\n  dup2\n  mstore\n  0x20\n  add\n    /* \"smartContract/contracts/3_Ballot.sol\":2027:2028  0 */\n  0x00\n    /* \"smartContract/contracts/3_Ballot.sol\":1776:2295  Proposal({... */\n  dup2\n  mstore\n  0x20\n  add\n    /* \"smartContract/contracts/3_Ballot.sol\":2063:2064  0 */\n  0x00\n    /* \"smartContract/contracts/3_Ballot.sol\":1776:2295  Proposal({... */\n  dup2\n  mstore\n  0x20\n  add\n    /* \"smartContract/contracts/3_Ballot.sol\":2099:2100  0 */\n  0x00\n    /* \"smartContract/contracts/3_Ballot.sol\":1776:2295  Proposal({... */\n  dup2\n  mstore\n  0x20\n  add\n    /* \"smartContract/contracts/3_Ballot.sol\":2135:2136  0 */\n  0x00\n    /* \"smartContract/contracts/3_Ballot.sol\":1776:2295  Proposal({... */\n  dup2\n  mstore\n  0x20\n  add\n    /* \"smartContract/contracts/3_Ballot.sol\":2171:2172  0 */\n  0x00\n    /* \"smartContract/contracts/3_Ballot.sol\":1776:2295  Proposal({... */\n  dup2\n  mstore\n  0x20\n  add\n    /* \"smartContract/contracts/3_Ballot.sol\":2207:2208  0 */\n  0x00\n    /* \"smartContract/contracts/3_Ballot.sol\":1776:2295  Proposal({... */\n  dup2\n  mstore\n  0x20\n  add\n    /* \"smartContract/contracts/3_Ballot.sol\":2243:2244  0 */\n  0x00\n    /* \"smartContract/contracts/3_Ballot.sol\":1776:2295  Proposal({... */\n  dup2\n  mstore\n  0x20\n  add\n    /* \"smartContract/contracts/3_Ballot.sol\":2279:2280  0 */\n  0x00\n    /* \"smartContract/contracts/3_Ballot.sol\":1776:2295  Proposal({... */\n  dup2\n  mstore\n  pop\n    /* \"smartContract/contracts/3_Ballot.sol\":1761:2296  proposals.push(Proposal({... */\n  swap1\n  dup1\n  0x01\n  dup2\n  sload\n  add\n  dup1\n  dup3\n  sstore\n  dup1\n  swap2\n  pop\n  pop\n  0x01\n  swap1\n  sub\n  swap1\n  0x00\n  mstore\n  keccak256(0x00, 0x20)\n  swap1\n  0x0c\n  mul\n  add\n  0x00\n  swap1\n  swap2\n  swap1\n  swap2\n  swap1\n  swap2\n  pop\n  0x00\n  dup3\n  add\n  mload\n  dup2\n  0x00\n  add\n  swap1\n  dup1\n  mload\n  swap1\n  0x20\n  add\n  swap1\n  tag_14\n  swap3\n  swap2\n  swap1\n  tag_15\n  jump\t// in\ntag_14:\n  pop\n  0x20\n  dup3\n  add\n  mload\n  dup2\n  0x01\n  add\n  sstore\n  0x40\n  dup3\n  add\n  mload\n  dup2\n  0x02\n  add\n  sstore\n  0x60\n  dup3\n  add\n  mload\n  dup2\n  0x03\n  add\n  sstore\n  0x80\n  dup3\n  add\n  mload\n  dup2\n  0x04\n  add\n  sstore\n  0xa0\n  dup3\n  add\n  mload\n  dup2\n  0x05\n  add\n  sstore\n  0xc0\n  dup3\n  add\n  mload\n  dup2\n  0x06\n  add\n  sstore\n  0xe0\n  dup3\n  add\n  mload\n  dup2\n  0x07\n  add\n  sstore\n  0x0100\n  dup3\n  add\n  mload\n  dup2\n  0x08\n  add\n  sstore\n  0x0120\n  dup3\n  add\n  mload\n  dup2\n  0x09\n  add\n  sstore\n  0x0140\n  dup3\n  add\n  mload\n  dup2\n  0x0a\n  add\n  sstore\n  0x0160\n  dup3\n  add\n  mload\n  dup2\n  0x0b\n  add\n  sstore\n  pop\n  pop\n    /* \"smartContract/contracts/3_Ballot.sol\":1742:1745  i++ */\n  dup1\n  dup1\n  tag_16\n  swap1\n  tag_17\n  jump\t// in\ntag_16:\n  swap2\n  pop\n  pop\n    /* \"smartContract/contracts/3_Ballot.sol\":1699:2307  for (uint i = 0; i < proposalNames.length; i++) {... */\n  jump(tag_7)\ntag_8:\n  pop\n    /* \"smartContract/contracts/3_Ballot.sol\":1485:2313  {... */\n  pop\n    /* \"smartContract/contracts/3_Ballot.sol\":157:5938  contract Ballot {... */\n  jump(tag_18)\ntag_15:\n  dup3\n  dup1\n  sload\n  tag_19\n  swap1\n  tag_20\n  jump\t// in\ntag_19:\n  swap1\n  0x00\n  mstore\n  keccak256(0x00, 0x20)\n  swap1\n  0x1f\n  add\n  0x20\n  swap1\n  div\n  dup2\n  add\n  swap3\n  dup3\n  tag_22\n  jumpi\n  0x00\n  dup6\n  sstore\n  jump(tag_21)\ntag_22:\n  dup3\n  0x1f\n  lt\n  tag_23\n  jumpi\n  dup1\n  mload\n  not(0xff)\n  and\n  dup4\n  dup1\n  add\n  or\n  dup6\n  sstore\n  jump(tag_21)\ntag_23:\n  dup3\n  dup1\n  add\n  0x01\n  add\n  dup6\n  sstore\n  dup3\n  iszero\n  tag_21\n  jumpi\n  swap2\n  dup3\n  add\ntag_24:\n  dup3\n  dup2\n  gt\n  iszero\n  tag_25\n  jumpi\n  dup3\n  mload\n  dup3\n  sstore\n  swap2\n  0x20\n  add\n  swap2\n  swap1\n  0x01\n  add\n  swap1\n  jump(tag_24)\ntag_25:\ntag_21:\n  pop\n  swap1\n  pop\n  tag_26\n  swap2\n  swap1\n  tag_27\n  jump\t// in\ntag_26:\n  pop\n  swap1\n  jump\t// out\ntag_27:\ntag_28:\n  dup1\n  dup3\n  gt\n  iszero\n  tag_29\n  jumpi\n  0x00\n  dup2\n  0x00\n  swap1\n  sstore\n  pop\n  0x01\n  add\n  jump(tag_28)\ntag_29:\n  pop\n  swap1\n  jump\t// out\n    /* \"#utility.yul\":7:373   */\ntag_31:\n    /* \"#utility.yul\":149:152   */\n  0x00\n    /* \"#utility.yul\":170:237   */\n  tag_33\n    /* \"#utility.yul\":234:236   */\n  0x15\n    /* \"#utility.yul\":229:232   */\n  dup4\n    /* \"#utility.yul\":170:237   */\n  tag_34\n  jump\t// in\ntag_33:\n    /* \"#utility.yul\":163:237   */\n  swap2\n  pop\n    /* \"#utility.yul\":246:339   */\n  tag_35\n    /* \"#utility.yul\":335:338   */\n  dup3\n    /* \"#utility.yul\":246:339   */\n  tag_36\n  jump\t// in\ntag_35:\n    /* \"#utility.yul\":364:366   */\n  0x20\n    /* \"#utility.yul\":359:362   */\n  dup3\n    /* \"#utility.yul\":355:367   */\n  add\n    /* \"#utility.yul\":348:367   */\n  swap1\n  pop\n    /* \"#utility.yul\":7:373   */\n  swap2\n  swap1\n  pop\n  jump\t// out\n    /* \"#utility.yul\":379:798   */\ntag_6:\n    /* \"#utility.yul\":545:549   */\n  0x00\n    /* \"#utility.yul\":583:585   */\n  0x20\n    /* \"#utility.yul\":572:581   */\n  dup3\n    /* \"#utility.yul\":568:586   */\n  add\n    /* \"#utility.yul\":560:586   */\n  swap1\n  pop\n    /* \"#utility.yul\":632:641   */\n  dup2\n    /* \"#utility.yul\":626:630   */\n  dup2\n    /* \"#utility.yul\":622:642   */\n  sub\n    /* \"#utility.yul\":618:619   */\n  0x00\n    /* \"#utility.yul\":607:616   */\n  dup4\n    /* \"#utility.yul\":603:620   */\n  add\n    /* \"#utility.yul\":596:643   */\n  mstore\n    /* \"#utility.yul\":660:791   */\n  tag_38\n    /* \"#utility.yul\":786:790   */\n  dup2\n    /* \"#utility.yul\":660:791   */\n  tag_31\n  jump\t// in\ntag_38:\n    /* \"#utility.yul\":652:791   */\n  swap1\n  pop\n    /* \"#utility.yul\":379:798   */\n  swap2\n  swap1\n  pop\n  jump\t// out\n    /* \"#utility.yul\":804:973   */\ntag_34:\n    /* \"#utility.yul\":888:899   */\n  0x00\n    /* \"#utility.yul\":922:928   */\n  dup3\n    /* \"#utility.yul\":917:920   */\n  dup3\n    /* \"#utility.yul\":910:929   */\n  mstore\n    /* \"#utility.yul\":962:966   */\n  0x20\n    /* \"#utility.yul\":957:960   */\n  dup3\n    /* \"#utility.yul\":953:967   */\n  add\n    /* \"#utility.yul\":938:967   */\n  swap1\n  pop\n    /* \"#utility.yul\":804:973   */\n  swap3\n  swap2\n  pop\n  pop\n  jump\t// out\n    /* \"#utility.yul\":979:1056   */\ntag_40:\n    /* \"#utility.yul\":1016:1023   */\n  0x00\n    /* \"#utility.yul\":1045:1050   */\n  dup2\n    /* \"#utility.yul\":1034:1050   */\n  swap1\n  pop\n    /* \"#utility.yul\":979:1056   */\n  swap2\n  swap1\n  pop\n  jump\t// out\n    /* \"#utility.yul\":1062:1382   */\ntag_20:\n    /* \"#utility.yul\":1106:1112   */\n  0x00\n    /* \"#utility.yul\":1143:1144   */\n  0x02\n    /* \"#utility.yul\":1137:1141   */\n  dup3\n    /* \"#utility.yul\":1133:1145   */\n  div\n    /* \"#utility.yul\":1123:1145   */\n  swap1\n  pop\n    /* \"#utility.yul\":1190:1191   */\n  0x01\n    /* \"#utility.yul\":1184:1188   */\n  dup3\n    /* \"#utility.yul\":1180:1192   */\n  and\n    /* \"#utility.yul\":1211:1229   */\n  dup1\n    /* \"#utility.yul\":1201:1282   */\n  tag_43\n  jumpi\n    /* \"#utility.yul\":1267:1271   */\n  0x7f\n    /* \"#utility.yul\":1259:1265   */\n  dup3\n    /* \"#utility.yul\":1255:1272   */\n  and\n    /* \"#utility.yul\":1245:1272   */\n  swap2\n  pop\n    /* \"#utility.yul\":1201:1282   */\ntag_43:\n    /* \"#utility.yul\":1329:1331   */\n  0x20\n    /* \"#utility.yul\":1321:1327   */\n  dup3\n    /* \"#utility.yul\":1318:1332   */\n  lt\n    /* \"#utility.yul\":1298:1316   */\n  dup2\n    /* \"#utility.yul\":1295:1333   */\n  eq\n    /* \"#utility.yul\":1292:1376   */\n  iszero\n  tag_44\n  jumpi\n    /* \"#utility.yul\":1348:1366   */\n  tag_45\n  tag_46\n  jump\t// in\ntag_45:\n    /* \"#utility.yul\":1292:1376   */\ntag_44:\n    /* \"#utility.yul\":1113:1382   */\n  pop\n    /* \"#utility.yul\":1062:1382   */\n  swap2\n  swap1\n  pop\n  jump\t// out\n    /* \"#utility.yul\":1388:1621   */\ntag_17:\n    /* \"#utility.yul\":1427:1430   */\n  0x00\n    /* \"#utility.yul\":1450:1474   */\n  tag_48\n    /* \"#utility.yul\":1468:1473   */\n  dup3\n    /* \"#utility.yul\":1450:1474   */\n  tag_40\n  jump\t// in\ntag_48:\n    /* \"#utility.yul\":1441:1474   */\n  swap2\n  pop\n    /* \"#utility.yul\":1496:1562   */\n  0xffffffffffffffffffffffffffffffffffffffffffffffffffffffffffffffff\n    /* \"#utility.yul\":1489:1494   */\n  dup3\n    /* \"#utility.yul\":1486:1563   */\n  eq\n    /* \"#utility.yul\":1483:1586   */\n  iszero\n  tag_49\n  jumpi\n    /* \"#utility.yul\":1566:1584   */\n  tag_50\n  tag_51\n  jump\t// in\ntag_50:\n    /* \"#utility.yul\":1483:1586   */\ntag_49:\n    /* \"#utility.yul\":1613:1614   */\n  0x01\n    /* \"#utility.yul\":1606:1611   */\n  dup3\n    /* \"#utility.yul\":1602:1615   */\n  add\n    /* \"#utility.yul\":1595:1615   */\n  swap1\n  pop\n    /* \"#utility.yul\":1388:1621   */\n  swap2\n  swap1\n  pop\n  jump\t// out\n    /* \"#utility.yul\":1627:1807   */\ntag_51:\n    /* \"#utility.yul\":1675:1752   */\n  0x4e487b7100000000000000000000000000000000000000000000000000000000\n    /* \"#utility.yul\":1672:1673   */\n  0x00\n    /* \"#utility.yul\":1665:1753   */\n  mstore\n    /* \"#utility.yul\":1772:1776   */\n  0x11\n    /* \"#utility.yul\":1769:1770   */\n  0x04\n    /* \"#utility.yul\":1762:1777   */\n  mstore\n    /* \"#utility.yul\":1796:1800   */\n  0x24\n    /* \"#utility.yul\":1793:1794   */\n  0x00\n    /* \"#utility.yul\":1786:1801   */\n  revert\n    /* \"#utility.yul\":1813:1993   */\ntag_46:\n    /* \"#utility.yul\":1861:1938   */\n  0x4e487b7100000000000000000000000000000000000000000000000000000000\n    /* \"#utility.yul\":1858:1859   */\n  0x00\n    /* \"#utility.yul\":1851:1939   */\n  mstore\n    /* \"#utility.yul\":1958:1962   */\n  0x22\n    /* \"#utility.yul\":1955:1956   */\n  0x04\n    /* \"#utility.yul\":1948:1963   */\n  mstore\n    /* \"#utility.yul\":1982:1986   */\n  0x24\n    /* \"#utility.yul\":1979:1980   */\n  0x00\n    /* \"#utility.yul\":1972:1987   */\n  revert\n    /* \"#utility.yul\":1999:2179   */\ntag_12:\n    /* \"#utility.yul\":2047:2124   */\n  0x4e487b7100000000000000000000000000000000000000000000000000000000\n    /* \"#utility.yul\":2044:2045   */\n  0x00\n    /* \"#utility.yul\":2037:2125   */\n  mstore\n    /* \"#utility.yul\":2144:2148   */\n  0x32\n    /* \"#utility.yul\":2141:2142   */\n  0x04\n    /* \"#utility.yul\":2134:2149   */\n  mstore\n    /* \"#utility.yul\":2168:2172   */\n  0x24\n    /* \"#utility.yul\":2165:2166   */\n  0x00\n    /* \"#utility.yul\":2158:2173   */\n  revert\n    /* \"#utility.yul\":2185:2356   */\ntag_36:\n    /* \"#utility.yul\":2325:2348   */\n  0x43616e64696461746573206d75737420626520352e0000000000000000000000\n    /* \"#utility.yul\":2321:2322   */\n  0x00\n    /* \"#utility.yul\":2313:2319   */\n  dup3\n    /* \"#utility.yul\":2309:2323   */\n  add\n    /* \"#utility.yul\":2302:2349   */\n  mstore\n    /* \"#utility.yul\":2185:2356   */\n  pop\n  jump\t// out\n    /* \"smartContract/contracts/3_Ballot.sol\":157:5938  contract Ballot {... */\ntag_18:\n  dataSize(sub_0)\n  dup1\n  dataOffset(sub_0)\n  0x00\n  codecopy\n  0x00\n  return\nstop\n\nsub_0: assembly {\n        /* \"smartContract/contracts/3_Ballot.sol\":157:5938  contract Ballot {... */\n      mstore(0x40, 0x80)\n      callvalue\n      dup1\n      iszero\n      tag_1\n      jumpi\n      0x00\n      dup1\n      revert\n    tag_1:\n      pop\n      jumpi(tag_2, lt(calldatasize, 0x04))\n      shr(0xe0, calldataload(0x00))\n      dup1\n      0x5a9b0b89\n      eq\n      tag_3\n      jumpi\n      dup1\n      0x632a9a52\n      eq\n      tag_4\n      jumpi\n      dup1\n      0x937f6e77\n      eq\n      tag_5\n      jumpi\n      dup1\n      0xa3ec138d\n      eq\n      tag_6\n      jumpi\n      dup1\n      0xcfa1f037\n      eq\n      tag_7\n      jumpi\n      dup1\n      0xd4e8fd2e\n      eq\n      tag_8\n      jumpi\n    tag_2:\n      0x00\n      dup1\n      revert\n        /* \"smartContract/contracts/3_Ballot.sol\":1378:1461  function getInfo() public view returns (string memory) {... */\n    tag_3:\n      tag_9\n      tag_10\n      jump\t// in\n    tag_9:\n      mload(0x40)\n      tag_11\n      swap2\n      swap1\n      tag_12\n      jump\t// in\n    tag_11:\n      mload(0x40)\n      dup1\n      swap2\n      sub\n      swap1\n      return\n        /* \"smartContract/contracts/3_Ballot.sol\":3671:5833  function vote() public {... */\n    tag_4:\n      tag_13\n      tag_14\n      jump\t// in\n    tag_13:\n      stop\n        /* \"smartContract/contracts/3_Ballot.sol\":1298:1372  function setInfo(string memory _info) public {... */\n    tag_5:\n      tag_15\n      0x04\n      dup1\n      calldatasize\n      sub\n      dup2\n      add\n      swap1\n      tag_16\n      swap2\n      swap1\n      tag_17\n      jump\t// in\n    tag_16:\n      tag_18\n      jump\t// in\n    tag_15:\n      stop\n        /* \"smartContract/contracts/3_Ballot.sol\":896:935  mapping(address => Voter) public voters */\n    tag_6:\n      tag_19\n      0x04\n      dup1\n      calldatasize\n      sub\n      dup2\n      add\n      swap1\n      tag_20\n      swap2\n      swap1\n      tag_21\n      jump\t// in\n    tag_20:\n      tag_22\n      jump\t// in\n    tag_19:\n      mload(0x40)\n      tag_23\n      swap5\n      swap4\n      swap3\n      swap2\n      swap1\n      tag_24\n      jump\t// in\n    tag_23:\n      mload(0x40)\n      dup1\n      swap2\n      sub\n      swap1\n      return\n        /* \"smartContract/contracts/3_Ballot.sol\":3488:3665  function random_vote() public view returns(uint){... */\n    tag_7:\n      tag_25\n      tag_26\n      jump\t// in\n    tag_25:\n      mload(0x40)\n      tag_27\n      swap2\n      swap1\n      tag_28\n      jump\t// in\n    tag_27:\n      mload(0x40)\n      dup1\n      swap2\n      sub\n      swap1\n      return\n        /* \"smartContract/contracts/3_Ballot.sol\":5839:5936  function res(uint _id) public view returns(Proposal memory){... */\n    tag_8:\n      tag_29\n      0x04\n      dup1\n      calldatasize\n      sub\n      dup2\n      add\n      swap1\n      tag_30\n      swap2\n      swap1\n      tag_31\n      jump\t// in\n    tag_30:\n      tag_32\n      jump\t// in\n    tag_29:\n      mload(0x40)\n      tag_33\n      swap2\n      swap1\n      tag_34\n      jump\t// in\n    tag_33:\n      mload(0x40)\n      dup1\n      swap2\n      sub\n      swap1\n      return\n        /* \"smartContract/contracts/3_Ballot.sol\":1378:1461  function getInfo() public view returns (string memory) {... */\n    tag_10:\n        /* \"smartContract/contracts/3_Ballot.sol\":1418:1431  string memory */\n      0x60\n        /* \"smartContract/contracts/3_Ballot.sol\":1450:1454  info */\n      0x03\n        /* \"smartContract/contracts/3_Ballot.sol\":1443:1454  return info */\n      dup1\n      sload\n      tag_36\n      swap1\n      tag_37\n      jump\t// in\n    tag_36:\n      dup1\n      0x1f\n      add\n      0x20\n      dup1\n      swap2\n      div\n      mul\n      0x20\n      add\n      mload(0x40)\n      swap1\n      dup2\n      add\n      0x40\n      mstore\n      dup1\n      swap3\n      swap2\n      swap1\n      dup2\n      dup2\n      mstore\n      0x20\n      add\n      dup3\n      dup1\n      sload\n      tag_38\n      swap1\n      tag_37\n      jump\t// in\n    tag_38:\n      dup1\n      iszero\n      tag_39\n      jumpi\n      dup1\n      0x1f\n      lt\n      tag_40\n      jumpi\n      0x0100\n      dup1\n      dup4\n      sload\n      div\n      mul\n      dup4\n      mstore\n      swap2\n      0x20\n      add\n      swap2\n      jump(tag_39)\n    tag_40:\n      dup3\n      add\n      swap2\n      swap1\n      0x00\n      mstore\n      keccak256(0x00, 0x20)\n      swap1\n    tag_41:\n      dup2\n      sload\n      dup2\n      mstore\n      swap1\n      0x01\n      add\n      swap1\n      0x20\n      add\n      dup1\n      dup4\n      gt\n      tag_41\n      jumpi\n      dup3\n      swap1\n      sub\n      0x1f\n      and\n      dup3\n      add\n      swap2\n    tag_39:\n      pop\n      pop\n      pop\n      pop\n      pop\n      swap1\n      pop\n        /* \"smartContract/contracts/3_Ballot.sol\":1378:1461  function getInfo() public view returns (string memory) {... */\n      swap1\n      jump\t// out\n        /* \"smartContract/contracts/3_Ballot.sol\":3671:5833  function vote() public {... */\n    tag_14:\n        /* \"smartContract/contracts/3_Ballot.sol\":3740:3746  voters */\n      0x01\n        /* \"smartContract/contracts/3_Ballot.sol\":3740:3758  voters[msg.sender] */\n      0x00\n        /* \"smartContract/contracts/3_Ballot.sol\":3747:3757  msg.sender */\n      caller\n        /* \"smartContract/contracts/3_Ballot.sol\":3740:3758  voters[msg.sender] */\n      0xffffffffffffffffffffffffffffffffffffffff\n      and\n      0xffffffffffffffffffffffffffffffffffffffff\n      and\n      dup2\n      mstore\n      0x20\n      add\n      swap1\n      dup2\n      mstore\n      0x20\n      add\n      0x00\n      keccak256\n        /* \"smartContract/contracts/3_Ballot.sol\":3740:3764  voters[msg.sender].voted */\n      0x01\n      add\n      0x00\n      swap1\n      sload\n      swap1\n      0x0100\n      exp\n      swap1\n      div\n      0xff\n      and\n        /* \"smartContract/contracts/3_Ballot.sol\":3739:3764  !voters[msg.sender].voted */\n      iszero\n        /* \"smartContract/contracts/3_Ballot.sol\":3718:3814  require(... */\n      tag_43\n      jumpi\n      mload(0x40)\n      0x08c379a000000000000000000000000000000000000000000000000000000000\n      dup2\n      mstore\n      0x04\n      add\n      tag_44\n      swap1\n      tag_45\n      jump\t// in\n    tag_44:\n      mload(0x40)\n      dup1\n      swap2\n      sub\n      swap1\n      revert\n    tag_43:\n        /* \"smartContract/contracts/3_Ballot.sol\":3861:3862  0 */\n      0x00\n        /* \"smartContract/contracts/3_Ballot.sol\":3832:3838  voters */\n      0x01\n        /* \"smartContract/contracts/3_Ballot.sol\":3832:3850  voters[msg.sender] */\n      0x00\n        /* \"smartContract/contracts/3_Ballot.sol\":3839:3849  msg.sender */\n      caller\n        /* \"smartContract/contracts/3_Ballot.sol\":3832:3850  voters[msg.sender] */\n      0xffffffffffffffffffffffffffffffffffffffff\n      and\n      0xffffffffffffffffffffffffffffffffffffffff\n      and\n      dup2\n      mstore\n      0x20\n      add\n      swap1\n      dup2\n      mstore\n      0x20\n      add\n      0x00\n      keccak256\n        /* \"smartContract/contracts/3_Ballot.sol\":3832:3857  voters[msg.sender].weight */\n      0x00\n      add\n      sload\n        /* \"smartContract/contracts/3_Ballot.sol\":3832:3862  voters[msg.sender].weight == 0 */\n      eq\n        /* \"smartContract/contracts/3_Ballot.sol\":3824:3863  require(voters[msg.sender].weight == 0) */\n      tag_46\n      jumpi\n      0x00\n      dup1\n      revert\n    tag_46:\n        /* \"smartContract/contracts/3_Ballot.sol\":3901:3902  1 */\n      0x01\n        /* \"smartContract/contracts/3_Ballot.sol\":3873:3879  voters */\n      dup1\n        /* \"smartContract/contracts/3_Ballot.sol\":3873:3891  voters[msg.sender] */\n      0x00\n        /* \"smartContract/contracts/3_Ballot.sol\":3880:3890  msg.sender */\n      caller\n        /* \"smartContract/contracts/3_Ballot.sol\":3873:3891  voters[msg.sender] */\n      0xffffffffffffffffffffffffffffffffffffffff\n      and\n      0xffffffffffffffffffffffffffffffffffffffff\n      and\n      dup2\n      mstore\n      0x20\n      add\n      swap1\n      dup2\n      mstore\n      0x20\n      add\n      0x00\n      keccak256\n        /* \"smartContract/contracts/3_Ballot.sol\":3873:3898  voters[msg.sender].weight */\n      0x00\n      add\n        /* \"smartContract/contracts/3_Ballot.sol\":3873:3902  voters[msg.sender].weight = 1 */\n      dup2\n      swap1\n      sstore\n      pop\n        /* \"smartContract/contracts/3_Ballot.sol\":3962:3980  incrementCounter() */\n      tag_47\n        /* \"smartContract/contracts/3_Ballot.sol\":3962:3978  incrementCounter */\n      tag_48\n        /* \"smartContract/contracts/3_Ballot.sol\":3962:3980  incrementCounter() */\n      jump\t// in\n    tag_47:\n        /* \"smartContract/contracts/3_Ballot.sol\":4018:4035  random_district() */\n      tag_49\n        /* \"smartContract/contracts/3_Ballot.sol\":4018:4033  random_district */\n      tag_50\n        /* \"smartContract/contracts/3_Ballot.sol\":4018:4035  random_district() */\n      jump\t// in\n    tag_49:\n        /* \"smartContract/contracts/3_Ballot.sol\":3990:3996  voters */\n      0x01\n        /* \"smartContract/contracts/3_Ballot.sol\":3990:4008  voters[msg.sender] */\n      0x00\n        /* \"smartContract/contracts/3_Ballot.sol\":3997:4007  msg.sender */\n      caller\n        /* \"smartContract/contracts/3_Ballot.sol\":3990:4008  voters[msg.sender] */\n      0xffffffffffffffffffffffffffffffffffffffff\n      and\n      0xffffffffffffffffffffffffffffffffffffffff\n      and\n      dup2\n      mstore\n      0x20\n      add\n      swap1\n      dup2\n      mstore\n      0x20\n      add\n      0x00\n      keccak256\n        /* \"smartContract/contracts/3_Ballot.sol\":3990:4017  voters[msg.sender].district */\n      0x02\n      add\n        /* \"smartContract/contracts/3_Ballot.sol\":3990:4035  voters[msg.sender].district=random_district() */\n      dup2\n      swap1\n      sstore\n      pop\n        /* \"smartContract/contracts/3_Ballot.sol\":4063:4083  Voter storage sender */\n      0x00\n        /* \"smartContract/contracts/3_Ballot.sol\":4086:4092  voters */\n      0x01\n        /* \"smartContract/contracts/3_Ballot.sol\":4086:4104  voters[msg.sender] */\n      0x00\n        /* \"smartContract/contracts/3_Ballot.sol\":4093:4103  msg.sender */\n      caller\n        /* \"smartContract/contracts/3_Ballot.sol\":4086:4104  voters[msg.sender] */\n      0xffffffffffffffffffffffffffffffffffffffff\n      and\n      0xffffffffffffffffffffffffffffffffffffffff\n      and\n      dup2\n      mstore\n      0x20\n      add\n      swap1\n      dup2\n      mstore\n      0x20\n      add\n      0x00\n      keccak256\n        /* \"smartContract/contracts/3_Ballot.sol\":4063:4104  Voter storage sender = voters[msg.sender] */\n      swap1\n      pop\n        /* \"smartContract/contracts/3_Ballot.sol\":4237:4243  sender */\n      dup1\n        /* \"smartContract/contracts/3_Ballot.sol\":4237:4249  sender.voted */\n      0x01\n      add\n      0x00\n      swap1\n      sload\n      swap1\n      0x0100\n      exp\n      swap1\n      div\n      0xff\n      and\n        /* \"smartContract/contracts/3_Ballot.sol\":4236:4249  !sender.voted */\n      iszero\n        /* \"smartContract/contracts/3_Ballot.sol\":4228:4268  require(!sender.voted, \"Already voted.\") */\n      tag_51\n      jumpi\n      mload(0x40)\n      0x08c379a000000000000000000000000000000000000000000000000000000000\n      dup2\n      mstore\n      0x04\n      add\n      tag_52\n      swap1\n      tag_53\n      jump\t// in\n    tag_52:\n      mload(0x40)\n      dup1\n      swap2\n      sub\n      swap1\n      revert\n    tag_51:\n        /* \"smartContract/contracts/3_Ballot.sol\":4293:4297  true */\n      0x01\n        /* \"smartContract/contracts/3_Ballot.sol\":4278:4284  sender */\n      dup2\n        /* \"smartContract/contracts/3_Ballot.sol\":4278:4290  sender.voted */\n      0x01\n      add\n      0x00\n        /* \"smartContract/contracts/3_Ballot.sol\":4278:4297  sender.voted = true */\n      0x0100\n      exp\n      dup2\n      sload\n      dup2\n      0xff\n      mul\n      not\n      and\n      swap1\n      dup4\n      iszero\n      iszero\n      mul\n      or\n      swap1\n      sstore\n      pop\n        /* \"smartContract/contracts/3_Ballot.sol\":4356:4369  random_vote() */\n      tag_54\n        /* \"smartContract/contracts/3_Ballot.sol\":4356:4367  random_vote */\n      tag_26\n        /* \"smartContract/contracts/3_Ballot.sol\":4356:4369  random_vote() */\n      jump\t// in\n    tag_54:\n        /* \"smartContract/contracts/3_Ballot.sol\":4342:4348  sender */\n      dup2\n        /* \"smartContract/contracts/3_Ballot.sol\":4342:4353  sender.vote */\n      0x03\n      add\n        /* \"smartContract/contracts/3_Ballot.sol\":4342:4369  sender.vote = random_vote() */\n      dup2\n      swap1\n      sstore\n      pop\n        /* \"smartContract/contracts/3_Ballot.sol\":4730:4736  sender */\n      dup1\n        /* \"smartContract/contracts/3_Ballot.sol\":4730:4743  sender.weight */\n      0x00\n      add\n      sload\n        /* \"smartContract/contracts/3_Ballot.sol\":4690:4699  proposals */\n      0x02\n        /* \"smartContract/contracts/3_Ballot.sol\":4700:4713  random_vote() */\n      tag_55\n        /* \"smartContract/contracts/3_Ballot.sol\":4700:4711  random_vote */\n      tag_26\n        /* \"smartContract/contracts/3_Ballot.sol\":4700:4713  random_vote() */\n      jump\t// in\n    tag_55:\n        /* \"smartContract/contracts/3_Ballot.sol\":4690:4714  proposals[random_vote()] */\n      dup2\n      sload\n      dup2\n      lt\n      tag_56\n      jumpi\n      tag_57\n      tag_58\n      jump\t// in\n    tag_57:\n    tag_56:\n      swap1\n      0x00\n      mstore\n      keccak256(0x00, 0x20)\n      swap1\n      0x0c\n      mul\n      add\n        /* \"smartContract/contracts/3_Ballot.sol\":4690:4726  proposals[random_vote()].Total_Votes */\n      0x01\n      add\n      0x00\n        /* \"smartContract/contracts/3_Ballot.sol\":4690:4743  proposals[random_vote()].Total_Votes += sender.weight */\n      dup3\n      dup3\n      sload\n      tag_60\n      swap2\n      swap1\n      tag_61\n      jump\t// in\n    tag_60:\n      swap3\n      pop\n      pop\n      dup2\n      swap1\n      sstore\n      pop\n        /* \"smartContract/contracts/3_Ballot.sol\":4774:4775  0 */\n      0x00\n        /* \"smartContract/contracts/3_Ballot.sol\":4757:4763  sender */\n      dup2\n        /* \"smartContract/contracts/3_Ballot.sol\":4757:4772  sender.district */\n      0x02\n      add\n      sload\n        /* \"smartContract/contracts/3_Ballot.sol\":4757:4775  sender.district==0 */\n      eq\n        /* \"smartContract/contracts/3_Ballot.sol\":4753:5686  if (sender.district==0){proposals[random_vote()].Votes_District0 += sender.weight;}... */\n      iszero\n      tag_62\n      jumpi\n        /* \"smartContract/contracts/3_Ballot.sol\":4821:4827  sender */\n      dup1\n        /* \"smartContract/contracts/3_Ballot.sol\":4821:4834  sender.weight */\n      0x00\n      add\n      sload\n        /* \"smartContract/contracts/3_Ballot.sol\":4777:4786  proposals */\n      0x02\n        /* \"smartContract/contracts/3_Ballot.sol\":4787:4800  random_vote() */\n      tag_63\n        /* \"smartContract/contracts/3_Ballot.sol\":4787:4798  random_vote */\n      tag_26\n        /* \"smartContract/contracts/3_Ballot.sol\":4787:4800  random_vote() */\n      jump\t// in\n    tag_63:\n        /* \"smartContract/contracts/3_Ballot.sol\":4777:4801  proposals[random_vote()] */\n      dup2\n      sload\n      dup2\n      lt\n      tag_64\n      jumpi\n      tag_65\n      tag_58\n      jump\t// in\n    tag_65:\n    tag_64:\n      swap1\n      0x00\n      mstore\n      keccak256(0x00, 0x20)\n      swap1\n      0x0c\n      mul\n      add\n        /* \"smartContract/contracts/3_Ballot.sol\":4777:4817  proposals[random_vote()].Votes_District0 */\n      0x02\n      add\n      0x00\n        /* \"smartContract/contracts/3_Ballot.sol\":4777:4834  proposals[random_vote()].Votes_District0 += sender.weight */\n      dup3\n      dup3\n      sload\n      tag_67\n      swap2\n      swap1\n      tag_61\n      jump\t// in\n    tag_67:\n      swap3\n      pop\n      pop\n      dup2\n      swap1\n      sstore\n      pop\n        /* \"smartContract/contracts/3_Ballot.sol\":4753:5686  if (sender.district==0){proposals[random_vote()].Votes_District0 += sender.weight;}... */\n      jump(tag_68)\n    tag_62:\n        /* \"smartContract/contracts/3_Ballot.sol\":4871:4872  1 */\n      0x01\n        /* \"smartContract/contracts/3_Ballot.sol\":4854:4860  sender */\n      dup2\n        /* \"smartContract/contracts/3_Ballot.sol\":4854:4869  sender.district */\n      0x02\n      add\n      sload\n        /* \"smartContract/contracts/3_Ballot.sol\":4854:4872  sender.district==1 */\n      eq\n        /* \"smartContract/contracts/3_Ballot.sol\":4850:5686  if (sender.district==1){proposals[random_vote()].Votes_District1 += sender.weight;}... */\n      iszero\n      tag_69\n      jumpi\n        /* \"smartContract/contracts/3_Ballot.sol\":4918:4924  sender */\n      dup1\n        /* \"smartContract/contracts/3_Ballot.sol\":4918:4931  sender.weight */\n      0x00\n      add\n      sload\n        /* \"smartContract/contracts/3_Ballot.sol\":4874:4883  proposals */\n      0x02\n        /* \"smartContract/contracts/3_Ballot.sol\":4884:4897  random_vote() */\n      tag_70\n        /* \"smartContract/contracts/3_Ballot.sol\":4884:4895  random_vote */\n      tag_26\n        /* \"smartContract/contracts/3_Ballot.sol\":4884:4897  random_vote() */\n      jump\t// in\n    tag_70:\n        /* \"smartContract/contracts/3_Ballot.sol\":4874:4898  proposals[random_vote()] */\n      dup2\n      sload\n      dup2\n      lt\n      tag_71\n      jumpi\n      tag_72\n      tag_58\n      jump\t// in\n    tag_72:\n    tag_71:\n      swap1\n      0x00\n      mstore\n      keccak256(0x00, 0x20)\n      swap1\n      0x0c\n      mul\n      add\n        /* \"smartContract/contracts/3_Ballot.sol\":4874:4914  proposals[random_vote()].Votes_District1 */\n      0x03\n      add\n      0x00\n        /* \"smartContract/contracts/3_Ballot.sol\":4874:4931  proposals[random_vote()].Votes_District1 += sender.weight */\n      dup3\n      dup3\n      sload\n      tag_74\n      swap2\n      swap1\n      tag_61\n      jump\t// in\n    tag_74:\n      swap3\n      pop\n      pop\n      dup2\n      swap1\n      sstore\n      pop\n        /* \"smartContract/contracts/3_Ballot.sol\":4850:5686  if (sender.district==1){proposals[random_vote()].Votes_District1 += sender.weight;}... */\n      jump(tag_75)\n    tag_69:\n        /* \"smartContract/contracts/3_Ballot.sol\":4968:4969  2 */\n      0x02\n        /* \"smartContract/contracts/3_Ballot.sol\":4951:4957  sender */\n      dup2\n        /* \"smartContract/contracts/3_Ballot.sol\":4951:4966  sender.district */\n      0x02\n      add\n      sload\n        /* \"smartContract/contracts/3_Ballot.sol\":4951:4969  sender.district==2 */\n      eq\n        /* \"smartContract/contracts/3_Ballot.sol\":4947:5686  if (sender.district==2){proposals[random_vote()].Votes_District2 += sender.weight;}... */\n      iszero\n      tag_76\n      jumpi\n        /* \"smartContract/contracts/3_Ballot.sol\":5015:5021  sender */\n      dup1\n        /* \"smartContract/contracts/3_Ballot.sol\":5015:5028  sender.weight */\n      0x00\n      add\n      sload\n        /* \"smartContract/contracts/3_Ballot.sol\":4971:4980  proposals */\n      0x02\n        /* \"smartContract/contracts/3_Ballot.sol\":4981:4994  random_vote() */\n      tag_77\n        /* \"smartContract/contracts/3_Ballot.sol\":4981:4992  random_vote */\n      tag_26\n        /* \"smartContract/contracts/3_Ballot.sol\":4981:4994  random_vote() */\n      jump\t// in\n    tag_77:\n        /* \"smartContract/contracts/3_Ballot.sol\":4971:4995  proposals[random_vote()] */\n      dup2\n      sload\n      dup2\n      lt\n      tag_78\n      jumpi\n      tag_79\n      tag_58\n      jump\t// in\n    tag_79:\n    tag_78:\n      swap1\n      0x00\n      mstore\n      keccak256(0x00, 0x20)\n      swap1\n      0x0c\n      mul\n      add\n        /* \"smartContract/contracts/3_Ballot.sol\":4971:5011  proposals[random_vote()].Votes_District2 */\n      0x04\n      add\n      0x00\n        /* \"smartContract/contracts/3_Ballot.sol\":4971:5028  proposals[random_vote()].Votes_District2 += sender.weight */\n      dup3\n      dup3\n      sload\n      tag_81\n      swap2\n      swap1\n      tag_61\n      jump\t// in\n    tag_81:\n      swap3\n      pop\n      pop\n      dup2\n      swap1\n      sstore\n      pop\n        /* \"smartContract/contracts/3_Ballot.sol\":4947:5686  if (sender.district==2){proposals[random_vote()].Votes_District2 += sender.weight;}... */\n      jump(tag_82)\n    tag_76:\n        /* \"smartContract/contracts/3_Ballot.sol\":5065:5066  3 */\n      0x03\n        /* \"smartContract/contracts/3_Ballot.sol\":5048:5054  sender */\n      dup2\n        /* \"smartContract/contracts/3_Ballot.sol\":5048:5063  sender.district */\n      0x02\n      add\n      sload\n        /* \"smartContract/contracts/3_Ballot.sol\":5048:5066  sender.district==3 */\n      eq\n        /* \"smartContract/contracts/3_Ballot.sol\":5044:5686  if (sender.district==3){proposals[random_vote()].Votes_District3 += sender.weight;}... */\n      iszero\n      tag_83\n      jumpi\n        /* \"smartContract/contracts/3_Ballot.sol\":5112:5118  sender */\n      dup1\n        /* \"smartContract/contracts/3_Ballot.sol\":5112:5125  sender.weight */\n      0x00\n      add\n      sload\n        /* \"smartContract/contracts/3_Ballot.sol\":5068:5077  proposals */\n      0x02\n        /* \"smartContract/contracts/3_Ballot.sol\":5078:5091  random_vote() */\n      tag_84\n        /* \"smartContract/contracts/3_Ballot.sol\":5078:5089  random_vote */\n      tag_26\n        /* \"smartContract/contracts/3_Ballot.sol\":5078:5091  random_vote() */\n      jump\t// in\n    tag_84:\n        /* \"smartContract/contracts/3_Ballot.sol\":5068:5092  proposals[random_vote()] */\n      dup2\n      sload\n      dup2\n      lt\n      tag_85\n      jumpi\n      tag_86\n      tag_58\n      jump\t// in\n    tag_86:\n    tag_85:\n      swap1\n      0x00\n      mstore\n      keccak256(0x00, 0x20)\n      swap1\n      0x0c\n      mul\n      add\n        /* \"smartContract/contracts/3_Ballot.sol\":5068:5108  proposals[random_vote()].Votes_District3 */\n      0x05\n      add\n      0x00\n        /* \"smartContract/contracts/3_Ballot.sol\":5068:5125  proposals[random_vote()].Votes_District3 += sender.weight */\n      dup3\n      dup3\n      sload\n      tag_88\n      swap2\n      swap1\n      tag_61\n      jump\t// in\n    tag_88:\n      swap3\n      pop\n      pop\n      dup2\n      swap1\n      sstore\n      pop\n        /* \"smartContract/contracts/3_Ballot.sol\":5044:5686  if (sender.district==3){proposals[random_vote()].Votes_District3 += sender.weight;}... */\n      jump(tag_89)\n    tag_83:\n        /* \"smartContract/contracts/3_Ballot.sol\":5162:5163  4 */\n      0x04\n        /* \"smartContract/contracts/3_Ballot.sol\":5145:5151  sender */\n      dup2\n        /* \"smartContract/contracts/3_Ballot.sol\":5145:5160  sender.district */\n      0x02\n      add\n      sload\n        /* \"smartContract/contracts/3_Ballot.sol\":5145:5163  sender.district==4 */\n      eq\n        /* \"smartContract/contracts/3_Ballot.sol\":5141:5686  if (sender.district==4){proposals[random_vote()].Votes_District4 += sender.weight;}... */\n      iszero\n      tag_90\n      jumpi\n        /* \"smartContract/contracts/3_Ballot.sol\":5209:5215  sender */\n      dup1\n        /* \"smartContract/contracts/3_Ballot.sol\":5209:5222  sender.weight */\n      0x00\n      add\n      sload\n        /* \"smartContract/contracts/3_Ballot.sol\":5165:5174  proposals */\n      0x02\n        /* \"smartContract/contracts/3_Ballot.sol\":5175:5188  random_vote() */\n      tag_91\n        /* \"smartContract/contracts/3_Ballot.sol\":5175:5186  random_vote */\n      tag_26\n        /* \"smartContract/contracts/3_Ballot.sol\":5175:5188  random_vote() */\n      jump\t// in\n    tag_91:\n        /* \"smartContract/contracts/3_Ballot.sol\":5165:5189  proposals[random_vote()] */\n      dup2\n      sload\n      dup2\n      lt\n      tag_92\n      jumpi\n      tag_93\n      tag_58\n      jump\t// in\n    tag_93:\n    tag_92:\n      swap1\n      0x00\n      mstore\n      keccak256(0x00, 0x20)\n      swap1\n      0x0c\n      mul\n      add\n        /* \"smartContract/contracts/3_Ballot.sol\":5165:5205  proposals[random_vote()].Votes_District4 */\n      0x06\n      add\n      0x00\n        /* \"smartContract/contracts/3_Ballot.sol\":5165:5222  proposals[random_vote()].Votes_District4 += sender.weight */\n      dup3\n      dup3\n      sload\n      tag_95\n      swap2\n      swap1\n      tag_61\n      jump\t// in\n    tag_95:\n      swap3\n      pop\n      pop\n      dup2\n      swap1\n      sstore\n      pop\n        /* \"smartContract/contracts/3_Ballot.sol\":5141:5686  if (sender.district==4){proposals[random_vote()].Votes_District4 += sender.weight;}... */\n      jump(tag_96)\n    tag_90:\n        /* \"smartContract/contracts/3_Ballot.sol\":5259:5260  5 */\n      0x05\n        /* \"smartContract/contracts/3_Ballot.sol\":5242:5248  sender */\n      dup2\n        /* \"smartContract/contracts/3_Ballot.sol\":5242:5257  sender.district */\n      0x02\n      add\n      sload\n        /* \"smartContract/contracts/3_Ballot.sol\":5242:5260  sender.district==5 */\n      eq\n        /* \"smartContract/contracts/3_Ballot.sol\":5238:5686  if (sender.district==5){proposals[random_vote()].Votes_District5 += sender.weight;}... */\n      iszero\n      tag_97\n      jumpi\n        /* \"smartContract/contracts/3_Ballot.sol\":5306:5312  sender */\n      dup1\n        /* \"smartContract/contracts/3_Ballot.sol\":5306:5319  sender.weight */\n      0x00\n      add\n      sload\n        /* \"smartContract/contracts/3_Ballot.sol\":5262:5271  proposals */\n      0x02\n        /* \"smartContract/contracts/3_Ballot.sol\":5272:5285  random_vote() */\n      tag_98\n        /* \"smartContract/contracts/3_Ballot.sol\":5272:5283  random_vote */\n      tag_26\n        /* \"smartContract/contracts/3_Ballot.sol\":5272:5285  random_vote() */\n      jump\t// in\n    tag_98:\n        /* \"smartContract/contracts/3_Ballot.sol\":5262:5286  proposals[random_vote()] */\n      dup2\n      sload\n      dup2\n      lt\n      tag_99\n      jumpi\n      tag_100\n      tag_58\n      jump\t// in\n    tag_100:\n    tag_99:\n      swap1\n      0x00\n      mstore\n      keccak256(0x00, 0x20)\n      swap1\n      0x0c\n      mul\n      add\n        /* \"smartContract/contracts/3_Ballot.sol\":5262:5302  proposals[random_vote()].Votes_District5 */\n      0x07\n      add\n      0x00\n        /* \"smartContract/contracts/3_Ballot.sol\":5262:5319  proposals[random_vote()].Votes_District5 += sender.weight */\n      dup3\n      dup3\n      sload\n      tag_102\n      swap2\n      swap1\n      tag_61\n      jump\t// in\n    tag_102:\n      swap3\n      pop\n      pop\n      dup2\n      swap1\n      sstore\n      pop\n        /* \"smartContract/contracts/3_Ballot.sol\":5238:5686  if (sender.district==5){proposals[random_vote()].Votes_District5 += sender.weight;}... */\n      jump(tag_103)\n    tag_97:\n        /* \"smartContract/contracts/3_Ballot.sol\":5356:5357  6 */\n      0x06\n        /* \"smartContract/contracts/3_Ballot.sol\":5339:5345  sender */\n      dup2\n        /* \"smartContract/contracts/3_Ballot.sol\":5339:5354  sender.district */\n      0x02\n      add\n      sload\n        /* \"smartContract/contracts/3_Ballot.sol\":5339:5357  sender.district==6 */\n      eq\n        /* \"smartContract/contracts/3_Ballot.sol\":5335:5686  if (sender.district==6){proposals[random_vote()].Votes_District6 += sender.weight;}... */\n      iszero\n      tag_104\n      jumpi\n        /* \"smartContract/contracts/3_Ballot.sol\":5403:5409  sender */\n      dup1\n        /* \"smartContract/contracts/3_Ballot.sol\":5403:5416  sender.weight */\n      0x00\n      add\n      sload\n        /* \"smartContract/contracts/3_Ballot.sol\":5359:5368  proposals */\n      0x02\n        /* \"smartContract/contracts/3_Ballot.sol\":5369:5382  random_vote() */\n      tag_105\n        /* \"smartContract/contracts/3_Ballot.sol\":5369:5380  random_vote */\n      tag_26\n        /* \"smartContract/contracts/3_Ballot.sol\":5369:5382  random_vote() */\n      jump\t// in\n    tag_105:\n        /* \"smartContract/contracts/3_Ballot.sol\":5359:5383  proposals[random_vote()] */\n      dup2\n      sload\n      dup2\n      lt\n      tag_106\n      jumpi\n      tag_107\n      tag_58\n      jump\t// in\n    tag_107:\n    tag_106:\n      swap1\n      0x00\n      mstore\n      keccak256(0x00, 0x20)\n      swap1\n      0x0c\n      mul\n      add\n        /* \"smartContract/contracts/3_Ballot.sol\":5359:5399  proposals[random_vote()].Votes_District6 */\n      0x08\n      add\n      0x00\n        /* \"smartContract/contracts/3_Ballot.sol\":5359:5416  proposals[random_vote()].Votes_District6 += sender.weight */\n      dup3\n      dup3\n      sload\n      tag_109\n      swap2\n      swap1\n      tag_61\n      jump\t// in\n    tag_109:\n      swap3\n      pop\n      pop\n      dup2\n      swap1\n      sstore\n      pop\n        /* \"smartContract/contracts/3_Ballot.sol\":5335:5686  if (sender.district==6){proposals[random_vote()].Votes_District6 += sender.weight;}... */\n      jump(tag_110)\n    tag_104:\n        /* \"smartContract/contracts/3_Ballot.sol\":5453:5454  7 */\n      0x07\n        /* \"smartContract/contracts/3_Ballot.sol\":5436:5442  sender */\n      dup2\n        /* \"smartContract/contracts/3_Ballot.sol\":5436:5451  sender.district */\n      0x02\n      add\n      sload\n        /* \"smartContract/contracts/3_Ballot.sol\":5436:5454  sender.district==7 */\n      eq\n        /* \"smartContract/contracts/3_Ballot.sol\":5432:5686  if (sender.district==7){proposals[random_vote()].Votes_District7 += sender.weight;}... */\n      iszero\n      tag_111\n      jumpi\n        /* \"smartContract/contracts/3_Ballot.sol\":5500:5506  sender */\n      dup1\n        /* \"smartContract/contracts/3_Ballot.sol\":5500:5513  sender.weight */\n      0x00\n      add\n      sload\n        /* \"smartContract/contracts/3_Ballot.sol\":5456:5465  proposals */\n      0x02\n        /* \"smartContract/contracts/3_Ballot.sol\":5466:5479  random_vote() */\n      tag_112\n        /* \"smartContract/contracts/3_Ballot.sol\":5466:5477  random_vote */\n      tag_26\n        /* \"smartContract/contracts/3_Ballot.sol\":5466:5479  random_vote() */\n      jump\t// in\n    tag_112:\n        /* \"smartContract/contracts/3_Ballot.sol\":5456:5480  proposals[random_vote()] */\n      dup2\n      sload\n      dup2\n      lt\n      tag_113\n      jumpi\n      tag_114\n      tag_58\n      jump\t// in\n    tag_114:\n    tag_113:\n      swap1\n      0x00\n      mstore\n      keccak256(0x00, 0x20)\n      swap1\n      0x0c\n      mul\n      add\n        /* \"smartContract/contracts/3_Ballot.sol\":5456:5496  proposals[random_vote()].Votes_District7 */\n      0x09\n      add\n      0x00\n        /* \"smartContract/contracts/3_Ballot.sol\":5456:5513  proposals[random_vote()].Votes_District7 += sender.weight */\n      dup3\n      dup3\n      sload\n      tag_116\n      swap2\n      swap1\n      tag_61\n      jump\t// in\n    tag_116:\n      swap3\n      pop\n      pop\n      dup2\n      swap1\n      sstore\n      pop\n        /* \"smartContract/contracts/3_Ballot.sol\":5432:5686  if (sender.district==7){proposals[random_vote()].Votes_District7 += sender.weight;}... */\n      jump(tag_117)\n    tag_111:\n        /* \"smartContract/contracts/3_Ballot.sol\":5550:5551  8 */\n      0x08\n        /* \"smartContract/contracts/3_Ballot.sol\":5533:5539  sender */\n      dup2\n        /* \"smartContract/contracts/3_Ballot.sol\":5533:5548  sender.district */\n      0x02\n      add\n      sload\n        /* \"smartContract/contracts/3_Ballot.sol\":5533:5551  sender.district==8 */\n      eq\n        /* \"smartContract/contracts/3_Ballot.sol\":5529:5686  if (sender.district==8){proposals[random_vote()].Votes_District8 += sender.weight;}... */\n      iszero\n      tag_118\n      jumpi\n        /* \"smartContract/contracts/3_Ballot.sol\":5597:5603  sender */\n      dup1\n        /* \"smartContract/contracts/3_Ballot.sol\":5597:5610  sender.weight */\n      0x00\n      add\n      sload\n        /* \"smartContract/contracts/3_Ballot.sol\":5553:5562  proposals */\n      0x02\n        /* \"smartContract/contracts/3_Ballot.sol\":5563:5576  random_vote() */\n      tag_119\n        /* \"smartContract/contracts/3_Ballot.sol\":5563:5574  random_vote */\n      tag_26\n        /* \"smartContract/contracts/3_Ballot.sol\":5563:5576  random_vote() */\n      jump\t// in\n    tag_119:\n        /* \"smartContract/contracts/3_Ballot.sol\":5553:5577  proposals[random_vote()] */\n      dup2\n      sload\n      dup2\n      lt\n      tag_120\n      jumpi\n      tag_121\n      tag_58\n      jump\t// in\n    tag_121:\n    tag_120:\n      swap1\n      0x00\n      mstore\n      keccak256(0x00, 0x20)\n      swap1\n      0x0c\n      mul\n      add\n        /* \"smartContract/contracts/3_Ballot.sol\":5553:5593  proposals[random_vote()].Votes_District8 */\n      0x0a\n      add\n      0x00\n        /* \"smartContract/contracts/3_Ballot.sol\":5553:5610  proposals[random_vote()].Votes_District8 += sender.weight */\n      dup3\n      dup3\n      sload\n      tag_123\n      swap2\n      swap1\n      tag_61\n      jump\t// in\n    tag_123:\n      swap3\n      pop\n      pop\n      dup2\n      swap1\n      sstore\n      pop\n        /* \"smartContract/contracts/3_Ballot.sol\":5529:5686  if (sender.district==8){proposals[random_vote()].Votes_District8 += sender.weight;}... */\n      jump(tag_124)\n    tag_118:\n        /* \"smartContract/contracts/3_Ballot.sol\":5671:5677  sender */\n      dup1\n        /* \"smartContract/contracts/3_Ballot.sol\":5671:5684  sender.weight */\n      0x00\n      add\n      sload\n        /* \"smartContract/contracts/3_Ballot.sol\":5627:5636  proposals */\n      0x02\n        /* \"smartContract/contracts/3_Ballot.sol\":5637:5650  random_vote() */\n      tag_125\n        /* \"smartContract/contracts/3_Ballot.sol\":5637:5648  random_vote */\n      tag_26\n        /* \"smartContract/contracts/3_Ballot.sol\":5637:5650  random_vote() */\n      jump\t// in\n    tag_125:\n        /* \"smartContract/contracts/3_Ballot.sol\":5627:5651  proposals[random_vote()] */\n      dup2\n      sload\n      dup2\n      lt\n      tag_126\n      jumpi\n      tag_127\n      tag_58\n      jump\t// in\n    tag_127:\n    tag_126:\n      swap1\n      0x00\n      mstore\n      keccak256(0x00, 0x20)\n      swap1\n      0x0c\n      mul\n      add\n        /* \"smartContract/contracts/3_Ballot.sol\":5627:5667  proposals[random_vote()].Votes_District9 */\n      0x0b\n      add\n      0x00\n        /* \"smartContract/contracts/3_Ballot.sol\":5627:5684  proposals[random_vote()].Votes_District9 += sender.weight */\n      dup3\n      dup3\n      sload\n      tag_129\n      swap2\n      swap1\n      tag_61\n      jump\t// in\n    tag_129:\n      swap3\n      pop\n      pop\n      dup2\n      swap1\n      sstore\n      pop\n        /* \"smartContract/contracts/3_Ballot.sol\":5529:5686  if (sender.district==8){proposals[random_vote()].Votes_District8 += sender.weight;}... */\n    tag_124:\n        /* \"smartContract/contracts/3_Ballot.sol\":5432:5686  if (sender.district==7){proposals[random_vote()].Votes_District7 += sender.weight;}... */\n    tag_117:\n        /* \"smartContract/contracts/3_Ballot.sol\":5335:5686  if (sender.district==6){proposals[random_vote()].Votes_District6 += sender.weight;}... */\n    tag_110:\n        /* \"smartContract/contracts/3_Ballot.sol\":5238:5686  if (sender.district==5){proposals[random_vote()].Votes_District5 += sender.weight;}... */\n    tag_103:\n        /* \"smartContract/contracts/3_Ballot.sol\":5141:5686  if (sender.district==4){proposals[random_vote()].Votes_District4 += sender.weight;}... */\n    tag_96:\n        /* \"smartContract/contracts/3_Ballot.sol\":5044:5686  if (sender.district==3){proposals[random_vote()].Votes_District3 += sender.weight;}... */\n    tag_89:\n        /* \"smartContract/contracts/3_Ballot.sol\":4947:5686  if (sender.district==2){proposals[random_vote()].Votes_District2 += sender.weight;}... */\n    tag_82:\n        /* \"smartContract/contracts/3_Ballot.sol\":4850:5686  if (sender.district==1){proposals[random_vote()].Votes_District1 += sender.weight;}... */\n    tag_75:\n        /* \"smartContract/contracts/3_Ballot.sol\":4753:5686  if (sender.district==0){proposals[random_vote()].Votes_District0 += sender.weight;}... */\n    tag_68:\n        /* \"smartContract/contracts/3_Ballot.sol\":5807:5826  incrementCounter2() */\n      tag_130\n        /* \"smartContract/contracts/3_Ballot.sol\":5807:5824  incrementCounter2 */\n      tag_131\n        /* \"smartContract/contracts/3_Ballot.sol\":5807:5826  incrementCounter2() */\n      jump\t// in\n    tag_130:\n        /* \"smartContract/contracts/3_Ballot.sol\":3694:5833  {... */\n      pop\n        /* \"smartContract/contracts/3_Ballot.sol\":3671:5833  function vote() public {... */\n      jump\t// out\n        /* \"smartContract/contracts/3_Ballot.sol\":1298:1372  function setInfo(string memory _info) public {... */\n    tag_18:\n        /* \"smartContract/contracts/3_Ballot.sol\":1360:1365  _info */\n      dup1\n        /* \"smartContract/contracts/3_Ballot.sol\":1353:1357  info */\n      0x03\n        /* \"smartContract/contracts/3_Ballot.sol\":1353:1365  info = _info */\n      swap1\n      dup1\n      mload\n      swap1\n      0x20\n      add\n      swap1\n      tag_133\n      swap3\n      swap2\n      swap1\n      tag_134\n      jump\t// in\n    tag_133:\n      pop\n        /* \"smartContract/contracts/3_Ballot.sol\":1298:1372  function setInfo(string memory _info) public {... */\n      pop\n      jump\t// out\n        /* \"smartContract/contracts/3_Ballot.sol\":896:935  mapping(address => Voter) public voters */\n    tag_22:\n      mstore(0x20, 0x01)\n      dup1\n      0x00\n      mstore\n      keccak256(0x00, 0x40)\n      0x00\n      swap2\n      pop\n      swap1\n      pop\n      dup1\n      0x00\n      add\n      sload\n      swap1\n      dup1\n      0x01\n      add\n      0x00\n      swap1\n      sload\n      swap1\n      0x0100\n      exp\n      swap1\n      div\n      0xff\n      and\n      swap1\n      dup1\n      0x02\n      add\n      sload\n      swap1\n      dup1\n      0x03\n      add\n      sload\n      swap1\n      pop\n      dup5\n      jump\t// out\n        /* \"smartContract/contracts/3_Ballot.sol\":3488:3665  function random_vote() public view returns(uint){... */\n    tag_26:\n        /* \"smartContract/contracts/3_Ballot.sol\":3531:3535  uint */\n      0x00\n        /* \"smartContract/contracts/3_Ballot.sol\":3653:3654  5 */\n      0x05\n        /* \"smartContract/contracts/3_Ballot.sol\":3589:3604  block.timestamp */\n      timestamp\n        /* \"smartContract/contracts/3_Ballot.sol\":3605:3621  block.difficulty */\n      difficulty\n        /* \"smartContract/contracts/3_Ballot.sol\":3637:3647  msg.sender */\n      caller\n        /* \"smartContract/contracts/3_Ballot.sol\":3572:3648  abi.encodePacked(block.timestamp,block.difficulty,  ... */\n      add(0x20, mload(0x40))\n      tag_136\n      swap4\n      swap3\n      swap2\n      swap1\n      tag_137\n      jump\t// in\n    tag_136:\n      mload(0x40)\n      0x20\n      dup2\n      dup4\n      sub\n      sub\n      dup2\n      mstore\n      swap1\n      0x40\n      mstore\n        /* \"smartContract/contracts/3_Ballot.sol\":3562:3649  keccak256(abi.encodePacked(block.timestamp,block.difficulty,  ... */\n      dup1\n      mload\n      swap1\n      0x20\n      add\n      keccak256\n        /* \"smartContract/contracts/3_Ballot.sol\":3557:3650  uint(keccak256(abi.encodePacked(block.timestamp,block.difficulty,  ... */\n      0x00\n      shr\n        /* \"smartContract/contracts/3_Ballot.sol\":3557:3654  uint(keccak256(abi.encodePacked(block.timestamp,block.difficulty,  ... */\n      tag_138\n      swap2\n      swap1\n      tag_139\n      jump\t// in\n    tag_138:\n        /* \"smartContract/contracts/3_Ballot.sol\":3550:3654  return uint(keccak256(abi.encodePacked(block.timestamp,block.difficulty,  ... */\n      swap1\n      pop\n        /* \"smartContract/contracts/3_Ballot.sol\":3488:3665  function random_vote() public view returns(uint){... */\n      swap1\n      jump\t// out\n        /* \"smartContract/contracts/3_Ballot.sol\":5839:5936  function res(uint _id) public view returns(Proposal memory){... */\n    tag_32:\n        /* \"smartContract/contracts/3_Ballot.sol\":5882:5897  Proposal memory */\n      tag_140\n      tag_141\n      jump\t// in\n    tag_140:\n        /* \"smartContract/contracts/3_Ballot.sol\":5915:5924  proposals */\n      0x02\n        /* \"smartContract/contracts/3_Ballot.sol\":5925:5928  _id */\n      dup3\n        /* \"smartContract/contracts/3_Ballot.sol\":5915:5929  proposals[_id] */\n      dup2\n      sload\n      dup2\n      lt\n      tag_143\n      jumpi\n      tag_144\n      tag_58\n      jump\t// in\n    tag_144:\n    tag_143:\n      swap1\n      0x00\n      mstore\n      keccak256(0x00, 0x20)\n      swap1\n      0x0c\n      mul\n      add\n        /* \"smartContract/contracts/3_Ballot.sol\":5908:5929  return proposals[_id] */\n      mload(0x40)\n      dup1\n      0x0180\n      add\n      0x40\n      mstore\n      swap1\n      dup2\n      0x00\n      dup3\n      add\n      dup1\n      sload\n      tag_146\n      swap1\n      tag_37\n      jump\t// in\n    tag_146:\n      dup1\n      0x1f\n      add\n      0x20\n      dup1\n      swap2\n      div\n      mul\n      0x20\n      add\n      mload(0x40)\n      swap1\n      dup2\n      add\n      0x40\n      mstore\n      dup1\n      swap3\n      swap2\n      swap1\n      dup2\n      dup2\n      mstore\n      0x20\n      add\n      dup3\n      dup1\n      sload\n      tag_147\n      swap1\n      tag_37\n      jump\t// in\n    tag_147:\n      dup1\n      iszero\n      tag_148\n      jumpi\n      dup1\n      0x1f\n      lt\n      tag_149\n      jumpi\n      0x0100\n      dup1\n      dup4\n      sload\n      div\n      mul\n      dup4\n      mstore\n      swap2\n      0x20\n      add\n      swap2\n      jump(tag_148)\n    tag_149:\n      dup3\n      add\n      swap2\n      swap1\n      0x00\n      mstore\n      keccak256(0x00, 0x20)\n      swap1\n    tag_150:\n      dup2\n      sload\n      dup2\n      mstore\n      swap1\n      0x01\n      add\n      swap1\n      0x20\n      add\n      dup1\n      dup4\n      gt\n      tag_150\n      jumpi\n      dup3\n      swap1\n      sub\n      0x1f\n      and\n      dup3\n      add\n      swap2\n    tag_148:\n      pop\n      pop\n      pop\n      pop\n      pop\n      dup2\n      mstore\n      0x20\n      add\n      0x01\n      dup3\n      add\n      sload\n      dup2\n      mstore\n      0x20\n      add\n      0x02\n      dup3\n      add\n      sload\n      dup2\n      mstore\n      0x20\n      add\n      0x03\n      dup3\n      add\n      sload\n      dup2\n      mstore\n      0x20\n      add\n      0x04\n      dup3\n      add\n      sload\n      dup2\n      mstore\n      0x20\n      add\n      0x05\n      dup3\n      add\n      sload\n      dup2\n      mstore\n      0x20\n      add\n      0x06\n      dup3\n      add\n      sload\n      dup2\n      mstore\n      0x20\n      add\n      0x07\n      dup3\n      add\n      sload\n      dup2\n      mstore\n      0x20\n      add\n      0x08\n      dup3\n      add\n      sload\n      dup2\n      mstore\n      0x20\n      add\n      0x09\n      dup3\n      add\n      sload\n      dup2\n      mstore\n      0x20\n      add\n      0x0a\n      dup3\n      add\n      sload\n      dup2\n      mstore\n      0x20\n      add\n      0x0b\n      dup3\n      add\n      sload\n      dup2\n      mstore\n      pop\n      pop\n      swap1\n      pop\n        /* \"smartContract/contracts/3_Ballot.sol\":5839:5936  function res(uint _id) public view returns(Proposal memory){... */\n      swap2\n      swap1\n      pop\n      jump\t// out\n        /* \"smartContract/contracts/3_Ballot.sol\":2787:2850  function incrementCounter() private {... */\n    tag_48:\n        /* \"smartContract/contracts/3_Ballot.sol\":2842:2843  1 */\n      0x01\n        /* \"smartContract/contracts/3_Ballot.sol\":2833:2838  count */\n      0x04\n      0x00\n        /* \"smartContract/contracts/3_Ballot.sol\":2833:2843  count += 1 */\n      dup3\n      dup3\n      sload\n      tag_152\n      swap2\n      swap1\n      tag_153\n      jump\t// in\n    tag_152:\n      swap3\n      pop\n      pop\n      dup2\n      swap1\n      sstore\n      pop\n        /* \"smartContract/contracts/3_Ballot.sol\":2787:2850  function incrementCounter() private {... */\n      jump\t// out\n        /* \"smartContract/contracts/3_Ballot.sol\":1096:1267  function random_district() private view returns(uint){... */\n    tag_50:\n        /* \"smartContract/contracts/3_Ballot.sol\":1144:1148  uint */\n      0x00\n        /* \"smartContract/contracts/3_Ballot.sol\":1258:1260  10 */\n      0x0a\n        /* \"smartContract/contracts/3_Ballot.sol\":1198:1213  block.timestamp */\n      timestamp\n        /* \"smartContract/contracts/3_Ballot.sol\":1214:1230  block.difficulty */\n      difficulty\n        /* \"smartContract/contracts/3_Ballot.sol\":1242:1252  msg.sender */\n      caller\n        /* \"smartContract/contracts/3_Ballot.sol\":1181:1253  abi.encodePacked(block.timestamp,block.difficulty,  ... */\n      add(0x20, mload(0x40))\n      tag_155\n      swap4\n      swap3\n      swap2\n      swap1\n      tag_137\n      jump\t// in\n    tag_155:\n      mload(0x40)\n      0x20\n      dup2\n      dup4\n      sub\n      sub\n      dup2\n      mstore\n      swap1\n      0x40\n      mstore\n        /* \"smartContract/contracts/3_Ballot.sol\":1171:1254  keccak256(abi.encodePacked(block.timestamp,block.difficulty,  ... */\n      dup1\n      mload\n      swap1\n      0x20\n      add\n      keccak256\n        /* \"smartContract/contracts/3_Ballot.sol\":1166:1255  uint(keccak256(abi.encodePacked(block.timestamp,block.difficulty,  ... */\n      0x00\n      shr\n        /* \"smartContract/contracts/3_Ballot.sol\":1166:1260  uint(keccak256(abi.encodePacked(block.timestamp,block.difficulty,  ... */\n      tag_156\n      swap2\n      swap1\n      tag_139\n      jump\t// in\n    tag_156:\n        /* \"smartContract/contracts/3_Ballot.sol\":1159:1260  return uint(keccak256(abi.encodePacked(block.timestamp,block.difficulty,  ... */\n      swap1\n      pop\n        /* \"smartContract/contracts/3_Ballot.sol\":1096:1267  function random_district() private view returns(uint){... */\n      swap1\n      jump\t// out\n        /* \"smartContract/contracts/3_Ballot.sol\":3417:3482  function incrementCounter2() private {... */\n    tag_131:\n        /* \"smartContract/contracts/3_Ballot.sol\":3474:3475  1 */\n      0x01\n        /* \"smartContract/contracts/3_Ballot.sol\":3464:3470  count2 */\n      0x05\n      0x00\n        /* \"smartContract/contracts/3_Ballot.sol\":3464:3475  count2 += 1 */\n      dup3\n      dup3\n      sload\n      tag_158\n      swap2\n      swap1\n      tag_153\n      jump\t// in\n    tag_158:\n      swap3\n      pop\n      pop\n      dup2\n      swap1\n      sstore\n      pop\n        /* \"smartContract/contracts/3_Ballot.sol\":3417:3482  function incrementCounter2() private {... */\n      jump\t// out\n    tag_134:\n      dup3\n      dup1\n      sload\n      tag_159\n      swap1\n      tag_37\n      jump\t// in\n    tag_159:\n      swap1\n      0x00\n      mstore\n      keccak256(0x00, 0x20)\n      swap1\n      0x1f\n      add\n      0x20\n      swap1\n      div\n      dup2\n      add\n      swap3\n      dup3\n      tag_161\n      jumpi\n      0x00\n      dup6\n      sstore\n      jump(tag_160)\n    tag_161:\n      dup3\n      0x1f\n      lt\n      tag_162\n      jumpi\n      dup1\n      mload\n      not(0xff)\n      and\n      dup4\n      dup1\n      add\n      or\n      dup6\n      sstore\n      jump(tag_160)\n    tag_162:\n      dup3\n      dup1\n      add\n      0x01\n      add\n      dup6\n      sstore\n      dup3\n      iszero\n      tag_160\n      jumpi\n      swap2\n      dup3\n      add\n    tag_163:\n      dup3\n      dup2\n      gt\n      iszero\n      tag_164\n      jumpi\n      dup3\n      mload\n      dup3\n      sstore\n      swap2\n      0x20\n      add\n      swap2\n      swap1\n      0x01\n      add\n      swap1\n      jump(tag_163)\n    tag_164:\n    tag_160:\n      pop\n      swap1\n      pop\n      tag_165\n      swap2\n      swap1\n      tag_166\n      jump\t// in\n    tag_165:\n      pop\n      swap1\n      jump\t// out\n    tag_141:\n      mload(0x40)\n      dup1\n      0x0180\n      add\n      0x40\n      mstore\n      dup1\n      0x60\n      dup2\n      mstore\n      0x20\n      add\n      0x00\n      dup2\n      mstore\n      0x20\n      add\n      0x00\n      dup2\n      mstore\n      0x20\n      add\n      0x00\n      dup2\n      mstore\n      0x20\n      add\n      0x00\n      dup2\n      mstore\n      0x20\n      add\n      0x00\n      dup2\n      mstore\n      0x20\n      add\n      0x00\n      dup2\n      mstore\n      0x20\n      add\n      0x00\n      dup2\n      mstore\n      0x20\n      add\n      0x00\n      dup2\n      mstore\n      0x20\n      add\n      0x00\n      dup2\n      mstore\n      0x20\n      add\n      0x00\n      dup2\n      mstore\n      0x20\n      add\n      0x00\n      dup2\n      mstore\n      pop\n      swap1\n      jump\t// out\n    tag_166:\n    tag_167:\n      dup1\n      dup3\n      gt\n      iszero\n      tag_168\n      jumpi\n      0x00\n      dup2\n      0x00\n      swap1\n      sstore\n      pop\n      0x01\n      add\n      jump(tag_167)\n    tag_168:\n      pop\n      swap1\n      jump\t// out\n        /* \"#utility.yul\":7:419   */\n    tag_170:\n        /* \"#utility.yul\":85:90   */\n      0x00\n        /* \"#utility.yul\":110:176   */\n      tag_172\n        /* \"#utility.yul\":126:175   */\n      tag_173\n        /* \"#utility.yul\":168:174   */\n      dup5\n        /* \"#utility.yul\":126:175   */\n      tag_174\n      jump\t// in\n    tag_173:\n        /* \"#utility.yul\":110:176   */\n      tag_175\n      jump\t// in\n    tag_172:\n        /* \"#utility.yul\":101:176   */\n      swap1\n      pop\n        /* \"#utility.yul\":199:205   */\n      dup3\n        /* \"#utility.yul\":192:197   */\n      dup2\n        /* \"#utility.yul\":185:206   */\n      mstore\n        /* \"#utility.yul\":237:241   */\n      0x20\n        /* \"#utility.yul\":230:235   */\n      dup2\n        /* \"#utility.yul\":226:242   */\n      add\n        /* \"#utility.yul\":275:278   */\n      dup5\n        /* \"#utility.yul\":266:272   */\n      dup5\n        /* \"#utility.yul\":261:264   */\n      dup5\n        /* \"#utility.yul\":257:273   */\n      add\n        /* \"#utility.yul\":254:279   */\n      gt\n        /* \"#utility.yul\":251:363   */\n      iszero\n      tag_176\n      jumpi\n        /* \"#utility.yul\":282:361   */\n      tag_177\n      tag_178\n      jump\t// in\n    tag_177:\n        /* \"#utility.yul\":251:363   */\n    tag_176:\n        /* \"#utility.yul\":372:413   */\n      tag_179\n        /* \"#utility.yul\":406:412   */\n      dup5\n        /* \"#utility.yul\":401:404   */\n      dup3\n        /* \"#utility.yul\":396:399   */\n      dup6\n        /* \"#utility.yul\":372:413   */\n      tag_180\n      jump\t// in\n    tag_179:\n        /* \"#utility.yul\":91:419   */\n      pop\n        /* \"#utility.yul\":7:419   */\n      swap4\n      swap3\n      pop\n      pop\n      pop\n      jump\t// out\n        /* \"#utility.yul\":425:564   */\n    tag_181:\n        /* \"#utility.yul\":471:476   */\n      0x00\n        /* \"#utility.yul\":509:515   */\n      dup2\n        /* \"#utility.yul\":496:516   */\n      calldataload\n        /* \"#utility.yul\":487:516   */\n      swap1\n      pop\n        /* \"#utility.yul\":525:558   */\n      tag_183\n        /* \"#utility.yul\":552:557   */\n      dup2\n        /* \"#utility.yul\":525:558   */\n      tag_184\n      jump\t// in\n    tag_183:\n        /* \"#utility.yul\":425:564   */\n      swap3\n      swap2\n      pop\n      pop\n      jump\t// out\n        /* \"#utility.yul\":584:924   */\n    tag_185:\n        /* \"#utility.yul\":640:645   */\n      0x00\n        /* \"#utility.yul\":689:692   */\n      dup3\n        /* \"#utility.yul\":682:686   */\n      0x1f\n        /* \"#utility.yul\":674:680   */\n      dup4\n        /* \"#utility.yul\":670:687   */\n      add\n        /* \"#utility.yul\":666:693   */\n      slt\n        /* \"#utility.yul\":656:778   */\n      tag_187\n      jumpi\n        /* \"#utility.yul\":697:776   */\n      tag_188\n      tag_189\n      jump\t// in\n    tag_188:\n        /* \"#utility.yul\":656:778   */\n    tag_187:\n        /* \"#utility.yul\":814:820   */\n      dup2\n        /* \"#utility.yul\":801:821   */\n      calldataload\n        /* \"#utility.yul\":839:918   */\n      tag_190\n        /* \"#utility.yul\":914:917   */\n      dup5\n        /* \"#utility.yul\":906:912   */\n      dup3\n        /* \"#utility.yul\":899:903   */\n      0x20\n        /* \"#utility.yul\":891:897   */\n      dup7\n        /* \"#utility.yul\":887:904   */\n      add\n        /* \"#utility.yul\":839:918   */\n      tag_170\n      jump\t// in\n    tag_190:\n        /* \"#utility.yul\":830:918   */\n      swap2\n      pop\n        /* \"#utility.yul\":646:924   */\n      pop\n        /* \"#utility.yul\":584:924   */\n      swap3\n      swap2\n      pop\n      pop\n      jump\t// out\n        /* \"#utility.yul\":930:1069   */\n    tag_191:\n        /* \"#utility.yul\":976:981   */\n      0x00\n        /* \"#utility.yul\":1014:1020   */\n      dup2\n        /* \"#utility.yul\":1001:1021   */\n      calldataload\n        /* \"#utility.yul\":992:1021   */\n      swap1\n      pop\n        /* \"#utility.yul\":1030:1063   */\n      tag_193\n        /* \"#utility.yul\":1057:1062   */\n      dup2\n        /* \"#utility.yul\":1030:1063   */\n      tag_194\n      jump\t// in\n    tag_193:\n        /* \"#utility.yul\":930:1069   */\n      swap3\n      swap2\n      pop\n      pop\n      jump\t// out\n        /* \"#utility.yul\":1075:1404   */\n    tag_21:\n        /* \"#utility.yul\":1134:1140   */\n      0x00\n        /* \"#utility.yul\":1183:1185   */\n      0x20\n        /* \"#utility.yul\":1171:1180   */\n      dup3\n        /* \"#utility.yul\":1162:1169   */\n      dup5\n        /* \"#utility.yul\":1158:1181   */\n      sub\n        /* \"#utility.yul\":1154:1186   */\n      slt\n        /* \"#utility.yul\":1151:1270   */\n      iszero\n      tag_196\n      jumpi\n        /* \"#utility.yul\":1189:1268   */\n      tag_197\n      tag_198\n      jump\t// in\n    tag_197:\n        /* \"#utility.yul\":1151:1270   */\n    tag_196:\n        /* \"#utility.yul\":1309:1310   */\n      0x00\n        /* \"#utility.yul\":1334:1387   */\n      tag_199\n        /* \"#utility.yul\":1379:1386   */\n      dup5\n        /* \"#utility.yul\":1370:1376   */\n      dup3\n        /* \"#utility.yul\":1359:1368   */\n      dup6\n        /* \"#utility.yul\":1355:1377   */\n      add\n        /* \"#utility.yul\":1334:1387   */\n      tag_181\n      jump\t// in\n    tag_199:\n        /* \"#utility.yul\":1324:1387   */\n      swap2\n      pop\n        /* \"#utility.yul\":1280:1397   */\n      pop\n        /* \"#utility.yul\":1075:1404   */\n      swap3\n      swap2\n      pop\n      pop\n      jump\t// out\n        /* \"#utility.yul\":1410:1919   */\n    tag_17:\n        /* \"#utility.yul\":1479:1485   */\n      0x00\n        /* \"#utility.yul\":1528:1530   */\n      0x20\n        /* \"#utility.yul\":1516:1525   */\n      dup3\n        /* \"#utility.yul\":1507:1514   */\n      dup5\n        /* \"#utility.yul\":1503:1526   */\n      sub\n        /* \"#utility.yul\":1499:1531   */\n      slt\n        /* \"#utility.yul\":1496:1615   */\n      iszero\n      tag_201\n      jumpi\n        /* \"#utility.yul\":1534:1613   */\n      tag_202\n      tag_198\n      jump\t// in\n    tag_202:\n        /* \"#utility.yul\":1496:1615   */\n    tag_201:\n        /* \"#utility.yul\":1682:1683   */\n      0x00\n        /* \"#utility.yul\":1671:1680   */\n      dup3\n        /* \"#utility.yul\":1667:1684   */\n      add\n        /* \"#utility.yul\":1654:1685   */\n      calldataload\n        /* \"#utility.yul\":1712:1730   */\n      0xffffffffffffffff\n        /* \"#utility.yul\":1704:1710   */\n      dup2\n        /* \"#utility.yul\":1701:1731   */\n      gt\n        /* \"#utility.yul\":1698:1815   */\n      iszero\n      tag_203\n      jumpi\n        /* \"#utility.yul\":1734:1813   */\n      tag_204\n      tag_205\n      jump\t// in\n    tag_204:\n        /* \"#utility.yul\":1698:1815   */\n    tag_203:\n        /* \"#utility.yul\":1839:1902   */\n      tag_206\n        /* \"#utility.yul\":1894:1901   */\n      dup5\n        /* \"#utility.yul\":1885:1891   */\n      dup3\n        /* \"#utility.yul\":1874:1883   */\n      dup6\n        /* \"#utility.yul\":1870:1892   */\n      add\n        /* \"#utility.yul\":1839:1902   */\n      tag_185\n      jump\t// in\n    tag_206:\n        /* \"#utility.yul\":1829:1902   */\n      swap2\n      pop\n        /* \"#utility.yul\":1625:1912   */\n      pop\n        /* \"#utility.yul\":1410:1919   */\n      swap3\n      swap2\n      pop\n      pop\n      jump\t// out\n        /* \"#utility.yul\":1925:2254   */\n    tag_31:\n        /* \"#utility.yul\":1984:1990   */\n      0x00\n        /* \"#utility.yul\":2033:2035   */\n      0x20\n        /* \"#utility.yul\":2021:2030   */\n      dup3\n        /* \"#utility.yul\":2012:2019   */\n      dup5\n        /* \"#utility.yul\":2008:2031   */\n      sub\n        /* \"#utility.yul\":2004:2036   */\n      slt\n        /* \"#utility.yul\":2001:2120   */\n      iszero\n      tag_208\n      jumpi\n        /* \"#utility.yul\":2039:2118   */\n      tag_209\n      tag_198\n      jump\t// in\n    tag_209:\n        /* \"#utility.yul\":2001:2120   */\n    tag_208:\n        /* \"#utility.yul\":2159:2160   */\n      0x00\n        /* \"#utility.yul\":2184:2237   */\n      tag_210\n        /* \"#utility.yul\":2229:2236   */\n      dup5\n        /* \"#utility.yul\":2220:2226   */\n      dup3\n        /* \"#utility.yul\":2209:2218   */\n      dup6\n        /* \"#utility.yul\":2205:2227   */\n      add\n        /* \"#utility.yul\":2184:2237   */\n      tag_191\n      jump\t// in\n    tag_210:\n        /* \"#utility.yul\":2174:2237   */\n      swap2\n      pop\n        /* \"#utility.yul\":2130:2247   */\n      pop\n        /* \"#utility.yul\":1925:2254   */\n      swap3\n      swap2\n      pop\n      pop\n      jump\t// out\n        /* \"#utility.yul\":2260:2417   */\n    tag_211:\n        /* \"#utility.yul\":2365:2410   */\n      tag_213\n        /* \"#utility.yul\":2385:2409   */\n      tag_214\n        /* \"#utility.yul\":2403:2408   */\n      dup3\n        /* \"#utility.yul\":2385:2409   */\n      tag_215\n      jump\t// in\n    tag_214:\n        /* \"#utility.yul\":2365:2410   */\n      tag_216\n      jump\t// in\n    tag_213:\n        /* \"#utility.yul\":2360:2363   */\n      dup3\n        /* \"#utility.yul\":2353:2411   */\n      mstore\n        /* \"#utility.yul\":2260:2417   */\n      pop\n      pop\n      jump\t// out\n        /* \"#utility.yul\":2423:2532   */\n    tag_217:\n        /* \"#utility.yul\":2504:2525   */\n      tag_219\n        /* \"#utility.yul\":2519:2524   */\n      dup2\n        /* \"#utility.yul\":2504:2525   */\n      tag_220\n      jump\t// in\n    tag_219:\n        /* \"#utility.yul\":2499:2502   */\n      dup3\n        /* \"#utility.yul\":2492:2526   */\n      mstore\n        /* \"#utility.yul\":2423:2532   */\n      pop\n      pop\n      jump\t// out\n        /* \"#utility.yul\":2538:2882   */\n    tag_221:\n        /* \"#utility.yul\":2616:2619   */\n      0x00\n        /* \"#utility.yul\":2644:2683   */\n      tag_223\n        /* \"#utility.yul\":2677:2682   */\n      dup3\n        /* \"#utility.yul\":2644:2683   */\n      tag_224\n      jump\t// in\n    tag_223:\n        /* \"#utility.yul\":2699:2760   */\n      tag_225\n        /* \"#utility.yul\":2753:2759   */\n      dup2\n        /* \"#utility.yul\":2748:2751   */\n      dup6\n        /* \"#utility.yul\":2699:2760   */\n      tag_226\n      jump\t// in\n    tag_225:\n        /* \"#utility.yul\":2692:2760   */\n      swap4\n      pop\n        /* \"#utility.yul\":2769:2821   */\n      tag_227\n        /* \"#utility.yul\":2814:2820   */\n      dup2\n        /* \"#utility.yul\":2809:2812   */\n      dup6\n        /* \"#utility.yul\":2802:2806   */\n      0x20\n        /* \"#utility.yul\":2795:2800   */\n      dup7\n        /* \"#utility.yul\":2791:2807   */\n      add\n        /* \"#utility.yul\":2769:2821   */\n      tag_228\n      jump\t// in\n    tag_227:\n        /* \"#utility.yul\":2846:2875   */\n      tag_229\n        /* \"#utility.yul\":2868:2874   */\n      dup2\n        /* \"#utility.yul\":2846:2875   */\n      tag_230\n      jump\t// in\n    tag_229:\n        /* \"#utility.yul\":2841:2844   */\n      dup5\n        /* \"#utility.yul\":2837:2876   */\n      add\n        /* \"#utility.yul\":2830:2876   */\n      swap2\n      pop\n        /* \"#utility.yul\":2620:2882   */\n      pop\n        /* \"#utility.yul\":2538:2882   */\n      swap3\n      swap2\n      pop\n      pop\n      jump\t// out\n        /* \"#utility.yul\":2888:3252   */\n    tag_231:\n        /* \"#utility.yul\":2976:2979   */\n      0x00\n        /* \"#utility.yul\":3004:3043   */\n      tag_233\n        /* \"#utility.yul\":3037:3042   */\n      dup3\n        /* \"#utility.yul\":3004:3043   */\n      tag_224\n      jump\t// in\n    tag_233:\n        /* \"#utility.yul\":3059:3130   */\n      tag_234\n        /* \"#utility.yul\":3123:3129   */\n      dup2\n        /* \"#utility.yul\":3118:3121   */\n      dup6\n        /* \"#utility.yul\":3059:3130   */\n      tag_235\n      jump\t// in\n    tag_234:\n        /* \"#utility.yul\":3052:3130   */\n      swap4\n      pop\n        /* \"#utility.yul\":3139:3191   */\n      tag_236\n        /* \"#utility.yul\":3184:3190   */\n      dup2\n        /* \"#utility.yul\":3179:3182   */\n      dup6\n        /* \"#utility.yul\":3172:3176   */\n      0x20\n        /* \"#utility.yul\":3165:3170   */\n      dup7\n        /* \"#utility.yul\":3161:3177   */\n      add\n        /* \"#utility.yul\":3139:3191   */\n      tag_228\n      jump\t// in\n    tag_236:\n        /* \"#utility.yul\":3216:3245   */\n      tag_237\n        /* \"#utility.yul\":3238:3244   */\n      dup2\n        /* \"#utility.yul\":3216:3245   */\n      tag_230\n      jump\t// in\n    tag_237:\n        /* \"#utility.yul\":3211:3214   */\n      dup5\n        /* \"#utility.yul\":3207:3246   */\n      add\n        /* \"#utility.yul\":3200:3246   */\n      swap2\n      pop\n        /* \"#utility.yul\":2980:3252   */\n      pop\n        /* \"#utility.yul\":2888:3252   */\n      swap3\n      swap2\n      pop\n      pop\n      jump\t// out\n        /* \"#utility.yul\":3258:3624   */\n    tag_238:\n        /* \"#utility.yul\":3400:3403   */\n      0x00\n        /* \"#utility.yul\":3421:3488   */\n      tag_240\n        /* \"#utility.yul\":3485:3487   */\n      0x0e\n        /* \"#utility.yul\":3480:3483   */\n      dup4\n        /* \"#utility.yul\":3421:3488   */\n      tag_235\n      jump\t// in\n    tag_240:\n        /* \"#utility.yul\":3414:3488   */\n      swap2\n      pop\n        /* \"#utility.yul\":3497:3590   */\n      tag_241\n        /* \"#utility.yul\":3586:3589   */\n      dup3\n        /* \"#utility.yul\":3497:3590   */\n      tag_242\n      jump\t// in\n    tag_241:\n        /* \"#utility.yul\":3615:3617   */\n      0x20\n        /* \"#utility.yul\":3610:3613   */\n      dup3\n        /* \"#utility.yul\":3606:3618   */\n      add\n        /* \"#utility.yul\":3599:3618   */\n      swap1\n      pop\n        /* \"#utility.yul\":3258:3624   */\n      swap2\n      swap1\n      pop\n      jump\t// out\n        /* \"#utility.yul\":3630:3996   */\n    tag_243:\n        /* \"#utility.yul\":3772:3775   */\n      0x00\n        /* \"#utility.yul\":3793:3860   */\n      tag_245\n        /* \"#utility.yul\":3857:3859   */\n      0x18\n        /* \"#utility.yul\":3852:3855   */\n      dup4\n        /* \"#utility.yul\":3793:3860   */\n      tag_235\n      jump\t// in\n    tag_245:\n        /* \"#utility.yul\":3786:3860   */\n      swap2\n      pop\n        /* \"#utility.yul\":3869:3962   */\n      tag_246\n        /* \"#utility.yul\":3958:3961   */\n      dup3\n        /* \"#utility.yul\":3869:3962   */\n      tag_247\n      jump\t// in\n    tag_246:\n        /* \"#utility.yul\":3987:3989   */\n      0x20\n        /* \"#utility.yul\":3982:3985   */\n      dup3\n        /* \"#utility.yul\":3978:3990   */\n      add\n        /* \"#utility.yul\":3971:3990   */\n      swap1\n      pop\n        /* \"#utility.yul\":3630:3996   */\n      swap2\n      swap1\n      pop\n      jump\t// out\n        /* \"#utility.yul\":4058:6537   */\n    tag_248:\n        /* \"#utility.yul\":4175:4178   */\n      0x00\n        /* \"#utility.yul\":4211:4217   */\n      0x0180\n        /* \"#utility.yul\":4206:4209   */\n      dup4\n        /* \"#utility.yul\":4202:4218   */\n      add\n        /* \"#utility.yul\":4300:4304   */\n      0x00\n        /* \"#utility.yul\":4293:4298   */\n      dup4\n        /* \"#utility.yul\":4289:4305   */\n      add\n        /* \"#utility.yul\":4283:4306   */\n      mload\n        /* \"#utility.yul\":4353:4356   */\n      dup5\n        /* \"#utility.yul\":4347:4351   */\n      dup3\n        /* \"#utility.yul\":4343:4357   */\n      sub\n        /* \"#utility.yul\":4336:4340   */\n      0x00\n        /* \"#utility.yul\":4331:4334   */\n      dup7\n        /* \"#utility.yul\":4327:4341   */\n      add\n        /* \"#utility.yul\":4320:4358   */\n      mstore\n        /* \"#utility.yul\":4379:4452   */\n      tag_250\n        /* \"#utility.yul\":4447:4451   */\n      dup3\n        /* \"#utility.yul\":4433:4445   */\n      dup3\n        /* \"#utility.yul\":4379:4452   */\n      tag_221\n      jump\t// in\n    tag_250:\n        /* \"#utility.yul\":4371:4452   */\n      swap2\n      pop\n        /* \"#utility.yul\":4228:4463   */\n      pop\n        /* \"#utility.yul\":4552:4556   */\n      0x20\n        /* \"#utility.yul\":4545:4550   */\n      dup4\n        /* \"#utility.yul\":4541:4557   */\n      add\n        /* \"#utility.yul\":4535:4558   */\n      mload\n        /* \"#utility.yul\":4571:4634   */\n      tag_251\n        /* \"#utility.yul\":4628:4632   */\n      0x20\n        /* \"#utility.yul\":4623:4626   */\n      dup7\n        /* \"#utility.yul\":4619:4633   */\n      add\n        /* \"#utility.yul\":4605:4617   */\n      dup3\n        /* \"#utility.yul\":4571:4634   */\n      tag_252\n      jump\t// in\n    tag_251:\n        /* \"#utility.yul\":4473:4644   */\n      pop\n        /* \"#utility.yul\":4737:4741   */\n      0x40\n        /* \"#utility.yul\":4730:4735   */\n      dup4\n        /* \"#utility.yul\":4726:4742   */\n      add\n        /* \"#utility.yul\":4720:4743   */\n      mload\n        /* \"#utility.yul\":4756:4819   */\n      tag_253\n        /* \"#utility.yul\":4813:4817   */\n      0x40\n        /* \"#utility.yul\":4808:4811   */\n      dup7\n        /* \"#utility.yul\":4804:4818   */\n      add\n        /* \"#utility.yul\":4790:4802   */\n      dup3\n        /* \"#utility.yul\":4756:4819   */\n      tag_252\n      jump\t// in\n    tag_253:\n        /* \"#utility.yul\":4654:4829   */\n      pop\n        /* \"#utility.yul\":4922:4926   */\n      0x60\n        /* \"#utility.yul\":4915:4920   */\n      dup4\n        /* \"#utility.yul\":4911:4927   */\n      add\n        /* \"#utility.yul\":4905:4928   */\n      mload\n        /* \"#utility.yul\":4941:5004   */\n      tag_254\n        /* \"#utility.yul\":4998:5002   */\n      0x60\n        /* \"#utility.yul\":4993:4996   */\n      dup7\n        /* \"#utility.yul\":4989:5003   */\n      add\n        /* \"#utility.yul\":4975:4987   */\n      dup3\n        /* \"#utility.yul\":4941:5004   */\n      tag_252\n      jump\t// in\n    tag_254:\n        /* \"#utility.yul\":4839:5014   */\n      pop\n        /* \"#utility.yul\":5107:5111   */\n      0x80\n        /* \"#utility.yul\":5100:5105   */\n      dup4\n        /* \"#utility.yul\":5096:5112   */\n      add\n        /* \"#utility.yul\":5090:5113   */\n      mload\n        /* \"#utility.yul\":5126:5189   */\n      tag_255\n        /* \"#utility.yul\":5183:5187   */\n      0x80\n        /* \"#utility.yul\":5178:5181   */\n      dup7\n        /* \"#utility.yul\":5174:5188   */\n      add\n        /* \"#utility.yul\":5160:5172   */\n      dup3\n        /* \"#utility.yul\":5126:5189   */\n      tag_252\n      jump\t// in\n    tag_255:\n        /* \"#utility.yul\":5024:5199   */\n      pop\n        /* \"#utility.yul\":5292:5296   */\n      0xa0\n        /* \"#utility.yul\":5285:5290   */\n      dup4\n        /* \"#utility.yul\":5281:5297   */\n      add\n        /* \"#utility.yul\":5275:5298   */\n      mload\n        /* \"#utility.yul\":5311:5374   */\n      tag_256\n        /* \"#utility.yul\":5368:5372   */\n      0xa0\n        /* \"#utility.yul\":5363:5366   */\n      dup7\n        /* \"#utility.yul\":5359:5373   */\n      add\n        /* \"#utility.yul\":5345:5357   */\n      dup3\n        /* \"#utility.yul\":5311:5374   */\n      tag_252\n      jump\t// in\n    tag_256:\n        /* \"#utility.yul\":5209:5384   */\n      pop\n        /* \"#utility.yul\":5477:5481   */\n      0xc0\n        /* \"#utility.yul\":5470:5475   */\n      dup4\n        /* \"#utility.yul\":5466:5482   */\n      add\n        /* \"#utility.yul\":5460:5483   */\n      mload\n        /* \"#utility.yul\":5496:5559   */\n      tag_257\n        /* \"#utility.yul\":5553:5557   */\n      0xc0\n        /* \"#utility.yul\":5548:5551   */\n      dup7\n        /* \"#utility.yul\":5544:5558   */\n      add\n        /* \"#utility.yul\":5530:5542   */\n      dup3\n        /* \"#utility.yul\":5496:5559   */\n      tag_252\n      jump\t// in\n    tag_257:\n        /* \"#utility.yul\":5394:5569   */\n      pop\n        /* \"#utility.yul\":5662:5666   */\n      0xe0\n        /* \"#utility.yul\":5655:5660   */\n      dup4\n        /* \"#utility.yul\":5651:5667   */\n      add\n        /* \"#utility.yul\":5645:5668   */\n      mload\n        /* \"#utility.yul\":5681:5744   */\n      tag_258\n        /* \"#utility.yul\":5738:5742   */\n      0xe0\n        /* \"#utility.yul\":5733:5736   */\n      dup7\n        /* \"#utility.yul\":5729:5743   */\n      add\n        /* \"#utility.yul\":5715:5727   */\n      dup3\n        /* \"#utility.yul\":5681:5744   */\n      tag_252\n      jump\t// in\n    tag_258:\n        /* \"#utility.yul\":5579:5754   */\n      pop\n        /* \"#utility.yul\":5847:5853   */\n      0x0100\n        /* \"#utility.yul\":5840:5845   */\n      dup4\n        /* \"#utility.yul\":5836:5854   */\n      add\n        /* \"#utility.yul\":5830:5855   */\n      mload\n        /* \"#utility.yul\":5868:5933   */\n      tag_259\n        /* \"#utility.yul\":5925:5931   */\n      0x0100\n        /* \"#utility.yul\":5920:5923   */\n      dup7\n        /* \"#utility.yul\":5916:5932   */\n      add\n        /* \"#utility.yul\":5902:5914   */\n      dup3\n        /* \"#utility.yul\":5868:5933   */\n      tag_252\n      jump\t// in\n    tag_259:\n        /* \"#utility.yul\":5764:5943   */\n      pop\n        /* \"#utility.yul\":6036:6042   */\n      0x0120\n        /* \"#utility.yul\":6029:6034   */\n      dup4\n        /* \"#utility.yul\":6025:6043   */\n      add\n        /* \"#utility.yul\":6019:6044   */\n      mload\n        /* \"#utility.yul\":6057:6122   */\n      tag_260\n        /* \"#utility.yul\":6114:6120   */\n      0x0120\n        /* \"#utility.yul\":6109:6112   */\n      dup7\n        /* \"#utility.yul\":6105:6121   */\n      add\n        /* \"#utility.yul\":6091:6103   */\n      dup3\n        /* \"#utility.yul\":6057:6122   */\n      tag_252\n      jump\t// in\n    tag_260:\n        /* \"#utility.yul\":5953:6132   */\n      pop\n        /* \"#utility.yul\":6225:6231   */\n      0x0140\n        /* \"#utility.yul\":6218:6223   */\n      dup4\n        /* \"#utility.yul\":6214:6232   */\n      add\n        /* \"#utility.yul\":6208:6233   */\n      mload\n        /* \"#utility.yul\":6246:6311   */\n      tag_261\n        /* \"#utility.yul\":6303:6309   */\n      0x0140\n        /* \"#utility.yul\":6298:6301   */\n      dup7\n        /* \"#utility.yul\":6294:6310   */\n      add\n        /* \"#utility.yul\":6280:6292   */\n      dup3\n        /* \"#utility.yul\":6246:6311   */\n      tag_252\n      jump\t// in\n    tag_261:\n        /* \"#utility.yul\":6142:6321   */\n      pop\n        /* \"#utility.yul\":6414:6420   */\n      0x0160\n        /* \"#utility.yul\":6407:6412   */\n      dup4\n        /* \"#utility.yul\":6403:6421   */\n      add\n        /* \"#utility.yul\":6397:6422   */\n      mload\n        /* \"#utility.yul\":6435:6500   */\n      tag_262\n        /* \"#utility.yul\":6492:6498   */\n      0x0160\n        /* \"#utility.yul\":6487:6490   */\n      dup7\n        /* \"#utility.yul\":6483:6499   */\n      add\n        /* \"#utility.yul\":6469:6481   */\n      dup3\n        /* \"#utility.yul\":6435:6500   */\n      tag_252\n      jump\t// in\n    tag_262:\n        /* \"#utility.yul\":6331:6510   */\n      pop\n        /* \"#utility.yul\":6527:6531   */\n      dup1\n        /* \"#utility.yul\":6520:6531   */\n      swap2\n      pop\n        /* \"#utility.yul\":4180:6537   */\n      pop\n        /* \"#utility.yul\":4058:6537   */\n      swap3\n      swap2\n      pop\n      pop\n      jump\t// out\n        /* \"#utility.yul\":6543:6651   */\n    tag_252:\n        /* \"#utility.yul\":6620:6644   */\n      tag_264\n        /* \"#utility.yul\":6638:6643   */\n      dup2\n        /* \"#utility.yul\":6620:6644   */\n      tag_265\n      jump\t// in\n    tag_264:\n        /* \"#utility.yul\":6615:6618   */\n      dup3\n        /* \"#utility.yul\":6608:6645   */\n      mstore\n        /* \"#utility.yul\":6543:6651   */\n      pop\n      pop\n      jump\t// out\n        /* \"#utility.yul\":6657:6775   */\n    tag_266:\n        /* \"#utility.yul\":6744:6768   */\n      tag_268\n        /* \"#utility.yul\":6762:6767   */\n      dup2\n        /* \"#utility.yul\":6744:6768   */\n      tag_265\n      jump\t// in\n    tag_268:\n        /* \"#utility.yul\":6739:6742   */\n      dup3\n        /* \"#utility.yul\":6732:6769   */\n      mstore\n        /* \"#utility.yul\":6657:6775   */\n      pop\n      pop\n      jump\t// out\n        /* \"#utility.yul\":6781:6938   */\n    tag_269:\n        /* \"#utility.yul\":6886:6931   */\n      tag_271\n        /* \"#utility.yul\":6906:6930   */\n      tag_272\n        /* \"#utility.yul\":6924:6929   */\n      dup3\n        /* \"#utility.yul\":6906:6930   */\n      tag_265\n      jump\t// in\n    tag_272:\n        /* \"#utility.yul\":6886:6931   */\n      tag_273\n      jump\t// in\n    tag_271:\n        /* \"#utility.yul\":6881:6884   */\n      dup3\n        /* \"#utility.yul\":6874:6932   */\n      mstore\n        /* \"#utility.yul\":6781:6938   */\n      pop\n      pop\n      jump\t// out\n        /* \"#utility.yul\":6944:7482   */\n    tag_137:\n        /* \"#utility.yul\":7112:7115   */\n      0x00\n        /* \"#utility.yul\":7127:7202   */\n      tag_275\n        /* \"#utility.yul\":7198:7201   */\n      dup3\n        /* \"#utility.yul\":7189:7195   */\n      dup7\n        /* \"#utility.yul\":7127:7202   */\n      tag_269\n      jump\t// in\n    tag_275:\n        /* \"#utility.yul\":7227:7229   */\n      0x20\n        /* \"#utility.yul\":7222:7225   */\n      dup3\n        /* \"#utility.yul\":7218:7230   */\n      add\n        /* \"#utility.yul\":7211:7230   */\n      swap2\n      pop\n        /* \"#utility.yul\":7240:7315   */\n      tag_276\n        /* \"#utility.yul\":7311:7314   */\n      dup3\n        /* \"#utility.yul\":7302:7308   */\n      dup6\n        /* \"#utility.yul\":7240:7315   */\n      tag_269\n      jump\t// in\n    tag_276:\n        /* \"#utility.yul\":7340:7342   */\n      0x20\n        /* \"#utility.yul\":7335:7338   */\n      dup3\n        /* \"#utility.yul\":7331:7343   */\n      add\n        /* \"#utility.yul\":7324:7343   */\n      swap2\n      pop\n        /* \"#utility.yul\":7353:7428   */\n      tag_277\n        /* \"#utility.yul\":7424:7427   */\n      dup3\n        /* \"#utility.yul\":7415:7421   */\n      dup5\n        /* \"#utility.yul\":7353:7428   */\n      tag_211\n      jump\t// in\n    tag_277:\n        /* \"#utility.yul\":7453:7455   */\n      0x14\n        /* \"#utility.yul\":7448:7451   */\n      dup3\n        /* \"#utility.yul\":7444:7456   */\n      add\n        /* \"#utility.yul\":7437:7456   */\n      swap2\n      pop\n        /* \"#utility.yul\":7473:7476   */\n      dup2\n        /* \"#utility.yul\":7466:7476   */\n      swap1\n      pop\n        /* \"#utility.yul\":6944:7482   */\n      swap5\n      swap4\n      pop\n      pop\n      pop\n      pop\n      jump\t// out\n        /* \"#utility.yul\":7488:7801   */\n    tag_12:\n        /* \"#utility.yul\":7601:7605   */\n      0x00\n        /* \"#utility.yul\":7639:7641   */\n      0x20\n        /* \"#utility.yul\":7628:7637   */\n      dup3\n        /* \"#utility.yul\":7624:7642   */\n      add\n        /* \"#utility.yul\":7616:7642   */\n      swap1\n      pop\n        /* \"#utility.yul\":7688:7697   */\n      dup2\n        /* \"#utility.yul\":7682:7686   */\n      dup2\n        /* \"#utility.yul\":7678:7698   */\n      sub\n        /* \"#utility.yul\":7674:7675   */\n      0x00\n        /* \"#utility.yul\":7663:7672   */\n      dup4\n        /* \"#utility.yul\":7659:7676   */\n      add\n        /* \"#utility.yul\":7652:7699   */\n      mstore\n        /* \"#utility.yul\":7716:7794   */\n      tag_279\n        /* \"#utility.yul\":7789:7793   */\n      dup2\n        /* \"#utility.yul\":7780:7786   */\n      dup5\n        /* \"#utility.yul\":7716:7794   */\n      tag_231\n      jump\t// in\n    tag_279:\n        /* \"#utility.yul\":7708:7794   */\n      swap1\n      pop\n        /* \"#utility.yul\":7488:7801   */\n      swap3\n      swap2\n      pop\n      pop\n      jump\t// out\n        /* \"#utility.yul\":7807:8226   */\n    tag_53:\n        /* \"#utility.yul\":7973:7977   */\n      0x00\n        /* \"#utility.yul\":8011:8013   */\n      0x20\n        /* \"#utility.yul\":8000:8009   */\n      dup3\n        /* \"#utility.yul\":7996:8014   */\n      add\n        /* \"#utility.yul\":7988:8014   */\n      swap1\n      pop\n        /* \"#utility.yul\":8060:8069   */\n      dup2\n        /* \"#utility.yul\":8054:8058   */\n      dup2\n        /* \"#utility.yul\":8050:8070   */\n      sub\n        /* \"#utility.yul\":8046:8047   */\n      0x00\n        /* \"#utility.yul\":8035:8044   */\n      dup4\n        /* \"#utility.yul\":8031:8048   */\n      add\n        /* \"#utility.yul\":8024:8071   */\n      mstore\n        /* \"#utility.yul\":8088:8219   */\n      tag_281\n        /* \"#utility.yul\":8214:8218   */\n      dup2\n        /* \"#utility.yul\":8088:8219   */\n      tag_238\n      jump\t// in\n    tag_281:\n        /* \"#utility.yul\":8080:8219   */\n      swap1\n      pop\n        /* \"#utility.yul\":7807:8226   */\n      swap2\n      swap1\n      pop\n      jump\t// out\n        /* \"#utility.yul\":8232:8651   */\n    tag_45:\n        /* \"#utility.yul\":8398:8402   */\n      0x00\n        /* \"#utility.yul\":8436:8438   */\n      0x20\n        /* \"#utility.yul\":8425:8434   */\n      dup3\n        /* \"#utility.yul\":8421:8439   */\n      add\n        /* \"#utility.yul\":8413:8439   */\n      swap1\n      pop\n        /* \"#utility.yul\":8485:8494   */\n      dup2\n        /* \"#utility.yul\":8479:8483   */\n      dup2\n        /* \"#utility.yul\":8475:8495   */\n      sub\n        /* \"#utility.yul\":8471:8472   */\n      0x00\n        /* \"#utility.yul\":8460:8469   */\n      dup4\n        /* \"#utility.yul\":8456:8473   */\n      add\n        /* \"#utility.yul\":8449:8496   */\n      mstore\n        /* \"#utility.yul\":8513:8644   */\n      tag_283\n        /* \"#utility.yul\":8639:8643   */\n      dup2\n        /* \"#utility.yul\":8513:8644   */\n      tag_243\n      jump\t// in\n    tag_283:\n        /* \"#utility.yul\":8505:8644   */\n      swap1\n      pop\n        /* \"#utility.yul\":8232:8651   */\n      swap2\n      swap1\n      pop\n      jump\t// out\n        /* \"#utility.yul\":8657:9026   */\n    tag_34:\n        /* \"#utility.yul\":8798:8802   */\n      0x00\n        /* \"#utility.yul\":8836:8838   */\n      0x20\n        /* \"#utility.yul\":8825:8834   */\n      dup3\n        /* \"#utility.yul\":8821:8839   */\n      add\n        /* \"#utility.yul\":8813:8839   */\n      swap1\n      pop\n        /* \"#utility.yul\":8885:8894   */\n      dup2\n        /* \"#utility.yul\":8879:8883   */\n      dup2\n        /* \"#utility.yul\":8875:8895   */\n      sub\n        /* \"#utility.yul\":8871:8872   */\n      0x00\n        /* \"#utility.yul\":8860:8869   */\n      dup4\n        /* \"#utility.yul\":8856:8873   */\n      add\n        /* \"#utility.yul\":8849:8896   */\n      mstore\n        /* \"#utility.yul\":8913:9019   */\n      tag_285\n        /* \"#utility.yul\":9014:9018   */\n      dup2\n        /* \"#utility.yul\":9005:9011   */\n      dup5\n        /* \"#utility.yul\":8913:9019   */\n      tag_248\n      jump\t// in\n    tag_285:\n        /* \"#utility.yul\":8905:9019   */\n      swap1\n      pop\n        /* \"#utility.yul\":8657:9026   */\n      swap3\n      swap2\n      pop\n      pop\n      jump\t// out\n        /* \"#utility.yul\":9032:9254   */\n    tag_28:\n        /* \"#utility.yul\":9125:9129   */\n      0x00\n        /* \"#utility.yul\":9163:9165   */\n      0x20\n        /* \"#utility.yul\":9152:9161   */\n      dup3\n        /* \"#utility.yul\":9148:9166   */\n      add\n        /* \"#utility.yul\":9140:9166   */\n      swap1\n      pop\n        /* \"#utility.yul\":9176:9247   */\n      tag_287\n        /* \"#utility.yul\":9244:9245   */\n      0x00\n        /* \"#utility.yul\":9233:9242   */\n      dup4\n        /* \"#utility.yul\":9229:9246   */\n      add\n        /* \"#utility.yul\":9220:9226   */\n      dup5\n        /* \"#utility.yul\":9176:9247   */\n      tag_266\n      jump\t// in\n    tag_287:\n        /* \"#utility.yul\":9032:9254   */\n      swap3\n      swap2\n      pop\n      pop\n      jump\t// out\n        /* \"#utility.yul\":9260:9801   */\n    tag_24:\n        /* \"#utility.yul\":9431:9435   */\n      0x00\n        /* \"#utility.yul\":9469:9472   */\n      0x80\n        /* \"#utility.yul\":9458:9467   */\n      dup3\n        /* \"#utility.yul\":9454:9473   */\n      add\n        /* \"#utility.yul\":9446:9473   */\n      swap1\n      pop\n        /* \"#utility.yul\":9483:9554   */\n      tag_289\n        /* \"#utility.yul\":9551:9552   */\n      0x00\n        /* \"#utility.yul\":9540:9549   */\n      dup4\n        /* \"#utility.yul\":9536:9553   */\n      add\n        /* \"#utility.yul\":9527:9533   */\n      dup8\n        /* \"#utility.yul\":9483:9554   */\n      tag_266\n      jump\t// in\n    tag_289:\n        /* \"#utility.yul\":9564:9630   */\n      tag_290\n        /* \"#utility.yul\":9626:9628   */\n      0x20\n        /* \"#utility.yul\":9615:9624   */\n      dup4\n        /* \"#utility.yul\":9611:9629   */\n      add\n        /* \"#utility.yul\":9602:9608   */\n      dup7\n        /* \"#utility.yul\":9564:9630   */\n      tag_217\n      jump\t// in\n    tag_290:\n        /* \"#utility.yul\":9640:9712   */\n      tag_291\n        /* \"#utility.yul\":9708:9710   */\n      0x40\n        /* \"#utility.yul\":9697:9706   */\n      dup4\n        /* \"#utility.yul\":9693:9711   */\n      add\n        /* \"#utility.yul\":9684:9690   */\n      dup6\n        /* \"#utility.yul\":9640:9712   */\n      tag_266\n      jump\t// in\n    tag_291:\n        /* \"#utility.yul\":9722:9794   */\n      tag_292\n        /* \"#utility.yul\":9790:9792   */\n      0x60\n        /* \"#utility.yul\":9779:9788   */\n      dup4\n        /* \"#utility.yul\":9775:9793   */\n      add\n        /* \"#utility.yul\":9766:9772   */\n      dup5\n        /* \"#utility.yul\":9722:9794   */\n      tag_266\n      jump\t// in\n    tag_292:\n        /* \"#utility.yul\":9260:9801   */\n      swap6\n      swap5\n      pop\n      pop\n      pop\n      pop\n      pop\n      jump\t// out\n        /* \"#utility.yul\":9807:9936   */\n    tag_175:\n        /* \"#utility.yul\":9841:9847   */\n      0x00\n        /* \"#utility.yul\":9868:9888   */\n      tag_294\n      tag_295\n      jump\t// in\n    tag_294:\n        /* \"#utility.yul\":9858:9888   */\n      swap1\n      pop\n        /* \"#utility.yul\":9897:9930   */\n      tag_296\n        /* \"#utility.yul\":9925:9929   */\n      dup3\n        /* \"#utility.yul\":9917:9923   */\n      dup3\n        /* \"#utility.yul\":9897:9930   */\n      tag_297\n      jump\t// in\n    tag_296:\n        /* \"#utility.yul\":9807:9936   */\n      swap2\n      swap1\n      pop\n      jump\t// out\n        /* \"#utility.yul\":9942:10017   */\n    tag_295:\n        /* \"#utility.yul\":9975:9981   */\n      0x00\n        /* \"#utility.yul\":10008:10010   */\n      0x40\n        /* \"#utility.yul\":10002:10011   */\n      mload\n        /* \"#utility.yul\":9992:10011   */\n      swap1\n      pop\n        /* \"#utility.yul\":9942:10017   */\n      swap1\n      jump\t// out\n        /* \"#utility.yul\":10023:10331   */\n    tag_174:\n        /* \"#utility.yul\":10085:10089   */\n      0x00\n        /* \"#utility.yul\":10175:10193   */\n      0xffffffffffffffff\n        /* \"#utility.yul\":10167:10173   */\n      dup3\n        /* \"#utility.yul\":10164:10194   */\n      gt\n        /* \"#utility.yul\":10161:10217   */\n      iszero\n      tag_300\n      jumpi\n        /* \"#utility.yul\":10197:10215   */\n      tag_301\n      tag_302\n      jump\t// in\n    tag_301:\n        /* \"#utility.yul\":10161:10217   */\n    tag_300:\n        /* \"#utility.yul\":10235:10264   */\n      tag_303\n        /* \"#utility.yul\":10257:10263   */\n      dup3\n        /* \"#utility.yul\":10235:10264   */\n      tag_230\n      jump\t// in\n    tag_303:\n        /* \"#utility.yul\":10227:10264   */\n      swap1\n      pop\n        /* \"#utility.yul\":10319:10323   */\n      0x20\n        /* \"#utility.yul\":10313:10317   */\n      dup2\n        /* \"#utility.yul\":10309:10324   */\n      add\n        /* \"#utility.yul\":10301:10324   */\n      swap1\n      pop\n        /* \"#utility.yul\":10023:10331   */\n      swap2\n      swap1\n      pop\n      jump\t// out\n        /* \"#utility.yul\":10337:10436   */\n    tag_224:\n        /* \"#utility.yul\":10389:10395   */\n      0x00\n        /* \"#utility.yul\":10423:10428   */\n      dup2\n        /* \"#utility.yul\":10417:10429   */\n      mload\n        /* \"#utility.yul\":10407:10429   */\n      swap1\n      pop\n        /* \"#utility.yul\":10337:10436   */\n      swap2\n      swap1\n      pop\n      jump\t// out\n        /* \"#utility.yul\":10442:10601   */\n    tag_226:\n        /* \"#utility.yul\":10516:10527   */\n      0x00\n        /* \"#utility.yul\":10550:10556   */\n      dup3\n        /* \"#utility.yul\":10545:10548   */\n      dup3\n        /* \"#utility.yul\":10538:10557   */\n      mstore\n        /* \"#utility.yul\":10590:10594   */\n      0x20\n        /* \"#utility.yul\":10585:10588   */\n      dup3\n        /* \"#utility.yul\":10581:10595   */\n      add\n        /* \"#utility.yul\":10566:10595   */\n      swap1\n      pop\n        /* \"#utility.yul\":10442:10601   */\n      swap3\n      swap2\n      pop\n      pop\n      jump\t// out\n        /* \"#utility.yul\":10607:10776   */\n    tag_235:\n        /* \"#utility.yul\":10691:10702   */\n      0x00\n        /* \"#utility.yul\":10725:10731   */\n      dup3\n        /* \"#utility.yul\":10720:10723   */\n      dup3\n        /* \"#utility.yul\":10713:10732   */\n      mstore\n        /* \"#utility.yul\":10765:10769   */\n      0x20\n        /* \"#utility.yul\":10760:10763   */\n      dup3\n        /* \"#utility.yul\":10756:10770   */\n      add\n        /* \"#utility.yul\":10741:10770   */\n      swap1\n      pop\n        /* \"#utility.yul\":10607:10776   */\n      swap3\n      swap2\n      pop\n      pop\n      jump\t// out\n        /* \"#utility.yul\":10782:11307   */\n    tag_153:\n        /* \"#utility.yul\":10821:10824   */\n      0x00\n        /* \"#utility.yul\":10840:10859   */\n      tag_308\n        /* \"#utility.yul\":10857:10858   */\n      dup3\n        /* \"#utility.yul\":10840:10859   */\n      tag_309\n      jump\t// in\n    tag_308:\n        /* \"#utility.yul\":10835:10859   */\n      swap2\n      pop\n        /* \"#utility.yul\":10873:10892   */\n      tag_310\n        /* \"#utility.yul\":10890:10891   */\n      dup4\n        /* \"#utility.yul\":10873:10892   */\n      tag_309\n      jump\t// in\n    tag_310:\n        /* \"#utility.yul\":10868:10892   */\n      swap3\n      pop\n        /* \"#utility.yul\":11061:11062   */\n      dup2\n        /* \"#utility.yul\":10993:11059   */\n      0x7fffffffffffffffffffffffffffffffffffffffffffffffffffffffffffffff\n        /* \"#utility.yul\":10989:11063   */\n      sub\n        /* \"#utility.yul\":10986:10987   */\n      dup4\n        /* \"#utility.yul\":10982:11064   */\n      sgt\n        /* \"#utility.yul\":10977:10978   */\n      0x00\n        /* \"#utility.yul\":10974:10975   */\n      dup4\n        /* \"#utility.yul\":10970:10979   */\n      slt\n        /* \"#utility.yul\":10963:10980   */\n      iszero\n        /* \"#utility.yul\":10959:11065   */\n      and\n        /* \"#utility.yul\":10956:11088   */\n      iszero\n      tag_311\n      jumpi\n        /* \"#utility.yul\":11068:11086   */\n      tag_312\n      tag_313\n      jump\t// in\n    tag_312:\n        /* \"#utility.yul\":10956:11088   */\n    tag_311:\n        /* \"#utility.yul\":11248:11249   */\n      dup2\n        /* \"#utility.yul\":11180:11246   */\n      0x8000000000000000000000000000000000000000000000000000000000000000\n        /* \"#utility.yul\":11176:11250   */\n      sub\n        /* \"#utility.yul\":11173:11174   */\n      dup4\n        /* \"#utility.yul\":11169:11251   */\n      slt\n        /* \"#utility.yul\":11165:11166   */\n      0x00\n        /* \"#utility.yul\":11162:11163   */\n      dup4\n        /* \"#utility.yul\":11158:11167   */\n      slt\n        /* \"#utility.yul\":11154:11252   */\n      and\n        /* \"#utility.yul\":11151:11275   */\n      iszero\n      tag_314\n      jumpi\n        /* \"#utility.yul\":11255:11273   */\n      tag_315\n      tag_313\n      jump\t// in\n    tag_315:\n        /* \"#utility.yul\":11151:11275   */\n    tag_314:\n        /* \"#utility.yul\":11299:11300   */\n      dup3\n        /* \"#utility.yul\":11296:11297   */\n      dup3\n        /* \"#utility.yul\":11292:11301   */\n      add\n        /* \"#utility.yul\":11285:11301   */\n      swap1\n      pop\n        /* \"#utility.yul\":10782:11307   */\n      swap3\n      swap2\n      pop\n      pop\n      jump\t// out\n        /* \"#utility.yul\":11313:11618   */\n    tag_61:\n        /* \"#utility.yul\":11353:11356   */\n      0x00\n        /* \"#utility.yul\":11372:11392   */\n      tag_317\n        /* \"#utility.yul\":11390:11391   */\n      dup3\n        /* \"#utility.yul\":11372:11392   */\n      tag_265\n      jump\t// in\n    tag_317:\n        /* \"#utility.yul\":11367:11392   */\n      swap2\n      pop\n        /* \"#utility.yul\":11406:11426   */\n      tag_318\n        /* \"#utility.yul\":11424:11425   */\n      dup4\n        /* \"#utility.yul\":11406:11426   */\n      tag_265\n      jump\t// in\n    tag_318:\n        /* \"#utility.yul\":11401:11426   */\n      swap3\n      pop\n        /* \"#utility.yul\":11560:11561   */\n      dup3\n        /* \"#utility.yul\":11492:11558   */\n      0xffffffffffffffffffffffffffffffffffffffffffffffffffffffffffffffff\n        /* \"#utility.yul\":11488:11562   */\n      sub\n        /* \"#utility.yul\":11485:11486   */\n      dup3\n        /* \"#utility.yul\":11482:11563   */\n      gt\n        /* \"#utility.yul\":11479:11586   */\n      iszero\n      tag_319\n      jumpi\n        /* \"#utility.yul\":11566:11584   */\n      tag_320\n      tag_313\n      jump\t// in\n    tag_320:\n        /* \"#utility.yul\":11479:11586   */\n    tag_319:\n        /* \"#utility.yul\":11610:11611   */\n      dup3\n        /* \"#utility.yul\":11607:11608   */\n      dup3\n        /* \"#utility.yul\":11603:11612   */\n      add\n        /* \"#utility.yul\":11596:11612   */\n      swap1\n      pop\n        /* \"#utility.yul\":11313:11618   */\n      swap3\n      swap2\n      pop\n      pop\n      jump\t// out\n        /* \"#utility.yul\":11624:11720   */\n    tag_215:\n        /* \"#utility.yul\":11661:11668   */\n      0x00\n        /* \"#utility.yul\":11690:11714   */\n      tag_322\n        /* \"#utility.yul\":11708:11713   */\n      dup3\n        /* \"#utility.yul\":11690:11714   */\n      tag_323\n      jump\t// in\n    tag_322:\n        /* \"#utility.yul\":11679:11714   */\n      swap1\n      pop\n        /* \"#utility.yul\":11624:11720   */\n      swap2\n      swap1\n      pop\n      jump\t// out\n        /* \"#utility.yul\":11726:11816   */\n    tag_220:\n        /* \"#utility.yul\":11760:11767   */\n      0x00\n        /* \"#utility.yul\":11803:11808   */\n      dup2\n        /* \"#utility.yul\":11796:11809   */\n      iszero\n        /* \"#utility.yul\":11789:11810   */\n      iszero\n        /* \"#utility.yul\":11778:11810   */\n      swap1\n      pop\n        /* \"#utility.yul\":11726:11816   */\n      swap2\n      swap1\n      pop\n      jump\t// out\n        /* \"#utility.yul\":11822:11898   */\n    tag_309:\n        /* \"#utility.yul\":11858:11865   */\n      0x00\n        /* \"#utility.yul\":11887:11892   */\n      dup2\n        /* \"#utility.yul\":11876:11892   */\n      swap1\n      pop\n        /* \"#utility.yul\":11822:11898   */\n      swap2\n      swap1\n      pop\n      jump\t// out\n        /* \"#utility.yul\":11904:12030   */\n    tag_323:\n        /* \"#utility.yul\":11941:11948   */\n      0x00\n        /* \"#utility.yul\":11981:12023   */\n      0xffffffffffffffffffffffffffffffffffffffff\n        /* \"#utility.yul\":11974:11979   */\n      dup3\n        /* \"#utility.yul\":11970:12024   */\n      and\n        /* \"#utility.yul\":11959:12024   */\n      swap1\n      pop\n        /* \"#utility.yul\":11904:12030   */\n      swap2\n      swap1\n      pop\n      jump\t// out\n        /* \"#utility.yul\":12036:12113   */\n    tag_265:\n        /* \"#utility.yul\":12073:12080   */\n      0x00\n        /* \"#utility.yul\":12102:12107   */\n      dup2\n        /* \"#utility.yul\":12091:12107   */\n      swap1\n      pop\n        /* \"#utility.yul\":12036:12113   */\n      swap2\n      swap1\n      pop\n      jump\t// out\n        /* \"#utility.yul\":12119:12273   */\n    tag_180:\n        /* \"#utility.yul\":12203:12209   */\n      dup3\n        /* \"#utility.yul\":12198:12201   */\n      dup2\n        /* \"#utility.yul\":12193:12196   */\n      dup4\n        /* \"#utility.yul\":12180:12210   */\n      calldatacopy\n        /* \"#utility.yul\":12265:12266   */\n      0x00\n        /* \"#utility.yul\":12256:12262   */\n      dup4\n        /* \"#utility.yul\":12251:12254   */\n      dup4\n        /* \"#utility.yul\":12247:12263   */\n      add\n        /* \"#utility.yul\":12240:12267   */\n      mstore\n        /* \"#utility.yul\":12119:12273   */\n      pop\n      pop\n      pop\n      jump\t// out\n        /* \"#utility.yul\":12279:12586   */\n    tag_228:\n        /* \"#utility.yul\":12347:12348   */\n      0x00\n        /* \"#utility.yul\":12357:12470   */\n    tag_330:\n        /* \"#utility.yul\":12371:12377   */\n      dup4\n        /* \"#utility.yul\":12368:12369   */\n      dup2\n        /* \"#utility.yul\":12365:12378   */\n      lt\n        /* \"#utility.yul\":12357:12470   */\n      iszero\n      tag_332\n      jumpi\n        /* \"#utility.yul\":12456:12457   */\n      dup1\n        /* \"#utility.yul\":12451:12454   */\n      dup3\n        /* \"#utility.yul\":12447:12458   */\n      add\n        /* \"#utility.yul\":12441:12459   */\n      mload\n        /* \"#utility.yul\":12437:12438   */\n      dup2\n        /* \"#utility.yul\":12432:12435   */\n      dup5\n        /* \"#utility.yul\":12428:12439   */\n      add\n        /* \"#utility.yul\":12421:12460   */\n      mstore\n        /* \"#utility.yul\":12393:12395   */\n      0x20\n        /* \"#utility.yul\":12390:12391   */\n      dup2\n        /* \"#utility.yul\":12386:12396   */\n      add\n        /* \"#utility.yul\":12381:12396   */\n      swap1\n      pop\n        /* \"#utility.yul\":12357:12470   */\n      jump(tag_330)\n    tag_332:\n        /* \"#utility.yul\":12488:12494   */\n      dup4\n        /* \"#utility.yul\":12485:12486   */\n      dup2\n        /* \"#utility.yul\":12482:12495   */\n      gt\n        /* \"#utility.yul\":12479:12580   */\n      iszero\n      tag_333\n      jumpi\n        /* \"#utility.yul\":12568:12569   */\n      0x00\n        /* \"#utility.yul\":12559:12565   */\n      dup5\n        /* \"#utility.yul\":12554:12557   */\n      dup5\n        /* \"#utility.yul\":12550:12566   */\n      add\n        /* \"#utility.yul\":12543:12570   */\n      mstore\n        /* \"#utility.yul\":12479:12580   */\n    tag_333:\n        /* \"#utility.yul\":12328:12586   */\n      pop\n        /* \"#utility.yul\":12279:12586   */\n      pop\n      pop\n      pop\n      jump\t// out\n        /* \"#utility.yul\":12592:12912   */\n    tag_37:\n        /* \"#utility.yul\":12636:12642   */\n      0x00\n        /* \"#utility.yul\":12673:12674   */\n      0x02\n        /* \"#utility.yul\":12667:12671   */\n      dup3\n        /* \"#utility.yul\":12663:12675   */\n      div\n        /* \"#utility.yul\":12653:12675   */\n      swap1\n      pop\n        /* \"#utility.yul\":12720:12721   */\n      0x01\n        /* \"#utility.yul\":12714:12718   */\n      dup3\n        /* \"#utility.yul\":12710:12722   */\n      and\n        /* \"#utility.yul\":12741:12759   */\n      dup1\n        /* \"#utility.yul\":12731:12812   */\n      tag_335\n      jumpi\n        /* \"#utility.yul\":12797:12801   */\n      0x7f\n        /* \"#utility.yul\":12789:12795   */\n      dup3\n        /* \"#utility.yul\":12785:12802   */\n      and\n        /* \"#utility.yul\":12775:12802   */\n      swap2\n      pop\n        /* \"#utility.yul\":12731:12812   */\n    tag_335:\n        /* \"#utility.yul\":12859:12861   */\n      0x20\n        /* \"#utility.yul\":12851:12857   */\n      dup3\n        /* \"#utility.yul\":12848:12862   */\n      lt\n        /* \"#utility.yul\":12828:12846   */\n      dup2\n        /* \"#utility.yul\":12825:12863   */\n      eq\n        /* \"#utility.yul\":12822:12906   */\n      iszero\n      tag_336\n      jumpi\n        /* \"#utility.yul\":12878:12896   */\n      tag_337\n      tag_338\n      jump\t// in\n    tag_337:\n        /* \"#utility.yul\":12822:12906   */\n    tag_336:\n        /* \"#utility.yul\":12643:12912   */\n      pop\n        /* \"#utility.yul\":12592:12912   */\n      swap2\n      swap1\n      pop\n      jump\t// out\n        /* \"#utility.yul\":12918:13199   */\n    tag_297:\n        /* \"#utility.yul\":13001:13028   */\n      tag_340\n        /* \"#utility.yul\":13023:13027   */\n      dup3\n        /* \"#utility.yul\":13001:13028   */\n      tag_230\n      jump\t// in\n    tag_340:\n        /* \"#utility.yul\":12993:12999   */\n      dup2\n        /* \"#utility.yul\":12989:13029   */\n      add\n        /* \"#utility.yul\":13131:13137   */\n      dup2\n        /* \"#utility.yul\":13119:13129   */\n      dup2\n        /* \"#utility.yul\":13116:13138   */\n      lt\n        /* \"#utility.yul\":13095:13113   */\n      0xffffffffffffffff\n        /* \"#utility.yul\":13083:13093   */\n      dup3\n        /* \"#utility.yul\":13080:13114   */\n      gt\n        /* \"#utility.yul\":13077:13139   */\n      or\n        /* \"#utility.yul\":13074:13162   */\n      iszero\n      tag_341\n      jumpi\n        /* \"#utility.yul\":13142:13160   */\n      tag_342\n      tag_302\n      jump\t// in\n    tag_342:\n        /* \"#utility.yul\":13074:13162   */\n    tag_341:\n        /* \"#utility.yul\":13182:13192   */\n      dup1\n        /* \"#utility.yul\":13178:13180   */\n      0x40\n        /* \"#utility.yul\":13171:13193   */\n      mstore\n        /* \"#utility.yul\":12961:13199   */\n      pop\n        /* \"#utility.yul\":12918:13199   */\n      pop\n      pop\n      jump\t// out\n        /* \"#utility.yul\":13205:13305   */\n    tag_216:\n        /* \"#utility.yul\":13244:13251   */\n      0x00\n        /* \"#utility.yul\":13273:13299   */\n      tag_344\n        /* \"#utility.yul\":13293:13298   */\n      dup3\n        /* \"#utility.yul\":13273:13299   */\n      tag_345\n      jump\t// in\n    tag_344:\n        /* \"#utility.yul\":13262:13299   */\n      swap1\n      pop\n        /* \"#utility.yul\":13205:13305   */\n      swap2\n      swap1\n      pop\n      jump\t// out\n        /* \"#utility.yul\":13311:13405   */\n    tag_345:\n        /* \"#utility.yul\":13350:13357   */\n      0x00\n        /* \"#utility.yul\":13379:13399   */\n      tag_347\n        /* \"#utility.yul\":13393:13398   */\n      dup3\n        /* \"#utility.yul\":13379:13399   */\n      tag_348\n      jump\t// in\n    tag_347:\n        /* \"#utility.yul\":13368:13399   */\n      swap1\n      pop\n        /* \"#utility.yul\":13311:13405   */\n      swap2\n      swap1\n      pop\n      jump\t// out\n        /* \"#utility.yul\":13411:13490   */\n    tag_273:\n        /* \"#utility.yul\":13450:13457   */\n      0x00\n        /* \"#utility.yul\":13479:13484   */\n      dup2\n        /* \"#utility.yul\":13468:13484   */\n      swap1\n      pop\n        /* \"#utility.yul\":13411:13490   */\n      swap2\n      swap1\n      pop\n      jump\t// out\n        /* \"#utility.yul\":13496:13672   */\n    tag_139:\n        /* \"#utility.yul\":13528:13529   */\n      0x00\n        /* \"#utility.yul\":13545:13565   */\n      tag_351\n        /* \"#utility.yul\":13563:13564   */\n      dup3\n        /* \"#utility.yul\":13545:13565   */\n      tag_265\n      jump\t// in\n    tag_351:\n        /* \"#utility.yul\":13540:13565   */\n      swap2\n      pop\n        /* \"#utility.yul\":13579:13599   */\n      tag_352\n        /* \"#utility.yul\":13597:13598   */\n      dup4\n        /* \"#utility.yul\":13579:13599   */\n      tag_265\n      jump\t// in\n    tag_352:\n        /* \"#utility.yul\":13574:13599   */\n      swap3\n      pop\n        /* \"#utility.yul\":13618:13619   */\n      dup3\n        /* \"#utility.yul\":13608:13643   */\n      tag_353\n      jumpi\n        /* \"#utility.yul\":13623:13641   */\n      tag_354\n      tag_355\n      jump\t// in\n    tag_354:\n        /* \"#utility.yul\":13608:13643   */\n    tag_353:\n        /* \"#utility.yul\":13664:13665   */\n      dup3\n        /* \"#utility.yul\":13661:13662   */\n      dup3\n        /* \"#utility.yul\":13657:13666   */\n      mod\n        /* \"#utility.yul\":13652:13666   */\n      swap1\n      pop\n        /* \"#utility.yul\":13496:13672   */\n      swap3\n      swap2\n      pop\n      pop\n      jump\t// out\n        /* \"#utility.yul\":13678:13858   */\n    tag_313:\n        /* \"#utility.yul\":13726:13803   */\n      0x4e487b7100000000000000000000000000000000000000000000000000000000\n        /* \"#utility.yul\":13723:13724   */\n      0x00\n        /* \"#utility.yul\":13716:13804   */\n      mstore\n        /* \"#utility.yul\":13823:13827   */\n      0x11\n        /* \"#utility.yul\":13820:13821   */\n      0x04\n        /* \"#utility.yul\":13813:13828   */\n      mstore\n        /* \"#utility.yul\":13847:13851   */\n      0x24\n        /* \"#utility.yul\":13844:13845   */\n      0x00\n        /* \"#utility.yul\":13837:13852   */\n      revert\n        /* \"#utility.yul\":13864:14044   */\n    tag_355:\n        /* \"#utility.yul\":13912:13989   */\n      0x4e487b7100000000000000000000000000000000000000000000000000000000\n        /* \"#utility.yul\":13909:13910   */\n      0x00\n        /* \"#utility.yul\":13902:13990   */\n      mstore\n        /* \"#utility.yul\":14009:14013   */\n      0x12\n        /* \"#utility.yul\":14006:14007   */\n      0x04\n        /* \"#utility.yul\":13999:14014   */\n      mstore\n        /* \"#utility.yul\":14033:14037   */\n      0x24\n        /* \"#utility.yul\":14030:14031   */\n      0x00\n        /* \"#utility.yul\":14023:14038   */\n      revert\n        /* \"#utility.yul\":14050:14230   */\n    tag_338:\n        /* \"#utility.yul\":14098:14175   */\n      0x4e487b7100000000000000000000000000000000000000000000000000000000\n        /* \"#utility.yul\":14095:14096   */\n      0x00\n        /* \"#utility.yul\":14088:14176   */\n      mstore\n        /* \"#utility.yul\":14195:14199   */\n      0x22\n        /* \"#utility.yul\":14192:14193   */\n      0x04\n        /* \"#utility.yul\":14185:14200   */\n      mstore\n        /* \"#utility.yul\":14219:14223   */\n      0x24\n        /* \"#utility.yul\":14216:14217   */\n      0x00\n        /* \"#utility.yul\":14209:14224   */\n      revert\n        /* \"#utility.yul\":14236:14416   */\n    tag_58:\n        /* \"#utility.yul\":14284:14361   */\n      0x4e487b7100000000000000000000000000000000000000000000000000000000\n        /* \"#utility.yul\":14281:14282   */\n      0x00\n        /* \"#utility.yul\":14274:14362   */\n      mstore\n        /* \"#utility.yul\":14381:14385   */\n      0x32\n        /* \"#utility.yul\":14378:14379   */\n      0x04\n        /* \"#utility.yul\":14371:14386   */\n      mstore\n        /* \"#utility.yul\":14405:14409   */\n      0x24\n        /* \"#utility.yul\":14402:14403   */\n      0x00\n        /* \"#utility.yul\":14395:14410   */\n      revert\n        /* \"#utility.yul\":14422:14602   */\n    tag_302:\n        /* \"#utility.yul\":14470:14547   */\n      0x4e487b7100000000000000000000000000000000000000000000000000000000\n        /* \"#utility.yul\":14467:14468   */\n      0x00\n        /* \"#utility.yul\":14460:14548   */\n      mstore\n        /* \"#utility.yul\":14567:14571   */\n      0x41\n        /* \"#utility.yul\":14564:14565   */\n      0x04\n        /* \"#utility.yul\":14557:14572   */\n      mstore\n        /* \"#utility.yul\":14591:14595   */\n      0x24\n        /* \"#utility.yul\":14588:14589   */\n      0x00\n        /* \"#utility.yul\":14581:14596   */\n      revert\n        /* \"#utility.yul\":14608:14725   */\n    tag_189:\n        /* \"#utility.yul\":14717:14718   */\n      0x00\n        /* \"#utility.yul\":14714:14715   */\n      dup1\n        /* \"#utility.yul\":14707:14719   */\n      revert\n        /* \"#utility.yul\":14731:14848   */\n    tag_178:\n        /* \"#utility.yul\":14840:14841   */\n      0x00\n        /* \"#utility.yul\":14837:14838   */\n      dup1\n        /* \"#utility.yul\":14830:14842   */\n      revert\n        /* \"#utility.yul\":14854:14971   */\n    tag_205:\n        /* \"#utility.yul\":14963:14964   */\n      0x00\n        /* \"#utility.yul\":14960:14961   */\n      dup1\n        /* \"#utility.yul\":14953:14965   */\n      revert\n        /* \"#utility.yul\":14977:15094   */\n    tag_198:\n        /* \"#utility.yul\":15086:15087   */\n      0x00\n        /* \"#utility.yul\":15083:15084   */\n      dup1\n        /* \"#utility.yul\":15076:15088   */\n      revert\n        /* \"#utility.yul\":15100:15202   */\n    tag_230:\n        /* \"#utility.yul\":15141:15147   */\n      0x00\n        /* \"#utility.yul\":15192:15194   */\n      0x1f\n        /* \"#utility.yul\":15188:15195   */\n      not\n        /* \"#utility.yul\":15183:15185   */\n      0x1f\n        /* \"#utility.yul\":15176:15181   */\n      dup4\n        /* \"#utility.yul\":15172:15186   */\n      add\n        /* \"#utility.yul\":15168:15196   */\n      and\n        /* \"#utility.yul\":15158:15196   */\n      swap1\n      pop\n        /* \"#utility.yul\":15100:15202   */\n      swap2\n      swap1\n      pop\n      jump\t// out\n        /* \"#utility.yul\":15208:15302   */\n    tag_348:\n        /* \"#utility.yul\":15241:15249   */\n      0x00\n        /* \"#utility.yul\":15289:15294   */\n      dup2\n        /* \"#utility.yul\":15285:15287   */\n      0x60\n        /* \"#utility.yul\":15281:15295   */\n      shl\n        /* \"#utility.yul\":15260:15295   */\n      swap1\n      pop\n        /* \"#utility.yul\":15208:15302   */\n      swap2\n      swap1\n      pop\n      jump\t// out\n        /* \"#utility.yul\":15308:15472   */\n    tag_242:\n        /* \"#utility.yul\":15448:15464   */\n      0x416c726561647920766f7465642e000000000000000000000000000000000000\n        /* \"#utility.yul\":15444:15445   */\n      0x00\n        /* \"#utility.yul\":15436:15442   */\n      dup3\n        /* \"#utility.yul\":15432:15446   */\n      add\n        /* \"#utility.yul\":15425:15465   */\n      mstore\n        /* \"#utility.yul\":15308:15472   */\n      pop\n      jump\t// out\n        /* \"#utility.yul\":15478:15652   */\n    tag_247:\n        /* \"#utility.yul\":15618:15644   */\n      0x54686520766f74657220616c726561647920766f7465642e0000000000000000\n        /* \"#utility.yul\":15614:15615   */\n      0x00\n        /* \"#utility.yul\":15606:15612   */\n      dup3\n        /* \"#utility.yul\":15602:15616   */\n      add\n        /* \"#utility.yul\":15595:15645   */\n      mstore\n        /* \"#utility.yul\":15478:15652   */\n      pop\n      jump\t// out\n        /* \"#utility.yul\":15658:15780   */\n    tag_184:\n        /* \"#utility.yul\":15731:15755   */\n      tag_370\n        /* \"#utility.yul\":15749:15754   */\n      dup2\n        /* \"#utility.yul\":15731:15755   */\n      tag_215\n      jump\t// in\n    tag_370:\n        /* \"#utility.yul\":15724:15729   */\n      dup2\n        /* \"#utility.yul\":15721:15756   */\n      eq\n        /* \"#utility.yul\":15711:15774   */\n      tag_371\n      jumpi\n        /* \"#utility.yul\":15770:15771   */\n      0x00\n        /* \"#utility.yul\":15767:15768   */\n      dup1\n        /* \"#utility.yul\":15760:15772   */\n      revert\n        /* \"#utility.yul\":15711:15774   */\n    tag_371:\n        /* \"#utility.yul\":15658:15780   */\n      pop\n      jump\t// out\n        /* \"#utility.yul\":15786:15908   */\n    tag_194:\n        /* \"#utility.yul\":15859:15883   */\n      tag_373\n        /* \"#utility.yul\":15877:15882   */\n      dup2\n        /* \"#utility.yul\":15859:15883   */\n      tag_265\n      jump\t// in\n    tag_373:\n        /* \"#utility.yul\":15852:15857   */\n      dup2\n        /* \"#utility.yul\":15849:15884   */\n      eq\n        /* \"#utility.yul\":15839:15902   */\n      tag_374\n      jumpi\n        /* \"#utility.yul\":15898:15899   */\n      0x00\n        /* \"#utility.yul\":15895:15896   */\n      dup1\n        /* \"#utility.yul\":15888:15900   */\n      revert\n        /* \"#utility.yul\":15839:15902   */\n    tag_374:\n        /* \"#utility.yul\":15786:15908   */\n      pop\n      jump\t// out\n\n    auxdata: 0xa26469706673582212205babbd8ed6995f45050fccb8d8d973099e055463dc910d0dabd84c79e29fc11764736f6c63430008070033\n}\n",
				"bytecode": {
					"linkReferences": {},
					"object": "6080604052600060045560006005553480156200001b57600080fd5b50336000806101000a81548173ffffffffffffffffffffffffffffffffffffffff021916908373ffffffffffffffffffffffffffffffffffffffff16021790555060018060008060009054906101000a900473ffffffffffffffffffffffffffffffffffffffff1673ffffffffffffffffffffffffffffffffffffffff1673ffffffffffffffffffffffffffffffffffffffff1681526020019081526020016000206000018190555060006040518060a001604052806040518060400160405280600181526020017f610000000000000000000000000000000000000000000000000000000000000081525081526020016040518060400160405280600181526020017f620000000000000000000000000000000000000000000000000000000000000081525081526020016040518060400160405280600181526020017f630000000000000000000000000000000000000000000000000000000000000081525081526020016040518060400160405280600181526020017f640000000000000000000000000000000000000000000000000000000000000081525081526020016040518060400160405280600181526020017f65000000000000000000000000000000000000000000000000000000000000008152508152509050600580146200023e576040517f08c379a0000000000000000000000000000000000000000000000000000000008152600401620002359062000475565b60405180910390fd5b60005b6005811015620003965760026040518061018001604052808484600581106200026f576200026e62000594565b5b6020020151815260200160008152602001600081526020016000815260200160008152602001600081526020016000815260200160008152602001600081526020016000815260200160008152602001600081525090806001815401808255809150506001900390600052602060002090600c020160009091909190915060008201518160000190805190602001906200030b9291906200039e565b506020820151816001015560408201518160020155606082015181600301556080820151816004015560a0820151816005015560c0820151816006015560e082015181600701556101008201518160080155610120820151816009015561014082015181600a015561016082015181600b0155505080806200038d90620004e8565b91505062000241565b5050620005ec565b828054620003ac90620004b2565b90600052602060002090601f016020900481019282620003d057600085556200041c565b82601f10620003eb57805160ff19168380011785556200041c565b828001600101855582156200041c579182015b828111156200041b578251825591602001919060010190620003fe565b5b5090506200042b91906200042f565b5090565b5b808211156200044a57600081600090555060010162000430565b5090565b60006200045d60158362000497565b91506200046a82620005c3565b602082019050919050565b6000602082019050818103600083015262000490816200044e565b9050919050565b600082825260208201905092915050565b6000819050919050565b60006002820490506001821680620004cb57607f821691505b60208210811415620004e257620004e162000565565b5b50919050565b6000620004f582620004a8565b91507fffffffffffffffffffffffffffffffffffffffffffffffffffffffffffffffff8214156200052b576200052a62000536565b5b600182019050919050565b7f4e487b7100000000000000000000000000000000000000000000000000000000600052601160045260246000fd5b7f4e487b7100000000000000000000000000000000000000000000000000000000600052602260045260246000fd5b7f4e487b7100000000000000000000000000000000000000000000000000000000600052603260045260246000fd5b7f43616e64696461746573206d75737420626520352e0000000000000000000000600082015250565b61141c80620005fc6000396000f3fe608060405234801561001057600080fd5b50600436106100625760003560e01c80635a9b0b8914610067578063632a9a5214610085578063937f6e771461008f578063a3ec138d146100ab578063cfa1f037146100de578063d4e8fd2e146100fc575b600080fd5b61006f61012c565b60405161007c9190610ea2565b60405180910390f35b61008d6101be565b005b6100a960048036038101906100a49190610bd8565b6107bf565b005b6100c560048036038101906100c09190610bab565b6107d9565b6040516100d59493929190610f41565b60405180910390f35b6100e6610816565b6040516100f39190610f26565b60405180910390f35b61011660048036038101906101119190610c21565b610857565b6040516101239190610f04565b60405180910390f35b60606003805461013b90611187565b80601f016020809104026020016040519081016040528092919081815260200182805461016790611187565b80156101b45780601f10610189576101008083540402835291602001916101b4565b820191906000526020600020905b81548152906001019060200180831161019757829003601f168201915b5050505050905090565b600160003373ffffffffffffffffffffffffffffffffffffffff1673ffffffffffffffffffffffffffffffffffffffff16815260200190815260200160002060010160009054906101000a900460ff161561024e576040517f08c379a000000000000000000000000000000000000000000000000000000000815260040161024590610ee4565b60405180910390fd5b6000600160003373ffffffffffffffffffffffffffffffffffffffff1673ffffffffffffffffffffffffffffffffffffffff168152602001908152602001600020600001541461029d57600080fd5b60018060003373ffffffffffffffffffffffffffffffffffffffff1673ffffffffffffffffffffffffffffffffffffffff168152602001908152602001600020600001819055506102ec610994565b6102f46109b0565b600160003373ffffffffffffffffffffffffffffffffffffffff1673ffffffffffffffffffffffffffffffffffffffff168152602001908152602001600020600201819055506000600160003373ffffffffffffffffffffffffffffffffffffffff1673ffffffffffffffffffffffffffffffffffffffff16815260200190815260200160002090508060010160009054906101000a900460ff16156103cf576040517f08c379a00000000000000000000000000000000000000000000000000000000081526004016103c690610ec4565b60405180910390fd5b60018160010160006101000a81548160ff0219169083151502179055506103f4610816565b81600301819055508060000154600261040b610816565b8154811061041c5761041b6112d6565b5b90600052602060002090600c0201600101600082825461043c919061109d565b9250508190555060008160020154141561049c578060000154600261045f610816565b815481106104705761046f6112d6565b5b90600052602060002090600c02016002016000828254610490919061109d565b925050819055506107b4565b6001816002015414156104f557806000015460026104b8610816565b815481106104c9576104c86112d6565b5b90600052602060002090600c020160030160008282546104e9919061109d565b925050819055506107b3565b60028160020154141561054e5780600001546002610511610816565b81548110610522576105216112d6565b5b90600052602060002090600c02016004016000828254610542919061109d565b925050819055506107b2565b6003816002015414156105a7578060000154600261056a610816565b8154811061057b5761057a6112d6565b5b90600052602060002090600c0201600501600082825461059b919061109d565b925050819055506107b1565b60048160020154141561060057806000015460026105c3610816565b815481106105d4576105d36112d6565b5b90600052602060002090600c020160060160008282546105f4919061109d565b925050819055506107b0565b600581600201541415610659578060000154600261061c610816565b8154811061062d5761062c6112d6565b5b90600052602060002090600c0201600701600082825461064d919061109d565b925050819055506107af565b6006816002015414156106b25780600001546002610675610816565b81548110610686576106856112d6565b5b90600052602060002090600c020160080160008282546106a6919061109d565b925050819055506107ae565b60078160020154141561070b57806000015460026106ce610816565b815481106106df576106de6112d6565b5b90600052602060002090600c020160090160008282546106ff919061109d565b925050819055506107ad565b6008816002015414156107645780600001546002610727610816565b81548110610738576107376112d6565b5b90600052602060002090600c0201600a016000828254610758919061109d565b925050819055506107ac565b80600001546002610773610816565b81548110610784576107836112d6565b5b90600052602060002090600c0201600b0160008282546107a4919061109d565b925050819055505b5b5b5b5b5b5b5b5b6107bc6109f1565b50565b80600390805190602001906107d5929190610a0d565b5050565b60016020528060005260406000206000915090508060000154908060010160009054906101000a900460ff16908060020154908060030154905084565b6000600542443360405160200161082f93929190610e65565b6040516020818303038152906040528051906020012060001c6108529190611218565b905090565b61085f610a93565b60028281548110610873576108726112d6565b5b90600052602060002090600c02016040518061018001604052908160008201805461089d90611187565b80601f01602080910402602001604051908101604052809291908181526020018280546108c990611187565b80156109165780601f106108eb57610100808354040283529160200191610916565b820191906000526020600020905b8154815290600101906020018083116108f957829003601f168201915b50505050508152602001600182015481526020016002820154815260200160038201548152602001600482015481526020016005820154815260200160068201548152602001600782015481526020016008820154815260200160098201548152602001600a8201548152602001600b820154815250509050919050565b6001600460008282546109a79190611009565b92505081905550565b6000600a4244336040516020016109c993929190610e65565b6040516020818303038152906040528051906020012060001c6109ec9190611218565b905090565b600160056000828254610a049190611009565b92505081905550565b828054610a1990611187565b90600052602060002090601f016020900481019282610a3b5760008555610a82565b82601f10610a5457805160ff1916838001178555610a82565b82800160010185558215610a82579182015b82811115610a81578251825591602001919060010190610a66565b5b509050610a8f9190610af4565b5090565b6040518061018001604052806060815260200160008152602001600081526020016000815260200160008152602001600081526020016000815260200160008152602001600081526020016000815260200160008152602001600081525090565b5b80821115610b0d576000816000905550600101610af5565b5090565b6000610b24610b1f84610fab565b610f86565b905082815260208101848484011115610b4057610b3f611339565b5b610b4b848285611145565b509392505050565b600081359050610b62816113b8565b92915050565b600082601f830112610b7d57610b7c611334565b5b8135610b8d848260208601610b11565b91505092915050565b600081359050610ba5816113cf565b92915050565b600060208284031215610bc157610bc0611343565b5b6000610bcf84828501610b53565b91505092915050565b600060208284031215610bee57610bed611343565b5b600082013567ffffffffffffffff811115610c0c57610c0b61133e565b5b610c1884828501610b68565b91505092915050565b600060208284031215610c3757610c36611343565b5b6000610c4584828501610b96565b91505092915050565b610c5f610c5a826110f3565b6111ea565b82525050565b610c6e81611105565b82525050565b6000610c7f82610fdc565b610c898185610fe7565b9350610c99818560208601611154565b610ca281611348565b840191505092915050565b6000610cb882610fdc565b610cc28185610ff8565b9350610cd2818560208601611154565b610cdb81611348565b840191505092915050565b6000610cf3600e83610ff8565b9150610cfe82611366565b602082019050919050565b6000610d16601883610ff8565b9150610d218261138f565b602082019050919050565b6000610180830160008301518482036000860152610d4a8282610c74565b9150506020830151610d5f6020860182610e30565b506040830151610d726040860182610e30565b506060830151610d856060860182610e30565b506080830151610d986080860182610e30565b5060a0830151610dab60a0860182610e30565b5060c0830151610dbe60c0860182610e30565b5060e0830151610dd160e0860182610e30565b50610100830151610de6610100860182610e30565b50610120830151610dfb610120860182610e30565b50610140830151610e10610140860182610e30565b50610160830151610e25610160860182610e30565b508091505092915050565b610e398161113b565b82525050565b610e488161113b565b82525050565b610e5f610e5a8261113b565b61120e565b82525050565b6000610e718286610e4e565b602082019150610e818285610e4e565b602082019150610e918284610c4e565b601482019150819050949350505050565b60006020820190508181036000830152610ebc8184610cad565b905092915050565b60006020820190508181036000830152610edd81610ce6565b9050919050565b60006020820190508181036000830152610efd81610d09565b9050919050565b60006020820190508181036000830152610f1e8184610d2c565b905092915050565b6000602082019050610f3b6000830184610e3f565b92915050565b6000608082019050610f566000830187610e3f565b610f636020830186610c65565b610f706040830185610e3f565b610f7d6060830184610e3f565b95945050505050565b6000610f90610fa1565b9050610f9c82826111b9565b919050565b6000604051905090565b600067ffffffffffffffff821115610fc657610fc5611305565b5b610fcf82611348565b9050602081019050919050565b600081519050919050565b600082825260208201905092915050565b600082825260208201905092915050565b600061101482611111565b915061101f83611111565b9250817f7fffffffffffffffffffffffffffffffffffffffffffffffffffffffffffffff0383136000831215161561105a57611059611249565b5b817f800000000000000000000000000000000000000000000000000000000000000003831260008312161561109257611091611249565b5b828201905092915050565b60006110a88261113b565b91506110b38361113b565b9250827fffffffffffffffffffffffffffffffffffffffffffffffffffffffffffffffff038211156110e8576110e7611249565b5b828201905092915050565b60006110fe8261111b565b9050919050565b60008115159050919050565b6000819050919050565b600073ffffffffffffffffffffffffffffffffffffffff82169050919050565b6000819050919050565b82818337600083830152505050565b60005b83811015611172578082015181840152602081019050611157565b83811115611181576000848401525b50505050565b6000600282049050600182168061119f57607f821691505b602082108114156111b3576111b26112a7565b5b50919050565b6111c282611348565b810181811067ffffffffffffffff821117156111e1576111e0611305565b5b80604052505050565b60006111f5826111fc565b9050919050565b600061120782611359565b9050919050565b6000819050919050565b60006112238261113b565b915061122e8361113b565b92508261123e5761123d611278565b5b828206905092915050565b7f4e487b7100000000000000000000000000000000000000000000000000000000600052601160045260246000fd5b7f4e487b7100000000000000000000000000000000000000000000000000000000600052601260045260246000fd5b7f4e487b7100000000000000000000000000000000000000000000000000000000600052602260045260246000fd5b7f4e487b7100000000000000000000000000000000000000000000000000000000600052603260045260246000fd5b7f4e487b7100000000000000000000000000000000000000000000000000000000600052604160045260246000fd5b600080fd5b600080fd5b600080fd5b600080fd5b6000601f19601f8301169050919050565b60008160601b9050919050565b7f416c726561647920766f7465642e000000000000000000000000000000000000600082015250565b7f54686520766f74657220616c726561647920766f7465642e0000000000000000600082015250565b6113c1816110f3565b81146113cc57600080fd5b50565b6113d88161113b565b81146113e357600080fd5b5056fea26469706673582212205babbd8ed6995f45050fccb8d8d973099e055463dc910d0dabd84c79e29fc11764736f6c63430008070033",
					"opcodes": "PUSH1 0x80 PUSH1 0x40 MSTORE PUSH1 0x0 PUSH1 0x4 SSTORE PUSH1 0x0 PUSH1 0x5 SSTORE CALLVALUE DUP1 ISZERO PUSH3 0x1B JUMPI PUSH1 0x0 DUP1 REVERT JUMPDEST POP CALLER PUSH1 0x0 DUP1 PUSH2 0x100 EXP DUP2 SLOAD DUP2 PUSH20 0xFFFFFFFFFFFFFFFFFFFFFFFFFFFFFFFFFFFFFFFF MUL NOT AND SWAP1 DUP4 PUSH20 0xFFFFFFFFFFFFFFFFFFFFFFFFFFFFFFFFFFFFFFFF AND MUL OR SWAP1 SSTORE POP PUSH1 0x1 DUP1 PUSH1 0x0 DUP1 PUSH1 0x0 SWAP1 SLOAD SWAP1 PUSH2 0x100 EXP SWAP1 DIV PUSH20 0xFFFFFFFFFFFFFFFFFFFFFFFFFFFFFFFFFFFFFFFF AND PUSH20 0xFFFFFFFFFFFFFFFFFFFFFFFFFFFFFFFFFFFFFFFF AND PUSH20 0xFFFFFFFFFFFFFFFFFFFFFFFFFFFFFFFFFFFFFFFF AND DUP2 MSTORE PUSH1 0x20 ADD SWAP1 DUP2 MSTORE PUSH1 0x20 ADD PUSH1 0x0 KECCAK256 PUSH1 0x0 ADD DUP2 SWAP1 SSTORE POP PUSH1 0x0 PUSH1 0x40 MLOAD DUP1 PUSH1 0xA0 ADD PUSH1 0x40 MSTORE DUP1 PUSH1 0x40 MLOAD DUP1 PUSH1 0x40 ADD PUSH1 0x40 MSTORE DUP1 PUSH1 0x1 DUP2 MSTORE PUSH1 0x20 ADD PUSH32 0x6100000000000000000000000000000000000000000000000000000000000000 DUP2 MSTORE POP DUP2 MSTORE PUSH1 0x20 ADD PUSH1 0x40 MLOAD DUP1 PUSH1 0x40 ADD PUSH1 0x40 MSTORE DUP1 PUSH1 0x1 DUP2 MSTORE PUSH1 0x20 ADD PUSH32 0x6200000000000000000000000000000000000000000000000000000000000000 DUP2 MSTORE POP DUP2 MSTORE PUSH1 0x20 ADD PUSH1 0x40 MLOAD DUP1 PUSH1 0x40 ADD PUSH1 0x40 MSTORE DUP1 PUSH1 0x1 DUP2 MSTORE PUSH1 0x20 ADD PUSH32 0x6300000000000000000000000000000000000000000000000000000000000000 DUP2 MSTORE POP DUP2 MSTORE PUSH1 0x20 ADD PUSH1 0x40 MLOAD DUP1 PUSH1 0x40 ADD PUSH1 0x40 MSTORE DUP1 PUSH1 0x1 DUP2 MSTORE PUSH1 0x20 ADD PUSH32 0x6400000000000000000000000000000000000000000000000000000000000000 DUP2 MSTORE POP DUP2 MSTORE PUSH1 0x20 ADD PUSH1 0x40 MLOAD DUP1 PUSH1 0x40 ADD PUSH1 0x40 MSTORE DUP1 PUSH1 0x1 DUP2 MSTORE PUSH1 0x20 ADD PUSH32 0x6500000000000000000000000000000000000000000000000000000000000000 DUP2 MSTORE POP DUP2 MSTORE POP SWAP1 POP PUSH1 0x5 DUP1 EQ PUSH3 0x23E JUMPI PUSH1 0x40 MLOAD PUSH32 0x8C379A000000000000000000000000000000000000000000000000000000000 DUP2 MSTORE PUSH1 0x4 ADD PUSH3 0x235 SWAP1 PUSH3 0x475 JUMP JUMPDEST PUSH1 0x40 MLOAD DUP1 SWAP2 SUB SWAP1 REVERT JUMPDEST PUSH1 0x0 JUMPDEST PUSH1 0x5 DUP2 LT ISZERO PUSH3 0x396 JUMPI PUSH1 0x2 PUSH1 0x40 MLOAD DUP1 PUSH2 0x180 ADD PUSH1 0x40 MSTORE DUP1 DUP5 DUP5 PUSH1 0x5 DUP2 LT PUSH3 0x26F JUMPI PUSH3 0x26E PUSH3 0x594 JUMP JUMPDEST JUMPDEST PUSH1 0x20 MUL ADD MLOAD DUP2 MSTORE PUSH1 0x20 ADD PUSH1 0x0 DUP2 MSTORE PUSH1 0x20 ADD PUSH1 0x0 DUP2 MSTORE PUSH1 0x20 ADD PUSH1 0x0 DUP2 MSTORE PUSH1 0x20 ADD PUSH1 0x0 DUP2 MSTORE PUSH1 0x20 ADD PUSH1 0x0 DUP2 MSTORE PUSH1 0x20 ADD PUSH1 0x0 DUP2 MSTORE PUSH1 0x20 ADD PUSH1 0x0 DUP2 MSTORE PUSH1 0x20 ADD PUSH1 0x0 DUP2 MSTORE PUSH1 0x20 ADD PUSH1 0x0 DUP2 MSTORE PUSH1 0x20 ADD PUSH1 0x0 DUP2 MSTORE PUSH1 0x20 ADD PUSH1 0x0 DUP2 MSTORE POP SWAP1 DUP1 PUSH1 0x1 DUP2 SLOAD ADD DUP1 DUP3 SSTORE DUP1 SWAP2 POP POP PUSH1 0x1 SWAP1 SUB SWAP1 PUSH1 0x0 MSTORE PUSH1 0x20 PUSH1 0x0 KECCAK256 SWAP1 PUSH1 0xC MUL ADD PUSH1 0x0 SWAP1 SWAP2 SWAP1 SWAP2 SWAP1 SWAP2 POP PUSH1 0x0 DUP3 ADD MLOAD DUP2 PUSH1 0x0 ADD SWAP1 DUP1 MLOAD SWAP1 PUSH1 0x20 ADD SWAP1 PUSH3 0x30B SWAP3 SWAP2 SWAP1 PUSH3 0x39E JUMP JUMPDEST POP PUSH1 0x20 DUP3 ADD MLOAD DUP2 PUSH1 0x1 ADD SSTORE PUSH1 0x40 DUP3 ADD MLOAD DUP2 PUSH1 0x2 ADD SSTORE PUSH1 0x60 DUP3 ADD MLOAD DUP2 PUSH1 0x3 ADD SSTORE PUSH1 0x80 DUP3 ADD MLOAD DUP2 PUSH1 0x4 ADD SSTORE PUSH1 0xA0 DUP3 ADD MLOAD DUP2 PUSH1 0x5 ADD SSTORE PUSH1 0xC0 DUP3 ADD MLOAD DUP2 PUSH1 0x6 ADD SSTORE PUSH1 0xE0 DUP3 ADD MLOAD DUP2 PUSH1 0x7 ADD SSTORE PUSH2 0x100 DUP3 ADD MLOAD DUP2 PUSH1 0x8 ADD SSTORE PUSH2 0x120 DUP3 ADD MLOAD DUP2 PUSH1 0x9 ADD SSTORE PUSH2 0x140 DUP3 ADD MLOAD DUP2 PUSH1 0xA ADD SSTORE PUSH2 0x160 DUP3 ADD MLOAD DUP2 PUSH1 0xB ADD SSTORE POP POP DUP1 DUP1 PUSH3 0x38D SWAP1 PUSH3 0x4E8 JUMP JUMPDEST SWAP2 POP POP PUSH3 0x241 JUMP JUMPDEST POP POP PUSH3 0x5EC JUMP JUMPDEST DUP3 DUP1 SLOAD PUSH3 0x3AC SWAP1 PUSH3 0x4B2 JUMP JUMPDEST SWAP1 PUSH1 0x0 MSTORE PUSH1 0x20 PUSH1 0x0 KECCAK256 SWAP1 PUSH1 0x1F ADD PUSH1 0x20 SWAP1 DIV DUP2 ADD SWAP3 DUP3 PUSH3 0x3D0 JUMPI PUSH1 0x0 DUP6 SSTORE PUSH3 0x41C JUMP JUMPDEST DUP3 PUSH1 0x1F LT PUSH3 0x3EB JUMPI DUP1 MLOAD PUSH1 0xFF NOT AND DUP4 DUP1 ADD OR DUP6 SSTORE PUSH3 0x41C JUMP JUMPDEST DUP3 DUP1 ADD PUSH1 0x1 ADD DUP6 SSTORE DUP3 ISZERO PUSH3 0x41C JUMPI SWAP2 DUP3 ADD JUMPDEST DUP3 DUP2 GT ISZERO PUSH3 0x41B JUMPI DUP3 MLOAD DUP3 SSTORE SWAP2 PUSH1 0x20 ADD SWAP2 SWAP1 PUSH1 0x1 ADD SWAP1 PUSH3 0x3FE JUMP JUMPDEST JUMPDEST POP SWAP1 POP PUSH3 0x42B SWAP2 SWAP1 PUSH3 0x42F JUMP JUMPDEST POP SWAP1 JUMP JUMPDEST JUMPDEST DUP1 DUP3 GT ISZERO PUSH3 0x44A JUMPI PUSH1 0x0 DUP2 PUSH1 0x0 SWAP1 SSTORE POP PUSH1 0x1 ADD PUSH3 0x430 JUMP JUMPDEST POP SWAP1 JUMP JUMPDEST PUSH1 0x0 PUSH3 0x45D PUSH1 0x15 DUP4 PUSH3 0x497 JUMP JUMPDEST SWAP2 POP PUSH3 0x46A DUP3 PUSH3 0x5C3 JUMP JUMPDEST PUSH1 0x20 DUP3 ADD SWAP1 POP SWAP2 SWAP1 POP JUMP JUMPDEST PUSH1 0x0 PUSH1 0x20 DUP3 ADD SWAP1 POP DUP2 DUP2 SUB PUSH1 0x0 DUP4 ADD MSTORE PUSH3 0x490 DUP2 PUSH3 0x44E JUMP JUMPDEST SWAP1 POP SWAP2 SWAP1 POP JUMP JUMPDEST PUSH1 0x0 DUP3 DUP3 MSTORE PUSH1 0x20 DUP3 ADD SWAP1 POP SWAP3 SWAP2 POP POP JUMP JUMPDEST PUSH1 0x0 DUP2 SWAP1 POP SWAP2 SWAP1 POP JUMP JUMPDEST PUSH1 0x0 PUSH1 0x2 DUP3 DIV SWAP1 POP PUSH1 0x1 DUP3 AND DUP1 PUSH3 0x4CB JUMPI PUSH1 0x7F DUP3 AND SWAP2 POP JUMPDEST PUSH1 0x20 DUP3 LT DUP2 EQ ISZERO PUSH3 0x4E2 JUMPI PUSH3 0x4E1 PUSH3 0x565 JUMP JUMPDEST JUMPDEST POP SWAP2 SWAP1 POP JUMP JUMPDEST PUSH1 0x0 PUSH3 0x4F5 DUP3 PUSH3 0x4A8 JUMP JUMPDEST SWAP2 POP PUSH32 0xFFFFFFFFFFFFFFFFFFFFFFFFFFFFFFFFFFFFFFFFFFFFFFFFFFFFFFFFFFFFFFFF DUP3 EQ ISZERO PUSH3 0x52B JUMPI PUSH3 0x52A PUSH3 0x536 JUMP JUMPDEST JUMPDEST PUSH1 0x1 DUP3 ADD SWAP1 POP SWAP2 SWAP1 POP JUMP JUMPDEST PUSH32 0x4E487B7100000000000000000000000000000000000000000000000000000000 PUSH1 0x0 MSTORE PUSH1 0x11 PUSH1 0x4 MSTORE PUSH1 0x24 PUSH1 0x0 REVERT JUMPDEST PUSH32 0x4E487B7100000000000000000000000000000000000000000000000000000000 PUSH1 0x0 MSTORE PUSH1 0x22 PUSH1 0x4 MSTORE PUSH1 0x24 PUSH1 0x0 REVERT JUMPDEST PUSH32 0x4E487B7100000000000000000000000000000000000000000000000000000000 PUSH1 0x0 MSTORE PUSH1 0x32 PUSH1 0x4 MSTORE PUSH1 0x24 PUSH1 0x0 REVERT JUMPDEST PUSH32 0x43616E64696461746573206D75737420626520352E0000000000000000000000 PUSH1 0x0 DUP3 ADD MSTORE POP JUMP JUMPDEST PUSH2 0x141C DUP1 PUSH3 0x5FC PUSH1 0x0 CODECOPY PUSH1 0x0 RETURN INVALID PUSH1 0x80 PUSH1 0x40 MSTORE CALLVALUE DUP1 ISZERO PUSH2 0x10 JUMPI PUSH1 0x0 DUP1 REVERT JUMPDEST POP PUSH1 0x4 CALLDATASIZE LT PUSH2 0x62 JUMPI PUSH1 0x0 CALLDATALOAD PUSH1 0xE0 SHR DUP1 PUSH4 0x5A9B0B89 EQ PUSH2 0x67 JUMPI DUP1 PUSH4 0x632A9A52 EQ PUSH2 0x85 JUMPI DUP1 PUSH4 0x937F6E77 EQ PUSH2 0x8F JUMPI DUP1 PUSH4 0xA3EC138D EQ PUSH2 0xAB JUMPI DUP1 PUSH4 0xCFA1F037 EQ PUSH2 0xDE JUMPI DUP1 PUSH4 0xD4E8FD2E EQ PUSH2 0xFC JUMPI JUMPDEST PUSH1 0x0 DUP1 REVERT JUMPDEST PUSH2 0x6F PUSH2 0x12C JUMP JUMPDEST PUSH1 0x40 MLOAD PUSH2 0x7C SWAP2 SWAP1 PUSH2 0xEA2 JUMP JUMPDEST PUSH1 0x40 MLOAD DUP1 SWAP2 SUB SWAP1 RETURN JUMPDEST PUSH2 0x8D PUSH2 0x1BE JUMP JUMPDEST STOP JUMPDEST PUSH2 0xA9 PUSH1 0x4 DUP1 CALLDATASIZE SUB DUP2 ADD SWAP1 PUSH2 0xA4 SWAP2 SWAP1 PUSH2 0xBD8 JUMP JUMPDEST PUSH2 0x7BF JUMP JUMPDEST STOP JUMPDEST PUSH2 0xC5 PUSH1 0x4 DUP1 CALLDATASIZE SUB DUP2 ADD SWAP1 PUSH2 0xC0 SWAP2 SWAP1 PUSH2 0xBAB JUMP JUMPDEST PUSH2 0x7D9 JUMP JUMPDEST PUSH1 0x40 MLOAD PUSH2 0xD5 SWAP5 SWAP4 SWAP3 SWAP2 SWAP1 PUSH2 0xF41 JUMP JUMPDEST PUSH1 0x40 MLOAD DUP1 SWAP2 SUB SWAP1 RETURN JUMPDEST PUSH2 0xE6 PUSH2 0x816 JUMP JUMPDEST PUSH1 0x40 MLOAD PUSH2 0xF3 SWAP2 SWAP1 PUSH2 0xF26 JUMP JUMPDEST PUSH1 0x40 MLOAD DUP1 SWAP2 SUB SWAP1 RETURN JUMPDEST PUSH2 0x116 PUSH1 0x4 DUP1 CALLDATASIZE SUB DUP2 ADD SWAP1 PUSH2 0x111 SWAP2 SWAP1 PUSH2 0xC21 JUMP JUMPDEST PUSH2 0x857 JUMP JUMPDEST PUSH1 0x40 MLOAD PUSH2 0x123 SWAP2 SWAP1 PUSH2 0xF04 JUMP JUMPDEST PUSH1 0x40 MLOAD DUP1 SWAP2 SUB SWAP1 RETURN JUMPDEST PUSH1 0x60 PUSH1 0x3 DUP1 SLOAD PUSH2 0x13B SWAP1 PUSH2 0x1187 JUMP JUMPDEST DUP1 PUSH1 0x1F ADD PUSH1 0x20 DUP1 SWAP2 DIV MUL PUSH1 0x20 ADD PUSH1 0x40 MLOAD SWAP1 DUP2 ADD PUSH1 0x40 MSTORE DUP1 SWAP3 SWAP2 SWAP1 DUP2 DUP2 MSTORE PUSH1 0x20 ADD DUP3 DUP1 SLOAD PUSH2 0x167 SWAP1 PUSH2 0x1187 JUMP JUMPDEST DUP1 ISZERO PUSH2 0x1B4 JUMPI DUP1 PUSH1 0x1F LT PUSH2 0x189 JUMPI PUSH2 0x100 DUP1 DUP4 SLOAD DIV MUL DUP4 MSTORE SWAP2 PUSH1 0x20 ADD SWAP2 PUSH2 0x1B4 JUMP JUMPDEST DUP3 ADD SWAP2 SWAP1 PUSH1 0x0 MSTORE PUSH1 0x20 PUSH1 0x0 KECCAK256 SWAP1 JUMPDEST DUP2 SLOAD DUP2 MSTORE SWAP1 PUSH1 0x1 ADD SWAP1 PUSH1 0x20 ADD DUP1 DUP4 GT PUSH2 0x197 JUMPI DUP3 SWAP1 SUB PUSH1 0x1F AND DUP3 ADD SWAP2 JUMPDEST POP POP POP POP POP SWAP1 POP SWAP1 JUMP JUMPDEST PUSH1 0x1 PUSH1 0x0 CALLER PUSH20 0xFFFFFFFFFFFFFFFFFFFFFFFFFFFFFFFFFFFFFFFF AND PUSH20 0xFFFFFFFFFFFFFFFFFFFFFFFFFFFFFFFFFFFFFFFF AND DUP2 MSTORE PUSH1 0x20 ADD SWAP1 DUP2 MSTORE PUSH1 0x20 ADD PUSH1 0x0 KECCAK256 PUSH1 0x1 ADD PUSH1 0x0 SWAP1 SLOAD SWAP1 PUSH2 0x100 EXP SWAP1 DIV PUSH1 0xFF AND ISZERO PUSH2 0x24E JUMPI PUSH1 0x40 MLOAD PUSH32 0x8C379A000000000000000000000000000000000000000000000000000000000 DUP2 MSTORE PUSH1 0x4 ADD PUSH2 0x245 SWAP1 PUSH2 0xEE4 JUMP JUMPDEST PUSH1 0x40 MLOAD DUP1 SWAP2 SUB SWAP1 REVERT JUMPDEST PUSH1 0x0 PUSH1 0x1 PUSH1 0x0 CALLER PUSH20 0xFFFFFFFFFFFFFFFFFFFFFFFFFFFFFFFFFFFFFFFF AND PUSH20 0xFFFFFFFFFFFFFFFFFFFFFFFFFFFFFFFFFFFFFFFF AND DUP2 MSTORE PUSH1 0x20 ADD SWAP1 DUP2 MSTORE PUSH1 0x20 ADD PUSH1 0x0 KECCAK256 PUSH1 0x0 ADD SLOAD EQ PUSH2 0x29D JUMPI PUSH1 0x0 DUP1 REVERT JUMPDEST PUSH1 0x1 DUP1 PUSH1 0x0 CALLER PUSH20 0xFFFFFFFFFFFFFFFFFFFFFFFFFFFFFFFFFFFFFFFF AND PUSH20 0xFFFFFFFFFFFFFFFFFFFFFFFFFFFFFFFFFFFFFFFF AND DUP2 MSTORE PUSH1 0x20 ADD SWAP1 DUP2 MSTORE PUSH1 0x20 ADD PUSH1 0x0 KECCAK256 PUSH1 0x0 ADD DUP2 SWAP1 SSTORE POP PUSH2 0x2EC PUSH2 0x994 JUMP JUMPDEST PUSH2 0x2F4 PUSH2 0x9B0 JUMP JUMPDEST PUSH1 0x1 PUSH1 0x0 CALLER PUSH20 0xFFFFFFFFFFFFFFFFFFFFFFFFFFFFFFFFFFFFFFFF AND PUSH20 0xFFFFFFFFFFFFFFFFFFFFFFFFFFFFFFFFFFFFFFFF AND DUP2 MSTORE PUSH1 0x20 ADD SWAP1 DUP2 MSTORE PUSH1 0x20 ADD PUSH1 0x0 KECCAK256 PUSH1 0x2 ADD DUP2 SWAP1 SSTORE POP PUSH1 0x0 PUSH1 0x1 PUSH1 0x0 CALLER PUSH20 0xFFFFFFFFFFFFFFFFFFFFFFFFFFFFFFFFFFFFFFFF AND PUSH20 0xFFFFFFFFFFFFFFFFFFFFFFFFFFFFFFFFFFFFFFFF AND DUP2 MSTORE PUSH1 0x20 ADD SWAP1 DUP2 MSTORE PUSH1 0x20 ADD PUSH1 0x0 KECCAK256 SWAP1 POP DUP1 PUSH1 0x1 ADD PUSH1 0x0 SWAP1 SLOAD SWAP1 PUSH2 0x100 EXP SWAP1 DIV PUSH1 0xFF AND ISZERO PUSH2 0x3CF JUMPI PUSH1 0x40 MLOAD PUSH32 0x8C379A000000000000000000000000000000000000000000000000000000000 DUP2 MSTORE PUSH1 0x4 ADD PUSH2 0x3C6 SWAP1 PUSH2 0xEC4 JUMP JUMPDEST PUSH1 0x40 MLOAD DUP1 SWAP2 SUB SWAP1 REVERT JUMPDEST PUSH1 0x1 DUP2 PUSH1 0x1 ADD PUSH1 0x0 PUSH2 0x100 EXP DUP2 SLOAD DUP2 PUSH1 0xFF MUL NOT AND SWAP1 DUP4 ISZERO ISZERO MUL OR SWAP1 SSTORE POP PUSH2 0x3F4 PUSH2 0x816 JUMP JUMPDEST DUP2 PUSH1 0x3 ADD DUP2 SWAP1 SSTORE POP DUP1 PUSH1 0x0 ADD SLOAD PUSH1 0x2 PUSH2 0x40B PUSH2 0x816 JUMP JUMPDEST DUP2 SLOAD DUP2 LT PUSH2 0x41C JUMPI PUSH2 0x41B PUSH2 0x12D6 JUMP JUMPDEST JUMPDEST SWAP1 PUSH1 0x0 MSTORE PUSH1 0x20 PUSH1 0x0 KECCAK256 SWAP1 PUSH1 0xC MUL ADD PUSH1 0x1 ADD PUSH1 0x0 DUP3 DUP3 SLOAD PUSH2 0x43C SWAP2 SWAP1 PUSH2 0x109D JUMP JUMPDEST SWAP3 POP POP DUP2 SWAP1 SSTORE POP PUSH1 0x0 DUP2 PUSH1 0x2 ADD SLOAD EQ ISZERO PUSH2 0x49C JUMPI DUP1 PUSH1 0x0 ADD SLOAD PUSH1 0x2 PUSH2 0x45F PUSH2 0x816 JUMP JUMPDEST DUP2 SLOAD DUP2 LT PUSH2 0x470 JUMPI PUSH2 0x46F PUSH2 0x12D6 JUMP JUMPDEST JUMPDEST SWAP1 PUSH1 0x0 MSTORE PUSH1 0x20 PUSH1 0x0 KECCAK256 SWAP1 PUSH1 0xC MUL ADD PUSH1 0x2 ADD PUSH1 0x0 DUP3 DUP3 SLOAD PUSH2 0x490 SWAP2 SWAP1 PUSH2 0x109D JUMP JUMPDEST SWAP3 POP POP DUP2 SWAP1 SSTORE POP PUSH2 0x7B4 JUMP JUMPDEST PUSH1 0x1 DUP2 PUSH1 0x2 ADD SLOAD EQ ISZERO PUSH2 0x4F5 JUMPI DUP1 PUSH1 0x0 ADD SLOAD PUSH1 0x2 PUSH2 0x4B8 PUSH2 0x816 JUMP JUMPDEST DUP2 SLOAD DUP2 LT PUSH2 0x4C9 JUMPI PUSH2 0x4C8 PUSH2 0x12D6 JUMP JUMPDEST JUMPDEST SWAP1 PUSH1 0x0 MSTORE PUSH1 0x20 PUSH1 0x0 KECCAK256 SWAP1 PUSH1 0xC MUL ADD PUSH1 0x3 ADD PUSH1 0x0 DUP3 DUP3 SLOAD PUSH2 0x4E9 SWAP2 SWAP1 PUSH2 0x109D JUMP JUMPDEST SWAP3 POP POP DUP2 SWAP1 SSTORE POP PUSH2 0x7B3 JUMP JUMPDEST PUSH1 0x2 DUP2 PUSH1 0x2 ADD SLOAD EQ ISZERO PUSH2 0x54E JUMPI DUP1 PUSH1 0x0 ADD SLOAD PUSH1 0x2 PUSH2 0x511 PUSH2 0x816 JUMP JUMPDEST DUP2 SLOAD DUP2 LT PUSH2 0x522 JUMPI PUSH2 0x521 PUSH2 0x12D6 JUMP JUMPDEST JUMPDEST SWAP1 PUSH1 0x0 MSTORE PUSH1 0x20 PUSH1 0x0 KECCAK256 SWAP1 PUSH1 0xC MUL ADD PUSH1 0x4 ADD PUSH1 0x0 DUP3 DUP3 SLOAD PUSH2 0x542 SWAP2 SWAP1 PUSH2 0x109D JUMP JUMPDEST SWAP3 POP POP DUP2 SWAP1 SSTORE POP PUSH2 0x7B2 JUMP JUMPDEST PUSH1 0x3 DUP2 PUSH1 0x2 ADD SLOAD EQ ISZERO PUSH2 0x5A7 JUMPI DUP1 PUSH1 0x0 ADD SLOAD PUSH1 0x2 PUSH2 0x56A PUSH2 0x816 JUMP JUMPDEST DUP2 SLOAD DUP2 LT PUSH2 0x57B JUMPI PUSH2 0x57A PUSH2 0x12D6 JUMP JUMPDEST JUMPDEST SWAP1 PUSH1 0x0 MSTORE PUSH1 0x20 PUSH1 0x0 KECCAK256 SWAP1 PUSH1 0xC MUL ADD PUSH1 0x5 ADD PUSH1 0x0 DUP3 DUP3 SLOAD PUSH2 0x59B SWAP2 SWAP1 PUSH2 0x109D JUMP JUMPDEST SWAP3 POP POP DUP2 SWAP1 SSTORE POP PUSH2 0x7B1 JUMP JUMPDEST PUSH1 0x4 DUP2 PUSH1 0x2 ADD SLOAD EQ ISZERO PUSH2 0x600 JUMPI DUP1 PUSH1 0x0 ADD SLOAD PUSH1 0x2 PUSH2 0x5C3 PUSH2 0x816 JUMP JUMPDEST DUP2 SLOAD DUP2 LT PUSH2 0x5D4 JUMPI PUSH2 0x5D3 PUSH2 0x12D6 JUMP JUMPDEST JUMPDEST SWAP1 PUSH1 0x0 MSTORE PUSH1 0x20 PUSH1 0x0 KECCAK256 SWAP1 PUSH1 0xC MUL ADD PUSH1 0x6 ADD PUSH1 0x0 DUP3 DUP3 SLOAD PUSH2 0x5F4 SWAP2 SWAP1 PUSH2 0x109D JUMP JUMPDEST SWAP3 POP POP DUP2 SWAP1 SSTORE POP PUSH2 0x7B0 JUMP JUMPDEST PUSH1 0x5 DUP2 PUSH1 0x2 ADD SLOAD EQ ISZERO PUSH2 0x659 JUMPI DUP1 PUSH1 0x0 ADD SLOAD PUSH1 0x2 PUSH2 0x61C PUSH2 0x816 JUMP JUMPDEST DUP2 SLOAD DUP2 LT PUSH2 0x62D JUMPI PUSH2 0x62C PUSH2 0x12D6 JUMP JUMPDEST JUMPDEST SWAP1 PUSH1 0x0 MSTORE PUSH1 0x20 PUSH1 0x0 KECCAK256 SWAP1 PUSH1 0xC MUL ADD PUSH1 0x7 ADD PUSH1 0x0 DUP3 DUP3 SLOAD PUSH2 0x64D SWAP2 SWAP1 PUSH2 0x109D JUMP JUMPDEST SWAP3 POP POP DUP2 SWAP1 SSTORE POP PUSH2 0x7AF JUMP JUMPDEST PUSH1 0x6 DUP2 PUSH1 0x2 ADD SLOAD EQ ISZERO PUSH2 0x6B2 JUMPI DUP1 PUSH1 0x0 ADD SLOAD PUSH1 0x2 PUSH2 0x675 PUSH2 0x816 JUMP JUMPDEST DUP2 SLOAD DUP2 LT PUSH2 0x686 JUMPI PUSH2 0x685 PUSH2 0x12D6 JUMP JUMPDEST JUMPDEST SWAP1 PUSH1 0x0 MSTORE PUSH1 0x20 PUSH1 0x0 KECCAK256 SWAP1 PUSH1 0xC MUL ADD PUSH1 0x8 ADD PUSH1 0x0 DUP3 DUP3 SLOAD PUSH2 0x6A6 SWAP2 SWAP1 PUSH2 0x109D JUMP JUMPDEST SWAP3 POP POP DUP2 SWAP1 SSTORE POP PUSH2 0x7AE JUMP JUMPDEST PUSH1 0x7 DUP2 PUSH1 0x2 ADD SLOAD EQ ISZERO PUSH2 0x70B JUMPI DUP1 PUSH1 0x0 ADD SLOAD PUSH1 0x2 PUSH2 0x6CE PUSH2 0x816 JUMP JUMPDEST DUP2 SLOAD DUP2 LT PUSH2 0x6DF JUMPI PUSH2 0x6DE PUSH2 0x12D6 JUMP JUMPDEST JUMPDEST SWAP1 PUSH1 0x0 MSTORE PUSH1 0x20 PUSH1 0x0 KECCAK256 SWAP1 PUSH1 0xC MUL ADD PUSH1 0x9 ADD PUSH1 0x0 DUP3 DUP3 SLOAD PUSH2 0x6FF SWAP2 SWAP1 PUSH2 0x109D JUMP JUMPDEST SWAP3 POP POP DUP2 SWAP1 SSTORE POP PUSH2 0x7AD JUMP JUMPDEST PUSH1 0x8 DUP2 PUSH1 0x2 ADD SLOAD EQ ISZERO PUSH2 0x764 JUMPI DUP1 PUSH1 0x0 ADD SLOAD PUSH1 0x2 PUSH2 0x727 PUSH2 0x816 JUMP JUMPDEST DUP2 SLOAD DUP2 LT PUSH2 0x738 JUMPI PUSH2 0x737 PUSH2 0x12D6 JUMP JUMPDEST JUMPDEST SWAP1 PUSH1 0x0 MSTORE PUSH1 0x20 PUSH1 0x0 KECCAK256 SWAP1 PUSH1 0xC MUL ADD PUSH1 0xA ADD PUSH1 0x0 DUP3 DUP3 SLOAD PUSH2 0x758 SWAP2 SWAP1 PUSH2 0x109D JUMP JUMPDEST SWAP3 POP POP DUP2 SWAP1 SSTORE POP PUSH2 0x7AC JUMP JUMPDEST DUP1 PUSH1 0x0 ADD SLOAD PUSH1 0x2 PUSH2 0x773 PUSH2 0x816 JUMP JUMPDEST DUP2 SLOAD DUP2 LT PUSH2 0x784 JUMPI PUSH2 0x783 PUSH2 0x12D6 JUMP JUMPDEST JUMPDEST SWAP1 PUSH1 0x0 MSTORE PUSH1 0x20 PUSH1 0x0 KECCAK256 SWAP1 PUSH1 0xC MUL ADD PUSH1 0xB ADD PUSH1 0x0 DUP3 DUP3 SLOAD PUSH2 0x7A4 SWAP2 SWAP1 PUSH2 0x109D JUMP JUMPDEST SWAP3 POP POP DUP2 SWAP1 SSTORE POP JUMPDEST JUMPDEST JUMPDEST JUMPDEST JUMPDEST JUMPDEST JUMPDEST JUMPDEST JUMPDEST PUSH2 0x7BC PUSH2 0x9F1 JUMP JUMPDEST POP JUMP JUMPDEST DUP1 PUSH1 0x3 SWAP1 DUP1 MLOAD SWAP1 PUSH1 0x20 ADD SWAP1 PUSH2 0x7D5 SWAP3 SWAP2 SWAP1 PUSH2 0xA0D JUMP JUMPDEST POP POP JUMP JUMPDEST PUSH1 0x1 PUSH1 0x20 MSTORE DUP1 PUSH1 0x0 MSTORE PUSH1 0x40 PUSH1 0x0 KECCAK256 PUSH1 0x0 SWAP2 POP SWAP1 POP DUP1 PUSH1 0x0 ADD SLOAD SWAP1 DUP1 PUSH1 0x1 ADD PUSH1 0x0 SWAP1 SLOAD SWAP1 PUSH2 0x100 EXP SWAP1 DIV PUSH1 0xFF AND SWAP1 DUP1 PUSH1 0x2 ADD SLOAD SWAP1 DUP1 PUSH1 0x3 ADD SLOAD SWAP1 POP DUP5 JUMP JUMPDEST PUSH1 0x0 PUSH1 0x5 TIMESTAMP DIFFICULTY CALLER PUSH1 0x40 MLOAD PUSH1 0x20 ADD PUSH2 0x82F SWAP4 SWAP3 SWAP2 SWAP1 PUSH2 0xE65 JUMP JUMPDEST PUSH1 0x40 MLOAD PUSH1 0x20 DUP2 DUP4 SUB SUB DUP2 MSTORE SWAP1 PUSH1 0x40 MSTORE DUP1 MLOAD SWAP1 PUSH1 0x20 ADD KECCAK256 PUSH1 0x0 SHR PUSH2 0x852 SWAP2 SWAP1 PUSH2 0x1218 JUMP JUMPDEST SWAP1 POP SWAP1 JUMP JUMPDEST PUSH2 0x85F PUSH2 0xA93 JUMP JUMPDEST PUSH1 0x2 DUP3 DUP2 SLOAD DUP2 LT PUSH2 0x873 JUMPI PUSH2 0x872 PUSH2 0x12D6 JUMP JUMPDEST JUMPDEST SWAP1 PUSH1 0x0 MSTORE PUSH1 0x20 PUSH1 0x0 KECCAK256 SWAP1 PUSH1 0xC MUL ADD PUSH1 0x40 MLOAD DUP1 PUSH2 0x180 ADD PUSH1 0x40 MSTORE SWAP1 DUP2 PUSH1 0x0 DUP3 ADD DUP1 SLOAD PUSH2 0x89D SWAP1 PUSH2 0x1187 JUMP JUMPDEST DUP1 PUSH1 0x1F ADD PUSH1 0x20 DUP1 SWAP2 DIV MUL PUSH1 0x20 ADD PUSH1 0x40 MLOAD SWAP1 DUP2 ADD PUSH1 0x40 MSTORE DUP1 SWAP3 SWAP2 SWAP1 DUP2 DUP2 MSTORE PUSH1 0x20 ADD DUP3 DUP1 SLOAD PUSH2 0x8C9 SWAP1 PUSH2 0x1187 JUMP JUMPDEST DUP1 ISZERO PUSH2 0x916 JUMPI DUP1 PUSH1 0x1F LT PUSH2 0x8EB JUMPI PUSH2 0x100 DUP1 DUP4 SLOAD DIV MUL DUP4 MSTORE SWAP2 PUSH1 0x20 ADD SWAP2 PUSH2 0x916 JUMP JUMPDEST DUP3 ADD SWAP2 SWAP1 PUSH1 0x0 MSTORE PUSH1 0x20 PUSH1 0x0 KECCAK256 SWAP1 JUMPDEST DUP2 SLOAD DUP2 MSTORE SWAP1 PUSH1 0x1 ADD SWAP1 PUSH1 0x20 ADD DUP1 DUP4 GT PUSH2 0x8F9 JUMPI DUP3 SWAP1 SUB PUSH1 0x1F AND DUP3 ADD SWAP2 JUMPDEST POP POP POP POP POP DUP2 MSTORE PUSH1 0x20 ADD PUSH1 0x1 DUP3 ADD SLOAD DUP2 MSTORE PUSH1 0x20 ADD PUSH1 0x2 DUP3 ADD SLOAD DUP2 MSTORE PUSH1 0x20 ADD PUSH1 0x3 DUP3 ADD SLOAD DUP2 MSTORE PUSH1 0x20 ADD PUSH1 0x4 DUP3 ADD SLOAD DUP2 MSTORE PUSH1 0x20 ADD PUSH1 0x5 DUP3 ADD SLOAD DUP2 MSTORE PUSH1 0x20 ADD PUSH1 0x6 DUP3 ADD SLOAD DUP2 MSTORE PUSH1 0x20 ADD PUSH1 0x7 DUP3 ADD SLOAD DUP2 MSTORE PUSH1 0x20 ADD PUSH1 0x8 DUP3 ADD SLOAD DUP2 MSTORE PUSH1 0x20 ADD PUSH1 0x9 DUP3 ADD SLOAD DUP2 MSTORE PUSH1 0x20 ADD PUSH1 0xA DUP3 ADD SLOAD DUP2 MSTORE PUSH1 0x20 ADD PUSH1 0xB DUP3 ADD SLOAD DUP2 MSTORE POP POP SWAP1 POP SWAP2 SWAP1 POP JUMP JUMPDEST PUSH1 0x1 PUSH1 0x4 PUSH1 0x0 DUP3 DUP3 SLOAD PUSH2 0x9A7 SWAP2 SWAP1 PUSH2 0x1009 JUMP JUMPDEST SWAP3 POP POP DUP2 SWAP1 SSTORE POP JUMP JUMPDEST PUSH1 0x0 PUSH1 0xA TIMESTAMP DIFFICULTY CALLER PUSH1 0x40 MLOAD PUSH1 0x20 ADD PUSH2 0x9C9 SWAP4 SWAP3 SWAP2 SWAP1 PUSH2 0xE65 JUMP JUMPDEST PUSH1 0x40 MLOAD PUSH1 0x20 DUP2 DUP4 SUB SUB DUP2 MSTORE SWAP1 PUSH1 0x40 MSTORE DUP1 MLOAD SWAP1 PUSH1 0x20 ADD KECCAK256 PUSH1 0x0 SHR PUSH2 0x9EC SWAP2 SWAP1 PUSH2 0x1218 JUMP JUMPDEST SWAP1 POP SWAP1 JUMP JUMPDEST PUSH1 0x1 PUSH1 0x5 PUSH1 0x0 DUP3 DUP3 SLOAD PUSH2 0xA04 SWAP2 SWAP1 PUSH2 0x1009 JUMP JUMPDEST SWAP3 POP POP DUP2 SWAP1 SSTORE POP JUMP JUMPDEST DUP3 DUP1 SLOAD PUSH2 0xA19 SWAP1 PUSH2 0x1187 JUMP JUMPDEST SWAP1 PUSH1 0x0 MSTORE PUSH1 0x20 PUSH1 0x0 KECCAK256 SWAP1 PUSH1 0x1F ADD PUSH1 0x20 SWAP1 DIV DUP2 ADD SWAP3 DUP3 PUSH2 0xA3B JUMPI PUSH1 0x0 DUP6 SSTORE PUSH2 0xA82 JUMP JUMPDEST DUP3 PUSH1 0x1F LT PUSH2 0xA54 JUMPI DUP1 MLOAD PUSH1 0xFF NOT AND DUP4 DUP1 ADD OR DUP6 SSTORE PUSH2 0xA82 JUMP JUMPDEST DUP3 DUP1 ADD PUSH1 0x1 ADD DUP6 SSTORE DUP3 ISZERO PUSH2 0xA82 JUMPI SWAP2 DUP3 ADD JUMPDEST DUP3 DUP2 GT ISZERO PUSH2 0xA81 JUMPI DUP3 MLOAD DUP3 SSTORE SWAP2 PUSH1 0x20 ADD SWAP2 SWAP1 PUSH1 0x1 ADD SWAP1 PUSH2 0xA66 JUMP JUMPDEST JUMPDEST POP SWAP1 POP PUSH2 0xA8F SWAP2 SWAP1 PUSH2 0xAF4 JUMP JUMPDEST POP SWAP1 JUMP JUMPDEST PUSH1 0x40 MLOAD DUP1 PUSH2 0x180 ADD PUSH1 0x40 MSTORE DUP1 PUSH1 0x60 DUP2 MSTORE PUSH1 0x20 ADD PUSH1 0x0 DUP2 MSTORE PUSH1 0x20 ADD PUSH1 0x0 DUP2 MSTORE PUSH1 0x20 ADD PUSH1 0x0 DUP2 MSTORE PUSH1 0x20 ADD PUSH1 0x0 DUP2 MSTORE PUSH1 0x20 ADD PUSH1 0x0 DUP2 MSTORE PUSH1 0x20 ADD PUSH1 0x0 DUP2 MSTORE PUSH1 0x20 ADD PUSH1 0x0 DUP2 MSTORE PUSH1 0x20 ADD PUSH1 0x0 DUP2 MSTORE PUSH1 0x20 ADD PUSH1 0x0 DUP2 MSTORE PUSH1 0x20 ADD PUSH1 0x0 DUP2 MSTORE PUSH1 0x20 ADD PUSH1 0x0 DUP2 MSTORE POP SWAP1 JUMP JUMPDEST JUMPDEST DUP1 DUP3 GT ISZERO PUSH2 0xB0D JUMPI PUSH1 0x0 DUP2 PUSH1 0x0 SWAP1 SSTORE POP PUSH1 0x1 ADD PUSH2 0xAF5 JUMP JUMPDEST POP SWAP1 JUMP JUMPDEST PUSH1 0x0 PUSH2 0xB24 PUSH2 0xB1F DUP5 PUSH2 0xFAB JUMP JUMPDEST PUSH2 0xF86 JUMP JUMPDEST SWAP1 POP DUP3 DUP2 MSTORE PUSH1 0x20 DUP2 ADD DUP5 DUP5 DUP5 ADD GT ISZERO PUSH2 0xB40 JUMPI PUSH2 0xB3F PUSH2 0x1339 JUMP JUMPDEST JUMPDEST PUSH2 0xB4B DUP5 DUP3 DUP6 PUSH2 0x1145 JUMP JUMPDEST POP SWAP4 SWAP3 POP POP POP JUMP JUMPDEST PUSH1 0x0 DUP2 CALLDATALOAD SWAP1 POP PUSH2 0xB62 DUP2 PUSH2 0x13B8 JUMP JUMPDEST SWAP3 SWAP2 POP POP JUMP JUMPDEST PUSH1 0x0 DUP3 PUSH1 0x1F DUP4 ADD SLT PUSH2 0xB7D JUMPI PUSH2 0xB7C PUSH2 0x1334 JUMP JUMPDEST JUMPDEST DUP2 CALLDATALOAD PUSH2 0xB8D DUP5 DUP3 PUSH1 0x20 DUP7 ADD PUSH2 0xB11 JUMP JUMPDEST SWAP2 POP POP SWAP3 SWAP2 POP POP JUMP JUMPDEST PUSH1 0x0 DUP2 CALLDATALOAD SWAP1 POP PUSH2 0xBA5 DUP2 PUSH2 0x13CF JUMP JUMPDEST SWAP3 SWAP2 POP POP JUMP JUMPDEST PUSH1 0x0 PUSH1 0x20 DUP3 DUP5 SUB SLT ISZERO PUSH2 0xBC1 JUMPI PUSH2 0xBC0 PUSH2 0x1343 JUMP JUMPDEST JUMPDEST PUSH1 0x0 PUSH2 0xBCF DUP5 DUP3 DUP6 ADD PUSH2 0xB53 JUMP JUMPDEST SWAP2 POP POP SWAP3 SWAP2 POP POP JUMP JUMPDEST PUSH1 0x0 PUSH1 0x20 DUP3 DUP5 SUB SLT ISZERO PUSH2 0xBEE JUMPI PUSH2 0xBED PUSH2 0x1343 JUMP JUMPDEST JUMPDEST PUSH1 0x0 DUP3 ADD CALLDATALOAD PUSH8 0xFFFFFFFFFFFFFFFF DUP2 GT ISZERO PUSH2 0xC0C JUMPI PUSH2 0xC0B PUSH2 0x133E JUMP JUMPDEST JUMPDEST PUSH2 0xC18 DUP5 DUP3 DUP6 ADD PUSH2 0xB68 JUMP JUMPDEST SWAP2 POP POP SWAP3 SWAP2 POP POP JUMP JUMPDEST PUSH1 0x0 PUSH1 0x20 DUP3 DUP5 SUB SLT ISZERO PUSH2 0xC37 JUMPI PUSH2 0xC36 PUSH2 0x1343 JUMP JUMPDEST JUMPDEST PUSH1 0x0 PUSH2 0xC45 DUP5 DUP3 DUP6 ADD PUSH2 0xB96 JUMP JUMPDEST SWAP2 POP POP SWAP3 SWAP2 POP POP JUMP JUMPDEST PUSH2 0xC5F PUSH2 0xC5A DUP3 PUSH2 0x10F3 JUMP JUMPDEST PUSH2 0x11EA JUMP JUMPDEST DUP3 MSTORE POP POP JUMP JUMPDEST PUSH2 0xC6E DUP2 PUSH2 0x1105 JUMP JUMPDEST DUP3 MSTORE POP POP JUMP JUMPDEST PUSH1 0x0 PUSH2 0xC7F DUP3 PUSH2 0xFDC JUMP JUMPDEST PUSH2 0xC89 DUP2 DUP6 PUSH2 0xFE7 JUMP JUMPDEST SWAP4 POP PUSH2 0xC99 DUP2 DUP6 PUSH1 0x20 DUP7 ADD PUSH2 0x1154 JUMP JUMPDEST PUSH2 0xCA2 DUP2 PUSH2 0x1348 JUMP JUMPDEST DUP5 ADD SWAP2 POP POP SWAP3 SWAP2 POP POP JUMP JUMPDEST PUSH1 0x0 PUSH2 0xCB8 DUP3 PUSH2 0xFDC JUMP JUMPDEST PUSH2 0xCC2 DUP2 DUP6 PUSH2 0xFF8 JUMP JUMPDEST SWAP4 POP PUSH2 0xCD2 DUP2 DUP6 PUSH1 0x20 DUP7 ADD PUSH2 0x1154 JUMP JUMPDEST PUSH2 0xCDB DUP2 PUSH2 0x1348 JUMP JUMPDEST DUP5 ADD SWAP2 POP POP SWAP3 SWAP2 POP POP JUMP JUMPDEST PUSH1 0x0 PUSH2 0xCF3 PUSH1 0xE DUP4 PUSH2 0xFF8 JUMP JUMPDEST SWAP2 POP PUSH2 0xCFE DUP3 PUSH2 0x1366 JUMP JUMPDEST PUSH1 0x20 DUP3 ADD SWAP1 POP SWAP2 SWAP1 POP JUMP JUMPDEST PUSH1 0x0 PUSH2 0xD16 PUSH1 0x18 DUP4 PUSH2 0xFF8 JUMP JUMPDEST SWAP2 POP PUSH2 0xD21 DUP3 PUSH2 0x138F JUMP JUMPDEST PUSH1 0x20 DUP3 ADD SWAP1 POP SWAP2 SWAP1 POP JUMP JUMPDEST PUSH1 0x0 PUSH2 0x180 DUP4 ADD PUSH1 0x0 DUP4 ADD MLOAD DUP5 DUP3 SUB PUSH1 0x0 DUP7 ADD MSTORE PUSH2 0xD4A DUP3 DUP3 PUSH2 0xC74 JUMP JUMPDEST SWAP2 POP POP PUSH1 0x20 DUP4 ADD MLOAD PUSH2 0xD5F PUSH1 0x20 DUP7 ADD DUP3 PUSH2 0xE30 JUMP JUMPDEST POP PUSH1 0x40 DUP4 ADD MLOAD PUSH2 0xD72 PUSH1 0x40 DUP7 ADD DUP3 PUSH2 0xE30 JUMP JUMPDEST POP PUSH1 0x60 DUP4 ADD MLOAD PUSH2 0xD85 PUSH1 0x60 DUP7 ADD DUP3 PUSH2 0xE30 JUMP JUMPDEST POP PUSH1 0x80 DUP4 ADD MLOAD PUSH2 0xD98 PUSH1 0x80 DUP7 ADD DUP3 PUSH2 0xE30 JUMP JUMPDEST POP PUSH1 0xA0 DUP4 ADD MLOAD PUSH2 0xDAB PUSH1 0xA0 DUP7 ADD DUP3 PUSH2 0xE30 JUMP JUMPDEST POP PUSH1 0xC0 DUP4 ADD MLOAD PUSH2 0xDBE PUSH1 0xC0 DUP7 ADD DUP3 PUSH2 0xE30 JUMP JUMPDEST POP PUSH1 0xE0 DUP4 ADD MLOAD PUSH2 0xDD1 PUSH1 0xE0 DUP7 ADD DUP3 PUSH2 0xE30 JUMP JUMPDEST POP PUSH2 0x100 DUP4 ADD MLOAD PUSH2 0xDE6 PUSH2 0x100 DUP7 ADD DUP3 PUSH2 0xE30 JUMP JUMPDEST POP PUSH2 0x120 DUP4 ADD MLOAD PUSH2 0xDFB PUSH2 0x120 DUP7 ADD DUP3 PUSH2 0xE30 JUMP JUMPDEST POP PUSH2 0x140 DUP4 ADD MLOAD PUSH2 0xE10 PUSH2 0x140 DUP7 ADD DUP3 PUSH2 0xE30 JUMP JUMPDEST POP PUSH2 0x160 DUP4 ADD MLOAD PUSH2 0xE25 PUSH2 0x160 DUP7 ADD DUP3 PUSH2 0xE30 JUMP JUMPDEST POP DUP1 SWAP2 POP POP SWAP3 SWAP2 POP POP JUMP JUMPDEST PUSH2 0xE39 DUP2 PUSH2 0x113B JUMP JUMPDEST DUP3 MSTORE POP POP JUMP JUMPDEST PUSH2 0xE48 DUP2 PUSH2 0x113B JUMP JUMPDEST DUP3 MSTORE POP POP JUMP JUMPDEST PUSH2 0xE5F PUSH2 0xE5A DUP3 PUSH2 0x113B JUMP JUMPDEST PUSH2 0x120E JUMP JUMPDEST DUP3 MSTORE POP POP JUMP JUMPDEST PUSH1 0x0 PUSH2 0xE71 DUP3 DUP7 PUSH2 0xE4E JUMP JUMPDEST PUSH1 0x20 DUP3 ADD SWAP2 POP PUSH2 0xE81 DUP3 DUP6 PUSH2 0xE4E JUMP JUMPDEST PUSH1 0x20 DUP3 ADD SWAP2 POP PUSH2 0xE91 DUP3 DUP5 PUSH2 0xC4E JUMP JUMPDEST PUSH1 0x14 DUP3 ADD SWAP2 POP DUP2 SWAP1 POP SWAP5 SWAP4 POP POP POP POP JUMP JUMPDEST PUSH1 0x0 PUSH1 0x20 DUP3 ADD SWAP1 POP DUP2 DUP2 SUB PUSH1 0x0 DUP4 ADD MSTORE PUSH2 0xEBC DUP2 DUP5 PUSH2 0xCAD JUMP JUMPDEST SWAP1 POP SWAP3 SWAP2 POP POP JUMP JUMPDEST PUSH1 0x0 PUSH1 0x20 DUP3 ADD SWAP1 POP DUP2 DUP2 SUB PUSH1 0x0 DUP4 ADD MSTORE PUSH2 0xEDD DUP2 PUSH2 0xCE6 JUMP JUMPDEST SWAP1 POP SWAP2 SWAP1 POP JUMP JUMPDEST PUSH1 0x0 PUSH1 0x20 DUP3 ADD SWAP1 POP DUP2 DUP2 SUB PUSH1 0x0 DUP4 ADD MSTORE PUSH2 0xEFD DUP2 PUSH2 0xD09 JUMP JUMPDEST SWAP1 POP SWAP2 SWAP1 POP JUMP JUMPDEST PUSH1 0x0 PUSH1 0x20 DUP3 ADD SWAP1 POP DUP2 DUP2 SUB PUSH1 0x0 DUP4 ADD MSTORE PUSH2 0xF1E DUP2 DUP5 PUSH2 0xD2C JUMP JUMPDEST SWAP1 POP SWAP3 SWAP2 POP POP JUMP JUMPDEST PUSH1 0x0 PUSH1 0x20 DUP3 ADD SWAP1 POP PUSH2 0xF3B PUSH1 0x0 DUP4 ADD DUP5 PUSH2 0xE3F JUMP JUMPDEST SWAP3 SWAP2 POP POP JUMP JUMPDEST PUSH1 0x0 PUSH1 0x80 DUP3 ADD SWAP1 POP PUSH2 0xF56 PUSH1 0x0 DUP4 ADD DUP8 PUSH2 0xE3F JUMP JUMPDEST PUSH2 0xF63 PUSH1 0x20 DUP4 ADD DUP7 PUSH2 0xC65 JUMP JUMPDEST PUSH2 0xF70 PUSH1 0x40 DUP4 ADD DUP6 PUSH2 0xE3F JUMP JUMPDEST PUSH2 0xF7D PUSH1 0x60 DUP4 ADD DUP5 PUSH2 0xE3F JUMP JUMPDEST SWAP6 SWAP5 POP POP POP POP POP JUMP JUMPDEST PUSH1 0x0 PUSH2 0xF90 PUSH2 0xFA1 JUMP JUMPDEST SWAP1 POP PUSH2 0xF9C DUP3 DUP3 PUSH2 0x11B9 JUMP JUMPDEST SWAP2 SWAP1 POP JUMP JUMPDEST PUSH1 0x0 PUSH1 0x40 MLOAD SWAP1 POP SWAP1 JUMP JUMPDEST PUSH1 0x0 PUSH8 0xFFFFFFFFFFFFFFFF DUP3 GT ISZERO PUSH2 0xFC6 JUMPI PUSH2 0xFC5 PUSH2 0x1305 JUMP JUMPDEST JUMPDEST PUSH2 0xFCF DUP3 PUSH2 0x1348 JUMP JUMPDEST SWAP1 POP PUSH1 0x20 DUP2 ADD SWAP1 POP SWAP2 SWAP1 POP JUMP JUMPDEST PUSH1 0x0 DUP2 MLOAD SWAP1 POP SWAP2 SWAP1 POP JUMP JUMPDEST PUSH1 0x0 DUP3 DUP3 MSTORE PUSH1 0x20 DUP3 ADD SWAP1 POP SWAP3 SWAP2 POP POP JUMP JUMPDEST PUSH1 0x0 DUP3 DUP3 MSTORE PUSH1 0x20 DUP3 ADD SWAP1 POP SWAP3 SWAP2 POP POP JUMP JUMPDEST PUSH1 0x0 PUSH2 0x1014 DUP3 PUSH2 0x1111 JUMP JUMPDEST SWAP2 POP PUSH2 0x101F DUP4 PUSH2 0x1111 JUMP JUMPDEST SWAP3 POP DUP2 PUSH32 0x7FFFFFFFFFFFFFFFFFFFFFFFFFFFFFFFFFFFFFFFFFFFFFFFFFFFFFFFFFFFFFFF SUB DUP4 SGT PUSH1 0x0 DUP4 SLT ISZERO AND ISZERO PUSH2 0x105A JUMPI PUSH2 0x1059 PUSH2 0x1249 JUMP JUMPDEST JUMPDEST DUP2 PUSH32 0x8000000000000000000000000000000000000000000000000000000000000000 SUB DUP4 SLT PUSH1 0x0 DUP4 SLT AND ISZERO PUSH2 0x1092 JUMPI PUSH2 0x1091 PUSH2 0x1249 JUMP JUMPDEST JUMPDEST DUP3 DUP3 ADD SWAP1 POP SWAP3 SWAP2 POP POP JUMP JUMPDEST PUSH1 0x0 PUSH2 0x10A8 DUP3 PUSH2 0x113B JUMP JUMPDEST SWAP2 POP PUSH2 0x10B3 DUP4 PUSH2 0x113B JUMP JUMPDEST SWAP3 POP DUP3 PUSH32 0xFFFFFFFFFFFFFFFFFFFFFFFFFFFFFFFFFFFFFFFFFFFFFFFFFFFFFFFFFFFFFFFF SUB DUP3 GT ISZERO PUSH2 0x10E8 JUMPI PUSH2 0x10E7 PUSH2 0x1249 JUMP JUMPDEST JUMPDEST DUP3 DUP3 ADD SWAP1 POP SWAP3 SWAP2 POP POP JUMP JUMPDEST PUSH1 0x0 PUSH2 0x10FE DUP3 PUSH2 0x111B JUMP JUMPDEST SWAP1 POP SWAP2 SWAP1 POP JUMP JUMPDEST PUSH1 0x0 DUP2 ISZERO ISZERO SWAP1 POP SWAP2 SWAP1 POP JUMP JUMPDEST PUSH1 0x0 DUP2 SWAP1 POP SWAP2 SWAP1 POP JUMP JUMPDEST PUSH1 0x0 PUSH20 0xFFFFFFFFFFFFFFFFFFFFFFFFFFFFFFFFFFFFFFFF DUP3 AND SWAP1 POP SWAP2 SWAP1 POP JUMP JUMPDEST PUSH1 0x0 DUP2 SWAP1 POP SWAP2 SWAP1 POP JUMP JUMPDEST DUP3 DUP2 DUP4 CALLDATACOPY PUSH1 0x0 DUP4 DUP4 ADD MSTORE POP POP POP JUMP JUMPDEST PUSH1 0x0 JUMPDEST DUP4 DUP2 LT ISZERO PUSH2 0x1172 JUMPI DUP1 DUP3 ADD MLOAD DUP2 DUP5 ADD MSTORE PUSH1 0x20 DUP2 ADD SWAP1 POP PUSH2 0x1157 JUMP JUMPDEST DUP4 DUP2 GT ISZERO PUSH2 0x1181 JUMPI PUSH1 0x0 DUP5 DUP5 ADD MSTORE JUMPDEST POP POP POP POP JUMP JUMPDEST PUSH1 0x0 PUSH1 0x2 DUP3 DIV SWAP1 POP PUSH1 0x1 DUP3 AND DUP1 PUSH2 0x119F JUMPI PUSH1 0x7F DUP3 AND SWAP2 POP JUMPDEST PUSH1 0x20 DUP3 LT DUP2 EQ ISZERO PUSH2 0x11B3 JUMPI PUSH2 0x11B2 PUSH2 0x12A7 JUMP JUMPDEST JUMPDEST POP SWAP2 SWAP1 POP JUMP JUMPDEST PUSH2 0x11C2 DUP3 PUSH2 0x1348 JUMP JUMPDEST DUP2 ADD DUP2 DUP2 LT PUSH8 0xFFFFFFFFFFFFFFFF DUP3 GT OR ISZERO PUSH2 0x11E1 JUMPI PUSH2 0x11E0 PUSH2 0x1305 JUMP JUMPDEST JUMPDEST DUP1 PUSH1 0x40 MSTORE POP POP POP JUMP JUMPDEST PUSH1 0x0 PUSH2 0x11F5 DUP3 PUSH2 0x11FC JUMP JUMPDEST SWAP1 POP SWAP2 SWAP1 POP JUMP JUMPDEST PUSH1 0x0 PUSH2 0x1207 DUP3 PUSH2 0x1359 JUMP JUMPDEST SWAP1 POP SWAP2 SWAP1 POP JUMP JUMPDEST PUSH1 0x0 DUP2 SWAP1 POP SWAP2 SWAP1 POP JUMP JUMPDEST PUSH1 0x0 PUSH2 0x1223 DUP3 PUSH2 0x113B JUMP JUMPDEST SWAP2 POP PUSH2 0x122E DUP4 PUSH2 0x113B JUMP JUMPDEST SWAP3 POP DUP3 PUSH2 0x123E JUMPI PUSH2 0x123D PUSH2 0x1278 JUMP JUMPDEST JUMPDEST DUP3 DUP3 MOD SWAP1 POP SWAP3 SWAP2 POP POP JUMP JUMPDEST PUSH32 0x4E487B7100000000000000000000000000000000000000000000000000000000 PUSH1 0x0 MSTORE PUSH1 0x11 PUSH1 0x4 MSTORE PUSH1 0x24 PUSH1 0x0 REVERT JUMPDEST PUSH32 0x4E487B7100000000000000000000000000000000000000000000000000000000 PUSH1 0x0 MSTORE PUSH1 0x12 PUSH1 0x4 MSTORE PUSH1 0x24 PUSH1 0x0 REVERT JUMPDEST PUSH32 0x4E487B7100000000000000000000000000000000000000000000000000000000 PUSH1 0x0 MSTORE PUSH1 0x22 PUSH1 0x4 MSTORE PUSH1 0x24 PUSH1 0x0 REVERT JUMPDEST PUSH32 0x4E487B7100000000000000000000000000000000000000000000000000000000 PUSH1 0x0 MSTORE PUSH1 0x32 PUSH1 0x4 MSTORE PUSH1 0x24 PUSH1 0x0 REVERT JUMPDEST PUSH32 0x4E487B7100000000000000000000000000000000000000000000000000000000 PUSH1 0x0 MSTORE PUSH1 0x41 PUSH1 0x4 MSTORE PUSH1 0x24 PUSH1 0x0 REVERT JUMPDEST PUSH1 0x0 DUP1 REVERT JUMPDEST PUSH1 0x0 DUP1 REVERT JUMPDEST PUSH1 0x0 DUP1 REVERT JUMPDEST PUSH1 0x0 DUP1 REVERT JUMPDEST PUSH1 0x0 PUSH1 0x1F NOT PUSH1 0x1F DUP4 ADD AND SWAP1 POP SWAP2 SWAP1 POP JUMP JUMPDEST PUSH1 0x0 DUP2 PUSH1 0x60 SHL SWAP1 POP SWAP2 SWAP1 POP JUMP JUMPDEST PUSH32 0x416C726561647920766F7465642E000000000000000000000000000000000000 PUSH1 0x0 DUP3 ADD MSTORE POP JUMP JUMPDEST PUSH32 0x54686520766F74657220616C726561647920766F7465642E0000000000000000 PUSH1 0x0 DUP3 ADD MSTORE POP JUMP JUMPDEST PUSH2 0x13C1 DUP2 PUSH2 0x10F3 JUMP JUMPDEST DUP2 EQ PUSH2 0x13CC JUMPI PUSH1 0x0 DUP1 REVERT JUMPDEST POP JUMP JUMPDEST PUSH2 0x13D8 DUP2 PUSH2 0x113B JUMP JUMPDEST DUP2 EQ PUSH2 0x13E3 JUMPI PUSH1 0x0 DUP1 REVERT JUMPDEST POP JUMP INVALID LOG2 PUSH5 0x6970667358 0x22 SLT KECCAK256 JUMPDEST 0xAB 0xBD DUP15 0xD6 SWAP10 0x5F GASLIMIT SDIV 0xF 0xCC 0xB8 0xD8 0xD9 PUSH20 0x99E055463DC910D0DABD84C79E29FC11764736F PUSH13 0x63430008070033000000000000 "
				},
				"gasEstimates": {
					"creation": {
						"codeDepositCost": "1029600",
						"executionCost": "infinite",
						"totalCost": "infinite"
					},
					"external": {
						"getInfo()": "infinite",
						"random_vote()": "infinite",
						"res(uint256)": "infinite",
						"setInfo(string)": "infinite",
						"vote()": "infinite",
						"voters(address)": "infinite"
					},
					"internal": {
						"incrementCounter()": "infinite",
						"incrementCounter2()": "infinite",
						"random_district()": "infinite"
					}
				},
				"methodIdentifiers": {
					"getInfo()": "5a9b0b89",
					"random_vote()": "cfa1f037",
					"res(uint256)": "d4e8fd2e",
					"setInfo(string)": "937f6e77",
					"vote()": "632a9a52",
					"voters(address)": "a3ec138d"
				}
			},
			"storageLayout": {
				"storage": [
					{
						"astId": 38,
						"contract": "smartContract/contracts/3_Ballot.sol:Ballot",
						"label": "chairperson",
						"offset": 0,
						"slot": "0",
						"type": "t_address"
					},
					{
						"astId": 43,
						"contract": "smartContract/contracts/3_Ballot.sol:Ballot",
						"label": "voters",
						"offset": 0,
						"slot": "1",
						"type": "t_mapping(t_address,t_struct(Voter)11_storage)"
					},
					{
						"astId": 47,
						"contract": "smartContract/contracts/3_Ballot.sol:Ballot",
						"label": "proposals",
						"offset": 0,
						"slot": "2",
						"type": "t_array(t_struct(Proposal)36_storage)dyn_storage"
					},
					{
						"astId": 72,
						"contract": "smartContract/contracts/3_Ballot.sol:Ballot",
						"label": "info",
						"offset": 0,
						"slot": "3",
						"type": "t_string_storage"
					},
					{
						"astId": 164,
						"contract": "smartContract/contracts/3_Ballot.sol:Ballot",
						"label": "count",
						"offset": 0,
						"slot": "4",
						"type": "t_int256"
					},
					{
						"astId": 175,
						"contract": "smartContract/contracts/3_Ballot.sol:Ballot",
						"label": "count2",
						"offset": 0,
						"slot": "5",
						"type": "t_int256"
					}
				],
				"types": {
					"t_address": {
						"encoding": "inplace",
						"label": "address",
						"numberOfBytes": "20"
					},
					"t_array(t_struct(Proposal)36_storage)dyn_storage": {
						"base": "t_struct(Proposal)36_storage",
						"encoding": "dynamic_array",
						"label": "struct Ballot.Proposal[]",
						"numberOfBytes": "32"
					},
					"t_bool": {
						"encoding": "inplace",
						"label": "bool",
						"numberOfBytes": "1"
					},
					"t_int256": {
						"encoding": "inplace",
						"label": "int256",
						"numberOfBytes": "32"
					},
					"t_mapping(t_address,t_struct(Voter)11_storage)": {
						"encoding": "mapping",
						"key": "t_address",
						"label": "mapping(address => struct Ballot.Voter)",
						"numberOfBytes": "32",
						"value": "t_struct(Voter)11_storage"
					},
					"t_string_storage": {
						"encoding": "bytes",
						"label": "string",
						"numberOfBytes": "32"
					},
					"t_struct(Proposal)36_storage": {
						"encoding": "inplace",
						"label": "struct Ballot.Proposal",
						"members": [
							{
								"astId": 13,
								"contract": "smartContract/contracts/3_Ballot.sol:Ballot",
								"label": "name",
								"offset": 0,
								"slot": "0",
								"type": "t_string_storage"
							},
							{
								"astId": 15,
								"contract": "smartContract/contracts/3_Ballot.sol:Ballot",
								"label": "Total_Votes",
								"offset": 0,
								"slot": "1",
								"type": "t_uint256"
							},
							{
								"astId": 17,
								"contract": "smartContract/contracts/3_Ballot.sol:Ballot",
								"label": "Votes_District0",
								"offset": 0,
								"slot": "2",
								"type": "t_uint256"
							},
							{
								"astId": 19,
								"contract": "smartContract/contracts/3_Ballot.sol:Ballot",
								"label": "Votes_District1",
								"offset": 0,
								"slot": "3",
								"type": "t_uint256"
							},
							{
								"astId": 21,
								"contract": "smartContract/contracts/3_Ballot.sol:Ballot",
								"label": "Votes_District2",
								"offset": 0,
								"slot": "4",
								"type": "t_uint256"
							},
							{
								"astId": 23,
								"contract": "smartContract/contracts/3_Ballot.sol:Ballot",
								"label": "Votes_District3",
								"offset": 0,
								"slot": "5",
								"type": "t_uint256"
							},
							{
								"astId": 25,
								"contract": "smartContract/contracts/3_Ballot.sol:Ballot",
								"label": "Votes_District4",
								"offset": 0,
								"slot": "6",
								"type": "t_uint256"
							},
							{
								"astId": 27,
								"contract": "smartContract/contracts/3_Ballot.sol:Ballot",
								"label": "Votes_District5",
								"offset": 0,
								"slot": "7",
								"type": "t_uint256"
							},
							{
								"astId": 29,
								"contract": "smartContract/contracts/3_Ballot.sol:Ballot",
								"label": "Votes_District6",
								"offset": 0,
								"slot": "8",
								"type": "t_uint256"
							},
							{
								"astId": 31,
								"contract": "smartContract/contracts/3_Ballot.sol:Ballot",
								"label": "Votes_District7",
								"offset": 0,
								"slot": "9",
								"type": "t_uint256"
							},
							{
								"astId": 33,
								"contract": "smartContract/contracts/3_Ballot.sol:Ballot",
								"label": "Votes_District8",
								"offset": 0,
								"slot": "10",
								"type": "t_uint256"
							},
							{
								"astId": 35,
								"contract": "smartContract/contracts/3_Ballot.sol:Ballot",
								"label": "Votes_District9",
								"offset": 0,
								"slot": "11",
								"type": "t_uint256"
							}
						],
						"numberOfBytes": "384"
					},
					"t_struct(Voter)11_storage": {
						"encoding": "inplace",
						"label": "struct Ballot.Voter",
						"members": [
							{
								"astId": 4,
								"contract": "smartContract/contracts/3_Ballot.sol:Ballot",
								"label": "weight",
								"offset": 0,
								"slot": "0",
								"type": "t_uint256"
							},
							{
								"astId": 6,
								"contract": "smartContract/contracts/3_Ballot.sol:Ballot",
								"label": "voted",
								"offset": 0,
								"slot": "1",
								"type": "t_bool"
							},
							{
								"astId": 8,
								"contract": "smartContract/contracts/3_Ballot.sol:Ballot",
								"label": "district",
								"offset": 0,
								"slot": "2",
								"type": "t_uint256"
							},
							{
								"astId": 10,
								"contract": "smartContract/contracts/3_Ballot.sol:Ballot",
								"label": "vote",
								"offset": 0,
								"slot": "3",
								"type": "t_uint256"
							}
						],
						"numberOfBytes": "128"
					},
					"t_uint256": {
						"encoding": "inplace",
						"label": "uint256",
						"numberOfBytes": "32"
					}
				}
			},
			"userdoc": {
				"kind": "user",
				"methods": {},
				"version": 1
			}
		}
	}
}