{
	"3_Ballot.sol": {
		"Ballot": {
			"abi": [
				{
					"inputs": [],
					"stateMutability": "nonpayable",
					"type": "constructor"
				},
				{
					"inputs": [],
					"name": "getInfo",
					"outputs": [
						{
							"internalType": "string",
							"name": "",
							"type": "string"
						}
					],
					"stateMutability": "view",
					"type": "function"
				},
				{
					"inputs": [
						{
							"internalType": "address",
							"name": "voter",
							"type": "address"
						}
					],
					"name": "giveRightToVote",
					"outputs": [],
					"stateMutability": "nonpayable",
					"type": "function"
				},
				{
					"inputs": [
						{
							"internalType": "uint256",
							"name": "",
							"type": "uint256"
						}
					],
					"name": "proposals",
					"outputs": [
						{
							"internalType": "string",
							"name": "name",
							"type": "string"
						},
						{
							"internalType": "uint256",
							"name": "Total_Votes",
							"type": "uint256"
						},
						{
							"internalType": "uint256",
							"name": "Votes_District0",
							"type": "uint256"
						},
						{
							"internalType": "uint256",
							"name": "Votes_District1",
							"type": "uint256"
						},
						{
							"internalType": "uint256",
							"name": "Votes_District2",
							"type": "uint256"
						},
						{
							"internalType": "uint256",
							"name": "Votes_District3",
							"type": "uint256"
						},
						{
							"internalType": "uint256",
							"name": "Votes_District4",
							"type": "uint256"
						},
						{
							"internalType": "uint256",
							"name": "Votes_District5",
							"type": "uint256"
						},
						{
							"internalType": "uint256",
							"name": "Votes_District6",
							"type": "uint256"
						},
						{
							"internalType": "uint256",
							"name": "Votes_District7",
							"type": "uint256"
						},
						{
							"internalType": "uint256",
							"name": "Votes_District8",
							"type": "uint256"
						},
						{
							"internalType": "uint256",
							"name": "Votes_District9",
							"type": "uint256"
						}
					],
					"stateMutability": "view",
					"type": "function"
				},
				{
					"inputs": [
						{
							"internalType": "uint256",
							"name": "_id",
							"type": "uint256"
						}
					],
					"name": "res",
					"outputs": [
						{
							"components": [
								{
									"internalType": "string",
									"name": "name",
									"type": "string"
								},
								{
									"internalType": "uint256",
									"name": "Total_Votes",
									"type": "uint256"
								},
								{
									"internalType": "uint256",
									"name": "Votes_District0",
									"type": "uint256"
								},
								{
									"internalType": "uint256",
									"name": "Votes_District1",
									"type": "uint256"
								},
								{
									"internalType": "uint256",
									"name": "Votes_District2",
									"type": "uint256"
								},
								{
									"internalType": "uint256",
									"name": "Votes_District3",
									"type": "uint256"
								},
								{
									"internalType": "uint256",
									"name": "Votes_District4",
									"type": "uint256"
								},
								{
									"internalType": "uint256",
									"name": "Votes_District5",
									"type": "uint256"
								},
								{
									"internalType": "uint256",
									"name": "Votes_District6",
									"type": "uint256"
								},
								{
									"internalType": "uint256",
									"name": "Votes_District7",
									"type": "uint256"
								},
								{
									"internalType": "uint256",
									"name": "Votes_District8",
									"type": "uint256"
								},
								{
									"internalType": "uint256",
									"name": "Votes_District9",
									"type": "uint256"
								}
							],
							"internalType": "struct Ballot.Proposal",
							"name": "",
							"type": "tuple"
						}
					],
					"stateMutability": "nonpayable",
					"type": "function"
				},
				{
					"inputs": [
						{
							"internalType": "string",
							"name": "_info",
							"type": "string"
						}
					],
					"name": "setInfo",
					"outputs": [],
					"stateMutability": "nonpayable",
					"type": "function"
				},
				{
					"inputs": [
						{
							"internalType": "uint256",
							"name": "proposal",
							"type": "uint256"
						}
					],
					"name": "vote",
					"outputs": [],
					"stateMutability": "nonpayable",
					"type": "function"
				},
				{
					"inputs": [
						{
							"internalType": "address",
							"name": "",
							"type": "address"
						}
					],
					"name": "voters",
					"outputs": [
						{
							"internalType": "uint256",
							"name": "weight",
							"type": "uint256"
						},
						{
							"internalType": "bool",
							"name": "voted",
							"type": "bool"
						},
						{
							"internalType": "uint256",
							"name": "district",
							"type": "uint256"
						},
						{
							"internalType": "uint256",
							"name": "vote",
							"type": "uint256"
						}
					],
					"stateMutability": "view",
					"type": "function"
				}
			],
			"devdoc": {
				"details": "Implements voting process along with vote delegation",
				"kind": "dev",
				"methods": {},
				"title": "Ballot",
				"version": 1
			},
			"evm": {
				"assembly": "    /* \"3_Ballot.sol\":157:6332  contract Ballot {... */\n  mstore(0x40, 0x80)\n    /* \"3_Ballot.sol\":2770:2771  0 */\n  0x00\n    /* \"3_Ballot.sol\":2750:2771  int private count = 0 */\n  0x04\n  sstore\n    /* \"3_Ballot.sol\":3346:3347  0 */\n  0x00\n    /* \"3_Ballot.sol\":3325:3347  int private count2 = 0 */\n  0x05\n  sstore\n    /* \"3_Ballot.sol\":1461:2303  constructor() {... */\n  callvalue\n  dup1\n  iszero\n  tag_1\n  jumpi\n  0x00\n  dup1\n  revert\ntag_1:\n  pop\n    /* \"3_Ballot.sol\":1499:1509  msg.sender */\n  caller\n    /* \"3_Ballot.sol\":1485:1496  chairperson */\n  0x00\n  dup1\n    /* \"3_Ballot.sol\":1485:1509  chairperson = msg.sender */\n  0x0100\n  exp\n  dup2\n  sload\n  dup2\n  0xffffffffffffffffffffffffffffffffffffffff\n  mul\n  not\n  and\n  swap1\n  dup4\n  0xffffffffffffffffffffffffffffffffffffffff\n  and\n  mul\n  or\n  swap1\n  sstore\n  pop\n    /* \"3_Ballot.sol\":1548:1549  1 */\n  0x01\n    /* \"3_Ballot.sol\":1519:1525  voters */\n  dup1\n    /* \"3_Ballot.sol\":1519:1538  voters[chairperson] */\n  0x00\n    /* \"3_Ballot.sol\":1526:1537  chairperson */\n  dup1\n  0x00\n  swap1\n  sload\n  swap1\n  0x0100\n  exp\n  swap1\n  div\n  0xffffffffffffffffffffffffffffffffffffffff\n  and\n    /* \"3_Ballot.sol\":1519:1538  voters[chairperson] */\n  0xffffffffffffffffffffffffffffffffffffffff\n  and\n  0xffffffffffffffffffffffffffffffffffffffff\n  and\n  dup2\n  mstore\n  0x20\n  add\n  swap1\n  dup2\n  mstore\n  0x20\n  add\n  0x00\n  keccak256\n    /* \"3_Ballot.sol\":1519:1545  voters[chairperson].weight */\n  0x00\n  add\n    /* \"3_Ballot.sol\":1519:1549  voters[chairperson].weight = 1 */\n  dup2\n  swap1\n  sstore\n  pop\n    /* \"3_Ballot.sol\":1559:1589  string[5] memory proposalNames */\n  0x00\n    /* \"3_Ballot.sol\":1559:1613  string[5] memory proposalNames = [\"a\",\"b\",\"c\",\"d\",\"e\"] */\n  mload(0x40)\n  dup1\n  0xa0\n  add\n  0x40\n  mstore\n  dup1\n  mload(0x40)\n  dup1\n  0x40\n  add\n  0x40\n  mstore\n  dup1\n  0x01\n  dup2\n  mstore\n  0x20\n  add\n  0x6100000000000000000000000000000000000000000000000000000000000000\n  dup2\n  mstore\n  pop\n  dup2\n  mstore\n  0x20\n  add\n  mload(0x40)\n  dup1\n  0x40\n  add\n  0x40\n  mstore\n  dup1\n  0x01\n  dup2\n  mstore\n  0x20\n  add\n  0x6200000000000000000000000000000000000000000000000000000000000000\n  dup2\n  mstore\n  pop\n  dup2\n  mstore\n  0x20\n  add\n  mload(0x40)\n  dup1\n  0x40\n  add\n  0x40\n  mstore\n  dup1\n  0x01\n  dup2\n  mstore\n  0x20\n  add\n  0x6300000000000000000000000000000000000000000000000000000000000000\n  dup2\n  mstore\n  pop\n  dup2\n  mstore\n  0x20\n  add\n  mload(0x40)\n  dup1\n  0x40\n  add\n  0x40\n  mstore\n  dup1\n  0x01\n  dup2\n  mstore\n  0x20\n  add\n  0x6400000000000000000000000000000000000000000000000000000000000000\n  dup2\n  mstore\n  pop\n  dup2\n  mstore\n  0x20\n  add\n  mload(0x40)\n  dup1\n  0x40\n  add\n  0x40\n  mstore\n  dup1\n  0x01\n  dup2\n  mstore\n  0x20\n  add\n  0x6500000000000000000000000000000000000000000000000000000000000000\n  dup2\n  mstore\n  pop\n  dup2\n  mstore\n  pop\n  swap1\n  pop\n    /* \"3_Ballot.sol\":1653:1654  5 */\n  0x05\n    /* \"3_Ballot.sol\":1631:1651  proposalNames.length */\n  dup1\n    /* \"3_Ballot.sol\":1631:1654  proposalNames.length==5 */\n  eq\n    /* \"3_Ballot.sol\":1623:1679  require(proposalNames.length==5,\"Candidates must be 5.\") */\n  tag_4\n  jumpi\n  mload(0x40)\n  0x08c379a000000000000000000000000000000000000000000000000000000000\n  dup2\n  mstore\n  0x04\n  add\n  tag_5\n  swap1\n  tag_6\n  jump\t// in\ntag_5:\n  mload(0x40)\n  dup1\n  swap2\n  sub\n  swap1\n  revert\ntag_4:\n    /* \"3_Ballot.sol\":1694:1700  uint i */\n  0x00\n    /* \"3_Ballot.sol\":1689:2297  for (uint i = 0; i < proposalNames.length; i++) {... */\ntag_7:\n    /* \"3_Ballot.sol\":1710:1730  proposalNames.length */\n  0x05\n    /* \"3_Ballot.sol\":1706:1707  i */\n  dup2\n    /* \"3_Ballot.sol\":1706:1730  i < proposalNames.length */\n  lt\n    /* \"3_Ballot.sol\":1689:2297  for (uint i = 0; i < proposalNames.length; i++) {... */\n  iszero\n  tag_8\n  jumpi\n    /* \"3_Ballot.sol\":1751:1760  proposals */\n  0x02\n    /* \"3_Ballot.sol\":1766:2285  Proposal({... */\n  mload(0x40)\n  dup1\n  0x0180\n  add\n  0x40\n  mstore\n  dup1\n    /* \"3_Ballot.sol\":1799:1812  proposalNames */\n  dup5\n    /* \"3_Ballot.sol\":1813:1814  i */\n  dup5\n    /* \"3_Ballot.sol\":1799:1815  proposalNames[i] */\n  0x05\n  dup2\n  lt\n  tag_10\n  jumpi\n  tag_11\n  tag_12\n  jump\t// in\ntag_11:\ntag_10:\n  0x20\n  mul\n  add\n  mload\n    /* \"3_Ballot.sol\":1766:2285  Proposal({... */\n  dup2\n  mstore\n  0x20\n  add\n    /* \"3_Ballot.sol\":1909:1910  0 */\n  0x00\n    /* \"3_Ballot.sol\":1766:2285  Proposal({... */\n  dup2\n  mstore\n  0x20\n  add\n    /* \"3_Ballot.sol\":1945:1946  0 */\n  0x00\n    /* \"3_Ballot.sol\":1766:2285  Proposal({... */\n  dup2\n  mstore\n  0x20\n  add\n    /* \"3_Ballot.sol\":1981:1982  0 */\n  0x00\n    /* \"3_Ballot.sol\":1766:2285  Proposal({... */\n  dup2\n  mstore\n  0x20\n  add\n    /* \"3_Ballot.sol\":2017:2018  0 */\n  0x00\n    /* \"3_Ballot.sol\":1766:2285  Proposal({... */\n  dup2\n  mstore\n  0x20\n  add\n    /* \"3_Ballot.sol\":2053:2054  0 */\n  0x00\n    /* \"3_Ballot.sol\":1766:2285  Proposal({... */\n  dup2\n  mstore\n  0x20\n  add\n    /* \"3_Ballot.sol\":2089:2090  0 */\n  0x00\n    /* \"3_Ballot.sol\":1766:2285  Proposal({... */\n  dup2\n  mstore\n  0x20\n  add\n    /* \"3_Ballot.sol\":2125:2126  0 */\n  0x00\n    /* \"3_Ballot.sol\":1766:2285  Proposal({... */\n  dup2\n  mstore\n  0x20\n  add\n    /* \"3_Ballot.sol\":2161:2162  0 */\n  0x00\n    /* \"3_Ballot.sol\":1766:2285  Proposal({... */\n  dup2\n  mstore\n  0x20\n  add\n    /* \"3_Ballot.sol\":2197:2198  0 */\n  0x00\n    /* \"3_Ballot.sol\":1766:2285  Proposal({... */\n  dup2\n  mstore\n  0x20\n  add\n    /* \"3_Ballot.sol\":2233:2234  0 */\n  0x00\n    /* \"3_Ballot.sol\":1766:2285  Proposal({... */\n  dup2\n  mstore\n  0x20\n  add\n    /* \"3_Ballot.sol\":2269:2270  0 */\n  0x00\n    /* \"3_Ballot.sol\":1766:2285  Proposal({... */\n  dup2\n  mstore\n  pop\n    /* \"3_Ballot.sol\":1751:2286  proposals.push(Proposal({... */\n  swap1\n  dup1\n  0x01\n  dup2\n  sload\n  add\n  dup1\n  dup3\n  sstore\n  dup1\n  swap2\n  pop\n  pop\n  0x01\n  swap1\n  sub\n  swap1\n  0x00\n  mstore\n  keccak256(0x00, 0x20)\n  swap1\n  0x0c\n  mul\n  add\n  0x00\n  swap1\n  swap2\n  swap1\n  swap2\n  swap1\n  swap2\n  pop\n  0x00\n  dup3\n  add\n  mload\n  dup2\n  0x00\n  add\n  swap1\n  dup1\n  mload\n  swap1\n  0x20\n  add\n  swap1\n  tag_14\n  swap3\n  swap2\n  swap1\n  tag_15\n  jump\t// in\ntag_14:\n  pop\n  0x20\n  dup3\n  add\n  mload\n  dup2\n  0x01\n  add\n  sstore\n  0x40\n  dup3\n  add\n  mload\n  dup2\n  0x02\n  add\n  sstore\n  0x60\n  dup3\n  add\n  mload\n  dup2\n  0x03\n  add\n  sstore\n  0x80\n  dup3\n  add\n  mload\n  dup2\n  0x04\n  add\n  sstore\n  0xa0\n  dup3\n  add\n  mload\n  dup2\n  0x05\n  add\n  sstore\n  0xc0\n  dup3\n  add\n  mload\n  dup2\n  0x06\n  add\n  sstore\n  0xe0\n  dup3\n  add\n  mload\n  dup2\n  0x07\n  add\n  sstore\n  0x0100\n  dup3\n  add\n  mload\n  dup2\n  0x08\n  add\n  sstore\n  0x0120\n  dup3\n  add\n  mload\n  dup2\n  0x09\n  add\n  sstore\n  0x0140\n  dup3\n  add\n  mload\n  dup2\n  0x0a\n  add\n  sstore\n  0x0160\n  dup3\n  add\n  mload\n  dup2\n  0x0b\n  add\n  sstore\n  pop\n  pop\n    /* \"3_Ballot.sol\":1732:1735  i++ */\n  dup1\n  dup1\n  tag_16\n  swap1\n  tag_17\n  jump\t// in\ntag_16:\n  swap2\n  pop\n  pop\n    /* \"3_Ballot.sol\":1689:2297  for (uint i = 0; i < proposalNames.length; i++) {... */\n  jump(tag_7)\ntag_8:\n  pop\n    /* \"3_Ballot.sol\":1475:2303  {... */\n  pop\n    /* \"3_Ballot.sol\":157:6332  contract Ballot {... */\n  jump(tag_18)\ntag_15:\n  dup3\n  dup1\n  sload\n  tag_19\n  swap1\n  tag_20\n  jump\t// in\ntag_19:\n  swap1\n  0x00\n  mstore\n  keccak256(0x00, 0x20)\n  swap1\n  0x1f\n  add\n  0x20\n  swap1\n  div\n  dup2\n  add\n  swap3\n  dup3\n  tag_22\n  jumpi\n  0x00\n  dup6\n  sstore\n  jump(tag_21)\ntag_22:\n  dup3\n  0x1f\n  lt\n  tag_23\n  jumpi\n  dup1\n  mload\n  not(0xff)\n  and\n  dup4\n  dup1\n  add\n  or\n  dup6\n  sstore\n  jump(tag_21)\ntag_23:\n  dup3\n  dup1\n  add\n  0x01\n  add\n  dup6\n  sstore\n  dup3\n  iszero\n  tag_21\n  jumpi\n  swap2\n  dup3\n  add\ntag_24:\n  dup3\n  dup2\n  gt\n  iszero\n  tag_25\n  jumpi\n  dup3\n  mload\n  dup3\n  sstore\n  swap2\n  0x20\n  add\n  swap2\n  swap1\n  0x01\n  add\n  swap1\n  jump(tag_24)\ntag_25:\ntag_21:\n  pop\n  swap1\n  pop\n  tag_26\n  swap2\n  swap1\n  tag_27\n  jump\t// in\ntag_26:\n  pop\n  swap1\n  jump\t// out\ntag_27:\ntag_28:\n  dup1\n  dup3\n  gt\n  iszero\n  tag_29\n  jumpi\n  0x00\n  dup2\n  0x00\n  swap1\n  sstore\n  pop\n  0x01\n  add\n  jump(tag_28)\ntag_29:\n  pop\n  swap1\n  jump\t// out\n    /* \"#utility.yul\":7:373   */\ntag_31:\n    /* \"#utility.yul\":149:152   */\n  0x00\n    /* \"#utility.yul\":170:237   */\n  tag_33\n    /* \"#utility.yul\":234:236   */\n  0x15\n    /* \"#utility.yul\":229:232   */\n  dup4\n    /* \"#utility.yul\":170:237   */\n  tag_34\n  jump\t// in\ntag_33:\n    /* \"#utility.yul\":163:237   */\n  swap2\n  pop\n    /* \"#utility.yul\":246:339   */\n  tag_35\n    /* \"#utility.yul\":335:338   */\n  dup3\n    /* \"#utility.yul\":246:339   */\n  tag_36\n  jump\t// in\ntag_35:\n    /* \"#utility.yul\":364:366   */\n  0x20\n    /* \"#utility.yul\":359:362   */\n  dup3\n    /* \"#utility.yul\":355:367   */\n  add\n    /* \"#utility.yul\":348:367   */\n  swap1\n  pop\n    /* \"#utility.yul\":7:373   */\n  swap2\n  swap1\n  pop\n  jump\t// out\n    /* \"#utility.yul\":379:798   */\ntag_6:\n    /* \"#utility.yul\":545:549   */\n  0x00\n    /* \"#utility.yul\":583:585   */\n  0x20\n    /* \"#utility.yul\":572:581   */\n  dup3\n    /* \"#utility.yul\":568:586   */\n  add\n    /* \"#utility.yul\":560:586   */\n  swap1\n  pop\n    /* \"#utility.yul\":632:641   */\n  dup2\n    /* \"#utility.yul\":626:630   */\n  dup2\n    /* \"#utility.yul\":622:642   */\n  sub\n    /* \"#utility.yul\":618:619   */\n  0x00\n    /* \"#utility.yul\":607:616   */\n  dup4\n    /* \"#utility.yul\":603:620   */\n  add\n    /* \"#utility.yul\":596:643   */\n  mstore\n    /* \"#utility.yul\":660:791   */\n  tag_38\n    /* \"#utility.yul\":786:790   */\n  dup2\n    /* \"#utility.yul\":660:791   */\n  tag_31\n  jump\t// in\ntag_38:\n    /* \"#utility.yul\":652:791   */\n  swap1\n  pop\n    /* \"#utility.yul\":379:798   */\n  swap2\n  swap1\n  pop\n  jump\t// out\n    /* \"#utility.yul\":804:973   */\ntag_34:\n    /* \"#utility.yul\":888:899   */\n  0x00\n    /* \"#utility.yul\":922:928   */\n  dup3\n    /* \"#utility.yul\":917:920   */\n  dup3\n    /* \"#utility.yul\":910:929   */\n  mstore\n    /* \"#utility.yul\":962:966   */\n  0x20\n    /* \"#utility.yul\":957:960   */\n  dup3\n    /* \"#utility.yul\":953:967   */\n  add\n    /* \"#utility.yul\":938:967   */\n  swap1\n  pop\n    /* \"#utility.yul\":804:973   */\n  swap3\n  swap2\n  pop\n  pop\n  jump\t// out\n    /* \"#utility.yul\":979:1056   */\ntag_40:\n    /* \"#utility.yul\":1016:1023   */\n  0x00\n    /* \"#utility.yul\":1045:1050   */\n  dup2\n    /* \"#utility.yul\":1034:1050   */\n  swap1\n  pop\n    /* \"#utility.yul\":979:1056   */\n  swap2\n  swap1\n  pop\n  jump\t// out\n    /* \"#utility.yul\":1062:1382   */\ntag_20:\n    /* \"#utility.yul\":1106:1112   */\n  0x00\n    /* \"#utility.yul\":1143:1144   */\n  0x02\n    /* \"#utility.yul\":1137:1141   */\n  dup3\n    /* \"#utility.yul\":1133:1145   */\n  div\n    /* \"#utility.yul\":1123:1145   */\n  swap1\n  pop\n    /* \"#utility.yul\":1190:1191   */\n  0x01\n    /* \"#utility.yul\":1184:1188   */\n  dup3\n    /* \"#utility.yul\":1180:1192   */\n  and\n    /* \"#utility.yul\":1211:1229   */\n  dup1\n    /* \"#utility.yul\":1201:1282   */\n  tag_43\n  jumpi\n    /* \"#utility.yul\":1267:1271   */\n  0x7f\n    /* \"#utility.yul\":1259:1265   */\n  dup3\n    /* \"#utility.yul\":1255:1272   */\n  and\n    /* \"#utility.yul\":1245:1272   */\n  swap2\n  pop\n    /* \"#utility.yul\":1201:1282   */\ntag_43:\n    /* \"#utility.yul\":1329:1331   */\n  0x20\n    /* \"#utility.yul\":1321:1327   */\n  dup3\n    /* \"#utility.yul\":1318:1332   */\n  lt\n    /* \"#utility.yul\":1298:1316   */\n  dup2\n    /* \"#utility.yul\":1295:1333   */\n  eq\n    /* \"#utility.yul\":1292:1376   */\n  iszero\n  tag_44\n  jumpi\n    /* \"#utility.yul\":1348:1366   */\n  tag_45\n  tag_46\n  jump\t// in\ntag_45:\n    /* \"#utility.yul\":1292:1376   */\ntag_44:\n    /* \"#utility.yul\":1113:1382   */\n  pop\n    /* \"#utility.yul\":1062:1382   */\n  swap2\n  swap1\n  pop\n  jump\t// out\n    /* \"#utility.yul\":1388:1621   */\ntag_17:\n    /* \"#utility.yul\":1427:1430   */\n  0x00\n    /* \"#utility.yul\":1450:1474   */\n  tag_48\n    /* \"#utility.yul\":1468:1473   */\n  dup3\n    /* \"#utility.yul\":1450:1474   */\n  tag_40\n  jump\t// in\ntag_48:\n    /* \"#utility.yul\":1441:1474   */\n  swap2\n  pop\n    /* \"#utility.yul\":1496:1562   */\n  0xffffffffffffffffffffffffffffffffffffffffffffffffffffffffffffffff\n    /* \"#utility.yul\":1489:1494   */\n  dup3\n    /* \"#utility.yul\":1486:1563   */\n  eq\n    /* \"#utility.yul\":1483:1586   */\n  iszero\n  tag_49\n  jumpi\n    /* \"#utility.yul\":1566:1584   */\n  tag_50\n  tag_51\n  jump\t// in\ntag_50:\n    /* \"#utility.yul\":1483:1586   */\ntag_49:\n    /* \"#utility.yul\":1613:1614   */\n  0x01\n    /* \"#utility.yul\":1606:1611   */\n  dup3\n    /* \"#utility.yul\":1602:1615   */\n  add\n    /* \"#utility.yul\":1595:1615   */\n  swap1\n  pop\n    /* \"#utility.yul\":1388:1621   */\n  swap2\n  swap1\n  pop\n  jump\t// out\n    /* \"#utility.yul\":1627:1807   */\ntag_51:\n    /* \"#utility.yul\":1675:1752   */\n  0x4e487b7100000000000000000000000000000000000000000000000000000000\n    /* \"#utility.yul\":1672:1673   */\n  0x00\n    /* \"#utility.yul\":1665:1753   */\n  mstore\n    /* \"#utility.yul\":1772:1776   */\n  0x11\n    /* \"#utility.yul\":1769:1770   */\n  0x04\n    /* \"#utility.yul\":1762:1777   */\n  mstore\n    /* \"#utility.yul\":1796:1800   */\n  0x24\n    /* \"#utility.yul\":1793:1794   */\n  0x00\n    /* \"#utility.yul\":1786:1801   */\n  revert\n    /* \"#utility.yul\":1813:1993   */\ntag_46:\n    /* \"#utility.yul\":1861:1938   */\n  0x4e487b7100000000000000000000000000000000000000000000000000000000\n    /* \"#utility.yul\":1858:1859   */\n  0x00\n    /* \"#utility.yul\":1851:1939   */\n  mstore\n    /* \"#utility.yul\":1958:1962   */\n  0x22\n    /* \"#utility.yul\":1955:1956   */\n  0x04\n    /* \"#utility.yul\":1948:1963   */\n  mstore\n    /* \"#utility.yul\":1982:1986   */\n  0x24\n    /* \"#utility.yul\":1979:1980   */\n  0x00\n    /* \"#utility.yul\":1972:1987   */\n  revert\n    /* \"#utility.yul\":1999:2179   */\ntag_12:\n    /* \"#utility.yul\":2047:2124   */\n  0x4e487b7100000000000000000000000000000000000000000000000000000000\n    /* \"#utility.yul\":2044:2045   */\n  0x00\n    /* \"#utility.yul\":2037:2125   */\n  mstore\n    /* \"#utility.yul\":2144:2148   */\n  0x32\n    /* \"#utility.yul\":2141:2142   */\n  0x04\n    /* \"#utility.yul\":2134:2149   */\n  mstore\n    /* \"#utility.yul\":2168:2172   */\n  0x24\n    /* \"#utility.yul\":2165:2166   */\n  0x00\n    /* \"#utility.yul\":2158:2173   */\n  revert\n    /* \"#utility.yul\":2185:2356   */\ntag_36:\n    /* \"#utility.yul\":2325:2348   */\n  0x43616e64696461746573206d75737420626520352e0000000000000000000000\n    /* \"#utility.yul\":2321:2322   */\n  0x00\n    /* \"#utility.yul\":2313:2319   */\n  dup3\n    /* \"#utility.yul\":2309:2323   */\n  add\n    /* \"#utility.yul\":2302:2349   */\n  mstore\n    /* \"#utility.yul\":2185:2356   */\n  pop\n  jump\t// out\n    /* \"3_Ballot.sol\":157:6332  contract Ballot {... */\ntag_18:\n  dataSize(sub_0)\n  dup1\n  dataOffset(sub_0)\n  0x00\n  codecopy\n  0x00\n  return\nstop\n\nsub_0: assembly {\n        /* \"3_Ballot.sol\":157:6332  contract Ballot {... */\n      mstore(0x40, 0x80)\n      callvalue\n      dup1\n      iszero\n      tag_1\n      jumpi\n      0x00\n      dup1\n      revert\n    tag_1:\n      pop\n      jumpi(tag_2, lt(calldatasize, 0x04))\n      shr(0xe0, calldataload(0x00))\n      dup1\n      0x937f6e77\n      gt\n      tag_10\n      jumpi\n      dup1\n      0x937f6e77\n      eq\n      tag_6\n      jumpi\n      dup1\n      0x9e7b8d61\n      eq\n      tag_7\n      jumpi\n      dup1\n      0xa3ec138d\n      eq\n      tag_8\n      jumpi\n      dup1\n      0xd4e8fd2e\n      eq\n      tag_9\n      jumpi\n      jump(tag_2)\n    tag_10:\n      dup1\n      0x0121b93f\n      eq\n      tag_3\n      jumpi\n      dup1\n      0x013cf08b\n      eq\n      tag_4\n      jumpi\n      dup1\n      0x5a9b0b89\n      eq\n      tag_5\n      jumpi\n    tag_2:\n      0x00\n      dup1\n      revert\n        /* \"3_Ballot.sol\":3423:5124  function vote(uint proposal) public {... */\n    tag_3:\n      tag_11\n      0x04\n      dup1\n      calldatasize\n      sub\n      dup2\n      add\n      swap1\n      tag_12\n      swap2\n      swap1\n      tag_13\n      jump\t// in\n    tag_12:\n      tag_14\n      jump\t// in\n    tag_11:\n      stop\n        /* \"3_Ballot.sol\":1056:1083  Proposal[] public proposals */\n    tag_4:\n      tag_15\n      0x04\n      dup1\n      calldatasize\n      sub\n      dup2\n      add\n      swap1\n      tag_16\n      swap2\n      swap1\n      tag_13\n      jump\t// in\n    tag_16:\n      tag_17\n      jump\t// in\n    tag_15:\n      mload(0x40)\n      tag_18\n      swap13\n      swap12\n      swap11\n      swap10\n      swap9\n      swap8\n      swap7\n      swap6\n      swap5\n      swap4\n      swap3\n      swap2\n      swap1\n      tag_19\n      jump\t// in\n    tag_18:\n      mload(0x40)\n      dup1\n      swap2\n      sub\n      swap1\n      return\n        /* \"3_Ballot.sol\":1368:1451  function getInfo() public view returns (string memory) {... */\n    tag_5:\n      tag_20\n      tag_21\n      jump\t// in\n    tag_20:\n      mload(0x40)\n      tag_22\n      swap2\n      swap1\n      tag_23\n      jump\t// in\n    tag_22:\n      mload(0x40)\n      dup1\n      swap2\n      sub\n      swap1\n      return\n        /* \"3_Ballot.sol\":1288:1362  function setInfo(string memory _info) public {... */\n    tag_6:\n      tag_24\n      0x04\n      dup1\n      calldatasize\n      sub\n      dup2\n      add\n      swap1\n      tag_25\n      swap2\n      swap1\n      tag_26\n      jump\t// in\n    tag_25:\n      tag_27\n      jump\t// in\n    tag_24:\n      stop\n        /* \"3_Ballot.sol\":2847:3319  function giveRightToVote(address voter) public {... */\n    tag_7:\n      tag_28\n      0x04\n      dup1\n      calldatasize\n      sub\n      dup2\n      add\n      swap1\n      tag_29\n      swap2\n      swap1\n      tag_30\n      jump\t// in\n    tag_29:\n      tag_31\n      jump\t// in\n    tag_28:\n      stop\n        /* \"3_Ballot.sol\":896:935  mapping(address => Voter) public voters */\n    tag_8:\n      tag_32\n      0x04\n      dup1\n      calldatasize\n      sub\n      dup2\n      add\n      swap1\n      tag_33\n      swap2\n      swap1\n      tag_30\n      jump\t// in\n    tag_33:\n      tag_34\n      jump\t// in\n    tag_32:\n      mload(0x40)\n      tag_35\n      swap5\n      swap4\n      swap3\n      swap2\n      swap1\n      tag_36\n      jump\t// in\n    tag_35:\n      mload(0x40)\n      dup1\n      swap2\n      sub\n      swap1\n      return\n        /* \"3_Ballot.sol\":5130:5222  function res(uint _id) public returns(Proposal memory){... */\n    tag_9:\n      tag_37\n      0x04\n      dup1\n      calldatasize\n      sub\n      dup2\n      add\n      swap1\n      tag_38\n      swap2\n      swap1\n      tag_13\n      jump\t// in\n    tag_38:\n      tag_39\n      jump\t// in\n    tag_37:\n      mload(0x40)\n      tag_40\n      swap2\n      swap1\n      tag_41\n      jump\t// in\n    tag_40:\n      mload(0x40)\n      dup1\n      swap2\n      sub\n      swap1\n      return\n        /* \"3_Ballot.sol\":3423:5124  function vote(uint proposal) public {... */\n    tag_14:\n        /* \"3_Ballot.sol\":3469:3489  Voter storage sender */\n      0x00\n        /* \"3_Ballot.sol\":3492:3498  voters */\n      0x01\n        /* \"3_Ballot.sol\":3492:3510  voters[msg.sender] */\n      0x00\n        /* \"3_Ballot.sol\":3499:3509  msg.sender */\n      caller\n        /* \"3_Ballot.sol\":3492:3510  voters[msg.sender] */\n      0xffffffffffffffffffffffffffffffffffffffff\n      and\n      0xffffffffffffffffffffffffffffffffffffffff\n      and\n      dup2\n      mstore\n      0x20\n      add\n      swap1\n      dup2\n      mstore\n      0x20\n      add\n      0x00\n      keccak256\n        /* \"3_Ballot.sol\":3469:3510  Voter storage sender = voters[msg.sender] */\n      swap1\n      pop\n        /* \"3_Ballot.sol\":3596:3597  0 */\n      0x00\n        /* \"3_Ballot.sol\":3579:3585  sender */\n      dup2\n        /* \"3_Ballot.sol\":3579:3592  sender.weight */\n      0x00\n      add\n      sload\n        /* \"3_Ballot.sol\":3579:3597  sender.weight != 0 */\n      eq\n      iszero\n        /* \"3_Ballot.sol\":3571:3622  require(sender.weight != 0, \"Has no right to vote\") */\n      tag_43\n      jumpi\n      mload(0x40)\n      0x08c379a000000000000000000000000000000000000000000000000000000000\n      dup2\n      mstore\n      0x04\n      add\n      tag_44\n      swap1\n      tag_45\n      jump\t// in\n    tag_44:\n      mload(0x40)\n      dup1\n      swap2\n      sub\n      swap1\n      revert\n    tag_43:\n        /* \"3_Ballot.sol\":3641:3647  sender */\n      dup1\n        /* \"3_Ballot.sol\":3641:3653  sender.voted */\n      0x01\n      add\n      0x00\n      swap1\n      sload\n      swap1\n      0x0100\n      exp\n      swap1\n      div\n      0xff\n      and\n        /* \"3_Ballot.sol\":3640:3653  !sender.voted */\n      iszero\n        /* \"3_Ballot.sol\":3632:3672  require(!sender.voted, \"Already voted.\") */\n      tag_46\n      jumpi\n      mload(0x40)\n      0x08c379a000000000000000000000000000000000000000000000000000000000\n      dup2\n      mstore\n      0x04\n      add\n      tag_47\n      swap1\n      tag_48\n      jump\t// in\n    tag_47:\n      mload(0x40)\n      dup1\n      swap2\n      sub\n      swap1\n      revert\n    tag_46:\n        /* \"3_Ballot.sol\":3697:3701  true */\n      0x01\n        /* \"3_Ballot.sol\":3682:3688  sender */\n      dup2\n        /* \"3_Ballot.sol\":3682:3694  sender.voted */\n      0x01\n      add\n      0x00\n        /* \"3_Ballot.sol\":3682:3701  sender.voted = true */\n      0x0100\n      exp\n      dup2\n      sload\n      dup2\n      0xff\n      mul\n      not\n      and\n      swap1\n      dup4\n      iszero\n      iszero\n      mul\n      or\n      swap1\n      sstore\n      pop\n        /* \"3_Ballot.sol\":3725:3733  proposal */\n      dup2\n        /* \"3_Ballot.sol\":3711:3717  sender */\n      dup2\n        /* \"3_Ballot.sol\":3711:3722  sender.vote */\n      0x03\n      add\n        /* \"3_Ballot.sol\":3711:3733  sender.vote = proposal */\n      dup2\n      swap1\n      sstore\n      pop\n        /* \"3_Ballot.sol\":4071:4077  sender */\n      dup1\n        /* \"3_Ballot.sol\":4071:4084  sender.weight */\n      0x00\n      add\n      sload\n        /* \"3_Ballot.sol\":4036:4045  proposals */\n      0x02\n        /* \"3_Ballot.sol\":4046:4054  proposal */\n      dup4\n        /* \"3_Ballot.sol\":4036:4055  proposals[proposal] */\n      dup2\n      sload\n      dup2\n      lt\n      tag_49\n      jumpi\n      tag_50\n      tag_51\n      jump\t// in\n    tag_50:\n    tag_49:\n      swap1\n      0x00\n      mstore\n      keccak256(0x00, 0x20)\n      swap1\n      0x0c\n      mul\n      add\n        /* \"3_Ballot.sol\":4036:4067  proposals[proposal].Total_Votes */\n      0x01\n      add\n      0x00\n        /* \"3_Ballot.sol\":4036:4084  proposals[proposal].Total_Votes += sender.weight */\n      dup3\n      dup3\n      sload\n      tag_53\n      swap2\n      swap1\n      tag_54\n      jump\t// in\n    tag_53:\n      swap3\n      pop\n      pop\n      dup2\n      swap1\n      sstore\n      pop\n        /* \"3_Ballot.sol\":4115:4116  0 */\n      0x00\n        /* \"3_Ballot.sol\":4098:4104  sender */\n      dup2\n        /* \"3_Ballot.sol\":4098:4113  sender.district */\n      0x02\n      add\n      sload\n        /* \"3_Ballot.sol\":4098:4116  sender.district==0 */\n      eq\n        /* \"3_Ballot.sol\":4094:4977  if (sender.district==0){proposals[proposal].Votes_District0 += sender.weight;}... */\n      iszero\n      tag_55\n      jumpi\n        /* \"3_Ballot.sol\":4157:4163  sender */\n      dup1\n        /* \"3_Ballot.sol\":4157:4170  sender.weight */\n      0x00\n      add\n      sload\n        /* \"3_Ballot.sol\":4118:4127  proposals */\n      0x02\n        /* \"3_Ballot.sol\":4128:4136  proposal */\n      dup4\n        /* \"3_Ballot.sol\":4118:4137  proposals[proposal] */\n      dup2\n      sload\n      dup2\n      lt\n      tag_56\n      jumpi\n      tag_57\n      tag_51\n      jump\t// in\n    tag_57:\n    tag_56:\n      swap1\n      0x00\n      mstore\n      keccak256(0x00, 0x20)\n      swap1\n      0x0c\n      mul\n      add\n        /* \"3_Ballot.sol\":4118:4153  proposals[proposal].Votes_District0 */\n      0x02\n      add\n      0x00\n        /* \"3_Ballot.sol\":4118:4170  proposals[proposal].Votes_District0 += sender.weight */\n      dup3\n      dup3\n      sload\n      tag_59\n      swap2\n      swap1\n      tag_54\n      jump\t// in\n    tag_59:\n      swap3\n      pop\n      pop\n      dup2\n      swap1\n      sstore\n      pop\n        /* \"3_Ballot.sol\":4094:4977  if (sender.district==0){proposals[proposal].Votes_District0 += sender.weight;}... */\n      jump(tag_60)\n    tag_55:\n        /* \"3_Ballot.sol\":4207:4208  1 */\n      0x01\n        /* \"3_Ballot.sol\":4190:4196  sender */\n      dup2\n        /* \"3_Ballot.sol\":4190:4205  sender.district */\n      0x02\n      add\n      sload\n        /* \"3_Ballot.sol\":4190:4208  sender.district==1 */\n      eq\n        /* \"3_Ballot.sol\":4186:4977  if (sender.district==1){proposals[proposal].Votes_District1 += sender.weight;}... */\n      iszero\n      tag_61\n      jumpi\n        /* \"3_Ballot.sol\":4249:4255  sender */\n      dup1\n        /* \"3_Ballot.sol\":4249:4262  sender.weight */\n      0x00\n      add\n      sload\n        /* \"3_Ballot.sol\":4210:4219  proposals */\n      0x02\n        /* \"3_Ballot.sol\":4220:4228  proposal */\n      dup4\n        /* \"3_Ballot.sol\":4210:4229  proposals[proposal] */\n      dup2\n      sload\n      dup2\n      lt\n      tag_62\n      jumpi\n      tag_63\n      tag_51\n      jump\t// in\n    tag_63:\n    tag_62:\n      swap1\n      0x00\n      mstore\n      keccak256(0x00, 0x20)\n      swap1\n      0x0c\n      mul\n      add\n        /* \"3_Ballot.sol\":4210:4245  proposals[proposal].Votes_District1 */\n      0x03\n      add\n      0x00\n        /* \"3_Ballot.sol\":4210:4262  proposals[proposal].Votes_District1 += sender.weight */\n      dup3\n      dup3\n      sload\n      tag_65\n      swap2\n      swap1\n      tag_54\n      jump\t// in\n    tag_65:\n      swap3\n      pop\n      pop\n      dup2\n      swap1\n      sstore\n      pop\n        /* \"3_Ballot.sol\":4186:4977  if (sender.district==1){proposals[proposal].Votes_District1 += sender.weight;}... */\n      jump(tag_66)\n    tag_61:\n        /* \"3_Ballot.sol\":4299:4300  2 */\n      0x02\n        /* \"3_Ballot.sol\":4282:4288  sender */\n      dup2\n        /* \"3_Ballot.sol\":4282:4297  sender.district */\n      0x02\n      add\n      sload\n        /* \"3_Ballot.sol\":4282:4300  sender.district==2 */\n      eq\n        /* \"3_Ballot.sol\":4278:4977  if (sender.district==2){proposals[proposal].Votes_District2 += sender.weight;}... */\n      iszero\n      tag_67\n      jumpi\n        /* \"3_Ballot.sol\":4341:4347  sender */\n      dup1\n        /* \"3_Ballot.sol\":4341:4354  sender.weight */\n      0x00\n      add\n      sload\n        /* \"3_Ballot.sol\":4302:4311  proposals */\n      0x02\n        /* \"3_Ballot.sol\":4312:4320  proposal */\n      dup4\n        /* \"3_Ballot.sol\":4302:4321  proposals[proposal] */\n      dup2\n      sload\n      dup2\n      lt\n      tag_68\n      jumpi\n      tag_69\n      tag_51\n      jump\t// in\n    tag_69:\n    tag_68:\n      swap1\n      0x00\n      mstore\n      keccak256(0x00, 0x20)\n      swap1\n      0x0c\n      mul\n      add\n        /* \"3_Ballot.sol\":4302:4337  proposals[proposal].Votes_District2 */\n      0x04\n      add\n      0x00\n        /* \"3_Ballot.sol\":4302:4354  proposals[proposal].Votes_District2 += sender.weight */\n      dup3\n      dup3\n      sload\n      tag_71\n      swap2\n      swap1\n      tag_54\n      jump\t// in\n    tag_71:\n      swap3\n      pop\n      pop\n      dup2\n      swap1\n      sstore\n      pop\n        /* \"3_Ballot.sol\":4278:4977  if (sender.district==2){proposals[proposal].Votes_District2 += sender.weight;}... */\n      jump(tag_72)\n    tag_67:\n        /* \"3_Ballot.sol\":4391:4392  3 */\n      0x03\n        /* \"3_Ballot.sol\":4374:4380  sender */\n      dup2\n        /* \"3_Ballot.sol\":4374:4389  sender.district */\n      0x02\n      add\n      sload\n        /* \"3_Ballot.sol\":4374:4392  sender.district==3 */\n      eq\n        /* \"3_Ballot.sol\":4370:4977  if (sender.district==3){proposals[proposal].Votes_District3 += sender.weight;}... */\n      iszero\n      tag_73\n      jumpi\n        /* \"3_Ballot.sol\":4433:4439  sender */\n      dup1\n        /* \"3_Ballot.sol\":4433:4446  sender.weight */\n      0x00\n      add\n      sload\n        /* \"3_Ballot.sol\":4394:4403  proposals */\n      0x02\n        /* \"3_Ballot.sol\":4404:4412  proposal */\n      dup4\n        /* \"3_Ballot.sol\":4394:4413  proposals[proposal] */\n      dup2\n      sload\n      dup2\n      lt\n      tag_74\n      jumpi\n      tag_75\n      tag_51\n      jump\t// in\n    tag_75:\n    tag_74:\n      swap1\n      0x00\n      mstore\n      keccak256(0x00, 0x20)\n      swap1\n      0x0c\n      mul\n      add\n        /* \"3_Ballot.sol\":4394:4429  proposals[proposal].Votes_District3 */\n      0x05\n      add\n      0x00\n        /* \"3_Ballot.sol\":4394:4446  proposals[proposal].Votes_District3 += sender.weight */\n      dup3\n      dup3\n      sload\n      tag_77\n      swap2\n      swap1\n      tag_54\n      jump\t// in\n    tag_77:\n      swap3\n      pop\n      pop\n      dup2\n      swap1\n      sstore\n      pop\n        /* \"3_Ballot.sol\":4370:4977  if (sender.district==3){proposals[proposal].Votes_District3 += sender.weight;}... */\n      jump(tag_78)\n    tag_73:\n        /* \"3_Ballot.sol\":4483:4484  4 */\n      0x04\n        /* \"3_Ballot.sol\":4466:4472  sender */\n      dup2\n        /* \"3_Ballot.sol\":4466:4481  sender.district */\n      0x02\n      add\n      sload\n        /* \"3_Ballot.sol\":4466:4484  sender.district==4 */\n      eq\n        /* \"3_Ballot.sol\":4462:4977  if (sender.district==4){proposals[proposal].Votes_District4 += sender.weight;}... */\n      iszero\n      tag_79\n      jumpi\n        /* \"3_Ballot.sol\":4525:4531  sender */\n      dup1\n        /* \"3_Ballot.sol\":4525:4538  sender.weight */\n      0x00\n      add\n      sload\n        /* \"3_Ballot.sol\":4486:4495  proposals */\n      0x02\n        /* \"3_Ballot.sol\":4496:4504  proposal */\n      dup4\n        /* \"3_Ballot.sol\":4486:4505  proposals[proposal] */\n      dup2\n      sload\n      dup2\n      lt\n      tag_80\n      jumpi\n      tag_81\n      tag_51\n      jump\t// in\n    tag_81:\n    tag_80:\n      swap1\n      0x00\n      mstore\n      keccak256(0x00, 0x20)\n      swap1\n      0x0c\n      mul\n      add\n        /* \"3_Ballot.sol\":4486:4521  proposals[proposal].Votes_District4 */\n      0x06\n      add\n      0x00\n        /* \"3_Ballot.sol\":4486:4538  proposals[proposal].Votes_District4 += sender.weight */\n      dup3\n      dup3\n      sload\n      tag_83\n      swap2\n      swap1\n      tag_54\n      jump\t// in\n    tag_83:\n      swap3\n      pop\n      pop\n      dup2\n      swap1\n      sstore\n      pop\n        /* \"3_Ballot.sol\":4462:4977  if (sender.district==4){proposals[proposal].Votes_District4 += sender.weight;}... */\n      jump(tag_84)\n    tag_79:\n        /* \"3_Ballot.sol\":4575:4576  5 */\n      0x05\n        /* \"3_Ballot.sol\":4558:4564  sender */\n      dup2\n        /* \"3_Ballot.sol\":4558:4573  sender.district */\n      0x02\n      add\n      sload\n        /* \"3_Ballot.sol\":4558:4576  sender.district==5 */\n      eq\n        /* \"3_Ballot.sol\":4554:4977  if (sender.district==5){proposals[proposal].Votes_District5 += sender.weight;}... */\n      iszero\n      tag_85\n      jumpi\n        /* \"3_Ballot.sol\":4617:4623  sender */\n      dup1\n        /* \"3_Ballot.sol\":4617:4630  sender.weight */\n      0x00\n      add\n      sload\n        /* \"3_Ballot.sol\":4578:4587  proposals */\n      0x02\n        /* \"3_Ballot.sol\":4588:4596  proposal */\n      dup4\n        /* \"3_Ballot.sol\":4578:4597  proposals[proposal] */\n      dup2\n      sload\n      dup2\n      lt\n      tag_86\n      jumpi\n      tag_87\n      tag_51\n      jump\t// in\n    tag_87:\n    tag_86:\n      swap1\n      0x00\n      mstore\n      keccak256(0x00, 0x20)\n      swap1\n      0x0c\n      mul\n      add\n        /* \"3_Ballot.sol\":4578:4613  proposals[proposal].Votes_District5 */\n      0x07\n      add\n      0x00\n        /* \"3_Ballot.sol\":4578:4630  proposals[proposal].Votes_District5 += sender.weight */\n      dup3\n      dup3\n      sload\n      tag_89\n      swap2\n      swap1\n      tag_54\n      jump\t// in\n    tag_89:\n      swap3\n      pop\n      pop\n      dup2\n      swap1\n      sstore\n      pop\n        /* \"3_Ballot.sol\":4554:4977  if (sender.district==5){proposals[proposal].Votes_District5 += sender.weight;}... */\n      jump(tag_90)\n    tag_85:\n        /* \"3_Ballot.sol\":4667:4668  6 */\n      0x06\n        /* \"3_Ballot.sol\":4650:4656  sender */\n      dup2\n        /* \"3_Ballot.sol\":4650:4665  sender.district */\n      0x02\n      add\n      sload\n        /* \"3_Ballot.sol\":4650:4668  sender.district==6 */\n      eq\n        /* \"3_Ballot.sol\":4646:4977  if (sender.district==6){proposals[proposal].Votes_District6 += sender.weight;}... */\n      iszero\n      tag_91\n      jumpi\n        /* \"3_Ballot.sol\":4709:4715  sender */\n      dup1\n        /* \"3_Ballot.sol\":4709:4722  sender.weight */\n      0x00\n      add\n      sload\n        /* \"3_Ballot.sol\":4670:4679  proposals */\n      0x02\n        /* \"3_Ballot.sol\":4680:4688  proposal */\n      dup4\n        /* \"3_Ballot.sol\":4670:4689  proposals[proposal] */\n      dup2\n      sload\n      dup2\n      lt\n      tag_92\n      jumpi\n      tag_93\n      tag_51\n      jump\t// in\n    tag_93:\n    tag_92:\n      swap1\n      0x00\n      mstore\n      keccak256(0x00, 0x20)\n      swap1\n      0x0c\n      mul\n      add\n        /* \"3_Ballot.sol\":4670:4705  proposals[proposal].Votes_District6 */\n      0x08\n      add\n      0x00\n        /* \"3_Ballot.sol\":4670:4722  proposals[proposal].Votes_District6 += sender.weight */\n      dup3\n      dup3\n      sload\n      tag_95\n      swap2\n      swap1\n      tag_54\n      jump\t// in\n    tag_95:\n      swap3\n      pop\n      pop\n      dup2\n      swap1\n      sstore\n      pop\n        /* \"3_Ballot.sol\":4646:4977  if (sender.district==6){proposals[proposal].Votes_District6 += sender.weight;}... */\n      jump(tag_96)\n    tag_91:\n        /* \"3_Ballot.sol\":4759:4760  7 */\n      0x07\n        /* \"3_Ballot.sol\":4742:4748  sender */\n      dup2\n        /* \"3_Ballot.sol\":4742:4757  sender.district */\n      0x02\n      add\n      sload\n        /* \"3_Ballot.sol\":4742:4760  sender.district==7 */\n      eq\n        /* \"3_Ballot.sol\":4738:4977  if (sender.district==7){proposals[proposal].Votes_District7 += sender.weight;}... */\n      iszero\n      tag_97\n      jumpi\n        /* \"3_Ballot.sol\":4801:4807  sender */\n      dup1\n        /* \"3_Ballot.sol\":4801:4814  sender.weight */\n      0x00\n      add\n      sload\n        /* \"3_Ballot.sol\":4762:4771  proposals */\n      0x02\n        /* \"3_Ballot.sol\":4772:4780  proposal */\n      dup4\n        /* \"3_Ballot.sol\":4762:4781  proposals[proposal] */\n      dup2\n      sload\n      dup2\n      lt\n      tag_98\n      jumpi\n      tag_99\n      tag_51\n      jump\t// in\n    tag_99:\n    tag_98:\n      swap1\n      0x00\n      mstore\n      keccak256(0x00, 0x20)\n      swap1\n      0x0c\n      mul\n      add\n        /* \"3_Ballot.sol\":4762:4797  proposals[proposal].Votes_District7 */\n      0x09\n      add\n      0x00\n        /* \"3_Ballot.sol\":4762:4814  proposals[proposal].Votes_District7 += sender.weight */\n      dup3\n      dup3\n      sload\n      tag_101\n      swap2\n      swap1\n      tag_54\n      jump\t// in\n    tag_101:\n      swap3\n      pop\n      pop\n      dup2\n      swap1\n      sstore\n      pop\n        /* \"3_Ballot.sol\":4738:4977  if (sender.district==7){proposals[proposal].Votes_District7 += sender.weight;}... */\n      jump(tag_102)\n    tag_97:\n        /* \"3_Ballot.sol\":4851:4852  8 */\n      0x08\n        /* \"3_Ballot.sol\":4834:4840  sender */\n      dup2\n        /* \"3_Ballot.sol\":4834:4849  sender.district */\n      0x02\n      add\n      sload\n        /* \"3_Ballot.sol\":4834:4852  sender.district==8 */\n      eq\n        /* \"3_Ballot.sol\":4830:4977  if (sender.district==8){proposals[proposal].Votes_District8 += sender.weight;}... */\n      iszero\n      tag_103\n      jumpi\n        /* \"3_Ballot.sol\":4893:4899  sender */\n      dup1\n        /* \"3_Ballot.sol\":4893:4906  sender.weight */\n      0x00\n      add\n      sload\n        /* \"3_Ballot.sol\":4854:4863  proposals */\n      0x02\n        /* \"3_Ballot.sol\":4864:4872  proposal */\n      dup4\n        /* \"3_Ballot.sol\":4854:4873  proposals[proposal] */\n      dup2\n      sload\n      dup2\n      lt\n      tag_104\n      jumpi\n      tag_105\n      tag_51\n      jump\t// in\n    tag_105:\n    tag_104:\n      swap1\n      0x00\n      mstore\n      keccak256(0x00, 0x20)\n      swap1\n      0x0c\n      mul\n      add\n        /* \"3_Ballot.sol\":4854:4889  proposals[proposal].Votes_District8 */\n      0x0a\n      add\n      0x00\n        /* \"3_Ballot.sol\":4854:4906  proposals[proposal].Votes_District8 += sender.weight */\n      dup3\n      dup3\n      sload\n      tag_107\n      swap2\n      swap1\n      tag_54\n      jump\t// in\n    tag_107:\n      swap3\n      pop\n      pop\n      dup2\n      swap1\n      sstore\n      pop\n        /* \"3_Ballot.sol\":4830:4977  if (sender.district==8){proposals[proposal].Votes_District8 += sender.weight;}... */\n      jump(tag_108)\n    tag_103:\n        /* \"3_Ballot.sol\":4962:4968  sender */\n      dup1\n        /* \"3_Ballot.sol\":4962:4975  sender.weight */\n      0x00\n      add\n      sload\n        /* \"3_Ballot.sol\":4923:4932  proposals */\n      0x02\n        /* \"3_Ballot.sol\":4933:4941  proposal */\n      dup4\n        /* \"3_Ballot.sol\":4923:4942  proposals[proposal] */\n      dup2\n      sload\n      dup2\n      lt\n      tag_109\n      jumpi\n      tag_110\n      tag_51\n      jump\t// in\n    tag_110:\n    tag_109:\n      swap1\n      0x00\n      mstore\n      keccak256(0x00, 0x20)\n      swap1\n      0x0c\n      mul\n      add\n        /* \"3_Ballot.sol\":4923:4958  proposals[proposal].Votes_District9 */\n      0x0b\n      add\n      0x00\n        /* \"3_Ballot.sol\":4923:4975  proposals[proposal].Votes_District9 += sender.weight */\n      dup3\n      dup3\n      sload\n      tag_112\n      swap2\n      swap1\n      tag_54\n      jump\t// in\n    tag_112:\n      swap3\n      pop\n      pop\n      dup2\n      swap1\n      sstore\n      pop\n        /* \"3_Ballot.sol\":4830:4977  if (sender.district==8){proposals[proposal].Votes_District8 += sender.weight;}... */\n    tag_108:\n        /* \"3_Ballot.sol\":4738:4977  if (sender.district==7){proposals[proposal].Votes_District7 += sender.weight;}... */\n    tag_102:\n        /* \"3_Ballot.sol\":4646:4977  if (sender.district==6){proposals[proposal].Votes_District6 += sender.weight;}... */\n    tag_96:\n        /* \"3_Ballot.sol\":4554:4977  if (sender.district==5){proposals[proposal].Votes_District5 += sender.weight;}... */\n    tag_90:\n        /* \"3_Ballot.sol\":4462:4977  if (sender.district==4){proposals[proposal].Votes_District4 += sender.weight;}... */\n    tag_84:\n        /* \"3_Ballot.sol\":4370:4977  if (sender.district==3){proposals[proposal].Votes_District3 += sender.weight;}... */\n    tag_78:\n        /* \"3_Ballot.sol\":4278:4977  if (sender.district==2){proposals[proposal].Votes_District2 += sender.weight;}... */\n    tag_72:\n        /* \"3_Ballot.sol\":4186:4977  if (sender.district==1){proposals[proposal].Votes_District1 += sender.weight;}... */\n    tag_66:\n        /* \"3_Ballot.sol\":4094:4977  if (sender.district==0){proposals[proposal].Votes_District0 += sender.weight;}... */\n    tag_60:\n        /* \"3_Ballot.sol\":5098:5117  incrementCounter2() */\n      tag_113\n        /* \"3_Ballot.sol\":5098:5115  incrementCounter2 */\n      tag_114\n        /* \"3_Ballot.sol\":5098:5117  incrementCounter2() */\n      jump\t// in\n    tag_113:\n        /* \"3_Ballot.sol\":3459:5124  {... */\n      pop\n        /* \"3_Ballot.sol\":3423:5124  function vote(uint proposal) public {... */\n      pop\n      jump\t// out\n        /* \"3_Ballot.sol\":1056:1083  Proposal[] public proposals */\n    tag_17:\n      0x02\n      dup2\n      dup2\n      sload\n      dup2\n      lt\n      tag_115\n      jumpi\n      0x00\n      dup1\n      revert\n    tag_115:\n      swap1\n      0x00\n      mstore\n      keccak256(0x00, 0x20)\n      swap1\n      0x0c\n      mul\n      add\n      0x00\n      swap2\n      pop\n      swap1\n      pop\n      dup1\n      0x00\n      add\n      dup1\n      sload\n      tag_117\n      swap1\n      tag_118\n      jump\t// in\n    tag_117:\n      dup1\n      0x1f\n      add\n      0x20\n      dup1\n      swap2\n      div\n      mul\n      0x20\n      add\n      mload(0x40)\n      swap1\n      dup2\n      add\n      0x40\n      mstore\n      dup1\n      swap3\n      swap2\n      swap1\n      dup2\n      dup2\n      mstore\n      0x20\n      add\n      dup3\n      dup1\n      sload\n      tag_119\n      swap1\n      tag_118\n      jump\t// in\n    tag_119:\n      dup1\n      iszero\n      tag_120\n      jumpi\n      dup1\n      0x1f\n      lt\n      tag_121\n      jumpi\n      0x0100\n      dup1\n      dup4\n      sload\n      div\n      mul\n      dup4\n      mstore\n      swap2\n      0x20\n      add\n      swap2\n      jump(tag_120)\n    tag_121:\n      dup3\n      add\n      swap2\n      swap1\n      0x00\n      mstore\n      keccak256(0x00, 0x20)\n      swap1\n    tag_122:\n      dup2\n      sload\n      dup2\n      mstore\n      swap1\n      0x01\n      add\n      swap1\n      0x20\n      add\n      dup1\n      dup4\n      gt\n      tag_122\n      jumpi\n      dup3\n      swap1\n      sub\n      0x1f\n      and\n      dup3\n      add\n      swap2\n    tag_120:\n      pop\n      pop\n      pop\n      pop\n      pop\n      swap1\n      dup1\n      0x01\n      add\n      sload\n      swap1\n      dup1\n      0x02\n      add\n      sload\n      swap1\n      dup1\n      0x03\n      add\n      sload\n      swap1\n      dup1\n      0x04\n      add\n      sload\n      swap1\n      dup1\n      0x05\n      add\n      sload\n      swap1\n      dup1\n      0x06\n      add\n      sload\n      swap1\n      dup1\n      0x07\n      add\n      sload\n      swap1\n      dup1\n      0x08\n      add\n      sload\n      swap1\n      dup1\n      0x09\n      add\n      sload\n      swap1\n      dup1\n      0x0a\n      add\n      sload\n      swap1\n      dup1\n      0x0b\n      add\n      sload\n      swap1\n      pop\n      dup13\n      jump\t// out\n        /* \"3_Ballot.sol\":1368:1451  function getInfo() public view returns (string memory) {... */\n    tag_21:\n        /* \"3_Ballot.sol\":1408:1421  string memory */\n      0x60\n        /* \"3_Ballot.sol\":1440:1444  info */\n      0x03\n        /* \"3_Ballot.sol\":1433:1444  return info */\n      dup1\n      sload\n      tag_124\n      swap1\n      tag_118\n      jump\t// in\n    tag_124:\n      dup1\n      0x1f\n      add\n      0x20\n      dup1\n      swap2\n      div\n      mul\n      0x20\n      add\n      mload(0x40)\n      swap1\n      dup2\n      add\n      0x40\n      mstore\n      dup1\n      swap3\n      swap2\n      swap1\n      dup2\n      dup2\n      mstore\n      0x20\n      add\n      dup3\n      dup1\n      sload\n      tag_125\n      swap1\n      tag_118\n      jump\t// in\n    tag_125:\n      dup1\n      iszero\n      tag_126\n      jumpi\n      dup1\n      0x1f\n      lt\n      tag_127\n      jumpi\n      0x0100\n      dup1\n      dup4\n      sload\n      div\n      mul\n      dup4\n      mstore\n      swap2\n      0x20\n      add\n      swap2\n      jump(tag_126)\n    tag_127:\n      dup3\n      add\n      swap2\n      swap1\n      0x00\n      mstore\n      keccak256(0x00, 0x20)\n      swap1\n    tag_128:\n      dup2\n      sload\n      dup2\n      mstore\n      swap1\n      0x01\n      add\n      swap1\n      0x20\n      add\n      dup1\n      dup4\n      gt\n      tag_128\n      jumpi\n      dup3\n      swap1\n      sub\n      0x1f\n      and\n      dup3\n      add\n      swap2\n    tag_126:\n      pop\n      pop\n      pop\n      pop\n      pop\n      swap1\n      pop\n        /* \"3_Ballot.sol\":1368:1451  function getInfo() public view returns (string memory) {... */\n      swap1\n      jump\t// out\n        /* \"3_Ballot.sol\":1288:1362  function setInfo(string memory _info) public {... */\n    tag_27:\n        /* \"3_Ballot.sol\":1350:1355  _info */\n      dup1\n        /* \"3_Ballot.sol\":1343:1347  info */\n      0x03\n        /* \"3_Ballot.sol\":1343:1355  info = _info */\n      swap1\n      dup1\n      mload\n      swap1\n      0x20\n      add\n      swap1\n      tag_130\n      swap3\n      swap2\n      swap1\n      tag_131\n      jump\t// in\n    tag_130:\n      pop\n        /* \"3_Ballot.sol\":1288:1362  function setInfo(string memory _info) public {... */\n      pop\n      jump\t// out\n        /* \"3_Ballot.sol\":2847:3319  function giveRightToVote(address voter) public {... */\n    tag_31:\n        /* \"3_Ballot.sol\":2939:2950  chairperson */\n      0x00\n      dup1\n      sload\n      swap1\n      0x0100\n      exp\n      swap1\n      div\n      0xffffffffffffffffffffffffffffffffffffffff\n      and\n        /* \"3_Ballot.sol\":2925:2950  msg.sender == chairperson */\n      0xffffffffffffffffffffffffffffffffffffffff\n      and\n        /* \"3_Ballot.sol\":2925:2935  msg.sender */\n      caller\n        /* \"3_Ballot.sol\":2925:2950  msg.sender == chairperson */\n      0xffffffffffffffffffffffffffffffffffffffff\n      and\n      eq\n        /* \"3_Ballot.sol\":2904:3016  require(... */\n      tag_133\n      jumpi\n      mload(0x40)\n      0x08c379a000000000000000000000000000000000000000000000000000000000\n      dup2\n      mstore\n      0x04\n      add\n      tag_134\n      swap1\n      tag_135\n      jump\t// in\n    tag_134:\n      mload(0x40)\n      dup1\n      swap2\n      sub\n      swap1\n      revert\n    tag_133:\n        /* \"3_Ballot.sol\":3048:3054  voters */\n      0x01\n        /* \"3_Ballot.sol\":3048:3061  voters[voter] */\n      0x00\n        /* \"3_Ballot.sol\":3055:3060  voter */\n      dup3\n        /* \"3_Ballot.sol\":3048:3061  voters[voter] */\n      0xffffffffffffffffffffffffffffffffffffffff\n      and\n      0xffffffffffffffffffffffffffffffffffffffff\n      and\n      dup2\n      mstore\n      0x20\n      add\n      swap1\n      dup2\n      mstore\n      0x20\n      add\n      0x00\n      keccak256\n        /* \"3_Ballot.sol\":3048:3067  voters[voter].voted */\n      0x01\n      add\n      0x00\n      swap1\n      sload\n      swap1\n      0x0100\n      exp\n      swap1\n      div\n      0xff\n      and\n        /* \"3_Ballot.sol\":3047:3067  !voters[voter].voted */\n      iszero\n        /* \"3_Ballot.sol\":3026:3117  require(... */\n      tag_136\n      jumpi\n      mload(0x40)\n      0x08c379a000000000000000000000000000000000000000000000000000000000\n      dup2\n      mstore\n      0x04\n      add\n      tag_137\n      swap1\n      tag_138\n      jump\t// in\n    tag_137:\n      mload(0x40)\n      dup1\n      swap2\n      sub\n      swap1\n      revert\n    tag_136:\n        /* \"3_Ballot.sol\":3159:3160  0 */\n      0x00\n        /* \"3_Ballot.sol\":3135:3141  voters */\n      0x01\n        /* \"3_Ballot.sol\":3135:3148  voters[voter] */\n      0x00\n        /* \"3_Ballot.sol\":3142:3147  voter */\n      dup4\n        /* \"3_Ballot.sol\":3135:3148  voters[voter] */\n      0xffffffffffffffffffffffffffffffffffffffff\n      and\n      0xffffffffffffffffffffffffffffffffffffffff\n      and\n      dup2\n      mstore\n      0x20\n      add\n      swap1\n      dup2\n      mstore\n      0x20\n      add\n      0x00\n      keccak256\n        /* \"3_Ballot.sol\":3135:3155  voters[voter].weight */\n      0x00\n      add\n      sload\n        /* \"3_Ballot.sol\":3135:3160  voters[voter].weight == 0 */\n      eq\n        /* \"3_Ballot.sol\":3127:3161  require(voters[voter].weight == 0) */\n      tag_139\n      jumpi\n      0x00\n      dup1\n      revert\n    tag_139:\n        /* \"3_Ballot.sol\":3194:3195  1 */\n      0x01\n        /* \"3_Ballot.sol\":3171:3177  voters */\n      dup1\n        /* \"3_Ballot.sol\":3171:3184  voters[voter] */\n      0x00\n        /* \"3_Ballot.sol\":3178:3183  voter */\n      dup4\n        /* \"3_Ballot.sol\":3171:3184  voters[voter] */\n      0xffffffffffffffffffffffffffffffffffffffff\n      and\n      0xffffffffffffffffffffffffffffffffffffffff\n      and\n      dup2\n      mstore\n      0x20\n      add\n      swap1\n      dup2\n      mstore\n      0x20\n      add\n      0x00\n      keccak256\n        /* \"3_Ballot.sol\":3171:3191  voters[voter].weight */\n      0x00\n      add\n        /* \"3_Ballot.sol\":3171:3195  voters[voter].weight = 1 */\n      dup2\n      swap1\n      sstore\n      pop\n        /* \"3_Ballot.sol\":3219:3220  3 */\n      0x03\n        /* \"3_Ballot.sol\":3213:3218  count */\n      sload(0x04)\n        /* \"3_Ballot.sol\":3213:3220  count<3 */\n      slt\n        /* \"3_Ballot.sol\":3205:3243  require(count<3,\"Reached max voters.\") */\n      tag_140\n      jumpi\n      mload(0x40)\n      0x08c379a000000000000000000000000000000000000000000000000000000000\n      dup2\n      mstore\n      0x04\n      add\n      tag_141\n      swap1\n      tag_142\n      jump\t// in\n    tag_141:\n      mload(0x40)\n      dup1\n      swap2\n      sub\n      swap1\n      revert\n    tag_140:\n        /* \"3_Ballot.sol\":3253:3271  incrementCounter() */\n      tag_143\n        /* \"3_Ballot.sol\":3253:3269  incrementCounter */\n      tag_144\n        /* \"3_Ballot.sol\":3253:3271  incrementCounter() */\n      jump\t// in\n    tag_143:\n        /* \"3_Ballot.sol\":3304:3312  random() */\n      tag_145\n        /* \"3_Ballot.sol\":3304:3310  random */\n      tag_146\n        /* \"3_Ballot.sol\":3304:3312  random() */\n      jump\t// in\n    tag_145:\n        /* \"3_Ballot.sol\":3281:3287  voters */\n      0x01\n        /* \"3_Ballot.sol\":3281:3294  voters[voter] */\n      0x00\n        /* \"3_Ballot.sol\":3288:3293  voter */\n      dup4\n        /* \"3_Ballot.sol\":3281:3294  voters[voter] */\n      0xffffffffffffffffffffffffffffffffffffffff\n      and\n      0xffffffffffffffffffffffffffffffffffffffff\n      and\n      dup2\n      mstore\n      0x20\n      add\n      swap1\n      dup2\n      mstore\n      0x20\n      add\n      0x00\n      keccak256\n        /* \"3_Ballot.sol\":3281:3303  voters[voter].district */\n      0x02\n      add\n        /* \"3_Ballot.sol\":3281:3312  voters[voter].district=random() */\n      dup2\n      swap1\n      sstore\n      pop\n        /* \"3_Ballot.sol\":2847:3319  function giveRightToVote(address voter) public {... */\n      pop\n      jump\t// out\n        /* \"3_Ballot.sol\":896:935  mapping(address => Voter) public voters */\n    tag_34:\n      mstore(0x20, 0x01)\n      dup1\n      0x00\n      mstore\n      keccak256(0x00, 0x40)\n      0x00\n      swap2\n      pop\n      swap1\n      pop\n      dup1\n      0x00\n      add\n      sload\n      swap1\n      dup1\n      0x01\n      add\n      0x00\n      swap1\n      sload\n      swap1\n      0x0100\n      exp\n      swap1\n      div\n      0xff\n      and\n      swap1\n      dup1\n      0x02\n      add\n      sload\n      swap1\n      dup1\n      0x03\n      add\n      sload\n      swap1\n      pop\n      dup5\n      jump\t// out\n        /* \"3_Ballot.sol\":5130:5222  function res(uint _id) public returns(Proposal memory){... */\n    tag_39:\n        /* \"3_Ballot.sol\":5168:5183  Proposal memory */\n      tag_147\n      tag_148\n      jump\t// in\n    tag_147:\n        /* \"3_Ballot.sol\":5201:5210  proposals */\n      0x02\n        /* \"3_Ballot.sol\":5211:5214  _id */\n      dup3\n        /* \"3_Ballot.sol\":5201:5215  proposals[_id] */\n      dup2\n      sload\n      dup2\n      lt\n      tag_150\n      jumpi\n      tag_151\n      tag_51\n      jump\t// in\n    tag_151:\n    tag_150:\n      swap1\n      0x00\n      mstore\n      keccak256(0x00, 0x20)\n      swap1\n      0x0c\n      mul\n      add\n        /* \"3_Ballot.sol\":5194:5215  return proposals[_id] */\n      mload(0x40)\n      dup1\n      0x0180\n      add\n      0x40\n      mstore\n      swap1\n      dup2\n      0x00\n      dup3\n      add\n      dup1\n      sload\n      tag_153\n      swap1\n      tag_118\n      jump\t// in\n    tag_153:\n      dup1\n      0x1f\n      add\n      0x20\n      dup1\n      swap2\n      div\n      mul\n      0x20\n      add\n      mload(0x40)\n      swap1\n      dup2\n      add\n      0x40\n      mstore\n      dup1\n      swap3\n      swap2\n      swap1\n      dup2\n      dup2\n      mstore\n      0x20\n      add\n      dup3\n      dup1\n      sload\n      tag_154\n      swap1\n      tag_118\n      jump\t// in\n    tag_154:\n      dup1\n      iszero\n      tag_155\n      jumpi\n      dup1\n      0x1f\n      lt\n      tag_156\n      jumpi\n      0x0100\n      dup1\n      dup4\n      sload\n      div\n      mul\n      dup4\n      mstore\n      swap2\n      0x20\n      add\n      swap2\n      jump(tag_155)\n    tag_156:\n      dup3\n      add\n      swap2\n      swap1\n      0x00\n      mstore\n      keccak256(0x00, 0x20)\n      swap1\n    tag_157:\n      dup2\n      sload\n      dup2\n      mstore\n      swap1\n      0x01\n      add\n      swap1\n      0x20\n      add\n      dup1\n      dup4\n      gt\n      tag_157\n      jumpi\n      dup3\n      swap1\n      sub\n      0x1f\n      and\n      dup3\n      add\n      swap2\n    tag_155:\n      pop\n      pop\n      pop\n      pop\n      pop\n      dup2\n      mstore\n      0x20\n      add\n      0x01\n      dup3\n      add\n      sload\n      dup2\n      mstore\n      0x20\n      add\n      0x02\n      dup3\n      add\n      sload\n      dup2\n      mstore\n      0x20\n      add\n      0x03\n      dup3\n      add\n      sload\n      dup2\n      mstore\n      0x20\n      add\n      0x04\n      dup3\n      add\n      sload\n      dup2\n      mstore\n      0x20\n      add\n      0x05\n      dup3\n      add\n      sload\n      dup2\n      mstore\n      0x20\n      add\n      0x06\n      dup3\n      add\n      sload\n      dup2\n      mstore\n      0x20\n      add\n      0x07\n      dup3\n      add\n      sload\n      dup2\n      mstore\n      0x20\n      add\n      0x08\n      dup3\n      add\n      sload\n      dup2\n      mstore\n      0x20\n      add\n      0x09\n      dup3\n      add\n      sload\n      dup2\n      mstore\n      0x20\n      add\n      0x0a\n      dup3\n      add\n      sload\n      dup2\n      mstore\n      0x20\n      add\n      0x0b\n      dup3\n      add\n      sload\n      dup2\n      mstore\n      pop\n      pop\n      swap1\n      pop\n        /* \"3_Ballot.sol\":5130:5222  function res(uint _id) public returns(Proposal memory){... */\n      swap2\n      swap1\n      pop\n      jump\t// out\n        /* \"3_Ballot.sol\":3353:3418  function incrementCounter2() private {... */\n    tag_114:\n        /* \"3_Ballot.sol\":3410:3411  1 */\n      0x01\n        /* \"3_Ballot.sol\":3400:3406  count2 */\n      0x05\n      0x00\n        /* \"3_Ballot.sol\":3400:3411  count2 += 1 */\n      dup3\n      dup3\n      sload\n      tag_159\n      swap2\n      swap1\n      tag_160\n      jump\t// in\n    tag_159:\n      swap3\n      pop\n      pop\n      dup2\n      swap1\n      sstore\n      pop\n        /* \"3_Ballot.sol\":3353:3418  function incrementCounter2() private {... */\n      jump\t// out\n        /* \"3_Ballot.sol\":2777:2840  function incrementCounter() private {... */\n    tag_144:\n        /* \"3_Ballot.sol\":2832:2833  1 */\n      0x01\n        /* \"3_Ballot.sol\":2823:2828  count */\n      0x04\n      0x00\n        /* \"3_Ballot.sol\":2823:2833  count += 1 */\n      dup3\n      dup3\n      sload\n      tag_162\n      swap2\n      swap1\n      tag_160\n      jump\t// in\n    tag_162:\n      swap3\n      pop\n      pop\n      dup2\n      swap1\n      sstore\n      pop\n        /* \"3_Ballot.sol\":2777:2840  function incrementCounter() private {... */\n      jump\t// out\n        /* \"3_Ballot.sol\":1095:1257  function random() private view returns(uint){... */\n    tag_146:\n        /* \"3_Ballot.sol\":1134:1138  uint */\n      0x00\n        /* \"3_Ballot.sol\":1248:1250  10 */\n      0x0a\n        /* \"3_Ballot.sol\":1188:1203  block.timestamp */\n      timestamp\n        /* \"3_Ballot.sol\":1204:1220  block.difficulty */\n      difficulty\n        /* \"3_Ballot.sol\":1232:1242  msg.sender */\n      caller\n        /* \"3_Ballot.sol\":1171:1243  abi.encodePacked(block.timestamp,block.difficulty,  ... */\n      add(0x20, mload(0x40))\n      tag_164\n      swap4\n      swap3\n      swap2\n      swap1\n      tag_165\n      jump\t// in\n    tag_164:\n      mload(0x40)\n      0x20\n      dup2\n      dup4\n      sub\n      sub\n      dup2\n      mstore\n      swap1\n      0x40\n      mstore\n        /* \"3_Ballot.sol\":1161:1244  keccak256(abi.encodePacked(block.timestamp,block.difficulty,  ... */\n      dup1\n      mload\n      swap1\n      0x20\n      add\n      keccak256\n        /* \"3_Ballot.sol\":1156:1245  uint(keccak256(abi.encodePacked(block.timestamp,block.difficulty,  ... */\n      0x00\n      shr\n        /* \"3_Ballot.sol\":1156:1250  uint(keccak256(abi.encodePacked(block.timestamp,block.difficulty,  ... */\n      tag_166\n      swap2\n      swap1\n      tag_167\n      jump\t// in\n    tag_166:\n        /* \"3_Ballot.sol\":1149:1250  return uint(keccak256(abi.encodePacked(block.timestamp,block.difficulty,  ... */\n      swap1\n      pop\n        /* \"3_Ballot.sol\":1095:1257  function random() private view returns(uint){... */\n      swap1\n      jump\t// out\n    tag_131:\n      dup3\n      dup1\n      sload\n      tag_168\n      swap1\n      tag_118\n      jump\t// in\n    tag_168:\n      swap1\n      0x00\n      mstore\n      keccak256(0x00, 0x20)\n      swap1\n      0x1f\n      add\n      0x20\n      swap1\n      div\n      dup2\n      add\n      swap3\n      dup3\n      tag_170\n      jumpi\n      0x00\n      dup6\n      sstore\n      jump(tag_169)\n    tag_170:\n      dup3\n      0x1f\n      lt\n      tag_171\n      jumpi\n      dup1\n      mload\n      not(0xff)\n      and\n      dup4\n      dup1\n      add\n      or\n      dup6\n      sstore\n      jump(tag_169)\n    tag_171:\n      dup3\n      dup1\n      add\n      0x01\n      add\n      dup6\n      sstore\n      dup3\n      iszero\n      tag_169\n      jumpi\n      swap2\n      dup3\n      add\n    tag_172:\n      dup3\n      dup2\n      gt\n      iszero\n      tag_173\n      jumpi\n      dup3\n      mload\n      dup3\n      sstore\n      swap2\n      0x20\n      add\n      swap2\n      swap1\n      0x01\n      add\n      swap1\n      jump(tag_172)\n    tag_173:\n    tag_169:\n      pop\n      swap1\n      pop\n      tag_174\n      swap2\n      swap1\n      tag_175\n      jump\t// in\n    tag_174:\n      pop\n      swap1\n      jump\t// out\n    tag_148:\n      mload(0x40)\n      dup1\n      0x0180\n      add\n      0x40\n      mstore\n      dup1\n      0x60\n      dup2\n      mstore\n      0x20\n      add\n      0x00\n      dup2\n      mstore\n      0x20\n      add\n      0x00\n      dup2\n      mstore\n      0x20\n      add\n      0x00\n      dup2\n      mstore\n      0x20\n      add\n      0x00\n      dup2\n      mstore\n      0x20\n      add\n      0x00\n      dup2\n      mstore\n      0x20\n      add\n      0x00\n      dup2\n      mstore\n      0x20\n      add\n      0x00\n      dup2\n      mstore\n      0x20\n      add\n      0x00\n      dup2\n      mstore\n      0x20\n      add\n      0x00\n      dup2\n      mstore\n      0x20\n      add\n      0x00\n      dup2\n      mstore\n      0x20\n      add\n      0x00\n      dup2\n      mstore\n      pop\n      swap1\n      jump\t// out\n    tag_175:\n    tag_176:\n      dup1\n      dup3\n      gt\n      iszero\n      tag_177\n      jumpi\n      0x00\n      dup2\n      0x00\n      swap1\n      sstore\n      pop\n      0x01\n      add\n      jump(tag_176)\n    tag_177:\n      pop\n      swap1\n      jump\t// out\n        /* \"#utility.yul\":7:419   */\n    tag_179:\n        /* \"#utility.yul\":85:90   */\n      0x00\n        /* \"#utility.yul\":110:176   */\n      tag_181\n        /* \"#utility.yul\":126:175   */\n      tag_182\n        /* \"#utility.yul\":168:174   */\n      dup5\n        /* \"#utility.yul\":126:175   */\n      tag_183\n      jump\t// in\n    tag_182:\n        /* \"#utility.yul\":110:176   */\n      tag_184\n      jump\t// in\n    tag_181:\n        /* \"#utility.yul\":101:176   */\n      swap1\n      pop\n        /* \"#utility.yul\":199:205   */\n      dup3\n        /* \"#utility.yul\":192:197   */\n      dup2\n        /* \"#utility.yul\":185:206   */\n      mstore\n        /* \"#utility.yul\":237:241   */\n      0x20\n        /* \"#utility.yul\":230:235   */\n      dup2\n        /* \"#utility.yul\":226:242   */\n      add\n        /* \"#utility.yul\":275:278   */\n      dup5\n        /* \"#utility.yul\":266:272   */\n      dup5\n        /* \"#utility.yul\":261:264   */\n      dup5\n        /* \"#utility.yul\":257:273   */\n      add\n        /* \"#utility.yul\":254:279   */\n      gt\n        /* \"#utility.yul\":251:363   */\n      iszero\n      tag_185\n      jumpi\n        /* \"#utility.yul\":282:361   */\n      tag_186\n      tag_187\n      jump\t// in\n    tag_186:\n        /* \"#utility.yul\":251:363   */\n    tag_185:\n        /* \"#utility.yul\":372:413   */\n      tag_188\n        /* \"#utility.yul\":406:412   */\n      dup5\n        /* \"#utility.yul\":401:404   */\n      dup3\n        /* \"#utility.yul\":396:399   */\n      dup6\n        /* \"#utility.yul\":372:413   */\n      tag_189\n      jump\t// in\n    tag_188:\n        /* \"#utility.yul\":91:419   */\n      pop\n        /* \"#utility.yul\":7:419   */\n      swap4\n      swap3\n      pop\n      pop\n      pop\n      jump\t// out\n        /* \"#utility.yul\":425:564   */\n    tag_190:\n        /* \"#utility.yul\":471:476   */\n      0x00\n        /* \"#utility.yul\":509:515   */\n      dup2\n        /* \"#utility.yul\":496:516   */\n      calldataload\n        /* \"#utility.yul\":487:516   */\n      swap1\n      pop\n        /* \"#utility.yul\":525:558   */\n      tag_192\n        /* \"#utility.yul\":552:557   */\n      dup2\n        /* \"#utility.yul\":525:558   */\n      tag_193\n      jump\t// in\n    tag_192:\n        /* \"#utility.yul\":425:564   */\n      swap3\n      swap2\n      pop\n      pop\n      jump\t// out\n        /* \"#utility.yul\":584:924   */\n    tag_194:\n        /* \"#utility.yul\":640:645   */\n      0x00\n        /* \"#utility.yul\":689:692   */\n      dup3\n        /* \"#utility.yul\":682:686   */\n      0x1f\n        /* \"#utility.yul\":674:680   */\n      dup4\n        /* \"#utility.yul\":670:687   */\n      add\n        /* \"#utility.yul\":666:693   */\n      slt\n        /* \"#utility.yul\":656:778   */\n      tag_196\n      jumpi\n        /* \"#utility.yul\":697:776   */\n      tag_197\n      tag_198\n      jump\t// in\n    tag_197:\n        /* \"#utility.yul\":656:778   */\n    tag_196:\n        /* \"#utility.yul\":814:820   */\n      dup2\n        /* \"#utility.yul\":801:821   */\n      calldataload\n        /* \"#utility.yul\":839:918   */\n      tag_199\n        /* \"#utility.yul\":914:917   */\n      dup5\n        /* \"#utility.yul\":906:912   */\n      dup3\n        /* \"#utility.yul\":899:903   */\n      0x20\n        /* \"#utility.yul\":891:897   */\n      dup7\n        /* \"#utility.yul\":887:904   */\n      add\n        /* \"#utility.yul\":839:918   */\n      tag_179\n      jump\t// in\n    tag_199:\n        /* \"#utility.yul\":830:918   */\n      swap2\n      pop\n        /* \"#utility.yul\":646:924   */\n      pop\n        /* \"#utility.yul\":584:924   */\n      swap3\n      swap2\n      pop\n      pop\n      jump\t// out\n        /* \"#utility.yul\":930:1069   */\n    tag_200:\n        /* \"#utility.yul\":976:981   */\n      0x00\n        /* \"#utility.yul\":1014:1020   */\n      dup2\n        /* \"#utility.yul\":1001:1021   */\n      calldataload\n        /* \"#utility.yul\":992:1021   */\n      swap1\n      pop\n        /* \"#utility.yul\":1030:1063   */\n      tag_202\n        /* \"#utility.yul\":1057:1062   */\n      dup2\n        /* \"#utility.yul\":1030:1063   */\n      tag_203\n      jump\t// in\n    tag_202:\n        /* \"#utility.yul\":930:1069   */\n      swap3\n      swap2\n      pop\n      pop\n      jump\t// out\n        /* \"#utility.yul\":1075:1404   */\n    tag_30:\n        /* \"#utility.yul\":1134:1140   */\n      0x00\n        /* \"#utility.yul\":1183:1185   */\n      0x20\n        /* \"#utility.yul\":1171:1180   */\n      dup3\n        /* \"#utility.yul\":1162:1169   */\n      dup5\n        /* \"#utility.yul\":1158:1181   */\n      sub\n        /* \"#utility.yul\":1154:1186   */\n      slt\n        /* \"#utility.yul\":1151:1270   */\n      iszero\n      tag_205\n      jumpi\n        /* \"#utility.yul\":1189:1268   */\n      tag_206\n      tag_207\n      jump\t// in\n    tag_206:\n        /* \"#utility.yul\":1151:1270   */\n    tag_205:\n        /* \"#utility.yul\":1309:1310   */\n      0x00\n        /* \"#utility.yul\":1334:1387   */\n      tag_208\n        /* \"#utility.yul\":1379:1386   */\n      dup5\n        /* \"#utility.yul\":1370:1376   */\n      dup3\n        /* \"#utility.yul\":1359:1368   */\n      dup6\n        /* \"#utility.yul\":1355:1377   */\n      add\n        /* \"#utility.yul\":1334:1387   */\n      tag_190\n      jump\t// in\n    tag_208:\n        /* \"#utility.yul\":1324:1387   */\n      swap2\n      pop\n        /* \"#utility.yul\":1280:1397   */\n      pop\n        /* \"#utility.yul\":1075:1404   */\n      swap3\n      swap2\n      pop\n      pop\n      jump\t// out\n        /* \"#utility.yul\":1410:1919   */\n    tag_26:\n        /* \"#utility.yul\":1479:1485   */\n      0x00\n        /* \"#utility.yul\":1528:1530   */\n      0x20\n        /* \"#utility.yul\":1516:1525   */\n      dup3\n        /* \"#utility.yul\":1507:1514   */\n      dup5\n        /* \"#utility.yul\":1503:1526   */\n      sub\n        /* \"#utility.yul\":1499:1531   */\n      slt\n        /* \"#utility.yul\":1496:1615   */\n      iszero\n      tag_210\n      jumpi\n        /* \"#utility.yul\":1534:1613   */\n      tag_211\n      tag_207\n      jump\t// in\n    tag_211:\n        /* \"#utility.yul\":1496:1615   */\n    tag_210:\n        /* \"#utility.yul\":1682:1683   */\n      0x00\n        /* \"#utility.yul\":1671:1680   */\n      dup3\n        /* \"#utility.yul\":1667:1684   */\n      add\n        /* \"#utility.yul\":1654:1685   */\n      calldataload\n        /* \"#utility.yul\":1712:1730   */\n      0xffffffffffffffff\n        /* \"#utility.yul\":1704:1710   */\n      dup2\n        /* \"#utility.yul\":1701:1731   */\n      gt\n        /* \"#utility.yul\":1698:1815   */\n      iszero\n      tag_212\n      jumpi\n        /* \"#utility.yul\":1734:1813   */\n      tag_213\n      tag_214\n      jump\t// in\n    tag_213:\n        /* \"#utility.yul\":1698:1815   */\n    tag_212:\n        /* \"#utility.yul\":1839:1902   */\n      tag_215\n        /* \"#utility.yul\":1894:1901   */\n      dup5\n        /* \"#utility.yul\":1885:1891   */\n      dup3\n        /* \"#utility.yul\":1874:1883   */\n      dup6\n        /* \"#utility.yul\":1870:1892   */\n      add\n        /* \"#utility.yul\":1839:1902   */\n      tag_194\n      jump\t// in\n    tag_215:\n        /* \"#utility.yul\":1829:1902   */\n      swap2\n      pop\n        /* \"#utility.yul\":1625:1912   */\n      pop\n        /* \"#utility.yul\":1410:1919   */\n      swap3\n      swap2\n      pop\n      pop\n      jump\t// out\n        /* \"#utility.yul\":1925:2254   */\n    tag_13:\n        /* \"#utility.yul\":1984:1990   */\n      0x00\n        /* \"#utility.yul\":2033:2035   */\n      0x20\n        /* \"#utility.yul\":2021:2030   */\n      dup3\n        /* \"#utility.yul\":2012:2019   */\n      dup5\n        /* \"#utility.yul\":2008:2031   */\n      sub\n        /* \"#utility.yul\":2004:2036   */\n      slt\n        /* \"#utility.yul\":2001:2120   */\n      iszero\n      tag_217\n      jumpi\n        /* \"#utility.yul\":2039:2118   */\n      tag_218\n      tag_207\n      jump\t// in\n    tag_218:\n        /* \"#utility.yul\":2001:2120   */\n    tag_217:\n        /* \"#utility.yul\":2159:2160   */\n      0x00\n        /* \"#utility.yul\":2184:2237   */\n      tag_219\n        /* \"#utility.yul\":2229:2236   */\n      dup5\n        /* \"#utility.yul\":2220:2226   */\n      dup3\n        /* \"#utility.yul\":2209:2218   */\n      dup6\n        /* \"#utility.yul\":2205:2227   */\n      add\n        /* \"#utility.yul\":2184:2237   */\n      tag_200\n      jump\t// in\n    tag_219:\n        /* \"#utility.yul\":2174:2237   */\n      swap2\n      pop\n        /* \"#utility.yul\":2130:2247   */\n      pop\n        /* \"#utility.yul\":1925:2254   */\n      swap3\n      swap2\n      pop\n      pop\n      jump\t// out\n        /* \"#utility.yul\":2260:2417   */\n    tag_220:\n        /* \"#utility.yul\":2365:2410   */\n      tag_222\n        /* \"#utility.yul\":2385:2409   */\n      tag_223\n        /* \"#utility.yul\":2403:2408   */\n      dup3\n        /* \"#utility.yul\":2385:2409   */\n      tag_224\n      jump\t// in\n    tag_223:\n        /* \"#utility.yul\":2365:2410   */\n      tag_225\n      jump\t// in\n    tag_222:\n        /* \"#utility.yul\":2360:2363   */\n      dup3\n        /* \"#utility.yul\":2353:2411   */\n      mstore\n        /* \"#utility.yul\":2260:2417   */\n      pop\n      pop\n      jump\t// out\n        /* \"#utility.yul\":2423:2532   */\n    tag_226:\n        /* \"#utility.yul\":2504:2525   */\n      tag_228\n        /* \"#utility.yul\":2519:2524   */\n      dup2\n        /* \"#utility.yul\":2504:2525   */\n      tag_229\n      jump\t// in\n    tag_228:\n        /* \"#utility.yul\":2499:2502   */\n      dup3\n        /* \"#utility.yul\":2492:2526   */\n      mstore\n        /* \"#utility.yul\":2423:2532   */\n      pop\n      pop\n      jump\t// out\n        /* \"#utility.yul\":2538:2882   */\n    tag_230:\n        /* \"#utility.yul\":2616:2619   */\n      0x00\n        /* \"#utility.yul\":2644:2683   */\n      tag_232\n        /* \"#utility.yul\":2677:2682   */\n      dup3\n        /* \"#utility.yul\":2644:2683   */\n      tag_233\n      jump\t// in\n    tag_232:\n        /* \"#utility.yul\":2699:2760   */\n      tag_234\n        /* \"#utility.yul\":2753:2759   */\n      dup2\n        /* \"#utility.yul\":2748:2751   */\n      dup6\n        /* \"#utility.yul\":2699:2760   */\n      tag_235\n      jump\t// in\n    tag_234:\n        /* \"#utility.yul\":2692:2760   */\n      swap4\n      pop\n        /* \"#utility.yul\":2769:2821   */\n      tag_236\n        /* \"#utility.yul\":2814:2820   */\n      dup2\n        /* \"#utility.yul\":2809:2812   */\n      dup6\n        /* \"#utility.yul\":2802:2806   */\n      0x20\n        /* \"#utility.yul\":2795:2800   */\n      dup7\n        /* \"#utility.yul\":2791:2807   */\n      add\n        /* \"#utility.yul\":2769:2821   */\n      tag_237\n      jump\t// in\n    tag_236:\n        /* \"#utility.yul\":2846:2875   */\n      tag_238\n        /* \"#utility.yul\":2868:2874   */\n      dup2\n        /* \"#utility.yul\":2846:2875   */\n      tag_239\n      jump\t// in\n    tag_238:\n        /* \"#utility.yul\":2841:2844   */\n      dup5\n        /* \"#utility.yul\":2837:2876   */\n      add\n        /* \"#utility.yul\":2830:2876   */\n      swap2\n      pop\n        /* \"#utility.yul\":2620:2882   */\n      pop\n        /* \"#utility.yul\":2538:2882   */\n      swap3\n      swap2\n      pop\n      pop\n      jump\t// out\n        /* \"#utility.yul\":2888:3252   */\n    tag_240:\n        /* \"#utility.yul\":2976:2979   */\n      0x00\n        /* \"#utility.yul\":3004:3043   */\n      tag_242\n        /* \"#utility.yul\":3037:3042   */\n      dup3\n        /* \"#utility.yul\":3004:3043   */\n      tag_233\n      jump\t// in\n    tag_242:\n        /* \"#utility.yul\":3059:3130   */\n      tag_243\n        /* \"#utility.yul\":3123:3129   */\n      dup2\n        /* \"#utility.yul\":3118:3121   */\n      dup6\n        /* \"#utility.yul\":3059:3130   */\n      tag_244\n      jump\t// in\n    tag_243:\n        /* \"#utility.yul\":3052:3130   */\n      swap4\n      pop\n        /* \"#utility.yul\":3139:3191   */\n      tag_245\n        /* \"#utility.yul\":3184:3190   */\n      dup2\n        /* \"#utility.yul\":3179:3182   */\n      dup6\n        /* \"#utility.yul\":3172:3176   */\n      0x20\n        /* \"#utility.yul\":3165:3170   */\n      dup7\n        /* \"#utility.yul\":3161:3177   */\n      add\n        /* \"#utility.yul\":3139:3191   */\n      tag_237\n      jump\t// in\n    tag_245:\n        /* \"#utility.yul\":3216:3245   */\n      tag_246\n        /* \"#utility.yul\":3238:3244   */\n      dup2\n        /* \"#utility.yul\":3216:3245   */\n      tag_239\n      jump\t// in\n    tag_246:\n        /* \"#utility.yul\":3211:3214   */\n      dup5\n        /* \"#utility.yul\":3207:3246   */\n      add\n        /* \"#utility.yul\":3200:3246   */\n      swap2\n      pop\n        /* \"#utility.yul\":2980:3252   */\n      pop\n        /* \"#utility.yul\":2888:3252   */\n      swap3\n      swap2\n      pop\n      pop\n      jump\t// out\n        /* \"#utility.yul\":3258:3624   */\n    tag_247:\n        /* \"#utility.yul\":3400:3403   */\n      0x00\n        /* \"#utility.yul\":3421:3488   */\n      tag_249\n        /* \"#utility.yul\":3485:3487   */\n      0x14\n        /* \"#utility.yul\":3480:3483   */\n      dup4\n        /* \"#utility.yul\":3421:3488   */\n      tag_244\n      jump\t// in\n    tag_249:\n        /* \"#utility.yul\":3414:3488   */\n      swap2\n      pop\n        /* \"#utility.yul\":3497:3590   */\n      tag_250\n        /* \"#utility.yul\":3586:3589   */\n      dup3\n        /* \"#utility.yul\":3497:3590   */\n      tag_251\n      jump\t// in\n    tag_250:\n        /* \"#utility.yul\":3615:3617   */\n      0x20\n        /* \"#utility.yul\":3610:3613   */\n      dup3\n        /* \"#utility.yul\":3606:3618   */\n      add\n        /* \"#utility.yul\":3599:3618   */\n      swap1\n      pop\n        /* \"#utility.yul\":3258:3624   */\n      swap2\n      swap1\n      pop\n      jump\t// out\n        /* \"#utility.yul\":3630:3996   */\n    tag_252:\n        /* \"#utility.yul\":3772:3775   */\n      0x00\n        /* \"#utility.yul\":3793:3860   */\n      tag_254\n        /* \"#utility.yul\":3857:3859   */\n      0x0e\n        /* \"#utility.yul\":3852:3855   */\n      dup4\n        /* \"#utility.yul\":3793:3860   */\n      tag_244\n      jump\t// in\n    tag_254:\n        /* \"#utility.yul\":3786:3860   */\n      swap2\n      pop\n        /* \"#utility.yul\":3869:3962   */\n      tag_255\n        /* \"#utility.yul\":3958:3961   */\n      dup3\n        /* \"#utility.yul\":3869:3962   */\n      tag_256\n      jump\t// in\n    tag_255:\n        /* \"#utility.yul\":3987:3989   */\n      0x20\n        /* \"#utility.yul\":3982:3985   */\n      dup3\n        /* \"#utility.yul\":3978:3990   */\n      add\n        /* \"#utility.yul\":3971:3990   */\n      swap1\n      pop\n        /* \"#utility.yul\":3630:3996   */\n      swap2\n      swap1\n      pop\n      jump\t// out\n        /* \"#utility.yul\":4002:4368   */\n    tag_257:\n        /* \"#utility.yul\":4144:4147   */\n      0x00\n        /* \"#utility.yul\":4165:4232   */\n      tag_259\n        /* \"#utility.yul\":4229:4231   */\n      0x28\n        /* \"#utility.yul\":4224:4227   */\n      dup4\n        /* \"#utility.yul\":4165:4232   */\n      tag_244\n      jump\t// in\n    tag_259:\n        /* \"#utility.yul\":4158:4232   */\n      swap2\n      pop\n        /* \"#utility.yul\":4241:4334   */\n      tag_260\n        /* \"#utility.yul\":4330:4333   */\n      dup3\n        /* \"#utility.yul\":4241:4334   */\n      tag_261\n      jump\t// in\n    tag_260:\n        /* \"#utility.yul\":4359:4361   */\n      0x40\n        /* \"#utility.yul\":4354:4357   */\n      dup3\n        /* \"#utility.yul\":4350:4362   */\n      add\n        /* \"#utility.yul\":4343:4362   */\n      swap1\n      pop\n        /* \"#utility.yul\":4002:4368   */\n      swap2\n      swap1\n      pop\n      jump\t// out\n        /* \"#utility.yul\":4374:4740   */\n    tag_262:\n        /* \"#utility.yul\":4516:4519   */\n      0x00\n        /* \"#utility.yul\":4537:4604   */\n      tag_264\n        /* \"#utility.yul\":4601:4603   */\n      0x18\n        /* \"#utility.yul\":4596:4599   */\n      dup4\n        /* \"#utility.yul\":4537:4604   */\n      tag_244\n      jump\t// in\n    tag_264:\n        /* \"#utility.yul\":4530:4604   */\n      swap2\n      pop\n        /* \"#utility.yul\":4613:4706   */\n      tag_265\n        /* \"#utility.yul\":4702:4705   */\n      dup3\n        /* \"#utility.yul\":4613:4706   */\n      tag_266\n      jump\t// in\n    tag_265:\n        /* \"#utility.yul\":4731:4733   */\n      0x20\n        /* \"#utility.yul\":4726:4729   */\n      dup3\n        /* \"#utility.yul\":4722:4734   */\n      add\n        /* \"#utility.yul\":4715:4734   */\n      swap1\n      pop\n        /* \"#utility.yul\":4374:4740   */\n      swap2\n      swap1\n      pop\n      jump\t// out\n        /* \"#utility.yul\":4746:5112   */\n    tag_267:\n        /* \"#utility.yul\":4888:4891   */\n      0x00\n        /* \"#utility.yul\":4909:4976   */\n      tag_269\n        /* \"#utility.yul\":4973:4975   */\n      0x13\n        /* \"#utility.yul\":4968:4971   */\n      dup4\n        /* \"#utility.yul\":4909:4976   */\n      tag_244\n      jump\t// in\n    tag_269:\n        /* \"#utility.yul\":4902:4976   */\n      swap2\n      pop\n        /* \"#utility.yul\":4985:5078   */\n      tag_270\n        /* \"#utility.yul\":5074:5077   */\n      dup3\n        /* \"#utility.yul\":4985:5078   */\n      tag_271\n      jump\t// in\n    tag_270:\n        /* \"#utility.yul\":5103:5105   */\n      0x20\n        /* \"#utility.yul\":5098:5101   */\n      dup3\n        /* \"#utility.yul\":5094:5106   */\n      add\n        /* \"#utility.yul\":5087:5106   */\n      swap1\n      pop\n        /* \"#utility.yul\":4746:5112   */\n      swap2\n      swap1\n      pop\n      jump\t// out\n        /* \"#utility.yul\":5174:7653   */\n    tag_272:\n        /* \"#utility.yul\":5291:5294   */\n      0x00\n        /* \"#utility.yul\":5327:5333   */\n      0x0180\n        /* \"#utility.yul\":5322:5325   */\n      dup4\n        /* \"#utility.yul\":5318:5334   */\n      add\n        /* \"#utility.yul\":5416:5420   */\n      0x00\n        /* \"#utility.yul\":5409:5414   */\n      dup4\n        /* \"#utility.yul\":5405:5421   */\n      add\n        /* \"#utility.yul\":5399:5422   */\n      mload\n        /* \"#utility.yul\":5469:5472   */\n      dup5\n        /* \"#utility.yul\":5463:5467   */\n      dup3\n        /* \"#utility.yul\":5459:5473   */\n      sub\n        /* \"#utility.yul\":5452:5456   */\n      0x00\n        /* \"#utility.yul\":5447:5450   */\n      dup7\n        /* \"#utility.yul\":5443:5457   */\n      add\n        /* \"#utility.yul\":5436:5474   */\n      mstore\n        /* \"#utility.yul\":5495:5568   */\n      tag_274\n        /* \"#utility.yul\":5563:5567   */\n      dup3\n        /* \"#utility.yul\":5549:5561   */\n      dup3\n        /* \"#utility.yul\":5495:5568   */\n      tag_230\n      jump\t// in\n    tag_274:\n        /* \"#utility.yul\":5487:5568   */\n      swap2\n      pop\n        /* \"#utility.yul\":5344:5579   */\n      pop\n        /* \"#utility.yul\":5668:5672   */\n      0x20\n        /* \"#utility.yul\":5661:5666   */\n      dup4\n        /* \"#utility.yul\":5657:5673   */\n      add\n        /* \"#utility.yul\":5651:5674   */\n      mload\n        /* \"#utility.yul\":5687:5750   */\n      tag_275\n        /* \"#utility.yul\":5744:5748   */\n      0x20\n        /* \"#utility.yul\":5739:5742   */\n      dup7\n        /* \"#utility.yul\":5735:5749   */\n      add\n        /* \"#utility.yul\":5721:5733   */\n      dup3\n        /* \"#utility.yul\":5687:5750   */\n      tag_276\n      jump\t// in\n    tag_275:\n        /* \"#utility.yul\":5589:5760   */\n      pop\n        /* \"#utility.yul\":5853:5857   */\n      0x40\n        /* \"#utility.yul\":5846:5851   */\n      dup4\n        /* \"#utility.yul\":5842:5858   */\n      add\n        /* \"#utility.yul\":5836:5859   */\n      mload\n        /* \"#utility.yul\":5872:5935   */\n      tag_277\n        /* \"#utility.yul\":5929:5933   */\n      0x40\n        /* \"#utility.yul\":5924:5927   */\n      dup7\n        /* \"#utility.yul\":5920:5934   */\n      add\n        /* \"#utility.yul\":5906:5918   */\n      dup3\n        /* \"#utility.yul\":5872:5935   */\n      tag_276\n      jump\t// in\n    tag_277:\n        /* \"#utility.yul\":5770:5945   */\n      pop\n        /* \"#utility.yul\":6038:6042   */\n      0x60\n        /* \"#utility.yul\":6031:6036   */\n      dup4\n        /* \"#utility.yul\":6027:6043   */\n      add\n        /* \"#utility.yul\":6021:6044   */\n      mload\n        /* \"#utility.yul\":6057:6120   */\n      tag_278\n        /* \"#utility.yul\":6114:6118   */\n      0x60\n        /* \"#utility.yul\":6109:6112   */\n      dup7\n        /* \"#utility.yul\":6105:6119   */\n      add\n        /* \"#utility.yul\":6091:6103   */\n      dup3\n        /* \"#utility.yul\":6057:6120   */\n      tag_276\n      jump\t// in\n    tag_278:\n        /* \"#utility.yul\":5955:6130   */\n      pop\n        /* \"#utility.yul\":6223:6227   */\n      0x80\n        /* \"#utility.yul\":6216:6221   */\n      dup4\n        /* \"#utility.yul\":6212:6228   */\n      add\n        /* \"#utility.yul\":6206:6229   */\n      mload\n        /* \"#utility.yul\":6242:6305   */\n      tag_279\n        /* \"#utility.yul\":6299:6303   */\n      0x80\n        /* \"#utility.yul\":6294:6297   */\n      dup7\n        /* \"#utility.yul\":6290:6304   */\n      add\n        /* \"#utility.yul\":6276:6288   */\n      dup3\n        /* \"#utility.yul\":6242:6305   */\n      tag_276\n      jump\t// in\n    tag_279:\n        /* \"#utility.yul\":6140:6315   */\n      pop\n        /* \"#utility.yul\":6408:6412   */\n      0xa0\n        /* \"#utility.yul\":6401:6406   */\n      dup4\n        /* \"#utility.yul\":6397:6413   */\n      add\n        /* \"#utility.yul\":6391:6414   */\n      mload\n        /* \"#utility.yul\":6427:6490   */\n      tag_280\n        /* \"#utility.yul\":6484:6488   */\n      0xa0\n        /* \"#utility.yul\":6479:6482   */\n      dup7\n        /* \"#utility.yul\":6475:6489   */\n      add\n        /* \"#utility.yul\":6461:6473   */\n      dup3\n        /* \"#utility.yul\":6427:6490   */\n      tag_276\n      jump\t// in\n    tag_280:\n        /* \"#utility.yul\":6325:6500   */\n      pop\n        /* \"#utility.yul\":6593:6597   */\n      0xc0\n        /* \"#utility.yul\":6586:6591   */\n      dup4\n        /* \"#utility.yul\":6582:6598   */\n      add\n        /* \"#utility.yul\":6576:6599   */\n      mload\n        /* \"#utility.yul\":6612:6675   */\n      tag_281\n        /* \"#utility.yul\":6669:6673   */\n      0xc0\n        /* \"#utility.yul\":6664:6667   */\n      dup7\n        /* \"#utility.yul\":6660:6674   */\n      add\n        /* \"#utility.yul\":6646:6658   */\n      dup3\n        /* \"#utility.yul\":6612:6675   */\n      tag_276\n      jump\t// in\n    tag_281:\n        /* \"#utility.yul\":6510:6685   */\n      pop\n        /* \"#utility.yul\":6778:6782   */\n      0xe0\n        /* \"#utility.yul\":6771:6776   */\n      dup4\n        /* \"#utility.yul\":6767:6783   */\n      add\n        /* \"#utility.yul\":6761:6784   */\n      mload\n        /* \"#utility.yul\":6797:6860   */\n      tag_282\n        /* \"#utility.yul\":6854:6858   */\n      0xe0\n        /* \"#utility.yul\":6849:6852   */\n      dup7\n        /* \"#utility.yul\":6845:6859   */\n      add\n        /* \"#utility.yul\":6831:6843   */\n      dup3\n        /* \"#utility.yul\":6797:6860   */\n      tag_276\n      jump\t// in\n    tag_282:\n        /* \"#utility.yul\":6695:6870   */\n      pop\n        /* \"#utility.yul\":6963:6969   */\n      0x0100\n        /* \"#utility.yul\":6956:6961   */\n      dup4\n        /* \"#utility.yul\":6952:6970   */\n      add\n        /* \"#utility.yul\":6946:6971   */\n      mload\n        /* \"#utility.yul\":6984:7049   */\n      tag_283\n        /* \"#utility.yul\":7041:7047   */\n      0x0100\n        /* \"#utility.yul\":7036:7039   */\n      dup7\n        /* \"#utility.yul\":7032:7048   */\n      add\n        /* \"#utility.yul\":7018:7030   */\n      dup3\n        /* \"#utility.yul\":6984:7049   */\n      tag_276\n      jump\t// in\n    tag_283:\n        /* \"#utility.yul\":6880:7059   */\n      pop\n        /* \"#utility.yul\":7152:7158   */\n      0x0120\n        /* \"#utility.yul\":7145:7150   */\n      dup4\n        /* \"#utility.yul\":7141:7159   */\n      add\n        /* \"#utility.yul\":7135:7160   */\n      mload\n        /* \"#utility.yul\":7173:7238   */\n      tag_284\n        /* \"#utility.yul\":7230:7236   */\n      0x0120\n        /* \"#utility.yul\":7225:7228   */\n      dup7\n        /* \"#utility.yul\":7221:7237   */\n      add\n        /* \"#utility.yul\":7207:7219   */\n      dup3\n        /* \"#utility.yul\":7173:7238   */\n      tag_276\n      jump\t// in\n    tag_284:\n        /* \"#utility.yul\":7069:7248   */\n      pop\n        /* \"#utility.yul\":7341:7347   */\n      0x0140\n        /* \"#utility.yul\":7334:7339   */\n      dup4\n        /* \"#utility.yul\":7330:7348   */\n      add\n        /* \"#utility.yul\":7324:7349   */\n      mload\n        /* \"#utility.yul\":7362:7427   */\n      tag_285\n        /* \"#utility.yul\":7419:7425   */\n      0x0140\n        /* \"#utility.yul\":7414:7417   */\n      dup7\n        /* \"#utility.yul\":7410:7426   */\n      add\n        /* \"#utility.yul\":7396:7408   */\n      dup3\n        /* \"#utility.yul\":7362:7427   */\n      tag_276\n      jump\t// in\n    tag_285:\n        /* \"#utility.yul\":7258:7437   */\n      pop\n        /* \"#utility.yul\":7530:7536   */\n      0x0160\n        /* \"#utility.yul\":7523:7528   */\n      dup4\n        /* \"#utility.yul\":7519:7537   */\n      add\n        /* \"#utility.yul\":7513:7538   */\n      mload\n        /* \"#utility.yul\":7551:7616   */\n      tag_286\n        /* \"#utility.yul\":7608:7614   */\n      0x0160\n        /* \"#utility.yul\":7603:7606   */\n      dup7\n        /* \"#utility.yul\":7599:7615   */\n      add\n        /* \"#utility.yul\":7585:7597   */\n      dup3\n        /* \"#utility.yul\":7551:7616   */\n      tag_276\n      jump\t// in\n    tag_286:\n        /* \"#utility.yul\":7447:7626   */\n      pop\n        /* \"#utility.yul\":7643:7647   */\n      dup1\n        /* \"#utility.yul\":7636:7647   */\n      swap2\n      pop\n        /* \"#utility.yul\":5296:7653   */\n      pop\n        /* \"#utility.yul\":5174:7653   */\n      swap3\n      swap2\n      pop\n      pop\n      jump\t// out\n        /* \"#utility.yul\":7659:7767   */\n    tag_276:\n        /* \"#utility.yul\":7736:7760   */\n      tag_288\n        /* \"#utility.yul\":7754:7759   */\n      dup2\n        /* \"#utility.yul\":7736:7760   */\n      tag_289\n      jump\t// in\n    tag_288:\n        /* \"#utility.yul\":7731:7734   */\n      dup3\n        /* \"#utility.yul\":7724:7761   */\n      mstore\n        /* \"#utility.yul\":7659:7767   */\n      pop\n      pop\n      jump\t// out\n        /* \"#utility.yul\":7773:7891   */\n    tag_290:\n        /* \"#utility.yul\":7860:7884   */\n      tag_292\n        /* \"#utility.yul\":7878:7883   */\n      dup2\n        /* \"#utility.yul\":7860:7884   */\n      tag_289\n      jump\t// in\n    tag_292:\n        /* \"#utility.yul\":7855:7858   */\n      dup3\n        /* \"#utility.yul\":7848:7885   */\n      mstore\n        /* \"#utility.yul\":7773:7891   */\n      pop\n      pop\n      jump\t// out\n        /* \"#utility.yul\":7897:8054   */\n    tag_293:\n        /* \"#utility.yul\":8002:8047   */\n      tag_295\n        /* \"#utility.yul\":8022:8046   */\n      tag_296\n        /* \"#utility.yul\":8040:8045   */\n      dup3\n        /* \"#utility.yul\":8022:8046   */\n      tag_289\n      jump\t// in\n    tag_296:\n        /* \"#utility.yul\":8002:8047   */\n      tag_297\n      jump\t// in\n    tag_295:\n        /* \"#utility.yul\":7997:8000   */\n      dup3\n        /* \"#utility.yul\":7990:8048   */\n      mstore\n        /* \"#utility.yul\":7897:8054   */\n      pop\n      pop\n      jump\t// out\n        /* \"#utility.yul\":8060:8598   */\n    tag_165:\n        /* \"#utility.yul\":8228:8231   */\n      0x00\n        /* \"#utility.yul\":8243:8318   */\n      tag_299\n        /* \"#utility.yul\":8314:8317   */\n      dup3\n        /* \"#utility.yul\":8305:8311   */\n      dup7\n        /* \"#utility.yul\":8243:8318   */\n      tag_293\n      jump\t// in\n    tag_299:\n        /* \"#utility.yul\":8343:8345   */\n      0x20\n        /* \"#utility.yul\":8338:8341   */\n      dup3\n        /* \"#utility.yul\":8334:8346   */\n      add\n        /* \"#utility.yul\":8327:8346   */\n      swap2\n      pop\n        /* \"#utility.yul\":8356:8431   */\n      tag_300\n        /* \"#utility.yul\":8427:8430   */\n      dup3\n        /* \"#utility.yul\":8418:8424   */\n      dup6\n        /* \"#utility.yul\":8356:8431   */\n      tag_293\n      jump\t// in\n    tag_300:\n        /* \"#utility.yul\":8456:8458   */\n      0x20\n        /* \"#utility.yul\":8451:8454   */\n      dup3\n        /* \"#utility.yul\":8447:8459   */\n      add\n        /* \"#utility.yul\":8440:8459   */\n      swap2\n      pop\n        /* \"#utility.yul\":8469:8544   */\n      tag_301\n        /* \"#utility.yul\":8540:8543   */\n      dup3\n        /* \"#utility.yul\":8531:8537   */\n      dup5\n        /* \"#utility.yul\":8469:8544   */\n      tag_220\n      jump\t// in\n    tag_301:\n        /* \"#utility.yul\":8569:8571   */\n      0x14\n        /* \"#utility.yul\":8564:8567   */\n      dup3\n        /* \"#utility.yul\":8560:8572   */\n      add\n        /* \"#utility.yul\":8553:8572   */\n      swap2\n      pop\n        /* \"#utility.yul\":8589:8592   */\n      dup2\n        /* \"#utility.yul\":8582:8592   */\n      swap1\n      pop\n        /* \"#utility.yul\":8060:8598   */\n      swap5\n      swap4\n      pop\n      pop\n      pop\n      pop\n      jump\t// out\n        /* \"#utility.yul\":8604:8917   */\n    tag_23:\n        /* \"#utility.yul\":8717:8721   */\n      0x00\n        /* \"#utility.yul\":8755:8757   */\n      0x20\n        /* \"#utility.yul\":8744:8753   */\n      dup3\n        /* \"#utility.yul\":8740:8758   */\n      add\n        /* \"#utility.yul\":8732:8758   */\n      swap1\n      pop\n        /* \"#utility.yul\":8804:8813   */\n      dup2\n        /* \"#utility.yul\":8798:8802   */\n      dup2\n        /* \"#utility.yul\":8794:8814   */\n      sub\n        /* \"#utility.yul\":8790:8791   */\n      0x00\n        /* \"#utility.yul\":8779:8788   */\n      dup4\n        /* \"#utility.yul\":8775:8792   */\n      add\n        /* \"#utility.yul\":8768:8815   */\n      mstore\n        /* \"#utility.yul\":8832:8910   */\n      tag_303\n        /* \"#utility.yul\":8905:8909   */\n      dup2\n        /* \"#utility.yul\":8896:8902   */\n      dup5\n        /* \"#utility.yul\":8832:8910   */\n      tag_240\n      jump\t// in\n    tag_303:\n        /* \"#utility.yul\":8824:8910   */\n      swap1\n      pop\n        /* \"#utility.yul\":8604:8917   */\n      swap3\n      swap2\n      pop\n      pop\n      jump\t// out\n        /* \"#utility.yul\":8923:10459   */\n    tag_19:\n        /* \"#utility.yul\":9346:9350   */\n      0x00\n        /* \"#utility.yul\":9384:9387   */\n      0x0180\n        /* \"#utility.yul\":9373:9382   */\n      dup3\n        /* \"#utility.yul\":9369:9388   */\n      add\n        /* \"#utility.yul\":9361:9388   */\n      swap1\n      pop\n        /* \"#utility.yul\":9434:9443   */\n      dup2\n        /* \"#utility.yul\":9428:9432   */\n      dup2\n        /* \"#utility.yul\":9424:9444   */\n      sub\n        /* \"#utility.yul\":9420:9421   */\n      0x00\n        /* \"#utility.yul\":9409:9418   */\n      dup4\n        /* \"#utility.yul\":9405:9422   */\n      add\n        /* \"#utility.yul\":9398:9445   */\n      mstore\n        /* \"#utility.yul\":9462:9540   */\n      tag_305\n        /* \"#utility.yul\":9535:9539   */\n      dup2\n        /* \"#utility.yul\":9526:9532   */\n      dup16\n        /* \"#utility.yul\":9462:9540   */\n      tag_240\n      jump\t// in\n    tag_305:\n        /* \"#utility.yul\":9454:9540   */\n      swap1\n      pop\n        /* \"#utility.yul\":9550:9622   */\n      tag_306\n        /* \"#utility.yul\":9618:9620   */\n      0x20\n        /* \"#utility.yul\":9607:9616   */\n      dup4\n        /* \"#utility.yul\":9603:9621   */\n      add\n        /* \"#utility.yul\":9594:9600   */\n      dup15\n        /* \"#utility.yul\":9550:9622   */\n      tag_290\n      jump\t// in\n    tag_306:\n        /* \"#utility.yul\":9632:9704   */\n      tag_307\n        /* \"#utility.yul\":9700:9702   */\n      0x40\n        /* \"#utility.yul\":9689:9698   */\n      dup4\n        /* \"#utility.yul\":9685:9703   */\n      add\n        /* \"#utility.yul\":9676:9682   */\n      dup14\n        /* \"#utility.yul\":9632:9704   */\n      tag_290\n      jump\t// in\n    tag_307:\n        /* \"#utility.yul\":9714:9786   */\n      tag_308\n        /* \"#utility.yul\":9782:9784   */\n      0x60\n        /* \"#utility.yul\":9771:9780   */\n      dup4\n        /* \"#utility.yul\":9767:9785   */\n      add\n        /* \"#utility.yul\":9758:9764   */\n      dup13\n        /* \"#utility.yul\":9714:9786   */\n      tag_290\n      jump\t// in\n    tag_308:\n        /* \"#utility.yul\":9796:9869   */\n      tag_309\n        /* \"#utility.yul\":9864:9867   */\n      0x80\n        /* \"#utility.yul\":9853:9862   */\n      dup4\n        /* \"#utility.yul\":9849:9868   */\n      add\n        /* \"#utility.yul\":9840:9846   */\n      dup12\n        /* \"#utility.yul\":9796:9869   */\n      tag_290\n      jump\t// in\n    tag_309:\n        /* \"#utility.yul\":9879:9952   */\n      tag_310\n        /* \"#utility.yul\":9947:9950   */\n      0xa0\n        /* \"#utility.yul\":9936:9945   */\n      dup4\n        /* \"#utility.yul\":9932:9951   */\n      add\n        /* \"#utility.yul\":9923:9929   */\n      dup11\n        /* \"#utility.yul\":9879:9952   */\n      tag_290\n      jump\t// in\n    tag_310:\n        /* \"#utility.yul\":9962:10035   */\n      tag_311\n        /* \"#utility.yul\":10030:10033   */\n      0xc0\n        /* \"#utility.yul\":10019:10028   */\n      dup4\n        /* \"#utility.yul\":10015:10034   */\n      add\n        /* \"#utility.yul\":10006:10012   */\n      dup10\n        /* \"#utility.yul\":9962:10035   */\n      tag_290\n      jump\t// in\n    tag_311:\n        /* \"#utility.yul\":10045:10118   */\n      tag_312\n        /* \"#utility.yul\":10113:10116   */\n      0xe0\n        /* \"#utility.yul\":10102:10111   */\n      dup4\n        /* \"#utility.yul\":10098:10117   */\n      add\n        /* \"#utility.yul\":10089:10095   */\n      dup9\n        /* \"#utility.yul\":10045:10118   */\n      tag_290\n      jump\t// in\n    tag_312:\n        /* \"#utility.yul\":10128:10201   */\n      tag_313\n        /* \"#utility.yul\":10196:10199   */\n      0x0100\n        /* \"#utility.yul\":10185:10194   */\n      dup4\n        /* \"#utility.yul\":10181:10200   */\n      add\n        /* \"#utility.yul\":10172:10178   */\n      dup8\n        /* \"#utility.yul\":10128:10201   */\n      tag_290\n      jump\t// in\n    tag_313:\n        /* \"#utility.yul\":10211:10284   */\n      tag_314\n        /* \"#utility.yul\":10279:10282   */\n      0x0120\n        /* \"#utility.yul\":10268:10277   */\n      dup4\n        /* \"#utility.yul\":10264:10283   */\n      add\n        /* \"#utility.yul\":10255:10261   */\n      dup7\n        /* \"#utility.yul\":10211:10284   */\n      tag_290\n      jump\t// in\n    tag_314:\n        /* \"#utility.yul\":10294:10368   */\n      tag_315\n        /* \"#utility.yul\":10363:10366   */\n      0x0140\n        /* \"#utility.yul\":10352:10361   */\n      dup4\n        /* \"#utility.yul\":10348:10367   */\n      add\n        /* \"#utility.yul\":10338:10345   */\n      dup6\n        /* \"#utility.yul\":10294:10368   */\n      tag_290\n      jump\t// in\n    tag_315:\n        /* \"#utility.yul\":10378:10452   */\n      tag_316\n        /* \"#utility.yul\":10447:10450   */\n      0x0160\n        /* \"#utility.yul\":10436:10445   */\n      dup4\n        /* \"#utility.yul\":10432:10451   */\n      add\n        /* \"#utility.yul\":10422:10429   */\n      dup5\n        /* \"#utility.yul\":10378:10452   */\n      tag_290\n      jump\t// in\n    tag_316:\n        /* \"#utility.yul\":8923:10459   */\n      swap14\n      swap13\n      pop\n      pop\n      pop\n      pop\n      pop\n      pop\n      pop\n      pop\n      pop\n      pop\n      pop\n      pop\n      pop\n      jump\t// out\n        /* \"#utility.yul\":10465:10884   */\n    tag_45:\n        /* \"#utility.yul\":10631:10635   */\n      0x00\n        /* \"#utility.yul\":10669:10671   */\n      0x20\n        /* \"#utility.yul\":10658:10667   */\n      dup3\n        /* \"#utility.yul\":10654:10672   */\n      add\n        /* \"#utility.yul\":10646:10672   */\n      swap1\n      pop\n        /* \"#utility.yul\":10718:10727   */\n      dup2\n        /* \"#utility.yul\":10712:10716   */\n      dup2\n        /* \"#utility.yul\":10708:10728   */\n      sub\n        /* \"#utility.yul\":10704:10705   */\n      0x00\n        /* \"#utility.yul\":10693:10702   */\n      dup4\n        /* \"#utility.yul\":10689:10706   */\n      add\n        /* \"#utility.yul\":10682:10729   */\n      mstore\n        /* \"#utility.yul\":10746:10877   */\n      tag_318\n        /* \"#utility.yul\":10872:10876   */\n      dup2\n        /* \"#utility.yul\":10746:10877   */\n      tag_247\n      jump\t// in\n    tag_318:\n        /* \"#utility.yul\":10738:10877   */\n      swap1\n      pop\n        /* \"#utility.yul\":10465:10884   */\n      swap2\n      swap1\n      pop\n      jump\t// out\n        /* \"#utility.yul\":10890:11309   */\n    tag_48:\n        /* \"#utility.yul\":11056:11060   */\n      0x00\n        /* \"#utility.yul\":11094:11096   */\n      0x20\n        /* \"#utility.yul\":11083:11092   */\n      dup3\n        /* \"#utility.yul\":11079:11097   */\n      add\n        /* \"#utility.yul\":11071:11097   */\n      swap1\n      pop\n        /* \"#utility.yul\":11143:11152   */\n      dup2\n        /* \"#utility.yul\":11137:11141   */\n      dup2\n        /* \"#utility.yul\":11133:11153   */\n      sub\n        /* \"#utility.yul\":11129:11130   */\n      0x00\n        /* \"#utility.yul\":11118:11127   */\n      dup4\n        /* \"#utility.yul\":11114:11131   */\n      add\n        /* \"#utility.yul\":11107:11154   */\n      mstore\n        /* \"#utility.yul\":11171:11302   */\n      tag_320\n        /* \"#utility.yul\":11297:11301   */\n      dup2\n        /* \"#utility.yul\":11171:11302   */\n      tag_252\n      jump\t// in\n    tag_320:\n        /* \"#utility.yul\":11163:11302   */\n      swap1\n      pop\n        /* \"#utility.yul\":10890:11309   */\n      swap2\n      swap1\n      pop\n      jump\t// out\n        /* \"#utility.yul\":11315:11734   */\n    tag_135:\n        /* \"#utility.yul\":11481:11485   */\n      0x00\n        /* \"#utility.yul\":11519:11521   */\n      0x20\n        /* \"#utility.yul\":11508:11517   */\n      dup3\n        /* \"#utility.yul\":11504:11522   */\n      add\n        /* \"#utility.yul\":11496:11522   */\n      swap1\n      pop\n        /* \"#utility.yul\":11568:11577   */\n      dup2\n        /* \"#utility.yul\":11562:11566   */\n      dup2\n        /* \"#utility.yul\":11558:11578   */\n      sub\n        /* \"#utility.yul\":11554:11555   */\n      0x00\n        /* \"#utility.yul\":11543:11552   */\n      dup4\n        /* \"#utility.yul\":11539:11556   */\n      add\n        /* \"#utility.yul\":11532:11579   */\n      mstore\n        /* \"#utility.yul\":11596:11727   */\n      tag_322\n        /* \"#utility.yul\":11722:11726   */\n      dup2\n        /* \"#utility.yul\":11596:11727   */\n      tag_257\n      jump\t// in\n    tag_322:\n        /* \"#utility.yul\":11588:11727   */\n      swap1\n      pop\n        /* \"#utility.yul\":11315:11734   */\n      swap2\n      swap1\n      pop\n      jump\t// out\n        /* \"#utility.yul\":11740:12159   */\n    tag_138:\n        /* \"#utility.yul\":11906:11910   */\n      0x00\n        /* \"#utility.yul\":11944:11946   */\n      0x20\n        /* \"#utility.yul\":11933:11942   */\n      dup3\n        /* \"#utility.yul\":11929:11947   */\n      add\n        /* \"#utility.yul\":11921:11947   */\n      swap1\n      pop\n        /* \"#utility.yul\":11993:12002   */\n      dup2\n        /* \"#utility.yul\":11987:11991   */\n      dup2\n        /* \"#utility.yul\":11983:12003   */\n      sub\n        /* \"#utility.yul\":11979:11980   */\n      0x00\n        /* \"#utility.yul\":11968:11977   */\n      dup4\n        /* \"#utility.yul\":11964:11981   */\n      add\n        /* \"#utility.yul\":11957:12004   */\n      mstore\n        /* \"#utility.yul\":12021:12152   */\n      tag_324\n        /* \"#utility.yul\":12147:12151   */\n      dup2\n        /* \"#utility.yul\":12021:12152   */\n      tag_262\n      jump\t// in\n    tag_324:\n        /* \"#utility.yul\":12013:12152   */\n      swap1\n      pop\n        /* \"#utility.yul\":11740:12159   */\n      swap2\n      swap1\n      pop\n      jump\t// out\n        /* \"#utility.yul\":12165:12584   */\n    tag_142:\n        /* \"#utility.yul\":12331:12335   */\n      0x00\n        /* \"#utility.yul\":12369:12371   */\n      0x20\n        /* \"#utility.yul\":12358:12367   */\n      dup3\n        /* \"#utility.yul\":12354:12372   */\n      add\n        /* \"#utility.yul\":12346:12372   */\n      swap1\n      pop\n        /* \"#utility.yul\":12418:12427   */\n      dup2\n        /* \"#utility.yul\":12412:12416   */\n      dup2\n        /* \"#utility.yul\":12408:12428   */\n      sub\n        /* \"#utility.yul\":12404:12405   */\n      0x00\n        /* \"#utility.yul\":12393:12402   */\n      dup4\n        /* \"#utility.yul\":12389:12406   */\n      add\n        /* \"#utility.yul\":12382:12429   */\n      mstore\n        /* \"#utility.yul\":12446:12577   */\n      tag_326\n        /* \"#utility.yul\":12572:12576   */\n      dup2\n        /* \"#utility.yul\":12446:12577   */\n      tag_267\n      jump\t// in\n    tag_326:\n        /* \"#utility.yul\":12438:12577   */\n      swap1\n      pop\n        /* \"#utility.yul\":12165:12584   */\n      swap2\n      swap1\n      pop\n      jump\t// out\n        /* \"#utility.yul\":12590:12959   */\n    tag_41:\n        /* \"#utility.yul\":12731:12735   */\n      0x00\n        /* \"#utility.yul\":12769:12771   */\n      0x20\n        /* \"#utility.yul\":12758:12767   */\n      dup3\n        /* \"#utility.yul\":12754:12772   */\n      add\n        /* \"#utility.yul\":12746:12772   */\n      swap1\n      pop\n        /* \"#utility.yul\":12818:12827   */\n      dup2\n        /* \"#utility.yul\":12812:12816   */\n      dup2\n        /* \"#utility.yul\":12808:12828   */\n      sub\n        /* \"#utility.yul\":12804:12805   */\n      0x00\n        /* \"#utility.yul\":12793:12802   */\n      dup4\n        /* \"#utility.yul\":12789:12806   */\n      add\n        /* \"#utility.yul\":12782:12829   */\n      mstore\n        /* \"#utility.yul\":12846:12952   */\n      tag_328\n        /* \"#utility.yul\":12947:12951   */\n      dup2\n        /* \"#utility.yul\":12938:12944   */\n      dup5\n        /* \"#utility.yul\":12846:12952   */\n      tag_272\n      jump\t// in\n    tag_328:\n        /* \"#utility.yul\":12838:12952   */\n      swap1\n      pop\n        /* \"#utility.yul\":12590:12959   */\n      swap3\n      swap2\n      pop\n      pop\n      jump\t// out\n        /* \"#utility.yul\":12965:13506   */\n    tag_36:\n        /* \"#utility.yul\":13136:13140   */\n      0x00\n        /* \"#utility.yul\":13174:13177   */\n      0x80\n        /* \"#utility.yul\":13163:13172   */\n      dup3\n        /* \"#utility.yul\":13159:13178   */\n      add\n        /* \"#utility.yul\":13151:13178   */\n      swap1\n      pop\n        /* \"#utility.yul\":13188:13259   */\n      tag_330\n        /* \"#utility.yul\":13256:13257   */\n      0x00\n        /* \"#utility.yul\":13245:13254   */\n      dup4\n        /* \"#utility.yul\":13241:13258   */\n      add\n        /* \"#utility.yul\":13232:13238   */\n      dup8\n        /* \"#utility.yul\":13188:13259   */\n      tag_290\n      jump\t// in\n    tag_330:\n        /* \"#utility.yul\":13269:13335   */\n      tag_331\n        /* \"#utility.yul\":13331:13333   */\n      0x20\n        /* \"#utility.yul\":13320:13329   */\n      dup4\n        /* \"#utility.yul\":13316:13334   */\n      add\n        /* \"#utility.yul\":13307:13313   */\n      dup7\n        /* \"#utility.yul\":13269:13335   */\n      tag_226\n      jump\t// in\n    tag_331:\n        /* \"#utility.yul\":13345:13417   */\n      tag_332\n        /* \"#utility.yul\":13413:13415   */\n      0x40\n        /* \"#utility.yul\":13402:13411   */\n      dup4\n        /* \"#utility.yul\":13398:13416   */\n      add\n        /* \"#utility.yul\":13389:13395   */\n      dup6\n        /* \"#utility.yul\":13345:13417   */\n      tag_290\n      jump\t// in\n    tag_332:\n        /* \"#utility.yul\":13427:13499   */\n      tag_333\n        /* \"#utility.yul\":13495:13497   */\n      0x60\n        /* \"#utility.yul\":13484:13493   */\n      dup4\n        /* \"#utility.yul\":13480:13498   */\n      add\n        /* \"#utility.yul\":13471:13477   */\n      dup5\n        /* \"#utility.yul\":13427:13499   */\n      tag_290\n      jump\t// in\n    tag_333:\n        /* \"#utility.yul\":12965:13506   */\n      swap6\n      swap5\n      pop\n      pop\n      pop\n      pop\n      pop\n      jump\t// out\n        /* \"#utility.yul\":13512:13641   */\n    tag_184:\n        /* \"#utility.yul\":13546:13552   */\n      0x00\n        /* \"#utility.yul\":13573:13593   */\n      tag_335\n      tag_336\n      jump\t// in\n    tag_335:\n        /* \"#utility.yul\":13563:13593   */\n      swap1\n      pop\n        /* \"#utility.yul\":13602:13635   */\n      tag_337\n        /* \"#utility.yul\":13630:13634   */\n      dup3\n        /* \"#utility.yul\":13622:13628   */\n      dup3\n        /* \"#utility.yul\":13602:13635   */\n      tag_338\n      jump\t// in\n    tag_337:\n        /* \"#utility.yul\":13512:13641   */\n      swap2\n      swap1\n      pop\n      jump\t// out\n        /* \"#utility.yul\":13647:13722   */\n    tag_336:\n        /* \"#utility.yul\":13680:13686   */\n      0x00\n        /* \"#utility.yul\":13713:13715   */\n      0x40\n        /* \"#utility.yul\":13707:13716   */\n      mload\n        /* \"#utility.yul\":13697:13716   */\n      swap1\n      pop\n        /* \"#utility.yul\":13647:13722   */\n      swap1\n      jump\t// out\n        /* \"#utility.yul\":13728:14036   */\n    tag_183:\n        /* \"#utility.yul\":13790:13794   */\n      0x00\n        /* \"#utility.yul\":13880:13898   */\n      0xffffffffffffffff\n        /* \"#utility.yul\":13872:13878   */\n      dup3\n        /* \"#utility.yul\":13869:13899   */\n      gt\n        /* \"#utility.yul\":13866:13922   */\n      iszero\n      tag_341\n      jumpi\n        /* \"#utility.yul\":13902:13920   */\n      tag_342\n      tag_343\n      jump\t// in\n    tag_342:\n        /* \"#utility.yul\":13866:13922   */\n    tag_341:\n        /* \"#utility.yul\":13940:13969   */\n      tag_344\n        /* \"#utility.yul\":13962:13968   */\n      dup3\n        /* \"#utility.yul\":13940:13969   */\n      tag_239\n      jump\t// in\n    tag_344:\n        /* \"#utility.yul\":13932:13969   */\n      swap1\n      pop\n        /* \"#utility.yul\":14024:14028   */\n      0x20\n        /* \"#utility.yul\":14018:14022   */\n      dup2\n        /* \"#utility.yul\":14014:14029   */\n      add\n        /* \"#utility.yul\":14006:14029   */\n      swap1\n      pop\n        /* \"#utility.yul\":13728:14036   */\n      swap2\n      swap1\n      pop\n      jump\t// out\n        /* \"#utility.yul\":14042:14141   */\n    tag_233:\n        /* \"#utility.yul\":14094:14100   */\n      0x00\n        /* \"#utility.yul\":14128:14133   */\n      dup2\n        /* \"#utility.yul\":14122:14134   */\n      mload\n        /* \"#utility.yul\":14112:14134   */\n      swap1\n      pop\n        /* \"#utility.yul\":14042:14141   */\n      swap2\n      swap1\n      pop\n      jump\t// out\n        /* \"#utility.yul\":14147:14306   */\n    tag_235:\n        /* \"#utility.yul\":14221:14232   */\n      0x00\n        /* \"#utility.yul\":14255:14261   */\n      dup3\n        /* \"#utility.yul\":14250:14253   */\n      dup3\n        /* \"#utility.yul\":14243:14262   */\n      mstore\n        /* \"#utility.yul\":14295:14299   */\n      0x20\n        /* \"#utility.yul\":14290:14293   */\n      dup3\n        /* \"#utility.yul\":14286:14300   */\n      add\n        /* \"#utility.yul\":14271:14300   */\n      swap1\n      pop\n        /* \"#utility.yul\":14147:14306   */\n      swap3\n      swap2\n      pop\n      pop\n      jump\t// out\n        /* \"#utility.yul\":14312:14481   */\n    tag_244:\n        /* \"#utility.yul\":14396:14407   */\n      0x00\n        /* \"#utility.yul\":14430:14436   */\n      dup3\n        /* \"#utility.yul\":14425:14428   */\n      dup3\n        /* \"#utility.yul\":14418:14437   */\n      mstore\n        /* \"#utility.yul\":14470:14474   */\n      0x20\n        /* \"#utility.yul\":14465:14468   */\n      dup3\n        /* \"#utility.yul\":14461:14475   */\n      add\n        /* \"#utility.yul\":14446:14475   */\n      swap1\n      pop\n        /* \"#utility.yul\":14312:14481   */\n      swap3\n      swap2\n      pop\n      pop\n      jump\t// out\n        /* \"#utility.yul\":14487:15012   */\n    tag_160:\n        /* \"#utility.yul\":14526:14529   */\n      0x00\n        /* \"#utility.yul\":14545:14564   */\n      tag_349\n        /* \"#utility.yul\":14562:14563   */\n      dup3\n        /* \"#utility.yul\":14545:14564   */\n      tag_350\n      jump\t// in\n    tag_349:\n        /* \"#utility.yul\":14540:14564   */\n      swap2\n      pop\n        /* \"#utility.yul\":14578:14597   */\n      tag_351\n        /* \"#utility.yul\":14595:14596   */\n      dup4\n        /* \"#utility.yul\":14578:14597   */\n      tag_350\n      jump\t// in\n    tag_351:\n        /* \"#utility.yul\":14573:14597   */\n      swap3\n      pop\n        /* \"#utility.yul\":14766:14767   */\n      dup2\n        /* \"#utility.yul\":14698:14764   */\n      0x7fffffffffffffffffffffffffffffffffffffffffffffffffffffffffffffff\n        /* \"#utility.yul\":14694:14768   */\n      sub\n        /* \"#utility.yul\":14691:14692   */\n      dup4\n        /* \"#utility.yul\":14687:14769   */\n      sgt\n        /* \"#utility.yul\":14682:14683   */\n      0x00\n        /* \"#utility.yul\":14679:14680   */\n      dup4\n        /* \"#utility.yul\":14675:14684   */\n      slt\n        /* \"#utility.yul\":14668:14685   */\n      iszero\n        /* \"#utility.yul\":14664:14770   */\n      and\n        /* \"#utility.yul\":14661:14793   */\n      iszero\n      tag_352\n      jumpi\n        /* \"#utility.yul\":14773:14791   */\n      tag_353\n      tag_354\n      jump\t// in\n    tag_353:\n        /* \"#utility.yul\":14661:14793   */\n    tag_352:\n        /* \"#utility.yul\":14953:14954   */\n      dup2\n        /* \"#utility.yul\":14885:14951   */\n      0x8000000000000000000000000000000000000000000000000000000000000000\n        /* \"#utility.yul\":14881:14955   */\n      sub\n        /* \"#utility.yul\":14878:14879   */\n      dup4\n        /* \"#utility.yul\":14874:14956   */\n      slt\n        /* \"#utility.yul\":14870:14871   */\n      0x00\n        /* \"#utility.yul\":14867:14868   */\n      dup4\n        /* \"#utility.yul\":14863:14872   */\n      slt\n        /* \"#utility.yul\":14859:14957   */\n      and\n        /* \"#utility.yul\":14856:14980   */\n      iszero\n      tag_355\n      jumpi\n        /* \"#utility.yul\":14960:14978   */\n      tag_356\n      tag_354\n      jump\t// in\n    tag_356:\n        /* \"#utility.yul\":14856:14980   */\n    tag_355:\n        /* \"#utility.yul\":15004:15005   */\n      dup3\n        /* \"#utility.yul\":15001:15002   */\n      dup3\n        /* \"#utility.yul\":14997:15006   */\n      add\n        /* \"#utility.yul\":14990:15006   */\n      swap1\n      pop\n        /* \"#utility.yul\":14487:15012   */\n      swap3\n      swap2\n      pop\n      pop\n      jump\t// out\n        /* \"#utility.yul\":15018:15323   */\n    tag_54:\n        /* \"#utility.yul\":15058:15061   */\n      0x00\n        /* \"#utility.yul\":15077:15097   */\n      tag_358\n        /* \"#utility.yul\":15095:15096   */\n      dup3\n        /* \"#utility.yul\":15077:15097   */\n      tag_289\n      jump\t// in\n    tag_358:\n        /* \"#utility.yul\":15072:15097   */\n      swap2\n      pop\n        /* \"#utility.yul\":15111:15131   */\n      tag_359\n        /* \"#utility.yul\":15129:15130   */\n      dup4\n        /* \"#utility.yul\":15111:15131   */\n      tag_289\n      jump\t// in\n    tag_359:\n        /* \"#utility.yul\":15106:15131   */\n      swap3\n      pop\n        /* \"#utility.yul\":15265:15266   */\n      dup3\n        /* \"#utility.yul\":15197:15263   */\n      0xffffffffffffffffffffffffffffffffffffffffffffffffffffffffffffffff\n        /* \"#utility.yul\":15193:15267   */\n      sub\n        /* \"#utility.yul\":15190:15191   */\n      dup3\n        /* \"#utility.yul\":15187:15268   */\n      gt\n        /* \"#utility.yul\":15184:15291   */\n      iszero\n      tag_360\n      jumpi\n        /* \"#utility.yul\":15271:15289   */\n      tag_361\n      tag_354\n      jump\t// in\n    tag_361:\n        /* \"#utility.yul\":15184:15291   */\n    tag_360:\n        /* \"#utility.yul\":15315:15316   */\n      dup3\n        /* \"#utility.yul\":15312:15313   */\n      dup3\n        /* \"#utility.yul\":15308:15317   */\n      add\n        /* \"#utility.yul\":15301:15317   */\n      swap1\n      pop\n        /* \"#utility.yul\":15018:15323   */\n      swap3\n      swap2\n      pop\n      pop\n      jump\t// out\n        /* \"#utility.yul\":15329:15425   */\n    tag_224:\n        /* \"#utility.yul\":15366:15373   */\n      0x00\n        /* \"#utility.yul\":15395:15419   */\n      tag_363\n        /* \"#utility.yul\":15413:15418   */\n      dup3\n        /* \"#utility.yul\":15395:15419   */\n      tag_364\n      jump\t// in\n    tag_363:\n        /* \"#utility.yul\":15384:15419   */\n      swap1\n      pop\n        /* \"#utility.yul\":15329:15425   */\n      swap2\n      swap1\n      pop\n      jump\t// out\n        /* \"#utility.yul\":15431:15521   */\n    tag_229:\n        /* \"#utility.yul\":15465:15472   */\n      0x00\n        /* \"#utility.yul\":15508:15513   */\n      dup2\n        /* \"#utility.yul\":15501:15514   */\n      iszero\n        /* \"#utility.yul\":15494:15515   */\n      iszero\n        /* \"#utility.yul\":15483:15515   */\n      swap1\n      pop\n        /* \"#utility.yul\":15431:15521   */\n      swap2\n      swap1\n      pop\n      jump\t// out\n        /* \"#utility.yul\":15527:15603   */\n    tag_350:\n        /* \"#utility.yul\":15563:15570   */\n      0x00\n        /* \"#utility.yul\":15592:15597   */\n      dup2\n        /* \"#utility.yul\":15581:15597   */\n      swap1\n      pop\n        /* \"#utility.yul\":15527:15603   */\n      swap2\n      swap1\n      pop\n      jump\t// out\n        /* \"#utility.yul\":15609:15735   */\n    tag_364:\n        /* \"#utility.yul\":15646:15653   */\n      0x00\n        /* \"#utility.yul\":15686:15728   */\n      0xffffffffffffffffffffffffffffffffffffffff\n        /* \"#utility.yul\":15679:15684   */\n      dup3\n        /* \"#utility.yul\":15675:15729   */\n      and\n        /* \"#utility.yul\":15664:15729   */\n      swap1\n      pop\n        /* \"#utility.yul\":15609:15735   */\n      swap2\n      swap1\n      pop\n      jump\t// out\n        /* \"#utility.yul\":15741:15818   */\n    tag_289:\n        /* \"#utility.yul\":15778:15785   */\n      0x00\n        /* \"#utility.yul\":15807:15812   */\n      dup2\n        /* \"#utility.yul\":15796:15812   */\n      swap1\n      pop\n        /* \"#utility.yul\":15741:15818   */\n      swap2\n      swap1\n      pop\n      jump\t// out\n        /* \"#utility.yul\":15824:15978   */\n    tag_189:\n        /* \"#utility.yul\":15908:15914   */\n      dup3\n        /* \"#utility.yul\":15903:15906   */\n      dup2\n        /* \"#utility.yul\":15898:15901   */\n      dup4\n        /* \"#utility.yul\":15885:15915   */\n      calldatacopy\n        /* \"#utility.yul\":15970:15971   */\n      0x00\n        /* \"#utility.yul\":15961:15967   */\n      dup4\n        /* \"#utility.yul\":15956:15959   */\n      dup4\n        /* \"#utility.yul\":15952:15968   */\n      add\n        /* \"#utility.yul\":15945:15972   */\n      mstore\n        /* \"#utility.yul\":15824:15978   */\n      pop\n      pop\n      pop\n      jump\t// out\n        /* \"#utility.yul\":15984:16291   */\n    tag_237:\n        /* \"#utility.yul\":16052:16053   */\n      0x00\n        /* \"#utility.yul\":16062:16175   */\n    tag_371:\n        /* \"#utility.yul\":16076:16082   */\n      dup4\n        /* \"#utility.yul\":16073:16074   */\n      dup2\n        /* \"#utility.yul\":16070:16083   */\n      lt\n        /* \"#utility.yul\":16062:16175   */\n      iszero\n      tag_373\n      jumpi\n        /* \"#utility.yul\":16161:16162   */\n      dup1\n        /* \"#utility.yul\":16156:16159   */\n      dup3\n        /* \"#utility.yul\":16152:16163   */\n      add\n        /* \"#utility.yul\":16146:16164   */\n      mload\n        /* \"#utility.yul\":16142:16143   */\n      dup2\n        /* \"#utility.yul\":16137:16140   */\n      dup5\n        /* \"#utility.yul\":16133:16144   */\n      add\n        /* \"#utility.yul\":16126:16165   */\n      mstore\n        /* \"#utility.yul\":16098:16100   */\n      0x20\n        /* \"#utility.yul\":16095:16096   */\n      dup2\n        /* \"#utility.yul\":16091:16101   */\n      add\n        /* \"#utility.yul\":16086:16101   */\n      swap1\n      pop\n        /* \"#utility.yul\":16062:16175   */\n      jump(tag_371)\n    tag_373:\n        /* \"#utility.yul\":16193:16199   */\n      dup4\n        /* \"#utility.yul\":16190:16191   */\n      dup2\n        /* \"#utility.yul\":16187:16200   */\n      gt\n        /* \"#utility.yul\":16184:16285   */\n      iszero\n      tag_374\n      jumpi\n        /* \"#utility.yul\":16273:16274   */\n      0x00\n        /* \"#utility.yul\":16264:16270   */\n      dup5\n        /* \"#utility.yul\":16259:16262   */\n      dup5\n        /* \"#utility.yul\":16255:16271   */\n      add\n        /* \"#utility.yul\":16248:16275   */\n      mstore\n        /* \"#utility.yul\":16184:16285   */\n    tag_374:\n        /* \"#utility.yul\":16033:16291   */\n      pop\n        /* \"#utility.yul\":15984:16291   */\n      pop\n      pop\n      pop\n      jump\t// out\n        /* \"#utility.yul\":16297:16617   */\n    tag_118:\n        /* \"#utility.yul\":16341:16347   */\n      0x00\n        /* \"#utility.yul\":16378:16379   */\n      0x02\n        /* \"#utility.yul\":16372:16376   */\n      dup3\n        /* \"#utility.yul\":16368:16380   */\n      div\n        /* \"#utility.yul\":16358:16380   */\n      swap1\n      pop\n        /* \"#utility.yul\":16425:16426   */\n      0x01\n        /* \"#utility.yul\":16419:16423   */\n      dup3\n        /* \"#utility.yul\":16415:16427   */\n      and\n        /* \"#utility.yul\":16446:16464   */\n      dup1\n        /* \"#utility.yul\":16436:16517   */\n      tag_376\n      jumpi\n        /* \"#utility.yul\":16502:16506   */\n      0x7f\n        /* \"#utility.yul\":16494:16500   */\n      dup3\n        /* \"#utility.yul\":16490:16507   */\n      and\n        /* \"#utility.yul\":16480:16507   */\n      swap2\n      pop\n        /* \"#utility.yul\":16436:16517   */\n    tag_376:\n        /* \"#utility.yul\":16564:16566   */\n      0x20\n        /* \"#utility.yul\":16556:16562   */\n      dup3\n        /* \"#utility.yul\":16553:16567   */\n      lt\n        /* \"#utility.yul\":16533:16551   */\n      dup2\n        /* \"#utility.yul\":16530:16568   */\n      eq\n        /* \"#utility.yul\":16527:16611   */\n      iszero\n      tag_377\n      jumpi\n        /* \"#utility.yul\":16583:16601   */\n      tag_378\n      tag_379\n      jump\t// in\n    tag_378:\n        /* \"#utility.yul\":16527:16611   */\n    tag_377:\n        /* \"#utility.yul\":16348:16617   */\n      pop\n        /* \"#utility.yul\":16297:16617   */\n      swap2\n      swap1\n      pop\n      jump\t// out\n        /* \"#utility.yul\":16623:16904   */\n    tag_338:\n        /* \"#utility.yul\":16706:16733   */\n      tag_381\n        /* \"#utility.yul\":16728:16732   */\n      dup3\n        /* \"#utility.yul\":16706:16733   */\n      tag_239\n      jump\t// in\n    tag_381:\n        /* \"#utility.yul\":16698:16704   */\n      dup2\n        /* \"#utility.yul\":16694:16734   */\n      add\n        /* \"#utility.yul\":16836:16842   */\n      dup2\n        /* \"#utility.yul\":16824:16834   */\n      dup2\n        /* \"#utility.yul\":16821:16843   */\n      lt\n        /* \"#utility.yul\":16800:16818   */\n      0xffffffffffffffff\n        /* \"#utility.yul\":16788:16798   */\n      dup3\n        /* \"#utility.yul\":16785:16819   */\n      gt\n        /* \"#utility.yul\":16782:16844   */\n      or\n        /* \"#utility.yul\":16779:16867   */\n      iszero\n      tag_382\n      jumpi\n        /* \"#utility.yul\":16847:16865   */\n      tag_383\n      tag_343\n      jump\t// in\n    tag_383:\n        /* \"#utility.yul\":16779:16867   */\n    tag_382:\n        /* \"#utility.yul\":16887:16897   */\n      dup1\n        /* \"#utility.yul\":16883:16885   */\n      0x40\n        /* \"#utility.yul\":16876:16898   */\n      mstore\n        /* \"#utility.yul\":16666:16904   */\n      pop\n        /* \"#utility.yul\":16623:16904   */\n      pop\n      pop\n      jump\t// out\n        /* \"#utility.yul\":16910:17010   */\n    tag_225:\n        /* \"#utility.yul\":16949:16956   */\n      0x00\n        /* \"#utility.yul\":16978:17004   */\n      tag_385\n        /* \"#utility.yul\":16998:17003   */\n      dup3\n        /* \"#utility.yul\":16978:17004   */\n      tag_386\n      jump\t// in\n    tag_385:\n        /* \"#utility.yul\":16967:17004   */\n      swap1\n      pop\n        /* \"#utility.yul\":16910:17010   */\n      swap2\n      swap1\n      pop\n      jump\t// out\n        /* \"#utility.yul\":17016:17110   */\n    tag_386:\n        /* \"#utility.yul\":17055:17062   */\n      0x00\n        /* \"#utility.yul\":17084:17104   */\n      tag_388\n        /* \"#utility.yul\":17098:17103   */\n      dup3\n        /* \"#utility.yul\":17084:17104   */\n      tag_389\n      jump\t// in\n    tag_388:\n        /* \"#utility.yul\":17073:17104   */\n      swap1\n      pop\n        /* \"#utility.yul\":17016:17110   */\n      swap2\n      swap1\n      pop\n      jump\t// out\n        /* \"#utility.yul\":17116:17195   */\n    tag_297:\n        /* \"#utility.yul\":17155:17162   */\n      0x00\n        /* \"#utility.yul\":17184:17189   */\n      dup2\n        /* \"#utility.yul\":17173:17189   */\n      swap1\n      pop\n        /* \"#utility.yul\":17116:17195   */\n      swap2\n      swap1\n      pop\n      jump\t// out\n        /* \"#utility.yul\":17201:17377   */\n    tag_167:\n        /* \"#utility.yul\":17233:17234   */\n      0x00\n        /* \"#utility.yul\":17250:17270   */\n      tag_392\n        /* \"#utility.yul\":17268:17269   */\n      dup3\n        /* \"#utility.yul\":17250:17270   */\n      tag_289\n      jump\t// in\n    tag_392:\n        /* \"#utility.yul\":17245:17270   */\n      swap2\n      pop\n        /* \"#utility.yul\":17284:17304   */\n      tag_393\n        /* \"#utility.yul\":17302:17303   */\n      dup4\n        /* \"#utility.yul\":17284:17304   */\n      tag_289\n      jump\t// in\n    tag_393:\n        /* \"#utility.yul\":17279:17304   */\n      swap3\n      pop\n        /* \"#utility.yul\":17323:17324   */\n      dup3\n        /* \"#utility.yul\":17313:17348   */\n      tag_394\n      jumpi\n        /* \"#utility.yul\":17328:17346   */\n      tag_395\n      tag_396\n      jump\t// in\n    tag_395:\n        /* \"#utility.yul\":17313:17348   */\n    tag_394:\n        /* \"#utility.yul\":17369:17370   */\n      dup3\n        /* \"#utility.yul\":17366:17367   */\n      dup3\n        /* \"#utility.yul\":17362:17371   */\n      mod\n        /* \"#utility.yul\":17357:17371   */\n      swap1\n      pop\n        /* \"#utility.yul\":17201:17377   */\n      swap3\n      swap2\n      pop\n      pop\n      jump\t// out\n        /* \"#utility.yul\":17383:17563   */\n    tag_354:\n        /* \"#utility.yul\":17431:17508   */\n      0x4e487b7100000000000000000000000000000000000000000000000000000000\n        /* \"#utility.yul\":17428:17429   */\n      0x00\n        /* \"#utility.yul\":17421:17509   */\n      mstore\n        /* \"#utility.yul\":17528:17532   */\n      0x11\n        /* \"#utility.yul\":17525:17526   */\n      0x04\n        /* \"#utility.yul\":17518:17533   */\n      mstore\n        /* \"#utility.yul\":17552:17556   */\n      0x24\n        /* \"#utility.yul\":17549:17550   */\n      0x00\n        /* \"#utility.yul\":17542:17557   */\n      revert\n        /* \"#utility.yul\":17569:17749   */\n    tag_396:\n        /* \"#utility.yul\":17617:17694   */\n      0x4e487b7100000000000000000000000000000000000000000000000000000000\n        /* \"#utility.yul\":17614:17615   */\n      0x00\n        /* \"#utility.yul\":17607:17695   */\n      mstore\n        /* \"#utility.yul\":17714:17718   */\n      0x12\n        /* \"#utility.yul\":17711:17712   */\n      0x04\n        /* \"#utility.yul\":17704:17719   */\n      mstore\n        /* \"#utility.yul\":17738:17742   */\n      0x24\n        /* \"#utility.yul\":17735:17736   */\n      0x00\n        /* \"#utility.yul\":17728:17743   */\n      revert\n        /* \"#utility.yul\":17755:17935   */\n    tag_379:\n        /* \"#utility.yul\":17803:17880   */\n      0x4e487b7100000000000000000000000000000000000000000000000000000000\n        /* \"#utility.yul\":17800:17801   */\n      0x00\n        /* \"#utility.yul\":17793:17881   */\n      mstore\n        /* \"#utility.yul\":17900:17904   */\n      0x22\n        /* \"#utility.yul\":17897:17898   */\n      0x04\n        /* \"#utility.yul\":17890:17905   */\n      mstore\n        /* \"#utility.yul\":17924:17928   */\n      0x24\n        /* \"#utility.yul\":17921:17922   */\n      0x00\n        /* \"#utility.yul\":17914:17929   */\n      revert\n        /* \"#utility.yul\":17941:18121   */\n    tag_51:\n        /* \"#utility.yul\":17989:18066   */\n      0x4e487b7100000000000000000000000000000000000000000000000000000000\n        /* \"#utility.yul\":17986:17987   */\n      0x00\n        /* \"#utility.yul\":17979:18067   */\n      mstore\n        /* \"#utility.yul\":18086:18090   */\n      0x32\n        /* \"#utility.yul\":18083:18084   */\n      0x04\n        /* \"#utility.yul\":18076:18091   */\n      mstore\n        /* \"#utility.yul\":18110:18114   */\n      0x24\n        /* \"#utility.yul\":18107:18108   */\n      0x00\n        /* \"#utility.yul\":18100:18115   */\n      revert\n        /* \"#utility.yul\":18127:18307   */\n    tag_343:\n        /* \"#utility.yul\":18175:18252   */\n      0x4e487b7100000000000000000000000000000000000000000000000000000000\n        /* \"#utility.yul\":18172:18173   */\n      0x00\n        /* \"#utility.yul\":18165:18253   */\n      mstore\n        /* \"#utility.yul\":18272:18276   */\n      0x41\n        /* \"#utility.yul\":18269:18270   */\n      0x04\n        /* \"#utility.yul\":18262:18277   */\n      mstore\n        /* \"#utility.yul\":18296:18300   */\n      0x24\n        /* \"#utility.yul\":18293:18294   */\n      0x00\n        /* \"#utility.yul\":18286:18301   */\n      revert\n        /* \"#utility.yul\":18313:18430   */\n    tag_198:\n        /* \"#utility.yul\":18422:18423   */\n      0x00\n        /* \"#utility.yul\":18419:18420   */\n      dup1\n        /* \"#utility.yul\":18412:18424   */\n      revert\n        /* \"#utility.yul\":18436:18553   */\n    tag_187:\n        /* \"#utility.yul\":18545:18546   */\n      0x00\n        /* \"#utility.yul\":18542:18543   */\n      dup1\n        /* \"#utility.yul\":18535:18547   */\n      revert\n        /* \"#utility.yul\":18559:18676   */\n    tag_214:\n        /* \"#utility.yul\":18668:18669   */\n      0x00\n        /* \"#utility.yul\":18665:18666   */\n      dup1\n        /* \"#utility.yul\":18658:18670   */\n      revert\n        /* \"#utility.yul\":18682:18799   */\n    tag_207:\n        /* \"#utility.yul\":18791:18792   */\n      0x00\n        /* \"#utility.yul\":18788:18789   */\n      dup1\n        /* \"#utility.yul\":18781:18793   */\n      revert\n        /* \"#utility.yul\":18805:18907   */\n    tag_239:\n        /* \"#utility.yul\":18846:18852   */\n      0x00\n        /* \"#utility.yul\":18897:18899   */\n      0x1f\n        /* \"#utility.yul\":18893:18900   */\n      not\n        /* \"#utility.yul\":18888:18890   */\n      0x1f\n        /* \"#utility.yul\":18881:18886   */\n      dup4\n        /* \"#utility.yul\":18877:18891   */\n      add\n        /* \"#utility.yul\":18873:18901   */\n      and\n        /* \"#utility.yul\":18863:18901   */\n      swap1\n      pop\n        /* \"#utility.yul\":18805:18907   */\n      swap2\n      swap1\n      pop\n      jump\t// out\n        /* \"#utility.yul\":18913:19007   */\n    tag_389:\n        /* \"#utility.yul\":18946:18954   */\n      0x00\n        /* \"#utility.yul\":18994:18999   */\n      dup2\n        /* \"#utility.yul\":18990:18992   */\n      0x60\n        /* \"#utility.yul\":18986:19000   */\n      shl\n        /* \"#utility.yul\":18965:19000   */\n      swap1\n      pop\n        /* \"#utility.yul\":18913:19007   */\n      swap2\n      swap1\n      pop\n      jump\t// out\n        /* \"#utility.yul\":19013:19183   */\n    tag_251:\n        /* \"#utility.yul\":19153:19175   */\n      0x486173206e6f20726967687420746f20766f7465000000000000000000000000\n        /* \"#utility.yul\":19149:19150   */\n      0x00\n        /* \"#utility.yul\":19141:19147   */\n      dup3\n        /* \"#utility.yul\":19137:19151   */\n      add\n        /* \"#utility.yul\":19130:19176   */\n      mstore\n        /* \"#utility.yul\":19013:19183   */\n      pop\n      jump\t// out\n        /* \"#utility.yul\":19189:19353   */\n    tag_256:\n        /* \"#utility.yul\":19329:19345   */\n      0x416c726561647920766f7465642e000000000000000000000000000000000000\n        /* \"#utility.yul\":19325:19326   */\n      0x00\n        /* \"#utility.yul\":19317:19323   */\n      dup3\n        /* \"#utility.yul\":19313:19327   */\n      add\n        /* \"#utility.yul\":19306:19346   */\n      mstore\n        /* \"#utility.yul\":19189:19353   */\n      pop\n      jump\t// out\n        /* \"#utility.yul\":19359:19586   */\n    tag_261:\n        /* \"#utility.yul\":19499:19533   */\n      0x4f6e6c79206368616972706572736f6e2063616e206769766520726967687420\n        /* \"#utility.yul\":19495:19496   */\n      0x00\n        /* \"#utility.yul\":19487:19493   */\n      dup3\n        /* \"#utility.yul\":19483:19497   */\n      add\n        /* \"#utility.yul\":19476:19534   */\n      mstore\n        /* \"#utility.yul\":19568:19578   */\n      0x746f20766f74652e000000000000000000000000000000000000000000000000\n        /* \"#utility.yul\":19563:19565   */\n      0x20\n        /* \"#utility.yul\":19555:19561   */\n      dup3\n        /* \"#utility.yul\":19551:19566   */\n      add\n        /* \"#utility.yul\":19544:19579   */\n      mstore\n        /* \"#utility.yul\":19359:19586   */\n      pop\n      jump\t// out\n        /* \"#utility.yul\":19592:19766   */\n    tag_266:\n        /* \"#utility.yul\":19732:19758   */\n      0x54686520766f74657220616c726561647920766f7465642e0000000000000000\n        /* \"#utility.yul\":19728:19729   */\n      0x00\n        /* \"#utility.yul\":19720:19726   */\n      dup3\n        /* \"#utility.yul\":19716:19730   */\n      add\n        /* \"#utility.yul\":19709:19759   */\n      mstore\n        /* \"#utility.yul\":19592:19766   */\n      pop\n      jump\t// out\n        /* \"#utility.yul\":19772:19941   */\n    tag_271:\n        /* \"#utility.yul\":19912:19933   */\n      0x52656163686564206d617820766f746572732e00000000000000000000000000\n        /* \"#utility.yul\":19908:19909   */\n      0x00\n        /* \"#utility.yul\":19900:19906   */\n      dup3\n        /* \"#utility.yul\":19896:19910   */\n      add\n        /* \"#utility.yul\":19889:19934   */\n      mstore\n        /* \"#utility.yul\":19772:19941   */\n      pop\n      jump\t// out\n        /* \"#utility.yul\":19947:20069   */\n    tag_193:\n        /* \"#utility.yul\":20020:20044   */\n      tag_414\n        /* \"#utility.yul\":20038:20043   */\n      dup2\n        /* \"#utility.yul\":20020:20044   */\n      tag_224\n      jump\t// in\n    tag_414:\n        /* \"#utility.yul\":20013:20018   */\n      dup2\n        /* \"#utility.yul\":20010:20045   */\n      eq\n        /* \"#utility.yul\":20000:20063   */\n      tag_415\n      jumpi\n        /* \"#utility.yul\":20059:20060   */\n      0x00\n        /* \"#utility.yul\":20056:20057   */\n      dup1\n        /* \"#utility.yul\":20049:20061   */\n      revert\n        /* \"#utility.yul\":20000:20063   */\n    tag_415:\n        /* \"#utility.yul\":19947:20069   */\n      pop\n      jump\t// out\n        /* \"#utility.yul\":20075:20197   */\n    tag_203:\n        /* \"#utility.yul\":20148:20172   */\n      tag_417\n        /* \"#utility.yul\":20166:20171   */\n      dup2\n        /* \"#utility.yul\":20148:20172   */\n      tag_289\n      jump\t// in\n    tag_417:\n        /* \"#utility.yul\":20141:20146   */\n      dup2\n        /* \"#utility.yul\":20138:20173   */\n      eq\n        /* \"#utility.yul\":20128:20191   */\n      tag_418\n      jumpi\n        /* \"#utility.yul\":20187:20188   */\n      0x00\n        /* \"#utility.yul\":20184:20185   */\n      dup1\n        /* \"#utility.yul\":20177:20189   */\n      revert\n        /* \"#utility.yul\":20128:20191   */\n    tag_418:\n        /* \"#utility.yul\":20075:20197   */\n      pop\n      jump\t// out\n\n    auxdata: 0xa2646970667358221220cf436ca8d458ebaf6ed2f602d264d2546f202360aa1c7b431ea75e4c0fb9c4e164736f6c63430008070033\n}\n",
				"bytecode": {
					"linkReferences": {},
					"object": "6080604052600060045560006005553480156200001b57600080fd5b50336000806101000a81548173ffffffffffffffffffffffffffffffffffffffff021916908373ffffffffffffffffffffffffffffffffffffffff16021790555060018060008060009054906101000a900473ffffffffffffffffffffffffffffffffffffffff1673ffffffffffffffffffffffffffffffffffffffff1673ffffffffffffffffffffffffffffffffffffffff1681526020019081526020016000206000018190555060006040518060a001604052806040518060400160405280600181526020017f610000000000000000000000000000000000000000000000000000000000000081525081526020016040518060400160405280600181526020017f620000000000000000000000000000000000000000000000000000000000000081525081526020016040518060400160405280600181526020017f630000000000000000000000000000000000000000000000000000000000000081525081526020016040518060400160405280600181526020017f640000000000000000000000000000000000000000000000000000000000000081525081526020016040518060400160405280600181526020017f65000000000000000000000000000000000000000000000000000000000000008152508152509050600580146200023e576040517f08c379a0000000000000000000000000000000000000000000000000000000008152600401620002359062000475565b60405180910390fd5b60005b6005811015620003965760026040518061018001604052808484600581106200026f576200026e62000594565b5b6020020151815260200160008152602001600081526020016000815260200160008152602001600081526020016000815260200160008152602001600081526020016000815260200160008152602001600081525090806001815401808255809150506001900390600052602060002090600c020160009091909190915060008201518160000190805190602001906200030b9291906200039e565b506020820151816001015560408201518160020155606082015181600301556080820151816004015560a0820151816005015560c0820151816006015560e082015181600701556101008201518160080155610120820151816009015561014082015181600a015561016082015181600b0155505080806200038d90620004e8565b91505062000241565b5050620005ec565b828054620003ac90620004b2565b90600052602060002090601f016020900481019282620003d057600085556200041c565b82601f10620003eb57805160ff19168380011785556200041c565b828001600101855582156200041c579182015b828111156200041b578251825591602001919060010190620003fe565b5b5090506200042b91906200042f565b5090565b5b808211156200044a57600081600090555060010162000430565b5090565b60006200045d60158362000497565b91506200046a82620005c3565b602082019050919050565b6000602082019050818103600083015262000490816200044e565b9050919050565b600082825260208201905092915050565b6000819050919050565b60006002820490506001821680620004cb57607f821691505b60208210811415620004e257620004e162000565565b5b50919050565b6000620004f582620004a8565b91507fffffffffffffffffffffffffffffffffffffffffffffffffffffffffffffffff8214156200052b576200052a62000536565b5b600182019050919050565b7f4e487b7100000000000000000000000000000000000000000000000000000000600052601160045260246000fd5b7f4e487b7100000000000000000000000000000000000000000000000000000000600052602260045260246000fd5b7f4e487b7100000000000000000000000000000000000000000000000000000000600052603260045260246000fd5b7f43616e64696461746573206d75737420626520352e0000000000000000000000600082015250565b61181480620005fc6000396000f3fe608060405234801561001057600080fd5b506004361061007d5760003560e01c8063937f6e771161005b578063937f6e77146100f75780639e7b8d6114610113578063a3ec138d1461012f578063d4e8fd2e146101625761007d565b80630121b93f14610082578063013cf08b1461009e5780635a9b0b89146100d9575b600080fd5b61009c60048036038101906100979190610e09565b610192565b005b6100b860048036038101906100b39190610e09565b61060c565b6040516100d09c9b9a99989796959493929190611115565b60405180910390f35b6100e1610704565b6040516100ee91906110f3565b60405180910390f35b610111600480360381019061010c9190610dc0565b610796565b005b61012d60048036038101906101289190610d93565b6107b0565b005b61014960048036038101906101449190610d93565b610a02565b6040516101599493929190611298565b60405180910390f35b61017c60048036038101906101779190610e09565b610a3f565b6040516101899190611276565b60405180910390f35b6000600160003373ffffffffffffffffffffffffffffffffffffffff1673ffffffffffffffffffffffffffffffffffffffff168152602001908152602001600020905060008160000154141561021d576040517f08c379a0000000000000000000000000000000000000000000000000000000008152600401610214906111d6565b60405180910390fd5b8060010160009054906101000a900460ff161561026f576040517f08c379a0000000000000000000000000000000000000000000000000000000008152600401610266906111f6565b60405180910390fd5b60018160010160006101000a81548160ff0219169083151502179055508181600301819055508060000154600283815481106102ae576102ad61162d565b5b90600052602060002090600c020160010160008282546102ce91906113f4565b92505081905550600081600201541415610327578060000154600283815481106102fb576102fa61162d565b5b90600052602060002090600c0201600201600082825461031b91906113f4565b92505081905550610600565b6001816002015414156103795780600001546002838154811061034d5761034c61162d565b5b90600052602060002090600c0201600301600082825461036d91906113f4565b925050819055506105ff565b6002816002015414156103cb5780600001546002838154811061039f5761039e61162d565b5b90600052602060002090600c020160040160008282546103bf91906113f4565b925050819055506105fe565b60038160020154141561041d578060000154600283815481106103f1576103f061162d565b5b90600052602060002090600c0201600501600082825461041191906113f4565b925050819055506105fd565b60048160020154141561046f578060000154600283815481106104435761044261162d565b5b90600052602060002090600c0201600601600082825461046391906113f4565b925050819055506105fc565b6005816002015414156104c1578060000154600283815481106104955761049461162d565b5b90600052602060002090600c020160070160008282546104b591906113f4565b925050819055506105fb565b600681600201541415610513578060000154600283815481106104e7576104e661162d565b5b90600052602060002090600c0201600801600082825461050791906113f4565b925050819055506105fa565b600781600201541415610565578060000154600283815481106105395761053861162d565b5b90600052602060002090600c0201600901600082825461055991906113f4565b925050819055506105f9565b6008816002015414156105b75780600001546002838154811061058b5761058a61162d565b5b90600052602060002090600c0201600a0160008282546105ab91906113f4565b925050819055506105f8565b8060000154600283815481106105d0576105cf61162d565b5b90600052602060002090600c0201600b0160008282546105f091906113f4565b925050819055505b5b5b5b5b5b5b5b5b610608610b7c565b5050565b6002818154811061061c57600080fd5b90600052602060002090600c020160009150905080600001805461063f906114de565b80601f016020809104026020016040519081016040528092919081815260200182805461066b906114de565b80156106b85780601f1061068d576101008083540402835291602001916106b8565b820191906000526020600020905b81548152906001019060200180831161069b57829003601f168201915b50505050509080600101549080600201549080600301549080600401549080600501549080600601549080600701549080600801549080600901549080600a01549080600b015490508c565b606060038054610713906114de565b80601f016020809104026020016040519081016040528092919081815260200182805461073f906114de565b801561078c5780601f106107615761010080835404028352916020019161078c565b820191906000526020600020905b81548152906001019060200180831161076f57829003601f168201915b5050505050905090565b80600390805190602001906107ac929190610bf5565b5050565b60008054906101000a900473ffffffffffffffffffffffffffffffffffffffff1673ffffffffffffffffffffffffffffffffffffffff163373ffffffffffffffffffffffffffffffffffffffff161461083e576040517f08c379a000000000000000000000000000000000000000000000000000000000815260040161083590611216565b60405180910390fd5b600160008273ffffffffffffffffffffffffffffffffffffffff1673ffffffffffffffffffffffffffffffffffffffff16815260200190815260200160002060010160009054906101000a900460ff16156108ce576040517f08c379a00000000000000000000000000000000000000000000000000000000081526004016108c590611236565b60405180910390fd5b6000600160008373ffffffffffffffffffffffffffffffffffffffff1673ffffffffffffffffffffffffffffffffffffffff168152602001908152602001600020600001541461091d57600080fd5b60018060008373ffffffffffffffffffffffffffffffffffffffff1673ffffffffffffffffffffffffffffffffffffffff168152602001908152602001600020600001819055506003600454126109a9576040517f08c379a00000000000000000000000000000000000000000000000000000000081526004016109a090611256565b60405180910390fd5b6109b1610b98565b6109b9610bb4565b600160008373ffffffffffffffffffffffffffffffffffffffff1673ffffffffffffffffffffffffffffffffffffffff1681526020019081526020016000206002018190555050565b60016020528060005260406000206000915090508060000154908060010160009054906101000a900460ff16908060020154908060030154905084565b610a47610c7b565b60028281548110610a5b57610a5a61162d565b5b90600052602060002090600c020160405180610180016040529081600082018054610a85906114de565b80601f0160208091040260200160405190810160405280929190818152602001828054610ab1906114de565b8015610afe5780601f10610ad357610100808354040283529160200191610afe565b820191906000526020600020905b815481529060010190602001808311610ae157829003601f168201915b50505050508152602001600182015481526020016002820154815260200160038201548152602001600482015481526020016005820154815260200160068201548152602001600782015481526020016008820154815260200160098201548152602001600a8201548152602001600b820154815250509050919050565b600160056000828254610b8f9190611360565b92505081905550565b600160046000828254610bab9190611360565b92505081905550565b6000600a424433604051602001610bcd939291906110b6565b6040516020818303038152906040528051906020012060001c610bf0919061156f565b905090565b828054610c01906114de565b90600052602060002090601f016020900481019282610c235760008555610c6a565b82601f10610c3c57805160ff1916838001178555610c6a565b82800160010185558215610c6a579182015b82811115610c69578251825591602001919060010190610c4e565b5b509050610c779190610cdc565b5090565b6040518061018001604052806060815260200160008152602001600081526020016000815260200160008152602001600081526020016000815260200160008152602001600081526020016000815260200160008152602001600081525090565b5b80821115610cf5576000816000905550600101610cdd565b5090565b6000610d0c610d0784611302565b6112dd565b905082815260208101848484011115610d2857610d27611690565b5b610d3384828561149c565b509392505050565b600081359050610d4a816117b0565b92915050565b600082601f830112610d6557610d6461168b565b5b8135610d75848260208601610cf9565b91505092915050565b600081359050610d8d816117c7565b92915050565b600060208284031215610da957610da861169a565b5b6000610db784828501610d3b565b91505092915050565b600060208284031215610dd657610dd561169a565b5b600082013567ffffffffffffffff811115610df457610df3611695565b5b610e0084828501610d50565b91505092915050565b600060208284031215610e1f57610e1e61169a565b5b6000610e2d84828501610d7e565b91505092915050565b610e47610e428261144a565b611541565b82525050565b610e568161145c565b82525050565b6000610e6782611333565b610e71818561133e565b9350610e818185602086016114ab565b610e8a8161169f565b840191505092915050565b6000610ea082611333565b610eaa818561134f565b9350610eba8185602086016114ab565b610ec38161169f565b840191505092915050565b6000610edb60148361134f565b9150610ee6826116bd565b602082019050919050565b6000610efe600e8361134f565b9150610f09826116e6565b602082019050919050565b6000610f2160288361134f565b9150610f2c8261170f565b604082019050919050565b6000610f4460188361134f565b9150610f4f8261175e565b602082019050919050565b6000610f6760138361134f565b9150610f7282611787565b602082019050919050565b6000610180830160008301518482036000860152610f9b8282610e5c565b9150506020830151610fb06020860182611081565b506040830151610fc36040860182611081565b506060830151610fd66060860182611081565b506080830151610fe96080860182611081565b5060a0830151610ffc60a0860182611081565b5060c083015161100f60c0860182611081565b5060e083015161102260e0860182611081565b50610100830151611037610100860182611081565b5061012083015161104c610120860182611081565b50610140830151611061610140860182611081565b50610160830151611076610160860182611081565b508091505092915050565b61108a81611492565b82525050565b61109981611492565b82525050565b6110b06110ab82611492565b611565565b82525050565b60006110c2828661109f565b6020820191506110d2828561109f565b6020820191506110e28284610e36565b601482019150819050949350505050565b6000602082019050818103600083015261110d8184610e95565b905092915050565b6000610180820190508181036000830152611130818f610e95565b905061113f602083018e611090565b61114c604083018d611090565b611159606083018c611090565b611166608083018b611090565b61117360a083018a611090565b61118060c0830189611090565b61118d60e0830188611090565b61119b610100830187611090565b6111a9610120830186611090565b6111b7610140830185611090565b6111c5610160830184611090565b9d9c50505050505050505050505050565b600060208201905081810360008301526111ef81610ece565b9050919050565b6000602082019050818103600083015261120f81610ef1565b9050919050565b6000602082019050818103600083015261122f81610f14565b9050919050565b6000602082019050818103600083015261124f81610f37565b9050919050565b6000602082019050818103600083015261126f81610f5a565b9050919050565b600060208201905081810360008301526112908184610f7d565b905092915050565b60006080820190506112ad6000830187611090565b6112ba6020830186610e4d565b6112c76040830185611090565b6112d46060830184611090565b95945050505050565b60006112e76112f8565b90506112f38282611510565b919050565b6000604051905090565b600067ffffffffffffffff82111561131d5761131c61165c565b5b6113268261169f565b9050602081019050919050565b600081519050919050565b600082825260208201905092915050565b600082825260208201905092915050565b600061136b82611468565b915061137683611468565b9250817f7fffffffffffffffffffffffffffffffffffffffffffffffffffffffffffffff038313600083121516156113b1576113b06115a0565b5b817f80000000000000000000000000000000000000000000000000000000000000000383126000831216156113e9576113e86115a0565b5b828201905092915050565b60006113ff82611492565b915061140a83611492565b9250827fffffffffffffffffffffffffffffffffffffffffffffffffffffffffffffffff0382111561143f5761143e6115a0565b5b828201905092915050565b600061145582611472565b9050919050565b60008115159050919050565b6000819050919050565b600073ffffffffffffffffffffffffffffffffffffffff82169050919050565b6000819050919050565b82818337600083830152505050565b60005b838110156114c95780820151818401526020810190506114ae565b838111156114d8576000848401525b50505050565b600060028204905060018216806114f657607f821691505b6020821081141561150a576115096115fe565b5b50919050565b6115198261169f565b810181811067ffffffffffffffff821117156115385761153761165c565b5b80604052505050565b600061154c82611553565b9050919050565b600061155e826116b0565b9050919050565b6000819050919050565b600061157a82611492565b915061158583611492565b925082611595576115946115cf565b5b828206905092915050565b7f4e487b7100000000000000000000000000000000000000000000000000000000600052601160045260246000fd5b7f4e487b7100000000000000000000000000000000000000000000000000000000600052601260045260246000fd5b7f4e487b7100000000000000000000000000000000000000000000000000000000600052602260045260246000fd5b7f4e487b7100000000000000000000000000000000000000000000000000000000600052603260045260246000fd5b7f4e487b7100000000000000000000000000000000000000000000000000000000600052604160045260246000fd5b600080fd5b600080fd5b600080fd5b600080fd5b6000601f19601f8301169050919050565b60008160601b9050919050565b7f486173206e6f20726967687420746f20766f7465000000000000000000000000600082015250565b7f416c726561647920766f7465642e000000000000000000000000000000000000600082015250565b7f4f6e6c79206368616972706572736f6e2063616e20676976652072696768742060008201527f746f20766f74652e000000000000000000000000000000000000000000000000602082015250565b7f54686520766f74657220616c726561647920766f7465642e0000000000000000600082015250565b7f52656163686564206d617820766f746572732e00000000000000000000000000600082015250565b6117b98161144a565b81146117c457600080fd5b50565b6117d081611492565b81146117db57600080fd5b5056fea2646970667358221220cf436ca8d458ebaf6ed2f602d264d2546f202360aa1c7b431ea75e4c0fb9c4e164736f6c63430008070033",
					"opcodes": "PUSH1 0x80 PUSH1 0x40 MSTORE PUSH1 0x0 PUSH1 0x4 SSTORE PUSH1 0x0 PUSH1 0x5 SSTORE CALLVALUE DUP1 ISZERO PUSH3 0x1B JUMPI PUSH1 0x0 DUP1 REVERT JUMPDEST POP CALLER PUSH1 0x0 DUP1 PUSH2 0x100 EXP DUP2 SLOAD DUP2 PUSH20 0xFFFFFFFFFFFFFFFFFFFFFFFFFFFFFFFFFFFFFFFF MUL NOT AND SWAP1 DUP4 PUSH20 0xFFFFFFFFFFFFFFFFFFFFFFFFFFFFFFFFFFFFFFFF AND MUL OR SWAP1 SSTORE POP PUSH1 0x1 DUP1 PUSH1 0x0 DUP1 PUSH1 0x0 SWAP1 SLOAD SWAP1 PUSH2 0x100 EXP SWAP1 DIV PUSH20 0xFFFFFFFFFFFFFFFFFFFFFFFFFFFFFFFFFFFFFFFF AND PUSH20 0xFFFFFFFFFFFFFFFFFFFFFFFFFFFFFFFFFFFFFFFF AND PUSH20 0xFFFFFFFFFFFFFFFFFFFFFFFFFFFFFFFFFFFFFFFF AND DUP2 MSTORE PUSH1 0x20 ADD SWAP1 DUP2 MSTORE PUSH1 0x20 ADD PUSH1 0x0 KECCAK256 PUSH1 0x0 ADD DUP2 SWAP1 SSTORE POP PUSH1 0x0 PUSH1 0x40 MLOAD DUP1 PUSH1 0xA0 ADD PUSH1 0x40 MSTORE DUP1 PUSH1 0x40 MLOAD DUP1 PUSH1 0x40 ADD PUSH1 0x40 MSTORE DUP1 PUSH1 0x1 DUP2 MSTORE PUSH1 0x20 ADD PUSH32 0x6100000000000000000000000000000000000000000000000000000000000000 DUP2 MSTORE POP DUP2 MSTORE PUSH1 0x20 ADD PUSH1 0x40 MLOAD DUP1 PUSH1 0x40 ADD PUSH1 0x40 MSTORE DUP1 PUSH1 0x1 DUP2 MSTORE PUSH1 0x20 ADD PUSH32 0x6200000000000000000000000000000000000000000000000000000000000000 DUP2 MSTORE POP DUP2 MSTORE PUSH1 0x20 ADD PUSH1 0x40 MLOAD DUP1 PUSH1 0x40 ADD PUSH1 0x40 MSTORE DUP1 PUSH1 0x1 DUP2 MSTORE PUSH1 0x20 ADD PUSH32 0x6300000000000000000000000000000000000000000000000000000000000000 DUP2 MSTORE POP DUP2 MSTORE PUSH1 0x20 ADD PUSH1 0x40 MLOAD DUP1 PUSH1 0x40 ADD PUSH1 0x40 MSTORE DUP1 PUSH1 0x1 DUP2 MSTORE PUSH1 0x20 ADD PUSH32 0x6400000000000000000000000000000000000000000000000000000000000000 DUP2 MSTORE POP DUP2 MSTORE PUSH1 0x20 ADD PUSH1 0x40 MLOAD DUP1 PUSH1 0x40 ADD PUSH1 0x40 MSTORE DUP1 PUSH1 0x1 DUP2 MSTORE PUSH1 0x20 ADD PUSH32 0x6500000000000000000000000000000000000000000000000000000000000000 DUP2 MSTORE POP DUP2 MSTORE POP SWAP1 POP PUSH1 0x5 DUP1 EQ PUSH3 0x23E JUMPI PUSH1 0x40 MLOAD PUSH32 0x8C379A000000000000000000000000000000000000000000000000000000000 DUP2 MSTORE PUSH1 0x4 ADD PUSH3 0x235 SWAP1 PUSH3 0x475 JUMP JUMPDEST PUSH1 0x40 MLOAD DUP1 SWAP2 SUB SWAP1 REVERT JUMPDEST PUSH1 0x0 JUMPDEST PUSH1 0x5 DUP2 LT ISZERO PUSH3 0x396 JUMPI PUSH1 0x2 PUSH1 0x40 MLOAD DUP1 PUSH2 0x180 ADD PUSH1 0x40 MSTORE DUP1 DUP5 DUP5 PUSH1 0x5 DUP2 LT PUSH3 0x26F JUMPI PUSH3 0x26E PUSH3 0x594 JUMP JUMPDEST JUMPDEST PUSH1 0x20 MUL ADD MLOAD DUP2 MSTORE PUSH1 0x20 ADD PUSH1 0x0 DUP2 MSTORE PUSH1 0x20 ADD PUSH1 0x0 DUP2 MSTORE PUSH1 0x20 ADD PUSH1 0x0 DUP2 MSTORE PUSH1 0x20 ADD PUSH1 0x0 DUP2 MSTORE PUSH1 0x20 ADD PUSH1 0x0 DUP2 MSTORE PUSH1 0x20 ADD PUSH1 0x0 DUP2 MSTORE PUSH1 0x20 ADD PUSH1 0x0 DUP2 MSTORE PUSH1 0x20 ADD PUSH1 0x0 DUP2 MSTORE PUSH1 0x20 ADD PUSH1 0x0 DUP2 MSTORE PUSH1 0x20 ADD PUSH1 0x0 DUP2 MSTORE PUSH1 0x20 ADD PUSH1 0x0 DUP2 MSTORE POP SWAP1 DUP1 PUSH1 0x1 DUP2 SLOAD ADD DUP1 DUP3 SSTORE DUP1 SWAP2 POP POP PUSH1 0x1 SWAP1 SUB SWAP1 PUSH1 0x0 MSTORE PUSH1 0x20 PUSH1 0x0 KECCAK256 SWAP1 PUSH1 0xC MUL ADD PUSH1 0x0 SWAP1 SWAP2 SWAP1 SWAP2 SWAP1 SWAP2 POP PUSH1 0x0 DUP3 ADD MLOAD DUP2 PUSH1 0x0 ADD SWAP1 DUP1 MLOAD SWAP1 PUSH1 0x20 ADD SWAP1 PUSH3 0x30B SWAP3 SWAP2 SWAP1 PUSH3 0x39E JUMP JUMPDEST POP PUSH1 0x20 DUP3 ADD MLOAD DUP2 PUSH1 0x1 ADD SSTORE PUSH1 0x40 DUP3 ADD MLOAD DUP2 PUSH1 0x2 ADD SSTORE PUSH1 0x60 DUP3 ADD MLOAD DUP2 PUSH1 0x3 ADD SSTORE PUSH1 0x80 DUP3 ADD MLOAD DUP2 PUSH1 0x4 ADD SSTORE PUSH1 0xA0 DUP3 ADD MLOAD DUP2 PUSH1 0x5 ADD SSTORE PUSH1 0xC0 DUP3 ADD MLOAD DUP2 PUSH1 0x6 ADD SSTORE PUSH1 0xE0 DUP3 ADD MLOAD DUP2 PUSH1 0x7 ADD SSTORE PUSH2 0x100 DUP3 ADD MLOAD DUP2 PUSH1 0x8 ADD SSTORE PUSH2 0x120 DUP3 ADD MLOAD DUP2 PUSH1 0x9 ADD SSTORE PUSH2 0x140 DUP3 ADD MLOAD DUP2 PUSH1 0xA ADD SSTORE PUSH2 0x160 DUP3 ADD MLOAD DUP2 PUSH1 0xB ADD SSTORE POP POP DUP1 DUP1 PUSH3 0x38D SWAP1 PUSH3 0x4E8 JUMP JUMPDEST SWAP2 POP POP PUSH3 0x241 JUMP JUMPDEST POP POP PUSH3 0x5EC JUMP JUMPDEST DUP3 DUP1 SLOAD PUSH3 0x3AC SWAP1 PUSH3 0x4B2 JUMP JUMPDEST SWAP1 PUSH1 0x0 MSTORE PUSH1 0x20 PUSH1 0x0 KECCAK256 SWAP1 PUSH1 0x1F ADD PUSH1 0x20 SWAP1 DIV DUP2 ADD SWAP3 DUP3 PUSH3 0x3D0 JUMPI PUSH1 0x0 DUP6 SSTORE PUSH3 0x41C JUMP JUMPDEST DUP3 PUSH1 0x1F LT PUSH3 0x3EB JUMPI DUP1 MLOAD PUSH1 0xFF NOT AND DUP4 DUP1 ADD OR DUP6 SSTORE PUSH3 0x41C JUMP JUMPDEST DUP3 DUP1 ADD PUSH1 0x1 ADD DUP6 SSTORE DUP3 ISZERO PUSH3 0x41C JUMPI SWAP2 DUP3 ADD JUMPDEST DUP3 DUP2 GT ISZERO PUSH3 0x41B JUMPI DUP3 MLOAD DUP3 SSTORE SWAP2 PUSH1 0x20 ADD SWAP2 SWAP1 PUSH1 0x1 ADD SWAP1 PUSH3 0x3FE JUMP JUMPDEST JUMPDEST POP SWAP1 POP PUSH3 0x42B SWAP2 SWAP1 PUSH3 0x42F JUMP JUMPDEST POP SWAP1 JUMP JUMPDEST JUMPDEST DUP1 DUP3 GT ISZERO PUSH3 0x44A JUMPI PUSH1 0x0 DUP2 PUSH1 0x0 SWAP1 SSTORE POP PUSH1 0x1 ADD PUSH3 0x430 JUMP JUMPDEST POP SWAP1 JUMP JUMPDEST PUSH1 0x0 PUSH3 0x45D PUSH1 0x15 DUP4 PUSH3 0x497 JUMP JUMPDEST SWAP2 POP PUSH3 0x46A DUP3 PUSH3 0x5C3 JUMP JUMPDEST PUSH1 0x20 DUP3 ADD SWAP1 POP SWAP2 SWAP1 POP JUMP JUMPDEST PUSH1 0x0 PUSH1 0x20 DUP3 ADD SWAP1 POP DUP2 DUP2 SUB PUSH1 0x0 DUP4 ADD MSTORE PUSH3 0x490 DUP2 PUSH3 0x44E JUMP JUMPDEST SWAP1 POP SWAP2 SWAP1 POP JUMP JUMPDEST PUSH1 0x0 DUP3 DUP3 MSTORE PUSH1 0x20 DUP3 ADD SWAP1 POP SWAP3 SWAP2 POP POP JUMP JUMPDEST PUSH1 0x0 DUP2 SWAP1 POP SWAP2 SWAP1 POP JUMP JUMPDEST PUSH1 0x0 PUSH1 0x2 DUP3 DIV SWAP1 POP PUSH1 0x1 DUP3 AND DUP1 PUSH3 0x4CB JUMPI PUSH1 0x7F DUP3 AND SWAP2 POP JUMPDEST PUSH1 0x20 DUP3 LT DUP2 EQ ISZERO PUSH3 0x4E2 JUMPI PUSH3 0x4E1 PUSH3 0x565 JUMP JUMPDEST JUMPDEST POP SWAP2 SWAP1 POP JUMP JUMPDEST PUSH1 0x0 PUSH3 0x4F5 DUP3 PUSH3 0x4A8 JUMP JUMPDEST SWAP2 POP PUSH32 0xFFFFFFFFFFFFFFFFFFFFFFFFFFFFFFFFFFFFFFFFFFFFFFFFFFFFFFFFFFFFFFFF DUP3 EQ ISZERO PUSH3 0x52B JUMPI PUSH3 0x52A PUSH3 0x536 JUMP JUMPDEST JUMPDEST PUSH1 0x1 DUP3 ADD SWAP1 POP SWAP2 SWAP1 POP JUMP JUMPDEST PUSH32 0x4E487B7100000000000000000000000000000000000000000000000000000000 PUSH1 0x0 MSTORE PUSH1 0x11 PUSH1 0x4 MSTORE PUSH1 0x24 PUSH1 0x0 REVERT JUMPDEST PUSH32 0x4E487B7100000000000000000000000000000000000000000000000000000000 PUSH1 0x0 MSTORE PUSH1 0x22 PUSH1 0x4 MSTORE PUSH1 0x24 PUSH1 0x0 REVERT JUMPDEST PUSH32 0x4E487B7100000000000000000000000000000000000000000000000000000000 PUSH1 0x0 MSTORE PUSH1 0x32 PUSH1 0x4 MSTORE PUSH1 0x24 PUSH1 0x0 REVERT JUMPDEST PUSH32 0x43616E64696461746573206D75737420626520352E0000000000000000000000 PUSH1 0x0 DUP3 ADD MSTORE POP JUMP JUMPDEST PUSH2 0x1814 DUP1 PUSH3 0x5FC PUSH1 0x0 CODECOPY PUSH1 0x0 RETURN INVALID PUSH1 0x80 PUSH1 0x40 MSTORE CALLVALUE DUP1 ISZERO PUSH2 0x10 JUMPI PUSH1 0x0 DUP1 REVERT JUMPDEST POP PUSH1 0x4 CALLDATASIZE LT PUSH2 0x7D JUMPI PUSH1 0x0 CALLDATALOAD PUSH1 0xE0 SHR DUP1 PUSH4 0x937F6E77 GT PUSH2 0x5B JUMPI DUP1 PUSH4 0x937F6E77 EQ PUSH2 0xF7 JUMPI DUP1 PUSH4 0x9E7B8D61 EQ PUSH2 0x113 JUMPI DUP1 PUSH4 0xA3EC138D EQ PUSH2 0x12F JUMPI DUP1 PUSH4 0xD4E8FD2E EQ PUSH2 0x162 JUMPI PUSH2 0x7D JUMP JUMPDEST DUP1 PUSH4 0x121B93F EQ PUSH2 0x82 JUMPI DUP1 PUSH4 0x13CF08B EQ PUSH2 0x9E JUMPI DUP1 PUSH4 0x5A9B0B89 EQ PUSH2 0xD9 JUMPI JUMPDEST PUSH1 0x0 DUP1 REVERT JUMPDEST PUSH2 0x9C PUSH1 0x4 DUP1 CALLDATASIZE SUB DUP2 ADD SWAP1 PUSH2 0x97 SWAP2 SWAP1 PUSH2 0xE09 JUMP JUMPDEST PUSH2 0x192 JUMP JUMPDEST STOP JUMPDEST PUSH2 0xB8 PUSH1 0x4 DUP1 CALLDATASIZE SUB DUP2 ADD SWAP1 PUSH2 0xB3 SWAP2 SWAP1 PUSH2 0xE09 JUMP JUMPDEST PUSH2 0x60C JUMP JUMPDEST PUSH1 0x40 MLOAD PUSH2 0xD0 SWAP13 SWAP12 SWAP11 SWAP10 SWAP9 SWAP8 SWAP7 SWAP6 SWAP5 SWAP4 SWAP3 SWAP2 SWAP1 PUSH2 0x1115 JUMP JUMPDEST PUSH1 0x40 MLOAD DUP1 SWAP2 SUB SWAP1 RETURN JUMPDEST PUSH2 0xE1 PUSH2 0x704 JUMP JUMPDEST PUSH1 0x40 MLOAD PUSH2 0xEE SWAP2 SWAP1 PUSH2 0x10F3 JUMP JUMPDEST PUSH1 0x40 MLOAD DUP1 SWAP2 SUB SWAP1 RETURN JUMPDEST PUSH2 0x111 PUSH1 0x4 DUP1 CALLDATASIZE SUB DUP2 ADD SWAP1 PUSH2 0x10C SWAP2 SWAP1 PUSH2 0xDC0 JUMP JUMPDEST PUSH2 0x796 JUMP JUMPDEST STOP JUMPDEST PUSH2 0x12D PUSH1 0x4 DUP1 CALLDATASIZE SUB DUP2 ADD SWAP1 PUSH2 0x128 SWAP2 SWAP1 PUSH2 0xD93 JUMP JUMPDEST PUSH2 0x7B0 JUMP JUMPDEST STOP JUMPDEST PUSH2 0x149 PUSH1 0x4 DUP1 CALLDATASIZE SUB DUP2 ADD SWAP1 PUSH2 0x144 SWAP2 SWAP1 PUSH2 0xD93 JUMP JUMPDEST PUSH2 0xA02 JUMP JUMPDEST PUSH1 0x40 MLOAD PUSH2 0x159 SWAP5 SWAP4 SWAP3 SWAP2 SWAP1 PUSH2 0x1298 JUMP JUMPDEST PUSH1 0x40 MLOAD DUP1 SWAP2 SUB SWAP1 RETURN JUMPDEST PUSH2 0x17C PUSH1 0x4 DUP1 CALLDATASIZE SUB DUP2 ADD SWAP1 PUSH2 0x177 SWAP2 SWAP1 PUSH2 0xE09 JUMP JUMPDEST PUSH2 0xA3F JUMP JUMPDEST PUSH1 0x40 MLOAD PUSH2 0x189 SWAP2 SWAP1 PUSH2 0x1276 JUMP JUMPDEST PUSH1 0x40 MLOAD DUP1 SWAP2 SUB SWAP1 RETURN JUMPDEST PUSH1 0x0 PUSH1 0x1 PUSH1 0x0 CALLER PUSH20 0xFFFFFFFFFFFFFFFFFFFFFFFFFFFFFFFFFFFFFFFF AND PUSH20 0xFFFFFFFFFFFFFFFFFFFFFFFFFFFFFFFFFFFFFFFF AND DUP2 MSTORE PUSH1 0x20 ADD SWAP1 DUP2 MSTORE PUSH1 0x20 ADD PUSH1 0x0 KECCAK256 SWAP1 POP PUSH1 0x0 DUP2 PUSH1 0x0 ADD SLOAD EQ ISZERO PUSH2 0x21D JUMPI PUSH1 0x40 MLOAD PUSH32 0x8C379A000000000000000000000000000000000000000000000000000000000 DUP2 MSTORE PUSH1 0x4 ADD PUSH2 0x214 SWAP1 PUSH2 0x11D6 JUMP JUMPDEST PUSH1 0x40 MLOAD DUP1 SWAP2 SUB SWAP1 REVERT JUMPDEST DUP1 PUSH1 0x1 ADD PUSH1 0x0 SWAP1 SLOAD SWAP1 PUSH2 0x100 EXP SWAP1 DIV PUSH1 0xFF AND ISZERO PUSH2 0x26F JUMPI PUSH1 0x40 MLOAD PUSH32 0x8C379A000000000000000000000000000000000000000000000000000000000 DUP2 MSTORE PUSH1 0x4 ADD PUSH2 0x266 SWAP1 PUSH2 0x11F6 JUMP JUMPDEST PUSH1 0x40 MLOAD DUP1 SWAP2 SUB SWAP1 REVERT JUMPDEST PUSH1 0x1 DUP2 PUSH1 0x1 ADD PUSH1 0x0 PUSH2 0x100 EXP DUP2 SLOAD DUP2 PUSH1 0xFF MUL NOT AND SWAP1 DUP4 ISZERO ISZERO MUL OR SWAP1 SSTORE POP DUP2 DUP2 PUSH1 0x3 ADD DUP2 SWAP1 SSTORE POP DUP1 PUSH1 0x0 ADD SLOAD PUSH1 0x2 DUP4 DUP2 SLOAD DUP2 LT PUSH2 0x2AE JUMPI PUSH2 0x2AD PUSH2 0x162D JUMP JUMPDEST JUMPDEST SWAP1 PUSH1 0x0 MSTORE PUSH1 0x20 PUSH1 0x0 KECCAK256 SWAP1 PUSH1 0xC MUL ADD PUSH1 0x1 ADD PUSH1 0x0 DUP3 DUP3 SLOAD PUSH2 0x2CE SWAP2 SWAP1 PUSH2 0x13F4 JUMP JUMPDEST SWAP3 POP POP DUP2 SWAP1 SSTORE POP PUSH1 0x0 DUP2 PUSH1 0x2 ADD SLOAD EQ ISZERO PUSH2 0x327 JUMPI DUP1 PUSH1 0x0 ADD SLOAD PUSH1 0x2 DUP4 DUP2 SLOAD DUP2 LT PUSH2 0x2FB JUMPI PUSH2 0x2FA PUSH2 0x162D JUMP JUMPDEST JUMPDEST SWAP1 PUSH1 0x0 MSTORE PUSH1 0x20 PUSH1 0x0 KECCAK256 SWAP1 PUSH1 0xC MUL ADD PUSH1 0x2 ADD PUSH1 0x0 DUP3 DUP3 SLOAD PUSH2 0x31B SWAP2 SWAP1 PUSH2 0x13F4 JUMP JUMPDEST SWAP3 POP POP DUP2 SWAP1 SSTORE POP PUSH2 0x600 JUMP JUMPDEST PUSH1 0x1 DUP2 PUSH1 0x2 ADD SLOAD EQ ISZERO PUSH2 0x379 JUMPI DUP1 PUSH1 0x0 ADD SLOAD PUSH1 0x2 DUP4 DUP2 SLOAD DUP2 LT PUSH2 0x34D JUMPI PUSH2 0x34C PUSH2 0x162D JUMP JUMPDEST JUMPDEST SWAP1 PUSH1 0x0 MSTORE PUSH1 0x20 PUSH1 0x0 KECCAK256 SWAP1 PUSH1 0xC MUL ADD PUSH1 0x3 ADD PUSH1 0x0 DUP3 DUP3 SLOAD PUSH2 0x36D SWAP2 SWAP1 PUSH2 0x13F4 JUMP JUMPDEST SWAP3 POP POP DUP2 SWAP1 SSTORE POP PUSH2 0x5FF JUMP JUMPDEST PUSH1 0x2 DUP2 PUSH1 0x2 ADD SLOAD EQ ISZERO PUSH2 0x3CB JUMPI DUP1 PUSH1 0x0 ADD SLOAD PUSH1 0x2 DUP4 DUP2 SLOAD DUP2 LT PUSH2 0x39F JUMPI PUSH2 0x39E PUSH2 0x162D JUMP JUMPDEST JUMPDEST SWAP1 PUSH1 0x0 MSTORE PUSH1 0x20 PUSH1 0x0 KECCAK256 SWAP1 PUSH1 0xC MUL ADD PUSH1 0x4 ADD PUSH1 0x0 DUP3 DUP3 SLOAD PUSH2 0x3BF SWAP2 SWAP1 PUSH2 0x13F4 JUMP JUMPDEST SWAP3 POP POP DUP2 SWAP1 SSTORE POP PUSH2 0x5FE JUMP JUMPDEST PUSH1 0x3 DUP2 PUSH1 0x2 ADD SLOAD EQ ISZERO PUSH2 0x41D JUMPI DUP1 PUSH1 0x0 ADD SLOAD PUSH1 0x2 DUP4 DUP2 SLOAD DUP2 LT PUSH2 0x3F1 JUMPI PUSH2 0x3F0 PUSH2 0x162D JUMP JUMPDEST JUMPDEST SWAP1 PUSH1 0x0 MSTORE PUSH1 0x20 PUSH1 0x0 KECCAK256 SWAP1 PUSH1 0xC MUL ADD PUSH1 0x5 ADD PUSH1 0x0 DUP3 DUP3 SLOAD PUSH2 0x411 SWAP2 SWAP1 PUSH2 0x13F4 JUMP JUMPDEST SWAP3 POP POP DUP2 SWAP1 SSTORE POP PUSH2 0x5FD JUMP JUMPDEST PUSH1 0x4 DUP2 PUSH1 0x2 ADD SLOAD EQ ISZERO PUSH2 0x46F JUMPI DUP1 PUSH1 0x0 ADD SLOAD PUSH1 0x2 DUP4 DUP2 SLOAD DUP2 LT PUSH2 0x443 JUMPI PUSH2 0x442 PUSH2 0x162D JUMP JUMPDEST JUMPDEST SWAP1 PUSH1 0x0 MSTORE PUSH1 0x20 PUSH1 0x0 KECCAK256 SWAP1 PUSH1 0xC MUL ADD PUSH1 0x6 ADD PUSH1 0x0 DUP3 DUP3 SLOAD PUSH2 0x463 SWAP2 SWAP1 PUSH2 0x13F4 JUMP JUMPDEST SWAP3 POP POP DUP2 SWAP1 SSTORE POP PUSH2 0x5FC JUMP JUMPDEST PUSH1 0x5 DUP2 PUSH1 0x2 ADD SLOAD EQ ISZERO PUSH2 0x4C1 JUMPI DUP1 PUSH1 0x0 ADD SLOAD PUSH1 0x2 DUP4 DUP2 SLOAD DUP2 LT PUSH2 0x495 JUMPI PUSH2 0x494 PUSH2 0x162D JUMP JUMPDEST JUMPDEST SWAP1 PUSH1 0x0 MSTORE PUSH1 0x20 PUSH1 0x0 KECCAK256 SWAP1 PUSH1 0xC MUL ADD PUSH1 0x7 ADD PUSH1 0x0 DUP3 DUP3 SLOAD PUSH2 0x4B5 SWAP2 SWAP1 PUSH2 0x13F4 JUMP JUMPDEST SWAP3 POP POP DUP2 SWAP1 SSTORE POP PUSH2 0x5FB JUMP JUMPDEST PUSH1 0x6 DUP2 PUSH1 0x2 ADD SLOAD EQ ISZERO PUSH2 0x513 JUMPI DUP1 PUSH1 0x0 ADD SLOAD PUSH1 0x2 DUP4 DUP2 SLOAD DUP2 LT PUSH2 0x4E7 JUMPI PUSH2 0x4E6 PUSH2 0x162D JUMP JUMPDEST JUMPDEST SWAP1 PUSH1 0x0 MSTORE PUSH1 0x20 PUSH1 0x0 KECCAK256 SWAP1 PUSH1 0xC MUL ADD PUSH1 0x8 ADD PUSH1 0x0 DUP3 DUP3 SLOAD PUSH2 0x507 SWAP2 SWAP1 PUSH2 0x13F4 JUMP JUMPDEST SWAP3 POP POP DUP2 SWAP1 SSTORE POP PUSH2 0x5FA JUMP JUMPDEST PUSH1 0x7 DUP2 PUSH1 0x2 ADD SLOAD EQ ISZERO PUSH2 0x565 JUMPI DUP1 PUSH1 0x0 ADD SLOAD PUSH1 0x2 DUP4 DUP2 SLOAD DUP2 LT PUSH2 0x539 JUMPI PUSH2 0x538 PUSH2 0x162D JUMP JUMPDEST JUMPDEST SWAP1 PUSH1 0x0 MSTORE PUSH1 0x20 PUSH1 0x0 KECCAK256 SWAP1 PUSH1 0xC MUL ADD PUSH1 0x9 ADD PUSH1 0x0 DUP3 DUP3 SLOAD PUSH2 0x559 SWAP2 SWAP1 PUSH2 0x13F4 JUMP JUMPDEST SWAP3 POP POP DUP2 SWAP1 SSTORE POP PUSH2 0x5F9 JUMP JUMPDEST PUSH1 0x8 DUP2 PUSH1 0x2 ADD SLOAD EQ ISZERO PUSH2 0x5B7 JUMPI DUP1 PUSH1 0x0 ADD SLOAD PUSH1 0x2 DUP4 DUP2 SLOAD DUP2 LT PUSH2 0x58B JUMPI PUSH2 0x58A PUSH2 0x162D JUMP JUMPDEST JUMPDEST SWAP1 PUSH1 0x0 MSTORE PUSH1 0x20 PUSH1 0x0 KECCAK256 SWAP1 PUSH1 0xC MUL ADD PUSH1 0xA ADD PUSH1 0x0 DUP3 DUP3 SLOAD PUSH2 0x5AB SWAP2 SWAP1 PUSH2 0x13F4 JUMP JUMPDEST SWAP3 POP POP DUP2 SWAP1 SSTORE POP PUSH2 0x5F8 JUMP JUMPDEST DUP1 PUSH1 0x0 ADD SLOAD PUSH1 0x2 DUP4 DUP2 SLOAD DUP2 LT PUSH2 0x5D0 JUMPI PUSH2 0x5CF PUSH2 0x162D JUMP JUMPDEST JUMPDEST SWAP1 PUSH1 0x0 MSTORE PUSH1 0x20 PUSH1 0x0 KECCAK256 SWAP1 PUSH1 0xC MUL ADD PUSH1 0xB ADD PUSH1 0x0 DUP3 DUP3 SLOAD PUSH2 0x5F0 SWAP2 SWAP1 PUSH2 0x13F4 JUMP JUMPDEST SWAP3 POP POP DUP2 SWAP1 SSTORE POP JUMPDEST JUMPDEST JUMPDEST JUMPDEST JUMPDEST JUMPDEST JUMPDEST JUMPDEST JUMPDEST PUSH2 0x608 PUSH2 0xB7C JUMP JUMPDEST POP POP JUMP JUMPDEST PUSH1 0x2 DUP2 DUP2 SLOAD DUP2 LT PUSH2 0x61C JUMPI PUSH1 0x0 DUP1 REVERT JUMPDEST SWAP1 PUSH1 0x0 MSTORE PUSH1 0x20 PUSH1 0x0 KECCAK256 SWAP1 PUSH1 0xC MUL ADD PUSH1 0x0 SWAP2 POP SWAP1 POP DUP1 PUSH1 0x0 ADD DUP1 SLOAD PUSH2 0x63F SWAP1 PUSH2 0x14DE JUMP JUMPDEST DUP1 PUSH1 0x1F ADD PUSH1 0x20 DUP1 SWAP2 DIV MUL PUSH1 0x20 ADD PUSH1 0x40 MLOAD SWAP1 DUP2 ADD PUSH1 0x40 MSTORE DUP1 SWAP3 SWAP2 SWAP1 DUP2 DUP2 MSTORE PUSH1 0x20 ADD DUP3 DUP1 SLOAD PUSH2 0x66B SWAP1 PUSH2 0x14DE JUMP JUMPDEST DUP1 ISZERO PUSH2 0x6B8 JUMPI DUP1 PUSH1 0x1F LT PUSH2 0x68D JUMPI PUSH2 0x100 DUP1 DUP4 SLOAD DIV MUL DUP4 MSTORE SWAP2 PUSH1 0x20 ADD SWAP2 PUSH2 0x6B8 JUMP JUMPDEST DUP3 ADD SWAP2 SWAP1 PUSH1 0x0 MSTORE PUSH1 0x20 PUSH1 0x0 KECCAK256 SWAP1 JUMPDEST DUP2 SLOAD DUP2 MSTORE SWAP1 PUSH1 0x1 ADD SWAP1 PUSH1 0x20 ADD DUP1 DUP4 GT PUSH2 0x69B JUMPI DUP3 SWAP1 SUB PUSH1 0x1F AND DUP3 ADD SWAP2 JUMPDEST POP POP POP POP POP SWAP1 DUP1 PUSH1 0x1 ADD SLOAD SWAP1 DUP1 PUSH1 0x2 ADD SLOAD SWAP1 DUP1 PUSH1 0x3 ADD SLOAD SWAP1 DUP1 PUSH1 0x4 ADD SLOAD SWAP1 DUP1 PUSH1 0x5 ADD SLOAD SWAP1 DUP1 PUSH1 0x6 ADD SLOAD SWAP1 DUP1 PUSH1 0x7 ADD SLOAD SWAP1 DUP1 PUSH1 0x8 ADD SLOAD SWAP1 DUP1 PUSH1 0x9 ADD SLOAD SWAP1 DUP1 PUSH1 0xA ADD SLOAD SWAP1 DUP1 PUSH1 0xB ADD SLOAD SWAP1 POP DUP13 JUMP JUMPDEST PUSH1 0x60 PUSH1 0x3 DUP1 SLOAD PUSH2 0x713 SWAP1 PUSH2 0x14DE JUMP JUMPDEST DUP1 PUSH1 0x1F ADD PUSH1 0x20 DUP1 SWAP2 DIV MUL PUSH1 0x20 ADD PUSH1 0x40 MLOAD SWAP1 DUP2 ADD PUSH1 0x40 MSTORE DUP1 SWAP3 SWAP2 SWAP1 DUP2 DUP2 MSTORE PUSH1 0x20 ADD DUP3 DUP1 SLOAD PUSH2 0x73F SWAP1 PUSH2 0x14DE JUMP JUMPDEST DUP1 ISZERO PUSH2 0x78C JUMPI DUP1 PUSH1 0x1F LT PUSH2 0x761 JUMPI PUSH2 0x100 DUP1 DUP4 SLOAD DIV MUL DUP4 MSTORE SWAP2 PUSH1 0x20 ADD SWAP2 PUSH2 0x78C JUMP JUMPDEST DUP3 ADD SWAP2 SWAP1 PUSH1 0x0 MSTORE PUSH1 0x20 PUSH1 0x0 KECCAK256 SWAP1 JUMPDEST DUP2 SLOAD DUP2 MSTORE SWAP1 PUSH1 0x1 ADD SWAP1 PUSH1 0x20 ADD DUP1 DUP4 GT PUSH2 0x76F JUMPI DUP3 SWAP1 SUB PUSH1 0x1F AND DUP3 ADD SWAP2 JUMPDEST POP POP POP POP POP SWAP1 POP SWAP1 JUMP JUMPDEST DUP1 PUSH1 0x3 SWAP1 DUP1 MLOAD SWAP1 PUSH1 0x20 ADD SWAP1 PUSH2 0x7AC SWAP3 SWAP2 SWAP1 PUSH2 0xBF5 JUMP JUMPDEST POP POP JUMP JUMPDEST PUSH1 0x0 DUP1 SLOAD SWAP1 PUSH2 0x100 EXP SWAP1 DIV PUSH20 0xFFFFFFFFFFFFFFFFFFFFFFFFFFFFFFFFFFFFFFFF AND PUSH20 0xFFFFFFFFFFFFFFFFFFFFFFFFFFFFFFFFFFFFFFFF AND CALLER PUSH20 0xFFFFFFFFFFFFFFFFFFFFFFFFFFFFFFFFFFFFFFFF AND EQ PUSH2 0x83E JUMPI PUSH1 0x40 MLOAD PUSH32 0x8C379A000000000000000000000000000000000000000000000000000000000 DUP2 MSTORE PUSH1 0x4 ADD PUSH2 0x835 SWAP1 PUSH2 0x1216 JUMP JUMPDEST PUSH1 0x40 MLOAD DUP1 SWAP2 SUB SWAP1 REVERT JUMPDEST PUSH1 0x1 PUSH1 0x0 DUP3 PUSH20 0xFFFFFFFFFFFFFFFFFFFFFFFFFFFFFFFFFFFFFFFF AND PUSH20 0xFFFFFFFFFFFFFFFFFFFFFFFFFFFFFFFFFFFFFFFF AND DUP2 MSTORE PUSH1 0x20 ADD SWAP1 DUP2 MSTORE PUSH1 0x20 ADD PUSH1 0x0 KECCAK256 PUSH1 0x1 ADD PUSH1 0x0 SWAP1 SLOAD SWAP1 PUSH2 0x100 EXP SWAP1 DIV PUSH1 0xFF AND ISZERO PUSH2 0x8CE JUMPI PUSH1 0x40 MLOAD PUSH32 0x8C379A000000000000000000000000000000000000000000000000000000000 DUP2 MSTORE PUSH1 0x4 ADD PUSH2 0x8C5 SWAP1 PUSH2 0x1236 JUMP JUMPDEST PUSH1 0x40 MLOAD DUP1 SWAP2 SUB SWAP1 REVERT JUMPDEST PUSH1 0x0 PUSH1 0x1 PUSH1 0x0 DUP4 PUSH20 0xFFFFFFFFFFFFFFFFFFFFFFFFFFFFFFFFFFFFFFFF AND PUSH20 0xFFFFFFFFFFFFFFFFFFFFFFFFFFFFFFFFFFFFFFFF AND DUP2 MSTORE PUSH1 0x20 ADD SWAP1 DUP2 MSTORE PUSH1 0x20 ADD PUSH1 0x0 KECCAK256 PUSH1 0x0 ADD SLOAD EQ PUSH2 0x91D JUMPI PUSH1 0x0 DUP1 REVERT JUMPDEST PUSH1 0x1 DUP1 PUSH1 0x0 DUP4 PUSH20 0xFFFFFFFFFFFFFFFFFFFFFFFFFFFFFFFFFFFFFFFF AND PUSH20 0xFFFFFFFFFFFFFFFFFFFFFFFFFFFFFFFFFFFFFFFF AND DUP2 MSTORE PUSH1 0x20 ADD SWAP1 DUP2 MSTORE PUSH1 0x20 ADD PUSH1 0x0 KECCAK256 PUSH1 0x0 ADD DUP2 SWAP1 SSTORE POP PUSH1 0x3 PUSH1 0x4 SLOAD SLT PUSH2 0x9A9 JUMPI PUSH1 0x40 MLOAD PUSH32 0x8C379A000000000000000000000000000000000000000000000000000000000 DUP2 MSTORE PUSH1 0x4 ADD PUSH2 0x9A0 SWAP1 PUSH2 0x1256 JUMP JUMPDEST PUSH1 0x40 MLOAD DUP1 SWAP2 SUB SWAP1 REVERT JUMPDEST PUSH2 0x9B1 PUSH2 0xB98 JUMP JUMPDEST PUSH2 0x9B9 PUSH2 0xBB4 JUMP JUMPDEST PUSH1 0x1 PUSH1 0x0 DUP4 PUSH20 0xFFFFFFFFFFFFFFFFFFFFFFFFFFFFFFFFFFFFFFFF AND PUSH20 0xFFFFFFFFFFFFFFFFFFFFFFFFFFFFFFFFFFFFFFFF AND DUP2 MSTORE PUSH1 0x20 ADD SWAP1 DUP2 MSTORE PUSH1 0x20 ADD PUSH1 0x0 KECCAK256 PUSH1 0x2 ADD DUP2 SWAP1 SSTORE POP POP JUMP JUMPDEST PUSH1 0x1 PUSH1 0x20 MSTORE DUP1 PUSH1 0x0 MSTORE PUSH1 0x40 PUSH1 0x0 KECCAK256 PUSH1 0x0 SWAP2 POP SWAP1 POP DUP1 PUSH1 0x0 ADD SLOAD SWAP1 DUP1 PUSH1 0x1 ADD PUSH1 0x0 SWAP1 SLOAD SWAP1 PUSH2 0x100 EXP SWAP1 DIV PUSH1 0xFF AND SWAP1 DUP1 PUSH1 0x2 ADD SLOAD SWAP1 DUP1 PUSH1 0x3 ADD SLOAD SWAP1 POP DUP5 JUMP JUMPDEST PUSH2 0xA47 PUSH2 0xC7B JUMP JUMPDEST PUSH1 0x2 DUP3 DUP2 SLOAD DUP2 LT PUSH2 0xA5B JUMPI PUSH2 0xA5A PUSH2 0x162D JUMP JUMPDEST JUMPDEST SWAP1 PUSH1 0x0 MSTORE PUSH1 0x20 PUSH1 0x0 KECCAK256 SWAP1 PUSH1 0xC MUL ADD PUSH1 0x40 MLOAD DUP1 PUSH2 0x180 ADD PUSH1 0x40 MSTORE SWAP1 DUP2 PUSH1 0x0 DUP3 ADD DUP1 SLOAD PUSH2 0xA85 SWAP1 PUSH2 0x14DE JUMP JUMPDEST DUP1 PUSH1 0x1F ADD PUSH1 0x20 DUP1 SWAP2 DIV MUL PUSH1 0x20 ADD PUSH1 0x40 MLOAD SWAP1 DUP2 ADD PUSH1 0x40 MSTORE DUP1 SWAP3 SWAP2 SWAP1 DUP2 DUP2 MSTORE PUSH1 0x20 ADD DUP3 DUP1 SLOAD PUSH2 0xAB1 SWAP1 PUSH2 0x14DE JUMP JUMPDEST DUP1 ISZERO PUSH2 0xAFE JUMPI DUP1 PUSH1 0x1F LT PUSH2 0xAD3 JUMPI PUSH2 0x100 DUP1 DUP4 SLOAD DIV MUL DUP4 MSTORE SWAP2 PUSH1 0x20 ADD SWAP2 PUSH2 0xAFE JUMP JUMPDEST DUP3 ADD SWAP2 SWAP1 PUSH1 0x0 MSTORE PUSH1 0x20 PUSH1 0x0 KECCAK256 SWAP1 JUMPDEST DUP2 SLOAD DUP2 MSTORE SWAP1 PUSH1 0x1 ADD SWAP1 PUSH1 0x20 ADD DUP1 DUP4 GT PUSH2 0xAE1 JUMPI DUP3 SWAP1 SUB PUSH1 0x1F AND DUP3 ADD SWAP2 JUMPDEST POP POP POP POP POP DUP2 MSTORE PUSH1 0x20 ADD PUSH1 0x1 DUP3 ADD SLOAD DUP2 MSTORE PUSH1 0x20 ADD PUSH1 0x2 DUP3 ADD SLOAD DUP2 MSTORE PUSH1 0x20 ADD PUSH1 0x3 DUP3 ADD SLOAD DUP2 MSTORE PUSH1 0x20 ADD PUSH1 0x4 DUP3 ADD SLOAD DUP2 MSTORE PUSH1 0x20 ADD PUSH1 0x5 DUP3 ADD SLOAD DUP2 MSTORE PUSH1 0x20 ADD PUSH1 0x6 DUP3 ADD SLOAD DUP2 MSTORE PUSH1 0x20 ADD PUSH1 0x7 DUP3 ADD SLOAD DUP2 MSTORE PUSH1 0x20 ADD PUSH1 0x8 DUP3 ADD SLOAD DUP2 MSTORE PUSH1 0x20 ADD PUSH1 0x9 DUP3 ADD SLOAD DUP2 MSTORE PUSH1 0x20 ADD PUSH1 0xA DUP3 ADD SLOAD DUP2 MSTORE PUSH1 0x20 ADD PUSH1 0xB DUP3 ADD SLOAD DUP2 MSTORE POP POP SWAP1 POP SWAP2 SWAP1 POP JUMP JUMPDEST PUSH1 0x1 PUSH1 0x5 PUSH1 0x0 DUP3 DUP3 SLOAD PUSH2 0xB8F SWAP2 SWAP1 PUSH2 0x1360 JUMP JUMPDEST SWAP3 POP POP DUP2 SWAP1 SSTORE POP JUMP JUMPDEST PUSH1 0x1 PUSH1 0x4 PUSH1 0x0 DUP3 DUP3 SLOAD PUSH2 0xBAB SWAP2 SWAP1 PUSH2 0x1360 JUMP JUMPDEST SWAP3 POP POP DUP2 SWAP1 SSTORE POP JUMP JUMPDEST PUSH1 0x0 PUSH1 0xA TIMESTAMP DIFFICULTY CALLER PUSH1 0x40 MLOAD PUSH1 0x20 ADD PUSH2 0xBCD SWAP4 SWAP3 SWAP2 SWAP1 PUSH2 0x10B6 JUMP JUMPDEST PUSH1 0x40 MLOAD PUSH1 0x20 DUP2 DUP4 SUB SUB DUP2 MSTORE SWAP1 PUSH1 0x40 MSTORE DUP1 MLOAD SWAP1 PUSH1 0x20 ADD KECCAK256 PUSH1 0x0 SHR PUSH2 0xBF0 SWAP2 SWAP1 PUSH2 0x156F JUMP JUMPDEST SWAP1 POP SWAP1 JUMP JUMPDEST DUP3 DUP1 SLOAD PUSH2 0xC01 SWAP1 PUSH2 0x14DE JUMP JUMPDEST SWAP1 PUSH1 0x0 MSTORE PUSH1 0x20 PUSH1 0x0 KECCAK256 SWAP1 PUSH1 0x1F ADD PUSH1 0x20 SWAP1 DIV DUP2 ADD SWAP3 DUP3 PUSH2 0xC23 JUMPI PUSH1 0x0 DUP6 SSTORE PUSH2 0xC6A JUMP JUMPDEST DUP3 PUSH1 0x1F LT PUSH2 0xC3C JUMPI DUP1 MLOAD PUSH1 0xFF NOT AND DUP4 DUP1 ADD OR DUP6 SSTORE PUSH2 0xC6A JUMP JUMPDEST DUP3 DUP1 ADD PUSH1 0x1 ADD DUP6 SSTORE DUP3 ISZERO PUSH2 0xC6A JUMPI SWAP2 DUP3 ADD JUMPDEST DUP3 DUP2 GT ISZERO PUSH2 0xC69 JUMPI DUP3 MLOAD DUP3 SSTORE SWAP2 PUSH1 0x20 ADD SWAP2 SWAP1 PUSH1 0x1 ADD SWAP1 PUSH2 0xC4E JUMP JUMPDEST JUMPDEST POP SWAP1 POP PUSH2 0xC77 SWAP2 SWAP1 PUSH2 0xCDC JUMP JUMPDEST POP SWAP1 JUMP JUMPDEST PUSH1 0x40 MLOAD DUP1 PUSH2 0x180 ADD PUSH1 0x40 MSTORE DUP1 PUSH1 0x60 DUP2 MSTORE PUSH1 0x20 ADD PUSH1 0x0 DUP2 MSTORE PUSH1 0x20 ADD PUSH1 0x0 DUP2 MSTORE PUSH1 0x20 ADD PUSH1 0x0 DUP2 MSTORE PUSH1 0x20 ADD PUSH1 0x0 DUP2 MSTORE PUSH1 0x20 ADD PUSH1 0x0 DUP2 MSTORE PUSH1 0x20 ADD PUSH1 0x0 DUP2 MSTORE PUSH1 0x20 ADD PUSH1 0x0 DUP2 MSTORE PUSH1 0x20 ADD PUSH1 0x0 DUP2 MSTORE PUSH1 0x20 ADD PUSH1 0x0 DUP2 MSTORE PUSH1 0x20 ADD PUSH1 0x0 DUP2 MSTORE PUSH1 0x20 ADD PUSH1 0x0 DUP2 MSTORE POP SWAP1 JUMP JUMPDEST JUMPDEST DUP1 DUP3 GT ISZERO PUSH2 0xCF5 JUMPI PUSH1 0x0 DUP2 PUSH1 0x0 SWAP1 SSTORE POP PUSH1 0x1 ADD PUSH2 0xCDD JUMP JUMPDEST POP SWAP1 JUMP JUMPDEST PUSH1 0x0 PUSH2 0xD0C PUSH2 0xD07 DUP5 PUSH2 0x1302 JUMP JUMPDEST PUSH2 0x12DD JUMP JUMPDEST SWAP1 POP DUP3 DUP2 MSTORE PUSH1 0x20 DUP2 ADD DUP5 DUP5 DUP5 ADD GT ISZERO PUSH2 0xD28 JUMPI PUSH2 0xD27 PUSH2 0x1690 JUMP JUMPDEST JUMPDEST PUSH2 0xD33 DUP5 DUP3 DUP6 PUSH2 0x149C JUMP JUMPDEST POP SWAP4 SWAP3 POP POP POP JUMP JUMPDEST PUSH1 0x0 DUP2 CALLDATALOAD SWAP1 POP PUSH2 0xD4A DUP2 PUSH2 0x17B0 JUMP JUMPDEST SWAP3 SWAP2 POP POP JUMP JUMPDEST PUSH1 0x0 DUP3 PUSH1 0x1F DUP4 ADD SLT PUSH2 0xD65 JUMPI PUSH2 0xD64 PUSH2 0x168B JUMP JUMPDEST JUMPDEST DUP2 CALLDATALOAD PUSH2 0xD75 DUP5 DUP3 PUSH1 0x20 DUP7 ADD PUSH2 0xCF9 JUMP JUMPDEST SWAP2 POP POP SWAP3 SWAP2 POP POP JUMP JUMPDEST PUSH1 0x0 DUP2 CALLDATALOAD SWAP1 POP PUSH2 0xD8D DUP2 PUSH2 0x17C7 JUMP JUMPDEST SWAP3 SWAP2 POP POP JUMP JUMPDEST PUSH1 0x0 PUSH1 0x20 DUP3 DUP5 SUB SLT ISZERO PUSH2 0xDA9 JUMPI PUSH2 0xDA8 PUSH2 0x169A JUMP JUMPDEST JUMPDEST PUSH1 0x0 PUSH2 0xDB7 DUP5 DUP3 DUP6 ADD PUSH2 0xD3B JUMP JUMPDEST SWAP2 POP POP SWAP3 SWAP2 POP POP JUMP JUMPDEST PUSH1 0x0 PUSH1 0x20 DUP3 DUP5 SUB SLT ISZERO PUSH2 0xDD6 JUMPI PUSH2 0xDD5 PUSH2 0x169A JUMP JUMPDEST JUMPDEST PUSH1 0x0 DUP3 ADD CALLDATALOAD PUSH8 0xFFFFFFFFFFFFFFFF DUP2 GT ISZERO PUSH2 0xDF4 JUMPI PUSH2 0xDF3 PUSH2 0x1695 JUMP JUMPDEST JUMPDEST PUSH2 0xE00 DUP5 DUP3 DUP6 ADD PUSH2 0xD50 JUMP JUMPDEST SWAP2 POP POP SWAP3 SWAP2 POP POP JUMP JUMPDEST PUSH1 0x0 PUSH1 0x20 DUP3 DUP5 SUB SLT ISZERO PUSH2 0xE1F JUMPI PUSH2 0xE1E PUSH2 0x169A JUMP JUMPDEST JUMPDEST PUSH1 0x0 PUSH2 0xE2D DUP5 DUP3 DUP6 ADD PUSH2 0xD7E JUMP JUMPDEST SWAP2 POP POP SWAP3 SWAP2 POP POP JUMP JUMPDEST PUSH2 0xE47 PUSH2 0xE42 DUP3 PUSH2 0x144A JUMP JUMPDEST PUSH2 0x1541 JUMP JUMPDEST DUP3 MSTORE POP POP JUMP JUMPDEST PUSH2 0xE56 DUP2 PUSH2 0x145C JUMP JUMPDEST DUP3 MSTORE POP POP JUMP JUMPDEST PUSH1 0x0 PUSH2 0xE67 DUP3 PUSH2 0x1333 JUMP JUMPDEST PUSH2 0xE71 DUP2 DUP6 PUSH2 0x133E JUMP JUMPDEST SWAP4 POP PUSH2 0xE81 DUP2 DUP6 PUSH1 0x20 DUP7 ADD PUSH2 0x14AB JUMP JUMPDEST PUSH2 0xE8A DUP2 PUSH2 0x169F JUMP JUMPDEST DUP5 ADD SWAP2 POP POP SWAP3 SWAP2 POP POP JUMP JUMPDEST PUSH1 0x0 PUSH2 0xEA0 DUP3 PUSH2 0x1333 JUMP JUMPDEST PUSH2 0xEAA DUP2 DUP6 PUSH2 0x134F JUMP JUMPDEST SWAP4 POP PUSH2 0xEBA DUP2 DUP6 PUSH1 0x20 DUP7 ADD PUSH2 0x14AB JUMP JUMPDEST PUSH2 0xEC3 DUP2 PUSH2 0x169F JUMP JUMPDEST DUP5 ADD SWAP2 POP POP SWAP3 SWAP2 POP POP JUMP JUMPDEST PUSH1 0x0 PUSH2 0xEDB PUSH1 0x14 DUP4 PUSH2 0x134F JUMP JUMPDEST SWAP2 POP PUSH2 0xEE6 DUP3 PUSH2 0x16BD JUMP JUMPDEST PUSH1 0x20 DUP3 ADD SWAP1 POP SWAP2 SWAP1 POP JUMP JUMPDEST PUSH1 0x0 PUSH2 0xEFE PUSH1 0xE DUP4 PUSH2 0x134F JUMP JUMPDEST SWAP2 POP PUSH2 0xF09 DUP3 PUSH2 0x16E6 JUMP JUMPDEST PUSH1 0x20 DUP3 ADD SWAP1 POP SWAP2 SWAP1 POP JUMP JUMPDEST PUSH1 0x0 PUSH2 0xF21 PUSH1 0x28 DUP4 PUSH2 0x134F JUMP JUMPDEST SWAP2 POP PUSH2 0xF2C DUP3 PUSH2 0x170F JUMP JUMPDEST PUSH1 0x40 DUP3 ADD SWAP1 POP SWAP2 SWAP1 POP JUMP JUMPDEST PUSH1 0x0 PUSH2 0xF44 PUSH1 0x18 DUP4 PUSH2 0x134F JUMP JUMPDEST SWAP2 POP PUSH2 0xF4F DUP3 PUSH2 0x175E JUMP JUMPDEST PUSH1 0x20 DUP3 ADD SWAP1 POP SWAP2 SWAP1 POP JUMP JUMPDEST PUSH1 0x0 PUSH2 0xF67 PUSH1 0x13 DUP4 PUSH2 0x134F JUMP JUMPDEST SWAP2 POP PUSH2 0xF72 DUP3 PUSH2 0x1787 JUMP JUMPDEST PUSH1 0x20 DUP3 ADD SWAP1 POP SWAP2 SWAP1 POP JUMP JUMPDEST PUSH1 0x0 PUSH2 0x180 DUP4 ADD PUSH1 0x0 DUP4 ADD MLOAD DUP5 DUP3 SUB PUSH1 0x0 DUP7 ADD MSTORE PUSH2 0xF9B DUP3 DUP3 PUSH2 0xE5C JUMP JUMPDEST SWAP2 POP POP PUSH1 0x20 DUP4 ADD MLOAD PUSH2 0xFB0 PUSH1 0x20 DUP7 ADD DUP3 PUSH2 0x1081 JUMP JUMPDEST POP PUSH1 0x40 DUP4 ADD MLOAD PUSH2 0xFC3 PUSH1 0x40 DUP7 ADD DUP3 PUSH2 0x1081 JUMP JUMPDEST POP PUSH1 0x60 DUP4 ADD MLOAD PUSH2 0xFD6 PUSH1 0x60 DUP7 ADD DUP3 PUSH2 0x1081 JUMP JUMPDEST POP PUSH1 0x80 DUP4 ADD MLOAD PUSH2 0xFE9 PUSH1 0x80 DUP7 ADD DUP3 PUSH2 0x1081 JUMP JUMPDEST POP PUSH1 0xA0 DUP4 ADD MLOAD PUSH2 0xFFC PUSH1 0xA0 DUP7 ADD DUP3 PUSH2 0x1081 JUMP JUMPDEST POP PUSH1 0xC0 DUP4 ADD MLOAD PUSH2 0x100F PUSH1 0xC0 DUP7 ADD DUP3 PUSH2 0x1081 JUMP JUMPDEST POP PUSH1 0xE0 DUP4 ADD MLOAD PUSH2 0x1022 PUSH1 0xE0 DUP7 ADD DUP3 PUSH2 0x1081 JUMP JUMPDEST POP PUSH2 0x100 DUP4 ADD MLOAD PUSH2 0x1037 PUSH2 0x100 DUP7 ADD DUP3 PUSH2 0x1081 JUMP JUMPDEST POP PUSH2 0x120 DUP4 ADD MLOAD PUSH2 0x104C PUSH2 0x120 DUP7 ADD DUP3 PUSH2 0x1081 JUMP JUMPDEST POP PUSH2 0x140 DUP4 ADD MLOAD PUSH2 0x1061 PUSH2 0x140 DUP7 ADD DUP3 PUSH2 0x1081 JUMP JUMPDEST POP PUSH2 0x160 DUP4 ADD MLOAD PUSH2 0x1076 PUSH2 0x160 DUP7 ADD DUP3 PUSH2 0x1081 JUMP JUMPDEST POP DUP1 SWAP2 POP POP SWAP3 SWAP2 POP POP JUMP JUMPDEST PUSH2 0x108A DUP2 PUSH2 0x1492 JUMP JUMPDEST DUP3 MSTORE POP POP JUMP JUMPDEST PUSH2 0x1099 DUP2 PUSH2 0x1492 JUMP JUMPDEST DUP3 MSTORE POP POP JUMP JUMPDEST PUSH2 0x10B0 PUSH2 0x10AB DUP3 PUSH2 0x1492 JUMP JUMPDEST PUSH2 0x1565 JUMP JUMPDEST DUP3 MSTORE POP POP JUMP JUMPDEST PUSH1 0x0 PUSH2 0x10C2 DUP3 DUP7 PUSH2 0x109F JUMP JUMPDEST PUSH1 0x20 DUP3 ADD SWAP2 POP PUSH2 0x10D2 DUP3 DUP6 PUSH2 0x109F JUMP JUMPDEST PUSH1 0x20 DUP3 ADD SWAP2 POP PUSH2 0x10E2 DUP3 DUP5 PUSH2 0xE36 JUMP JUMPDEST PUSH1 0x14 DUP3 ADD SWAP2 POP DUP2 SWAP1 POP SWAP5 SWAP4 POP POP POP POP JUMP JUMPDEST PUSH1 0x0 PUSH1 0x20 DUP3 ADD SWAP1 POP DUP2 DUP2 SUB PUSH1 0x0 DUP4 ADD MSTORE PUSH2 0x110D DUP2 DUP5 PUSH2 0xE95 JUMP JUMPDEST SWAP1 POP SWAP3 SWAP2 POP POP JUMP JUMPDEST PUSH1 0x0 PUSH2 0x180 DUP3 ADD SWAP1 POP DUP2 DUP2 SUB PUSH1 0x0 DUP4 ADD MSTORE PUSH2 0x1130 DUP2 DUP16 PUSH2 0xE95 JUMP JUMPDEST SWAP1 POP PUSH2 0x113F PUSH1 0x20 DUP4 ADD DUP15 PUSH2 0x1090 JUMP JUMPDEST PUSH2 0x114C PUSH1 0x40 DUP4 ADD DUP14 PUSH2 0x1090 JUMP JUMPDEST PUSH2 0x1159 PUSH1 0x60 DUP4 ADD DUP13 PUSH2 0x1090 JUMP JUMPDEST PUSH2 0x1166 PUSH1 0x80 DUP4 ADD DUP12 PUSH2 0x1090 JUMP JUMPDEST PUSH2 0x1173 PUSH1 0xA0 DUP4 ADD DUP11 PUSH2 0x1090 JUMP JUMPDEST PUSH2 0x1180 PUSH1 0xC0 DUP4 ADD DUP10 PUSH2 0x1090 JUMP JUMPDEST PUSH2 0x118D PUSH1 0xE0 DUP4 ADD DUP9 PUSH2 0x1090 JUMP JUMPDEST PUSH2 0x119B PUSH2 0x100 DUP4 ADD DUP8 PUSH2 0x1090 JUMP JUMPDEST PUSH2 0x11A9 PUSH2 0x120 DUP4 ADD DUP7 PUSH2 0x1090 JUMP JUMPDEST PUSH2 0x11B7 PUSH2 0x140 DUP4 ADD DUP6 PUSH2 0x1090 JUMP JUMPDEST PUSH2 0x11C5 PUSH2 0x160 DUP4 ADD DUP5 PUSH2 0x1090 JUMP JUMPDEST SWAP14 SWAP13 POP POP POP POP POP POP POP POP POP POP POP POP POP JUMP JUMPDEST PUSH1 0x0 PUSH1 0x20 DUP3 ADD SWAP1 POP DUP2 DUP2 SUB PUSH1 0x0 DUP4 ADD MSTORE PUSH2 0x11EF DUP2 PUSH2 0xECE JUMP JUMPDEST SWAP1 POP SWAP2 SWAP1 POP JUMP JUMPDEST PUSH1 0x0 PUSH1 0x20 DUP3 ADD SWAP1 POP DUP2 DUP2 SUB PUSH1 0x0 DUP4 ADD MSTORE PUSH2 0x120F DUP2 PUSH2 0xEF1 JUMP JUMPDEST SWAP1 POP SWAP2 SWAP1 POP JUMP JUMPDEST PUSH1 0x0 PUSH1 0x20 DUP3 ADD SWAP1 POP DUP2 DUP2 SUB PUSH1 0x0 DUP4 ADD MSTORE PUSH2 0x122F DUP2 PUSH2 0xF14 JUMP JUMPDEST SWAP1 POP SWAP2 SWAP1 POP JUMP JUMPDEST PUSH1 0x0 PUSH1 0x20 DUP3 ADD SWAP1 POP DUP2 DUP2 SUB PUSH1 0x0 DUP4 ADD MSTORE PUSH2 0x124F DUP2 PUSH2 0xF37 JUMP JUMPDEST SWAP1 POP SWAP2 SWAP1 POP JUMP JUMPDEST PUSH1 0x0 PUSH1 0x20 DUP3 ADD SWAP1 POP DUP2 DUP2 SUB PUSH1 0x0 DUP4 ADD MSTORE PUSH2 0x126F DUP2 PUSH2 0xF5A JUMP JUMPDEST SWAP1 POP SWAP2 SWAP1 POP JUMP JUMPDEST PUSH1 0x0 PUSH1 0x20 DUP3 ADD SWAP1 POP DUP2 DUP2 SUB PUSH1 0x0 DUP4 ADD MSTORE PUSH2 0x1290 DUP2 DUP5 PUSH2 0xF7D JUMP JUMPDEST SWAP1 POP SWAP3 SWAP2 POP POP JUMP JUMPDEST PUSH1 0x0 PUSH1 0x80 DUP3 ADD SWAP1 POP PUSH2 0x12AD PUSH1 0x0 DUP4 ADD DUP8 PUSH2 0x1090 JUMP JUMPDEST PUSH2 0x12BA PUSH1 0x20 DUP4 ADD DUP7 PUSH2 0xE4D JUMP JUMPDEST PUSH2 0x12C7 PUSH1 0x40 DUP4 ADD DUP6 PUSH2 0x1090 JUMP JUMPDEST PUSH2 0x12D4 PUSH1 0x60 DUP4 ADD DUP5 PUSH2 0x1090 JUMP JUMPDEST SWAP6 SWAP5 POP POP POP POP POP JUMP JUMPDEST PUSH1 0x0 PUSH2 0x12E7 PUSH2 0x12F8 JUMP JUMPDEST SWAP1 POP PUSH2 0x12F3 DUP3 DUP3 PUSH2 0x1510 JUMP JUMPDEST SWAP2 SWAP1 POP JUMP JUMPDEST PUSH1 0x0 PUSH1 0x40 MLOAD SWAP1 POP SWAP1 JUMP JUMPDEST PUSH1 0x0 PUSH8 0xFFFFFFFFFFFFFFFF DUP3 GT ISZERO PUSH2 0x131D JUMPI PUSH2 0x131C PUSH2 0x165C JUMP JUMPDEST JUMPDEST PUSH2 0x1326 DUP3 PUSH2 0x169F JUMP JUMPDEST SWAP1 POP PUSH1 0x20 DUP2 ADD SWAP1 POP SWAP2 SWAP1 POP JUMP JUMPDEST PUSH1 0x0 DUP2 MLOAD SWAP1 POP SWAP2 SWAP1 POP JUMP JUMPDEST PUSH1 0x0 DUP3 DUP3 MSTORE PUSH1 0x20 DUP3 ADD SWAP1 POP SWAP3 SWAP2 POP POP JUMP JUMPDEST PUSH1 0x0 DUP3 DUP3 MSTORE PUSH1 0x20 DUP3 ADD SWAP1 POP SWAP3 SWAP2 POP POP JUMP JUMPDEST PUSH1 0x0 PUSH2 0x136B DUP3 PUSH2 0x1468 JUMP JUMPDEST SWAP2 POP PUSH2 0x1376 DUP4 PUSH2 0x1468 JUMP JUMPDEST SWAP3 POP DUP2 PUSH32 0x7FFFFFFFFFFFFFFFFFFFFFFFFFFFFFFFFFFFFFFFFFFFFFFFFFFFFFFFFFFFFFFF SUB DUP4 SGT PUSH1 0x0 DUP4 SLT ISZERO AND ISZERO PUSH2 0x13B1 JUMPI PUSH2 0x13B0 PUSH2 0x15A0 JUMP JUMPDEST JUMPDEST DUP2 PUSH32 0x8000000000000000000000000000000000000000000000000000000000000000 SUB DUP4 SLT PUSH1 0x0 DUP4 SLT AND ISZERO PUSH2 0x13E9 JUMPI PUSH2 0x13E8 PUSH2 0x15A0 JUMP JUMPDEST JUMPDEST DUP3 DUP3 ADD SWAP1 POP SWAP3 SWAP2 POP POP JUMP JUMPDEST PUSH1 0x0 PUSH2 0x13FF DUP3 PUSH2 0x1492 JUMP JUMPDEST SWAP2 POP PUSH2 0x140A DUP4 PUSH2 0x1492 JUMP JUMPDEST SWAP3 POP DUP3 PUSH32 0xFFFFFFFFFFFFFFFFFFFFFFFFFFFFFFFFFFFFFFFFFFFFFFFFFFFFFFFFFFFFFFFF SUB DUP3 GT ISZERO PUSH2 0x143F JUMPI PUSH2 0x143E PUSH2 0x15A0 JUMP JUMPDEST JUMPDEST DUP3 DUP3 ADD SWAP1 POP SWAP3 SWAP2 POP POP JUMP JUMPDEST PUSH1 0x0 PUSH2 0x1455 DUP3 PUSH2 0x1472 JUMP JUMPDEST SWAP1 POP SWAP2 SWAP1 POP JUMP JUMPDEST PUSH1 0x0 DUP2 ISZERO ISZERO SWAP1 POP SWAP2 SWAP1 POP JUMP JUMPDEST PUSH1 0x0 DUP2 SWAP1 POP SWAP2 SWAP1 POP JUMP JUMPDEST PUSH1 0x0 PUSH20 0xFFFFFFFFFFFFFFFFFFFFFFFFFFFFFFFFFFFFFFFF DUP3 AND SWAP1 POP SWAP2 SWAP1 POP JUMP JUMPDEST PUSH1 0x0 DUP2 SWAP1 POP SWAP2 SWAP1 POP JUMP JUMPDEST DUP3 DUP2 DUP4 CALLDATACOPY PUSH1 0x0 DUP4 DUP4 ADD MSTORE POP POP POP JUMP JUMPDEST PUSH1 0x0 JUMPDEST DUP4 DUP2 LT ISZERO PUSH2 0x14C9 JUMPI DUP1 DUP3 ADD MLOAD DUP2 DUP5 ADD MSTORE PUSH1 0x20 DUP2 ADD SWAP1 POP PUSH2 0x14AE JUMP JUMPDEST DUP4 DUP2 GT ISZERO PUSH2 0x14D8 JUMPI PUSH1 0x0 DUP5 DUP5 ADD MSTORE JUMPDEST POP POP POP POP JUMP JUMPDEST PUSH1 0x0 PUSH1 0x2 DUP3 DIV SWAP1 POP PUSH1 0x1 DUP3 AND DUP1 PUSH2 0x14F6 JUMPI PUSH1 0x7F DUP3 AND SWAP2 POP JUMPDEST PUSH1 0x20 DUP3 LT DUP2 EQ ISZERO PUSH2 0x150A JUMPI PUSH2 0x1509 PUSH2 0x15FE JUMP JUMPDEST JUMPDEST POP SWAP2 SWAP1 POP JUMP JUMPDEST PUSH2 0x1519 DUP3 PUSH2 0x169F JUMP JUMPDEST DUP2 ADD DUP2 DUP2 LT PUSH8 0xFFFFFFFFFFFFFFFF DUP3 GT OR ISZERO PUSH2 0x1538 JUMPI PUSH2 0x1537 PUSH2 0x165C JUMP JUMPDEST JUMPDEST DUP1 PUSH1 0x40 MSTORE POP POP POP JUMP JUMPDEST PUSH1 0x0 PUSH2 0x154C DUP3 PUSH2 0x1553 JUMP JUMPDEST SWAP1 POP SWAP2 SWAP1 POP JUMP JUMPDEST PUSH1 0x0 PUSH2 0x155E DUP3 PUSH2 0x16B0 JUMP JUMPDEST SWAP1 POP SWAP2 SWAP1 POP JUMP JUMPDEST PUSH1 0x0 DUP2 SWAP1 POP SWAP2 SWAP1 POP JUMP JUMPDEST PUSH1 0x0 PUSH2 0x157A DUP3 PUSH2 0x1492 JUMP JUMPDEST SWAP2 POP PUSH2 0x1585 DUP4 PUSH2 0x1492 JUMP JUMPDEST SWAP3 POP DUP3 PUSH2 0x1595 JUMPI PUSH2 0x1594 PUSH2 0x15CF JUMP JUMPDEST JUMPDEST DUP3 DUP3 MOD SWAP1 POP SWAP3 SWAP2 POP POP JUMP JUMPDEST PUSH32 0x4E487B7100000000000000000000000000000000000000000000000000000000 PUSH1 0x0 MSTORE PUSH1 0x11 PUSH1 0x4 MSTORE PUSH1 0x24 PUSH1 0x0 REVERT JUMPDEST PUSH32 0x4E487B7100000000000000000000000000000000000000000000000000000000 PUSH1 0x0 MSTORE PUSH1 0x12 PUSH1 0x4 MSTORE PUSH1 0x24 PUSH1 0x0 REVERT JUMPDEST PUSH32 0x4E487B7100000000000000000000000000000000000000000000000000000000 PUSH1 0x0 MSTORE PUSH1 0x22 PUSH1 0x4 MSTORE PUSH1 0x24 PUSH1 0x0 REVERT JUMPDEST PUSH32 0x4E487B7100000000000000000000000000000000000000000000000000000000 PUSH1 0x0 MSTORE PUSH1 0x32 PUSH1 0x4 MSTORE PUSH1 0x24 PUSH1 0x0 REVERT JUMPDEST PUSH32 0x4E487B7100000000000000000000000000000000000000000000000000000000 PUSH1 0x0 MSTORE PUSH1 0x41 PUSH1 0x4 MSTORE PUSH1 0x24 PUSH1 0x0 REVERT JUMPDEST PUSH1 0x0 DUP1 REVERT JUMPDEST PUSH1 0x0 DUP1 REVERT JUMPDEST PUSH1 0x0 DUP1 REVERT JUMPDEST PUSH1 0x0 DUP1 REVERT JUMPDEST PUSH1 0x0 PUSH1 0x1F NOT PUSH1 0x1F DUP4 ADD AND SWAP1 POP SWAP2 SWAP1 POP JUMP JUMPDEST PUSH1 0x0 DUP2 PUSH1 0x60 SHL SWAP1 POP SWAP2 SWAP1 POP JUMP JUMPDEST PUSH32 0x486173206E6F20726967687420746F20766F7465000000000000000000000000 PUSH1 0x0 DUP3 ADD MSTORE POP JUMP JUMPDEST PUSH32 0x416C726561647920766F7465642E000000000000000000000000000000000000 PUSH1 0x0 DUP3 ADD MSTORE POP JUMP JUMPDEST PUSH32 0x4F6E6C79206368616972706572736F6E2063616E206769766520726967687420 PUSH1 0x0 DUP3 ADD MSTORE PUSH32 0x746F20766F74652E000000000000000000000000000000000000000000000000 PUSH1 0x20 DUP3 ADD MSTORE POP JUMP JUMPDEST PUSH32 0x54686520766F74657220616C726561647920766F7465642E0000000000000000 PUSH1 0x0 DUP3 ADD MSTORE POP JUMP JUMPDEST PUSH32 0x52656163686564206D617820766F746572732E00000000000000000000000000 PUSH1 0x0 DUP3 ADD MSTORE POP JUMP JUMPDEST PUSH2 0x17B9 DUP2 PUSH2 0x144A JUMP JUMPDEST DUP2 EQ PUSH2 0x17C4 JUMPI PUSH1 0x0 DUP1 REVERT JUMPDEST POP JUMP JUMPDEST PUSH2 0x17D0 DUP2 PUSH2 0x1492 JUMP JUMPDEST DUP2 EQ PUSH2 0x17DB JUMPI PUSH1 0x0 DUP1 REVERT JUMPDEST POP JUMP INVALID LOG2 PUSH5 0x6970667358 0x22 SLT KECCAK256 0xCF NUMBER PUSH13 0xA8D458EBAF6ED2F602D264D254 PUSH16 0x202360AA1C7B431EA75E4C0FB9C4E164 PUSH20 0x6F6C634300080700330000000000000000000000 "
				},
				"gasEstimates": {
					"creation": {
						"codeDepositCost": "1232800",
						"executionCost": "infinite",
						"totalCost": "infinite"
					},
					"external": {
						"getInfo()": "infinite",
						"giveRightToVote(address)": "infinite",
						"proposals(uint256)": "infinite",
						"res(uint256)": "infinite",
						"setInfo(string)": "infinite",
						"vote(uint256)": "infinite",
						"voters(address)": "infinite"
					},
					"internal": {
						"incrementCounter()": "infinite",
						"incrementCounter2()": "infinite",
						"random()": "infinite"
					}
				},
				"methodIdentifiers": {
					"getInfo()": "5a9b0b89",
					"giveRightToVote(address)": "9e7b8d61",
					"proposals(uint256)": "013cf08b",
					"res(uint256)": "d4e8fd2e",
					"setInfo(string)": "937f6e77",
					"vote(uint256)": "0121b93f",
					"voters(address)": "a3ec138d"
				}
			},
			"storageLayout": {
				"storage": [
					{
						"astId": 38,
						"contract": "3_Ballot.sol:Ballot",
						"label": "chairperson",
						"offset": 0,
						"slot": "0",
						"type": "t_address"
					},
					{
						"astId": 43,
						"contract": "3_Ballot.sol:Ballot",
						"label": "voters",
						"offset": 0,
						"slot": "1",
						"type": "t_mapping(t_address,t_struct(Voter)11_storage)"
					},
					{
						"astId": 47,
						"contract": "3_Ballot.sol:Ballot",
						"label": "proposals",
						"offset": 0,
						"slot": "2",
						"type": "t_array(t_struct(Proposal)36_storage)dyn_storage"
					},
					{
						"astId": 72,
						"contract": "3_Ballot.sol:Ballot",
						"label": "info",
						"offset": 0,
						"slot": "3",
						"type": "t_string_storage"
					},
					{
						"astId": 164,
						"contract": "3_Ballot.sol:Ballot",
						"label": "count",
						"offset": 0,
						"slot": "4",
						"type": "t_int256"
					},
					{
						"astId": 232,
						"contract": "3_Ballot.sol:Ballot",
						"label": "count2",
						"offset": 0,
						"slot": "5",
						"type": "t_int256"
					}
				],
				"types": {
					"t_address": {
						"encoding": "inplace",
						"label": "address",
						"numberOfBytes": "20"
					},
					"t_array(t_struct(Proposal)36_storage)dyn_storage": {
						"base": "t_struct(Proposal)36_storage",
						"encoding": "dynamic_array",
						"label": "struct Ballot.Proposal[]",
						"numberOfBytes": "32"
					},
					"t_bool": {
						"encoding": "inplace",
						"label": "bool",
						"numberOfBytes": "1"
					},
					"t_int256": {
						"encoding": "inplace",
						"label": "int256",
						"numberOfBytes": "32"
					},
					"t_mapping(t_address,t_struct(Voter)11_storage)": {
						"encoding": "mapping",
						"key": "t_address",
						"label": "mapping(address => struct Ballot.Voter)",
						"numberOfBytes": "32",
						"value": "t_struct(Voter)11_storage"
					},
					"t_string_storage": {
						"encoding": "bytes",
						"label": "string",
						"numberOfBytes": "32"
					},
					"t_struct(Proposal)36_storage": {
						"encoding": "inplace",
						"label": "struct Ballot.Proposal",
						"members": [
							{
								"astId": 13,
								"contract": "3_Ballot.sol:Ballot",
								"label": "name",
								"offset": 0,
								"slot": "0",
								"type": "t_string_storage"
							},
							{
								"astId": 15,
								"contract": "3_Ballot.sol:Ballot",
								"label": "Total_Votes",
								"offset": 0,
								"slot": "1",
								"type": "t_uint256"
							},
							{
								"astId": 17,
								"contract": "3_Ballot.sol:Ballot",
								"label": "Votes_District0",
								"offset": 0,
								"slot": "2",
								"type": "t_uint256"
							},
							{
								"astId": 19,
								"contract": "3_Ballot.sol:Ballot",
								"label": "Votes_District1",
								"offset": 0,
								"slot": "3",
								"type": "t_uint256"
							},
							{
								"astId": 21,
								"contract": "3_Ballot.sol:Ballot",
								"label": "Votes_District2",
								"offset": 0,
								"slot": "4",
								"type": "t_uint256"
							},
							{
								"astId": 23,
								"contract": "3_Ballot.sol:Ballot",
								"label": "Votes_District3",
								"offset": 0,
								"slot": "5",
								"type": "t_uint256"
							},
							{
								"astId": 25,
								"contract": "3_Ballot.sol:Ballot",
								"label": "Votes_District4",
								"offset": 0,
								"slot": "6",
								"type": "t_uint256"
							},
							{
								"astId": 27,
								"contract": "3_Ballot.sol:Ballot",
								"label": "Votes_District5",
								"offset": 0,
								"slot": "7",
								"type": "t_uint256"
							},
							{
								"astId": 29,
								"contract": "3_Ballot.sol:Ballot",
								"label": "Votes_District6",
								"offset": 0,
								"slot": "8",
								"type": "t_uint256"
							},
							{
								"astId": 31,
								"contract": "3_Ballot.sol:Ballot",
								"label": "Votes_District7",
								"offset": 0,
								"slot": "9",
								"type": "t_uint256"
							},
							{
								"astId": 33,
								"contract": "3_Ballot.sol:Ballot",
								"label": "Votes_District8",
								"offset": 0,
								"slot": "10",
								"type": "t_uint256"
							},
							{
								"astId": 35,
								"contract": "3_Ballot.sol:Ballot",
								"label": "Votes_District9",
								"offset": 0,
								"slot": "11",
								"type": "t_uint256"
							}
						],
						"numberOfBytes": "384"
					},
					"t_struct(Voter)11_storage": {
						"encoding": "inplace",
						"label": "struct Ballot.Voter",
						"members": [
							{
								"astId": 4,
								"contract": "3_Ballot.sol:Ballot",
								"label": "weight",
								"offset": 0,
								"slot": "0",
								"type": "t_uint256"
							},
							{
								"astId": 6,
								"contract": "3_Ballot.sol:Ballot",
								"label": "voted",
								"offset": 0,
								"slot": "1",
								"type": "t_bool"
							},
							{
								"astId": 8,
								"contract": "3_Ballot.sol:Ballot",
								"label": "district",
								"offset": 0,
								"slot": "2",
								"type": "t_uint256"
							},
							{
								"astId": 10,
								"contract": "3_Ballot.sol:Ballot",
								"label": "vote",
								"offset": 0,
								"slot": "3",
								"type": "t_uint256"
							}
						],
						"numberOfBytes": "128"
					},
					"t_uint256": {
						"encoding": "inplace",
						"label": "uint256",
						"numberOfBytes": "32"
					}
				}
			},
			"userdoc": {
				"kind": "user",
				"methods": {},
				"version": 1
			}
		}
	}
}