{
	"smartContract/contracts/3_Ballot.sol": {
		"Ballot": {
			"abi": [
				{
					"inputs": [],
					"stateMutability": "nonpayable",
					"type": "constructor"
				},
				{
					"inputs": [
						{
							"internalType": "uint256",
							"name": "",
							"type": "uint256"
						}
					],
					"name": "axx",
					"outputs": [
						{
							"internalType": "uint256",
							"name": "weight",
							"type": "uint256"
						},
						{
							"internalType": "bool",
							"name": "voted",
							"type": "bool"
						},
						{
							"internalType": "uint256",
							"name": "district",
							"type": "uint256"
						},
						{
							"internalType": "uint256",
							"name": "vote",
							"type": "uint256"
						}
					],
					"stateMutability": "view",
					"type": "function"
				},
				{
					"inputs": [
						{
							"internalType": "uint256",
							"name": "_id",
							"type": "uint256"
						}
					],
					"name": "res",
					"outputs": [
						{
							"components": [
								{
									"internalType": "string",
									"name": "name",
									"type": "string"
								},
								{
									"internalType": "uint256",
									"name": "Total_Votes",
									"type": "uint256"
								},
								{
									"internalType": "uint256",
									"name": "Votes_District0",
									"type": "uint256"
								},
								{
									"internalType": "uint256",
									"name": "Votes_District1",
									"type": "uint256"
								},
								{
									"internalType": "uint256",
									"name": "Votes_District2",
									"type": "uint256"
								},
								{
									"internalType": "uint256",
									"name": "Votes_District3",
									"type": "uint256"
								},
								{
									"internalType": "uint256",
									"name": "Votes_District4",
									"type": "uint256"
								},
								{
									"internalType": "uint256",
									"name": "Votes_District5",
									"type": "uint256"
								},
								{
									"internalType": "uint256",
									"name": "Votes_District6",
									"type": "uint256"
								},
								{
									"internalType": "uint256",
									"name": "Votes_District7",
									"type": "uint256"
								},
								{
									"internalType": "uint256",
									"name": "Votes_District8",
									"type": "uint256"
								},
								{
									"internalType": "uint256",
									"name": "Votes_District9",
									"type": "uint256"
								}
							],
							"internalType": "struct Ballot.Proposal",
							"name": "",
							"type": "tuple"
						}
					],
					"stateMutability": "view",
					"type": "function"
				},
				{
					"inputs": [],
					"name": "vote",
					"outputs": [],
					"stateMutability": "nonpayable",
					"type": "function"
				},
				{
					"inputs": [
						{
							"internalType": "address",
							"name": "",
							"type": "address"
						}
					],
					"name": "voters",
					"outputs": [
						{
							"internalType": "uint256",
							"name": "weight",
							"type": "uint256"
						},
						{
							"internalType": "bool",
							"name": "voted",
							"type": "bool"
						},
						{
							"internalType": "uint256",
							"name": "district",
							"type": "uint256"
						},
						{
							"internalType": "uint256",
							"name": "vote",
							"type": "uint256"
						}
					],
					"stateMutability": "view",
					"type": "function"
				}
			],
			"devdoc": {
				"details": "Implements voting process along with vote delegation",
				"kind": "dev",
				"methods": {},
				"title": "Ballot",
				"version": 1
			},
			"evm": {
				"assembly": "    /* \"smartContract/contracts/3_Ballot.sol\":157:4426  contract Ballot {... */\n  mstore(0x40, 0x80)\n    /* \"smartContract/contracts/3_Ballot.sol\":2123:2124  0 */\n  0x00\n    /* \"smartContract/contracts/3_Ballot.sol\":2102:2124  int private countV = 0 */\n  0x04\n  sstore\n    /* \"smartContract/contracts/3_Ballot.sol\":1218:2060  constructor() {... */\n  callvalue\n  dup1\n  iszero\n  tag_1\n  jumpi\n  0x00\n  dup1\n  revert\ntag_1:\n  pop\n    /* \"smartContract/contracts/3_Ballot.sol\":1256:1266  msg.sender */\n  caller\n    /* \"smartContract/contracts/3_Ballot.sol\":1242:1253  chairperson */\n  0x00\n  dup1\n    /* \"smartContract/contracts/3_Ballot.sol\":1242:1266  chairperson = msg.sender */\n  0x0100\n  exp\n  dup2\n  sload\n  dup2\n  0xffffffffffffffffffffffffffffffffffffffff\n  mul\n  not\n  and\n  swap1\n  dup4\n  0xffffffffffffffffffffffffffffffffffffffff\n  and\n  mul\n  or\n  swap1\n  sstore\n  pop\n    /* \"smartContract/contracts/3_Ballot.sol\":1305:1306  1 */\n  0x01\n    /* \"smartContract/contracts/3_Ballot.sol\":1276:1282  voters */\n  dup1\n    /* \"smartContract/contracts/3_Ballot.sol\":1276:1295  voters[chairperson] */\n  0x00\n    /* \"smartContract/contracts/3_Ballot.sol\":1283:1294  chairperson */\n  dup1\n  0x00\n  swap1\n  sload\n  swap1\n  0x0100\n  exp\n  swap1\n  div\n  0xffffffffffffffffffffffffffffffffffffffff\n  and\n    /* \"smartContract/contracts/3_Ballot.sol\":1276:1295  voters[chairperson] */\n  0xffffffffffffffffffffffffffffffffffffffff\n  and\n  0xffffffffffffffffffffffffffffffffffffffff\n  and\n  dup2\n  mstore\n  0x20\n  add\n  swap1\n  dup2\n  mstore\n  0x20\n  add\n  0x00\n  keccak256\n    /* \"smartContract/contracts/3_Ballot.sol\":1276:1302  voters[chairperson].weight */\n  0x00\n  add\n    /* \"smartContract/contracts/3_Ballot.sol\":1276:1306  voters[chairperson].weight = 1 */\n  dup2\n  swap1\n  sstore\n  pop\n    /* \"smartContract/contracts/3_Ballot.sol\":1316:1346  string[5] memory proposalNames */\n  0x00\n    /* \"smartContract/contracts/3_Ballot.sol\":1316:1370  string[5] memory proposalNames = [\"a\",\"b\",\"c\",\"d\",\"e\"] */\n  mload(0x40)\n  dup1\n  0xa0\n  add\n  0x40\n  mstore\n  dup1\n  mload(0x40)\n  dup1\n  0x40\n  add\n  0x40\n  mstore\n  dup1\n  0x01\n  dup2\n  mstore\n  0x20\n  add\n  0x6100000000000000000000000000000000000000000000000000000000000000\n  dup2\n  mstore\n  pop\n  dup2\n  mstore\n  0x20\n  add\n  mload(0x40)\n  dup1\n  0x40\n  add\n  0x40\n  mstore\n  dup1\n  0x01\n  dup2\n  mstore\n  0x20\n  add\n  0x6200000000000000000000000000000000000000000000000000000000000000\n  dup2\n  mstore\n  pop\n  dup2\n  mstore\n  0x20\n  add\n  mload(0x40)\n  dup1\n  0x40\n  add\n  0x40\n  mstore\n  dup1\n  0x01\n  dup2\n  mstore\n  0x20\n  add\n  0x6300000000000000000000000000000000000000000000000000000000000000\n  dup2\n  mstore\n  pop\n  dup2\n  mstore\n  0x20\n  add\n  mload(0x40)\n  dup1\n  0x40\n  add\n  0x40\n  mstore\n  dup1\n  0x01\n  dup2\n  mstore\n  0x20\n  add\n  0x6400000000000000000000000000000000000000000000000000000000000000\n  dup2\n  mstore\n  pop\n  dup2\n  mstore\n  0x20\n  add\n  mload(0x40)\n  dup1\n  0x40\n  add\n  0x40\n  mstore\n  dup1\n  0x01\n  dup2\n  mstore\n  0x20\n  add\n  0x6500000000000000000000000000000000000000000000000000000000000000\n  dup2\n  mstore\n  pop\n  dup2\n  mstore\n  pop\n  swap1\n  pop\n    /* \"smartContract/contracts/3_Ballot.sol\":1410:1411  5 */\n  0x05\n    /* \"smartContract/contracts/3_Ballot.sol\":1388:1408  proposalNames.length */\n  dup1\n    /* \"smartContract/contracts/3_Ballot.sol\":1388:1411  proposalNames.length==5 */\n  eq\n    /* \"smartContract/contracts/3_Ballot.sol\":1380:1436  require(proposalNames.length==5,\"Candidates must be 5.\") */\n  tag_4\n  jumpi\n  mload(0x40)\n  0x08c379a000000000000000000000000000000000000000000000000000000000\n  dup2\n  mstore\n  0x04\n  add\n  tag_5\n  swap1\n  tag_6\n  jump\t// in\ntag_5:\n  mload(0x40)\n  dup1\n  swap2\n  sub\n  swap1\n  revert\ntag_4:\n    /* \"smartContract/contracts/3_Ballot.sol\":1451:1457  uint i */\n  0x00\n    /* \"smartContract/contracts/3_Ballot.sol\":1446:2054  for (uint i = 0; i < proposalNames.length; i++) {... */\ntag_7:\n    /* \"smartContract/contracts/3_Ballot.sol\":1467:1487  proposalNames.length */\n  0x05\n    /* \"smartContract/contracts/3_Ballot.sol\":1463:1464  i */\n  dup2\n    /* \"smartContract/contracts/3_Ballot.sol\":1463:1487  i < proposalNames.length */\n  lt\n    /* \"smartContract/contracts/3_Ballot.sol\":1446:2054  for (uint i = 0; i < proposalNames.length; i++) {... */\n  iszero\n  tag_8\n  jumpi\n    /* \"smartContract/contracts/3_Ballot.sol\":1508:1517  proposals */\n  0x03\n    /* \"smartContract/contracts/3_Ballot.sol\":1523:2042  Proposal({... */\n  mload(0x40)\n  dup1\n  0x0180\n  add\n  0x40\n  mstore\n  dup1\n    /* \"smartContract/contracts/3_Ballot.sol\":1556:1569  proposalNames */\n  dup5\n    /* \"smartContract/contracts/3_Ballot.sol\":1570:1571  i */\n  dup5\n    /* \"smartContract/contracts/3_Ballot.sol\":1556:1572  proposalNames[i] */\n  0x05\n  dup2\n  lt\n  tag_10\n  jumpi\n  tag_11\n  tag_12\n  jump\t// in\ntag_11:\ntag_10:\n  0x20\n  mul\n  add\n  mload\n    /* \"smartContract/contracts/3_Ballot.sol\":1523:2042  Proposal({... */\n  dup2\n  mstore\n  0x20\n  add\n    /* \"smartContract/contracts/3_Ballot.sol\":1666:1667  0 */\n  0x00\n    /* \"smartContract/contracts/3_Ballot.sol\":1523:2042  Proposal({... */\n  dup2\n  mstore\n  0x20\n  add\n    /* \"smartContract/contracts/3_Ballot.sol\":1702:1703  0 */\n  0x00\n    /* \"smartContract/contracts/3_Ballot.sol\":1523:2042  Proposal({... */\n  dup2\n  mstore\n  0x20\n  add\n    /* \"smartContract/contracts/3_Ballot.sol\":1738:1739  0 */\n  0x00\n    /* \"smartContract/contracts/3_Ballot.sol\":1523:2042  Proposal({... */\n  dup2\n  mstore\n  0x20\n  add\n    /* \"smartContract/contracts/3_Ballot.sol\":1774:1775  0 */\n  0x00\n    /* \"smartContract/contracts/3_Ballot.sol\":1523:2042  Proposal({... */\n  dup2\n  mstore\n  0x20\n  add\n    /* \"smartContract/contracts/3_Ballot.sol\":1810:1811  0 */\n  0x00\n    /* \"smartContract/contracts/3_Ballot.sol\":1523:2042  Proposal({... */\n  dup2\n  mstore\n  0x20\n  add\n    /* \"smartContract/contracts/3_Ballot.sol\":1846:1847  0 */\n  0x00\n    /* \"smartContract/contracts/3_Ballot.sol\":1523:2042  Proposal({... */\n  dup2\n  mstore\n  0x20\n  add\n    /* \"smartContract/contracts/3_Ballot.sol\":1882:1883  0 */\n  0x00\n    /* \"smartContract/contracts/3_Ballot.sol\":1523:2042  Proposal({... */\n  dup2\n  mstore\n  0x20\n  add\n    /* \"smartContract/contracts/3_Ballot.sol\":1918:1919  0 */\n  0x00\n    /* \"smartContract/contracts/3_Ballot.sol\":1523:2042  Proposal({... */\n  dup2\n  mstore\n  0x20\n  add\n    /* \"smartContract/contracts/3_Ballot.sol\":1954:1955  0 */\n  0x00\n    /* \"smartContract/contracts/3_Ballot.sol\":1523:2042  Proposal({... */\n  dup2\n  mstore\n  0x20\n  add\n    /* \"smartContract/contracts/3_Ballot.sol\":1990:1991  0 */\n  0x00\n    /* \"smartContract/contracts/3_Ballot.sol\":1523:2042  Proposal({... */\n  dup2\n  mstore\n  0x20\n  add\n    /* \"smartContract/contracts/3_Ballot.sol\":2026:2027  0 */\n  0x00\n    /* \"smartContract/contracts/3_Ballot.sol\":1523:2042  Proposal({... */\n  dup2\n  mstore\n  pop\n    /* \"smartContract/contracts/3_Ballot.sol\":1508:2043  proposals.push(Proposal({... */\n  swap1\n  dup1\n  0x01\n  dup2\n  sload\n  add\n  dup1\n  dup3\n  sstore\n  dup1\n  swap2\n  pop\n  pop\n  0x01\n  swap1\n  sub\n  swap1\n  0x00\n  mstore\n  keccak256(0x00, 0x20)\n  swap1\n  0x0c\n  mul\n  add\n  0x00\n  swap1\n  swap2\n  swap1\n  swap2\n  swap1\n  swap2\n  pop\n  0x00\n  dup3\n  add\n  mload\n  dup2\n  0x00\n  add\n  swap1\n  dup1\n  mload\n  swap1\n  0x20\n  add\n  swap1\n  tag_14\n  swap3\n  swap2\n  swap1\n  tag_15\n  jump\t// in\ntag_14:\n  pop\n  0x20\n  dup3\n  add\n  mload\n  dup2\n  0x01\n  add\n  sstore\n  0x40\n  dup3\n  add\n  mload\n  dup2\n  0x02\n  add\n  sstore\n  0x60\n  dup3\n  add\n  mload\n  dup2\n  0x03\n  add\n  sstore\n  0x80\n  dup3\n  add\n  mload\n  dup2\n  0x04\n  add\n  sstore\n  0xa0\n  dup3\n  add\n  mload\n  dup2\n  0x05\n  add\n  sstore\n  0xc0\n  dup3\n  add\n  mload\n  dup2\n  0x06\n  add\n  sstore\n  0xe0\n  dup3\n  add\n  mload\n  dup2\n  0x07\n  add\n  sstore\n  0x0100\n  dup3\n  add\n  mload\n  dup2\n  0x08\n  add\n  sstore\n  0x0120\n  dup3\n  add\n  mload\n  dup2\n  0x09\n  add\n  sstore\n  0x0140\n  dup3\n  add\n  mload\n  dup2\n  0x0a\n  add\n  sstore\n  0x0160\n  dup3\n  add\n  mload\n  dup2\n  0x0b\n  add\n  sstore\n  pop\n  pop\n    /* \"smartContract/contracts/3_Ballot.sol\":1489:1492  i++ */\n  dup1\n  dup1\n  tag_16\n  swap1\n  tag_17\n  jump\t// in\ntag_16:\n  swap2\n  pop\n  pop\n    /* \"smartContract/contracts/3_Ballot.sol\":1446:2054  for (uint i = 0; i < proposalNames.length; i++) {... */\n  jump(tag_7)\ntag_8:\n  pop\n    /* \"smartContract/contracts/3_Ballot.sol\":1232:2060  {... */\n  pop\n    /* \"smartContract/contracts/3_Ballot.sol\":157:4426  contract Ballot {... */\n  jump(tag_18)\ntag_15:\n  dup3\n  dup1\n  sload\n  tag_19\n  swap1\n  tag_20\n  jump\t// in\ntag_19:\n  swap1\n  0x00\n  mstore\n  keccak256(0x00, 0x20)\n  swap1\n  0x1f\n  add\n  0x20\n  swap1\n  div\n  dup2\n  add\n  swap3\n  dup3\n  tag_22\n  jumpi\n  0x00\n  dup6\n  sstore\n  jump(tag_21)\ntag_22:\n  dup3\n  0x1f\n  lt\n  tag_23\n  jumpi\n  dup1\n  mload\n  not(0xff)\n  and\n  dup4\n  dup1\n  add\n  or\n  dup6\n  sstore\n  jump(tag_21)\ntag_23:\n  dup3\n  dup1\n  add\n  0x01\n  add\n  dup6\n  sstore\n  dup3\n  iszero\n  tag_21\n  jumpi\n  swap2\n  dup3\n  add\ntag_24:\n  dup3\n  dup2\n  gt\n  iszero\n  tag_25\n  jumpi\n  dup3\n  mload\n  dup3\n  sstore\n  swap2\n  0x20\n  add\n  swap2\n  swap1\n  0x01\n  add\n  swap1\n  jump(tag_24)\ntag_25:\ntag_21:\n  pop\n  swap1\n  pop\n  tag_26\n  swap2\n  swap1\n  tag_27\n  jump\t// in\ntag_26:\n  pop\n  swap1\n  jump\t// out\ntag_27:\ntag_28:\n  dup1\n  dup3\n  gt\n  iszero\n  tag_29\n  jumpi\n  0x00\n  dup2\n  0x00\n  swap1\n  sstore\n  pop\n  0x01\n  add\n  jump(tag_28)\ntag_29:\n  pop\n  swap1\n  jump\t// out\n    /* \"#utility.yul\":7:373   */\ntag_31:\n    /* \"#utility.yul\":149:152   */\n  0x00\n    /* \"#utility.yul\":170:237   */\n  tag_33\n    /* \"#utility.yul\":234:236   */\n  0x15\n    /* \"#utility.yul\":229:232   */\n  dup4\n    /* \"#utility.yul\":170:237   */\n  tag_34\n  jump\t// in\ntag_33:\n    /* \"#utility.yul\":163:237   */\n  swap2\n  pop\n    /* \"#utility.yul\":246:339   */\n  tag_35\n    /* \"#utility.yul\":335:338   */\n  dup3\n    /* \"#utility.yul\":246:339   */\n  tag_36\n  jump\t// in\ntag_35:\n    /* \"#utility.yul\":364:366   */\n  0x20\n    /* \"#utility.yul\":359:362   */\n  dup3\n    /* \"#utility.yul\":355:367   */\n  add\n    /* \"#utility.yul\":348:367   */\n  swap1\n  pop\n    /* \"#utility.yul\":7:373   */\n  swap2\n  swap1\n  pop\n  jump\t// out\n    /* \"#utility.yul\":379:798   */\ntag_6:\n    /* \"#utility.yul\":545:549   */\n  0x00\n    /* \"#utility.yul\":583:585   */\n  0x20\n    /* \"#utility.yul\":572:581   */\n  dup3\n    /* \"#utility.yul\":568:586   */\n  add\n    /* \"#utility.yul\":560:586   */\n  swap1\n  pop\n    /* \"#utility.yul\":632:641   */\n  dup2\n    /* \"#utility.yul\":626:630   */\n  dup2\n    /* \"#utility.yul\":622:642   */\n  sub\n    /* \"#utility.yul\":618:619   */\n  0x00\n    /* \"#utility.yul\":607:616   */\n  dup4\n    /* \"#utility.yul\":603:620   */\n  add\n    /* \"#utility.yul\":596:643   */\n  mstore\n    /* \"#utility.yul\":660:791   */\n  tag_38\n    /* \"#utility.yul\":786:790   */\n  dup2\n    /* \"#utility.yul\":660:791   */\n  tag_31\n  jump\t// in\ntag_38:\n    /* \"#utility.yul\":652:791   */\n  swap1\n  pop\n    /* \"#utility.yul\":379:798   */\n  swap2\n  swap1\n  pop\n  jump\t// out\n    /* \"#utility.yul\":804:973   */\ntag_34:\n    /* \"#utility.yul\":888:899   */\n  0x00\n    /* \"#utility.yul\":922:928   */\n  dup3\n    /* \"#utility.yul\":917:920   */\n  dup3\n    /* \"#utility.yul\":910:929   */\n  mstore\n    /* \"#utility.yul\":962:966   */\n  0x20\n    /* \"#utility.yul\":957:960   */\n  dup3\n    /* \"#utility.yul\":953:967   */\n  add\n    /* \"#utility.yul\":938:967   */\n  swap1\n  pop\n    /* \"#utility.yul\":804:973   */\n  swap3\n  swap2\n  pop\n  pop\n  jump\t// out\n    /* \"#utility.yul\":979:1056   */\ntag_40:\n    /* \"#utility.yul\":1016:1023   */\n  0x00\n    /* \"#utility.yul\":1045:1050   */\n  dup2\n    /* \"#utility.yul\":1034:1050   */\n  swap1\n  pop\n    /* \"#utility.yul\":979:1056   */\n  swap2\n  swap1\n  pop\n  jump\t// out\n    /* \"#utility.yul\":1062:1382   */\ntag_20:\n    /* \"#utility.yul\":1106:1112   */\n  0x00\n    /* \"#utility.yul\":1143:1144   */\n  0x02\n    /* \"#utility.yul\":1137:1141   */\n  dup3\n    /* \"#utility.yul\":1133:1145   */\n  div\n    /* \"#utility.yul\":1123:1145   */\n  swap1\n  pop\n    /* \"#utility.yul\":1190:1191   */\n  0x01\n    /* \"#utility.yul\":1184:1188   */\n  dup3\n    /* \"#utility.yul\":1180:1192   */\n  and\n    /* \"#utility.yul\":1211:1229   */\n  dup1\n    /* \"#utility.yul\":1201:1282   */\n  tag_43\n  jumpi\n    /* \"#utility.yul\":1267:1271   */\n  0x7f\n    /* \"#utility.yul\":1259:1265   */\n  dup3\n    /* \"#utility.yul\":1255:1272   */\n  and\n    /* \"#utility.yul\":1245:1272   */\n  swap2\n  pop\n    /* \"#utility.yul\":1201:1282   */\ntag_43:\n    /* \"#utility.yul\":1329:1331   */\n  0x20\n    /* \"#utility.yul\":1321:1327   */\n  dup3\n    /* \"#utility.yul\":1318:1332   */\n  lt\n    /* \"#utility.yul\":1298:1316   */\n  dup2\n    /* \"#utility.yul\":1295:1333   */\n  eq\n    /* \"#utility.yul\":1292:1376   */\n  iszero\n  tag_44\n  jumpi\n    /* \"#utility.yul\":1348:1366   */\n  tag_45\n  tag_46\n  jump\t// in\ntag_45:\n    /* \"#utility.yul\":1292:1376   */\ntag_44:\n    /* \"#utility.yul\":1113:1382   */\n  pop\n    /* \"#utility.yul\":1062:1382   */\n  swap2\n  swap1\n  pop\n  jump\t// out\n    /* \"#utility.yul\":1388:1621   */\ntag_17:\n    /* \"#utility.yul\":1427:1430   */\n  0x00\n    /* \"#utility.yul\":1450:1474   */\n  tag_48\n    /* \"#utility.yul\":1468:1473   */\n  dup3\n    /* \"#utility.yul\":1450:1474   */\n  tag_40\n  jump\t// in\ntag_48:\n    /* \"#utility.yul\":1441:1474   */\n  swap2\n  pop\n    /* \"#utility.yul\":1496:1562   */\n  0xffffffffffffffffffffffffffffffffffffffffffffffffffffffffffffffff\n    /* \"#utility.yul\":1489:1494   */\n  dup3\n    /* \"#utility.yul\":1486:1563   */\n  eq\n    /* \"#utility.yul\":1483:1586   */\n  iszero\n  tag_49\n  jumpi\n    /* \"#utility.yul\":1566:1584   */\n  tag_50\n  tag_51\n  jump\t// in\ntag_50:\n    /* \"#utility.yul\":1483:1586   */\ntag_49:\n    /* \"#utility.yul\":1613:1614   */\n  0x01\n    /* \"#utility.yul\":1606:1611   */\n  dup3\n    /* \"#utility.yul\":1602:1615   */\n  add\n    /* \"#utility.yul\":1595:1615   */\n  swap1\n  pop\n    /* \"#utility.yul\":1388:1621   */\n  swap2\n  swap1\n  pop\n  jump\t// out\n    /* \"#utility.yul\":1627:1807   */\ntag_51:\n    /* \"#utility.yul\":1675:1752   */\n  0x4e487b7100000000000000000000000000000000000000000000000000000000\n    /* \"#utility.yul\":1672:1673   */\n  0x00\n    /* \"#utility.yul\":1665:1753   */\n  mstore\n    /* \"#utility.yul\":1772:1776   */\n  0x11\n    /* \"#utility.yul\":1769:1770   */\n  0x04\n    /* \"#utility.yul\":1762:1777   */\n  mstore\n    /* \"#utility.yul\":1796:1800   */\n  0x24\n    /* \"#utility.yul\":1793:1794   */\n  0x00\n    /* \"#utility.yul\":1786:1801   */\n  revert\n    /* \"#utility.yul\":1813:1993   */\ntag_46:\n    /* \"#utility.yul\":1861:1938   */\n  0x4e487b7100000000000000000000000000000000000000000000000000000000\n    /* \"#utility.yul\":1858:1859   */\n  0x00\n    /* \"#utility.yul\":1851:1939   */\n  mstore\n    /* \"#utility.yul\":1958:1962   */\n  0x22\n    /* \"#utility.yul\":1955:1956   */\n  0x04\n    /* \"#utility.yul\":1948:1963   */\n  mstore\n    /* \"#utility.yul\":1982:1986   */\n  0x24\n    /* \"#utility.yul\":1979:1980   */\n  0x00\n    /* \"#utility.yul\":1972:1987   */\n  revert\n    /* \"#utility.yul\":1999:2179   */\ntag_12:\n    /* \"#utility.yul\":2047:2124   */\n  0x4e487b7100000000000000000000000000000000000000000000000000000000\n    /* \"#utility.yul\":2044:2045   */\n  0x00\n    /* \"#utility.yul\":2037:2125   */\n  mstore\n    /* \"#utility.yul\":2144:2148   */\n  0x32\n    /* \"#utility.yul\":2141:2142   */\n  0x04\n    /* \"#utility.yul\":2134:2149   */\n  mstore\n    /* \"#utility.yul\":2168:2172   */\n  0x24\n    /* \"#utility.yul\":2165:2166   */\n  0x00\n    /* \"#utility.yul\":2158:2173   */\n  revert\n    /* \"#utility.yul\":2185:2356   */\ntag_36:\n    /* \"#utility.yul\":2325:2348   */\n  0x43616e64696461746573206d75737420626520352e0000000000000000000000\n    /* \"#utility.yul\":2321:2322   */\n  0x00\n    /* \"#utility.yul\":2313:2319   */\n  dup3\n    /* \"#utility.yul\":2309:2323   */\n  add\n    /* \"#utility.yul\":2302:2349   */\n  mstore\n    /* \"#utility.yul\":2185:2356   */\n  pop\n  jump\t// out\n    /* \"smartContract/contracts/3_Ballot.sol\":157:4426  contract Ballot {... */\ntag_18:\n  dataSize(sub_0)\n  dup1\n  dataOffset(sub_0)\n  0x00\n  codecopy\n  0x00\n  return\nstop\n\nsub_0: assembly {\n        /* \"smartContract/contracts/3_Ballot.sol\":157:4426  contract Ballot {... */\n      mstore(0x40, 0x80)\n      callvalue\n      dup1\n      iszero\n      tag_1\n      jumpi\n      0x00\n      dup1\n      revert\n    tag_1:\n      pop\n      jumpi(tag_2, lt(calldatasize, 0x04))\n      shr(0xe0, calldataload(0x00))\n      dup1\n      0x632a9a52\n      eq\n      tag_3\n      jumpi\n      dup1\n      0x64030a19\n      eq\n      tag_4\n      jumpi\n      dup1\n      0xa3ec138d\n      eq\n      tag_5\n      jumpi\n      dup1\n      0xd4e8fd2e\n      eq\n      tag_6\n      jumpi\n    tag_2:\n      0x00\n      dup1\n      revert\n        /* \"smartContract/contracts/3_Ballot.sol\":2490:4321  function vote() public {... */\n    tag_3:\n      tag_7\n      tag_8\n      jump\t// in\n    tag_7:\n      stop\n        /* \"smartContract/contracts/3_Ballot.sol\":973:991  Voter[] public axx */\n    tag_4:\n      tag_9\n      0x04\n      dup1\n      calldatasize\n      sub\n      dup2\n      add\n      swap1\n      tag_10\n      swap2\n      swap1\n      tag_11\n      jump\t// in\n    tag_10:\n      tag_12\n      jump\t// in\n    tag_9:\n      mload(0x40)\n      tag_13\n      swap5\n      swap4\n      swap3\n      swap2\n      swap1\n      tag_14\n      jump\t// in\n    tag_13:\n      mload(0x40)\n      dup1\n      swap2\n      sub\n      swap1\n      return\n        /* \"smartContract/contracts/3_Ballot.sol\":814:853  mapping(address => Voter) public voters */\n    tag_5:\n      tag_15\n      0x04\n      dup1\n      calldatasize\n      sub\n      dup2\n      add\n      swap1\n      tag_16\n      swap2\n      swap1\n      tag_17\n      jump\t// in\n    tag_16:\n      tag_18\n      jump\t// in\n    tag_15:\n      mload(0x40)\n      tag_19\n      swap5\n      swap4\n      swap3\n      swap2\n      swap1\n      tag_14\n      jump\t// in\n    tag_19:\n      mload(0x40)\n      dup1\n      swap2\n      sub\n      swap1\n      return\n        /* \"smartContract/contracts/3_Ballot.sol\":4327:4424  function res(uint _id) public view returns(Proposal memory){... */\n    tag_6:\n      tag_20\n      0x04\n      dup1\n      calldatasize\n      sub\n      dup2\n      add\n      swap1\n      tag_21\n      swap2\n      swap1\n      tag_11\n      jump\t// in\n    tag_21:\n      tag_22\n      jump\t// in\n    tag_20:\n      mload(0x40)\n      tag_23\n      swap2\n      swap1\n      tag_24\n      jump\t// in\n    tag_23:\n      mload(0x40)\n      dup1\n      swap2\n      sub\n      swap1\n      return\n        /* \"smartContract/contracts/3_Ballot.sol\":2490:4321  function vote() public {... */\n    tag_8:\n        /* \"smartContract/contracts/3_Ballot.sol\":2533:2539  voters */\n      0x01\n        /* \"smartContract/contracts/3_Ballot.sol\":2533:2551  voters[msg.sender] */\n      0x00\n        /* \"smartContract/contracts/3_Ballot.sol\":2540:2550  msg.sender */\n      caller\n        /* \"smartContract/contracts/3_Ballot.sol\":2533:2551  voters[msg.sender] */\n      0xffffffffffffffffffffffffffffffffffffffff\n      and\n      0xffffffffffffffffffffffffffffffffffffffff\n      and\n      dup2\n      mstore\n      0x20\n      add\n      swap1\n      dup2\n      mstore\n      0x20\n      add\n      0x00\n      keccak256\n        /* \"smartContract/contracts/3_Ballot.sol\":2533:2557  voters[msg.sender].voted */\n      0x01\n      add\n      0x00\n      swap1\n      sload\n      swap1\n      0x0100\n      exp\n      swap1\n      div\n      0xff\n      and\n        /* \"smartContract/contracts/3_Ballot.sol\":2532:2557  !voters[msg.sender].voted */\n      iszero\n        /* \"smartContract/contracts/3_Ballot.sol\":2524:2598  require(!voters[msg.sender].voted,... */\n      tag_26\n      jumpi\n      mload(0x40)\n      0x08c379a000000000000000000000000000000000000000000000000000000000\n      dup2\n      mstore\n      0x04\n      add\n      tag_27\n      swap1\n      tag_28\n      jump\t// in\n    tag_27:\n      mload(0x40)\n      dup1\n      swap2\n      sub\n      swap1\n      revert\n    tag_26:\n        /* \"smartContract/contracts/3_Ballot.sol\":2689:2690  1 */\n      0x01\n        /* \"smartContract/contracts/3_Ballot.sol\":2661:2667  voters */\n      dup1\n        /* \"smartContract/contracts/3_Ballot.sol\":2661:2679  voters[msg.sender] */\n      0x00\n        /* \"smartContract/contracts/3_Ballot.sol\":2668:2678  msg.sender */\n      caller\n        /* \"smartContract/contracts/3_Ballot.sol\":2661:2679  voters[msg.sender] */\n      0xffffffffffffffffffffffffffffffffffffffff\n      and\n      0xffffffffffffffffffffffffffffffffffffffff\n      and\n      dup2\n      mstore\n      0x20\n      add\n      swap1\n      dup2\n      mstore\n      0x20\n      add\n      0x00\n      keccak256\n        /* \"smartContract/contracts/3_Ballot.sol\":2661:2686  voters[msg.sender].weight */\n      0x00\n      add\n        /* \"smartContract/contracts/3_Ballot.sol\":2661:2690  voters[msg.sender].weight = 1 */\n      dup2\n      swap1\n      sstore\n      pop\n        /* \"smartContract/contracts/3_Ballot.sol\":2716:2719  100 */\n      0x64\n        /* \"smartContract/contracts/3_Ballot.sol\":2708:2714  countV */\n      sload(0x04)\n        /* \"smartContract/contracts/3_Ballot.sol\":2708:2719  countV<=100 */\n      sgt\n      iszero\n        /* \"smartContract/contracts/3_Ballot.sol\":2700:2742  require(countV<=100,\"Reached max voters.\") */\n      tag_29\n      jumpi\n      mload(0x40)\n      0x08c379a000000000000000000000000000000000000000000000000000000000\n      dup2\n      mstore\n      0x04\n      add\n      tag_30\n      swap1\n      tag_31\n      jump\t// in\n    tag_30:\n      mload(0x40)\n      dup1\n      swap2\n      sub\n      swap1\n      revert\n    tag_29:\n        /* \"smartContract/contracts/3_Ballot.sol\":2781:2798  random_district() */\n      tag_32\n        /* \"smartContract/contracts/3_Ballot.sol\":2781:2796  random_district */\n      tag_33\n        /* \"smartContract/contracts/3_Ballot.sol\":2781:2798  random_district() */\n      jump\t// in\n    tag_32:\n        /* \"smartContract/contracts/3_Ballot.sol\":2753:2759  voters */\n      0x01\n        /* \"smartContract/contracts/3_Ballot.sol\":2753:2771  voters[msg.sender] */\n      0x00\n        /* \"smartContract/contracts/3_Ballot.sol\":2760:2770  msg.sender */\n      caller\n        /* \"smartContract/contracts/3_Ballot.sol\":2753:2771  voters[msg.sender] */\n      0xffffffffffffffffffffffffffffffffffffffff\n      and\n      0xffffffffffffffffffffffffffffffffffffffff\n      and\n      dup2\n      mstore\n      0x20\n      add\n      swap1\n      dup2\n      mstore\n      0x20\n      add\n      0x00\n      keccak256\n        /* \"smartContract/contracts/3_Ballot.sol\":2753:2780  voters[msg.sender].district */\n      0x02\n      add\n        /* \"smartContract/contracts/3_Ballot.sol\":2753:2798  voters[msg.sender].district=random_district() */\n      dup2\n      swap1\n      sstore\n      pop\n        /* \"smartContract/contracts/3_Ballot.sol\":2852:2872  Voter storage sender */\n      0x00\n        /* \"smartContract/contracts/3_Ballot.sol\":2875:2881  voters */\n      0x01\n        /* \"smartContract/contracts/3_Ballot.sol\":2875:2893  voters[msg.sender] */\n      0x00\n        /* \"smartContract/contracts/3_Ballot.sol\":2882:2892  msg.sender */\n      caller\n        /* \"smartContract/contracts/3_Ballot.sol\":2875:2893  voters[msg.sender] */\n      0xffffffffffffffffffffffffffffffffffffffff\n      and\n      0xffffffffffffffffffffffffffffffffffffffff\n      and\n      dup2\n      mstore\n      0x20\n      add\n      swap1\n      dup2\n      mstore\n      0x20\n      add\n      0x00\n      keccak256\n        /* \"smartContract/contracts/3_Ballot.sol\":2852:2893  Voter storage sender = voters[msg.sender] */\n      swap1\n      pop\n        /* \"smartContract/contracts/3_Ballot.sol\":3026:3032  sender */\n      dup1\n        /* \"smartContract/contracts/3_Ballot.sol\":3026:3038  sender.voted */\n      0x01\n      add\n      0x00\n      swap1\n      sload\n      swap1\n      0x0100\n      exp\n      swap1\n      div\n      0xff\n      and\n        /* \"smartContract/contracts/3_Ballot.sol\":3025:3038  !sender.voted */\n      iszero\n        /* \"smartContract/contracts/3_Ballot.sol\":3017:3057  require(!sender.voted, \"Already voted.\") */\n      tag_34\n      jumpi\n      mload(0x40)\n      0x08c379a000000000000000000000000000000000000000000000000000000000\n      dup2\n      mstore\n      0x04\n      add\n      tag_35\n      swap1\n      tag_36\n      jump\t// in\n    tag_35:\n      mload(0x40)\n      dup1\n      swap2\n      sub\n      swap1\n      revert\n    tag_34:\n        /* \"smartContract/contracts/3_Ballot.sol\":3082:3086  true */\n      0x01\n        /* \"smartContract/contracts/3_Ballot.sol\":3067:3073  sender */\n      dup2\n        /* \"smartContract/contracts/3_Ballot.sol\":3067:3079  sender.voted */\n      0x01\n      add\n      0x00\n        /* \"smartContract/contracts/3_Ballot.sol\":3067:3086  sender.voted = true */\n      0x0100\n      exp\n      dup2\n      sload\n      dup2\n      0xff\n      mul\n      not\n      and\n      swap1\n      dup4\n      iszero\n      iszero\n      mul\n      or\n      swap1\n      sstore\n      pop\n        /* \"smartContract/contracts/3_Ballot.sol\":3123:3127  true */\n      0x01\n        /* \"smartContract/contracts/3_Ballot.sol\":3096:3102  voters */\n      dup1\n        /* \"smartContract/contracts/3_Ballot.sol\":3096:3114  voters[msg.sender] */\n      0x00\n        /* \"smartContract/contracts/3_Ballot.sol\":3103:3113  msg.sender */\n      caller\n        /* \"smartContract/contracts/3_Ballot.sol\":3096:3114  voters[msg.sender] */\n      0xffffffffffffffffffffffffffffffffffffffff\n      and\n      0xffffffffffffffffffffffffffffffffffffffff\n      and\n      dup2\n      mstore\n      0x20\n      add\n      swap1\n      dup2\n      mstore\n      0x20\n      add\n      0x00\n      keccak256\n        /* \"smartContract/contracts/3_Ballot.sol\":3096:3120  voters[msg.sender].voted */\n      0x01\n      add\n      0x00\n        /* \"smartContract/contracts/3_Ballot.sol\":3096:3127  voters[msg.sender].voted = true */\n      0x0100\n      exp\n      dup2\n      sload\n      dup2\n      0xff\n      mul\n      not\n      and\n      swap1\n      dup4\n      iszero\n      iszero\n      mul\n      or\n      swap1\n      sstore\n      pop\n        /* \"smartContract/contracts/3_Ballot.sol\":3152:3165  random_vote() */\n      tag_37\n        /* \"smartContract/contracts/3_Ballot.sol\":3152:3163  random_vote */\n      tag_38\n        /* \"smartContract/contracts/3_Ballot.sol\":3152:3165  random_vote() */\n      jump\t// in\n    tag_37:\n        /* \"smartContract/contracts/3_Ballot.sol\":3138:3144  sender */\n      dup2\n        /* \"smartContract/contracts/3_Ballot.sol\":3138:3149  sender.vote */\n      0x03\n      add\n        /* \"smartContract/contracts/3_Ballot.sol\":3138:3165  sender.vote = random_vote() */\n      dup2\n      swap1\n      sstore\n      pop\n        /* \"smartContract/contracts/3_Ballot.sol\":3175:3188  countVoters() */\n      tag_39\n        /* \"smartContract/contracts/3_Ballot.sol\":3175:3186  countVoters */\n      tag_40\n        /* \"smartContract/contracts/3_Ballot.sol\":3175:3188  countVoters() */\n      jump\t// in\n    tag_39:\n        /* \"smartContract/contracts/3_Ballot.sol\":3247:3253  sender */\n      dup1\n        /* \"smartContract/contracts/3_Ballot.sol\":3247:3260  sender.weight */\n      0x00\n      add\n      sload\n        /* \"smartContract/contracts/3_Ballot.sol\":3207:3216  proposals */\n      0x03\n        /* \"smartContract/contracts/3_Ballot.sol\":3217:3230  random_vote() */\n      tag_41\n        /* \"smartContract/contracts/3_Ballot.sol\":3217:3228  random_vote */\n      tag_38\n        /* \"smartContract/contracts/3_Ballot.sol\":3217:3230  random_vote() */\n      jump\t// in\n    tag_41:\n        /* \"smartContract/contracts/3_Ballot.sol\":3207:3231  proposals[random_vote()] */\n      dup2\n      sload\n      dup2\n      lt\n      tag_42\n      jumpi\n      tag_43\n      tag_44\n      jump\t// in\n    tag_43:\n    tag_42:\n      swap1\n      0x00\n      mstore\n      keccak256(0x00, 0x20)\n      swap1\n      0x0c\n      mul\n      add\n        /* \"smartContract/contracts/3_Ballot.sol\":3207:3243  proposals[random_vote()].Total_Votes */\n      0x01\n      add\n      0x00\n        /* \"smartContract/contracts/3_Ballot.sol\":3207:3260  proposals[random_vote()].Total_Votes += sender.weight */\n      dup3\n      dup3\n      sload\n      tag_46\n      swap2\n      swap1\n      tag_47\n      jump\t// in\n    tag_46:\n      swap3\n      pop\n      pop\n      dup2\n      swap1\n      sstore\n      pop\n        /* \"smartContract/contracts/3_Ballot.sol\":3291:3292  0 */\n      0x00\n        /* \"smartContract/contracts/3_Ballot.sol\":3274:3280  sender */\n      dup2\n        /* \"smartContract/contracts/3_Ballot.sol\":3274:3289  sender.district */\n      0x02\n      add\n      sload\n        /* \"smartContract/contracts/3_Ballot.sol\":3274:3292  sender.district==0 */\n      eq\n        /* \"smartContract/contracts/3_Ballot.sol\":3270:4203  if (sender.district==0){proposals[random_vote()].Votes_District0 += sender.weight;}... */\n      iszero\n      tag_48\n      jumpi\n        /* \"smartContract/contracts/3_Ballot.sol\":3338:3344  sender */\n      dup1\n        /* \"smartContract/contracts/3_Ballot.sol\":3338:3351  sender.weight */\n      0x00\n      add\n      sload\n        /* \"smartContract/contracts/3_Ballot.sol\":3294:3303  proposals */\n      0x03\n        /* \"smartContract/contracts/3_Ballot.sol\":3304:3317  random_vote() */\n      tag_49\n        /* \"smartContract/contracts/3_Ballot.sol\":3304:3315  random_vote */\n      tag_38\n        /* \"smartContract/contracts/3_Ballot.sol\":3304:3317  random_vote() */\n      jump\t// in\n    tag_49:\n        /* \"smartContract/contracts/3_Ballot.sol\":3294:3318  proposals[random_vote()] */\n      dup2\n      sload\n      dup2\n      lt\n      tag_50\n      jumpi\n      tag_51\n      tag_44\n      jump\t// in\n    tag_51:\n    tag_50:\n      swap1\n      0x00\n      mstore\n      keccak256(0x00, 0x20)\n      swap1\n      0x0c\n      mul\n      add\n        /* \"smartContract/contracts/3_Ballot.sol\":3294:3334  proposals[random_vote()].Votes_District0 */\n      0x02\n      add\n      0x00\n        /* \"smartContract/contracts/3_Ballot.sol\":3294:3351  proposals[random_vote()].Votes_District0 += sender.weight */\n      dup3\n      dup3\n      sload\n      tag_53\n      swap2\n      swap1\n      tag_47\n      jump\t// in\n    tag_53:\n      swap3\n      pop\n      pop\n      dup2\n      swap1\n      sstore\n      pop\n        /* \"smartContract/contracts/3_Ballot.sol\":3270:4203  if (sender.district==0){proposals[random_vote()].Votes_District0 += sender.weight;}... */\n      jump(tag_54)\n    tag_48:\n        /* \"smartContract/contracts/3_Ballot.sol\":3388:3389  1 */\n      0x01\n        /* \"smartContract/contracts/3_Ballot.sol\":3371:3377  sender */\n      dup2\n        /* \"smartContract/contracts/3_Ballot.sol\":3371:3386  sender.district */\n      0x02\n      add\n      sload\n        /* \"smartContract/contracts/3_Ballot.sol\":3371:3389  sender.district==1 */\n      eq\n        /* \"smartContract/contracts/3_Ballot.sol\":3367:4203  if (sender.district==1){proposals[random_vote()].Votes_District1 += sender.weight;}... */\n      iszero\n      tag_55\n      jumpi\n        /* \"smartContract/contracts/3_Ballot.sol\":3435:3441  sender */\n      dup1\n        /* \"smartContract/contracts/3_Ballot.sol\":3435:3448  sender.weight */\n      0x00\n      add\n      sload\n        /* \"smartContract/contracts/3_Ballot.sol\":3391:3400  proposals */\n      0x03\n        /* \"smartContract/contracts/3_Ballot.sol\":3401:3414  random_vote() */\n      tag_56\n        /* \"smartContract/contracts/3_Ballot.sol\":3401:3412  random_vote */\n      tag_38\n        /* \"smartContract/contracts/3_Ballot.sol\":3401:3414  random_vote() */\n      jump\t// in\n    tag_56:\n        /* \"smartContract/contracts/3_Ballot.sol\":3391:3415  proposals[random_vote()] */\n      dup2\n      sload\n      dup2\n      lt\n      tag_57\n      jumpi\n      tag_58\n      tag_44\n      jump\t// in\n    tag_58:\n    tag_57:\n      swap1\n      0x00\n      mstore\n      keccak256(0x00, 0x20)\n      swap1\n      0x0c\n      mul\n      add\n        /* \"smartContract/contracts/3_Ballot.sol\":3391:3431  proposals[random_vote()].Votes_District1 */\n      0x03\n      add\n      0x00\n        /* \"smartContract/contracts/3_Ballot.sol\":3391:3448  proposals[random_vote()].Votes_District1 += sender.weight */\n      dup3\n      dup3\n      sload\n      tag_60\n      swap2\n      swap1\n      tag_47\n      jump\t// in\n    tag_60:\n      swap3\n      pop\n      pop\n      dup2\n      swap1\n      sstore\n      pop\n        /* \"smartContract/contracts/3_Ballot.sol\":3367:4203  if (sender.district==1){proposals[random_vote()].Votes_District1 += sender.weight;}... */\n      jump(tag_61)\n    tag_55:\n        /* \"smartContract/contracts/3_Ballot.sol\":3485:3486  2 */\n      0x02\n        /* \"smartContract/contracts/3_Ballot.sol\":3468:3474  sender */\n      dup2\n        /* \"smartContract/contracts/3_Ballot.sol\":3468:3483  sender.district */\n      0x02\n      add\n      sload\n        /* \"smartContract/contracts/3_Ballot.sol\":3468:3486  sender.district==2 */\n      eq\n        /* \"smartContract/contracts/3_Ballot.sol\":3464:4203  if (sender.district==2){proposals[random_vote()].Votes_District2 += sender.weight;}... */\n      iszero\n      tag_62\n      jumpi\n        /* \"smartContract/contracts/3_Ballot.sol\":3532:3538  sender */\n      dup1\n        /* \"smartContract/contracts/3_Ballot.sol\":3532:3545  sender.weight */\n      0x00\n      add\n      sload\n        /* \"smartContract/contracts/3_Ballot.sol\":3488:3497  proposals */\n      0x03\n        /* \"smartContract/contracts/3_Ballot.sol\":3498:3511  random_vote() */\n      tag_63\n        /* \"smartContract/contracts/3_Ballot.sol\":3498:3509  random_vote */\n      tag_38\n        /* \"smartContract/contracts/3_Ballot.sol\":3498:3511  random_vote() */\n      jump\t// in\n    tag_63:\n        /* \"smartContract/contracts/3_Ballot.sol\":3488:3512  proposals[random_vote()] */\n      dup2\n      sload\n      dup2\n      lt\n      tag_64\n      jumpi\n      tag_65\n      tag_44\n      jump\t// in\n    tag_65:\n    tag_64:\n      swap1\n      0x00\n      mstore\n      keccak256(0x00, 0x20)\n      swap1\n      0x0c\n      mul\n      add\n        /* \"smartContract/contracts/3_Ballot.sol\":3488:3528  proposals[random_vote()].Votes_District2 */\n      0x04\n      add\n      0x00\n        /* \"smartContract/contracts/3_Ballot.sol\":3488:3545  proposals[random_vote()].Votes_District2 += sender.weight */\n      dup3\n      dup3\n      sload\n      tag_67\n      swap2\n      swap1\n      tag_47\n      jump\t// in\n    tag_67:\n      swap3\n      pop\n      pop\n      dup2\n      swap1\n      sstore\n      pop\n        /* \"smartContract/contracts/3_Ballot.sol\":3464:4203  if (sender.district==2){proposals[random_vote()].Votes_District2 += sender.weight;}... */\n      jump(tag_68)\n    tag_62:\n        /* \"smartContract/contracts/3_Ballot.sol\":3582:3583  3 */\n      0x03\n        /* \"smartContract/contracts/3_Ballot.sol\":3565:3571  sender */\n      dup2\n        /* \"smartContract/contracts/3_Ballot.sol\":3565:3580  sender.district */\n      0x02\n      add\n      sload\n        /* \"smartContract/contracts/3_Ballot.sol\":3565:3583  sender.district==3 */\n      eq\n        /* \"smartContract/contracts/3_Ballot.sol\":3561:4203  if (sender.district==3){proposals[random_vote()].Votes_District3 += sender.weight;}... */\n      iszero\n      tag_69\n      jumpi\n        /* \"smartContract/contracts/3_Ballot.sol\":3629:3635  sender */\n      dup1\n        /* \"smartContract/contracts/3_Ballot.sol\":3629:3642  sender.weight */\n      0x00\n      add\n      sload\n        /* \"smartContract/contracts/3_Ballot.sol\":3585:3594  proposals */\n      0x03\n        /* \"smartContract/contracts/3_Ballot.sol\":3595:3608  random_vote() */\n      tag_70\n        /* \"smartContract/contracts/3_Ballot.sol\":3595:3606  random_vote */\n      tag_38\n        /* \"smartContract/contracts/3_Ballot.sol\":3595:3608  random_vote() */\n      jump\t// in\n    tag_70:\n        /* \"smartContract/contracts/3_Ballot.sol\":3585:3609  proposals[random_vote()] */\n      dup2\n      sload\n      dup2\n      lt\n      tag_71\n      jumpi\n      tag_72\n      tag_44\n      jump\t// in\n    tag_72:\n    tag_71:\n      swap1\n      0x00\n      mstore\n      keccak256(0x00, 0x20)\n      swap1\n      0x0c\n      mul\n      add\n        /* \"smartContract/contracts/3_Ballot.sol\":3585:3625  proposals[random_vote()].Votes_District3 */\n      0x05\n      add\n      0x00\n        /* \"smartContract/contracts/3_Ballot.sol\":3585:3642  proposals[random_vote()].Votes_District3 += sender.weight */\n      dup3\n      dup3\n      sload\n      tag_74\n      swap2\n      swap1\n      tag_47\n      jump\t// in\n    tag_74:\n      swap3\n      pop\n      pop\n      dup2\n      swap1\n      sstore\n      pop\n        /* \"smartContract/contracts/3_Ballot.sol\":3561:4203  if (sender.district==3){proposals[random_vote()].Votes_District3 += sender.weight;}... */\n      jump(tag_75)\n    tag_69:\n        /* \"smartContract/contracts/3_Ballot.sol\":3679:3680  4 */\n      0x04\n        /* \"smartContract/contracts/3_Ballot.sol\":3662:3668  sender */\n      dup2\n        /* \"smartContract/contracts/3_Ballot.sol\":3662:3677  sender.district */\n      0x02\n      add\n      sload\n        /* \"smartContract/contracts/3_Ballot.sol\":3662:3680  sender.district==4 */\n      eq\n        /* \"smartContract/contracts/3_Ballot.sol\":3658:4203  if (sender.district==4){proposals[random_vote()].Votes_District4 += sender.weight;}... */\n      iszero\n      tag_76\n      jumpi\n        /* \"smartContract/contracts/3_Ballot.sol\":3726:3732  sender */\n      dup1\n        /* \"smartContract/contracts/3_Ballot.sol\":3726:3739  sender.weight */\n      0x00\n      add\n      sload\n        /* \"smartContract/contracts/3_Ballot.sol\":3682:3691  proposals */\n      0x03\n        /* \"smartContract/contracts/3_Ballot.sol\":3692:3705  random_vote() */\n      tag_77\n        /* \"smartContract/contracts/3_Ballot.sol\":3692:3703  random_vote */\n      tag_38\n        /* \"smartContract/contracts/3_Ballot.sol\":3692:3705  random_vote() */\n      jump\t// in\n    tag_77:\n        /* \"smartContract/contracts/3_Ballot.sol\":3682:3706  proposals[random_vote()] */\n      dup2\n      sload\n      dup2\n      lt\n      tag_78\n      jumpi\n      tag_79\n      tag_44\n      jump\t// in\n    tag_79:\n    tag_78:\n      swap1\n      0x00\n      mstore\n      keccak256(0x00, 0x20)\n      swap1\n      0x0c\n      mul\n      add\n        /* \"smartContract/contracts/3_Ballot.sol\":3682:3722  proposals[random_vote()].Votes_District4 */\n      0x06\n      add\n      0x00\n        /* \"smartContract/contracts/3_Ballot.sol\":3682:3739  proposals[random_vote()].Votes_District4 += sender.weight */\n      dup3\n      dup3\n      sload\n      tag_81\n      swap2\n      swap1\n      tag_47\n      jump\t// in\n    tag_81:\n      swap3\n      pop\n      pop\n      dup2\n      swap1\n      sstore\n      pop\n        /* \"smartContract/contracts/3_Ballot.sol\":3658:4203  if (sender.district==4){proposals[random_vote()].Votes_District4 += sender.weight;}... */\n      jump(tag_82)\n    tag_76:\n        /* \"smartContract/contracts/3_Ballot.sol\":3776:3777  5 */\n      0x05\n        /* \"smartContract/contracts/3_Ballot.sol\":3759:3765  sender */\n      dup2\n        /* \"smartContract/contracts/3_Ballot.sol\":3759:3774  sender.district */\n      0x02\n      add\n      sload\n        /* \"smartContract/contracts/3_Ballot.sol\":3759:3777  sender.district==5 */\n      eq\n        /* \"smartContract/contracts/3_Ballot.sol\":3755:4203  if (sender.district==5){proposals[random_vote()].Votes_District5 += sender.weight;}... */\n      iszero\n      tag_83\n      jumpi\n        /* \"smartContract/contracts/3_Ballot.sol\":3823:3829  sender */\n      dup1\n        /* \"smartContract/contracts/3_Ballot.sol\":3823:3836  sender.weight */\n      0x00\n      add\n      sload\n        /* \"smartContract/contracts/3_Ballot.sol\":3779:3788  proposals */\n      0x03\n        /* \"smartContract/contracts/3_Ballot.sol\":3789:3802  random_vote() */\n      tag_84\n        /* \"smartContract/contracts/3_Ballot.sol\":3789:3800  random_vote */\n      tag_38\n        /* \"smartContract/contracts/3_Ballot.sol\":3789:3802  random_vote() */\n      jump\t// in\n    tag_84:\n        /* \"smartContract/contracts/3_Ballot.sol\":3779:3803  proposals[random_vote()] */\n      dup2\n      sload\n      dup2\n      lt\n      tag_85\n      jumpi\n      tag_86\n      tag_44\n      jump\t// in\n    tag_86:\n    tag_85:\n      swap1\n      0x00\n      mstore\n      keccak256(0x00, 0x20)\n      swap1\n      0x0c\n      mul\n      add\n        /* \"smartContract/contracts/3_Ballot.sol\":3779:3819  proposals[random_vote()].Votes_District5 */\n      0x07\n      add\n      0x00\n        /* \"smartContract/contracts/3_Ballot.sol\":3779:3836  proposals[random_vote()].Votes_District5 += sender.weight */\n      dup3\n      dup3\n      sload\n      tag_88\n      swap2\n      swap1\n      tag_47\n      jump\t// in\n    tag_88:\n      swap3\n      pop\n      pop\n      dup2\n      swap1\n      sstore\n      pop\n        /* \"smartContract/contracts/3_Ballot.sol\":3755:4203  if (sender.district==5){proposals[random_vote()].Votes_District5 += sender.weight;}... */\n      jump(tag_89)\n    tag_83:\n        /* \"smartContract/contracts/3_Ballot.sol\":3873:3874  6 */\n      0x06\n        /* \"smartContract/contracts/3_Ballot.sol\":3856:3862  sender */\n      dup2\n        /* \"smartContract/contracts/3_Ballot.sol\":3856:3871  sender.district */\n      0x02\n      add\n      sload\n        /* \"smartContract/contracts/3_Ballot.sol\":3856:3874  sender.district==6 */\n      eq\n        /* \"smartContract/contracts/3_Ballot.sol\":3852:4203  if (sender.district==6){proposals[random_vote()].Votes_District6 += sender.weight;}... */\n      iszero\n      tag_90\n      jumpi\n        /* \"smartContract/contracts/3_Ballot.sol\":3920:3926  sender */\n      dup1\n        /* \"smartContract/contracts/3_Ballot.sol\":3920:3933  sender.weight */\n      0x00\n      add\n      sload\n        /* \"smartContract/contracts/3_Ballot.sol\":3876:3885  proposals */\n      0x03\n        /* \"smartContract/contracts/3_Ballot.sol\":3886:3899  random_vote() */\n      tag_91\n        /* \"smartContract/contracts/3_Ballot.sol\":3886:3897  random_vote */\n      tag_38\n        /* \"smartContract/contracts/3_Ballot.sol\":3886:3899  random_vote() */\n      jump\t// in\n    tag_91:\n        /* \"smartContract/contracts/3_Ballot.sol\":3876:3900  proposals[random_vote()] */\n      dup2\n      sload\n      dup2\n      lt\n      tag_92\n      jumpi\n      tag_93\n      tag_44\n      jump\t// in\n    tag_93:\n    tag_92:\n      swap1\n      0x00\n      mstore\n      keccak256(0x00, 0x20)\n      swap1\n      0x0c\n      mul\n      add\n        /* \"smartContract/contracts/3_Ballot.sol\":3876:3916  proposals[random_vote()].Votes_District6 */\n      0x08\n      add\n      0x00\n        /* \"smartContract/contracts/3_Ballot.sol\":3876:3933  proposals[random_vote()].Votes_District6 += sender.weight */\n      dup3\n      dup3\n      sload\n      tag_95\n      swap2\n      swap1\n      tag_47\n      jump\t// in\n    tag_95:\n      swap3\n      pop\n      pop\n      dup2\n      swap1\n      sstore\n      pop\n        /* \"smartContract/contracts/3_Ballot.sol\":3852:4203  if (sender.district==6){proposals[random_vote()].Votes_District6 += sender.weight;}... */\n      jump(tag_96)\n    tag_90:\n        /* \"smartContract/contracts/3_Ballot.sol\":3970:3971  7 */\n      0x07\n        /* \"smartContract/contracts/3_Ballot.sol\":3953:3959  sender */\n      dup2\n        /* \"smartContract/contracts/3_Ballot.sol\":3953:3968  sender.district */\n      0x02\n      add\n      sload\n        /* \"smartContract/contracts/3_Ballot.sol\":3953:3971  sender.district==7 */\n      eq\n        /* \"smartContract/contracts/3_Ballot.sol\":3949:4203  if (sender.district==7){proposals[random_vote()].Votes_District7 += sender.weight;}... */\n      iszero\n      tag_97\n      jumpi\n        /* \"smartContract/contracts/3_Ballot.sol\":4017:4023  sender */\n      dup1\n        /* \"smartContract/contracts/3_Ballot.sol\":4017:4030  sender.weight */\n      0x00\n      add\n      sload\n        /* \"smartContract/contracts/3_Ballot.sol\":3973:3982  proposals */\n      0x03\n        /* \"smartContract/contracts/3_Ballot.sol\":3983:3996  random_vote() */\n      tag_98\n        /* \"smartContract/contracts/3_Ballot.sol\":3983:3994  random_vote */\n      tag_38\n        /* \"smartContract/contracts/3_Ballot.sol\":3983:3996  random_vote() */\n      jump\t// in\n    tag_98:\n        /* \"smartContract/contracts/3_Ballot.sol\":3973:3997  proposals[random_vote()] */\n      dup2\n      sload\n      dup2\n      lt\n      tag_99\n      jumpi\n      tag_100\n      tag_44\n      jump\t// in\n    tag_100:\n    tag_99:\n      swap1\n      0x00\n      mstore\n      keccak256(0x00, 0x20)\n      swap1\n      0x0c\n      mul\n      add\n        /* \"smartContract/contracts/3_Ballot.sol\":3973:4013  proposals[random_vote()].Votes_District7 */\n      0x09\n      add\n      0x00\n        /* \"smartContract/contracts/3_Ballot.sol\":3973:4030  proposals[random_vote()].Votes_District7 += sender.weight */\n      dup3\n      dup3\n      sload\n      tag_102\n      swap2\n      swap1\n      tag_47\n      jump\t// in\n    tag_102:\n      swap3\n      pop\n      pop\n      dup2\n      swap1\n      sstore\n      pop\n        /* \"smartContract/contracts/3_Ballot.sol\":3949:4203  if (sender.district==7){proposals[random_vote()].Votes_District7 += sender.weight;}... */\n      jump(tag_103)\n    tag_97:\n        /* \"smartContract/contracts/3_Ballot.sol\":4067:4068  8 */\n      0x08\n        /* \"smartContract/contracts/3_Ballot.sol\":4050:4056  sender */\n      dup2\n        /* \"smartContract/contracts/3_Ballot.sol\":4050:4065  sender.district */\n      0x02\n      add\n      sload\n        /* \"smartContract/contracts/3_Ballot.sol\":4050:4068  sender.district==8 */\n      eq\n        /* \"smartContract/contracts/3_Ballot.sol\":4046:4203  if (sender.district==8){proposals[random_vote()].Votes_District8 += sender.weight;}... */\n      iszero\n      tag_104\n      jumpi\n        /* \"smartContract/contracts/3_Ballot.sol\":4114:4120  sender */\n      dup1\n        /* \"smartContract/contracts/3_Ballot.sol\":4114:4127  sender.weight */\n      0x00\n      add\n      sload\n        /* \"smartContract/contracts/3_Ballot.sol\":4070:4079  proposals */\n      0x03\n        /* \"smartContract/contracts/3_Ballot.sol\":4080:4093  random_vote() */\n      tag_105\n        /* \"smartContract/contracts/3_Ballot.sol\":4080:4091  random_vote */\n      tag_38\n        /* \"smartContract/contracts/3_Ballot.sol\":4080:4093  random_vote() */\n      jump\t// in\n    tag_105:\n        /* \"smartContract/contracts/3_Ballot.sol\":4070:4094  proposals[random_vote()] */\n      dup2\n      sload\n      dup2\n      lt\n      tag_106\n      jumpi\n      tag_107\n      tag_44\n      jump\t// in\n    tag_107:\n    tag_106:\n      swap1\n      0x00\n      mstore\n      keccak256(0x00, 0x20)\n      swap1\n      0x0c\n      mul\n      add\n        /* \"smartContract/contracts/3_Ballot.sol\":4070:4110  proposals[random_vote()].Votes_District8 */\n      0x0a\n      add\n      0x00\n        /* \"smartContract/contracts/3_Ballot.sol\":4070:4127  proposals[random_vote()].Votes_District8 += sender.weight */\n      dup3\n      dup3\n      sload\n      tag_109\n      swap2\n      swap1\n      tag_47\n      jump\t// in\n    tag_109:\n      swap3\n      pop\n      pop\n      dup2\n      swap1\n      sstore\n      pop\n        /* \"smartContract/contracts/3_Ballot.sol\":4046:4203  if (sender.district==8){proposals[random_vote()].Votes_District8 += sender.weight;}... */\n      jump(tag_110)\n    tag_104:\n        /* \"smartContract/contracts/3_Ballot.sol\":4188:4194  sender */\n      dup1\n        /* \"smartContract/contracts/3_Ballot.sol\":4188:4201  sender.weight */\n      0x00\n      add\n      sload\n        /* \"smartContract/contracts/3_Ballot.sol\":4144:4153  proposals */\n      0x03\n        /* \"smartContract/contracts/3_Ballot.sol\":4154:4167  random_vote() */\n      tag_111\n        /* \"smartContract/contracts/3_Ballot.sol\":4154:4165  random_vote */\n      tag_38\n        /* \"smartContract/contracts/3_Ballot.sol\":4154:4167  random_vote() */\n      jump\t// in\n    tag_111:\n        /* \"smartContract/contracts/3_Ballot.sol\":4144:4168  proposals[random_vote()] */\n      dup2\n      sload\n      dup2\n      lt\n      tag_112\n      jumpi\n      tag_113\n      tag_44\n      jump\t// in\n    tag_113:\n    tag_112:\n      swap1\n      0x00\n      mstore\n      keccak256(0x00, 0x20)\n      swap1\n      0x0c\n      mul\n      add\n        /* \"smartContract/contracts/3_Ballot.sol\":4144:4184  proposals[random_vote()].Votes_District9 */\n      0x0b\n      add\n      0x00\n        /* \"smartContract/contracts/3_Ballot.sol\":4144:4201  proposals[random_vote()].Votes_District9 += sender.weight */\n      dup3\n      dup3\n      sload\n      tag_115\n      swap2\n      swap1\n      tag_47\n      jump\t// in\n    tag_115:\n      swap3\n      pop\n      pop\n      dup2\n      swap1\n      sstore\n      pop\n        /* \"smartContract/contracts/3_Ballot.sol\":4046:4203  if (sender.district==8){proposals[random_vote()].Votes_District8 += sender.weight;}... */\n    tag_110:\n        /* \"smartContract/contracts/3_Ballot.sol\":3949:4203  if (sender.district==7){proposals[random_vote()].Votes_District7 += sender.weight;}... */\n    tag_103:\n        /* \"smartContract/contracts/3_Ballot.sol\":3852:4203  if (sender.district==6){proposals[random_vote()].Votes_District6 += sender.weight;}... */\n    tag_96:\n        /* \"smartContract/contracts/3_Ballot.sol\":3755:4203  if (sender.district==5){proposals[random_vote()].Votes_District5 += sender.weight;}... */\n    tag_89:\n        /* \"smartContract/contracts/3_Ballot.sol\":3658:4203  if (sender.district==4){proposals[random_vote()].Votes_District4 += sender.weight;}... */\n    tag_82:\n        /* \"smartContract/contracts/3_Ballot.sol\":3561:4203  if (sender.district==3){proposals[random_vote()].Votes_District3 += sender.weight;}... */\n    tag_75:\n        /* \"smartContract/contracts/3_Ballot.sol\":3464:4203  if (sender.district==2){proposals[random_vote()].Votes_District2 += sender.weight;}... */\n    tag_68:\n        /* \"smartContract/contracts/3_Ballot.sol\":3367:4203  if (sender.district==1){proposals[random_vote()].Votes_District1 += sender.weight;}... */\n    tag_61:\n        /* \"smartContract/contracts/3_Ballot.sol\":3270:4203  if (sender.district==0){proposals[random_vote()].Votes_District0 += sender.weight;}... */\n    tag_54:\n        /* \"smartContract/contracts/3_Ballot.sol\":2513:4321  {... */\n      pop\n        /* \"smartContract/contracts/3_Ballot.sol\":2490:4321  function vote() public {... */\n      jump\t// out\n        /* \"smartContract/contracts/3_Ballot.sol\":973:991  Voter[] public axx */\n    tag_12:\n      0x02\n      dup2\n      dup2\n      sload\n      dup2\n      lt\n      tag_116\n      jumpi\n      0x00\n      dup1\n      revert\n    tag_116:\n      swap1\n      0x00\n      mstore\n      keccak256(0x00, 0x20)\n      swap1\n      0x04\n      mul\n      add\n      0x00\n      swap2\n      pop\n      swap1\n      pop\n      dup1\n      0x00\n      add\n      sload\n      swap1\n      dup1\n      0x01\n      add\n      0x00\n      swap1\n      sload\n      swap1\n      0x0100\n      exp\n      swap1\n      div\n      0xff\n      and\n      swap1\n      dup1\n      0x02\n      add\n      sload\n      swap1\n      dup1\n      0x03\n      add\n      sload\n      swap1\n      pop\n      dup5\n      jump\t// out\n        /* \"smartContract/contracts/3_Ballot.sol\":814:853  mapping(address => Voter) public voters */\n    tag_18:\n      mstore(0x20, 0x01)\n      dup1\n      0x00\n      mstore\n      keccak256(0x00, 0x40)\n      0x00\n      swap2\n      pop\n      swap1\n      pop\n      dup1\n      0x00\n      add\n      sload\n      swap1\n      dup1\n      0x01\n      add\n      0x00\n      swap1\n      sload\n      swap1\n      0x0100\n      exp\n      swap1\n      div\n      0xff\n      and\n      swap1\n      dup1\n      0x02\n      add\n      sload\n      swap1\n      dup1\n      0x03\n      add\n      sload\n      swap1\n      pop\n      dup5\n      jump\t// out\n        /* \"smartContract/contracts/3_Ballot.sol\":4327:4424  function res(uint _id) public view returns(Proposal memory){... */\n    tag_22:\n        /* \"smartContract/contracts/3_Ballot.sol\":4370:4385  Proposal memory */\n      tag_118\n      tag_119\n      jump\t// in\n    tag_118:\n        /* \"smartContract/contracts/3_Ballot.sol\":4403:4412  proposals */\n      0x03\n        /* \"smartContract/contracts/3_Ballot.sol\":4413:4416  _id */\n      dup3\n        /* \"smartContract/contracts/3_Ballot.sol\":4403:4417  proposals[_id] */\n      dup2\n      sload\n      dup2\n      lt\n      tag_121\n      jumpi\n      tag_122\n      tag_44\n      jump\t// in\n    tag_122:\n    tag_121:\n      swap1\n      0x00\n      mstore\n      keccak256(0x00, 0x20)\n      swap1\n      0x0c\n      mul\n      add\n        /* \"smartContract/contracts/3_Ballot.sol\":4396:4417  return proposals[_id] */\n      mload(0x40)\n      dup1\n      0x0180\n      add\n      0x40\n      mstore\n      swap1\n      dup2\n      0x00\n      dup3\n      add\n      dup1\n      sload\n      tag_124\n      swap1\n      tag_125\n      jump\t// in\n    tag_124:\n      dup1\n      0x1f\n      add\n      0x20\n      dup1\n      swap2\n      div\n      mul\n      0x20\n      add\n      mload(0x40)\n      swap1\n      dup2\n      add\n      0x40\n      mstore\n      dup1\n      swap3\n      swap2\n      swap1\n      dup2\n      dup2\n      mstore\n      0x20\n      add\n      dup3\n      dup1\n      sload\n      tag_126\n      swap1\n      tag_125\n      jump\t// in\n    tag_126:\n      dup1\n      iszero\n      tag_127\n      jumpi\n      dup1\n      0x1f\n      lt\n      tag_128\n      jumpi\n      0x0100\n      dup1\n      dup4\n      sload\n      div\n      mul\n      dup4\n      mstore\n      swap2\n      0x20\n      add\n      swap2\n      jump(tag_127)\n    tag_128:\n      dup3\n      add\n      swap2\n      swap1\n      0x00\n      mstore\n      keccak256(0x00, 0x20)\n      swap1\n    tag_129:\n      dup2\n      sload\n      dup2\n      mstore\n      swap1\n      0x01\n      add\n      swap1\n      0x20\n      add\n      dup1\n      dup4\n      gt\n      tag_129\n      jumpi\n      dup3\n      swap1\n      sub\n      0x1f\n      and\n      dup3\n      add\n      swap2\n    tag_127:\n      pop\n      pop\n      pop\n      pop\n      pop\n      dup2\n      mstore\n      0x20\n      add\n      0x01\n      dup3\n      add\n      sload\n      dup2\n      mstore\n      0x20\n      add\n      0x02\n      dup3\n      add\n      sload\n      dup2\n      mstore\n      0x20\n      add\n      0x03\n      dup3\n      add\n      sload\n      dup2\n      mstore\n      0x20\n      add\n      0x04\n      dup3\n      add\n      sload\n      dup2\n      mstore\n      0x20\n      add\n      0x05\n      dup3\n      add\n      sload\n      dup2\n      mstore\n      0x20\n      add\n      0x06\n      dup3\n      add\n      sload\n      dup2\n      mstore\n      0x20\n      add\n      0x07\n      dup3\n      add\n      sload\n      dup2\n      mstore\n      0x20\n      add\n      0x08\n      dup3\n      add\n      sload\n      dup2\n      mstore\n      0x20\n      add\n      0x09\n      dup3\n      add\n      sload\n      dup2\n      mstore\n      0x20\n      add\n      0x0a\n      dup3\n      add\n      sload\n      dup2\n      mstore\n      0x20\n      add\n      0x0b\n      dup3\n      add\n      sload\n      dup2\n      mstore\n      pop\n      pop\n      swap1\n      pop\n        /* \"smartContract/contracts/3_Ballot.sol\":4327:4424  function res(uint _id) public view returns(Proposal memory){... */\n      swap2\n      swap1\n      pop\n      jump\t// out\n        /* \"smartContract/contracts/3_Ballot.sol\":1037:1208  function random_district() private view returns(uint){... */\n    tag_33:\n        /* \"smartContract/contracts/3_Ballot.sol\":1085:1089  uint */\n      0x00\n        /* \"smartContract/contracts/3_Ballot.sol\":1199:1201  10 */\n      0x0a\n        /* \"smartContract/contracts/3_Ballot.sol\":1139:1154  block.timestamp */\n      timestamp\n        /* \"smartContract/contracts/3_Ballot.sol\":1155:1171  block.difficulty */\n      difficulty\n        /* \"smartContract/contracts/3_Ballot.sol\":1183:1193  msg.sender */\n      caller\n        /* \"smartContract/contracts/3_Ballot.sol\":1122:1194  abi.encodePacked(block.timestamp,block.difficulty,  ... */\n      add(0x20, mload(0x40))\n      tag_131\n      swap4\n      swap3\n      swap2\n      swap1\n      tag_132\n      jump\t// in\n    tag_131:\n      mload(0x40)\n      0x20\n      dup2\n      dup4\n      sub\n      sub\n      dup2\n      mstore\n      swap1\n      0x40\n      mstore\n        /* \"smartContract/contracts/3_Ballot.sol\":1112:1195  keccak256(abi.encodePacked(block.timestamp,block.difficulty,  ... */\n      dup1\n      mload\n      swap1\n      0x20\n      add\n      keccak256\n        /* \"smartContract/contracts/3_Ballot.sol\":1107:1196  uint(keccak256(abi.encodePacked(block.timestamp,block.difficulty,  ... */\n      0x00\n      shr\n        /* \"smartContract/contracts/3_Ballot.sol\":1107:1201  uint(keccak256(abi.encodePacked(block.timestamp,block.difficulty,  ... */\n      tag_133\n      swap2\n      swap1\n      tag_134\n      jump\t// in\n    tag_133:\n        /* \"smartContract/contracts/3_Ballot.sol\":1100:1201  return uint(keccak256(abi.encodePacked(block.timestamp,block.difficulty,  ... */\n      swap1\n      pop\n        /* \"smartContract/contracts/3_Ballot.sol\":1037:1208  function random_district() private view returns(uint){... */\n      swap1\n      jump\t// out\n        /* \"smartContract/contracts/3_Ballot.sol\":2306:2484  function random_vote() private view returns(uint){... */\n    tag_38:\n        /* \"smartContract/contracts/3_Ballot.sol\":2350:2354  uint */\n      0x00\n        /* \"smartContract/contracts/3_Ballot.sol\":2472:2473  5 */\n      0x05\n        /* \"smartContract/contracts/3_Ballot.sol\":2408:2423  block.timestamp */\n      timestamp\n        /* \"smartContract/contracts/3_Ballot.sol\":2424:2440  block.difficulty */\n      difficulty\n        /* \"smartContract/contracts/3_Ballot.sol\":2456:2466  msg.sender */\n      caller\n        /* \"smartContract/contracts/3_Ballot.sol\":2391:2467  abi.encodePacked(block.timestamp,block.difficulty,  ... */\n      add(0x20, mload(0x40))\n      tag_136\n      swap4\n      swap3\n      swap2\n      swap1\n      tag_132\n      jump\t// in\n    tag_136:\n      mload(0x40)\n      0x20\n      dup2\n      dup4\n      sub\n      sub\n      dup2\n      mstore\n      swap1\n      0x40\n      mstore\n        /* \"smartContract/contracts/3_Ballot.sol\":2381:2468  keccak256(abi.encodePacked(block.timestamp,block.difficulty,  ... */\n      dup1\n      mload\n      swap1\n      0x20\n      add\n      keccak256\n        /* \"smartContract/contracts/3_Ballot.sol\":2376:2469  uint(keccak256(abi.encodePacked(block.timestamp,block.difficulty,  ... */\n      0x00\n      shr\n        /* \"smartContract/contracts/3_Ballot.sol\":2376:2473  uint(keccak256(abi.encodePacked(block.timestamp,block.difficulty,  ... */\n      tag_137\n      swap2\n      swap1\n      tag_134\n      jump\t// in\n    tag_137:\n        /* \"smartContract/contracts/3_Ballot.sol\":2369:2473  return uint(keccak256(abi.encodePacked(block.timestamp,block.difficulty,  ... */\n      swap1\n      pop\n        /* \"smartContract/contracts/3_Ballot.sol\":2306:2484  function random_vote() private view returns(uint){... */\n      swap1\n      jump\t// out\n        /* \"smartContract/contracts/3_Ballot.sol\":2130:2189  function countVoters() private {... */\n    tag_40:\n        /* \"smartContract/contracts/3_Ballot.sol\":2181:2182  1 */\n      0x01\n        /* \"smartContract/contracts/3_Ballot.sol\":2171:2177  countV */\n      0x04\n      0x00\n        /* \"smartContract/contracts/3_Ballot.sol\":2171:2182  countV += 1 */\n      dup3\n      dup3\n      sload\n      tag_139\n      swap2\n      swap1\n      tag_140\n      jump\t// in\n    tag_139:\n      swap3\n      pop\n      pop\n      dup2\n      swap1\n      sstore\n      pop\n        /* \"smartContract/contracts/3_Ballot.sol\":2130:2189  function countVoters() private {... */\n      jump\t// out\n    tag_119:\n      mload(0x40)\n      dup1\n      0x0180\n      add\n      0x40\n      mstore\n      dup1\n      0x60\n      dup2\n      mstore\n      0x20\n      add\n      0x00\n      dup2\n      mstore\n      0x20\n      add\n      0x00\n      dup2\n      mstore\n      0x20\n      add\n      0x00\n      dup2\n      mstore\n      0x20\n      add\n      0x00\n      dup2\n      mstore\n      0x20\n      add\n      0x00\n      dup2\n      mstore\n      0x20\n      add\n      0x00\n      dup2\n      mstore\n      0x20\n      add\n      0x00\n      dup2\n      mstore\n      0x20\n      add\n      0x00\n      dup2\n      mstore\n      0x20\n      add\n      0x00\n      dup2\n      mstore\n      0x20\n      add\n      0x00\n      dup2\n      mstore\n      0x20\n      add\n      0x00\n      dup2\n      mstore\n      pop\n      swap1\n      jump\t// out\n        /* \"#utility.yul\":7:146   */\n    tag_142:\n        /* \"#utility.yul\":53:58   */\n      0x00\n        /* \"#utility.yul\":91:97   */\n      dup2\n        /* \"#utility.yul\":78:98   */\n      calldataload\n        /* \"#utility.yul\":69:98   */\n      swap1\n      pop\n        /* \"#utility.yul\":107:140   */\n      tag_144\n        /* \"#utility.yul\":134:139   */\n      dup2\n        /* \"#utility.yul\":107:140   */\n      tag_145\n      jump\t// in\n    tag_144:\n        /* \"#utility.yul\":7:146   */\n      swap3\n      swap2\n      pop\n      pop\n      jump\t// out\n        /* \"#utility.yul\":152:291   */\n    tag_146:\n        /* \"#utility.yul\":198:203   */\n      0x00\n        /* \"#utility.yul\":236:242   */\n      dup2\n        /* \"#utility.yul\":223:243   */\n      calldataload\n        /* \"#utility.yul\":214:243   */\n      swap1\n      pop\n        /* \"#utility.yul\":252:285   */\n      tag_148\n        /* \"#utility.yul\":279:284   */\n      dup2\n        /* \"#utility.yul\":252:285   */\n      tag_149\n      jump\t// in\n    tag_148:\n        /* \"#utility.yul\":152:291   */\n      swap3\n      swap2\n      pop\n      pop\n      jump\t// out\n        /* \"#utility.yul\":297:626   */\n    tag_17:\n        /* \"#utility.yul\":356:362   */\n      0x00\n        /* \"#utility.yul\":405:407   */\n      0x20\n        /* \"#utility.yul\":393:402   */\n      dup3\n        /* \"#utility.yul\":384:391   */\n      dup5\n        /* \"#utility.yul\":380:403   */\n      sub\n        /* \"#utility.yul\":376:408   */\n      slt\n        /* \"#utility.yul\":373:492   */\n      iszero\n      tag_151\n      jumpi\n        /* \"#utility.yul\":411:490   */\n      tag_152\n      tag_153\n      jump\t// in\n    tag_152:\n        /* \"#utility.yul\":373:492   */\n    tag_151:\n        /* \"#utility.yul\":531:532   */\n      0x00\n        /* \"#utility.yul\":556:609   */\n      tag_154\n        /* \"#utility.yul\":601:608   */\n      dup5\n        /* \"#utility.yul\":592:598   */\n      dup3\n        /* \"#utility.yul\":581:590   */\n      dup6\n        /* \"#utility.yul\":577:599   */\n      add\n        /* \"#utility.yul\":556:609   */\n      tag_142\n      jump\t// in\n    tag_154:\n        /* \"#utility.yul\":546:609   */\n      swap2\n      pop\n        /* \"#utility.yul\":502:619   */\n      pop\n        /* \"#utility.yul\":297:626   */\n      swap3\n      swap2\n      pop\n      pop\n      jump\t// out\n        /* \"#utility.yul\":632:961   */\n    tag_11:\n        /* \"#utility.yul\":691:697   */\n      0x00\n        /* \"#utility.yul\":740:742   */\n      0x20\n        /* \"#utility.yul\":728:737   */\n      dup3\n        /* \"#utility.yul\":719:726   */\n      dup5\n        /* \"#utility.yul\":715:738   */\n      sub\n        /* \"#utility.yul\":711:743   */\n      slt\n        /* \"#utility.yul\":708:827   */\n      iszero\n      tag_156\n      jumpi\n        /* \"#utility.yul\":746:825   */\n      tag_157\n      tag_153\n      jump\t// in\n    tag_157:\n        /* \"#utility.yul\":708:827   */\n    tag_156:\n        /* \"#utility.yul\":866:867   */\n      0x00\n        /* \"#utility.yul\":891:944   */\n      tag_158\n        /* \"#utility.yul\":936:943   */\n      dup5\n        /* \"#utility.yul\":927:933   */\n      dup3\n        /* \"#utility.yul\":916:925   */\n      dup6\n        /* \"#utility.yul\":912:934   */\n      add\n        /* \"#utility.yul\":891:944   */\n      tag_146\n      jump\t// in\n    tag_158:\n        /* \"#utility.yul\":881:944   */\n      swap2\n      pop\n        /* \"#utility.yul\":837:954   */\n      pop\n        /* \"#utility.yul\":632:961   */\n      swap3\n      swap2\n      pop\n      pop\n      jump\t// out\n        /* \"#utility.yul\":967:1124   */\n    tag_159:\n        /* \"#utility.yul\":1072:1117   */\n      tag_161\n        /* \"#utility.yul\":1092:1116   */\n      tag_162\n        /* \"#utility.yul\":1110:1115   */\n      dup3\n        /* \"#utility.yul\":1092:1116   */\n      tag_163\n      jump\t// in\n    tag_162:\n        /* \"#utility.yul\":1072:1117   */\n      tag_164\n      jump\t// in\n    tag_161:\n        /* \"#utility.yul\":1067:1070   */\n      dup3\n        /* \"#utility.yul\":1060:1118   */\n      mstore\n        /* \"#utility.yul\":967:1124   */\n      pop\n      pop\n      jump\t// out\n        /* \"#utility.yul\":1130:1239   */\n    tag_165:\n        /* \"#utility.yul\":1211:1232   */\n      tag_167\n        /* \"#utility.yul\":1226:1231   */\n      dup2\n        /* \"#utility.yul\":1211:1232   */\n      tag_168\n      jump\t// in\n    tag_167:\n        /* \"#utility.yul\":1206:1209   */\n      dup3\n        /* \"#utility.yul\":1199:1233   */\n      mstore\n        /* \"#utility.yul\":1130:1239   */\n      pop\n      pop\n      jump\t// out\n        /* \"#utility.yul\":1245:1589   */\n    tag_169:\n        /* \"#utility.yul\":1323:1326   */\n      0x00\n        /* \"#utility.yul\":1351:1390   */\n      tag_171\n        /* \"#utility.yul\":1384:1389   */\n      dup3\n        /* \"#utility.yul\":1351:1390   */\n      tag_172\n      jump\t// in\n    tag_171:\n        /* \"#utility.yul\":1406:1467   */\n      tag_173\n        /* \"#utility.yul\":1460:1466   */\n      dup2\n        /* \"#utility.yul\":1455:1458   */\n      dup6\n        /* \"#utility.yul\":1406:1467   */\n      tag_174\n      jump\t// in\n    tag_173:\n        /* \"#utility.yul\":1399:1467   */\n      swap4\n      pop\n        /* \"#utility.yul\":1476:1528   */\n      tag_175\n        /* \"#utility.yul\":1521:1527   */\n      dup2\n        /* \"#utility.yul\":1516:1519   */\n      dup6\n        /* \"#utility.yul\":1509:1513   */\n      0x20\n        /* \"#utility.yul\":1502:1507   */\n      dup7\n        /* \"#utility.yul\":1498:1514   */\n      add\n        /* \"#utility.yul\":1476:1528   */\n      tag_176\n      jump\t// in\n    tag_175:\n        /* \"#utility.yul\":1553:1582   */\n      tag_177\n        /* \"#utility.yul\":1575:1581   */\n      dup2\n        /* \"#utility.yul\":1553:1582   */\n      tag_178\n      jump\t// in\n    tag_177:\n        /* \"#utility.yul\":1548:1551   */\n      dup5\n        /* \"#utility.yul\":1544:1583   */\n      add\n        /* \"#utility.yul\":1537:1583   */\n      swap2\n      pop\n        /* \"#utility.yul\":1327:1589   */\n      pop\n        /* \"#utility.yul\":1245:1589   */\n      swap3\n      swap2\n      pop\n      pop\n      jump\t// out\n        /* \"#utility.yul\":1595:1961   */\n    tag_179:\n        /* \"#utility.yul\":1737:1740   */\n      0x00\n        /* \"#utility.yul\":1758:1825   */\n      tag_181\n        /* \"#utility.yul\":1822:1824   */\n      0x0e\n        /* \"#utility.yul\":1817:1820   */\n      dup4\n        /* \"#utility.yul\":1758:1825   */\n      tag_182\n      jump\t// in\n    tag_181:\n        /* \"#utility.yul\":1751:1825   */\n      swap2\n      pop\n        /* \"#utility.yul\":1834:1927   */\n      tag_183\n        /* \"#utility.yul\":1923:1926   */\n      dup3\n        /* \"#utility.yul\":1834:1927   */\n      tag_184\n      jump\t// in\n    tag_183:\n        /* \"#utility.yul\":1952:1954   */\n      0x20\n        /* \"#utility.yul\":1947:1950   */\n      dup3\n        /* \"#utility.yul\":1943:1955   */\n      add\n        /* \"#utility.yul\":1936:1955   */\n      swap1\n      pop\n        /* \"#utility.yul\":1595:1961   */\n      swap2\n      swap1\n      pop\n      jump\t// out\n        /* \"#utility.yul\":1967:2333   */\n    tag_185:\n        /* \"#utility.yul\":2109:2112   */\n      0x00\n        /* \"#utility.yul\":2130:2197   */\n      tag_187\n        /* \"#utility.yul\":2194:2196   */\n      0x18\n        /* \"#utility.yul\":2189:2192   */\n      dup4\n        /* \"#utility.yul\":2130:2197   */\n      tag_182\n      jump\t// in\n    tag_187:\n        /* \"#utility.yul\":2123:2197   */\n      swap2\n      pop\n        /* \"#utility.yul\":2206:2299   */\n      tag_188\n        /* \"#utility.yul\":2295:2298   */\n      dup3\n        /* \"#utility.yul\":2206:2299   */\n      tag_189\n      jump\t// in\n    tag_188:\n        /* \"#utility.yul\":2324:2326   */\n      0x20\n        /* \"#utility.yul\":2319:2322   */\n      dup3\n        /* \"#utility.yul\":2315:2327   */\n      add\n        /* \"#utility.yul\":2308:2327   */\n      swap1\n      pop\n        /* \"#utility.yul\":1967:2333   */\n      swap2\n      swap1\n      pop\n      jump\t// out\n        /* \"#utility.yul\":2339:2705   */\n    tag_190:\n        /* \"#utility.yul\":2481:2484   */\n      0x00\n        /* \"#utility.yul\":2502:2569   */\n      tag_192\n        /* \"#utility.yul\":2566:2568   */\n      0x13\n        /* \"#utility.yul\":2561:2564   */\n      dup4\n        /* \"#utility.yul\":2502:2569   */\n      tag_182\n      jump\t// in\n    tag_192:\n        /* \"#utility.yul\":2495:2569   */\n      swap2\n      pop\n        /* \"#utility.yul\":2578:2671   */\n      tag_193\n        /* \"#utility.yul\":2667:2670   */\n      dup3\n        /* \"#utility.yul\":2578:2671   */\n      tag_194\n      jump\t// in\n    tag_193:\n        /* \"#utility.yul\":2696:2698   */\n      0x20\n        /* \"#utility.yul\":2691:2694   */\n      dup3\n        /* \"#utility.yul\":2687:2699   */\n      add\n        /* \"#utility.yul\":2680:2699   */\n      swap1\n      pop\n        /* \"#utility.yul\":2339:2705   */\n      swap2\n      swap1\n      pop\n      jump\t// out\n        /* \"#utility.yul\":2767:5246   */\n    tag_195:\n        /* \"#utility.yul\":2884:2887   */\n      0x00\n        /* \"#utility.yul\":2920:2926   */\n      0x0180\n        /* \"#utility.yul\":2915:2918   */\n      dup4\n        /* \"#utility.yul\":2911:2927   */\n      add\n        /* \"#utility.yul\":3009:3013   */\n      0x00\n        /* \"#utility.yul\":3002:3007   */\n      dup4\n        /* \"#utility.yul\":2998:3014   */\n      add\n        /* \"#utility.yul\":2992:3015   */\n      mload\n        /* \"#utility.yul\":3062:3065   */\n      dup5\n        /* \"#utility.yul\":3056:3060   */\n      dup3\n        /* \"#utility.yul\":3052:3066   */\n      sub\n        /* \"#utility.yul\":3045:3049   */\n      0x00\n        /* \"#utility.yul\":3040:3043   */\n      dup7\n        /* \"#utility.yul\":3036:3050   */\n      add\n        /* \"#utility.yul\":3029:3067   */\n      mstore\n        /* \"#utility.yul\":3088:3161   */\n      tag_197\n        /* \"#utility.yul\":3156:3160   */\n      dup3\n        /* \"#utility.yul\":3142:3154   */\n      dup3\n        /* \"#utility.yul\":3088:3161   */\n      tag_169\n      jump\t// in\n    tag_197:\n        /* \"#utility.yul\":3080:3161   */\n      swap2\n      pop\n        /* \"#utility.yul\":2937:3172   */\n      pop\n        /* \"#utility.yul\":3261:3265   */\n      0x20\n        /* \"#utility.yul\":3254:3259   */\n      dup4\n        /* \"#utility.yul\":3250:3266   */\n      add\n        /* \"#utility.yul\":3244:3267   */\n      mload\n        /* \"#utility.yul\":3280:3343   */\n      tag_198\n        /* \"#utility.yul\":3337:3341   */\n      0x20\n        /* \"#utility.yul\":3332:3335   */\n      dup7\n        /* \"#utility.yul\":3328:3342   */\n      add\n        /* \"#utility.yul\":3314:3326   */\n      dup3\n        /* \"#utility.yul\":3280:3343   */\n      tag_199\n      jump\t// in\n    tag_198:\n        /* \"#utility.yul\":3182:3353   */\n      pop\n        /* \"#utility.yul\":3446:3450   */\n      0x40\n        /* \"#utility.yul\":3439:3444   */\n      dup4\n        /* \"#utility.yul\":3435:3451   */\n      add\n        /* \"#utility.yul\":3429:3452   */\n      mload\n        /* \"#utility.yul\":3465:3528   */\n      tag_200\n        /* \"#utility.yul\":3522:3526   */\n      0x40\n        /* \"#utility.yul\":3517:3520   */\n      dup7\n        /* \"#utility.yul\":3513:3527   */\n      add\n        /* \"#utility.yul\":3499:3511   */\n      dup3\n        /* \"#utility.yul\":3465:3528   */\n      tag_199\n      jump\t// in\n    tag_200:\n        /* \"#utility.yul\":3363:3538   */\n      pop\n        /* \"#utility.yul\":3631:3635   */\n      0x60\n        /* \"#utility.yul\":3624:3629   */\n      dup4\n        /* \"#utility.yul\":3620:3636   */\n      add\n        /* \"#utility.yul\":3614:3637   */\n      mload\n        /* \"#utility.yul\":3650:3713   */\n      tag_201\n        /* \"#utility.yul\":3707:3711   */\n      0x60\n        /* \"#utility.yul\":3702:3705   */\n      dup7\n        /* \"#utility.yul\":3698:3712   */\n      add\n        /* \"#utility.yul\":3684:3696   */\n      dup3\n        /* \"#utility.yul\":3650:3713   */\n      tag_199\n      jump\t// in\n    tag_201:\n        /* \"#utility.yul\":3548:3723   */\n      pop\n        /* \"#utility.yul\":3816:3820   */\n      0x80\n        /* \"#utility.yul\":3809:3814   */\n      dup4\n        /* \"#utility.yul\":3805:3821   */\n      add\n        /* \"#utility.yul\":3799:3822   */\n      mload\n        /* \"#utility.yul\":3835:3898   */\n      tag_202\n        /* \"#utility.yul\":3892:3896   */\n      0x80\n        /* \"#utility.yul\":3887:3890   */\n      dup7\n        /* \"#utility.yul\":3883:3897   */\n      add\n        /* \"#utility.yul\":3869:3881   */\n      dup3\n        /* \"#utility.yul\":3835:3898   */\n      tag_199\n      jump\t// in\n    tag_202:\n        /* \"#utility.yul\":3733:3908   */\n      pop\n        /* \"#utility.yul\":4001:4005   */\n      0xa0\n        /* \"#utility.yul\":3994:3999   */\n      dup4\n        /* \"#utility.yul\":3990:4006   */\n      add\n        /* \"#utility.yul\":3984:4007   */\n      mload\n        /* \"#utility.yul\":4020:4083   */\n      tag_203\n        /* \"#utility.yul\":4077:4081   */\n      0xa0\n        /* \"#utility.yul\":4072:4075   */\n      dup7\n        /* \"#utility.yul\":4068:4082   */\n      add\n        /* \"#utility.yul\":4054:4066   */\n      dup3\n        /* \"#utility.yul\":4020:4083   */\n      tag_199\n      jump\t// in\n    tag_203:\n        /* \"#utility.yul\":3918:4093   */\n      pop\n        /* \"#utility.yul\":4186:4190   */\n      0xc0\n        /* \"#utility.yul\":4179:4184   */\n      dup4\n        /* \"#utility.yul\":4175:4191   */\n      add\n        /* \"#utility.yul\":4169:4192   */\n      mload\n        /* \"#utility.yul\":4205:4268   */\n      tag_204\n        /* \"#utility.yul\":4262:4266   */\n      0xc0\n        /* \"#utility.yul\":4257:4260   */\n      dup7\n        /* \"#utility.yul\":4253:4267   */\n      add\n        /* \"#utility.yul\":4239:4251   */\n      dup3\n        /* \"#utility.yul\":4205:4268   */\n      tag_199\n      jump\t// in\n    tag_204:\n        /* \"#utility.yul\":4103:4278   */\n      pop\n        /* \"#utility.yul\":4371:4375   */\n      0xe0\n        /* \"#utility.yul\":4364:4369   */\n      dup4\n        /* \"#utility.yul\":4360:4376   */\n      add\n        /* \"#utility.yul\":4354:4377   */\n      mload\n        /* \"#utility.yul\":4390:4453   */\n      tag_205\n        /* \"#utility.yul\":4447:4451   */\n      0xe0\n        /* \"#utility.yul\":4442:4445   */\n      dup7\n        /* \"#utility.yul\":4438:4452   */\n      add\n        /* \"#utility.yul\":4424:4436   */\n      dup3\n        /* \"#utility.yul\":4390:4453   */\n      tag_199\n      jump\t// in\n    tag_205:\n        /* \"#utility.yul\":4288:4463   */\n      pop\n        /* \"#utility.yul\":4556:4562   */\n      0x0100\n        /* \"#utility.yul\":4549:4554   */\n      dup4\n        /* \"#utility.yul\":4545:4563   */\n      add\n        /* \"#utility.yul\":4539:4564   */\n      mload\n        /* \"#utility.yul\":4577:4642   */\n      tag_206\n        /* \"#utility.yul\":4634:4640   */\n      0x0100\n        /* \"#utility.yul\":4629:4632   */\n      dup7\n        /* \"#utility.yul\":4625:4641   */\n      add\n        /* \"#utility.yul\":4611:4623   */\n      dup3\n        /* \"#utility.yul\":4577:4642   */\n      tag_199\n      jump\t// in\n    tag_206:\n        /* \"#utility.yul\":4473:4652   */\n      pop\n        /* \"#utility.yul\":4745:4751   */\n      0x0120\n        /* \"#utility.yul\":4738:4743   */\n      dup4\n        /* \"#utility.yul\":4734:4752   */\n      add\n        /* \"#utility.yul\":4728:4753   */\n      mload\n        /* \"#utility.yul\":4766:4831   */\n      tag_207\n        /* \"#utility.yul\":4823:4829   */\n      0x0120\n        /* \"#utility.yul\":4818:4821   */\n      dup7\n        /* \"#utility.yul\":4814:4830   */\n      add\n        /* \"#utility.yul\":4800:4812   */\n      dup3\n        /* \"#utility.yul\":4766:4831   */\n      tag_199\n      jump\t// in\n    tag_207:\n        /* \"#utility.yul\":4662:4841   */\n      pop\n        /* \"#utility.yul\":4934:4940   */\n      0x0140\n        /* \"#utility.yul\":4927:4932   */\n      dup4\n        /* \"#utility.yul\":4923:4941   */\n      add\n        /* \"#utility.yul\":4917:4942   */\n      mload\n        /* \"#utility.yul\":4955:5020   */\n      tag_208\n        /* \"#utility.yul\":5012:5018   */\n      0x0140\n        /* \"#utility.yul\":5007:5010   */\n      dup7\n        /* \"#utility.yul\":5003:5019   */\n      add\n        /* \"#utility.yul\":4989:5001   */\n      dup3\n        /* \"#utility.yul\":4955:5020   */\n      tag_199\n      jump\t// in\n    tag_208:\n        /* \"#utility.yul\":4851:5030   */\n      pop\n        /* \"#utility.yul\":5123:5129   */\n      0x0160\n        /* \"#utility.yul\":5116:5121   */\n      dup4\n        /* \"#utility.yul\":5112:5130   */\n      add\n        /* \"#utility.yul\":5106:5131   */\n      mload\n        /* \"#utility.yul\":5144:5209   */\n      tag_209\n        /* \"#utility.yul\":5201:5207   */\n      0x0160\n        /* \"#utility.yul\":5196:5199   */\n      dup7\n        /* \"#utility.yul\":5192:5208   */\n      add\n        /* \"#utility.yul\":5178:5190   */\n      dup3\n        /* \"#utility.yul\":5144:5209   */\n      tag_199\n      jump\t// in\n    tag_209:\n        /* \"#utility.yul\":5040:5219   */\n      pop\n        /* \"#utility.yul\":5236:5240   */\n      dup1\n        /* \"#utility.yul\":5229:5240   */\n      swap2\n      pop\n        /* \"#utility.yul\":2889:5246   */\n      pop\n        /* \"#utility.yul\":2767:5246   */\n      swap3\n      swap2\n      pop\n      pop\n      jump\t// out\n        /* \"#utility.yul\":5252:5360   */\n    tag_199:\n        /* \"#utility.yul\":5329:5353   */\n      tag_211\n        /* \"#utility.yul\":5347:5352   */\n      dup2\n        /* \"#utility.yul\":5329:5353   */\n      tag_212\n      jump\t// in\n    tag_211:\n        /* \"#utility.yul\":5324:5327   */\n      dup3\n        /* \"#utility.yul\":5317:5354   */\n      mstore\n        /* \"#utility.yul\":5252:5360   */\n      pop\n      pop\n      jump\t// out\n        /* \"#utility.yul\":5366:5484   */\n    tag_213:\n        /* \"#utility.yul\":5453:5477   */\n      tag_215\n        /* \"#utility.yul\":5471:5476   */\n      dup2\n        /* \"#utility.yul\":5453:5477   */\n      tag_212\n      jump\t// in\n    tag_215:\n        /* \"#utility.yul\":5448:5451   */\n      dup3\n        /* \"#utility.yul\":5441:5478   */\n      mstore\n        /* \"#utility.yul\":5366:5484   */\n      pop\n      pop\n      jump\t// out\n        /* \"#utility.yul\":5490:5647   */\n    tag_216:\n        /* \"#utility.yul\":5595:5640   */\n      tag_218\n        /* \"#utility.yul\":5615:5639   */\n      tag_219\n        /* \"#utility.yul\":5633:5638   */\n      dup3\n        /* \"#utility.yul\":5615:5639   */\n      tag_212\n      jump\t// in\n    tag_219:\n        /* \"#utility.yul\":5595:5640   */\n      tag_220\n      jump\t// in\n    tag_218:\n        /* \"#utility.yul\":5590:5593   */\n      dup3\n        /* \"#utility.yul\":5583:5641   */\n      mstore\n        /* \"#utility.yul\":5490:5647   */\n      pop\n      pop\n      jump\t// out\n        /* \"#utility.yul\":5653:6191   */\n    tag_132:\n        /* \"#utility.yul\":5821:5824   */\n      0x00\n        /* \"#utility.yul\":5836:5911   */\n      tag_222\n        /* \"#utility.yul\":5907:5910   */\n      dup3\n        /* \"#utility.yul\":5898:5904   */\n      dup7\n        /* \"#utility.yul\":5836:5911   */\n      tag_216\n      jump\t// in\n    tag_222:\n        /* \"#utility.yul\":5936:5938   */\n      0x20\n        /* \"#utility.yul\":5931:5934   */\n      dup3\n        /* \"#utility.yul\":5927:5939   */\n      add\n        /* \"#utility.yul\":5920:5939   */\n      swap2\n      pop\n        /* \"#utility.yul\":5949:6024   */\n      tag_223\n        /* \"#utility.yul\":6020:6023   */\n      dup3\n        /* \"#utility.yul\":6011:6017   */\n      dup6\n        /* \"#utility.yul\":5949:6024   */\n      tag_216\n      jump\t// in\n    tag_223:\n        /* \"#utility.yul\":6049:6051   */\n      0x20\n        /* \"#utility.yul\":6044:6047   */\n      dup3\n        /* \"#utility.yul\":6040:6052   */\n      add\n        /* \"#utility.yul\":6033:6052   */\n      swap2\n      pop\n        /* \"#utility.yul\":6062:6137   */\n      tag_224\n        /* \"#utility.yul\":6133:6136   */\n      dup3\n        /* \"#utility.yul\":6124:6130   */\n      dup5\n        /* \"#utility.yul\":6062:6137   */\n      tag_159\n      jump\t// in\n    tag_224:\n        /* \"#utility.yul\":6162:6164   */\n      0x14\n        /* \"#utility.yul\":6157:6160   */\n      dup3\n        /* \"#utility.yul\":6153:6165   */\n      add\n        /* \"#utility.yul\":6146:6165   */\n      swap2\n      pop\n        /* \"#utility.yul\":6182:6185   */\n      dup2\n        /* \"#utility.yul\":6175:6185   */\n      swap1\n      pop\n        /* \"#utility.yul\":5653:6191   */\n      swap5\n      swap4\n      pop\n      pop\n      pop\n      pop\n      jump\t// out\n        /* \"#utility.yul\":6197:6616   */\n    tag_36:\n        /* \"#utility.yul\":6363:6367   */\n      0x00\n        /* \"#utility.yul\":6401:6403   */\n      0x20\n        /* \"#utility.yul\":6390:6399   */\n      dup3\n        /* \"#utility.yul\":6386:6404   */\n      add\n        /* \"#utility.yul\":6378:6404   */\n      swap1\n      pop\n        /* \"#utility.yul\":6450:6459   */\n      dup2\n        /* \"#utility.yul\":6444:6448   */\n      dup2\n        /* \"#utility.yul\":6440:6460   */\n      sub\n        /* \"#utility.yul\":6436:6437   */\n      0x00\n        /* \"#utility.yul\":6425:6434   */\n      dup4\n        /* \"#utility.yul\":6421:6438   */\n      add\n        /* \"#utility.yul\":6414:6461   */\n      mstore\n        /* \"#utility.yul\":6478:6609   */\n      tag_226\n        /* \"#utility.yul\":6604:6608   */\n      dup2\n        /* \"#utility.yul\":6478:6609   */\n      tag_179\n      jump\t// in\n    tag_226:\n        /* \"#utility.yul\":6470:6609   */\n      swap1\n      pop\n        /* \"#utility.yul\":6197:6616   */\n      swap2\n      swap1\n      pop\n      jump\t// out\n        /* \"#utility.yul\":6622:7041   */\n    tag_28:\n        /* \"#utility.yul\":6788:6792   */\n      0x00\n        /* \"#utility.yul\":6826:6828   */\n      0x20\n        /* \"#utility.yul\":6815:6824   */\n      dup3\n        /* \"#utility.yul\":6811:6829   */\n      add\n        /* \"#utility.yul\":6803:6829   */\n      swap1\n      pop\n        /* \"#utility.yul\":6875:6884   */\n      dup2\n        /* \"#utility.yul\":6869:6873   */\n      dup2\n        /* \"#utility.yul\":6865:6885   */\n      sub\n        /* \"#utility.yul\":6861:6862   */\n      0x00\n        /* \"#utility.yul\":6850:6859   */\n      dup4\n        /* \"#utility.yul\":6846:6863   */\n      add\n        /* \"#utility.yul\":6839:6886   */\n      mstore\n        /* \"#utility.yul\":6903:7034   */\n      tag_228\n        /* \"#utility.yul\":7029:7033   */\n      dup2\n        /* \"#utility.yul\":6903:7034   */\n      tag_185\n      jump\t// in\n    tag_228:\n        /* \"#utility.yul\":6895:7034   */\n      swap1\n      pop\n        /* \"#utility.yul\":6622:7041   */\n      swap2\n      swap1\n      pop\n      jump\t// out\n        /* \"#utility.yul\":7047:7466   */\n    tag_31:\n        /* \"#utility.yul\":7213:7217   */\n      0x00\n        /* \"#utility.yul\":7251:7253   */\n      0x20\n        /* \"#utility.yul\":7240:7249   */\n      dup3\n        /* \"#utility.yul\":7236:7254   */\n      add\n        /* \"#utility.yul\":7228:7254   */\n      swap1\n      pop\n        /* \"#utility.yul\":7300:7309   */\n      dup2\n        /* \"#utility.yul\":7294:7298   */\n      dup2\n        /* \"#utility.yul\":7290:7310   */\n      sub\n        /* \"#utility.yul\":7286:7287   */\n      0x00\n        /* \"#utility.yul\":7275:7284   */\n      dup4\n        /* \"#utility.yul\":7271:7288   */\n      add\n        /* \"#utility.yul\":7264:7311   */\n      mstore\n        /* \"#utility.yul\":7328:7459   */\n      tag_230\n        /* \"#utility.yul\":7454:7458   */\n      dup2\n        /* \"#utility.yul\":7328:7459   */\n      tag_190\n      jump\t// in\n    tag_230:\n        /* \"#utility.yul\":7320:7459   */\n      swap1\n      pop\n        /* \"#utility.yul\":7047:7466   */\n      swap2\n      swap1\n      pop\n      jump\t// out\n        /* \"#utility.yul\":7472:7841   */\n    tag_24:\n        /* \"#utility.yul\":7613:7617   */\n      0x00\n        /* \"#utility.yul\":7651:7653   */\n      0x20\n        /* \"#utility.yul\":7640:7649   */\n      dup3\n        /* \"#utility.yul\":7636:7654   */\n      add\n        /* \"#utility.yul\":7628:7654   */\n      swap1\n      pop\n        /* \"#utility.yul\":7700:7709   */\n      dup2\n        /* \"#utility.yul\":7694:7698   */\n      dup2\n        /* \"#utility.yul\":7690:7710   */\n      sub\n        /* \"#utility.yul\":7686:7687   */\n      0x00\n        /* \"#utility.yul\":7675:7684   */\n      dup4\n        /* \"#utility.yul\":7671:7688   */\n      add\n        /* \"#utility.yul\":7664:7711   */\n      mstore\n        /* \"#utility.yul\":7728:7834   */\n      tag_232\n        /* \"#utility.yul\":7829:7833   */\n      dup2\n        /* \"#utility.yul\":7820:7826   */\n      dup5\n        /* \"#utility.yul\":7728:7834   */\n      tag_195\n      jump\t// in\n    tag_232:\n        /* \"#utility.yul\":7720:7834   */\n      swap1\n      pop\n        /* \"#utility.yul\":7472:7841   */\n      swap3\n      swap2\n      pop\n      pop\n      jump\t// out\n        /* \"#utility.yul\":7847:8388   */\n    tag_14:\n        /* \"#utility.yul\":8018:8022   */\n      0x00\n        /* \"#utility.yul\":8056:8059   */\n      0x80\n        /* \"#utility.yul\":8045:8054   */\n      dup3\n        /* \"#utility.yul\":8041:8060   */\n      add\n        /* \"#utility.yul\":8033:8060   */\n      swap1\n      pop\n        /* \"#utility.yul\":8070:8141   */\n      tag_234\n        /* \"#utility.yul\":8138:8139   */\n      0x00\n        /* \"#utility.yul\":8127:8136   */\n      dup4\n        /* \"#utility.yul\":8123:8140   */\n      add\n        /* \"#utility.yul\":8114:8120   */\n      dup8\n        /* \"#utility.yul\":8070:8141   */\n      tag_213\n      jump\t// in\n    tag_234:\n        /* \"#utility.yul\":8151:8217   */\n      tag_235\n        /* \"#utility.yul\":8213:8215   */\n      0x20\n        /* \"#utility.yul\":8202:8211   */\n      dup4\n        /* \"#utility.yul\":8198:8216   */\n      add\n        /* \"#utility.yul\":8189:8195   */\n      dup7\n        /* \"#utility.yul\":8151:8217   */\n      tag_165\n      jump\t// in\n    tag_235:\n        /* \"#utility.yul\":8227:8299   */\n      tag_236\n        /* \"#utility.yul\":8295:8297   */\n      0x40\n        /* \"#utility.yul\":8284:8293   */\n      dup4\n        /* \"#utility.yul\":8280:8298   */\n      add\n        /* \"#utility.yul\":8271:8277   */\n      dup6\n        /* \"#utility.yul\":8227:8299   */\n      tag_213\n      jump\t// in\n    tag_236:\n        /* \"#utility.yul\":8309:8381   */\n      tag_237\n        /* \"#utility.yul\":8377:8379   */\n      0x60\n        /* \"#utility.yul\":8366:8375   */\n      dup4\n        /* \"#utility.yul\":8362:8380   */\n      add\n        /* \"#utility.yul\":8353:8359   */\n      dup5\n        /* \"#utility.yul\":8309:8381   */\n      tag_213\n      jump\t// in\n    tag_237:\n        /* \"#utility.yul\":7847:8388   */\n      swap6\n      swap5\n      pop\n      pop\n      pop\n      pop\n      pop\n      jump\t// out\n        /* \"#utility.yul\":8475:8574   */\n    tag_172:\n        /* \"#utility.yul\":8527:8533   */\n      0x00\n        /* \"#utility.yul\":8561:8566   */\n      dup2\n        /* \"#utility.yul\":8555:8567   */\n      mload\n        /* \"#utility.yul\":8545:8567   */\n      swap1\n      pop\n        /* \"#utility.yul\":8475:8574   */\n      swap2\n      swap1\n      pop\n      jump\t// out\n        /* \"#utility.yul\":8580:8739   */\n    tag_174:\n        /* \"#utility.yul\":8654:8665   */\n      0x00\n        /* \"#utility.yul\":8688:8694   */\n      dup3\n        /* \"#utility.yul\":8683:8686   */\n      dup3\n        /* \"#utility.yul\":8676:8695   */\n      mstore\n        /* \"#utility.yul\":8728:8732   */\n      0x20\n        /* \"#utility.yul\":8723:8726   */\n      dup3\n        /* \"#utility.yul\":8719:8733   */\n      add\n        /* \"#utility.yul\":8704:8733   */\n      swap1\n      pop\n        /* \"#utility.yul\":8580:8739   */\n      swap3\n      swap2\n      pop\n      pop\n      jump\t// out\n        /* \"#utility.yul\":8745:8914   */\n    tag_182:\n        /* \"#utility.yul\":8829:8840   */\n      0x00\n        /* \"#utility.yul\":8863:8869   */\n      dup3\n        /* \"#utility.yul\":8858:8861   */\n      dup3\n        /* \"#utility.yul\":8851:8870   */\n      mstore\n        /* \"#utility.yul\":8903:8907   */\n      0x20\n        /* \"#utility.yul\":8898:8901   */\n      dup3\n        /* \"#utility.yul\":8894:8908   */\n      add\n        /* \"#utility.yul\":8879:8908   */\n      swap1\n      pop\n        /* \"#utility.yul\":8745:8914   */\n      swap3\n      swap2\n      pop\n      pop\n      jump\t// out\n        /* \"#utility.yul\":8920:9445   */\n    tag_140:\n        /* \"#utility.yul\":8959:8962   */\n      0x00\n        /* \"#utility.yul\":8978:8997   */\n      tag_244\n        /* \"#utility.yul\":8995:8996   */\n      dup3\n        /* \"#utility.yul\":8978:8997   */\n      tag_245\n      jump\t// in\n    tag_244:\n        /* \"#utility.yul\":8973:8997   */\n      swap2\n      pop\n        /* \"#utility.yul\":9011:9030   */\n      tag_246\n        /* \"#utility.yul\":9028:9029   */\n      dup4\n        /* \"#utility.yul\":9011:9030   */\n      tag_245\n      jump\t// in\n    tag_246:\n        /* \"#utility.yul\":9006:9030   */\n      swap3\n      pop\n        /* \"#utility.yul\":9199:9200   */\n      dup2\n        /* \"#utility.yul\":9131:9197   */\n      0x7fffffffffffffffffffffffffffffffffffffffffffffffffffffffffffffff\n        /* \"#utility.yul\":9127:9201   */\n      sub\n        /* \"#utility.yul\":9124:9125   */\n      dup4\n        /* \"#utility.yul\":9120:9202   */\n      sgt\n        /* \"#utility.yul\":9115:9116   */\n      0x00\n        /* \"#utility.yul\":9112:9113   */\n      dup4\n        /* \"#utility.yul\":9108:9117   */\n      slt\n        /* \"#utility.yul\":9101:9118   */\n      iszero\n        /* \"#utility.yul\":9097:9203   */\n      and\n        /* \"#utility.yul\":9094:9226   */\n      iszero\n      tag_247\n      jumpi\n        /* \"#utility.yul\":9206:9224   */\n      tag_248\n      tag_249\n      jump\t// in\n    tag_248:\n        /* \"#utility.yul\":9094:9226   */\n    tag_247:\n        /* \"#utility.yul\":9386:9387   */\n      dup2\n        /* \"#utility.yul\":9318:9384   */\n      0x8000000000000000000000000000000000000000000000000000000000000000\n        /* \"#utility.yul\":9314:9388   */\n      sub\n        /* \"#utility.yul\":9311:9312   */\n      dup4\n        /* \"#utility.yul\":9307:9389   */\n      slt\n        /* \"#utility.yul\":9303:9304   */\n      0x00\n        /* \"#utility.yul\":9300:9301   */\n      dup4\n        /* \"#utility.yul\":9296:9305   */\n      slt\n        /* \"#utility.yul\":9292:9390   */\n      and\n        /* \"#utility.yul\":9289:9413   */\n      iszero\n      tag_250\n      jumpi\n        /* \"#utility.yul\":9393:9411   */\n      tag_251\n      tag_249\n      jump\t// in\n    tag_251:\n        /* \"#utility.yul\":9289:9413   */\n    tag_250:\n        /* \"#utility.yul\":9437:9438   */\n      dup3\n        /* \"#utility.yul\":9434:9435   */\n      dup3\n        /* \"#utility.yul\":9430:9439   */\n      add\n        /* \"#utility.yul\":9423:9439   */\n      swap1\n      pop\n        /* \"#utility.yul\":8920:9445   */\n      swap3\n      swap2\n      pop\n      pop\n      jump\t// out\n        /* \"#utility.yul\":9451:9756   */\n    tag_47:\n        /* \"#utility.yul\":9491:9494   */\n      0x00\n        /* \"#utility.yul\":9510:9530   */\n      tag_253\n        /* \"#utility.yul\":9528:9529   */\n      dup3\n        /* \"#utility.yul\":9510:9530   */\n      tag_212\n      jump\t// in\n    tag_253:\n        /* \"#utility.yul\":9505:9530   */\n      swap2\n      pop\n        /* \"#utility.yul\":9544:9564   */\n      tag_254\n        /* \"#utility.yul\":9562:9563   */\n      dup4\n        /* \"#utility.yul\":9544:9564   */\n      tag_212\n      jump\t// in\n    tag_254:\n        /* \"#utility.yul\":9539:9564   */\n      swap3\n      pop\n        /* \"#utility.yul\":9698:9699   */\n      dup3\n        /* \"#utility.yul\":9630:9696   */\n      0xffffffffffffffffffffffffffffffffffffffffffffffffffffffffffffffff\n        /* \"#utility.yul\":9626:9700   */\n      sub\n        /* \"#utility.yul\":9623:9624   */\n      dup3\n        /* \"#utility.yul\":9620:9701   */\n      gt\n        /* \"#utility.yul\":9617:9724   */\n      iszero\n      tag_255\n      jumpi\n        /* \"#utility.yul\":9704:9722   */\n      tag_256\n      tag_249\n      jump\t// in\n    tag_256:\n        /* \"#utility.yul\":9617:9724   */\n    tag_255:\n        /* \"#utility.yul\":9748:9749   */\n      dup3\n        /* \"#utility.yul\":9745:9746   */\n      dup3\n        /* \"#utility.yul\":9741:9750   */\n      add\n        /* \"#utility.yul\":9734:9750   */\n      swap1\n      pop\n        /* \"#utility.yul\":9451:9756   */\n      swap3\n      swap2\n      pop\n      pop\n      jump\t// out\n        /* \"#utility.yul\":9762:9858   */\n    tag_163:\n        /* \"#utility.yul\":9799:9806   */\n      0x00\n        /* \"#utility.yul\":9828:9852   */\n      tag_258\n        /* \"#utility.yul\":9846:9851   */\n      dup3\n        /* \"#utility.yul\":9828:9852   */\n      tag_259\n      jump\t// in\n    tag_258:\n        /* \"#utility.yul\":9817:9852   */\n      swap1\n      pop\n        /* \"#utility.yul\":9762:9858   */\n      swap2\n      swap1\n      pop\n      jump\t// out\n        /* \"#utility.yul\":9864:9954   */\n    tag_168:\n        /* \"#utility.yul\":9898:9905   */\n      0x00\n        /* \"#utility.yul\":9941:9946   */\n      dup2\n        /* \"#utility.yul\":9934:9947   */\n      iszero\n        /* \"#utility.yul\":9927:9948   */\n      iszero\n        /* \"#utility.yul\":9916:9948   */\n      swap1\n      pop\n        /* \"#utility.yul\":9864:9954   */\n      swap2\n      swap1\n      pop\n      jump\t// out\n        /* \"#utility.yul\":9960:10036   */\n    tag_245:\n        /* \"#utility.yul\":9996:10003   */\n      0x00\n        /* \"#utility.yul\":10025:10030   */\n      dup2\n        /* \"#utility.yul\":10014:10030   */\n      swap1\n      pop\n        /* \"#utility.yul\":9960:10036   */\n      swap2\n      swap1\n      pop\n      jump\t// out\n        /* \"#utility.yul\":10042:10168   */\n    tag_259:\n        /* \"#utility.yul\":10079:10086   */\n      0x00\n        /* \"#utility.yul\":10119:10161   */\n      0xffffffffffffffffffffffffffffffffffffffff\n        /* \"#utility.yul\":10112:10117   */\n      dup3\n        /* \"#utility.yul\":10108:10162   */\n      and\n        /* \"#utility.yul\":10097:10162   */\n      swap1\n      pop\n        /* \"#utility.yul\":10042:10168   */\n      swap2\n      swap1\n      pop\n      jump\t// out\n        /* \"#utility.yul\":10174:10251   */\n    tag_212:\n        /* \"#utility.yul\":10211:10218   */\n      0x00\n        /* \"#utility.yul\":10240:10245   */\n      dup2\n        /* \"#utility.yul\":10229:10245   */\n      swap1\n      pop\n        /* \"#utility.yul\":10174:10251   */\n      swap2\n      swap1\n      pop\n      jump\t// out\n        /* \"#utility.yul\":10257:10564   */\n    tag_176:\n        /* \"#utility.yul\":10325:10326   */\n      0x00\n        /* \"#utility.yul\":10335:10448   */\n    tag_265:\n        /* \"#utility.yul\":10349:10355   */\n      dup4\n        /* \"#utility.yul\":10346:10347   */\n      dup2\n        /* \"#utility.yul\":10343:10356   */\n      lt\n        /* \"#utility.yul\":10335:10448   */\n      iszero\n      tag_267\n      jumpi\n        /* \"#utility.yul\":10434:10435   */\n      dup1\n        /* \"#utility.yul\":10429:10432   */\n      dup3\n        /* \"#utility.yul\":10425:10436   */\n      add\n        /* \"#utility.yul\":10419:10437   */\n      mload\n        /* \"#utility.yul\":10415:10416   */\n      dup2\n        /* \"#utility.yul\":10410:10413   */\n      dup5\n        /* \"#utility.yul\":10406:10417   */\n      add\n        /* \"#utility.yul\":10399:10438   */\n      mstore\n        /* \"#utility.yul\":10371:10373   */\n      0x20\n        /* \"#utility.yul\":10368:10369   */\n      dup2\n        /* \"#utility.yul\":10364:10374   */\n      add\n        /* \"#utility.yul\":10359:10374   */\n      swap1\n      pop\n        /* \"#utility.yul\":10335:10448   */\n      jump(tag_265)\n    tag_267:\n        /* \"#utility.yul\":10466:10472   */\n      dup4\n        /* \"#utility.yul\":10463:10464   */\n      dup2\n        /* \"#utility.yul\":10460:10473   */\n      gt\n        /* \"#utility.yul\":10457:10558   */\n      iszero\n      tag_268\n      jumpi\n        /* \"#utility.yul\":10546:10547   */\n      0x00\n        /* \"#utility.yul\":10537:10543   */\n      dup5\n        /* \"#utility.yul\":10532:10535   */\n      dup5\n        /* \"#utility.yul\":10528:10544   */\n      add\n        /* \"#utility.yul\":10521:10548   */\n      mstore\n        /* \"#utility.yul\":10457:10558   */\n    tag_268:\n        /* \"#utility.yul\":10306:10564   */\n      pop\n        /* \"#utility.yul\":10257:10564   */\n      pop\n      pop\n      pop\n      jump\t// out\n        /* \"#utility.yul\":10570:10890   */\n    tag_125:\n        /* \"#utility.yul\":10614:10620   */\n      0x00\n        /* \"#utility.yul\":10651:10652   */\n      0x02\n        /* \"#utility.yul\":10645:10649   */\n      dup3\n        /* \"#utility.yul\":10641:10653   */\n      div\n        /* \"#utility.yul\":10631:10653   */\n      swap1\n      pop\n        /* \"#utility.yul\":10698:10699   */\n      0x01\n        /* \"#utility.yul\":10692:10696   */\n      dup3\n        /* \"#utility.yul\":10688:10700   */\n      and\n        /* \"#utility.yul\":10719:10737   */\n      dup1\n        /* \"#utility.yul\":10709:10790   */\n      tag_270\n      jumpi\n        /* \"#utility.yul\":10775:10779   */\n      0x7f\n        /* \"#utility.yul\":10767:10773   */\n      dup3\n        /* \"#utility.yul\":10763:10780   */\n      and\n        /* \"#utility.yul\":10753:10780   */\n      swap2\n      pop\n        /* \"#utility.yul\":10709:10790   */\n    tag_270:\n        /* \"#utility.yul\":10837:10839   */\n      0x20\n        /* \"#utility.yul\":10829:10835   */\n      dup3\n        /* \"#utility.yul\":10826:10840   */\n      lt\n        /* \"#utility.yul\":10806:10824   */\n      dup2\n        /* \"#utility.yul\":10803:10841   */\n      eq\n        /* \"#utility.yul\":10800:10884   */\n      iszero\n      tag_271\n      jumpi\n        /* \"#utility.yul\":10856:10874   */\n      tag_272\n      tag_273\n      jump\t// in\n    tag_272:\n        /* \"#utility.yul\":10800:10884   */\n    tag_271:\n        /* \"#utility.yul\":10621:10890   */\n      pop\n        /* \"#utility.yul\":10570:10890   */\n      swap2\n      swap1\n      pop\n      jump\t// out\n        /* \"#utility.yul\":10896:10996   */\n    tag_164:\n        /* \"#utility.yul\":10935:10942   */\n      0x00\n        /* \"#utility.yul\":10964:10990   */\n      tag_275\n        /* \"#utility.yul\":10984:10989   */\n      dup3\n        /* \"#utility.yul\":10964:10990   */\n      tag_276\n      jump\t// in\n    tag_275:\n        /* \"#utility.yul\":10953:10990   */\n      swap1\n      pop\n        /* \"#utility.yul\":10896:10996   */\n      swap2\n      swap1\n      pop\n      jump\t// out\n        /* \"#utility.yul\":11002:11096   */\n    tag_276:\n        /* \"#utility.yul\":11041:11048   */\n      0x00\n        /* \"#utility.yul\":11070:11090   */\n      tag_278\n        /* \"#utility.yul\":11084:11089   */\n      dup3\n        /* \"#utility.yul\":11070:11090   */\n      tag_279\n      jump\t// in\n    tag_278:\n        /* \"#utility.yul\":11059:11090   */\n      swap1\n      pop\n        /* \"#utility.yul\":11002:11096   */\n      swap2\n      swap1\n      pop\n      jump\t// out\n        /* \"#utility.yul\":11102:11181   */\n    tag_220:\n        /* \"#utility.yul\":11141:11148   */\n      0x00\n        /* \"#utility.yul\":11170:11175   */\n      dup2\n        /* \"#utility.yul\":11159:11175   */\n      swap1\n      pop\n        /* \"#utility.yul\":11102:11181   */\n      swap2\n      swap1\n      pop\n      jump\t// out\n        /* \"#utility.yul\":11187:11363   */\n    tag_134:\n        /* \"#utility.yul\":11219:11220   */\n      0x00\n        /* \"#utility.yul\":11236:11256   */\n      tag_282\n        /* \"#utility.yul\":11254:11255   */\n      dup3\n        /* \"#utility.yul\":11236:11256   */\n      tag_212\n      jump\t// in\n    tag_282:\n        /* \"#utility.yul\":11231:11256   */\n      swap2\n      pop\n        /* \"#utility.yul\":11270:11290   */\n      tag_283\n        /* \"#utility.yul\":11288:11289   */\n      dup4\n        /* \"#utility.yul\":11270:11290   */\n      tag_212\n      jump\t// in\n    tag_283:\n        /* \"#utility.yul\":11265:11290   */\n      swap3\n      pop\n        /* \"#utility.yul\":11309:11310   */\n      dup3\n        /* \"#utility.yul\":11299:11334   */\n      tag_284\n      jumpi\n        /* \"#utility.yul\":11314:11332   */\n      tag_285\n      tag_286\n      jump\t// in\n    tag_285:\n        /* \"#utility.yul\":11299:11334   */\n    tag_284:\n        /* \"#utility.yul\":11355:11356   */\n      dup3\n        /* \"#utility.yul\":11352:11353   */\n      dup3\n        /* \"#utility.yul\":11348:11357   */\n      mod\n        /* \"#utility.yul\":11343:11357   */\n      swap1\n      pop\n        /* \"#utility.yul\":11187:11363   */\n      swap3\n      swap2\n      pop\n      pop\n      jump\t// out\n        /* \"#utility.yul\":11369:11549   */\n    tag_249:\n        /* \"#utility.yul\":11417:11494   */\n      0x4e487b7100000000000000000000000000000000000000000000000000000000\n        /* \"#utility.yul\":11414:11415   */\n      0x00\n        /* \"#utility.yul\":11407:11495   */\n      mstore\n        /* \"#utility.yul\":11514:11518   */\n      0x11\n        /* \"#utility.yul\":11511:11512   */\n      0x04\n        /* \"#utility.yul\":11504:11519   */\n      mstore\n        /* \"#utility.yul\":11538:11542   */\n      0x24\n        /* \"#utility.yul\":11535:11536   */\n      0x00\n        /* \"#utility.yul\":11528:11543   */\n      revert\n        /* \"#utility.yul\":11555:11735   */\n    tag_286:\n        /* \"#utility.yul\":11603:11680   */\n      0x4e487b7100000000000000000000000000000000000000000000000000000000\n        /* \"#utility.yul\":11600:11601   */\n      0x00\n        /* \"#utility.yul\":11593:11681   */\n      mstore\n        /* \"#utility.yul\":11700:11704   */\n      0x12\n        /* \"#utility.yul\":11697:11698   */\n      0x04\n        /* \"#utility.yul\":11690:11705   */\n      mstore\n        /* \"#utility.yul\":11724:11728   */\n      0x24\n        /* \"#utility.yul\":11721:11722   */\n      0x00\n        /* \"#utility.yul\":11714:11729   */\n      revert\n        /* \"#utility.yul\":11741:11921   */\n    tag_273:\n        /* \"#utility.yul\":11789:11866   */\n      0x4e487b7100000000000000000000000000000000000000000000000000000000\n        /* \"#utility.yul\":11786:11787   */\n      0x00\n        /* \"#utility.yul\":11779:11867   */\n      mstore\n        /* \"#utility.yul\":11886:11890   */\n      0x22\n        /* \"#utility.yul\":11883:11884   */\n      0x04\n        /* \"#utility.yul\":11876:11891   */\n      mstore\n        /* \"#utility.yul\":11910:11914   */\n      0x24\n        /* \"#utility.yul\":11907:11908   */\n      0x00\n        /* \"#utility.yul\":11900:11915   */\n      revert\n        /* \"#utility.yul\":11927:12107   */\n    tag_44:\n        /* \"#utility.yul\":11975:12052   */\n      0x4e487b7100000000000000000000000000000000000000000000000000000000\n        /* \"#utility.yul\":11972:11973   */\n      0x00\n        /* \"#utility.yul\":11965:12053   */\n      mstore\n        /* \"#utility.yul\":12072:12076   */\n      0x32\n        /* \"#utility.yul\":12069:12070   */\n      0x04\n        /* \"#utility.yul\":12062:12077   */\n      mstore\n        /* \"#utility.yul\":12096:12100   */\n      0x24\n        /* \"#utility.yul\":12093:12094   */\n      0x00\n        /* \"#utility.yul\":12086:12101   */\n      revert\n        /* \"#utility.yul\":12236:12353   */\n    tag_153:\n        /* \"#utility.yul\":12345:12346   */\n      0x00\n        /* \"#utility.yul\":12342:12343   */\n      dup1\n        /* \"#utility.yul\":12335:12347   */\n      revert\n        /* \"#utility.yul\":12359:12461   */\n    tag_178:\n        /* \"#utility.yul\":12400:12406   */\n      0x00\n        /* \"#utility.yul\":12451:12453   */\n      0x1f\n        /* \"#utility.yul\":12447:12454   */\n      not\n        /* \"#utility.yul\":12442:12444   */\n      0x1f\n        /* \"#utility.yul\":12435:12440   */\n      dup4\n        /* \"#utility.yul\":12431:12445   */\n      add\n        /* \"#utility.yul\":12427:12455   */\n      and\n        /* \"#utility.yul\":12417:12455   */\n      swap1\n      pop\n        /* \"#utility.yul\":12359:12461   */\n      swap2\n      swap1\n      pop\n      jump\t// out\n        /* \"#utility.yul\":12467:12561   */\n    tag_279:\n        /* \"#utility.yul\":12500:12508   */\n      0x00\n        /* \"#utility.yul\":12548:12553   */\n      dup2\n        /* \"#utility.yul\":12544:12546   */\n      0x60\n        /* \"#utility.yul\":12540:12554   */\n      shl\n        /* \"#utility.yul\":12519:12554   */\n      swap1\n      pop\n        /* \"#utility.yul\":12467:12561   */\n      swap2\n      swap1\n      pop\n      jump\t// out\n        /* \"#utility.yul\":12567:12731   */\n    tag_184:\n        /* \"#utility.yul\":12707:12723   */\n      0x416c726561647920766f7465642e000000000000000000000000000000000000\n        /* \"#utility.yul\":12703:12704   */\n      0x00\n        /* \"#utility.yul\":12695:12701   */\n      dup3\n        /* \"#utility.yul\":12691:12705   */\n      add\n        /* \"#utility.yul\":12684:12724   */\n      mstore\n        /* \"#utility.yul\":12567:12731   */\n      pop\n      jump\t// out\n        /* \"#utility.yul\":12737:12911   */\n    tag_189:\n        /* \"#utility.yul\":12877:12903   */\n      0x54686520766f74657220616c726561647920766f7465642e0000000000000000\n        /* \"#utility.yul\":12873:12874   */\n      0x00\n        /* \"#utility.yul\":12865:12871   */\n      dup3\n        /* \"#utility.yul\":12861:12875   */\n      add\n        /* \"#utility.yul\":12854:12904   */\n      mstore\n        /* \"#utility.yul\":12737:12911   */\n      pop\n      jump\t// out\n        /* \"#utility.yul\":12917:13086   */\n    tag_194:\n        /* \"#utility.yul\":13057:13078   */\n      0x52656163686564206d617820766f746572732e00000000000000000000000000\n        /* \"#utility.yul\":13053:13054   */\n      0x00\n        /* \"#utility.yul\":13045:13051   */\n      dup3\n        /* \"#utility.yul\":13041:13055   */\n      add\n        /* \"#utility.yul\":13034:13079   */\n      mstore\n        /* \"#utility.yul\":12917:13086   */\n      pop\n      jump\t// out\n        /* \"#utility.yul\":13092:13214   */\n    tag_145:\n        /* \"#utility.yul\":13165:13189   */\n      tag_300\n        /* \"#utility.yul\":13183:13188   */\n      dup2\n        /* \"#utility.yul\":13165:13189   */\n      tag_163\n      jump\t// in\n    tag_300:\n        /* \"#utility.yul\":13158:13163   */\n      dup2\n        /* \"#utility.yul\":13155:13190   */\n      eq\n        /* \"#utility.yul\":13145:13208   */\n      tag_301\n      jumpi\n        /* \"#utility.yul\":13204:13205   */\n      0x00\n        /* \"#utility.yul\":13201:13202   */\n      dup1\n        /* \"#utility.yul\":13194:13206   */\n      revert\n        /* \"#utility.yul\":13145:13208   */\n    tag_301:\n        /* \"#utility.yul\":13092:13214   */\n      pop\n      jump\t// out\n        /* \"#utility.yul\":13220:13342   */\n    tag_149:\n        /* \"#utility.yul\":13293:13317   */\n      tag_303\n        /* \"#utility.yul\":13311:13316   */\n      dup2\n        /* \"#utility.yul\":13293:13317   */\n      tag_212\n      jump\t// in\n    tag_303:\n        /* \"#utility.yul\":13286:13291   */\n      dup2\n        /* \"#utility.yul\":13283:13318   */\n      eq\n        /* \"#utility.yul\":13273:13336   */\n      tag_304\n      jumpi\n        /* \"#utility.yul\":13332:13333   */\n      0x00\n        /* \"#utility.yul\":13329:13330   */\n      dup1\n        /* \"#utility.yul\":13322:13334   */\n      revert\n        /* \"#utility.yul\":13273:13336   */\n    tag_304:\n        /* \"#utility.yul\":13220:13342   */\n      pop\n      jump\t// out\n\n    auxdata: 0xa2646970667358221220abd8e73cdaed93cb913d880bc6de958b5865e9409bd8b5cd30ba6919e99683a264736f6c63430008070033\n}\n",
				"bytecode": {
					"linkReferences": {},
					"object": "608060405260006004553480156200001657600080fd5b50336000806101000a81548173ffffffffffffffffffffffffffffffffffffffff021916908373ffffffffffffffffffffffffffffffffffffffff16021790555060018060008060009054906101000a900473ffffffffffffffffffffffffffffffffffffffff1673ffffffffffffffffffffffffffffffffffffffff1673ffffffffffffffffffffffffffffffffffffffff1681526020019081526020016000206000018190555060006040518060a001604052806040518060400160405280600181526020017f610000000000000000000000000000000000000000000000000000000000000081525081526020016040518060400160405280600181526020017f620000000000000000000000000000000000000000000000000000000000000081525081526020016040518060400160405280600181526020017f630000000000000000000000000000000000000000000000000000000000000081525081526020016040518060400160405280600181526020017f640000000000000000000000000000000000000000000000000000000000000081525081526020016040518060400160405280600181526020017f650000000000000000000000000000000000000000000000000000000000000081525081525090506005801462000239576040517f08c379a0000000000000000000000000000000000000000000000000000000008152600401620002309062000470565b60405180910390fd5b60005b6005811015620003915760036040518061018001604052808484600581106200026a57620002696200058f565b5b6020020151815260200160008152602001600081526020016000815260200160008152602001600081526020016000815260200160008152602001600081526020016000815260200160008152602001600081525090806001815401808255809150506001900390600052602060002090600c020160009091909190915060008201518160000190805190602001906200030692919062000399565b506020820151816001015560408201518160020155606082015181600301556080820151816004015560a0820151816005015560c0820151816006015560e082015181600701556101008201518160080155610120820151816009015561014082015181600a015561016082015181600b0155505080806200038890620004e3565b9150506200023c565b5050620005e7565b828054620003a790620004ad565b90600052602060002090601f016020900481019282620003cb576000855562000417565b82601f10620003e657805160ff191683800117855562000417565b8280016001018555821562000417579182015b8281111562000416578251825591602001919060010190620003f9565b5b5090506200042691906200042a565b5090565b5b80821115620004455760008160009055506001016200042b565b5090565b60006200045860158362000492565b91506200046582620005be565b602082019050919050565b600060208201905081810360008301526200048b8162000449565b9050919050565b600082825260208201905092915050565b6000819050919050565b60006002820490506001821680620004c657607f821691505b60208210811415620004dd57620004dc62000560565b5b50919050565b6000620004f082620004a3565b91507fffffffffffffffffffffffffffffffffffffffffffffffffffffffffffffffff82141562000526576200052562000531565b5b600182019050919050565b7f4e487b7100000000000000000000000000000000000000000000000000000000600052601160045260246000fd5b7f4e487b7100000000000000000000000000000000000000000000000000000000600052602260045260246000fd5b7f4e487b7100000000000000000000000000000000000000000000000000000000600052603260045260246000fd5b7f43616e64696461746573206d75737420626520352e0000000000000000000000600082015250565b61117580620005f76000396000f3fe608060405234801561001057600080fd5b506004361061004c5760003560e01c8063632a9a521461005157806364030a191461005b578063a3ec138d1461008e578063d4e8fd2e146100c1575b600080fd5b6100596100f1565b005b61007560048036038101906100709190610a58565b61073b565b6040516100859493929190610d45565b60405180910390f35b6100a860048036038101906100a39190610a2b565b610788565b6040516100b89493929190610d45565b60405180910390f35b6100db60048036038101906100d69190610a58565b6107c5565b6040516100e89190610d23565b60405180910390f35b600160003373ffffffffffffffffffffffffffffffffffffffff1673ffffffffffffffffffffffffffffffffffffffff16815260200190815260200160002060010160009054906101000a900460ff1615610181576040517f08c379a000000000000000000000000000000000000000000000000000000000815260040161017890610ce3565b60405180910390fd5b60018060003373ffffffffffffffffffffffffffffffffffffffff1673ffffffffffffffffffffffffffffffffffffffff168152602001908152602001600020600001819055506064600454131561020e576040517f08c379a000000000000000000000000000000000000000000000000000000000815260040161020590610d03565b60405180910390fd5b610216610902565b600160003373ffffffffffffffffffffffffffffffffffffffff1673ffffffffffffffffffffffffffffffffffffffff168152602001908152602001600020600201819055506000600160003373ffffffffffffffffffffffffffffffffffffffff1673ffffffffffffffffffffffffffffffffffffffff16815260200190815260200160002090508060010160009054906101000a900460ff16156102f1576040517f08c379a00000000000000000000000000000000000000000000000000000000081526004016102e890610cc3565b60405180910390fd5b60018160010160006101000a81548160ff02191690831515021790555060018060003373ffffffffffffffffffffffffffffffffffffffff1673ffffffffffffffffffffffffffffffffffffffff16815260200190815260200160002060010160006101000a81548160ff021916908315150217905550610370610943565b8160030181905550610380610984565b8060000154600361038f610943565b815481106103a05761039f611044565b5b90600052602060002090600c020160010160008282546103c09190610e4b565b9250508190555060008160020154141561042057806000015460036103e3610943565b815481106103f4576103f3611044565b5b90600052602060002090600c020160020160008282546104149190610e4b565b92505081905550610738565b600181600201541415610479578060000154600361043c610943565b8154811061044d5761044c611044565b5b90600052602060002090600c0201600301600082825461046d9190610e4b565b92505081905550610737565b6002816002015414156104d25780600001546003610495610943565b815481106104a6576104a5611044565b5b90600052602060002090600c020160040160008282546104c69190610e4b565b92505081905550610736565b60038160020154141561052b57806000015460036104ee610943565b815481106104ff576104fe611044565b5b90600052602060002090600c0201600501600082825461051f9190610e4b565b92505081905550610735565b6004816002015414156105845780600001546003610547610943565b8154811061055857610557611044565b5b90600052602060002090600c020160060160008282546105789190610e4b565b92505081905550610734565b6005816002015414156105dd57806000015460036105a0610943565b815481106105b1576105b0611044565b5b90600052602060002090600c020160070160008282546105d19190610e4b565b92505081905550610733565b60068160020154141561063657806000015460036105f9610943565b8154811061060a57610609611044565b5b90600052602060002090600c0201600801600082825461062a9190610e4b565b92505081905550610732565b60078160020154141561068f5780600001546003610652610943565b8154811061066357610662611044565b5b90600052602060002090600c020160090160008282546106839190610e4b565b92505081905550610731565b6008816002015414156106e857806000015460036106ab610943565b815481106106bc576106bb611044565b5b90600052602060002090600c0201600a0160008282546106dc9190610e4b565b92505081905550610730565b806000015460036106f7610943565b8154811061070857610707611044565b5b90600052602060002090600c0201600b0160008282546107289190610e4b565b925050819055505b5b5b5b5b5b5b5b5b50565b6002818154811061074b57600080fd5b90600052602060002090600402016000915090508060000154908060010160009054906101000a900460ff16908060020154908060030154905084565b60016020528060005260406000206000915090508060000154908060010160009054906101000a900460ff16908060020154908060030154905084565b6107cd6109a0565b600382815481106107e1576107e0611044565b5b90600052602060002090600c02016040518061018001604052908160008201805461080b90610f26565b80601f016020809104026020016040519081016040528092919081815260200182805461083790610f26565b80156108845780601f1061085957610100808354040283529160200191610884565b820191906000526020600020905b81548152906001019060200180831161086757829003601f168201915b50505050508152602001600182015481526020016002820154815260200160038201548152602001600482015481526020016005820154815260200160068201548152602001600782015481526020016008820154815260200160098201548152602001600a8201548152602001600b820154815250509050919050565b6000600a42443360405160200161091b93929190610c86565b6040516020818303038152906040528051906020012060001c61093e9190610f86565b905090565b6000600542443360405160200161095c93929190610c86565b6040516020818303038152906040528051906020012060001c61097f9190610f86565b905090565b6001600460008282546109979190610db7565b92505081905550565b6040518061018001604052806060815260200160008152602001600081526020016000815260200160008152602001600081526020016000815260200160008152602001600081526020016000815260200160008152602001600081525090565b600081359050610a1081611111565b92915050565b600081359050610a2581611128565b92915050565b600060208284031215610a4157610a40611073565b5b6000610a4f84828501610a01565b91505092915050565b600060208284031215610a6e57610a6d611073565b5b6000610a7c84828501610a16565b91505092915050565b610a96610a9182610ea1565b610f58565b82525050565b610aa581610eb3565b82525050565b6000610ab682610d8a565b610ac08185610d95565b9350610ad0818560208601610ef3565b610ad981611078565b840191505092915050565b6000610af1600e83610da6565b9150610afc82611096565b602082019050919050565b6000610b14601883610da6565b9150610b1f826110bf565b602082019050919050565b6000610b37601383610da6565b9150610b42826110e8565b602082019050919050565b6000610180830160008301518482036000860152610b6b8282610aab565b9150506020830151610b806020860182610c51565b506040830151610b936040860182610c51565b506060830151610ba66060860182610c51565b506080830151610bb96080860182610c51565b5060a0830151610bcc60a0860182610c51565b5060c0830151610bdf60c0860182610c51565b5060e0830151610bf260e0860182610c51565b50610100830151610c07610100860182610c51565b50610120830151610c1c610120860182610c51565b50610140830151610c31610140860182610c51565b50610160830151610c46610160860182610c51565b508091505092915050565b610c5a81610ee9565b82525050565b610c6981610ee9565b82525050565b610c80610c7b82610ee9565b610f7c565b82525050565b6000610c928286610c6f565b602082019150610ca28285610c6f565b602082019150610cb28284610a85565b601482019150819050949350505050565b60006020820190508181036000830152610cdc81610ae4565b9050919050565b60006020820190508181036000830152610cfc81610b07565b9050919050565b60006020820190508181036000830152610d1c81610b2a565b9050919050565b60006020820190508181036000830152610d3d8184610b4d565b905092915050565b6000608082019050610d5a6000830187610c60565b610d676020830186610a9c565b610d746040830185610c60565b610d816060830184610c60565b95945050505050565b600081519050919050565b600082825260208201905092915050565b600082825260208201905092915050565b6000610dc282610ebf565b9150610dcd83610ebf565b9250817f7fffffffffffffffffffffffffffffffffffffffffffffffffffffffffffffff03831360008312151615610e0857610e07610fb7565b5b817f8000000000000000000000000000000000000000000000000000000000000000038312600083121615610e4057610e3f610fb7565b5b828201905092915050565b6000610e5682610ee9565b9150610e6183610ee9565b9250827fffffffffffffffffffffffffffffffffffffffffffffffffffffffffffffffff03821115610e9657610e95610fb7565b5b828201905092915050565b6000610eac82610ec9565b9050919050565b60008115159050919050565b6000819050919050565b600073ffffffffffffffffffffffffffffffffffffffff82169050919050565b6000819050919050565b60005b83811015610f11578082015181840152602081019050610ef6565b83811115610f20576000848401525b50505050565b60006002820490506001821680610f3e57607f821691505b60208210811415610f5257610f51611015565b5b50919050565b6000610f6382610f6a565b9050919050565b6000610f7582611089565b9050919050565b6000819050919050565b6000610f9182610ee9565b9150610f9c83610ee9565b925082610fac57610fab610fe6565b5b828206905092915050565b7f4e487b7100000000000000000000000000000000000000000000000000000000600052601160045260246000fd5b7f4e487b7100000000000000000000000000000000000000000000000000000000600052601260045260246000fd5b7f4e487b7100000000000000000000000000000000000000000000000000000000600052602260045260246000fd5b7f4e487b7100000000000000000000000000000000000000000000000000000000600052603260045260246000fd5b600080fd5b6000601f19601f8301169050919050565b60008160601b9050919050565b7f416c726561647920766f7465642e000000000000000000000000000000000000600082015250565b7f54686520766f74657220616c726561647920766f7465642e0000000000000000600082015250565b7f52656163686564206d617820766f746572732e00000000000000000000000000600082015250565b61111a81610ea1565b811461112557600080fd5b50565b61113181610ee9565b811461113c57600080fd5b5056fea2646970667358221220abd8e73cdaed93cb913d880bc6de958b5865e9409bd8b5cd30ba6919e99683a264736f6c63430008070033",
					"opcodes": "PUSH1 0x80 PUSH1 0x40 MSTORE PUSH1 0x0 PUSH1 0x4 SSTORE CALLVALUE DUP1 ISZERO PUSH3 0x16 JUMPI PUSH1 0x0 DUP1 REVERT JUMPDEST POP CALLER PUSH1 0x0 DUP1 PUSH2 0x100 EXP DUP2 SLOAD DUP2 PUSH20 0xFFFFFFFFFFFFFFFFFFFFFFFFFFFFFFFFFFFFFFFF MUL NOT AND SWAP1 DUP4 PUSH20 0xFFFFFFFFFFFFFFFFFFFFFFFFFFFFFFFFFFFFFFFF AND MUL OR SWAP1 SSTORE POP PUSH1 0x1 DUP1 PUSH1 0x0 DUP1 PUSH1 0x0 SWAP1 SLOAD SWAP1 PUSH2 0x100 EXP SWAP1 DIV PUSH20 0xFFFFFFFFFFFFFFFFFFFFFFFFFFFFFFFFFFFFFFFF AND PUSH20 0xFFFFFFFFFFFFFFFFFFFFFFFFFFFFFFFFFFFFFFFF AND PUSH20 0xFFFFFFFFFFFFFFFFFFFFFFFFFFFFFFFFFFFFFFFF AND DUP2 MSTORE PUSH1 0x20 ADD SWAP1 DUP2 MSTORE PUSH1 0x20 ADD PUSH1 0x0 KECCAK256 PUSH1 0x0 ADD DUP2 SWAP1 SSTORE POP PUSH1 0x0 PUSH1 0x40 MLOAD DUP1 PUSH1 0xA0 ADD PUSH1 0x40 MSTORE DUP1 PUSH1 0x40 MLOAD DUP1 PUSH1 0x40 ADD PUSH1 0x40 MSTORE DUP1 PUSH1 0x1 DUP2 MSTORE PUSH1 0x20 ADD PUSH32 0x6100000000000000000000000000000000000000000000000000000000000000 DUP2 MSTORE POP DUP2 MSTORE PUSH1 0x20 ADD PUSH1 0x40 MLOAD DUP1 PUSH1 0x40 ADD PUSH1 0x40 MSTORE DUP1 PUSH1 0x1 DUP2 MSTORE PUSH1 0x20 ADD PUSH32 0x6200000000000000000000000000000000000000000000000000000000000000 DUP2 MSTORE POP DUP2 MSTORE PUSH1 0x20 ADD PUSH1 0x40 MLOAD DUP1 PUSH1 0x40 ADD PUSH1 0x40 MSTORE DUP1 PUSH1 0x1 DUP2 MSTORE PUSH1 0x20 ADD PUSH32 0x6300000000000000000000000000000000000000000000000000000000000000 DUP2 MSTORE POP DUP2 MSTORE PUSH1 0x20 ADD PUSH1 0x40 MLOAD DUP1 PUSH1 0x40 ADD PUSH1 0x40 MSTORE DUP1 PUSH1 0x1 DUP2 MSTORE PUSH1 0x20 ADD PUSH32 0x6400000000000000000000000000000000000000000000000000000000000000 DUP2 MSTORE POP DUP2 MSTORE PUSH1 0x20 ADD PUSH1 0x40 MLOAD DUP1 PUSH1 0x40 ADD PUSH1 0x40 MSTORE DUP1 PUSH1 0x1 DUP2 MSTORE PUSH1 0x20 ADD PUSH32 0x6500000000000000000000000000000000000000000000000000000000000000 DUP2 MSTORE POP DUP2 MSTORE POP SWAP1 POP PUSH1 0x5 DUP1 EQ PUSH3 0x239 JUMPI PUSH1 0x40 MLOAD PUSH32 0x8C379A000000000000000000000000000000000000000000000000000000000 DUP2 MSTORE PUSH1 0x4 ADD PUSH3 0x230 SWAP1 PUSH3 0x470 JUMP JUMPDEST PUSH1 0x40 MLOAD DUP1 SWAP2 SUB SWAP1 REVERT JUMPDEST PUSH1 0x0 JUMPDEST PUSH1 0x5 DUP2 LT ISZERO PUSH3 0x391 JUMPI PUSH1 0x3 PUSH1 0x40 MLOAD DUP1 PUSH2 0x180 ADD PUSH1 0x40 MSTORE DUP1 DUP5 DUP5 PUSH1 0x5 DUP2 LT PUSH3 0x26A JUMPI PUSH3 0x269 PUSH3 0x58F JUMP JUMPDEST JUMPDEST PUSH1 0x20 MUL ADD MLOAD DUP2 MSTORE PUSH1 0x20 ADD PUSH1 0x0 DUP2 MSTORE PUSH1 0x20 ADD PUSH1 0x0 DUP2 MSTORE PUSH1 0x20 ADD PUSH1 0x0 DUP2 MSTORE PUSH1 0x20 ADD PUSH1 0x0 DUP2 MSTORE PUSH1 0x20 ADD PUSH1 0x0 DUP2 MSTORE PUSH1 0x20 ADD PUSH1 0x0 DUP2 MSTORE PUSH1 0x20 ADD PUSH1 0x0 DUP2 MSTORE PUSH1 0x20 ADD PUSH1 0x0 DUP2 MSTORE PUSH1 0x20 ADD PUSH1 0x0 DUP2 MSTORE PUSH1 0x20 ADD PUSH1 0x0 DUP2 MSTORE PUSH1 0x20 ADD PUSH1 0x0 DUP2 MSTORE POP SWAP1 DUP1 PUSH1 0x1 DUP2 SLOAD ADD DUP1 DUP3 SSTORE DUP1 SWAP2 POP POP PUSH1 0x1 SWAP1 SUB SWAP1 PUSH1 0x0 MSTORE PUSH1 0x20 PUSH1 0x0 KECCAK256 SWAP1 PUSH1 0xC MUL ADD PUSH1 0x0 SWAP1 SWAP2 SWAP1 SWAP2 SWAP1 SWAP2 POP PUSH1 0x0 DUP3 ADD MLOAD DUP2 PUSH1 0x0 ADD SWAP1 DUP1 MLOAD SWAP1 PUSH1 0x20 ADD SWAP1 PUSH3 0x306 SWAP3 SWAP2 SWAP1 PUSH3 0x399 JUMP JUMPDEST POP PUSH1 0x20 DUP3 ADD MLOAD DUP2 PUSH1 0x1 ADD SSTORE PUSH1 0x40 DUP3 ADD MLOAD DUP2 PUSH1 0x2 ADD SSTORE PUSH1 0x60 DUP3 ADD MLOAD DUP2 PUSH1 0x3 ADD SSTORE PUSH1 0x80 DUP3 ADD MLOAD DUP2 PUSH1 0x4 ADD SSTORE PUSH1 0xA0 DUP3 ADD MLOAD DUP2 PUSH1 0x5 ADD SSTORE PUSH1 0xC0 DUP3 ADD MLOAD DUP2 PUSH1 0x6 ADD SSTORE PUSH1 0xE0 DUP3 ADD MLOAD DUP2 PUSH1 0x7 ADD SSTORE PUSH2 0x100 DUP3 ADD MLOAD DUP2 PUSH1 0x8 ADD SSTORE PUSH2 0x120 DUP3 ADD MLOAD DUP2 PUSH1 0x9 ADD SSTORE PUSH2 0x140 DUP3 ADD MLOAD DUP2 PUSH1 0xA ADD SSTORE PUSH2 0x160 DUP3 ADD MLOAD DUP2 PUSH1 0xB ADD SSTORE POP POP DUP1 DUP1 PUSH3 0x388 SWAP1 PUSH3 0x4E3 JUMP JUMPDEST SWAP2 POP POP PUSH3 0x23C JUMP JUMPDEST POP POP PUSH3 0x5E7 JUMP JUMPDEST DUP3 DUP1 SLOAD PUSH3 0x3A7 SWAP1 PUSH3 0x4AD JUMP JUMPDEST SWAP1 PUSH1 0x0 MSTORE PUSH1 0x20 PUSH1 0x0 KECCAK256 SWAP1 PUSH1 0x1F ADD PUSH1 0x20 SWAP1 DIV DUP2 ADD SWAP3 DUP3 PUSH3 0x3CB JUMPI PUSH1 0x0 DUP6 SSTORE PUSH3 0x417 JUMP JUMPDEST DUP3 PUSH1 0x1F LT PUSH3 0x3E6 JUMPI DUP1 MLOAD PUSH1 0xFF NOT AND DUP4 DUP1 ADD OR DUP6 SSTORE PUSH3 0x417 JUMP JUMPDEST DUP3 DUP1 ADD PUSH1 0x1 ADD DUP6 SSTORE DUP3 ISZERO PUSH3 0x417 JUMPI SWAP2 DUP3 ADD JUMPDEST DUP3 DUP2 GT ISZERO PUSH3 0x416 JUMPI DUP3 MLOAD DUP3 SSTORE SWAP2 PUSH1 0x20 ADD SWAP2 SWAP1 PUSH1 0x1 ADD SWAP1 PUSH3 0x3F9 JUMP JUMPDEST JUMPDEST POP SWAP1 POP PUSH3 0x426 SWAP2 SWAP1 PUSH3 0x42A JUMP JUMPDEST POP SWAP1 JUMP JUMPDEST JUMPDEST DUP1 DUP3 GT ISZERO PUSH3 0x445 JUMPI PUSH1 0x0 DUP2 PUSH1 0x0 SWAP1 SSTORE POP PUSH1 0x1 ADD PUSH3 0x42B JUMP JUMPDEST POP SWAP1 JUMP JUMPDEST PUSH1 0x0 PUSH3 0x458 PUSH1 0x15 DUP4 PUSH3 0x492 JUMP JUMPDEST SWAP2 POP PUSH3 0x465 DUP3 PUSH3 0x5BE JUMP JUMPDEST PUSH1 0x20 DUP3 ADD SWAP1 POP SWAP2 SWAP1 POP JUMP JUMPDEST PUSH1 0x0 PUSH1 0x20 DUP3 ADD SWAP1 POP DUP2 DUP2 SUB PUSH1 0x0 DUP4 ADD MSTORE PUSH3 0x48B DUP2 PUSH3 0x449 JUMP JUMPDEST SWAP1 POP SWAP2 SWAP1 POP JUMP JUMPDEST PUSH1 0x0 DUP3 DUP3 MSTORE PUSH1 0x20 DUP3 ADD SWAP1 POP SWAP3 SWAP2 POP POP JUMP JUMPDEST PUSH1 0x0 DUP2 SWAP1 POP SWAP2 SWAP1 POP JUMP JUMPDEST PUSH1 0x0 PUSH1 0x2 DUP3 DIV SWAP1 POP PUSH1 0x1 DUP3 AND DUP1 PUSH3 0x4C6 JUMPI PUSH1 0x7F DUP3 AND SWAP2 POP JUMPDEST PUSH1 0x20 DUP3 LT DUP2 EQ ISZERO PUSH3 0x4DD JUMPI PUSH3 0x4DC PUSH3 0x560 JUMP JUMPDEST JUMPDEST POP SWAP2 SWAP1 POP JUMP JUMPDEST PUSH1 0x0 PUSH3 0x4F0 DUP3 PUSH3 0x4A3 JUMP JUMPDEST SWAP2 POP PUSH32 0xFFFFFFFFFFFFFFFFFFFFFFFFFFFFFFFFFFFFFFFFFFFFFFFFFFFFFFFFFFFFFFFF DUP3 EQ ISZERO PUSH3 0x526 JUMPI PUSH3 0x525 PUSH3 0x531 JUMP JUMPDEST JUMPDEST PUSH1 0x1 DUP3 ADD SWAP1 POP SWAP2 SWAP1 POP JUMP JUMPDEST PUSH32 0x4E487B7100000000000000000000000000000000000000000000000000000000 PUSH1 0x0 MSTORE PUSH1 0x11 PUSH1 0x4 MSTORE PUSH1 0x24 PUSH1 0x0 REVERT JUMPDEST PUSH32 0x4E487B7100000000000000000000000000000000000000000000000000000000 PUSH1 0x0 MSTORE PUSH1 0x22 PUSH1 0x4 MSTORE PUSH1 0x24 PUSH1 0x0 REVERT JUMPDEST PUSH32 0x4E487B7100000000000000000000000000000000000000000000000000000000 PUSH1 0x0 MSTORE PUSH1 0x32 PUSH1 0x4 MSTORE PUSH1 0x24 PUSH1 0x0 REVERT JUMPDEST PUSH32 0x43616E64696461746573206D75737420626520352E0000000000000000000000 PUSH1 0x0 DUP3 ADD MSTORE POP JUMP JUMPDEST PUSH2 0x1175 DUP1 PUSH3 0x5F7 PUSH1 0x0 CODECOPY PUSH1 0x0 RETURN INVALID PUSH1 0x80 PUSH1 0x40 MSTORE CALLVALUE DUP1 ISZERO PUSH2 0x10 JUMPI PUSH1 0x0 DUP1 REVERT JUMPDEST POP PUSH1 0x4 CALLDATASIZE LT PUSH2 0x4C JUMPI PUSH1 0x0 CALLDATALOAD PUSH1 0xE0 SHR DUP1 PUSH4 0x632A9A52 EQ PUSH2 0x51 JUMPI DUP1 PUSH4 0x64030A19 EQ PUSH2 0x5B JUMPI DUP1 PUSH4 0xA3EC138D EQ PUSH2 0x8E JUMPI DUP1 PUSH4 0xD4E8FD2E EQ PUSH2 0xC1 JUMPI JUMPDEST PUSH1 0x0 DUP1 REVERT JUMPDEST PUSH2 0x59 PUSH2 0xF1 JUMP JUMPDEST STOP JUMPDEST PUSH2 0x75 PUSH1 0x4 DUP1 CALLDATASIZE SUB DUP2 ADD SWAP1 PUSH2 0x70 SWAP2 SWAP1 PUSH2 0xA58 JUMP JUMPDEST PUSH2 0x73B JUMP JUMPDEST PUSH1 0x40 MLOAD PUSH2 0x85 SWAP5 SWAP4 SWAP3 SWAP2 SWAP1 PUSH2 0xD45 JUMP JUMPDEST PUSH1 0x40 MLOAD DUP1 SWAP2 SUB SWAP1 RETURN JUMPDEST PUSH2 0xA8 PUSH1 0x4 DUP1 CALLDATASIZE SUB DUP2 ADD SWAP1 PUSH2 0xA3 SWAP2 SWAP1 PUSH2 0xA2B JUMP JUMPDEST PUSH2 0x788 JUMP JUMPDEST PUSH1 0x40 MLOAD PUSH2 0xB8 SWAP5 SWAP4 SWAP3 SWAP2 SWAP1 PUSH2 0xD45 JUMP JUMPDEST PUSH1 0x40 MLOAD DUP1 SWAP2 SUB SWAP1 RETURN JUMPDEST PUSH2 0xDB PUSH1 0x4 DUP1 CALLDATASIZE SUB DUP2 ADD SWAP1 PUSH2 0xD6 SWAP2 SWAP1 PUSH2 0xA58 JUMP JUMPDEST PUSH2 0x7C5 JUMP JUMPDEST PUSH1 0x40 MLOAD PUSH2 0xE8 SWAP2 SWAP1 PUSH2 0xD23 JUMP JUMPDEST PUSH1 0x40 MLOAD DUP1 SWAP2 SUB SWAP1 RETURN JUMPDEST PUSH1 0x1 PUSH1 0x0 CALLER PUSH20 0xFFFFFFFFFFFFFFFFFFFFFFFFFFFFFFFFFFFFFFFF AND PUSH20 0xFFFFFFFFFFFFFFFFFFFFFFFFFFFFFFFFFFFFFFFF AND DUP2 MSTORE PUSH1 0x20 ADD SWAP1 DUP2 MSTORE PUSH1 0x20 ADD PUSH1 0x0 KECCAK256 PUSH1 0x1 ADD PUSH1 0x0 SWAP1 SLOAD SWAP1 PUSH2 0x100 EXP SWAP1 DIV PUSH1 0xFF AND ISZERO PUSH2 0x181 JUMPI PUSH1 0x40 MLOAD PUSH32 0x8C379A000000000000000000000000000000000000000000000000000000000 DUP2 MSTORE PUSH1 0x4 ADD PUSH2 0x178 SWAP1 PUSH2 0xCE3 JUMP JUMPDEST PUSH1 0x40 MLOAD DUP1 SWAP2 SUB SWAP1 REVERT JUMPDEST PUSH1 0x1 DUP1 PUSH1 0x0 CALLER PUSH20 0xFFFFFFFFFFFFFFFFFFFFFFFFFFFFFFFFFFFFFFFF AND PUSH20 0xFFFFFFFFFFFFFFFFFFFFFFFFFFFFFFFFFFFFFFFF AND DUP2 MSTORE PUSH1 0x20 ADD SWAP1 DUP2 MSTORE PUSH1 0x20 ADD PUSH1 0x0 KECCAK256 PUSH1 0x0 ADD DUP2 SWAP1 SSTORE POP PUSH1 0x64 PUSH1 0x4 SLOAD SGT ISZERO PUSH2 0x20E JUMPI PUSH1 0x40 MLOAD PUSH32 0x8C379A000000000000000000000000000000000000000000000000000000000 DUP2 MSTORE PUSH1 0x4 ADD PUSH2 0x205 SWAP1 PUSH2 0xD03 JUMP JUMPDEST PUSH1 0x40 MLOAD DUP1 SWAP2 SUB SWAP1 REVERT JUMPDEST PUSH2 0x216 PUSH2 0x902 JUMP JUMPDEST PUSH1 0x1 PUSH1 0x0 CALLER PUSH20 0xFFFFFFFFFFFFFFFFFFFFFFFFFFFFFFFFFFFFFFFF AND PUSH20 0xFFFFFFFFFFFFFFFFFFFFFFFFFFFFFFFFFFFFFFFF AND DUP2 MSTORE PUSH1 0x20 ADD SWAP1 DUP2 MSTORE PUSH1 0x20 ADD PUSH1 0x0 KECCAK256 PUSH1 0x2 ADD DUP2 SWAP1 SSTORE POP PUSH1 0x0 PUSH1 0x1 PUSH1 0x0 CALLER PUSH20 0xFFFFFFFFFFFFFFFFFFFFFFFFFFFFFFFFFFFFFFFF AND PUSH20 0xFFFFFFFFFFFFFFFFFFFFFFFFFFFFFFFFFFFFFFFF AND DUP2 MSTORE PUSH1 0x20 ADD SWAP1 DUP2 MSTORE PUSH1 0x20 ADD PUSH1 0x0 KECCAK256 SWAP1 POP DUP1 PUSH1 0x1 ADD PUSH1 0x0 SWAP1 SLOAD SWAP1 PUSH2 0x100 EXP SWAP1 DIV PUSH1 0xFF AND ISZERO PUSH2 0x2F1 JUMPI PUSH1 0x40 MLOAD PUSH32 0x8C379A000000000000000000000000000000000000000000000000000000000 DUP2 MSTORE PUSH1 0x4 ADD PUSH2 0x2E8 SWAP1 PUSH2 0xCC3 JUMP JUMPDEST PUSH1 0x40 MLOAD DUP1 SWAP2 SUB SWAP1 REVERT JUMPDEST PUSH1 0x1 DUP2 PUSH1 0x1 ADD PUSH1 0x0 PUSH2 0x100 EXP DUP2 SLOAD DUP2 PUSH1 0xFF MUL NOT AND SWAP1 DUP4 ISZERO ISZERO MUL OR SWAP1 SSTORE POP PUSH1 0x1 DUP1 PUSH1 0x0 CALLER PUSH20 0xFFFFFFFFFFFFFFFFFFFFFFFFFFFFFFFFFFFFFFFF AND PUSH20 0xFFFFFFFFFFFFFFFFFFFFFFFFFFFFFFFFFFFFFFFF AND DUP2 MSTORE PUSH1 0x20 ADD SWAP1 DUP2 MSTORE PUSH1 0x20 ADD PUSH1 0x0 KECCAK256 PUSH1 0x1 ADD PUSH1 0x0 PUSH2 0x100 EXP DUP2 SLOAD DUP2 PUSH1 0xFF MUL NOT AND SWAP1 DUP4 ISZERO ISZERO MUL OR SWAP1 SSTORE POP PUSH2 0x370 PUSH2 0x943 JUMP JUMPDEST DUP2 PUSH1 0x3 ADD DUP2 SWAP1 SSTORE POP PUSH2 0x380 PUSH2 0x984 JUMP JUMPDEST DUP1 PUSH1 0x0 ADD SLOAD PUSH1 0x3 PUSH2 0x38F PUSH2 0x943 JUMP JUMPDEST DUP2 SLOAD DUP2 LT PUSH2 0x3A0 JUMPI PUSH2 0x39F PUSH2 0x1044 JUMP JUMPDEST JUMPDEST SWAP1 PUSH1 0x0 MSTORE PUSH1 0x20 PUSH1 0x0 KECCAK256 SWAP1 PUSH1 0xC MUL ADD PUSH1 0x1 ADD PUSH1 0x0 DUP3 DUP3 SLOAD PUSH2 0x3C0 SWAP2 SWAP1 PUSH2 0xE4B JUMP JUMPDEST SWAP3 POP POP DUP2 SWAP1 SSTORE POP PUSH1 0x0 DUP2 PUSH1 0x2 ADD SLOAD EQ ISZERO PUSH2 0x420 JUMPI DUP1 PUSH1 0x0 ADD SLOAD PUSH1 0x3 PUSH2 0x3E3 PUSH2 0x943 JUMP JUMPDEST DUP2 SLOAD DUP2 LT PUSH2 0x3F4 JUMPI PUSH2 0x3F3 PUSH2 0x1044 JUMP JUMPDEST JUMPDEST SWAP1 PUSH1 0x0 MSTORE PUSH1 0x20 PUSH1 0x0 KECCAK256 SWAP1 PUSH1 0xC MUL ADD PUSH1 0x2 ADD PUSH1 0x0 DUP3 DUP3 SLOAD PUSH2 0x414 SWAP2 SWAP1 PUSH2 0xE4B JUMP JUMPDEST SWAP3 POP POP DUP2 SWAP1 SSTORE POP PUSH2 0x738 JUMP JUMPDEST PUSH1 0x1 DUP2 PUSH1 0x2 ADD SLOAD EQ ISZERO PUSH2 0x479 JUMPI DUP1 PUSH1 0x0 ADD SLOAD PUSH1 0x3 PUSH2 0x43C PUSH2 0x943 JUMP JUMPDEST DUP2 SLOAD DUP2 LT PUSH2 0x44D JUMPI PUSH2 0x44C PUSH2 0x1044 JUMP JUMPDEST JUMPDEST SWAP1 PUSH1 0x0 MSTORE PUSH1 0x20 PUSH1 0x0 KECCAK256 SWAP1 PUSH1 0xC MUL ADD PUSH1 0x3 ADD PUSH1 0x0 DUP3 DUP3 SLOAD PUSH2 0x46D SWAP2 SWAP1 PUSH2 0xE4B JUMP JUMPDEST SWAP3 POP POP DUP2 SWAP1 SSTORE POP PUSH2 0x737 JUMP JUMPDEST PUSH1 0x2 DUP2 PUSH1 0x2 ADD SLOAD EQ ISZERO PUSH2 0x4D2 JUMPI DUP1 PUSH1 0x0 ADD SLOAD PUSH1 0x3 PUSH2 0x495 PUSH2 0x943 JUMP JUMPDEST DUP2 SLOAD DUP2 LT PUSH2 0x4A6 JUMPI PUSH2 0x4A5 PUSH2 0x1044 JUMP JUMPDEST JUMPDEST SWAP1 PUSH1 0x0 MSTORE PUSH1 0x20 PUSH1 0x0 KECCAK256 SWAP1 PUSH1 0xC MUL ADD PUSH1 0x4 ADD PUSH1 0x0 DUP3 DUP3 SLOAD PUSH2 0x4C6 SWAP2 SWAP1 PUSH2 0xE4B JUMP JUMPDEST SWAP3 POP POP DUP2 SWAP1 SSTORE POP PUSH2 0x736 JUMP JUMPDEST PUSH1 0x3 DUP2 PUSH1 0x2 ADD SLOAD EQ ISZERO PUSH2 0x52B JUMPI DUP1 PUSH1 0x0 ADD SLOAD PUSH1 0x3 PUSH2 0x4EE PUSH2 0x943 JUMP JUMPDEST DUP2 SLOAD DUP2 LT PUSH2 0x4FF JUMPI PUSH2 0x4FE PUSH2 0x1044 JUMP JUMPDEST JUMPDEST SWAP1 PUSH1 0x0 MSTORE PUSH1 0x20 PUSH1 0x0 KECCAK256 SWAP1 PUSH1 0xC MUL ADD PUSH1 0x5 ADD PUSH1 0x0 DUP3 DUP3 SLOAD PUSH2 0x51F SWAP2 SWAP1 PUSH2 0xE4B JUMP JUMPDEST SWAP3 POP POP DUP2 SWAP1 SSTORE POP PUSH2 0x735 JUMP JUMPDEST PUSH1 0x4 DUP2 PUSH1 0x2 ADD SLOAD EQ ISZERO PUSH2 0x584 JUMPI DUP1 PUSH1 0x0 ADD SLOAD PUSH1 0x3 PUSH2 0x547 PUSH2 0x943 JUMP JUMPDEST DUP2 SLOAD DUP2 LT PUSH2 0x558 JUMPI PUSH2 0x557 PUSH2 0x1044 JUMP JUMPDEST JUMPDEST SWAP1 PUSH1 0x0 MSTORE PUSH1 0x20 PUSH1 0x0 KECCAK256 SWAP1 PUSH1 0xC MUL ADD PUSH1 0x6 ADD PUSH1 0x0 DUP3 DUP3 SLOAD PUSH2 0x578 SWAP2 SWAP1 PUSH2 0xE4B JUMP JUMPDEST SWAP3 POP POP DUP2 SWAP1 SSTORE POP PUSH2 0x734 JUMP JUMPDEST PUSH1 0x5 DUP2 PUSH1 0x2 ADD SLOAD EQ ISZERO PUSH2 0x5DD JUMPI DUP1 PUSH1 0x0 ADD SLOAD PUSH1 0x3 PUSH2 0x5A0 PUSH2 0x943 JUMP JUMPDEST DUP2 SLOAD DUP2 LT PUSH2 0x5B1 JUMPI PUSH2 0x5B0 PUSH2 0x1044 JUMP JUMPDEST JUMPDEST SWAP1 PUSH1 0x0 MSTORE PUSH1 0x20 PUSH1 0x0 KECCAK256 SWAP1 PUSH1 0xC MUL ADD PUSH1 0x7 ADD PUSH1 0x0 DUP3 DUP3 SLOAD PUSH2 0x5D1 SWAP2 SWAP1 PUSH2 0xE4B JUMP JUMPDEST SWAP3 POP POP DUP2 SWAP1 SSTORE POP PUSH2 0x733 JUMP JUMPDEST PUSH1 0x6 DUP2 PUSH1 0x2 ADD SLOAD EQ ISZERO PUSH2 0x636 JUMPI DUP1 PUSH1 0x0 ADD SLOAD PUSH1 0x3 PUSH2 0x5F9 PUSH2 0x943 JUMP JUMPDEST DUP2 SLOAD DUP2 LT PUSH2 0x60A JUMPI PUSH2 0x609 PUSH2 0x1044 JUMP JUMPDEST JUMPDEST SWAP1 PUSH1 0x0 MSTORE PUSH1 0x20 PUSH1 0x0 KECCAK256 SWAP1 PUSH1 0xC MUL ADD PUSH1 0x8 ADD PUSH1 0x0 DUP3 DUP3 SLOAD PUSH2 0x62A SWAP2 SWAP1 PUSH2 0xE4B JUMP JUMPDEST SWAP3 POP POP DUP2 SWAP1 SSTORE POP PUSH2 0x732 JUMP JUMPDEST PUSH1 0x7 DUP2 PUSH1 0x2 ADD SLOAD EQ ISZERO PUSH2 0x68F JUMPI DUP1 PUSH1 0x0 ADD SLOAD PUSH1 0x3 PUSH2 0x652 PUSH2 0x943 JUMP JUMPDEST DUP2 SLOAD DUP2 LT PUSH2 0x663 JUMPI PUSH2 0x662 PUSH2 0x1044 JUMP JUMPDEST JUMPDEST SWAP1 PUSH1 0x0 MSTORE PUSH1 0x20 PUSH1 0x0 KECCAK256 SWAP1 PUSH1 0xC MUL ADD PUSH1 0x9 ADD PUSH1 0x0 DUP3 DUP3 SLOAD PUSH2 0x683 SWAP2 SWAP1 PUSH2 0xE4B JUMP JUMPDEST SWAP3 POP POP DUP2 SWAP1 SSTORE POP PUSH2 0x731 JUMP JUMPDEST PUSH1 0x8 DUP2 PUSH1 0x2 ADD SLOAD EQ ISZERO PUSH2 0x6E8 JUMPI DUP1 PUSH1 0x0 ADD SLOAD PUSH1 0x3 PUSH2 0x6AB PUSH2 0x943 JUMP JUMPDEST DUP2 SLOAD DUP2 LT PUSH2 0x6BC JUMPI PUSH2 0x6BB PUSH2 0x1044 JUMP JUMPDEST JUMPDEST SWAP1 PUSH1 0x0 MSTORE PUSH1 0x20 PUSH1 0x0 KECCAK256 SWAP1 PUSH1 0xC MUL ADD PUSH1 0xA ADD PUSH1 0x0 DUP3 DUP3 SLOAD PUSH2 0x6DC SWAP2 SWAP1 PUSH2 0xE4B JUMP JUMPDEST SWAP3 POP POP DUP2 SWAP1 SSTORE POP PUSH2 0x730 JUMP JUMPDEST DUP1 PUSH1 0x0 ADD SLOAD PUSH1 0x3 PUSH2 0x6F7 PUSH2 0x943 JUMP JUMPDEST DUP2 SLOAD DUP2 LT PUSH2 0x708 JUMPI PUSH2 0x707 PUSH2 0x1044 JUMP JUMPDEST JUMPDEST SWAP1 PUSH1 0x0 MSTORE PUSH1 0x20 PUSH1 0x0 KECCAK256 SWAP1 PUSH1 0xC MUL ADD PUSH1 0xB ADD PUSH1 0x0 DUP3 DUP3 SLOAD PUSH2 0x728 SWAP2 SWAP1 PUSH2 0xE4B JUMP JUMPDEST SWAP3 POP POP DUP2 SWAP1 SSTORE POP JUMPDEST JUMPDEST JUMPDEST JUMPDEST JUMPDEST JUMPDEST JUMPDEST JUMPDEST JUMPDEST POP JUMP JUMPDEST PUSH1 0x2 DUP2 DUP2 SLOAD DUP2 LT PUSH2 0x74B JUMPI PUSH1 0x0 DUP1 REVERT JUMPDEST SWAP1 PUSH1 0x0 MSTORE PUSH1 0x20 PUSH1 0x0 KECCAK256 SWAP1 PUSH1 0x4 MUL ADD PUSH1 0x0 SWAP2 POP SWAP1 POP DUP1 PUSH1 0x0 ADD SLOAD SWAP1 DUP1 PUSH1 0x1 ADD PUSH1 0x0 SWAP1 SLOAD SWAP1 PUSH2 0x100 EXP SWAP1 DIV PUSH1 0xFF AND SWAP1 DUP1 PUSH1 0x2 ADD SLOAD SWAP1 DUP1 PUSH1 0x3 ADD SLOAD SWAP1 POP DUP5 JUMP JUMPDEST PUSH1 0x1 PUSH1 0x20 MSTORE DUP1 PUSH1 0x0 MSTORE PUSH1 0x40 PUSH1 0x0 KECCAK256 PUSH1 0x0 SWAP2 POP SWAP1 POP DUP1 PUSH1 0x0 ADD SLOAD SWAP1 DUP1 PUSH1 0x1 ADD PUSH1 0x0 SWAP1 SLOAD SWAP1 PUSH2 0x100 EXP SWAP1 DIV PUSH1 0xFF AND SWAP1 DUP1 PUSH1 0x2 ADD SLOAD SWAP1 DUP1 PUSH1 0x3 ADD SLOAD SWAP1 POP DUP5 JUMP JUMPDEST PUSH2 0x7CD PUSH2 0x9A0 JUMP JUMPDEST PUSH1 0x3 DUP3 DUP2 SLOAD DUP2 LT PUSH2 0x7E1 JUMPI PUSH2 0x7E0 PUSH2 0x1044 JUMP JUMPDEST JUMPDEST SWAP1 PUSH1 0x0 MSTORE PUSH1 0x20 PUSH1 0x0 KECCAK256 SWAP1 PUSH1 0xC MUL ADD PUSH1 0x40 MLOAD DUP1 PUSH2 0x180 ADD PUSH1 0x40 MSTORE SWAP1 DUP2 PUSH1 0x0 DUP3 ADD DUP1 SLOAD PUSH2 0x80B SWAP1 PUSH2 0xF26 JUMP JUMPDEST DUP1 PUSH1 0x1F ADD PUSH1 0x20 DUP1 SWAP2 DIV MUL PUSH1 0x20 ADD PUSH1 0x40 MLOAD SWAP1 DUP2 ADD PUSH1 0x40 MSTORE DUP1 SWAP3 SWAP2 SWAP1 DUP2 DUP2 MSTORE PUSH1 0x20 ADD DUP3 DUP1 SLOAD PUSH2 0x837 SWAP1 PUSH2 0xF26 JUMP JUMPDEST DUP1 ISZERO PUSH2 0x884 JUMPI DUP1 PUSH1 0x1F LT PUSH2 0x859 JUMPI PUSH2 0x100 DUP1 DUP4 SLOAD DIV MUL DUP4 MSTORE SWAP2 PUSH1 0x20 ADD SWAP2 PUSH2 0x884 JUMP JUMPDEST DUP3 ADD SWAP2 SWAP1 PUSH1 0x0 MSTORE PUSH1 0x20 PUSH1 0x0 KECCAK256 SWAP1 JUMPDEST DUP2 SLOAD DUP2 MSTORE SWAP1 PUSH1 0x1 ADD SWAP1 PUSH1 0x20 ADD DUP1 DUP4 GT PUSH2 0x867 JUMPI DUP3 SWAP1 SUB PUSH1 0x1F AND DUP3 ADD SWAP2 JUMPDEST POP POP POP POP POP DUP2 MSTORE PUSH1 0x20 ADD PUSH1 0x1 DUP3 ADD SLOAD DUP2 MSTORE PUSH1 0x20 ADD PUSH1 0x2 DUP3 ADD SLOAD DUP2 MSTORE PUSH1 0x20 ADD PUSH1 0x3 DUP3 ADD SLOAD DUP2 MSTORE PUSH1 0x20 ADD PUSH1 0x4 DUP3 ADD SLOAD DUP2 MSTORE PUSH1 0x20 ADD PUSH1 0x5 DUP3 ADD SLOAD DUP2 MSTORE PUSH1 0x20 ADD PUSH1 0x6 DUP3 ADD SLOAD DUP2 MSTORE PUSH1 0x20 ADD PUSH1 0x7 DUP3 ADD SLOAD DUP2 MSTORE PUSH1 0x20 ADD PUSH1 0x8 DUP3 ADD SLOAD DUP2 MSTORE PUSH1 0x20 ADD PUSH1 0x9 DUP3 ADD SLOAD DUP2 MSTORE PUSH1 0x20 ADD PUSH1 0xA DUP3 ADD SLOAD DUP2 MSTORE PUSH1 0x20 ADD PUSH1 0xB DUP3 ADD SLOAD DUP2 MSTORE POP POP SWAP1 POP SWAP2 SWAP1 POP JUMP JUMPDEST PUSH1 0x0 PUSH1 0xA TIMESTAMP DIFFICULTY CALLER PUSH1 0x40 MLOAD PUSH1 0x20 ADD PUSH2 0x91B SWAP4 SWAP3 SWAP2 SWAP1 PUSH2 0xC86 JUMP JUMPDEST PUSH1 0x40 MLOAD PUSH1 0x20 DUP2 DUP4 SUB SUB DUP2 MSTORE SWAP1 PUSH1 0x40 MSTORE DUP1 MLOAD SWAP1 PUSH1 0x20 ADD KECCAK256 PUSH1 0x0 SHR PUSH2 0x93E SWAP2 SWAP1 PUSH2 0xF86 JUMP JUMPDEST SWAP1 POP SWAP1 JUMP JUMPDEST PUSH1 0x0 PUSH1 0x5 TIMESTAMP DIFFICULTY CALLER PUSH1 0x40 MLOAD PUSH1 0x20 ADD PUSH2 0x95C SWAP4 SWAP3 SWAP2 SWAP1 PUSH2 0xC86 JUMP JUMPDEST PUSH1 0x40 MLOAD PUSH1 0x20 DUP2 DUP4 SUB SUB DUP2 MSTORE SWAP1 PUSH1 0x40 MSTORE DUP1 MLOAD SWAP1 PUSH1 0x20 ADD KECCAK256 PUSH1 0x0 SHR PUSH2 0x97F SWAP2 SWAP1 PUSH2 0xF86 JUMP JUMPDEST SWAP1 POP SWAP1 JUMP JUMPDEST PUSH1 0x1 PUSH1 0x4 PUSH1 0x0 DUP3 DUP3 SLOAD PUSH2 0x997 SWAP2 SWAP1 PUSH2 0xDB7 JUMP JUMPDEST SWAP3 POP POP DUP2 SWAP1 SSTORE POP JUMP JUMPDEST PUSH1 0x40 MLOAD DUP1 PUSH2 0x180 ADD PUSH1 0x40 MSTORE DUP1 PUSH1 0x60 DUP2 MSTORE PUSH1 0x20 ADD PUSH1 0x0 DUP2 MSTORE PUSH1 0x20 ADD PUSH1 0x0 DUP2 MSTORE PUSH1 0x20 ADD PUSH1 0x0 DUP2 MSTORE PUSH1 0x20 ADD PUSH1 0x0 DUP2 MSTORE PUSH1 0x20 ADD PUSH1 0x0 DUP2 MSTORE PUSH1 0x20 ADD PUSH1 0x0 DUP2 MSTORE PUSH1 0x20 ADD PUSH1 0x0 DUP2 MSTORE PUSH1 0x20 ADD PUSH1 0x0 DUP2 MSTORE PUSH1 0x20 ADD PUSH1 0x0 DUP2 MSTORE PUSH1 0x20 ADD PUSH1 0x0 DUP2 MSTORE PUSH1 0x20 ADD PUSH1 0x0 DUP2 MSTORE POP SWAP1 JUMP JUMPDEST PUSH1 0x0 DUP2 CALLDATALOAD SWAP1 POP PUSH2 0xA10 DUP2 PUSH2 0x1111 JUMP JUMPDEST SWAP3 SWAP2 POP POP JUMP JUMPDEST PUSH1 0x0 DUP2 CALLDATALOAD SWAP1 POP PUSH2 0xA25 DUP2 PUSH2 0x1128 JUMP JUMPDEST SWAP3 SWAP2 POP POP JUMP JUMPDEST PUSH1 0x0 PUSH1 0x20 DUP3 DUP5 SUB SLT ISZERO PUSH2 0xA41 JUMPI PUSH2 0xA40 PUSH2 0x1073 JUMP JUMPDEST JUMPDEST PUSH1 0x0 PUSH2 0xA4F DUP5 DUP3 DUP6 ADD PUSH2 0xA01 JUMP JUMPDEST SWAP2 POP POP SWAP3 SWAP2 POP POP JUMP JUMPDEST PUSH1 0x0 PUSH1 0x20 DUP3 DUP5 SUB SLT ISZERO PUSH2 0xA6E JUMPI PUSH2 0xA6D PUSH2 0x1073 JUMP JUMPDEST JUMPDEST PUSH1 0x0 PUSH2 0xA7C DUP5 DUP3 DUP6 ADD PUSH2 0xA16 JUMP JUMPDEST SWAP2 POP POP SWAP3 SWAP2 POP POP JUMP JUMPDEST PUSH2 0xA96 PUSH2 0xA91 DUP3 PUSH2 0xEA1 JUMP JUMPDEST PUSH2 0xF58 JUMP JUMPDEST DUP3 MSTORE POP POP JUMP JUMPDEST PUSH2 0xAA5 DUP2 PUSH2 0xEB3 JUMP JUMPDEST DUP3 MSTORE POP POP JUMP JUMPDEST PUSH1 0x0 PUSH2 0xAB6 DUP3 PUSH2 0xD8A JUMP JUMPDEST PUSH2 0xAC0 DUP2 DUP6 PUSH2 0xD95 JUMP JUMPDEST SWAP4 POP PUSH2 0xAD0 DUP2 DUP6 PUSH1 0x20 DUP7 ADD PUSH2 0xEF3 JUMP JUMPDEST PUSH2 0xAD9 DUP2 PUSH2 0x1078 JUMP JUMPDEST DUP5 ADD SWAP2 POP POP SWAP3 SWAP2 POP POP JUMP JUMPDEST PUSH1 0x0 PUSH2 0xAF1 PUSH1 0xE DUP4 PUSH2 0xDA6 JUMP JUMPDEST SWAP2 POP PUSH2 0xAFC DUP3 PUSH2 0x1096 JUMP JUMPDEST PUSH1 0x20 DUP3 ADD SWAP1 POP SWAP2 SWAP1 POP JUMP JUMPDEST PUSH1 0x0 PUSH2 0xB14 PUSH1 0x18 DUP4 PUSH2 0xDA6 JUMP JUMPDEST SWAP2 POP PUSH2 0xB1F DUP3 PUSH2 0x10BF JUMP JUMPDEST PUSH1 0x20 DUP3 ADD SWAP1 POP SWAP2 SWAP1 POP JUMP JUMPDEST PUSH1 0x0 PUSH2 0xB37 PUSH1 0x13 DUP4 PUSH2 0xDA6 JUMP JUMPDEST SWAP2 POP PUSH2 0xB42 DUP3 PUSH2 0x10E8 JUMP JUMPDEST PUSH1 0x20 DUP3 ADD SWAP1 POP SWAP2 SWAP1 POP JUMP JUMPDEST PUSH1 0x0 PUSH2 0x180 DUP4 ADD PUSH1 0x0 DUP4 ADD MLOAD DUP5 DUP3 SUB PUSH1 0x0 DUP7 ADD MSTORE PUSH2 0xB6B DUP3 DUP3 PUSH2 0xAAB JUMP JUMPDEST SWAP2 POP POP PUSH1 0x20 DUP4 ADD MLOAD PUSH2 0xB80 PUSH1 0x20 DUP7 ADD DUP3 PUSH2 0xC51 JUMP JUMPDEST POP PUSH1 0x40 DUP4 ADD MLOAD PUSH2 0xB93 PUSH1 0x40 DUP7 ADD DUP3 PUSH2 0xC51 JUMP JUMPDEST POP PUSH1 0x60 DUP4 ADD MLOAD PUSH2 0xBA6 PUSH1 0x60 DUP7 ADD DUP3 PUSH2 0xC51 JUMP JUMPDEST POP PUSH1 0x80 DUP4 ADD MLOAD PUSH2 0xBB9 PUSH1 0x80 DUP7 ADD DUP3 PUSH2 0xC51 JUMP JUMPDEST POP PUSH1 0xA0 DUP4 ADD MLOAD PUSH2 0xBCC PUSH1 0xA0 DUP7 ADD DUP3 PUSH2 0xC51 JUMP JUMPDEST POP PUSH1 0xC0 DUP4 ADD MLOAD PUSH2 0xBDF PUSH1 0xC0 DUP7 ADD DUP3 PUSH2 0xC51 JUMP JUMPDEST POP PUSH1 0xE0 DUP4 ADD MLOAD PUSH2 0xBF2 PUSH1 0xE0 DUP7 ADD DUP3 PUSH2 0xC51 JUMP JUMPDEST POP PUSH2 0x100 DUP4 ADD MLOAD PUSH2 0xC07 PUSH2 0x100 DUP7 ADD DUP3 PUSH2 0xC51 JUMP JUMPDEST POP PUSH2 0x120 DUP4 ADD MLOAD PUSH2 0xC1C PUSH2 0x120 DUP7 ADD DUP3 PUSH2 0xC51 JUMP JUMPDEST POP PUSH2 0x140 DUP4 ADD MLOAD PUSH2 0xC31 PUSH2 0x140 DUP7 ADD DUP3 PUSH2 0xC51 JUMP JUMPDEST POP PUSH2 0x160 DUP4 ADD MLOAD PUSH2 0xC46 PUSH2 0x160 DUP7 ADD DUP3 PUSH2 0xC51 JUMP JUMPDEST POP DUP1 SWAP2 POP POP SWAP3 SWAP2 POP POP JUMP JUMPDEST PUSH2 0xC5A DUP2 PUSH2 0xEE9 JUMP JUMPDEST DUP3 MSTORE POP POP JUMP JUMPDEST PUSH2 0xC69 DUP2 PUSH2 0xEE9 JUMP JUMPDEST DUP3 MSTORE POP POP JUMP JUMPDEST PUSH2 0xC80 PUSH2 0xC7B DUP3 PUSH2 0xEE9 JUMP JUMPDEST PUSH2 0xF7C JUMP JUMPDEST DUP3 MSTORE POP POP JUMP JUMPDEST PUSH1 0x0 PUSH2 0xC92 DUP3 DUP7 PUSH2 0xC6F JUMP JUMPDEST PUSH1 0x20 DUP3 ADD SWAP2 POP PUSH2 0xCA2 DUP3 DUP6 PUSH2 0xC6F JUMP JUMPDEST PUSH1 0x20 DUP3 ADD SWAP2 POP PUSH2 0xCB2 DUP3 DUP5 PUSH2 0xA85 JUMP JUMPDEST PUSH1 0x14 DUP3 ADD SWAP2 POP DUP2 SWAP1 POP SWAP5 SWAP4 POP POP POP POP JUMP JUMPDEST PUSH1 0x0 PUSH1 0x20 DUP3 ADD SWAP1 POP DUP2 DUP2 SUB PUSH1 0x0 DUP4 ADD MSTORE PUSH2 0xCDC DUP2 PUSH2 0xAE4 JUMP JUMPDEST SWAP1 POP SWAP2 SWAP1 POP JUMP JUMPDEST PUSH1 0x0 PUSH1 0x20 DUP3 ADD SWAP1 POP DUP2 DUP2 SUB PUSH1 0x0 DUP4 ADD MSTORE PUSH2 0xCFC DUP2 PUSH2 0xB07 JUMP JUMPDEST SWAP1 POP SWAP2 SWAP1 POP JUMP JUMPDEST PUSH1 0x0 PUSH1 0x20 DUP3 ADD SWAP1 POP DUP2 DUP2 SUB PUSH1 0x0 DUP4 ADD MSTORE PUSH2 0xD1C DUP2 PUSH2 0xB2A JUMP JUMPDEST SWAP1 POP SWAP2 SWAP1 POP JUMP JUMPDEST PUSH1 0x0 PUSH1 0x20 DUP3 ADD SWAP1 POP DUP2 DUP2 SUB PUSH1 0x0 DUP4 ADD MSTORE PUSH2 0xD3D DUP2 DUP5 PUSH2 0xB4D JUMP JUMPDEST SWAP1 POP SWAP3 SWAP2 POP POP JUMP JUMPDEST PUSH1 0x0 PUSH1 0x80 DUP3 ADD SWAP1 POP PUSH2 0xD5A PUSH1 0x0 DUP4 ADD DUP8 PUSH2 0xC60 JUMP JUMPDEST PUSH2 0xD67 PUSH1 0x20 DUP4 ADD DUP7 PUSH2 0xA9C JUMP JUMPDEST PUSH2 0xD74 PUSH1 0x40 DUP4 ADD DUP6 PUSH2 0xC60 JUMP JUMPDEST PUSH2 0xD81 PUSH1 0x60 DUP4 ADD DUP5 PUSH2 0xC60 JUMP JUMPDEST SWAP6 SWAP5 POP POP POP POP POP JUMP JUMPDEST PUSH1 0x0 DUP2 MLOAD SWAP1 POP SWAP2 SWAP1 POP JUMP JUMPDEST PUSH1 0x0 DUP3 DUP3 MSTORE PUSH1 0x20 DUP3 ADD SWAP1 POP SWAP3 SWAP2 POP POP JUMP JUMPDEST PUSH1 0x0 DUP3 DUP3 MSTORE PUSH1 0x20 DUP3 ADD SWAP1 POP SWAP3 SWAP2 POP POP JUMP JUMPDEST PUSH1 0x0 PUSH2 0xDC2 DUP3 PUSH2 0xEBF JUMP JUMPDEST SWAP2 POP PUSH2 0xDCD DUP4 PUSH2 0xEBF JUMP JUMPDEST SWAP3 POP DUP2 PUSH32 0x7FFFFFFFFFFFFFFFFFFFFFFFFFFFFFFFFFFFFFFFFFFFFFFFFFFFFFFFFFFFFFFF SUB DUP4 SGT PUSH1 0x0 DUP4 SLT ISZERO AND ISZERO PUSH2 0xE08 JUMPI PUSH2 0xE07 PUSH2 0xFB7 JUMP JUMPDEST JUMPDEST DUP2 PUSH32 0x8000000000000000000000000000000000000000000000000000000000000000 SUB DUP4 SLT PUSH1 0x0 DUP4 SLT AND ISZERO PUSH2 0xE40 JUMPI PUSH2 0xE3F PUSH2 0xFB7 JUMP JUMPDEST JUMPDEST DUP3 DUP3 ADD SWAP1 POP SWAP3 SWAP2 POP POP JUMP JUMPDEST PUSH1 0x0 PUSH2 0xE56 DUP3 PUSH2 0xEE9 JUMP JUMPDEST SWAP2 POP PUSH2 0xE61 DUP4 PUSH2 0xEE9 JUMP JUMPDEST SWAP3 POP DUP3 PUSH32 0xFFFFFFFFFFFFFFFFFFFFFFFFFFFFFFFFFFFFFFFFFFFFFFFFFFFFFFFFFFFFFFFF SUB DUP3 GT ISZERO PUSH2 0xE96 JUMPI PUSH2 0xE95 PUSH2 0xFB7 JUMP JUMPDEST JUMPDEST DUP3 DUP3 ADD SWAP1 POP SWAP3 SWAP2 POP POP JUMP JUMPDEST PUSH1 0x0 PUSH2 0xEAC DUP3 PUSH2 0xEC9 JUMP JUMPDEST SWAP1 POP SWAP2 SWAP1 POP JUMP JUMPDEST PUSH1 0x0 DUP2 ISZERO ISZERO SWAP1 POP SWAP2 SWAP1 POP JUMP JUMPDEST PUSH1 0x0 DUP2 SWAP1 POP SWAP2 SWAP1 POP JUMP JUMPDEST PUSH1 0x0 PUSH20 0xFFFFFFFFFFFFFFFFFFFFFFFFFFFFFFFFFFFFFFFF DUP3 AND SWAP1 POP SWAP2 SWAP1 POP JUMP JUMPDEST PUSH1 0x0 DUP2 SWAP1 POP SWAP2 SWAP1 POP JUMP JUMPDEST PUSH1 0x0 JUMPDEST DUP4 DUP2 LT ISZERO PUSH2 0xF11 JUMPI DUP1 DUP3 ADD MLOAD DUP2 DUP5 ADD MSTORE PUSH1 0x20 DUP2 ADD SWAP1 POP PUSH2 0xEF6 JUMP JUMPDEST DUP4 DUP2 GT ISZERO PUSH2 0xF20 JUMPI PUSH1 0x0 DUP5 DUP5 ADD MSTORE JUMPDEST POP POP POP POP JUMP JUMPDEST PUSH1 0x0 PUSH1 0x2 DUP3 DIV SWAP1 POP PUSH1 0x1 DUP3 AND DUP1 PUSH2 0xF3E JUMPI PUSH1 0x7F DUP3 AND SWAP2 POP JUMPDEST PUSH1 0x20 DUP3 LT DUP2 EQ ISZERO PUSH2 0xF52 JUMPI PUSH2 0xF51 PUSH2 0x1015 JUMP JUMPDEST JUMPDEST POP SWAP2 SWAP1 POP JUMP JUMPDEST PUSH1 0x0 PUSH2 0xF63 DUP3 PUSH2 0xF6A JUMP JUMPDEST SWAP1 POP SWAP2 SWAP1 POP JUMP JUMPDEST PUSH1 0x0 PUSH2 0xF75 DUP3 PUSH2 0x1089 JUMP JUMPDEST SWAP1 POP SWAP2 SWAP1 POP JUMP JUMPDEST PUSH1 0x0 DUP2 SWAP1 POP SWAP2 SWAP1 POP JUMP JUMPDEST PUSH1 0x0 PUSH2 0xF91 DUP3 PUSH2 0xEE9 JUMP JUMPDEST SWAP2 POP PUSH2 0xF9C DUP4 PUSH2 0xEE9 JUMP JUMPDEST SWAP3 POP DUP3 PUSH2 0xFAC JUMPI PUSH2 0xFAB PUSH2 0xFE6 JUMP JUMPDEST JUMPDEST DUP3 DUP3 MOD SWAP1 POP SWAP3 SWAP2 POP POP JUMP JUMPDEST PUSH32 0x4E487B7100000000000000000000000000000000000000000000000000000000 PUSH1 0x0 MSTORE PUSH1 0x11 PUSH1 0x4 MSTORE PUSH1 0x24 PUSH1 0x0 REVERT JUMPDEST PUSH32 0x4E487B7100000000000000000000000000000000000000000000000000000000 PUSH1 0x0 MSTORE PUSH1 0x12 PUSH1 0x4 MSTORE PUSH1 0x24 PUSH1 0x0 REVERT JUMPDEST PUSH32 0x4E487B7100000000000000000000000000000000000000000000000000000000 PUSH1 0x0 MSTORE PUSH1 0x22 PUSH1 0x4 MSTORE PUSH1 0x24 PUSH1 0x0 REVERT JUMPDEST PUSH32 0x4E487B7100000000000000000000000000000000000000000000000000000000 PUSH1 0x0 MSTORE PUSH1 0x32 PUSH1 0x4 MSTORE PUSH1 0x24 PUSH1 0x0 REVERT JUMPDEST PUSH1 0x0 DUP1 REVERT JUMPDEST PUSH1 0x0 PUSH1 0x1F NOT PUSH1 0x1F DUP4 ADD AND SWAP1 POP SWAP2 SWAP1 POP JUMP JUMPDEST PUSH1 0x0 DUP2 PUSH1 0x60 SHL SWAP1 POP SWAP2 SWAP1 POP JUMP JUMPDEST PUSH32 0x416C726561647920766F7465642E000000000000000000000000000000000000 PUSH1 0x0 DUP3 ADD MSTORE POP JUMP JUMPDEST PUSH32 0x54686520766F74657220616C726561647920766F7465642E0000000000000000 PUSH1 0x0 DUP3 ADD MSTORE POP JUMP JUMPDEST PUSH32 0x52656163686564206D617820766F746572732E00000000000000000000000000 PUSH1 0x0 DUP3 ADD MSTORE POP JUMP JUMPDEST PUSH2 0x111A DUP2 PUSH2 0xEA1 JUMP JUMPDEST DUP2 EQ PUSH2 0x1125 JUMPI PUSH1 0x0 DUP1 REVERT JUMPDEST POP JUMP JUMPDEST PUSH2 0x1131 DUP2 PUSH2 0xEE9 JUMP JUMPDEST DUP2 EQ PUSH2 0x113C JUMPI PUSH1 0x0 DUP1 REVERT JUMPDEST POP JUMP INVALID LOG2 PUSH5 0x6970667358 0x22 SLT KECCAK256 0xAB 0xD8 0xE7 EXTCODECOPY 0xDA 0xED SWAP4 0xCB SWAP2 RETURNDATASIZE DUP9 SIGNEXTEND 0xC6 0xDE SWAP6 DUP12 PC PUSH6 0xE9409BD8B5CD ADDRESS 0xBA PUSH10 0x19E99683A264736F6C63 NUMBER STOP ADDMOD SMOD STOP CALLER "
				},
				"gasEstimates": {
					"creation": {
						"codeDepositCost": "893800",
						"executionCost": "infinite",
						"totalCost": "infinite"
					},
					"external": {
						"axx(uint256)": "infinite",
						"res(uint256)": "infinite",
						"vote()": "infinite",
						"voters(address)": "infinite"
					},
					"internal": {
						"countVoters()": "infinite",
						"random_district()": "infinite",
						"random_vote()": "infinite"
					}
				},
				"methodIdentifiers": {
					"axx(uint256)": "64030a19",
					"res(uint256)": "d4e8fd2e",
					"vote()": "632a9a52",
					"voters(address)": "a3ec138d"
				}
			},
			"storageLayout": {
				"storage": [
					{
						"astId": 38,
						"contract": "smartContract/contracts/3_Ballot.sol:Ballot",
						"label": "chairperson",
						"offset": 0,
						"slot": "0",
						"type": "t_address"
					},
					{
						"astId": 43,
						"contract": "smartContract/contracts/3_Ballot.sol:Ballot",
						"label": "voters",
						"offset": 0,
						"slot": "1",
						"type": "t_mapping(t_address,t_struct(Voter)11_storage)"
					},
					{
						"astId": 47,
						"contract": "smartContract/contracts/3_Ballot.sol:Ballot",
						"label": "axx",
						"offset": 0,
						"slot": "2",
						"type": "t_array(t_struct(Voter)11_storage)dyn_storage"
					},
					{
						"astId": 51,
						"contract": "smartContract/contracts/3_Ballot.sol:Ballot",
						"label": "proposals",
						"offset": 0,
						"slot": "3",
						"type": "t_array(t_struct(Proposal)36_storage)dyn_storage"
					},
					{
						"astId": 148,
						"contract": "smartContract/contracts/3_Ballot.sol:Ballot",
						"label": "countV",
						"offset": 0,
						"slot": "4",
						"type": "t_int256"
					}
				],
				"types": {
					"t_address": {
						"encoding": "inplace",
						"label": "address",
						"numberOfBytes": "20"
					},
					"t_array(t_struct(Proposal)36_storage)dyn_storage": {
						"base": "t_struct(Proposal)36_storage",
						"encoding": "dynamic_array",
						"label": "struct Ballot.Proposal[]",
						"numberOfBytes": "32"
					},
					"t_array(t_struct(Voter)11_storage)dyn_storage": {
						"base": "t_struct(Voter)11_storage",
						"encoding": "dynamic_array",
						"label": "struct Ballot.Voter[]",
						"numberOfBytes": "32"
					},
					"t_bool": {
						"encoding": "inplace",
						"label": "bool",
						"numberOfBytes": "1"
					},
					"t_int256": {
						"encoding": "inplace",
						"label": "int256",
						"numberOfBytes": "32"
					},
					"t_mapping(t_address,t_struct(Voter)11_storage)": {
						"encoding": "mapping",
						"key": "t_address",
						"label": "mapping(address => struct Ballot.Voter)",
						"numberOfBytes": "32",
						"value": "t_struct(Voter)11_storage"
					},
					"t_string_storage": {
						"encoding": "bytes",
						"label": "string",
						"numberOfBytes": "32"
					},
					"t_struct(Proposal)36_storage": {
						"encoding": "inplace",
						"label": "struct Ballot.Proposal",
						"members": [
							{
								"astId": 13,
								"contract": "smartContract/contracts/3_Ballot.sol:Ballot",
								"label": "name",
								"offset": 0,
								"slot": "0",
								"type": "t_string_storage"
							},
							{
								"astId": 15,
								"contract": "smartContract/contracts/3_Ballot.sol:Ballot",
								"label": "Total_Votes",
								"offset": 0,
								"slot": "1",
								"type": "t_uint256"
							},
							{
								"astId": 17,
								"contract": "smartContract/contracts/3_Ballot.sol:Ballot",
								"label": "Votes_District0",
								"offset": 0,
								"slot": "2",
								"type": "t_uint256"
							},
							{
								"astId": 19,
								"contract": "smartContract/contracts/3_Ballot.sol:Ballot",
								"label": "Votes_District1",
								"offset": 0,
								"slot": "3",
								"type": "t_uint256"
							},
							{
								"astId": 21,
								"contract": "smartContract/contracts/3_Ballot.sol:Ballot",
								"label": "Votes_District2",
								"offset": 0,
								"slot": "4",
								"type": "t_uint256"
							},
							{
								"astId": 23,
								"contract": "smartContract/contracts/3_Ballot.sol:Ballot",
								"label": "Votes_District3",
								"offset": 0,
								"slot": "5",
								"type": "t_uint256"
							},
							{
								"astId": 25,
								"contract": "smartContract/contracts/3_Ballot.sol:Ballot",
								"label": "Votes_District4",
								"offset": 0,
								"slot": "6",
								"type": "t_uint256"
							},
							{
								"astId": 27,
								"contract": "smartContract/contracts/3_Ballot.sol:Ballot",
								"label": "Votes_District5",
								"offset": 0,
								"slot": "7",
								"type": "t_uint256"
							},
							{
								"astId": 29,
								"contract": "smartContract/contracts/3_Ballot.sol:Ballot",
								"label": "Votes_District6",
								"offset": 0,
								"slot": "8",
								"type": "t_uint256"
							},
							{
								"astId": 31,
								"contract": "smartContract/contracts/3_Ballot.sol:Ballot",
								"label": "Votes_District7",
								"offset": 0,
								"slot": "9",
								"type": "t_uint256"
							},
							{
								"astId": 33,
								"contract": "smartContract/contracts/3_Ballot.sol:Ballot",
								"label": "Votes_District8",
								"offset": 0,
								"slot": "10",
								"type": "t_uint256"
							},
							{
								"astId": 35,
								"contract": "smartContract/contracts/3_Ballot.sol:Ballot",
								"label": "Votes_District9",
								"offset": 0,
								"slot": "11",
								"type": "t_uint256"
							}
						],
						"numberOfBytes": "384"
					},
					"t_struct(Voter)11_storage": {
						"encoding": "inplace",
						"label": "struct Ballot.Voter",
						"members": [
							{
								"astId": 4,
								"contract": "smartContract/contracts/3_Ballot.sol:Ballot",
								"label": "weight",
								"offset": 0,
								"slot": "0",
								"type": "t_uint256"
							},
							{
								"astId": 6,
								"contract": "smartContract/contracts/3_Ballot.sol:Ballot",
								"label": "voted",
								"offset": 0,
								"slot": "1",
								"type": "t_bool"
							},
							{
								"astId": 8,
								"contract": "smartContract/contracts/3_Ballot.sol:Ballot",
								"label": "district",
								"offset": 0,
								"slot": "2",
								"type": "t_uint256"
							},
							{
								"astId": 10,
								"contract": "smartContract/contracts/3_Ballot.sol:Ballot",
								"label": "vote",
								"offset": 0,
								"slot": "3",
								"type": "t_uint256"
							}
						],
						"numberOfBytes": "128"
					},
					"t_uint256": {
						"encoding": "inplace",
						"label": "uint256",
						"numberOfBytes": "32"
					}
				}
			},
			"userdoc": {
				"kind": "user",
				"methods": {},
				"version": 1
			}
		}
	}
}