{
	"smartContract/contracts/3_Ballot.sol": {
		"Ballot": {
			"abi": [
				{
					"inputs": [],
					"stateMutability": "nonpayable",
					"type": "constructor"
				},
				{
					"inputs": [
						{
							"internalType": "uint256",
							"name": "_id",
							"type": "uint256"
						}
					],
					"name": "res",
					"outputs": [
						{
							"components": [
								{
									"internalType": "string",
									"name": "name",
									"type": "string"
								},
								{
									"internalType": "uint256",
									"name": "Total_Votes",
									"type": "uint256"
								},
								{
									"internalType": "uint256",
									"name": "Votes_District0",
									"type": "uint256"
								},
								{
									"internalType": "uint256",
									"name": "Votes_District1",
									"type": "uint256"
								},
								{
									"internalType": "uint256",
									"name": "Votes_District2",
									"type": "uint256"
								},
								{
									"internalType": "uint256",
									"name": "Votes_District3",
									"type": "uint256"
								},
								{
									"internalType": "uint256",
									"name": "Votes_District4",
									"type": "uint256"
								},
								{
									"internalType": "uint256",
									"name": "Votes_District5",
									"type": "uint256"
								},
								{
									"internalType": "uint256",
									"name": "Votes_District6",
									"type": "uint256"
								},
								{
									"internalType": "uint256",
									"name": "Votes_District7",
									"type": "uint256"
								},
								{
									"internalType": "uint256",
									"name": "Votes_District8",
									"type": "uint256"
								},
								{
									"internalType": "uint256",
									"name": "Votes_District9",
									"type": "uint256"
								}
							],
							"internalType": "struct Ballot.Proposal",
							"name": "",
							"type": "tuple"
						}
					],
					"stateMutability": "view",
					"type": "function"
				},
				{
					"inputs": [],
					"name": "vote",
					"outputs": [],
					"stateMutability": "nonpayable",
					"type": "function"
				}
			],
			"devdoc": {
				"details": "Implements voting process along with vote delegation",
				"kind": "dev",
				"methods": {},
				"title": "Ballot",
				"version": 1
			},
			"evm": {
				"assembly": "    /* \"smartContract/contracts/3_Ballot.sol\":157:4305  contract Ballot {... */\n  mstore(0x40, 0x80)\n    /* \"smartContract/contracts/3_Ballot.sol\":2101:2102  0 */\n  0x00\n    /* \"smartContract/contracts/3_Ballot.sol\":2080:2102  int private countV = 0 */\n  0x03\n  sstore\n    /* \"smartContract/contracts/3_Ballot.sol\":2194:2195  0 */\n  0x00\n    /* \"smartContract/contracts/3_Ballot.sol\":2173:2195  int private count2 = 0 */\n  0x04\n  sstore\n    /* \"smartContract/contracts/3_Ballot.sol\":1196:2038  constructor() {... */\n  callvalue\n  dup1\n  iszero\n  tag_1\n  jumpi\n  0x00\n  dup1\n  revert\ntag_1:\n  pop\n    /* \"smartContract/contracts/3_Ballot.sol\":1234:1244  msg.sender */\n  caller\n    /* \"smartContract/contracts/3_Ballot.sol\":1220:1231  chairperson */\n  0x00\n  dup1\n    /* \"smartContract/contracts/3_Ballot.sol\":1220:1244  chairperson = msg.sender */\n  0x0100\n  exp\n  dup2\n  sload\n  dup2\n  0xffffffffffffffffffffffffffffffffffffffff\n  mul\n  not\n  and\n  swap1\n  dup4\n  0xffffffffffffffffffffffffffffffffffffffff\n  and\n  mul\n  or\n  swap1\n  sstore\n  pop\n    /* \"smartContract/contracts/3_Ballot.sol\":1283:1284  1 */\n  0x01\n    /* \"smartContract/contracts/3_Ballot.sol\":1254:1260  voters */\n  dup1\n    /* \"smartContract/contracts/3_Ballot.sol\":1254:1273  voters[chairperson] */\n  0x00\n    /* \"smartContract/contracts/3_Ballot.sol\":1261:1272  chairperson */\n  dup1\n  0x00\n  swap1\n  sload\n  swap1\n  0x0100\n  exp\n  swap1\n  div\n  0xffffffffffffffffffffffffffffffffffffffff\n  and\n    /* \"smartContract/contracts/3_Ballot.sol\":1254:1273  voters[chairperson] */\n  0xffffffffffffffffffffffffffffffffffffffff\n  and\n  0xffffffffffffffffffffffffffffffffffffffff\n  and\n  dup2\n  mstore\n  0x20\n  add\n  swap1\n  dup2\n  mstore\n  0x20\n  add\n  0x00\n  keccak256\n    /* \"smartContract/contracts/3_Ballot.sol\":1254:1280  voters[chairperson].weight */\n  0x00\n  add\n    /* \"smartContract/contracts/3_Ballot.sol\":1254:1284  voters[chairperson].weight = 1 */\n  dup2\n  swap1\n  sstore\n  pop\n    /* \"smartContract/contracts/3_Ballot.sol\":1294:1324  string[5] memory proposalNames */\n  0x00\n    /* \"smartContract/contracts/3_Ballot.sol\":1294:1348  string[5] memory proposalNames = [\"a\",\"b\",\"c\",\"d\",\"e\"] */\n  mload(0x40)\n  dup1\n  0xa0\n  add\n  0x40\n  mstore\n  dup1\n  mload(0x40)\n  dup1\n  0x40\n  add\n  0x40\n  mstore\n  dup1\n  0x01\n  dup2\n  mstore\n  0x20\n  add\n  0x6100000000000000000000000000000000000000000000000000000000000000\n  dup2\n  mstore\n  pop\n  dup2\n  mstore\n  0x20\n  add\n  mload(0x40)\n  dup1\n  0x40\n  add\n  0x40\n  mstore\n  dup1\n  0x01\n  dup2\n  mstore\n  0x20\n  add\n  0x6200000000000000000000000000000000000000000000000000000000000000\n  dup2\n  mstore\n  pop\n  dup2\n  mstore\n  0x20\n  add\n  mload(0x40)\n  dup1\n  0x40\n  add\n  0x40\n  mstore\n  dup1\n  0x01\n  dup2\n  mstore\n  0x20\n  add\n  0x6300000000000000000000000000000000000000000000000000000000000000\n  dup2\n  mstore\n  pop\n  dup2\n  mstore\n  0x20\n  add\n  mload(0x40)\n  dup1\n  0x40\n  add\n  0x40\n  mstore\n  dup1\n  0x01\n  dup2\n  mstore\n  0x20\n  add\n  0x6400000000000000000000000000000000000000000000000000000000000000\n  dup2\n  mstore\n  pop\n  dup2\n  mstore\n  0x20\n  add\n  mload(0x40)\n  dup1\n  0x40\n  add\n  0x40\n  mstore\n  dup1\n  0x01\n  dup2\n  mstore\n  0x20\n  add\n  0x6500000000000000000000000000000000000000000000000000000000000000\n  dup2\n  mstore\n  pop\n  dup2\n  mstore\n  pop\n  swap1\n  pop\n    /* \"smartContract/contracts/3_Ballot.sol\":1388:1389  5 */\n  0x05\n    /* \"smartContract/contracts/3_Ballot.sol\":1366:1386  proposalNames.length */\n  dup1\n    /* \"smartContract/contracts/3_Ballot.sol\":1366:1389  proposalNames.length==5 */\n  eq\n    /* \"smartContract/contracts/3_Ballot.sol\":1358:1414  require(proposalNames.length==5,\"Candidates must be 5.\") */\n  tag_4\n  jumpi\n  mload(0x40)\n  0x08c379a000000000000000000000000000000000000000000000000000000000\n  dup2\n  mstore\n  0x04\n  add\n  tag_5\n  swap1\n  tag_6\n  jump\t// in\ntag_5:\n  mload(0x40)\n  dup1\n  swap2\n  sub\n  swap1\n  revert\ntag_4:\n    /* \"smartContract/contracts/3_Ballot.sol\":1429:1435  uint i */\n  0x00\n    /* \"smartContract/contracts/3_Ballot.sol\":1424:2032  for (uint i = 0; i < proposalNames.length; i++) {... */\ntag_7:\n    /* \"smartContract/contracts/3_Ballot.sol\":1445:1465  proposalNames.length */\n  0x05\n    /* \"smartContract/contracts/3_Ballot.sol\":1441:1442  i */\n  dup2\n    /* \"smartContract/contracts/3_Ballot.sol\":1441:1465  i < proposalNames.length */\n  lt\n    /* \"smartContract/contracts/3_Ballot.sol\":1424:2032  for (uint i = 0; i < proposalNames.length; i++) {... */\n  iszero\n  tag_8\n  jumpi\n    /* \"smartContract/contracts/3_Ballot.sol\":1486:1495  proposals */\n  0x02\n    /* \"smartContract/contracts/3_Ballot.sol\":1501:2020  Proposal({... */\n  mload(0x40)\n  dup1\n  0x0180\n  add\n  0x40\n  mstore\n  dup1\n    /* \"smartContract/contracts/3_Ballot.sol\":1534:1547  proposalNames */\n  dup5\n    /* \"smartContract/contracts/3_Ballot.sol\":1548:1549  i */\n  dup5\n    /* \"smartContract/contracts/3_Ballot.sol\":1534:1550  proposalNames[i] */\n  0x05\n  dup2\n  lt\n  tag_10\n  jumpi\n  tag_11\n  tag_12\n  jump\t// in\ntag_11:\ntag_10:\n  0x20\n  mul\n  add\n  mload\n    /* \"smartContract/contracts/3_Ballot.sol\":1501:2020  Proposal({... */\n  dup2\n  mstore\n  0x20\n  add\n    /* \"smartContract/contracts/3_Ballot.sol\":1644:1645  0 */\n  0x00\n    /* \"smartContract/contracts/3_Ballot.sol\":1501:2020  Proposal({... */\n  dup2\n  mstore\n  0x20\n  add\n    /* \"smartContract/contracts/3_Ballot.sol\":1680:1681  0 */\n  0x00\n    /* \"smartContract/contracts/3_Ballot.sol\":1501:2020  Proposal({... */\n  dup2\n  mstore\n  0x20\n  add\n    /* \"smartContract/contracts/3_Ballot.sol\":1716:1717  0 */\n  0x00\n    /* \"smartContract/contracts/3_Ballot.sol\":1501:2020  Proposal({... */\n  dup2\n  mstore\n  0x20\n  add\n    /* \"smartContract/contracts/3_Ballot.sol\":1752:1753  0 */\n  0x00\n    /* \"smartContract/contracts/3_Ballot.sol\":1501:2020  Proposal({... */\n  dup2\n  mstore\n  0x20\n  add\n    /* \"smartContract/contracts/3_Ballot.sol\":1788:1789  0 */\n  0x00\n    /* \"smartContract/contracts/3_Ballot.sol\":1501:2020  Proposal({... */\n  dup2\n  mstore\n  0x20\n  add\n    /* \"smartContract/contracts/3_Ballot.sol\":1824:1825  0 */\n  0x00\n    /* \"smartContract/contracts/3_Ballot.sol\":1501:2020  Proposal({... */\n  dup2\n  mstore\n  0x20\n  add\n    /* \"smartContract/contracts/3_Ballot.sol\":1860:1861  0 */\n  0x00\n    /* \"smartContract/contracts/3_Ballot.sol\":1501:2020  Proposal({... */\n  dup2\n  mstore\n  0x20\n  add\n    /* \"smartContract/contracts/3_Ballot.sol\":1896:1897  0 */\n  0x00\n    /* \"smartContract/contracts/3_Ballot.sol\":1501:2020  Proposal({... */\n  dup2\n  mstore\n  0x20\n  add\n    /* \"smartContract/contracts/3_Ballot.sol\":1932:1933  0 */\n  0x00\n    /* \"smartContract/contracts/3_Ballot.sol\":1501:2020  Proposal({... */\n  dup2\n  mstore\n  0x20\n  add\n    /* \"smartContract/contracts/3_Ballot.sol\":1968:1969  0 */\n  0x00\n    /* \"smartContract/contracts/3_Ballot.sol\":1501:2020  Proposal({... */\n  dup2\n  mstore\n  0x20\n  add\n    /* \"smartContract/contracts/3_Ballot.sol\":2004:2005  0 */\n  0x00\n    /* \"smartContract/contracts/3_Ballot.sol\":1501:2020  Proposal({... */\n  dup2\n  mstore\n  pop\n    /* \"smartContract/contracts/3_Ballot.sol\":1486:2021  proposals.push(Proposal({... */\n  swap1\n  dup1\n  0x01\n  dup2\n  sload\n  add\n  dup1\n  dup3\n  sstore\n  dup1\n  swap2\n  pop\n  pop\n  0x01\n  swap1\n  sub\n  swap1\n  0x00\n  mstore\n  keccak256(0x00, 0x20)\n  swap1\n  0x0c\n  mul\n  add\n  0x00\n  swap1\n  swap2\n  swap1\n  swap2\n  swap1\n  swap2\n  pop\n  0x00\n  dup3\n  add\n  mload\n  dup2\n  0x00\n  add\n  swap1\n  dup1\n  mload\n  swap1\n  0x20\n  add\n  swap1\n  tag_14\n  swap3\n  swap2\n  swap1\n  tag_15\n  jump\t// in\ntag_14:\n  pop\n  0x20\n  dup3\n  add\n  mload\n  dup2\n  0x01\n  add\n  sstore\n  0x40\n  dup3\n  add\n  mload\n  dup2\n  0x02\n  add\n  sstore\n  0x60\n  dup3\n  add\n  mload\n  dup2\n  0x03\n  add\n  sstore\n  0x80\n  dup3\n  add\n  mload\n  dup2\n  0x04\n  add\n  sstore\n  0xa0\n  dup3\n  add\n  mload\n  dup2\n  0x05\n  add\n  sstore\n  0xc0\n  dup3\n  add\n  mload\n  dup2\n  0x06\n  add\n  sstore\n  0xe0\n  dup3\n  add\n  mload\n  dup2\n  0x07\n  add\n  sstore\n  0x0100\n  dup3\n  add\n  mload\n  dup2\n  0x08\n  add\n  sstore\n  0x0120\n  dup3\n  add\n  mload\n  dup2\n  0x09\n  add\n  sstore\n  0x0140\n  dup3\n  add\n  mload\n  dup2\n  0x0a\n  add\n  sstore\n  0x0160\n  dup3\n  add\n  mload\n  dup2\n  0x0b\n  add\n  sstore\n  pop\n  pop\n    /* \"smartContract/contracts/3_Ballot.sol\":1467:1470  i++ */\n  dup1\n  dup1\n  tag_16\n  swap1\n  tag_17\n  jump\t// in\ntag_16:\n  swap2\n  pop\n  pop\n    /* \"smartContract/contracts/3_Ballot.sol\":1424:2032  for (uint i = 0; i < proposalNames.length; i++) {... */\n  jump(tag_7)\ntag_8:\n  pop\n    /* \"smartContract/contracts/3_Ballot.sol\":1210:2038  {... */\n  pop\n    /* \"smartContract/contracts/3_Ballot.sol\":157:4305  contract Ballot {... */\n  jump(tag_18)\ntag_15:\n  dup3\n  dup1\n  sload\n  tag_19\n  swap1\n  tag_20\n  jump\t// in\ntag_19:\n  swap1\n  0x00\n  mstore\n  keccak256(0x00, 0x20)\n  swap1\n  0x1f\n  add\n  0x20\n  swap1\n  div\n  dup2\n  add\n  swap3\n  dup3\n  tag_22\n  jumpi\n  0x00\n  dup6\n  sstore\n  jump(tag_21)\ntag_22:\n  dup3\n  0x1f\n  lt\n  tag_23\n  jumpi\n  dup1\n  mload\n  not(0xff)\n  and\n  dup4\n  dup1\n  add\n  or\n  dup6\n  sstore\n  jump(tag_21)\ntag_23:\n  dup3\n  dup1\n  add\n  0x01\n  add\n  dup6\n  sstore\n  dup3\n  iszero\n  tag_21\n  jumpi\n  swap2\n  dup3\n  add\ntag_24:\n  dup3\n  dup2\n  gt\n  iszero\n  tag_25\n  jumpi\n  dup3\n  mload\n  dup3\n  sstore\n  swap2\n  0x20\n  add\n  swap2\n  swap1\n  0x01\n  add\n  swap1\n  jump(tag_24)\ntag_25:\ntag_21:\n  pop\n  swap1\n  pop\n  tag_26\n  swap2\n  swap1\n  tag_27\n  jump\t// in\ntag_26:\n  pop\n  swap1\n  jump\t// out\ntag_27:\ntag_28:\n  dup1\n  dup3\n  gt\n  iszero\n  tag_29\n  jumpi\n  0x00\n  dup2\n  0x00\n  swap1\n  sstore\n  pop\n  0x01\n  add\n  jump(tag_28)\ntag_29:\n  pop\n  swap1\n  jump\t// out\n    /* \"#utility.yul\":7:373   */\ntag_31:\n    /* \"#utility.yul\":149:152   */\n  0x00\n    /* \"#utility.yul\":170:237   */\n  tag_33\n    /* \"#utility.yul\":234:236   */\n  0x15\n    /* \"#utility.yul\":229:232   */\n  dup4\n    /* \"#utility.yul\":170:237   */\n  tag_34\n  jump\t// in\ntag_33:\n    /* \"#utility.yul\":163:237   */\n  swap2\n  pop\n    /* \"#utility.yul\":246:339   */\n  tag_35\n    /* \"#utility.yul\":335:338   */\n  dup3\n    /* \"#utility.yul\":246:339   */\n  tag_36\n  jump\t// in\ntag_35:\n    /* \"#utility.yul\":364:366   */\n  0x20\n    /* \"#utility.yul\":359:362   */\n  dup3\n    /* \"#utility.yul\":355:367   */\n  add\n    /* \"#utility.yul\":348:367   */\n  swap1\n  pop\n    /* \"#utility.yul\":7:373   */\n  swap2\n  swap1\n  pop\n  jump\t// out\n    /* \"#utility.yul\":379:798   */\ntag_6:\n    /* \"#utility.yul\":545:549   */\n  0x00\n    /* \"#utility.yul\":583:585   */\n  0x20\n    /* \"#utility.yul\":572:581   */\n  dup3\n    /* \"#utility.yul\":568:586   */\n  add\n    /* \"#utility.yul\":560:586   */\n  swap1\n  pop\n    /* \"#utility.yul\":632:641   */\n  dup2\n    /* \"#utility.yul\":626:630   */\n  dup2\n    /* \"#utility.yul\":622:642   */\n  sub\n    /* \"#utility.yul\":618:619   */\n  0x00\n    /* \"#utility.yul\":607:616   */\n  dup4\n    /* \"#utility.yul\":603:620   */\n  add\n    /* \"#utility.yul\":596:643   */\n  mstore\n    /* \"#utility.yul\":660:791   */\n  tag_38\n    /* \"#utility.yul\":786:790   */\n  dup2\n    /* \"#utility.yul\":660:791   */\n  tag_31\n  jump\t// in\ntag_38:\n    /* \"#utility.yul\":652:791   */\n  swap1\n  pop\n    /* \"#utility.yul\":379:798   */\n  swap2\n  swap1\n  pop\n  jump\t// out\n    /* \"#utility.yul\":804:973   */\ntag_34:\n    /* \"#utility.yul\":888:899   */\n  0x00\n    /* \"#utility.yul\":922:928   */\n  dup3\n    /* \"#utility.yul\":917:920   */\n  dup3\n    /* \"#utility.yul\":910:929   */\n  mstore\n    /* \"#utility.yul\":962:966   */\n  0x20\n    /* \"#utility.yul\":957:960   */\n  dup3\n    /* \"#utility.yul\":953:967   */\n  add\n    /* \"#utility.yul\":938:967   */\n  swap1\n  pop\n    /* \"#utility.yul\":804:973   */\n  swap3\n  swap2\n  pop\n  pop\n  jump\t// out\n    /* \"#utility.yul\":979:1056   */\ntag_40:\n    /* \"#utility.yul\":1016:1023   */\n  0x00\n    /* \"#utility.yul\":1045:1050   */\n  dup2\n    /* \"#utility.yul\":1034:1050   */\n  swap1\n  pop\n    /* \"#utility.yul\":979:1056   */\n  swap2\n  swap1\n  pop\n  jump\t// out\n    /* \"#utility.yul\":1062:1382   */\ntag_20:\n    /* \"#utility.yul\":1106:1112   */\n  0x00\n    /* \"#utility.yul\":1143:1144   */\n  0x02\n    /* \"#utility.yul\":1137:1141   */\n  dup3\n    /* \"#utility.yul\":1133:1145   */\n  div\n    /* \"#utility.yul\":1123:1145   */\n  swap1\n  pop\n    /* \"#utility.yul\":1190:1191   */\n  0x01\n    /* \"#utility.yul\":1184:1188   */\n  dup3\n    /* \"#utility.yul\":1180:1192   */\n  and\n    /* \"#utility.yul\":1211:1229   */\n  dup1\n    /* \"#utility.yul\":1201:1282   */\n  tag_43\n  jumpi\n    /* \"#utility.yul\":1267:1271   */\n  0x7f\n    /* \"#utility.yul\":1259:1265   */\n  dup3\n    /* \"#utility.yul\":1255:1272   */\n  and\n    /* \"#utility.yul\":1245:1272   */\n  swap2\n  pop\n    /* \"#utility.yul\":1201:1282   */\ntag_43:\n    /* \"#utility.yul\":1329:1331   */\n  0x20\n    /* \"#utility.yul\":1321:1327   */\n  dup3\n    /* \"#utility.yul\":1318:1332   */\n  lt\n    /* \"#utility.yul\":1298:1316   */\n  dup2\n    /* \"#utility.yul\":1295:1333   */\n  eq\n    /* \"#utility.yul\":1292:1376   */\n  iszero\n  tag_44\n  jumpi\n    /* \"#utility.yul\":1348:1366   */\n  tag_45\n  tag_46\n  jump\t// in\ntag_45:\n    /* \"#utility.yul\":1292:1376   */\ntag_44:\n    /* \"#utility.yul\":1113:1382   */\n  pop\n    /* \"#utility.yul\":1062:1382   */\n  swap2\n  swap1\n  pop\n  jump\t// out\n    /* \"#utility.yul\":1388:1621   */\ntag_17:\n    /* \"#utility.yul\":1427:1430   */\n  0x00\n    /* \"#utility.yul\":1450:1474   */\n  tag_48\n    /* \"#utility.yul\":1468:1473   */\n  dup3\n    /* \"#utility.yul\":1450:1474   */\n  tag_40\n  jump\t// in\ntag_48:\n    /* \"#utility.yul\":1441:1474   */\n  swap2\n  pop\n    /* \"#utility.yul\":1496:1562   */\n  0xffffffffffffffffffffffffffffffffffffffffffffffffffffffffffffffff\n    /* \"#utility.yul\":1489:1494   */\n  dup3\n    /* \"#utility.yul\":1486:1563   */\n  eq\n    /* \"#utility.yul\":1483:1586   */\n  iszero\n  tag_49\n  jumpi\n    /* \"#utility.yul\":1566:1584   */\n  tag_50\n  tag_51\n  jump\t// in\ntag_50:\n    /* \"#utility.yul\":1483:1586   */\ntag_49:\n    /* \"#utility.yul\":1613:1614   */\n  0x01\n    /* \"#utility.yul\":1606:1611   */\n  dup3\n    /* \"#utility.yul\":1602:1615   */\n  add\n    /* \"#utility.yul\":1595:1615   */\n  swap1\n  pop\n    /* \"#utility.yul\":1388:1621   */\n  swap2\n  swap1\n  pop\n  jump\t// out\n    /* \"#utility.yul\":1627:1807   */\ntag_51:\n    /* \"#utility.yul\":1675:1752   */\n  0x4e487b7100000000000000000000000000000000000000000000000000000000\n    /* \"#utility.yul\":1672:1673   */\n  0x00\n    /* \"#utility.yul\":1665:1753   */\n  mstore\n    /* \"#utility.yul\":1772:1776   */\n  0x11\n    /* \"#utility.yul\":1769:1770   */\n  0x04\n    /* \"#utility.yul\":1762:1777   */\n  mstore\n    /* \"#utility.yul\":1796:1800   */\n  0x24\n    /* \"#utility.yul\":1793:1794   */\n  0x00\n    /* \"#utility.yul\":1786:1801   */\n  revert\n    /* \"#utility.yul\":1813:1993   */\ntag_46:\n    /* \"#utility.yul\":1861:1938   */\n  0x4e487b7100000000000000000000000000000000000000000000000000000000\n    /* \"#utility.yul\":1858:1859   */\n  0x00\n    /* \"#utility.yul\":1851:1939   */\n  mstore\n    /* \"#utility.yul\":1958:1962   */\n  0x22\n    /* \"#utility.yul\":1955:1956   */\n  0x04\n    /* \"#utility.yul\":1948:1963   */\n  mstore\n    /* \"#utility.yul\":1982:1986   */\n  0x24\n    /* \"#utility.yul\":1979:1980   */\n  0x00\n    /* \"#utility.yul\":1972:1987   */\n  revert\n    /* \"#utility.yul\":1999:2179   */\ntag_12:\n    /* \"#utility.yul\":2047:2124   */\n  0x4e487b7100000000000000000000000000000000000000000000000000000000\n    /* \"#utility.yul\":2044:2045   */\n  0x00\n    /* \"#utility.yul\":2037:2125   */\n  mstore\n    /* \"#utility.yul\":2144:2148   */\n  0x32\n    /* \"#utility.yul\":2141:2142   */\n  0x04\n    /* \"#utility.yul\":2134:2149   */\n  mstore\n    /* \"#utility.yul\":2168:2172   */\n  0x24\n    /* \"#utility.yul\":2165:2166   */\n  0x00\n    /* \"#utility.yul\":2158:2173   */\n  revert\n    /* \"#utility.yul\":2185:2356   */\ntag_36:\n    /* \"#utility.yul\":2325:2348   */\n  0x43616e64696461746573206d75737420626520352e0000000000000000000000\n    /* \"#utility.yul\":2321:2322   */\n  0x00\n    /* \"#utility.yul\":2313:2319   */\n  dup3\n    /* \"#utility.yul\":2309:2323   */\n  add\n    /* \"#utility.yul\":2302:2349   */\n  mstore\n    /* \"#utility.yul\":2185:2356   */\n  pop\n  jump\t// out\n    /* \"smartContract/contracts/3_Ballot.sol\":157:4305  contract Ballot {... */\ntag_18:\n  dataSize(sub_0)\n  dup1\n  dataOffset(sub_0)\n  0x00\n  codecopy\n  0x00\n  return\nstop\n\nsub_0: assembly {\n        /* \"smartContract/contracts/3_Ballot.sol\":157:4305  contract Ballot {... */\n      mstore(0x40, 0x80)\n      callvalue\n      dup1\n      iszero\n      tag_1\n      jumpi\n      0x00\n      dup1\n      revert\n    tag_1:\n      pop\n      jumpi(tag_2, lt(calldatasize, 0x04))\n      shr(0xe0, calldataload(0x00))\n      dup1\n      0x632a9a52\n      eq\n      tag_3\n      jumpi\n      dup1\n      0xd4e8fd2e\n      eq\n      tag_4\n      jumpi\n    tag_2:\n      0x00\n      dup1\n      revert\n        /* \"smartContract/contracts/3_Ballot.sol\":2456:4200  function vote() public {... */\n    tag_3:\n      tag_5\n      tag_6\n      jump\t// in\n    tag_5:\n      stop\n        /* \"smartContract/contracts/3_Ballot.sol\":4206:4303  function res(uint _id) public view returns(Proposal memory){... */\n    tag_4:\n      tag_7\n      0x04\n      dup1\n      calldatasize\n      sub\n      dup2\n      add\n      swap1\n      tag_8\n      swap2\n      swap1\n      tag_9\n      jump\t// in\n    tag_8:\n      tag_10\n      jump\t// in\n    tag_7:\n      mload(0x40)\n      tag_11\n      swap2\n      swap1\n      tag_12\n      jump\t// in\n    tag_11:\n      mload(0x40)\n      dup1\n      swap2\n      sub\n      swap1\n      return\n        /* \"smartContract/contracts/3_Ballot.sol\":2456:4200  function vote() public {... */\n    tag_6:\n        /* \"smartContract/contracts/3_Ballot.sol\":2499:2505  voters */\n      0x01\n        /* \"smartContract/contracts/3_Ballot.sol\":2499:2517  voters[msg.sender] */\n      0x00\n        /* \"smartContract/contracts/3_Ballot.sol\":2506:2516  msg.sender */\n      caller\n        /* \"smartContract/contracts/3_Ballot.sol\":2499:2517  voters[msg.sender] */\n      0xffffffffffffffffffffffffffffffffffffffff\n      and\n      0xffffffffffffffffffffffffffffffffffffffff\n      and\n      dup2\n      mstore\n      0x20\n      add\n      swap1\n      dup2\n      mstore\n      0x20\n      add\n      0x00\n      keccak256\n        /* \"smartContract/contracts/3_Ballot.sol\":2499:2523  voters[msg.sender].voted */\n      0x01\n      add\n      0x00\n      swap1\n      sload\n      swap1\n      0x0100\n      exp\n      swap1\n      div\n      0xff\n      and\n        /* \"smartContract/contracts/3_Ballot.sol\":2498:2523  !voters[msg.sender].voted */\n      iszero\n        /* \"smartContract/contracts/3_Ballot.sol\":2490:2564  require(!voters[msg.sender].voted,... */\n      tag_14\n      jumpi\n      mload(0x40)\n      0x08c379a000000000000000000000000000000000000000000000000000000000\n      dup2\n      mstore\n      0x04\n      add\n      tag_15\n      swap1\n      tag_16\n      jump\t// in\n    tag_15:\n      mload(0x40)\n      dup1\n      swap2\n      sub\n      swap1\n      revert\n    tag_14:\n        /* \"smartContract/contracts/3_Ballot.sol\":2612:2613  0 */\n      0x00\n        /* \"smartContract/contracts/3_Ballot.sol\":2583:2589  voters */\n      0x01\n        /* \"smartContract/contracts/3_Ballot.sol\":2583:2601  voters[msg.sender] */\n      0x00\n        /* \"smartContract/contracts/3_Ballot.sol\":2590:2600  msg.sender */\n      caller\n        /* \"smartContract/contracts/3_Ballot.sol\":2583:2601  voters[msg.sender] */\n      0xffffffffffffffffffffffffffffffffffffffff\n      and\n      0xffffffffffffffffffffffffffffffffffffffff\n      and\n      dup2\n      mstore\n      0x20\n      add\n      swap1\n      dup2\n      mstore\n      0x20\n      add\n      0x00\n      keccak256\n        /* \"smartContract/contracts/3_Ballot.sol\":2583:2608  voters[msg.sender].weight */\n      0x00\n      add\n      sload\n        /* \"smartContract/contracts/3_Ballot.sol\":2583:2613  voters[msg.sender].weight == 0 */\n      eq\n        /* \"smartContract/contracts/3_Ballot.sol\":2575:2614  require(voters[msg.sender].weight == 0) */\n      tag_17\n      jumpi\n      0x00\n      dup1\n      revert\n    tag_17:\n        /* \"smartContract/contracts/3_Ballot.sol\":2652:2653  1 */\n      0x01\n        /* \"smartContract/contracts/3_Ballot.sol\":2624:2630  voters */\n      dup1\n        /* \"smartContract/contracts/3_Ballot.sol\":2624:2642  voters[msg.sender] */\n      0x00\n        /* \"smartContract/contracts/3_Ballot.sol\":2631:2641  msg.sender */\n      caller\n        /* \"smartContract/contracts/3_Ballot.sol\":2624:2642  voters[msg.sender] */\n      0xffffffffffffffffffffffffffffffffffffffff\n      and\n      0xffffffffffffffffffffffffffffffffffffffff\n      and\n      dup2\n      mstore\n      0x20\n      add\n      swap1\n      dup2\n      mstore\n      0x20\n      add\n      0x00\n      keccak256\n        /* \"smartContract/contracts/3_Ballot.sol\":2624:2649  voters[msg.sender].weight */\n      0x00\n      add\n        /* \"smartContract/contracts/3_Ballot.sol\":2624:2653  voters[msg.sender].weight = 1 */\n      dup2\n      swap1\n      sstore\n      pop\n        /* \"smartContract/contracts/3_Ballot.sol\":2679:2682  100 */\n      0x64\n        /* \"smartContract/contracts/3_Ballot.sol\":2671:2677  countV */\n      sload(0x03)\n        /* \"smartContract/contracts/3_Ballot.sol\":2671:2682  countV<=100 */\n      sgt\n      iszero\n        /* \"smartContract/contracts/3_Ballot.sol\":2663:2705  require(countV<=100,\"Reached max voters.\") */\n      tag_18\n      jumpi\n      mload(0x40)\n      0x08c379a000000000000000000000000000000000000000000000000000000000\n      dup2\n      mstore\n      0x04\n      add\n      tag_19\n      swap1\n      tag_20\n      jump\t// in\n    tag_19:\n      mload(0x40)\n      dup1\n      swap2\n      sub\n      swap1\n      revert\n    tag_18:\n        /* \"smartContract/contracts/3_Ballot.sol\":2744:2761  random_district() */\n      tag_21\n        /* \"smartContract/contracts/3_Ballot.sol\":2744:2759  random_district */\n      tag_22\n        /* \"smartContract/contracts/3_Ballot.sol\":2744:2761  random_district() */\n      jump\t// in\n    tag_21:\n        /* \"smartContract/contracts/3_Ballot.sol\":2716:2722  voters */\n      0x01\n        /* \"smartContract/contracts/3_Ballot.sol\":2716:2734  voters[msg.sender] */\n      0x00\n        /* \"smartContract/contracts/3_Ballot.sol\":2723:2733  msg.sender */\n      caller\n        /* \"smartContract/contracts/3_Ballot.sol\":2716:2734  voters[msg.sender] */\n      0xffffffffffffffffffffffffffffffffffffffff\n      and\n      0xffffffffffffffffffffffffffffffffffffffff\n      and\n      dup2\n      mstore\n      0x20\n      add\n      swap1\n      dup2\n      mstore\n      0x20\n      add\n      0x00\n      keccak256\n        /* \"smartContract/contracts/3_Ballot.sol\":2716:2743  voters[msg.sender].district */\n      0x02\n      add\n        /* \"smartContract/contracts/3_Ballot.sol\":2716:2761  voters[msg.sender].district=random_district() */\n      dup2\n      swap1\n      sstore\n      pop\n        /* \"smartContract/contracts/3_Ballot.sol\":2772:2792  Voter storage sender */\n      0x00\n        /* \"smartContract/contracts/3_Ballot.sol\":2795:2801  voters */\n      0x01\n        /* \"smartContract/contracts/3_Ballot.sol\":2795:2813  voters[msg.sender] */\n      0x00\n        /* \"smartContract/contracts/3_Ballot.sol\":2802:2812  msg.sender */\n      caller\n        /* \"smartContract/contracts/3_Ballot.sol\":2795:2813  voters[msg.sender] */\n      0xffffffffffffffffffffffffffffffffffffffff\n      and\n      0xffffffffffffffffffffffffffffffffffffffff\n      and\n      dup2\n      mstore\n      0x20\n      add\n      swap1\n      dup2\n      mstore\n      0x20\n      add\n      0x00\n      keccak256\n        /* \"smartContract/contracts/3_Ballot.sol\":2772:2813  Voter storage sender = voters[msg.sender] */\n      swap1\n      pop\n        /* \"smartContract/contracts/3_Ballot.sol\":2946:2952  sender */\n      dup1\n        /* \"smartContract/contracts/3_Ballot.sol\":2946:2958  sender.voted */\n      0x01\n      add\n      0x00\n      swap1\n      sload\n      swap1\n      0x0100\n      exp\n      swap1\n      div\n      0xff\n      and\n        /* \"smartContract/contracts/3_Ballot.sol\":2945:2958  !sender.voted */\n      iszero\n        /* \"smartContract/contracts/3_Ballot.sol\":2937:2977  require(!sender.voted, \"Already voted.\") */\n      tag_23\n      jumpi\n      mload(0x40)\n      0x08c379a000000000000000000000000000000000000000000000000000000000\n      dup2\n      mstore\n      0x04\n      add\n      tag_24\n      swap1\n      tag_25\n      jump\t// in\n    tag_24:\n      mload(0x40)\n      dup1\n      swap2\n      sub\n      swap1\n      revert\n    tag_23:\n        /* \"smartContract/contracts/3_Ballot.sol\":3002:3006  true */\n      0x01\n        /* \"smartContract/contracts/3_Ballot.sol\":2987:2993  sender */\n      dup2\n        /* \"smartContract/contracts/3_Ballot.sol\":2987:2999  sender.voted */\n      0x01\n      add\n      0x00\n        /* \"smartContract/contracts/3_Ballot.sol\":2987:3006  sender.voted = true */\n      0x0100\n      exp\n      dup2\n      sload\n      dup2\n      0xff\n      mul\n      not\n      and\n      swap1\n      dup4\n      iszero\n      iszero\n      mul\n      or\n      swap1\n      sstore\n      pop\n        /* \"smartContract/contracts/3_Ballot.sol\":3031:3044  random_vote() */\n      tag_26\n        /* \"smartContract/contracts/3_Ballot.sol\":3031:3042  random_vote */\n      tag_27\n        /* \"smartContract/contracts/3_Ballot.sol\":3031:3044  random_vote() */\n      jump\t// in\n    tag_26:\n        /* \"smartContract/contracts/3_Ballot.sol\":3017:3023  sender */\n      dup2\n        /* \"smartContract/contracts/3_Ballot.sol\":3017:3028  sender.vote */\n      0x03\n      add\n        /* \"smartContract/contracts/3_Ballot.sol\":3017:3044  sender.vote = random_vote() */\n      dup2\n      swap1\n      sstore\n      pop\n        /* \"smartContract/contracts/3_Ballot.sol\":3054:3067  countVoters() */\n      tag_28\n        /* \"smartContract/contracts/3_Ballot.sol\":3054:3065  countVoters */\n      tag_29\n        /* \"smartContract/contracts/3_Ballot.sol\":3054:3067  countVoters() */\n      jump\t// in\n    tag_28:\n        /* \"smartContract/contracts/3_Ballot.sol\":3126:3132  sender */\n      dup1\n        /* \"smartContract/contracts/3_Ballot.sol\":3126:3139  sender.weight */\n      0x00\n      add\n      sload\n        /* \"smartContract/contracts/3_Ballot.sol\":3086:3095  proposals */\n      0x02\n        /* \"smartContract/contracts/3_Ballot.sol\":3096:3109  random_vote() */\n      tag_30\n        /* \"smartContract/contracts/3_Ballot.sol\":3096:3107  random_vote */\n      tag_27\n        /* \"smartContract/contracts/3_Ballot.sol\":3096:3109  random_vote() */\n      jump\t// in\n    tag_30:\n        /* \"smartContract/contracts/3_Ballot.sol\":3086:3110  proposals[random_vote()] */\n      dup2\n      sload\n      dup2\n      lt\n      tag_31\n      jumpi\n      tag_32\n      tag_33\n      jump\t// in\n    tag_32:\n    tag_31:\n      swap1\n      0x00\n      mstore\n      keccak256(0x00, 0x20)\n      swap1\n      0x0c\n      mul\n      add\n        /* \"smartContract/contracts/3_Ballot.sol\":3086:3122  proposals[random_vote()].Total_Votes */\n      0x01\n      add\n      0x00\n        /* \"smartContract/contracts/3_Ballot.sol\":3086:3139  proposals[random_vote()].Total_Votes += sender.weight */\n      dup3\n      dup3\n      sload\n      tag_35\n      swap2\n      swap1\n      tag_36\n      jump\t// in\n    tag_35:\n      swap3\n      pop\n      pop\n      dup2\n      swap1\n      sstore\n      pop\n        /* \"smartContract/contracts/3_Ballot.sol\":3170:3171  0 */\n      0x00\n        /* \"smartContract/contracts/3_Ballot.sol\":3153:3159  sender */\n      dup2\n        /* \"smartContract/contracts/3_Ballot.sol\":3153:3168  sender.district */\n      0x02\n      add\n      sload\n        /* \"smartContract/contracts/3_Ballot.sol\":3153:3171  sender.district==0 */\n      eq\n        /* \"smartContract/contracts/3_Ballot.sol\":3149:4082  if (sender.district==0){proposals[random_vote()].Votes_District0 += sender.weight;}... */\n      iszero\n      tag_37\n      jumpi\n        /* \"smartContract/contracts/3_Ballot.sol\":3217:3223  sender */\n      dup1\n        /* \"smartContract/contracts/3_Ballot.sol\":3217:3230  sender.weight */\n      0x00\n      add\n      sload\n        /* \"smartContract/contracts/3_Ballot.sol\":3173:3182  proposals */\n      0x02\n        /* \"smartContract/contracts/3_Ballot.sol\":3183:3196  random_vote() */\n      tag_38\n        /* \"smartContract/contracts/3_Ballot.sol\":3183:3194  random_vote */\n      tag_27\n        /* \"smartContract/contracts/3_Ballot.sol\":3183:3196  random_vote() */\n      jump\t// in\n    tag_38:\n        /* \"smartContract/contracts/3_Ballot.sol\":3173:3197  proposals[random_vote()] */\n      dup2\n      sload\n      dup2\n      lt\n      tag_39\n      jumpi\n      tag_40\n      tag_33\n      jump\t// in\n    tag_40:\n    tag_39:\n      swap1\n      0x00\n      mstore\n      keccak256(0x00, 0x20)\n      swap1\n      0x0c\n      mul\n      add\n        /* \"smartContract/contracts/3_Ballot.sol\":3173:3213  proposals[random_vote()].Votes_District0 */\n      0x02\n      add\n      0x00\n        /* \"smartContract/contracts/3_Ballot.sol\":3173:3230  proposals[random_vote()].Votes_District0 += sender.weight */\n      dup3\n      dup3\n      sload\n      tag_42\n      swap2\n      swap1\n      tag_36\n      jump\t// in\n    tag_42:\n      swap3\n      pop\n      pop\n      dup2\n      swap1\n      sstore\n      pop\n        /* \"smartContract/contracts/3_Ballot.sol\":3149:4082  if (sender.district==0){proposals[random_vote()].Votes_District0 += sender.weight;}... */\n      jump(tag_43)\n    tag_37:\n        /* \"smartContract/contracts/3_Ballot.sol\":3267:3268  1 */\n      0x01\n        /* \"smartContract/contracts/3_Ballot.sol\":3250:3256  sender */\n      dup2\n        /* \"smartContract/contracts/3_Ballot.sol\":3250:3265  sender.district */\n      0x02\n      add\n      sload\n        /* \"smartContract/contracts/3_Ballot.sol\":3250:3268  sender.district==1 */\n      eq\n        /* \"smartContract/contracts/3_Ballot.sol\":3246:4082  if (sender.district==1){proposals[random_vote()].Votes_District1 += sender.weight;}... */\n      iszero\n      tag_44\n      jumpi\n        /* \"smartContract/contracts/3_Ballot.sol\":3314:3320  sender */\n      dup1\n        /* \"smartContract/contracts/3_Ballot.sol\":3314:3327  sender.weight */\n      0x00\n      add\n      sload\n        /* \"smartContract/contracts/3_Ballot.sol\":3270:3279  proposals */\n      0x02\n        /* \"smartContract/contracts/3_Ballot.sol\":3280:3293  random_vote() */\n      tag_45\n        /* \"smartContract/contracts/3_Ballot.sol\":3280:3291  random_vote */\n      tag_27\n        /* \"smartContract/contracts/3_Ballot.sol\":3280:3293  random_vote() */\n      jump\t// in\n    tag_45:\n        /* \"smartContract/contracts/3_Ballot.sol\":3270:3294  proposals[random_vote()] */\n      dup2\n      sload\n      dup2\n      lt\n      tag_46\n      jumpi\n      tag_47\n      tag_33\n      jump\t// in\n    tag_47:\n    tag_46:\n      swap1\n      0x00\n      mstore\n      keccak256(0x00, 0x20)\n      swap1\n      0x0c\n      mul\n      add\n        /* \"smartContract/contracts/3_Ballot.sol\":3270:3310  proposals[random_vote()].Votes_District1 */\n      0x03\n      add\n      0x00\n        /* \"smartContract/contracts/3_Ballot.sol\":3270:3327  proposals[random_vote()].Votes_District1 += sender.weight */\n      dup3\n      dup3\n      sload\n      tag_49\n      swap2\n      swap1\n      tag_36\n      jump\t// in\n    tag_49:\n      swap3\n      pop\n      pop\n      dup2\n      swap1\n      sstore\n      pop\n        /* \"smartContract/contracts/3_Ballot.sol\":3246:4082  if (sender.district==1){proposals[random_vote()].Votes_District1 += sender.weight;}... */\n      jump(tag_50)\n    tag_44:\n        /* \"smartContract/contracts/3_Ballot.sol\":3364:3365  2 */\n      0x02\n        /* \"smartContract/contracts/3_Ballot.sol\":3347:3353  sender */\n      dup2\n        /* \"smartContract/contracts/3_Ballot.sol\":3347:3362  sender.district */\n      0x02\n      add\n      sload\n        /* \"smartContract/contracts/3_Ballot.sol\":3347:3365  sender.district==2 */\n      eq\n        /* \"smartContract/contracts/3_Ballot.sol\":3343:4082  if (sender.district==2){proposals[random_vote()].Votes_District2 += sender.weight;}... */\n      iszero\n      tag_51\n      jumpi\n        /* \"smartContract/contracts/3_Ballot.sol\":3411:3417  sender */\n      dup1\n        /* \"smartContract/contracts/3_Ballot.sol\":3411:3424  sender.weight */\n      0x00\n      add\n      sload\n        /* \"smartContract/contracts/3_Ballot.sol\":3367:3376  proposals */\n      0x02\n        /* \"smartContract/contracts/3_Ballot.sol\":3377:3390  random_vote() */\n      tag_52\n        /* \"smartContract/contracts/3_Ballot.sol\":3377:3388  random_vote */\n      tag_27\n        /* \"smartContract/contracts/3_Ballot.sol\":3377:3390  random_vote() */\n      jump\t// in\n    tag_52:\n        /* \"smartContract/contracts/3_Ballot.sol\":3367:3391  proposals[random_vote()] */\n      dup2\n      sload\n      dup2\n      lt\n      tag_53\n      jumpi\n      tag_54\n      tag_33\n      jump\t// in\n    tag_54:\n    tag_53:\n      swap1\n      0x00\n      mstore\n      keccak256(0x00, 0x20)\n      swap1\n      0x0c\n      mul\n      add\n        /* \"smartContract/contracts/3_Ballot.sol\":3367:3407  proposals[random_vote()].Votes_District2 */\n      0x04\n      add\n      0x00\n        /* \"smartContract/contracts/3_Ballot.sol\":3367:3424  proposals[random_vote()].Votes_District2 += sender.weight */\n      dup3\n      dup3\n      sload\n      tag_56\n      swap2\n      swap1\n      tag_36\n      jump\t// in\n    tag_56:\n      swap3\n      pop\n      pop\n      dup2\n      swap1\n      sstore\n      pop\n        /* \"smartContract/contracts/3_Ballot.sol\":3343:4082  if (sender.district==2){proposals[random_vote()].Votes_District2 += sender.weight;}... */\n      jump(tag_57)\n    tag_51:\n        /* \"smartContract/contracts/3_Ballot.sol\":3461:3462  3 */\n      0x03\n        /* \"smartContract/contracts/3_Ballot.sol\":3444:3450  sender */\n      dup2\n        /* \"smartContract/contracts/3_Ballot.sol\":3444:3459  sender.district */\n      0x02\n      add\n      sload\n        /* \"smartContract/contracts/3_Ballot.sol\":3444:3462  sender.district==3 */\n      eq\n        /* \"smartContract/contracts/3_Ballot.sol\":3440:4082  if (sender.district==3){proposals[random_vote()].Votes_District3 += sender.weight;}... */\n      iszero\n      tag_58\n      jumpi\n        /* \"smartContract/contracts/3_Ballot.sol\":3508:3514  sender */\n      dup1\n        /* \"smartContract/contracts/3_Ballot.sol\":3508:3521  sender.weight */\n      0x00\n      add\n      sload\n        /* \"smartContract/contracts/3_Ballot.sol\":3464:3473  proposals */\n      0x02\n        /* \"smartContract/contracts/3_Ballot.sol\":3474:3487  random_vote() */\n      tag_59\n        /* \"smartContract/contracts/3_Ballot.sol\":3474:3485  random_vote */\n      tag_27\n        /* \"smartContract/contracts/3_Ballot.sol\":3474:3487  random_vote() */\n      jump\t// in\n    tag_59:\n        /* \"smartContract/contracts/3_Ballot.sol\":3464:3488  proposals[random_vote()] */\n      dup2\n      sload\n      dup2\n      lt\n      tag_60\n      jumpi\n      tag_61\n      tag_33\n      jump\t// in\n    tag_61:\n    tag_60:\n      swap1\n      0x00\n      mstore\n      keccak256(0x00, 0x20)\n      swap1\n      0x0c\n      mul\n      add\n        /* \"smartContract/contracts/3_Ballot.sol\":3464:3504  proposals[random_vote()].Votes_District3 */\n      0x05\n      add\n      0x00\n        /* \"smartContract/contracts/3_Ballot.sol\":3464:3521  proposals[random_vote()].Votes_District3 += sender.weight */\n      dup3\n      dup3\n      sload\n      tag_63\n      swap2\n      swap1\n      tag_36\n      jump\t// in\n    tag_63:\n      swap3\n      pop\n      pop\n      dup2\n      swap1\n      sstore\n      pop\n        /* \"smartContract/contracts/3_Ballot.sol\":3440:4082  if (sender.district==3){proposals[random_vote()].Votes_District3 += sender.weight;}... */\n      jump(tag_64)\n    tag_58:\n        /* \"smartContract/contracts/3_Ballot.sol\":3558:3559  4 */\n      0x04\n        /* \"smartContract/contracts/3_Ballot.sol\":3541:3547  sender */\n      dup2\n        /* \"smartContract/contracts/3_Ballot.sol\":3541:3556  sender.district */\n      0x02\n      add\n      sload\n        /* \"smartContract/contracts/3_Ballot.sol\":3541:3559  sender.district==4 */\n      eq\n        /* \"smartContract/contracts/3_Ballot.sol\":3537:4082  if (sender.district==4){proposals[random_vote()].Votes_District4 += sender.weight;}... */\n      iszero\n      tag_65\n      jumpi\n        /* \"smartContract/contracts/3_Ballot.sol\":3605:3611  sender */\n      dup1\n        /* \"smartContract/contracts/3_Ballot.sol\":3605:3618  sender.weight */\n      0x00\n      add\n      sload\n        /* \"smartContract/contracts/3_Ballot.sol\":3561:3570  proposals */\n      0x02\n        /* \"smartContract/contracts/3_Ballot.sol\":3571:3584  random_vote() */\n      tag_66\n        /* \"smartContract/contracts/3_Ballot.sol\":3571:3582  random_vote */\n      tag_27\n        /* \"smartContract/contracts/3_Ballot.sol\":3571:3584  random_vote() */\n      jump\t// in\n    tag_66:\n        /* \"smartContract/contracts/3_Ballot.sol\":3561:3585  proposals[random_vote()] */\n      dup2\n      sload\n      dup2\n      lt\n      tag_67\n      jumpi\n      tag_68\n      tag_33\n      jump\t// in\n    tag_68:\n    tag_67:\n      swap1\n      0x00\n      mstore\n      keccak256(0x00, 0x20)\n      swap1\n      0x0c\n      mul\n      add\n        /* \"smartContract/contracts/3_Ballot.sol\":3561:3601  proposals[random_vote()].Votes_District4 */\n      0x06\n      add\n      0x00\n        /* \"smartContract/contracts/3_Ballot.sol\":3561:3618  proposals[random_vote()].Votes_District4 += sender.weight */\n      dup3\n      dup3\n      sload\n      tag_70\n      swap2\n      swap1\n      tag_36\n      jump\t// in\n    tag_70:\n      swap3\n      pop\n      pop\n      dup2\n      swap1\n      sstore\n      pop\n        /* \"smartContract/contracts/3_Ballot.sol\":3537:4082  if (sender.district==4){proposals[random_vote()].Votes_District4 += sender.weight;}... */\n      jump(tag_71)\n    tag_65:\n        /* \"smartContract/contracts/3_Ballot.sol\":3655:3656  5 */\n      0x05\n        /* \"smartContract/contracts/3_Ballot.sol\":3638:3644  sender */\n      dup2\n        /* \"smartContract/contracts/3_Ballot.sol\":3638:3653  sender.district */\n      0x02\n      add\n      sload\n        /* \"smartContract/contracts/3_Ballot.sol\":3638:3656  sender.district==5 */\n      eq\n        /* \"smartContract/contracts/3_Ballot.sol\":3634:4082  if (sender.district==5){proposals[random_vote()].Votes_District5 += sender.weight;}... */\n      iszero\n      tag_72\n      jumpi\n        /* \"smartContract/contracts/3_Ballot.sol\":3702:3708  sender */\n      dup1\n        /* \"smartContract/contracts/3_Ballot.sol\":3702:3715  sender.weight */\n      0x00\n      add\n      sload\n        /* \"smartContract/contracts/3_Ballot.sol\":3658:3667  proposals */\n      0x02\n        /* \"smartContract/contracts/3_Ballot.sol\":3668:3681  random_vote() */\n      tag_73\n        /* \"smartContract/contracts/3_Ballot.sol\":3668:3679  random_vote */\n      tag_27\n        /* \"smartContract/contracts/3_Ballot.sol\":3668:3681  random_vote() */\n      jump\t// in\n    tag_73:\n        /* \"smartContract/contracts/3_Ballot.sol\":3658:3682  proposals[random_vote()] */\n      dup2\n      sload\n      dup2\n      lt\n      tag_74\n      jumpi\n      tag_75\n      tag_33\n      jump\t// in\n    tag_75:\n    tag_74:\n      swap1\n      0x00\n      mstore\n      keccak256(0x00, 0x20)\n      swap1\n      0x0c\n      mul\n      add\n        /* \"smartContract/contracts/3_Ballot.sol\":3658:3698  proposals[random_vote()].Votes_District5 */\n      0x07\n      add\n      0x00\n        /* \"smartContract/contracts/3_Ballot.sol\":3658:3715  proposals[random_vote()].Votes_District5 += sender.weight */\n      dup3\n      dup3\n      sload\n      tag_77\n      swap2\n      swap1\n      tag_36\n      jump\t// in\n    tag_77:\n      swap3\n      pop\n      pop\n      dup2\n      swap1\n      sstore\n      pop\n        /* \"smartContract/contracts/3_Ballot.sol\":3634:4082  if (sender.district==5){proposals[random_vote()].Votes_District5 += sender.weight;}... */\n      jump(tag_78)\n    tag_72:\n        /* \"smartContract/contracts/3_Ballot.sol\":3752:3753  6 */\n      0x06\n        /* \"smartContract/contracts/3_Ballot.sol\":3735:3741  sender */\n      dup2\n        /* \"smartContract/contracts/3_Ballot.sol\":3735:3750  sender.district */\n      0x02\n      add\n      sload\n        /* \"smartContract/contracts/3_Ballot.sol\":3735:3753  sender.district==6 */\n      eq\n        /* \"smartContract/contracts/3_Ballot.sol\":3731:4082  if (sender.district==6){proposals[random_vote()].Votes_District6 += sender.weight;}... */\n      iszero\n      tag_79\n      jumpi\n        /* \"smartContract/contracts/3_Ballot.sol\":3799:3805  sender */\n      dup1\n        /* \"smartContract/contracts/3_Ballot.sol\":3799:3812  sender.weight */\n      0x00\n      add\n      sload\n        /* \"smartContract/contracts/3_Ballot.sol\":3755:3764  proposals */\n      0x02\n        /* \"smartContract/contracts/3_Ballot.sol\":3765:3778  random_vote() */\n      tag_80\n        /* \"smartContract/contracts/3_Ballot.sol\":3765:3776  random_vote */\n      tag_27\n        /* \"smartContract/contracts/3_Ballot.sol\":3765:3778  random_vote() */\n      jump\t// in\n    tag_80:\n        /* \"smartContract/contracts/3_Ballot.sol\":3755:3779  proposals[random_vote()] */\n      dup2\n      sload\n      dup2\n      lt\n      tag_81\n      jumpi\n      tag_82\n      tag_33\n      jump\t// in\n    tag_82:\n    tag_81:\n      swap1\n      0x00\n      mstore\n      keccak256(0x00, 0x20)\n      swap1\n      0x0c\n      mul\n      add\n        /* \"smartContract/contracts/3_Ballot.sol\":3755:3795  proposals[random_vote()].Votes_District6 */\n      0x08\n      add\n      0x00\n        /* \"smartContract/contracts/3_Ballot.sol\":3755:3812  proposals[random_vote()].Votes_District6 += sender.weight */\n      dup3\n      dup3\n      sload\n      tag_84\n      swap2\n      swap1\n      tag_36\n      jump\t// in\n    tag_84:\n      swap3\n      pop\n      pop\n      dup2\n      swap1\n      sstore\n      pop\n        /* \"smartContract/contracts/3_Ballot.sol\":3731:4082  if (sender.district==6){proposals[random_vote()].Votes_District6 += sender.weight;}... */\n      jump(tag_85)\n    tag_79:\n        /* \"smartContract/contracts/3_Ballot.sol\":3849:3850  7 */\n      0x07\n        /* \"smartContract/contracts/3_Ballot.sol\":3832:3838  sender */\n      dup2\n        /* \"smartContract/contracts/3_Ballot.sol\":3832:3847  sender.district */\n      0x02\n      add\n      sload\n        /* \"smartContract/contracts/3_Ballot.sol\":3832:3850  sender.district==7 */\n      eq\n        /* \"smartContract/contracts/3_Ballot.sol\":3828:4082  if (sender.district==7){proposals[random_vote()].Votes_District7 += sender.weight;}... */\n      iszero\n      tag_86\n      jumpi\n        /* \"smartContract/contracts/3_Ballot.sol\":3896:3902  sender */\n      dup1\n        /* \"smartContract/contracts/3_Ballot.sol\":3896:3909  sender.weight */\n      0x00\n      add\n      sload\n        /* \"smartContract/contracts/3_Ballot.sol\":3852:3861  proposals */\n      0x02\n        /* \"smartContract/contracts/3_Ballot.sol\":3862:3875  random_vote() */\n      tag_87\n        /* \"smartContract/contracts/3_Ballot.sol\":3862:3873  random_vote */\n      tag_27\n        /* \"smartContract/contracts/3_Ballot.sol\":3862:3875  random_vote() */\n      jump\t// in\n    tag_87:\n        /* \"smartContract/contracts/3_Ballot.sol\":3852:3876  proposals[random_vote()] */\n      dup2\n      sload\n      dup2\n      lt\n      tag_88\n      jumpi\n      tag_89\n      tag_33\n      jump\t// in\n    tag_89:\n    tag_88:\n      swap1\n      0x00\n      mstore\n      keccak256(0x00, 0x20)\n      swap1\n      0x0c\n      mul\n      add\n        /* \"smartContract/contracts/3_Ballot.sol\":3852:3892  proposals[random_vote()].Votes_District7 */\n      0x09\n      add\n      0x00\n        /* \"smartContract/contracts/3_Ballot.sol\":3852:3909  proposals[random_vote()].Votes_District7 += sender.weight */\n      dup3\n      dup3\n      sload\n      tag_91\n      swap2\n      swap1\n      tag_36\n      jump\t// in\n    tag_91:\n      swap3\n      pop\n      pop\n      dup2\n      swap1\n      sstore\n      pop\n        /* \"smartContract/contracts/3_Ballot.sol\":3828:4082  if (sender.district==7){proposals[random_vote()].Votes_District7 += sender.weight;}... */\n      jump(tag_92)\n    tag_86:\n        /* \"smartContract/contracts/3_Ballot.sol\":3946:3947  8 */\n      0x08\n        /* \"smartContract/contracts/3_Ballot.sol\":3929:3935  sender */\n      dup2\n        /* \"smartContract/contracts/3_Ballot.sol\":3929:3944  sender.district */\n      0x02\n      add\n      sload\n        /* \"smartContract/contracts/3_Ballot.sol\":3929:3947  sender.district==8 */\n      eq\n        /* \"smartContract/contracts/3_Ballot.sol\":3925:4082  if (sender.district==8){proposals[random_vote()].Votes_District8 += sender.weight;}... */\n      iszero\n      tag_93\n      jumpi\n        /* \"smartContract/contracts/3_Ballot.sol\":3993:3999  sender */\n      dup1\n        /* \"smartContract/contracts/3_Ballot.sol\":3993:4006  sender.weight */\n      0x00\n      add\n      sload\n        /* \"smartContract/contracts/3_Ballot.sol\":3949:3958  proposals */\n      0x02\n        /* \"smartContract/contracts/3_Ballot.sol\":3959:3972  random_vote() */\n      tag_94\n        /* \"smartContract/contracts/3_Ballot.sol\":3959:3970  random_vote */\n      tag_27\n        /* \"smartContract/contracts/3_Ballot.sol\":3959:3972  random_vote() */\n      jump\t// in\n    tag_94:\n        /* \"smartContract/contracts/3_Ballot.sol\":3949:3973  proposals[random_vote()] */\n      dup2\n      sload\n      dup2\n      lt\n      tag_95\n      jumpi\n      tag_96\n      tag_33\n      jump\t// in\n    tag_96:\n    tag_95:\n      swap1\n      0x00\n      mstore\n      keccak256(0x00, 0x20)\n      swap1\n      0x0c\n      mul\n      add\n        /* \"smartContract/contracts/3_Ballot.sol\":3949:3989  proposals[random_vote()].Votes_District8 */\n      0x0a\n      add\n      0x00\n        /* \"smartContract/contracts/3_Ballot.sol\":3949:4006  proposals[random_vote()].Votes_District8 += sender.weight */\n      dup3\n      dup3\n      sload\n      tag_98\n      swap2\n      swap1\n      tag_36\n      jump\t// in\n    tag_98:\n      swap3\n      pop\n      pop\n      dup2\n      swap1\n      sstore\n      pop\n        /* \"smartContract/contracts/3_Ballot.sol\":3925:4082  if (sender.district==8){proposals[random_vote()].Votes_District8 += sender.weight;}... */\n      jump(tag_99)\n    tag_93:\n        /* \"smartContract/contracts/3_Ballot.sol\":4067:4073  sender */\n      dup1\n        /* \"smartContract/contracts/3_Ballot.sol\":4067:4080  sender.weight */\n      0x00\n      add\n      sload\n        /* \"smartContract/contracts/3_Ballot.sol\":4023:4032  proposals */\n      0x02\n        /* \"smartContract/contracts/3_Ballot.sol\":4033:4046  random_vote() */\n      tag_100\n        /* \"smartContract/contracts/3_Ballot.sol\":4033:4044  random_vote */\n      tag_27\n        /* \"smartContract/contracts/3_Ballot.sol\":4033:4046  random_vote() */\n      jump\t// in\n    tag_100:\n        /* \"smartContract/contracts/3_Ballot.sol\":4023:4047  proposals[random_vote()] */\n      dup2\n      sload\n      dup2\n      lt\n      tag_101\n      jumpi\n      tag_102\n      tag_33\n      jump\t// in\n    tag_102:\n    tag_101:\n      swap1\n      0x00\n      mstore\n      keccak256(0x00, 0x20)\n      swap1\n      0x0c\n      mul\n      add\n        /* \"smartContract/contracts/3_Ballot.sol\":4023:4063  proposals[random_vote()].Votes_District9 */\n      0x0b\n      add\n      0x00\n        /* \"smartContract/contracts/3_Ballot.sol\":4023:4080  proposals[random_vote()].Votes_District9 += sender.weight */\n      dup3\n      dup3\n      sload\n      tag_104\n      swap2\n      swap1\n      tag_36\n      jump\t// in\n    tag_104:\n      swap3\n      pop\n      pop\n      dup2\n      swap1\n      sstore\n      pop\n        /* \"smartContract/contracts/3_Ballot.sol\":3925:4082  if (sender.district==8){proposals[random_vote()].Votes_District8 += sender.weight;}... */\n    tag_99:\n        /* \"smartContract/contracts/3_Ballot.sol\":3828:4082  if (sender.district==7){proposals[random_vote()].Votes_District7 += sender.weight;}... */\n    tag_92:\n        /* \"smartContract/contracts/3_Ballot.sol\":3731:4082  if (sender.district==6){proposals[random_vote()].Votes_District6 += sender.weight;}... */\n    tag_85:\n        /* \"smartContract/contracts/3_Ballot.sol\":3634:4082  if (sender.district==5){proposals[random_vote()].Votes_District5 += sender.weight;}... */\n    tag_78:\n        /* \"smartContract/contracts/3_Ballot.sol\":3537:4082  if (sender.district==4){proposals[random_vote()].Votes_District4 += sender.weight;}... */\n    tag_71:\n        /* \"smartContract/contracts/3_Ballot.sol\":3440:4082  if (sender.district==3){proposals[random_vote()].Votes_District3 += sender.weight;}... */\n    tag_64:\n        /* \"smartContract/contracts/3_Ballot.sol\":3343:4082  if (sender.district==2){proposals[random_vote()].Votes_District2 += sender.weight;}... */\n    tag_57:\n        /* \"smartContract/contracts/3_Ballot.sol\":3246:4082  if (sender.district==1){proposals[random_vote()].Votes_District1 += sender.weight;}... */\n    tag_50:\n        /* \"smartContract/contracts/3_Ballot.sol\":3149:4082  if (sender.district==0){proposals[random_vote()].Votes_District0 += sender.weight;}... */\n    tag_43:\n        /* \"smartContract/contracts/3_Ballot.sol\":2479:4200  {... */\n      pop\n        /* \"smartContract/contracts/3_Ballot.sol\":2456:4200  function vote() public {... */\n      jump\t// out\n        /* \"smartContract/contracts/3_Ballot.sol\":4206:4303  function res(uint _id) public view returns(Proposal memory){... */\n    tag_10:\n        /* \"smartContract/contracts/3_Ballot.sol\":4249:4264  Proposal memory */\n      tag_105\n      tag_106\n      jump\t// in\n    tag_105:\n        /* \"smartContract/contracts/3_Ballot.sol\":4282:4291  proposals */\n      0x02\n        /* \"smartContract/contracts/3_Ballot.sol\":4292:4295  _id */\n      dup3\n        /* \"smartContract/contracts/3_Ballot.sol\":4282:4296  proposals[_id] */\n      dup2\n      sload\n      dup2\n      lt\n      tag_108\n      jumpi\n      tag_109\n      tag_33\n      jump\t// in\n    tag_109:\n    tag_108:\n      swap1\n      0x00\n      mstore\n      keccak256(0x00, 0x20)\n      swap1\n      0x0c\n      mul\n      add\n        /* \"smartContract/contracts/3_Ballot.sol\":4275:4296  return proposals[_id] */\n      mload(0x40)\n      dup1\n      0x0180\n      add\n      0x40\n      mstore\n      swap1\n      dup2\n      0x00\n      dup3\n      add\n      dup1\n      sload\n      tag_111\n      swap1\n      tag_112\n      jump\t// in\n    tag_111:\n      dup1\n      0x1f\n      add\n      0x20\n      dup1\n      swap2\n      div\n      mul\n      0x20\n      add\n      mload(0x40)\n      swap1\n      dup2\n      add\n      0x40\n      mstore\n      dup1\n      swap3\n      swap2\n      swap1\n      dup2\n      dup2\n      mstore\n      0x20\n      add\n      dup3\n      dup1\n      sload\n      tag_113\n      swap1\n      tag_112\n      jump\t// in\n    tag_113:\n      dup1\n      iszero\n      tag_114\n      jumpi\n      dup1\n      0x1f\n      lt\n      tag_115\n      jumpi\n      0x0100\n      dup1\n      dup4\n      sload\n      div\n      mul\n      dup4\n      mstore\n      swap2\n      0x20\n      add\n      swap2\n      jump(tag_114)\n    tag_115:\n      dup3\n      add\n      swap2\n      swap1\n      0x00\n      mstore\n      keccak256(0x00, 0x20)\n      swap1\n    tag_116:\n      dup2\n      sload\n      dup2\n      mstore\n      swap1\n      0x01\n      add\n      swap1\n      0x20\n      add\n      dup1\n      dup4\n      gt\n      tag_116\n      jumpi\n      dup3\n      swap1\n      sub\n      0x1f\n      and\n      dup3\n      add\n      swap2\n    tag_114:\n      pop\n      pop\n      pop\n      pop\n      pop\n      dup2\n      mstore\n      0x20\n      add\n      0x01\n      dup3\n      add\n      sload\n      dup2\n      mstore\n      0x20\n      add\n      0x02\n      dup3\n      add\n      sload\n      dup2\n      mstore\n      0x20\n      add\n      0x03\n      dup3\n      add\n      sload\n      dup2\n      mstore\n      0x20\n      add\n      0x04\n      dup3\n      add\n      sload\n      dup2\n      mstore\n      0x20\n      add\n      0x05\n      dup3\n      add\n      sload\n      dup2\n      mstore\n      0x20\n      add\n      0x06\n      dup3\n      add\n      sload\n      dup2\n      mstore\n      0x20\n      add\n      0x07\n      dup3\n      add\n      sload\n      dup2\n      mstore\n      0x20\n      add\n      0x08\n      dup3\n      add\n      sload\n      dup2\n      mstore\n      0x20\n      add\n      0x09\n      dup3\n      add\n      sload\n      dup2\n      mstore\n      0x20\n      add\n      0x0a\n      dup3\n      add\n      sload\n      dup2\n      mstore\n      0x20\n      add\n      0x0b\n      dup3\n      add\n      sload\n      dup2\n      mstore\n      pop\n      pop\n      swap1\n      pop\n        /* \"smartContract/contracts/3_Ballot.sol\":4206:4303  function res(uint _id) public view returns(Proposal memory){... */\n      swap2\n      swap1\n      pop\n      jump\t// out\n        /* \"smartContract/contracts/3_Ballot.sol\":1015:1186  function random_district() private view returns(uint){... */\n    tag_22:\n        /* \"smartContract/contracts/3_Ballot.sol\":1063:1067  uint */\n      0x00\n        /* \"smartContract/contracts/3_Ballot.sol\":1177:1179  10 */\n      0x0a\n        /* \"smartContract/contracts/3_Ballot.sol\":1117:1132  block.timestamp */\n      timestamp\n        /* \"smartContract/contracts/3_Ballot.sol\":1133:1149  block.difficulty */\n      difficulty\n        /* \"smartContract/contracts/3_Ballot.sol\":1161:1171  msg.sender */\n      caller\n        /* \"smartContract/contracts/3_Ballot.sol\":1100:1172  abi.encodePacked(block.timestamp,block.difficulty,  ... */\n      add(0x20, mload(0x40))\n      tag_118\n      swap4\n      swap3\n      swap2\n      swap1\n      tag_119\n      jump\t// in\n    tag_118:\n      mload(0x40)\n      0x20\n      dup2\n      dup4\n      sub\n      sub\n      dup2\n      mstore\n      swap1\n      0x40\n      mstore\n        /* \"smartContract/contracts/3_Ballot.sol\":1090:1173  keccak256(abi.encodePacked(block.timestamp,block.difficulty,  ... */\n      dup1\n      mload\n      swap1\n      0x20\n      add\n      keccak256\n        /* \"smartContract/contracts/3_Ballot.sol\":1085:1174  uint(keccak256(abi.encodePacked(block.timestamp,block.difficulty,  ... */\n      0x00\n      shr\n        /* \"smartContract/contracts/3_Ballot.sol\":1085:1179  uint(keccak256(abi.encodePacked(block.timestamp,block.difficulty,  ... */\n      tag_120\n      swap2\n      swap1\n      tag_121\n      jump\t// in\n    tag_120:\n        /* \"smartContract/contracts/3_Ballot.sol\":1078:1179  return uint(keccak256(abi.encodePacked(block.timestamp,block.difficulty,  ... */\n      swap1\n      pop\n        /* \"smartContract/contracts/3_Ballot.sol\":1015:1186  function random_district() private view returns(uint){... */\n      swap1\n      jump\t// out\n        /* \"smartContract/contracts/3_Ballot.sol\":2272:2450  function random_vote() private view returns(uint){... */\n    tag_27:\n        /* \"smartContract/contracts/3_Ballot.sol\":2316:2320  uint */\n      0x00\n        /* \"smartContract/contracts/3_Ballot.sol\":2438:2439  5 */\n      0x05\n        /* \"smartContract/contracts/3_Ballot.sol\":2374:2389  block.timestamp */\n      timestamp\n        /* \"smartContract/contracts/3_Ballot.sol\":2390:2406  block.difficulty */\n      difficulty\n        /* \"smartContract/contracts/3_Ballot.sol\":2422:2432  msg.sender */\n      caller\n        /* \"smartContract/contracts/3_Ballot.sol\":2357:2433  abi.encodePacked(block.timestamp,block.difficulty,  ... */\n      add(0x20, mload(0x40))\n      tag_123\n      swap4\n      swap3\n      swap2\n      swap1\n      tag_119\n      jump\t// in\n    tag_123:\n      mload(0x40)\n      0x20\n      dup2\n      dup4\n      sub\n      sub\n      dup2\n      mstore\n      swap1\n      0x40\n      mstore\n        /* \"smartContract/contracts/3_Ballot.sol\":2347:2434  keccak256(abi.encodePacked(block.timestamp,block.difficulty,  ... */\n      dup1\n      mload\n      swap1\n      0x20\n      add\n      keccak256\n        /* \"smartContract/contracts/3_Ballot.sol\":2342:2435  uint(keccak256(abi.encodePacked(block.timestamp,block.difficulty,  ... */\n      0x00\n      shr\n        /* \"smartContract/contracts/3_Ballot.sol\":2342:2439  uint(keccak256(abi.encodePacked(block.timestamp,block.difficulty,  ... */\n      tag_124\n      swap2\n      swap1\n      tag_121\n      jump\t// in\n    tag_124:\n        /* \"smartContract/contracts/3_Ballot.sol\":2335:2439  return uint(keccak256(abi.encodePacked(block.timestamp,block.difficulty,  ... */\n      swap1\n      pop\n        /* \"smartContract/contracts/3_Ballot.sol\":2272:2450  function random_vote() private view returns(uint){... */\n      swap1\n      jump\t// out\n        /* \"smartContract/contracts/3_Ballot.sol\":2108:2167  function countVoters() private {... */\n    tag_29:\n        /* \"smartContract/contracts/3_Ballot.sol\":2159:2160  1 */\n      0x01\n        /* \"smartContract/contracts/3_Ballot.sol\":2149:2155  countV */\n      0x03\n      0x00\n        /* \"smartContract/contracts/3_Ballot.sol\":2149:2160  countV += 1 */\n      dup3\n      dup3\n      sload\n      tag_126\n      swap2\n      swap1\n      tag_127\n      jump\t// in\n    tag_126:\n      swap3\n      pop\n      pop\n      dup2\n      swap1\n      sstore\n      pop\n        /* \"smartContract/contracts/3_Ballot.sol\":2108:2167  function countVoters() private {... */\n      jump\t// out\n    tag_106:\n      mload(0x40)\n      dup1\n      0x0180\n      add\n      0x40\n      mstore\n      dup1\n      0x60\n      dup2\n      mstore\n      0x20\n      add\n      0x00\n      dup2\n      mstore\n      0x20\n      add\n      0x00\n      dup2\n      mstore\n      0x20\n      add\n      0x00\n      dup2\n      mstore\n      0x20\n      add\n      0x00\n      dup2\n      mstore\n      0x20\n      add\n      0x00\n      dup2\n      mstore\n      0x20\n      add\n      0x00\n      dup2\n      mstore\n      0x20\n      add\n      0x00\n      dup2\n      mstore\n      0x20\n      add\n      0x00\n      dup2\n      mstore\n      0x20\n      add\n      0x00\n      dup2\n      mstore\n      0x20\n      add\n      0x00\n      dup2\n      mstore\n      0x20\n      add\n      0x00\n      dup2\n      mstore\n      pop\n      swap1\n      jump\t// out\n        /* \"#utility.yul\":7:146   */\n    tag_129:\n        /* \"#utility.yul\":53:58   */\n      0x00\n        /* \"#utility.yul\":91:97   */\n      dup2\n        /* \"#utility.yul\":78:98   */\n      calldataload\n        /* \"#utility.yul\":69:98   */\n      swap1\n      pop\n        /* \"#utility.yul\":107:140   */\n      tag_131\n        /* \"#utility.yul\":134:139   */\n      dup2\n        /* \"#utility.yul\":107:140   */\n      tag_132\n      jump\t// in\n    tag_131:\n        /* \"#utility.yul\":7:146   */\n      swap3\n      swap2\n      pop\n      pop\n      jump\t// out\n        /* \"#utility.yul\":152:481   */\n    tag_9:\n        /* \"#utility.yul\":211:217   */\n      0x00\n        /* \"#utility.yul\":260:262   */\n      0x20\n        /* \"#utility.yul\":248:257   */\n      dup3\n        /* \"#utility.yul\":239:246   */\n      dup5\n        /* \"#utility.yul\":235:258   */\n      sub\n        /* \"#utility.yul\":231:263   */\n      slt\n        /* \"#utility.yul\":228:347   */\n      iszero\n      tag_134\n      jumpi\n        /* \"#utility.yul\":266:345   */\n      tag_135\n      tag_136\n      jump\t// in\n    tag_135:\n        /* \"#utility.yul\":228:347   */\n    tag_134:\n        /* \"#utility.yul\":386:387   */\n      0x00\n        /* \"#utility.yul\":411:464   */\n      tag_137\n        /* \"#utility.yul\":456:463   */\n      dup5\n        /* \"#utility.yul\":447:453   */\n      dup3\n        /* \"#utility.yul\":436:445   */\n      dup6\n        /* \"#utility.yul\":432:454   */\n      add\n        /* \"#utility.yul\":411:464   */\n      tag_129\n      jump\t// in\n    tag_137:\n        /* \"#utility.yul\":401:464   */\n      swap2\n      pop\n        /* \"#utility.yul\":357:474   */\n      pop\n        /* \"#utility.yul\":152:481   */\n      swap3\n      swap2\n      pop\n      pop\n      jump\t// out\n        /* \"#utility.yul\":487:644   */\n    tag_138:\n        /* \"#utility.yul\":592:637   */\n      tag_140\n        /* \"#utility.yul\":612:636   */\n      tag_141\n        /* \"#utility.yul\":630:635   */\n      dup3\n        /* \"#utility.yul\":612:636   */\n      tag_142\n      jump\t// in\n    tag_141:\n        /* \"#utility.yul\":592:637   */\n      tag_143\n      jump\t// in\n    tag_140:\n        /* \"#utility.yul\":587:590   */\n      dup3\n        /* \"#utility.yul\":580:638   */\n      mstore\n        /* \"#utility.yul\":487:644   */\n      pop\n      pop\n      jump\t// out\n        /* \"#utility.yul\":650:994   */\n    tag_144:\n        /* \"#utility.yul\":728:731   */\n      0x00\n        /* \"#utility.yul\":756:795   */\n      tag_146\n        /* \"#utility.yul\":789:794   */\n      dup3\n        /* \"#utility.yul\":756:795   */\n      tag_147\n      jump\t// in\n    tag_146:\n        /* \"#utility.yul\":811:872   */\n      tag_148\n        /* \"#utility.yul\":865:871   */\n      dup2\n        /* \"#utility.yul\":860:863   */\n      dup6\n        /* \"#utility.yul\":811:872   */\n      tag_149\n      jump\t// in\n    tag_148:\n        /* \"#utility.yul\":804:872   */\n      swap4\n      pop\n        /* \"#utility.yul\":881:933   */\n      tag_150\n        /* \"#utility.yul\":926:932   */\n      dup2\n        /* \"#utility.yul\":921:924   */\n      dup6\n        /* \"#utility.yul\":914:918   */\n      0x20\n        /* \"#utility.yul\":907:912   */\n      dup7\n        /* \"#utility.yul\":903:919   */\n      add\n        /* \"#utility.yul\":881:933   */\n      tag_151\n      jump\t// in\n    tag_150:\n        /* \"#utility.yul\":958:987   */\n      tag_152\n        /* \"#utility.yul\":980:986   */\n      dup2\n        /* \"#utility.yul\":958:987   */\n      tag_153\n      jump\t// in\n    tag_152:\n        /* \"#utility.yul\":953:956   */\n      dup5\n        /* \"#utility.yul\":949:988   */\n      add\n        /* \"#utility.yul\":942:988   */\n      swap2\n      pop\n        /* \"#utility.yul\":732:994   */\n      pop\n        /* \"#utility.yul\":650:994   */\n      swap3\n      swap2\n      pop\n      pop\n      jump\t// out\n        /* \"#utility.yul\":1000:1366   */\n    tag_154:\n        /* \"#utility.yul\":1142:1145   */\n      0x00\n        /* \"#utility.yul\":1163:1230   */\n      tag_156\n        /* \"#utility.yul\":1227:1229   */\n      0x0e\n        /* \"#utility.yul\":1222:1225   */\n      dup4\n        /* \"#utility.yul\":1163:1230   */\n      tag_157\n      jump\t// in\n    tag_156:\n        /* \"#utility.yul\":1156:1230   */\n      swap2\n      pop\n        /* \"#utility.yul\":1239:1332   */\n      tag_158\n        /* \"#utility.yul\":1328:1331   */\n      dup3\n        /* \"#utility.yul\":1239:1332   */\n      tag_159\n      jump\t// in\n    tag_158:\n        /* \"#utility.yul\":1357:1359   */\n      0x20\n        /* \"#utility.yul\":1352:1355   */\n      dup3\n        /* \"#utility.yul\":1348:1360   */\n      add\n        /* \"#utility.yul\":1341:1360   */\n      swap1\n      pop\n        /* \"#utility.yul\":1000:1366   */\n      swap2\n      swap1\n      pop\n      jump\t// out\n        /* \"#utility.yul\":1372:1738   */\n    tag_160:\n        /* \"#utility.yul\":1514:1517   */\n      0x00\n        /* \"#utility.yul\":1535:1602   */\n      tag_162\n        /* \"#utility.yul\":1599:1601   */\n      0x18\n        /* \"#utility.yul\":1594:1597   */\n      dup4\n        /* \"#utility.yul\":1535:1602   */\n      tag_157\n      jump\t// in\n    tag_162:\n        /* \"#utility.yul\":1528:1602   */\n      swap2\n      pop\n        /* \"#utility.yul\":1611:1704   */\n      tag_163\n        /* \"#utility.yul\":1700:1703   */\n      dup3\n        /* \"#utility.yul\":1611:1704   */\n      tag_164\n      jump\t// in\n    tag_163:\n        /* \"#utility.yul\":1729:1731   */\n      0x20\n        /* \"#utility.yul\":1724:1727   */\n      dup3\n        /* \"#utility.yul\":1720:1732   */\n      add\n        /* \"#utility.yul\":1713:1732   */\n      swap1\n      pop\n        /* \"#utility.yul\":1372:1738   */\n      swap2\n      swap1\n      pop\n      jump\t// out\n        /* \"#utility.yul\":1744:2110   */\n    tag_165:\n        /* \"#utility.yul\":1886:1889   */\n      0x00\n        /* \"#utility.yul\":1907:1974   */\n      tag_167\n        /* \"#utility.yul\":1971:1973   */\n      0x13\n        /* \"#utility.yul\":1966:1969   */\n      dup4\n        /* \"#utility.yul\":1907:1974   */\n      tag_157\n      jump\t// in\n    tag_167:\n        /* \"#utility.yul\":1900:1974   */\n      swap2\n      pop\n        /* \"#utility.yul\":1983:2076   */\n      tag_168\n        /* \"#utility.yul\":2072:2075   */\n      dup3\n        /* \"#utility.yul\":1983:2076   */\n      tag_169\n      jump\t// in\n    tag_168:\n        /* \"#utility.yul\":2101:2103   */\n      0x20\n        /* \"#utility.yul\":2096:2099   */\n      dup3\n        /* \"#utility.yul\":2092:2104   */\n      add\n        /* \"#utility.yul\":2085:2104   */\n      swap1\n      pop\n        /* \"#utility.yul\":1744:2110   */\n      swap2\n      swap1\n      pop\n      jump\t// out\n        /* \"#utility.yul\":2172:4651   */\n    tag_170:\n        /* \"#utility.yul\":2289:2292   */\n      0x00\n        /* \"#utility.yul\":2325:2331   */\n      0x0180\n        /* \"#utility.yul\":2320:2323   */\n      dup4\n        /* \"#utility.yul\":2316:2332   */\n      add\n        /* \"#utility.yul\":2414:2418   */\n      0x00\n        /* \"#utility.yul\":2407:2412   */\n      dup4\n        /* \"#utility.yul\":2403:2419   */\n      add\n        /* \"#utility.yul\":2397:2420   */\n      mload\n        /* \"#utility.yul\":2467:2470   */\n      dup5\n        /* \"#utility.yul\":2461:2465   */\n      dup3\n        /* \"#utility.yul\":2457:2471   */\n      sub\n        /* \"#utility.yul\":2450:2454   */\n      0x00\n        /* \"#utility.yul\":2445:2448   */\n      dup7\n        /* \"#utility.yul\":2441:2455   */\n      add\n        /* \"#utility.yul\":2434:2472   */\n      mstore\n        /* \"#utility.yul\":2493:2566   */\n      tag_172\n        /* \"#utility.yul\":2561:2565   */\n      dup3\n        /* \"#utility.yul\":2547:2559   */\n      dup3\n        /* \"#utility.yul\":2493:2566   */\n      tag_144\n      jump\t// in\n    tag_172:\n        /* \"#utility.yul\":2485:2566   */\n      swap2\n      pop\n        /* \"#utility.yul\":2342:2577   */\n      pop\n        /* \"#utility.yul\":2666:2670   */\n      0x20\n        /* \"#utility.yul\":2659:2664   */\n      dup4\n        /* \"#utility.yul\":2655:2671   */\n      add\n        /* \"#utility.yul\":2649:2672   */\n      mload\n        /* \"#utility.yul\":2685:2748   */\n      tag_173\n        /* \"#utility.yul\":2742:2746   */\n      0x20\n        /* \"#utility.yul\":2737:2740   */\n      dup7\n        /* \"#utility.yul\":2733:2747   */\n      add\n        /* \"#utility.yul\":2719:2731   */\n      dup3\n        /* \"#utility.yul\":2685:2748   */\n      tag_174\n      jump\t// in\n    tag_173:\n        /* \"#utility.yul\":2587:2758   */\n      pop\n        /* \"#utility.yul\":2851:2855   */\n      0x40\n        /* \"#utility.yul\":2844:2849   */\n      dup4\n        /* \"#utility.yul\":2840:2856   */\n      add\n        /* \"#utility.yul\":2834:2857   */\n      mload\n        /* \"#utility.yul\":2870:2933   */\n      tag_175\n        /* \"#utility.yul\":2927:2931   */\n      0x40\n        /* \"#utility.yul\":2922:2925   */\n      dup7\n        /* \"#utility.yul\":2918:2932   */\n      add\n        /* \"#utility.yul\":2904:2916   */\n      dup3\n        /* \"#utility.yul\":2870:2933   */\n      tag_174\n      jump\t// in\n    tag_175:\n        /* \"#utility.yul\":2768:2943   */\n      pop\n        /* \"#utility.yul\":3036:3040   */\n      0x60\n        /* \"#utility.yul\":3029:3034   */\n      dup4\n        /* \"#utility.yul\":3025:3041   */\n      add\n        /* \"#utility.yul\":3019:3042   */\n      mload\n        /* \"#utility.yul\":3055:3118   */\n      tag_176\n        /* \"#utility.yul\":3112:3116   */\n      0x60\n        /* \"#utility.yul\":3107:3110   */\n      dup7\n        /* \"#utility.yul\":3103:3117   */\n      add\n        /* \"#utility.yul\":3089:3101   */\n      dup3\n        /* \"#utility.yul\":3055:3118   */\n      tag_174\n      jump\t// in\n    tag_176:\n        /* \"#utility.yul\":2953:3128   */\n      pop\n        /* \"#utility.yul\":3221:3225   */\n      0x80\n        /* \"#utility.yul\":3214:3219   */\n      dup4\n        /* \"#utility.yul\":3210:3226   */\n      add\n        /* \"#utility.yul\":3204:3227   */\n      mload\n        /* \"#utility.yul\":3240:3303   */\n      tag_177\n        /* \"#utility.yul\":3297:3301   */\n      0x80\n        /* \"#utility.yul\":3292:3295   */\n      dup7\n        /* \"#utility.yul\":3288:3302   */\n      add\n        /* \"#utility.yul\":3274:3286   */\n      dup3\n        /* \"#utility.yul\":3240:3303   */\n      tag_174\n      jump\t// in\n    tag_177:\n        /* \"#utility.yul\":3138:3313   */\n      pop\n        /* \"#utility.yul\":3406:3410   */\n      0xa0\n        /* \"#utility.yul\":3399:3404   */\n      dup4\n        /* \"#utility.yul\":3395:3411   */\n      add\n        /* \"#utility.yul\":3389:3412   */\n      mload\n        /* \"#utility.yul\":3425:3488   */\n      tag_178\n        /* \"#utility.yul\":3482:3486   */\n      0xa0\n        /* \"#utility.yul\":3477:3480   */\n      dup7\n        /* \"#utility.yul\":3473:3487   */\n      add\n        /* \"#utility.yul\":3459:3471   */\n      dup3\n        /* \"#utility.yul\":3425:3488   */\n      tag_174\n      jump\t// in\n    tag_178:\n        /* \"#utility.yul\":3323:3498   */\n      pop\n        /* \"#utility.yul\":3591:3595   */\n      0xc0\n        /* \"#utility.yul\":3584:3589   */\n      dup4\n        /* \"#utility.yul\":3580:3596   */\n      add\n        /* \"#utility.yul\":3574:3597   */\n      mload\n        /* \"#utility.yul\":3610:3673   */\n      tag_179\n        /* \"#utility.yul\":3667:3671   */\n      0xc0\n        /* \"#utility.yul\":3662:3665   */\n      dup7\n        /* \"#utility.yul\":3658:3672   */\n      add\n        /* \"#utility.yul\":3644:3656   */\n      dup3\n        /* \"#utility.yul\":3610:3673   */\n      tag_174\n      jump\t// in\n    tag_179:\n        /* \"#utility.yul\":3508:3683   */\n      pop\n        /* \"#utility.yul\":3776:3780   */\n      0xe0\n        /* \"#utility.yul\":3769:3774   */\n      dup4\n        /* \"#utility.yul\":3765:3781   */\n      add\n        /* \"#utility.yul\":3759:3782   */\n      mload\n        /* \"#utility.yul\":3795:3858   */\n      tag_180\n        /* \"#utility.yul\":3852:3856   */\n      0xe0\n        /* \"#utility.yul\":3847:3850   */\n      dup7\n        /* \"#utility.yul\":3843:3857   */\n      add\n        /* \"#utility.yul\":3829:3841   */\n      dup3\n        /* \"#utility.yul\":3795:3858   */\n      tag_174\n      jump\t// in\n    tag_180:\n        /* \"#utility.yul\":3693:3868   */\n      pop\n        /* \"#utility.yul\":3961:3967   */\n      0x0100\n        /* \"#utility.yul\":3954:3959   */\n      dup4\n        /* \"#utility.yul\":3950:3968   */\n      add\n        /* \"#utility.yul\":3944:3969   */\n      mload\n        /* \"#utility.yul\":3982:4047   */\n      tag_181\n        /* \"#utility.yul\":4039:4045   */\n      0x0100\n        /* \"#utility.yul\":4034:4037   */\n      dup7\n        /* \"#utility.yul\":4030:4046   */\n      add\n        /* \"#utility.yul\":4016:4028   */\n      dup3\n        /* \"#utility.yul\":3982:4047   */\n      tag_174\n      jump\t// in\n    tag_181:\n        /* \"#utility.yul\":3878:4057   */\n      pop\n        /* \"#utility.yul\":4150:4156   */\n      0x0120\n        /* \"#utility.yul\":4143:4148   */\n      dup4\n        /* \"#utility.yul\":4139:4157   */\n      add\n        /* \"#utility.yul\":4133:4158   */\n      mload\n        /* \"#utility.yul\":4171:4236   */\n      tag_182\n        /* \"#utility.yul\":4228:4234   */\n      0x0120\n        /* \"#utility.yul\":4223:4226   */\n      dup7\n        /* \"#utility.yul\":4219:4235   */\n      add\n        /* \"#utility.yul\":4205:4217   */\n      dup3\n        /* \"#utility.yul\":4171:4236   */\n      tag_174\n      jump\t// in\n    tag_182:\n        /* \"#utility.yul\":4067:4246   */\n      pop\n        /* \"#utility.yul\":4339:4345   */\n      0x0140\n        /* \"#utility.yul\":4332:4337   */\n      dup4\n        /* \"#utility.yul\":4328:4346   */\n      add\n        /* \"#utility.yul\":4322:4347   */\n      mload\n        /* \"#utility.yul\":4360:4425   */\n      tag_183\n        /* \"#utility.yul\":4417:4423   */\n      0x0140\n        /* \"#utility.yul\":4412:4415   */\n      dup7\n        /* \"#utility.yul\":4408:4424   */\n      add\n        /* \"#utility.yul\":4394:4406   */\n      dup3\n        /* \"#utility.yul\":4360:4425   */\n      tag_174\n      jump\t// in\n    tag_183:\n        /* \"#utility.yul\":4256:4435   */\n      pop\n        /* \"#utility.yul\":4528:4534   */\n      0x0160\n        /* \"#utility.yul\":4521:4526   */\n      dup4\n        /* \"#utility.yul\":4517:4535   */\n      add\n        /* \"#utility.yul\":4511:4536   */\n      mload\n        /* \"#utility.yul\":4549:4614   */\n      tag_184\n        /* \"#utility.yul\":4606:4612   */\n      0x0160\n        /* \"#utility.yul\":4601:4604   */\n      dup7\n        /* \"#utility.yul\":4597:4613   */\n      add\n        /* \"#utility.yul\":4583:4595   */\n      dup3\n        /* \"#utility.yul\":4549:4614   */\n      tag_174\n      jump\t// in\n    tag_184:\n        /* \"#utility.yul\":4445:4624   */\n      pop\n        /* \"#utility.yul\":4641:4645   */\n      dup1\n        /* \"#utility.yul\":4634:4645   */\n      swap2\n      pop\n        /* \"#utility.yul\":2294:4651   */\n      pop\n        /* \"#utility.yul\":2172:4651   */\n      swap3\n      swap2\n      pop\n      pop\n      jump\t// out\n        /* \"#utility.yul\":4657:4765   */\n    tag_174:\n        /* \"#utility.yul\":4734:4758   */\n      tag_186\n        /* \"#utility.yul\":4752:4757   */\n      dup2\n        /* \"#utility.yul\":4734:4758   */\n      tag_187\n      jump\t// in\n    tag_186:\n        /* \"#utility.yul\":4729:4732   */\n      dup3\n        /* \"#utility.yul\":4722:4759   */\n      mstore\n        /* \"#utility.yul\":4657:4765   */\n      pop\n      pop\n      jump\t// out\n        /* \"#utility.yul\":4771:4928   */\n    tag_188:\n        /* \"#utility.yul\":4876:4921   */\n      tag_190\n        /* \"#utility.yul\":4896:4920   */\n      tag_191\n        /* \"#utility.yul\":4914:4919   */\n      dup3\n        /* \"#utility.yul\":4896:4920   */\n      tag_187\n      jump\t// in\n    tag_191:\n        /* \"#utility.yul\":4876:4921   */\n      tag_192\n      jump\t// in\n    tag_190:\n        /* \"#utility.yul\":4871:4874   */\n      dup3\n        /* \"#utility.yul\":4864:4922   */\n      mstore\n        /* \"#utility.yul\":4771:4928   */\n      pop\n      pop\n      jump\t// out\n        /* \"#utility.yul\":4934:5472   */\n    tag_119:\n        /* \"#utility.yul\":5102:5105   */\n      0x00\n        /* \"#utility.yul\":5117:5192   */\n      tag_194\n        /* \"#utility.yul\":5188:5191   */\n      dup3\n        /* \"#utility.yul\":5179:5185   */\n      dup7\n        /* \"#utility.yul\":5117:5192   */\n      tag_188\n      jump\t// in\n    tag_194:\n        /* \"#utility.yul\":5217:5219   */\n      0x20\n        /* \"#utility.yul\":5212:5215   */\n      dup3\n        /* \"#utility.yul\":5208:5220   */\n      add\n        /* \"#utility.yul\":5201:5220   */\n      swap2\n      pop\n        /* \"#utility.yul\":5230:5305   */\n      tag_195\n        /* \"#utility.yul\":5301:5304   */\n      dup3\n        /* \"#utility.yul\":5292:5298   */\n      dup6\n        /* \"#utility.yul\":5230:5305   */\n      tag_188\n      jump\t// in\n    tag_195:\n        /* \"#utility.yul\":5330:5332   */\n      0x20\n        /* \"#utility.yul\":5325:5328   */\n      dup3\n        /* \"#utility.yul\":5321:5333   */\n      add\n        /* \"#utility.yul\":5314:5333   */\n      swap2\n      pop\n        /* \"#utility.yul\":5343:5418   */\n      tag_196\n        /* \"#utility.yul\":5414:5417   */\n      dup3\n        /* \"#utility.yul\":5405:5411   */\n      dup5\n        /* \"#utility.yul\":5343:5418   */\n      tag_138\n      jump\t// in\n    tag_196:\n        /* \"#utility.yul\":5443:5445   */\n      0x14\n        /* \"#utility.yul\":5438:5441   */\n      dup3\n        /* \"#utility.yul\":5434:5446   */\n      add\n        /* \"#utility.yul\":5427:5446   */\n      swap2\n      pop\n        /* \"#utility.yul\":5463:5466   */\n      dup2\n        /* \"#utility.yul\":5456:5466   */\n      swap1\n      pop\n        /* \"#utility.yul\":4934:5472   */\n      swap5\n      swap4\n      pop\n      pop\n      pop\n      pop\n      jump\t// out\n        /* \"#utility.yul\":5478:5897   */\n    tag_25:\n        /* \"#utility.yul\":5644:5648   */\n      0x00\n        /* \"#utility.yul\":5682:5684   */\n      0x20\n        /* \"#utility.yul\":5671:5680   */\n      dup3\n        /* \"#utility.yul\":5667:5685   */\n      add\n        /* \"#utility.yul\":5659:5685   */\n      swap1\n      pop\n        /* \"#utility.yul\":5731:5740   */\n      dup2\n        /* \"#utility.yul\":5725:5729   */\n      dup2\n        /* \"#utility.yul\":5721:5741   */\n      sub\n        /* \"#utility.yul\":5717:5718   */\n      0x00\n        /* \"#utility.yul\":5706:5715   */\n      dup4\n        /* \"#utility.yul\":5702:5719   */\n      add\n        /* \"#utility.yul\":5695:5742   */\n      mstore\n        /* \"#utility.yul\":5759:5890   */\n      tag_198\n        /* \"#utility.yul\":5885:5889   */\n      dup2\n        /* \"#utility.yul\":5759:5890   */\n      tag_154\n      jump\t// in\n    tag_198:\n        /* \"#utility.yul\":5751:5890   */\n      swap1\n      pop\n        /* \"#utility.yul\":5478:5897   */\n      swap2\n      swap1\n      pop\n      jump\t// out\n        /* \"#utility.yul\":5903:6322   */\n    tag_16:\n        /* \"#utility.yul\":6069:6073   */\n      0x00\n        /* \"#utility.yul\":6107:6109   */\n      0x20\n        /* \"#utility.yul\":6096:6105   */\n      dup3\n        /* \"#utility.yul\":6092:6110   */\n      add\n        /* \"#utility.yul\":6084:6110   */\n      swap1\n      pop\n        /* \"#utility.yul\":6156:6165   */\n      dup2\n        /* \"#utility.yul\":6150:6154   */\n      dup2\n        /* \"#utility.yul\":6146:6166   */\n      sub\n        /* \"#utility.yul\":6142:6143   */\n      0x00\n        /* \"#utility.yul\":6131:6140   */\n      dup4\n        /* \"#utility.yul\":6127:6144   */\n      add\n        /* \"#utility.yul\":6120:6167   */\n      mstore\n        /* \"#utility.yul\":6184:6315   */\n      tag_200\n        /* \"#utility.yul\":6310:6314   */\n      dup2\n        /* \"#utility.yul\":6184:6315   */\n      tag_160\n      jump\t// in\n    tag_200:\n        /* \"#utility.yul\":6176:6315   */\n      swap1\n      pop\n        /* \"#utility.yul\":5903:6322   */\n      swap2\n      swap1\n      pop\n      jump\t// out\n        /* \"#utility.yul\":6328:6747   */\n    tag_20:\n        /* \"#utility.yul\":6494:6498   */\n      0x00\n        /* \"#utility.yul\":6532:6534   */\n      0x20\n        /* \"#utility.yul\":6521:6530   */\n      dup3\n        /* \"#utility.yul\":6517:6535   */\n      add\n        /* \"#utility.yul\":6509:6535   */\n      swap1\n      pop\n        /* \"#utility.yul\":6581:6590   */\n      dup2\n        /* \"#utility.yul\":6575:6579   */\n      dup2\n        /* \"#utility.yul\":6571:6591   */\n      sub\n        /* \"#utility.yul\":6567:6568   */\n      0x00\n        /* \"#utility.yul\":6556:6565   */\n      dup4\n        /* \"#utility.yul\":6552:6569   */\n      add\n        /* \"#utility.yul\":6545:6592   */\n      mstore\n        /* \"#utility.yul\":6609:6740   */\n      tag_202\n        /* \"#utility.yul\":6735:6739   */\n      dup2\n        /* \"#utility.yul\":6609:6740   */\n      tag_165\n      jump\t// in\n    tag_202:\n        /* \"#utility.yul\":6601:6740   */\n      swap1\n      pop\n        /* \"#utility.yul\":6328:6747   */\n      swap2\n      swap1\n      pop\n      jump\t// out\n        /* \"#utility.yul\":6753:7122   */\n    tag_12:\n        /* \"#utility.yul\":6894:6898   */\n      0x00\n        /* \"#utility.yul\":6932:6934   */\n      0x20\n        /* \"#utility.yul\":6921:6930   */\n      dup3\n        /* \"#utility.yul\":6917:6935   */\n      add\n        /* \"#utility.yul\":6909:6935   */\n      swap1\n      pop\n        /* \"#utility.yul\":6981:6990   */\n      dup2\n        /* \"#utility.yul\":6975:6979   */\n      dup2\n        /* \"#utility.yul\":6971:6991   */\n      sub\n        /* \"#utility.yul\":6967:6968   */\n      0x00\n        /* \"#utility.yul\":6956:6965   */\n      dup4\n        /* \"#utility.yul\":6952:6969   */\n      add\n        /* \"#utility.yul\":6945:6992   */\n      mstore\n        /* \"#utility.yul\":7009:7115   */\n      tag_204\n        /* \"#utility.yul\":7110:7114   */\n      dup2\n        /* \"#utility.yul\":7101:7107   */\n      dup5\n        /* \"#utility.yul\":7009:7115   */\n      tag_170\n      jump\t// in\n    tag_204:\n        /* \"#utility.yul\":7001:7115   */\n      swap1\n      pop\n        /* \"#utility.yul\":6753:7122   */\n      swap3\n      swap2\n      pop\n      pop\n      jump\t// out\n        /* \"#utility.yul\":7209:7308   */\n    tag_147:\n        /* \"#utility.yul\":7261:7267   */\n      0x00\n        /* \"#utility.yul\":7295:7300   */\n      dup2\n        /* \"#utility.yul\":7289:7301   */\n      mload\n        /* \"#utility.yul\":7279:7301   */\n      swap1\n      pop\n        /* \"#utility.yul\":7209:7308   */\n      swap2\n      swap1\n      pop\n      jump\t// out\n        /* \"#utility.yul\":7314:7473   */\n    tag_149:\n        /* \"#utility.yul\":7388:7399   */\n      0x00\n        /* \"#utility.yul\":7422:7428   */\n      dup3\n        /* \"#utility.yul\":7417:7420   */\n      dup3\n        /* \"#utility.yul\":7410:7429   */\n      mstore\n        /* \"#utility.yul\":7462:7466   */\n      0x20\n        /* \"#utility.yul\":7457:7460   */\n      dup3\n        /* \"#utility.yul\":7453:7467   */\n      add\n        /* \"#utility.yul\":7438:7467   */\n      swap1\n      pop\n        /* \"#utility.yul\":7314:7473   */\n      swap3\n      swap2\n      pop\n      pop\n      jump\t// out\n        /* \"#utility.yul\":7479:7648   */\n    tag_157:\n        /* \"#utility.yul\":7563:7574   */\n      0x00\n        /* \"#utility.yul\":7597:7603   */\n      dup3\n        /* \"#utility.yul\":7592:7595   */\n      dup3\n        /* \"#utility.yul\":7585:7604   */\n      mstore\n        /* \"#utility.yul\":7637:7641   */\n      0x20\n        /* \"#utility.yul\":7632:7635   */\n      dup3\n        /* \"#utility.yul\":7628:7642   */\n      add\n        /* \"#utility.yul\":7613:7642   */\n      swap1\n      pop\n        /* \"#utility.yul\":7479:7648   */\n      swap3\n      swap2\n      pop\n      pop\n      jump\t// out\n        /* \"#utility.yul\":7654:8179   */\n    tag_127:\n        /* \"#utility.yul\":7693:7696   */\n      0x00\n        /* \"#utility.yul\":7712:7731   */\n      tag_211\n        /* \"#utility.yul\":7729:7730   */\n      dup3\n        /* \"#utility.yul\":7712:7731   */\n      tag_212\n      jump\t// in\n    tag_211:\n        /* \"#utility.yul\":7707:7731   */\n      swap2\n      pop\n        /* \"#utility.yul\":7745:7764   */\n      tag_213\n        /* \"#utility.yul\":7762:7763   */\n      dup4\n        /* \"#utility.yul\":7745:7764   */\n      tag_212\n      jump\t// in\n    tag_213:\n        /* \"#utility.yul\":7740:7764   */\n      swap3\n      pop\n        /* \"#utility.yul\":7933:7934   */\n      dup2\n        /* \"#utility.yul\":7865:7931   */\n      0x7fffffffffffffffffffffffffffffffffffffffffffffffffffffffffffffff\n        /* \"#utility.yul\":7861:7935   */\n      sub\n        /* \"#utility.yul\":7858:7859   */\n      dup4\n        /* \"#utility.yul\":7854:7936   */\n      sgt\n        /* \"#utility.yul\":7849:7850   */\n      0x00\n        /* \"#utility.yul\":7846:7847   */\n      dup4\n        /* \"#utility.yul\":7842:7851   */\n      slt\n        /* \"#utility.yul\":7835:7852   */\n      iszero\n        /* \"#utility.yul\":7831:7937   */\n      and\n        /* \"#utility.yul\":7828:7960   */\n      iszero\n      tag_214\n      jumpi\n        /* \"#utility.yul\":7940:7958   */\n      tag_215\n      tag_216\n      jump\t// in\n    tag_215:\n        /* \"#utility.yul\":7828:7960   */\n    tag_214:\n        /* \"#utility.yul\":8120:8121   */\n      dup2\n        /* \"#utility.yul\":8052:8118   */\n      0x8000000000000000000000000000000000000000000000000000000000000000\n        /* \"#utility.yul\":8048:8122   */\n      sub\n        /* \"#utility.yul\":8045:8046   */\n      dup4\n        /* \"#utility.yul\":8041:8123   */\n      slt\n        /* \"#utility.yul\":8037:8038   */\n      0x00\n        /* \"#utility.yul\":8034:8035   */\n      dup4\n        /* \"#utility.yul\":8030:8039   */\n      slt\n        /* \"#utility.yul\":8026:8124   */\n      and\n        /* \"#utility.yul\":8023:8147   */\n      iszero\n      tag_217\n      jumpi\n        /* \"#utility.yul\":8127:8145   */\n      tag_218\n      tag_216\n      jump\t// in\n    tag_218:\n        /* \"#utility.yul\":8023:8147   */\n    tag_217:\n        /* \"#utility.yul\":8171:8172   */\n      dup3\n        /* \"#utility.yul\":8168:8169   */\n      dup3\n        /* \"#utility.yul\":8164:8173   */\n      add\n        /* \"#utility.yul\":8157:8173   */\n      swap1\n      pop\n        /* \"#utility.yul\":7654:8179   */\n      swap3\n      swap2\n      pop\n      pop\n      jump\t// out\n        /* \"#utility.yul\":8185:8490   */\n    tag_36:\n        /* \"#utility.yul\":8225:8228   */\n      0x00\n        /* \"#utility.yul\":8244:8264   */\n      tag_220\n        /* \"#utility.yul\":8262:8263   */\n      dup3\n        /* \"#utility.yul\":8244:8264   */\n      tag_187\n      jump\t// in\n    tag_220:\n        /* \"#utility.yul\":8239:8264   */\n      swap2\n      pop\n        /* \"#utility.yul\":8278:8298   */\n      tag_221\n        /* \"#utility.yul\":8296:8297   */\n      dup4\n        /* \"#utility.yul\":8278:8298   */\n      tag_187\n      jump\t// in\n    tag_221:\n        /* \"#utility.yul\":8273:8298   */\n      swap3\n      pop\n        /* \"#utility.yul\":8432:8433   */\n      dup3\n        /* \"#utility.yul\":8364:8430   */\n      0xffffffffffffffffffffffffffffffffffffffffffffffffffffffffffffffff\n        /* \"#utility.yul\":8360:8434   */\n      sub\n        /* \"#utility.yul\":8357:8358   */\n      dup3\n        /* \"#utility.yul\":8354:8435   */\n      gt\n        /* \"#utility.yul\":8351:8458   */\n      iszero\n      tag_222\n      jumpi\n        /* \"#utility.yul\":8438:8456   */\n      tag_223\n      tag_216\n      jump\t// in\n    tag_223:\n        /* \"#utility.yul\":8351:8458   */\n    tag_222:\n        /* \"#utility.yul\":8482:8483   */\n      dup3\n        /* \"#utility.yul\":8479:8480   */\n      dup3\n        /* \"#utility.yul\":8475:8484   */\n      add\n        /* \"#utility.yul\":8468:8484   */\n      swap1\n      pop\n        /* \"#utility.yul\":8185:8490   */\n      swap3\n      swap2\n      pop\n      pop\n      jump\t// out\n        /* \"#utility.yul\":8496:8592   */\n    tag_142:\n        /* \"#utility.yul\":8533:8540   */\n      0x00\n        /* \"#utility.yul\":8562:8586   */\n      tag_225\n        /* \"#utility.yul\":8580:8585   */\n      dup3\n        /* \"#utility.yul\":8562:8586   */\n      tag_226\n      jump\t// in\n    tag_225:\n        /* \"#utility.yul\":8551:8586   */\n      swap1\n      pop\n        /* \"#utility.yul\":8496:8592   */\n      swap2\n      swap1\n      pop\n      jump\t// out\n        /* \"#utility.yul\":8598:8674   */\n    tag_212:\n        /* \"#utility.yul\":8634:8641   */\n      0x00\n        /* \"#utility.yul\":8663:8668   */\n      dup2\n        /* \"#utility.yul\":8652:8668   */\n      swap1\n      pop\n        /* \"#utility.yul\":8598:8674   */\n      swap2\n      swap1\n      pop\n      jump\t// out\n        /* \"#utility.yul\":8680:8806   */\n    tag_226:\n        /* \"#utility.yul\":8717:8724   */\n      0x00\n        /* \"#utility.yul\":8757:8799   */\n      0xffffffffffffffffffffffffffffffffffffffff\n        /* \"#utility.yul\":8750:8755   */\n      dup3\n        /* \"#utility.yul\":8746:8800   */\n      and\n        /* \"#utility.yul\":8735:8800   */\n      swap1\n      pop\n        /* \"#utility.yul\":8680:8806   */\n      swap2\n      swap1\n      pop\n      jump\t// out\n        /* \"#utility.yul\":8812:8889   */\n    tag_187:\n        /* \"#utility.yul\":8849:8856   */\n      0x00\n        /* \"#utility.yul\":8878:8883   */\n      dup2\n        /* \"#utility.yul\":8867:8883   */\n      swap1\n      pop\n        /* \"#utility.yul\":8812:8889   */\n      swap2\n      swap1\n      pop\n      jump\t// out\n        /* \"#utility.yul\":8895:9202   */\n    tag_151:\n        /* \"#utility.yul\":8963:8964   */\n      0x00\n        /* \"#utility.yul\":8973:9086   */\n    tag_231:\n        /* \"#utility.yul\":8987:8993   */\n      dup4\n        /* \"#utility.yul\":8984:8985   */\n      dup2\n        /* \"#utility.yul\":8981:8994   */\n      lt\n        /* \"#utility.yul\":8973:9086   */\n      iszero\n      tag_233\n      jumpi\n        /* \"#utility.yul\":9072:9073   */\n      dup1\n        /* \"#utility.yul\":9067:9070   */\n      dup3\n        /* \"#utility.yul\":9063:9074   */\n      add\n        /* \"#utility.yul\":9057:9075   */\n      mload\n        /* \"#utility.yul\":9053:9054   */\n      dup2\n        /* \"#utility.yul\":9048:9051   */\n      dup5\n        /* \"#utility.yul\":9044:9055   */\n      add\n        /* \"#utility.yul\":9037:9076   */\n      mstore\n        /* \"#utility.yul\":9009:9011   */\n      0x20\n        /* \"#utility.yul\":9006:9007   */\n      dup2\n        /* \"#utility.yul\":9002:9012   */\n      add\n        /* \"#utility.yul\":8997:9012   */\n      swap1\n      pop\n        /* \"#utility.yul\":8973:9086   */\n      jump(tag_231)\n    tag_233:\n        /* \"#utility.yul\":9104:9110   */\n      dup4\n        /* \"#utility.yul\":9101:9102   */\n      dup2\n        /* \"#utility.yul\":9098:9111   */\n      gt\n        /* \"#utility.yul\":9095:9196   */\n      iszero\n      tag_234\n      jumpi\n        /* \"#utility.yul\":9184:9185   */\n      0x00\n        /* \"#utility.yul\":9175:9181   */\n      dup5\n        /* \"#utility.yul\":9170:9173   */\n      dup5\n        /* \"#utility.yul\":9166:9182   */\n      add\n        /* \"#utility.yul\":9159:9186   */\n      mstore\n        /* \"#utility.yul\":9095:9196   */\n    tag_234:\n        /* \"#utility.yul\":8944:9202   */\n      pop\n        /* \"#utility.yul\":8895:9202   */\n      pop\n      pop\n      pop\n      jump\t// out\n        /* \"#utility.yul\":9208:9528   */\n    tag_112:\n        /* \"#utility.yul\":9252:9258   */\n      0x00\n        /* \"#utility.yul\":9289:9290   */\n      0x02\n        /* \"#utility.yul\":9283:9287   */\n      dup3\n        /* \"#utility.yul\":9279:9291   */\n      div\n        /* \"#utility.yul\":9269:9291   */\n      swap1\n      pop\n        /* \"#utility.yul\":9336:9337   */\n      0x01\n        /* \"#utility.yul\":9330:9334   */\n      dup3\n        /* \"#utility.yul\":9326:9338   */\n      and\n        /* \"#utility.yul\":9357:9375   */\n      dup1\n        /* \"#utility.yul\":9347:9428   */\n      tag_236\n      jumpi\n        /* \"#utility.yul\":9413:9417   */\n      0x7f\n        /* \"#utility.yul\":9405:9411   */\n      dup3\n        /* \"#utility.yul\":9401:9418   */\n      and\n        /* \"#utility.yul\":9391:9418   */\n      swap2\n      pop\n        /* \"#utility.yul\":9347:9428   */\n    tag_236:\n        /* \"#utility.yul\":9475:9477   */\n      0x20\n        /* \"#utility.yul\":9467:9473   */\n      dup3\n        /* \"#utility.yul\":9464:9478   */\n      lt\n        /* \"#utility.yul\":9444:9462   */\n      dup2\n        /* \"#utility.yul\":9441:9479   */\n      eq\n        /* \"#utility.yul\":9438:9522   */\n      iszero\n      tag_237\n      jumpi\n        /* \"#utility.yul\":9494:9512   */\n      tag_238\n      tag_239\n      jump\t// in\n    tag_238:\n        /* \"#utility.yul\":9438:9522   */\n    tag_237:\n        /* \"#utility.yul\":9259:9528   */\n      pop\n        /* \"#utility.yul\":9208:9528   */\n      swap2\n      swap1\n      pop\n      jump\t// out\n        /* \"#utility.yul\":9534:9634   */\n    tag_143:\n        /* \"#utility.yul\":9573:9580   */\n      0x00\n        /* \"#utility.yul\":9602:9628   */\n      tag_241\n        /* \"#utility.yul\":9622:9627   */\n      dup3\n        /* \"#utility.yul\":9602:9628   */\n      tag_242\n      jump\t// in\n    tag_241:\n        /* \"#utility.yul\":9591:9628   */\n      swap1\n      pop\n        /* \"#utility.yul\":9534:9634   */\n      swap2\n      swap1\n      pop\n      jump\t// out\n        /* \"#utility.yul\":9640:9734   */\n    tag_242:\n        /* \"#utility.yul\":9679:9686   */\n      0x00\n        /* \"#utility.yul\":9708:9728   */\n      tag_244\n        /* \"#utility.yul\":9722:9727   */\n      dup3\n        /* \"#utility.yul\":9708:9728   */\n      tag_245\n      jump\t// in\n    tag_244:\n        /* \"#utility.yul\":9697:9728   */\n      swap1\n      pop\n        /* \"#utility.yul\":9640:9734   */\n      swap2\n      swap1\n      pop\n      jump\t// out\n        /* \"#utility.yul\":9740:9819   */\n    tag_192:\n        /* \"#utility.yul\":9779:9786   */\n      0x00\n        /* \"#utility.yul\":9808:9813   */\n      dup2\n        /* \"#utility.yul\":9797:9813   */\n      swap1\n      pop\n        /* \"#utility.yul\":9740:9819   */\n      swap2\n      swap1\n      pop\n      jump\t// out\n        /* \"#utility.yul\":9825:10001   */\n    tag_121:\n        /* \"#utility.yul\":9857:9858   */\n      0x00\n        /* \"#utility.yul\":9874:9894   */\n      tag_248\n        /* \"#utility.yul\":9892:9893   */\n      dup3\n        /* \"#utility.yul\":9874:9894   */\n      tag_187\n      jump\t// in\n    tag_248:\n        /* \"#utility.yul\":9869:9894   */\n      swap2\n      pop\n        /* \"#utility.yul\":9908:9928   */\n      tag_249\n        /* \"#utility.yul\":9926:9927   */\n      dup4\n        /* \"#utility.yul\":9908:9928   */\n      tag_187\n      jump\t// in\n    tag_249:\n        /* \"#utility.yul\":9903:9928   */\n      swap3\n      pop\n        /* \"#utility.yul\":9947:9948   */\n      dup3\n        /* \"#utility.yul\":9937:9972   */\n      tag_250\n      jumpi\n        /* \"#utility.yul\":9952:9970   */\n      tag_251\n      tag_252\n      jump\t// in\n    tag_251:\n        /* \"#utility.yul\":9937:9972   */\n    tag_250:\n        /* \"#utility.yul\":9993:9994   */\n      dup3\n        /* \"#utility.yul\":9990:9991   */\n      dup3\n        /* \"#utility.yul\":9986:9995   */\n      mod\n        /* \"#utility.yul\":9981:9995   */\n      swap1\n      pop\n        /* \"#utility.yul\":9825:10001   */\n      swap3\n      swap2\n      pop\n      pop\n      jump\t// out\n        /* \"#utility.yul\":10007:10187   */\n    tag_216:\n        /* \"#utility.yul\":10055:10132   */\n      0x4e487b7100000000000000000000000000000000000000000000000000000000\n        /* \"#utility.yul\":10052:10053   */\n      0x00\n        /* \"#utility.yul\":10045:10133   */\n      mstore\n        /* \"#utility.yul\":10152:10156   */\n      0x11\n        /* \"#utility.yul\":10149:10150   */\n      0x04\n        /* \"#utility.yul\":10142:10157   */\n      mstore\n        /* \"#utility.yul\":10176:10180   */\n      0x24\n        /* \"#utility.yul\":10173:10174   */\n      0x00\n        /* \"#utility.yul\":10166:10181   */\n      revert\n        /* \"#utility.yul\":10193:10373   */\n    tag_252:\n        /* \"#utility.yul\":10241:10318   */\n      0x4e487b7100000000000000000000000000000000000000000000000000000000\n        /* \"#utility.yul\":10238:10239   */\n      0x00\n        /* \"#utility.yul\":10231:10319   */\n      mstore\n        /* \"#utility.yul\":10338:10342   */\n      0x12\n        /* \"#utility.yul\":10335:10336   */\n      0x04\n        /* \"#utility.yul\":10328:10343   */\n      mstore\n        /* \"#utility.yul\":10362:10366   */\n      0x24\n        /* \"#utility.yul\":10359:10360   */\n      0x00\n        /* \"#utility.yul\":10352:10367   */\n      revert\n        /* \"#utility.yul\":10379:10559   */\n    tag_239:\n        /* \"#utility.yul\":10427:10504   */\n      0x4e487b7100000000000000000000000000000000000000000000000000000000\n        /* \"#utility.yul\":10424:10425   */\n      0x00\n        /* \"#utility.yul\":10417:10505   */\n      mstore\n        /* \"#utility.yul\":10524:10528   */\n      0x22\n        /* \"#utility.yul\":10521:10522   */\n      0x04\n        /* \"#utility.yul\":10514:10529   */\n      mstore\n        /* \"#utility.yul\":10548:10552   */\n      0x24\n        /* \"#utility.yul\":10545:10546   */\n      0x00\n        /* \"#utility.yul\":10538:10553   */\n      revert\n        /* \"#utility.yul\":10565:10745   */\n    tag_33:\n        /* \"#utility.yul\":10613:10690   */\n      0x4e487b7100000000000000000000000000000000000000000000000000000000\n        /* \"#utility.yul\":10610:10611   */\n      0x00\n        /* \"#utility.yul\":10603:10691   */\n      mstore\n        /* \"#utility.yul\":10710:10714   */\n      0x32\n        /* \"#utility.yul\":10707:10708   */\n      0x04\n        /* \"#utility.yul\":10700:10715   */\n      mstore\n        /* \"#utility.yul\":10734:10738   */\n      0x24\n        /* \"#utility.yul\":10731:10732   */\n      0x00\n        /* \"#utility.yul\":10724:10739   */\n      revert\n        /* \"#utility.yul\":10874:10991   */\n    tag_136:\n        /* \"#utility.yul\":10983:10984   */\n      0x00\n        /* \"#utility.yul\":10980:10981   */\n      dup1\n        /* \"#utility.yul\":10973:10985   */\n      revert\n        /* \"#utility.yul\":10997:11099   */\n    tag_153:\n        /* \"#utility.yul\":11038:11044   */\n      0x00\n        /* \"#utility.yul\":11089:11091   */\n      0x1f\n        /* \"#utility.yul\":11085:11092   */\n      not\n        /* \"#utility.yul\":11080:11082   */\n      0x1f\n        /* \"#utility.yul\":11073:11078   */\n      dup4\n        /* \"#utility.yul\":11069:11083   */\n      add\n        /* \"#utility.yul\":11065:11093   */\n      and\n        /* \"#utility.yul\":11055:11093   */\n      swap1\n      pop\n        /* \"#utility.yul\":10997:11099   */\n      swap2\n      swap1\n      pop\n      jump\t// out\n        /* \"#utility.yul\":11105:11199   */\n    tag_245:\n        /* \"#utility.yul\":11138:11146   */\n      0x00\n        /* \"#utility.yul\":11186:11191   */\n      dup2\n        /* \"#utility.yul\":11182:11184   */\n      0x60\n        /* \"#utility.yul\":11178:11192   */\n      shl\n        /* \"#utility.yul\":11157:11192   */\n      swap1\n      pop\n        /* \"#utility.yul\":11105:11199   */\n      swap2\n      swap1\n      pop\n      jump\t// out\n        /* \"#utility.yul\":11205:11369   */\n    tag_159:\n        /* \"#utility.yul\":11345:11361   */\n      0x416c726561647920766f7465642e000000000000000000000000000000000000\n        /* \"#utility.yul\":11341:11342   */\n      0x00\n        /* \"#utility.yul\":11333:11339   */\n      dup3\n        /* \"#utility.yul\":11329:11343   */\n      add\n        /* \"#utility.yul\":11322:11362   */\n      mstore\n        /* \"#utility.yul\":11205:11369   */\n      pop\n      jump\t// out\n        /* \"#utility.yul\":11375:11549   */\n    tag_164:\n        /* \"#utility.yul\":11515:11541   */\n      0x54686520766f74657220616c726561647920766f7465642e0000000000000000\n        /* \"#utility.yul\":11511:11512   */\n      0x00\n        /* \"#utility.yul\":11503:11509   */\n      dup3\n        /* \"#utility.yul\":11499:11513   */\n      add\n        /* \"#utility.yul\":11492:11542   */\n      mstore\n        /* \"#utility.yul\":11375:11549   */\n      pop\n      jump\t// out\n        /* \"#utility.yul\":11555:11724   */\n    tag_169:\n        /* \"#utility.yul\":11695:11716   */\n      0x52656163686564206d617820766f746572732e00000000000000000000000000\n        /* \"#utility.yul\":11691:11692   */\n      0x00\n        /* \"#utility.yul\":11683:11689   */\n      dup3\n        /* \"#utility.yul\":11679:11693   */\n      add\n        /* \"#utility.yul\":11672:11717   */\n      mstore\n        /* \"#utility.yul\":11555:11724   */\n      pop\n      jump\t// out\n        /* \"#utility.yul\":11730:11852   */\n    tag_132:\n        /* \"#utility.yul\":11803:11827   */\n      tag_266\n        /* \"#utility.yul\":11821:11826   */\n      dup2\n        /* \"#utility.yul\":11803:11827   */\n      tag_187\n      jump\t// in\n    tag_266:\n        /* \"#utility.yul\":11796:11801   */\n      dup2\n        /* \"#utility.yul\":11793:11828   */\n      eq\n        /* \"#utility.yul\":11783:11846   */\n      tag_267\n      jumpi\n        /* \"#utility.yul\":11842:11843   */\n      0x00\n        /* \"#utility.yul\":11839:11840   */\n      dup1\n        /* \"#utility.yul\":11832:11844   */\n      revert\n        /* \"#utility.yul\":11783:11846   */\n    tag_267:\n        /* \"#utility.yul\":11730:11852   */\n      pop\n      jump\t// out\n\n    auxdata: 0xa26469706673582212206e1d6217daf790bc4f381f0594d61213c56e5c7724ff360cbdb5cedd1675974764736f6c63430008070033\n}\n",
				"bytecode": {
					"linkReferences": {},
					"object": "6080604052600060035560006004553480156200001b57600080fd5b50336000806101000a81548173ffffffffffffffffffffffffffffffffffffffff021916908373ffffffffffffffffffffffffffffffffffffffff16021790555060018060008060009054906101000a900473ffffffffffffffffffffffffffffffffffffffff1673ffffffffffffffffffffffffffffffffffffffff1673ffffffffffffffffffffffffffffffffffffffff1681526020019081526020016000206000018190555060006040518060a001604052806040518060400160405280600181526020017f610000000000000000000000000000000000000000000000000000000000000081525081526020016040518060400160405280600181526020017f620000000000000000000000000000000000000000000000000000000000000081525081526020016040518060400160405280600181526020017f630000000000000000000000000000000000000000000000000000000000000081525081526020016040518060400160405280600181526020017f640000000000000000000000000000000000000000000000000000000000000081525081526020016040518060400160405280600181526020017f65000000000000000000000000000000000000000000000000000000000000008152508152509050600580146200023e576040517f08c379a0000000000000000000000000000000000000000000000000000000008152600401620002359062000475565b60405180910390fd5b60005b6005811015620003965760026040518061018001604052808484600581106200026f576200026e62000594565b5b6020020151815260200160008152602001600081526020016000815260200160008152602001600081526020016000815260200160008152602001600081526020016000815260200160008152602001600081525090806001815401808255809150506001900390600052602060002090600c020160009091909190915060008201518160000190805190602001906200030b9291906200039e565b506020820151816001015560408201518160020155606082015181600301556080820151816004015560a0820151816005015560c0820151816006015560e082015181600701556101008201518160080155610120820151816009015561014082015181600a015561016082015181600b0155505080806200038d90620004e8565b91505062000241565b5050620005ec565b828054620003ac90620004b2565b90600052602060002090601f016020900481019282620003d057600085556200041c565b82601f10620003eb57805160ff19168380011785556200041c565b828001600101855582156200041c579182015b828111156200041b578251825591602001919060010190620003fe565b5b5090506200042b91906200042f565b5090565b5b808211156200044a57600081600090555060010162000430565b5090565b60006200045d60158362000497565b91506200046a82620005c3565b602082019050919050565b6000602082019050818103600083015262000490816200044e565b9050919050565b600082825260208201905092915050565b6000819050919050565b60006002820490506001821680620004cb57607f821691505b60208210811415620004e257620004e162000565565b5b50919050565b6000620004f582620004a8565b91507fffffffffffffffffffffffffffffffffffffffffffffffffffffffffffffffff8214156200052b576200052a62000536565b5b600182019050919050565b7f4e487b7100000000000000000000000000000000000000000000000000000000600052601160045260246000fd5b7f4e487b7100000000000000000000000000000000000000000000000000000000600052602260045260246000fd5b7f4e487b7100000000000000000000000000000000000000000000000000000000600052603260045260246000fd5b7f43616e64696461746573206d75737420626520352e0000000000000000000000600082015250565b610f9c80620005fc6000396000f3fe608060405234801561001057600080fd5b50600436106100365760003560e01c8063632a9a521461003b578063d4e8fd2e14610045575b600080fd5b610043610075565b005b61005f600480360381019061005a9190610905565b6106b4565b60405161006c9190610bb2565b60405180910390f35b600160003373ffffffffffffffffffffffffffffffffffffffff1673ffffffffffffffffffffffffffffffffffffffff16815260200190815260200160002060010160009054906101000a900460ff1615610105576040517f08c379a00000000000000000000000000000000000000000000000000000000081526004016100fc90610b72565b60405180910390fd5b6000600160003373ffffffffffffffffffffffffffffffffffffffff1673ffffffffffffffffffffffffffffffffffffffff168152602001908152602001600020600001541461015457600080fd5b60018060003373ffffffffffffffffffffffffffffffffffffffff1673ffffffffffffffffffffffffffffffffffffffff16815260200190815260200160002060000181905550606460035413156101e1576040517f08c379a00000000000000000000000000000000000000000000000000000000081526004016101d890610b92565b60405180910390fd5b6101e96107f1565b600160003373ffffffffffffffffffffffffffffffffffffffff1673ffffffffffffffffffffffffffffffffffffffff168152602001908152602001600020600201819055506000600160003373ffffffffffffffffffffffffffffffffffffffff1673ffffffffffffffffffffffffffffffffffffffff16815260200190815260200160002090508060010160009054906101000a900460ff16156102c4576040517f08c379a00000000000000000000000000000000000000000000000000000000081526004016102bb90610b52565b60405180910390fd5b60018160010160006101000a81548160ff0219169083151502179055506102e9610832565b81600301819055506102f9610873565b80600001546002610308610832565b8154811061031957610318610e82565b5b90600052602060002090600c020160010160008282546103399190610c95565b92505081905550600081600201541415610399578060000154600261035c610832565b8154811061036d5761036c610e82565b5b90600052602060002090600c0201600201600082825461038d9190610c95565b925050819055506106b1565b6001816002015414156103f257806000015460026103b5610832565b815481106103c6576103c5610e82565b5b90600052602060002090600c020160030160008282546103e69190610c95565b925050819055506106b0565b60028160020154141561044b578060000154600261040e610832565b8154811061041f5761041e610e82565b5b90600052602060002090600c0201600401600082825461043f9190610c95565b925050819055506106af565b6003816002015414156104a45780600001546002610467610832565b8154811061047857610477610e82565b5b90600052602060002090600c020160050160008282546104989190610c95565b925050819055506106ae565b6004816002015414156104fd57806000015460026104c0610832565b815481106104d1576104d0610e82565b5b90600052602060002090600c020160060160008282546104f19190610c95565b925050819055506106ad565b6005816002015414156105565780600001546002610519610832565b8154811061052a57610529610e82565b5b90600052602060002090600c0201600701600082825461054a9190610c95565b925050819055506106ac565b6006816002015414156105af5780600001546002610572610832565b8154811061058357610582610e82565b5b90600052602060002090600c020160080160008282546105a39190610c95565b925050819055506106ab565b60078160020154141561060857806000015460026105cb610832565b815481106105dc576105db610e82565b5b90600052602060002090600c020160090160008282546105fc9190610c95565b925050819055506106aa565b6008816002015414156106615780600001546002610624610832565b8154811061063557610634610e82565b5b90600052602060002090600c0201600a0160008282546106559190610c95565b925050819055506106a9565b80600001546002610670610832565b8154811061068157610680610e82565b5b90600052602060002090600c0201600b0160008282546106a19190610c95565b925050819055505b5b5b5b5b5b5b5b5b50565b6106bc61088f565b600282815481106106d0576106cf610e82565b5b90600052602060002090600c0201604051806101800160405290816000820180546106fa90610d64565b80601f016020809104026020016040519081016040528092919081815260200182805461072690610d64565b80156107735780601f1061074857610100808354040283529160200191610773565b820191906000526020600020905b81548152906001019060200180831161075657829003601f168201915b50505050508152602001600182015481526020016002820154815260200160038201548152602001600482015481526020016005820154815260200160068201548152602001600782015481526020016008820154815260200160098201548152602001600a8201548152602001600b820154815250509050919050565b6000600a42443360405160200161080a93929190610b15565b6040516020818303038152906040528051906020012060001c61082d9190610dc4565b905090565b6000600542443360405160200161084b93929190610b15565b6040516020818303038152906040528051906020012060001c61086e9190610dc4565b905090565b6001600360008282546108869190610c01565b92505081905550565b6040518061018001604052806060815260200160008152602001600081526020016000815260200160008152602001600081526020016000815260200160008152602001600081526020016000815260200160008152602001600081525090565b6000813590506108ff81610f4f565b92915050565b60006020828403121561091b5761091a610eb1565b5b6000610929848285016108f0565b91505092915050565b61094361093e82610ceb565b610d96565b82525050565b600061095482610bd4565b61095e8185610bdf565b935061096e818560208601610d31565b61097781610eb6565b840191505092915050565b600061098f600e83610bf0565b915061099a82610ed4565b602082019050919050565b60006109b2601883610bf0565b91506109bd82610efd565b602082019050919050565b60006109d5601383610bf0565b91506109e082610f26565b602082019050919050565b6000610180830160008301518482036000860152610a098282610949565b9150506020830151610a1e6020860182610aef565b506040830151610a316040860182610aef565b506060830151610a446060860182610aef565b506080830151610a576080860182610aef565b5060a0830151610a6a60a0860182610aef565b5060c0830151610a7d60c0860182610aef565b5060e0830151610a9060e0860182610aef565b50610100830151610aa5610100860182610aef565b50610120830151610aba610120860182610aef565b50610140830151610acf610140860182610aef565b50610160830151610ae4610160860182610aef565b508091505092915050565b610af881610d27565b82525050565b610b0f610b0a82610d27565b610dba565b82525050565b6000610b218286610afe565b602082019150610b318285610afe565b602082019150610b418284610932565b601482019150819050949350505050565b60006020820190508181036000830152610b6b81610982565b9050919050565b60006020820190508181036000830152610b8b816109a5565b9050919050565b60006020820190508181036000830152610bab816109c8565b9050919050565b60006020820190508181036000830152610bcc81846109eb565b905092915050565b600081519050919050565b600082825260208201905092915050565b600082825260208201905092915050565b6000610c0c82610cfd565b9150610c1783610cfd565b9250817f7fffffffffffffffffffffffffffffffffffffffffffffffffffffffffffffff03831360008312151615610c5257610c51610df5565b5b817f8000000000000000000000000000000000000000000000000000000000000000038312600083121615610c8a57610c89610df5565b5b828201905092915050565b6000610ca082610d27565b9150610cab83610d27565b9250827fffffffffffffffffffffffffffffffffffffffffffffffffffffffffffffffff03821115610ce057610cdf610df5565b5b828201905092915050565b6000610cf682610d07565b9050919050565b6000819050919050565b600073ffffffffffffffffffffffffffffffffffffffff82169050919050565b6000819050919050565b60005b83811015610d4f578082015181840152602081019050610d34565b83811115610d5e576000848401525b50505050565b60006002820490506001821680610d7c57607f821691505b60208210811415610d9057610d8f610e53565b5b50919050565b6000610da182610da8565b9050919050565b6000610db382610ec7565b9050919050565b6000819050919050565b6000610dcf82610d27565b9150610dda83610d27565b925082610dea57610de9610e24565b5b828206905092915050565b7f4e487b7100000000000000000000000000000000000000000000000000000000600052601160045260246000fd5b7f4e487b7100000000000000000000000000000000000000000000000000000000600052601260045260246000fd5b7f4e487b7100000000000000000000000000000000000000000000000000000000600052602260045260246000fd5b7f4e487b7100000000000000000000000000000000000000000000000000000000600052603260045260246000fd5b600080fd5b6000601f19601f8301169050919050565b60008160601b9050919050565b7f416c726561647920766f7465642e000000000000000000000000000000000000600082015250565b7f54686520766f74657220616c726561647920766f7465642e0000000000000000600082015250565b7f52656163686564206d617820766f746572732e00000000000000000000000000600082015250565b610f5881610d27565b8114610f6357600080fd5b5056fea26469706673582212206e1d6217daf790bc4f381f0594d61213c56e5c7724ff360cbdb5cedd1675974764736f6c63430008070033",
					"opcodes": "PUSH1 0x80 PUSH1 0x40 MSTORE PUSH1 0x0 PUSH1 0x3 SSTORE PUSH1 0x0 PUSH1 0x4 SSTORE CALLVALUE DUP1 ISZERO PUSH3 0x1B JUMPI PUSH1 0x0 DUP1 REVERT JUMPDEST POP CALLER PUSH1 0x0 DUP1 PUSH2 0x100 EXP DUP2 SLOAD DUP2 PUSH20 0xFFFFFFFFFFFFFFFFFFFFFFFFFFFFFFFFFFFFFFFF MUL NOT AND SWAP1 DUP4 PUSH20 0xFFFFFFFFFFFFFFFFFFFFFFFFFFFFFFFFFFFFFFFF AND MUL OR SWAP1 SSTORE POP PUSH1 0x1 DUP1 PUSH1 0x0 DUP1 PUSH1 0x0 SWAP1 SLOAD SWAP1 PUSH2 0x100 EXP SWAP1 DIV PUSH20 0xFFFFFFFFFFFFFFFFFFFFFFFFFFFFFFFFFFFFFFFF AND PUSH20 0xFFFFFFFFFFFFFFFFFFFFFFFFFFFFFFFFFFFFFFFF AND PUSH20 0xFFFFFFFFFFFFFFFFFFFFFFFFFFFFFFFFFFFFFFFF AND DUP2 MSTORE PUSH1 0x20 ADD SWAP1 DUP2 MSTORE PUSH1 0x20 ADD PUSH1 0x0 KECCAK256 PUSH1 0x0 ADD DUP2 SWAP1 SSTORE POP PUSH1 0x0 PUSH1 0x40 MLOAD DUP1 PUSH1 0xA0 ADD PUSH1 0x40 MSTORE DUP1 PUSH1 0x40 MLOAD DUP1 PUSH1 0x40 ADD PUSH1 0x40 MSTORE DUP1 PUSH1 0x1 DUP2 MSTORE PUSH1 0x20 ADD PUSH32 0x6100000000000000000000000000000000000000000000000000000000000000 DUP2 MSTORE POP DUP2 MSTORE PUSH1 0x20 ADD PUSH1 0x40 MLOAD DUP1 PUSH1 0x40 ADD PUSH1 0x40 MSTORE DUP1 PUSH1 0x1 DUP2 MSTORE PUSH1 0x20 ADD PUSH32 0x6200000000000000000000000000000000000000000000000000000000000000 DUP2 MSTORE POP DUP2 MSTORE PUSH1 0x20 ADD PUSH1 0x40 MLOAD DUP1 PUSH1 0x40 ADD PUSH1 0x40 MSTORE DUP1 PUSH1 0x1 DUP2 MSTORE PUSH1 0x20 ADD PUSH32 0x6300000000000000000000000000000000000000000000000000000000000000 DUP2 MSTORE POP DUP2 MSTORE PUSH1 0x20 ADD PUSH1 0x40 MLOAD DUP1 PUSH1 0x40 ADD PUSH1 0x40 MSTORE DUP1 PUSH1 0x1 DUP2 MSTORE PUSH1 0x20 ADD PUSH32 0x6400000000000000000000000000000000000000000000000000000000000000 DUP2 MSTORE POP DUP2 MSTORE PUSH1 0x20 ADD PUSH1 0x40 MLOAD DUP1 PUSH1 0x40 ADD PUSH1 0x40 MSTORE DUP1 PUSH1 0x1 DUP2 MSTORE PUSH1 0x20 ADD PUSH32 0x6500000000000000000000000000000000000000000000000000000000000000 DUP2 MSTORE POP DUP2 MSTORE POP SWAP1 POP PUSH1 0x5 DUP1 EQ PUSH3 0x23E JUMPI PUSH1 0x40 MLOAD PUSH32 0x8C379A000000000000000000000000000000000000000000000000000000000 DUP2 MSTORE PUSH1 0x4 ADD PUSH3 0x235 SWAP1 PUSH3 0x475 JUMP JUMPDEST PUSH1 0x40 MLOAD DUP1 SWAP2 SUB SWAP1 REVERT JUMPDEST PUSH1 0x0 JUMPDEST PUSH1 0x5 DUP2 LT ISZERO PUSH3 0x396 JUMPI PUSH1 0x2 PUSH1 0x40 MLOAD DUP1 PUSH2 0x180 ADD PUSH1 0x40 MSTORE DUP1 DUP5 DUP5 PUSH1 0x5 DUP2 LT PUSH3 0x26F JUMPI PUSH3 0x26E PUSH3 0x594 JUMP JUMPDEST JUMPDEST PUSH1 0x20 MUL ADD MLOAD DUP2 MSTORE PUSH1 0x20 ADD PUSH1 0x0 DUP2 MSTORE PUSH1 0x20 ADD PUSH1 0x0 DUP2 MSTORE PUSH1 0x20 ADD PUSH1 0x0 DUP2 MSTORE PUSH1 0x20 ADD PUSH1 0x0 DUP2 MSTORE PUSH1 0x20 ADD PUSH1 0x0 DUP2 MSTORE PUSH1 0x20 ADD PUSH1 0x0 DUP2 MSTORE PUSH1 0x20 ADD PUSH1 0x0 DUP2 MSTORE PUSH1 0x20 ADD PUSH1 0x0 DUP2 MSTORE PUSH1 0x20 ADD PUSH1 0x0 DUP2 MSTORE PUSH1 0x20 ADD PUSH1 0x0 DUP2 MSTORE PUSH1 0x20 ADD PUSH1 0x0 DUP2 MSTORE POP SWAP1 DUP1 PUSH1 0x1 DUP2 SLOAD ADD DUP1 DUP3 SSTORE DUP1 SWAP2 POP POP PUSH1 0x1 SWAP1 SUB SWAP1 PUSH1 0x0 MSTORE PUSH1 0x20 PUSH1 0x0 KECCAK256 SWAP1 PUSH1 0xC MUL ADD PUSH1 0x0 SWAP1 SWAP2 SWAP1 SWAP2 SWAP1 SWAP2 POP PUSH1 0x0 DUP3 ADD MLOAD DUP2 PUSH1 0x0 ADD SWAP1 DUP1 MLOAD SWAP1 PUSH1 0x20 ADD SWAP1 PUSH3 0x30B SWAP3 SWAP2 SWAP1 PUSH3 0x39E JUMP JUMPDEST POP PUSH1 0x20 DUP3 ADD MLOAD DUP2 PUSH1 0x1 ADD SSTORE PUSH1 0x40 DUP3 ADD MLOAD DUP2 PUSH1 0x2 ADD SSTORE PUSH1 0x60 DUP3 ADD MLOAD DUP2 PUSH1 0x3 ADD SSTORE PUSH1 0x80 DUP3 ADD MLOAD DUP2 PUSH1 0x4 ADD SSTORE PUSH1 0xA0 DUP3 ADD MLOAD DUP2 PUSH1 0x5 ADD SSTORE PUSH1 0xC0 DUP3 ADD MLOAD DUP2 PUSH1 0x6 ADD SSTORE PUSH1 0xE0 DUP3 ADD MLOAD DUP2 PUSH1 0x7 ADD SSTORE PUSH2 0x100 DUP3 ADD MLOAD DUP2 PUSH1 0x8 ADD SSTORE PUSH2 0x120 DUP3 ADD MLOAD DUP2 PUSH1 0x9 ADD SSTORE PUSH2 0x140 DUP3 ADD MLOAD DUP2 PUSH1 0xA ADD SSTORE PUSH2 0x160 DUP3 ADD MLOAD DUP2 PUSH1 0xB ADD SSTORE POP POP DUP1 DUP1 PUSH3 0x38D SWAP1 PUSH3 0x4E8 JUMP JUMPDEST SWAP2 POP POP PUSH3 0x241 JUMP JUMPDEST POP POP PUSH3 0x5EC JUMP JUMPDEST DUP3 DUP1 SLOAD PUSH3 0x3AC SWAP1 PUSH3 0x4B2 JUMP JUMPDEST SWAP1 PUSH1 0x0 MSTORE PUSH1 0x20 PUSH1 0x0 KECCAK256 SWAP1 PUSH1 0x1F ADD PUSH1 0x20 SWAP1 DIV DUP2 ADD SWAP3 DUP3 PUSH3 0x3D0 JUMPI PUSH1 0x0 DUP6 SSTORE PUSH3 0x41C JUMP JUMPDEST DUP3 PUSH1 0x1F LT PUSH3 0x3EB JUMPI DUP1 MLOAD PUSH1 0xFF NOT AND DUP4 DUP1 ADD OR DUP6 SSTORE PUSH3 0x41C JUMP JUMPDEST DUP3 DUP1 ADD PUSH1 0x1 ADD DUP6 SSTORE DUP3 ISZERO PUSH3 0x41C JUMPI SWAP2 DUP3 ADD JUMPDEST DUP3 DUP2 GT ISZERO PUSH3 0x41B JUMPI DUP3 MLOAD DUP3 SSTORE SWAP2 PUSH1 0x20 ADD SWAP2 SWAP1 PUSH1 0x1 ADD SWAP1 PUSH3 0x3FE JUMP JUMPDEST JUMPDEST POP SWAP1 POP PUSH3 0x42B SWAP2 SWAP1 PUSH3 0x42F JUMP JUMPDEST POP SWAP1 JUMP JUMPDEST JUMPDEST DUP1 DUP3 GT ISZERO PUSH3 0x44A JUMPI PUSH1 0x0 DUP2 PUSH1 0x0 SWAP1 SSTORE POP PUSH1 0x1 ADD PUSH3 0x430 JUMP JUMPDEST POP SWAP1 JUMP JUMPDEST PUSH1 0x0 PUSH3 0x45D PUSH1 0x15 DUP4 PUSH3 0x497 JUMP JUMPDEST SWAP2 POP PUSH3 0x46A DUP3 PUSH3 0x5C3 JUMP JUMPDEST PUSH1 0x20 DUP3 ADD SWAP1 POP SWAP2 SWAP1 POP JUMP JUMPDEST PUSH1 0x0 PUSH1 0x20 DUP3 ADD SWAP1 POP DUP2 DUP2 SUB PUSH1 0x0 DUP4 ADD MSTORE PUSH3 0x490 DUP2 PUSH3 0x44E JUMP JUMPDEST SWAP1 POP SWAP2 SWAP1 POP JUMP JUMPDEST PUSH1 0x0 DUP3 DUP3 MSTORE PUSH1 0x20 DUP3 ADD SWAP1 POP SWAP3 SWAP2 POP POP JUMP JUMPDEST PUSH1 0x0 DUP2 SWAP1 POP SWAP2 SWAP1 POP JUMP JUMPDEST PUSH1 0x0 PUSH1 0x2 DUP3 DIV SWAP1 POP PUSH1 0x1 DUP3 AND DUP1 PUSH3 0x4CB JUMPI PUSH1 0x7F DUP3 AND SWAP2 POP JUMPDEST PUSH1 0x20 DUP3 LT DUP2 EQ ISZERO PUSH3 0x4E2 JUMPI PUSH3 0x4E1 PUSH3 0x565 JUMP JUMPDEST JUMPDEST POP SWAP2 SWAP1 POP JUMP JUMPDEST PUSH1 0x0 PUSH3 0x4F5 DUP3 PUSH3 0x4A8 JUMP JUMPDEST SWAP2 POP PUSH32 0xFFFFFFFFFFFFFFFFFFFFFFFFFFFFFFFFFFFFFFFFFFFFFFFFFFFFFFFFFFFFFFFF DUP3 EQ ISZERO PUSH3 0x52B JUMPI PUSH3 0x52A PUSH3 0x536 JUMP JUMPDEST JUMPDEST PUSH1 0x1 DUP3 ADD SWAP1 POP SWAP2 SWAP1 POP JUMP JUMPDEST PUSH32 0x4E487B7100000000000000000000000000000000000000000000000000000000 PUSH1 0x0 MSTORE PUSH1 0x11 PUSH1 0x4 MSTORE PUSH1 0x24 PUSH1 0x0 REVERT JUMPDEST PUSH32 0x4E487B7100000000000000000000000000000000000000000000000000000000 PUSH1 0x0 MSTORE PUSH1 0x22 PUSH1 0x4 MSTORE PUSH1 0x24 PUSH1 0x0 REVERT JUMPDEST PUSH32 0x4E487B7100000000000000000000000000000000000000000000000000000000 PUSH1 0x0 MSTORE PUSH1 0x32 PUSH1 0x4 MSTORE PUSH1 0x24 PUSH1 0x0 REVERT JUMPDEST PUSH32 0x43616E64696461746573206D75737420626520352E0000000000000000000000 PUSH1 0x0 DUP3 ADD MSTORE POP JUMP JUMPDEST PUSH2 0xF9C DUP1 PUSH3 0x5FC PUSH1 0x0 CODECOPY PUSH1 0x0 RETURN INVALID PUSH1 0x80 PUSH1 0x40 MSTORE CALLVALUE DUP1 ISZERO PUSH2 0x10 JUMPI PUSH1 0x0 DUP1 REVERT JUMPDEST POP PUSH1 0x4 CALLDATASIZE LT PUSH2 0x36 JUMPI PUSH1 0x0 CALLDATALOAD PUSH1 0xE0 SHR DUP1 PUSH4 0x632A9A52 EQ PUSH2 0x3B JUMPI DUP1 PUSH4 0xD4E8FD2E EQ PUSH2 0x45 JUMPI JUMPDEST PUSH1 0x0 DUP1 REVERT JUMPDEST PUSH2 0x43 PUSH2 0x75 JUMP JUMPDEST STOP JUMPDEST PUSH2 0x5F PUSH1 0x4 DUP1 CALLDATASIZE SUB DUP2 ADD SWAP1 PUSH2 0x5A SWAP2 SWAP1 PUSH2 0x905 JUMP JUMPDEST PUSH2 0x6B4 JUMP JUMPDEST PUSH1 0x40 MLOAD PUSH2 0x6C SWAP2 SWAP1 PUSH2 0xBB2 JUMP JUMPDEST PUSH1 0x40 MLOAD DUP1 SWAP2 SUB SWAP1 RETURN JUMPDEST PUSH1 0x1 PUSH1 0x0 CALLER PUSH20 0xFFFFFFFFFFFFFFFFFFFFFFFFFFFFFFFFFFFFFFFF AND PUSH20 0xFFFFFFFFFFFFFFFFFFFFFFFFFFFFFFFFFFFFFFFF AND DUP2 MSTORE PUSH1 0x20 ADD SWAP1 DUP2 MSTORE PUSH1 0x20 ADD PUSH1 0x0 KECCAK256 PUSH1 0x1 ADD PUSH1 0x0 SWAP1 SLOAD SWAP1 PUSH2 0x100 EXP SWAP1 DIV PUSH1 0xFF AND ISZERO PUSH2 0x105 JUMPI PUSH1 0x40 MLOAD PUSH32 0x8C379A000000000000000000000000000000000000000000000000000000000 DUP2 MSTORE PUSH1 0x4 ADD PUSH2 0xFC SWAP1 PUSH2 0xB72 JUMP JUMPDEST PUSH1 0x40 MLOAD DUP1 SWAP2 SUB SWAP1 REVERT JUMPDEST PUSH1 0x0 PUSH1 0x1 PUSH1 0x0 CALLER PUSH20 0xFFFFFFFFFFFFFFFFFFFFFFFFFFFFFFFFFFFFFFFF AND PUSH20 0xFFFFFFFFFFFFFFFFFFFFFFFFFFFFFFFFFFFFFFFF AND DUP2 MSTORE PUSH1 0x20 ADD SWAP1 DUP2 MSTORE PUSH1 0x20 ADD PUSH1 0x0 KECCAK256 PUSH1 0x0 ADD SLOAD EQ PUSH2 0x154 JUMPI PUSH1 0x0 DUP1 REVERT JUMPDEST PUSH1 0x1 DUP1 PUSH1 0x0 CALLER PUSH20 0xFFFFFFFFFFFFFFFFFFFFFFFFFFFFFFFFFFFFFFFF AND PUSH20 0xFFFFFFFFFFFFFFFFFFFFFFFFFFFFFFFFFFFFFFFF AND DUP2 MSTORE PUSH1 0x20 ADD SWAP1 DUP2 MSTORE PUSH1 0x20 ADD PUSH1 0x0 KECCAK256 PUSH1 0x0 ADD DUP2 SWAP1 SSTORE POP PUSH1 0x64 PUSH1 0x3 SLOAD SGT ISZERO PUSH2 0x1E1 JUMPI PUSH1 0x40 MLOAD PUSH32 0x8C379A000000000000000000000000000000000000000000000000000000000 DUP2 MSTORE PUSH1 0x4 ADD PUSH2 0x1D8 SWAP1 PUSH2 0xB92 JUMP JUMPDEST PUSH1 0x40 MLOAD DUP1 SWAP2 SUB SWAP1 REVERT JUMPDEST PUSH2 0x1E9 PUSH2 0x7F1 JUMP JUMPDEST PUSH1 0x1 PUSH1 0x0 CALLER PUSH20 0xFFFFFFFFFFFFFFFFFFFFFFFFFFFFFFFFFFFFFFFF AND PUSH20 0xFFFFFFFFFFFFFFFFFFFFFFFFFFFFFFFFFFFFFFFF AND DUP2 MSTORE PUSH1 0x20 ADD SWAP1 DUP2 MSTORE PUSH1 0x20 ADD PUSH1 0x0 KECCAK256 PUSH1 0x2 ADD DUP2 SWAP1 SSTORE POP PUSH1 0x0 PUSH1 0x1 PUSH1 0x0 CALLER PUSH20 0xFFFFFFFFFFFFFFFFFFFFFFFFFFFFFFFFFFFFFFFF AND PUSH20 0xFFFFFFFFFFFFFFFFFFFFFFFFFFFFFFFFFFFFFFFF AND DUP2 MSTORE PUSH1 0x20 ADD SWAP1 DUP2 MSTORE PUSH1 0x20 ADD PUSH1 0x0 KECCAK256 SWAP1 POP DUP1 PUSH1 0x1 ADD PUSH1 0x0 SWAP1 SLOAD SWAP1 PUSH2 0x100 EXP SWAP1 DIV PUSH1 0xFF AND ISZERO PUSH2 0x2C4 JUMPI PUSH1 0x40 MLOAD PUSH32 0x8C379A000000000000000000000000000000000000000000000000000000000 DUP2 MSTORE PUSH1 0x4 ADD PUSH2 0x2BB SWAP1 PUSH2 0xB52 JUMP JUMPDEST PUSH1 0x40 MLOAD DUP1 SWAP2 SUB SWAP1 REVERT JUMPDEST PUSH1 0x1 DUP2 PUSH1 0x1 ADD PUSH1 0x0 PUSH2 0x100 EXP DUP2 SLOAD DUP2 PUSH1 0xFF MUL NOT AND SWAP1 DUP4 ISZERO ISZERO MUL OR SWAP1 SSTORE POP PUSH2 0x2E9 PUSH2 0x832 JUMP JUMPDEST DUP2 PUSH1 0x3 ADD DUP2 SWAP1 SSTORE POP PUSH2 0x2F9 PUSH2 0x873 JUMP JUMPDEST DUP1 PUSH1 0x0 ADD SLOAD PUSH1 0x2 PUSH2 0x308 PUSH2 0x832 JUMP JUMPDEST DUP2 SLOAD DUP2 LT PUSH2 0x319 JUMPI PUSH2 0x318 PUSH2 0xE82 JUMP JUMPDEST JUMPDEST SWAP1 PUSH1 0x0 MSTORE PUSH1 0x20 PUSH1 0x0 KECCAK256 SWAP1 PUSH1 0xC MUL ADD PUSH1 0x1 ADD PUSH1 0x0 DUP3 DUP3 SLOAD PUSH2 0x339 SWAP2 SWAP1 PUSH2 0xC95 JUMP JUMPDEST SWAP3 POP POP DUP2 SWAP1 SSTORE POP PUSH1 0x0 DUP2 PUSH1 0x2 ADD SLOAD EQ ISZERO PUSH2 0x399 JUMPI DUP1 PUSH1 0x0 ADD SLOAD PUSH1 0x2 PUSH2 0x35C PUSH2 0x832 JUMP JUMPDEST DUP2 SLOAD DUP2 LT PUSH2 0x36D JUMPI PUSH2 0x36C PUSH2 0xE82 JUMP JUMPDEST JUMPDEST SWAP1 PUSH1 0x0 MSTORE PUSH1 0x20 PUSH1 0x0 KECCAK256 SWAP1 PUSH1 0xC MUL ADD PUSH1 0x2 ADD PUSH1 0x0 DUP3 DUP3 SLOAD PUSH2 0x38D SWAP2 SWAP1 PUSH2 0xC95 JUMP JUMPDEST SWAP3 POP POP DUP2 SWAP1 SSTORE POP PUSH2 0x6B1 JUMP JUMPDEST PUSH1 0x1 DUP2 PUSH1 0x2 ADD SLOAD EQ ISZERO PUSH2 0x3F2 JUMPI DUP1 PUSH1 0x0 ADD SLOAD PUSH1 0x2 PUSH2 0x3B5 PUSH2 0x832 JUMP JUMPDEST DUP2 SLOAD DUP2 LT PUSH2 0x3C6 JUMPI PUSH2 0x3C5 PUSH2 0xE82 JUMP JUMPDEST JUMPDEST SWAP1 PUSH1 0x0 MSTORE PUSH1 0x20 PUSH1 0x0 KECCAK256 SWAP1 PUSH1 0xC MUL ADD PUSH1 0x3 ADD PUSH1 0x0 DUP3 DUP3 SLOAD PUSH2 0x3E6 SWAP2 SWAP1 PUSH2 0xC95 JUMP JUMPDEST SWAP3 POP POP DUP2 SWAP1 SSTORE POP PUSH2 0x6B0 JUMP JUMPDEST PUSH1 0x2 DUP2 PUSH1 0x2 ADD SLOAD EQ ISZERO PUSH2 0x44B JUMPI DUP1 PUSH1 0x0 ADD SLOAD PUSH1 0x2 PUSH2 0x40E PUSH2 0x832 JUMP JUMPDEST DUP2 SLOAD DUP2 LT PUSH2 0x41F JUMPI PUSH2 0x41E PUSH2 0xE82 JUMP JUMPDEST JUMPDEST SWAP1 PUSH1 0x0 MSTORE PUSH1 0x20 PUSH1 0x0 KECCAK256 SWAP1 PUSH1 0xC MUL ADD PUSH1 0x4 ADD PUSH1 0x0 DUP3 DUP3 SLOAD PUSH2 0x43F SWAP2 SWAP1 PUSH2 0xC95 JUMP JUMPDEST SWAP3 POP POP DUP2 SWAP1 SSTORE POP PUSH2 0x6AF JUMP JUMPDEST PUSH1 0x3 DUP2 PUSH1 0x2 ADD SLOAD EQ ISZERO PUSH2 0x4A4 JUMPI DUP1 PUSH1 0x0 ADD SLOAD PUSH1 0x2 PUSH2 0x467 PUSH2 0x832 JUMP JUMPDEST DUP2 SLOAD DUP2 LT PUSH2 0x478 JUMPI PUSH2 0x477 PUSH2 0xE82 JUMP JUMPDEST JUMPDEST SWAP1 PUSH1 0x0 MSTORE PUSH1 0x20 PUSH1 0x0 KECCAK256 SWAP1 PUSH1 0xC MUL ADD PUSH1 0x5 ADD PUSH1 0x0 DUP3 DUP3 SLOAD PUSH2 0x498 SWAP2 SWAP1 PUSH2 0xC95 JUMP JUMPDEST SWAP3 POP POP DUP2 SWAP1 SSTORE POP PUSH2 0x6AE JUMP JUMPDEST PUSH1 0x4 DUP2 PUSH1 0x2 ADD SLOAD EQ ISZERO PUSH2 0x4FD JUMPI DUP1 PUSH1 0x0 ADD SLOAD PUSH1 0x2 PUSH2 0x4C0 PUSH2 0x832 JUMP JUMPDEST DUP2 SLOAD DUP2 LT PUSH2 0x4D1 JUMPI PUSH2 0x4D0 PUSH2 0xE82 JUMP JUMPDEST JUMPDEST SWAP1 PUSH1 0x0 MSTORE PUSH1 0x20 PUSH1 0x0 KECCAK256 SWAP1 PUSH1 0xC MUL ADD PUSH1 0x6 ADD PUSH1 0x0 DUP3 DUP3 SLOAD PUSH2 0x4F1 SWAP2 SWAP1 PUSH2 0xC95 JUMP JUMPDEST SWAP3 POP POP DUP2 SWAP1 SSTORE POP PUSH2 0x6AD JUMP JUMPDEST PUSH1 0x5 DUP2 PUSH1 0x2 ADD SLOAD EQ ISZERO PUSH2 0x556 JUMPI DUP1 PUSH1 0x0 ADD SLOAD PUSH1 0x2 PUSH2 0x519 PUSH2 0x832 JUMP JUMPDEST DUP2 SLOAD DUP2 LT PUSH2 0x52A JUMPI PUSH2 0x529 PUSH2 0xE82 JUMP JUMPDEST JUMPDEST SWAP1 PUSH1 0x0 MSTORE PUSH1 0x20 PUSH1 0x0 KECCAK256 SWAP1 PUSH1 0xC MUL ADD PUSH1 0x7 ADD PUSH1 0x0 DUP3 DUP3 SLOAD PUSH2 0x54A SWAP2 SWAP1 PUSH2 0xC95 JUMP JUMPDEST SWAP3 POP POP DUP2 SWAP1 SSTORE POP PUSH2 0x6AC JUMP JUMPDEST PUSH1 0x6 DUP2 PUSH1 0x2 ADD SLOAD EQ ISZERO PUSH2 0x5AF JUMPI DUP1 PUSH1 0x0 ADD SLOAD PUSH1 0x2 PUSH2 0x572 PUSH2 0x832 JUMP JUMPDEST DUP2 SLOAD DUP2 LT PUSH2 0x583 JUMPI PUSH2 0x582 PUSH2 0xE82 JUMP JUMPDEST JUMPDEST SWAP1 PUSH1 0x0 MSTORE PUSH1 0x20 PUSH1 0x0 KECCAK256 SWAP1 PUSH1 0xC MUL ADD PUSH1 0x8 ADD PUSH1 0x0 DUP3 DUP3 SLOAD PUSH2 0x5A3 SWAP2 SWAP1 PUSH2 0xC95 JUMP JUMPDEST SWAP3 POP POP DUP2 SWAP1 SSTORE POP PUSH2 0x6AB JUMP JUMPDEST PUSH1 0x7 DUP2 PUSH1 0x2 ADD SLOAD EQ ISZERO PUSH2 0x608 JUMPI DUP1 PUSH1 0x0 ADD SLOAD PUSH1 0x2 PUSH2 0x5CB PUSH2 0x832 JUMP JUMPDEST DUP2 SLOAD DUP2 LT PUSH2 0x5DC JUMPI PUSH2 0x5DB PUSH2 0xE82 JUMP JUMPDEST JUMPDEST SWAP1 PUSH1 0x0 MSTORE PUSH1 0x20 PUSH1 0x0 KECCAK256 SWAP1 PUSH1 0xC MUL ADD PUSH1 0x9 ADD PUSH1 0x0 DUP3 DUP3 SLOAD PUSH2 0x5FC SWAP2 SWAP1 PUSH2 0xC95 JUMP JUMPDEST SWAP3 POP POP DUP2 SWAP1 SSTORE POP PUSH2 0x6AA JUMP JUMPDEST PUSH1 0x8 DUP2 PUSH1 0x2 ADD SLOAD EQ ISZERO PUSH2 0x661 JUMPI DUP1 PUSH1 0x0 ADD SLOAD PUSH1 0x2 PUSH2 0x624 PUSH2 0x832 JUMP JUMPDEST DUP2 SLOAD DUP2 LT PUSH2 0x635 JUMPI PUSH2 0x634 PUSH2 0xE82 JUMP JUMPDEST JUMPDEST SWAP1 PUSH1 0x0 MSTORE PUSH1 0x20 PUSH1 0x0 KECCAK256 SWAP1 PUSH1 0xC MUL ADD PUSH1 0xA ADD PUSH1 0x0 DUP3 DUP3 SLOAD PUSH2 0x655 SWAP2 SWAP1 PUSH2 0xC95 JUMP JUMPDEST SWAP3 POP POP DUP2 SWAP1 SSTORE POP PUSH2 0x6A9 JUMP JUMPDEST DUP1 PUSH1 0x0 ADD SLOAD PUSH1 0x2 PUSH2 0x670 PUSH2 0x832 JUMP JUMPDEST DUP2 SLOAD DUP2 LT PUSH2 0x681 JUMPI PUSH2 0x680 PUSH2 0xE82 JUMP JUMPDEST JUMPDEST SWAP1 PUSH1 0x0 MSTORE PUSH1 0x20 PUSH1 0x0 KECCAK256 SWAP1 PUSH1 0xC MUL ADD PUSH1 0xB ADD PUSH1 0x0 DUP3 DUP3 SLOAD PUSH2 0x6A1 SWAP2 SWAP1 PUSH2 0xC95 JUMP JUMPDEST SWAP3 POP POP DUP2 SWAP1 SSTORE POP JUMPDEST JUMPDEST JUMPDEST JUMPDEST JUMPDEST JUMPDEST JUMPDEST JUMPDEST JUMPDEST POP JUMP JUMPDEST PUSH2 0x6BC PUSH2 0x88F JUMP JUMPDEST PUSH1 0x2 DUP3 DUP2 SLOAD DUP2 LT PUSH2 0x6D0 JUMPI PUSH2 0x6CF PUSH2 0xE82 JUMP JUMPDEST JUMPDEST SWAP1 PUSH1 0x0 MSTORE PUSH1 0x20 PUSH1 0x0 KECCAK256 SWAP1 PUSH1 0xC MUL ADD PUSH1 0x40 MLOAD DUP1 PUSH2 0x180 ADD PUSH1 0x40 MSTORE SWAP1 DUP2 PUSH1 0x0 DUP3 ADD DUP1 SLOAD PUSH2 0x6FA SWAP1 PUSH2 0xD64 JUMP JUMPDEST DUP1 PUSH1 0x1F ADD PUSH1 0x20 DUP1 SWAP2 DIV MUL PUSH1 0x20 ADD PUSH1 0x40 MLOAD SWAP1 DUP2 ADD PUSH1 0x40 MSTORE DUP1 SWAP3 SWAP2 SWAP1 DUP2 DUP2 MSTORE PUSH1 0x20 ADD DUP3 DUP1 SLOAD PUSH2 0x726 SWAP1 PUSH2 0xD64 JUMP JUMPDEST DUP1 ISZERO PUSH2 0x773 JUMPI DUP1 PUSH1 0x1F LT PUSH2 0x748 JUMPI PUSH2 0x100 DUP1 DUP4 SLOAD DIV MUL DUP4 MSTORE SWAP2 PUSH1 0x20 ADD SWAP2 PUSH2 0x773 JUMP JUMPDEST DUP3 ADD SWAP2 SWAP1 PUSH1 0x0 MSTORE PUSH1 0x20 PUSH1 0x0 KECCAK256 SWAP1 JUMPDEST DUP2 SLOAD DUP2 MSTORE SWAP1 PUSH1 0x1 ADD SWAP1 PUSH1 0x20 ADD DUP1 DUP4 GT PUSH2 0x756 JUMPI DUP3 SWAP1 SUB PUSH1 0x1F AND DUP3 ADD SWAP2 JUMPDEST POP POP POP POP POP DUP2 MSTORE PUSH1 0x20 ADD PUSH1 0x1 DUP3 ADD SLOAD DUP2 MSTORE PUSH1 0x20 ADD PUSH1 0x2 DUP3 ADD SLOAD DUP2 MSTORE PUSH1 0x20 ADD PUSH1 0x3 DUP3 ADD SLOAD DUP2 MSTORE PUSH1 0x20 ADD PUSH1 0x4 DUP3 ADD SLOAD DUP2 MSTORE PUSH1 0x20 ADD PUSH1 0x5 DUP3 ADD SLOAD DUP2 MSTORE PUSH1 0x20 ADD PUSH1 0x6 DUP3 ADD SLOAD DUP2 MSTORE PUSH1 0x20 ADD PUSH1 0x7 DUP3 ADD SLOAD DUP2 MSTORE PUSH1 0x20 ADD PUSH1 0x8 DUP3 ADD SLOAD DUP2 MSTORE PUSH1 0x20 ADD PUSH1 0x9 DUP3 ADD SLOAD DUP2 MSTORE PUSH1 0x20 ADD PUSH1 0xA DUP3 ADD SLOAD DUP2 MSTORE PUSH1 0x20 ADD PUSH1 0xB DUP3 ADD SLOAD DUP2 MSTORE POP POP SWAP1 POP SWAP2 SWAP1 POP JUMP JUMPDEST PUSH1 0x0 PUSH1 0xA TIMESTAMP DIFFICULTY CALLER PUSH1 0x40 MLOAD PUSH1 0x20 ADD PUSH2 0x80A SWAP4 SWAP3 SWAP2 SWAP1 PUSH2 0xB15 JUMP JUMPDEST PUSH1 0x40 MLOAD PUSH1 0x20 DUP2 DUP4 SUB SUB DUP2 MSTORE SWAP1 PUSH1 0x40 MSTORE DUP1 MLOAD SWAP1 PUSH1 0x20 ADD KECCAK256 PUSH1 0x0 SHR PUSH2 0x82D SWAP2 SWAP1 PUSH2 0xDC4 JUMP JUMPDEST SWAP1 POP SWAP1 JUMP JUMPDEST PUSH1 0x0 PUSH1 0x5 TIMESTAMP DIFFICULTY CALLER PUSH1 0x40 MLOAD PUSH1 0x20 ADD PUSH2 0x84B SWAP4 SWAP3 SWAP2 SWAP1 PUSH2 0xB15 JUMP JUMPDEST PUSH1 0x40 MLOAD PUSH1 0x20 DUP2 DUP4 SUB SUB DUP2 MSTORE SWAP1 PUSH1 0x40 MSTORE DUP1 MLOAD SWAP1 PUSH1 0x20 ADD KECCAK256 PUSH1 0x0 SHR PUSH2 0x86E SWAP2 SWAP1 PUSH2 0xDC4 JUMP JUMPDEST SWAP1 POP SWAP1 JUMP JUMPDEST PUSH1 0x1 PUSH1 0x3 PUSH1 0x0 DUP3 DUP3 SLOAD PUSH2 0x886 SWAP2 SWAP1 PUSH2 0xC01 JUMP JUMPDEST SWAP3 POP POP DUP2 SWAP1 SSTORE POP JUMP JUMPDEST PUSH1 0x40 MLOAD DUP1 PUSH2 0x180 ADD PUSH1 0x40 MSTORE DUP1 PUSH1 0x60 DUP2 MSTORE PUSH1 0x20 ADD PUSH1 0x0 DUP2 MSTORE PUSH1 0x20 ADD PUSH1 0x0 DUP2 MSTORE PUSH1 0x20 ADD PUSH1 0x0 DUP2 MSTORE PUSH1 0x20 ADD PUSH1 0x0 DUP2 MSTORE PUSH1 0x20 ADD PUSH1 0x0 DUP2 MSTORE PUSH1 0x20 ADD PUSH1 0x0 DUP2 MSTORE PUSH1 0x20 ADD PUSH1 0x0 DUP2 MSTORE PUSH1 0x20 ADD PUSH1 0x0 DUP2 MSTORE PUSH1 0x20 ADD PUSH1 0x0 DUP2 MSTORE PUSH1 0x20 ADD PUSH1 0x0 DUP2 MSTORE PUSH1 0x20 ADD PUSH1 0x0 DUP2 MSTORE POP SWAP1 JUMP JUMPDEST PUSH1 0x0 DUP2 CALLDATALOAD SWAP1 POP PUSH2 0x8FF DUP2 PUSH2 0xF4F JUMP JUMPDEST SWAP3 SWAP2 POP POP JUMP JUMPDEST PUSH1 0x0 PUSH1 0x20 DUP3 DUP5 SUB SLT ISZERO PUSH2 0x91B JUMPI PUSH2 0x91A PUSH2 0xEB1 JUMP JUMPDEST JUMPDEST PUSH1 0x0 PUSH2 0x929 DUP5 DUP3 DUP6 ADD PUSH2 0x8F0 JUMP JUMPDEST SWAP2 POP POP SWAP3 SWAP2 POP POP JUMP JUMPDEST PUSH2 0x943 PUSH2 0x93E DUP3 PUSH2 0xCEB JUMP JUMPDEST PUSH2 0xD96 JUMP JUMPDEST DUP3 MSTORE POP POP JUMP JUMPDEST PUSH1 0x0 PUSH2 0x954 DUP3 PUSH2 0xBD4 JUMP JUMPDEST PUSH2 0x95E DUP2 DUP6 PUSH2 0xBDF JUMP JUMPDEST SWAP4 POP PUSH2 0x96E DUP2 DUP6 PUSH1 0x20 DUP7 ADD PUSH2 0xD31 JUMP JUMPDEST PUSH2 0x977 DUP2 PUSH2 0xEB6 JUMP JUMPDEST DUP5 ADD SWAP2 POP POP SWAP3 SWAP2 POP POP JUMP JUMPDEST PUSH1 0x0 PUSH2 0x98F PUSH1 0xE DUP4 PUSH2 0xBF0 JUMP JUMPDEST SWAP2 POP PUSH2 0x99A DUP3 PUSH2 0xED4 JUMP JUMPDEST PUSH1 0x20 DUP3 ADD SWAP1 POP SWAP2 SWAP1 POP JUMP JUMPDEST PUSH1 0x0 PUSH2 0x9B2 PUSH1 0x18 DUP4 PUSH2 0xBF0 JUMP JUMPDEST SWAP2 POP PUSH2 0x9BD DUP3 PUSH2 0xEFD JUMP JUMPDEST PUSH1 0x20 DUP3 ADD SWAP1 POP SWAP2 SWAP1 POP JUMP JUMPDEST PUSH1 0x0 PUSH2 0x9D5 PUSH1 0x13 DUP4 PUSH2 0xBF0 JUMP JUMPDEST SWAP2 POP PUSH2 0x9E0 DUP3 PUSH2 0xF26 JUMP JUMPDEST PUSH1 0x20 DUP3 ADD SWAP1 POP SWAP2 SWAP1 POP JUMP JUMPDEST PUSH1 0x0 PUSH2 0x180 DUP4 ADD PUSH1 0x0 DUP4 ADD MLOAD DUP5 DUP3 SUB PUSH1 0x0 DUP7 ADD MSTORE PUSH2 0xA09 DUP3 DUP3 PUSH2 0x949 JUMP JUMPDEST SWAP2 POP POP PUSH1 0x20 DUP4 ADD MLOAD PUSH2 0xA1E PUSH1 0x20 DUP7 ADD DUP3 PUSH2 0xAEF JUMP JUMPDEST POP PUSH1 0x40 DUP4 ADD MLOAD PUSH2 0xA31 PUSH1 0x40 DUP7 ADD DUP3 PUSH2 0xAEF JUMP JUMPDEST POP PUSH1 0x60 DUP4 ADD MLOAD PUSH2 0xA44 PUSH1 0x60 DUP7 ADD DUP3 PUSH2 0xAEF JUMP JUMPDEST POP PUSH1 0x80 DUP4 ADD MLOAD PUSH2 0xA57 PUSH1 0x80 DUP7 ADD DUP3 PUSH2 0xAEF JUMP JUMPDEST POP PUSH1 0xA0 DUP4 ADD MLOAD PUSH2 0xA6A PUSH1 0xA0 DUP7 ADD DUP3 PUSH2 0xAEF JUMP JUMPDEST POP PUSH1 0xC0 DUP4 ADD MLOAD PUSH2 0xA7D PUSH1 0xC0 DUP7 ADD DUP3 PUSH2 0xAEF JUMP JUMPDEST POP PUSH1 0xE0 DUP4 ADD MLOAD PUSH2 0xA90 PUSH1 0xE0 DUP7 ADD DUP3 PUSH2 0xAEF JUMP JUMPDEST POP PUSH2 0x100 DUP4 ADD MLOAD PUSH2 0xAA5 PUSH2 0x100 DUP7 ADD DUP3 PUSH2 0xAEF JUMP JUMPDEST POP PUSH2 0x120 DUP4 ADD MLOAD PUSH2 0xABA PUSH2 0x120 DUP7 ADD DUP3 PUSH2 0xAEF JUMP JUMPDEST POP PUSH2 0x140 DUP4 ADD MLOAD PUSH2 0xACF PUSH2 0x140 DUP7 ADD DUP3 PUSH2 0xAEF JUMP JUMPDEST POP PUSH2 0x160 DUP4 ADD MLOAD PUSH2 0xAE4 PUSH2 0x160 DUP7 ADD DUP3 PUSH2 0xAEF JUMP JUMPDEST POP DUP1 SWAP2 POP POP SWAP3 SWAP2 POP POP JUMP JUMPDEST PUSH2 0xAF8 DUP2 PUSH2 0xD27 JUMP JUMPDEST DUP3 MSTORE POP POP JUMP JUMPDEST PUSH2 0xB0F PUSH2 0xB0A DUP3 PUSH2 0xD27 JUMP JUMPDEST PUSH2 0xDBA JUMP JUMPDEST DUP3 MSTORE POP POP JUMP JUMPDEST PUSH1 0x0 PUSH2 0xB21 DUP3 DUP7 PUSH2 0xAFE JUMP JUMPDEST PUSH1 0x20 DUP3 ADD SWAP2 POP PUSH2 0xB31 DUP3 DUP6 PUSH2 0xAFE JUMP JUMPDEST PUSH1 0x20 DUP3 ADD SWAP2 POP PUSH2 0xB41 DUP3 DUP5 PUSH2 0x932 JUMP JUMPDEST PUSH1 0x14 DUP3 ADD SWAP2 POP DUP2 SWAP1 POP SWAP5 SWAP4 POP POP POP POP JUMP JUMPDEST PUSH1 0x0 PUSH1 0x20 DUP3 ADD SWAP1 POP DUP2 DUP2 SUB PUSH1 0x0 DUP4 ADD MSTORE PUSH2 0xB6B DUP2 PUSH2 0x982 JUMP JUMPDEST SWAP1 POP SWAP2 SWAP1 POP JUMP JUMPDEST PUSH1 0x0 PUSH1 0x20 DUP3 ADD SWAP1 POP DUP2 DUP2 SUB PUSH1 0x0 DUP4 ADD MSTORE PUSH2 0xB8B DUP2 PUSH2 0x9A5 JUMP JUMPDEST SWAP1 POP SWAP2 SWAP1 POP JUMP JUMPDEST PUSH1 0x0 PUSH1 0x20 DUP3 ADD SWAP1 POP DUP2 DUP2 SUB PUSH1 0x0 DUP4 ADD MSTORE PUSH2 0xBAB DUP2 PUSH2 0x9C8 JUMP JUMPDEST SWAP1 POP SWAP2 SWAP1 POP JUMP JUMPDEST PUSH1 0x0 PUSH1 0x20 DUP3 ADD SWAP1 POP DUP2 DUP2 SUB PUSH1 0x0 DUP4 ADD MSTORE PUSH2 0xBCC DUP2 DUP5 PUSH2 0x9EB JUMP JUMPDEST SWAP1 POP SWAP3 SWAP2 POP POP JUMP JUMPDEST PUSH1 0x0 DUP2 MLOAD SWAP1 POP SWAP2 SWAP1 POP JUMP JUMPDEST PUSH1 0x0 DUP3 DUP3 MSTORE PUSH1 0x20 DUP3 ADD SWAP1 POP SWAP3 SWAP2 POP POP JUMP JUMPDEST PUSH1 0x0 DUP3 DUP3 MSTORE PUSH1 0x20 DUP3 ADD SWAP1 POP SWAP3 SWAP2 POP POP JUMP JUMPDEST PUSH1 0x0 PUSH2 0xC0C DUP3 PUSH2 0xCFD JUMP JUMPDEST SWAP2 POP PUSH2 0xC17 DUP4 PUSH2 0xCFD JUMP JUMPDEST SWAP3 POP DUP2 PUSH32 0x7FFFFFFFFFFFFFFFFFFFFFFFFFFFFFFFFFFFFFFFFFFFFFFFFFFFFFFFFFFFFFFF SUB DUP4 SGT PUSH1 0x0 DUP4 SLT ISZERO AND ISZERO PUSH2 0xC52 JUMPI PUSH2 0xC51 PUSH2 0xDF5 JUMP JUMPDEST JUMPDEST DUP2 PUSH32 0x8000000000000000000000000000000000000000000000000000000000000000 SUB DUP4 SLT PUSH1 0x0 DUP4 SLT AND ISZERO PUSH2 0xC8A JUMPI PUSH2 0xC89 PUSH2 0xDF5 JUMP JUMPDEST JUMPDEST DUP3 DUP3 ADD SWAP1 POP SWAP3 SWAP2 POP POP JUMP JUMPDEST PUSH1 0x0 PUSH2 0xCA0 DUP3 PUSH2 0xD27 JUMP JUMPDEST SWAP2 POP PUSH2 0xCAB DUP4 PUSH2 0xD27 JUMP JUMPDEST SWAP3 POP DUP3 PUSH32 0xFFFFFFFFFFFFFFFFFFFFFFFFFFFFFFFFFFFFFFFFFFFFFFFFFFFFFFFFFFFFFFFF SUB DUP3 GT ISZERO PUSH2 0xCE0 JUMPI PUSH2 0xCDF PUSH2 0xDF5 JUMP JUMPDEST JUMPDEST DUP3 DUP3 ADD SWAP1 POP SWAP3 SWAP2 POP POP JUMP JUMPDEST PUSH1 0x0 PUSH2 0xCF6 DUP3 PUSH2 0xD07 JUMP JUMPDEST SWAP1 POP SWAP2 SWAP1 POP JUMP JUMPDEST PUSH1 0x0 DUP2 SWAP1 POP SWAP2 SWAP1 POP JUMP JUMPDEST PUSH1 0x0 PUSH20 0xFFFFFFFFFFFFFFFFFFFFFFFFFFFFFFFFFFFFFFFF DUP3 AND SWAP1 POP SWAP2 SWAP1 POP JUMP JUMPDEST PUSH1 0x0 DUP2 SWAP1 POP SWAP2 SWAP1 POP JUMP JUMPDEST PUSH1 0x0 JUMPDEST DUP4 DUP2 LT ISZERO PUSH2 0xD4F JUMPI DUP1 DUP3 ADD MLOAD DUP2 DUP5 ADD MSTORE PUSH1 0x20 DUP2 ADD SWAP1 POP PUSH2 0xD34 JUMP JUMPDEST DUP4 DUP2 GT ISZERO PUSH2 0xD5E JUMPI PUSH1 0x0 DUP5 DUP5 ADD MSTORE JUMPDEST POP POP POP POP JUMP JUMPDEST PUSH1 0x0 PUSH1 0x2 DUP3 DIV SWAP1 POP PUSH1 0x1 DUP3 AND DUP1 PUSH2 0xD7C JUMPI PUSH1 0x7F DUP3 AND SWAP2 POP JUMPDEST PUSH1 0x20 DUP3 LT DUP2 EQ ISZERO PUSH2 0xD90 JUMPI PUSH2 0xD8F PUSH2 0xE53 JUMP JUMPDEST JUMPDEST POP SWAP2 SWAP1 POP JUMP JUMPDEST PUSH1 0x0 PUSH2 0xDA1 DUP3 PUSH2 0xDA8 JUMP JUMPDEST SWAP1 POP SWAP2 SWAP1 POP JUMP JUMPDEST PUSH1 0x0 PUSH2 0xDB3 DUP3 PUSH2 0xEC7 JUMP JUMPDEST SWAP1 POP SWAP2 SWAP1 POP JUMP JUMPDEST PUSH1 0x0 DUP2 SWAP1 POP SWAP2 SWAP1 POP JUMP JUMPDEST PUSH1 0x0 PUSH2 0xDCF DUP3 PUSH2 0xD27 JUMP JUMPDEST SWAP2 POP PUSH2 0xDDA DUP4 PUSH2 0xD27 JUMP JUMPDEST SWAP3 POP DUP3 PUSH2 0xDEA JUMPI PUSH2 0xDE9 PUSH2 0xE24 JUMP JUMPDEST JUMPDEST DUP3 DUP3 MOD SWAP1 POP SWAP3 SWAP2 POP POP JUMP JUMPDEST PUSH32 0x4E487B7100000000000000000000000000000000000000000000000000000000 PUSH1 0x0 MSTORE PUSH1 0x11 PUSH1 0x4 MSTORE PUSH1 0x24 PUSH1 0x0 REVERT JUMPDEST PUSH32 0x4E487B7100000000000000000000000000000000000000000000000000000000 PUSH1 0x0 MSTORE PUSH1 0x12 PUSH1 0x4 MSTORE PUSH1 0x24 PUSH1 0x0 REVERT JUMPDEST PUSH32 0x4E487B7100000000000000000000000000000000000000000000000000000000 PUSH1 0x0 MSTORE PUSH1 0x22 PUSH1 0x4 MSTORE PUSH1 0x24 PUSH1 0x0 REVERT JUMPDEST PUSH32 0x4E487B7100000000000000000000000000000000000000000000000000000000 PUSH1 0x0 MSTORE PUSH1 0x32 PUSH1 0x4 MSTORE PUSH1 0x24 PUSH1 0x0 REVERT JUMPDEST PUSH1 0x0 DUP1 REVERT JUMPDEST PUSH1 0x0 PUSH1 0x1F NOT PUSH1 0x1F DUP4 ADD AND SWAP1 POP SWAP2 SWAP1 POP JUMP JUMPDEST PUSH1 0x0 DUP2 PUSH1 0x60 SHL SWAP1 POP SWAP2 SWAP1 POP JUMP JUMPDEST PUSH32 0x416C726561647920766F7465642E000000000000000000000000000000000000 PUSH1 0x0 DUP3 ADD MSTORE POP JUMP JUMPDEST PUSH32 0x54686520766F74657220616C726561647920766F7465642E0000000000000000 PUSH1 0x0 DUP3 ADD MSTORE POP JUMP JUMPDEST PUSH32 0x52656163686564206D617820766F746572732E00000000000000000000000000 PUSH1 0x0 DUP3 ADD MSTORE POP JUMP JUMPDEST PUSH2 0xF58 DUP2 PUSH2 0xD27 JUMP JUMPDEST DUP2 EQ PUSH2 0xF63 JUMPI PUSH1 0x0 DUP1 REVERT JUMPDEST POP JUMP INVALID LOG2 PUSH5 0x6970667358 0x22 SLT KECCAK256 PUSH15 0x1D6217DAF790BC4F381F0594D61213 0xC5 PUSH15 0x5C7724FF360CBDB5CEDD1675974764 PUSH20 0x6F6C634300080700330000000000000000000000 "
				},
				"gasEstimates": {
					"creation": {
						"codeDepositCost": "799200",
						"executionCost": "infinite",
						"totalCost": "infinite"
					},
					"external": {
						"res(uint256)": "infinite",
						"vote()": "infinite"
					},
					"internal": {
						"countVoters()": "infinite",
						"incrementCounter2()": "infinite",
						"random_district()": "infinite",
						"random_vote()": "infinite"
					}
				},
				"methodIdentifiers": {
					"res(uint256)": "d4e8fd2e",
					"vote()": "632a9a52"
				}
			},
			"storageLayout": {
				"storage": [
					{
						"astId": 38,
						"contract": "smartContract/contracts/3_Ballot.sol:Ballot",
						"label": "chairperson",
						"offset": 0,
						"slot": "0",
						"type": "t_address"
					},
					{
						"astId": 43,
						"contract": "smartContract/contracts/3_Ballot.sol:Ballot",
						"label": "voters",
						"offset": 0,
						"slot": "1",
						"type": "t_mapping(t_address,t_struct(Voter)11_storage)"
					},
					{
						"astId": 47,
						"contract": "smartContract/contracts/3_Ballot.sol:Ballot",
						"label": "proposals",
						"offset": 0,
						"slot": "2",
						"type": "t_array(t_struct(Proposal)36_storage)dyn_storage"
					},
					{
						"astId": 144,
						"contract": "smartContract/contracts/3_Ballot.sol:Ballot",
						"label": "countV",
						"offset": 0,
						"slot": "3",
						"type": "t_int256"
					},
					{
						"astId": 155,
						"contract": "smartContract/contracts/3_Ballot.sol:Ballot",
						"label": "count2",
						"offset": 0,
						"slot": "4",
						"type": "t_int256"
					}
				],
				"types": {
					"t_address": {
						"encoding": "inplace",
						"label": "address",
						"numberOfBytes": "20"
					},
					"t_array(t_struct(Proposal)36_storage)dyn_storage": {
						"base": "t_struct(Proposal)36_storage",
						"encoding": "dynamic_array",
						"label": "struct Ballot.Proposal[]",
						"numberOfBytes": "32"
					},
					"t_bool": {
						"encoding": "inplace",
						"label": "bool",
						"numberOfBytes": "1"
					},
					"t_int256": {
						"encoding": "inplace",
						"label": "int256",
						"numberOfBytes": "32"
					},
					"t_mapping(t_address,t_struct(Voter)11_storage)": {
						"encoding": "mapping",
						"key": "t_address",
						"label": "mapping(address => struct Ballot.Voter)",
						"numberOfBytes": "32",
						"value": "t_struct(Voter)11_storage"
					},
					"t_string_storage": {
						"encoding": "bytes",
						"label": "string",
						"numberOfBytes": "32"
					},
					"t_struct(Proposal)36_storage": {
						"encoding": "inplace",
						"label": "struct Ballot.Proposal",
						"members": [
							{
								"astId": 13,
								"contract": "smartContract/contracts/3_Ballot.sol:Ballot",
								"label": "name",
								"offset": 0,
								"slot": "0",
								"type": "t_string_storage"
							},
							{
								"astId": 15,
								"contract": "smartContract/contracts/3_Ballot.sol:Ballot",
								"label": "Total_Votes",
								"offset": 0,
								"slot": "1",
								"type": "t_uint256"
							},
							{
								"astId": 17,
								"contract": "smartContract/contracts/3_Ballot.sol:Ballot",
								"label": "Votes_District0",
								"offset": 0,
								"slot": "2",
								"type": "t_uint256"
							},
							{
								"astId": 19,
								"contract": "smartContract/contracts/3_Ballot.sol:Ballot",
								"label": "Votes_District1",
								"offset": 0,
								"slot": "3",
								"type": "t_uint256"
							},
							{
								"astId": 21,
								"contract": "smartContract/contracts/3_Ballot.sol:Ballot",
								"label": "Votes_District2",
								"offset": 0,
								"slot": "4",
								"type": "t_uint256"
							},
							{
								"astId": 23,
								"contract": "smartContract/contracts/3_Ballot.sol:Ballot",
								"label": "Votes_District3",
								"offset": 0,
								"slot": "5",
								"type": "t_uint256"
							},
							{
								"astId": 25,
								"contract": "smartContract/contracts/3_Ballot.sol:Ballot",
								"label": "Votes_District4",
								"offset": 0,
								"slot": "6",
								"type": "t_uint256"
							},
							{
								"astId": 27,
								"contract": "smartContract/contracts/3_Ballot.sol:Ballot",
								"label": "Votes_District5",
								"offset": 0,
								"slot": "7",
								"type": "t_uint256"
							},
							{
								"astId": 29,
								"contract": "smartContract/contracts/3_Ballot.sol:Ballot",
								"label": "Votes_District6",
								"offset": 0,
								"slot": "8",
								"type": "t_uint256"
							},
							{
								"astId": 31,
								"contract": "smartContract/contracts/3_Ballot.sol:Ballot",
								"label": "Votes_District7",
								"offset": 0,
								"slot": "9",
								"type": "t_uint256"
							},
							{
								"astId": 33,
								"contract": "smartContract/contracts/3_Ballot.sol:Ballot",
								"label": "Votes_District8",
								"offset": 0,
								"slot": "10",
								"type": "t_uint256"
							},
							{
								"astId": 35,
								"contract": "smartContract/contracts/3_Ballot.sol:Ballot",
								"label": "Votes_District9",
								"offset": 0,
								"slot": "11",
								"type": "t_uint256"
							}
						],
						"numberOfBytes": "384"
					},
					"t_struct(Voter)11_storage": {
						"encoding": "inplace",
						"label": "struct Ballot.Voter",
						"members": [
							{
								"astId": 4,
								"contract": "smartContract/contracts/3_Ballot.sol:Ballot",
								"label": "weight",
								"offset": 0,
								"slot": "0",
								"type": "t_uint256"
							},
							{
								"astId": 6,
								"contract": "smartContract/contracts/3_Ballot.sol:Ballot",
								"label": "voted",
								"offset": 0,
								"slot": "1",
								"type": "t_bool"
							},
							{
								"astId": 8,
								"contract": "smartContract/contracts/3_Ballot.sol:Ballot",
								"label": "district",
								"offset": 0,
								"slot": "2",
								"type": "t_uint256"
							},
							{
								"astId": 10,
								"contract": "smartContract/contracts/3_Ballot.sol:Ballot",
								"label": "vote",
								"offset": 0,
								"slot": "3",
								"type": "t_uint256"
							}
						],
						"numberOfBytes": "128"
					},
					"t_uint256": {
						"encoding": "inplace",
						"label": "uint256",
						"numberOfBytes": "32"
					}
				}
			},
			"userdoc": {
				"kind": "user",
				"methods": {},
				"version": 1
			}
		}
	}
}