{
	"smartContract/contracts/3_Ballot.sol": {
		"Ballot": {
			"abi": [
				{
					"inputs": [],
					"stateMutability": "nonpayable",
					"type": "constructor"
				},
				{
					"inputs": [],
					"name": "countV",
					"outputs": [
						{
							"internalType": "int256",
							"name": "",
							"type": "int256"
						}
					],
					"stateMutability": "view",
					"type": "function"
				},
				{
					"inputs": [],
					"name": "d0",
					"outputs": [
						{
							"internalType": "int256",
							"name": "",
							"type": "int256"
						}
					],
					"stateMutability": "view",
					"type": "function"
				},
				{
					"inputs": [],
					"name": "d1",
					"outputs": [
						{
							"internalType": "int256",
							"name": "",
							"type": "int256"
						}
					],
					"stateMutability": "view",
					"type": "function"
				},
				{
					"inputs": [],
					"name": "d2",
					"outputs": [
						{
							"internalType": "int256",
							"name": "",
							"type": "int256"
						}
					],
					"stateMutability": "view",
					"type": "function"
				},
				{
					"inputs": [],
					"name": "d3",
					"outputs": [
						{
							"internalType": "int256",
							"name": "",
							"type": "int256"
						}
					],
					"stateMutability": "view",
					"type": "function"
				},
				{
					"inputs": [],
					"name": "d4",
					"outputs": [
						{
							"internalType": "int256",
							"name": "",
							"type": "int256"
						}
					],
					"stateMutability": "view",
					"type": "function"
				},
				{
					"inputs": [],
					"name": "d5",
					"outputs": [
						{
							"internalType": "int256",
							"name": "",
							"type": "int256"
						}
					],
					"stateMutability": "view",
					"type": "function"
				},
				{
					"inputs": [],
					"name": "d6",
					"outputs": [
						{
							"internalType": "int256",
							"name": "",
							"type": "int256"
						}
					],
					"stateMutability": "view",
					"type": "function"
				},
				{
					"inputs": [],
					"name": "d7",
					"outputs": [
						{
							"internalType": "int256",
							"name": "",
							"type": "int256"
						}
					],
					"stateMutability": "view",
					"type": "function"
				},
				{
					"inputs": [],
					"name": "d8",
					"outputs": [
						{
							"internalType": "int256",
							"name": "",
							"type": "int256"
						}
					],
					"stateMutability": "view",
					"type": "function"
				},
				{
					"inputs": [],
					"name": "d9",
					"outputs": [
						{
							"internalType": "int256",
							"name": "",
							"type": "int256"
						}
					],
					"stateMutability": "view",
					"type": "function"
				},
				{
					"inputs": [
						{
							"internalType": "uint256",
							"name": "_id",
							"type": "uint256"
						}
					],
					"name": "res",
					"outputs": [
						{
							"components": [
								{
									"internalType": "string",
									"name": "name",
									"type": "string"
								},
								{
									"internalType": "uint256",
									"name": "Total_Votes",
									"type": "uint256"
								},
								{
									"internalType": "uint256",
									"name": "Votes_District0",
									"type": "uint256"
								},
								{
									"internalType": "uint256",
									"name": "Votes_District1",
									"type": "uint256"
								},
								{
									"internalType": "uint256",
									"name": "Votes_District2",
									"type": "uint256"
								},
								{
									"internalType": "uint256",
									"name": "Votes_District3",
									"type": "uint256"
								},
								{
									"internalType": "uint256",
									"name": "Votes_District4",
									"type": "uint256"
								},
								{
									"internalType": "uint256",
									"name": "Votes_District5",
									"type": "uint256"
								},
								{
									"internalType": "uint256",
									"name": "Votes_District6",
									"type": "uint256"
								},
								{
									"internalType": "uint256",
									"name": "Votes_District7",
									"type": "uint256"
								},
								{
									"internalType": "uint256",
									"name": "Votes_District8",
									"type": "uint256"
								},
								{
									"internalType": "uint256",
									"name": "Votes_District9",
									"type": "uint256"
								}
							],
							"internalType": "struct Ballot.Proposal",
							"name": "",
							"type": "tuple"
						}
					],
					"stateMutability": "view",
					"type": "function"
				},
				{
					"inputs": [],
					"name": "vote",
					"outputs": [],
					"stateMutability": "nonpayable",
					"type": "function"
				},
				{
					"inputs": [
						{
							"internalType": "address",
							"name": "",
							"type": "address"
						}
					],
					"name": "voters",
					"outputs": [
						{
							"internalType": "bool",
							"name": "voted",
							"type": "bool"
						},
						{
							"internalType": "uint256",
							"name": "district",
							"type": "uint256"
						},
						{
							"internalType": "uint256",
							"name": "vote",
							"type": "uint256"
						}
					],
					"stateMutability": "view",
					"type": "function"
				}
			],
			"devdoc": {
				"kind": "dev",
				"methods": {},
				"version": 1
			},
			"evm": {
				"assembly": "    /* \"smartContract/contracts/3_Ballot.sol\":71:4332  contract Ballot {... */\n  mstore(0x40, 0x80)\n    /* \"smartContract/contracts/3_Ballot.sol\":1720:1721  0 */\n  0x00\n    /* \"smartContract/contracts/3_Ballot.sol\":1700:1721  int public countV = 0 */\n  0x02\n  sstore\n    /* \"smartContract/contracts/3_Ballot.sol\":1871:1872  0 */\n  0x00\n    /* \"smartContract/contracts/3_Ballot.sol\":1855:1872  int public d0 = 0 */\n  0x03\n  sstore\n    /* \"smartContract/contracts/3_Ballot.sol\":1894:1895  0 */\n  0x00\n    /* \"smartContract/contracts/3_Ballot.sol\":1878:1895  int public d1 = 0 */\n  0x04\n  sstore\n    /* \"smartContract/contracts/3_Ballot.sol\":1917:1918  0 */\n  0x00\n    /* \"smartContract/contracts/3_Ballot.sol\":1901:1918  int public d2 = 0 */\n  0x05\n  sstore\n    /* \"smartContract/contracts/3_Ballot.sol\":1940:1941  0 */\n  0x00\n    /* \"smartContract/contracts/3_Ballot.sol\":1924:1941  int public d3 = 0 */\n  0x06\n  sstore\n    /* \"smartContract/contracts/3_Ballot.sol\":1963:1964  0 */\n  0x00\n    /* \"smartContract/contracts/3_Ballot.sol\":1947:1964  int public d4 = 0 */\n  0x07\n  sstore\n    /* \"smartContract/contracts/3_Ballot.sol\":1986:1987  0 */\n  0x00\n    /* \"smartContract/contracts/3_Ballot.sol\":1970:1987  int public d5 = 0 */\n  0x08\n  sstore\n    /* \"smartContract/contracts/3_Ballot.sol\":2009:2010  0 */\n  0x00\n    /* \"smartContract/contracts/3_Ballot.sol\":1993:2010  int public d6 = 0 */\n  0x09\n  sstore\n    /* \"smartContract/contracts/3_Ballot.sol\":2032:2033  0 */\n  0x00\n    /* \"smartContract/contracts/3_Ballot.sol\":2016:2033  int public d7 = 0 */\n  0x0a\n  sstore\n    /* \"smartContract/contracts/3_Ballot.sol\":2055:2056  0 */\n  0x00\n    /* \"smartContract/contracts/3_Ballot.sol\":2039:2056  int public d8 = 0 */\n  0x0b\n  sstore\n    /* \"smartContract/contracts/3_Ballot.sol\":2078:2079  0 */\n  0x00\n    /* \"smartContract/contracts/3_Ballot.sol\":2062:2079  int public d9 = 0 */\n  0x0c\n  sstore\n    /* \"smartContract/contracts/3_Ballot.sol\":953:1658  constructor() {... */\n  callvalue\n  dup1\n  iszero\n  tag_1\n  jumpi\n  0x00\n  dup1\n  revert\ntag_1:\n  pop\n    /* \"smartContract/contracts/3_Ballot.sol\":977:1007  string[5] memory proposalNames */\n  0x00\n    /* \"smartContract/contracts/3_Ballot.sol\":977:1031  string[5] memory proposalNames = [\"a\",\"b\",\"c\",\"d\",\"e\"] */\n  mload(0x40)\n  dup1\n  0xa0\n  add\n  0x40\n  mstore\n  dup1\n  mload(0x40)\n  dup1\n  0x40\n  add\n  0x40\n  mstore\n  dup1\n  0x01\n  dup2\n  mstore\n  0x20\n  add\n  0x6100000000000000000000000000000000000000000000000000000000000000\n  dup2\n  mstore\n  pop\n  dup2\n  mstore\n  0x20\n  add\n  mload(0x40)\n  dup1\n  0x40\n  add\n  0x40\n  mstore\n  dup1\n  0x01\n  dup2\n  mstore\n  0x20\n  add\n  0x6200000000000000000000000000000000000000000000000000000000000000\n  dup2\n  mstore\n  pop\n  dup2\n  mstore\n  0x20\n  add\n  mload(0x40)\n  dup1\n  0x40\n  add\n  0x40\n  mstore\n  dup1\n  0x01\n  dup2\n  mstore\n  0x20\n  add\n  0x6300000000000000000000000000000000000000000000000000000000000000\n  dup2\n  mstore\n  pop\n  dup2\n  mstore\n  0x20\n  add\n  mload(0x40)\n  dup1\n  0x40\n  add\n  0x40\n  mstore\n  dup1\n  0x01\n  dup2\n  mstore\n  0x20\n  add\n  0x6400000000000000000000000000000000000000000000000000000000000000\n  dup2\n  mstore\n  pop\n  dup2\n  mstore\n  0x20\n  add\n  mload(0x40)\n  dup1\n  0x40\n  add\n  0x40\n  mstore\n  dup1\n  0x01\n  dup2\n  mstore\n  0x20\n  add\n  0x6500000000000000000000000000000000000000000000000000000000000000\n  dup2\n  mstore\n  pop\n  dup2\n  mstore\n  pop\n  swap1\n  pop\n    /* \"smartContract/contracts/3_Ballot.sol\":1071:1072  5 */\n  0x05\n    /* \"smartContract/contracts/3_Ballot.sol\":1049:1069  proposalNames.length */\n  dup1\n    /* \"smartContract/contracts/3_Ballot.sol\":1049:1072  proposalNames.length==5 */\n  eq\n    /* \"smartContract/contracts/3_Ballot.sol\":1041:1097  require(proposalNames.length==5,\"Candidates must be 5.\") */\n  tag_4\n  jumpi\n  mload(0x40)\n  0x08c379a000000000000000000000000000000000000000000000000000000000\n  dup2\n  mstore\n  0x04\n  add\n  tag_5\n  swap1\n  tag_6\n  jump\t// in\ntag_5:\n  mload(0x40)\n  dup1\n  swap2\n  sub\n  swap1\n  revert\ntag_4:\n    /* \"smartContract/contracts/3_Ballot.sol\":1112:1118  uint i */\n  0x00\n    /* \"smartContract/contracts/3_Ballot.sol\":1107:1652  for (uint i = 0; i < proposalNames.length; i++) {... */\ntag_7:\n    /* \"smartContract/contracts/3_Ballot.sol\":1128:1148  proposalNames.length */\n  0x05\n    /* \"smartContract/contracts/3_Ballot.sol\":1124:1125  i */\n  dup2\n    /* \"smartContract/contracts/3_Ballot.sol\":1124:1148  i < proposalNames.length */\n  lt\n    /* \"smartContract/contracts/3_Ballot.sol\":1107:1652  for (uint i = 0; i < proposalNames.length; i++) {... */\n  iszero\n  tag_8\n  jumpi\n    /* \"smartContract/contracts/3_Ballot.sol\":1169:1178  proposals */\n  0x01\n    /* \"smartContract/contracts/3_Ballot.sol\":1184:1640  Proposal({... */\n  mload(0x40)\n  dup1\n  0x0180\n  add\n  0x40\n  mstore\n  dup1\n    /* \"smartContract/contracts/3_Ballot.sol\":1217:1230  proposalNames */\n  dup5\n    /* \"smartContract/contracts/3_Ballot.sol\":1231:1232  i */\n  dup5\n    /* \"smartContract/contracts/3_Ballot.sol\":1217:1233  proposalNames[i] */\n  0x05\n  dup2\n  lt\n  tag_10\n  jumpi\n  tag_11\n  tag_12\n  jump\t// in\ntag_11:\ntag_10:\n  0x20\n  mul\n  add\n  mload\n    /* \"smartContract/contracts/3_Ballot.sol\":1184:1640  Proposal({... */\n  dup2\n  mstore\n  0x20\n  add\n    /* \"smartContract/contracts/3_Ballot.sol\":1264:1265  0 */\n  0x00\n    /* \"smartContract/contracts/3_Ballot.sol\":1184:1640  Proposal({... */\n  dup2\n  mstore\n  0x20\n  add\n    /* \"smartContract/contracts/3_Ballot.sol\":1300:1301  0 */\n  0x00\n    /* \"smartContract/contracts/3_Ballot.sol\":1184:1640  Proposal({... */\n  dup2\n  mstore\n  0x20\n  add\n    /* \"smartContract/contracts/3_Ballot.sol\":1336:1337  0 */\n  0x00\n    /* \"smartContract/contracts/3_Ballot.sol\":1184:1640  Proposal({... */\n  dup2\n  mstore\n  0x20\n  add\n    /* \"smartContract/contracts/3_Ballot.sol\":1372:1373  0 */\n  0x00\n    /* \"smartContract/contracts/3_Ballot.sol\":1184:1640  Proposal({... */\n  dup2\n  mstore\n  0x20\n  add\n    /* \"smartContract/contracts/3_Ballot.sol\":1408:1409  0 */\n  0x00\n    /* \"smartContract/contracts/3_Ballot.sol\":1184:1640  Proposal({... */\n  dup2\n  mstore\n  0x20\n  add\n    /* \"smartContract/contracts/3_Ballot.sol\":1444:1445  0 */\n  0x00\n    /* \"smartContract/contracts/3_Ballot.sol\":1184:1640  Proposal({... */\n  dup2\n  mstore\n  0x20\n  add\n    /* \"smartContract/contracts/3_Ballot.sol\":1480:1481  0 */\n  0x00\n    /* \"smartContract/contracts/3_Ballot.sol\":1184:1640  Proposal({... */\n  dup2\n  mstore\n  0x20\n  add\n    /* \"smartContract/contracts/3_Ballot.sol\":1516:1517  0 */\n  0x00\n    /* \"smartContract/contracts/3_Ballot.sol\":1184:1640  Proposal({... */\n  dup2\n  mstore\n  0x20\n  add\n    /* \"smartContract/contracts/3_Ballot.sol\":1552:1553  0 */\n  0x00\n    /* \"smartContract/contracts/3_Ballot.sol\":1184:1640  Proposal({... */\n  dup2\n  mstore\n  0x20\n  add\n    /* \"smartContract/contracts/3_Ballot.sol\":1588:1589  0 */\n  0x00\n    /* \"smartContract/contracts/3_Ballot.sol\":1184:1640  Proposal({... */\n  dup2\n  mstore\n  0x20\n  add\n    /* \"smartContract/contracts/3_Ballot.sol\":1624:1625  0 */\n  0x00\n    /* \"smartContract/contracts/3_Ballot.sol\":1184:1640  Proposal({... */\n  dup2\n  mstore\n  pop\n    /* \"smartContract/contracts/3_Ballot.sol\":1169:1641  proposals.push(Proposal({... */\n  swap1\n  dup1\n  0x01\n  dup2\n  sload\n  add\n  dup1\n  dup3\n  sstore\n  dup1\n  swap2\n  pop\n  pop\n  0x01\n  swap1\n  sub\n  swap1\n  0x00\n  mstore\n  keccak256(0x00, 0x20)\n  swap1\n  0x0c\n  mul\n  add\n  0x00\n  swap1\n  swap2\n  swap1\n  swap2\n  swap1\n  swap2\n  pop\n  0x00\n  dup3\n  add\n  mload\n  dup2\n  0x00\n  add\n  swap1\n  dup1\n  mload\n  swap1\n  0x20\n  add\n  swap1\n  tag_14\n  swap3\n  swap2\n  swap1\n  tag_15\n  jump\t// in\ntag_14:\n  pop\n  0x20\n  dup3\n  add\n  mload\n  dup2\n  0x01\n  add\n  sstore\n  0x40\n  dup3\n  add\n  mload\n  dup2\n  0x02\n  add\n  sstore\n  0x60\n  dup3\n  add\n  mload\n  dup2\n  0x03\n  add\n  sstore\n  0x80\n  dup3\n  add\n  mload\n  dup2\n  0x04\n  add\n  sstore\n  0xa0\n  dup3\n  add\n  mload\n  dup2\n  0x05\n  add\n  sstore\n  0xc0\n  dup3\n  add\n  mload\n  dup2\n  0x06\n  add\n  sstore\n  0xe0\n  dup3\n  add\n  mload\n  dup2\n  0x07\n  add\n  sstore\n  0x0100\n  dup3\n  add\n  mload\n  dup2\n  0x08\n  add\n  sstore\n  0x0120\n  dup3\n  add\n  mload\n  dup2\n  0x09\n  add\n  sstore\n  0x0140\n  dup3\n  add\n  mload\n  dup2\n  0x0a\n  add\n  sstore\n  0x0160\n  dup3\n  add\n  mload\n  dup2\n  0x0b\n  add\n  sstore\n  pop\n  pop\n    /* \"smartContract/contracts/3_Ballot.sol\":1150:1153  i++ */\n  dup1\n  dup1\n  tag_16\n  swap1\n  tag_17\n  jump\t// in\ntag_16:\n  swap2\n  pop\n  pop\n    /* \"smartContract/contracts/3_Ballot.sol\":1107:1652  for (uint i = 0; i < proposalNames.length; i++) {... */\n  jump(tag_7)\ntag_8:\n  pop\n    /* \"smartContract/contracts/3_Ballot.sol\":967:1658  {... */\n  pop\n    /* \"smartContract/contracts/3_Ballot.sol\":71:4332  contract Ballot {... */\n  jump(tag_18)\ntag_15:\n  dup3\n  dup1\n  sload\n  tag_19\n  swap1\n  tag_20\n  jump\t// in\ntag_19:\n  swap1\n  0x00\n  mstore\n  keccak256(0x00, 0x20)\n  swap1\n  0x1f\n  add\n  0x20\n  swap1\n  div\n  dup2\n  add\n  swap3\n  dup3\n  tag_22\n  jumpi\n  0x00\n  dup6\n  sstore\n  jump(tag_21)\ntag_22:\n  dup3\n  0x1f\n  lt\n  tag_23\n  jumpi\n  dup1\n  mload\n  not(0xff)\n  and\n  dup4\n  dup1\n  add\n  or\n  dup6\n  sstore\n  jump(tag_21)\ntag_23:\n  dup3\n  dup1\n  add\n  0x01\n  add\n  dup6\n  sstore\n  dup3\n  iszero\n  tag_21\n  jumpi\n  swap2\n  dup3\n  add\ntag_24:\n  dup3\n  dup2\n  gt\n  iszero\n  tag_25\n  jumpi\n  dup3\n  mload\n  dup3\n  sstore\n  swap2\n  0x20\n  add\n  swap2\n  swap1\n  0x01\n  add\n  swap1\n  jump(tag_24)\ntag_25:\ntag_21:\n  pop\n  swap1\n  pop\n  tag_26\n  swap2\n  swap1\n  tag_27\n  jump\t// in\ntag_26:\n  pop\n  swap1\n  jump\t// out\ntag_27:\ntag_28:\n  dup1\n  dup3\n  gt\n  iszero\n  tag_29\n  jumpi\n  0x00\n  dup2\n  0x00\n  swap1\n  sstore\n  pop\n  0x01\n  add\n  jump(tag_28)\ntag_29:\n  pop\n  swap1\n  jump\t// out\n    /* \"#utility.yul\":7:373   */\ntag_31:\n    /* \"#utility.yul\":149:152   */\n  0x00\n    /* \"#utility.yul\":170:237   */\n  tag_33\n    /* \"#utility.yul\":234:236   */\n  0x15\n    /* \"#utility.yul\":229:232   */\n  dup4\n    /* \"#utility.yul\":170:237   */\n  tag_34\n  jump\t// in\ntag_33:\n    /* \"#utility.yul\":163:237   */\n  swap2\n  pop\n    /* \"#utility.yul\":246:339   */\n  tag_35\n    /* \"#utility.yul\":335:338   */\n  dup3\n    /* \"#utility.yul\":246:339   */\n  tag_36\n  jump\t// in\ntag_35:\n    /* \"#utility.yul\":364:366   */\n  0x20\n    /* \"#utility.yul\":359:362   */\n  dup3\n    /* \"#utility.yul\":355:367   */\n  add\n    /* \"#utility.yul\":348:367   */\n  swap1\n  pop\n    /* \"#utility.yul\":7:373   */\n  swap2\n  swap1\n  pop\n  jump\t// out\n    /* \"#utility.yul\":379:798   */\ntag_6:\n    /* \"#utility.yul\":545:549   */\n  0x00\n    /* \"#utility.yul\":583:585   */\n  0x20\n    /* \"#utility.yul\":572:581   */\n  dup3\n    /* \"#utility.yul\":568:586   */\n  add\n    /* \"#utility.yul\":560:586   */\n  swap1\n  pop\n    /* \"#utility.yul\":632:641   */\n  dup2\n    /* \"#utility.yul\":626:630   */\n  dup2\n    /* \"#utility.yul\":622:642   */\n  sub\n    /* \"#utility.yul\":618:619   */\n  0x00\n    /* \"#utility.yul\":607:616   */\n  dup4\n    /* \"#utility.yul\":603:620   */\n  add\n    /* \"#utility.yul\":596:643   */\n  mstore\n    /* \"#utility.yul\":660:791   */\n  tag_38\n    /* \"#utility.yul\":786:790   */\n  dup2\n    /* \"#utility.yul\":660:791   */\n  tag_31\n  jump\t// in\ntag_38:\n    /* \"#utility.yul\":652:791   */\n  swap1\n  pop\n    /* \"#utility.yul\":379:798   */\n  swap2\n  swap1\n  pop\n  jump\t// out\n    /* \"#utility.yul\":804:973   */\ntag_34:\n    /* \"#utility.yul\":888:899   */\n  0x00\n    /* \"#utility.yul\":922:928   */\n  dup3\n    /* \"#utility.yul\":917:920   */\n  dup3\n    /* \"#utility.yul\":910:929   */\n  mstore\n    /* \"#utility.yul\":962:966   */\n  0x20\n    /* \"#utility.yul\":957:960   */\n  dup3\n    /* \"#utility.yul\":953:967   */\n  add\n    /* \"#utility.yul\":938:967   */\n  swap1\n  pop\n    /* \"#utility.yul\":804:973   */\n  swap3\n  swap2\n  pop\n  pop\n  jump\t// out\n    /* \"#utility.yul\":979:1056   */\ntag_40:\n    /* \"#utility.yul\":1016:1023   */\n  0x00\n    /* \"#utility.yul\":1045:1050   */\n  dup2\n    /* \"#utility.yul\":1034:1050   */\n  swap1\n  pop\n    /* \"#utility.yul\":979:1056   */\n  swap2\n  swap1\n  pop\n  jump\t// out\n    /* \"#utility.yul\":1062:1382   */\ntag_20:\n    /* \"#utility.yul\":1106:1112   */\n  0x00\n    /* \"#utility.yul\":1143:1144   */\n  0x02\n    /* \"#utility.yul\":1137:1141   */\n  dup3\n    /* \"#utility.yul\":1133:1145   */\n  div\n    /* \"#utility.yul\":1123:1145   */\n  swap1\n  pop\n    /* \"#utility.yul\":1190:1191   */\n  0x01\n    /* \"#utility.yul\":1184:1188   */\n  dup3\n    /* \"#utility.yul\":1180:1192   */\n  and\n    /* \"#utility.yul\":1211:1229   */\n  dup1\n    /* \"#utility.yul\":1201:1282   */\n  tag_43\n  jumpi\n    /* \"#utility.yul\":1267:1271   */\n  0x7f\n    /* \"#utility.yul\":1259:1265   */\n  dup3\n    /* \"#utility.yul\":1255:1272   */\n  and\n    /* \"#utility.yul\":1245:1272   */\n  swap2\n  pop\n    /* \"#utility.yul\":1201:1282   */\ntag_43:\n    /* \"#utility.yul\":1329:1331   */\n  0x20\n    /* \"#utility.yul\":1321:1327   */\n  dup3\n    /* \"#utility.yul\":1318:1332   */\n  lt\n    /* \"#utility.yul\":1298:1316   */\n  dup2\n    /* \"#utility.yul\":1295:1333   */\n  eq\n    /* \"#utility.yul\":1292:1376   */\n  iszero\n  tag_44\n  jumpi\n    /* \"#utility.yul\":1348:1366   */\n  tag_45\n  tag_46\n  jump\t// in\ntag_45:\n    /* \"#utility.yul\":1292:1376   */\ntag_44:\n    /* \"#utility.yul\":1113:1382   */\n  pop\n    /* \"#utility.yul\":1062:1382   */\n  swap2\n  swap1\n  pop\n  jump\t// out\n    /* \"#utility.yul\":1388:1621   */\ntag_17:\n    /* \"#utility.yul\":1427:1430   */\n  0x00\n    /* \"#utility.yul\":1450:1474   */\n  tag_48\n    /* \"#utility.yul\":1468:1473   */\n  dup3\n    /* \"#utility.yul\":1450:1474   */\n  tag_40\n  jump\t// in\ntag_48:\n    /* \"#utility.yul\":1441:1474   */\n  swap2\n  pop\n    /* \"#utility.yul\":1496:1562   */\n  0xffffffffffffffffffffffffffffffffffffffffffffffffffffffffffffffff\n    /* \"#utility.yul\":1489:1494   */\n  dup3\n    /* \"#utility.yul\":1486:1563   */\n  eq\n    /* \"#utility.yul\":1483:1586   */\n  iszero\n  tag_49\n  jumpi\n    /* \"#utility.yul\":1566:1584   */\n  tag_50\n  tag_51\n  jump\t// in\ntag_50:\n    /* \"#utility.yul\":1483:1586   */\ntag_49:\n    /* \"#utility.yul\":1613:1614   */\n  0x01\n    /* \"#utility.yul\":1606:1611   */\n  dup3\n    /* \"#utility.yul\":1602:1615   */\n  add\n    /* \"#utility.yul\":1595:1615   */\n  swap1\n  pop\n    /* \"#utility.yul\":1388:1621   */\n  swap2\n  swap1\n  pop\n  jump\t// out\n    /* \"#utility.yul\":1627:1807   */\ntag_51:\n    /* \"#utility.yul\":1675:1752   */\n  0x4e487b7100000000000000000000000000000000000000000000000000000000\n    /* \"#utility.yul\":1672:1673   */\n  0x00\n    /* \"#utility.yul\":1665:1753   */\n  mstore\n    /* \"#utility.yul\":1772:1776   */\n  0x11\n    /* \"#utility.yul\":1769:1770   */\n  0x04\n    /* \"#utility.yul\":1762:1777   */\n  mstore\n    /* \"#utility.yul\":1796:1800   */\n  0x24\n    /* \"#utility.yul\":1793:1794   */\n  0x00\n    /* \"#utility.yul\":1786:1801   */\n  revert\n    /* \"#utility.yul\":1813:1993   */\ntag_46:\n    /* \"#utility.yul\":1861:1938   */\n  0x4e487b7100000000000000000000000000000000000000000000000000000000\n    /* \"#utility.yul\":1858:1859   */\n  0x00\n    /* \"#utility.yul\":1851:1939   */\n  mstore\n    /* \"#utility.yul\":1958:1962   */\n  0x22\n    /* \"#utility.yul\":1955:1956   */\n  0x04\n    /* \"#utility.yul\":1948:1963   */\n  mstore\n    /* \"#utility.yul\":1982:1986   */\n  0x24\n    /* \"#utility.yul\":1979:1980   */\n  0x00\n    /* \"#utility.yul\":1972:1987   */\n  revert\n    /* \"#utility.yul\":1999:2179   */\ntag_12:\n    /* \"#utility.yul\":2047:2124   */\n  0x4e487b7100000000000000000000000000000000000000000000000000000000\n    /* \"#utility.yul\":2044:2045   */\n  0x00\n    /* \"#utility.yul\":2037:2125   */\n  mstore\n    /* \"#utility.yul\":2144:2148   */\n  0x32\n    /* \"#utility.yul\":2141:2142   */\n  0x04\n    /* \"#utility.yul\":2134:2149   */\n  mstore\n    /* \"#utility.yul\":2168:2172   */\n  0x24\n    /* \"#utility.yul\":2165:2166   */\n  0x00\n    /* \"#utility.yul\":2158:2173   */\n  revert\n    /* \"#utility.yul\":2185:2356   */\ntag_36:\n    /* \"#utility.yul\":2325:2348   */\n  0x43616e64696461746573206d75737420626520352e0000000000000000000000\n    /* \"#utility.yul\":2321:2322   */\n  0x00\n    /* \"#utility.yul\":2313:2319   */\n  dup3\n    /* \"#utility.yul\":2309:2323   */\n  add\n    /* \"#utility.yul\":2302:2349   */\n  mstore\n    /* \"#utility.yul\":2185:2356   */\n  pop\n  jump\t// out\n    /* \"smartContract/contracts/3_Ballot.sol\":71:4332  contract Ballot {... */\ntag_18:\n  dataSize(sub_0)\n  dup1\n  dataOffset(sub_0)\n  0x00\n  codecopy\n  0x00\n  return\nstop\n\nsub_0: assembly {\n        /* \"smartContract/contracts/3_Ballot.sol\":71:4332  contract Ballot {... */\n      mstore(0x40, 0x80)\n      callvalue\n      dup1\n      iszero\n      tag_1\n      jumpi\n      0x00\n      dup1\n      revert\n    tag_1:\n      pop\n      jumpi(tag_2, lt(calldatasize, 0x04))\n      shr(0xe0, calldataload(0x00))\n      dup1\n      0x848ea577\n      gt\n      tag_17\n      jumpi\n      dup1\n      0xa3ec138d\n      gt\n      tag_18\n      jumpi\n      dup1\n      0xa3ec138d\n      eq\n      tag_13\n      jumpi\n      dup1\n      0xa9874b2a\n      eq\n      tag_14\n      jumpi\n      dup1\n      0xbaf74a09\n      eq\n      tag_15\n      jumpi\n      dup1\n      0xd4e8fd2e\n      eq\n      tag_16\n      jumpi\n      jump(tag_2)\n    tag_18:\n      dup1\n      0x848ea577\n      eq\n      tag_10\n      jumpi\n      dup1\n      0x8b7d553d\n      eq\n      tag_11\n      jumpi\n      dup1\n      0x8c18f2f1\n      eq\n      tag_12\n      jumpi\n      jump(tag_2)\n    tag_17:\n      dup1\n      0x632a9a52\n      gt\n      tag_19\n      jumpi\n      dup1\n      0x632a9a52\n      eq\n      tag_6\n      jumpi\n      dup1\n      0x6d8f3f10\n      eq\n      tag_7\n      jumpi\n      dup1\n      0x7ef1dbea\n      eq\n      tag_8\n      jumpi\n      dup1\n      0x80b3bd9b\n      eq\n      tag_9\n      jumpi\n      jump(tag_2)\n    tag_19:\n      dup1\n      0x1946b5be\n      eq\n      tag_3\n      jumpi\n      dup1\n      0x56f897ef\n      eq\n      tag_4\n      jumpi\n      dup1\n      0x5fc75cb5\n      eq\n      tag_5\n      jumpi\n    tag_2:\n      0x00\n      dup1\n      revert\n        /* \"smartContract/contracts/3_Ballot.sol\":1924:1941  int public d3 = 0 */\n    tag_3:\n      tag_20\n      tag_21\n      jump\t// in\n    tag_20:\n      mload(0x40)\n      tag_22\n      swap2\n      swap1\n      tag_23\n      jump\t// in\n    tag_22:\n      mload(0x40)\n      dup1\n      swap2\n      sub\n      swap1\n      return\n        /* \"smartContract/contracts/3_Ballot.sol\":1970:1987  int public d5 = 0 */\n    tag_4:\n      tag_24\n      tag_25\n      jump\t// in\n    tag_24:\n      mload(0x40)\n      tag_26\n      swap2\n      swap1\n      tag_23\n      jump\t// in\n    tag_26:\n      mload(0x40)\n      dup1\n      swap2\n      sub\n      swap1\n      return\n        /* \"smartContract/contracts/3_Ballot.sol\":1993:2010  int public d6 = 0 */\n    tag_5:\n      tag_27\n      tag_28\n      jump\t// in\n    tag_27:\n      mload(0x40)\n      tag_29\n      swap2\n      swap1\n      tag_23\n      jump\t// in\n    tag_29:\n      mload(0x40)\n      dup1\n      swap2\n      sub\n      swap1\n      return\n        /* \"smartContract/contracts/3_Ballot.sol\":2857:4226  function vote() public {... */\n    tag_6:\n      tag_30\n      tag_31\n      jump\t// in\n    tag_30:\n      stop\n        /* \"smartContract/contracts/3_Ballot.sol\":1700:1721  int public countV = 0 */\n    tag_7:\n      tag_32\n      tag_33\n      jump\t// in\n    tag_32:\n      mload(0x40)\n      tag_34\n      swap2\n      swap1\n      tag_23\n      jump\t// in\n    tag_34:\n      mload(0x40)\n      dup1\n      swap2\n      sub\n      swap1\n      return\n        /* \"smartContract/contracts/3_Ballot.sol\":1901:1918  int public d2 = 0 */\n    tag_8:\n      tag_35\n      tag_36\n      jump\t// in\n    tag_35:\n      mload(0x40)\n      tag_37\n      swap2\n      swap1\n      tag_23\n      jump\t// in\n    tag_37:\n      mload(0x40)\n      dup1\n      swap2\n      sub\n      swap1\n      return\n        /* \"smartContract/contracts/3_Ballot.sol\":2016:2033  int public d7 = 0 */\n    tag_9:\n      tag_38\n      tag_39\n      jump\t// in\n    tag_38:\n      mload(0x40)\n      tag_40\n      swap2\n      swap1\n      tag_23\n      jump\t// in\n    tag_40:\n      mload(0x40)\n      dup1\n      swap2\n      sub\n      swap1\n      return\n        /* \"smartContract/contracts/3_Ballot.sol\":1947:1964  int public d4 = 0 */\n    tag_10:\n      tag_41\n      tag_42\n      jump\t// in\n    tag_41:\n      mload(0x40)\n      tag_43\n      swap2\n      swap1\n      tag_23\n      jump\t// in\n    tag_43:\n      mload(0x40)\n      dup1\n      swap2\n      sub\n      swap1\n      return\n        /* \"smartContract/contracts/3_Ballot.sol\":2039:2056  int public d8 = 0 */\n    tag_11:\n      tag_44\n      tag_45\n      jump\t// in\n    tag_44:\n      mload(0x40)\n      tag_46\n      swap2\n      swap1\n      tag_23\n      jump\t// in\n    tag_46:\n      mload(0x40)\n      dup1\n      swap2\n      sub\n      swap1\n      return\n        /* \"smartContract/contracts/3_Ballot.sol\":1878:1895  int public d1 = 0 */\n    tag_12:\n      tag_47\n      tag_48\n      jump\t// in\n    tag_47:\n      mload(0x40)\n      tag_49\n      swap2\n      swap1\n      tag_23\n      jump\t// in\n    tag_49:\n      mload(0x40)\n      dup1\n      swap2\n      sub\n      swap1\n      return\n        /* \"smartContract/contracts/3_Ballot.sol\":686:725  mapping(address => Voter) public voters */\n    tag_13:\n      tag_50\n      0x04\n      dup1\n      calldatasize\n      sub\n      dup2\n      add\n      swap1\n      tag_51\n      swap2\n      swap1\n      tag_52\n      jump\t// in\n    tag_51:\n      tag_53\n      jump\t// in\n    tag_50:\n      mload(0x40)\n      tag_54\n      swap4\n      swap3\n      swap2\n      swap1\n      tag_55\n      jump\t// in\n    tag_54:\n      mload(0x40)\n      dup1\n      swap2\n      sub\n      swap1\n      return\n        /* \"smartContract/contracts/3_Ballot.sol\":1855:1872  int public d0 = 0 */\n    tag_14:\n      tag_56\n      tag_57\n      jump\t// in\n    tag_56:\n      mload(0x40)\n      tag_58\n      swap2\n      swap1\n      tag_23\n      jump\t// in\n    tag_58:\n      mload(0x40)\n      dup1\n      swap2\n      sub\n      swap1\n      return\n        /* \"smartContract/contracts/3_Ballot.sol\":2062:2079  int public d9 = 0 */\n    tag_15:\n      tag_59\n      tag_60\n      jump\t// in\n    tag_59:\n      mload(0x40)\n      tag_61\n      swap2\n      swap1\n      tag_23\n      jump\t// in\n    tag_61:\n      mload(0x40)\n      dup1\n      swap2\n      sub\n      swap1\n      return\n        /* \"smartContract/contracts/3_Ballot.sol\":4232:4329  function res(uint _id) public view returns(Proposal memory){... */\n    tag_16:\n      tag_62\n      0x04\n      dup1\n      calldatasize\n      sub\n      dup2\n      add\n      swap1\n      tag_63\n      swap2\n      swap1\n      tag_64\n      jump\t// in\n    tag_63:\n      tag_65\n      jump\t// in\n    tag_62:\n      mload(0x40)\n      tag_66\n      swap2\n      swap1\n      tag_67\n      jump\t// in\n    tag_66:\n      mload(0x40)\n      dup1\n      swap2\n      sub\n      swap1\n      return\n        /* \"smartContract/contracts/3_Ballot.sol\":1924:1941  int public d3 = 0 */\n    tag_21:\n      sload(0x06)\n      dup2\n      jump\t// out\n        /* \"smartContract/contracts/3_Ballot.sol\":1970:1987  int public d5 = 0 */\n    tag_25:\n      sload(0x08)\n      dup2\n      jump\t// out\n        /* \"smartContract/contracts/3_Ballot.sol\":1993:2010  int public d6 = 0 */\n    tag_28:\n      sload(0x09)\n      dup2\n      jump\t// out\n        /* \"smartContract/contracts/3_Ballot.sol\":2857:4226  function vote() public {... */\n    tag_31:\n        /* \"smartContract/contracts/3_Ballot.sol\":2900:2906  voters */\n      0x00\n        /* \"smartContract/contracts/3_Ballot.sol\":2900:2918  voters[msg.sender] */\n      dup1\n        /* \"smartContract/contracts/3_Ballot.sol\":2907:2917  msg.sender */\n      caller\n        /* \"smartContract/contracts/3_Ballot.sol\":2900:2918  voters[msg.sender] */\n      0xffffffffffffffffffffffffffffffffffffffff\n      and\n      0xffffffffffffffffffffffffffffffffffffffff\n      and\n      dup2\n      mstore\n      0x20\n      add\n      swap1\n      dup2\n      mstore\n      0x20\n      add\n      0x00\n      keccak256\n        /* \"smartContract/contracts/3_Ballot.sol\":2900:2924  voters[msg.sender].voted */\n      0x00\n      add\n      0x00\n      swap1\n      sload\n      swap1\n      0x0100\n      exp\n      swap1\n      div\n      0xff\n      and\n        /* \"smartContract/contracts/3_Ballot.sol\":2899:2924  !voters[msg.sender].voted */\n      iszero\n        /* \"smartContract/contracts/3_Ballot.sol\":2891:2953  require(!voters[msg.sender].voted, \"The voter already voted.\") */\n      tag_69\n      jumpi\n      mload(0x40)\n      0x08c379a000000000000000000000000000000000000000000000000000000000\n      dup2\n      mstore\n      0x04\n      add\n      tag_70\n      swap1\n      tag_71\n      jump\t// in\n    tag_70:\n      mload(0x40)\n      dup1\n      swap2\n      sub\n      swap1\n      revert\n    tag_69:\n        /* \"smartContract/contracts/3_Ballot.sol\":2979:2982  100 */\n      0x64\n        /* \"smartContract/contracts/3_Ballot.sol\":2972:2978  countV */\n      sload(0x02)\n        /* \"smartContract/contracts/3_Ballot.sol\":2972:2982  countV<100 */\n      slt\n        /* \"smartContract/contracts/3_Ballot.sol\":2964:3005  require(countV<100,\"Reached max voters.\") */\n      tag_72\n      jumpi\n      mload(0x40)\n      0x08c379a000000000000000000000000000000000000000000000000000000000\n      dup2\n      mstore\n      0x04\n      add\n      tag_73\n      swap1\n      tag_74\n      jump\t// in\n    tag_73:\n      mload(0x40)\n      dup1\n      swap2\n      sub\n      swap1\n      revert\n    tag_72:\n        /* \"smartContract/contracts/3_Ballot.sol\":3044:3061  random_district() */\n      tag_75\n        /* \"smartContract/contracts/3_Ballot.sol\":3044:3059  random_district */\n      tag_76\n        /* \"smartContract/contracts/3_Ballot.sol\":3044:3061  random_district() */\n      jump\t// in\n    tag_75:\n        /* \"smartContract/contracts/3_Ballot.sol\":3016:3022  voters */\n      0x00\n        /* \"smartContract/contracts/3_Ballot.sol\":3016:3034  voters[msg.sender] */\n      dup1\n        /* \"smartContract/contracts/3_Ballot.sol\":3023:3033  msg.sender */\n      caller\n        /* \"smartContract/contracts/3_Ballot.sol\":3016:3034  voters[msg.sender] */\n      0xffffffffffffffffffffffffffffffffffffffff\n      and\n      0xffffffffffffffffffffffffffffffffffffffff\n      and\n      dup2\n      mstore\n      0x20\n      add\n      swap1\n      dup2\n      mstore\n      0x20\n      add\n      0x00\n      keccak256\n        /* \"smartContract/contracts/3_Ballot.sol\":3016:3043  voters[msg.sender].district */\n      0x01\n      add\n        /* \"smartContract/contracts/3_Ballot.sol\":3016:3061  voters[msg.sender].district=random_district() */\n      dup2\n      swap1\n      sstore\n      pop\n        /* \"smartContract/contracts/3_Ballot.sol\":3072:3092  Voter storage sender */\n      0x00\n        /* \"smartContract/contracts/3_Ballot.sol\":3095:3101  voters */\n      dup1\n        /* \"smartContract/contracts/3_Ballot.sol\":3095:3113  voters[msg.sender] */\n      0x00\n        /* \"smartContract/contracts/3_Ballot.sol\":3102:3112  msg.sender */\n      caller\n        /* \"smartContract/contracts/3_Ballot.sol\":3095:3113  voters[msg.sender] */\n      0xffffffffffffffffffffffffffffffffffffffff\n      and\n      0xffffffffffffffffffffffffffffffffffffffff\n      and\n      dup2\n      mstore\n      0x20\n      add\n      swap1\n      dup2\n      mstore\n      0x20\n      add\n      0x00\n      keccak256\n        /* \"smartContract/contracts/3_Ballot.sol\":3072:3113  Voter storage sender = voters[msg.sender] */\n      swap1\n      pop\n        /* \"smartContract/contracts/3_Ballot.sol\":3132:3138  sender */\n      dup1\n        /* \"smartContract/contracts/3_Ballot.sol\":3132:3144  sender.voted */\n      0x00\n      add\n      0x00\n      swap1\n      sload\n      swap1\n      0x0100\n      exp\n      swap1\n      div\n      0xff\n      and\n        /* \"smartContract/contracts/3_Ballot.sol\":3131:3144  !sender.voted */\n      iszero\n        /* \"smartContract/contracts/3_Ballot.sol\":3123:3163  require(!sender.voted, \"Already voted.\") */\n      tag_77\n      jumpi\n      mload(0x40)\n      0x08c379a000000000000000000000000000000000000000000000000000000000\n      dup2\n      mstore\n      0x04\n      add\n      tag_78\n      swap1\n      tag_79\n      jump\t// in\n    tag_78:\n      mload(0x40)\n      dup1\n      swap2\n      sub\n      swap1\n      revert\n    tag_77:\n        /* \"smartContract/contracts/3_Ballot.sol\":3188:3192  true */\n      0x01\n        /* \"smartContract/contracts/3_Ballot.sol\":3173:3179  sender */\n      dup2\n        /* \"smartContract/contracts/3_Ballot.sol\":3173:3185  sender.voted */\n      0x00\n      add\n      0x00\n        /* \"smartContract/contracts/3_Ballot.sol\":3173:3192  sender.voted = true */\n      0x0100\n      exp\n      dup2\n      sload\n      dup2\n      0xff\n      mul\n      not\n      and\n      swap1\n      dup4\n      iszero\n      iszero\n      mul\n      or\n      swap1\n      sstore\n      pop\n        /* \"smartContract/contracts/3_Ballot.sol\":3217:3230  random_vote() */\n      tag_80\n        /* \"smartContract/contracts/3_Ballot.sol\":3217:3228  random_vote */\n      tag_81\n        /* \"smartContract/contracts/3_Ballot.sol\":3217:3230  random_vote() */\n      jump\t// in\n    tag_80:\n        /* \"smartContract/contracts/3_Ballot.sol\":3203:3209  sender */\n      dup2\n        /* \"smartContract/contracts/3_Ballot.sol\":3203:3214  sender.vote */\n      0x02\n      add\n        /* \"smartContract/contracts/3_Ballot.sol\":3203:3230  sender.vote = random_vote() */\n      dup2\n      swap1\n      sstore\n      pop\n        /* \"smartContract/contracts/3_Ballot.sol\":3276:3277  1 */\n      0x01\n        /* \"smartContract/contracts/3_Ballot.sol\":3266:3272  countV */\n      0x02\n      0x00\n        /* \"smartContract/contracts/3_Ballot.sol\":3266:3277  countV += 1 */\n      dup3\n      dup3\n      sload\n      tag_82\n      swap2\n      swap1\n      tag_83\n      jump\t// in\n    tag_82:\n      swap3\n      pop\n      pop\n      dup2\n      swap1\n      sstore\n      pop\n        /* \"smartContract/contracts/3_Ballot.sol\":3336:3337  1 */\n      0x01\n        /* \"smartContract/contracts/3_Ballot.sol\":3296:3305  proposals */\n      dup1\n        /* \"smartContract/contracts/3_Ballot.sol\":3306:3319  random_vote() */\n      tag_84\n        /* \"smartContract/contracts/3_Ballot.sol\":3306:3317  random_vote */\n      tag_81\n        /* \"smartContract/contracts/3_Ballot.sol\":3306:3319  random_vote() */\n      jump\t// in\n    tag_84:\n        /* \"smartContract/contracts/3_Ballot.sol\":3296:3320  proposals[random_vote()] */\n      dup2\n      sload\n      dup2\n      lt\n      tag_85\n      jumpi\n      tag_86\n      tag_87\n      jump\t// in\n    tag_86:\n    tag_85:\n      swap1\n      0x00\n      mstore\n      keccak256(0x00, 0x20)\n      swap1\n      0x0c\n      mul\n      add\n        /* \"smartContract/contracts/3_Ballot.sol\":3296:3332  proposals[random_vote()].Total_Votes */\n      0x01\n      add\n      0x00\n        /* \"smartContract/contracts/3_Ballot.sol\":3296:3337  proposals[random_vote()].Total_Votes += 1 */\n      dup3\n      dup3\n      sload\n      tag_89\n      swap2\n      swap1\n      tag_90\n      jump\t// in\n    tag_89:\n      swap3\n      pop\n      pop\n      dup2\n      swap1\n      sstore\n      pop\n        /* \"smartContract/contracts/3_Ballot.sol\":3368:3369  0 */\n      0x00\n        /* \"smartContract/contracts/3_Ballot.sol\":3351:3357  sender */\n      dup2\n        /* \"smartContract/contracts/3_Ballot.sol\":3351:3366  sender.district */\n      0x01\n      add\n      sload\n        /* \"smartContract/contracts/3_Ballot.sol\":3351:3369  sender.district==0 */\n      eq\n        /* \"smartContract/contracts/3_Ballot.sol\":3347:4220  if (sender.district==0){proposals[random_vote()].Votes_District0 += 1;d0+=1;}... */\n      iszero\n      tag_91\n      jumpi\n        /* \"smartContract/contracts/3_Ballot.sol\":3415:3416  1 */\n      0x01\n        /* \"smartContract/contracts/3_Ballot.sol\":3371:3380  proposals */\n      dup1\n        /* \"smartContract/contracts/3_Ballot.sol\":3381:3394  random_vote() */\n      tag_92\n        /* \"smartContract/contracts/3_Ballot.sol\":3381:3392  random_vote */\n      tag_81\n        /* \"smartContract/contracts/3_Ballot.sol\":3381:3394  random_vote() */\n      jump\t// in\n    tag_92:\n        /* \"smartContract/contracts/3_Ballot.sol\":3371:3395  proposals[random_vote()] */\n      dup2\n      sload\n      dup2\n      lt\n      tag_93\n      jumpi\n      tag_94\n      tag_87\n      jump\t// in\n    tag_94:\n    tag_93:\n      swap1\n      0x00\n      mstore\n      keccak256(0x00, 0x20)\n      swap1\n      0x0c\n      mul\n      add\n        /* \"smartContract/contracts/3_Ballot.sol\":3371:3411  proposals[random_vote()].Votes_District0 */\n      0x02\n      add\n      0x00\n        /* \"smartContract/contracts/3_Ballot.sol\":3371:3416  proposals[random_vote()].Votes_District0 += 1 */\n      dup3\n      dup3\n      sload\n      tag_96\n      swap2\n      swap1\n      tag_90\n      jump\t// in\n    tag_96:\n      swap3\n      pop\n      pop\n      dup2\n      swap1\n      sstore\n      pop\n        /* \"smartContract/contracts/3_Ballot.sol\":3421:3422  1 */\n      0x01\n        /* \"smartContract/contracts/3_Ballot.sol\":3417:3419  d0 */\n      0x03\n      0x00\n        /* \"smartContract/contracts/3_Ballot.sol\":3417:3422  d0+=1 */\n      dup3\n      dup3\n      sload\n      tag_97\n      swap2\n      swap1\n      tag_83\n      jump\t// in\n    tag_97:\n      swap3\n      pop\n      pop\n      dup2\n      swap1\n      sstore\n      pop\n        /* \"smartContract/contracts/3_Ballot.sol\":3347:4220  if (sender.district==0){proposals[random_vote()].Votes_District0 += 1;d0+=1;}... */\n      jump(tag_98)\n    tag_91:\n        /* \"smartContract/contracts/3_Ballot.sol\":3459:3460  1 */\n      0x01\n        /* \"smartContract/contracts/3_Ballot.sol\":3442:3448  sender */\n      dup2\n        /* \"smartContract/contracts/3_Ballot.sol\":3442:3457  sender.district */\n      0x01\n      add\n      sload\n        /* \"smartContract/contracts/3_Ballot.sol\":3442:3460  sender.district==1 */\n      eq\n        /* \"smartContract/contracts/3_Ballot.sol\":3438:4220  if (sender.district==1){proposals[random_vote()].Votes_District1 += 1;d1+=1;}... */\n      iszero\n      tag_99\n      jumpi\n        /* \"smartContract/contracts/3_Ballot.sol\":3506:3507  1 */\n      0x01\n        /* \"smartContract/contracts/3_Ballot.sol\":3462:3471  proposals */\n      dup1\n        /* \"smartContract/contracts/3_Ballot.sol\":3472:3485  random_vote() */\n      tag_100\n        /* \"smartContract/contracts/3_Ballot.sol\":3472:3483  random_vote */\n      tag_81\n        /* \"smartContract/contracts/3_Ballot.sol\":3472:3485  random_vote() */\n      jump\t// in\n    tag_100:\n        /* \"smartContract/contracts/3_Ballot.sol\":3462:3486  proposals[random_vote()] */\n      dup2\n      sload\n      dup2\n      lt\n      tag_101\n      jumpi\n      tag_102\n      tag_87\n      jump\t// in\n    tag_102:\n    tag_101:\n      swap1\n      0x00\n      mstore\n      keccak256(0x00, 0x20)\n      swap1\n      0x0c\n      mul\n      add\n        /* \"smartContract/contracts/3_Ballot.sol\":3462:3502  proposals[random_vote()].Votes_District1 */\n      0x03\n      add\n      0x00\n        /* \"smartContract/contracts/3_Ballot.sol\":3462:3507  proposals[random_vote()].Votes_District1 += 1 */\n      dup3\n      dup3\n      sload\n      tag_104\n      swap2\n      swap1\n      tag_90\n      jump\t// in\n    tag_104:\n      swap3\n      pop\n      pop\n      dup2\n      swap1\n      sstore\n      pop\n        /* \"smartContract/contracts/3_Ballot.sol\":3512:3513  1 */\n      0x01\n        /* \"smartContract/contracts/3_Ballot.sol\":3508:3510  d1 */\n      0x04\n      0x00\n        /* \"smartContract/contracts/3_Ballot.sol\":3508:3513  d1+=1 */\n      dup3\n      dup3\n      sload\n      tag_105\n      swap2\n      swap1\n      tag_83\n      jump\t// in\n    tag_105:\n      swap3\n      pop\n      pop\n      dup2\n      swap1\n      sstore\n      pop\n        /* \"smartContract/contracts/3_Ballot.sol\":3438:4220  if (sender.district==1){proposals[random_vote()].Votes_District1 += 1;d1+=1;}... */\n      jump(tag_106)\n    tag_99:\n        /* \"smartContract/contracts/3_Ballot.sol\":3550:3551  2 */\n      0x02\n        /* \"smartContract/contracts/3_Ballot.sol\":3533:3539  sender */\n      dup2\n        /* \"smartContract/contracts/3_Ballot.sol\":3533:3548  sender.district */\n      0x01\n      add\n      sload\n        /* \"smartContract/contracts/3_Ballot.sol\":3533:3551  sender.district==2 */\n      eq\n        /* \"smartContract/contracts/3_Ballot.sol\":3529:4220  if (sender.district==2){proposals[random_vote()].Votes_District2 += 1;d2+=1;}... */\n      iszero\n      tag_107\n      jumpi\n        /* \"smartContract/contracts/3_Ballot.sol\":3597:3598  1 */\n      0x01\n        /* \"smartContract/contracts/3_Ballot.sol\":3553:3562  proposals */\n      dup1\n        /* \"smartContract/contracts/3_Ballot.sol\":3563:3576  random_vote() */\n      tag_108\n        /* \"smartContract/contracts/3_Ballot.sol\":3563:3574  random_vote */\n      tag_81\n        /* \"smartContract/contracts/3_Ballot.sol\":3563:3576  random_vote() */\n      jump\t// in\n    tag_108:\n        /* \"smartContract/contracts/3_Ballot.sol\":3553:3577  proposals[random_vote()] */\n      dup2\n      sload\n      dup2\n      lt\n      tag_109\n      jumpi\n      tag_110\n      tag_87\n      jump\t// in\n    tag_110:\n    tag_109:\n      swap1\n      0x00\n      mstore\n      keccak256(0x00, 0x20)\n      swap1\n      0x0c\n      mul\n      add\n        /* \"smartContract/contracts/3_Ballot.sol\":3553:3593  proposals[random_vote()].Votes_District2 */\n      0x04\n      add\n      0x00\n        /* \"smartContract/contracts/3_Ballot.sol\":3553:3598  proposals[random_vote()].Votes_District2 += 1 */\n      dup3\n      dup3\n      sload\n      tag_112\n      swap2\n      swap1\n      tag_90\n      jump\t// in\n    tag_112:\n      swap3\n      pop\n      pop\n      dup2\n      swap1\n      sstore\n      pop\n        /* \"smartContract/contracts/3_Ballot.sol\":3603:3604  1 */\n      0x01\n        /* \"smartContract/contracts/3_Ballot.sol\":3599:3601  d2 */\n      0x05\n      0x00\n        /* \"smartContract/contracts/3_Ballot.sol\":3599:3604  d2+=1 */\n      dup3\n      dup3\n      sload\n      tag_113\n      swap2\n      swap1\n      tag_83\n      jump\t// in\n    tag_113:\n      swap3\n      pop\n      pop\n      dup2\n      swap1\n      sstore\n      pop\n        /* \"smartContract/contracts/3_Ballot.sol\":3529:4220  if (sender.district==2){proposals[random_vote()].Votes_District2 += 1;d2+=1;}... */\n      jump(tag_114)\n    tag_107:\n        /* \"smartContract/contracts/3_Ballot.sol\":3641:3642  3 */\n      0x03\n        /* \"smartContract/contracts/3_Ballot.sol\":3624:3630  sender */\n      dup2\n        /* \"smartContract/contracts/3_Ballot.sol\":3624:3639  sender.district */\n      0x01\n      add\n      sload\n        /* \"smartContract/contracts/3_Ballot.sol\":3624:3642  sender.district==3 */\n      eq\n        /* \"smartContract/contracts/3_Ballot.sol\":3620:4220  if (sender.district==3){proposals[random_vote()].Votes_District3 += 1;d3+=1;}... */\n      iszero\n      tag_115\n      jumpi\n        /* \"smartContract/contracts/3_Ballot.sol\":3688:3689  1 */\n      0x01\n        /* \"smartContract/contracts/3_Ballot.sol\":3644:3653  proposals */\n      dup1\n        /* \"smartContract/contracts/3_Ballot.sol\":3654:3667  random_vote() */\n      tag_116\n        /* \"smartContract/contracts/3_Ballot.sol\":3654:3665  random_vote */\n      tag_81\n        /* \"smartContract/contracts/3_Ballot.sol\":3654:3667  random_vote() */\n      jump\t// in\n    tag_116:\n        /* \"smartContract/contracts/3_Ballot.sol\":3644:3668  proposals[random_vote()] */\n      dup2\n      sload\n      dup2\n      lt\n      tag_117\n      jumpi\n      tag_118\n      tag_87\n      jump\t// in\n    tag_118:\n    tag_117:\n      swap1\n      0x00\n      mstore\n      keccak256(0x00, 0x20)\n      swap1\n      0x0c\n      mul\n      add\n        /* \"smartContract/contracts/3_Ballot.sol\":3644:3684  proposals[random_vote()].Votes_District3 */\n      0x05\n      add\n      0x00\n        /* \"smartContract/contracts/3_Ballot.sol\":3644:3689  proposals[random_vote()].Votes_District3 += 1 */\n      dup3\n      dup3\n      sload\n      tag_120\n      swap2\n      swap1\n      tag_90\n      jump\t// in\n    tag_120:\n      swap3\n      pop\n      pop\n      dup2\n      swap1\n      sstore\n      pop\n        /* \"smartContract/contracts/3_Ballot.sol\":3694:3695  1 */\n      0x01\n        /* \"smartContract/contracts/3_Ballot.sol\":3690:3692  d3 */\n      0x06\n      0x00\n        /* \"smartContract/contracts/3_Ballot.sol\":3690:3695  d3+=1 */\n      dup3\n      dup3\n      sload\n      tag_121\n      swap2\n      swap1\n      tag_83\n      jump\t// in\n    tag_121:\n      swap3\n      pop\n      pop\n      dup2\n      swap1\n      sstore\n      pop\n        /* \"smartContract/contracts/3_Ballot.sol\":3620:4220  if (sender.district==3){proposals[random_vote()].Votes_District3 += 1;d3+=1;}... */\n      jump(tag_122)\n    tag_115:\n        /* \"smartContract/contracts/3_Ballot.sol\":3732:3733  4 */\n      0x04\n        /* \"smartContract/contracts/3_Ballot.sol\":3715:3721  sender */\n      dup2\n        /* \"smartContract/contracts/3_Ballot.sol\":3715:3730  sender.district */\n      0x01\n      add\n      sload\n        /* \"smartContract/contracts/3_Ballot.sol\":3715:3733  sender.district==4 */\n      eq\n        /* \"smartContract/contracts/3_Ballot.sol\":3711:4220  if (sender.district==4){proposals[random_vote()].Votes_District4 += 1;d4+=1;}... */\n      iszero\n      tag_123\n      jumpi\n        /* \"smartContract/contracts/3_Ballot.sol\":3779:3780  1 */\n      0x01\n        /* \"smartContract/contracts/3_Ballot.sol\":3735:3744  proposals */\n      dup1\n        /* \"smartContract/contracts/3_Ballot.sol\":3745:3758  random_vote() */\n      tag_124\n        /* \"smartContract/contracts/3_Ballot.sol\":3745:3756  random_vote */\n      tag_81\n        /* \"smartContract/contracts/3_Ballot.sol\":3745:3758  random_vote() */\n      jump\t// in\n    tag_124:\n        /* \"smartContract/contracts/3_Ballot.sol\":3735:3759  proposals[random_vote()] */\n      dup2\n      sload\n      dup2\n      lt\n      tag_125\n      jumpi\n      tag_126\n      tag_87\n      jump\t// in\n    tag_126:\n    tag_125:\n      swap1\n      0x00\n      mstore\n      keccak256(0x00, 0x20)\n      swap1\n      0x0c\n      mul\n      add\n        /* \"smartContract/contracts/3_Ballot.sol\":3735:3775  proposals[random_vote()].Votes_District4 */\n      0x06\n      add\n      0x00\n        /* \"smartContract/contracts/3_Ballot.sol\":3735:3780  proposals[random_vote()].Votes_District4 += 1 */\n      dup3\n      dup3\n      sload\n      tag_128\n      swap2\n      swap1\n      tag_90\n      jump\t// in\n    tag_128:\n      swap3\n      pop\n      pop\n      dup2\n      swap1\n      sstore\n      pop\n        /* \"smartContract/contracts/3_Ballot.sol\":3785:3786  1 */\n      0x01\n        /* \"smartContract/contracts/3_Ballot.sol\":3781:3783  d4 */\n      0x07\n      0x00\n        /* \"smartContract/contracts/3_Ballot.sol\":3781:3786  d4+=1 */\n      dup3\n      dup3\n      sload\n      tag_129\n      swap2\n      swap1\n      tag_83\n      jump\t// in\n    tag_129:\n      swap3\n      pop\n      pop\n      dup2\n      swap1\n      sstore\n      pop\n        /* \"smartContract/contracts/3_Ballot.sol\":3711:4220  if (sender.district==4){proposals[random_vote()].Votes_District4 += 1;d4+=1;}... */\n      jump(tag_130)\n    tag_123:\n        /* \"smartContract/contracts/3_Ballot.sol\":3823:3824  5 */\n      0x05\n        /* \"smartContract/contracts/3_Ballot.sol\":3806:3812  sender */\n      dup2\n        /* \"smartContract/contracts/3_Ballot.sol\":3806:3821  sender.district */\n      0x01\n      add\n      sload\n        /* \"smartContract/contracts/3_Ballot.sol\":3806:3824  sender.district==5 */\n      eq\n        /* \"smartContract/contracts/3_Ballot.sol\":3802:4220  if (sender.district==5){proposals[random_vote()].Votes_District5 += 1;d5+=1;}... */\n      iszero\n      tag_131\n      jumpi\n        /* \"smartContract/contracts/3_Ballot.sol\":3870:3871  1 */\n      0x01\n        /* \"smartContract/contracts/3_Ballot.sol\":3826:3835  proposals */\n      dup1\n        /* \"smartContract/contracts/3_Ballot.sol\":3836:3849  random_vote() */\n      tag_132\n        /* \"smartContract/contracts/3_Ballot.sol\":3836:3847  random_vote */\n      tag_81\n        /* \"smartContract/contracts/3_Ballot.sol\":3836:3849  random_vote() */\n      jump\t// in\n    tag_132:\n        /* \"smartContract/contracts/3_Ballot.sol\":3826:3850  proposals[random_vote()] */\n      dup2\n      sload\n      dup2\n      lt\n      tag_133\n      jumpi\n      tag_134\n      tag_87\n      jump\t// in\n    tag_134:\n    tag_133:\n      swap1\n      0x00\n      mstore\n      keccak256(0x00, 0x20)\n      swap1\n      0x0c\n      mul\n      add\n        /* \"smartContract/contracts/3_Ballot.sol\":3826:3866  proposals[random_vote()].Votes_District5 */\n      0x07\n      add\n      0x00\n        /* \"smartContract/contracts/3_Ballot.sol\":3826:3871  proposals[random_vote()].Votes_District5 += 1 */\n      dup3\n      dup3\n      sload\n      tag_136\n      swap2\n      swap1\n      tag_90\n      jump\t// in\n    tag_136:\n      swap3\n      pop\n      pop\n      dup2\n      swap1\n      sstore\n      pop\n        /* \"smartContract/contracts/3_Ballot.sol\":3876:3877  1 */\n      0x01\n        /* \"smartContract/contracts/3_Ballot.sol\":3872:3874  d5 */\n      0x08\n      0x00\n        /* \"smartContract/contracts/3_Ballot.sol\":3872:3877  d5+=1 */\n      dup3\n      dup3\n      sload\n      tag_137\n      swap2\n      swap1\n      tag_83\n      jump\t// in\n    tag_137:\n      swap3\n      pop\n      pop\n      dup2\n      swap1\n      sstore\n      pop\n        /* \"smartContract/contracts/3_Ballot.sol\":3802:4220  if (sender.district==5){proposals[random_vote()].Votes_District5 += 1;d5+=1;}... */\n      jump(tag_138)\n    tag_131:\n        /* \"smartContract/contracts/3_Ballot.sol\":3914:3915  6 */\n      0x06\n        /* \"smartContract/contracts/3_Ballot.sol\":3897:3903  sender */\n      dup2\n        /* \"smartContract/contracts/3_Ballot.sol\":3897:3912  sender.district */\n      0x01\n      add\n      sload\n        /* \"smartContract/contracts/3_Ballot.sol\":3897:3915  sender.district==6 */\n      eq\n        /* \"smartContract/contracts/3_Ballot.sol\":3893:4220  if (sender.district==6){proposals[random_vote()].Votes_District6 += 1;d6+=1;}... */\n      iszero\n      tag_139\n      jumpi\n        /* \"smartContract/contracts/3_Ballot.sol\":3961:3962  1 */\n      0x01\n        /* \"smartContract/contracts/3_Ballot.sol\":3917:3926  proposals */\n      dup1\n        /* \"smartContract/contracts/3_Ballot.sol\":3927:3940  random_vote() */\n      tag_140\n        /* \"smartContract/contracts/3_Ballot.sol\":3927:3938  random_vote */\n      tag_81\n        /* \"smartContract/contracts/3_Ballot.sol\":3927:3940  random_vote() */\n      jump\t// in\n    tag_140:\n        /* \"smartContract/contracts/3_Ballot.sol\":3917:3941  proposals[random_vote()] */\n      dup2\n      sload\n      dup2\n      lt\n      tag_141\n      jumpi\n      tag_142\n      tag_87\n      jump\t// in\n    tag_142:\n    tag_141:\n      swap1\n      0x00\n      mstore\n      keccak256(0x00, 0x20)\n      swap1\n      0x0c\n      mul\n      add\n        /* \"smartContract/contracts/3_Ballot.sol\":3917:3957  proposals[random_vote()].Votes_District6 */\n      0x08\n      add\n      0x00\n        /* \"smartContract/contracts/3_Ballot.sol\":3917:3962  proposals[random_vote()].Votes_District6 += 1 */\n      dup3\n      dup3\n      sload\n      tag_144\n      swap2\n      swap1\n      tag_90\n      jump\t// in\n    tag_144:\n      swap3\n      pop\n      pop\n      dup2\n      swap1\n      sstore\n      pop\n        /* \"smartContract/contracts/3_Ballot.sol\":3967:3968  1 */\n      0x01\n        /* \"smartContract/contracts/3_Ballot.sol\":3963:3965  d6 */\n      0x09\n      0x00\n        /* \"smartContract/contracts/3_Ballot.sol\":3963:3968  d6+=1 */\n      dup3\n      dup3\n      sload\n      tag_145\n      swap2\n      swap1\n      tag_83\n      jump\t// in\n    tag_145:\n      swap3\n      pop\n      pop\n      dup2\n      swap1\n      sstore\n      pop\n        /* \"smartContract/contracts/3_Ballot.sol\":3893:4220  if (sender.district==6){proposals[random_vote()].Votes_District6 += 1;d6+=1;}... */\n      jump(tag_146)\n    tag_139:\n        /* \"smartContract/contracts/3_Ballot.sol\":4005:4006  7 */\n      0x07\n        /* \"smartContract/contracts/3_Ballot.sol\":3988:3994  sender */\n      dup2\n        /* \"smartContract/contracts/3_Ballot.sol\":3988:4003  sender.district */\n      0x01\n      add\n      sload\n        /* \"smartContract/contracts/3_Ballot.sol\":3988:4006  sender.district==7 */\n      eq\n        /* \"smartContract/contracts/3_Ballot.sol\":3984:4220  if (sender.district==7){proposals[random_vote()].Votes_District7 += 1;d7+=1;}... */\n      iszero\n      tag_147\n      jumpi\n        /* \"smartContract/contracts/3_Ballot.sol\":4052:4053  1 */\n      0x01\n        /* \"smartContract/contracts/3_Ballot.sol\":4008:4017  proposals */\n      dup1\n        /* \"smartContract/contracts/3_Ballot.sol\":4018:4031  random_vote() */\n      tag_148\n        /* \"smartContract/contracts/3_Ballot.sol\":4018:4029  random_vote */\n      tag_81\n        /* \"smartContract/contracts/3_Ballot.sol\":4018:4031  random_vote() */\n      jump\t// in\n    tag_148:\n        /* \"smartContract/contracts/3_Ballot.sol\":4008:4032  proposals[random_vote()] */\n      dup2\n      sload\n      dup2\n      lt\n      tag_149\n      jumpi\n      tag_150\n      tag_87\n      jump\t// in\n    tag_150:\n    tag_149:\n      swap1\n      0x00\n      mstore\n      keccak256(0x00, 0x20)\n      swap1\n      0x0c\n      mul\n      add\n        /* \"smartContract/contracts/3_Ballot.sol\":4008:4048  proposals[random_vote()].Votes_District7 */\n      0x09\n      add\n      0x00\n        /* \"smartContract/contracts/3_Ballot.sol\":4008:4053  proposals[random_vote()].Votes_District7 += 1 */\n      dup3\n      dup3\n      sload\n      tag_152\n      swap2\n      swap1\n      tag_90\n      jump\t// in\n    tag_152:\n      swap3\n      pop\n      pop\n      dup2\n      swap1\n      sstore\n      pop\n        /* \"smartContract/contracts/3_Ballot.sol\":4058:4059  1 */\n      0x01\n        /* \"smartContract/contracts/3_Ballot.sol\":4054:4056  d7 */\n      0x0a\n      0x00\n        /* \"smartContract/contracts/3_Ballot.sol\":4054:4059  d7+=1 */\n      dup3\n      dup3\n      sload\n      tag_153\n      swap2\n      swap1\n      tag_83\n      jump\t// in\n    tag_153:\n      swap3\n      pop\n      pop\n      dup2\n      swap1\n      sstore\n      pop\n        /* \"smartContract/contracts/3_Ballot.sol\":3984:4220  if (sender.district==7){proposals[random_vote()].Votes_District7 += 1;d7+=1;}... */\n      jump(tag_154)\n    tag_147:\n        /* \"smartContract/contracts/3_Ballot.sol\":4096:4097  8 */\n      0x08\n        /* \"smartContract/contracts/3_Ballot.sol\":4079:4085  sender */\n      dup2\n        /* \"smartContract/contracts/3_Ballot.sol\":4079:4094  sender.district */\n      0x01\n      add\n      sload\n        /* \"smartContract/contracts/3_Ballot.sol\":4079:4097  sender.district==8 */\n      eq\n        /* \"smartContract/contracts/3_Ballot.sol\":4075:4220  if (sender.district==8){proposals[random_vote()].Votes_District8 += 1;d8+=1;}... */\n      iszero\n      tag_155\n      jumpi\n        /* \"smartContract/contracts/3_Ballot.sol\":4143:4144  1 */\n      0x01\n        /* \"smartContract/contracts/3_Ballot.sol\":4099:4108  proposals */\n      dup1\n        /* \"smartContract/contracts/3_Ballot.sol\":4109:4122  random_vote() */\n      tag_156\n        /* \"smartContract/contracts/3_Ballot.sol\":4109:4120  random_vote */\n      tag_81\n        /* \"smartContract/contracts/3_Ballot.sol\":4109:4122  random_vote() */\n      jump\t// in\n    tag_156:\n        /* \"smartContract/contracts/3_Ballot.sol\":4099:4123  proposals[random_vote()] */\n      dup2\n      sload\n      dup2\n      lt\n      tag_157\n      jumpi\n      tag_158\n      tag_87\n      jump\t// in\n    tag_158:\n    tag_157:\n      swap1\n      0x00\n      mstore\n      keccak256(0x00, 0x20)\n      swap1\n      0x0c\n      mul\n      add\n        /* \"smartContract/contracts/3_Ballot.sol\":4099:4139  proposals[random_vote()].Votes_District8 */\n      0x0a\n      add\n      0x00\n        /* \"smartContract/contracts/3_Ballot.sol\":4099:4144  proposals[random_vote()].Votes_District8 += 1 */\n      dup3\n      dup3\n      sload\n      tag_160\n      swap2\n      swap1\n      tag_90\n      jump\t// in\n    tag_160:\n      swap3\n      pop\n      pop\n      dup2\n      swap1\n      sstore\n      pop\n        /* \"smartContract/contracts/3_Ballot.sol\":4149:4150  1 */\n      0x01\n        /* \"smartContract/contracts/3_Ballot.sol\":4145:4147  d8 */\n      0x0b\n      0x00\n        /* \"smartContract/contracts/3_Ballot.sol\":4145:4150  d8+=1 */\n      dup3\n      dup3\n      sload\n      tag_161\n      swap2\n      swap1\n      tag_83\n      jump\t// in\n    tag_161:\n      swap3\n      pop\n      pop\n      dup2\n      swap1\n      sstore\n      pop\n        /* \"smartContract/contracts/3_Ballot.sol\":4075:4220  if (sender.district==8){proposals[random_vote()].Votes_District8 += 1;d8+=1;}... */\n      jump(tag_162)\n    tag_155:\n        /* \"smartContract/contracts/3_Ballot.sol\":4211:4212  1 */\n      0x01\n        /* \"smartContract/contracts/3_Ballot.sol\":4167:4176  proposals */\n      dup1\n        /* \"smartContract/contracts/3_Ballot.sol\":4177:4190  random_vote() */\n      tag_163\n        /* \"smartContract/contracts/3_Ballot.sol\":4177:4188  random_vote */\n      tag_81\n        /* \"smartContract/contracts/3_Ballot.sol\":4177:4190  random_vote() */\n      jump\t// in\n    tag_163:\n        /* \"smartContract/contracts/3_Ballot.sol\":4167:4191  proposals[random_vote()] */\n      dup2\n      sload\n      dup2\n      lt\n      tag_164\n      jumpi\n      tag_165\n      tag_87\n      jump\t// in\n    tag_165:\n    tag_164:\n      swap1\n      0x00\n      mstore\n      keccak256(0x00, 0x20)\n      swap1\n      0x0c\n      mul\n      add\n        /* \"smartContract/contracts/3_Ballot.sol\":4167:4207  proposals[random_vote()].Votes_District9 */\n      0x0b\n      add\n      0x00\n        /* \"smartContract/contracts/3_Ballot.sol\":4167:4212  proposals[random_vote()].Votes_District9 += 1 */\n      dup3\n      dup3\n      sload\n      tag_167\n      swap2\n      swap1\n      tag_90\n      jump\t// in\n    tag_167:\n      swap3\n      pop\n      pop\n      dup2\n      swap1\n      sstore\n      pop\n        /* \"smartContract/contracts/3_Ballot.sol\":4217:4218  1 */\n      0x01\n        /* \"smartContract/contracts/3_Ballot.sol\":4213:4215  d9 */\n      0x0c\n      0x00\n        /* \"smartContract/contracts/3_Ballot.sol\":4213:4218  d9+=1 */\n      dup3\n      dup3\n      sload\n      tag_168\n      swap2\n      swap1\n      tag_83\n      jump\t// in\n    tag_168:\n      swap3\n      pop\n      pop\n      dup2\n      swap1\n      sstore\n      pop\n        /* \"smartContract/contracts/3_Ballot.sol\":4075:4220  if (sender.district==8){proposals[random_vote()].Votes_District8 += 1;d8+=1;}... */\n    tag_162:\n        /* \"smartContract/contracts/3_Ballot.sol\":3984:4220  if (sender.district==7){proposals[random_vote()].Votes_District7 += 1;d7+=1;}... */\n    tag_154:\n        /* \"smartContract/contracts/3_Ballot.sol\":3893:4220  if (sender.district==6){proposals[random_vote()].Votes_District6 += 1;d6+=1;}... */\n    tag_146:\n        /* \"smartContract/contracts/3_Ballot.sol\":3802:4220  if (sender.district==5){proposals[random_vote()].Votes_District5 += 1;d5+=1;}... */\n    tag_138:\n        /* \"smartContract/contracts/3_Ballot.sol\":3711:4220  if (sender.district==4){proposals[random_vote()].Votes_District4 += 1;d4+=1;}... */\n    tag_130:\n        /* \"smartContract/contracts/3_Ballot.sol\":3620:4220  if (sender.district==3){proposals[random_vote()].Votes_District3 += 1;d3+=1;}... */\n    tag_122:\n        /* \"smartContract/contracts/3_Ballot.sol\":3529:4220  if (sender.district==2){proposals[random_vote()].Votes_District2 += 1;d2+=1;}... */\n    tag_114:\n        /* \"smartContract/contracts/3_Ballot.sol\":3438:4220  if (sender.district==1){proposals[random_vote()].Votes_District1 += 1;d1+=1;}... */\n    tag_106:\n        /* \"smartContract/contracts/3_Ballot.sol\":3347:4220  if (sender.district==0){proposals[random_vote()].Votes_District0 += 1;d0+=1;}... */\n    tag_98:\n        /* \"smartContract/contracts/3_Ballot.sol\":2880:4226  {... */\n      pop\n        /* \"smartContract/contracts/3_Ballot.sol\":2857:4226  function vote() public {... */\n      jump\t// out\n        /* \"smartContract/contracts/3_Ballot.sol\":1700:1721  int public countV = 0 */\n    tag_33:\n      sload(0x02)\n      dup2\n      jump\t// out\n        /* \"smartContract/contracts/3_Ballot.sol\":1901:1918  int public d2 = 0 */\n    tag_36:\n      sload(0x05)\n      dup2\n      jump\t// out\n        /* \"smartContract/contracts/3_Ballot.sol\":2016:2033  int public d7 = 0 */\n    tag_39:\n      sload(0x0a)\n      dup2\n      jump\t// out\n        /* \"smartContract/contracts/3_Ballot.sol\":1947:1964  int public d4 = 0 */\n    tag_42:\n      sload(0x07)\n      dup2\n      jump\t// out\n        /* \"smartContract/contracts/3_Ballot.sol\":2039:2056  int public d8 = 0 */\n    tag_45:\n      sload(0x0b)\n      dup2\n      jump\t// out\n        /* \"smartContract/contracts/3_Ballot.sol\":1878:1895  int public d1 = 0 */\n    tag_48:\n      sload(0x04)\n      dup2\n      jump\t// out\n        /* \"smartContract/contracts/3_Ballot.sol\":686:725  mapping(address => Voter) public voters */\n    tag_53:\n      mstore(0x20, 0x00)\n      dup1\n      0x00\n      mstore\n      keccak256(0x00, 0x40)\n      0x00\n      swap2\n      pop\n      swap1\n      pop\n      dup1\n      0x00\n      add\n      0x00\n      swap1\n      sload\n      swap1\n      0x0100\n      exp\n      swap1\n      div\n      0xff\n      and\n      swap1\n      dup1\n      0x01\n      add\n      sload\n      swap1\n      dup1\n      0x02\n      add\n      sload\n      swap1\n      pop\n      dup4\n      jump\t// out\n        /* \"smartContract/contracts/3_Ballot.sol\":1855:1872  int public d0 = 0 */\n    tag_57:\n      sload(0x03)\n      dup2\n      jump\t// out\n        /* \"smartContract/contracts/3_Ballot.sol\":2062:2079  int public d9 = 0 */\n    tag_60:\n      sload(0x0c)\n      dup2\n      jump\t// out\n        /* \"smartContract/contracts/3_Ballot.sol\":4232:4329  function res(uint _id) public view returns(Proposal memory){... */\n    tag_65:\n        /* \"smartContract/contracts/3_Ballot.sol\":4275:4290  Proposal memory */\n      tag_169\n      tag_170\n      jump\t// in\n    tag_169:\n        /* \"smartContract/contracts/3_Ballot.sol\":4308:4317  proposals */\n      0x01\n        /* \"smartContract/contracts/3_Ballot.sol\":4318:4321  _id */\n      dup3\n        /* \"smartContract/contracts/3_Ballot.sol\":4308:4322  proposals[_id] */\n      dup2\n      sload\n      dup2\n      lt\n      tag_172\n      jumpi\n      tag_173\n      tag_87\n      jump\t// in\n    tag_173:\n    tag_172:\n      swap1\n      0x00\n      mstore\n      keccak256(0x00, 0x20)\n      swap1\n      0x0c\n      mul\n      add\n        /* \"smartContract/contracts/3_Ballot.sol\":4301:4322  return proposals[_id] */\n      mload(0x40)\n      dup1\n      0x0180\n      add\n      0x40\n      mstore\n      swap1\n      dup2\n      0x00\n      dup3\n      add\n      dup1\n      sload\n      tag_175\n      swap1\n      tag_176\n      jump\t// in\n    tag_175:\n      dup1\n      0x1f\n      add\n      0x20\n      dup1\n      swap2\n      div\n      mul\n      0x20\n      add\n      mload(0x40)\n      swap1\n      dup2\n      add\n      0x40\n      mstore\n      dup1\n      swap3\n      swap2\n      swap1\n      dup2\n      dup2\n      mstore\n      0x20\n      add\n      dup3\n      dup1\n      sload\n      tag_177\n      swap1\n      tag_176\n      jump\t// in\n    tag_177:\n      dup1\n      iszero\n      tag_178\n      jumpi\n      dup1\n      0x1f\n      lt\n      tag_179\n      jumpi\n      0x0100\n      dup1\n      dup4\n      sload\n      div\n      mul\n      dup4\n      mstore\n      swap2\n      0x20\n      add\n      swap2\n      jump(tag_178)\n    tag_179:\n      dup3\n      add\n      swap2\n      swap1\n      0x00\n      mstore\n      keccak256(0x00, 0x20)\n      swap1\n    tag_180:\n      dup2\n      sload\n      dup2\n      mstore\n      swap1\n      0x01\n      add\n      swap1\n      0x20\n      add\n      dup1\n      dup4\n      gt\n      tag_180\n      jumpi\n      dup3\n      swap1\n      sub\n      0x1f\n      and\n      dup3\n      add\n      swap2\n    tag_178:\n      pop\n      pop\n      pop\n      pop\n      pop\n      dup2\n      mstore\n      0x20\n      add\n      0x01\n      dup3\n      add\n      sload\n      dup2\n      mstore\n      0x20\n      add\n      0x02\n      dup3\n      add\n      sload\n      dup2\n      mstore\n      0x20\n      add\n      0x03\n      dup3\n      add\n      sload\n      dup2\n      mstore\n      0x20\n      add\n      0x04\n      dup3\n      add\n      sload\n      dup2\n      mstore\n      0x20\n      add\n      0x05\n      dup3\n      add\n      sload\n      dup2\n      mstore\n      0x20\n      add\n      0x06\n      dup3\n      add\n      sload\n      dup2\n      mstore\n      0x20\n      add\n      0x07\n      dup3\n      add\n      sload\n      dup2\n      mstore\n      0x20\n      add\n      0x08\n      dup3\n      add\n      sload\n      dup2\n      mstore\n      0x20\n      add\n      0x09\n      dup3\n      add\n      sload\n      dup2\n      mstore\n      0x20\n      add\n      0x0a\n      dup3\n      add\n      sload\n      dup2\n      mstore\n      0x20\n      add\n      0x0b\n      dup3\n      add\n      sload\n      dup2\n      mstore\n      pop\n      pop\n      swap1\n      pop\n        /* \"smartContract/contracts/3_Ballot.sol\":4232:4329  function res(uint _id) public view returns(Proposal memory){... */\n      swap2\n      swap1\n      pop\n      jump\t// out\n        /* \"smartContract/contracts/3_Ballot.sol\":772:943  function random_district() private view returns(uint){... */\n    tag_76:\n        /* \"smartContract/contracts/3_Ballot.sol\":820:824  uint */\n      0x00\n        /* \"smartContract/contracts/3_Ballot.sol\":934:936  10 */\n      0x0a\n        /* \"smartContract/contracts/3_Ballot.sol\":874:889  block.timestamp */\n      timestamp\n        /* \"smartContract/contracts/3_Ballot.sol\":890:906  block.difficulty */\n      difficulty\n        /* \"smartContract/contracts/3_Ballot.sol\":918:928  msg.sender */\n      caller\n        /* \"smartContract/contracts/3_Ballot.sol\":857:929  abi.encodePacked(block.timestamp,block.difficulty,  ... */\n      add(0x20, mload(0x40))\n      tag_182\n      swap4\n      swap3\n      swap2\n      swap1\n      tag_183\n      jump\t// in\n    tag_182:\n      mload(0x40)\n      0x20\n      dup2\n      dup4\n      sub\n      sub\n      dup2\n      mstore\n      swap1\n      0x40\n      mstore\n        /* \"smartContract/contracts/3_Ballot.sol\":847:930  keccak256(abi.encodePacked(block.timestamp,block.difficulty,  ... */\n      dup1\n      mload\n      swap1\n      0x20\n      add\n      keccak256\n        /* \"smartContract/contracts/3_Ballot.sol\":842:931  uint(keccak256(abi.encodePacked(block.timestamp,block.difficulty,  ... */\n      0x00\n      shr\n        /* \"smartContract/contracts/3_Ballot.sol\":842:936  uint(keccak256(abi.encodePacked(block.timestamp,block.difficulty,  ... */\n      tag_184\n      swap2\n      swap1\n      tag_185\n      jump\t// in\n    tag_184:\n        /* \"smartContract/contracts/3_Ballot.sol\":835:936  return uint(keccak256(abi.encodePacked(block.timestamp,block.difficulty,  ... */\n      swap1\n      pop\n        /* \"smartContract/contracts/3_Ballot.sol\":772:943  function random_district() private view returns(uint){... */\n      swap1\n      jump\t// out\n        /* \"smartContract/contracts/3_Ballot.sol\":2677:2851  function random_vote() private view returns(uint){... */\n    tag_81:\n        /* \"smartContract/contracts/3_Ballot.sol\":2721:2725  uint */\n      0x00\n        /* \"smartContract/contracts/3_Ballot.sol\":2843:2844  5 */\n      0x05\n        /* \"smartContract/contracts/3_Ballot.sol\":2779:2794  block.timestamp */\n      timestamp\n        /* \"smartContract/contracts/3_Ballot.sol\":2795:2811  block.difficulty */\n      difficulty\n        /* \"smartContract/contracts/3_Ballot.sol\":2827:2837  msg.sender */\n      caller\n        /* \"smartContract/contracts/3_Ballot.sol\":2762:2838  abi.encodePacked(block.timestamp,block.difficulty,  ... */\n      add(0x20, mload(0x40))\n      tag_187\n      swap4\n      swap3\n      swap2\n      swap1\n      tag_183\n      jump\t// in\n    tag_187:\n      mload(0x40)\n      0x20\n      dup2\n      dup4\n      sub\n      sub\n      dup2\n      mstore\n      swap1\n      0x40\n      mstore\n        /* \"smartContract/contracts/3_Ballot.sol\":2752:2839  keccak256(abi.encodePacked(block.timestamp,block.difficulty,  ... */\n      dup1\n      mload\n      swap1\n      0x20\n      add\n      keccak256\n        /* \"smartContract/contracts/3_Ballot.sol\":2747:2840  uint(keccak256(abi.encodePacked(block.timestamp,block.difficulty,  ... */\n      0x00\n      shr\n        /* \"smartContract/contracts/3_Ballot.sol\":2747:2844  uint(keccak256(abi.encodePacked(block.timestamp,block.difficulty,  ... */\n      tag_188\n      swap2\n      swap1\n      tag_185\n      jump\t// in\n    tag_188:\n        /* \"smartContract/contracts/3_Ballot.sol\":2740:2844  return uint(keccak256(abi.encodePacked(block.timestamp,block.difficulty,  ... */\n      swap1\n      pop\n        /* \"smartContract/contracts/3_Ballot.sol\":2677:2851  function random_vote() private view returns(uint){... */\n      swap1\n      jump\t// out\n    tag_170:\n      mload(0x40)\n      dup1\n      0x0180\n      add\n      0x40\n      mstore\n      dup1\n      0x60\n      dup2\n      mstore\n      0x20\n      add\n      0x00\n      dup2\n      mstore\n      0x20\n      add\n      0x00\n      dup2\n      mstore\n      0x20\n      add\n      0x00\n      dup2\n      mstore\n      0x20\n      add\n      0x00\n      dup2\n      mstore\n      0x20\n      add\n      0x00\n      dup2\n      mstore\n      0x20\n      add\n      0x00\n      dup2\n      mstore\n      0x20\n      add\n      0x00\n      dup2\n      mstore\n      0x20\n      add\n      0x00\n      dup2\n      mstore\n      0x20\n      add\n      0x00\n      dup2\n      mstore\n      0x20\n      add\n      0x00\n      dup2\n      mstore\n      0x20\n      add\n      0x00\n      dup2\n      mstore\n      pop\n      swap1\n      jump\t// out\n        /* \"#utility.yul\":7:146   */\n    tag_190:\n        /* \"#utility.yul\":53:58   */\n      0x00\n        /* \"#utility.yul\":91:97   */\n      dup2\n        /* \"#utility.yul\":78:98   */\n      calldataload\n        /* \"#utility.yul\":69:98   */\n      swap1\n      pop\n        /* \"#utility.yul\":107:140   */\n      tag_192\n        /* \"#utility.yul\":134:139   */\n      dup2\n        /* \"#utility.yul\":107:140   */\n      tag_193\n      jump\t// in\n    tag_192:\n        /* \"#utility.yul\":7:146   */\n      swap3\n      swap2\n      pop\n      pop\n      jump\t// out\n        /* \"#utility.yul\":152:291   */\n    tag_194:\n        /* \"#utility.yul\":198:203   */\n      0x00\n        /* \"#utility.yul\":236:242   */\n      dup2\n        /* \"#utility.yul\":223:243   */\n      calldataload\n        /* \"#utility.yul\":214:243   */\n      swap1\n      pop\n        /* \"#utility.yul\":252:285   */\n      tag_196\n        /* \"#utility.yul\":279:284   */\n      dup2\n        /* \"#utility.yul\":252:285   */\n      tag_197\n      jump\t// in\n    tag_196:\n        /* \"#utility.yul\":152:291   */\n      swap3\n      swap2\n      pop\n      pop\n      jump\t// out\n        /* \"#utility.yul\":297:626   */\n    tag_52:\n        /* \"#utility.yul\":356:362   */\n      0x00\n        /* \"#utility.yul\":405:407   */\n      0x20\n        /* \"#utility.yul\":393:402   */\n      dup3\n        /* \"#utility.yul\":384:391   */\n      dup5\n        /* \"#utility.yul\":380:403   */\n      sub\n        /* \"#utility.yul\":376:408   */\n      slt\n        /* \"#utility.yul\":373:492   */\n      iszero\n      tag_199\n      jumpi\n        /* \"#utility.yul\":411:490   */\n      tag_200\n      tag_201\n      jump\t// in\n    tag_200:\n        /* \"#utility.yul\":373:492   */\n    tag_199:\n        /* \"#utility.yul\":531:532   */\n      0x00\n        /* \"#utility.yul\":556:609   */\n      tag_202\n        /* \"#utility.yul\":601:608   */\n      dup5\n        /* \"#utility.yul\":592:598   */\n      dup3\n        /* \"#utility.yul\":581:590   */\n      dup6\n        /* \"#utility.yul\":577:599   */\n      add\n        /* \"#utility.yul\":556:609   */\n      tag_190\n      jump\t// in\n    tag_202:\n        /* \"#utility.yul\":546:609   */\n      swap2\n      pop\n        /* \"#utility.yul\":502:619   */\n      pop\n        /* \"#utility.yul\":297:626   */\n      swap3\n      swap2\n      pop\n      pop\n      jump\t// out\n        /* \"#utility.yul\":632:961   */\n    tag_64:\n        /* \"#utility.yul\":691:697   */\n      0x00\n        /* \"#utility.yul\":740:742   */\n      0x20\n        /* \"#utility.yul\":728:737   */\n      dup3\n        /* \"#utility.yul\":719:726   */\n      dup5\n        /* \"#utility.yul\":715:738   */\n      sub\n        /* \"#utility.yul\":711:743   */\n      slt\n        /* \"#utility.yul\":708:827   */\n      iszero\n      tag_204\n      jumpi\n        /* \"#utility.yul\":746:825   */\n      tag_205\n      tag_201\n      jump\t// in\n    tag_205:\n        /* \"#utility.yul\":708:827   */\n    tag_204:\n        /* \"#utility.yul\":866:867   */\n      0x00\n        /* \"#utility.yul\":891:944   */\n      tag_206\n        /* \"#utility.yul\":936:943   */\n      dup5\n        /* \"#utility.yul\":927:933   */\n      dup3\n        /* \"#utility.yul\":916:925   */\n      dup6\n        /* \"#utility.yul\":912:934   */\n      add\n        /* \"#utility.yul\":891:944   */\n      tag_194\n      jump\t// in\n    tag_206:\n        /* \"#utility.yul\":881:944   */\n      swap2\n      pop\n        /* \"#utility.yul\":837:954   */\n      pop\n        /* \"#utility.yul\":632:961   */\n      swap3\n      swap2\n      pop\n      pop\n      jump\t// out\n        /* \"#utility.yul\":967:1124   */\n    tag_207:\n        /* \"#utility.yul\":1072:1117   */\n      tag_209\n        /* \"#utility.yul\":1092:1116   */\n      tag_210\n        /* \"#utility.yul\":1110:1115   */\n      dup3\n        /* \"#utility.yul\":1092:1116   */\n      tag_211\n      jump\t// in\n    tag_210:\n        /* \"#utility.yul\":1072:1117   */\n      tag_212\n      jump\t// in\n    tag_209:\n        /* \"#utility.yul\":1067:1070   */\n      dup3\n        /* \"#utility.yul\":1060:1118   */\n      mstore\n        /* \"#utility.yul\":967:1124   */\n      pop\n      pop\n      jump\t// out\n        /* \"#utility.yul\":1130:1239   */\n    tag_213:\n        /* \"#utility.yul\":1211:1232   */\n      tag_215\n        /* \"#utility.yul\":1226:1231   */\n      dup2\n        /* \"#utility.yul\":1211:1232   */\n      tag_216\n      jump\t// in\n    tag_215:\n        /* \"#utility.yul\":1206:1209   */\n      dup3\n        /* \"#utility.yul\":1199:1233   */\n      mstore\n        /* \"#utility.yul\":1130:1239   */\n      pop\n      pop\n      jump\t// out\n        /* \"#utility.yul\":1245:1360   */\n    tag_217:\n        /* \"#utility.yul\":1330:1353   */\n      tag_219\n        /* \"#utility.yul\":1347:1352   */\n      dup2\n        /* \"#utility.yul\":1330:1353   */\n      tag_220\n      jump\t// in\n    tag_219:\n        /* \"#utility.yul\":1325:1328   */\n      dup3\n        /* \"#utility.yul\":1318:1354   */\n      mstore\n        /* \"#utility.yul\":1245:1360   */\n      pop\n      pop\n      jump\t// out\n        /* \"#utility.yul\":1366:1710   */\n    tag_221:\n        /* \"#utility.yul\":1444:1447   */\n      0x00\n        /* \"#utility.yul\":1472:1511   */\n      tag_223\n        /* \"#utility.yul\":1505:1510   */\n      dup3\n        /* \"#utility.yul\":1472:1511   */\n      tag_224\n      jump\t// in\n    tag_223:\n        /* \"#utility.yul\":1527:1588   */\n      tag_225\n        /* \"#utility.yul\":1581:1587   */\n      dup2\n        /* \"#utility.yul\":1576:1579   */\n      dup6\n        /* \"#utility.yul\":1527:1588   */\n      tag_226\n      jump\t// in\n    tag_225:\n        /* \"#utility.yul\":1520:1588   */\n      swap4\n      pop\n        /* \"#utility.yul\":1597:1649   */\n      tag_227\n        /* \"#utility.yul\":1642:1648   */\n      dup2\n        /* \"#utility.yul\":1637:1640   */\n      dup6\n        /* \"#utility.yul\":1630:1634   */\n      0x20\n        /* \"#utility.yul\":1623:1628   */\n      dup7\n        /* \"#utility.yul\":1619:1635   */\n      add\n        /* \"#utility.yul\":1597:1649   */\n      tag_228\n      jump\t// in\n    tag_227:\n        /* \"#utility.yul\":1674:1703   */\n      tag_229\n        /* \"#utility.yul\":1696:1702   */\n      dup2\n        /* \"#utility.yul\":1674:1703   */\n      tag_230\n      jump\t// in\n    tag_229:\n        /* \"#utility.yul\":1669:1672   */\n      dup5\n        /* \"#utility.yul\":1665:1704   */\n      add\n        /* \"#utility.yul\":1658:1704   */\n      swap2\n      pop\n        /* \"#utility.yul\":1448:1710   */\n      pop\n        /* \"#utility.yul\":1366:1710   */\n      swap3\n      swap2\n      pop\n      pop\n      jump\t// out\n        /* \"#utility.yul\":1716:2082   */\n    tag_231:\n        /* \"#utility.yul\":1858:1861   */\n      0x00\n        /* \"#utility.yul\":1879:1946   */\n      tag_233\n        /* \"#utility.yul\":1943:1945   */\n      0x0e\n        /* \"#utility.yul\":1938:1941   */\n      dup4\n        /* \"#utility.yul\":1879:1946   */\n      tag_234\n      jump\t// in\n    tag_233:\n        /* \"#utility.yul\":1872:1946   */\n      swap2\n      pop\n        /* \"#utility.yul\":1955:2048   */\n      tag_235\n        /* \"#utility.yul\":2044:2047   */\n      dup3\n        /* \"#utility.yul\":1955:2048   */\n      tag_236\n      jump\t// in\n    tag_235:\n        /* \"#utility.yul\":2073:2075   */\n      0x20\n        /* \"#utility.yul\":2068:2071   */\n      dup3\n        /* \"#utility.yul\":2064:2076   */\n      add\n        /* \"#utility.yul\":2057:2076   */\n      swap1\n      pop\n        /* \"#utility.yul\":1716:2082   */\n      swap2\n      swap1\n      pop\n      jump\t// out\n        /* \"#utility.yul\":2088:2454   */\n    tag_237:\n        /* \"#utility.yul\":2230:2233   */\n      0x00\n        /* \"#utility.yul\":2251:2318   */\n      tag_239\n        /* \"#utility.yul\":2315:2317   */\n      0x18\n        /* \"#utility.yul\":2310:2313   */\n      dup4\n        /* \"#utility.yul\":2251:2318   */\n      tag_234\n      jump\t// in\n    tag_239:\n        /* \"#utility.yul\":2244:2318   */\n      swap2\n      pop\n        /* \"#utility.yul\":2327:2420   */\n      tag_240\n        /* \"#utility.yul\":2416:2419   */\n      dup3\n        /* \"#utility.yul\":2327:2420   */\n      tag_241\n      jump\t// in\n    tag_240:\n        /* \"#utility.yul\":2445:2447   */\n      0x20\n        /* \"#utility.yul\":2440:2443   */\n      dup3\n        /* \"#utility.yul\":2436:2448   */\n      add\n        /* \"#utility.yul\":2429:2448   */\n      swap1\n      pop\n        /* \"#utility.yul\":2088:2454   */\n      swap2\n      swap1\n      pop\n      jump\t// out\n        /* \"#utility.yul\":2460:2826   */\n    tag_242:\n        /* \"#utility.yul\":2602:2605   */\n      0x00\n        /* \"#utility.yul\":2623:2690   */\n      tag_244\n        /* \"#utility.yul\":2687:2689   */\n      0x13\n        /* \"#utility.yul\":2682:2685   */\n      dup4\n        /* \"#utility.yul\":2623:2690   */\n      tag_234\n      jump\t// in\n    tag_244:\n        /* \"#utility.yul\":2616:2690   */\n      swap2\n      pop\n        /* \"#utility.yul\":2699:2792   */\n      tag_245\n        /* \"#utility.yul\":2788:2791   */\n      dup3\n        /* \"#utility.yul\":2699:2792   */\n      tag_246\n      jump\t// in\n    tag_245:\n        /* \"#utility.yul\":2817:2819   */\n      0x20\n        /* \"#utility.yul\":2812:2815   */\n      dup3\n        /* \"#utility.yul\":2808:2820   */\n      add\n        /* \"#utility.yul\":2801:2820   */\n      swap1\n      pop\n        /* \"#utility.yul\":2460:2826   */\n      swap2\n      swap1\n      pop\n      jump\t// out\n        /* \"#utility.yul\":2888:5367   */\n    tag_247:\n        /* \"#utility.yul\":3005:3008   */\n      0x00\n        /* \"#utility.yul\":3041:3047   */\n      0x0180\n        /* \"#utility.yul\":3036:3039   */\n      dup4\n        /* \"#utility.yul\":3032:3048   */\n      add\n        /* \"#utility.yul\":3130:3134   */\n      0x00\n        /* \"#utility.yul\":3123:3128   */\n      dup4\n        /* \"#utility.yul\":3119:3135   */\n      add\n        /* \"#utility.yul\":3113:3136   */\n      mload\n        /* \"#utility.yul\":3183:3186   */\n      dup5\n        /* \"#utility.yul\":3177:3181   */\n      dup3\n        /* \"#utility.yul\":3173:3187   */\n      sub\n        /* \"#utility.yul\":3166:3170   */\n      0x00\n        /* \"#utility.yul\":3161:3164   */\n      dup7\n        /* \"#utility.yul\":3157:3171   */\n      add\n        /* \"#utility.yul\":3150:3188   */\n      mstore\n        /* \"#utility.yul\":3209:3282   */\n      tag_249\n        /* \"#utility.yul\":3277:3281   */\n      dup3\n        /* \"#utility.yul\":3263:3275   */\n      dup3\n        /* \"#utility.yul\":3209:3282   */\n      tag_221\n      jump\t// in\n    tag_249:\n        /* \"#utility.yul\":3201:3282   */\n      swap2\n      pop\n        /* \"#utility.yul\":3058:3293   */\n      pop\n        /* \"#utility.yul\":3382:3386   */\n      0x20\n        /* \"#utility.yul\":3375:3380   */\n      dup4\n        /* \"#utility.yul\":3371:3387   */\n      add\n        /* \"#utility.yul\":3365:3388   */\n      mload\n        /* \"#utility.yul\":3401:3464   */\n      tag_250\n        /* \"#utility.yul\":3458:3462   */\n      0x20\n        /* \"#utility.yul\":3453:3456   */\n      dup7\n        /* \"#utility.yul\":3449:3463   */\n      add\n        /* \"#utility.yul\":3435:3447   */\n      dup3\n        /* \"#utility.yul\":3401:3464   */\n      tag_251\n      jump\t// in\n    tag_250:\n        /* \"#utility.yul\":3303:3474   */\n      pop\n        /* \"#utility.yul\":3567:3571   */\n      0x40\n        /* \"#utility.yul\":3560:3565   */\n      dup4\n        /* \"#utility.yul\":3556:3572   */\n      add\n        /* \"#utility.yul\":3550:3573   */\n      mload\n        /* \"#utility.yul\":3586:3649   */\n      tag_252\n        /* \"#utility.yul\":3643:3647   */\n      0x40\n        /* \"#utility.yul\":3638:3641   */\n      dup7\n        /* \"#utility.yul\":3634:3648   */\n      add\n        /* \"#utility.yul\":3620:3632   */\n      dup3\n        /* \"#utility.yul\":3586:3649   */\n      tag_251\n      jump\t// in\n    tag_252:\n        /* \"#utility.yul\":3484:3659   */\n      pop\n        /* \"#utility.yul\":3752:3756   */\n      0x60\n        /* \"#utility.yul\":3745:3750   */\n      dup4\n        /* \"#utility.yul\":3741:3757   */\n      add\n        /* \"#utility.yul\":3735:3758   */\n      mload\n        /* \"#utility.yul\":3771:3834   */\n      tag_253\n        /* \"#utility.yul\":3828:3832   */\n      0x60\n        /* \"#utility.yul\":3823:3826   */\n      dup7\n        /* \"#utility.yul\":3819:3833   */\n      add\n        /* \"#utility.yul\":3805:3817   */\n      dup3\n        /* \"#utility.yul\":3771:3834   */\n      tag_251\n      jump\t// in\n    tag_253:\n        /* \"#utility.yul\":3669:3844   */\n      pop\n        /* \"#utility.yul\":3937:3941   */\n      0x80\n        /* \"#utility.yul\":3930:3935   */\n      dup4\n        /* \"#utility.yul\":3926:3942   */\n      add\n        /* \"#utility.yul\":3920:3943   */\n      mload\n        /* \"#utility.yul\":3956:4019   */\n      tag_254\n        /* \"#utility.yul\":4013:4017   */\n      0x80\n        /* \"#utility.yul\":4008:4011   */\n      dup7\n        /* \"#utility.yul\":4004:4018   */\n      add\n        /* \"#utility.yul\":3990:4002   */\n      dup3\n        /* \"#utility.yul\":3956:4019   */\n      tag_251\n      jump\t// in\n    tag_254:\n        /* \"#utility.yul\":3854:4029   */\n      pop\n        /* \"#utility.yul\":4122:4126   */\n      0xa0\n        /* \"#utility.yul\":4115:4120   */\n      dup4\n        /* \"#utility.yul\":4111:4127   */\n      add\n        /* \"#utility.yul\":4105:4128   */\n      mload\n        /* \"#utility.yul\":4141:4204   */\n      tag_255\n        /* \"#utility.yul\":4198:4202   */\n      0xa0\n        /* \"#utility.yul\":4193:4196   */\n      dup7\n        /* \"#utility.yul\":4189:4203   */\n      add\n        /* \"#utility.yul\":4175:4187   */\n      dup3\n        /* \"#utility.yul\":4141:4204   */\n      tag_251\n      jump\t// in\n    tag_255:\n        /* \"#utility.yul\":4039:4214   */\n      pop\n        /* \"#utility.yul\":4307:4311   */\n      0xc0\n        /* \"#utility.yul\":4300:4305   */\n      dup4\n        /* \"#utility.yul\":4296:4312   */\n      add\n        /* \"#utility.yul\":4290:4313   */\n      mload\n        /* \"#utility.yul\":4326:4389   */\n      tag_256\n        /* \"#utility.yul\":4383:4387   */\n      0xc0\n        /* \"#utility.yul\":4378:4381   */\n      dup7\n        /* \"#utility.yul\":4374:4388   */\n      add\n        /* \"#utility.yul\":4360:4372   */\n      dup3\n        /* \"#utility.yul\":4326:4389   */\n      tag_251\n      jump\t// in\n    tag_256:\n        /* \"#utility.yul\":4224:4399   */\n      pop\n        /* \"#utility.yul\":4492:4496   */\n      0xe0\n        /* \"#utility.yul\":4485:4490   */\n      dup4\n        /* \"#utility.yul\":4481:4497   */\n      add\n        /* \"#utility.yul\":4475:4498   */\n      mload\n        /* \"#utility.yul\":4511:4574   */\n      tag_257\n        /* \"#utility.yul\":4568:4572   */\n      0xe0\n        /* \"#utility.yul\":4563:4566   */\n      dup7\n        /* \"#utility.yul\":4559:4573   */\n      add\n        /* \"#utility.yul\":4545:4557   */\n      dup3\n        /* \"#utility.yul\":4511:4574   */\n      tag_251\n      jump\t// in\n    tag_257:\n        /* \"#utility.yul\":4409:4584   */\n      pop\n        /* \"#utility.yul\":4677:4683   */\n      0x0100\n        /* \"#utility.yul\":4670:4675   */\n      dup4\n        /* \"#utility.yul\":4666:4684   */\n      add\n        /* \"#utility.yul\":4660:4685   */\n      mload\n        /* \"#utility.yul\":4698:4763   */\n      tag_258\n        /* \"#utility.yul\":4755:4761   */\n      0x0100\n        /* \"#utility.yul\":4750:4753   */\n      dup7\n        /* \"#utility.yul\":4746:4762   */\n      add\n        /* \"#utility.yul\":4732:4744   */\n      dup3\n        /* \"#utility.yul\":4698:4763   */\n      tag_251\n      jump\t// in\n    tag_258:\n        /* \"#utility.yul\":4594:4773   */\n      pop\n        /* \"#utility.yul\":4866:4872   */\n      0x0120\n        /* \"#utility.yul\":4859:4864   */\n      dup4\n        /* \"#utility.yul\":4855:4873   */\n      add\n        /* \"#utility.yul\":4849:4874   */\n      mload\n        /* \"#utility.yul\":4887:4952   */\n      tag_259\n        /* \"#utility.yul\":4944:4950   */\n      0x0120\n        /* \"#utility.yul\":4939:4942   */\n      dup7\n        /* \"#utility.yul\":4935:4951   */\n      add\n        /* \"#utility.yul\":4921:4933   */\n      dup3\n        /* \"#utility.yul\":4887:4952   */\n      tag_251\n      jump\t// in\n    tag_259:\n        /* \"#utility.yul\":4783:4962   */\n      pop\n        /* \"#utility.yul\":5055:5061   */\n      0x0140\n        /* \"#utility.yul\":5048:5053   */\n      dup4\n        /* \"#utility.yul\":5044:5062   */\n      add\n        /* \"#utility.yul\":5038:5063   */\n      mload\n        /* \"#utility.yul\":5076:5141   */\n      tag_260\n        /* \"#utility.yul\":5133:5139   */\n      0x0140\n        /* \"#utility.yul\":5128:5131   */\n      dup7\n        /* \"#utility.yul\":5124:5140   */\n      add\n        /* \"#utility.yul\":5110:5122   */\n      dup3\n        /* \"#utility.yul\":5076:5141   */\n      tag_251\n      jump\t// in\n    tag_260:\n        /* \"#utility.yul\":4972:5151   */\n      pop\n        /* \"#utility.yul\":5244:5250   */\n      0x0160\n        /* \"#utility.yul\":5237:5242   */\n      dup4\n        /* \"#utility.yul\":5233:5251   */\n      add\n        /* \"#utility.yul\":5227:5252   */\n      mload\n        /* \"#utility.yul\":5265:5330   */\n      tag_261\n        /* \"#utility.yul\":5322:5328   */\n      0x0160\n        /* \"#utility.yul\":5317:5320   */\n      dup7\n        /* \"#utility.yul\":5313:5329   */\n      add\n        /* \"#utility.yul\":5299:5311   */\n      dup3\n        /* \"#utility.yul\":5265:5330   */\n      tag_251\n      jump\t// in\n    tag_261:\n        /* \"#utility.yul\":5161:5340   */\n      pop\n        /* \"#utility.yul\":5357:5361   */\n      dup1\n        /* \"#utility.yul\":5350:5361   */\n      swap2\n      pop\n        /* \"#utility.yul\":3010:5367   */\n      pop\n        /* \"#utility.yul\":2888:5367   */\n      swap3\n      swap2\n      pop\n      pop\n      jump\t// out\n        /* \"#utility.yul\":5373:5481   */\n    tag_251:\n        /* \"#utility.yul\":5450:5474   */\n      tag_263\n        /* \"#utility.yul\":5468:5473   */\n      dup2\n        /* \"#utility.yul\":5450:5474   */\n      tag_264\n      jump\t// in\n    tag_263:\n        /* \"#utility.yul\":5445:5448   */\n      dup3\n        /* \"#utility.yul\":5438:5475   */\n      mstore\n        /* \"#utility.yul\":5373:5481   */\n      pop\n      pop\n      jump\t// out\n        /* \"#utility.yul\":5487:5605   */\n    tag_265:\n        /* \"#utility.yul\":5574:5598   */\n      tag_267\n        /* \"#utility.yul\":5592:5597   */\n      dup2\n        /* \"#utility.yul\":5574:5598   */\n      tag_264\n      jump\t// in\n    tag_267:\n        /* \"#utility.yul\":5569:5572   */\n      dup3\n        /* \"#utility.yul\":5562:5599   */\n      mstore\n        /* \"#utility.yul\":5487:5605   */\n      pop\n      pop\n      jump\t// out\n        /* \"#utility.yul\":5611:5768   */\n    tag_268:\n        /* \"#utility.yul\":5716:5761   */\n      tag_270\n        /* \"#utility.yul\":5736:5760   */\n      tag_271\n        /* \"#utility.yul\":5754:5759   */\n      dup3\n        /* \"#utility.yul\":5736:5760   */\n      tag_264\n      jump\t// in\n    tag_271:\n        /* \"#utility.yul\":5716:5761   */\n      tag_272\n      jump\t// in\n    tag_270:\n        /* \"#utility.yul\":5711:5714   */\n      dup3\n        /* \"#utility.yul\":5704:5762   */\n      mstore\n        /* \"#utility.yul\":5611:5768   */\n      pop\n      pop\n      jump\t// out\n        /* \"#utility.yul\":5774:6312   */\n    tag_183:\n        /* \"#utility.yul\":5942:5945   */\n      0x00\n        /* \"#utility.yul\":5957:6032   */\n      tag_274\n        /* \"#utility.yul\":6028:6031   */\n      dup3\n        /* \"#utility.yul\":6019:6025   */\n      dup7\n        /* \"#utility.yul\":5957:6032   */\n      tag_268\n      jump\t// in\n    tag_274:\n        /* \"#utility.yul\":6057:6059   */\n      0x20\n        /* \"#utility.yul\":6052:6055   */\n      dup3\n        /* \"#utility.yul\":6048:6060   */\n      add\n        /* \"#utility.yul\":6041:6060   */\n      swap2\n      pop\n        /* \"#utility.yul\":6070:6145   */\n      tag_275\n        /* \"#utility.yul\":6141:6144   */\n      dup3\n        /* \"#utility.yul\":6132:6138   */\n      dup6\n        /* \"#utility.yul\":6070:6145   */\n      tag_268\n      jump\t// in\n    tag_275:\n        /* \"#utility.yul\":6170:6172   */\n      0x20\n        /* \"#utility.yul\":6165:6168   */\n      dup3\n        /* \"#utility.yul\":6161:6173   */\n      add\n        /* \"#utility.yul\":6154:6173   */\n      swap2\n      pop\n        /* \"#utility.yul\":6183:6258   */\n      tag_276\n        /* \"#utility.yul\":6254:6257   */\n      dup3\n        /* \"#utility.yul\":6245:6251   */\n      dup5\n        /* \"#utility.yul\":6183:6258   */\n      tag_207\n      jump\t// in\n    tag_276:\n        /* \"#utility.yul\":6283:6285   */\n      0x14\n        /* \"#utility.yul\":6278:6281   */\n      dup3\n        /* \"#utility.yul\":6274:6286   */\n      add\n        /* \"#utility.yul\":6267:6286   */\n      swap2\n      pop\n        /* \"#utility.yul\":6303:6306   */\n      dup2\n        /* \"#utility.yul\":6296:6306   */\n      swap1\n      pop\n        /* \"#utility.yul\":5774:6312   */\n      swap5\n      swap4\n      pop\n      pop\n      pop\n      pop\n      jump\t// out\n        /* \"#utility.yul\":6318:6748   */\n    tag_55:\n        /* \"#utility.yul\":6461:6465   */\n      0x00\n        /* \"#utility.yul\":6499:6501   */\n      0x60\n        /* \"#utility.yul\":6488:6497   */\n      dup3\n        /* \"#utility.yul\":6484:6502   */\n      add\n        /* \"#utility.yul\":6476:6502   */\n      swap1\n      pop\n        /* \"#utility.yul\":6512:6577   */\n      tag_278\n        /* \"#utility.yul\":6574:6575   */\n      0x00\n        /* \"#utility.yul\":6563:6572   */\n      dup4\n        /* \"#utility.yul\":6559:6576   */\n      add\n        /* \"#utility.yul\":6550:6556   */\n      dup7\n        /* \"#utility.yul\":6512:6577   */\n      tag_213\n      jump\t// in\n    tag_278:\n        /* \"#utility.yul\":6587:6659   */\n      tag_279\n        /* \"#utility.yul\":6655:6657   */\n      0x20\n        /* \"#utility.yul\":6644:6653   */\n      dup4\n        /* \"#utility.yul\":6640:6658   */\n      add\n        /* \"#utility.yul\":6631:6637   */\n      dup6\n        /* \"#utility.yul\":6587:6659   */\n      tag_265\n      jump\t// in\n    tag_279:\n        /* \"#utility.yul\":6669:6741   */\n      tag_280\n        /* \"#utility.yul\":6737:6739   */\n      0x40\n        /* \"#utility.yul\":6726:6735   */\n      dup4\n        /* \"#utility.yul\":6722:6740   */\n      add\n        /* \"#utility.yul\":6713:6719   */\n      dup5\n        /* \"#utility.yul\":6669:6741   */\n      tag_265\n      jump\t// in\n    tag_280:\n        /* \"#utility.yul\":6318:6748   */\n      swap5\n      swap4\n      pop\n      pop\n      pop\n      pop\n      jump\t// out\n        /* \"#utility.yul\":6754:6972   */\n    tag_23:\n        /* \"#utility.yul\":6845:6849   */\n      0x00\n        /* \"#utility.yul\":6883:6885   */\n      0x20\n        /* \"#utility.yul\":6872:6881   */\n      dup3\n        /* \"#utility.yul\":6868:6886   */\n      add\n        /* \"#utility.yul\":6860:6886   */\n      swap1\n      pop\n        /* \"#utility.yul\":6896:6965   */\n      tag_282\n        /* \"#utility.yul\":6962:6963   */\n      0x00\n        /* \"#utility.yul\":6951:6960   */\n      dup4\n        /* \"#utility.yul\":6947:6964   */\n      add\n        /* \"#utility.yul\":6938:6944   */\n      dup5\n        /* \"#utility.yul\":6896:6965   */\n      tag_217\n      jump\t// in\n    tag_282:\n        /* \"#utility.yul\":6754:6972   */\n      swap3\n      swap2\n      pop\n      pop\n      jump\t// out\n        /* \"#utility.yul\":6978:7397   */\n    tag_79:\n        /* \"#utility.yul\":7144:7148   */\n      0x00\n        /* \"#utility.yul\":7182:7184   */\n      0x20\n        /* \"#utility.yul\":7171:7180   */\n      dup3\n        /* \"#utility.yul\":7167:7185   */\n      add\n        /* \"#utility.yul\":7159:7185   */\n      swap1\n      pop\n        /* \"#utility.yul\":7231:7240   */\n      dup2\n        /* \"#utility.yul\":7225:7229   */\n      dup2\n        /* \"#utility.yul\":7221:7241   */\n      sub\n        /* \"#utility.yul\":7217:7218   */\n      0x00\n        /* \"#utility.yul\":7206:7215   */\n      dup4\n        /* \"#utility.yul\":7202:7219   */\n      add\n        /* \"#utility.yul\":7195:7242   */\n      mstore\n        /* \"#utility.yul\":7259:7390   */\n      tag_284\n        /* \"#utility.yul\":7385:7389   */\n      dup2\n        /* \"#utility.yul\":7259:7390   */\n      tag_231\n      jump\t// in\n    tag_284:\n        /* \"#utility.yul\":7251:7390   */\n      swap1\n      pop\n        /* \"#utility.yul\":6978:7397   */\n      swap2\n      swap1\n      pop\n      jump\t// out\n        /* \"#utility.yul\":7403:7822   */\n    tag_71:\n        /* \"#utility.yul\":7569:7573   */\n      0x00\n        /* \"#utility.yul\":7607:7609   */\n      0x20\n        /* \"#utility.yul\":7596:7605   */\n      dup3\n        /* \"#utility.yul\":7592:7610   */\n      add\n        /* \"#utility.yul\":7584:7610   */\n      swap1\n      pop\n        /* \"#utility.yul\":7656:7665   */\n      dup2\n        /* \"#utility.yul\":7650:7654   */\n      dup2\n        /* \"#utility.yul\":7646:7666   */\n      sub\n        /* \"#utility.yul\":7642:7643   */\n      0x00\n        /* \"#utility.yul\":7631:7640   */\n      dup4\n        /* \"#utility.yul\":7627:7644   */\n      add\n        /* \"#utility.yul\":7620:7667   */\n      mstore\n        /* \"#utility.yul\":7684:7815   */\n      tag_286\n        /* \"#utility.yul\":7810:7814   */\n      dup2\n        /* \"#utility.yul\":7684:7815   */\n      tag_237\n      jump\t// in\n    tag_286:\n        /* \"#utility.yul\":7676:7815   */\n      swap1\n      pop\n        /* \"#utility.yul\":7403:7822   */\n      swap2\n      swap1\n      pop\n      jump\t// out\n        /* \"#utility.yul\":7828:8247   */\n    tag_74:\n        /* \"#utility.yul\":7994:7998   */\n      0x00\n        /* \"#utility.yul\":8032:8034   */\n      0x20\n        /* \"#utility.yul\":8021:8030   */\n      dup3\n        /* \"#utility.yul\":8017:8035   */\n      add\n        /* \"#utility.yul\":8009:8035   */\n      swap1\n      pop\n        /* \"#utility.yul\":8081:8090   */\n      dup2\n        /* \"#utility.yul\":8075:8079   */\n      dup2\n        /* \"#utility.yul\":8071:8091   */\n      sub\n        /* \"#utility.yul\":8067:8068   */\n      0x00\n        /* \"#utility.yul\":8056:8065   */\n      dup4\n        /* \"#utility.yul\":8052:8069   */\n      add\n        /* \"#utility.yul\":8045:8092   */\n      mstore\n        /* \"#utility.yul\":8109:8240   */\n      tag_288\n        /* \"#utility.yul\":8235:8239   */\n      dup2\n        /* \"#utility.yul\":8109:8240   */\n      tag_242\n      jump\t// in\n    tag_288:\n        /* \"#utility.yul\":8101:8240   */\n      swap1\n      pop\n        /* \"#utility.yul\":7828:8247   */\n      swap2\n      swap1\n      pop\n      jump\t// out\n        /* \"#utility.yul\":8253:8622   */\n    tag_67:\n        /* \"#utility.yul\":8394:8398   */\n      0x00\n        /* \"#utility.yul\":8432:8434   */\n      0x20\n        /* \"#utility.yul\":8421:8430   */\n      dup3\n        /* \"#utility.yul\":8417:8435   */\n      add\n        /* \"#utility.yul\":8409:8435   */\n      swap1\n      pop\n        /* \"#utility.yul\":8481:8490   */\n      dup2\n        /* \"#utility.yul\":8475:8479   */\n      dup2\n        /* \"#utility.yul\":8471:8491   */\n      sub\n        /* \"#utility.yul\":8467:8468   */\n      0x00\n        /* \"#utility.yul\":8456:8465   */\n      dup4\n        /* \"#utility.yul\":8452:8469   */\n      add\n        /* \"#utility.yul\":8445:8492   */\n      mstore\n        /* \"#utility.yul\":8509:8615   */\n      tag_290\n        /* \"#utility.yul\":8610:8614   */\n      dup2\n        /* \"#utility.yul\":8601:8607   */\n      dup5\n        /* \"#utility.yul\":8509:8615   */\n      tag_247\n      jump\t// in\n    tag_290:\n        /* \"#utility.yul\":8501:8615   */\n      swap1\n      pop\n        /* \"#utility.yul\":8253:8622   */\n      swap3\n      swap2\n      pop\n      pop\n      jump\t// out\n        /* \"#utility.yul\":8709:8808   */\n    tag_224:\n        /* \"#utility.yul\":8761:8767   */\n      0x00\n        /* \"#utility.yul\":8795:8800   */\n      dup2\n        /* \"#utility.yul\":8789:8801   */\n      mload\n        /* \"#utility.yul\":8779:8801   */\n      swap1\n      pop\n        /* \"#utility.yul\":8709:8808   */\n      swap2\n      swap1\n      pop\n      jump\t// out\n        /* \"#utility.yul\":8814:8973   */\n    tag_226:\n        /* \"#utility.yul\":8888:8899   */\n      0x00\n        /* \"#utility.yul\":8922:8928   */\n      dup3\n        /* \"#utility.yul\":8917:8920   */\n      dup3\n        /* \"#utility.yul\":8910:8929   */\n      mstore\n        /* \"#utility.yul\":8962:8966   */\n      0x20\n        /* \"#utility.yul\":8957:8960   */\n      dup3\n        /* \"#utility.yul\":8953:8967   */\n      add\n        /* \"#utility.yul\":8938:8967   */\n      swap1\n      pop\n        /* \"#utility.yul\":8814:8973   */\n      swap3\n      swap2\n      pop\n      pop\n      jump\t// out\n        /* \"#utility.yul\":8979:9148   */\n    tag_234:\n        /* \"#utility.yul\":9063:9074   */\n      0x00\n        /* \"#utility.yul\":9097:9103   */\n      dup3\n        /* \"#utility.yul\":9092:9095   */\n      dup3\n        /* \"#utility.yul\":9085:9104   */\n      mstore\n        /* \"#utility.yul\":9137:9141   */\n      0x20\n        /* \"#utility.yul\":9132:9135   */\n      dup3\n        /* \"#utility.yul\":9128:9142   */\n      add\n        /* \"#utility.yul\":9113:9142   */\n      swap1\n      pop\n        /* \"#utility.yul\":8979:9148   */\n      swap3\n      swap2\n      pop\n      pop\n      jump\t// out\n        /* \"#utility.yul\":9154:9679   */\n    tag_83:\n        /* \"#utility.yul\":9193:9196   */\n      0x00\n        /* \"#utility.yul\":9212:9231   */\n      tag_297\n        /* \"#utility.yul\":9229:9230   */\n      dup3\n        /* \"#utility.yul\":9212:9231   */\n      tag_220\n      jump\t// in\n    tag_297:\n        /* \"#utility.yul\":9207:9231   */\n      swap2\n      pop\n        /* \"#utility.yul\":9245:9264   */\n      tag_298\n        /* \"#utility.yul\":9262:9263   */\n      dup4\n        /* \"#utility.yul\":9245:9264   */\n      tag_220\n      jump\t// in\n    tag_298:\n        /* \"#utility.yul\":9240:9264   */\n      swap3\n      pop\n        /* \"#utility.yul\":9433:9434   */\n      dup2\n        /* \"#utility.yul\":9365:9431   */\n      0x7fffffffffffffffffffffffffffffffffffffffffffffffffffffffffffffff\n        /* \"#utility.yul\":9361:9435   */\n      sub\n        /* \"#utility.yul\":9358:9359   */\n      dup4\n        /* \"#utility.yul\":9354:9436   */\n      sgt\n        /* \"#utility.yul\":9349:9350   */\n      0x00\n        /* \"#utility.yul\":9346:9347   */\n      dup4\n        /* \"#utility.yul\":9342:9351   */\n      slt\n        /* \"#utility.yul\":9335:9352   */\n      iszero\n        /* \"#utility.yul\":9331:9437   */\n      and\n        /* \"#utility.yul\":9328:9460   */\n      iszero\n      tag_299\n      jumpi\n        /* \"#utility.yul\":9440:9458   */\n      tag_300\n      tag_301\n      jump\t// in\n    tag_300:\n        /* \"#utility.yul\":9328:9460   */\n    tag_299:\n        /* \"#utility.yul\":9620:9621   */\n      dup2\n        /* \"#utility.yul\":9552:9618   */\n      0x8000000000000000000000000000000000000000000000000000000000000000\n        /* \"#utility.yul\":9548:9622   */\n      sub\n        /* \"#utility.yul\":9545:9546   */\n      dup4\n        /* \"#utility.yul\":9541:9623   */\n      slt\n        /* \"#utility.yul\":9537:9538   */\n      0x00\n        /* \"#utility.yul\":9534:9535   */\n      dup4\n        /* \"#utility.yul\":9530:9539   */\n      slt\n        /* \"#utility.yul\":9526:9624   */\n      and\n        /* \"#utility.yul\":9523:9647   */\n      iszero\n      tag_302\n      jumpi\n        /* \"#utility.yul\":9627:9645   */\n      tag_303\n      tag_301\n      jump\t// in\n    tag_303:\n        /* \"#utility.yul\":9523:9647   */\n    tag_302:\n        /* \"#utility.yul\":9671:9672   */\n      dup3\n        /* \"#utility.yul\":9668:9669   */\n      dup3\n        /* \"#utility.yul\":9664:9673   */\n      add\n        /* \"#utility.yul\":9657:9673   */\n      swap1\n      pop\n        /* \"#utility.yul\":9154:9679   */\n      swap3\n      swap2\n      pop\n      pop\n      jump\t// out\n        /* \"#utility.yul\":9685:9990   */\n    tag_90:\n        /* \"#utility.yul\":9725:9728   */\n      0x00\n        /* \"#utility.yul\":9744:9764   */\n      tag_305\n        /* \"#utility.yul\":9762:9763   */\n      dup3\n        /* \"#utility.yul\":9744:9764   */\n      tag_264\n      jump\t// in\n    tag_305:\n        /* \"#utility.yul\":9739:9764   */\n      swap2\n      pop\n        /* \"#utility.yul\":9778:9798   */\n      tag_306\n        /* \"#utility.yul\":9796:9797   */\n      dup4\n        /* \"#utility.yul\":9778:9798   */\n      tag_264\n      jump\t// in\n    tag_306:\n        /* \"#utility.yul\":9773:9798   */\n      swap3\n      pop\n        /* \"#utility.yul\":9932:9933   */\n      dup3\n        /* \"#utility.yul\":9864:9930   */\n      0xffffffffffffffffffffffffffffffffffffffffffffffffffffffffffffffff\n        /* \"#utility.yul\":9860:9934   */\n      sub\n        /* \"#utility.yul\":9857:9858   */\n      dup3\n        /* \"#utility.yul\":9854:9935   */\n      gt\n        /* \"#utility.yul\":9851:9958   */\n      iszero\n      tag_307\n      jumpi\n        /* \"#utility.yul\":9938:9956   */\n      tag_308\n      tag_301\n      jump\t// in\n    tag_308:\n        /* \"#utility.yul\":9851:9958   */\n    tag_307:\n        /* \"#utility.yul\":9982:9983   */\n      dup3\n        /* \"#utility.yul\":9979:9980   */\n      dup3\n        /* \"#utility.yul\":9975:9984   */\n      add\n        /* \"#utility.yul\":9968:9984   */\n      swap1\n      pop\n        /* \"#utility.yul\":9685:9990   */\n      swap3\n      swap2\n      pop\n      pop\n      jump\t// out\n        /* \"#utility.yul\":9996:10092   */\n    tag_211:\n        /* \"#utility.yul\":10033:10040   */\n      0x00\n        /* \"#utility.yul\":10062:10086   */\n      tag_310\n        /* \"#utility.yul\":10080:10085   */\n      dup3\n        /* \"#utility.yul\":10062:10086   */\n      tag_311\n      jump\t// in\n    tag_310:\n        /* \"#utility.yul\":10051:10086   */\n      swap1\n      pop\n        /* \"#utility.yul\":9996:10092   */\n      swap2\n      swap1\n      pop\n      jump\t// out\n        /* \"#utility.yul\":10098:10188   */\n    tag_216:\n        /* \"#utility.yul\":10132:10139   */\n      0x00\n        /* \"#utility.yul\":10175:10180   */\n      dup2\n        /* \"#utility.yul\":10168:10181   */\n      iszero\n        /* \"#utility.yul\":10161:10182   */\n      iszero\n        /* \"#utility.yul\":10150:10182   */\n      swap1\n      pop\n        /* \"#utility.yul\":10098:10188   */\n      swap2\n      swap1\n      pop\n      jump\t// out\n        /* \"#utility.yul\":10194:10270   */\n    tag_220:\n        /* \"#utility.yul\":10230:10237   */\n      0x00\n        /* \"#utility.yul\":10259:10264   */\n      dup2\n        /* \"#utility.yul\":10248:10264   */\n      swap1\n      pop\n        /* \"#utility.yul\":10194:10270   */\n      swap2\n      swap1\n      pop\n      jump\t// out\n        /* \"#utility.yul\":10276:10402   */\n    tag_311:\n        /* \"#utility.yul\":10313:10320   */\n      0x00\n        /* \"#utility.yul\":10353:10395   */\n      0xffffffffffffffffffffffffffffffffffffffff\n        /* \"#utility.yul\":10346:10351   */\n      dup3\n        /* \"#utility.yul\":10342:10396   */\n      and\n        /* \"#utility.yul\":10331:10396   */\n      swap1\n      pop\n        /* \"#utility.yul\":10276:10402   */\n      swap2\n      swap1\n      pop\n      jump\t// out\n        /* \"#utility.yul\":10408:10485   */\n    tag_264:\n        /* \"#utility.yul\":10445:10452   */\n      0x00\n        /* \"#utility.yul\":10474:10479   */\n      dup2\n        /* \"#utility.yul\":10463:10479   */\n      swap1\n      pop\n        /* \"#utility.yul\":10408:10485   */\n      swap2\n      swap1\n      pop\n      jump\t// out\n        /* \"#utility.yul\":10491:10798   */\n    tag_228:\n        /* \"#utility.yul\":10559:10560   */\n      0x00\n        /* \"#utility.yul\":10569:10682   */\n    tag_317:\n        /* \"#utility.yul\":10583:10589   */\n      dup4\n        /* \"#utility.yul\":10580:10581   */\n      dup2\n        /* \"#utility.yul\":10577:10590   */\n      lt\n        /* \"#utility.yul\":10569:10682   */\n      iszero\n      tag_319\n      jumpi\n        /* \"#utility.yul\":10668:10669   */\n      dup1\n        /* \"#utility.yul\":10663:10666   */\n      dup3\n        /* \"#utility.yul\":10659:10670   */\n      add\n        /* \"#utility.yul\":10653:10671   */\n      mload\n        /* \"#utility.yul\":10649:10650   */\n      dup2\n        /* \"#utility.yul\":10644:10647   */\n      dup5\n        /* \"#utility.yul\":10640:10651   */\n      add\n        /* \"#utility.yul\":10633:10672   */\n      mstore\n        /* \"#utility.yul\":10605:10607   */\n      0x20\n        /* \"#utility.yul\":10602:10603   */\n      dup2\n        /* \"#utility.yul\":10598:10608   */\n      add\n        /* \"#utility.yul\":10593:10608   */\n      swap1\n      pop\n        /* \"#utility.yul\":10569:10682   */\n      jump(tag_317)\n    tag_319:\n        /* \"#utility.yul\":10700:10706   */\n      dup4\n        /* \"#utility.yul\":10697:10698   */\n      dup2\n        /* \"#utility.yul\":10694:10707   */\n      gt\n        /* \"#utility.yul\":10691:10792   */\n      iszero\n      tag_320\n      jumpi\n        /* \"#utility.yul\":10780:10781   */\n      0x00\n        /* \"#utility.yul\":10771:10777   */\n      dup5\n        /* \"#utility.yul\":10766:10769   */\n      dup5\n        /* \"#utility.yul\":10762:10778   */\n      add\n        /* \"#utility.yul\":10755:10782   */\n      mstore\n        /* \"#utility.yul\":10691:10792   */\n    tag_320:\n        /* \"#utility.yul\":10540:10798   */\n      pop\n        /* \"#utility.yul\":10491:10798   */\n      pop\n      pop\n      pop\n      jump\t// out\n        /* \"#utility.yul\":10804:11124   */\n    tag_176:\n        /* \"#utility.yul\":10848:10854   */\n      0x00\n        /* \"#utility.yul\":10885:10886   */\n      0x02\n        /* \"#utility.yul\":10879:10883   */\n      dup3\n        /* \"#utility.yul\":10875:10887   */\n      div\n        /* \"#utility.yul\":10865:10887   */\n      swap1\n      pop\n        /* \"#utility.yul\":10932:10933   */\n      0x01\n        /* \"#utility.yul\":10926:10930   */\n      dup3\n        /* \"#utility.yul\":10922:10934   */\n      and\n        /* \"#utility.yul\":10953:10971   */\n      dup1\n        /* \"#utility.yul\":10943:11024   */\n      tag_322\n      jumpi\n        /* \"#utility.yul\":11009:11013   */\n      0x7f\n        /* \"#utility.yul\":11001:11007   */\n      dup3\n        /* \"#utility.yul\":10997:11014   */\n      and\n        /* \"#utility.yul\":10987:11014   */\n      swap2\n      pop\n        /* \"#utility.yul\":10943:11024   */\n    tag_322:\n        /* \"#utility.yul\":11071:11073   */\n      0x20\n        /* \"#utility.yul\":11063:11069   */\n      dup3\n        /* \"#utility.yul\":11060:11074   */\n      lt\n        /* \"#utility.yul\":11040:11058   */\n      dup2\n        /* \"#utility.yul\":11037:11075   */\n      eq\n        /* \"#utility.yul\":11034:11118   */\n      iszero\n      tag_323\n      jumpi\n        /* \"#utility.yul\":11090:11108   */\n      tag_324\n      tag_325\n      jump\t// in\n    tag_324:\n        /* \"#utility.yul\":11034:11118   */\n    tag_323:\n        /* \"#utility.yul\":10855:11124   */\n      pop\n        /* \"#utility.yul\":10804:11124   */\n      swap2\n      swap1\n      pop\n      jump\t// out\n        /* \"#utility.yul\":11130:11230   */\n    tag_212:\n        /* \"#utility.yul\":11169:11176   */\n      0x00\n        /* \"#utility.yul\":11198:11224   */\n      tag_327\n        /* \"#utility.yul\":11218:11223   */\n      dup3\n        /* \"#utility.yul\":11198:11224   */\n      tag_328\n      jump\t// in\n    tag_327:\n        /* \"#utility.yul\":11187:11224   */\n      swap1\n      pop\n        /* \"#utility.yul\":11130:11230   */\n      swap2\n      swap1\n      pop\n      jump\t// out\n        /* \"#utility.yul\":11236:11330   */\n    tag_328:\n        /* \"#utility.yul\":11275:11282   */\n      0x00\n        /* \"#utility.yul\":11304:11324   */\n      tag_330\n        /* \"#utility.yul\":11318:11323   */\n      dup3\n        /* \"#utility.yul\":11304:11324   */\n      tag_331\n      jump\t// in\n    tag_330:\n        /* \"#utility.yul\":11293:11324   */\n      swap1\n      pop\n        /* \"#utility.yul\":11236:11330   */\n      swap2\n      swap1\n      pop\n      jump\t// out\n        /* \"#utility.yul\":11336:11415   */\n    tag_272:\n        /* \"#utility.yul\":11375:11382   */\n      0x00\n        /* \"#utility.yul\":11404:11409   */\n      dup2\n        /* \"#utility.yul\":11393:11409   */\n      swap1\n      pop\n        /* \"#utility.yul\":11336:11415   */\n      swap2\n      swap1\n      pop\n      jump\t// out\n        /* \"#utility.yul\":11421:11597   */\n    tag_185:\n        /* \"#utility.yul\":11453:11454   */\n      0x00\n        /* \"#utility.yul\":11470:11490   */\n      tag_334\n        /* \"#utility.yul\":11488:11489   */\n      dup3\n        /* \"#utility.yul\":11470:11490   */\n      tag_264\n      jump\t// in\n    tag_334:\n        /* \"#utility.yul\":11465:11490   */\n      swap2\n      pop\n        /* \"#utility.yul\":11504:11524   */\n      tag_335\n        /* \"#utility.yul\":11522:11523   */\n      dup4\n        /* \"#utility.yul\":11504:11524   */\n      tag_264\n      jump\t// in\n    tag_335:\n        /* \"#utility.yul\":11499:11524   */\n      swap3\n      pop\n        /* \"#utility.yul\":11543:11544   */\n      dup3\n        /* \"#utility.yul\":11533:11568   */\n      tag_336\n      jumpi\n        /* \"#utility.yul\":11548:11566   */\n      tag_337\n      tag_338\n      jump\t// in\n    tag_337:\n        /* \"#utility.yul\":11533:11568   */\n    tag_336:\n        /* \"#utility.yul\":11589:11590   */\n      dup3\n        /* \"#utility.yul\":11586:11587   */\n      dup3\n        /* \"#utility.yul\":11582:11591   */\n      mod\n        /* \"#utility.yul\":11577:11591   */\n      swap1\n      pop\n        /* \"#utility.yul\":11421:11597   */\n      swap3\n      swap2\n      pop\n      pop\n      jump\t// out\n        /* \"#utility.yul\":11603:11783   */\n    tag_301:\n        /* \"#utility.yul\":11651:11728   */\n      0x4e487b7100000000000000000000000000000000000000000000000000000000\n        /* \"#utility.yul\":11648:11649   */\n      0x00\n        /* \"#utility.yul\":11641:11729   */\n      mstore\n        /* \"#utility.yul\":11748:11752   */\n      0x11\n        /* \"#utility.yul\":11745:11746   */\n      0x04\n        /* \"#utility.yul\":11738:11753   */\n      mstore\n        /* \"#utility.yul\":11772:11776   */\n      0x24\n        /* \"#utility.yul\":11769:11770   */\n      0x00\n        /* \"#utility.yul\":11762:11777   */\n      revert\n        /* \"#utility.yul\":11789:11969   */\n    tag_338:\n        /* \"#utility.yul\":11837:11914   */\n      0x4e487b7100000000000000000000000000000000000000000000000000000000\n        /* \"#utility.yul\":11834:11835   */\n      0x00\n        /* \"#utility.yul\":11827:11915   */\n      mstore\n        /* \"#utility.yul\":11934:11938   */\n      0x12\n        /* \"#utility.yul\":11931:11932   */\n      0x04\n        /* \"#utility.yul\":11924:11939   */\n      mstore\n        /* \"#utility.yul\":11958:11962   */\n      0x24\n        /* \"#utility.yul\":11955:11956   */\n      0x00\n        /* \"#utility.yul\":11948:11963   */\n      revert\n        /* \"#utility.yul\":11975:12155   */\n    tag_325:\n        /* \"#utility.yul\":12023:12100   */\n      0x4e487b7100000000000000000000000000000000000000000000000000000000\n        /* \"#utility.yul\":12020:12021   */\n      0x00\n        /* \"#utility.yul\":12013:12101   */\n      mstore\n        /* \"#utility.yul\":12120:12124   */\n      0x22\n        /* \"#utility.yul\":12117:12118   */\n      0x04\n        /* \"#utility.yul\":12110:12125   */\n      mstore\n        /* \"#utility.yul\":12144:12148   */\n      0x24\n        /* \"#utility.yul\":12141:12142   */\n      0x00\n        /* \"#utility.yul\":12134:12149   */\n      revert\n        /* \"#utility.yul\":12161:12341   */\n    tag_87:\n        /* \"#utility.yul\":12209:12286   */\n      0x4e487b7100000000000000000000000000000000000000000000000000000000\n        /* \"#utility.yul\":12206:12207   */\n      0x00\n        /* \"#utility.yul\":12199:12287   */\n      mstore\n        /* \"#utility.yul\":12306:12310   */\n      0x32\n        /* \"#utility.yul\":12303:12304   */\n      0x04\n        /* \"#utility.yul\":12296:12311   */\n      mstore\n        /* \"#utility.yul\":12330:12334   */\n      0x24\n        /* \"#utility.yul\":12327:12328   */\n      0x00\n        /* \"#utility.yul\":12320:12335   */\n      revert\n        /* \"#utility.yul\":12470:12587   */\n    tag_201:\n        /* \"#utility.yul\":12579:12580   */\n      0x00\n        /* \"#utility.yul\":12576:12577   */\n      dup1\n        /* \"#utility.yul\":12569:12581   */\n      revert\n        /* \"#utility.yul\":12593:12695   */\n    tag_230:\n        /* \"#utility.yul\":12634:12640   */\n      0x00\n        /* \"#utility.yul\":12685:12687   */\n      0x1f\n        /* \"#utility.yul\":12681:12688   */\n      not\n        /* \"#utility.yul\":12676:12678   */\n      0x1f\n        /* \"#utility.yul\":12669:12674   */\n      dup4\n        /* \"#utility.yul\":12665:12679   */\n      add\n        /* \"#utility.yul\":12661:12689   */\n      and\n        /* \"#utility.yul\":12651:12689   */\n      swap1\n      pop\n        /* \"#utility.yul\":12593:12695   */\n      swap2\n      swap1\n      pop\n      jump\t// out\n        /* \"#utility.yul\":12701:12795   */\n    tag_331:\n        /* \"#utility.yul\":12734:12742   */\n      0x00\n        /* \"#utility.yul\":12782:12787   */\n      dup2\n        /* \"#utility.yul\":12778:12780   */\n      0x60\n        /* \"#utility.yul\":12774:12788   */\n      shl\n        /* \"#utility.yul\":12753:12788   */\n      swap1\n      pop\n        /* \"#utility.yul\":12701:12795   */\n      swap2\n      swap1\n      pop\n      jump\t// out\n        /* \"#utility.yul\":12801:12965   */\n    tag_236:\n        /* \"#utility.yul\":12941:12957   */\n      0x416c726561647920766f7465642e000000000000000000000000000000000000\n        /* \"#utility.yul\":12937:12938   */\n      0x00\n        /* \"#utility.yul\":12929:12935   */\n      dup3\n        /* \"#utility.yul\":12925:12939   */\n      add\n        /* \"#utility.yul\":12918:12958   */\n      mstore\n        /* \"#utility.yul\":12801:12965   */\n      pop\n      jump\t// out\n        /* \"#utility.yul\":12971:13145   */\n    tag_241:\n        /* \"#utility.yul\":13111:13137   */\n      0x54686520766f74657220616c726561647920766f7465642e0000000000000000\n        /* \"#utility.yul\":13107:13108   */\n      0x00\n        /* \"#utility.yul\":13099:13105   */\n      dup3\n        /* \"#utility.yul\":13095:13109   */\n      add\n        /* \"#utility.yul\":13088:13138   */\n      mstore\n        /* \"#utility.yul\":12971:13145   */\n      pop\n      jump\t// out\n        /* \"#utility.yul\":13151:13320   */\n    tag_246:\n        /* \"#utility.yul\":13291:13312   */\n      0x52656163686564206d617820766f746572732e00000000000000000000000000\n        /* \"#utility.yul\":13287:13288   */\n      0x00\n        /* \"#utility.yul\":13279:13285   */\n      dup3\n        /* \"#utility.yul\":13275:13289   */\n      add\n        /* \"#utility.yul\":13268:13313   */\n      mstore\n        /* \"#utility.yul\":13151:13320   */\n      pop\n      jump\t// out\n        /* \"#utility.yul\":13326:13448   */\n    tag_193:\n        /* \"#utility.yul\":13399:13423   */\n      tag_352\n        /* \"#utility.yul\":13417:13422   */\n      dup2\n        /* \"#utility.yul\":13399:13423   */\n      tag_211\n      jump\t// in\n    tag_352:\n        /* \"#utility.yul\":13392:13397   */\n      dup2\n        /* \"#utility.yul\":13389:13424   */\n      eq\n        /* \"#utility.yul\":13379:13442   */\n      tag_353\n      jumpi\n        /* \"#utility.yul\":13438:13439   */\n      0x00\n        /* \"#utility.yul\":13435:13436   */\n      dup1\n        /* \"#utility.yul\":13428:13440   */\n      revert\n        /* \"#utility.yul\":13379:13442   */\n    tag_353:\n        /* \"#utility.yul\":13326:13448   */\n      pop\n      jump\t// out\n        /* \"#utility.yul\":13454:13576   */\n    tag_197:\n        /* \"#utility.yul\":13527:13551   */\n      tag_355\n        /* \"#utility.yul\":13545:13550   */\n      dup2\n        /* \"#utility.yul\":13527:13551   */\n      tag_264\n      jump\t// in\n    tag_355:\n        /* \"#utility.yul\":13520:13525   */\n      dup2\n        /* \"#utility.yul\":13517:13552   */\n      eq\n        /* \"#utility.yul\":13507:13570   */\n      tag_356\n      jumpi\n        /* \"#utility.yul\":13566:13567   */\n      0x00\n        /* \"#utility.yul\":13563:13564   */\n      dup1\n        /* \"#utility.yul\":13556:13568   */\n      revert\n        /* \"#utility.yul\":13507:13570   */\n    tag_356:\n        /* \"#utility.yul\":13454:13576   */\n      pop\n      jump\t// out\n\n    auxdata: 0xa26469706673582212208c3df185faa07abdf6d5d835970eb3011d6931f83faf404a9d989516d83cb5e664736f6c63430008070033\n}\n",
				"bytecode": {
					"linkReferences": {},
					"object": "6080604052600060025560006003556000600455600060055560006006556000600755600060085560006009556000600a556000600b556000600c553480156200004857600080fd5b5060006040518060a001604052806040518060400160405280600181526020017f610000000000000000000000000000000000000000000000000000000000000081525081526020016040518060400160405280600181526020017f620000000000000000000000000000000000000000000000000000000000000081525081526020016040518060400160405280600181526020017f630000000000000000000000000000000000000000000000000000000000000081525081526020016040518060400160405280600181526020017f640000000000000000000000000000000000000000000000000000000000000081525081526020016040518060400160405280600181526020017f6500000000000000000000000000000000000000000000000000000000000000815250815250905060058014620001c3576040517f08c379a0000000000000000000000000000000000000000000000000000000008152600401620001ba90620003fa565b60405180910390fd5b60005b60058110156200031b576001604051806101800160405280848460058110620001f457620001f362000519565b5b6020020151815260200160008152602001600081526020016000815260200160008152602001600081526020016000815260200160008152602001600081526020016000815260200160008152602001600081525090806001815401808255809150506001900390600052602060002090600c020160009091909190915060008201518160000190805190602001906200029092919062000323565b506020820151816001015560408201518160020155606082015181600301556080820151816004015560a0820151816005015560c0820151816006015560e082015181600701556101008201518160080155610120820151816009015561014082015181600a015561016082015181600b01555050808062000312906200046d565b915050620001c6565b505062000571565b828054620003319062000437565b90600052602060002090601f016020900481019282620003555760008555620003a1565b82601f106200037057805160ff1916838001178555620003a1565b82800160010185558215620003a1579182015b82811115620003a057825182559160200191906001019062000383565b5b509050620003b09190620003b4565b5090565b5b80821115620003cf576000816000905550600101620003b5565b5090565b6000620003e26015836200041c565b9150620003ef8262000548565b602082019050919050565b600060208201905081810360008301526200041581620003d3565b9050919050565b600082825260208201905092915050565b6000819050919050565b600060028204905060018216806200045057607f821691505b60208210811415620004675762000466620004ea565b5b50919050565b60006200047a826200042d565b91507fffffffffffffffffffffffffffffffffffffffffffffffffffffffffffffffff821415620004b057620004af620004bb565b5b600182019050919050565b7f4e487b7100000000000000000000000000000000000000000000000000000000600052601160045260246000fd5b7f4e487b7100000000000000000000000000000000000000000000000000000000600052602260045260246000fd5b7f4e487b7100000000000000000000000000000000000000000000000000000000600052603260045260246000fd5b7f43616e64696461746573206d75737420626520352e0000000000000000000000600082015250565b61135d80620005816000396000f3fe608060405234801561001057600080fd5b50600436106100ea5760003560e01c8063848ea5771161008c578063a3ec138d11610066578063a3ec138d14610207578063a9874b2a14610239578063baf74a0914610257578063d4e8fd2e14610275576100ea565b8063848ea577146101ad5780638b7d553d146101cb5780638c18f2f1146101e9576100ea565b8063632a9a52116100c8578063632a9a52146101495780636d8f3f10146101535780637ef1dbea1461017157806380b3bd9b1461018f576100ea565b80631946b5be146100ef57806356f897ef1461010d5780635fc75cb51461012b575b600080fd5b6100f76102a5565b6040516101049190610ed5565b60405180910390f35b6101156102ab565b6040516101229190610ed5565b60405180910390f35b6101336102b1565b6040516101409190610ed5565b60405180910390f35b6101516102b7565b005b61015b610946565b6040516101689190610ed5565b60405180910390f35b61017961094c565b6040516101869190610ed5565b60405180910390f35b610197610952565b6040516101a49190610ed5565b60405180910390f35b6101b5610958565b6040516101c29190610ed5565b60405180910390f35b6101d361095e565b6040516101e09190610ed5565b60405180910390f35b6101f1610964565b6040516101fe9190610ed5565b60405180910390f35b610221600480360381019061021c9190610bf7565b61096a565b60405161023093929190610e9e565b60405180910390f35b6102416109a1565b60405161024e9190610ed5565b60405180910390f35b61025f6109a7565b60405161026c9190610ed5565b60405180910390f35b61028f600480360381019061028a9190610c24565b6109ad565b60405161029c9190610f50565b60405180910390f35b60065481565b60085481565b60095481565b6000803373ffffffffffffffffffffffffffffffffffffffff1673ffffffffffffffffffffffffffffffffffffffff16815260200190815260200160002060000160009054906101000a900460ff1615610346576040517f08c379a000000000000000000000000000000000000000000000000000000000815260040161033d90610f10565b60405180910390fd5b60646002541261038b576040517f08c379a000000000000000000000000000000000000000000000000000000000815260040161038290610f30565b60405180910390fd5b610393610aea565b6000803373ffffffffffffffffffffffffffffffffffffffff1673ffffffffffffffffffffffffffffffffffffffff1681526020019081526020016000206001018190555060008060003373ffffffffffffffffffffffffffffffffffffffff1673ffffffffffffffffffffffffffffffffffffffff16815260200190815260200160002090508060000160009054906101000a900460ff161561046c576040517f08c379a000000000000000000000000000000000000000000000000000000000815260040161046390610ef0565b60405180910390fd5b60018160000160006101000a81548160ff021916908315150217905550610491610b2b565b81600201819055506001600260008282546104ac9190610f9f565b925050819055506001806104be610b2b565b815481106104cf576104ce61122c565b5b90600052602060002090600c020160010160008282546104ef9190611033565b925050819055506000816001015414156105655760018061050e610b2b565b8154811061051f5761051e61122c565b5b90600052602060002090600c0201600201600082825461053f9190611033565b925050819055506001600360008282546105599190610f9f565b92505081905550610943565b6001816001015414156105d45760018061057d610b2b565b8154811061058e5761058d61122c565b5b90600052602060002090600c020160030160008282546105ae9190611033565b925050819055506001600460008282546105c89190610f9f565b92505081905550610942565b600281600101541415610643576001806105ec610b2b565b815481106105fd576105fc61122c565b5b90600052602060002090600c0201600401600082825461061d9190611033565b925050819055506001600560008282546106379190610f9f565b92505081905550610941565b6003816001015414156106b25760018061065b610b2b565b8154811061066c5761066b61122c565b5b90600052602060002090600c0201600501600082825461068c9190611033565b925050819055506001600660008282546106a69190610f9f565b92505081905550610940565b600481600101541415610721576001806106ca610b2b565b815481106106db576106da61122c565b5b90600052602060002090600c020160060160008282546106fb9190611033565b925050819055506001600760008282546107159190610f9f565b9250508190555061093f565b60058160010154141561079057600180610739610b2b565b8154811061074a5761074961122c565b5b90600052602060002090600c0201600701600082825461076a9190611033565b925050819055506001600860008282546107849190610f9f565b9250508190555061093e565b6006816001015414156107ff576001806107a8610b2b565b815481106107b9576107b861122c565b5b90600052602060002090600c020160080160008282546107d99190611033565b925050819055506001600960008282546107f39190610f9f565b9250508190555061093d565b60078160010154141561086e57600180610817610b2b565b815481106108285761082761122c565b5b90600052602060002090600c020160090160008282546108489190611033565b925050819055506001600a60008282546108629190610f9f565b9250508190555061093c565b6008816001015414156108dd57600180610886610b2b565b815481106108975761089661122c565b5b90600052602060002090600c0201600a0160008282546108b79190611033565b925050819055506001600b60008282546108d19190610f9f565b9250508190555061093b565b6001806108e8610b2b565b815481106108f9576108f861122c565b5b90600052602060002090600c0201600b0160008282546109199190611033565b925050819055506001600c60008282546109339190610f9f565b925050819055505b5b5b5b5b5b5b5b5b50565b60025481565b60055481565b600a5481565b60075481565b600b5481565b60045481565b60006020528060005260406000206000915090508060000160009054906101000a900460ff16908060010154908060020154905083565b60035481565b600c5481565b6109b5610b6c565b600182815481106109c9576109c861122c565b5b90600052602060002090600c0201604051806101800160405290816000820180546109f39061110e565b80601f0160208091040260200160405190810160405280929190818152602001828054610a1f9061110e565b8015610a6c5780601f10610a4157610100808354040283529160200191610a6c565b820191906000526020600020905b815481529060010190602001808311610a4f57829003601f168201915b50505050508152602001600182015481526020016002820154815260200160038201548152602001600482015481526020016005820154815260200160068201548152602001600782015481526020016008820154815260200160098201548152602001600a8201548152602001600b820154815250509050919050565b6000600a424433604051602001610b0393929190610e61565b6040516020818303038152906040528051906020012060001c610b26919061116e565b905090565b60006005424433604051602001610b4493929190610e61565b6040516020818303038152906040528051906020012060001c610b67919061116e565b905090565b6040518061018001604052806060815260200160008152602001600081526020016000815260200160008152602001600081526020016000815260200160008152602001600081526020016000815260200160008152602001600081525090565b600081359050610bdc816112f9565b92915050565b600081359050610bf181611310565b92915050565b600060208284031215610c0d57610c0c61125b565b5b6000610c1b84828501610bcd565b91505092915050565b600060208284031215610c3a57610c3961125b565b5b6000610c4884828501610be2565b91505092915050565b610c62610c5d82611089565b611140565b82525050565b610c718161109b565b82525050565b610c80816110a7565b82525050565b6000610c9182610f72565b610c9b8185610f7d565b9350610cab8185602086016110db565b610cb481611260565b840191505092915050565b6000610ccc600e83610f8e565b9150610cd78261127e565b602082019050919050565b6000610cef601883610f8e565b9150610cfa826112a7565b602082019050919050565b6000610d12601383610f8e565b9150610d1d826112d0565b602082019050919050565b6000610180830160008301518482036000860152610d468282610c86565b9150506020830151610d5b6020860182610e2c565b506040830151610d6e6040860182610e2c565b506060830151610d816060860182610e2c565b506080830151610d946080860182610e2c565b5060a0830151610da760a0860182610e2c565b5060c0830151610dba60c0860182610e2c565b5060e0830151610dcd60e0860182610e2c565b50610100830151610de2610100860182610e2c565b50610120830151610df7610120860182610e2c565b50610140830151610e0c610140860182610e2c565b50610160830151610e21610160860182610e2c565b508091505092915050565b610e35816110d1565b82525050565b610e44816110d1565b82525050565b610e5b610e56826110d1565b611164565b82525050565b6000610e6d8286610e4a565b602082019150610e7d8285610e4a565b602082019150610e8d8284610c51565b601482019150819050949350505050565b6000606082019050610eb36000830186610c68565b610ec06020830185610e3b565b610ecd6040830184610e3b565b949350505050565b6000602082019050610eea6000830184610c77565b92915050565b60006020820190508181036000830152610f0981610cbf565b9050919050565b60006020820190508181036000830152610f2981610ce2565b9050919050565b60006020820190508181036000830152610f4981610d05565b9050919050565b60006020820190508181036000830152610f6a8184610d28565b905092915050565b600081519050919050565b600082825260208201905092915050565b600082825260208201905092915050565b6000610faa826110a7565b9150610fb5836110a7565b9250817f7fffffffffffffffffffffffffffffffffffffffffffffffffffffffffffffff03831360008312151615610ff057610fef61119f565b5b817f80000000000000000000000000000000000000000000000000000000000000000383126000831216156110285761102761119f565b5b828201905092915050565b600061103e826110d1565b9150611049836110d1565b9250827fffffffffffffffffffffffffffffffffffffffffffffffffffffffffffffffff0382111561107e5761107d61119f565b5b828201905092915050565b6000611094826110b1565b9050919050565b60008115159050919050565b6000819050919050565b600073ffffffffffffffffffffffffffffffffffffffff82169050919050565b6000819050919050565b60005b838110156110f95780820151818401526020810190506110de565b83811115611108576000848401525b50505050565b6000600282049050600182168061112657607f821691505b6020821081141561113a576111396111fd565b5b50919050565b600061114b82611152565b9050919050565b600061115d82611271565b9050919050565b6000819050919050565b6000611179826110d1565b9150611184836110d1565b925082611194576111936111ce565b5b828206905092915050565b7f4e487b7100000000000000000000000000000000000000000000000000000000600052601160045260246000fd5b7f4e487b7100000000000000000000000000000000000000000000000000000000600052601260045260246000fd5b7f4e487b7100000000000000000000000000000000000000000000000000000000600052602260045260246000fd5b7f4e487b7100000000000000000000000000000000000000000000000000000000600052603260045260246000fd5b600080fd5b6000601f19601f8301169050919050565b60008160601b9050919050565b7f416c726561647920766f7465642e000000000000000000000000000000000000600082015250565b7f54686520766f74657220616c726561647920766f7465642e0000000000000000600082015250565b7f52656163686564206d617820766f746572732e00000000000000000000000000600082015250565b61130281611089565b811461130d57600080fd5b50565b611319816110d1565b811461132457600080fd5b5056fea26469706673582212208c3df185faa07abdf6d5d835970eb3011d6931f83faf404a9d989516d83cb5e664736f6c63430008070033",
					"opcodes": "PUSH1 0x80 PUSH1 0x40 MSTORE PUSH1 0x0 PUSH1 0x2 SSTORE PUSH1 0x0 PUSH1 0x3 SSTORE PUSH1 0x0 PUSH1 0x4 SSTORE PUSH1 0x0 PUSH1 0x5 SSTORE PUSH1 0x0 PUSH1 0x6 SSTORE PUSH1 0x0 PUSH1 0x7 SSTORE PUSH1 0x0 PUSH1 0x8 SSTORE PUSH1 0x0 PUSH1 0x9 SSTORE PUSH1 0x0 PUSH1 0xA SSTORE PUSH1 0x0 PUSH1 0xB SSTORE PUSH1 0x0 PUSH1 0xC SSTORE CALLVALUE DUP1 ISZERO PUSH3 0x48 JUMPI PUSH1 0x0 DUP1 REVERT JUMPDEST POP PUSH1 0x0 PUSH1 0x40 MLOAD DUP1 PUSH1 0xA0 ADD PUSH1 0x40 MSTORE DUP1 PUSH1 0x40 MLOAD DUP1 PUSH1 0x40 ADD PUSH1 0x40 MSTORE DUP1 PUSH1 0x1 DUP2 MSTORE PUSH1 0x20 ADD PUSH32 0x6100000000000000000000000000000000000000000000000000000000000000 DUP2 MSTORE POP DUP2 MSTORE PUSH1 0x20 ADD PUSH1 0x40 MLOAD DUP1 PUSH1 0x40 ADD PUSH1 0x40 MSTORE DUP1 PUSH1 0x1 DUP2 MSTORE PUSH1 0x20 ADD PUSH32 0x6200000000000000000000000000000000000000000000000000000000000000 DUP2 MSTORE POP DUP2 MSTORE PUSH1 0x20 ADD PUSH1 0x40 MLOAD DUP1 PUSH1 0x40 ADD PUSH1 0x40 MSTORE DUP1 PUSH1 0x1 DUP2 MSTORE PUSH1 0x20 ADD PUSH32 0x6300000000000000000000000000000000000000000000000000000000000000 DUP2 MSTORE POP DUP2 MSTORE PUSH1 0x20 ADD PUSH1 0x40 MLOAD DUP1 PUSH1 0x40 ADD PUSH1 0x40 MSTORE DUP1 PUSH1 0x1 DUP2 MSTORE PUSH1 0x20 ADD PUSH32 0x6400000000000000000000000000000000000000000000000000000000000000 DUP2 MSTORE POP DUP2 MSTORE PUSH1 0x20 ADD PUSH1 0x40 MLOAD DUP1 PUSH1 0x40 ADD PUSH1 0x40 MSTORE DUP1 PUSH1 0x1 DUP2 MSTORE PUSH1 0x20 ADD PUSH32 0x6500000000000000000000000000000000000000000000000000000000000000 DUP2 MSTORE POP DUP2 MSTORE POP SWAP1 POP PUSH1 0x5 DUP1 EQ PUSH3 0x1C3 JUMPI PUSH1 0x40 MLOAD PUSH32 0x8C379A000000000000000000000000000000000000000000000000000000000 DUP2 MSTORE PUSH1 0x4 ADD PUSH3 0x1BA SWAP1 PUSH3 0x3FA JUMP JUMPDEST PUSH1 0x40 MLOAD DUP1 SWAP2 SUB SWAP1 REVERT JUMPDEST PUSH1 0x0 JUMPDEST PUSH1 0x5 DUP2 LT ISZERO PUSH3 0x31B JUMPI PUSH1 0x1 PUSH1 0x40 MLOAD DUP1 PUSH2 0x180 ADD PUSH1 0x40 MSTORE DUP1 DUP5 DUP5 PUSH1 0x5 DUP2 LT PUSH3 0x1F4 JUMPI PUSH3 0x1F3 PUSH3 0x519 JUMP JUMPDEST JUMPDEST PUSH1 0x20 MUL ADD MLOAD DUP2 MSTORE PUSH1 0x20 ADD PUSH1 0x0 DUP2 MSTORE PUSH1 0x20 ADD PUSH1 0x0 DUP2 MSTORE PUSH1 0x20 ADD PUSH1 0x0 DUP2 MSTORE PUSH1 0x20 ADD PUSH1 0x0 DUP2 MSTORE PUSH1 0x20 ADD PUSH1 0x0 DUP2 MSTORE PUSH1 0x20 ADD PUSH1 0x0 DUP2 MSTORE PUSH1 0x20 ADD PUSH1 0x0 DUP2 MSTORE PUSH1 0x20 ADD PUSH1 0x0 DUP2 MSTORE PUSH1 0x20 ADD PUSH1 0x0 DUP2 MSTORE PUSH1 0x20 ADD PUSH1 0x0 DUP2 MSTORE PUSH1 0x20 ADD PUSH1 0x0 DUP2 MSTORE POP SWAP1 DUP1 PUSH1 0x1 DUP2 SLOAD ADD DUP1 DUP3 SSTORE DUP1 SWAP2 POP POP PUSH1 0x1 SWAP1 SUB SWAP1 PUSH1 0x0 MSTORE PUSH1 0x20 PUSH1 0x0 KECCAK256 SWAP1 PUSH1 0xC MUL ADD PUSH1 0x0 SWAP1 SWAP2 SWAP1 SWAP2 SWAP1 SWAP2 POP PUSH1 0x0 DUP3 ADD MLOAD DUP2 PUSH1 0x0 ADD SWAP1 DUP1 MLOAD SWAP1 PUSH1 0x20 ADD SWAP1 PUSH3 0x290 SWAP3 SWAP2 SWAP1 PUSH3 0x323 JUMP JUMPDEST POP PUSH1 0x20 DUP3 ADD MLOAD DUP2 PUSH1 0x1 ADD SSTORE PUSH1 0x40 DUP3 ADD MLOAD DUP2 PUSH1 0x2 ADD SSTORE PUSH1 0x60 DUP3 ADD MLOAD DUP2 PUSH1 0x3 ADD SSTORE PUSH1 0x80 DUP3 ADD MLOAD DUP2 PUSH1 0x4 ADD SSTORE PUSH1 0xA0 DUP3 ADD MLOAD DUP2 PUSH1 0x5 ADD SSTORE PUSH1 0xC0 DUP3 ADD MLOAD DUP2 PUSH1 0x6 ADD SSTORE PUSH1 0xE0 DUP3 ADD MLOAD DUP2 PUSH1 0x7 ADD SSTORE PUSH2 0x100 DUP3 ADD MLOAD DUP2 PUSH1 0x8 ADD SSTORE PUSH2 0x120 DUP3 ADD MLOAD DUP2 PUSH1 0x9 ADD SSTORE PUSH2 0x140 DUP3 ADD MLOAD DUP2 PUSH1 0xA ADD SSTORE PUSH2 0x160 DUP3 ADD MLOAD DUP2 PUSH1 0xB ADD SSTORE POP POP DUP1 DUP1 PUSH3 0x312 SWAP1 PUSH3 0x46D JUMP JUMPDEST SWAP2 POP POP PUSH3 0x1C6 JUMP JUMPDEST POP POP PUSH3 0x571 JUMP JUMPDEST DUP3 DUP1 SLOAD PUSH3 0x331 SWAP1 PUSH3 0x437 JUMP JUMPDEST SWAP1 PUSH1 0x0 MSTORE PUSH1 0x20 PUSH1 0x0 KECCAK256 SWAP1 PUSH1 0x1F ADD PUSH1 0x20 SWAP1 DIV DUP2 ADD SWAP3 DUP3 PUSH3 0x355 JUMPI PUSH1 0x0 DUP6 SSTORE PUSH3 0x3A1 JUMP JUMPDEST DUP3 PUSH1 0x1F LT PUSH3 0x370 JUMPI DUP1 MLOAD PUSH1 0xFF NOT AND DUP4 DUP1 ADD OR DUP6 SSTORE PUSH3 0x3A1 JUMP JUMPDEST DUP3 DUP1 ADD PUSH1 0x1 ADD DUP6 SSTORE DUP3 ISZERO PUSH3 0x3A1 JUMPI SWAP2 DUP3 ADD JUMPDEST DUP3 DUP2 GT ISZERO PUSH3 0x3A0 JUMPI DUP3 MLOAD DUP3 SSTORE SWAP2 PUSH1 0x20 ADD SWAP2 SWAP1 PUSH1 0x1 ADD SWAP1 PUSH3 0x383 JUMP JUMPDEST JUMPDEST POP SWAP1 POP PUSH3 0x3B0 SWAP2 SWAP1 PUSH3 0x3B4 JUMP JUMPDEST POP SWAP1 JUMP JUMPDEST JUMPDEST DUP1 DUP3 GT ISZERO PUSH3 0x3CF JUMPI PUSH1 0x0 DUP2 PUSH1 0x0 SWAP1 SSTORE POP PUSH1 0x1 ADD PUSH3 0x3B5 JUMP JUMPDEST POP SWAP1 JUMP JUMPDEST PUSH1 0x0 PUSH3 0x3E2 PUSH1 0x15 DUP4 PUSH3 0x41C JUMP JUMPDEST SWAP2 POP PUSH3 0x3EF DUP3 PUSH3 0x548 JUMP JUMPDEST PUSH1 0x20 DUP3 ADD SWAP1 POP SWAP2 SWAP1 POP JUMP JUMPDEST PUSH1 0x0 PUSH1 0x20 DUP3 ADD SWAP1 POP DUP2 DUP2 SUB PUSH1 0x0 DUP4 ADD MSTORE PUSH3 0x415 DUP2 PUSH3 0x3D3 JUMP JUMPDEST SWAP1 POP SWAP2 SWAP1 POP JUMP JUMPDEST PUSH1 0x0 DUP3 DUP3 MSTORE PUSH1 0x20 DUP3 ADD SWAP1 POP SWAP3 SWAP2 POP POP JUMP JUMPDEST PUSH1 0x0 DUP2 SWAP1 POP SWAP2 SWAP1 POP JUMP JUMPDEST PUSH1 0x0 PUSH1 0x2 DUP3 DIV SWAP1 POP PUSH1 0x1 DUP3 AND DUP1 PUSH3 0x450 JUMPI PUSH1 0x7F DUP3 AND SWAP2 POP JUMPDEST PUSH1 0x20 DUP3 LT DUP2 EQ ISZERO PUSH3 0x467 JUMPI PUSH3 0x466 PUSH3 0x4EA JUMP JUMPDEST JUMPDEST POP SWAP2 SWAP1 POP JUMP JUMPDEST PUSH1 0x0 PUSH3 0x47A DUP3 PUSH3 0x42D JUMP JUMPDEST SWAP2 POP PUSH32 0xFFFFFFFFFFFFFFFFFFFFFFFFFFFFFFFFFFFFFFFFFFFFFFFFFFFFFFFFFFFFFFFF DUP3 EQ ISZERO PUSH3 0x4B0 JUMPI PUSH3 0x4AF PUSH3 0x4BB JUMP JUMPDEST JUMPDEST PUSH1 0x1 DUP3 ADD SWAP1 POP SWAP2 SWAP1 POP JUMP JUMPDEST PUSH32 0x4E487B7100000000000000000000000000000000000000000000000000000000 PUSH1 0x0 MSTORE PUSH1 0x11 PUSH1 0x4 MSTORE PUSH1 0x24 PUSH1 0x0 REVERT JUMPDEST PUSH32 0x4E487B7100000000000000000000000000000000000000000000000000000000 PUSH1 0x0 MSTORE PUSH1 0x22 PUSH1 0x4 MSTORE PUSH1 0x24 PUSH1 0x0 REVERT JUMPDEST PUSH32 0x4E487B7100000000000000000000000000000000000000000000000000000000 PUSH1 0x0 MSTORE PUSH1 0x32 PUSH1 0x4 MSTORE PUSH1 0x24 PUSH1 0x0 REVERT JUMPDEST PUSH32 0x43616E64696461746573206D75737420626520352E0000000000000000000000 PUSH1 0x0 DUP3 ADD MSTORE POP JUMP JUMPDEST PUSH2 0x135D DUP1 PUSH3 0x581 PUSH1 0x0 CODECOPY PUSH1 0x0 RETURN INVALID PUSH1 0x80 PUSH1 0x40 MSTORE CALLVALUE DUP1 ISZERO PUSH2 0x10 JUMPI PUSH1 0x0 DUP1 REVERT JUMPDEST POP PUSH1 0x4 CALLDATASIZE LT PUSH2 0xEA JUMPI PUSH1 0x0 CALLDATALOAD PUSH1 0xE0 SHR DUP1 PUSH4 0x848EA577 GT PUSH2 0x8C JUMPI DUP1 PUSH4 0xA3EC138D GT PUSH2 0x66 JUMPI DUP1 PUSH4 0xA3EC138D EQ PUSH2 0x207 JUMPI DUP1 PUSH4 0xA9874B2A EQ PUSH2 0x239 JUMPI DUP1 PUSH4 0xBAF74A09 EQ PUSH2 0x257 JUMPI DUP1 PUSH4 0xD4E8FD2E EQ PUSH2 0x275 JUMPI PUSH2 0xEA JUMP JUMPDEST DUP1 PUSH4 0x848EA577 EQ PUSH2 0x1AD JUMPI DUP1 PUSH4 0x8B7D553D EQ PUSH2 0x1CB JUMPI DUP1 PUSH4 0x8C18F2F1 EQ PUSH2 0x1E9 JUMPI PUSH2 0xEA JUMP JUMPDEST DUP1 PUSH4 0x632A9A52 GT PUSH2 0xC8 JUMPI DUP1 PUSH4 0x632A9A52 EQ PUSH2 0x149 JUMPI DUP1 PUSH4 0x6D8F3F10 EQ PUSH2 0x153 JUMPI DUP1 PUSH4 0x7EF1DBEA EQ PUSH2 0x171 JUMPI DUP1 PUSH4 0x80B3BD9B EQ PUSH2 0x18F JUMPI PUSH2 0xEA JUMP JUMPDEST DUP1 PUSH4 0x1946B5BE EQ PUSH2 0xEF JUMPI DUP1 PUSH4 0x56F897EF EQ PUSH2 0x10D JUMPI DUP1 PUSH4 0x5FC75CB5 EQ PUSH2 0x12B JUMPI JUMPDEST PUSH1 0x0 DUP1 REVERT JUMPDEST PUSH2 0xF7 PUSH2 0x2A5 JUMP JUMPDEST PUSH1 0x40 MLOAD PUSH2 0x104 SWAP2 SWAP1 PUSH2 0xED5 JUMP JUMPDEST PUSH1 0x40 MLOAD DUP1 SWAP2 SUB SWAP1 RETURN JUMPDEST PUSH2 0x115 PUSH2 0x2AB JUMP JUMPDEST PUSH1 0x40 MLOAD PUSH2 0x122 SWAP2 SWAP1 PUSH2 0xED5 JUMP JUMPDEST PUSH1 0x40 MLOAD DUP1 SWAP2 SUB SWAP1 RETURN JUMPDEST PUSH2 0x133 PUSH2 0x2B1 JUMP JUMPDEST PUSH1 0x40 MLOAD PUSH2 0x140 SWAP2 SWAP1 PUSH2 0xED5 JUMP JUMPDEST PUSH1 0x40 MLOAD DUP1 SWAP2 SUB SWAP1 RETURN JUMPDEST PUSH2 0x151 PUSH2 0x2B7 JUMP JUMPDEST STOP JUMPDEST PUSH2 0x15B PUSH2 0x946 JUMP JUMPDEST PUSH1 0x40 MLOAD PUSH2 0x168 SWAP2 SWAP1 PUSH2 0xED5 JUMP JUMPDEST PUSH1 0x40 MLOAD DUP1 SWAP2 SUB SWAP1 RETURN JUMPDEST PUSH2 0x179 PUSH2 0x94C JUMP JUMPDEST PUSH1 0x40 MLOAD PUSH2 0x186 SWAP2 SWAP1 PUSH2 0xED5 JUMP JUMPDEST PUSH1 0x40 MLOAD DUP1 SWAP2 SUB SWAP1 RETURN JUMPDEST PUSH2 0x197 PUSH2 0x952 JUMP JUMPDEST PUSH1 0x40 MLOAD PUSH2 0x1A4 SWAP2 SWAP1 PUSH2 0xED5 JUMP JUMPDEST PUSH1 0x40 MLOAD DUP1 SWAP2 SUB SWAP1 RETURN JUMPDEST PUSH2 0x1B5 PUSH2 0x958 JUMP JUMPDEST PUSH1 0x40 MLOAD PUSH2 0x1C2 SWAP2 SWAP1 PUSH2 0xED5 JUMP JUMPDEST PUSH1 0x40 MLOAD DUP1 SWAP2 SUB SWAP1 RETURN JUMPDEST PUSH2 0x1D3 PUSH2 0x95E JUMP JUMPDEST PUSH1 0x40 MLOAD PUSH2 0x1E0 SWAP2 SWAP1 PUSH2 0xED5 JUMP JUMPDEST PUSH1 0x40 MLOAD DUP1 SWAP2 SUB SWAP1 RETURN JUMPDEST PUSH2 0x1F1 PUSH2 0x964 JUMP JUMPDEST PUSH1 0x40 MLOAD PUSH2 0x1FE SWAP2 SWAP1 PUSH2 0xED5 JUMP JUMPDEST PUSH1 0x40 MLOAD DUP1 SWAP2 SUB SWAP1 RETURN JUMPDEST PUSH2 0x221 PUSH1 0x4 DUP1 CALLDATASIZE SUB DUP2 ADD SWAP1 PUSH2 0x21C SWAP2 SWAP1 PUSH2 0xBF7 JUMP JUMPDEST PUSH2 0x96A JUMP JUMPDEST PUSH1 0x40 MLOAD PUSH2 0x230 SWAP4 SWAP3 SWAP2 SWAP1 PUSH2 0xE9E JUMP JUMPDEST PUSH1 0x40 MLOAD DUP1 SWAP2 SUB SWAP1 RETURN JUMPDEST PUSH2 0x241 PUSH2 0x9A1 JUMP JUMPDEST PUSH1 0x40 MLOAD PUSH2 0x24E SWAP2 SWAP1 PUSH2 0xED5 JUMP JUMPDEST PUSH1 0x40 MLOAD DUP1 SWAP2 SUB SWAP1 RETURN JUMPDEST PUSH2 0x25F PUSH2 0x9A7 JUMP JUMPDEST PUSH1 0x40 MLOAD PUSH2 0x26C SWAP2 SWAP1 PUSH2 0xED5 JUMP JUMPDEST PUSH1 0x40 MLOAD DUP1 SWAP2 SUB SWAP1 RETURN JUMPDEST PUSH2 0x28F PUSH1 0x4 DUP1 CALLDATASIZE SUB DUP2 ADD SWAP1 PUSH2 0x28A SWAP2 SWAP1 PUSH2 0xC24 JUMP JUMPDEST PUSH2 0x9AD JUMP JUMPDEST PUSH1 0x40 MLOAD PUSH2 0x29C SWAP2 SWAP1 PUSH2 0xF50 JUMP JUMPDEST PUSH1 0x40 MLOAD DUP1 SWAP2 SUB SWAP1 RETURN JUMPDEST PUSH1 0x6 SLOAD DUP2 JUMP JUMPDEST PUSH1 0x8 SLOAD DUP2 JUMP JUMPDEST PUSH1 0x9 SLOAD DUP2 JUMP JUMPDEST PUSH1 0x0 DUP1 CALLER PUSH20 0xFFFFFFFFFFFFFFFFFFFFFFFFFFFFFFFFFFFFFFFF AND PUSH20 0xFFFFFFFFFFFFFFFFFFFFFFFFFFFFFFFFFFFFFFFF AND DUP2 MSTORE PUSH1 0x20 ADD SWAP1 DUP2 MSTORE PUSH1 0x20 ADD PUSH1 0x0 KECCAK256 PUSH1 0x0 ADD PUSH1 0x0 SWAP1 SLOAD SWAP1 PUSH2 0x100 EXP SWAP1 DIV PUSH1 0xFF AND ISZERO PUSH2 0x346 JUMPI PUSH1 0x40 MLOAD PUSH32 0x8C379A000000000000000000000000000000000000000000000000000000000 DUP2 MSTORE PUSH1 0x4 ADD PUSH2 0x33D SWAP1 PUSH2 0xF10 JUMP JUMPDEST PUSH1 0x40 MLOAD DUP1 SWAP2 SUB SWAP1 REVERT JUMPDEST PUSH1 0x64 PUSH1 0x2 SLOAD SLT PUSH2 0x38B JUMPI PUSH1 0x40 MLOAD PUSH32 0x8C379A000000000000000000000000000000000000000000000000000000000 DUP2 MSTORE PUSH1 0x4 ADD PUSH2 0x382 SWAP1 PUSH2 0xF30 JUMP JUMPDEST PUSH1 0x40 MLOAD DUP1 SWAP2 SUB SWAP1 REVERT JUMPDEST PUSH2 0x393 PUSH2 0xAEA JUMP JUMPDEST PUSH1 0x0 DUP1 CALLER PUSH20 0xFFFFFFFFFFFFFFFFFFFFFFFFFFFFFFFFFFFFFFFF AND PUSH20 0xFFFFFFFFFFFFFFFFFFFFFFFFFFFFFFFFFFFFFFFF AND DUP2 MSTORE PUSH1 0x20 ADD SWAP1 DUP2 MSTORE PUSH1 0x20 ADD PUSH1 0x0 KECCAK256 PUSH1 0x1 ADD DUP2 SWAP1 SSTORE POP PUSH1 0x0 DUP1 PUSH1 0x0 CALLER PUSH20 0xFFFFFFFFFFFFFFFFFFFFFFFFFFFFFFFFFFFFFFFF AND PUSH20 0xFFFFFFFFFFFFFFFFFFFFFFFFFFFFFFFFFFFFFFFF AND DUP2 MSTORE PUSH1 0x20 ADD SWAP1 DUP2 MSTORE PUSH1 0x20 ADD PUSH1 0x0 KECCAK256 SWAP1 POP DUP1 PUSH1 0x0 ADD PUSH1 0x0 SWAP1 SLOAD SWAP1 PUSH2 0x100 EXP SWAP1 DIV PUSH1 0xFF AND ISZERO PUSH2 0x46C JUMPI PUSH1 0x40 MLOAD PUSH32 0x8C379A000000000000000000000000000000000000000000000000000000000 DUP2 MSTORE PUSH1 0x4 ADD PUSH2 0x463 SWAP1 PUSH2 0xEF0 JUMP JUMPDEST PUSH1 0x40 MLOAD DUP1 SWAP2 SUB SWAP1 REVERT JUMPDEST PUSH1 0x1 DUP2 PUSH1 0x0 ADD PUSH1 0x0 PUSH2 0x100 EXP DUP2 SLOAD DUP2 PUSH1 0xFF MUL NOT AND SWAP1 DUP4 ISZERO ISZERO MUL OR SWAP1 SSTORE POP PUSH2 0x491 PUSH2 0xB2B JUMP JUMPDEST DUP2 PUSH1 0x2 ADD DUP2 SWAP1 SSTORE POP PUSH1 0x1 PUSH1 0x2 PUSH1 0x0 DUP3 DUP3 SLOAD PUSH2 0x4AC SWAP2 SWAP1 PUSH2 0xF9F JUMP JUMPDEST SWAP3 POP POP DUP2 SWAP1 SSTORE POP PUSH1 0x1 DUP1 PUSH2 0x4BE PUSH2 0xB2B JUMP JUMPDEST DUP2 SLOAD DUP2 LT PUSH2 0x4CF JUMPI PUSH2 0x4CE PUSH2 0x122C JUMP JUMPDEST JUMPDEST SWAP1 PUSH1 0x0 MSTORE PUSH1 0x20 PUSH1 0x0 KECCAK256 SWAP1 PUSH1 0xC MUL ADD PUSH1 0x1 ADD PUSH1 0x0 DUP3 DUP3 SLOAD PUSH2 0x4EF SWAP2 SWAP1 PUSH2 0x1033 JUMP JUMPDEST SWAP3 POP POP DUP2 SWAP1 SSTORE POP PUSH1 0x0 DUP2 PUSH1 0x1 ADD SLOAD EQ ISZERO PUSH2 0x565 JUMPI PUSH1 0x1 DUP1 PUSH2 0x50E PUSH2 0xB2B JUMP JUMPDEST DUP2 SLOAD DUP2 LT PUSH2 0x51F JUMPI PUSH2 0x51E PUSH2 0x122C JUMP JUMPDEST JUMPDEST SWAP1 PUSH1 0x0 MSTORE PUSH1 0x20 PUSH1 0x0 KECCAK256 SWAP1 PUSH1 0xC MUL ADD PUSH1 0x2 ADD PUSH1 0x0 DUP3 DUP3 SLOAD PUSH2 0x53F SWAP2 SWAP1 PUSH2 0x1033 JUMP JUMPDEST SWAP3 POP POP DUP2 SWAP1 SSTORE POP PUSH1 0x1 PUSH1 0x3 PUSH1 0x0 DUP3 DUP3 SLOAD PUSH2 0x559 SWAP2 SWAP1 PUSH2 0xF9F JUMP JUMPDEST SWAP3 POP POP DUP2 SWAP1 SSTORE POP PUSH2 0x943 JUMP JUMPDEST PUSH1 0x1 DUP2 PUSH1 0x1 ADD SLOAD EQ ISZERO PUSH2 0x5D4 JUMPI PUSH1 0x1 DUP1 PUSH2 0x57D PUSH2 0xB2B JUMP JUMPDEST DUP2 SLOAD DUP2 LT PUSH2 0x58E JUMPI PUSH2 0x58D PUSH2 0x122C JUMP JUMPDEST JUMPDEST SWAP1 PUSH1 0x0 MSTORE PUSH1 0x20 PUSH1 0x0 KECCAK256 SWAP1 PUSH1 0xC MUL ADD PUSH1 0x3 ADD PUSH1 0x0 DUP3 DUP3 SLOAD PUSH2 0x5AE SWAP2 SWAP1 PUSH2 0x1033 JUMP JUMPDEST SWAP3 POP POP DUP2 SWAP1 SSTORE POP PUSH1 0x1 PUSH1 0x4 PUSH1 0x0 DUP3 DUP3 SLOAD PUSH2 0x5C8 SWAP2 SWAP1 PUSH2 0xF9F JUMP JUMPDEST SWAP3 POP POP DUP2 SWAP1 SSTORE POP PUSH2 0x942 JUMP JUMPDEST PUSH1 0x2 DUP2 PUSH1 0x1 ADD SLOAD EQ ISZERO PUSH2 0x643 JUMPI PUSH1 0x1 DUP1 PUSH2 0x5EC PUSH2 0xB2B JUMP JUMPDEST DUP2 SLOAD DUP2 LT PUSH2 0x5FD JUMPI PUSH2 0x5FC PUSH2 0x122C JUMP JUMPDEST JUMPDEST SWAP1 PUSH1 0x0 MSTORE PUSH1 0x20 PUSH1 0x0 KECCAK256 SWAP1 PUSH1 0xC MUL ADD PUSH1 0x4 ADD PUSH1 0x0 DUP3 DUP3 SLOAD PUSH2 0x61D SWAP2 SWAP1 PUSH2 0x1033 JUMP JUMPDEST SWAP3 POP POP DUP2 SWAP1 SSTORE POP PUSH1 0x1 PUSH1 0x5 PUSH1 0x0 DUP3 DUP3 SLOAD PUSH2 0x637 SWAP2 SWAP1 PUSH2 0xF9F JUMP JUMPDEST SWAP3 POP POP DUP2 SWAP1 SSTORE POP PUSH2 0x941 JUMP JUMPDEST PUSH1 0x3 DUP2 PUSH1 0x1 ADD SLOAD EQ ISZERO PUSH2 0x6B2 JUMPI PUSH1 0x1 DUP1 PUSH2 0x65B PUSH2 0xB2B JUMP JUMPDEST DUP2 SLOAD DUP2 LT PUSH2 0x66C JUMPI PUSH2 0x66B PUSH2 0x122C JUMP JUMPDEST JUMPDEST SWAP1 PUSH1 0x0 MSTORE PUSH1 0x20 PUSH1 0x0 KECCAK256 SWAP1 PUSH1 0xC MUL ADD PUSH1 0x5 ADD PUSH1 0x0 DUP3 DUP3 SLOAD PUSH2 0x68C SWAP2 SWAP1 PUSH2 0x1033 JUMP JUMPDEST SWAP3 POP POP DUP2 SWAP1 SSTORE POP PUSH1 0x1 PUSH1 0x6 PUSH1 0x0 DUP3 DUP3 SLOAD PUSH2 0x6A6 SWAP2 SWAP1 PUSH2 0xF9F JUMP JUMPDEST SWAP3 POP POP DUP2 SWAP1 SSTORE POP PUSH2 0x940 JUMP JUMPDEST PUSH1 0x4 DUP2 PUSH1 0x1 ADD SLOAD EQ ISZERO PUSH2 0x721 JUMPI PUSH1 0x1 DUP1 PUSH2 0x6CA PUSH2 0xB2B JUMP JUMPDEST DUP2 SLOAD DUP2 LT PUSH2 0x6DB JUMPI PUSH2 0x6DA PUSH2 0x122C JUMP JUMPDEST JUMPDEST SWAP1 PUSH1 0x0 MSTORE PUSH1 0x20 PUSH1 0x0 KECCAK256 SWAP1 PUSH1 0xC MUL ADD PUSH1 0x6 ADD PUSH1 0x0 DUP3 DUP3 SLOAD PUSH2 0x6FB SWAP2 SWAP1 PUSH2 0x1033 JUMP JUMPDEST SWAP3 POP POP DUP2 SWAP1 SSTORE POP PUSH1 0x1 PUSH1 0x7 PUSH1 0x0 DUP3 DUP3 SLOAD PUSH2 0x715 SWAP2 SWAP1 PUSH2 0xF9F JUMP JUMPDEST SWAP3 POP POP DUP2 SWAP1 SSTORE POP PUSH2 0x93F JUMP JUMPDEST PUSH1 0x5 DUP2 PUSH1 0x1 ADD SLOAD EQ ISZERO PUSH2 0x790 JUMPI PUSH1 0x1 DUP1 PUSH2 0x739 PUSH2 0xB2B JUMP JUMPDEST DUP2 SLOAD DUP2 LT PUSH2 0x74A JUMPI PUSH2 0x749 PUSH2 0x122C JUMP JUMPDEST JUMPDEST SWAP1 PUSH1 0x0 MSTORE PUSH1 0x20 PUSH1 0x0 KECCAK256 SWAP1 PUSH1 0xC MUL ADD PUSH1 0x7 ADD PUSH1 0x0 DUP3 DUP3 SLOAD PUSH2 0x76A SWAP2 SWAP1 PUSH2 0x1033 JUMP JUMPDEST SWAP3 POP POP DUP2 SWAP1 SSTORE POP PUSH1 0x1 PUSH1 0x8 PUSH1 0x0 DUP3 DUP3 SLOAD PUSH2 0x784 SWAP2 SWAP1 PUSH2 0xF9F JUMP JUMPDEST SWAP3 POP POP DUP2 SWAP1 SSTORE POP PUSH2 0x93E JUMP JUMPDEST PUSH1 0x6 DUP2 PUSH1 0x1 ADD SLOAD EQ ISZERO PUSH2 0x7FF JUMPI PUSH1 0x1 DUP1 PUSH2 0x7A8 PUSH2 0xB2B JUMP JUMPDEST DUP2 SLOAD DUP2 LT PUSH2 0x7B9 JUMPI PUSH2 0x7B8 PUSH2 0x122C JUMP JUMPDEST JUMPDEST SWAP1 PUSH1 0x0 MSTORE PUSH1 0x20 PUSH1 0x0 KECCAK256 SWAP1 PUSH1 0xC MUL ADD PUSH1 0x8 ADD PUSH1 0x0 DUP3 DUP3 SLOAD PUSH2 0x7D9 SWAP2 SWAP1 PUSH2 0x1033 JUMP JUMPDEST SWAP3 POP POP DUP2 SWAP1 SSTORE POP PUSH1 0x1 PUSH1 0x9 PUSH1 0x0 DUP3 DUP3 SLOAD PUSH2 0x7F3 SWAP2 SWAP1 PUSH2 0xF9F JUMP JUMPDEST SWAP3 POP POP DUP2 SWAP1 SSTORE POP PUSH2 0x93D JUMP JUMPDEST PUSH1 0x7 DUP2 PUSH1 0x1 ADD SLOAD EQ ISZERO PUSH2 0x86E JUMPI PUSH1 0x1 DUP1 PUSH2 0x817 PUSH2 0xB2B JUMP JUMPDEST DUP2 SLOAD DUP2 LT PUSH2 0x828 JUMPI PUSH2 0x827 PUSH2 0x122C JUMP JUMPDEST JUMPDEST SWAP1 PUSH1 0x0 MSTORE PUSH1 0x20 PUSH1 0x0 KECCAK256 SWAP1 PUSH1 0xC MUL ADD PUSH1 0x9 ADD PUSH1 0x0 DUP3 DUP3 SLOAD PUSH2 0x848 SWAP2 SWAP1 PUSH2 0x1033 JUMP JUMPDEST SWAP3 POP POP DUP2 SWAP1 SSTORE POP PUSH1 0x1 PUSH1 0xA PUSH1 0x0 DUP3 DUP3 SLOAD PUSH2 0x862 SWAP2 SWAP1 PUSH2 0xF9F JUMP JUMPDEST SWAP3 POP POP DUP2 SWAP1 SSTORE POP PUSH2 0x93C JUMP JUMPDEST PUSH1 0x8 DUP2 PUSH1 0x1 ADD SLOAD EQ ISZERO PUSH2 0x8DD JUMPI PUSH1 0x1 DUP1 PUSH2 0x886 PUSH2 0xB2B JUMP JUMPDEST DUP2 SLOAD DUP2 LT PUSH2 0x897 JUMPI PUSH2 0x896 PUSH2 0x122C JUMP JUMPDEST JUMPDEST SWAP1 PUSH1 0x0 MSTORE PUSH1 0x20 PUSH1 0x0 KECCAK256 SWAP1 PUSH1 0xC MUL ADD PUSH1 0xA ADD PUSH1 0x0 DUP3 DUP3 SLOAD PUSH2 0x8B7 SWAP2 SWAP1 PUSH2 0x1033 JUMP JUMPDEST SWAP3 POP POP DUP2 SWAP1 SSTORE POP PUSH1 0x1 PUSH1 0xB PUSH1 0x0 DUP3 DUP3 SLOAD PUSH2 0x8D1 SWAP2 SWAP1 PUSH2 0xF9F JUMP JUMPDEST SWAP3 POP POP DUP2 SWAP1 SSTORE POP PUSH2 0x93B JUMP JUMPDEST PUSH1 0x1 DUP1 PUSH2 0x8E8 PUSH2 0xB2B JUMP JUMPDEST DUP2 SLOAD DUP2 LT PUSH2 0x8F9 JUMPI PUSH2 0x8F8 PUSH2 0x122C JUMP JUMPDEST JUMPDEST SWAP1 PUSH1 0x0 MSTORE PUSH1 0x20 PUSH1 0x0 KECCAK256 SWAP1 PUSH1 0xC MUL ADD PUSH1 0xB ADD PUSH1 0x0 DUP3 DUP3 SLOAD PUSH2 0x919 SWAP2 SWAP1 PUSH2 0x1033 JUMP JUMPDEST SWAP3 POP POP DUP2 SWAP1 SSTORE POP PUSH1 0x1 PUSH1 0xC PUSH1 0x0 DUP3 DUP3 SLOAD PUSH2 0x933 SWAP2 SWAP1 PUSH2 0xF9F JUMP JUMPDEST SWAP3 POP POP DUP2 SWAP1 SSTORE POP JUMPDEST JUMPDEST JUMPDEST JUMPDEST JUMPDEST JUMPDEST JUMPDEST JUMPDEST JUMPDEST POP JUMP JUMPDEST PUSH1 0x2 SLOAD DUP2 JUMP JUMPDEST PUSH1 0x5 SLOAD DUP2 JUMP JUMPDEST PUSH1 0xA SLOAD DUP2 JUMP JUMPDEST PUSH1 0x7 SLOAD DUP2 JUMP JUMPDEST PUSH1 0xB SLOAD DUP2 JUMP JUMPDEST PUSH1 0x4 SLOAD DUP2 JUMP JUMPDEST PUSH1 0x0 PUSH1 0x20 MSTORE DUP1 PUSH1 0x0 MSTORE PUSH1 0x40 PUSH1 0x0 KECCAK256 PUSH1 0x0 SWAP2 POP SWAP1 POP DUP1 PUSH1 0x0 ADD PUSH1 0x0 SWAP1 SLOAD SWAP1 PUSH2 0x100 EXP SWAP1 DIV PUSH1 0xFF AND SWAP1 DUP1 PUSH1 0x1 ADD SLOAD SWAP1 DUP1 PUSH1 0x2 ADD SLOAD SWAP1 POP DUP4 JUMP JUMPDEST PUSH1 0x3 SLOAD DUP2 JUMP JUMPDEST PUSH1 0xC SLOAD DUP2 JUMP JUMPDEST PUSH2 0x9B5 PUSH2 0xB6C JUMP JUMPDEST PUSH1 0x1 DUP3 DUP2 SLOAD DUP2 LT PUSH2 0x9C9 JUMPI PUSH2 0x9C8 PUSH2 0x122C JUMP JUMPDEST JUMPDEST SWAP1 PUSH1 0x0 MSTORE PUSH1 0x20 PUSH1 0x0 KECCAK256 SWAP1 PUSH1 0xC MUL ADD PUSH1 0x40 MLOAD DUP1 PUSH2 0x180 ADD PUSH1 0x40 MSTORE SWAP1 DUP2 PUSH1 0x0 DUP3 ADD DUP1 SLOAD PUSH2 0x9F3 SWAP1 PUSH2 0x110E JUMP JUMPDEST DUP1 PUSH1 0x1F ADD PUSH1 0x20 DUP1 SWAP2 DIV MUL PUSH1 0x20 ADD PUSH1 0x40 MLOAD SWAP1 DUP2 ADD PUSH1 0x40 MSTORE DUP1 SWAP3 SWAP2 SWAP1 DUP2 DUP2 MSTORE PUSH1 0x20 ADD DUP3 DUP1 SLOAD PUSH2 0xA1F SWAP1 PUSH2 0x110E JUMP JUMPDEST DUP1 ISZERO PUSH2 0xA6C JUMPI DUP1 PUSH1 0x1F LT PUSH2 0xA41 JUMPI PUSH2 0x100 DUP1 DUP4 SLOAD DIV MUL DUP4 MSTORE SWAP2 PUSH1 0x20 ADD SWAP2 PUSH2 0xA6C JUMP JUMPDEST DUP3 ADD SWAP2 SWAP1 PUSH1 0x0 MSTORE PUSH1 0x20 PUSH1 0x0 KECCAK256 SWAP1 JUMPDEST DUP2 SLOAD DUP2 MSTORE SWAP1 PUSH1 0x1 ADD SWAP1 PUSH1 0x20 ADD DUP1 DUP4 GT PUSH2 0xA4F JUMPI DUP3 SWAP1 SUB PUSH1 0x1F AND DUP3 ADD SWAP2 JUMPDEST POP POP POP POP POP DUP2 MSTORE PUSH1 0x20 ADD PUSH1 0x1 DUP3 ADD SLOAD DUP2 MSTORE PUSH1 0x20 ADD PUSH1 0x2 DUP3 ADD SLOAD DUP2 MSTORE PUSH1 0x20 ADD PUSH1 0x3 DUP3 ADD SLOAD DUP2 MSTORE PUSH1 0x20 ADD PUSH1 0x4 DUP3 ADD SLOAD DUP2 MSTORE PUSH1 0x20 ADD PUSH1 0x5 DUP3 ADD SLOAD DUP2 MSTORE PUSH1 0x20 ADD PUSH1 0x6 DUP3 ADD SLOAD DUP2 MSTORE PUSH1 0x20 ADD PUSH1 0x7 DUP3 ADD SLOAD DUP2 MSTORE PUSH1 0x20 ADD PUSH1 0x8 DUP3 ADD SLOAD DUP2 MSTORE PUSH1 0x20 ADD PUSH1 0x9 DUP3 ADD SLOAD DUP2 MSTORE PUSH1 0x20 ADD PUSH1 0xA DUP3 ADD SLOAD DUP2 MSTORE PUSH1 0x20 ADD PUSH1 0xB DUP3 ADD SLOAD DUP2 MSTORE POP POP SWAP1 POP SWAP2 SWAP1 POP JUMP JUMPDEST PUSH1 0x0 PUSH1 0xA TIMESTAMP DIFFICULTY CALLER PUSH1 0x40 MLOAD PUSH1 0x20 ADD PUSH2 0xB03 SWAP4 SWAP3 SWAP2 SWAP1 PUSH2 0xE61 JUMP JUMPDEST PUSH1 0x40 MLOAD PUSH1 0x20 DUP2 DUP4 SUB SUB DUP2 MSTORE SWAP1 PUSH1 0x40 MSTORE DUP1 MLOAD SWAP1 PUSH1 0x20 ADD KECCAK256 PUSH1 0x0 SHR PUSH2 0xB26 SWAP2 SWAP1 PUSH2 0x116E JUMP JUMPDEST SWAP1 POP SWAP1 JUMP JUMPDEST PUSH1 0x0 PUSH1 0x5 TIMESTAMP DIFFICULTY CALLER PUSH1 0x40 MLOAD PUSH1 0x20 ADD PUSH2 0xB44 SWAP4 SWAP3 SWAP2 SWAP1 PUSH2 0xE61 JUMP JUMPDEST PUSH1 0x40 MLOAD PUSH1 0x20 DUP2 DUP4 SUB SUB DUP2 MSTORE SWAP1 PUSH1 0x40 MSTORE DUP1 MLOAD SWAP1 PUSH1 0x20 ADD KECCAK256 PUSH1 0x0 SHR PUSH2 0xB67 SWAP2 SWAP1 PUSH2 0x116E JUMP JUMPDEST SWAP1 POP SWAP1 JUMP JUMPDEST PUSH1 0x40 MLOAD DUP1 PUSH2 0x180 ADD PUSH1 0x40 MSTORE DUP1 PUSH1 0x60 DUP2 MSTORE PUSH1 0x20 ADD PUSH1 0x0 DUP2 MSTORE PUSH1 0x20 ADD PUSH1 0x0 DUP2 MSTORE PUSH1 0x20 ADD PUSH1 0x0 DUP2 MSTORE PUSH1 0x20 ADD PUSH1 0x0 DUP2 MSTORE PUSH1 0x20 ADD PUSH1 0x0 DUP2 MSTORE PUSH1 0x20 ADD PUSH1 0x0 DUP2 MSTORE PUSH1 0x20 ADD PUSH1 0x0 DUP2 MSTORE PUSH1 0x20 ADD PUSH1 0x0 DUP2 MSTORE PUSH1 0x20 ADD PUSH1 0x0 DUP2 MSTORE PUSH1 0x20 ADD PUSH1 0x0 DUP2 MSTORE PUSH1 0x20 ADD PUSH1 0x0 DUP2 MSTORE POP SWAP1 JUMP JUMPDEST PUSH1 0x0 DUP2 CALLDATALOAD SWAP1 POP PUSH2 0xBDC DUP2 PUSH2 0x12F9 JUMP JUMPDEST SWAP3 SWAP2 POP POP JUMP JUMPDEST PUSH1 0x0 DUP2 CALLDATALOAD SWAP1 POP PUSH2 0xBF1 DUP2 PUSH2 0x1310 JUMP JUMPDEST SWAP3 SWAP2 POP POP JUMP JUMPDEST PUSH1 0x0 PUSH1 0x20 DUP3 DUP5 SUB SLT ISZERO PUSH2 0xC0D JUMPI PUSH2 0xC0C PUSH2 0x125B JUMP JUMPDEST JUMPDEST PUSH1 0x0 PUSH2 0xC1B DUP5 DUP3 DUP6 ADD PUSH2 0xBCD JUMP JUMPDEST SWAP2 POP POP SWAP3 SWAP2 POP POP JUMP JUMPDEST PUSH1 0x0 PUSH1 0x20 DUP3 DUP5 SUB SLT ISZERO PUSH2 0xC3A JUMPI PUSH2 0xC39 PUSH2 0x125B JUMP JUMPDEST JUMPDEST PUSH1 0x0 PUSH2 0xC48 DUP5 DUP3 DUP6 ADD PUSH2 0xBE2 JUMP JUMPDEST SWAP2 POP POP SWAP3 SWAP2 POP POP JUMP JUMPDEST PUSH2 0xC62 PUSH2 0xC5D DUP3 PUSH2 0x1089 JUMP JUMPDEST PUSH2 0x1140 JUMP JUMPDEST DUP3 MSTORE POP POP JUMP JUMPDEST PUSH2 0xC71 DUP2 PUSH2 0x109B JUMP JUMPDEST DUP3 MSTORE POP POP JUMP JUMPDEST PUSH2 0xC80 DUP2 PUSH2 0x10A7 JUMP JUMPDEST DUP3 MSTORE POP POP JUMP JUMPDEST PUSH1 0x0 PUSH2 0xC91 DUP3 PUSH2 0xF72 JUMP JUMPDEST PUSH2 0xC9B DUP2 DUP6 PUSH2 0xF7D JUMP JUMPDEST SWAP4 POP PUSH2 0xCAB DUP2 DUP6 PUSH1 0x20 DUP7 ADD PUSH2 0x10DB JUMP JUMPDEST PUSH2 0xCB4 DUP2 PUSH2 0x1260 JUMP JUMPDEST DUP5 ADD SWAP2 POP POP SWAP3 SWAP2 POP POP JUMP JUMPDEST PUSH1 0x0 PUSH2 0xCCC PUSH1 0xE DUP4 PUSH2 0xF8E JUMP JUMPDEST SWAP2 POP PUSH2 0xCD7 DUP3 PUSH2 0x127E JUMP JUMPDEST PUSH1 0x20 DUP3 ADD SWAP1 POP SWAP2 SWAP1 POP JUMP JUMPDEST PUSH1 0x0 PUSH2 0xCEF PUSH1 0x18 DUP4 PUSH2 0xF8E JUMP JUMPDEST SWAP2 POP PUSH2 0xCFA DUP3 PUSH2 0x12A7 JUMP JUMPDEST PUSH1 0x20 DUP3 ADD SWAP1 POP SWAP2 SWAP1 POP JUMP JUMPDEST PUSH1 0x0 PUSH2 0xD12 PUSH1 0x13 DUP4 PUSH2 0xF8E JUMP JUMPDEST SWAP2 POP PUSH2 0xD1D DUP3 PUSH2 0x12D0 JUMP JUMPDEST PUSH1 0x20 DUP3 ADD SWAP1 POP SWAP2 SWAP1 POP JUMP JUMPDEST PUSH1 0x0 PUSH2 0x180 DUP4 ADD PUSH1 0x0 DUP4 ADD MLOAD DUP5 DUP3 SUB PUSH1 0x0 DUP7 ADD MSTORE PUSH2 0xD46 DUP3 DUP3 PUSH2 0xC86 JUMP JUMPDEST SWAP2 POP POP PUSH1 0x20 DUP4 ADD MLOAD PUSH2 0xD5B PUSH1 0x20 DUP7 ADD DUP3 PUSH2 0xE2C JUMP JUMPDEST POP PUSH1 0x40 DUP4 ADD MLOAD PUSH2 0xD6E PUSH1 0x40 DUP7 ADD DUP3 PUSH2 0xE2C JUMP JUMPDEST POP PUSH1 0x60 DUP4 ADD MLOAD PUSH2 0xD81 PUSH1 0x60 DUP7 ADD DUP3 PUSH2 0xE2C JUMP JUMPDEST POP PUSH1 0x80 DUP4 ADD MLOAD PUSH2 0xD94 PUSH1 0x80 DUP7 ADD DUP3 PUSH2 0xE2C JUMP JUMPDEST POP PUSH1 0xA0 DUP4 ADD MLOAD PUSH2 0xDA7 PUSH1 0xA0 DUP7 ADD DUP3 PUSH2 0xE2C JUMP JUMPDEST POP PUSH1 0xC0 DUP4 ADD MLOAD PUSH2 0xDBA PUSH1 0xC0 DUP7 ADD DUP3 PUSH2 0xE2C JUMP JUMPDEST POP PUSH1 0xE0 DUP4 ADD MLOAD PUSH2 0xDCD PUSH1 0xE0 DUP7 ADD DUP3 PUSH2 0xE2C JUMP JUMPDEST POP PUSH2 0x100 DUP4 ADD MLOAD PUSH2 0xDE2 PUSH2 0x100 DUP7 ADD DUP3 PUSH2 0xE2C JUMP JUMPDEST POP PUSH2 0x120 DUP4 ADD MLOAD PUSH2 0xDF7 PUSH2 0x120 DUP7 ADD DUP3 PUSH2 0xE2C JUMP JUMPDEST POP PUSH2 0x140 DUP4 ADD MLOAD PUSH2 0xE0C PUSH2 0x140 DUP7 ADD DUP3 PUSH2 0xE2C JUMP JUMPDEST POP PUSH2 0x160 DUP4 ADD MLOAD PUSH2 0xE21 PUSH2 0x160 DUP7 ADD DUP3 PUSH2 0xE2C JUMP JUMPDEST POP DUP1 SWAP2 POP POP SWAP3 SWAP2 POP POP JUMP JUMPDEST PUSH2 0xE35 DUP2 PUSH2 0x10D1 JUMP JUMPDEST DUP3 MSTORE POP POP JUMP JUMPDEST PUSH2 0xE44 DUP2 PUSH2 0x10D1 JUMP JUMPDEST DUP3 MSTORE POP POP JUMP JUMPDEST PUSH2 0xE5B PUSH2 0xE56 DUP3 PUSH2 0x10D1 JUMP JUMPDEST PUSH2 0x1164 JUMP JUMPDEST DUP3 MSTORE POP POP JUMP JUMPDEST PUSH1 0x0 PUSH2 0xE6D DUP3 DUP7 PUSH2 0xE4A JUMP JUMPDEST PUSH1 0x20 DUP3 ADD SWAP2 POP PUSH2 0xE7D DUP3 DUP6 PUSH2 0xE4A JUMP JUMPDEST PUSH1 0x20 DUP3 ADD SWAP2 POP PUSH2 0xE8D DUP3 DUP5 PUSH2 0xC51 JUMP JUMPDEST PUSH1 0x14 DUP3 ADD SWAP2 POP DUP2 SWAP1 POP SWAP5 SWAP4 POP POP POP POP JUMP JUMPDEST PUSH1 0x0 PUSH1 0x60 DUP3 ADD SWAP1 POP PUSH2 0xEB3 PUSH1 0x0 DUP4 ADD DUP7 PUSH2 0xC68 JUMP JUMPDEST PUSH2 0xEC0 PUSH1 0x20 DUP4 ADD DUP6 PUSH2 0xE3B JUMP JUMPDEST PUSH2 0xECD PUSH1 0x40 DUP4 ADD DUP5 PUSH2 0xE3B JUMP JUMPDEST SWAP5 SWAP4 POP POP POP POP JUMP JUMPDEST PUSH1 0x0 PUSH1 0x20 DUP3 ADD SWAP1 POP PUSH2 0xEEA PUSH1 0x0 DUP4 ADD DUP5 PUSH2 0xC77 JUMP JUMPDEST SWAP3 SWAP2 POP POP JUMP JUMPDEST PUSH1 0x0 PUSH1 0x20 DUP3 ADD SWAP1 POP DUP2 DUP2 SUB PUSH1 0x0 DUP4 ADD MSTORE PUSH2 0xF09 DUP2 PUSH2 0xCBF JUMP JUMPDEST SWAP1 POP SWAP2 SWAP1 POP JUMP JUMPDEST PUSH1 0x0 PUSH1 0x20 DUP3 ADD SWAP1 POP DUP2 DUP2 SUB PUSH1 0x0 DUP4 ADD MSTORE PUSH2 0xF29 DUP2 PUSH2 0xCE2 JUMP JUMPDEST SWAP1 POP SWAP2 SWAP1 POP JUMP JUMPDEST PUSH1 0x0 PUSH1 0x20 DUP3 ADD SWAP1 POP DUP2 DUP2 SUB PUSH1 0x0 DUP4 ADD MSTORE PUSH2 0xF49 DUP2 PUSH2 0xD05 JUMP JUMPDEST SWAP1 POP SWAP2 SWAP1 POP JUMP JUMPDEST PUSH1 0x0 PUSH1 0x20 DUP3 ADD SWAP1 POP DUP2 DUP2 SUB PUSH1 0x0 DUP4 ADD MSTORE PUSH2 0xF6A DUP2 DUP5 PUSH2 0xD28 JUMP JUMPDEST SWAP1 POP SWAP3 SWAP2 POP POP JUMP JUMPDEST PUSH1 0x0 DUP2 MLOAD SWAP1 POP SWAP2 SWAP1 POP JUMP JUMPDEST PUSH1 0x0 DUP3 DUP3 MSTORE PUSH1 0x20 DUP3 ADD SWAP1 POP SWAP3 SWAP2 POP POP JUMP JUMPDEST PUSH1 0x0 DUP3 DUP3 MSTORE PUSH1 0x20 DUP3 ADD SWAP1 POP SWAP3 SWAP2 POP POP JUMP JUMPDEST PUSH1 0x0 PUSH2 0xFAA DUP3 PUSH2 0x10A7 JUMP JUMPDEST SWAP2 POP PUSH2 0xFB5 DUP4 PUSH2 0x10A7 JUMP JUMPDEST SWAP3 POP DUP2 PUSH32 0x7FFFFFFFFFFFFFFFFFFFFFFFFFFFFFFFFFFFFFFFFFFFFFFFFFFFFFFFFFFFFFFF SUB DUP4 SGT PUSH1 0x0 DUP4 SLT ISZERO AND ISZERO PUSH2 0xFF0 JUMPI PUSH2 0xFEF PUSH2 0x119F JUMP JUMPDEST JUMPDEST DUP2 PUSH32 0x8000000000000000000000000000000000000000000000000000000000000000 SUB DUP4 SLT PUSH1 0x0 DUP4 SLT AND ISZERO PUSH2 0x1028 JUMPI PUSH2 0x1027 PUSH2 0x119F JUMP JUMPDEST JUMPDEST DUP3 DUP3 ADD SWAP1 POP SWAP3 SWAP2 POP POP JUMP JUMPDEST PUSH1 0x0 PUSH2 0x103E DUP3 PUSH2 0x10D1 JUMP JUMPDEST SWAP2 POP PUSH2 0x1049 DUP4 PUSH2 0x10D1 JUMP JUMPDEST SWAP3 POP DUP3 PUSH32 0xFFFFFFFFFFFFFFFFFFFFFFFFFFFFFFFFFFFFFFFFFFFFFFFFFFFFFFFFFFFFFFFF SUB DUP3 GT ISZERO PUSH2 0x107E JUMPI PUSH2 0x107D PUSH2 0x119F JUMP JUMPDEST JUMPDEST DUP3 DUP3 ADD SWAP1 POP SWAP3 SWAP2 POP POP JUMP JUMPDEST PUSH1 0x0 PUSH2 0x1094 DUP3 PUSH2 0x10B1 JUMP JUMPDEST SWAP1 POP SWAP2 SWAP1 POP JUMP JUMPDEST PUSH1 0x0 DUP2 ISZERO ISZERO SWAP1 POP SWAP2 SWAP1 POP JUMP JUMPDEST PUSH1 0x0 DUP2 SWAP1 POP SWAP2 SWAP1 POP JUMP JUMPDEST PUSH1 0x0 PUSH20 0xFFFFFFFFFFFFFFFFFFFFFFFFFFFFFFFFFFFFFFFF DUP3 AND SWAP1 POP SWAP2 SWAP1 POP JUMP JUMPDEST PUSH1 0x0 DUP2 SWAP1 POP SWAP2 SWAP1 POP JUMP JUMPDEST PUSH1 0x0 JUMPDEST DUP4 DUP2 LT ISZERO PUSH2 0x10F9 JUMPI DUP1 DUP3 ADD MLOAD DUP2 DUP5 ADD MSTORE PUSH1 0x20 DUP2 ADD SWAP1 POP PUSH2 0x10DE JUMP JUMPDEST DUP4 DUP2 GT ISZERO PUSH2 0x1108 JUMPI PUSH1 0x0 DUP5 DUP5 ADD MSTORE JUMPDEST POP POP POP POP JUMP JUMPDEST PUSH1 0x0 PUSH1 0x2 DUP3 DIV SWAP1 POP PUSH1 0x1 DUP3 AND DUP1 PUSH2 0x1126 JUMPI PUSH1 0x7F DUP3 AND SWAP2 POP JUMPDEST PUSH1 0x20 DUP3 LT DUP2 EQ ISZERO PUSH2 0x113A JUMPI PUSH2 0x1139 PUSH2 0x11FD JUMP JUMPDEST JUMPDEST POP SWAP2 SWAP1 POP JUMP JUMPDEST PUSH1 0x0 PUSH2 0x114B DUP3 PUSH2 0x1152 JUMP JUMPDEST SWAP1 POP SWAP2 SWAP1 POP JUMP JUMPDEST PUSH1 0x0 PUSH2 0x115D DUP3 PUSH2 0x1271 JUMP JUMPDEST SWAP1 POP SWAP2 SWAP1 POP JUMP JUMPDEST PUSH1 0x0 DUP2 SWAP1 POP SWAP2 SWAP1 POP JUMP JUMPDEST PUSH1 0x0 PUSH2 0x1179 DUP3 PUSH2 0x10D1 JUMP JUMPDEST SWAP2 POP PUSH2 0x1184 DUP4 PUSH2 0x10D1 JUMP JUMPDEST SWAP3 POP DUP3 PUSH2 0x1194 JUMPI PUSH2 0x1193 PUSH2 0x11CE JUMP JUMPDEST JUMPDEST DUP3 DUP3 MOD SWAP1 POP SWAP3 SWAP2 POP POP JUMP JUMPDEST PUSH32 0x4E487B7100000000000000000000000000000000000000000000000000000000 PUSH1 0x0 MSTORE PUSH1 0x11 PUSH1 0x4 MSTORE PUSH1 0x24 PUSH1 0x0 REVERT JUMPDEST PUSH32 0x4E487B7100000000000000000000000000000000000000000000000000000000 PUSH1 0x0 MSTORE PUSH1 0x12 PUSH1 0x4 MSTORE PUSH1 0x24 PUSH1 0x0 REVERT JUMPDEST PUSH32 0x4E487B7100000000000000000000000000000000000000000000000000000000 PUSH1 0x0 MSTORE PUSH1 0x22 PUSH1 0x4 MSTORE PUSH1 0x24 PUSH1 0x0 REVERT JUMPDEST PUSH32 0x4E487B7100000000000000000000000000000000000000000000000000000000 PUSH1 0x0 MSTORE PUSH1 0x32 PUSH1 0x4 MSTORE PUSH1 0x24 PUSH1 0x0 REVERT JUMPDEST PUSH1 0x0 DUP1 REVERT JUMPDEST PUSH1 0x0 PUSH1 0x1F NOT PUSH1 0x1F DUP4 ADD AND SWAP1 POP SWAP2 SWAP1 POP JUMP JUMPDEST PUSH1 0x0 DUP2 PUSH1 0x60 SHL SWAP1 POP SWAP2 SWAP1 POP JUMP JUMPDEST PUSH32 0x416C726561647920766F7465642E000000000000000000000000000000000000 PUSH1 0x0 DUP3 ADD MSTORE POP JUMP JUMPDEST PUSH32 0x54686520766F74657220616C726561647920766F7465642E0000000000000000 PUSH1 0x0 DUP3 ADD MSTORE POP JUMP JUMPDEST PUSH32 0x52656163686564206D617820766F746572732E00000000000000000000000000 PUSH1 0x0 DUP3 ADD MSTORE POP JUMP JUMPDEST PUSH2 0x1302 DUP2 PUSH2 0x1089 JUMP JUMPDEST DUP2 EQ PUSH2 0x130D JUMPI PUSH1 0x0 DUP1 REVERT JUMPDEST POP JUMP JUMPDEST PUSH2 0x1319 DUP2 PUSH2 0x10D1 JUMP JUMPDEST DUP2 EQ PUSH2 0x1324 JUMPI PUSH1 0x0 DUP1 REVERT JUMPDEST POP JUMP INVALID LOG2 PUSH5 0x6970667358 0x22 SLT KECCAK256 DUP13 RETURNDATASIZE CALL DUP6 STATICCALL LOG0 PUSH27 0xBDF6D5D835970EB3011D6931F83FAF404A9D989516D83CB5E66473 PUSH16 0x6C634300080700330000000000000000 "
				},
				"gasEstimates": {
					"creation": {
						"codeDepositCost": "991400",
						"executionCost": "infinite",
						"totalCost": "infinite"
					},
					"external": {
						"countV()": "2474",
						"d0()": "2473",
						"d1()": "2496",
						"d2()": "2496",
						"d3()": "2453",
						"d4()": "2452",
						"d5()": "2475",
						"d6()": "2497",
						"d7()": "2518",
						"d8()": "2474",
						"d9()": "2495",
						"res(uint256)": "infinite",
						"vote()": "infinite",
						"voters(address)": "infinite"
					},
					"internal": {
						"random_district()": "infinite",
						"random_vote()": "infinite"
					}
				},
				"methodIdentifiers": {
					"countV()": "6d8f3f10",
					"d0()": "a9874b2a",
					"d1()": "8c18f2f1",
					"d2()": "7ef1dbea",
					"d3()": "1946b5be",
					"d4()": "848ea577",
					"d5()": "56f897ef",
					"d6()": "5fc75cb5",
					"d7()": "80b3bd9b",
					"d8()": "8b7d553d",
					"d9()": "baf74a09",
					"res(uint256)": "d4e8fd2e",
					"vote()": "632a9a52",
					"voters(address)": "a3ec138d"
				}
			},
			"storageLayout": {
				"storage": [
					{
						"astId": 38,
						"contract": "smartContract/contracts/3_Ballot.sol:Ballot",
						"label": "voters",
						"offset": 0,
						"slot": "0",
						"type": "t_mapping(t_address,t_struct(Voter)8_storage)"
					},
					{
						"astId": 42,
						"contract": "smartContract/contracts/3_Ballot.sol:Ballot",
						"label": "proposals",
						"offset": 0,
						"slot": "1",
						"type": "t_array(t_struct(Proposal)33_storage)dyn_storage"
					},
					{
						"astId": 127,
						"contract": "smartContract/contracts/3_Ballot.sol:Ballot",
						"label": "countV",
						"offset": 0,
						"slot": "2",
						"type": "t_int256"
					},
					{
						"astId": 130,
						"contract": "smartContract/contracts/3_Ballot.sol:Ballot",
						"label": "d0",
						"offset": 0,
						"slot": "3",
						"type": "t_int256"
					},
					{
						"astId": 133,
						"contract": "smartContract/contracts/3_Ballot.sol:Ballot",
						"label": "d1",
						"offset": 0,
						"slot": "4",
						"type": "t_int256"
					},
					{
						"astId": 136,
						"contract": "smartContract/contracts/3_Ballot.sol:Ballot",
						"label": "d2",
						"offset": 0,
						"slot": "5",
						"type": "t_int256"
					},
					{
						"astId": 139,
						"contract": "smartContract/contracts/3_Ballot.sol:Ballot",
						"label": "d3",
						"offset": 0,
						"slot": "6",
						"type": "t_int256"
					},
					{
						"astId": 142,
						"contract": "smartContract/contracts/3_Ballot.sol:Ballot",
						"label": "d4",
						"offset": 0,
						"slot": "7",
						"type": "t_int256"
					},
					{
						"astId": 145,
						"contract": "smartContract/contracts/3_Ballot.sol:Ballot",
						"label": "d5",
						"offset": 0,
						"slot": "8",
						"type": "t_int256"
					},
					{
						"astId": 148,
						"contract": "smartContract/contracts/3_Ballot.sol:Ballot",
						"label": "d6",
						"offset": 0,
						"slot": "9",
						"type": "t_int256"
					},
					{
						"astId": 151,
						"contract": "smartContract/contracts/3_Ballot.sol:Ballot",
						"label": "d7",
						"offset": 0,
						"slot": "10",
						"type": "t_int256"
					},
					{
						"astId": 154,
						"contract": "smartContract/contracts/3_Ballot.sol:Ballot",
						"label": "d8",
						"offset": 0,
						"slot": "11",
						"type": "t_int256"
					},
					{
						"astId": 157,
						"contract": "smartContract/contracts/3_Ballot.sol:Ballot",
						"label": "d9",
						"offset": 0,
						"slot": "12",
						"type": "t_int256"
					}
				],
				"types": {
					"t_address": {
						"encoding": "inplace",
						"label": "address",
						"numberOfBytes": "20"
					},
					"t_array(t_struct(Proposal)33_storage)dyn_storage": {
						"base": "t_struct(Proposal)33_storage",
						"encoding": "dynamic_array",
						"label": "struct Ballot.Proposal[]",
						"numberOfBytes": "32"
					},
					"t_bool": {
						"encoding": "inplace",
						"label": "bool",
						"numberOfBytes": "1"
					},
					"t_int256": {
						"encoding": "inplace",
						"label": "int256",
						"numberOfBytes": "32"
					},
					"t_mapping(t_address,t_struct(Voter)8_storage)": {
						"encoding": "mapping",
						"key": "t_address",
						"label": "mapping(address => struct Ballot.Voter)",
						"numberOfBytes": "32",
						"value": "t_struct(Voter)8_storage"
					},
					"t_string_storage": {
						"encoding": "bytes",
						"label": "string",
						"numberOfBytes": "32"
					},
					"t_struct(Proposal)33_storage": {
						"encoding": "inplace",
						"label": "struct Ballot.Proposal",
						"members": [
							{
								"astId": 10,
								"contract": "smartContract/contracts/3_Ballot.sol:Ballot",
								"label": "name",
								"offset": 0,
								"slot": "0",
								"type": "t_string_storage"
							},
							{
								"astId": 12,
								"contract": "smartContract/contracts/3_Ballot.sol:Ballot",
								"label": "Total_Votes",
								"offset": 0,
								"slot": "1",
								"type": "t_uint256"
							},
							{
								"astId": 14,
								"contract": "smartContract/contracts/3_Ballot.sol:Ballot",
								"label": "Votes_District0",
								"offset": 0,
								"slot": "2",
								"type": "t_uint256"
							},
							{
								"astId": 16,
								"contract": "smartContract/contracts/3_Ballot.sol:Ballot",
								"label": "Votes_District1",
								"offset": 0,
								"slot": "3",
								"type": "t_uint256"
							},
							{
								"astId": 18,
								"contract": "smartContract/contracts/3_Ballot.sol:Ballot",
								"label": "Votes_District2",
								"offset": 0,
								"slot": "4",
								"type": "t_uint256"
							},
							{
								"astId": 20,
								"contract": "smartContract/contracts/3_Ballot.sol:Ballot",
								"label": "Votes_District3",
								"offset": 0,
								"slot": "5",
								"type": "t_uint256"
							},
							{
								"astId": 22,
								"contract": "smartContract/contracts/3_Ballot.sol:Ballot",
								"label": "Votes_District4",
								"offset": 0,
								"slot": "6",
								"type": "t_uint256"
							},
							{
								"astId": 24,
								"contract": "smartContract/contracts/3_Ballot.sol:Ballot",
								"label": "Votes_District5",
								"offset": 0,
								"slot": "7",
								"type": "t_uint256"
							},
							{
								"astId": 26,
								"contract": "smartContract/contracts/3_Ballot.sol:Ballot",
								"label": "Votes_District6",
								"offset": 0,
								"slot": "8",
								"type": "t_uint256"
							},
							{
								"astId": 28,
								"contract": "smartContract/contracts/3_Ballot.sol:Ballot",
								"label": "Votes_District7",
								"offset": 0,
								"slot": "9",
								"type": "t_uint256"
							},
							{
								"astId": 30,
								"contract": "smartContract/contracts/3_Ballot.sol:Ballot",
								"label": "Votes_District8",
								"offset": 0,
								"slot": "10",
								"type": "t_uint256"
							},
							{
								"astId": 32,
								"contract": "smartContract/contracts/3_Ballot.sol:Ballot",
								"label": "Votes_District9",
								"offset": 0,
								"slot": "11",
								"type": "t_uint256"
							}
						],
						"numberOfBytes": "384"
					},
					"t_struct(Voter)8_storage": {
						"encoding": "inplace",
						"label": "struct Ballot.Voter",
						"members": [
							{
								"astId": 3,
								"contract": "smartContract/contracts/3_Ballot.sol:Ballot",
								"label": "voted",
								"offset": 0,
								"slot": "0",
								"type": "t_bool"
							},
							{
								"astId": 5,
								"contract": "smartContract/contracts/3_Ballot.sol:Ballot",
								"label": "district",
								"offset": 0,
								"slot": "1",
								"type": "t_uint256"
							},
							{
								"astId": 7,
								"contract": "smartContract/contracts/3_Ballot.sol:Ballot",
								"label": "vote",
								"offset": 0,
								"slot": "2",
								"type": "t_uint256"
							}
						],
						"numberOfBytes": "96"
					},
					"t_uint256": {
						"encoding": "inplace",
						"label": "uint256",
						"numberOfBytes": "32"
					}
				}
			},
			"userdoc": {
				"kind": "user",
				"methods": {},
				"version": 1
			}
		}
	}
}