{
	"smartContract/contracts/3_Ballot.sol": {
		"Ballot": {
			"abi": [
				{
					"inputs": [],
					"stateMutability": "nonpayable",
					"type": "constructor"
				},
				{
					"inputs": [],
					"name": "random_vote",
					"outputs": [
						{
							"internalType": "uint256",
							"name": "",
							"type": "uint256"
						}
					],
					"stateMutability": "view",
					"type": "function"
				},
				{
					"inputs": [
						{
							"internalType": "uint256",
							"name": "_id",
							"type": "uint256"
						}
					],
					"name": "res",
					"outputs": [
						{
							"components": [
								{
									"internalType": "string",
									"name": "name",
									"type": "string"
								},
								{
									"internalType": "uint256",
									"name": "Total_Votes",
									"type": "uint256"
								},
								{
									"internalType": "uint256",
									"name": "Votes_District0",
									"type": "uint256"
								},
								{
									"internalType": "uint256",
									"name": "Votes_District1",
									"type": "uint256"
								},
								{
									"internalType": "uint256",
									"name": "Votes_District2",
									"type": "uint256"
								},
								{
									"internalType": "uint256",
									"name": "Votes_District3",
									"type": "uint256"
								},
								{
									"internalType": "uint256",
									"name": "Votes_District4",
									"type": "uint256"
								},
								{
									"internalType": "uint256",
									"name": "Votes_District5",
									"type": "uint256"
								},
								{
									"internalType": "uint256",
									"name": "Votes_District6",
									"type": "uint256"
								},
								{
									"internalType": "uint256",
									"name": "Votes_District7",
									"type": "uint256"
								},
								{
									"internalType": "uint256",
									"name": "Votes_District8",
									"type": "uint256"
								},
								{
									"internalType": "uint256",
									"name": "Votes_District9",
									"type": "uint256"
								}
							],
							"internalType": "struct Ballot.Proposal",
							"name": "",
							"type": "tuple"
						}
					],
					"stateMutability": "view",
					"type": "function"
				},
				{
					"inputs": [],
					"name": "vote",
					"outputs": [],
					"stateMutability": "nonpayable",
					"type": "function"
				},
				{
					"inputs": [
						{
							"internalType": "address",
							"name": "",
							"type": "address"
						}
					],
					"name": "voters",
					"outputs": [
						{
							"internalType": "uint256",
							"name": "weight",
							"type": "uint256"
						},
						{
							"internalType": "bool",
							"name": "voted",
							"type": "bool"
						},
						{
							"internalType": "uint256",
							"name": "district",
							"type": "uint256"
						},
						{
							"internalType": "uint256",
							"name": "vote",
							"type": "uint256"
						}
					],
					"stateMutability": "view",
					"type": "function"
				}
			],
			"devdoc": {
				"details": "Implements voting process along with vote delegation",
				"kind": "dev",
				"methods": {},
				"title": "Ballot",
				"version": 1
			},
			"evm": {
				"assembly": "    /* \"smartContract/contracts/3_Ballot.sol\":157:5744  contract Ballot {... */\n  mstore(0x40, 0x80)\n    /* \"smartContract/contracts/3_Ballot.sol\":2586:2587  0 */\n  0x00\n    /* \"smartContract/contracts/3_Ballot.sol\":2566:2587  int private count = 0 */\n  0x03\n  sstore\n    /* \"smartContract/contracts/3_Ballot.sol\":3216:3217  0 */\n  0x00\n    /* \"smartContract/contracts/3_Ballot.sol\":3195:3217  int private count2 = 0 */\n  0x04\n  sstore\n    /* \"smartContract/contracts/3_Ballot.sol\":1277:2119  constructor() {... */\n  callvalue\n  dup1\n  iszero\n  tag_1\n  jumpi\n  0x00\n  dup1\n  revert\ntag_1:\n  pop\n    /* \"smartContract/contracts/3_Ballot.sol\":1315:1325  msg.sender */\n  caller\n    /* \"smartContract/contracts/3_Ballot.sol\":1301:1312  chairperson */\n  0x00\n  dup1\n    /* \"smartContract/contracts/3_Ballot.sol\":1301:1325  chairperson = msg.sender */\n  0x0100\n  exp\n  dup2\n  sload\n  dup2\n  0xffffffffffffffffffffffffffffffffffffffff\n  mul\n  not\n  and\n  swap1\n  dup4\n  0xffffffffffffffffffffffffffffffffffffffff\n  and\n  mul\n  or\n  swap1\n  sstore\n  pop\n    /* \"smartContract/contracts/3_Ballot.sol\":1364:1365  1 */\n  0x01\n    /* \"smartContract/contracts/3_Ballot.sol\":1335:1341  voters */\n  dup1\n    /* \"smartContract/contracts/3_Ballot.sol\":1335:1354  voters[chairperson] */\n  0x00\n    /* \"smartContract/contracts/3_Ballot.sol\":1342:1353  chairperson */\n  dup1\n  0x00\n  swap1\n  sload\n  swap1\n  0x0100\n  exp\n  swap1\n  div\n  0xffffffffffffffffffffffffffffffffffffffff\n  and\n    /* \"smartContract/contracts/3_Ballot.sol\":1335:1354  voters[chairperson] */\n  0xffffffffffffffffffffffffffffffffffffffff\n  and\n  0xffffffffffffffffffffffffffffffffffffffff\n  and\n  dup2\n  mstore\n  0x20\n  add\n  swap1\n  dup2\n  mstore\n  0x20\n  add\n  0x00\n  keccak256\n    /* \"smartContract/contracts/3_Ballot.sol\":1335:1361  voters[chairperson].weight */\n  0x00\n  add\n    /* \"smartContract/contracts/3_Ballot.sol\":1335:1365  voters[chairperson].weight = 1 */\n  dup2\n  swap1\n  sstore\n  pop\n    /* \"smartContract/contracts/3_Ballot.sol\":1375:1405  string[5] memory proposalNames */\n  0x00\n    /* \"smartContract/contracts/3_Ballot.sol\":1375:1429  string[5] memory proposalNames = [\"a\",\"b\",\"c\",\"d\",\"e\"] */\n  mload(0x40)\n  dup1\n  0xa0\n  add\n  0x40\n  mstore\n  dup1\n  mload(0x40)\n  dup1\n  0x40\n  add\n  0x40\n  mstore\n  dup1\n  0x01\n  dup2\n  mstore\n  0x20\n  add\n  0x6100000000000000000000000000000000000000000000000000000000000000\n  dup2\n  mstore\n  pop\n  dup2\n  mstore\n  0x20\n  add\n  mload(0x40)\n  dup1\n  0x40\n  add\n  0x40\n  mstore\n  dup1\n  0x01\n  dup2\n  mstore\n  0x20\n  add\n  0x6200000000000000000000000000000000000000000000000000000000000000\n  dup2\n  mstore\n  pop\n  dup2\n  mstore\n  0x20\n  add\n  mload(0x40)\n  dup1\n  0x40\n  add\n  0x40\n  mstore\n  dup1\n  0x01\n  dup2\n  mstore\n  0x20\n  add\n  0x6300000000000000000000000000000000000000000000000000000000000000\n  dup2\n  mstore\n  pop\n  dup2\n  mstore\n  0x20\n  add\n  mload(0x40)\n  dup1\n  0x40\n  add\n  0x40\n  mstore\n  dup1\n  0x01\n  dup2\n  mstore\n  0x20\n  add\n  0x6400000000000000000000000000000000000000000000000000000000000000\n  dup2\n  mstore\n  pop\n  dup2\n  mstore\n  0x20\n  add\n  mload(0x40)\n  dup1\n  0x40\n  add\n  0x40\n  mstore\n  dup1\n  0x01\n  dup2\n  mstore\n  0x20\n  add\n  0x6500000000000000000000000000000000000000000000000000000000000000\n  dup2\n  mstore\n  pop\n  dup2\n  mstore\n  pop\n  swap1\n  pop\n    /* \"smartContract/contracts/3_Ballot.sol\":1469:1470  5 */\n  0x05\n    /* \"smartContract/contracts/3_Ballot.sol\":1447:1467  proposalNames.length */\n  dup1\n    /* \"smartContract/contracts/3_Ballot.sol\":1447:1470  proposalNames.length==5 */\n  eq\n    /* \"smartContract/contracts/3_Ballot.sol\":1439:1495  require(proposalNames.length==5,\"Candidates must be 5.\") */\n  tag_4\n  jumpi\n  mload(0x40)\n  0x08c379a000000000000000000000000000000000000000000000000000000000\n  dup2\n  mstore\n  0x04\n  add\n  tag_5\n  swap1\n  tag_6\n  jump\t// in\ntag_5:\n  mload(0x40)\n  dup1\n  swap2\n  sub\n  swap1\n  revert\ntag_4:\n    /* \"smartContract/contracts/3_Ballot.sol\":1510:1516  uint i */\n  0x00\n    /* \"smartContract/contracts/3_Ballot.sol\":1505:2113  for (uint i = 0; i < proposalNames.length; i++) {... */\ntag_7:\n    /* \"smartContract/contracts/3_Ballot.sol\":1526:1546  proposalNames.length */\n  0x05\n    /* \"smartContract/contracts/3_Ballot.sol\":1522:1523  i */\n  dup2\n    /* \"smartContract/contracts/3_Ballot.sol\":1522:1546  i < proposalNames.length */\n  lt\n    /* \"smartContract/contracts/3_Ballot.sol\":1505:2113  for (uint i = 0; i < proposalNames.length; i++) {... */\n  iszero\n  tag_8\n  jumpi\n    /* \"smartContract/contracts/3_Ballot.sol\":1567:1576  proposals */\n  0x02\n    /* \"smartContract/contracts/3_Ballot.sol\":1582:2101  Proposal({... */\n  mload(0x40)\n  dup1\n  0x0180\n  add\n  0x40\n  mstore\n  dup1\n    /* \"smartContract/contracts/3_Ballot.sol\":1615:1628  proposalNames */\n  dup5\n    /* \"smartContract/contracts/3_Ballot.sol\":1629:1630  i */\n  dup5\n    /* \"smartContract/contracts/3_Ballot.sol\":1615:1631  proposalNames[i] */\n  0x05\n  dup2\n  lt\n  tag_10\n  jumpi\n  tag_11\n  tag_12\n  jump\t// in\ntag_11:\ntag_10:\n  0x20\n  mul\n  add\n  mload\n    /* \"smartContract/contracts/3_Ballot.sol\":1582:2101  Proposal({... */\n  dup2\n  mstore\n  0x20\n  add\n    /* \"smartContract/contracts/3_Ballot.sol\":1725:1726  0 */\n  0x00\n    /* \"smartContract/contracts/3_Ballot.sol\":1582:2101  Proposal({... */\n  dup2\n  mstore\n  0x20\n  add\n    /* \"smartContract/contracts/3_Ballot.sol\":1761:1762  0 */\n  0x00\n    /* \"smartContract/contracts/3_Ballot.sol\":1582:2101  Proposal({... */\n  dup2\n  mstore\n  0x20\n  add\n    /* \"smartContract/contracts/3_Ballot.sol\":1797:1798  0 */\n  0x00\n    /* \"smartContract/contracts/3_Ballot.sol\":1582:2101  Proposal({... */\n  dup2\n  mstore\n  0x20\n  add\n    /* \"smartContract/contracts/3_Ballot.sol\":1833:1834  0 */\n  0x00\n    /* \"smartContract/contracts/3_Ballot.sol\":1582:2101  Proposal({... */\n  dup2\n  mstore\n  0x20\n  add\n    /* \"smartContract/contracts/3_Ballot.sol\":1869:1870  0 */\n  0x00\n    /* \"smartContract/contracts/3_Ballot.sol\":1582:2101  Proposal({... */\n  dup2\n  mstore\n  0x20\n  add\n    /* \"smartContract/contracts/3_Ballot.sol\":1905:1906  0 */\n  0x00\n    /* \"smartContract/contracts/3_Ballot.sol\":1582:2101  Proposal({... */\n  dup2\n  mstore\n  0x20\n  add\n    /* \"smartContract/contracts/3_Ballot.sol\":1941:1942  0 */\n  0x00\n    /* \"smartContract/contracts/3_Ballot.sol\":1582:2101  Proposal({... */\n  dup2\n  mstore\n  0x20\n  add\n    /* \"smartContract/contracts/3_Ballot.sol\":1977:1978  0 */\n  0x00\n    /* \"smartContract/contracts/3_Ballot.sol\":1582:2101  Proposal({... */\n  dup2\n  mstore\n  0x20\n  add\n    /* \"smartContract/contracts/3_Ballot.sol\":2013:2014  0 */\n  0x00\n    /* \"smartContract/contracts/3_Ballot.sol\":1582:2101  Proposal({... */\n  dup2\n  mstore\n  0x20\n  add\n    /* \"smartContract/contracts/3_Ballot.sol\":2049:2050  0 */\n  0x00\n    /* \"smartContract/contracts/3_Ballot.sol\":1582:2101  Proposal({... */\n  dup2\n  mstore\n  0x20\n  add\n    /* \"smartContract/contracts/3_Ballot.sol\":2085:2086  0 */\n  0x00\n    /* \"smartContract/contracts/3_Ballot.sol\":1582:2101  Proposal({... */\n  dup2\n  mstore\n  pop\n    /* \"smartContract/contracts/3_Ballot.sol\":1567:2102  proposals.push(Proposal({... */\n  swap1\n  dup1\n  0x01\n  dup2\n  sload\n  add\n  dup1\n  dup3\n  sstore\n  dup1\n  swap2\n  pop\n  pop\n  0x01\n  swap1\n  sub\n  swap1\n  0x00\n  mstore\n  keccak256(0x00, 0x20)\n  swap1\n  0x0c\n  mul\n  add\n  0x00\n  swap1\n  swap2\n  swap1\n  swap2\n  swap1\n  swap2\n  pop\n  0x00\n  dup3\n  add\n  mload\n  dup2\n  0x00\n  add\n  swap1\n  dup1\n  mload\n  swap1\n  0x20\n  add\n  swap1\n  tag_14\n  swap3\n  swap2\n  swap1\n  tag_15\n  jump\t// in\ntag_14:\n  pop\n  0x20\n  dup3\n  add\n  mload\n  dup2\n  0x01\n  add\n  sstore\n  0x40\n  dup3\n  add\n  mload\n  dup2\n  0x02\n  add\n  sstore\n  0x60\n  dup3\n  add\n  mload\n  dup2\n  0x03\n  add\n  sstore\n  0x80\n  dup3\n  add\n  mload\n  dup2\n  0x04\n  add\n  sstore\n  0xa0\n  dup3\n  add\n  mload\n  dup2\n  0x05\n  add\n  sstore\n  0xc0\n  dup3\n  add\n  mload\n  dup2\n  0x06\n  add\n  sstore\n  0xe0\n  dup3\n  add\n  mload\n  dup2\n  0x07\n  add\n  sstore\n  0x0100\n  dup3\n  add\n  mload\n  dup2\n  0x08\n  add\n  sstore\n  0x0120\n  dup3\n  add\n  mload\n  dup2\n  0x09\n  add\n  sstore\n  0x0140\n  dup3\n  add\n  mload\n  dup2\n  0x0a\n  add\n  sstore\n  0x0160\n  dup3\n  add\n  mload\n  dup2\n  0x0b\n  add\n  sstore\n  pop\n  pop\n    /* \"smartContract/contracts/3_Ballot.sol\":1548:1551  i++ */\n  dup1\n  dup1\n  tag_16\n  swap1\n  tag_17\n  jump\t// in\ntag_16:\n  swap2\n  pop\n  pop\n    /* \"smartContract/contracts/3_Ballot.sol\":1505:2113  for (uint i = 0; i < proposalNames.length; i++) {... */\n  jump(tag_7)\ntag_8:\n  pop\n    /* \"smartContract/contracts/3_Ballot.sol\":1291:2119  {... */\n  pop\n    /* \"smartContract/contracts/3_Ballot.sol\":157:5744  contract Ballot {... */\n  jump(tag_18)\ntag_15:\n  dup3\n  dup1\n  sload\n  tag_19\n  swap1\n  tag_20\n  jump\t// in\ntag_19:\n  swap1\n  0x00\n  mstore\n  keccak256(0x00, 0x20)\n  swap1\n  0x1f\n  add\n  0x20\n  swap1\n  div\n  dup2\n  add\n  swap3\n  dup3\n  tag_22\n  jumpi\n  0x00\n  dup6\n  sstore\n  jump(tag_21)\ntag_22:\n  dup3\n  0x1f\n  lt\n  tag_23\n  jumpi\n  dup1\n  mload\n  not(0xff)\n  and\n  dup4\n  dup1\n  add\n  or\n  dup6\n  sstore\n  jump(tag_21)\ntag_23:\n  dup3\n  dup1\n  add\n  0x01\n  add\n  dup6\n  sstore\n  dup3\n  iszero\n  tag_21\n  jumpi\n  swap2\n  dup3\n  add\ntag_24:\n  dup3\n  dup2\n  gt\n  iszero\n  tag_25\n  jumpi\n  dup3\n  mload\n  dup3\n  sstore\n  swap2\n  0x20\n  add\n  swap2\n  swap1\n  0x01\n  add\n  swap1\n  jump(tag_24)\ntag_25:\ntag_21:\n  pop\n  swap1\n  pop\n  tag_26\n  swap2\n  swap1\n  tag_27\n  jump\t// in\ntag_26:\n  pop\n  swap1\n  jump\t// out\ntag_27:\ntag_28:\n  dup1\n  dup3\n  gt\n  iszero\n  tag_29\n  jumpi\n  0x00\n  dup2\n  0x00\n  swap1\n  sstore\n  pop\n  0x01\n  add\n  jump(tag_28)\ntag_29:\n  pop\n  swap1\n  jump\t// out\n    /* \"#utility.yul\":7:373   */\ntag_31:\n    /* \"#utility.yul\":149:152   */\n  0x00\n    /* \"#utility.yul\":170:237   */\n  tag_33\n    /* \"#utility.yul\":234:236   */\n  0x15\n    /* \"#utility.yul\":229:232   */\n  dup4\n    /* \"#utility.yul\":170:237   */\n  tag_34\n  jump\t// in\ntag_33:\n    /* \"#utility.yul\":163:237   */\n  swap2\n  pop\n    /* \"#utility.yul\":246:339   */\n  tag_35\n    /* \"#utility.yul\":335:338   */\n  dup3\n    /* \"#utility.yul\":246:339   */\n  tag_36\n  jump\t// in\ntag_35:\n    /* \"#utility.yul\":364:366   */\n  0x20\n    /* \"#utility.yul\":359:362   */\n  dup3\n    /* \"#utility.yul\":355:367   */\n  add\n    /* \"#utility.yul\":348:367   */\n  swap1\n  pop\n    /* \"#utility.yul\":7:373   */\n  swap2\n  swap1\n  pop\n  jump\t// out\n    /* \"#utility.yul\":379:798   */\ntag_6:\n    /* \"#utility.yul\":545:549   */\n  0x00\n    /* \"#utility.yul\":583:585   */\n  0x20\n    /* \"#utility.yul\":572:581   */\n  dup3\n    /* \"#utility.yul\":568:586   */\n  add\n    /* \"#utility.yul\":560:586   */\n  swap1\n  pop\n    /* \"#utility.yul\":632:641   */\n  dup2\n    /* \"#utility.yul\":626:630   */\n  dup2\n    /* \"#utility.yul\":622:642   */\n  sub\n    /* \"#utility.yul\":618:619   */\n  0x00\n    /* \"#utility.yul\":607:616   */\n  dup4\n    /* \"#utility.yul\":603:620   */\n  add\n    /* \"#utility.yul\":596:643   */\n  mstore\n    /* \"#utility.yul\":660:791   */\n  tag_38\n    /* \"#utility.yul\":786:790   */\n  dup2\n    /* \"#utility.yul\":660:791   */\n  tag_31\n  jump\t// in\ntag_38:\n    /* \"#utility.yul\":652:791   */\n  swap1\n  pop\n    /* \"#utility.yul\":379:798   */\n  swap2\n  swap1\n  pop\n  jump\t// out\n    /* \"#utility.yul\":804:973   */\ntag_34:\n    /* \"#utility.yul\":888:899   */\n  0x00\n    /* \"#utility.yul\":922:928   */\n  dup3\n    /* \"#utility.yul\":917:920   */\n  dup3\n    /* \"#utility.yul\":910:929   */\n  mstore\n    /* \"#utility.yul\":962:966   */\n  0x20\n    /* \"#utility.yul\":957:960   */\n  dup3\n    /* \"#utility.yul\":953:967   */\n  add\n    /* \"#utility.yul\":938:967   */\n  swap1\n  pop\n    /* \"#utility.yul\":804:973   */\n  swap3\n  swap2\n  pop\n  pop\n  jump\t// out\n    /* \"#utility.yul\":979:1056   */\ntag_40:\n    /* \"#utility.yul\":1016:1023   */\n  0x00\n    /* \"#utility.yul\":1045:1050   */\n  dup2\n    /* \"#utility.yul\":1034:1050   */\n  swap1\n  pop\n    /* \"#utility.yul\":979:1056   */\n  swap2\n  swap1\n  pop\n  jump\t// out\n    /* \"#utility.yul\":1062:1382   */\ntag_20:\n    /* \"#utility.yul\":1106:1112   */\n  0x00\n    /* \"#utility.yul\":1143:1144   */\n  0x02\n    /* \"#utility.yul\":1137:1141   */\n  dup3\n    /* \"#utility.yul\":1133:1145   */\n  div\n    /* \"#utility.yul\":1123:1145   */\n  swap1\n  pop\n    /* \"#utility.yul\":1190:1191   */\n  0x01\n    /* \"#utility.yul\":1184:1188   */\n  dup3\n    /* \"#utility.yul\":1180:1192   */\n  and\n    /* \"#utility.yul\":1211:1229   */\n  dup1\n    /* \"#utility.yul\":1201:1282   */\n  tag_43\n  jumpi\n    /* \"#utility.yul\":1267:1271   */\n  0x7f\n    /* \"#utility.yul\":1259:1265   */\n  dup3\n    /* \"#utility.yul\":1255:1272   */\n  and\n    /* \"#utility.yul\":1245:1272   */\n  swap2\n  pop\n    /* \"#utility.yul\":1201:1282   */\ntag_43:\n    /* \"#utility.yul\":1329:1331   */\n  0x20\n    /* \"#utility.yul\":1321:1327   */\n  dup3\n    /* \"#utility.yul\":1318:1332   */\n  lt\n    /* \"#utility.yul\":1298:1316   */\n  dup2\n    /* \"#utility.yul\":1295:1333   */\n  eq\n    /* \"#utility.yul\":1292:1376   */\n  iszero\n  tag_44\n  jumpi\n    /* \"#utility.yul\":1348:1366   */\n  tag_45\n  tag_46\n  jump\t// in\ntag_45:\n    /* \"#utility.yul\":1292:1376   */\ntag_44:\n    /* \"#utility.yul\":1113:1382   */\n  pop\n    /* \"#utility.yul\":1062:1382   */\n  swap2\n  swap1\n  pop\n  jump\t// out\n    /* \"#utility.yul\":1388:1621   */\ntag_17:\n    /* \"#utility.yul\":1427:1430   */\n  0x00\n    /* \"#utility.yul\":1450:1474   */\n  tag_48\n    /* \"#utility.yul\":1468:1473   */\n  dup3\n    /* \"#utility.yul\":1450:1474   */\n  tag_40\n  jump\t// in\ntag_48:\n    /* \"#utility.yul\":1441:1474   */\n  swap2\n  pop\n    /* \"#utility.yul\":1496:1562   */\n  0xffffffffffffffffffffffffffffffffffffffffffffffffffffffffffffffff\n    /* \"#utility.yul\":1489:1494   */\n  dup3\n    /* \"#utility.yul\":1486:1563   */\n  eq\n    /* \"#utility.yul\":1483:1586   */\n  iszero\n  tag_49\n  jumpi\n    /* \"#utility.yul\":1566:1584   */\n  tag_50\n  tag_51\n  jump\t// in\ntag_50:\n    /* \"#utility.yul\":1483:1586   */\ntag_49:\n    /* \"#utility.yul\":1613:1614   */\n  0x01\n    /* \"#utility.yul\":1606:1611   */\n  dup3\n    /* \"#utility.yul\":1602:1615   */\n  add\n    /* \"#utility.yul\":1595:1615   */\n  swap1\n  pop\n    /* \"#utility.yul\":1388:1621   */\n  swap2\n  swap1\n  pop\n  jump\t// out\n    /* \"#utility.yul\":1627:1807   */\ntag_51:\n    /* \"#utility.yul\":1675:1752   */\n  0x4e487b7100000000000000000000000000000000000000000000000000000000\n    /* \"#utility.yul\":1672:1673   */\n  0x00\n    /* \"#utility.yul\":1665:1753   */\n  mstore\n    /* \"#utility.yul\":1772:1776   */\n  0x11\n    /* \"#utility.yul\":1769:1770   */\n  0x04\n    /* \"#utility.yul\":1762:1777   */\n  mstore\n    /* \"#utility.yul\":1796:1800   */\n  0x24\n    /* \"#utility.yul\":1793:1794   */\n  0x00\n    /* \"#utility.yul\":1786:1801   */\n  revert\n    /* \"#utility.yul\":1813:1993   */\ntag_46:\n    /* \"#utility.yul\":1861:1938   */\n  0x4e487b7100000000000000000000000000000000000000000000000000000000\n    /* \"#utility.yul\":1858:1859   */\n  0x00\n    /* \"#utility.yul\":1851:1939   */\n  mstore\n    /* \"#utility.yul\":1958:1962   */\n  0x22\n    /* \"#utility.yul\":1955:1956   */\n  0x04\n    /* \"#utility.yul\":1948:1963   */\n  mstore\n    /* \"#utility.yul\":1982:1986   */\n  0x24\n    /* \"#utility.yul\":1979:1980   */\n  0x00\n    /* \"#utility.yul\":1972:1987   */\n  revert\n    /* \"#utility.yul\":1999:2179   */\ntag_12:\n    /* \"#utility.yul\":2047:2124   */\n  0x4e487b7100000000000000000000000000000000000000000000000000000000\n    /* \"#utility.yul\":2044:2045   */\n  0x00\n    /* \"#utility.yul\":2037:2125   */\n  mstore\n    /* \"#utility.yul\":2144:2148   */\n  0x32\n    /* \"#utility.yul\":2141:2142   */\n  0x04\n    /* \"#utility.yul\":2134:2149   */\n  mstore\n    /* \"#utility.yul\":2168:2172   */\n  0x24\n    /* \"#utility.yul\":2165:2166   */\n  0x00\n    /* \"#utility.yul\":2158:2173   */\n  revert\n    /* \"#utility.yul\":2185:2356   */\ntag_36:\n    /* \"#utility.yul\":2325:2348   */\n  0x43616e64696461746573206d75737420626520352e0000000000000000000000\n    /* \"#utility.yul\":2321:2322   */\n  0x00\n    /* \"#utility.yul\":2313:2319   */\n  dup3\n    /* \"#utility.yul\":2309:2323   */\n  add\n    /* \"#utility.yul\":2302:2349   */\n  mstore\n    /* \"#utility.yul\":2185:2356   */\n  pop\n  jump\t// out\n    /* \"smartContract/contracts/3_Ballot.sol\":157:5744  contract Ballot {... */\ntag_18:\n  dataSize(sub_0)\n  dup1\n  dataOffset(sub_0)\n  0x00\n  codecopy\n  0x00\n  return\nstop\n\nsub_0: assembly {\n        /* \"smartContract/contracts/3_Ballot.sol\":157:5744  contract Ballot {... */\n      mstore(0x40, 0x80)\n      callvalue\n      dup1\n      iszero\n      tag_1\n      jumpi\n      0x00\n      dup1\n      revert\n    tag_1:\n      pop\n      jumpi(tag_2, lt(calldatasize, 0x04))\n      shr(0xe0, calldataload(0x00))\n      dup1\n      0x632a9a52\n      eq\n      tag_3\n      jumpi\n      dup1\n      0xa3ec138d\n      eq\n      tag_4\n      jumpi\n      dup1\n      0xcfa1f037\n      eq\n      tag_5\n      jumpi\n      dup1\n      0xd4e8fd2e\n      eq\n      tag_6\n      jumpi\n    tag_2:\n      0x00\n      dup1\n      revert\n        /* \"smartContract/contracts/3_Ballot.sol\":3477:5639  function vote() public {... */\n    tag_3:\n      tag_7\n      tag_8\n      jump\t// in\n    tag_7:\n      stop\n        /* \"smartContract/contracts/3_Ballot.sol\":896:935  mapping(address => Voter) public voters */\n    tag_4:\n      tag_9\n      0x04\n      dup1\n      calldatasize\n      sub\n      dup2\n      add\n      swap1\n      tag_10\n      swap2\n      swap1\n      tag_11\n      jump\t// in\n    tag_10:\n      tag_12\n      jump\t// in\n    tag_9:\n      mload(0x40)\n      tag_13\n      swap5\n      swap4\n      swap3\n      swap2\n      swap1\n      tag_14\n      jump\t// in\n    tag_13:\n      mload(0x40)\n      dup1\n      swap2\n      sub\n      swap1\n      return\n        /* \"smartContract/contracts/3_Ballot.sol\":3294:3471  function random_vote() public view returns(uint){... */\n    tag_5:\n      tag_15\n      tag_16\n      jump\t// in\n    tag_15:\n      mload(0x40)\n      tag_17\n      swap2\n      swap1\n      tag_18\n      jump\t// in\n    tag_17:\n      mload(0x40)\n      dup1\n      swap2\n      sub\n      swap1\n      return\n        /* \"smartContract/contracts/3_Ballot.sol\":5645:5742  function res(uint _id) public view returns(Proposal memory){... */\n    tag_6:\n      tag_19\n      0x04\n      dup1\n      calldatasize\n      sub\n      dup2\n      add\n      swap1\n      tag_20\n      swap2\n      swap1\n      tag_21\n      jump\t// in\n    tag_20:\n      tag_22\n      jump\t// in\n    tag_19:\n      mload(0x40)\n      tag_23\n      swap2\n      swap1\n      tag_24\n      jump\t// in\n    tag_23:\n      mload(0x40)\n      dup1\n      swap2\n      sub\n      swap1\n      return\n        /* \"smartContract/contracts/3_Ballot.sol\":3477:5639  function vote() public {... */\n    tag_8:\n        /* \"smartContract/contracts/3_Ballot.sol\":3546:3552  voters */\n      0x01\n        /* \"smartContract/contracts/3_Ballot.sol\":3546:3564  voters[msg.sender] */\n      0x00\n        /* \"smartContract/contracts/3_Ballot.sol\":3553:3563  msg.sender */\n      caller\n        /* \"smartContract/contracts/3_Ballot.sol\":3546:3564  voters[msg.sender] */\n      0xffffffffffffffffffffffffffffffffffffffff\n      and\n      0xffffffffffffffffffffffffffffffffffffffff\n      and\n      dup2\n      mstore\n      0x20\n      add\n      swap1\n      dup2\n      mstore\n      0x20\n      add\n      0x00\n      keccak256\n        /* \"smartContract/contracts/3_Ballot.sol\":3546:3570  voters[msg.sender].voted */\n      0x01\n      add\n      0x00\n      swap1\n      sload\n      swap1\n      0x0100\n      exp\n      swap1\n      div\n      0xff\n      and\n        /* \"smartContract/contracts/3_Ballot.sol\":3545:3570  !voters[msg.sender].voted */\n      iszero\n        /* \"smartContract/contracts/3_Ballot.sol\":3524:3620  require(... */\n      tag_26\n      jumpi\n      mload(0x40)\n      0x08c379a000000000000000000000000000000000000000000000000000000000\n      dup2\n      mstore\n      0x04\n      add\n      tag_27\n      swap1\n      tag_28\n      jump\t// in\n    tag_27:\n      mload(0x40)\n      dup1\n      swap2\n      sub\n      swap1\n      revert\n    tag_26:\n        /* \"smartContract/contracts/3_Ballot.sol\":3667:3668  0 */\n      0x00\n        /* \"smartContract/contracts/3_Ballot.sol\":3638:3644  voters */\n      0x01\n        /* \"smartContract/contracts/3_Ballot.sol\":3638:3656  voters[msg.sender] */\n      0x00\n        /* \"smartContract/contracts/3_Ballot.sol\":3645:3655  msg.sender */\n      caller\n        /* \"smartContract/contracts/3_Ballot.sol\":3638:3656  voters[msg.sender] */\n      0xffffffffffffffffffffffffffffffffffffffff\n      and\n      0xffffffffffffffffffffffffffffffffffffffff\n      and\n      dup2\n      mstore\n      0x20\n      add\n      swap1\n      dup2\n      mstore\n      0x20\n      add\n      0x00\n      keccak256\n        /* \"smartContract/contracts/3_Ballot.sol\":3638:3663  voters[msg.sender].weight */\n      0x00\n      add\n      sload\n        /* \"smartContract/contracts/3_Ballot.sol\":3638:3668  voters[msg.sender].weight == 0 */\n      eq\n        /* \"smartContract/contracts/3_Ballot.sol\":3630:3669  require(voters[msg.sender].weight == 0) */\n      tag_29\n      jumpi\n      0x00\n      dup1\n      revert\n    tag_29:\n        /* \"smartContract/contracts/3_Ballot.sol\":3707:3708  1 */\n      0x01\n        /* \"smartContract/contracts/3_Ballot.sol\":3679:3685  voters */\n      dup1\n        /* \"smartContract/contracts/3_Ballot.sol\":3679:3697  voters[msg.sender] */\n      0x00\n        /* \"smartContract/contracts/3_Ballot.sol\":3686:3696  msg.sender */\n      caller\n        /* \"smartContract/contracts/3_Ballot.sol\":3679:3697  voters[msg.sender] */\n      0xffffffffffffffffffffffffffffffffffffffff\n      and\n      0xffffffffffffffffffffffffffffffffffffffff\n      and\n      dup2\n      mstore\n      0x20\n      add\n      swap1\n      dup2\n      mstore\n      0x20\n      add\n      0x00\n      keccak256\n        /* \"smartContract/contracts/3_Ballot.sol\":3679:3704  voters[msg.sender].weight */\n      0x00\n      add\n        /* \"smartContract/contracts/3_Ballot.sol\":3679:3708  voters[msg.sender].weight = 1 */\n      dup2\n      swap1\n      sstore\n      pop\n        /* \"smartContract/contracts/3_Ballot.sol\":3768:3786  incrementCounter() */\n      tag_30\n        /* \"smartContract/contracts/3_Ballot.sol\":3768:3784  incrementCounter */\n      tag_31\n        /* \"smartContract/contracts/3_Ballot.sol\":3768:3786  incrementCounter() */\n      jump\t// in\n    tag_30:\n        /* \"smartContract/contracts/3_Ballot.sol\":3824:3841  random_district() */\n      tag_32\n        /* \"smartContract/contracts/3_Ballot.sol\":3824:3839  random_district */\n      tag_33\n        /* \"smartContract/contracts/3_Ballot.sol\":3824:3841  random_district() */\n      jump\t// in\n    tag_32:\n        /* \"smartContract/contracts/3_Ballot.sol\":3796:3802  voters */\n      0x01\n        /* \"smartContract/contracts/3_Ballot.sol\":3796:3814  voters[msg.sender] */\n      0x00\n        /* \"smartContract/contracts/3_Ballot.sol\":3803:3813  msg.sender */\n      caller\n        /* \"smartContract/contracts/3_Ballot.sol\":3796:3814  voters[msg.sender] */\n      0xffffffffffffffffffffffffffffffffffffffff\n      and\n      0xffffffffffffffffffffffffffffffffffffffff\n      and\n      dup2\n      mstore\n      0x20\n      add\n      swap1\n      dup2\n      mstore\n      0x20\n      add\n      0x00\n      keccak256\n        /* \"smartContract/contracts/3_Ballot.sol\":3796:3823  voters[msg.sender].district */\n      0x02\n      add\n        /* \"smartContract/contracts/3_Ballot.sol\":3796:3841  voters[msg.sender].district=random_district() */\n      dup2\n      swap1\n      sstore\n      pop\n        /* \"smartContract/contracts/3_Ballot.sol\":3869:3889  Voter storage sender */\n      0x00\n        /* \"smartContract/contracts/3_Ballot.sol\":3892:3898  voters */\n      0x01\n        /* \"smartContract/contracts/3_Ballot.sol\":3892:3910  voters[msg.sender] */\n      0x00\n        /* \"smartContract/contracts/3_Ballot.sol\":3899:3909  msg.sender */\n      caller\n        /* \"smartContract/contracts/3_Ballot.sol\":3892:3910  voters[msg.sender] */\n      0xffffffffffffffffffffffffffffffffffffffff\n      and\n      0xffffffffffffffffffffffffffffffffffffffff\n      and\n      dup2\n      mstore\n      0x20\n      add\n      swap1\n      dup2\n      mstore\n      0x20\n      add\n      0x00\n      keccak256\n        /* \"smartContract/contracts/3_Ballot.sol\":3869:3910  Voter storage sender = voters[msg.sender] */\n      swap1\n      pop\n        /* \"smartContract/contracts/3_Ballot.sol\":4043:4049  sender */\n      dup1\n        /* \"smartContract/contracts/3_Ballot.sol\":4043:4055  sender.voted */\n      0x01\n      add\n      0x00\n      swap1\n      sload\n      swap1\n      0x0100\n      exp\n      swap1\n      div\n      0xff\n      and\n        /* \"smartContract/contracts/3_Ballot.sol\":4042:4055  !sender.voted */\n      iszero\n        /* \"smartContract/contracts/3_Ballot.sol\":4034:4074  require(!sender.voted, \"Already voted.\") */\n      tag_34\n      jumpi\n      mload(0x40)\n      0x08c379a000000000000000000000000000000000000000000000000000000000\n      dup2\n      mstore\n      0x04\n      add\n      tag_35\n      swap1\n      tag_36\n      jump\t// in\n    tag_35:\n      mload(0x40)\n      dup1\n      swap2\n      sub\n      swap1\n      revert\n    tag_34:\n        /* \"smartContract/contracts/3_Ballot.sol\":4099:4103  true */\n      0x01\n        /* \"smartContract/contracts/3_Ballot.sol\":4084:4090  sender */\n      dup2\n        /* \"smartContract/contracts/3_Ballot.sol\":4084:4096  sender.voted */\n      0x01\n      add\n      0x00\n        /* \"smartContract/contracts/3_Ballot.sol\":4084:4103  sender.voted = true */\n      0x0100\n      exp\n      dup2\n      sload\n      dup2\n      0xff\n      mul\n      not\n      and\n      swap1\n      dup4\n      iszero\n      iszero\n      mul\n      or\n      swap1\n      sstore\n      pop\n        /* \"smartContract/contracts/3_Ballot.sol\":4162:4175  random_vote() */\n      tag_37\n        /* \"smartContract/contracts/3_Ballot.sol\":4162:4173  random_vote */\n      tag_16\n        /* \"smartContract/contracts/3_Ballot.sol\":4162:4175  random_vote() */\n      jump\t// in\n    tag_37:\n        /* \"smartContract/contracts/3_Ballot.sol\":4148:4154  sender */\n      dup2\n        /* \"smartContract/contracts/3_Ballot.sol\":4148:4159  sender.vote */\n      0x03\n      add\n        /* \"smartContract/contracts/3_Ballot.sol\":4148:4175  sender.vote = random_vote() */\n      dup2\n      swap1\n      sstore\n      pop\n        /* \"smartContract/contracts/3_Ballot.sol\":4536:4542  sender */\n      dup1\n        /* \"smartContract/contracts/3_Ballot.sol\":4536:4549  sender.weight */\n      0x00\n      add\n      sload\n        /* \"smartContract/contracts/3_Ballot.sol\":4496:4505  proposals */\n      0x02\n        /* \"smartContract/contracts/3_Ballot.sol\":4506:4519  random_vote() */\n      tag_38\n        /* \"smartContract/contracts/3_Ballot.sol\":4506:4517  random_vote */\n      tag_16\n        /* \"smartContract/contracts/3_Ballot.sol\":4506:4519  random_vote() */\n      jump\t// in\n    tag_38:\n        /* \"smartContract/contracts/3_Ballot.sol\":4496:4520  proposals[random_vote()] */\n      dup2\n      sload\n      dup2\n      lt\n      tag_39\n      jumpi\n      tag_40\n      tag_41\n      jump\t// in\n    tag_40:\n    tag_39:\n      swap1\n      0x00\n      mstore\n      keccak256(0x00, 0x20)\n      swap1\n      0x0c\n      mul\n      add\n        /* \"smartContract/contracts/3_Ballot.sol\":4496:4532  proposals[random_vote()].Total_Votes */\n      0x01\n      add\n      0x00\n        /* \"smartContract/contracts/3_Ballot.sol\":4496:4549  proposals[random_vote()].Total_Votes += sender.weight */\n      dup3\n      dup3\n      sload\n      tag_43\n      swap2\n      swap1\n      tag_44\n      jump\t// in\n    tag_43:\n      swap3\n      pop\n      pop\n      dup2\n      swap1\n      sstore\n      pop\n        /* \"smartContract/contracts/3_Ballot.sol\":4580:4581  0 */\n      0x00\n        /* \"smartContract/contracts/3_Ballot.sol\":4563:4569  sender */\n      dup2\n        /* \"smartContract/contracts/3_Ballot.sol\":4563:4578  sender.district */\n      0x02\n      add\n      sload\n        /* \"smartContract/contracts/3_Ballot.sol\":4563:4581  sender.district==0 */\n      eq\n        /* \"smartContract/contracts/3_Ballot.sol\":4559:5492  if (sender.district==0){proposals[random_vote()].Votes_District0 += sender.weight;}... */\n      iszero\n      tag_45\n      jumpi\n        /* \"smartContract/contracts/3_Ballot.sol\":4627:4633  sender */\n      dup1\n        /* \"smartContract/contracts/3_Ballot.sol\":4627:4640  sender.weight */\n      0x00\n      add\n      sload\n        /* \"smartContract/contracts/3_Ballot.sol\":4583:4592  proposals */\n      0x02\n        /* \"smartContract/contracts/3_Ballot.sol\":4593:4606  random_vote() */\n      tag_46\n        /* \"smartContract/contracts/3_Ballot.sol\":4593:4604  random_vote */\n      tag_16\n        /* \"smartContract/contracts/3_Ballot.sol\":4593:4606  random_vote() */\n      jump\t// in\n    tag_46:\n        /* \"smartContract/contracts/3_Ballot.sol\":4583:4607  proposals[random_vote()] */\n      dup2\n      sload\n      dup2\n      lt\n      tag_47\n      jumpi\n      tag_48\n      tag_41\n      jump\t// in\n    tag_48:\n    tag_47:\n      swap1\n      0x00\n      mstore\n      keccak256(0x00, 0x20)\n      swap1\n      0x0c\n      mul\n      add\n        /* \"smartContract/contracts/3_Ballot.sol\":4583:4623  proposals[random_vote()].Votes_District0 */\n      0x02\n      add\n      0x00\n        /* \"smartContract/contracts/3_Ballot.sol\":4583:4640  proposals[random_vote()].Votes_District0 += sender.weight */\n      dup3\n      dup3\n      sload\n      tag_50\n      swap2\n      swap1\n      tag_44\n      jump\t// in\n    tag_50:\n      swap3\n      pop\n      pop\n      dup2\n      swap1\n      sstore\n      pop\n        /* \"smartContract/contracts/3_Ballot.sol\":4559:5492  if (sender.district==0){proposals[random_vote()].Votes_District0 += sender.weight;}... */\n      jump(tag_51)\n    tag_45:\n        /* \"smartContract/contracts/3_Ballot.sol\":4677:4678  1 */\n      0x01\n        /* \"smartContract/contracts/3_Ballot.sol\":4660:4666  sender */\n      dup2\n        /* \"smartContract/contracts/3_Ballot.sol\":4660:4675  sender.district */\n      0x02\n      add\n      sload\n        /* \"smartContract/contracts/3_Ballot.sol\":4660:4678  sender.district==1 */\n      eq\n        /* \"smartContract/contracts/3_Ballot.sol\":4656:5492  if (sender.district==1){proposals[random_vote()].Votes_District1 += sender.weight;}... */\n      iszero\n      tag_52\n      jumpi\n        /* \"smartContract/contracts/3_Ballot.sol\":4724:4730  sender */\n      dup1\n        /* \"smartContract/contracts/3_Ballot.sol\":4724:4737  sender.weight */\n      0x00\n      add\n      sload\n        /* \"smartContract/contracts/3_Ballot.sol\":4680:4689  proposals */\n      0x02\n        /* \"smartContract/contracts/3_Ballot.sol\":4690:4703  random_vote() */\n      tag_53\n        /* \"smartContract/contracts/3_Ballot.sol\":4690:4701  random_vote */\n      tag_16\n        /* \"smartContract/contracts/3_Ballot.sol\":4690:4703  random_vote() */\n      jump\t// in\n    tag_53:\n        /* \"smartContract/contracts/3_Ballot.sol\":4680:4704  proposals[random_vote()] */\n      dup2\n      sload\n      dup2\n      lt\n      tag_54\n      jumpi\n      tag_55\n      tag_41\n      jump\t// in\n    tag_55:\n    tag_54:\n      swap1\n      0x00\n      mstore\n      keccak256(0x00, 0x20)\n      swap1\n      0x0c\n      mul\n      add\n        /* \"smartContract/contracts/3_Ballot.sol\":4680:4720  proposals[random_vote()].Votes_District1 */\n      0x03\n      add\n      0x00\n        /* \"smartContract/contracts/3_Ballot.sol\":4680:4737  proposals[random_vote()].Votes_District1 += sender.weight */\n      dup3\n      dup3\n      sload\n      tag_57\n      swap2\n      swap1\n      tag_44\n      jump\t// in\n    tag_57:\n      swap3\n      pop\n      pop\n      dup2\n      swap1\n      sstore\n      pop\n        /* \"smartContract/contracts/3_Ballot.sol\":4656:5492  if (sender.district==1){proposals[random_vote()].Votes_District1 += sender.weight;}... */\n      jump(tag_58)\n    tag_52:\n        /* \"smartContract/contracts/3_Ballot.sol\":4774:4775  2 */\n      0x02\n        /* \"smartContract/contracts/3_Ballot.sol\":4757:4763  sender */\n      dup2\n        /* \"smartContract/contracts/3_Ballot.sol\":4757:4772  sender.district */\n      0x02\n      add\n      sload\n        /* \"smartContract/contracts/3_Ballot.sol\":4757:4775  sender.district==2 */\n      eq\n        /* \"smartContract/contracts/3_Ballot.sol\":4753:5492  if (sender.district==2){proposals[random_vote()].Votes_District2 += sender.weight;}... */\n      iszero\n      tag_59\n      jumpi\n        /* \"smartContract/contracts/3_Ballot.sol\":4821:4827  sender */\n      dup1\n        /* \"smartContract/contracts/3_Ballot.sol\":4821:4834  sender.weight */\n      0x00\n      add\n      sload\n        /* \"smartContract/contracts/3_Ballot.sol\":4777:4786  proposals */\n      0x02\n        /* \"smartContract/contracts/3_Ballot.sol\":4787:4800  random_vote() */\n      tag_60\n        /* \"smartContract/contracts/3_Ballot.sol\":4787:4798  random_vote */\n      tag_16\n        /* \"smartContract/contracts/3_Ballot.sol\":4787:4800  random_vote() */\n      jump\t// in\n    tag_60:\n        /* \"smartContract/contracts/3_Ballot.sol\":4777:4801  proposals[random_vote()] */\n      dup2\n      sload\n      dup2\n      lt\n      tag_61\n      jumpi\n      tag_62\n      tag_41\n      jump\t// in\n    tag_62:\n    tag_61:\n      swap1\n      0x00\n      mstore\n      keccak256(0x00, 0x20)\n      swap1\n      0x0c\n      mul\n      add\n        /* \"smartContract/contracts/3_Ballot.sol\":4777:4817  proposals[random_vote()].Votes_District2 */\n      0x04\n      add\n      0x00\n        /* \"smartContract/contracts/3_Ballot.sol\":4777:4834  proposals[random_vote()].Votes_District2 += sender.weight */\n      dup3\n      dup3\n      sload\n      tag_64\n      swap2\n      swap1\n      tag_44\n      jump\t// in\n    tag_64:\n      swap3\n      pop\n      pop\n      dup2\n      swap1\n      sstore\n      pop\n        /* \"smartContract/contracts/3_Ballot.sol\":4753:5492  if (sender.district==2){proposals[random_vote()].Votes_District2 += sender.weight;}... */\n      jump(tag_65)\n    tag_59:\n        /* \"smartContract/contracts/3_Ballot.sol\":4871:4872  3 */\n      0x03\n        /* \"smartContract/contracts/3_Ballot.sol\":4854:4860  sender */\n      dup2\n        /* \"smartContract/contracts/3_Ballot.sol\":4854:4869  sender.district */\n      0x02\n      add\n      sload\n        /* \"smartContract/contracts/3_Ballot.sol\":4854:4872  sender.district==3 */\n      eq\n        /* \"smartContract/contracts/3_Ballot.sol\":4850:5492  if (sender.district==3){proposals[random_vote()].Votes_District3 += sender.weight;}... */\n      iszero\n      tag_66\n      jumpi\n        /* \"smartContract/contracts/3_Ballot.sol\":4918:4924  sender */\n      dup1\n        /* \"smartContract/contracts/3_Ballot.sol\":4918:4931  sender.weight */\n      0x00\n      add\n      sload\n        /* \"smartContract/contracts/3_Ballot.sol\":4874:4883  proposals */\n      0x02\n        /* \"smartContract/contracts/3_Ballot.sol\":4884:4897  random_vote() */\n      tag_67\n        /* \"smartContract/contracts/3_Ballot.sol\":4884:4895  random_vote */\n      tag_16\n        /* \"smartContract/contracts/3_Ballot.sol\":4884:4897  random_vote() */\n      jump\t// in\n    tag_67:\n        /* \"smartContract/contracts/3_Ballot.sol\":4874:4898  proposals[random_vote()] */\n      dup2\n      sload\n      dup2\n      lt\n      tag_68\n      jumpi\n      tag_69\n      tag_41\n      jump\t// in\n    tag_69:\n    tag_68:\n      swap1\n      0x00\n      mstore\n      keccak256(0x00, 0x20)\n      swap1\n      0x0c\n      mul\n      add\n        /* \"smartContract/contracts/3_Ballot.sol\":4874:4914  proposals[random_vote()].Votes_District3 */\n      0x05\n      add\n      0x00\n        /* \"smartContract/contracts/3_Ballot.sol\":4874:4931  proposals[random_vote()].Votes_District3 += sender.weight */\n      dup3\n      dup3\n      sload\n      tag_71\n      swap2\n      swap1\n      tag_44\n      jump\t// in\n    tag_71:\n      swap3\n      pop\n      pop\n      dup2\n      swap1\n      sstore\n      pop\n        /* \"smartContract/contracts/3_Ballot.sol\":4850:5492  if (sender.district==3){proposals[random_vote()].Votes_District3 += sender.weight;}... */\n      jump(tag_72)\n    tag_66:\n        /* \"smartContract/contracts/3_Ballot.sol\":4968:4969  4 */\n      0x04\n        /* \"smartContract/contracts/3_Ballot.sol\":4951:4957  sender */\n      dup2\n        /* \"smartContract/contracts/3_Ballot.sol\":4951:4966  sender.district */\n      0x02\n      add\n      sload\n        /* \"smartContract/contracts/3_Ballot.sol\":4951:4969  sender.district==4 */\n      eq\n        /* \"smartContract/contracts/3_Ballot.sol\":4947:5492  if (sender.district==4){proposals[random_vote()].Votes_District4 += sender.weight;}... */\n      iszero\n      tag_73\n      jumpi\n        /* \"smartContract/contracts/3_Ballot.sol\":5015:5021  sender */\n      dup1\n        /* \"smartContract/contracts/3_Ballot.sol\":5015:5028  sender.weight */\n      0x00\n      add\n      sload\n        /* \"smartContract/contracts/3_Ballot.sol\":4971:4980  proposals */\n      0x02\n        /* \"smartContract/contracts/3_Ballot.sol\":4981:4994  random_vote() */\n      tag_74\n        /* \"smartContract/contracts/3_Ballot.sol\":4981:4992  random_vote */\n      tag_16\n        /* \"smartContract/contracts/3_Ballot.sol\":4981:4994  random_vote() */\n      jump\t// in\n    tag_74:\n        /* \"smartContract/contracts/3_Ballot.sol\":4971:4995  proposals[random_vote()] */\n      dup2\n      sload\n      dup2\n      lt\n      tag_75\n      jumpi\n      tag_76\n      tag_41\n      jump\t// in\n    tag_76:\n    tag_75:\n      swap1\n      0x00\n      mstore\n      keccak256(0x00, 0x20)\n      swap1\n      0x0c\n      mul\n      add\n        /* \"smartContract/contracts/3_Ballot.sol\":4971:5011  proposals[random_vote()].Votes_District4 */\n      0x06\n      add\n      0x00\n        /* \"smartContract/contracts/3_Ballot.sol\":4971:5028  proposals[random_vote()].Votes_District4 += sender.weight */\n      dup3\n      dup3\n      sload\n      tag_78\n      swap2\n      swap1\n      tag_44\n      jump\t// in\n    tag_78:\n      swap3\n      pop\n      pop\n      dup2\n      swap1\n      sstore\n      pop\n        /* \"smartContract/contracts/3_Ballot.sol\":4947:5492  if (sender.district==4){proposals[random_vote()].Votes_District4 += sender.weight;}... */\n      jump(tag_79)\n    tag_73:\n        /* \"smartContract/contracts/3_Ballot.sol\":5065:5066  5 */\n      0x05\n        /* \"smartContract/contracts/3_Ballot.sol\":5048:5054  sender */\n      dup2\n        /* \"smartContract/contracts/3_Ballot.sol\":5048:5063  sender.district */\n      0x02\n      add\n      sload\n        /* \"smartContract/contracts/3_Ballot.sol\":5048:5066  sender.district==5 */\n      eq\n        /* \"smartContract/contracts/3_Ballot.sol\":5044:5492  if (sender.district==5){proposals[random_vote()].Votes_District5 += sender.weight;}... */\n      iszero\n      tag_80\n      jumpi\n        /* \"smartContract/contracts/3_Ballot.sol\":5112:5118  sender */\n      dup1\n        /* \"smartContract/contracts/3_Ballot.sol\":5112:5125  sender.weight */\n      0x00\n      add\n      sload\n        /* \"smartContract/contracts/3_Ballot.sol\":5068:5077  proposals */\n      0x02\n        /* \"smartContract/contracts/3_Ballot.sol\":5078:5091  random_vote() */\n      tag_81\n        /* \"smartContract/contracts/3_Ballot.sol\":5078:5089  random_vote */\n      tag_16\n        /* \"smartContract/contracts/3_Ballot.sol\":5078:5091  random_vote() */\n      jump\t// in\n    tag_81:\n        /* \"smartContract/contracts/3_Ballot.sol\":5068:5092  proposals[random_vote()] */\n      dup2\n      sload\n      dup2\n      lt\n      tag_82\n      jumpi\n      tag_83\n      tag_41\n      jump\t// in\n    tag_83:\n    tag_82:\n      swap1\n      0x00\n      mstore\n      keccak256(0x00, 0x20)\n      swap1\n      0x0c\n      mul\n      add\n        /* \"smartContract/contracts/3_Ballot.sol\":5068:5108  proposals[random_vote()].Votes_District5 */\n      0x07\n      add\n      0x00\n        /* \"smartContract/contracts/3_Ballot.sol\":5068:5125  proposals[random_vote()].Votes_District5 += sender.weight */\n      dup3\n      dup3\n      sload\n      tag_85\n      swap2\n      swap1\n      tag_44\n      jump\t// in\n    tag_85:\n      swap3\n      pop\n      pop\n      dup2\n      swap1\n      sstore\n      pop\n        /* \"smartContract/contracts/3_Ballot.sol\":5044:5492  if (sender.district==5){proposals[random_vote()].Votes_District5 += sender.weight;}... */\n      jump(tag_86)\n    tag_80:\n        /* \"smartContract/contracts/3_Ballot.sol\":5162:5163  6 */\n      0x06\n        /* \"smartContract/contracts/3_Ballot.sol\":5145:5151  sender */\n      dup2\n        /* \"smartContract/contracts/3_Ballot.sol\":5145:5160  sender.district */\n      0x02\n      add\n      sload\n        /* \"smartContract/contracts/3_Ballot.sol\":5145:5163  sender.district==6 */\n      eq\n        /* \"smartContract/contracts/3_Ballot.sol\":5141:5492  if (sender.district==6){proposals[random_vote()].Votes_District6 += sender.weight;}... */\n      iszero\n      tag_87\n      jumpi\n        /* \"smartContract/contracts/3_Ballot.sol\":5209:5215  sender */\n      dup1\n        /* \"smartContract/contracts/3_Ballot.sol\":5209:5222  sender.weight */\n      0x00\n      add\n      sload\n        /* \"smartContract/contracts/3_Ballot.sol\":5165:5174  proposals */\n      0x02\n        /* \"smartContract/contracts/3_Ballot.sol\":5175:5188  random_vote() */\n      tag_88\n        /* \"smartContract/contracts/3_Ballot.sol\":5175:5186  random_vote */\n      tag_16\n        /* \"smartContract/contracts/3_Ballot.sol\":5175:5188  random_vote() */\n      jump\t// in\n    tag_88:\n        /* \"smartContract/contracts/3_Ballot.sol\":5165:5189  proposals[random_vote()] */\n      dup2\n      sload\n      dup2\n      lt\n      tag_89\n      jumpi\n      tag_90\n      tag_41\n      jump\t// in\n    tag_90:\n    tag_89:\n      swap1\n      0x00\n      mstore\n      keccak256(0x00, 0x20)\n      swap1\n      0x0c\n      mul\n      add\n        /* \"smartContract/contracts/3_Ballot.sol\":5165:5205  proposals[random_vote()].Votes_District6 */\n      0x08\n      add\n      0x00\n        /* \"smartContract/contracts/3_Ballot.sol\":5165:5222  proposals[random_vote()].Votes_District6 += sender.weight */\n      dup3\n      dup3\n      sload\n      tag_92\n      swap2\n      swap1\n      tag_44\n      jump\t// in\n    tag_92:\n      swap3\n      pop\n      pop\n      dup2\n      swap1\n      sstore\n      pop\n        /* \"smartContract/contracts/3_Ballot.sol\":5141:5492  if (sender.district==6){proposals[random_vote()].Votes_District6 += sender.weight;}... */\n      jump(tag_93)\n    tag_87:\n        /* \"smartContract/contracts/3_Ballot.sol\":5259:5260  7 */\n      0x07\n        /* \"smartContract/contracts/3_Ballot.sol\":5242:5248  sender */\n      dup2\n        /* \"smartContract/contracts/3_Ballot.sol\":5242:5257  sender.district */\n      0x02\n      add\n      sload\n        /* \"smartContract/contracts/3_Ballot.sol\":5242:5260  sender.district==7 */\n      eq\n        /* \"smartContract/contracts/3_Ballot.sol\":5238:5492  if (sender.district==7){proposals[random_vote()].Votes_District7 += sender.weight;}... */\n      iszero\n      tag_94\n      jumpi\n        /* \"smartContract/contracts/3_Ballot.sol\":5306:5312  sender */\n      dup1\n        /* \"smartContract/contracts/3_Ballot.sol\":5306:5319  sender.weight */\n      0x00\n      add\n      sload\n        /* \"smartContract/contracts/3_Ballot.sol\":5262:5271  proposals */\n      0x02\n        /* \"smartContract/contracts/3_Ballot.sol\":5272:5285  random_vote() */\n      tag_95\n        /* \"smartContract/contracts/3_Ballot.sol\":5272:5283  random_vote */\n      tag_16\n        /* \"smartContract/contracts/3_Ballot.sol\":5272:5285  random_vote() */\n      jump\t// in\n    tag_95:\n        /* \"smartContract/contracts/3_Ballot.sol\":5262:5286  proposals[random_vote()] */\n      dup2\n      sload\n      dup2\n      lt\n      tag_96\n      jumpi\n      tag_97\n      tag_41\n      jump\t// in\n    tag_97:\n    tag_96:\n      swap1\n      0x00\n      mstore\n      keccak256(0x00, 0x20)\n      swap1\n      0x0c\n      mul\n      add\n        /* \"smartContract/contracts/3_Ballot.sol\":5262:5302  proposals[random_vote()].Votes_District7 */\n      0x09\n      add\n      0x00\n        /* \"smartContract/contracts/3_Ballot.sol\":5262:5319  proposals[random_vote()].Votes_District7 += sender.weight */\n      dup3\n      dup3\n      sload\n      tag_99\n      swap2\n      swap1\n      tag_44\n      jump\t// in\n    tag_99:\n      swap3\n      pop\n      pop\n      dup2\n      swap1\n      sstore\n      pop\n        /* \"smartContract/contracts/3_Ballot.sol\":5238:5492  if (sender.district==7){proposals[random_vote()].Votes_District7 += sender.weight;}... */\n      jump(tag_100)\n    tag_94:\n        /* \"smartContract/contracts/3_Ballot.sol\":5356:5357  8 */\n      0x08\n        /* \"smartContract/contracts/3_Ballot.sol\":5339:5345  sender */\n      dup2\n        /* \"smartContract/contracts/3_Ballot.sol\":5339:5354  sender.district */\n      0x02\n      add\n      sload\n        /* \"smartContract/contracts/3_Ballot.sol\":5339:5357  sender.district==8 */\n      eq\n        /* \"smartContract/contracts/3_Ballot.sol\":5335:5492  if (sender.district==8){proposals[random_vote()].Votes_District8 += sender.weight;}... */\n      iszero\n      tag_101\n      jumpi\n        /* \"smartContract/contracts/3_Ballot.sol\":5403:5409  sender */\n      dup1\n        /* \"smartContract/contracts/3_Ballot.sol\":5403:5416  sender.weight */\n      0x00\n      add\n      sload\n        /* \"smartContract/contracts/3_Ballot.sol\":5359:5368  proposals */\n      0x02\n        /* \"smartContract/contracts/3_Ballot.sol\":5369:5382  random_vote() */\n      tag_102\n        /* \"smartContract/contracts/3_Ballot.sol\":5369:5380  random_vote */\n      tag_16\n        /* \"smartContract/contracts/3_Ballot.sol\":5369:5382  random_vote() */\n      jump\t// in\n    tag_102:\n        /* \"smartContract/contracts/3_Ballot.sol\":5359:5383  proposals[random_vote()] */\n      dup2\n      sload\n      dup2\n      lt\n      tag_103\n      jumpi\n      tag_104\n      tag_41\n      jump\t// in\n    tag_104:\n    tag_103:\n      swap1\n      0x00\n      mstore\n      keccak256(0x00, 0x20)\n      swap1\n      0x0c\n      mul\n      add\n        /* \"smartContract/contracts/3_Ballot.sol\":5359:5399  proposals[random_vote()].Votes_District8 */\n      0x0a\n      add\n      0x00\n        /* \"smartContract/contracts/3_Ballot.sol\":5359:5416  proposals[random_vote()].Votes_District8 += sender.weight */\n      dup3\n      dup3\n      sload\n      tag_106\n      swap2\n      swap1\n      tag_44\n      jump\t// in\n    tag_106:\n      swap3\n      pop\n      pop\n      dup2\n      swap1\n      sstore\n      pop\n        /* \"smartContract/contracts/3_Ballot.sol\":5335:5492  if (sender.district==8){proposals[random_vote()].Votes_District8 += sender.weight;}... */\n      jump(tag_107)\n    tag_101:\n        /* \"smartContract/contracts/3_Ballot.sol\":5477:5483  sender */\n      dup1\n        /* \"smartContract/contracts/3_Ballot.sol\":5477:5490  sender.weight */\n      0x00\n      add\n      sload\n        /* \"smartContract/contracts/3_Ballot.sol\":5433:5442  proposals */\n      0x02\n        /* \"smartContract/contracts/3_Ballot.sol\":5443:5456  random_vote() */\n      tag_108\n        /* \"smartContract/contracts/3_Ballot.sol\":5443:5454  random_vote */\n      tag_16\n        /* \"smartContract/contracts/3_Ballot.sol\":5443:5456  random_vote() */\n      jump\t// in\n    tag_108:\n        /* \"smartContract/contracts/3_Ballot.sol\":5433:5457  proposals[random_vote()] */\n      dup2\n      sload\n      dup2\n      lt\n      tag_109\n      jumpi\n      tag_110\n      tag_41\n      jump\t// in\n    tag_110:\n    tag_109:\n      swap1\n      0x00\n      mstore\n      keccak256(0x00, 0x20)\n      swap1\n      0x0c\n      mul\n      add\n        /* \"smartContract/contracts/3_Ballot.sol\":5433:5473  proposals[random_vote()].Votes_District9 */\n      0x0b\n      add\n      0x00\n        /* \"smartContract/contracts/3_Ballot.sol\":5433:5490  proposals[random_vote()].Votes_District9 += sender.weight */\n      dup3\n      dup3\n      sload\n      tag_112\n      swap2\n      swap1\n      tag_44\n      jump\t// in\n    tag_112:\n      swap3\n      pop\n      pop\n      dup2\n      swap1\n      sstore\n      pop\n        /* \"smartContract/contracts/3_Ballot.sol\":5335:5492  if (sender.district==8){proposals[random_vote()].Votes_District8 += sender.weight;}... */\n    tag_107:\n        /* \"smartContract/contracts/3_Ballot.sol\":5238:5492  if (sender.district==7){proposals[random_vote()].Votes_District7 += sender.weight;}... */\n    tag_100:\n        /* \"smartContract/contracts/3_Ballot.sol\":5141:5492  if (sender.district==6){proposals[random_vote()].Votes_District6 += sender.weight;}... */\n    tag_93:\n        /* \"smartContract/contracts/3_Ballot.sol\":5044:5492  if (sender.district==5){proposals[random_vote()].Votes_District5 += sender.weight;}... */\n    tag_86:\n        /* \"smartContract/contracts/3_Ballot.sol\":4947:5492  if (sender.district==4){proposals[random_vote()].Votes_District4 += sender.weight;}... */\n    tag_79:\n        /* \"smartContract/contracts/3_Ballot.sol\":4850:5492  if (sender.district==3){proposals[random_vote()].Votes_District3 += sender.weight;}... */\n    tag_72:\n        /* \"smartContract/contracts/3_Ballot.sol\":4753:5492  if (sender.district==2){proposals[random_vote()].Votes_District2 += sender.weight;}... */\n    tag_65:\n        /* \"smartContract/contracts/3_Ballot.sol\":4656:5492  if (sender.district==1){proposals[random_vote()].Votes_District1 += sender.weight;}... */\n    tag_58:\n        /* \"smartContract/contracts/3_Ballot.sol\":4559:5492  if (sender.district==0){proposals[random_vote()].Votes_District0 += sender.weight;}... */\n    tag_51:\n        /* \"smartContract/contracts/3_Ballot.sol\":5613:5632  incrementCounter2() */\n      tag_113\n        /* \"smartContract/contracts/3_Ballot.sol\":5613:5630  incrementCounter2 */\n      tag_114\n        /* \"smartContract/contracts/3_Ballot.sol\":5613:5632  incrementCounter2() */\n      jump\t// in\n    tag_113:\n        /* \"smartContract/contracts/3_Ballot.sol\":3500:5639  {... */\n      pop\n        /* \"smartContract/contracts/3_Ballot.sol\":3477:5639  function vote() public {... */\n      jump\t// out\n        /* \"smartContract/contracts/3_Ballot.sol\":896:935  mapping(address => Voter) public voters */\n    tag_12:\n      mstore(0x20, 0x01)\n      dup1\n      0x00\n      mstore\n      keccak256(0x00, 0x40)\n      0x00\n      swap2\n      pop\n      swap1\n      pop\n      dup1\n      0x00\n      add\n      sload\n      swap1\n      dup1\n      0x01\n      add\n      0x00\n      swap1\n      sload\n      swap1\n      0x0100\n      exp\n      swap1\n      div\n      0xff\n      and\n      swap1\n      dup1\n      0x02\n      add\n      sload\n      swap1\n      dup1\n      0x03\n      add\n      sload\n      swap1\n      pop\n      dup5\n      jump\t// out\n        /* \"smartContract/contracts/3_Ballot.sol\":3294:3471  function random_vote() public view returns(uint){... */\n    tag_16:\n        /* \"smartContract/contracts/3_Ballot.sol\":3337:3341  uint */\n      0x00\n        /* \"smartContract/contracts/3_Ballot.sol\":3459:3460  5 */\n      0x05\n        /* \"smartContract/contracts/3_Ballot.sol\":3395:3410  block.timestamp */\n      timestamp\n        /* \"smartContract/contracts/3_Ballot.sol\":3411:3427  block.difficulty */\n      difficulty\n        /* \"smartContract/contracts/3_Ballot.sol\":3443:3453  msg.sender */\n      caller\n        /* \"smartContract/contracts/3_Ballot.sol\":3378:3454  abi.encodePacked(block.timestamp,block.difficulty,  ... */\n      add(0x20, mload(0x40))\n      tag_116\n      swap4\n      swap3\n      swap2\n      swap1\n      tag_117\n      jump\t// in\n    tag_116:\n      mload(0x40)\n      0x20\n      dup2\n      dup4\n      sub\n      sub\n      dup2\n      mstore\n      swap1\n      0x40\n      mstore\n        /* \"smartContract/contracts/3_Ballot.sol\":3368:3455  keccak256(abi.encodePacked(block.timestamp,block.difficulty,  ... */\n      dup1\n      mload\n      swap1\n      0x20\n      add\n      keccak256\n        /* \"smartContract/contracts/3_Ballot.sol\":3363:3456  uint(keccak256(abi.encodePacked(block.timestamp,block.difficulty,  ... */\n      0x00\n      shr\n        /* \"smartContract/contracts/3_Ballot.sol\":3363:3460  uint(keccak256(abi.encodePacked(block.timestamp,block.difficulty,  ... */\n      tag_118\n      swap2\n      swap1\n      tag_119\n      jump\t// in\n    tag_118:\n        /* \"smartContract/contracts/3_Ballot.sol\":3356:3460  return uint(keccak256(abi.encodePacked(block.timestamp,block.difficulty,  ... */\n      swap1\n      pop\n        /* \"smartContract/contracts/3_Ballot.sol\":3294:3471  function random_vote() public view returns(uint){... */\n      swap1\n      jump\t// out\n        /* \"smartContract/contracts/3_Ballot.sol\":5645:5742  function res(uint _id) public view returns(Proposal memory){... */\n    tag_22:\n        /* \"smartContract/contracts/3_Ballot.sol\":5688:5703  Proposal memory */\n      tag_120\n      tag_121\n      jump\t// in\n    tag_120:\n        /* \"smartContract/contracts/3_Ballot.sol\":5721:5730  proposals */\n      0x02\n        /* \"smartContract/contracts/3_Ballot.sol\":5731:5734  _id */\n      dup3\n        /* \"smartContract/contracts/3_Ballot.sol\":5721:5735  proposals[_id] */\n      dup2\n      sload\n      dup2\n      lt\n      tag_123\n      jumpi\n      tag_124\n      tag_41\n      jump\t// in\n    tag_124:\n    tag_123:\n      swap1\n      0x00\n      mstore\n      keccak256(0x00, 0x20)\n      swap1\n      0x0c\n      mul\n      add\n        /* \"smartContract/contracts/3_Ballot.sol\":5714:5735  return proposals[_id] */\n      mload(0x40)\n      dup1\n      0x0180\n      add\n      0x40\n      mstore\n      swap1\n      dup2\n      0x00\n      dup3\n      add\n      dup1\n      sload\n      tag_126\n      swap1\n      tag_127\n      jump\t// in\n    tag_126:\n      dup1\n      0x1f\n      add\n      0x20\n      dup1\n      swap2\n      div\n      mul\n      0x20\n      add\n      mload(0x40)\n      swap1\n      dup2\n      add\n      0x40\n      mstore\n      dup1\n      swap3\n      swap2\n      swap1\n      dup2\n      dup2\n      mstore\n      0x20\n      add\n      dup3\n      dup1\n      sload\n      tag_128\n      swap1\n      tag_127\n      jump\t// in\n    tag_128:\n      dup1\n      iszero\n      tag_129\n      jumpi\n      dup1\n      0x1f\n      lt\n      tag_130\n      jumpi\n      0x0100\n      dup1\n      dup4\n      sload\n      div\n      mul\n      dup4\n      mstore\n      swap2\n      0x20\n      add\n      swap2\n      jump(tag_129)\n    tag_130:\n      dup3\n      add\n      swap2\n      swap1\n      0x00\n      mstore\n      keccak256(0x00, 0x20)\n      swap1\n    tag_131:\n      dup2\n      sload\n      dup2\n      mstore\n      swap1\n      0x01\n      add\n      swap1\n      0x20\n      add\n      dup1\n      dup4\n      gt\n      tag_131\n      jumpi\n      dup3\n      swap1\n      sub\n      0x1f\n      and\n      dup3\n      add\n      swap2\n    tag_129:\n      pop\n      pop\n      pop\n      pop\n      pop\n      dup2\n      mstore\n      0x20\n      add\n      0x01\n      dup3\n      add\n      sload\n      dup2\n      mstore\n      0x20\n      add\n      0x02\n      dup3\n      add\n      sload\n      dup2\n      mstore\n      0x20\n      add\n      0x03\n      dup3\n      add\n      sload\n      dup2\n      mstore\n      0x20\n      add\n      0x04\n      dup3\n      add\n      sload\n      dup2\n      mstore\n      0x20\n      add\n      0x05\n      dup3\n      add\n      sload\n      dup2\n      mstore\n      0x20\n      add\n      0x06\n      dup3\n      add\n      sload\n      dup2\n      mstore\n      0x20\n      add\n      0x07\n      dup3\n      add\n      sload\n      dup2\n      mstore\n      0x20\n      add\n      0x08\n      dup3\n      add\n      sload\n      dup2\n      mstore\n      0x20\n      add\n      0x09\n      dup3\n      add\n      sload\n      dup2\n      mstore\n      0x20\n      add\n      0x0a\n      dup3\n      add\n      sload\n      dup2\n      mstore\n      0x20\n      add\n      0x0b\n      dup3\n      add\n      sload\n      dup2\n      mstore\n      pop\n      pop\n      swap1\n      pop\n        /* \"smartContract/contracts/3_Ballot.sol\":5645:5742  function res(uint _id) public view returns(Proposal memory){... */\n      swap2\n      swap1\n      pop\n      jump\t// out\n        /* \"smartContract/contracts/3_Ballot.sol\":2593:2656  function incrementCounter() private {... */\n    tag_31:\n        /* \"smartContract/contracts/3_Ballot.sol\":2648:2649  1 */\n      0x01\n        /* \"smartContract/contracts/3_Ballot.sol\":2639:2644  count */\n      0x03\n      0x00\n        /* \"smartContract/contracts/3_Ballot.sol\":2639:2649  count += 1 */\n      dup3\n      dup3\n      sload\n      tag_133\n      swap2\n      swap1\n      tag_134\n      jump\t// in\n    tag_133:\n      swap3\n      pop\n      pop\n      dup2\n      swap1\n      sstore\n      pop\n        /* \"smartContract/contracts/3_Ballot.sol\":2593:2656  function incrementCounter() private {... */\n      jump\t// out\n        /* \"smartContract/contracts/3_Ballot.sol\":1096:1267  function random_district() private view returns(uint){... */\n    tag_33:\n        /* \"smartContract/contracts/3_Ballot.sol\":1144:1148  uint */\n      0x00\n        /* \"smartContract/contracts/3_Ballot.sol\":1258:1260  10 */\n      0x0a\n        /* \"smartContract/contracts/3_Ballot.sol\":1198:1213  block.timestamp */\n      timestamp\n        /* \"smartContract/contracts/3_Ballot.sol\":1214:1230  block.difficulty */\n      difficulty\n        /* \"smartContract/contracts/3_Ballot.sol\":1242:1252  msg.sender */\n      caller\n        /* \"smartContract/contracts/3_Ballot.sol\":1181:1253  abi.encodePacked(block.timestamp,block.difficulty,  ... */\n      add(0x20, mload(0x40))\n      tag_136\n      swap4\n      swap3\n      swap2\n      swap1\n      tag_117\n      jump\t// in\n    tag_136:\n      mload(0x40)\n      0x20\n      dup2\n      dup4\n      sub\n      sub\n      dup2\n      mstore\n      swap1\n      0x40\n      mstore\n        /* \"smartContract/contracts/3_Ballot.sol\":1171:1254  keccak256(abi.encodePacked(block.timestamp,block.difficulty,  ... */\n      dup1\n      mload\n      swap1\n      0x20\n      add\n      keccak256\n        /* \"smartContract/contracts/3_Ballot.sol\":1166:1255  uint(keccak256(abi.encodePacked(block.timestamp,block.difficulty,  ... */\n      0x00\n      shr\n        /* \"smartContract/contracts/3_Ballot.sol\":1166:1260  uint(keccak256(abi.encodePacked(block.timestamp,block.difficulty,  ... */\n      tag_137\n      swap2\n      swap1\n      tag_119\n      jump\t// in\n    tag_137:\n        /* \"smartContract/contracts/3_Ballot.sol\":1159:1260  return uint(keccak256(abi.encodePacked(block.timestamp,block.difficulty,  ... */\n      swap1\n      pop\n        /* \"smartContract/contracts/3_Ballot.sol\":1096:1267  function random_district() private view returns(uint){... */\n      swap1\n      jump\t// out\n        /* \"smartContract/contracts/3_Ballot.sol\":3223:3288  function incrementCounter2() private {... */\n    tag_114:\n        /* \"smartContract/contracts/3_Ballot.sol\":3280:3281  1 */\n      0x01\n        /* \"smartContract/contracts/3_Ballot.sol\":3270:3276  count2 */\n      0x04\n      0x00\n        /* \"smartContract/contracts/3_Ballot.sol\":3270:3281  count2 += 1 */\n      dup3\n      dup3\n      sload\n      tag_139\n      swap2\n      swap1\n      tag_134\n      jump\t// in\n    tag_139:\n      swap3\n      pop\n      pop\n      dup2\n      swap1\n      sstore\n      pop\n        /* \"smartContract/contracts/3_Ballot.sol\":3223:3288  function incrementCounter2() private {... */\n      jump\t// out\n    tag_121:\n      mload(0x40)\n      dup1\n      0x0180\n      add\n      0x40\n      mstore\n      dup1\n      0x60\n      dup2\n      mstore\n      0x20\n      add\n      0x00\n      dup2\n      mstore\n      0x20\n      add\n      0x00\n      dup2\n      mstore\n      0x20\n      add\n      0x00\n      dup2\n      mstore\n      0x20\n      add\n      0x00\n      dup2\n      mstore\n      0x20\n      add\n      0x00\n      dup2\n      mstore\n      0x20\n      add\n      0x00\n      dup2\n      mstore\n      0x20\n      add\n      0x00\n      dup2\n      mstore\n      0x20\n      add\n      0x00\n      dup2\n      mstore\n      0x20\n      add\n      0x00\n      dup2\n      mstore\n      0x20\n      add\n      0x00\n      dup2\n      mstore\n      0x20\n      add\n      0x00\n      dup2\n      mstore\n      pop\n      swap1\n      jump\t// out\n        /* \"#utility.yul\":7:146   */\n    tag_141:\n        /* \"#utility.yul\":53:58   */\n      0x00\n        /* \"#utility.yul\":91:97   */\n      dup2\n        /* \"#utility.yul\":78:98   */\n      calldataload\n        /* \"#utility.yul\":69:98   */\n      swap1\n      pop\n        /* \"#utility.yul\":107:140   */\n      tag_143\n        /* \"#utility.yul\":134:139   */\n      dup2\n        /* \"#utility.yul\":107:140   */\n      tag_144\n      jump\t// in\n    tag_143:\n        /* \"#utility.yul\":7:146   */\n      swap3\n      swap2\n      pop\n      pop\n      jump\t// out\n        /* \"#utility.yul\":152:291   */\n    tag_145:\n        /* \"#utility.yul\":198:203   */\n      0x00\n        /* \"#utility.yul\":236:242   */\n      dup2\n        /* \"#utility.yul\":223:243   */\n      calldataload\n        /* \"#utility.yul\":214:243   */\n      swap1\n      pop\n        /* \"#utility.yul\":252:285   */\n      tag_147\n        /* \"#utility.yul\":279:284   */\n      dup2\n        /* \"#utility.yul\":252:285   */\n      tag_148\n      jump\t// in\n    tag_147:\n        /* \"#utility.yul\":152:291   */\n      swap3\n      swap2\n      pop\n      pop\n      jump\t// out\n        /* \"#utility.yul\":297:626   */\n    tag_11:\n        /* \"#utility.yul\":356:362   */\n      0x00\n        /* \"#utility.yul\":405:407   */\n      0x20\n        /* \"#utility.yul\":393:402   */\n      dup3\n        /* \"#utility.yul\":384:391   */\n      dup5\n        /* \"#utility.yul\":380:403   */\n      sub\n        /* \"#utility.yul\":376:408   */\n      slt\n        /* \"#utility.yul\":373:492   */\n      iszero\n      tag_150\n      jumpi\n        /* \"#utility.yul\":411:490   */\n      tag_151\n      tag_152\n      jump\t// in\n    tag_151:\n        /* \"#utility.yul\":373:492   */\n    tag_150:\n        /* \"#utility.yul\":531:532   */\n      0x00\n        /* \"#utility.yul\":556:609   */\n      tag_153\n        /* \"#utility.yul\":601:608   */\n      dup5\n        /* \"#utility.yul\":592:598   */\n      dup3\n        /* \"#utility.yul\":581:590   */\n      dup6\n        /* \"#utility.yul\":577:599   */\n      add\n        /* \"#utility.yul\":556:609   */\n      tag_141\n      jump\t// in\n    tag_153:\n        /* \"#utility.yul\":546:609   */\n      swap2\n      pop\n        /* \"#utility.yul\":502:619   */\n      pop\n        /* \"#utility.yul\":297:626   */\n      swap3\n      swap2\n      pop\n      pop\n      jump\t// out\n        /* \"#utility.yul\":632:961   */\n    tag_21:\n        /* \"#utility.yul\":691:697   */\n      0x00\n        /* \"#utility.yul\":740:742   */\n      0x20\n        /* \"#utility.yul\":728:737   */\n      dup3\n        /* \"#utility.yul\":719:726   */\n      dup5\n        /* \"#utility.yul\":715:738   */\n      sub\n        /* \"#utility.yul\":711:743   */\n      slt\n        /* \"#utility.yul\":708:827   */\n      iszero\n      tag_155\n      jumpi\n        /* \"#utility.yul\":746:825   */\n      tag_156\n      tag_152\n      jump\t// in\n    tag_156:\n        /* \"#utility.yul\":708:827   */\n    tag_155:\n        /* \"#utility.yul\":866:867   */\n      0x00\n        /* \"#utility.yul\":891:944   */\n      tag_157\n        /* \"#utility.yul\":936:943   */\n      dup5\n        /* \"#utility.yul\":927:933   */\n      dup3\n        /* \"#utility.yul\":916:925   */\n      dup6\n        /* \"#utility.yul\":912:934   */\n      add\n        /* \"#utility.yul\":891:944   */\n      tag_145\n      jump\t// in\n    tag_157:\n        /* \"#utility.yul\":881:944   */\n      swap2\n      pop\n        /* \"#utility.yul\":837:954   */\n      pop\n        /* \"#utility.yul\":632:961   */\n      swap3\n      swap2\n      pop\n      pop\n      jump\t// out\n        /* \"#utility.yul\":967:1124   */\n    tag_158:\n        /* \"#utility.yul\":1072:1117   */\n      tag_160\n        /* \"#utility.yul\":1092:1116   */\n      tag_161\n        /* \"#utility.yul\":1110:1115   */\n      dup3\n        /* \"#utility.yul\":1092:1116   */\n      tag_162\n      jump\t// in\n    tag_161:\n        /* \"#utility.yul\":1072:1117   */\n      tag_163\n      jump\t// in\n    tag_160:\n        /* \"#utility.yul\":1067:1070   */\n      dup3\n        /* \"#utility.yul\":1060:1118   */\n      mstore\n        /* \"#utility.yul\":967:1124   */\n      pop\n      pop\n      jump\t// out\n        /* \"#utility.yul\":1130:1239   */\n    tag_164:\n        /* \"#utility.yul\":1211:1232   */\n      tag_166\n        /* \"#utility.yul\":1226:1231   */\n      dup2\n        /* \"#utility.yul\":1211:1232   */\n      tag_167\n      jump\t// in\n    tag_166:\n        /* \"#utility.yul\":1206:1209   */\n      dup3\n        /* \"#utility.yul\":1199:1233   */\n      mstore\n        /* \"#utility.yul\":1130:1239   */\n      pop\n      pop\n      jump\t// out\n        /* \"#utility.yul\":1245:1589   */\n    tag_168:\n        /* \"#utility.yul\":1323:1326   */\n      0x00\n        /* \"#utility.yul\":1351:1390   */\n      tag_170\n        /* \"#utility.yul\":1384:1389   */\n      dup3\n        /* \"#utility.yul\":1351:1390   */\n      tag_171\n      jump\t// in\n    tag_170:\n        /* \"#utility.yul\":1406:1467   */\n      tag_172\n        /* \"#utility.yul\":1460:1466   */\n      dup2\n        /* \"#utility.yul\":1455:1458   */\n      dup6\n        /* \"#utility.yul\":1406:1467   */\n      tag_173\n      jump\t// in\n    tag_172:\n        /* \"#utility.yul\":1399:1467   */\n      swap4\n      pop\n        /* \"#utility.yul\":1476:1528   */\n      tag_174\n        /* \"#utility.yul\":1521:1527   */\n      dup2\n        /* \"#utility.yul\":1516:1519   */\n      dup6\n        /* \"#utility.yul\":1509:1513   */\n      0x20\n        /* \"#utility.yul\":1502:1507   */\n      dup7\n        /* \"#utility.yul\":1498:1514   */\n      add\n        /* \"#utility.yul\":1476:1528   */\n      tag_175\n      jump\t// in\n    tag_174:\n        /* \"#utility.yul\":1553:1582   */\n      tag_176\n        /* \"#utility.yul\":1575:1581   */\n      dup2\n        /* \"#utility.yul\":1553:1582   */\n      tag_177\n      jump\t// in\n    tag_176:\n        /* \"#utility.yul\":1548:1551   */\n      dup5\n        /* \"#utility.yul\":1544:1583   */\n      add\n        /* \"#utility.yul\":1537:1583   */\n      swap2\n      pop\n        /* \"#utility.yul\":1327:1589   */\n      pop\n        /* \"#utility.yul\":1245:1589   */\n      swap3\n      swap2\n      pop\n      pop\n      jump\t// out\n        /* \"#utility.yul\":1595:1961   */\n    tag_178:\n        /* \"#utility.yul\":1737:1740   */\n      0x00\n        /* \"#utility.yul\":1758:1825   */\n      tag_180\n        /* \"#utility.yul\":1822:1824   */\n      0x0e\n        /* \"#utility.yul\":1817:1820   */\n      dup4\n        /* \"#utility.yul\":1758:1825   */\n      tag_181\n      jump\t// in\n    tag_180:\n        /* \"#utility.yul\":1751:1825   */\n      swap2\n      pop\n        /* \"#utility.yul\":1834:1927   */\n      tag_182\n        /* \"#utility.yul\":1923:1926   */\n      dup3\n        /* \"#utility.yul\":1834:1927   */\n      tag_183\n      jump\t// in\n    tag_182:\n        /* \"#utility.yul\":1952:1954   */\n      0x20\n        /* \"#utility.yul\":1947:1950   */\n      dup3\n        /* \"#utility.yul\":1943:1955   */\n      add\n        /* \"#utility.yul\":1936:1955   */\n      swap1\n      pop\n        /* \"#utility.yul\":1595:1961   */\n      swap2\n      swap1\n      pop\n      jump\t// out\n        /* \"#utility.yul\":1967:2333   */\n    tag_184:\n        /* \"#utility.yul\":2109:2112   */\n      0x00\n        /* \"#utility.yul\":2130:2197   */\n      tag_186\n        /* \"#utility.yul\":2194:2196   */\n      0x18\n        /* \"#utility.yul\":2189:2192   */\n      dup4\n        /* \"#utility.yul\":2130:2197   */\n      tag_181\n      jump\t// in\n    tag_186:\n        /* \"#utility.yul\":2123:2197   */\n      swap2\n      pop\n        /* \"#utility.yul\":2206:2299   */\n      tag_187\n        /* \"#utility.yul\":2295:2298   */\n      dup3\n        /* \"#utility.yul\":2206:2299   */\n      tag_188\n      jump\t// in\n    tag_187:\n        /* \"#utility.yul\":2324:2326   */\n      0x20\n        /* \"#utility.yul\":2319:2322   */\n      dup3\n        /* \"#utility.yul\":2315:2327   */\n      add\n        /* \"#utility.yul\":2308:2327   */\n      swap1\n      pop\n        /* \"#utility.yul\":1967:2333   */\n      swap2\n      swap1\n      pop\n      jump\t// out\n        /* \"#utility.yul\":2395:4874   */\n    tag_189:\n        /* \"#utility.yul\":2512:2515   */\n      0x00\n        /* \"#utility.yul\":2548:2554   */\n      0x0180\n        /* \"#utility.yul\":2543:2546   */\n      dup4\n        /* \"#utility.yul\":2539:2555   */\n      add\n        /* \"#utility.yul\":2637:2641   */\n      0x00\n        /* \"#utility.yul\":2630:2635   */\n      dup4\n        /* \"#utility.yul\":2626:2642   */\n      add\n        /* \"#utility.yul\":2620:2643   */\n      mload\n        /* \"#utility.yul\":2690:2693   */\n      dup5\n        /* \"#utility.yul\":2684:2688   */\n      dup3\n        /* \"#utility.yul\":2680:2694   */\n      sub\n        /* \"#utility.yul\":2673:2677   */\n      0x00\n        /* \"#utility.yul\":2668:2671   */\n      dup7\n        /* \"#utility.yul\":2664:2678   */\n      add\n        /* \"#utility.yul\":2657:2695   */\n      mstore\n        /* \"#utility.yul\":2716:2789   */\n      tag_191\n        /* \"#utility.yul\":2784:2788   */\n      dup3\n        /* \"#utility.yul\":2770:2782   */\n      dup3\n        /* \"#utility.yul\":2716:2789   */\n      tag_168\n      jump\t// in\n    tag_191:\n        /* \"#utility.yul\":2708:2789   */\n      swap2\n      pop\n        /* \"#utility.yul\":2565:2800   */\n      pop\n        /* \"#utility.yul\":2889:2893   */\n      0x20\n        /* \"#utility.yul\":2882:2887   */\n      dup4\n        /* \"#utility.yul\":2878:2894   */\n      add\n        /* \"#utility.yul\":2872:2895   */\n      mload\n        /* \"#utility.yul\":2908:2971   */\n      tag_192\n        /* \"#utility.yul\":2965:2969   */\n      0x20\n        /* \"#utility.yul\":2960:2963   */\n      dup7\n        /* \"#utility.yul\":2956:2970   */\n      add\n        /* \"#utility.yul\":2942:2954   */\n      dup3\n        /* \"#utility.yul\":2908:2971   */\n      tag_193\n      jump\t// in\n    tag_192:\n        /* \"#utility.yul\":2810:2981   */\n      pop\n        /* \"#utility.yul\":3074:3078   */\n      0x40\n        /* \"#utility.yul\":3067:3072   */\n      dup4\n        /* \"#utility.yul\":3063:3079   */\n      add\n        /* \"#utility.yul\":3057:3080   */\n      mload\n        /* \"#utility.yul\":3093:3156   */\n      tag_194\n        /* \"#utility.yul\":3150:3154   */\n      0x40\n        /* \"#utility.yul\":3145:3148   */\n      dup7\n        /* \"#utility.yul\":3141:3155   */\n      add\n        /* \"#utility.yul\":3127:3139   */\n      dup3\n        /* \"#utility.yul\":3093:3156   */\n      tag_193\n      jump\t// in\n    tag_194:\n        /* \"#utility.yul\":2991:3166   */\n      pop\n        /* \"#utility.yul\":3259:3263   */\n      0x60\n        /* \"#utility.yul\":3252:3257   */\n      dup4\n        /* \"#utility.yul\":3248:3264   */\n      add\n        /* \"#utility.yul\":3242:3265   */\n      mload\n        /* \"#utility.yul\":3278:3341   */\n      tag_195\n        /* \"#utility.yul\":3335:3339   */\n      0x60\n        /* \"#utility.yul\":3330:3333   */\n      dup7\n        /* \"#utility.yul\":3326:3340   */\n      add\n        /* \"#utility.yul\":3312:3324   */\n      dup3\n        /* \"#utility.yul\":3278:3341   */\n      tag_193\n      jump\t// in\n    tag_195:\n        /* \"#utility.yul\":3176:3351   */\n      pop\n        /* \"#utility.yul\":3444:3448   */\n      0x80\n        /* \"#utility.yul\":3437:3442   */\n      dup4\n        /* \"#utility.yul\":3433:3449   */\n      add\n        /* \"#utility.yul\":3427:3450   */\n      mload\n        /* \"#utility.yul\":3463:3526   */\n      tag_196\n        /* \"#utility.yul\":3520:3524   */\n      0x80\n        /* \"#utility.yul\":3515:3518   */\n      dup7\n        /* \"#utility.yul\":3511:3525   */\n      add\n        /* \"#utility.yul\":3497:3509   */\n      dup3\n        /* \"#utility.yul\":3463:3526   */\n      tag_193\n      jump\t// in\n    tag_196:\n        /* \"#utility.yul\":3361:3536   */\n      pop\n        /* \"#utility.yul\":3629:3633   */\n      0xa0\n        /* \"#utility.yul\":3622:3627   */\n      dup4\n        /* \"#utility.yul\":3618:3634   */\n      add\n        /* \"#utility.yul\":3612:3635   */\n      mload\n        /* \"#utility.yul\":3648:3711   */\n      tag_197\n        /* \"#utility.yul\":3705:3709   */\n      0xa0\n        /* \"#utility.yul\":3700:3703   */\n      dup7\n        /* \"#utility.yul\":3696:3710   */\n      add\n        /* \"#utility.yul\":3682:3694   */\n      dup3\n        /* \"#utility.yul\":3648:3711   */\n      tag_193\n      jump\t// in\n    tag_197:\n        /* \"#utility.yul\":3546:3721   */\n      pop\n        /* \"#utility.yul\":3814:3818   */\n      0xc0\n        /* \"#utility.yul\":3807:3812   */\n      dup4\n        /* \"#utility.yul\":3803:3819   */\n      add\n        /* \"#utility.yul\":3797:3820   */\n      mload\n        /* \"#utility.yul\":3833:3896   */\n      tag_198\n        /* \"#utility.yul\":3890:3894   */\n      0xc0\n        /* \"#utility.yul\":3885:3888   */\n      dup7\n        /* \"#utility.yul\":3881:3895   */\n      add\n        /* \"#utility.yul\":3867:3879   */\n      dup3\n        /* \"#utility.yul\":3833:3896   */\n      tag_193\n      jump\t// in\n    tag_198:\n        /* \"#utility.yul\":3731:3906   */\n      pop\n        /* \"#utility.yul\":3999:4003   */\n      0xe0\n        /* \"#utility.yul\":3992:3997   */\n      dup4\n        /* \"#utility.yul\":3988:4004   */\n      add\n        /* \"#utility.yul\":3982:4005   */\n      mload\n        /* \"#utility.yul\":4018:4081   */\n      tag_199\n        /* \"#utility.yul\":4075:4079   */\n      0xe0\n        /* \"#utility.yul\":4070:4073   */\n      dup7\n        /* \"#utility.yul\":4066:4080   */\n      add\n        /* \"#utility.yul\":4052:4064   */\n      dup3\n        /* \"#utility.yul\":4018:4081   */\n      tag_193\n      jump\t// in\n    tag_199:\n        /* \"#utility.yul\":3916:4091   */\n      pop\n        /* \"#utility.yul\":4184:4190   */\n      0x0100\n        /* \"#utility.yul\":4177:4182   */\n      dup4\n        /* \"#utility.yul\":4173:4191   */\n      add\n        /* \"#utility.yul\":4167:4192   */\n      mload\n        /* \"#utility.yul\":4205:4270   */\n      tag_200\n        /* \"#utility.yul\":4262:4268   */\n      0x0100\n        /* \"#utility.yul\":4257:4260   */\n      dup7\n        /* \"#utility.yul\":4253:4269   */\n      add\n        /* \"#utility.yul\":4239:4251   */\n      dup3\n        /* \"#utility.yul\":4205:4270   */\n      tag_193\n      jump\t// in\n    tag_200:\n        /* \"#utility.yul\":4101:4280   */\n      pop\n        /* \"#utility.yul\":4373:4379   */\n      0x0120\n        /* \"#utility.yul\":4366:4371   */\n      dup4\n        /* \"#utility.yul\":4362:4380   */\n      add\n        /* \"#utility.yul\":4356:4381   */\n      mload\n        /* \"#utility.yul\":4394:4459   */\n      tag_201\n        /* \"#utility.yul\":4451:4457   */\n      0x0120\n        /* \"#utility.yul\":4446:4449   */\n      dup7\n        /* \"#utility.yul\":4442:4458   */\n      add\n        /* \"#utility.yul\":4428:4440   */\n      dup3\n        /* \"#utility.yul\":4394:4459   */\n      tag_193\n      jump\t// in\n    tag_201:\n        /* \"#utility.yul\":4290:4469   */\n      pop\n        /* \"#utility.yul\":4562:4568   */\n      0x0140\n        /* \"#utility.yul\":4555:4560   */\n      dup4\n        /* \"#utility.yul\":4551:4569   */\n      add\n        /* \"#utility.yul\":4545:4570   */\n      mload\n        /* \"#utility.yul\":4583:4648   */\n      tag_202\n        /* \"#utility.yul\":4640:4646   */\n      0x0140\n        /* \"#utility.yul\":4635:4638   */\n      dup7\n        /* \"#utility.yul\":4631:4647   */\n      add\n        /* \"#utility.yul\":4617:4629   */\n      dup3\n        /* \"#utility.yul\":4583:4648   */\n      tag_193\n      jump\t// in\n    tag_202:\n        /* \"#utility.yul\":4479:4658   */\n      pop\n        /* \"#utility.yul\":4751:4757   */\n      0x0160\n        /* \"#utility.yul\":4744:4749   */\n      dup4\n        /* \"#utility.yul\":4740:4758   */\n      add\n        /* \"#utility.yul\":4734:4759   */\n      mload\n        /* \"#utility.yul\":4772:4837   */\n      tag_203\n        /* \"#utility.yul\":4829:4835   */\n      0x0160\n        /* \"#utility.yul\":4824:4827   */\n      dup7\n        /* \"#utility.yul\":4820:4836   */\n      add\n        /* \"#utility.yul\":4806:4818   */\n      dup3\n        /* \"#utility.yul\":4772:4837   */\n      tag_193\n      jump\t// in\n    tag_203:\n        /* \"#utility.yul\":4668:4847   */\n      pop\n        /* \"#utility.yul\":4864:4868   */\n      dup1\n        /* \"#utility.yul\":4857:4868   */\n      swap2\n      pop\n        /* \"#utility.yul\":2517:4874   */\n      pop\n        /* \"#utility.yul\":2395:4874   */\n      swap3\n      swap2\n      pop\n      pop\n      jump\t// out\n        /* \"#utility.yul\":4880:4988   */\n    tag_193:\n        /* \"#utility.yul\":4957:4981   */\n      tag_205\n        /* \"#utility.yul\":4975:4980   */\n      dup2\n        /* \"#utility.yul\":4957:4981   */\n      tag_206\n      jump\t// in\n    tag_205:\n        /* \"#utility.yul\":4952:4955   */\n      dup3\n        /* \"#utility.yul\":4945:4982   */\n      mstore\n        /* \"#utility.yul\":4880:4988   */\n      pop\n      pop\n      jump\t// out\n        /* \"#utility.yul\":4994:5112   */\n    tag_207:\n        /* \"#utility.yul\":5081:5105   */\n      tag_209\n        /* \"#utility.yul\":5099:5104   */\n      dup2\n        /* \"#utility.yul\":5081:5105   */\n      tag_206\n      jump\t// in\n    tag_209:\n        /* \"#utility.yul\":5076:5079   */\n      dup3\n        /* \"#utility.yul\":5069:5106   */\n      mstore\n        /* \"#utility.yul\":4994:5112   */\n      pop\n      pop\n      jump\t// out\n        /* \"#utility.yul\":5118:5275   */\n    tag_210:\n        /* \"#utility.yul\":5223:5268   */\n      tag_212\n        /* \"#utility.yul\":5243:5267   */\n      tag_213\n        /* \"#utility.yul\":5261:5266   */\n      dup3\n        /* \"#utility.yul\":5243:5267   */\n      tag_206\n      jump\t// in\n    tag_213:\n        /* \"#utility.yul\":5223:5268   */\n      tag_214\n      jump\t// in\n    tag_212:\n        /* \"#utility.yul\":5218:5221   */\n      dup3\n        /* \"#utility.yul\":5211:5269   */\n      mstore\n        /* \"#utility.yul\":5118:5275   */\n      pop\n      pop\n      jump\t// out\n        /* \"#utility.yul\":5281:5819   */\n    tag_117:\n        /* \"#utility.yul\":5449:5452   */\n      0x00\n        /* \"#utility.yul\":5464:5539   */\n      tag_216\n        /* \"#utility.yul\":5535:5538   */\n      dup3\n        /* \"#utility.yul\":5526:5532   */\n      dup7\n        /* \"#utility.yul\":5464:5539   */\n      tag_210\n      jump\t// in\n    tag_216:\n        /* \"#utility.yul\":5564:5566   */\n      0x20\n        /* \"#utility.yul\":5559:5562   */\n      dup3\n        /* \"#utility.yul\":5555:5567   */\n      add\n        /* \"#utility.yul\":5548:5567   */\n      swap2\n      pop\n        /* \"#utility.yul\":5577:5652   */\n      tag_217\n        /* \"#utility.yul\":5648:5651   */\n      dup3\n        /* \"#utility.yul\":5639:5645   */\n      dup6\n        /* \"#utility.yul\":5577:5652   */\n      tag_210\n      jump\t// in\n    tag_217:\n        /* \"#utility.yul\":5677:5679   */\n      0x20\n        /* \"#utility.yul\":5672:5675   */\n      dup3\n        /* \"#utility.yul\":5668:5680   */\n      add\n        /* \"#utility.yul\":5661:5680   */\n      swap2\n      pop\n        /* \"#utility.yul\":5690:5765   */\n      tag_218\n        /* \"#utility.yul\":5761:5764   */\n      dup3\n        /* \"#utility.yul\":5752:5758   */\n      dup5\n        /* \"#utility.yul\":5690:5765   */\n      tag_158\n      jump\t// in\n    tag_218:\n        /* \"#utility.yul\":5790:5792   */\n      0x14\n        /* \"#utility.yul\":5785:5788   */\n      dup3\n        /* \"#utility.yul\":5781:5793   */\n      add\n        /* \"#utility.yul\":5774:5793   */\n      swap2\n      pop\n        /* \"#utility.yul\":5810:5813   */\n      dup2\n        /* \"#utility.yul\":5803:5813   */\n      swap1\n      pop\n        /* \"#utility.yul\":5281:5819   */\n      swap5\n      swap4\n      pop\n      pop\n      pop\n      pop\n      jump\t// out\n        /* \"#utility.yul\":5825:6244   */\n    tag_36:\n        /* \"#utility.yul\":5991:5995   */\n      0x00\n        /* \"#utility.yul\":6029:6031   */\n      0x20\n        /* \"#utility.yul\":6018:6027   */\n      dup3\n        /* \"#utility.yul\":6014:6032   */\n      add\n        /* \"#utility.yul\":6006:6032   */\n      swap1\n      pop\n        /* \"#utility.yul\":6078:6087   */\n      dup2\n        /* \"#utility.yul\":6072:6076   */\n      dup2\n        /* \"#utility.yul\":6068:6088   */\n      sub\n        /* \"#utility.yul\":6064:6065   */\n      0x00\n        /* \"#utility.yul\":6053:6062   */\n      dup4\n        /* \"#utility.yul\":6049:6066   */\n      add\n        /* \"#utility.yul\":6042:6089   */\n      mstore\n        /* \"#utility.yul\":6106:6237   */\n      tag_220\n        /* \"#utility.yul\":6232:6236   */\n      dup2\n        /* \"#utility.yul\":6106:6237   */\n      tag_178\n      jump\t// in\n    tag_220:\n        /* \"#utility.yul\":6098:6237   */\n      swap1\n      pop\n        /* \"#utility.yul\":5825:6244   */\n      swap2\n      swap1\n      pop\n      jump\t// out\n        /* \"#utility.yul\":6250:6669   */\n    tag_28:\n        /* \"#utility.yul\":6416:6420   */\n      0x00\n        /* \"#utility.yul\":6454:6456   */\n      0x20\n        /* \"#utility.yul\":6443:6452   */\n      dup3\n        /* \"#utility.yul\":6439:6457   */\n      add\n        /* \"#utility.yul\":6431:6457   */\n      swap1\n      pop\n        /* \"#utility.yul\":6503:6512   */\n      dup2\n        /* \"#utility.yul\":6497:6501   */\n      dup2\n        /* \"#utility.yul\":6493:6513   */\n      sub\n        /* \"#utility.yul\":6489:6490   */\n      0x00\n        /* \"#utility.yul\":6478:6487   */\n      dup4\n        /* \"#utility.yul\":6474:6491   */\n      add\n        /* \"#utility.yul\":6467:6514   */\n      mstore\n        /* \"#utility.yul\":6531:6662   */\n      tag_222\n        /* \"#utility.yul\":6657:6661   */\n      dup2\n        /* \"#utility.yul\":6531:6662   */\n      tag_184\n      jump\t// in\n    tag_222:\n        /* \"#utility.yul\":6523:6662   */\n      swap1\n      pop\n        /* \"#utility.yul\":6250:6669   */\n      swap2\n      swap1\n      pop\n      jump\t// out\n        /* \"#utility.yul\":6675:7044   */\n    tag_24:\n        /* \"#utility.yul\":6816:6820   */\n      0x00\n        /* \"#utility.yul\":6854:6856   */\n      0x20\n        /* \"#utility.yul\":6843:6852   */\n      dup3\n        /* \"#utility.yul\":6839:6857   */\n      add\n        /* \"#utility.yul\":6831:6857   */\n      swap1\n      pop\n        /* \"#utility.yul\":6903:6912   */\n      dup2\n        /* \"#utility.yul\":6897:6901   */\n      dup2\n        /* \"#utility.yul\":6893:6913   */\n      sub\n        /* \"#utility.yul\":6889:6890   */\n      0x00\n        /* \"#utility.yul\":6878:6887   */\n      dup4\n        /* \"#utility.yul\":6874:6891   */\n      add\n        /* \"#utility.yul\":6867:6914   */\n      mstore\n        /* \"#utility.yul\":6931:7037   */\n      tag_224\n        /* \"#utility.yul\":7032:7036   */\n      dup2\n        /* \"#utility.yul\":7023:7029   */\n      dup5\n        /* \"#utility.yul\":6931:7037   */\n      tag_189\n      jump\t// in\n    tag_224:\n        /* \"#utility.yul\":6923:7037   */\n      swap1\n      pop\n        /* \"#utility.yul\":6675:7044   */\n      swap3\n      swap2\n      pop\n      pop\n      jump\t// out\n        /* \"#utility.yul\":7050:7272   */\n    tag_18:\n        /* \"#utility.yul\":7143:7147   */\n      0x00\n        /* \"#utility.yul\":7181:7183   */\n      0x20\n        /* \"#utility.yul\":7170:7179   */\n      dup3\n        /* \"#utility.yul\":7166:7184   */\n      add\n        /* \"#utility.yul\":7158:7184   */\n      swap1\n      pop\n        /* \"#utility.yul\":7194:7265   */\n      tag_226\n        /* \"#utility.yul\":7262:7263   */\n      0x00\n        /* \"#utility.yul\":7251:7260   */\n      dup4\n        /* \"#utility.yul\":7247:7264   */\n      add\n        /* \"#utility.yul\":7238:7244   */\n      dup5\n        /* \"#utility.yul\":7194:7265   */\n      tag_207\n      jump\t// in\n    tag_226:\n        /* \"#utility.yul\":7050:7272   */\n      swap3\n      swap2\n      pop\n      pop\n      jump\t// out\n        /* \"#utility.yul\":7278:7819   */\n    tag_14:\n        /* \"#utility.yul\":7449:7453   */\n      0x00\n        /* \"#utility.yul\":7487:7490   */\n      0x80\n        /* \"#utility.yul\":7476:7485   */\n      dup3\n        /* \"#utility.yul\":7472:7491   */\n      add\n        /* \"#utility.yul\":7464:7491   */\n      swap1\n      pop\n        /* \"#utility.yul\":7501:7572   */\n      tag_228\n        /* \"#utility.yul\":7569:7570   */\n      0x00\n        /* \"#utility.yul\":7558:7567   */\n      dup4\n        /* \"#utility.yul\":7554:7571   */\n      add\n        /* \"#utility.yul\":7545:7551   */\n      dup8\n        /* \"#utility.yul\":7501:7572   */\n      tag_207\n      jump\t// in\n    tag_228:\n        /* \"#utility.yul\":7582:7648   */\n      tag_229\n        /* \"#utility.yul\":7644:7646   */\n      0x20\n        /* \"#utility.yul\":7633:7642   */\n      dup4\n        /* \"#utility.yul\":7629:7647   */\n      add\n        /* \"#utility.yul\":7620:7626   */\n      dup7\n        /* \"#utility.yul\":7582:7648   */\n      tag_164\n      jump\t// in\n    tag_229:\n        /* \"#utility.yul\":7658:7730   */\n      tag_230\n        /* \"#utility.yul\":7726:7728   */\n      0x40\n        /* \"#utility.yul\":7715:7724   */\n      dup4\n        /* \"#utility.yul\":7711:7729   */\n      add\n        /* \"#utility.yul\":7702:7708   */\n      dup6\n        /* \"#utility.yul\":7658:7730   */\n      tag_207\n      jump\t// in\n    tag_230:\n        /* \"#utility.yul\":7740:7812   */\n      tag_231\n        /* \"#utility.yul\":7808:7810   */\n      0x60\n        /* \"#utility.yul\":7797:7806   */\n      dup4\n        /* \"#utility.yul\":7793:7811   */\n      add\n        /* \"#utility.yul\":7784:7790   */\n      dup5\n        /* \"#utility.yul\":7740:7812   */\n      tag_207\n      jump\t// in\n    tag_231:\n        /* \"#utility.yul\":7278:7819   */\n      swap6\n      swap5\n      pop\n      pop\n      pop\n      pop\n      pop\n      jump\t// out\n        /* \"#utility.yul\":7906:8005   */\n    tag_171:\n        /* \"#utility.yul\":7958:7964   */\n      0x00\n        /* \"#utility.yul\":7992:7997   */\n      dup2\n        /* \"#utility.yul\":7986:7998   */\n      mload\n        /* \"#utility.yul\":7976:7998   */\n      swap1\n      pop\n        /* \"#utility.yul\":7906:8005   */\n      swap2\n      swap1\n      pop\n      jump\t// out\n        /* \"#utility.yul\":8011:8170   */\n    tag_173:\n        /* \"#utility.yul\":8085:8096   */\n      0x00\n        /* \"#utility.yul\":8119:8125   */\n      dup3\n        /* \"#utility.yul\":8114:8117   */\n      dup3\n        /* \"#utility.yul\":8107:8126   */\n      mstore\n        /* \"#utility.yul\":8159:8163   */\n      0x20\n        /* \"#utility.yul\":8154:8157   */\n      dup3\n        /* \"#utility.yul\":8150:8164   */\n      add\n        /* \"#utility.yul\":8135:8164   */\n      swap1\n      pop\n        /* \"#utility.yul\":8011:8170   */\n      swap3\n      swap2\n      pop\n      pop\n      jump\t// out\n        /* \"#utility.yul\":8176:8345   */\n    tag_181:\n        /* \"#utility.yul\":8260:8271   */\n      0x00\n        /* \"#utility.yul\":8294:8300   */\n      dup3\n        /* \"#utility.yul\":8289:8292   */\n      dup3\n        /* \"#utility.yul\":8282:8301   */\n      mstore\n        /* \"#utility.yul\":8334:8338   */\n      0x20\n        /* \"#utility.yul\":8329:8332   */\n      dup3\n        /* \"#utility.yul\":8325:8339   */\n      add\n        /* \"#utility.yul\":8310:8339   */\n      swap1\n      pop\n        /* \"#utility.yul\":8176:8345   */\n      swap3\n      swap2\n      pop\n      pop\n      jump\t// out\n        /* \"#utility.yul\":8351:8876   */\n    tag_134:\n        /* \"#utility.yul\":8390:8393   */\n      0x00\n        /* \"#utility.yul\":8409:8428   */\n      tag_238\n        /* \"#utility.yul\":8426:8427   */\n      dup3\n        /* \"#utility.yul\":8409:8428   */\n      tag_239\n      jump\t// in\n    tag_238:\n        /* \"#utility.yul\":8404:8428   */\n      swap2\n      pop\n        /* \"#utility.yul\":8442:8461   */\n      tag_240\n        /* \"#utility.yul\":8459:8460   */\n      dup4\n        /* \"#utility.yul\":8442:8461   */\n      tag_239\n      jump\t// in\n    tag_240:\n        /* \"#utility.yul\":8437:8461   */\n      swap3\n      pop\n        /* \"#utility.yul\":8630:8631   */\n      dup2\n        /* \"#utility.yul\":8562:8628   */\n      0x7fffffffffffffffffffffffffffffffffffffffffffffffffffffffffffffff\n        /* \"#utility.yul\":8558:8632   */\n      sub\n        /* \"#utility.yul\":8555:8556   */\n      dup4\n        /* \"#utility.yul\":8551:8633   */\n      sgt\n        /* \"#utility.yul\":8546:8547   */\n      0x00\n        /* \"#utility.yul\":8543:8544   */\n      dup4\n        /* \"#utility.yul\":8539:8548   */\n      slt\n        /* \"#utility.yul\":8532:8549   */\n      iszero\n        /* \"#utility.yul\":8528:8634   */\n      and\n        /* \"#utility.yul\":8525:8657   */\n      iszero\n      tag_241\n      jumpi\n        /* \"#utility.yul\":8637:8655   */\n      tag_242\n      tag_243\n      jump\t// in\n    tag_242:\n        /* \"#utility.yul\":8525:8657   */\n    tag_241:\n        /* \"#utility.yul\":8817:8818   */\n      dup2\n        /* \"#utility.yul\":8749:8815   */\n      0x8000000000000000000000000000000000000000000000000000000000000000\n        /* \"#utility.yul\":8745:8819   */\n      sub\n        /* \"#utility.yul\":8742:8743   */\n      dup4\n        /* \"#utility.yul\":8738:8820   */\n      slt\n        /* \"#utility.yul\":8734:8735   */\n      0x00\n        /* \"#utility.yul\":8731:8732   */\n      dup4\n        /* \"#utility.yul\":8727:8736   */\n      slt\n        /* \"#utility.yul\":8723:8821   */\n      and\n        /* \"#utility.yul\":8720:8844   */\n      iszero\n      tag_244\n      jumpi\n        /* \"#utility.yul\":8824:8842   */\n      tag_245\n      tag_243\n      jump\t// in\n    tag_245:\n        /* \"#utility.yul\":8720:8844   */\n    tag_244:\n        /* \"#utility.yul\":8868:8869   */\n      dup3\n        /* \"#utility.yul\":8865:8866   */\n      dup3\n        /* \"#utility.yul\":8861:8870   */\n      add\n        /* \"#utility.yul\":8854:8870   */\n      swap1\n      pop\n        /* \"#utility.yul\":8351:8876   */\n      swap3\n      swap2\n      pop\n      pop\n      jump\t// out\n        /* \"#utility.yul\":8882:9187   */\n    tag_44:\n        /* \"#utility.yul\":8922:8925   */\n      0x00\n        /* \"#utility.yul\":8941:8961   */\n      tag_247\n        /* \"#utility.yul\":8959:8960   */\n      dup3\n        /* \"#utility.yul\":8941:8961   */\n      tag_206\n      jump\t// in\n    tag_247:\n        /* \"#utility.yul\":8936:8961   */\n      swap2\n      pop\n        /* \"#utility.yul\":8975:8995   */\n      tag_248\n        /* \"#utility.yul\":8993:8994   */\n      dup4\n        /* \"#utility.yul\":8975:8995   */\n      tag_206\n      jump\t// in\n    tag_248:\n        /* \"#utility.yul\":8970:8995   */\n      swap3\n      pop\n        /* \"#utility.yul\":9129:9130   */\n      dup3\n        /* \"#utility.yul\":9061:9127   */\n      0xffffffffffffffffffffffffffffffffffffffffffffffffffffffffffffffff\n        /* \"#utility.yul\":9057:9131   */\n      sub\n        /* \"#utility.yul\":9054:9055   */\n      dup3\n        /* \"#utility.yul\":9051:9132   */\n      gt\n        /* \"#utility.yul\":9048:9155   */\n      iszero\n      tag_249\n      jumpi\n        /* \"#utility.yul\":9135:9153   */\n      tag_250\n      tag_243\n      jump\t// in\n    tag_250:\n        /* \"#utility.yul\":9048:9155   */\n    tag_249:\n        /* \"#utility.yul\":9179:9180   */\n      dup3\n        /* \"#utility.yul\":9176:9177   */\n      dup3\n        /* \"#utility.yul\":9172:9181   */\n      add\n        /* \"#utility.yul\":9165:9181   */\n      swap1\n      pop\n        /* \"#utility.yul\":8882:9187   */\n      swap3\n      swap2\n      pop\n      pop\n      jump\t// out\n        /* \"#utility.yul\":9193:9289   */\n    tag_162:\n        /* \"#utility.yul\":9230:9237   */\n      0x00\n        /* \"#utility.yul\":9259:9283   */\n      tag_252\n        /* \"#utility.yul\":9277:9282   */\n      dup3\n        /* \"#utility.yul\":9259:9283   */\n      tag_253\n      jump\t// in\n    tag_252:\n        /* \"#utility.yul\":9248:9283   */\n      swap1\n      pop\n        /* \"#utility.yul\":9193:9289   */\n      swap2\n      swap1\n      pop\n      jump\t// out\n        /* \"#utility.yul\":9295:9385   */\n    tag_167:\n        /* \"#utility.yul\":9329:9336   */\n      0x00\n        /* \"#utility.yul\":9372:9377   */\n      dup2\n        /* \"#utility.yul\":9365:9378   */\n      iszero\n        /* \"#utility.yul\":9358:9379   */\n      iszero\n        /* \"#utility.yul\":9347:9379   */\n      swap1\n      pop\n        /* \"#utility.yul\":9295:9385   */\n      swap2\n      swap1\n      pop\n      jump\t// out\n        /* \"#utility.yul\":9391:9467   */\n    tag_239:\n        /* \"#utility.yul\":9427:9434   */\n      0x00\n        /* \"#utility.yul\":9456:9461   */\n      dup2\n        /* \"#utility.yul\":9445:9461   */\n      swap1\n      pop\n        /* \"#utility.yul\":9391:9467   */\n      swap2\n      swap1\n      pop\n      jump\t// out\n        /* \"#utility.yul\":9473:9599   */\n    tag_253:\n        /* \"#utility.yul\":9510:9517   */\n      0x00\n        /* \"#utility.yul\":9550:9592   */\n      0xffffffffffffffffffffffffffffffffffffffff\n        /* \"#utility.yul\":9543:9548   */\n      dup3\n        /* \"#utility.yul\":9539:9593   */\n      and\n        /* \"#utility.yul\":9528:9593   */\n      swap1\n      pop\n        /* \"#utility.yul\":9473:9599   */\n      swap2\n      swap1\n      pop\n      jump\t// out\n        /* \"#utility.yul\":9605:9682   */\n    tag_206:\n        /* \"#utility.yul\":9642:9649   */\n      0x00\n        /* \"#utility.yul\":9671:9676   */\n      dup2\n        /* \"#utility.yul\":9660:9676   */\n      swap1\n      pop\n        /* \"#utility.yul\":9605:9682   */\n      swap2\n      swap1\n      pop\n      jump\t// out\n        /* \"#utility.yul\":9688:9995   */\n    tag_175:\n        /* \"#utility.yul\":9756:9757   */\n      0x00\n        /* \"#utility.yul\":9766:9879   */\n    tag_259:\n        /* \"#utility.yul\":9780:9786   */\n      dup4\n        /* \"#utility.yul\":9777:9778   */\n      dup2\n        /* \"#utility.yul\":9774:9787   */\n      lt\n        /* \"#utility.yul\":9766:9879   */\n      iszero\n      tag_261\n      jumpi\n        /* \"#utility.yul\":9865:9866   */\n      dup1\n        /* \"#utility.yul\":9860:9863   */\n      dup3\n        /* \"#utility.yul\":9856:9867   */\n      add\n        /* \"#utility.yul\":9850:9868   */\n      mload\n        /* \"#utility.yul\":9846:9847   */\n      dup2\n        /* \"#utility.yul\":9841:9844   */\n      dup5\n        /* \"#utility.yul\":9837:9848   */\n      add\n        /* \"#utility.yul\":9830:9869   */\n      mstore\n        /* \"#utility.yul\":9802:9804   */\n      0x20\n        /* \"#utility.yul\":9799:9800   */\n      dup2\n        /* \"#utility.yul\":9795:9805   */\n      add\n        /* \"#utility.yul\":9790:9805   */\n      swap1\n      pop\n        /* \"#utility.yul\":9766:9879   */\n      jump(tag_259)\n    tag_261:\n        /* \"#utility.yul\":9897:9903   */\n      dup4\n        /* \"#utility.yul\":9894:9895   */\n      dup2\n        /* \"#utility.yul\":9891:9904   */\n      gt\n        /* \"#utility.yul\":9888:9989   */\n      iszero\n      tag_262\n      jumpi\n        /* \"#utility.yul\":9977:9978   */\n      0x00\n        /* \"#utility.yul\":9968:9974   */\n      dup5\n        /* \"#utility.yul\":9963:9966   */\n      dup5\n        /* \"#utility.yul\":9959:9975   */\n      add\n        /* \"#utility.yul\":9952:9979   */\n      mstore\n        /* \"#utility.yul\":9888:9989   */\n    tag_262:\n        /* \"#utility.yul\":9737:9995   */\n      pop\n        /* \"#utility.yul\":9688:9995   */\n      pop\n      pop\n      pop\n      jump\t// out\n        /* \"#utility.yul\":10001:10321   */\n    tag_127:\n        /* \"#utility.yul\":10045:10051   */\n      0x00\n        /* \"#utility.yul\":10082:10083   */\n      0x02\n        /* \"#utility.yul\":10076:10080   */\n      dup3\n        /* \"#utility.yul\":10072:10084   */\n      div\n        /* \"#utility.yul\":10062:10084   */\n      swap1\n      pop\n        /* \"#utility.yul\":10129:10130   */\n      0x01\n        /* \"#utility.yul\":10123:10127   */\n      dup3\n        /* \"#utility.yul\":10119:10131   */\n      and\n        /* \"#utility.yul\":10150:10168   */\n      dup1\n        /* \"#utility.yul\":10140:10221   */\n      tag_264\n      jumpi\n        /* \"#utility.yul\":10206:10210   */\n      0x7f\n        /* \"#utility.yul\":10198:10204   */\n      dup3\n        /* \"#utility.yul\":10194:10211   */\n      and\n        /* \"#utility.yul\":10184:10211   */\n      swap2\n      pop\n        /* \"#utility.yul\":10140:10221   */\n    tag_264:\n        /* \"#utility.yul\":10268:10270   */\n      0x20\n        /* \"#utility.yul\":10260:10266   */\n      dup3\n        /* \"#utility.yul\":10257:10271   */\n      lt\n        /* \"#utility.yul\":10237:10255   */\n      dup2\n        /* \"#utility.yul\":10234:10272   */\n      eq\n        /* \"#utility.yul\":10231:10315   */\n      iszero\n      tag_265\n      jumpi\n        /* \"#utility.yul\":10287:10305   */\n      tag_266\n      tag_267\n      jump\t// in\n    tag_266:\n        /* \"#utility.yul\":10231:10315   */\n    tag_265:\n        /* \"#utility.yul\":10052:10321   */\n      pop\n        /* \"#utility.yul\":10001:10321   */\n      swap2\n      swap1\n      pop\n      jump\t// out\n        /* \"#utility.yul\":10327:10427   */\n    tag_163:\n        /* \"#utility.yul\":10366:10373   */\n      0x00\n        /* \"#utility.yul\":10395:10421   */\n      tag_269\n        /* \"#utility.yul\":10415:10420   */\n      dup3\n        /* \"#utility.yul\":10395:10421   */\n      tag_270\n      jump\t// in\n    tag_269:\n        /* \"#utility.yul\":10384:10421   */\n      swap1\n      pop\n        /* \"#utility.yul\":10327:10427   */\n      swap2\n      swap1\n      pop\n      jump\t// out\n        /* \"#utility.yul\":10433:10527   */\n    tag_270:\n        /* \"#utility.yul\":10472:10479   */\n      0x00\n        /* \"#utility.yul\":10501:10521   */\n      tag_272\n        /* \"#utility.yul\":10515:10520   */\n      dup3\n        /* \"#utility.yul\":10501:10521   */\n      tag_273\n      jump\t// in\n    tag_272:\n        /* \"#utility.yul\":10490:10521   */\n      swap1\n      pop\n        /* \"#utility.yul\":10433:10527   */\n      swap2\n      swap1\n      pop\n      jump\t// out\n        /* \"#utility.yul\":10533:10612   */\n    tag_214:\n        /* \"#utility.yul\":10572:10579   */\n      0x00\n        /* \"#utility.yul\":10601:10606   */\n      dup2\n        /* \"#utility.yul\":10590:10606   */\n      swap1\n      pop\n        /* \"#utility.yul\":10533:10612   */\n      swap2\n      swap1\n      pop\n      jump\t// out\n        /* \"#utility.yul\":10618:10794   */\n    tag_119:\n        /* \"#utility.yul\":10650:10651   */\n      0x00\n        /* \"#utility.yul\":10667:10687   */\n      tag_276\n        /* \"#utility.yul\":10685:10686   */\n      dup3\n        /* \"#utility.yul\":10667:10687   */\n      tag_206\n      jump\t// in\n    tag_276:\n        /* \"#utility.yul\":10662:10687   */\n      swap2\n      pop\n        /* \"#utility.yul\":10701:10721   */\n      tag_277\n        /* \"#utility.yul\":10719:10720   */\n      dup4\n        /* \"#utility.yul\":10701:10721   */\n      tag_206\n      jump\t// in\n    tag_277:\n        /* \"#utility.yul\":10696:10721   */\n      swap3\n      pop\n        /* \"#utility.yul\":10740:10741   */\n      dup3\n        /* \"#utility.yul\":10730:10765   */\n      tag_278\n      jumpi\n        /* \"#utility.yul\":10745:10763   */\n      tag_279\n      tag_280\n      jump\t// in\n    tag_279:\n        /* \"#utility.yul\":10730:10765   */\n    tag_278:\n        /* \"#utility.yul\":10786:10787   */\n      dup3\n        /* \"#utility.yul\":10783:10784   */\n      dup3\n        /* \"#utility.yul\":10779:10788   */\n      mod\n        /* \"#utility.yul\":10774:10788   */\n      swap1\n      pop\n        /* \"#utility.yul\":10618:10794   */\n      swap3\n      swap2\n      pop\n      pop\n      jump\t// out\n        /* \"#utility.yul\":10800:10980   */\n    tag_243:\n        /* \"#utility.yul\":10848:10925   */\n      0x4e487b7100000000000000000000000000000000000000000000000000000000\n        /* \"#utility.yul\":10845:10846   */\n      0x00\n        /* \"#utility.yul\":10838:10926   */\n      mstore\n        /* \"#utility.yul\":10945:10949   */\n      0x11\n        /* \"#utility.yul\":10942:10943   */\n      0x04\n        /* \"#utility.yul\":10935:10950   */\n      mstore\n        /* \"#utility.yul\":10969:10973   */\n      0x24\n        /* \"#utility.yul\":10966:10967   */\n      0x00\n        /* \"#utility.yul\":10959:10974   */\n      revert\n        /* \"#utility.yul\":10986:11166   */\n    tag_280:\n        /* \"#utility.yul\":11034:11111   */\n      0x4e487b7100000000000000000000000000000000000000000000000000000000\n        /* \"#utility.yul\":11031:11032   */\n      0x00\n        /* \"#utility.yul\":11024:11112   */\n      mstore\n        /* \"#utility.yul\":11131:11135   */\n      0x12\n        /* \"#utility.yul\":11128:11129   */\n      0x04\n        /* \"#utility.yul\":11121:11136   */\n      mstore\n        /* \"#utility.yul\":11155:11159   */\n      0x24\n        /* \"#utility.yul\":11152:11153   */\n      0x00\n        /* \"#utility.yul\":11145:11160   */\n      revert\n        /* \"#utility.yul\":11172:11352   */\n    tag_267:\n        /* \"#utility.yul\":11220:11297   */\n      0x4e487b7100000000000000000000000000000000000000000000000000000000\n        /* \"#utility.yul\":11217:11218   */\n      0x00\n        /* \"#utility.yul\":11210:11298   */\n      mstore\n        /* \"#utility.yul\":11317:11321   */\n      0x22\n        /* \"#utility.yul\":11314:11315   */\n      0x04\n        /* \"#utility.yul\":11307:11322   */\n      mstore\n        /* \"#utility.yul\":11341:11345   */\n      0x24\n        /* \"#utility.yul\":11338:11339   */\n      0x00\n        /* \"#utility.yul\":11331:11346   */\n      revert\n        /* \"#utility.yul\":11358:11538   */\n    tag_41:\n        /* \"#utility.yul\":11406:11483   */\n      0x4e487b7100000000000000000000000000000000000000000000000000000000\n        /* \"#utility.yul\":11403:11404   */\n      0x00\n        /* \"#utility.yul\":11396:11484   */\n      mstore\n        /* \"#utility.yul\":11503:11507   */\n      0x32\n        /* \"#utility.yul\":11500:11501   */\n      0x04\n        /* \"#utility.yul\":11493:11508   */\n      mstore\n        /* \"#utility.yul\":11527:11531   */\n      0x24\n        /* \"#utility.yul\":11524:11525   */\n      0x00\n        /* \"#utility.yul\":11517:11532   */\n      revert\n        /* \"#utility.yul\":11667:11784   */\n    tag_152:\n        /* \"#utility.yul\":11776:11777   */\n      0x00\n        /* \"#utility.yul\":11773:11774   */\n      dup1\n        /* \"#utility.yul\":11766:11778   */\n      revert\n        /* \"#utility.yul\":11790:11892   */\n    tag_177:\n        /* \"#utility.yul\":11831:11837   */\n      0x00\n        /* \"#utility.yul\":11882:11884   */\n      0x1f\n        /* \"#utility.yul\":11878:11885   */\n      not\n        /* \"#utility.yul\":11873:11875   */\n      0x1f\n        /* \"#utility.yul\":11866:11871   */\n      dup4\n        /* \"#utility.yul\":11862:11876   */\n      add\n        /* \"#utility.yul\":11858:11886   */\n      and\n        /* \"#utility.yul\":11848:11886   */\n      swap1\n      pop\n        /* \"#utility.yul\":11790:11892   */\n      swap2\n      swap1\n      pop\n      jump\t// out\n        /* \"#utility.yul\":11898:11992   */\n    tag_273:\n        /* \"#utility.yul\":11931:11939   */\n      0x00\n        /* \"#utility.yul\":11979:11984   */\n      dup2\n        /* \"#utility.yul\":11975:11977   */\n      0x60\n        /* \"#utility.yul\":11971:11985   */\n      shl\n        /* \"#utility.yul\":11950:11985   */\n      swap1\n      pop\n        /* \"#utility.yul\":11898:11992   */\n      swap2\n      swap1\n      pop\n      jump\t// out\n        /* \"#utility.yul\":11998:12162   */\n    tag_183:\n        /* \"#utility.yul\":12138:12154   */\n      0x416c726561647920766f7465642e000000000000000000000000000000000000\n        /* \"#utility.yul\":12134:12135   */\n      0x00\n        /* \"#utility.yul\":12126:12132   */\n      dup3\n        /* \"#utility.yul\":12122:12136   */\n      add\n        /* \"#utility.yul\":12115:12155   */\n      mstore\n        /* \"#utility.yul\":11998:12162   */\n      pop\n      jump\t// out\n        /* \"#utility.yul\":12168:12342   */\n    tag_188:\n        /* \"#utility.yul\":12308:12334   */\n      0x54686520766f74657220616c726561647920766f7465642e0000000000000000\n        /* \"#utility.yul\":12304:12305   */\n      0x00\n        /* \"#utility.yul\":12296:12302   */\n      dup3\n        /* \"#utility.yul\":12292:12306   */\n      add\n        /* \"#utility.yul\":12285:12335   */\n      mstore\n        /* \"#utility.yul\":12168:12342   */\n      pop\n      jump\t// out\n        /* \"#utility.yul\":12348:12470   */\n    tag_144:\n        /* \"#utility.yul\":12421:12445   */\n      tag_293\n        /* \"#utility.yul\":12439:12444   */\n      dup2\n        /* \"#utility.yul\":12421:12445   */\n      tag_162\n      jump\t// in\n    tag_293:\n        /* \"#utility.yul\":12414:12419   */\n      dup2\n        /* \"#utility.yul\":12411:12446   */\n      eq\n        /* \"#utility.yul\":12401:12464   */\n      tag_294\n      jumpi\n        /* \"#utility.yul\":12460:12461   */\n      0x00\n        /* \"#utility.yul\":12457:12458   */\n      dup1\n        /* \"#utility.yul\":12450:12462   */\n      revert\n        /* \"#utility.yul\":12401:12464   */\n    tag_294:\n        /* \"#utility.yul\":12348:12470   */\n      pop\n      jump\t// out\n        /* \"#utility.yul\":12476:12598   */\n    tag_148:\n        /* \"#utility.yul\":12549:12573   */\n      tag_296\n        /* \"#utility.yul\":12567:12572   */\n      dup2\n        /* \"#utility.yul\":12549:12573   */\n      tag_206\n      jump\t// in\n    tag_296:\n        /* \"#utility.yul\":12542:12547   */\n      dup2\n        /* \"#utility.yul\":12539:12574   */\n      eq\n        /* \"#utility.yul\":12529:12592   */\n      tag_297\n      jumpi\n        /* \"#utility.yul\":12588:12589   */\n      0x00\n        /* \"#utility.yul\":12585:12586   */\n      dup1\n        /* \"#utility.yul\":12578:12590   */\n      revert\n        /* \"#utility.yul\":12529:12592   */\n    tag_297:\n        /* \"#utility.yul\":12476:12598   */\n      pop\n      jump\t// out\n\n    auxdata: 0xa264697066735822122077e4a08fddf25aecc91d22633196cfeab762a52c47d431343a832378f7b3a5e264736f6c63430008070033\n}\n",
				"bytecode": {
					"linkReferences": {},
					"object": "6080604052600060035560006004553480156200001b57600080fd5b50336000806101000a81548173ffffffffffffffffffffffffffffffffffffffff021916908373ffffffffffffffffffffffffffffffffffffffff16021790555060018060008060009054906101000a900473ffffffffffffffffffffffffffffffffffffffff1673ffffffffffffffffffffffffffffffffffffffff1673ffffffffffffffffffffffffffffffffffffffff1681526020019081526020016000206000018190555060006040518060a001604052806040518060400160405280600181526020017f610000000000000000000000000000000000000000000000000000000000000081525081526020016040518060400160405280600181526020017f620000000000000000000000000000000000000000000000000000000000000081525081526020016040518060400160405280600181526020017f630000000000000000000000000000000000000000000000000000000000000081525081526020016040518060400160405280600181526020017f640000000000000000000000000000000000000000000000000000000000000081525081526020016040518060400160405280600181526020017f65000000000000000000000000000000000000000000000000000000000000008152508152509050600580146200023e576040517f08c379a0000000000000000000000000000000000000000000000000000000008152600401620002359062000475565b60405180910390fd5b60005b6005811015620003965760026040518061018001604052808484600581106200026f576200026e62000594565b5b6020020151815260200160008152602001600081526020016000815260200160008152602001600081526020016000815260200160008152602001600081526020016000815260200160008152602001600081525090806001815401808255809150506001900390600052602060002090600c020160009091909190915060008201518160000190805190602001906200030b9291906200039e565b506020820151816001015560408201518160020155606082015181600301556080820151816004015560a0820151816005015560c0820151816006015560e082015181600701556101008201518160080155610120820151816009015561014082015181600a015561016082015181600b0155505080806200038d90620004e8565b91505062000241565b5050620005ec565b828054620003ac90620004b2565b90600052602060002090601f016020900481019282620003d057600085556200041c565b82601f10620003eb57805160ff19168380011785556200041c565b828001600101855582156200041c579182015b828111156200041b578251825591602001919060010190620003fe565b5b5090506200042b91906200042f565b5090565b5b808211156200044a57600081600090555060010162000430565b5090565b60006200045d60158362000497565b91506200046a82620005c3565b602082019050919050565b6000602082019050818103600083015262000490816200044e565b9050919050565b600082825260208201905092915050565b6000819050919050565b60006002820490506001821680620004cb57607f821691505b60208210811415620004e257620004e162000565565b5b50919050565b6000620004f582620004a8565b91507fffffffffffffffffffffffffffffffffffffffffffffffffffffffffffffffff8214156200052b576200052a62000536565b5b600182019050919050565b7f4e487b7100000000000000000000000000000000000000000000000000000000600052601160045260246000fd5b7f4e487b7100000000000000000000000000000000000000000000000000000000600052602260045260246000fd5b7f4e487b7100000000000000000000000000000000000000000000000000000000600052603260045260246000fd5b7f43616e64696461746573206d75737420626520352e0000000000000000000000600082015250565b61109580620005fc6000396000f3fe608060405234801561001057600080fd5b506004361061004c5760003560e01c8063632a9a5214610051578063a3ec138d1461005b578063cfa1f0371461008e578063d4e8fd2e146100ac575b600080fd5b6100596100dc565b005b6100756004803603810190610070919061099c565b6106dd565b6040516100859493929190610c8e565b60405180910390f35b61009661071a565b6040516100a39190610c73565b60405180910390f35b6100c660048036038101906100c191906109c9565b61075b565b6040516100d39190610c51565b60405180910390f35b600160003373ffffffffffffffffffffffffffffffffffffffff1673ffffffffffffffffffffffffffffffffffffffff16815260200190815260200160002060010160009054906101000a900460ff161561016c576040517f08c379a000000000000000000000000000000000000000000000000000000000815260040161016390610c31565b60405180910390fd5b6000600160003373ffffffffffffffffffffffffffffffffffffffff1673ffffffffffffffffffffffffffffffffffffffff16815260200190815260200160002060000154146101bb57600080fd5b60018060003373ffffffffffffffffffffffffffffffffffffffff1673ffffffffffffffffffffffffffffffffffffffff1681526020019081526020016000206000018190555061020a610898565b6102126108b4565b600160003373ffffffffffffffffffffffffffffffffffffffff1673ffffffffffffffffffffffffffffffffffffffff168152602001908152602001600020600201819055506000600160003373ffffffffffffffffffffffffffffffffffffffff1673ffffffffffffffffffffffffffffffffffffffff16815260200190815260200160002090508060010160009054906101000a900460ff16156102ed576040517f08c379a00000000000000000000000000000000000000000000000000000000081526004016102e490610c11565b60405180910390fd5b60018160010160006101000a81548160ff02191690831515021790555061031261071a565b81600301819055508060000154600261032961071a565b8154811061033a57610339610f8d565b5b90600052602060002090600c0201600101600082825461035a9190610d94565b925050819055506000816002015414156103ba578060000154600261037d61071a565b8154811061038e5761038d610f8d565b5b90600052602060002090600c020160020160008282546103ae9190610d94565b925050819055506106d2565b60018160020154141561041357806000015460026103d661071a565b815481106103e7576103e6610f8d565b5b90600052602060002090600c020160030160008282546104079190610d94565b925050819055506106d1565b60028160020154141561046c578060000154600261042f61071a565b815481106104405761043f610f8d565b5b90600052602060002090600c020160040160008282546104609190610d94565b925050819055506106d0565b6003816002015414156104c5578060000154600261048861071a565b8154811061049957610498610f8d565b5b90600052602060002090600c020160050160008282546104b99190610d94565b925050819055506106cf565b60048160020154141561051e57806000015460026104e161071a565b815481106104f2576104f1610f8d565b5b90600052602060002090600c020160060160008282546105129190610d94565b925050819055506106ce565b600581600201541415610577578060000154600261053a61071a565b8154811061054b5761054a610f8d565b5b90600052602060002090600c0201600701600082825461056b9190610d94565b925050819055506106cd565b6006816002015414156105d0578060000154600261059361071a565b815481106105a4576105a3610f8d565b5b90600052602060002090600c020160080160008282546105c49190610d94565b925050819055506106cc565b60078160020154141561062957806000015460026105ec61071a565b815481106105fd576105fc610f8d565b5b90600052602060002090600c0201600901600082825461061d9190610d94565b925050819055506106cb565b600881600201541415610682578060000154600261064561071a565b8154811061065657610655610f8d565b5b90600052602060002090600c0201600a0160008282546106769190610d94565b925050819055506106ca565b8060000154600261069161071a565b815481106106a2576106a1610f8d565b5b90600052602060002090600c0201600b0160008282546106c29190610d94565b925050819055505b5b5b5b5b5b5b5b5b6106da6108f5565b50565b60016020528060005260406000206000915090508060000154908060010160009054906101000a900460ff16908060020154908060030154905084565b6000600542443360405160200161073393929190610bd4565b6040516020818303038152906040528051906020012060001c6107569190610ecf565b905090565b610763610911565b6002828154811061077757610776610f8d565b5b90600052602060002090600c0201604051806101800160405290816000820180546107a190610e6f565b80601f01602080910402602001604051908101604052809291908181526020018280546107cd90610e6f565b801561081a5780601f106107ef5761010080835404028352916020019161081a565b820191906000526020600020905b8154815290600101906020018083116107fd57829003601f168201915b50505050508152602001600182015481526020016002820154815260200160038201548152602001600482015481526020016005820154815260200160068201548152602001600782015481526020016008820154815260200160098201548152602001600a8201548152602001600b820154815250509050919050565b6001600360008282546108ab9190610d00565b92505081905550565b6000600a4244336040516020016108cd93929190610bd4565b6040516020818303038152906040528051906020012060001c6108f09190610ecf565b905090565b6001600460008282546109089190610d00565b92505081905550565b6040518061018001604052806060815260200160008152602001600081526020016000815260200160008152602001600081526020016000815260200160008152602001600081526020016000815260200160008152602001600081525090565b60008135905061098181611031565b92915050565b60008135905061099681611048565b92915050565b6000602082840312156109b2576109b1610fbc565b5b60006109c084828501610972565b91505092915050565b6000602082840312156109df576109de610fbc565b5b60006109ed84828501610987565b91505092915050565b610a07610a0282610dea565b610ea1565b82525050565b610a1681610dfc565b82525050565b6000610a2782610cd3565b610a318185610cde565b9350610a41818560208601610e3c565b610a4a81610fc1565b840191505092915050565b6000610a62600e83610cef565b9150610a6d82610fdf565b602082019050919050565b6000610a85601883610cef565b9150610a9082611008565b602082019050919050565b6000610180830160008301518482036000860152610ab98282610a1c565b9150506020830151610ace6020860182610b9f565b506040830151610ae16040860182610b9f565b506060830151610af46060860182610b9f565b506080830151610b076080860182610b9f565b5060a0830151610b1a60a0860182610b9f565b5060c0830151610b2d60c0860182610b9f565b5060e0830151610b4060e0860182610b9f565b50610100830151610b55610100860182610b9f565b50610120830151610b6a610120860182610b9f565b50610140830151610b7f610140860182610b9f565b50610160830151610b94610160860182610b9f565b508091505092915050565b610ba881610e32565b82525050565b610bb781610e32565b82525050565b610bce610bc982610e32565b610ec5565b82525050565b6000610be08286610bbd565b602082019150610bf08285610bbd565b602082019150610c0082846109f6565b601482019150819050949350505050565b60006020820190508181036000830152610c2a81610a55565b9050919050565b60006020820190508181036000830152610c4a81610a78565b9050919050565b60006020820190508181036000830152610c6b8184610a9b565b905092915050565b6000602082019050610c886000830184610bae565b92915050565b6000608082019050610ca36000830187610bae565b610cb06020830186610a0d565b610cbd6040830185610bae565b610cca6060830184610bae565b95945050505050565b600081519050919050565b600082825260208201905092915050565b600082825260208201905092915050565b6000610d0b82610e08565b9150610d1683610e08565b9250817f7fffffffffffffffffffffffffffffffffffffffffffffffffffffffffffffff03831360008312151615610d5157610d50610f00565b5b817f8000000000000000000000000000000000000000000000000000000000000000038312600083121615610d8957610d88610f00565b5b828201905092915050565b6000610d9f82610e32565b9150610daa83610e32565b9250827fffffffffffffffffffffffffffffffffffffffffffffffffffffffffffffffff03821115610ddf57610dde610f00565b5b828201905092915050565b6000610df582610e12565b9050919050565b60008115159050919050565b6000819050919050565b600073ffffffffffffffffffffffffffffffffffffffff82169050919050565b6000819050919050565b60005b83811015610e5a578082015181840152602081019050610e3f565b83811115610e69576000848401525b50505050565b60006002820490506001821680610e8757607f821691505b60208210811415610e9b57610e9a610f5e565b5b50919050565b6000610eac82610eb3565b9050919050565b6000610ebe82610fd2565b9050919050565b6000819050919050565b6000610eda82610e32565b9150610ee583610e32565b925082610ef557610ef4610f2f565b5b828206905092915050565b7f4e487b7100000000000000000000000000000000000000000000000000000000600052601160045260246000fd5b7f4e487b7100000000000000000000000000000000000000000000000000000000600052601260045260246000fd5b7f4e487b7100000000000000000000000000000000000000000000000000000000600052602260045260246000fd5b7f4e487b7100000000000000000000000000000000000000000000000000000000600052603260045260246000fd5b600080fd5b6000601f19601f8301169050919050565b60008160601b9050919050565b7f416c726561647920766f7465642e000000000000000000000000000000000000600082015250565b7f54686520766f74657220616c726561647920766f7465642e0000000000000000600082015250565b61103a81610dea565b811461104557600080fd5b50565b61105181610e32565b811461105c57600080fd5b5056fea264697066735822122077e4a08fddf25aecc91d22633196cfeab762a52c47d431343a832378f7b3a5e264736f6c63430008070033",
					"opcodes": "PUSH1 0x80 PUSH1 0x40 MSTORE PUSH1 0x0 PUSH1 0x3 SSTORE PUSH1 0x0 PUSH1 0x4 SSTORE CALLVALUE DUP1 ISZERO PUSH3 0x1B JUMPI PUSH1 0x0 DUP1 REVERT JUMPDEST POP CALLER PUSH1 0x0 DUP1 PUSH2 0x100 EXP DUP2 SLOAD DUP2 PUSH20 0xFFFFFFFFFFFFFFFFFFFFFFFFFFFFFFFFFFFFFFFF MUL NOT AND SWAP1 DUP4 PUSH20 0xFFFFFFFFFFFFFFFFFFFFFFFFFFFFFFFFFFFFFFFF AND MUL OR SWAP1 SSTORE POP PUSH1 0x1 DUP1 PUSH1 0x0 DUP1 PUSH1 0x0 SWAP1 SLOAD SWAP1 PUSH2 0x100 EXP SWAP1 DIV PUSH20 0xFFFFFFFFFFFFFFFFFFFFFFFFFFFFFFFFFFFFFFFF AND PUSH20 0xFFFFFFFFFFFFFFFFFFFFFFFFFFFFFFFFFFFFFFFF AND PUSH20 0xFFFFFFFFFFFFFFFFFFFFFFFFFFFFFFFFFFFFFFFF AND DUP2 MSTORE PUSH1 0x20 ADD SWAP1 DUP2 MSTORE PUSH1 0x20 ADD PUSH1 0x0 KECCAK256 PUSH1 0x0 ADD DUP2 SWAP1 SSTORE POP PUSH1 0x0 PUSH1 0x40 MLOAD DUP1 PUSH1 0xA0 ADD PUSH1 0x40 MSTORE DUP1 PUSH1 0x40 MLOAD DUP1 PUSH1 0x40 ADD PUSH1 0x40 MSTORE DUP1 PUSH1 0x1 DUP2 MSTORE PUSH1 0x20 ADD PUSH32 0x6100000000000000000000000000000000000000000000000000000000000000 DUP2 MSTORE POP DUP2 MSTORE PUSH1 0x20 ADD PUSH1 0x40 MLOAD DUP1 PUSH1 0x40 ADD PUSH1 0x40 MSTORE DUP1 PUSH1 0x1 DUP2 MSTORE PUSH1 0x20 ADD PUSH32 0x6200000000000000000000000000000000000000000000000000000000000000 DUP2 MSTORE POP DUP2 MSTORE PUSH1 0x20 ADD PUSH1 0x40 MLOAD DUP1 PUSH1 0x40 ADD PUSH1 0x40 MSTORE DUP1 PUSH1 0x1 DUP2 MSTORE PUSH1 0x20 ADD PUSH32 0x6300000000000000000000000000000000000000000000000000000000000000 DUP2 MSTORE POP DUP2 MSTORE PUSH1 0x20 ADD PUSH1 0x40 MLOAD DUP1 PUSH1 0x40 ADD PUSH1 0x40 MSTORE DUP1 PUSH1 0x1 DUP2 MSTORE PUSH1 0x20 ADD PUSH32 0x6400000000000000000000000000000000000000000000000000000000000000 DUP2 MSTORE POP DUP2 MSTORE PUSH1 0x20 ADD PUSH1 0x40 MLOAD DUP1 PUSH1 0x40 ADD PUSH1 0x40 MSTORE DUP1 PUSH1 0x1 DUP2 MSTORE PUSH1 0x20 ADD PUSH32 0x6500000000000000000000000000000000000000000000000000000000000000 DUP2 MSTORE POP DUP2 MSTORE POP SWAP1 POP PUSH1 0x5 DUP1 EQ PUSH3 0x23E JUMPI PUSH1 0x40 MLOAD PUSH32 0x8C379A000000000000000000000000000000000000000000000000000000000 DUP2 MSTORE PUSH1 0x4 ADD PUSH3 0x235 SWAP1 PUSH3 0x475 JUMP JUMPDEST PUSH1 0x40 MLOAD DUP1 SWAP2 SUB SWAP1 REVERT JUMPDEST PUSH1 0x0 JUMPDEST PUSH1 0x5 DUP2 LT ISZERO PUSH3 0x396 JUMPI PUSH1 0x2 PUSH1 0x40 MLOAD DUP1 PUSH2 0x180 ADD PUSH1 0x40 MSTORE DUP1 DUP5 DUP5 PUSH1 0x5 DUP2 LT PUSH3 0x26F JUMPI PUSH3 0x26E PUSH3 0x594 JUMP JUMPDEST JUMPDEST PUSH1 0x20 MUL ADD MLOAD DUP2 MSTORE PUSH1 0x20 ADD PUSH1 0x0 DUP2 MSTORE PUSH1 0x20 ADD PUSH1 0x0 DUP2 MSTORE PUSH1 0x20 ADD PUSH1 0x0 DUP2 MSTORE PUSH1 0x20 ADD PUSH1 0x0 DUP2 MSTORE PUSH1 0x20 ADD PUSH1 0x0 DUP2 MSTORE PUSH1 0x20 ADD PUSH1 0x0 DUP2 MSTORE PUSH1 0x20 ADD PUSH1 0x0 DUP2 MSTORE PUSH1 0x20 ADD PUSH1 0x0 DUP2 MSTORE PUSH1 0x20 ADD PUSH1 0x0 DUP2 MSTORE PUSH1 0x20 ADD PUSH1 0x0 DUP2 MSTORE PUSH1 0x20 ADD PUSH1 0x0 DUP2 MSTORE POP SWAP1 DUP1 PUSH1 0x1 DUP2 SLOAD ADD DUP1 DUP3 SSTORE DUP1 SWAP2 POP POP PUSH1 0x1 SWAP1 SUB SWAP1 PUSH1 0x0 MSTORE PUSH1 0x20 PUSH1 0x0 KECCAK256 SWAP1 PUSH1 0xC MUL ADD PUSH1 0x0 SWAP1 SWAP2 SWAP1 SWAP2 SWAP1 SWAP2 POP PUSH1 0x0 DUP3 ADD MLOAD DUP2 PUSH1 0x0 ADD SWAP1 DUP1 MLOAD SWAP1 PUSH1 0x20 ADD SWAP1 PUSH3 0x30B SWAP3 SWAP2 SWAP1 PUSH3 0x39E JUMP JUMPDEST POP PUSH1 0x20 DUP3 ADD MLOAD DUP2 PUSH1 0x1 ADD SSTORE PUSH1 0x40 DUP3 ADD MLOAD DUP2 PUSH1 0x2 ADD SSTORE PUSH1 0x60 DUP3 ADD MLOAD DUP2 PUSH1 0x3 ADD SSTORE PUSH1 0x80 DUP3 ADD MLOAD DUP2 PUSH1 0x4 ADD SSTORE PUSH1 0xA0 DUP3 ADD MLOAD DUP2 PUSH1 0x5 ADD SSTORE PUSH1 0xC0 DUP3 ADD MLOAD DUP2 PUSH1 0x6 ADD SSTORE PUSH1 0xE0 DUP3 ADD MLOAD DUP2 PUSH1 0x7 ADD SSTORE PUSH2 0x100 DUP3 ADD MLOAD DUP2 PUSH1 0x8 ADD SSTORE PUSH2 0x120 DUP3 ADD MLOAD DUP2 PUSH1 0x9 ADD SSTORE PUSH2 0x140 DUP3 ADD MLOAD DUP2 PUSH1 0xA ADD SSTORE PUSH2 0x160 DUP3 ADD MLOAD DUP2 PUSH1 0xB ADD SSTORE POP POP DUP1 DUP1 PUSH3 0x38D SWAP1 PUSH3 0x4E8 JUMP JUMPDEST SWAP2 POP POP PUSH3 0x241 JUMP JUMPDEST POP POP PUSH3 0x5EC JUMP JUMPDEST DUP3 DUP1 SLOAD PUSH3 0x3AC SWAP1 PUSH3 0x4B2 JUMP JUMPDEST SWAP1 PUSH1 0x0 MSTORE PUSH1 0x20 PUSH1 0x0 KECCAK256 SWAP1 PUSH1 0x1F ADD PUSH1 0x20 SWAP1 DIV DUP2 ADD SWAP3 DUP3 PUSH3 0x3D0 JUMPI PUSH1 0x0 DUP6 SSTORE PUSH3 0x41C JUMP JUMPDEST DUP3 PUSH1 0x1F LT PUSH3 0x3EB JUMPI DUP1 MLOAD PUSH1 0xFF NOT AND DUP4 DUP1 ADD OR DUP6 SSTORE PUSH3 0x41C JUMP JUMPDEST DUP3 DUP1 ADD PUSH1 0x1 ADD DUP6 SSTORE DUP3 ISZERO PUSH3 0x41C JUMPI SWAP2 DUP3 ADD JUMPDEST DUP3 DUP2 GT ISZERO PUSH3 0x41B JUMPI DUP3 MLOAD DUP3 SSTORE SWAP2 PUSH1 0x20 ADD SWAP2 SWAP1 PUSH1 0x1 ADD SWAP1 PUSH3 0x3FE JUMP JUMPDEST JUMPDEST POP SWAP1 POP PUSH3 0x42B SWAP2 SWAP1 PUSH3 0x42F JUMP JUMPDEST POP SWAP1 JUMP JUMPDEST JUMPDEST DUP1 DUP3 GT ISZERO PUSH3 0x44A JUMPI PUSH1 0x0 DUP2 PUSH1 0x0 SWAP1 SSTORE POP PUSH1 0x1 ADD PUSH3 0x430 JUMP JUMPDEST POP SWAP1 JUMP JUMPDEST PUSH1 0x0 PUSH3 0x45D PUSH1 0x15 DUP4 PUSH3 0x497 JUMP JUMPDEST SWAP2 POP PUSH3 0x46A DUP3 PUSH3 0x5C3 JUMP JUMPDEST PUSH1 0x20 DUP3 ADD SWAP1 POP SWAP2 SWAP1 POP JUMP JUMPDEST PUSH1 0x0 PUSH1 0x20 DUP3 ADD SWAP1 POP DUP2 DUP2 SUB PUSH1 0x0 DUP4 ADD MSTORE PUSH3 0x490 DUP2 PUSH3 0x44E JUMP JUMPDEST SWAP1 POP SWAP2 SWAP1 POP JUMP JUMPDEST PUSH1 0x0 DUP3 DUP3 MSTORE PUSH1 0x20 DUP3 ADD SWAP1 POP SWAP3 SWAP2 POP POP JUMP JUMPDEST PUSH1 0x0 DUP2 SWAP1 POP SWAP2 SWAP1 POP JUMP JUMPDEST PUSH1 0x0 PUSH1 0x2 DUP3 DIV SWAP1 POP PUSH1 0x1 DUP3 AND DUP1 PUSH3 0x4CB JUMPI PUSH1 0x7F DUP3 AND SWAP2 POP JUMPDEST PUSH1 0x20 DUP3 LT DUP2 EQ ISZERO PUSH3 0x4E2 JUMPI PUSH3 0x4E1 PUSH3 0x565 JUMP JUMPDEST JUMPDEST POP SWAP2 SWAP1 POP JUMP JUMPDEST PUSH1 0x0 PUSH3 0x4F5 DUP3 PUSH3 0x4A8 JUMP JUMPDEST SWAP2 POP PUSH32 0xFFFFFFFFFFFFFFFFFFFFFFFFFFFFFFFFFFFFFFFFFFFFFFFFFFFFFFFFFFFFFFFF DUP3 EQ ISZERO PUSH3 0x52B JUMPI PUSH3 0x52A PUSH3 0x536 JUMP JUMPDEST JUMPDEST PUSH1 0x1 DUP3 ADD SWAP1 POP SWAP2 SWAP1 POP JUMP JUMPDEST PUSH32 0x4E487B7100000000000000000000000000000000000000000000000000000000 PUSH1 0x0 MSTORE PUSH1 0x11 PUSH1 0x4 MSTORE PUSH1 0x24 PUSH1 0x0 REVERT JUMPDEST PUSH32 0x4E487B7100000000000000000000000000000000000000000000000000000000 PUSH1 0x0 MSTORE PUSH1 0x22 PUSH1 0x4 MSTORE PUSH1 0x24 PUSH1 0x0 REVERT JUMPDEST PUSH32 0x4E487B7100000000000000000000000000000000000000000000000000000000 PUSH1 0x0 MSTORE PUSH1 0x32 PUSH1 0x4 MSTORE PUSH1 0x24 PUSH1 0x0 REVERT JUMPDEST PUSH32 0x43616E64696461746573206D75737420626520352E0000000000000000000000 PUSH1 0x0 DUP3 ADD MSTORE POP JUMP JUMPDEST PUSH2 0x1095 DUP1 PUSH3 0x5FC PUSH1 0x0 CODECOPY PUSH1 0x0 RETURN INVALID PUSH1 0x80 PUSH1 0x40 MSTORE CALLVALUE DUP1 ISZERO PUSH2 0x10 JUMPI PUSH1 0x0 DUP1 REVERT JUMPDEST POP PUSH1 0x4 CALLDATASIZE LT PUSH2 0x4C JUMPI PUSH1 0x0 CALLDATALOAD PUSH1 0xE0 SHR DUP1 PUSH4 0x632A9A52 EQ PUSH2 0x51 JUMPI DUP1 PUSH4 0xA3EC138D EQ PUSH2 0x5B JUMPI DUP1 PUSH4 0xCFA1F037 EQ PUSH2 0x8E JUMPI DUP1 PUSH4 0xD4E8FD2E EQ PUSH2 0xAC JUMPI JUMPDEST PUSH1 0x0 DUP1 REVERT JUMPDEST PUSH2 0x59 PUSH2 0xDC JUMP JUMPDEST STOP JUMPDEST PUSH2 0x75 PUSH1 0x4 DUP1 CALLDATASIZE SUB DUP2 ADD SWAP1 PUSH2 0x70 SWAP2 SWAP1 PUSH2 0x99C JUMP JUMPDEST PUSH2 0x6DD JUMP JUMPDEST PUSH1 0x40 MLOAD PUSH2 0x85 SWAP5 SWAP4 SWAP3 SWAP2 SWAP1 PUSH2 0xC8E JUMP JUMPDEST PUSH1 0x40 MLOAD DUP1 SWAP2 SUB SWAP1 RETURN JUMPDEST PUSH2 0x96 PUSH2 0x71A JUMP JUMPDEST PUSH1 0x40 MLOAD PUSH2 0xA3 SWAP2 SWAP1 PUSH2 0xC73 JUMP JUMPDEST PUSH1 0x40 MLOAD DUP1 SWAP2 SUB SWAP1 RETURN JUMPDEST PUSH2 0xC6 PUSH1 0x4 DUP1 CALLDATASIZE SUB DUP2 ADD SWAP1 PUSH2 0xC1 SWAP2 SWAP1 PUSH2 0x9C9 JUMP JUMPDEST PUSH2 0x75B JUMP JUMPDEST PUSH1 0x40 MLOAD PUSH2 0xD3 SWAP2 SWAP1 PUSH2 0xC51 JUMP JUMPDEST PUSH1 0x40 MLOAD DUP1 SWAP2 SUB SWAP1 RETURN JUMPDEST PUSH1 0x1 PUSH1 0x0 CALLER PUSH20 0xFFFFFFFFFFFFFFFFFFFFFFFFFFFFFFFFFFFFFFFF AND PUSH20 0xFFFFFFFFFFFFFFFFFFFFFFFFFFFFFFFFFFFFFFFF AND DUP2 MSTORE PUSH1 0x20 ADD SWAP1 DUP2 MSTORE PUSH1 0x20 ADD PUSH1 0x0 KECCAK256 PUSH1 0x1 ADD PUSH1 0x0 SWAP1 SLOAD SWAP1 PUSH2 0x100 EXP SWAP1 DIV PUSH1 0xFF AND ISZERO PUSH2 0x16C JUMPI PUSH1 0x40 MLOAD PUSH32 0x8C379A000000000000000000000000000000000000000000000000000000000 DUP2 MSTORE PUSH1 0x4 ADD PUSH2 0x163 SWAP1 PUSH2 0xC31 JUMP JUMPDEST PUSH1 0x40 MLOAD DUP1 SWAP2 SUB SWAP1 REVERT JUMPDEST PUSH1 0x0 PUSH1 0x1 PUSH1 0x0 CALLER PUSH20 0xFFFFFFFFFFFFFFFFFFFFFFFFFFFFFFFFFFFFFFFF AND PUSH20 0xFFFFFFFFFFFFFFFFFFFFFFFFFFFFFFFFFFFFFFFF AND DUP2 MSTORE PUSH1 0x20 ADD SWAP1 DUP2 MSTORE PUSH1 0x20 ADD PUSH1 0x0 KECCAK256 PUSH1 0x0 ADD SLOAD EQ PUSH2 0x1BB JUMPI PUSH1 0x0 DUP1 REVERT JUMPDEST PUSH1 0x1 DUP1 PUSH1 0x0 CALLER PUSH20 0xFFFFFFFFFFFFFFFFFFFFFFFFFFFFFFFFFFFFFFFF AND PUSH20 0xFFFFFFFFFFFFFFFFFFFFFFFFFFFFFFFFFFFFFFFF AND DUP2 MSTORE PUSH1 0x20 ADD SWAP1 DUP2 MSTORE PUSH1 0x20 ADD PUSH1 0x0 KECCAK256 PUSH1 0x0 ADD DUP2 SWAP1 SSTORE POP PUSH2 0x20A PUSH2 0x898 JUMP JUMPDEST PUSH2 0x212 PUSH2 0x8B4 JUMP JUMPDEST PUSH1 0x1 PUSH1 0x0 CALLER PUSH20 0xFFFFFFFFFFFFFFFFFFFFFFFFFFFFFFFFFFFFFFFF AND PUSH20 0xFFFFFFFFFFFFFFFFFFFFFFFFFFFFFFFFFFFFFFFF AND DUP2 MSTORE PUSH1 0x20 ADD SWAP1 DUP2 MSTORE PUSH1 0x20 ADD PUSH1 0x0 KECCAK256 PUSH1 0x2 ADD DUP2 SWAP1 SSTORE POP PUSH1 0x0 PUSH1 0x1 PUSH1 0x0 CALLER PUSH20 0xFFFFFFFFFFFFFFFFFFFFFFFFFFFFFFFFFFFFFFFF AND PUSH20 0xFFFFFFFFFFFFFFFFFFFFFFFFFFFFFFFFFFFFFFFF AND DUP2 MSTORE PUSH1 0x20 ADD SWAP1 DUP2 MSTORE PUSH1 0x20 ADD PUSH1 0x0 KECCAK256 SWAP1 POP DUP1 PUSH1 0x1 ADD PUSH1 0x0 SWAP1 SLOAD SWAP1 PUSH2 0x100 EXP SWAP1 DIV PUSH1 0xFF AND ISZERO PUSH2 0x2ED JUMPI PUSH1 0x40 MLOAD PUSH32 0x8C379A000000000000000000000000000000000000000000000000000000000 DUP2 MSTORE PUSH1 0x4 ADD PUSH2 0x2E4 SWAP1 PUSH2 0xC11 JUMP JUMPDEST PUSH1 0x40 MLOAD DUP1 SWAP2 SUB SWAP1 REVERT JUMPDEST PUSH1 0x1 DUP2 PUSH1 0x1 ADD PUSH1 0x0 PUSH2 0x100 EXP DUP2 SLOAD DUP2 PUSH1 0xFF MUL NOT AND SWAP1 DUP4 ISZERO ISZERO MUL OR SWAP1 SSTORE POP PUSH2 0x312 PUSH2 0x71A JUMP JUMPDEST DUP2 PUSH1 0x3 ADD DUP2 SWAP1 SSTORE POP DUP1 PUSH1 0x0 ADD SLOAD PUSH1 0x2 PUSH2 0x329 PUSH2 0x71A JUMP JUMPDEST DUP2 SLOAD DUP2 LT PUSH2 0x33A JUMPI PUSH2 0x339 PUSH2 0xF8D JUMP JUMPDEST JUMPDEST SWAP1 PUSH1 0x0 MSTORE PUSH1 0x20 PUSH1 0x0 KECCAK256 SWAP1 PUSH1 0xC MUL ADD PUSH1 0x1 ADD PUSH1 0x0 DUP3 DUP3 SLOAD PUSH2 0x35A SWAP2 SWAP1 PUSH2 0xD94 JUMP JUMPDEST SWAP3 POP POP DUP2 SWAP1 SSTORE POP PUSH1 0x0 DUP2 PUSH1 0x2 ADD SLOAD EQ ISZERO PUSH2 0x3BA JUMPI DUP1 PUSH1 0x0 ADD SLOAD PUSH1 0x2 PUSH2 0x37D PUSH2 0x71A JUMP JUMPDEST DUP2 SLOAD DUP2 LT PUSH2 0x38E JUMPI PUSH2 0x38D PUSH2 0xF8D JUMP JUMPDEST JUMPDEST SWAP1 PUSH1 0x0 MSTORE PUSH1 0x20 PUSH1 0x0 KECCAK256 SWAP1 PUSH1 0xC MUL ADD PUSH1 0x2 ADD PUSH1 0x0 DUP3 DUP3 SLOAD PUSH2 0x3AE SWAP2 SWAP1 PUSH2 0xD94 JUMP JUMPDEST SWAP3 POP POP DUP2 SWAP1 SSTORE POP PUSH2 0x6D2 JUMP JUMPDEST PUSH1 0x1 DUP2 PUSH1 0x2 ADD SLOAD EQ ISZERO PUSH2 0x413 JUMPI DUP1 PUSH1 0x0 ADD SLOAD PUSH1 0x2 PUSH2 0x3D6 PUSH2 0x71A JUMP JUMPDEST DUP2 SLOAD DUP2 LT PUSH2 0x3E7 JUMPI PUSH2 0x3E6 PUSH2 0xF8D JUMP JUMPDEST JUMPDEST SWAP1 PUSH1 0x0 MSTORE PUSH1 0x20 PUSH1 0x0 KECCAK256 SWAP1 PUSH1 0xC MUL ADD PUSH1 0x3 ADD PUSH1 0x0 DUP3 DUP3 SLOAD PUSH2 0x407 SWAP2 SWAP1 PUSH2 0xD94 JUMP JUMPDEST SWAP3 POP POP DUP2 SWAP1 SSTORE POP PUSH2 0x6D1 JUMP JUMPDEST PUSH1 0x2 DUP2 PUSH1 0x2 ADD SLOAD EQ ISZERO PUSH2 0x46C JUMPI DUP1 PUSH1 0x0 ADD SLOAD PUSH1 0x2 PUSH2 0x42F PUSH2 0x71A JUMP JUMPDEST DUP2 SLOAD DUP2 LT PUSH2 0x440 JUMPI PUSH2 0x43F PUSH2 0xF8D JUMP JUMPDEST JUMPDEST SWAP1 PUSH1 0x0 MSTORE PUSH1 0x20 PUSH1 0x0 KECCAK256 SWAP1 PUSH1 0xC MUL ADD PUSH1 0x4 ADD PUSH1 0x0 DUP3 DUP3 SLOAD PUSH2 0x460 SWAP2 SWAP1 PUSH2 0xD94 JUMP JUMPDEST SWAP3 POP POP DUP2 SWAP1 SSTORE POP PUSH2 0x6D0 JUMP JUMPDEST PUSH1 0x3 DUP2 PUSH1 0x2 ADD SLOAD EQ ISZERO PUSH2 0x4C5 JUMPI DUP1 PUSH1 0x0 ADD SLOAD PUSH1 0x2 PUSH2 0x488 PUSH2 0x71A JUMP JUMPDEST DUP2 SLOAD DUP2 LT PUSH2 0x499 JUMPI PUSH2 0x498 PUSH2 0xF8D JUMP JUMPDEST JUMPDEST SWAP1 PUSH1 0x0 MSTORE PUSH1 0x20 PUSH1 0x0 KECCAK256 SWAP1 PUSH1 0xC MUL ADD PUSH1 0x5 ADD PUSH1 0x0 DUP3 DUP3 SLOAD PUSH2 0x4B9 SWAP2 SWAP1 PUSH2 0xD94 JUMP JUMPDEST SWAP3 POP POP DUP2 SWAP1 SSTORE POP PUSH2 0x6CF JUMP JUMPDEST PUSH1 0x4 DUP2 PUSH1 0x2 ADD SLOAD EQ ISZERO PUSH2 0x51E JUMPI DUP1 PUSH1 0x0 ADD SLOAD PUSH1 0x2 PUSH2 0x4E1 PUSH2 0x71A JUMP JUMPDEST DUP2 SLOAD DUP2 LT PUSH2 0x4F2 JUMPI PUSH2 0x4F1 PUSH2 0xF8D JUMP JUMPDEST JUMPDEST SWAP1 PUSH1 0x0 MSTORE PUSH1 0x20 PUSH1 0x0 KECCAK256 SWAP1 PUSH1 0xC MUL ADD PUSH1 0x6 ADD PUSH1 0x0 DUP3 DUP3 SLOAD PUSH2 0x512 SWAP2 SWAP1 PUSH2 0xD94 JUMP JUMPDEST SWAP3 POP POP DUP2 SWAP1 SSTORE POP PUSH2 0x6CE JUMP JUMPDEST PUSH1 0x5 DUP2 PUSH1 0x2 ADD SLOAD EQ ISZERO PUSH2 0x577 JUMPI DUP1 PUSH1 0x0 ADD SLOAD PUSH1 0x2 PUSH2 0x53A PUSH2 0x71A JUMP JUMPDEST DUP2 SLOAD DUP2 LT PUSH2 0x54B JUMPI PUSH2 0x54A PUSH2 0xF8D JUMP JUMPDEST JUMPDEST SWAP1 PUSH1 0x0 MSTORE PUSH1 0x20 PUSH1 0x0 KECCAK256 SWAP1 PUSH1 0xC MUL ADD PUSH1 0x7 ADD PUSH1 0x0 DUP3 DUP3 SLOAD PUSH2 0x56B SWAP2 SWAP1 PUSH2 0xD94 JUMP JUMPDEST SWAP3 POP POP DUP2 SWAP1 SSTORE POP PUSH2 0x6CD JUMP JUMPDEST PUSH1 0x6 DUP2 PUSH1 0x2 ADD SLOAD EQ ISZERO PUSH2 0x5D0 JUMPI DUP1 PUSH1 0x0 ADD SLOAD PUSH1 0x2 PUSH2 0x593 PUSH2 0x71A JUMP JUMPDEST DUP2 SLOAD DUP2 LT PUSH2 0x5A4 JUMPI PUSH2 0x5A3 PUSH2 0xF8D JUMP JUMPDEST JUMPDEST SWAP1 PUSH1 0x0 MSTORE PUSH1 0x20 PUSH1 0x0 KECCAK256 SWAP1 PUSH1 0xC MUL ADD PUSH1 0x8 ADD PUSH1 0x0 DUP3 DUP3 SLOAD PUSH2 0x5C4 SWAP2 SWAP1 PUSH2 0xD94 JUMP JUMPDEST SWAP3 POP POP DUP2 SWAP1 SSTORE POP PUSH2 0x6CC JUMP JUMPDEST PUSH1 0x7 DUP2 PUSH1 0x2 ADD SLOAD EQ ISZERO PUSH2 0x629 JUMPI DUP1 PUSH1 0x0 ADD SLOAD PUSH1 0x2 PUSH2 0x5EC PUSH2 0x71A JUMP JUMPDEST DUP2 SLOAD DUP2 LT PUSH2 0x5FD JUMPI PUSH2 0x5FC PUSH2 0xF8D JUMP JUMPDEST JUMPDEST SWAP1 PUSH1 0x0 MSTORE PUSH1 0x20 PUSH1 0x0 KECCAK256 SWAP1 PUSH1 0xC MUL ADD PUSH1 0x9 ADD PUSH1 0x0 DUP3 DUP3 SLOAD PUSH2 0x61D SWAP2 SWAP1 PUSH2 0xD94 JUMP JUMPDEST SWAP3 POP POP DUP2 SWAP1 SSTORE POP PUSH2 0x6CB JUMP JUMPDEST PUSH1 0x8 DUP2 PUSH1 0x2 ADD SLOAD EQ ISZERO PUSH2 0x682 JUMPI DUP1 PUSH1 0x0 ADD SLOAD PUSH1 0x2 PUSH2 0x645 PUSH2 0x71A JUMP JUMPDEST DUP2 SLOAD DUP2 LT PUSH2 0x656 JUMPI PUSH2 0x655 PUSH2 0xF8D JUMP JUMPDEST JUMPDEST SWAP1 PUSH1 0x0 MSTORE PUSH1 0x20 PUSH1 0x0 KECCAK256 SWAP1 PUSH1 0xC MUL ADD PUSH1 0xA ADD PUSH1 0x0 DUP3 DUP3 SLOAD PUSH2 0x676 SWAP2 SWAP1 PUSH2 0xD94 JUMP JUMPDEST SWAP3 POP POP DUP2 SWAP1 SSTORE POP PUSH2 0x6CA JUMP JUMPDEST DUP1 PUSH1 0x0 ADD SLOAD PUSH1 0x2 PUSH2 0x691 PUSH2 0x71A JUMP JUMPDEST DUP2 SLOAD DUP2 LT PUSH2 0x6A2 JUMPI PUSH2 0x6A1 PUSH2 0xF8D JUMP JUMPDEST JUMPDEST SWAP1 PUSH1 0x0 MSTORE PUSH1 0x20 PUSH1 0x0 KECCAK256 SWAP1 PUSH1 0xC MUL ADD PUSH1 0xB ADD PUSH1 0x0 DUP3 DUP3 SLOAD PUSH2 0x6C2 SWAP2 SWAP1 PUSH2 0xD94 JUMP JUMPDEST SWAP3 POP POP DUP2 SWAP1 SSTORE POP JUMPDEST JUMPDEST JUMPDEST JUMPDEST JUMPDEST JUMPDEST JUMPDEST JUMPDEST JUMPDEST PUSH2 0x6DA PUSH2 0x8F5 JUMP JUMPDEST POP JUMP JUMPDEST PUSH1 0x1 PUSH1 0x20 MSTORE DUP1 PUSH1 0x0 MSTORE PUSH1 0x40 PUSH1 0x0 KECCAK256 PUSH1 0x0 SWAP2 POP SWAP1 POP DUP1 PUSH1 0x0 ADD SLOAD SWAP1 DUP1 PUSH1 0x1 ADD PUSH1 0x0 SWAP1 SLOAD SWAP1 PUSH2 0x100 EXP SWAP1 DIV PUSH1 0xFF AND SWAP1 DUP1 PUSH1 0x2 ADD SLOAD SWAP1 DUP1 PUSH1 0x3 ADD SLOAD SWAP1 POP DUP5 JUMP JUMPDEST PUSH1 0x0 PUSH1 0x5 TIMESTAMP DIFFICULTY CALLER PUSH1 0x40 MLOAD PUSH1 0x20 ADD PUSH2 0x733 SWAP4 SWAP3 SWAP2 SWAP1 PUSH2 0xBD4 JUMP JUMPDEST PUSH1 0x40 MLOAD PUSH1 0x20 DUP2 DUP4 SUB SUB DUP2 MSTORE SWAP1 PUSH1 0x40 MSTORE DUP1 MLOAD SWAP1 PUSH1 0x20 ADD KECCAK256 PUSH1 0x0 SHR PUSH2 0x756 SWAP2 SWAP1 PUSH2 0xECF JUMP JUMPDEST SWAP1 POP SWAP1 JUMP JUMPDEST PUSH2 0x763 PUSH2 0x911 JUMP JUMPDEST PUSH1 0x2 DUP3 DUP2 SLOAD DUP2 LT PUSH2 0x777 JUMPI PUSH2 0x776 PUSH2 0xF8D JUMP JUMPDEST JUMPDEST SWAP1 PUSH1 0x0 MSTORE PUSH1 0x20 PUSH1 0x0 KECCAK256 SWAP1 PUSH1 0xC MUL ADD PUSH1 0x40 MLOAD DUP1 PUSH2 0x180 ADD PUSH1 0x40 MSTORE SWAP1 DUP2 PUSH1 0x0 DUP3 ADD DUP1 SLOAD PUSH2 0x7A1 SWAP1 PUSH2 0xE6F JUMP JUMPDEST DUP1 PUSH1 0x1F ADD PUSH1 0x20 DUP1 SWAP2 DIV MUL PUSH1 0x20 ADD PUSH1 0x40 MLOAD SWAP1 DUP2 ADD PUSH1 0x40 MSTORE DUP1 SWAP3 SWAP2 SWAP1 DUP2 DUP2 MSTORE PUSH1 0x20 ADD DUP3 DUP1 SLOAD PUSH2 0x7CD SWAP1 PUSH2 0xE6F JUMP JUMPDEST DUP1 ISZERO PUSH2 0x81A JUMPI DUP1 PUSH1 0x1F LT PUSH2 0x7EF JUMPI PUSH2 0x100 DUP1 DUP4 SLOAD DIV MUL DUP4 MSTORE SWAP2 PUSH1 0x20 ADD SWAP2 PUSH2 0x81A JUMP JUMPDEST DUP3 ADD SWAP2 SWAP1 PUSH1 0x0 MSTORE PUSH1 0x20 PUSH1 0x0 KECCAK256 SWAP1 JUMPDEST DUP2 SLOAD DUP2 MSTORE SWAP1 PUSH1 0x1 ADD SWAP1 PUSH1 0x20 ADD DUP1 DUP4 GT PUSH2 0x7FD JUMPI DUP3 SWAP1 SUB PUSH1 0x1F AND DUP3 ADD SWAP2 JUMPDEST POP POP POP POP POP DUP2 MSTORE PUSH1 0x20 ADD PUSH1 0x1 DUP3 ADD SLOAD DUP2 MSTORE PUSH1 0x20 ADD PUSH1 0x2 DUP3 ADD SLOAD DUP2 MSTORE PUSH1 0x20 ADD PUSH1 0x3 DUP3 ADD SLOAD DUP2 MSTORE PUSH1 0x20 ADD PUSH1 0x4 DUP3 ADD SLOAD DUP2 MSTORE PUSH1 0x20 ADD PUSH1 0x5 DUP3 ADD SLOAD DUP2 MSTORE PUSH1 0x20 ADD PUSH1 0x6 DUP3 ADD SLOAD DUP2 MSTORE PUSH1 0x20 ADD PUSH1 0x7 DUP3 ADD SLOAD DUP2 MSTORE PUSH1 0x20 ADD PUSH1 0x8 DUP3 ADD SLOAD DUP2 MSTORE PUSH1 0x20 ADD PUSH1 0x9 DUP3 ADD SLOAD DUP2 MSTORE PUSH1 0x20 ADD PUSH1 0xA DUP3 ADD SLOAD DUP2 MSTORE PUSH1 0x20 ADD PUSH1 0xB DUP3 ADD SLOAD DUP2 MSTORE POP POP SWAP1 POP SWAP2 SWAP1 POP JUMP JUMPDEST PUSH1 0x1 PUSH1 0x3 PUSH1 0x0 DUP3 DUP3 SLOAD PUSH2 0x8AB SWAP2 SWAP1 PUSH2 0xD00 JUMP JUMPDEST SWAP3 POP POP DUP2 SWAP1 SSTORE POP JUMP JUMPDEST PUSH1 0x0 PUSH1 0xA TIMESTAMP DIFFICULTY CALLER PUSH1 0x40 MLOAD PUSH1 0x20 ADD PUSH2 0x8CD SWAP4 SWAP3 SWAP2 SWAP1 PUSH2 0xBD4 JUMP JUMPDEST PUSH1 0x40 MLOAD PUSH1 0x20 DUP2 DUP4 SUB SUB DUP2 MSTORE SWAP1 PUSH1 0x40 MSTORE DUP1 MLOAD SWAP1 PUSH1 0x20 ADD KECCAK256 PUSH1 0x0 SHR PUSH2 0x8F0 SWAP2 SWAP1 PUSH2 0xECF JUMP JUMPDEST SWAP1 POP SWAP1 JUMP JUMPDEST PUSH1 0x1 PUSH1 0x4 PUSH1 0x0 DUP3 DUP3 SLOAD PUSH2 0x908 SWAP2 SWAP1 PUSH2 0xD00 JUMP JUMPDEST SWAP3 POP POP DUP2 SWAP1 SSTORE POP JUMP JUMPDEST PUSH1 0x40 MLOAD DUP1 PUSH2 0x180 ADD PUSH1 0x40 MSTORE DUP1 PUSH1 0x60 DUP2 MSTORE PUSH1 0x20 ADD PUSH1 0x0 DUP2 MSTORE PUSH1 0x20 ADD PUSH1 0x0 DUP2 MSTORE PUSH1 0x20 ADD PUSH1 0x0 DUP2 MSTORE PUSH1 0x20 ADD PUSH1 0x0 DUP2 MSTORE PUSH1 0x20 ADD PUSH1 0x0 DUP2 MSTORE PUSH1 0x20 ADD PUSH1 0x0 DUP2 MSTORE PUSH1 0x20 ADD PUSH1 0x0 DUP2 MSTORE PUSH1 0x20 ADD PUSH1 0x0 DUP2 MSTORE PUSH1 0x20 ADD PUSH1 0x0 DUP2 MSTORE PUSH1 0x20 ADD PUSH1 0x0 DUP2 MSTORE PUSH1 0x20 ADD PUSH1 0x0 DUP2 MSTORE POP SWAP1 JUMP JUMPDEST PUSH1 0x0 DUP2 CALLDATALOAD SWAP1 POP PUSH2 0x981 DUP2 PUSH2 0x1031 JUMP JUMPDEST SWAP3 SWAP2 POP POP JUMP JUMPDEST PUSH1 0x0 DUP2 CALLDATALOAD SWAP1 POP PUSH2 0x996 DUP2 PUSH2 0x1048 JUMP JUMPDEST SWAP3 SWAP2 POP POP JUMP JUMPDEST PUSH1 0x0 PUSH1 0x20 DUP3 DUP5 SUB SLT ISZERO PUSH2 0x9B2 JUMPI PUSH2 0x9B1 PUSH2 0xFBC JUMP JUMPDEST JUMPDEST PUSH1 0x0 PUSH2 0x9C0 DUP5 DUP3 DUP6 ADD PUSH2 0x972 JUMP JUMPDEST SWAP2 POP POP SWAP3 SWAP2 POP POP JUMP JUMPDEST PUSH1 0x0 PUSH1 0x20 DUP3 DUP5 SUB SLT ISZERO PUSH2 0x9DF JUMPI PUSH2 0x9DE PUSH2 0xFBC JUMP JUMPDEST JUMPDEST PUSH1 0x0 PUSH2 0x9ED DUP5 DUP3 DUP6 ADD PUSH2 0x987 JUMP JUMPDEST SWAP2 POP POP SWAP3 SWAP2 POP POP JUMP JUMPDEST PUSH2 0xA07 PUSH2 0xA02 DUP3 PUSH2 0xDEA JUMP JUMPDEST PUSH2 0xEA1 JUMP JUMPDEST DUP3 MSTORE POP POP JUMP JUMPDEST PUSH2 0xA16 DUP2 PUSH2 0xDFC JUMP JUMPDEST DUP3 MSTORE POP POP JUMP JUMPDEST PUSH1 0x0 PUSH2 0xA27 DUP3 PUSH2 0xCD3 JUMP JUMPDEST PUSH2 0xA31 DUP2 DUP6 PUSH2 0xCDE JUMP JUMPDEST SWAP4 POP PUSH2 0xA41 DUP2 DUP6 PUSH1 0x20 DUP7 ADD PUSH2 0xE3C JUMP JUMPDEST PUSH2 0xA4A DUP2 PUSH2 0xFC1 JUMP JUMPDEST DUP5 ADD SWAP2 POP POP SWAP3 SWAP2 POP POP JUMP JUMPDEST PUSH1 0x0 PUSH2 0xA62 PUSH1 0xE DUP4 PUSH2 0xCEF JUMP JUMPDEST SWAP2 POP PUSH2 0xA6D DUP3 PUSH2 0xFDF JUMP JUMPDEST PUSH1 0x20 DUP3 ADD SWAP1 POP SWAP2 SWAP1 POP JUMP JUMPDEST PUSH1 0x0 PUSH2 0xA85 PUSH1 0x18 DUP4 PUSH2 0xCEF JUMP JUMPDEST SWAP2 POP PUSH2 0xA90 DUP3 PUSH2 0x1008 JUMP JUMPDEST PUSH1 0x20 DUP3 ADD SWAP1 POP SWAP2 SWAP1 POP JUMP JUMPDEST PUSH1 0x0 PUSH2 0x180 DUP4 ADD PUSH1 0x0 DUP4 ADD MLOAD DUP5 DUP3 SUB PUSH1 0x0 DUP7 ADD MSTORE PUSH2 0xAB9 DUP3 DUP3 PUSH2 0xA1C JUMP JUMPDEST SWAP2 POP POP PUSH1 0x20 DUP4 ADD MLOAD PUSH2 0xACE PUSH1 0x20 DUP7 ADD DUP3 PUSH2 0xB9F JUMP JUMPDEST POP PUSH1 0x40 DUP4 ADD MLOAD PUSH2 0xAE1 PUSH1 0x40 DUP7 ADD DUP3 PUSH2 0xB9F JUMP JUMPDEST POP PUSH1 0x60 DUP4 ADD MLOAD PUSH2 0xAF4 PUSH1 0x60 DUP7 ADD DUP3 PUSH2 0xB9F JUMP JUMPDEST POP PUSH1 0x80 DUP4 ADD MLOAD PUSH2 0xB07 PUSH1 0x80 DUP7 ADD DUP3 PUSH2 0xB9F JUMP JUMPDEST POP PUSH1 0xA0 DUP4 ADD MLOAD PUSH2 0xB1A PUSH1 0xA0 DUP7 ADD DUP3 PUSH2 0xB9F JUMP JUMPDEST POP PUSH1 0xC0 DUP4 ADD MLOAD PUSH2 0xB2D PUSH1 0xC0 DUP7 ADD DUP3 PUSH2 0xB9F JUMP JUMPDEST POP PUSH1 0xE0 DUP4 ADD MLOAD PUSH2 0xB40 PUSH1 0xE0 DUP7 ADD DUP3 PUSH2 0xB9F JUMP JUMPDEST POP PUSH2 0x100 DUP4 ADD MLOAD PUSH2 0xB55 PUSH2 0x100 DUP7 ADD DUP3 PUSH2 0xB9F JUMP JUMPDEST POP PUSH2 0x120 DUP4 ADD MLOAD PUSH2 0xB6A PUSH2 0x120 DUP7 ADD DUP3 PUSH2 0xB9F JUMP JUMPDEST POP PUSH2 0x140 DUP4 ADD MLOAD PUSH2 0xB7F PUSH2 0x140 DUP7 ADD DUP3 PUSH2 0xB9F JUMP JUMPDEST POP PUSH2 0x160 DUP4 ADD MLOAD PUSH2 0xB94 PUSH2 0x160 DUP7 ADD DUP3 PUSH2 0xB9F JUMP JUMPDEST POP DUP1 SWAP2 POP POP SWAP3 SWAP2 POP POP JUMP JUMPDEST PUSH2 0xBA8 DUP2 PUSH2 0xE32 JUMP JUMPDEST DUP3 MSTORE POP POP JUMP JUMPDEST PUSH2 0xBB7 DUP2 PUSH2 0xE32 JUMP JUMPDEST DUP3 MSTORE POP POP JUMP JUMPDEST PUSH2 0xBCE PUSH2 0xBC9 DUP3 PUSH2 0xE32 JUMP JUMPDEST PUSH2 0xEC5 JUMP JUMPDEST DUP3 MSTORE POP POP JUMP JUMPDEST PUSH1 0x0 PUSH2 0xBE0 DUP3 DUP7 PUSH2 0xBBD JUMP JUMPDEST PUSH1 0x20 DUP3 ADD SWAP2 POP PUSH2 0xBF0 DUP3 DUP6 PUSH2 0xBBD JUMP JUMPDEST PUSH1 0x20 DUP3 ADD SWAP2 POP PUSH2 0xC00 DUP3 DUP5 PUSH2 0x9F6 JUMP JUMPDEST PUSH1 0x14 DUP3 ADD SWAP2 POP DUP2 SWAP1 POP SWAP5 SWAP4 POP POP POP POP JUMP JUMPDEST PUSH1 0x0 PUSH1 0x20 DUP3 ADD SWAP1 POP DUP2 DUP2 SUB PUSH1 0x0 DUP4 ADD MSTORE PUSH2 0xC2A DUP2 PUSH2 0xA55 JUMP JUMPDEST SWAP1 POP SWAP2 SWAP1 POP JUMP JUMPDEST PUSH1 0x0 PUSH1 0x20 DUP3 ADD SWAP1 POP DUP2 DUP2 SUB PUSH1 0x0 DUP4 ADD MSTORE PUSH2 0xC4A DUP2 PUSH2 0xA78 JUMP JUMPDEST SWAP1 POP SWAP2 SWAP1 POP JUMP JUMPDEST PUSH1 0x0 PUSH1 0x20 DUP3 ADD SWAP1 POP DUP2 DUP2 SUB PUSH1 0x0 DUP4 ADD MSTORE PUSH2 0xC6B DUP2 DUP5 PUSH2 0xA9B JUMP JUMPDEST SWAP1 POP SWAP3 SWAP2 POP POP JUMP JUMPDEST PUSH1 0x0 PUSH1 0x20 DUP3 ADD SWAP1 POP PUSH2 0xC88 PUSH1 0x0 DUP4 ADD DUP5 PUSH2 0xBAE JUMP JUMPDEST SWAP3 SWAP2 POP POP JUMP JUMPDEST PUSH1 0x0 PUSH1 0x80 DUP3 ADD SWAP1 POP PUSH2 0xCA3 PUSH1 0x0 DUP4 ADD DUP8 PUSH2 0xBAE JUMP JUMPDEST PUSH2 0xCB0 PUSH1 0x20 DUP4 ADD DUP7 PUSH2 0xA0D JUMP JUMPDEST PUSH2 0xCBD PUSH1 0x40 DUP4 ADD DUP6 PUSH2 0xBAE JUMP JUMPDEST PUSH2 0xCCA PUSH1 0x60 DUP4 ADD DUP5 PUSH2 0xBAE JUMP JUMPDEST SWAP6 SWAP5 POP POP POP POP POP JUMP JUMPDEST PUSH1 0x0 DUP2 MLOAD SWAP1 POP SWAP2 SWAP1 POP JUMP JUMPDEST PUSH1 0x0 DUP3 DUP3 MSTORE PUSH1 0x20 DUP3 ADD SWAP1 POP SWAP3 SWAP2 POP POP JUMP JUMPDEST PUSH1 0x0 DUP3 DUP3 MSTORE PUSH1 0x20 DUP3 ADD SWAP1 POP SWAP3 SWAP2 POP POP JUMP JUMPDEST PUSH1 0x0 PUSH2 0xD0B DUP3 PUSH2 0xE08 JUMP JUMPDEST SWAP2 POP PUSH2 0xD16 DUP4 PUSH2 0xE08 JUMP JUMPDEST SWAP3 POP DUP2 PUSH32 0x7FFFFFFFFFFFFFFFFFFFFFFFFFFFFFFFFFFFFFFFFFFFFFFFFFFFFFFFFFFFFFFF SUB DUP4 SGT PUSH1 0x0 DUP4 SLT ISZERO AND ISZERO PUSH2 0xD51 JUMPI PUSH2 0xD50 PUSH2 0xF00 JUMP JUMPDEST JUMPDEST DUP2 PUSH32 0x8000000000000000000000000000000000000000000000000000000000000000 SUB DUP4 SLT PUSH1 0x0 DUP4 SLT AND ISZERO PUSH2 0xD89 JUMPI PUSH2 0xD88 PUSH2 0xF00 JUMP JUMPDEST JUMPDEST DUP3 DUP3 ADD SWAP1 POP SWAP3 SWAP2 POP POP JUMP JUMPDEST PUSH1 0x0 PUSH2 0xD9F DUP3 PUSH2 0xE32 JUMP JUMPDEST SWAP2 POP PUSH2 0xDAA DUP4 PUSH2 0xE32 JUMP JUMPDEST SWAP3 POP DUP3 PUSH32 0xFFFFFFFFFFFFFFFFFFFFFFFFFFFFFFFFFFFFFFFFFFFFFFFFFFFFFFFFFFFFFFFF SUB DUP3 GT ISZERO PUSH2 0xDDF JUMPI PUSH2 0xDDE PUSH2 0xF00 JUMP JUMPDEST JUMPDEST DUP3 DUP3 ADD SWAP1 POP SWAP3 SWAP2 POP POP JUMP JUMPDEST PUSH1 0x0 PUSH2 0xDF5 DUP3 PUSH2 0xE12 JUMP JUMPDEST SWAP1 POP SWAP2 SWAP1 POP JUMP JUMPDEST PUSH1 0x0 DUP2 ISZERO ISZERO SWAP1 POP SWAP2 SWAP1 POP JUMP JUMPDEST PUSH1 0x0 DUP2 SWAP1 POP SWAP2 SWAP1 POP JUMP JUMPDEST PUSH1 0x0 PUSH20 0xFFFFFFFFFFFFFFFFFFFFFFFFFFFFFFFFFFFFFFFF DUP3 AND SWAP1 POP SWAP2 SWAP1 POP JUMP JUMPDEST PUSH1 0x0 DUP2 SWAP1 POP SWAP2 SWAP1 POP JUMP JUMPDEST PUSH1 0x0 JUMPDEST DUP4 DUP2 LT ISZERO PUSH2 0xE5A JUMPI DUP1 DUP3 ADD MLOAD DUP2 DUP5 ADD MSTORE PUSH1 0x20 DUP2 ADD SWAP1 POP PUSH2 0xE3F JUMP JUMPDEST DUP4 DUP2 GT ISZERO PUSH2 0xE69 JUMPI PUSH1 0x0 DUP5 DUP5 ADD MSTORE JUMPDEST POP POP POP POP JUMP JUMPDEST PUSH1 0x0 PUSH1 0x2 DUP3 DIV SWAP1 POP PUSH1 0x1 DUP3 AND DUP1 PUSH2 0xE87 JUMPI PUSH1 0x7F DUP3 AND SWAP2 POP JUMPDEST PUSH1 0x20 DUP3 LT DUP2 EQ ISZERO PUSH2 0xE9B JUMPI PUSH2 0xE9A PUSH2 0xF5E JUMP JUMPDEST JUMPDEST POP SWAP2 SWAP1 POP JUMP JUMPDEST PUSH1 0x0 PUSH2 0xEAC DUP3 PUSH2 0xEB3 JUMP JUMPDEST SWAP1 POP SWAP2 SWAP1 POP JUMP JUMPDEST PUSH1 0x0 PUSH2 0xEBE DUP3 PUSH2 0xFD2 JUMP JUMPDEST SWAP1 POP SWAP2 SWAP1 POP JUMP JUMPDEST PUSH1 0x0 DUP2 SWAP1 POP SWAP2 SWAP1 POP JUMP JUMPDEST PUSH1 0x0 PUSH2 0xEDA DUP3 PUSH2 0xE32 JUMP JUMPDEST SWAP2 POP PUSH2 0xEE5 DUP4 PUSH2 0xE32 JUMP JUMPDEST SWAP3 POP DUP3 PUSH2 0xEF5 JUMPI PUSH2 0xEF4 PUSH2 0xF2F JUMP JUMPDEST JUMPDEST DUP3 DUP3 MOD SWAP1 POP SWAP3 SWAP2 POP POP JUMP JUMPDEST PUSH32 0x4E487B7100000000000000000000000000000000000000000000000000000000 PUSH1 0x0 MSTORE PUSH1 0x11 PUSH1 0x4 MSTORE PUSH1 0x24 PUSH1 0x0 REVERT JUMPDEST PUSH32 0x4E487B7100000000000000000000000000000000000000000000000000000000 PUSH1 0x0 MSTORE PUSH1 0x12 PUSH1 0x4 MSTORE PUSH1 0x24 PUSH1 0x0 REVERT JUMPDEST PUSH32 0x4E487B7100000000000000000000000000000000000000000000000000000000 PUSH1 0x0 MSTORE PUSH1 0x22 PUSH1 0x4 MSTORE PUSH1 0x24 PUSH1 0x0 REVERT JUMPDEST PUSH32 0x4E487B7100000000000000000000000000000000000000000000000000000000 PUSH1 0x0 MSTORE PUSH1 0x32 PUSH1 0x4 MSTORE PUSH1 0x24 PUSH1 0x0 REVERT JUMPDEST PUSH1 0x0 DUP1 REVERT JUMPDEST PUSH1 0x0 PUSH1 0x1F NOT PUSH1 0x1F DUP4 ADD AND SWAP1 POP SWAP2 SWAP1 POP JUMP JUMPDEST PUSH1 0x0 DUP2 PUSH1 0x60 SHL SWAP1 POP SWAP2 SWAP1 POP JUMP JUMPDEST PUSH32 0x416C726561647920766F7465642E000000000000000000000000000000000000 PUSH1 0x0 DUP3 ADD MSTORE POP JUMP JUMPDEST PUSH32 0x54686520766F74657220616C726561647920766F7465642E0000000000000000 PUSH1 0x0 DUP3 ADD MSTORE POP JUMP JUMPDEST PUSH2 0x103A DUP2 PUSH2 0xDEA JUMP JUMPDEST DUP2 EQ PUSH2 0x1045 JUMPI PUSH1 0x0 DUP1 REVERT JUMPDEST POP JUMP JUMPDEST PUSH2 0x1051 DUP2 PUSH2 0xE32 JUMP JUMPDEST DUP2 EQ PUSH2 0x105C JUMPI PUSH1 0x0 DUP1 REVERT JUMPDEST POP JUMP INVALID LOG2 PUSH5 0x6970667358 0x22 SLT KECCAK256 PUSH24 0xE4A08FDDF25AECC91D22633196CFEAB762A52C47D431343A DUP4 0x23 PUSH25 0xF7B3A5E264736F6C6343000807003300000000000000000000 "
				},
				"gasEstimates": {
					"creation": {
						"codeDepositCost": "849000",
						"executionCost": "infinite",
						"totalCost": "infinite"
					},
					"external": {
						"random_vote()": "infinite",
						"res(uint256)": "infinite",
						"vote()": "infinite",
						"voters(address)": "infinite"
					},
					"internal": {
						"incrementCounter()": "infinite",
						"incrementCounter2()": "infinite",
						"random_district()": "infinite"
					}
				},
				"methodIdentifiers": {
					"random_vote()": "cfa1f037",
					"res(uint256)": "d4e8fd2e",
					"vote()": "632a9a52",
					"voters(address)": "a3ec138d"
				}
			},
			"storageLayout": {
				"storage": [
					{
						"astId": 38,
						"contract": "smartContract/contracts/3_Ballot.sol:Ballot",
						"label": "chairperson",
						"offset": 0,
						"slot": "0",
						"type": "t_address"
					},
					{
						"astId": 43,
						"contract": "smartContract/contracts/3_Ballot.sol:Ballot",
						"label": "voters",
						"offset": 0,
						"slot": "1",
						"type": "t_mapping(t_address,t_struct(Voter)11_storage)"
					},
					{
						"astId": 47,
						"contract": "smartContract/contracts/3_Ballot.sol:Ballot",
						"label": "proposals",
						"offset": 0,
						"slot": "2",
						"type": "t_array(t_struct(Proposal)36_storage)dyn_storage"
					},
					{
						"astId": 144,
						"contract": "smartContract/contracts/3_Ballot.sol:Ballot",
						"label": "count",
						"offset": 0,
						"slot": "3",
						"type": "t_int256"
					},
					{
						"astId": 155,
						"contract": "smartContract/contracts/3_Ballot.sol:Ballot",
						"label": "count2",
						"offset": 0,
						"slot": "4",
						"type": "t_int256"
					}
				],
				"types": {
					"t_address": {
						"encoding": "inplace",
						"label": "address",
						"numberOfBytes": "20"
					},
					"t_array(t_struct(Proposal)36_storage)dyn_storage": {
						"base": "t_struct(Proposal)36_storage",
						"encoding": "dynamic_array",
						"label": "struct Ballot.Proposal[]",
						"numberOfBytes": "32"
					},
					"t_bool": {
						"encoding": "inplace",
						"label": "bool",
						"numberOfBytes": "1"
					},
					"t_int256": {
						"encoding": "inplace",
						"label": "int256",
						"numberOfBytes": "32"
					},
					"t_mapping(t_address,t_struct(Voter)11_storage)": {
						"encoding": "mapping",
						"key": "t_address",
						"label": "mapping(address => struct Ballot.Voter)",
						"numberOfBytes": "32",
						"value": "t_struct(Voter)11_storage"
					},
					"t_string_storage": {
						"encoding": "bytes",
						"label": "string",
						"numberOfBytes": "32"
					},
					"t_struct(Proposal)36_storage": {
						"encoding": "inplace",
						"label": "struct Ballot.Proposal",
						"members": [
							{
								"astId": 13,
								"contract": "smartContract/contracts/3_Ballot.sol:Ballot",
								"label": "name",
								"offset": 0,
								"slot": "0",
								"type": "t_string_storage"
							},
							{
								"astId": 15,
								"contract": "smartContract/contracts/3_Ballot.sol:Ballot",
								"label": "Total_Votes",
								"offset": 0,
								"slot": "1",
								"type": "t_uint256"
							},
							{
								"astId": 17,
								"contract": "smartContract/contracts/3_Ballot.sol:Ballot",
								"label": "Votes_District0",
								"offset": 0,
								"slot": "2",
								"type": "t_uint256"
							},
							{
								"astId": 19,
								"contract": "smartContract/contracts/3_Ballot.sol:Ballot",
								"label": "Votes_District1",
								"offset": 0,
								"slot": "3",
								"type": "t_uint256"
							},
							{
								"astId": 21,
								"contract": "smartContract/contracts/3_Ballot.sol:Ballot",
								"label": "Votes_District2",
								"offset": 0,
								"slot": "4",
								"type": "t_uint256"
							},
							{
								"astId": 23,
								"contract": "smartContract/contracts/3_Ballot.sol:Ballot",
								"label": "Votes_District3",
								"offset": 0,
								"slot": "5",
								"type": "t_uint256"
							},
							{
								"astId": 25,
								"contract": "smartContract/contracts/3_Ballot.sol:Ballot",
								"label": "Votes_District4",
								"offset": 0,
								"slot": "6",
								"type": "t_uint256"
							},
							{
								"astId": 27,
								"contract": "smartContract/contracts/3_Ballot.sol:Ballot",
								"label": "Votes_District5",
								"offset": 0,
								"slot": "7",
								"type": "t_uint256"
							},
							{
								"astId": 29,
								"contract": "smartContract/contracts/3_Ballot.sol:Ballot",
								"label": "Votes_District6",
								"offset": 0,
								"slot": "8",
								"type": "t_uint256"
							},
							{
								"astId": 31,
								"contract": "smartContract/contracts/3_Ballot.sol:Ballot",
								"label": "Votes_District7",
								"offset": 0,
								"slot": "9",
								"type": "t_uint256"
							},
							{
								"astId": 33,
								"contract": "smartContract/contracts/3_Ballot.sol:Ballot",
								"label": "Votes_District8",
								"offset": 0,
								"slot": "10",
								"type": "t_uint256"
							},
							{
								"astId": 35,
								"contract": "smartContract/contracts/3_Ballot.sol:Ballot",
								"label": "Votes_District9",
								"offset": 0,
								"slot": "11",
								"type": "t_uint256"
							}
						],
						"numberOfBytes": "384"
					},
					"t_struct(Voter)11_storage": {
						"encoding": "inplace",
						"label": "struct Ballot.Voter",
						"members": [
							{
								"astId": 4,
								"contract": "smartContract/contracts/3_Ballot.sol:Ballot",
								"label": "weight",
								"offset": 0,
								"slot": "0",
								"type": "t_uint256"
							},
							{
								"astId": 6,
								"contract": "smartContract/contracts/3_Ballot.sol:Ballot",
								"label": "voted",
								"offset": 0,
								"slot": "1",
								"type": "t_bool"
							},
							{
								"astId": 8,
								"contract": "smartContract/contracts/3_Ballot.sol:Ballot",
								"label": "district",
								"offset": 0,
								"slot": "2",
								"type": "t_uint256"
							},
							{
								"astId": 10,
								"contract": "smartContract/contracts/3_Ballot.sol:Ballot",
								"label": "vote",
								"offset": 0,
								"slot": "3",
								"type": "t_uint256"
							}
						],
						"numberOfBytes": "128"
					},
					"t_uint256": {
						"encoding": "inplace",
						"label": "uint256",
						"numberOfBytes": "32"
					}
				}
			},
			"userdoc": {
				"kind": "user",
				"methods": {},
				"version": 1
			}
		}
	}
}