{
	"smartContract/contracts/1_Ballot.sol": {
		"Ballot": {
			"abi": [
				{
					"inputs": [],
					"stateMutability": "nonpayable",
					"type": "constructor"
				},
				{
					"inputs": [],
					"name": "countV",
					"outputs": [
						{
							"internalType": "int256",
							"name": "",
							"type": "int256"
						}
					],
					"stateMutability": "view",
					"type": "function"
				},
				{
					"inputs": [
						{
							"internalType": "uint256",
							"name": "_id",
							"type": "uint256"
						}
					],
					"name": "res",
					"outputs": [
						{
							"components": [
								{
									"internalType": "string",
									"name": "name",
									"type": "string"
								},
								{
									"internalType": "uint256",
									"name": "Total_Votes",
									"type": "uint256"
								},
								{
									"internalType": "uint256",
									"name": "Votes_District0",
									"type": "uint256"
								},
								{
									"internalType": "uint256",
									"name": "Votes_District1",
									"type": "uint256"
								},
								{
									"internalType": "uint256",
									"name": "Votes_District2",
									"type": "uint256"
								},
								{
									"internalType": "uint256",
									"name": "Votes_District3",
									"type": "uint256"
								},
								{
									"internalType": "uint256",
									"name": "Votes_District4",
									"type": "uint256"
								},
								{
									"internalType": "uint256",
									"name": "Votes_District5",
									"type": "uint256"
								},
								{
									"internalType": "uint256",
									"name": "Votes_District6",
									"type": "uint256"
								},
								{
									"internalType": "uint256",
									"name": "Votes_District7",
									"type": "uint256"
								},
								{
									"internalType": "uint256",
									"name": "Votes_District8",
									"type": "uint256"
								},
								{
									"internalType": "uint256",
									"name": "Votes_District9",
									"type": "uint256"
								}
							],
							"internalType": "struct Ballot.Proposal",
							"name": "",
							"type": "tuple"
						}
					],
					"stateMutability": "view",
					"type": "function"
				},
				{
					"inputs": [],
					"name": "vote",
					"outputs": [],
					"stateMutability": "nonpayable",
					"type": "function"
				},
				{
					"inputs": [
						{
							"internalType": "address",
							"name": "",
							"type": "address"
						}
					],
					"name": "voters",
					"outputs": [
						{
							"internalType": "bool",
							"name": "voted",
							"type": "bool"
						},
						{
							"internalType": "uint256",
							"name": "district",
							"type": "uint256"
						},
						{
							"internalType": "uint256",
							"name": "vote",
							"type": "uint256"
						}
					],
					"stateMutability": "view",
					"type": "function"
				}
			],
			"devdoc": {
				"kind": "dev",
				"methods": {},
				"version": 1
			},
			"evm": {
				"assembly": "    /* \"smartContract/contracts/1_Ballot.sol\":71:3581  contract Ballot {... */\n  mstore(0x40, 0x80)\n    /* \"smartContract/contracts/1_Ballot.sol\":1585:1586  0 */\n  0x00\n    /* \"smartContract/contracts/1_Ballot.sol\":1565:1586  int public countV = 0 */\n  0x02\n  sstore\n    /* \"smartContract/contracts/1_Ballot.sol\":791:1519  constructor() {... */\n  callvalue\n  dup1\n  iszero\n  tag_1\n  jumpi\n  0x00\n  dup1\n  revert\ntag_1:\n  pop\n    /* \"smartContract/contracts/1_Ballot.sol\":837:867  string[5] memory proposalNames */\n  0x00\n    /* \"smartContract/contracts/1_Ballot.sol\":837:891  string[5] memory proposalNames = [\"a\",\"b\",\"c\",\"d\",\"e\"] */\n  mload(0x40)\n  dup1\n  0xa0\n  add\n  0x40\n  mstore\n  dup1\n  mload(0x40)\n  dup1\n  0x40\n  add\n  0x40\n  mstore\n  dup1\n  0x01\n  dup2\n  mstore\n  0x20\n  add\n  0x6100000000000000000000000000000000000000000000000000000000000000\n  dup2\n  mstore\n  pop\n  dup2\n  mstore\n  0x20\n  add\n  mload(0x40)\n  dup1\n  0x40\n  add\n  0x40\n  mstore\n  dup1\n  0x01\n  dup2\n  mstore\n  0x20\n  add\n  0x6200000000000000000000000000000000000000000000000000000000000000\n  dup2\n  mstore\n  pop\n  dup2\n  mstore\n  0x20\n  add\n  mload(0x40)\n  dup1\n  0x40\n  add\n  0x40\n  mstore\n  dup1\n  0x01\n  dup2\n  mstore\n  0x20\n  add\n  0x6300000000000000000000000000000000000000000000000000000000000000\n  dup2\n  mstore\n  pop\n  dup2\n  mstore\n  0x20\n  add\n  mload(0x40)\n  dup1\n  0x40\n  add\n  0x40\n  mstore\n  dup1\n  0x01\n  dup2\n  mstore\n  0x20\n  add\n  0x6400000000000000000000000000000000000000000000000000000000000000\n  dup2\n  mstore\n  pop\n  dup2\n  mstore\n  0x20\n  add\n  mload(0x40)\n  dup1\n  0x40\n  add\n  0x40\n  mstore\n  dup1\n  0x01\n  dup2\n  mstore\n  0x20\n  add\n  0x6500000000000000000000000000000000000000000000000000000000000000\n  dup2\n  mstore\n  pop\n  dup2\n  mstore\n  pop\n  swap1\n  pop\n    /* \"smartContract/contracts/1_Ballot.sol\":931:932  5 */\n  0x05\n    /* \"smartContract/contracts/1_Ballot.sol\":909:929  proposalNames.length */\n  dup1\n    /* \"smartContract/contracts/1_Ballot.sol\":909:932  proposalNames.length==5 */\n  eq\n    /* \"smartContract/contracts/1_Ballot.sol\":901:957  require(proposalNames.length==5,\"Candidates must be 5.\") */\n  tag_4\n  jumpi\n  mload(0x40)\n  0x08c379a000000000000000000000000000000000000000000000000000000000\n  dup2\n  mstore\n  0x04\n  add\n  tag_5\n  swap1\n  tag_6\n  jump\t// in\ntag_5:\n  mload(0x40)\n  dup1\n  swap2\n  sub\n  swap1\n  revert\ntag_4:\n    /* \"smartContract/contracts/1_Ballot.sol\":973:979  uint i */\n  0x00\n    /* \"smartContract/contracts/1_Ballot.sol\":968:1513  for (uint i = 0; i < proposalNames.length; i++) {... */\ntag_7:\n    /* \"smartContract/contracts/1_Ballot.sol\":989:1009  proposalNames.length */\n  0x05\n    /* \"smartContract/contracts/1_Ballot.sol\":985:986  i */\n  dup2\n    /* \"smartContract/contracts/1_Ballot.sol\":985:1009  i < proposalNames.length */\n  lt\n    /* \"smartContract/contracts/1_Ballot.sol\":968:1513  for (uint i = 0; i < proposalNames.length; i++) {... */\n  iszero\n  tag_8\n  jumpi\n    /* \"smartContract/contracts/1_Ballot.sol\":1030:1039  proposals */\n  0x01\n    /* \"smartContract/contracts/1_Ballot.sol\":1045:1501  Proposal({... */\n  mload(0x40)\n  dup1\n  0x0180\n  add\n  0x40\n  mstore\n  dup1\n    /* \"smartContract/contracts/1_Ballot.sol\":1078:1091  proposalNames */\n  dup5\n    /* \"smartContract/contracts/1_Ballot.sol\":1092:1093  i */\n  dup5\n    /* \"smartContract/contracts/1_Ballot.sol\":1078:1094  proposalNames[i] */\n  0x05\n  dup2\n  lt\n  tag_10\n  jumpi\n  tag_11\n  tag_12\n  jump\t// in\ntag_11:\ntag_10:\n  0x20\n  mul\n  add\n  mload\n    /* \"smartContract/contracts/1_Ballot.sol\":1045:1501  Proposal({... */\n  dup2\n  mstore\n  0x20\n  add\n    /* \"smartContract/contracts/1_Ballot.sol\":1125:1126  0 */\n  0x00\n    /* \"smartContract/contracts/1_Ballot.sol\":1045:1501  Proposal({... */\n  dup2\n  mstore\n  0x20\n  add\n    /* \"smartContract/contracts/1_Ballot.sol\":1161:1162  0 */\n  0x00\n    /* \"smartContract/contracts/1_Ballot.sol\":1045:1501  Proposal({... */\n  dup2\n  mstore\n  0x20\n  add\n    /* \"smartContract/contracts/1_Ballot.sol\":1197:1198  0 */\n  0x00\n    /* \"smartContract/contracts/1_Ballot.sol\":1045:1501  Proposal({... */\n  dup2\n  mstore\n  0x20\n  add\n    /* \"smartContract/contracts/1_Ballot.sol\":1233:1234  0 */\n  0x00\n    /* \"smartContract/contracts/1_Ballot.sol\":1045:1501  Proposal({... */\n  dup2\n  mstore\n  0x20\n  add\n    /* \"smartContract/contracts/1_Ballot.sol\":1269:1270  0 */\n  0x00\n    /* \"smartContract/contracts/1_Ballot.sol\":1045:1501  Proposal({... */\n  dup2\n  mstore\n  0x20\n  add\n    /* \"smartContract/contracts/1_Ballot.sol\":1305:1306  0 */\n  0x00\n    /* \"smartContract/contracts/1_Ballot.sol\":1045:1501  Proposal({... */\n  dup2\n  mstore\n  0x20\n  add\n    /* \"smartContract/contracts/1_Ballot.sol\":1341:1342  0 */\n  0x00\n    /* \"smartContract/contracts/1_Ballot.sol\":1045:1501  Proposal({... */\n  dup2\n  mstore\n  0x20\n  add\n    /* \"smartContract/contracts/1_Ballot.sol\":1377:1378  0 */\n  0x00\n    /* \"smartContract/contracts/1_Ballot.sol\":1045:1501  Proposal({... */\n  dup2\n  mstore\n  0x20\n  add\n    /* \"smartContract/contracts/1_Ballot.sol\":1413:1414  0 */\n  0x00\n    /* \"smartContract/contracts/1_Ballot.sol\":1045:1501  Proposal({... */\n  dup2\n  mstore\n  0x20\n  add\n    /* \"smartContract/contracts/1_Ballot.sol\":1449:1450  0 */\n  0x00\n    /* \"smartContract/contracts/1_Ballot.sol\":1045:1501  Proposal({... */\n  dup2\n  mstore\n  0x20\n  add\n    /* \"smartContract/contracts/1_Ballot.sol\":1485:1486  0 */\n  0x00\n    /* \"smartContract/contracts/1_Ballot.sol\":1045:1501  Proposal({... */\n  dup2\n  mstore\n  pop\n    /* \"smartContract/contracts/1_Ballot.sol\":1030:1502  proposals.push(Proposal({... */\n  swap1\n  dup1\n  0x01\n  dup2\n  sload\n  add\n  dup1\n  dup3\n  sstore\n  dup1\n  swap2\n  pop\n  pop\n  0x01\n  swap1\n  sub\n  swap1\n  0x00\n  mstore\n  keccak256(0x00, 0x20)\n  swap1\n  0x0c\n  mul\n  add\n  0x00\n  swap1\n  swap2\n  swap1\n  swap2\n  swap1\n  swap2\n  pop\n  0x00\n  dup3\n  add\n  mload\n  dup2\n  0x00\n  add\n  swap1\n  dup1\n  mload\n  swap1\n  0x20\n  add\n  swap1\n  tag_14\n  swap3\n  swap2\n  swap1\n  tag_15\n  jump\t// in\ntag_14:\n  pop\n  0x20\n  dup3\n  add\n  mload\n  dup2\n  0x01\n  add\n  sstore\n  0x40\n  dup3\n  add\n  mload\n  dup2\n  0x02\n  add\n  sstore\n  0x60\n  dup3\n  add\n  mload\n  dup2\n  0x03\n  add\n  sstore\n  0x80\n  dup3\n  add\n  mload\n  dup2\n  0x04\n  add\n  sstore\n  0xa0\n  dup3\n  add\n  mload\n  dup2\n  0x05\n  add\n  sstore\n  0xc0\n  dup3\n  add\n  mload\n  dup2\n  0x06\n  add\n  sstore\n  0xe0\n  dup3\n  add\n  mload\n  dup2\n  0x07\n  add\n  sstore\n  0x0100\n  dup3\n  add\n  mload\n  dup2\n  0x08\n  add\n  sstore\n  0x0120\n  dup3\n  add\n  mload\n  dup2\n  0x09\n  add\n  sstore\n  0x0140\n  dup3\n  add\n  mload\n  dup2\n  0x0a\n  add\n  sstore\n  0x0160\n  dup3\n  add\n  mload\n  dup2\n  0x0b\n  add\n  sstore\n  pop\n  pop\n    /* \"smartContract/contracts/1_Ballot.sol\":1011:1014  i++ */\n  dup1\n  dup1\n  tag_16\n  swap1\n  tag_17\n  jump\t// in\ntag_16:\n  swap2\n  pop\n  pop\n    /* \"smartContract/contracts/1_Ballot.sol\":968:1513  for (uint i = 0; i < proposalNames.length; i++) {... */\n  jump(tag_7)\ntag_8:\n  pop\n    /* \"smartContract/contracts/1_Ballot.sol\":805:1519  {... */\n  pop\n    /* \"smartContract/contracts/1_Ballot.sol\":71:3581  contract Ballot {... */\n  jump(tag_18)\ntag_15:\n  dup3\n  dup1\n  sload\n  tag_19\n  swap1\n  tag_20\n  jump\t// in\ntag_19:\n  swap1\n  0x00\n  mstore\n  keccak256(0x00, 0x20)\n  swap1\n  0x1f\n  add\n  0x20\n  swap1\n  div\n  dup2\n  add\n  swap3\n  dup3\n  tag_22\n  jumpi\n  0x00\n  dup6\n  sstore\n  jump(tag_21)\ntag_22:\n  dup3\n  0x1f\n  lt\n  tag_23\n  jumpi\n  dup1\n  mload\n  not(0xff)\n  and\n  dup4\n  dup1\n  add\n  or\n  dup6\n  sstore\n  jump(tag_21)\ntag_23:\n  dup3\n  dup1\n  add\n  0x01\n  add\n  dup6\n  sstore\n  dup3\n  iszero\n  tag_21\n  jumpi\n  swap2\n  dup3\n  add\ntag_24:\n  dup3\n  dup2\n  gt\n  iszero\n  tag_25\n  jumpi\n  dup3\n  mload\n  dup3\n  sstore\n  swap2\n  0x20\n  add\n  swap2\n  swap1\n  0x01\n  add\n  swap1\n  jump(tag_24)\ntag_25:\ntag_21:\n  pop\n  swap1\n  pop\n  tag_26\n  swap2\n  swap1\n  tag_27\n  jump\t// in\ntag_26:\n  pop\n  swap1\n  jump\t// out\ntag_27:\ntag_28:\n  dup1\n  dup3\n  gt\n  iszero\n  tag_29\n  jumpi\n  0x00\n  dup2\n  0x00\n  swap1\n  sstore\n  pop\n  0x01\n  add\n  jump(tag_28)\ntag_29:\n  pop\n  swap1\n  jump\t// out\n    /* \"#utility.yul\":7:373   */\ntag_31:\n    /* \"#utility.yul\":149:152   */\n  0x00\n    /* \"#utility.yul\":170:237   */\n  tag_33\n    /* \"#utility.yul\":234:236   */\n  0x15\n    /* \"#utility.yul\":229:232   */\n  dup4\n    /* \"#utility.yul\":170:237   */\n  tag_34\n  jump\t// in\ntag_33:\n    /* \"#utility.yul\":163:237   */\n  swap2\n  pop\n    /* \"#utility.yul\":246:339   */\n  tag_35\n    /* \"#utility.yul\":335:338   */\n  dup3\n    /* \"#utility.yul\":246:339   */\n  tag_36\n  jump\t// in\ntag_35:\n    /* \"#utility.yul\":364:366   */\n  0x20\n    /* \"#utility.yul\":359:362   */\n  dup3\n    /* \"#utility.yul\":355:367   */\n  add\n    /* \"#utility.yul\":348:367   */\n  swap1\n  pop\n    /* \"#utility.yul\":7:373   */\n  swap2\n  swap1\n  pop\n  jump\t// out\n    /* \"#utility.yul\":379:798   */\ntag_6:\n    /* \"#utility.yul\":545:549   */\n  0x00\n    /* \"#utility.yul\":583:585   */\n  0x20\n    /* \"#utility.yul\":572:581   */\n  dup3\n    /* \"#utility.yul\":568:586   */\n  add\n    /* \"#utility.yul\":560:586   */\n  swap1\n  pop\n    /* \"#utility.yul\":632:641   */\n  dup2\n    /* \"#utility.yul\":626:630   */\n  dup2\n    /* \"#utility.yul\":622:642   */\n  sub\n    /* \"#utility.yul\":618:619   */\n  0x00\n    /* \"#utility.yul\":607:616   */\n  dup4\n    /* \"#utility.yul\":603:620   */\n  add\n    /* \"#utility.yul\":596:643   */\n  mstore\n    /* \"#utility.yul\":660:791   */\n  tag_38\n    /* \"#utility.yul\":786:790   */\n  dup2\n    /* \"#utility.yul\":660:791   */\n  tag_31\n  jump\t// in\ntag_38:\n    /* \"#utility.yul\":652:791   */\n  swap1\n  pop\n    /* \"#utility.yul\":379:798   */\n  swap2\n  swap1\n  pop\n  jump\t// out\n    /* \"#utility.yul\":804:973   */\ntag_34:\n    /* \"#utility.yul\":888:899   */\n  0x00\n    /* \"#utility.yul\":922:928   */\n  dup3\n    /* \"#utility.yul\":917:920   */\n  dup3\n    /* \"#utility.yul\":910:929   */\n  mstore\n    /* \"#utility.yul\":962:966   */\n  0x20\n    /* \"#utility.yul\":957:960   */\n  dup3\n    /* \"#utility.yul\":953:967   */\n  add\n    /* \"#utility.yul\":938:967   */\n  swap1\n  pop\n    /* \"#utility.yul\":804:973   */\n  swap3\n  swap2\n  pop\n  pop\n  jump\t// out\n    /* \"#utility.yul\":979:1056   */\ntag_40:\n    /* \"#utility.yul\":1016:1023   */\n  0x00\n    /* \"#utility.yul\":1045:1050   */\n  dup2\n    /* \"#utility.yul\":1034:1050   */\n  swap1\n  pop\n    /* \"#utility.yul\":979:1056   */\n  swap2\n  swap1\n  pop\n  jump\t// out\n    /* \"#utility.yul\":1062:1382   */\ntag_20:\n    /* \"#utility.yul\":1106:1112   */\n  0x00\n    /* \"#utility.yul\":1143:1144   */\n  0x02\n    /* \"#utility.yul\":1137:1141   */\n  dup3\n    /* \"#utility.yul\":1133:1145   */\n  div\n    /* \"#utility.yul\":1123:1145   */\n  swap1\n  pop\n    /* \"#utility.yul\":1190:1191   */\n  0x01\n    /* \"#utility.yul\":1184:1188   */\n  dup3\n    /* \"#utility.yul\":1180:1192   */\n  and\n    /* \"#utility.yul\":1211:1229   */\n  dup1\n    /* \"#utility.yul\":1201:1282   */\n  tag_43\n  jumpi\n    /* \"#utility.yul\":1267:1271   */\n  0x7f\n    /* \"#utility.yul\":1259:1265   */\n  dup3\n    /* \"#utility.yul\":1255:1272   */\n  and\n    /* \"#utility.yul\":1245:1272   */\n  swap2\n  pop\n    /* \"#utility.yul\":1201:1282   */\ntag_43:\n    /* \"#utility.yul\":1329:1331   */\n  0x20\n    /* \"#utility.yul\":1321:1327   */\n  dup3\n    /* \"#utility.yul\":1318:1332   */\n  lt\n    /* \"#utility.yul\":1298:1316   */\n  dup2\n    /* \"#utility.yul\":1295:1333   */\n  eq\n    /* \"#utility.yul\":1292:1376   */\n  iszero\n  tag_44\n  jumpi\n    /* \"#utility.yul\":1348:1366   */\n  tag_45\n  tag_46\n  jump\t// in\ntag_45:\n    /* \"#utility.yul\":1292:1376   */\ntag_44:\n    /* \"#utility.yul\":1113:1382   */\n  pop\n    /* \"#utility.yul\":1062:1382   */\n  swap2\n  swap1\n  pop\n  jump\t// out\n    /* \"#utility.yul\":1388:1621   */\ntag_17:\n    /* \"#utility.yul\":1427:1430   */\n  0x00\n    /* \"#utility.yul\":1450:1474   */\n  tag_48\n    /* \"#utility.yul\":1468:1473   */\n  dup3\n    /* \"#utility.yul\":1450:1474   */\n  tag_40\n  jump\t// in\ntag_48:\n    /* \"#utility.yul\":1441:1474   */\n  swap2\n  pop\n    /* \"#utility.yul\":1496:1562   */\n  0xffffffffffffffffffffffffffffffffffffffffffffffffffffffffffffffff\n    /* \"#utility.yul\":1489:1494   */\n  dup3\n    /* \"#utility.yul\":1486:1563   */\n  eq\n    /* \"#utility.yul\":1483:1586   */\n  iszero\n  tag_49\n  jumpi\n    /* \"#utility.yul\":1566:1584   */\n  tag_50\n  tag_51\n  jump\t// in\ntag_50:\n    /* \"#utility.yul\":1483:1586   */\ntag_49:\n    /* \"#utility.yul\":1613:1614   */\n  0x01\n    /* \"#utility.yul\":1606:1611   */\n  dup3\n    /* \"#utility.yul\":1602:1615   */\n  add\n    /* \"#utility.yul\":1595:1615   */\n  swap1\n  pop\n    /* \"#utility.yul\":1388:1621   */\n  swap2\n  swap1\n  pop\n  jump\t// out\n    /* \"#utility.yul\":1627:1807   */\ntag_51:\n    /* \"#utility.yul\":1675:1752   */\n  0x4e487b7100000000000000000000000000000000000000000000000000000000\n    /* \"#utility.yul\":1672:1673   */\n  0x00\n    /* \"#utility.yul\":1665:1753   */\n  mstore\n    /* \"#utility.yul\":1772:1776   */\n  0x11\n    /* \"#utility.yul\":1769:1770   */\n  0x04\n    /* \"#utility.yul\":1762:1777   */\n  mstore\n    /* \"#utility.yul\":1796:1800   */\n  0x24\n    /* \"#utility.yul\":1793:1794   */\n  0x00\n    /* \"#utility.yul\":1786:1801   */\n  revert\n    /* \"#utility.yul\":1813:1993   */\ntag_46:\n    /* \"#utility.yul\":1861:1938   */\n  0x4e487b7100000000000000000000000000000000000000000000000000000000\n    /* \"#utility.yul\":1858:1859   */\n  0x00\n    /* \"#utility.yul\":1851:1939   */\n  mstore\n    /* \"#utility.yul\":1958:1962   */\n  0x22\n    /* \"#utility.yul\":1955:1956   */\n  0x04\n    /* \"#utility.yul\":1948:1963   */\n  mstore\n    /* \"#utility.yul\":1982:1986   */\n  0x24\n    /* \"#utility.yul\":1979:1980   */\n  0x00\n    /* \"#utility.yul\":1972:1987   */\n  revert\n    /* \"#utility.yul\":1999:2179   */\ntag_12:\n    /* \"#utility.yul\":2047:2124   */\n  0x4e487b7100000000000000000000000000000000000000000000000000000000\n    /* \"#utility.yul\":2044:2045   */\n  0x00\n    /* \"#utility.yul\":2037:2125   */\n  mstore\n    /* \"#utility.yul\":2144:2148   */\n  0x32\n    /* \"#utility.yul\":2141:2142   */\n  0x04\n    /* \"#utility.yul\":2134:2149   */\n  mstore\n    /* \"#utility.yul\":2168:2172   */\n  0x24\n    /* \"#utility.yul\":2165:2166   */\n  0x00\n    /* \"#utility.yul\":2158:2173   */\n  revert\n    /* \"#utility.yul\":2185:2356   */\ntag_36:\n    /* \"#utility.yul\":2325:2348   */\n  0x43616e64696461746573206d75737420626520352e0000000000000000000000\n    /* \"#utility.yul\":2321:2322   */\n  0x00\n    /* \"#utility.yul\":2313:2319   */\n  dup3\n    /* \"#utility.yul\":2309:2323   */\n  add\n    /* \"#utility.yul\":2302:2349   */\n  mstore\n    /* \"#utility.yul\":2185:2356   */\n  pop\n  jump\t// out\n    /* \"smartContract/contracts/1_Ballot.sol\":71:3581  contract Ballot {... */\ntag_18:\n  dataSize(sub_0)\n  dup1\n  dataOffset(sub_0)\n  0x00\n  codecopy\n  0x00\n  return\nstop\n\nsub_0: assembly {\n        /* \"smartContract/contracts/1_Ballot.sol\":71:3581  contract Ballot {... */\n      mstore(0x40, 0x80)\n      callvalue\n      dup1\n      iszero\n      tag_1\n      jumpi\n      0x00\n      dup1\n      revert\n    tag_1:\n      pop\n      jumpi(tag_2, lt(calldatasize, 0x04))\n      shr(0xe0, calldataload(0x00))\n      dup1\n      0x632a9a52\n      eq\n      tag_3\n      jumpi\n      dup1\n      0x6d8f3f10\n      eq\n      tag_4\n      jumpi\n      dup1\n      0xa3ec138d\n      eq\n      tag_5\n      jumpi\n      dup1\n      0xd4e8fd2e\n      eq\n      tag_6\n      jumpi\n    tag_2:\n      0x00\n      dup1\n      revert\n        /* \"smartContract/contracts/1_Ballot.sol\":2080:3475  function vote() public {... */\n    tag_3:\n      tag_7\n      tag_8\n      jump\t// in\n    tag_7:\n      stop\n        /* \"smartContract/contracts/1_Ballot.sol\":1565:1586  int public countV = 0 */\n    tag_4:\n      tag_9\n      tag_10\n      jump\t// in\n    tag_9:\n      mload(0x40)\n      tag_11\n      swap2\n      swap1\n      tag_12\n      jump\t// in\n    tag_11:\n      mload(0x40)\n      dup1\n      swap2\n      sub\n      swap1\n      return\n        /* \"smartContract/contracts/1_Ballot.sol\":686:725  mapping(address => Voter) public voters */\n    tag_5:\n      tag_13\n      0x04\n      dup1\n      calldatasize\n      sub\n      dup2\n      add\n      swap1\n      tag_14\n      swap2\n      swap1\n      tag_15\n      jump\t// in\n    tag_14:\n      tag_16\n      jump\t// in\n    tag_13:\n      mload(0x40)\n      tag_17\n      swap4\n      swap3\n      swap2\n      swap1\n      tag_18\n      jump\t// in\n    tag_17:\n      mload(0x40)\n      dup1\n      swap2\n      sub\n      swap1\n      return\n        /* \"smartContract/contracts/1_Ballot.sol\":3481:3578  function res(uint _id) public view returns(Proposal memory){... */\n    tag_6:\n      tag_19\n      0x04\n      dup1\n      calldatasize\n      sub\n      dup2\n      add\n      swap1\n      tag_20\n      swap2\n      swap1\n      tag_21\n      jump\t// in\n    tag_20:\n      tag_22\n      jump\t// in\n    tag_19:\n      mload(0x40)\n      tag_23\n      swap2\n      swap1\n      tag_24\n      jump\t// in\n    tag_23:\n      mload(0x40)\n      dup1\n      swap2\n      sub\n      swap1\n      return\n        /* \"smartContract/contracts/1_Ballot.sol\":2080:3475  function vote() public {... */\n    tag_8:\n        /* \"smartContract/contracts/1_Ballot.sol\":2146:2152  voters */\n      0x00\n        /* \"smartContract/contracts/1_Ballot.sol\":2146:2164  voters[msg.sender] */\n      dup1\n        /* \"smartContract/contracts/1_Ballot.sol\":2153:2163  msg.sender */\n      caller\n        /* \"smartContract/contracts/1_Ballot.sol\":2146:2164  voters[msg.sender] */\n      0xffffffffffffffffffffffffffffffffffffffff\n      and\n      0xffffffffffffffffffffffffffffffffffffffff\n      and\n      dup2\n      mstore\n      0x20\n      add\n      swap1\n      dup2\n      mstore\n      0x20\n      add\n      0x00\n      keccak256\n        /* \"smartContract/contracts/1_Ballot.sol\":2146:2170  voters[msg.sender].voted */\n      0x00\n      add\n      0x00\n      swap1\n      sload\n      swap1\n      0x0100\n      exp\n      swap1\n      div\n      0xff\n      and\n        /* \"smartContract/contracts/1_Ballot.sol\":2145:2170  !voters[msg.sender].voted */\n      iszero\n        /* \"smartContract/contracts/1_Ballot.sol\":2137:2199  require(!voters[msg.sender].voted, \"The voter already voted.\") */\n      tag_26\n      jumpi\n      mload(0x40)\n      0x08c379a000000000000000000000000000000000000000000000000000000000\n      dup2\n      mstore\n      0x04\n      add\n      tag_27\n      swap1\n      tag_28\n      jump\t// in\n    tag_27:\n      mload(0x40)\n      dup1\n      swap2\n      sub\n      swap1\n      revert\n    tag_26:\n        /* \"smartContract/contracts/1_Ballot.sol\":2224:2227  100 */\n      0x64\n        /* \"smartContract/contracts/1_Ballot.sol\":2217:2223  countV */\n      sload(0x02)\n        /* \"smartContract/contracts/1_Ballot.sol\":2217:2227  countV<100 */\n      slt\n        /* \"smartContract/contracts/1_Ballot.sol\":2209:2250  require(countV<100,\"Reached max voters.\") */\n      tag_29\n      jumpi\n      mload(0x40)\n      0x08c379a000000000000000000000000000000000000000000000000000000000\n      dup2\n      mstore\n      0x04\n      add\n      tag_30\n      swap1\n      tag_31\n      jump\t// in\n    tag_30:\n      mload(0x40)\n      dup1\n      swap2\n      sub\n      swap1\n      revert\n    tag_29:\n        /* \"smartContract/contracts/1_Ballot.sol\":2324:2341  random_district() */\n      tag_32\n        /* \"smartContract/contracts/1_Ballot.sol\":2324:2339  random_district */\n      tag_33\n        /* \"smartContract/contracts/1_Ballot.sol\":2324:2341  random_district() */\n      jump\t// in\n    tag_32:\n        /* \"smartContract/contracts/1_Ballot.sol\":2296:2302  voters */\n      0x00\n        /* \"smartContract/contracts/1_Ballot.sol\":2296:2314  voters[msg.sender] */\n      dup1\n        /* \"smartContract/contracts/1_Ballot.sol\":2303:2313  msg.sender */\n      caller\n        /* \"smartContract/contracts/1_Ballot.sol\":2296:2314  voters[msg.sender] */\n      0xffffffffffffffffffffffffffffffffffffffff\n      and\n      0xffffffffffffffffffffffffffffffffffffffff\n      and\n      dup2\n      mstore\n      0x20\n      add\n      swap1\n      dup2\n      mstore\n      0x20\n      add\n      0x00\n      keccak256\n        /* \"smartContract/contracts/1_Ballot.sol\":2296:2323  voters[msg.sender].district */\n      0x01\n      add\n        /* \"smartContract/contracts/1_Ballot.sol\":2296:2341  voters[msg.sender].district=random_district() */\n      dup2\n      swap1\n      sstore\n      pop\n        /* \"smartContract/contracts/1_Ballot.sol\":2352:2372  Voter storage sender */\n      0x00\n        /* \"smartContract/contracts/1_Ballot.sol\":2375:2381  voters */\n      dup1\n        /* \"smartContract/contracts/1_Ballot.sol\":2375:2393  voters[msg.sender] */\n      0x00\n        /* \"smartContract/contracts/1_Ballot.sol\":2382:2392  msg.sender */\n      caller\n        /* \"smartContract/contracts/1_Ballot.sol\":2375:2393  voters[msg.sender] */\n      0xffffffffffffffffffffffffffffffffffffffff\n      and\n      0xffffffffffffffffffffffffffffffffffffffff\n      and\n      dup2\n      mstore\n      0x20\n      add\n      swap1\n      dup2\n      mstore\n      0x20\n      add\n      0x00\n      keccak256\n        /* \"smartContract/contracts/1_Ballot.sol\":2352:2393  Voter storage sender = voters[msg.sender] */\n      swap1\n      pop\n        /* \"smartContract/contracts/1_Ballot.sol\":2412:2418  sender */\n      dup1\n        /* \"smartContract/contracts/1_Ballot.sol\":2412:2424  sender.voted */\n      0x00\n      add\n      0x00\n      swap1\n      sload\n      swap1\n      0x0100\n      exp\n      swap1\n      div\n      0xff\n      and\n        /* \"smartContract/contracts/1_Ballot.sol\":2411:2424  !sender.voted */\n      iszero\n        /* \"smartContract/contracts/1_Ballot.sol\":2403:2443  require(!sender.voted, \"Already voted.\") */\n      tag_34\n      jumpi\n      mload(0x40)\n      0x08c379a000000000000000000000000000000000000000000000000000000000\n      dup2\n      mstore\n      0x04\n      add\n      tag_35\n      swap1\n      tag_36\n      jump\t// in\n    tag_35:\n      mload(0x40)\n      dup1\n      swap2\n      sub\n      swap1\n      revert\n    tag_34:\n        /* \"smartContract/contracts/1_Ballot.sol\":2468:2472  true */\n      0x01\n        /* \"smartContract/contracts/1_Ballot.sol\":2453:2459  sender */\n      dup2\n        /* \"smartContract/contracts/1_Ballot.sol\":2453:2465  sender.voted */\n      0x00\n      add\n      0x00\n        /* \"smartContract/contracts/1_Ballot.sol\":2453:2472  sender.voted = true */\n      0x0100\n      exp\n      dup2\n      sload\n      dup2\n      0xff\n      mul\n      not\n      and\n      swap1\n      dup4\n      iszero\n      iszero\n      mul\n      or\n      swap1\n      sstore\n      pop\n        /* \"smartContract/contracts/1_Ballot.sol\":2528:2541  random_vote() */\n      tag_37\n        /* \"smartContract/contracts/1_Ballot.sol\":2528:2539  random_vote */\n      tag_38\n        /* \"smartContract/contracts/1_Ballot.sol\":2528:2541  random_vote() */\n      jump\t// in\n    tag_37:\n        /* \"smartContract/contracts/1_Ballot.sol\":2514:2520  sender */\n      dup2\n        /* \"smartContract/contracts/1_Ballot.sol\":2514:2525  sender.vote */\n      0x02\n      add\n        /* \"smartContract/contracts/1_Ballot.sol\":2514:2541  sender.vote = random_vote() */\n      dup2\n      swap1\n      sstore\n      pop\n        /* \"smartContract/contracts/1_Ballot.sol\":2594:2595  1 */\n      0x01\n        /* \"smartContract/contracts/1_Ballot.sol\":2584:2590  countV */\n      0x02\n      0x00\n        /* \"smartContract/contracts/1_Ballot.sol\":2584:2595  countV += 1 */\n      dup3\n      dup3\n      sload\n      tag_39\n      swap2\n      swap1\n      tag_40\n      jump\t// in\n    tag_39:\n      swap3\n      pop\n      pop\n      dup2\n      swap1\n      sstore\n      pop\n        /* \"smartContract/contracts/1_Ballot.sol\":2645:2646  1 */\n      0x01\n        /* \"smartContract/contracts/1_Ballot.sol\":2605:2614  proposals */\n      dup1\n        /* \"smartContract/contracts/1_Ballot.sol\":2615:2628  random_vote() */\n      tag_41\n        /* \"smartContract/contracts/1_Ballot.sol\":2615:2626  random_vote */\n      tag_38\n        /* \"smartContract/contracts/1_Ballot.sol\":2615:2628  random_vote() */\n      jump\t// in\n    tag_41:\n        /* \"smartContract/contracts/1_Ballot.sol\":2605:2629  proposals[random_vote()] */\n      dup2\n      sload\n      dup2\n      lt\n      tag_42\n      jumpi\n      tag_43\n      tag_44\n      jump\t// in\n    tag_43:\n    tag_42:\n      swap1\n      0x00\n      mstore\n      keccak256(0x00, 0x20)\n      swap1\n      0x0c\n      mul\n      add\n        /* \"smartContract/contracts/1_Ballot.sol\":2605:2641  proposals[random_vote()].Total_Votes */\n      0x01\n      add\n      0x00\n        /* \"smartContract/contracts/1_Ballot.sol\":2605:2646  proposals[random_vote()].Total_Votes += 1 */\n      dup3\n      dup3\n      sload\n      tag_46\n      swap2\n      swap1\n      tag_47\n      jump\t// in\n    tag_46:\n      swap3\n      pop\n      pop\n      dup2\n      swap1\n      sstore\n      pop\n        /* \"smartContract/contracts/1_Ballot.sol\":2677:2678  0 */\n      0x00\n        /* \"smartContract/contracts/1_Ballot.sol\":2660:2666  sender */\n      dup2\n        /* \"smartContract/contracts/1_Ballot.sol\":2660:2675  sender.district */\n      0x01\n      add\n      sload\n        /* \"smartContract/contracts/1_Ballot.sol\":2660:2678  sender.district==0 */\n      eq\n        /* \"smartContract/contracts/1_Ballot.sol\":2656:3469  if (sender.district==0){proposals[random_vote()].Votes_District0 += 1;}... */\n      iszero\n      tag_48\n      jumpi\n        /* \"smartContract/contracts/1_Ballot.sol\":2724:2725  1 */\n      0x01\n        /* \"smartContract/contracts/1_Ballot.sol\":2680:2689  proposals */\n      dup1\n        /* \"smartContract/contracts/1_Ballot.sol\":2690:2703  random_vote() */\n      tag_49\n        /* \"smartContract/contracts/1_Ballot.sol\":2690:2701  random_vote */\n      tag_38\n        /* \"smartContract/contracts/1_Ballot.sol\":2690:2703  random_vote() */\n      jump\t// in\n    tag_49:\n        /* \"smartContract/contracts/1_Ballot.sol\":2680:2704  proposals[random_vote()] */\n      dup2\n      sload\n      dup2\n      lt\n      tag_50\n      jumpi\n      tag_51\n      tag_44\n      jump\t// in\n    tag_51:\n    tag_50:\n      swap1\n      0x00\n      mstore\n      keccak256(0x00, 0x20)\n      swap1\n      0x0c\n      mul\n      add\n        /* \"smartContract/contracts/1_Ballot.sol\":2680:2720  proposals[random_vote()].Votes_District0 */\n      0x02\n      add\n      0x00\n        /* \"smartContract/contracts/1_Ballot.sol\":2680:2725  proposals[random_vote()].Votes_District0 += 1 */\n      dup3\n      dup3\n      sload\n      tag_53\n      swap2\n      swap1\n      tag_47\n      jump\t// in\n    tag_53:\n      swap3\n      pop\n      pop\n      dup2\n      swap1\n      sstore\n      pop\n        /* \"smartContract/contracts/1_Ballot.sol\":2656:3469  if (sender.district==0){proposals[random_vote()].Votes_District0 += 1;}... */\n      jump(tag_54)\n    tag_48:\n        /* \"smartContract/contracts/1_Ballot.sol\":2762:2763  1 */\n      0x01\n        /* \"smartContract/contracts/1_Ballot.sol\":2745:2751  sender */\n      dup2\n        /* \"smartContract/contracts/1_Ballot.sol\":2745:2760  sender.district */\n      0x01\n      add\n      sload\n        /* \"smartContract/contracts/1_Ballot.sol\":2745:2763  sender.district==1 */\n      eq\n        /* \"smartContract/contracts/1_Ballot.sol\":2741:3469  if (sender.district==1){proposals[random_vote()].Votes_District1 += 1;}... */\n      iszero\n      tag_55\n      jumpi\n        /* \"smartContract/contracts/1_Ballot.sol\":2809:2810  1 */\n      0x01\n        /* \"smartContract/contracts/1_Ballot.sol\":2765:2774  proposals */\n      dup1\n        /* \"smartContract/contracts/1_Ballot.sol\":2775:2788  random_vote() */\n      tag_56\n        /* \"smartContract/contracts/1_Ballot.sol\":2775:2786  random_vote */\n      tag_38\n        /* \"smartContract/contracts/1_Ballot.sol\":2775:2788  random_vote() */\n      jump\t// in\n    tag_56:\n        /* \"smartContract/contracts/1_Ballot.sol\":2765:2789  proposals[random_vote()] */\n      dup2\n      sload\n      dup2\n      lt\n      tag_57\n      jumpi\n      tag_58\n      tag_44\n      jump\t// in\n    tag_58:\n    tag_57:\n      swap1\n      0x00\n      mstore\n      keccak256(0x00, 0x20)\n      swap1\n      0x0c\n      mul\n      add\n        /* \"smartContract/contracts/1_Ballot.sol\":2765:2805  proposals[random_vote()].Votes_District1 */\n      0x03\n      add\n      0x00\n        /* \"smartContract/contracts/1_Ballot.sol\":2765:2810  proposals[random_vote()].Votes_District1 += 1 */\n      dup3\n      dup3\n      sload\n      tag_60\n      swap2\n      swap1\n      tag_47\n      jump\t// in\n    tag_60:\n      swap3\n      pop\n      pop\n      dup2\n      swap1\n      sstore\n      pop\n        /* \"smartContract/contracts/1_Ballot.sol\":2741:3469  if (sender.district==1){proposals[random_vote()].Votes_District1 += 1;}... */\n      jump(tag_61)\n    tag_55:\n        /* \"smartContract/contracts/1_Ballot.sol\":2847:2848  2 */\n      0x02\n        /* \"smartContract/contracts/1_Ballot.sol\":2830:2836  sender */\n      dup2\n        /* \"smartContract/contracts/1_Ballot.sol\":2830:2845  sender.district */\n      0x01\n      add\n      sload\n        /* \"smartContract/contracts/1_Ballot.sol\":2830:2848  sender.district==2 */\n      eq\n        /* \"smartContract/contracts/1_Ballot.sol\":2826:3469  if (sender.district==2){proposals[random_vote()].Votes_District2 += 1;}... */\n      iszero\n      tag_62\n      jumpi\n        /* \"smartContract/contracts/1_Ballot.sol\":2894:2895  1 */\n      0x01\n        /* \"smartContract/contracts/1_Ballot.sol\":2850:2859  proposals */\n      dup1\n        /* \"smartContract/contracts/1_Ballot.sol\":2860:2873  random_vote() */\n      tag_63\n        /* \"smartContract/contracts/1_Ballot.sol\":2860:2871  random_vote */\n      tag_38\n        /* \"smartContract/contracts/1_Ballot.sol\":2860:2873  random_vote() */\n      jump\t// in\n    tag_63:\n        /* \"smartContract/contracts/1_Ballot.sol\":2850:2874  proposals[random_vote()] */\n      dup2\n      sload\n      dup2\n      lt\n      tag_64\n      jumpi\n      tag_65\n      tag_44\n      jump\t// in\n    tag_65:\n    tag_64:\n      swap1\n      0x00\n      mstore\n      keccak256(0x00, 0x20)\n      swap1\n      0x0c\n      mul\n      add\n        /* \"smartContract/contracts/1_Ballot.sol\":2850:2890  proposals[random_vote()].Votes_District2 */\n      0x04\n      add\n      0x00\n        /* \"smartContract/contracts/1_Ballot.sol\":2850:2895  proposals[random_vote()].Votes_District2 += 1 */\n      dup3\n      dup3\n      sload\n      tag_67\n      swap2\n      swap1\n      tag_47\n      jump\t// in\n    tag_67:\n      swap3\n      pop\n      pop\n      dup2\n      swap1\n      sstore\n      pop\n        /* \"smartContract/contracts/1_Ballot.sol\":2826:3469  if (sender.district==2){proposals[random_vote()].Votes_District2 += 1;}... */\n      jump(tag_68)\n    tag_62:\n        /* \"smartContract/contracts/1_Ballot.sol\":2932:2933  3 */\n      0x03\n        /* \"smartContract/contracts/1_Ballot.sol\":2915:2921  sender */\n      dup2\n        /* \"smartContract/contracts/1_Ballot.sol\":2915:2930  sender.district */\n      0x01\n      add\n      sload\n        /* \"smartContract/contracts/1_Ballot.sol\":2915:2933  sender.district==3 */\n      eq\n        /* \"smartContract/contracts/1_Ballot.sol\":2911:3469  if (sender.district==3){proposals[random_vote()].Votes_District3 += 1;}... */\n      iszero\n      tag_69\n      jumpi\n        /* \"smartContract/contracts/1_Ballot.sol\":2979:2980  1 */\n      0x01\n        /* \"smartContract/contracts/1_Ballot.sol\":2935:2944  proposals */\n      dup1\n        /* \"smartContract/contracts/1_Ballot.sol\":2945:2958  random_vote() */\n      tag_70\n        /* \"smartContract/contracts/1_Ballot.sol\":2945:2956  random_vote */\n      tag_38\n        /* \"smartContract/contracts/1_Ballot.sol\":2945:2958  random_vote() */\n      jump\t// in\n    tag_70:\n        /* \"smartContract/contracts/1_Ballot.sol\":2935:2959  proposals[random_vote()] */\n      dup2\n      sload\n      dup2\n      lt\n      tag_71\n      jumpi\n      tag_72\n      tag_44\n      jump\t// in\n    tag_72:\n    tag_71:\n      swap1\n      0x00\n      mstore\n      keccak256(0x00, 0x20)\n      swap1\n      0x0c\n      mul\n      add\n        /* \"smartContract/contracts/1_Ballot.sol\":2935:2975  proposals[random_vote()].Votes_District3 */\n      0x05\n      add\n      0x00\n        /* \"smartContract/contracts/1_Ballot.sol\":2935:2980  proposals[random_vote()].Votes_District3 += 1 */\n      dup3\n      dup3\n      sload\n      tag_74\n      swap2\n      swap1\n      tag_47\n      jump\t// in\n    tag_74:\n      swap3\n      pop\n      pop\n      dup2\n      swap1\n      sstore\n      pop\n        /* \"smartContract/contracts/1_Ballot.sol\":2911:3469  if (sender.district==3){proposals[random_vote()].Votes_District3 += 1;}... */\n      jump(tag_75)\n    tag_69:\n        /* \"smartContract/contracts/1_Ballot.sol\":3017:3018  4 */\n      0x04\n        /* \"smartContract/contracts/1_Ballot.sol\":3000:3006  sender */\n      dup2\n        /* \"smartContract/contracts/1_Ballot.sol\":3000:3015  sender.district */\n      0x01\n      add\n      sload\n        /* \"smartContract/contracts/1_Ballot.sol\":3000:3018  sender.district==4 */\n      eq\n        /* \"smartContract/contracts/1_Ballot.sol\":2996:3469  if (sender.district==4){proposals[random_vote()].Votes_District4 += 1;}... */\n      iszero\n      tag_76\n      jumpi\n        /* \"smartContract/contracts/1_Ballot.sol\":3064:3065  1 */\n      0x01\n        /* \"smartContract/contracts/1_Ballot.sol\":3020:3029  proposals */\n      dup1\n        /* \"smartContract/contracts/1_Ballot.sol\":3030:3043  random_vote() */\n      tag_77\n        /* \"smartContract/contracts/1_Ballot.sol\":3030:3041  random_vote */\n      tag_38\n        /* \"smartContract/contracts/1_Ballot.sol\":3030:3043  random_vote() */\n      jump\t// in\n    tag_77:\n        /* \"smartContract/contracts/1_Ballot.sol\":3020:3044  proposals[random_vote()] */\n      dup2\n      sload\n      dup2\n      lt\n      tag_78\n      jumpi\n      tag_79\n      tag_44\n      jump\t// in\n    tag_79:\n    tag_78:\n      swap1\n      0x00\n      mstore\n      keccak256(0x00, 0x20)\n      swap1\n      0x0c\n      mul\n      add\n        /* \"smartContract/contracts/1_Ballot.sol\":3020:3060  proposals[random_vote()].Votes_District4 */\n      0x06\n      add\n      0x00\n        /* \"smartContract/contracts/1_Ballot.sol\":3020:3065  proposals[random_vote()].Votes_District4 += 1 */\n      dup3\n      dup3\n      sload\n      tag_81\n      swap2\n      swap1\n      tag_47\n      jump\t// in\n    tag_81:\n      swap3\n      pop\n      pop\n      dup2\n      swap1\n      sstore\n      pop\n        /* \"smartContract/contracts/1_Ballot.sol\":2996:3469  if (sender.district==4){proposals[random_vote()].Votes_District4 += 1;}... */\n      jump(tag_82)\n    tag_76:\n        /* \"smartContract/contracts/1_Ballot.sol\":3102:3103  5 */\n      0x05\n        /* \"smartContract/contracts/1_Ballot.sol\":3085:3091  sender */\n      dup2\n        /* \"smartContract/contracts/1_Ballot.sol\":3085:3100  sender.district */\n      0x01\n      add\n      sload\n        /* \"smartContract/contracts/1_Ballot.sol\":3085:3103  sender.district==5 */\n      eq\n        /* \"smartContract/contracts/1_Ballot.sol\":3081:3469  if (sender.district==5){proposals[random_vote()].Votes_District5 += 1;}... */\n      iszero\n      tag_83\n      jumpi\n        /* \"smartContract/contracts/1_Ballot.sol\":3149:3150  1 */\n      0x01\n        /* \"smartContract/contracts/1_Ballot.sol\":3105:3114  proposals */\n      dup1\n        /* \"smartContract/contracts/1_Ballot.sol\":3115:3128  random_vote() */\n      tag_84\n        /* \"smartContract/contracts/1_Ballot.sol\":3115:3126  random_vote */\n      tag_38\n        /* \"smartContract/contracts/1_Ballot.sol\":3115:3128  random_vote() */\n      jump\t// in\n    tag_84:\n        /* \"smartContract/contracts/1_Ballot.sol\":3105:3129  proposals[random_vote()] */\n      dup2\n      sload\n      dup2\n      lt\n      tag_85\n      jumpi\n      tag_86\n      tag_44\n      jump\t// in\n    tag_86:\n    tag_85:\n      swap1\n      0x00\n      mstore\n      keccak256(0x00, 0x20)\n      swap1\n      0x0c\n      mul\n      add\n        /* \"smartContract/contracts/1_Ballot.sol\":3105:3145  proposals[random_vote()].Votes_District5 */\n      0x07\n      add\n      0x00\n        /* \"smartContract/contracts/1_Ballot.sol\":3105:3150  proposals[random_vote()].Votes_District5 += 1 */\n      dup3\n      dup3\n      sload\n      tag_88\n      swap2\n      swap1\n      tag_47\n      jump\t// in\n    tag_88:\n      swap3\n      pop\n      pop\n      dup2\n      swap1\n      sstore\n      pop\n        /* \"smartContract/contracts/1_Ballot.sol\":3081:3469  if (sender.district==5){proposals[random_vote()].Votes_District5 += 1;}... */\n      jump(tag_89)\n    tag_83:\n        /* \"smartContract/contracts/1_Ballot.sol\":3187:3188  6 */\n      0x06\n        /* \"smartContract/contracts/1_Ballot.sol\":3170:3176  sender */\n      dup2\n        /* \"smartContract/contracts/1_Ballot.sol\":3170:3185  sender.district */\n      0x01\n      add\n      sload\n        /* \"smartContract/contracts/1_Ballot.sol\":3170:3188  sender.district==6 */\n      eq\n        /* \"smartContract/contracts/1_Ballot.sol\":3166:3469  if (sender.district==6){proposals[random_vote()].Votes_District6 += 1;}... */\n      iszero\n      tag_90\n      jumpi\n        /* \"smartContract/contracts/1_Ballot.sol\":3234:3235  1 */\n      0x01\n        /* \"smartContract/contracts/1_Ballot.sol\":3190:3199  proposals */\n      dup1\n        /* \"smartContract/contracts/1_Ballot.sol\":3200:3213  random_vote() */\n      tag_91\n        /* \"smartContract/contracts/1_Ballot.sol\":3200:3211  random_vote */\n      tag_38\n        /* \"smartContract/contracts/1_Ballot.sol\":3200:3213  random_vote() */\n      jump\t// in\n    tag_91:\n        /* \"smartContract/contracts/1_Ballot.sol\":3190:3214  proposals[random_vote()] */\n      dup2\n      sload\n      dup2\n      lt\n      tag_92\n      jumpi\n      tag_93\n      tag_44\n      jump\t// in\n    tag_93:\n    tag_92:\n      swap1\n      0x00\n      mstore\n      keccak256(0x00, 0x20)\n      swap1\n      0x0c\n      mul\n      add\n        /* \"smartContract/contracts/1_Ballot.sol\":3190:3230  proposals[random_vote()].Votes_District6 */\n      0x08\n      add\n      0x00\n        /* \"smartContract/contracts/1_Ballot.sol\":3190:3235  proposals[random_vote()].Votes_District6 += 1 */\n      dup3\n      dup3\n      sload\n      tag_95\n      swap2\n      swap1\n      tag_47\n      jump\t// in\n    tag_95:\n      swap3\n      pop\n      pop\n      dup2\n      swap1\n      sstore\n      pop\n        /* \"smartContract/contracts/1_Ballot.sol\":3166:3469  if (sender.district==6){proposals[random_vote()].Votes_District6 += 1;}... */\n      jump(tag_96)\n    tag_90:\n        /* \"smartContract/contracts/1_Ballot.sol\":3272:3273  7 */\n      0x07\n        /* \"smartContract/contracts/1_Ballot.sol\":3255:3261  sender */\n      dup2\n        /* \"smartContract/contracts/1_Ballot.sol\":3255:3270  sender.district */\n      0x01\n      add\n      sload\n        /* \"smartContract/contracts/1_Ballot.sol\":3255:3273  sender.district==7 */\n      eq\n        /* \"smartContract/contracts/1_Ballot.sol\":3251:3469  if (sender.district==7){proposals[random_vote()].Votes_District7 += 1;}... */\n      iszero\n      tag_97\n      jumpi\n        /* \"smartContract/contracts/1_Ballot.sol\":3319:3320  1 */\n      0x01\n        /* \"smartContract/contracts/1_Ballot.sol\":3275:3284  proposals */\n      dup1\n        /* \"smartContract/contracts/1_Ballot.sol\":3285:3298  random_vote() */\n      tag_98\n        /* \"smartContract/contracts/1_Ballot.sol\":3285:3296  random_vote */\n      tag_38\n        /* \"smartContract/contracts/1_Ballot.sol\":3285:3298  random_vote() */\n      jump\t// in\n    tag_98:\n        /* \"smartContract/contracts/1_Ballot.sol\":3275:3299  proposals[random_vote()] */\n      dup2\n      sload\n      dup2\n      lt\n      tag_99\n      jumpi\n      tag_100\n      tag_44\n      jump\t// in\n    tag_100:\n    tag_99:\n      swap1\n      0x00\n      mstore\n      keccak256(0x00, 0x20)\n      swap1\n      0x0c\n      mul\n      add\n        /* \"smartContract/contracts/1_Ballot.sol\":3275:3315  proposals[random_vote()].Votes_District7 */\n      0x09\n      add\n      0x00\n        /* \"smartContract/contracts/1_Ballot.sol\":3275:3320  proposals[random_vote()].Votes_District7 += 1 */\n      dup3\n      dup3\n      sload\n      tag_102\n      swap2\n      swap1\n      tag_47\n      jump\t// in\n    tag_102:\n      swap3\n      pop\n      pop\n      dup2\n      swap1\n      sstore\n      pop\n        /* \"smartContract/contracts/1_Ballot.sol\":3251:3469  if (sender.district==7){proposals[random_vote()].Votes_District7 += 1;}... */\n      jump(tag_103)\n    tag_97:\n        /* \"smartContract/contracts/1_Ballot.sol\":3357:3358  8 */\n      0x08\n        /* \"smartContract/contracts/1_Ballot.sol\":3340:3346  sender */\n      dup2\n        /* \"smartContract/contracts/1_Ballot.sol\":3340:3355  sender.district */\n      0x01\n      add\n      sload\n        /* \"smartContract/contracts/1_Ballot.sol\":3340:3358  sender.district==8 */\n      eq\n        /* \"smartContract/contracts/1_Ballot.sol\":3336:3469  if (sender.district==8){proposals[random_vote()].Votes_District8 += 1;}... */\n      iszero\n      tag_104\n      jumpi\n        /* \"smartContract/contracts/1_Ballot.sol\":3404:3405  1 */\n      0x01\n        /* \"smartContract/contracts/1_Ballot.sol\":3360:3369  proposals */\n      dup1\n        /* \"smartContract/contracts/1_Ballot.sol\":3370:3383  random_vote() */\n      tag_105\n        /* \"smartContract/contracts/1_Ballot.sol\":3370:3381  random_vote */\n      tag_38\n        /* \"smartContract/contracts/1_Ballot.sol\":3370:3383  random_vote() */\n      jump\t// in\n    tag_105:\n        /* \"smartContract/contracts/1_Ballot.sol\":3360:3384  proposals[random_vote()] */\n      dup2\n      sload\n      dup2\n      lt\n      tag_106\n      jumpi\n      tag_107\n      tag_44\n      jump\t// in\n    tag_107:\n    tag_106:\n      swap1\n      0x00\n      mstore\n      keccak256(0x00, 0x20)\n      swap1\n      0x0c\n      mul\n      add\n        /* \"smartContract/contracts/1_Ballot.sol\":3360:3400  proposals[random_vote()].Votes_District8 */\n      0x0a\n      add\n      0x00\n        /* \"smartContract/contracts/1_Ballot.sol\":3360:3405  proposals[random_vote()].Votes_District8 += 1 */\n      dup3\n      dup3\n      sload\n      tag_109\n      swap2\n      swap1\n      tag_47\n      jump\t// in\n    tag_109:\n      swap3\n      pop\n      pop\n      dup2\n      swap1\n      sstore\n      pop\n        /* \"smartContract/contracts/1_Ballot.sol\":3336:3469  if (sender.district==8){proposals[random_vote()].Votes_District8 += 1;}... */\n      jump(tag_110)\n    tag_104:\n        /* \"smartContract/contracts/1_Ballot.sol\":3466:3467  1 */\n      0x01\n        /* \"smartContract/contracts/1_Ballot.sol\":3422:3431  proposals */\n      dup1\n        /* \"smartContract/contracts/1_Ballot.sol\":3432:3445  random_vote() */\n      tag_111\n        /* \"smartContract/contracts/1_Ballot.sol\":3432:3443  random_vote */\n      tag_38\n        /* \"smartContract/contracts/1_Ballot.sol\":3432:3445  random_vote() */\n      jump\t// in\n    tag_111:\n        /* \"smartContract/contracts/1_Ballot.sol\":3422:3446  proposals[random_vote()] */\n      dup2\n      sload\n      dup2\n      lt\n      tag_112\n      jumpi\n      tag_113\n      tag_44\n      jump\t// in\n    tag_113:\n    tag_112:\n      swap1\n      0x00\n      mstore\n      keccak256(0x00, 0x20)\n      swap1\n      0x0c\n      mul\n      add\n        /* \"smartContract/contracts/1_Ballot.sol\":3422:3462  proposals[random_vote()].Votes_District9 */\n      0x0b\n      add\n      0x00\n        /* \"smartContract/contracts/1_Ballot.sol\":3422:3467  proposals[random_vote()].Votes_District9 += 1 */\n      dup3\n      dup3\n      sload\n      tag_115\n      swap2\n      swap1\n      tag_47\n      jump\t// in\n    tag_115:\n      swap3\n      pop\n      pop\n      dup2\n      swap1\n      sstore\n      pop\n        /* \"smartContract/contracts/1_Ballot.sol\":3336:3469  if (sender.district==8){proposals[random_vote()].Votes_District8 += 1;}... */\n    tag_110:\n        /* \"smartContract/contracts/1_Ballot.sol\":3251:3469  if (sender.district==7){proposals[random_vote()].Votes_District7 += 1;}... */\n    tag_103:\n        /* \"smartContract/contracts/1_Ballot.sol\":3166:3469  if (sender.district==6){proposals[random_vote()].Votes_District6 += 1;}... */\n    tag_96:\n        /* \"smartContract/contracts/1_Ballot.sol\":3081:3469  if (sender.district==5){proposals[random_vote()].Votes_District5 += 1;}... */\n    tag_89:\n        /* \"smartContract/contracts/1_Ballot.sol\":2996:3469  if (sender.district==4){proposals[random_vote()].Votes_District4 += 1;}... */\n    tag_82:\n        /* \"smartContract/contracts/1_Ballot.sol\":2911:3469  if (sender.district==3){proposals[random_vote()].Votes_District3 += 1;}... */\n    tag_75:\n        /* \"smartContract/contracts/1_Ballot.sol\":2826:3469  if (sender.district==2){proposals[random_vote()].Votes_District2 += 1;}... */\n    tag_68:\n        /* \"smartContract/contracts/1_Ballot.sol\":2741:3469  if (sender.district==1){proposals[random_vote()].Votes_District1 += 1;}... */\n    tag_61:\n        /* \"smartContract/contracts/1_Ballot.sol\":2656:3469  if (sender.district==0){proposals[random_vote()].Votes_District0 += 1;}... */\n    tag_54:\n        /* \"smartContract/contracts/1_Ballot.sol\":2103:3475  {... */\n      pop\n        /* \"smartContract/contracts/1_Ballot.sol\":2080:3475  function vote() public {... */\n      jump\t// out\n        /* \"smartContract/contracts/1_Ballot.sol\":1565:1586  int public countV = 0 */\n    tag_10:\n      sload(0x02)\n      dup2\n      jump\t// out\n        /* \"smartContract/contracts/1_Ballot.sol\":686:725  mapping(address => Voter) public voters */\n    tag_16:\n      mstore(0x20, 0x00)\n      dup1\n      0x00\n      mstore\n      keccak256(0x00, 0x40)\n      0x00\n      swap2\n      pop\n      swap1\n      pop\n      dup1\n      0x00\n      add\n      0x00\n      swap1\n      sload\n      swap1\n      0x0100\n      exp\n      swap1\n      div\n      0xff\n      and\n      swap1\n      dup1\n      0x01\n      add\n      sload\n      swap1\n      dup1\n      0x02\n      add\n      sload\n      swap1\n      pop\n      dup4\n      jump\t// out\n        /* \"smartContract/contracts/1_Ballot.sol\":3481:3578  function res(uint _id) public view returns(Proposal memory){... */\n    tag_22:\n        /* \"smartContract/contracts/1_Ballot.sol\":3524:3539  Proposal memory */\n      tag_116\n      tag_117\n      jump\t// in\n    tag_116:\n        /* \"smartContract/contracts/1_Ballot.sol\":3557:3566  proposals */\n      0x01\n        /* \"smartContract/contracts/1_Ballot.sol\":3567:3570  _id */\n      dup3\n        /* \"smartContract/contracts/1_Ballot.sol\":3557:3571  proposals[_id] */\n      dup2\n      sload\n      dup2\n      lt\n      tag_119\n      jumpi\n      tag_120\n      tag_44\n      jump\t// in\n    tag_120:\n    tag_119:\n      swap1\n      0x00\n      mstore\n      keccak256(0x00, 0x20)\n      swap1\n      0x0c\n      mul\n      add\n        /* \"smartContract/contracts/1_Ballot.sol\":3550:3571  return proposals[_id] */\n      mload(0x40)\n      dup1\n      0x0180\n      add\n      0x40\n      mstore\n      swap1\n      dup2\n      0x00\n      dup3\n      add\n      dup1\n      sload\n      tag_122\n      swap1\n      tag_123\n      jump\t// in\n    tag_122:\n      dup1\n      0x1f\n      add\n      0x20\n      dup1\n      swap2\n      div\n      mul\n      0x20\n      add\n      mload(0x40)\n      swap1\n      dup2\n      add\n      0x40\n      mstore\n      dup1\n      swap3\n      swap2\n      swap1\n      dup2\n      dup2\n      mstore\n      0x20\n      add\n      dup3\n      dup1\n      sload\n      tag_124\n      swap1\n      tag_123\n      jump\t// in\n    tag_124:\n      dup1\n      iszero\n      tag_125\n      jumpi\n      dup1\n      0x1f\n      lt\n      tag_126\n      jumpi\n      0x0100\n      dup1\n      dup4\n      sload\n      div\n      mul\n      dup4\n      mstore\n      swap2\n      0x20\n      add\n      swap2\n      jump(tag_125)\n    tag_126:\n      dup3\n      add\n      swap2\n      swap1\n      0x00\n      mstore\n      keccak256(0x00, 0x20)\n      swap1\n    tag_127:\n      dup2\n      sload\n      dup2\n      mstore\n      swap1\n      0x01\n      add\n      swap1\n      0x20\n      add\n      dup1\n      dup4\n      gt\n      tag_127\n      jumpi\n      dup3\n      swap1\n      sub\n      0x1f\n      and\n      dup3\n      add\n      swap2\n    tag_125:\n      pop\n      pop\n      pop\n      pop\n      pop\n      dup2\n      mstore\n      0x20\n      add\n      0x01\n      dup3\n      add\n      sload\n      dup2\n      mstore\n      0x20\n      add\n      0x02\n      dup3\n      add\n      sload\n      dup2\n      mstore\n      0x20\n      add\n      0x03\n      dup3\n      add\n      sload\n      dup2\n      mstore\n      0x20\n      add\n      0x04\n      dup3\n      add\n      sload\n      dup2\n      mstore\n      0x20\n      add\n      0x05\n      dup3\n      add\n      sload\n      dup2\n      mstore\n      0x20\n      add\n      0x06\n      dup3\n      add\n      sload\n      dup2\n      mstore\n      0x20\n      add\n      0x07\n      dup3\n      add\n      sload\n      dup2\n      mstore\n      0x20\n      add\n      0x08\n      dup3\n      add\n      sload\n      dup2\n      mstore\n      0x20\n      add\n      0x09\n      dup3\n      add\n      sload\n      dup2\n      mstore\n      0x20\n      add\n      0x0a\n      dup3\n      add\n      sload\n      dup2\n      mstore\n      0x20\n      add\n      0x0b\n      dup3\n      add\n      sload\n      dup2\n      mstore\n      pop\n      pop\n      swap1\n      pop\n        /* \"smartContract/contracts/1_Ballot.sol\":3481:3578  function res(uint _id) public view returns(Proposal memory){... */\n      swap2\n      swap1\n      pop\n      jump\t// out\n        /* \"smartContract/contracts/1_Ballot.sol\":1661:1832  function random_district() private view returns(uint){... */\n    tag_33:\n        /* \"smartContract/contracts/1_Ballot.sol\":1709:1713  uint */\n      0x00\n        /* \"smartContract/contracts/1_Ballot.sol\":1823:1825  10 */\n      0x0a\n        /* \"smartContract/contracts/1_Ballot.sol\":1763:1778  block.timestamp */\n      timestamp\n        /* \"smartContract/contracts/1_Ballot.sol\":1779:1795  block.difficulty */\n      difficulty\n        /* \"smartContract/contracts/1_Ballot.sol\":1807:1817  msg.sender */\n      caller\n        /* \"smartContract/contracts/1_Ballot.sol\":1746:1818  abi.encodePacked(block.timestamp,block.difficulty,  ... */\n      add(0x20, mload(0x40))\n      tag_129\n      swap4\n      swap3\n      swap2\n      swap1\n      tag_130\n      jump\t// in\n    tag_129:\n      mload(0x40)\n      0x20\n      dup2\n      dup4\n      sub\n      sub\n      dup2\n      mstore\n      swap1\n      0x40\n      mstore\n        /* \"smartContract/contracts/1_Ballot.sol\":1736:1819  keccak256(abi.encodePacked(block.timestamp,block.difficulty,  ... */\n      dup1\n      mload\n      swap1\n      0x20\n      add\n      keccak256\n        /* \"smartContract/contracts/1_Ballot.sol\":1731:1820  uint(keccak256(abi.encodePacked(block.timestamp,block.difficulty,  ... */\n      0x00\n      shr\n        /* \"smartContract/contracts/1_Ballot.sol\":1731:1825  uint(keccak256(abi.encodePacked(block.timestamp,block.difficulty,  ... */\n      tag_131\n      swap2\n      swap1\n      tag_132\n      jump\t// in\n    tag_131:\n        /* \"smartContract/contracts/1_Ballot.sol\":1724:1825  return uint(keccak256(abi.encodePacked(block.timestamp,block.difficulty,  ... */\n      swap1\n      pop\n        /* \"smartContract/contracts/1_Ballot.sol\":1661:1832  function random_district() private view returns(uint){... */\n      swap1\n      jump\t// out\n        /* \"smartContract/contracts/1_Ballot.sol\":1900:2074  function random_vote() private view returns(uint){... */\n    tag_38:\n        /* \"smartContract/contracts/1_Ballot.sol\":1944:1948  uint */\n      0x00\n        /* \"smartContract/contracts/1_Ballot.sol\":2066:2067  5 */\n      0x05\n        /* \"smartContract/contracts/1_Ballot.sol\":2002:2017  block.timestamp */\n      timestamp\n        /* \"smartContract/contracts/1_Ballot.sol\":2018:2034  block.difficulty */\n      difficulty\n        /* \"smartContract/contracts/1_Ballot.sol\":2050:2060  msg.sender */\n      caller\n        /* \"smartContract/contracts/1_Ballot.sol\":1985:2061  abi.encodePacked(block.timestamp,block.difficulty,  ... */\n      add(0x20, mload(0x40))\n      tag_134\n      swap4\n      swap3\n      swap2\n      swap1\n      tag_130\n      jump\t// in\n    tag_134:\n      mload(0x40)\n      0x20\n      dup2\n      dup4\n      sub\n      sub\n      dup2\n      mstore\n      swap1\n      0x40\n      mstore\n        /* \"smartContract/contracts/1_Ballot.sol\":1975:2062  keccak256(abi.encodePacked(block.timestamp,block.difficulty,  ... */\n      dup1\n      mload\n      swap1\n      0x20\n      add\n      keccak256\n        /* \"smartContract/contracts/1_Ballot.sol\":1970:2063  uint(keccak256(abi.encodePacked(block.timestamp,block.difficulty,  ... */\n      0x00\n      shr\n        /* \"smartContract/contracts/1_Ballot.sol\":1970:2067  uint(keccak256(abi.encodePacked(block.timestamp,block.difficulty,  ... */\n      tag_135\n      swap2\n      swap1\n      tag_132\n      jump\t// in\n    tag_135:\n        /* \"smartContract/contracts/1_Ballot.sol\":1963:2067  return uint(keccak256(abi.encodePacked(block.timestamp,block.difficulty,  ... */\n      swap1\n      pop\n        /* \"smartContract/contracts/1_Ballot.sol\":1900:2074  function random_vote() private view returns(uint){... */\n      swap1\n      jump\t// out\n    tag_117:\n      mload(0x40)\n      dup1\n      0x0180\n      add\n      0x40\n      mstore\n      dup1\n      0x60\n      dup2\n      mstore\n      0x20\n      add\n      0x00\n      dup2\n      mstore\n      0x20\n      add\n      0x00\n      dup2\n      mstore\n      0x20\n      add\n      0x00\n      dup2\n      mstore\n      0x20\n      add\n      0x00\n      dup2\n      mstore\n      0x20\n      add\n      0x00\n      dup2\n      mstore\n      0x20\n      add\n      0x00\n      dup2\n      mstore\n      0x20\n      add\n      0x00\n      dup2\n      mstore\n      0x20\n      add\n      0x00\n      dup2\n      mstore\n      0x20\n      add\n      0x00\n      dup2\n      mstore\n      0x20\n      add\n      0x00\n      dup2\n      mstore\n      0x20\n      add\n      0x00\n      dup2\n      mstore\n      pop\n      swap1\n      jump\t// out\n        /* \"#utility.yul\":7:146   */\n    tag_137:\n        /* \"#utility.yul\":53:58   */\n      0x00\n        /* \"#utility.yul\":91:97   */\n      dup2\n        /* \"#utility.yul\":78:98   */\n      calldataload\n        /* \"#utility.yul\":69:98   */\n      swap1\n      pop\n        /* \"#utility.yul\":107:140   */\n      tag_139\n        /* \"#utility.yul\":134:139   */\n      dup2\n        /* \"#utility.yul\":107:140   */\n      tag_140\n      jump\t// in\n    tag_139:\n        /* \"#utility.yul\":7:146   */\n      swap3\n      swap2\n      pop\n      pop\n      jump\t// out\n        /* \"#utility.yul\":152:291   */\n    tag_141:\n        /* \"#utility.yul\":198:203   */\n      0x00\n        /* \"#utility.yul\":236:242   */\n      dup2\n        /* \"#utility.yul\":223:243   */\n      calldataload\n        /* \"#utility.yul\":214:243   */\n      swap1\n      pop\n        /* \"#utility.yul\":252:285   */\n      tag_143\n        /* \"#utility.yul\":279:284   */\n      dup2\n        /* \"#utility.yul\":252:285   */\n      tag_144\n      jump\t// in\n    tag_143:\n        /* \"#utility.yul\":152:291   */\n      swap3\n      swap2\n      pop\n      pop\n      jump\t// out\n        /* \"#utility.yul\":297:626   */\n    tag_15:\n        /* \"#utility.yul\":356:362   */\n      0x00\n        /* \"#utility.yul\":405:407   */\n      0x20\n        /* \"#utility.yul\":393:402   */\n      dup3\n        /* \"#utility.yul\":384:391   */\n      dup5\n        /* \"#utility.yul\":380:403   */\n      sub\n        /* \"#utility.yul\":376:408   */\n      slt\n        /* \"#utility.yul\":373:492   */\n      iszero\n      tag_146\n      jumpi\n        /* \"#utility.yul\":411:490   */\n      tag_147\n      tag_148\n      jump\t// in\n    tag_147:\n        /* \"#utility.yul\":373:492   */\n    tag_146:\n        /* \"#utility.yul\":531:532   */\n      0x00\n        /* \"#utility.yul\":556:609   */\n      tag_149\n        /* \"#utility.yul\":601:608   */\n      dup5\n        /* \"#utility.yul\":592:598   */\n      dup3\n        /* \"#utility.yul\":581:590   */\n      dup6\n        /* \"#utility.yul\":577:599   */\n      add\n        /* \"#utility.yul\":556:609   */\n      tag_137\n      jump\t// in\n    tag_149:\n        /* \"#utility.yul\":546:609   */\n      swap2\n      pop\n        /* \"#utility.yul\":502:619   */\n      pop\n        /* \"#utility.yul\":297:626   */\n      swap3\n      swap2\n      pop\n      pop\n      jump\t// out\n        /* \"#utility.yul\":632:961   */\n    tag_21:\n        /* \"#utility.yul\":691:697   */\n      0x00\n        /* \"#utility.yul\":740:742   */\n      0x20\n        /* \"#utility.yul\":728:737   */\n      dup3\n        /* \"#utility.yul\":719:726   */\n      dup5\n        /* \"#utility.yul\":715:738   */\n      sub\n        /* \"#utility.yul\":711:743   */\n      slt\n        /* \"#utility.yul\":708:827   */\n      iszero\n      tag_151\n      jumpi\n        /* \"#utility.yul\":746:825   */\n      tag_152\n      tag_148\n      jump\t// in\n    tag_152:\n        /* \"#utility.yul\":708:827   */\n    tag_151:\n        /* \"#utility.yul\":866:867   */\n      0x00\n        /* \"#utility.yul\":891:944   */\n      tag_153\n        /* \"#utility.yul\":936:943   */\n      dup5\n        /* \"#utility.yul\":927:933   */\n      dup3\n        /* \"#utility.yul\":916:925   */\n      dup6\n        /* \"#utility.yul\":912:934   */\n      add\n        /* \"#utility.yul\":891:944   */\n      tag_141\n      jump\t// in\n    tag_153:\n        /* \"#utility.yul\":881:944   */\n      swap2\n      pop\n        /* \"#utility.yul\":837:954   */\n      pop\n        /* \"#utility.yul\":632:961   */\n      swap3\n      swap2\n      pop\n      pop\n      jump\t// out\n        /* \"#utility.yul\":967:1124   */\n    tag_154:\n        /* \"#utility.yul\":1072:1117   */\n      tag_156\n        /* \"#utility.yul\":1092:1116   */\n      tag_157\n        /* \"#utility.yul\":1110:1115   */\n      dup3\n        /* \"#utility.yul\":1092:1116   */\n      tag_158\n      jump\t// in\n    tag_157:\n        /* \"#utility.yul\":1072:1117   */\n      tag_159\n      jump\t// in\n    tag_156:\n        /* \"#utility.yul\":1067:1070   */\n      dup3\n        /* \"#utility.yul\":1060:1118   */\n      mstore\n        /* \"#utility.yul\":967:1124   */\n      pop\n      pop\n      jump\t// out\n        /* \"#utility.yul\":1130:1239   */\n    tag_160:\n        /* \"#utility.yul\":1211:1232   */\n      tag_162\n        /* \"#utility.yul\":1226:1231   */\n      dup2\n        /* \"#utility.yul\":1211:1232   */\n      tag_163\n      jump\t// in\n    tag_162:\n        /* \"#utility.yul\":1206:1209   */\n      dup3\n        /* \"#utility.yul\":1199:1233   */\n      mstore\n        /* \"#utility.yul\":1130:1239   */\n      pop\n      pop\n      jump\t// out\n        /* \"#utility.yul\":1245:1360   */\n    tag_164:\n        /* \"#utility.yul\":1330:1353   */\n      tag_166\n        /* \"#utility.yul\":1347:1352   */\n      dup2\n        /* \"#utility.yul\":1330:1353   */\n      tag_167\n      jump\t// in\n    tag_166:\n        /* \"#utility.yul\":1325:1328   */\n      dup3\n        /* \"#utility.yul\":1318:1354   */\n      mstore\n        /* \"#utility.yul\":1245:1360   */\n      pop\n      pop\n      jump\t// out\n        /* \"#utility.yul\":1366:1710   */\n    tag_168:\n        /* \"#utility.yul\":1444:1447   */\n      0x00\n        /* \"#utility.yul\":1472:1511   */\n      tag_170\n        /* \"#utility.yul\":1505:1510   */\n      dup3\n        /* \"#utility.yul\":1472:1511   */\n      tag_171\n      jump\t// in\n    tag_170:\n        /* \"#utility.yul\":1527:1588   */\n      tag_172\n        /* \"#utility.yul\":1581:1587   */\n      dup2\n        /* \"#utility.yul\":1576:1579   */\n      dup6\n        /* \"#utility.yul\":1527:1588   */\n      tag_173\n      jump\t// in\n    tag_172:\n        /* \"#utility.yul\":1520:1588   */\n      swap4\n      pop\n        /* \"#utility.yul\":1597:1649   */\n      tag_174\n        /* \"#utility.yul\":1642:1648   */\n      dup2\n        /* \"#utility.yul\":1637:1640   */\n      dup6\n        /* \"#utility.yul\":1630:1634   */\n      0x20\n        /* \"#utility.yul\":1623:1628   */\n      dup7\n        /* \"#utility.yul\":1619:1635   */\n      add\n        /* \"#utility.yul\":1597:1649   */\n      tag_175\n      jump\t// in\n    tag_174:\n        /* \"#utility.yul\":1674:1703   */\n      tag_176\n        /* \"#utility.yul\":1696:1702   */\n      dup2\n        /* \"#utility.yul\":1674:1703   */\n      tag_177\n      jump\t// in\n    tag_176:\n        /* \"#utility.yul\":1669:1672   */\n      dup5\n        /* \"#utility.yul\":1665:1704   */\n      add\n        /* \"#utility.yul\":1658:1704   */\n      swap2\n      pop\n        /* \"#utility.yul\":1448:1710   */\n      pop\n        /* \"#utility.yul\":1366:1710   */\n      swap3\n      swap2\n      pop\n      pop\n      jump\t// out\n        /* \"#utility.yul\":1716:2082   */\n    tag_178:\n        /* \"#utility.yul\":1858:1861   */\n      0x00\n        /* \"#utility.yul\":1879:1946   */\n      tag_180\n        /* \"#utility.yul\":1943:1945   */\n      0x0e\n        /* \"#utility.yul\":1938:1941   */\n      dup4\n        /* \"#utility.yul\":1879:1946   */\n      tag_181\n      jump\t// in\n    tag_180:\n        /* \"#utility.yul\":1872:1946   */\n      swap2\n      pop\n        /* \"#utility.yul\":1955:2048   */\n      tag_182\n        /* \"#utility.yul\":2044:2047   */\n      dup3\n        /* \"#utility.yul\":1955:2048   */\n      tag_183\n      jump\t// in\n    tag_182:\n        /* \"#utility.yul\":2073:2075   */\n      0x20\n        /* \"#utility.yul\":2068:2071   */\n      dup3\n        /* \"#utility.yul\":2064:2076   */\n      add\n        /* \"#utility.yul\":2057:2076   */\n      swap1\n      pop\n        /* \"#utility.yul\":1716:2082   */\n      swap2\n      swap1\n      pop\n      jump\t// out\n        /* \"#utility.yul\":2088:2454   */\n    tag_184:\n        /* \"#utility.yul\":2230:2233   */\n      0x00\n        /* \"#utility.yul\":2251:2318   */\n      tag_186\n        /* \"#utility.yul\":2315:2317   */\n      0x18\n        /* \"#utility.yul\":2310:2313   */\n      dup4\n        /* \"#utility.yul\":2251:2318   */\n      tag_181\n      jump\t// in\n    tag_186:\n        /* \"#utility.yul\":2244:2318   */\n      swap2\n      pop\n        /* \"#utility.yul\":2327:2420   */\n      tag_187\n        /* \"#utility.yul\":2416:2419   */\n      dup3\n        /* \"#utility.yul\":2327:2420   */\n      tag_188\n      jump\t// in\n    tag_187:\n        /* \"#utility.yul\":2445:2447   */\n      0x20\n        /* \"#utility.yul\":2440:2443   */\n      dup3\n        /* \"#utility.yul\":2436:2448   */\n      add\n        /* \"#utility.yul\":2429:2448   */\n      swap1\n      pop\n        /* \"#utility.yul\":2088:2454   */\n      swap2\n      swap1\n      pop\n      jump\t// out\n        /* \"#utility.yul\":2460:2826   */\n    tag_189:\n        /* \"#utility.yul\":2602:2605   */\n      0x00\n        /* \"#utility.yul\":2623:2690   */\n      tag_191\n        /* \"#utility.yul\":2687:2689   */\n      0x13\n        /* \"#utility.yul\":2682:2685   */\n      dup4\n        /* \"#utility.yul\":2623:2690   */\n      tag_181\n      jump\t// in\n    tag_191:\n        /* \"#utility.yul\":2616:2690   */\n      swap2\n      pop\n        /* \"#utility.yul\":2699:2792   */\n      tag_192\n        /* \"#utility.yul\":2788:2791   */\n      dup3\n        /* \"#utility.yul\":2699:2792   */\n      tag_193\n      jump\t// in\n    tag_192:\n        /* \"#utility.yul\":2817:2819   */\n      0x20\n        /* \"#utility.yul\":2812:2815   */\n      dup3\n        /* \"#utility.yul\":2808:2820   */\n      add\n        /* \"#utility.yul\":2801:2820   */\n      swap1\n      pop\n        /* \"#utility.yul\":2460:2826   */\n      swap2\n      swap1\n      pop\n      jump\t// out\n        /* \"#utility.yul\":2888:5367   */\n    tag_194:\n        /* \"#utility.yul\":3005:3008   */\n      0x00\n        /* \"#utility.yul\":3041:3047   */\n      0x0180\n        /* \"#utility.yul\":3036:3039   */\n      dup4\n        /* \"#utility.yul\":3032:3048   */\n      add\n        /* \"#utility.yul\":3130:3134   */\n      0x00\n        /* \"#utility.yul\":3123:3128   */\n      dup4\n        /* \"#utility.yul\":3119:3135   */\n      add\n        /* \"#utility.yul\":3113:3136   */\n      mload\n        /* \"#utility.yul\":3183:3186   */\n      dup5\n        /* \"#utility.yul\":3177:3181   */\n      dup3\n        /* \"#utility.yul\":3173:3187   */\n      sub\n        /* \"#utility.yul\":3166:3170   */\n      0x00\n        /* \"#utility.yul\":3161:3164   */\n      dup7\n        /* \"#utility.yul\":3157:3171   */\n      add\n        /* \"#utility.yul\":3150:3188   */\n      mstore\n        /* \"#utility.yul\":3209:3282   */\n      tag_196\n        /* \"#utility.yul\":3277:3281   */\n      dup3\n        /* \"#utility.yul\":3263:3275   */\n      dup3\n        /* \"#utility.yul\":3209:3282   */\n      tag_168\n      jump\t// in\n    tag_196:\n        /* \"#utility.yul\":3201:3282   */\n      swap2\n      pop\n        /* \"#utility.yul\":3058:3293   */\n      pop\n        /* \"#utility.yul\":3382:3386   */\n      0x20\n        /* \"#utility.yul\":3375:3380   */\n      dup4\n        /* \"#utility.yul\":3371:3387   */\n      add\n        /* \"#utility.yul\":3365:3388   */\n      mload\n        /* \"#utility.yul\":3401:3464   */\n      tag_197\n        /* \"#utility.yul\":3458:3462   */\n      0x20\n        /* \"#utility.yul\":3453:3456   */\n      dup7\n        /* \"#utility.yul\":3449:3463   */\n      add\n        /* \"#utility.yul\":3435:3447   */\n      dup3\n        /* \"#utility.yul\":3401:3464   */\n      tag_198\n      jump\t// in\n    tag_197:\n        /* \"#utility.yul\":3303:3474   */\n      pop\n        /* \"#utility.yul\":3567:3571   */\n      0x40\n        /* \"#utility.yul\":3560:3565   */\n      dup4\n        /* \"#utility.yul\":3556:3572   */\n      add\n        /* \"#utility.yul\":3550:3573   */\n      mload\n        /* \"#utility.yul\":3586:3649   */\n      tag_199\n        /* \"#utility.yul\":3643:3647   */\n      0x40\n        /* \"#utility.yul\":3638:3641   */\n      dup7\n        /* \"#utility.yul\":3634:3648   */\n      add\n        /* \"#utility.yul\":3620:3632   */\n      dup3\n        /* \"#utility.yul\":3586:3649   */\n      tag_198\n      jump\t// in\n    tag_199:\n        /* \"#utility.yul\":3484:3659   */\n      pop\n        /* \"#utility.yul\":3752:3756   */\n      0x60\n        /* \"#utility.yul\":3745:3750   */\n      dup4\n        /* \"#utility.yul\":3741:3757   */\n      add\n        /* \"#utility.yul\":3735:3758   */\n      mload\n        /* \"#utility.yul\":3771:3834   */\n      tag_200\n        /* \"#utility.yul\":3828:3832   */\n      0x60\n        /* \"#utility.yul\":3823:3826   */\n      dup7\n        /* \"#utility.yul\":3819:3833   */\n      add\n        /* \"#utility.yul\":3805:3817   */\n      dup3\n        /* \"#utility.yul\":3771:3834   */\n      tag_198\n      jump\t// in\n    tag_200:\n        /* \"#utility.yul\":3669:3844   */\n      pop\n        /* \"#utility.yul\":3937:3941   */\n      0x80\n        /* \"#utility.yul\":3930:3935   */\n      dup4\n        /* \"#utility.yul\":3926:3942   */\n      add\n        /* \"#utility.yul\":3920:3943   */\n      mload\n        /* \"#utility.yul\":3956:4019   */\n      tag_201\n        /* \"#utility.yul\":4013:4017   */\n      0x80\n        /* \"#utility.yul\":4008:4011   */\n      dup7\n        /* \"#utility.yul\":4004:4018   */\n      add\n        /* \"#utility.yul\":3990:4002   */\n      dup3\n        /* \"#utility.yul\":3956:4019   */\n      tag_198\n      jump\t// in\n    tag_201:\n        /* \"#utility.yul\":3854:4029   */\n      pop\n        /* \"#utility.yul\":4122:4126   */\n      0xa0\n        /* \"#utility.yul\":4115:4120   */\n      dup4\n        /* \"#utility.yul\":4111:4127   */\n      add\n        /* \"#utility.yul\":4105:4128   */\n      mload\n        /* \"#utility.yul\":4141:4204   */\n      tag_202\n        /* \"#utility.yul\":4198:4202   */\n      0xa0\n        /* \"#utility.yul\":4193:4196   */\n      dup7\n        /* \"#utility.yul\":4189:4203   */\n      add\n        /* \"#utility.yul\":4175:4187   */\n      dup3\n        /* \"#utility.yul\":4141:4204   */\n      tag_198\n      jump\t// in\n    tag_202:\n        /* \"#utility.yul\":4039:4214   */\n      pop\n        /* \"#utility.yul\":4307:4311   */\n      0xc0\n        /* \"#utility.yul\":4300:4305   */\n      dup4\n        /* \"#utility.yul\":4296:4312   */\n      add\n        /* \"#utility.yul\":4290:4313   */\n      mload\n        /* \"#utility.yul\":4326:4389   */\n      tag_203\n        /* \"#utility.yul\":4383:4387   */\n      0xc0\n        /* \"#utility.yul\":4378:4381   */\n      dup7\n        /* \"#utility.yul\":4374:4388   */\n      add\n        /* \"#utility.yul\":4360:4372   */\n      dup3\n        /* \"#utility.yul\":4326:4389   */\n      tag_198\n      jump\t// in\n    tag_203:\n        /* \"#utility.yul\":4224:4399   */\n      pop\n        /* \"#utility.yul\":4492:4496   */\n      0xe0\n        /* \"#utility.yul\":4485:4490   */\n      dup4\n        /* \"#utility.yul\":4481:4497   */\n      add\n        /* \"#utility.yul\":4475:4498   */\n      mload\n        /* \"#utility.yul\":4511:4574   */\n      tag_204\n        /* \"#utility.yul\":4568:4572   */\n      0xe0\n        /* \"#utility.yul\":4563:4566   */\n      dup7\n        /* \"#utility.yul\":4559:4573   */\n      add\n        /* \"#utility.yul\":4545:4557   */\n      dup3\n        /* \"#utility.yul\":4511:4574   */\n      tag_198\n      jump\t// in\n    tag_204:\n        /* \"#utility.yul\":4409:4584   */\n      pop\n        /* \"#utility.yul\":4677:4683   */\n      0x0100\n        /* \"#utility.yul\":4670:4675   */\n      dup4\n        /* \"#utility.yul\":4666:4684   */\n      add\n        /* \"#utility.yul\":4660:4685   */\n      mload\n        /* \"#utility.yul\":4698:4763   */\n      tag_205\n        /* \"#utility.yul\":4755:4761   */\n      0x0100\n        /* \"#utility.yul\":4750:4753   */\n      dup7\n        /* \"#utility.yul\":4746:4762   */\n      add\n        /* \"#utility.yul\":4732:4744   */\n      dup3\n        /* \"#utility.yul\":4698:4763   */\n      tag_198\n      jump\t// in\n    tag_205:\n        /* \"#utility.yul\":4594:4773   */\n      pop\n        /* \"#utility.yul\":4866:4872   */\n      0x0120\n        /* \"#utility.yul\":4859:4864   */\n      dup4\n        /* \"#utility.yul\":4855:4873   */\n      add\n        /* \"#utility.yul\":4849:4874   */\n      mload\n        /* \"#utility.yul\":4887:4952   */\n      tag_206\n        /* \"#utility.yul\":4944:4950   */\n      0x0120\n        /* \"#utility.yul\":4939:4942   */\n      dup7\n        /* \"#utility.yul\":4935:4951   */\n      add\n        /* \"#utility.yul\":4921:4933   */\n      dup3\n        /* \"#utility.yul\":4887:4952   */\n      tag_198\n      jump\t// in\n    tag_206:\n        /* \"#utility.yul\":4783:4962   */\n      pop\n        /* \"#utility.yul\":5055:5061   */\n      0x0140\n        /* \"#utility.yul\":5048:5053   */\n      dup4\n        /* \"#utility.yul\":5044:5062   */\n      add\n        /* \"#utility.yul\":5038:5063   */\n      mload\n        /* \"#utility.yul\":5076:5141   */\n      tag_207\n        /* \"#utility.yul\":5133:5139   */\n      0x0140\n        /* \"#utility.yul\":5128:5131   */\n      dup7\n        /* \"#utility.yul\":5124:5140   */\n      add\n        /* \"#utility.yul\":5110:5122   */\n      dup3\n        /* \"#utility.yul\":5076:5141   */\n      tag_198\n      jump\t// in\n    tag_207:\n        /* \"#utility.yul\":4972:5151   */\n      pop\n        /* \"#utility.yul\":5244:5250   */\n      0x0160\n        /* \"#utility.yul\":5237:5242   */\n      dup4\n        /* \"#utility.yul\":5233:5251   */\n      add\n        /* \"#utility.yul\":5227:5252   */\n      mload\n        /* \"#utility.yul\":5265:5330   */\n      tag_208\n        /* \"#utility.yul\":5322:5328   */\n      0x0160\n        /* \"#utility.yul\":5317:5320   */\n      dup7\n        /* \"#utility.yul\":5313:5329   */\n      add\n        /* \"#utility.yul\":5299:5311   */\n      dup3\n        /* \"#utility.yul\":5265:5330   */\n      tag_198\n      jump\t// in\n    tag_208:\n        /* \"#utility.yul\":5161:5340   */\n      pop\n        /* \"#utility.yul\":5357:5361   */\n      dup1\n        /* \"#utility.yul\":5350:5361   */\n      swap2\n      pop\n        /* \"#utility.yul\":3010:5367   */\n      pop\n        /* \"#utility.yul\":2888:5367   */\n      swap3\n      swap2\n      pop\n      pop\n      jump\t// out\n        /* \"#utility.yul\":5373:5481   */\n    tag_198:\n        /* \"#utility.yul\":5450:5474   */\n      tag_210\n        /* \"#utility.yul\":5468:5473   */\n      dup2\n        /* \"#utility.yul\":5450:5474   */\n      tag_211\n      jump\t// in\n    tag_210:\n        /* \"#utility.yul\":5445:5448   */\n      dup3\n        /* \"#utility.yul\":5438:5475   */\n      mstore\n        /* \"#utility.yul\":5373:5481   */\n      pop\n      pop\n      jump\t// out\n        /* \"#utility.yul\":5487:5605   */\n    tag_212:\n        /* \"#utility.yul\":5574:5598   */\n      tag_214\n        /* \"#utility.yul\":5592:5597   */\n      dup2\n        /* \"#utility.yul\":5574:5598   */\n      tag_211\n      jump\t// in\n    tag_214:\n        /* \"#utility.yul\":5569:5572   */\n      dup3\n        /* \"#utility.yul\":5562:5599   */\n      mstore\n        /* \"#utility.yul\":5487:5605   */\n      pop\n      pop\n      jump\t// out\n        /* \"#utility.yul\":5611:5768   */\n    tag_215:\n        /* \"#utility.yul\":5716:5761   */\n      tag_217\n        /* \"#utility.yul\":5736:5760   */\n      tag_218\n        /* \"#utility.yul\":5754:5759   */\n      dup3\n        /* \"#utility.yul\":5736:5760   */\n      tag_211\n      jump\t// in\n    tag_218:\n        /* \"#utility.yul\":5716:5761   */\n      tag_219\n      jump\t// in\n    tag_217:\n        /* \"#utility.yul\":5711:5714   */\n      dup3\n        /* \"#utility.yul\":5704:5762   */\n      mstore\n        /* \"#utility.yul\":5611:5768   */\n      pop\n      pop\n      jump\t// out\n        /* \"#utility.yul\":5774:6312   */\n    tag_130:\n        /* \"#utility.yul\":5942:5945   */\n      0x00\n        /* \"#utility.yul\":5957:6032   */\n      tag_221\n        /* \"#utility.yul\":6028:6031   */\n      dup3\n        /* \"#utility.yul\":6019:6025   */\n      dup7\n        /* \"#utility.yul\":5957:6032   */\n      tag_215\n      jump\t// in\n    tag_221:\n        /* \"#utility.yul\":6057:6059   */\n      0x20\n        /* \"#utility.yul\":6052:6055   */\n      dup3\n        /* \"#utility.yul\":6048:6060   */\n      add\n        /* \"#utility.yul\":6041:6060   */\n      swap2\n      pop\n        /* \"#utility.yul\":6070:6145   */\n      tag_222\n        /* \"#utility.yul\":6141:6144   */\n      dup3\n        /* \"#utility.yul\":6132:6138   */\n      dup6\n        /* \"#utility.yul\":6070:6145   */\n      tag_215\n      jump\t// in\n    tag_222:\n        /* \"#utility.yul\":6170:6172   */\n      0x20\n        /* \"#utility.yul\":6165:6168   */\n      dup3\n        /* \"#utility.yul\":6161:6173   */\n      add\n        /* \"#utility.yul\":6154:6173   */\n      swap2\n      pop\n        /* \"#utility.yul\":6183:6258   */\n      tag_223\n        /* \"#utility.yul\":6254:6257   */\n      dup3\n        /* \"#utility.yul\":6245:6251   */\n      dup5\n        /* \"#utility.yul\":6183:6258   */\n      tag_154\n      jump\t// in\n    tag_223:\n        /* \"#utility.yul\":6283:6285   */\n      0x14\n        /* \"#utility.yul\":6278:6281   */\n      dup3\n        /* \"#utility.yul\":6274:6286   */\n      add\n        /* \"#utility.yul\":6267:6286   */\n      swap2\n      pop\n        /* \"#utility.yul\":6303:6306   */\n      dup2\n        /* \"#utility.yul\":6296:6306   */\n      swap1\n      pop\n        /* \"#utility.yul\":5774:6312   */\n      swap5\n      swap4\n      pop\n      pop\n      pop\n      pop\n      jump\t// out\n        /* \"#utility.yul\":6318:6748   */\n    tag_18:\n        /* \"#utility.yul\":6461:6465   */\n      0x00\n        /* \"#utility.yul\":6499:6501   */\n      0x60\n        /* \"#utility.yul\":6488:6497   */\n      dup3\n        /* \"#utility.yul\":6484:6502   */\n      add\n        /* \"#utility.yul\":6476:6502   */\n      swap1\n      pop\n        /* \"#utility.yul\":6512:6577   */\n      tag_225\n        /* \"#utility.yul\":6574:6575   */\n      0x00\n        /* \"#utility.yul\":6563:6572   */\n      dup4\n        /* \"#utility.yul\":6559:6576   */\n      add\n        /* \"#utility.yul\":6550:6556   */\n      dup7\n        /* \"#utility.yul\":6512:6577   */\n      tag_160\n      jump\t// in\n    tag_225:\n        /* \"#utility.yul\":6587:6659   */\n      tag_226\n        /* \"#utility.yul\":6655:6657   */\n      0x20\n        /* \"#utility.yul\":6644:6653   */\n      dup4\n        /* \"#utility.yul\":6640:6658   */\n      add\n        /* \"#utility.yul\":6631:6637   */\n      dup6\n        /* \"#utility.yul\":6587:6659   */\n      tag_212\n      jump\t// in\n    tag_226:\n        /* \"#utility.yul\":6669:6741   */\n      tag_227\n        /* \"#utility.yul\":6737:6739   */\n      0x40\n        /* \"#utility.yul\":6726:6735   */\n      dup4\n        /* \"#utility.yul\":6722:6740   */\n      add\n        /* \"#utility.yul\":6713:6719   */\n      dup5\n        /* \"#utility.yul\":6669:6741   */\n      tag_212\n      jump\t// in\n    tag_227:\n        /* \"#utility.yul\":6318:6748   */\n      swap5\n      swap4\n      pop\n      pop\n      pop\n      pop\n      jump\t// out\n        /* \"#utility.yul\":6754:6972   */\n    tag_12:\n        /* \"#utility.yul\":6845:6849   */\n      0x00\n        /* \"#utility.yul\":6883:6885   */\n      0x20\n        /* \"#utility.yul\":6872:6881   */\n      dup3\n        /* \"#utility.yul\":6868:6886   */\n      add\n        /* \"#utility.yul\":6860:6886   */\n      swap1\n      pop\n        /* \"#utility.yul\":6896:6965   */\n      tag_229\n        /* \"#utility.yul\":6962:6963   */\n      0x00\n        /* \"#utility.yul\":6951:6960   */\n      dup4\n        /* \"#utility.yul\":6947:6964   */\n      add\n        /* \"#utility.yul\":6938:6944   */\n      dup5\n        /* \"#utility.yul\":6896:6965   */\n      tag_164\n      jump\t// in\n    tag_229:\n        /* \"#utility.yul\":6754:6972   */\n      swap3\n      swap2\n      pop\n      pop\n      jump\t// out\n        /* \"#utility.yul\":6978:7397   */\n    tag_36:\n        /* \"#utility.yul\":7144:7148   */\n      0x00\n        /* \"#utility.yul\":7182:7184   */\n      0x20\n        /* \"#utility.yul\":7171:7180   */\n      dup3\n        /* \"#utility.yul\":7167:7185   */\n      add\n        /* \"#utility.yul\":7159:7185   */\n      swap1\n      pop\n        /* \"#utility.yul\":7231:7240   */\n      dup2\n        /* \"#utility.yul\":7225:7229   */\n      dup2\n        /* \"#utility.yul\":7221:7241   */\n      sub\n        /* \"#utility.yul\":7217:7218   */\n      0x00\n        /* \"#utility.yul\":7206:7215   */\n      dup4\n        /* \"#utility.yul\":7202:7219   */\n      add\n        /* \"#utility.yul\":7195:7242   */\n      mstore\n        /* \"#utility.yul\":7259:7390   */\n      tag_231\n        /* \"#utility.yul\":7385:7389   */\n      dup2\n        /* \"#utility.yul\":7259:7390   */\n      tag_178\n      jump\t// in\n    tag_231:\n        /* \"#utility.yul\":7251:7390   */\n      swap1\n      pop\n        /* \"#utility.yul\":6978:7397   */\n      swap2\n      swap1\n      pop\n      jump\t// out\n        /* \"#utility.yul\":7403:7822   */\n    tag_28:\n        /* \"#utility.yul\":7569:7573   */\n      0x00\n        /* \"#utility.yul\":7607:7609   */\n      0x20\n        /* \"#utility.yul\":7596:7605   */\n      dup3\n        /* \"#utility.yul\":7592:7610   */\n      add\n        /* \"#utility.yul\":7584:7610   */\n      swap1\n      pop\n        /* \"#utility.yul\":7656:7665   */\n      dup2\n        /* \"#utility.yul\":7650:7654   */\n      dup2\n        /* \"#utility.yul\":7646:7666   */\n      sub\n        /* \"#utility.yul\":7642:7643   */\n      0x00\n        /* \"#utility.yul\":7631:7640   */\n      dup4\n        /* \"#utility.yul\":7627:7644   */\n      add\n        /* \"#utility.yul\":7620:7667   */\n      mstore\n        /* \"#utility.yul\":7684:7815   */\n      tag_233\n        /* \"#utility.yul\":7810:7814   */\n      dup2\n        /* \"#utility.yul\":7684:7815   */\n      tag_184\n      jump\t// in\n    tag_233:\n        /* \"#utility.yul\":7676:7815   */\n      swap1\n      pop\n        /* \"#utility.yul\":7403:7822   */\n      swap2\n      swap1\n      pop\n      jump\t// out\n        /* \"#utility.yul\":7828:8247   */\n    tag_31:\n        /* \"#utility.yul\":7994:7998   */\n      0x00\n        /* \"#utility.yul\":8032:8034   */\n      0x20\n        /* \"#utility.yul\":8021:8030   */\n      dup3\n        /* \"#utility.yul\":8017:8035   */\n      add\n        /* \"#utility.yul\":8009:8035   */\n      swap1\n      pop\n        /* \"#utility.yul\":8081:8090   */\n      dup2\n        /* \"#utility.yul\":8075:8079   */\n      dup2\n        /* \"#utility.yul\":8071:8091   */\n      sub\n        /* \"#utility.yul\":8067:8068   */\n      0x00\n        /* \"#utility.yul\":8056:8065   */\n      dup4\n        /* \"#utility.yul\":8052:8069   */\n      add\n        /* \"#utility.yul\":8045:8092   */\n      mstore\n        /* \"#utility.yul\":8109:8240   */\n      tag_235\n        /* \"#utility.yul\":8235:8239   */\n      dup2\n        /* \"#utility.yul\":8109:8240   */\n      tag_189\n      jump\t// in\n    tag_235:\n        /* \"#utility.yul\":8101:8240   */\n      swap1\n      pop\n        /* \"#utility.yul\":7828:8247   */\n      swap2\n      swap1\n      pop\n      jump\t// out\n        /* \"#utility.yul\":8253:8622   */\n    tag_24:\n        /* \"#utility.yul\":8394:8398   */\n      0x00\n        /* \"#utility.yul\":8432:8434   */\n      0x20\n        /* \"#utility.yul\":8421:8430   */\n      dup3\n        /* \"#utility.yul\":8417:8435   */\n      add\n        /* \"#utility.yul\":8409:8435   */\n      swap1\n      pop\n        /* \"#utility.yul\":8481:8490   */\n      dup2\n        /* \"#utility.yul\":8475:8479   */\n      dup2\n        /* \"#utility.yul\":8471:8491   */\n      sub\n        /* \"#utility.yul\":8467:8468   */\n      0x00\n        /* \"#utility.yul\":8456:8465   */\n      dup4\n        /* \"#utility.yul\":8452:8469   */\n      add\n        /* \"#utility.yul\":8445:8492   */\n      mstore\n        /* \"#utility.yul\":8509:8615   */\n      tag_237\n        /* \"#utility.yul\":8610:8614   */\n      dup2\n        /* \"#utility.yul\":8601:8607   */\n      dup5\n        /* \"#utility.yul\":8509:8615   */\n      tag_194\n      jump\t// in\n    tag_237:\n        /* \"#utility.yul\":8501:8615   */\n      swap1\n      pop\n        /* \"#utility.yul\":8253:8622   */\n      swap3\n      swap2\n      pop\n      pop\n      jump\t// out\n        /* \"#utility.yul\":8709:8808   */\n    tag_171:\n        /* \"#utility.yul\":8761:8767   */\n      0x00\n        /* \"#utility.yul\":8795:8800   */\n      dup2\n        /* \"#utility.yul\":8789:8801   */\n      mload\n        /* \"#utility.yul\":8779:8801   */\n      swap1\n      pop\n        /* \"#utility.yul\":8709:8808   */\n      swap2\n      swap1\n      pop\n      jump\t// out\n        /* \"#utility.yul\":8814:8973   */\n    tag_173:\n        /* \"#utility.yul\":8888:8899   */\n      0x00\n        /* \"#utility.yul\":8922:8928   */\n      dup3\n        /* \"#utility.yul\":8917:8920   */\n      dup3\n        /* \"#utility.yul\":8910:8929   */\n      mstore\n        /* \"#utility.yul\":8962:8966   */\n      0x20\n        /* \"#utility.yul\":8957:8960   */\n      dup3\n        /* \"#utility.yul\":8953:8967   */\n      add\n        /* \"#utility.yul\":8938:8967   */\n      swap1\n      pop\n        /* \"#utility.yul\":8814:8973   */\n      swap3\n      swap2\n      pop\n      pop\n      jump\t// out\n        /* \"#utility.yul\":8979:9148   */\n    tag_181:\n        /* \"#utility.yul\":9063:9074   */\n      0x00\n        /* \"#utility.yul\":9097:9103   */\n      dup3\n        /* \"#utility.yul\":9092:9095   */\n      dup3\n        /* \"#utility.yul\":9085:9104   */\n      mstore\n        /* \"#utility.yul\":9137:9141   */\n      0x20\n        /* \"#utility.yul\":9132:9135   */\n      dup3\n        /* \"#utility.yul\":9128:9142   */\n      add\n        /* \"#utility.yul\":9113:9142   */\n      swap1\n      pop\n        /* \"#utility.yul\":8979:9148   */\n      swap3\n      swap2\n      pop\n      pop\n      jump\t// out\n        /* \"#utility.yul\":9154:9679   */\n    tag_40:\n        /* \"#utility.yul\":9193:9196   */\n      0x00\n        /* \"#utility.yul\":9212:9231   */\n      tag_244\n        /* \"#utility.yul\":9229:9230   */\n      dup3\n        /* \"#utility.yul\":9212:9231   */\n      tag_167\n      jump\t// in\n    tag_244:\n        /* \"#utility.yul\":9207:9231   */\n      swap2\n      pop\n        /* \"#utility.yul\":9245:9264   */\n      tag_245\n        /* \"#utility.yul\":9262:9263   */\n      dup4\n        /* \"#utility.yul\":9245:9264   */\n      tag_167\n      jump\t// in\n    tag_245:\n        /* \"#utility.yul\":9240:9264   */\n      swap3\n      pop\n        /* \"#utility.yul\":9433:9434   */\n      dup2\n        /* \"#utility.yul\":9365:9431   */\n      0x7fffffffffffffffffffffffffffffffffffffffffffffffffffffffffffffff\n        /* \"#utility.yul\":9361:9435   */\n      sub\n        /* \"#utility.yul\":9358:9359   */\n      dup4\n        /* \"#utility.yul\":9354:9436   */\n      sgt\n        /* \"#utility.yul\":9349:9350   */\n      0x00\n        /* \"#utility.yul\":9346:9347   */\n      dup4\n        /* \"#utility.yul\":9342:9351   */\n      slt\n        /* \"#utility.yul\":9335:9352   */\n      iszero\n        /* \"#utility.yul\":9331:9437   */\n      and\n        /* \"#utility.yul\":9328:9460   */\n      iszero\n      tag_246\n      jumpi\n        /* \"#utility.yul\":9440:9458   */\n      tag_247\n      tag_248\n      jump\t// in\n    tag_247:\n        /* \"#utility.yul\":9328:9460   */\n    tag_246:\n        /* \"#utility.yul\":9620:9621   */\n      dup2\n        /* \"#utility.yul\":9552:9618   */\n      0x8000000000000000000000000000000000000000000000000000000000000000\n        /* \"#utility.yul\":9548:9622   */\n      sub\n        /* \"#utility.yul\":9545:9546   */\n      dup4\n        /* \"#utility.yul\":9541:9623   */\n      slt\n        /* \"#utility.yul\":9537:9538   */\n      0x00\n        /* \"#utility.yul\":9534:9535   */\n      dup4\n        /* \"#utility.yul\":9530:9539   */\n      slt\n        /* \"#utility.yul\":9526:9624   */\n      and\n        /* \"#utility.yul\":9523:9647   */\n      iszero\n      tag_249\n      jumpi\n        /* \"#utility.yul\":9627:9645   */\n      tag_250\n      tag_248\n      jump\t// in\n    tag_250:\n        /* \"#utility.yul\":9523:9647   */\n    tag_249:\n        /* \"#utility.yul\":9671:9672   */\n      dup3\n        /* \"#utility.yul\":9668:9669   */\n      dup3\n        /* \"#utility.yul\":9664:9673   */\n      add\n        /* \"#utility.yul\":9657:9673   */\n      swap1\n      pop\n        /* \"#utility.yul\":9154:9679   */\n      swap3\n      swap2\n      pop\n      pop\n      jump\t// out\n        /* \"#utility.yul\":9685:9990   */\n    tag_47:\n        /* \"#utility.yul\":9725:9728   */\n      0x00\n        /* \"#utility.yul\":9744:9764   */\n      tag_252\n        /* \"#utility.yul\":9762:9763   */\n      dup3\n        /* \"#utility.yul\":9744:9764   */\n      tag_211\n      jump\t// in\n    tag_252:\n        /* \"#utility.yul\":9739:9764   */\n      swap2\n      pop\n        /* \"#utility.yul\":9778:9798   */\n      tag_253\n        /* \"#utility.yul\":9796:9797   */\n      dup4\n        /* \"#utility.yul\":9778:9798   */\n      tag_211\n      jump\t// in\n    tag_253:\n        /* \"#utility.yul\":9773:9798   */\n      swap3\n      pop\n        /* \"#utility.yul\":9932:9933   */\n      dup3\n        /* \"#utility.yul\":9864:9930   */\n      0xffffffffffffffffffffffffffffffffffffffffffffffffffffffffffffffff\n        /* \"#utility.yul\":9860:9934   */\n      sub\n        /* \"#utility.yul\":9857:9858   */\n      dup3\n        /* \"#utility.yul\":9854:9935   */\n      gt\n        /* \"#utility.yul\":9851:9958   */\n      iszero\n      tag_254\n      jumpi\n        /* \"#utility.yul\":9938:9956   */\n      tag_255\n      tag_248\n      jump\t// in\n    tag_255:\n        /* \"#utility.yul\":9851:9958   */\n    tag_254:\n        /* \"#utility.yul\":9982:9983   */\n      dup3\n        /* \"#utility.yul\":9979:9980   */\n      dup3\n        /* \"#utility.yul\":9975:9984   */\n      add\n        /* \"#utility.yul\":9968:9984   */\n      swap1\n      pop\n        /* \"#utility.yul\":9685:9990   */\n      swap3\n      swap2\n      pop\n      pop\n      jump\t// out\n        /* \"#utility.yul\":9996:10092   */\n    tag_158:\n        /* \"#utility.yul\":10033:10040   */\n      0x00\n        /* \"#utility.yul\":10062:10086   */\n      tag_257\n        /* \"#utility.yul\":10080:10085   */\n      dup3\n        /* \"#utility.yul\":10062:10086   */\n      tag_258\n      jump\t// in\n    tag_257:\n        /* \"#utility.yul\":10051:10086   */\n      swap1\n      pop\n        /* \"#utility.yul\":9996:10092   */\n      swap2\n      swap1\n      pop\n      jump\t// out\n        /* \"#utility.yul\":10098:10188   */\n    tag_163:\n        /* \"#utility.yul\":10132:10139   */\n      0x00\n        /* \"#utility.yul\":10175:10180   */\n      dup2\n        /* \"#utility.yul\":10168:10181   */\n      iszero\n        /* \"#utility.yul\":10161:10182   */\n      iszero\n        /* \"#utility.yul\":10150:10182   */\n      swap1\n      pop\n        /* \"#utility.yul\":10098:10188   */\n      swap2\n      swap1\n      pop\n      jump\t// out\n        /* \"#utility.yul\":10194:10270   */\n    tag_167:\n        /* \"#utility.yul\":10230:10237   */\n      0x00\n        /* \"#utility.yul\":10259:10264   */\n      dup2\n        /* \"#utility.yul\":10248:10264   */\n      swap1\n      pop\n        /* \"#utility.yul\":10194:10270   */\n      swap2\n      swap1\n      pop\n      jump\t// out\n        /* \"#utility.yul\":10276:10402   */\n    tag_258:\n        /* \"#utility.yul\":10313:10320   */\n      0x00\n        /* \"#utility.yul\":10353:10395   */\n      0xffffffffffffffffffffffffffffffffffffffff\n        /* \"#utility.yul\":10346:10351   */\n      dup3\n        /* \"#utility.yul\":10342:10396   */\n      and\n        /* \"#utility.yul\":10331:10396   */\n      swap1\n      pop\n        /* \"#utility.yul\":10276:10402   */\n      swap2\n      swap1\n      pop\n      jump\t// out\n        /* \"#utility.yul\":10408:10485   */\n    tag_211:\n        /* \"#utility.yul\":10445:10452   */\n      0x00\n        /* \"#utility.yul\":10474:10479   */\n      dup2\n        /* \"#utility.yul\":10463:10479   */\n      swap1\n      pop\n        /* \"#utility.yul\":10408:10485   */\n      swap2\n      swap1\n      pop\n      jump\t// out\n        /* \"#utility.yul\":10491:10798   */\n    tag_175:\n        /* \"#utility.yul\":10559:10560   */\n      0x00\n        /* \"#utility.yul\":10569:10682   */\n    tag_264:\n        /* \"#utility.yul\":10583:10589   */\n      dup4\n        /* \"#utility.yul\":10580:10581   */\n      dup2\n        /* \"#utility.yul\":10577:10590   */\n      lt\n        /* \"#utility.yul\":10569:10682   */\n      iszero\n      tag_266\n      jumpi\n        /* \"#utility.yul\":10668:10669   */\n      dup1\n        /* \"#utility.yul\":10663:10666   */\n      dup3\n        /* \"#utility.yul\":10659:10670   */\n      add\n        /* \"#utility.yul\":10653:10671   */\n      mload\n        /* \"#utility.yul\":10649:10650   */\n      dup2\n        /* \"#utility.yul\":10644:10647   */\n      dup5\n        /* \"#utility.yul\":10640:10651   */\n      add\n        /* \"#utility.yul\":10633:10672   */\n      mstore\n        /* \"#utility.yul\":10605:10607   */\n      0x20\n        /* \"#utility.yul\":10602:10603   */\n      dup2\n        /* \"#utility.yul\":10598:10608   */\n      add\n        /* \"#utility.yul\":10593:10608   */\n      swap1\n      pop\n        /* \"#utility.yul\":10569:10682   */\n      jump(tag_264)\n    tag_266:\n        /* \"#utility.yul\":10700:10706   */\n      dup4\n        /* \"#utility.yul\":10697:10698   */\n      dup2\n        /* \"#utility.yul\":10694:10707   */\n      gt\n        /* \"#utility.yul\":10691:10792   */\n      iszero\n      tag_267\n      jumpi\n        /* \"#utility.yul\":10780:10781   */\n      0x00\n        /* \"#utility.yul\":10771:10777   */\n      dup5\n        /* \"#utility.yul\":10766:10769   */\n      dup5\n        /* \"#utility.yul\":10762:10778   */\n      add\n        /* \"#utility.yul\":10755:10782   */\n      mstore\n        /* \"#utility.yul\":10691:10792   */\n    tag_267:\n        /* \"#utility.yul\":10540:10798   */\n      pop\n        /* \"#utility.yul\":10491:10798   */\n      pop\n      pop\n      pop\n      jump\t// out\n        /* \"#utility.yul\":10804:11124   */\n    tag_123:\n        /* \"#utility.yul\":10848:10854   */\n      0x00\n        /* \"#utility.yul\":10885:10886   */\n      0x02\n        /* \"#utility.yul\":10879:10883   */\n      dup3\n        /* \"#utility.yul\":10875:10887   */\n      div\n        /* \"#utility.yul\":10865:10887   */\n      swap1\n      pop\n        /* \"#utility.yul\":10932:10933   */\n      0x01\n        /* \"#utility.yul\":10926:10930   */\n      dup3\n        /* \"#utility.yul\":10922:10934   */\n      and\n        /* \"#utility.yul\":10953:10971   */\n      dup1\n        /* \"#utility.yul\":10943:11024   */\n      tag_269\n      jumpi\n        /* \"#utility.yul\":11009:11013   */\n      0x7f\n        /* \"#utility.yul\":11001:11007   */\n      dup3\n        /* \"#utility.yul\":10997:11014   */\n      and\n        /* \"#utility.yul\":10987:11014   */\n      swap2\n      pop\n        /* \"#utility.yul\":10943:11024   */\n    tag_269:\n        /* \"#utility.yul\":11071:11073   */\n      0x20\n        /* \"#utility.yul\":11063:11069   */\n      dup3\n        /* \"#utility.yul\":11060:11074   */\n      lt\n        /* \"#utility.yul\":11040:11058   */\n      dup2\n        /* \"#utility.yul\":11037:11075   */\n      eq\n        /* \"#utility.yul\":11034:11118   */\n      iszero\n      tag_270\n      jumpi\n        /* \"#utility.yul\":11090:11108   */\n      tag_271\n      tag_272\n      jump\t// in\n    tag_271:\n        /* \"#utility.yul\":11034:11118   */\n    tag_270:\n        /* \"#utility.yul\":10855:11124   */\n      pop\n        /* \"#utility.yul\":10804:11124   */\n      swap2\n      swap1\n      pop\n      jump\t// out\n        /* \"#utility.yul\":11130:11230   */\n    tag_159:\n        /* \"#utility.yul\":11169:11176   */\n      0x00\n        /* \"#utility.yul\":11198:11224   */\n      tag_274\n        /* \"#utility.yul\":11218:11223   */\n      dup3\n        /* \"#utility.yul\":11198:11224   */\n      tag_275\n      jump\t// in\n    tag_274:\n        /* \"#utility.yul\":11187:11224   */\n      swap1\n      pop\n        /* \"#utility.yul\":11130:11230   */\n      swap2\n      swap1\n      pop\n      jump\t// out\n        /* \"#utility.yul\":11236:11330   */\n    tag_275:\n        /* \"#utility.yul\":11275:11282   */\n      0x00\n        /* \"#utility.yul\":11304:11324   */\n      tag_277\n        /* \"#utility.yul\":11318:11323   */\n      dup3\n        /* \"#utility.yul\":11304:11324   */\n      tag_278\n      jump\t// in\n    tag_277:\n        /* \"#utility.yul\":11293:11324   */\n      swap1\n      pop\n        /* \"#utility.yul\":11236:11330   */\n      swap2\n      swap1\n      pop\n      jump\t// out\n        /* \"#utility.yul\":11336:11415   */\n    tag_219:\n        /* \"#utility.yul\":11375:11382   */\n      0x00\n        /* \"#utility.yul\":11404:11409   */\n      dup2\n        /* \"#utility.yul\":11393:11409   */\n      swap1\n      pop\n        /* \"#utility.yul\":11336:11415   */\n      swap2\n      swap1\n      pop\n      jump\t// out\n        /* \"#utility.yul\":11421:11597   */\n    tag_132:\n        /* \"#utility.yul\":11453:11454   */\n      0x00\n        /* \"#utility.yul\":11470:11490   */\n      tag_281\n        /* \"#utility.yul\":11488:11489   */\n      dup3\n        /* \"#utility.yul\":11470:11490   */\n      tag_211\n      jump\t// in\n    tag_281:\n        /* \"#utility.yul\":11465:11490   */\n      swap2\n      pop\n        /* \"#utility.yul\":11504:11524   */\n      tag_282\n        /* \"#utility.yul\":11522:11523   */\n      dup4\n        /* \"#utility.yul\":11504:11524   */\n      tag_211\n      jump\t// in\n    tag_282:\n        /* \"#utility.yul\":11499:11524   */\n      swap3\n      pop\n        /* \"#utility.yul\":11543:11544   */\n      dup3\n        /* \"#utility.yul\":11533:11568   */\n      tag_283\n      jumpi\n        /* \"#utility.yul\":11548:11566   */\n      tag_284\n      tag_285\n      jump\t// in\n    tag_284:\n        /* \"#utility.yul\":11533:11568   */\n    tag_283:\n        /* \"#utility.yul\":11589:11590   */\n      dup3\n        /* \"#utility.yul\":11586:11587   */\n      dup3\n        /* \"#utility.yul\":11582:11591   */\n      mod\n        /* \"#utility.yul\":11577:11591   */\n      swap1\n      pop\n        /* \"#utility.yul\":11421:11597   */\n      swap3\n      swap2\n      pop\n      pop\n      jump\t// out\n        /* \"#utility.yul\":11603:11783   */\n    tag_248:\n        /* \"#utility.yul\":11651:11728   */\n      0x4e487b7100000000000000000000000000000000000000000000000000000000\n        /* \"#utility.yul\":11648:11649   */\n      0x00\n        /* \"#utility.yul\":11641:11729   */\n      mstore\n        /* \"#utility.yul\":11748:11752   */\n      0x11\n        /* \"#utility.yul\":11745:11746   */\n      0x04\n        /* \"#utility.yul\":11738:11753   */\n      mstore\n        /* \"#utility.yul\":11772:11776   */\n      0x24\n        /* \"#utility.yul\":11769:11770   */\n      0x00\n        /* \"#utility.yul\":11762:11777   */\n      revert\n        /* \"#utility.yul\":11789:11969   */\n    tag_285:\n        /* \"#utility.yul\":11837:11914   */\n      0x4e487b7100000000000000000000000000000000000000000000000000000000\n        /* \"#utility.yul\":11834:11835   */\n      0x00\n        /* \"#utility.yul\":11827:11915   */\n      mstore\n        /* \"#utility.yul\":11934:11938   */\n      0x12\n        /* \"#utility.yul\":11931:11932   */\n      0x04\n        /* \"#utility.yul\":11924:11939   */\n      mstore\n        /* \"#utility.yul\":11958:11962   */\n      0x24\n        /* \"#utility.yul\":11955:11956   */\n      0x00\n        /* \"#utility.yul\":11948:11963   */\n      revert\n        /* \"#utility.yul\":11975:12155   */\n    tag_272:\n        /* \"#utility.yul\":12023:12100   */\n      0x4e487b7100000000000000000000000000000000000000000000000000000000\n        /* \"#utility.yul\":12020:12021   */\n      0x00\n        /* \"#utility.yul\":12013:12101   */\n      mstore\n        /* \"#utility.yul\":12120:12124   */\n      0x22\n        /* \"#utility.yul\":12117:12118   */\n      0x04\n        /* \"#utility.yul\":12110:12125   */\n      mstore\n        /* \"#utility.yul\":12144:12148   */\n      0x24\n        /* \"#utility.yul\":12141:12142   */\n      0x00\n        /* \"#utility.yul\":12134:12149   */\n      revert\n        /* \"#utility.yul\":12161:12341   */\n    tag_44:\n        /* \"#utility.yul\":12209:12286   */\n      0x4e487b7100000000000000000000000000000000000000000000000000000000\n        /* \"#utility.yul\":12206:12207   */\n      0x00\n        /* \"#utility.yul\":12199:12287   */\n      mstore\n        /* \"#utility.yul\":12306:12310   */\n      0x32\n        /* \"#utility.yul\":12303:12304   */\n      0x04\n        /* \"#utility.yul\":12296:12311   */\n      mstore\n        /* \"#utility.yul\":12330:12334   */\n      0x24\n        /* \"#utility.yul\":12327:12328   */\n      0x00\n        /* \"#utility.yul\":12320:12335   */\n      revert\n        /* \"#utility.yul\":12470:12587   */\n    tag_148:\n        /* \"#utility.yul\":12579:12580   */\n      0x00\n        /* \"#utility.yul\":12576:12577   */\n      dup1\n        /* \"#utility.yul\":12569:12581   */\n      revert\n        /* \"#utility.yul\":12593:12695   */\n    tag_177:\n        /* \"#utility.yul\":12634:12640   */\n      0x00\n        /* \"#utility.yul\":12685:12687   */\n      0x1f\n        /* \"#utility.yul\":12681:12688   */\n      not\n        /* \"#utility.yul\":12676:12678   */\n      0x1f\n        /* \"#utility.yul\":12669:12674   */\n      dup4\n        /* \"#utility.yul\":12665:12679   */\n      add\n        /* \"#utility.yul\":12661:12689   */\n      and\n        /* \"#utility.yul\":12651:12689   */\n      swap1\n      pop\n        /* \"#utility.yul\":12593:12695   */\n      swap2\n      swap1\n      pop\n      jump\t// out\n        /* \"#utility.yul\":12701:12795   */\n    tag_278:\n        /* \"#utility.yul\":12734:12742   */\n      0x00\n        /* \"#utility.yul\":12782:12787   */\n      dup2\n        /* \"#utility.yul\":12778:12780   */\n      0x60\n        /* \"#utility.yul\":12774:12788   */\n      shl\n        /* \"#utility.yul\":12753:12788   */\n      swap1\n      pop\n        /* \"#utility.yul\":12701:12795   */\n      swap2\n      swap1\n      pop\n      jump\t// out\n        /* \"#utility.yul\":12801:12965   */\n    tag_183:\n        /* \"#utility.yul\":12941:12957   */\n      0x416c726561647920766f7465642e000000000000000000000000000000000000\n        /* \"#utility.yul\":12937:12938   */\n      0x00\n        /* \"#utility.yul\":12929:12935   */\n      dup3\n        /* \"#utility.yul\":12925:12939   */\n      add\n        /* \"#utility.yul\":12918:12958   */\n      mstore\n        /* \"#utility.yul\":12801:12965   */\n      pop\n      jump\t// out\n        /* \"#utility.yul\":12971:13145   */\n    tag_188:\n        /* \"#utility.yul\":13111:13137   */\n      0x54686520766f74657220616c726561647920766f7465642e0000000000000000\n        /* \"#utility.yul\":13107:13108   */\n      0x00\n        /* \"#utility.yul\":13099:13105   */\n      dup3\n        /* \"#utility.yul\":13095:13109   */\n      add\n        /* \"#utility.yul\":13088:13138   */\n      mstore\n        /* \"#utility.yul\":12971:13145   */\n      pop\n      jump\t// out\n        /* \"#utility.yul\":13151:13320   */\n    tag_193:\n        /* \"#utility.yul\":13291:13312   */\n      0x52656163686564206d617820766f746572732e00000000000000000000000000\n        /* \"#utility.yul\":13287:13288   */\n      0x00\n        /* \"#utility.yul\":13279:13285   */\n      dup3\n        /* \"#utility.yul\":13275:13289   */\n      add\n        /* \"#utility.yul\":13268:13313   */\n      mstore\n        /* \"#utility.yul\":13151:13320   */\n      pop\n      jump\t// out\n        /* \"#utility.yul\":13326:13448   */\n    tag_140:\n        /* \"#utility.yul\":13399:13423   */\n      tag_299\n        /* \"#utility.yul\":13417:13422   */\n      dup2\n        /* \"#utility.yul\":13399:13423   */\n      tag_158\n      jump\t// in\n    tag_299:\n        /* \"#utility.yul\":13392:13397   */\n      dup2\n        /* \"#utility.yul\":13389:13424   */\n      eq\n        /* \"#utility.yul\":13379:13442   */\n      tag_300\n      jumpi\n        /* \"#utility.yul\":13438:13439   */\n      0x00\n        /* \"#utility.yul\":13435:13436   */\n      dup1\n        /* \"#utility.yul\":13428:13440   */\n      revert\n        /* \"#utility.yul\":13379:13442   */\n    tag_300:\n        /* \"#utility.yul\":13326:13448   */\n      pop\n      jump\t// out\n        /* \"#utility.yul\":13454:13576   */\n    tag_144:\n        /* \"#utility.yul\":13527:13551   */\n      tag_302\n        /* \"#utility.yul\":13545:13550   */\n      dup2\n        /* \"#utility.yul\":13527:13551   */\n      tag_211\n      jump\t// in\n    tag_302:\n        /* \"#utility.yul\":13520:13525   */\n      dup2\n        /* \"#utility.yul\":13517:13552   */\n      eq\n        /* \"#utility.yul\":13507:13570   */\n      tag_303\n      jumpi\n        /* \"#utility.yul\":13566:13567   */\n      0x00\n        /* \"#utility.yul\":13563:13564   */\n      dup1\n        /* \"#utility.yul\":13556:13568   */\n      revert\n        /* \"#utility.yul\":13507:13570   */\n    tag_303:\n        /* \"#utility.yul\":13454:13576   */\n      pop\n      jump\t// out\n\n    auxdata: 0xa2646970667358221220f3d64c58afa5a5dd49dcb3b661411adf6f1f3e494a0169464953455f8cc774c264736f6c63430008070033\n}\n",
				"bytecode": {
					"linkReferences": {},
					"object": "608060405260006002553480156200001657600080fd5b5060006040518060a001604052806040518060400160405280600181526020017f610000000000000000000000000000000000000000000000000000000000000081525081526020016040518060400160405280600181526020017f620000000000000000000000000000000000000000000000000000000000000081525081526020016040518060400160405280600181526020017f630000000000000000000000000000000000000000000000000000000000000081525081526020016040518060400160405280600181526020017f640000000000000000000000000000000000000000000000000000000000000081525081526020016040518060400160405280600181526020017f650000000000000000000000000000000000000000000000000000000000000081525081525090506005801462000191576040517f08c379a00000000000000000000000000000000000000000000000000000000081526004016200018890620003c8565b60405180910390fd5b60005b6005811015620002e9576001604051806101800160405280848460058110620001c257620001c1620004e7565b5b6020020151815260200160008152602001600081526020016000815260200160008152602001600081526020016000815260200160008152602001600081526020016000815260200160008152602001600081525090806001815401808255809150506001900390600052602060002090600c020160009091909190915060008201518160000190805190602001906200025e929190620002f1565b506020820151816001015560408201518160020155606082015181600301556080820151816004015560a0820151816005015560c0820151816006015560e082015181600701556101008201518160080155610120820151816009015561014082015181600a015561016082015181600b015550508080620002e0906200043b565b91505062000194565b50506200053f565b828054620002ff9062000405565b90600052602060002090601f0160209004810192826200032357600085556200036f565b82601f106200033e57805160ff19168380011785556200036f565b828001600101855582156200036f579182015b828111156200036e57825182559160200191906001019062000351565b5b5090506200037e919062000382565b5090565b5b808211156200039d57600081600090555060010162000383565b5090565b6000620003b0601583620003ea565b9150620003bd8262000516565b602082019050919050565b60006020820190508181036000830152620003e381620003a1565b9050919050565b600082825260208201905092915050565b6000819050919050565b600060028204905060018216806200041e57607f821691505b60208210811415620004355762000434620004b8565b5b50919050565b60006200044882620003fb565b91507fffffffffffffffffffffffffffffffffffffffffffffffffffffffffffffffff8214156200047e576200047d62000489565b5b600182019050919050565b7f4e487b7100000000000000000000000000000000000000000000000000000000600052601160045260246000fd5b7f4e487b7100000000000000000000000000000000000000000000000000000000600052602260045260246000fd5b7f4e487b7100000000000000000000000000000000000000000000000000000000600052603260045260246000fd5b7f43616e64696461746573206d75737420626520352e0000000000000000000000600082015250565b611053806200054f6000396000f3fe608060405234801561001057600080fd5b506004361061004c5760003560e01c8063632a9a52146100515780636d8f3f101461005b578063a3ec138d14610079578063d4e8fd2e146100ab575b600080fd5b6100596100db565b005b610063610666565b6040516100709190610bcb565b60405180910390f35b610093600480360381019061008e91906108ed565b61066c565b6040516100a293929190610b94565b60405180910390f35b6100c560048036038101906100c0919061091a565b6106a3565b6040516100d29190610c46565b60405180910390f35b6000803373ffffffffffffffffffffffffffffffffffffffff1673ffffffffffffffffffffffffffffffffffffffff16815260200190815260200160002060000160009054906101000a900460ff161561016a576040517f08c379a000000000000000000000000000000000000000000000000000000000815260040161016190610c06565b60405180910390fd5b6064600254126101af576040517f08c379a00000000000000000000000000000000000000000000000000000000081526004016101a690610c26565b60405180910390fd5b6101b76107e0565b6000803373ffffffffffffffffffffffffffffffffffffffff1673ffffffffffffffffffffffffffffffffffffffff1681526020019081526020016000206001018190555060008060003373ffffffffffffffffffffffffffffffffffffffff1673ffffffffffffffffffffffffffffffffffffffff16815260200190815260200160002090508060000160009054906101000a900460ff1615610290576040517f08c379a000000000000000000000000000000000000000000000000000000000815260040161028790610be6565b60405180910390fd5b60018160000160006101000a81548160ff0219169083151502179055506102b5610821565b81600201819055506001600260008282546102d09190610c95565b925050819055506001806102e2610821565b815481106102f3576102f2610f22565b5b90600052602060002090600c020160010160008282546103139190610d29565b9250508190555060008160010154141561036f57600180610332610821565b8154811061034357610342610f22565b5b90600052602060002090600c020160020160008282546103639190610d29565b92505081905550610663565b6001816001015414156103c457600180610387610821565b8154811061039857610397610f22565b5b90600052602060002090600c020160030160008282546103b89190610d29565b92505081905550610662565b600281600101541415610419576001806103dc610821565b815481106103ed576103ec610f22565b5b90600052602060002090600c0201600401600082825461040d9190610d29565b92505081905550610661565b60038160010154141561046e57600180610431610821565b8154811061044257610441610f22565b5b90600052602060002090600c020160050160008282546104629190610d29565b92505081905550610660565b6004816001015414156104c357600180610486610821565b8154811061049757610496610f22565b5b90600052602060002090600c020160060160008282546104b79190610d29565b9250508190555061065f565b600581600101541415610518576001806104db610821565b815481106104ec576104eb610f22565b5b90600052602060002090600c0201600701600082825461050c9190610d29565b9250508190555061065e565b60068160010154141561056d57600180610530610821565b8154811061054157610540610f22565b5b90600052602060002090600c020160080160008282546105619190610d29565b9250508190555061065d565b6007816001015414156105c257600180610585610821565b8154811061059657610595610f22565b5b90600052602060002090600c020160090160008282546105b69190610d29565b9250508190555061065c565b600881600101541415610617576001806105da610821565b815481106105eb576105ea610f22565b5b90600052602060002090600c0201600a01600082825461060b9190610d29565b9250508190555061065b565b600180610622610821565b8154811061063357610632610f22565b5b90600052602060002090600c0201600b0160008282546106539190610d29565b925050819055505b5b5b5b5b5b5b5b5b50565b60025481565b60006020528060005260406000206000915090508060000160009054906101000a900460ff16908060010154908060020154905083565b6106ab610862565b600182815481106106bf576106be610f22565b5b90600052602060002090600c0201604051806101800160405290816000820180546106e990610e04565b80601f016020809104026020016040519081016040528092919081815260200182805461071590610e04565b80156107625780601f1061073757610100808354040283529160200191610762565b820191906000526020600020905b81548152906001019060200180831161074557829003601f168201915b50505050508152602001600182015481526020016002820154815260200160038201548152602001600482015481526020016005820154815260200160068201548152602001600782015481526020016008820154815260200160098201548152602001600a8201548152602001600b820154815250509050919050565b6000600a4244336040516020016107f993929190610b57565b6040516020818303038152906040528051906020012060001c61081c9190610e64565b905090565b6000600542443360405160200161083a93929190610b57565b6040516020818303038152906040528051906020012060001c61085d9190610e64565b905090565b6040518061018001604052806060815260200160008152602001600081526020016000815260200160008152602001600081526020016000815260200160008152602001600081526020016000815260200160008152602001600081525090565b6000813590506108d281610fef565b92915050565b6000813590506108e781611006565b92915050565b60006020828403121561090357610902610f51565b5b6000610911848285016108c3565b91505092915050565b6000602082840312156109305761092f610f51565b5b600061093e848285016108d8565b91505092915050565b61095861095382610d7f565b610e36565b82525050565b61096781610d91565b82525050565b61097681610d9d565b82525050565b600061098782610c68565b6109918185610c73565b93506109a1818560208601610dd1565b6109aa81610f56565b840191505092915050565b60006109c2600e83610c84565b91506109cd82610f74565b602082019050919050565b60006109e5601883610c84565b91506109f082610f9d565b602082019050919050565b6000610a08601383610c84565b9150610a1382610fc6565b602082019050919050565b6000610180830160008301518482036000860152610a3c828261097c565b9150506020830151610a516020860182610b22565b506040830151610a646040860182610b22565b506060830151610a776060860182610b22565b506080830151610a8a6080860182610b22565b5060a0830151610a9d60a0860182610b22565b5060c0830151610ab060c0860182610b22565b5060e0830151610ac360e0860182610b22565b50610100830151610ad8610100860182610b22565b50610120830151610aed610120860182610b22565b50610140830151610b02610140860182610b22565b50610160830151610b17610160860182610b22565b508091505092915050565b610b2b81610dc7565b82525050565b610b3a81610dc7565b82525050565b610b51610b4c82610dc7565b610e5a565b82525050565b6000610b638286610b40565b602082019150610b738285610b40565b602082019150610b838284610947565b601482019150819050949350505050565b6000606082019050610ba9600083018661095e565b610bb66020830185610b31565b610bc36040830184610b31565b949350505050565b6000602082019050610be0600083018461096d565b92915050565b60006020820190508181036000830152610bff816109b5565b9050919050565b60006020820190508181036000830152610c1f816109d8565b9050919050565b60006020820190508181036000830152610c3f816109fb565b9050919050565b60006020820190508181036000830152610c608184610a1e565b905092915050565b600081519050919050565b600082825260208201905092915050565b600082825260208201905092915050565b6000610ca082610d9d565b9150610cab83610d9d565b9250817f7fffffffffffffffffffffffffffffffffffffffffffffffffffffffffffffff03831360008312151615610ce657610ce5610e95565b5b817f8000000000000000000000000000000000000000000000000000000000000000038312600083121615610d1e57610d1d610e95565b5b828201905092915050565b6000610d3482610dc7565b9150610d3f83610dc7565b9250827fffffffffffffffffffffffffffffffffffffffffffffffffffffffffffffffff03821115610d7457610d73610e95565b5b828201905092915050565b6000610d8a82610da7565b9050919050565b60008115159050919050565b6000819050919050565b600073ffffffffffffffffffffffffffffffffffffffff82169050919050565b6000819050919050565b60005b83811015610def578082015181840152602081019050610dd4565b83811115610dfe576000848401525b50505050565b60006002820490506001821680610e1c57607f821691505b60208210811415610e3057610e2f610ef3565b5b50919050565b6000610e4182610e48565b9050919050565b6000610e5382610f67565b9050919050565b6000819050919050565b6000610e6f82610dc7565b9150610e7a83610dc7565b925082610e8a57610e89610ec4565b5b828206905092915050565b7f4e487b7100000000000000000000000000000000000000000000000000000000600052601160045260246000fd5b7f4e487b7100000000000000000000000000000000000000000000000000000000600052601260045260246000fd5b7f4e487b7100000000000000000000000000000000000000000000000000000000600052602260045260246000fd5b7f4e487b7100000000000000000000000000000000000000000000000000000000600052603260045260246000fd5b600080fd5b6000601f19601f8301169050919050565b60008160601b9050919050565b7f416c726561647920766f7465642e000000000000000000000000000000000000600082015250565b7f54686520766f74657220616c726561647920766f7465642e0000000000000000600082015250565b7f52656163686564206d617820766f746572732e00000000000000000000000000600082015250565b610ff881610d7f565b811461100357600080fd5b50565b61100f81610dc7565b811461101a57600080fd5b5056fea2646970667358221220f3d64c58afa5a5dd49dcb3b661411adf6f1f3e494a0169464953455f8cc774c264736f6c63430008070033",
					"opcodes": "PUSH1 0x80 PUSH1 0x40 MSTORE PUSH1 0x0 PUSH1 0x2 SSTORE CALLVALUE DUP1 ISZERO PUSH3 0x16 JUMPI PUSH1 0x0 DUP1 REVERT JUMPDEST POP PUSH1 0x0 PUSH1 0x40 MLOAD DUP1 PUSH1 0xA0 ADD PUSH1 0x40 MSTORE DUP1 PUSH1 0x40 MLOAD DUP1 PUSH1 0x40 ADD PUSH1 0x40 MSTORE DUP1 PUSH1 0x1 DUP2 MSTORE PUSH1 0x20 ADD PUSH32 0x6100000000000000000000000000000000000000000000000000000000000000 DUP2 MSTORE POP DUP2 MSTORE PUSH1 0x20 ADD PUSH1 0x40 MLOAD DUP1 PUSH1 0x40 ADD PUSH1 0x40 MSTORE DUP1 PUSH1 0x1 DUP2 MSTORE PUSH1 0x20 ADD PUSH32 0x6200000000000000000000000000000000000000000000000000000000000000 DUP2 MSTORE POP DUP2 MSTORE PUSH1 0x20 ADD PUSH1 0x40 MLOAD DUP1 PUSH1 0x40 ADD PUSH1 0x40 MSTORE DUP1 PUSH1 0x1 DUP2 MSTORE PUSH1 0x20 ADD PUSH32 0x6300000000000000000000000000000000000000000000000000000000000000 DUP2 MSTORE POP DUP2 MSTORE PUSH1 0x20 ADD PUSH1 0x40 MLOAD DUP1 PUSH1 0x40 ADD PUSH1 0x40 MSTORE DUP1 PUSH1 0x1 DUP2 MSTORE PUSH1 0x20 ADD PUSH32 0x6400000000000000000000000000000000000000000000000000000000000000 DUP2 MSTORE POP DUP2 MSTORE PUSH1 0x20 ADD PUSH1 0x40 MLOAD DUP1 PUSH1 0x40 ADD PUSH1 0x40 MSTORE DUP1 PUSH1 0x1 DUP2 MSTORE PUSH1 0x20 ADD PUSH32 0x6500000000000000000000000000000000000000000000000000000000000000 DUP2 MSTORE POP DUP2 MSTORE POP SWAP1 POP PUSH1 0x5 DUP1 EQ PUSH3 0x191 JUMPI PUSH1 0x40 MLOAD PUSH32 0x8C379A000000000000000000000000000000000000000000000000000000000 DUP2 MSTORE PUSH1 0x4 ADD PUSH3 0x188 SWAP1 PUSH3 0x3C8 JUMP JUMPDEST PUSH1 0x40 MLOAD DUP1 SWAP2 SUB SWAP1 REVERT JUMPDEST PUSH1 0x0 JUMPDEST PUSH1 0x5 DUP2 LT ISZERO PUSH3 0x2E9 JUMPI PUSH1 0x1 PUSH1 0x40 MLOAD DUP1 PUSH2 0x180 ADD PUSH1 0x40 MSTORE DUP1 DUP5 DUP5 PUSH1 0x5 DUP2 LT PUSH3 0x1C2 JUMPI PUSH3 0x1C1 PUSH3 0x4E7 JUMP JUMPDEST JUMPDEST PUSH1 0x20 MUL ADD MLOAD DUP2 MSTORE PUSH1 0x20 ADD PUSH1 0x0 DUP2 MSTORE PUSH1 0x20 ADD PUSH1 0x0 DUP2 MSTORE PUSH1 0x20 ADD PUSH1 0x0 DUP2 MSTORE PUSH1 0x20 ADD PUSH1 0x0 DUP2 MSTORE PUSH1 0x20 ADD PUSH1 0x0 DUP2 MSTORE PUSH1 0x20 ADD PUSH1 0x0 DUP2 MSTORE PUSH1 0x20 ADD PUSH1 0x0 DUP2 MSTORE PUSH1 0x20 ADD PUSH1 0x0 DUP2 MSTORE PUSH1 0x20 ADD PUSH1 0x0 DUP2 MSTORE PUSH1 0x20 ADD PUSH1 0x0 DUP2 MSTORE PUSH1 0x20 ADD PUSH1 0x0 DUP2 MSTORE POP SWAP1 DUP1 PUSH1 0x1 DUP2 SLOAD ADD DUP1 DUP3 SSTORE DUP1 SWAP2 POP POP PUSH1 0x1 SWAP1 SUB SWAP1 PUSH1 0x0 MSTORE PUSH1 0x20 PUSH1 0x0 KECCAK256 SWAP1 PUSH1 0xC MUL ADD PUSH1 0x0 SWAP1 SWAP2 SWAP1 SWAP2 SWAP1 SWAP2 POP PUSH1 0x0 DUP3 ADD MLOAD DUP2 PUSH1 0x0 ADD SWAP1 DUP1 MLOAD SWAP1 PUSH1 0x20 ADD SWAP1 PUSH3 0x25E SWAP3 SWAP2 SWAP1 PUSH3 0x2F1 JUMP JUMPDEST POP PUSH1 0x20 DUP3 ADD MLOAD DUP2 PUSH1 0x1 ADD SSTORE PUSH1 0x40 DUP3 ADD MLOAD DUP2 PUSH1 0x2 ADD SSTORE PUSH1 0x60 DUP3 ADD MLOAD DUP2 PUSH1 0x3 ADD SSTORE PUSH1 0x80 DUP3 ADD MLOAD DUP2 PUSH1 0x4 ADD SSTORE PUSH1 0xA0 DUP3 ADD MLOAD DUP2 PUSH1 0x5 ADD SSTORE PUSH1 0xC0 DUP3 ADD MLOAD DUP2 PUSH1 0x6 ADD SSTORE PUSH1 0xE0 DUP3 ADD MLOAD DUP2 PUSH1 0x7 ADD SSTORE PUSH2 0x100 DUP3 ADD MLOAD DUP2 PUSH1 0x8 ADD SSTORE PUSH2 0x120 DUP3 ADD MLOAD DUP2 PUSH1 0x9 ADD SSTORE PUSH2 0x140 DUP3 ADD MLOAD DUP2 PUSH1 0xA ADD SSTORE PUSH2 0x160 DUP3 ADD MLOAD DUP2 PUSH1 0xB ADD SSTORE POP POP DUP1 DUP1 PUSH3 0x2E0 SWAP1 PUSH3 0x43B JUMP JUMPDEST SWAP2 POP POP PUSH3 0x194 JUMP JUMPDEST POP POP PUSH3 0x53F JUMP JUMPDEST DUP3 DUP1 SLOAD PUSH3 0x2FF SWAP1 PUSH3 0x405 JUMP JUMPDEST SWAP1 PUSH1 0x0 MSTORE PUSH1 0x20 PUSH1 0x0 KECCAK256 SWAP1 PUSH1 0x1F ADD PUSH1 0x20 SWAP1 DIV DUP2 ADD SWAP3 DUP3 PUSH3 0x323 JUMPI PUSH1 0x0 DUP6 SSTORE PUSH3 0x36F JUMP JUMPDEST DUP3 PUSH1 0x1F LT PUSH3 0x33E JUMPI DUP1 MLOAD PUSH1 0xFF NOT AND DUP4 DUP1 ADD OR DUP6 SSTORE PUSH3 0x36F JUMP JUMPDEST DUP3 DUP1 ADD PUSH1 0x1 ADD DUP6 SSTORE DUP3 ISZERO PUSH3 0x36F JUMPI SWAP2 DUP3 ADD JUMPDEST DUP3 DUP2 GT ISZERO PUSH3 0x36E JUMPI DUP3 MLOAD DUP3 SSTORE SWAP2 PUSH1 0x20 ADD SWAP2 SWAP1 PUSH1 0x1 ADD SWAP1 PUSH3 0x351 JUMP JUMPDEST JUMPDEST POP SWAP1 POP PUSH3 0x37E SWAP2 SWAP1 PUSH3 0x382 JUMP JUMPDEST POP SWAP1 JUMP JUMPDEST JUMPDEST DUP1 DUP3 GT ISZERO PUSH3 0x39D JUMPI PUSH1 0x0 DUP2 PUSH1 0x0 SWAP1 SSTORE POP PUSH1 0x1 ADD PUSH3 0x383 JUMP JUMPDEST POP SWAP1 JUMP JUMPDEST PUSH1 0x0 PUSH3 0x3B0 PUSH1 0x15 DUP4 PUSH3 0x3EA JUMP JUMPDEST SWAP2 POP PUSH3 0x3BD DUP3 PUSH3 0x516 JUMP JUMPDEST PUSH1 0x20 DUP3 ADD SWAP1 POP SWAP2 SWAP1 POP JUMP JUMPDEST PUSH1 0x0 PUSH1 0x20 DUP3 ADD SWAP1 POP DUP2 DUP2 SUB PUSH1 0x0 DUP4 ADD MSTORE PUSH3 0x3E3 DUP2 PUSH3 0x3A1 JUMP JUMPDEST SWAP1 POP SWAP2 SWAP1 POP JUMP JUMPDEST PUSH1 0x0 DUP3 DUP3 MSTORE PUSH1 0x20 DUP3 ADD SWAP1 POP SWAP3 SWAP2 POP POP JUMP JUMPDEST PUSH1 0x0 DUP2 SWAP1 POP SWAP2 SWAP1 POP JUMP JUMPDEST PUSH1 0x0 PUSH1 0x2 DUP3 DIV SWAP1 POP PUSH1 0x1 DUP3 AND DUP1 PUSH3 0x41E JUMPI PUSH1 0x7F DUP3 AND SWAP2 POP JUMPDEST PUSH1 0x20 DUP3 LT DUP2 EQ ISZERO PUSH3 0x435 JUMPI PUSH3 0x434 PUSH3 0x4B8 JUMP JUMPDEST JUMPDEST POP SWAP2 SWAP1 POP JUMP JUMPDEST PUSH1 0x0 PUSH3 0x448 DUP3 PUSH3 0x3FB JUMP JUMPDEST SWAP2 POP PUSH32 0xFFFFFFFFFFFFFFFFFFFFFFFFFFFFFFFFFFFFFFFFFFFFFFFFFFFFFFFFFFFFFFFF DUP3 EQ ISZERO PUSH3 0x47E JUMPI PUSH3 0x47D PUSH3 0x489 JUMP JUMPDEST JUMPDEST PUSH1 0x1 DUP3 ADD SWAP1 POP SWAP2 SWAP1 POP JUMP JUMPDEST PUSH32 0x4E487B7100000000000000000000000000000000000000000000000000000000 PUSH1 0x0 MSTORE PUSH1 0x11 PUSH1 0x4 MSTORE PUSH1 0x24 PUSH1 0x0 REVERT JUMPDEST PUSH32 0x4E487B7100000000000000000000000000000000000000000000000000000000 PUSH1 0x0 MSTORE PUSH1 0x22 PUSH1 0x4 MSTORE PUSH1 0x24 PUSH1 0x0 REVERT JUMPDEST PUSH32 0x4E487B7100000000000000000000000000000000000000000000000000000000 PUSH1 0x0 MSTORE PUSH1 0x32 PUSH1 0x4 MSTORE PUSH1 0x24 PUSH1 0x0 REVERT JUMPDEST PUSH32 0x43616E64696461746573206D75737420626520352E0000000000000000000000 PUSH1 0x0 DUP3 ADD MSTORE POP JUMP JUMPDEST PUSH2 0x1053 DUP1 PUSH3 0x54F PUSH1 0x0 CODECOPY PUSH1 0x0 RETURN INVALID PUSH1 0x80 PUSH1 0x40 MSTORE CALLVALUE DUP1 ISZERO PUSH2 0x10 JUMPI PUSH1 0x0 DUP1 REVERT JUMPDEST POP PUSH1 0x4 CALLDATASIZE LT PUSH2 0x4C JUMPI PUSH1 0x0 CALLDATALOAD PUSH1 0xE0 SHR DUP1 PUSH4 0x632A9A52 EQ PUSH2 0x51 JUMPI DUP1 PUSH4 0x6D8F3F10 EQ PUSH2 0x5B JUMPI DUP1 PUSH4 0xA3EC138D EQ PUSH2 0x79 JUMPI DUP1 PUSH4 0xD4E8FD2E EQ PUSH2 0xAB JUMPI JUMPDEST PUSH1 0x0 DUP1 REVERT JUMPDEST PUSH2 0x59 PUSH2 0xDB JUMP JUMPDEST STOP JUMPDEST PUSH2 0x63 PUSH2 0x666 JUMP JUMPDEST PUSH1 0x40 MLOAD PUSH2 0x70 SWAP2 SWAP1 PUSH2 0xBCB JUMP JUMPDEST PUSH1 0x40 MLOAD DUP1 SWAP2 SUB SWAP1 RETURN JUMPDEST PUSH2 0x93 PUSH1 0x4 DUP1 CALLDATASIZE SUB DUP2 ADD SWAP1 PUSH2 0x8E SWAP2 SWAP1 PUSH2 0x8ED JUMP JUMPDEST PUSH2 0x66C JUMP JUMPDEST PUSH1 0x40 MLOAD PUSH2 0xA2 SWAP4 SWAP3 SWAP2 SWAP1 PUSH2 0xB94 JUMP JUMPDEST PUSH1 0x40 MLOAD DUP1 SWAP2 SUB SWAP1 RETURN JUMPDEST PUSH2 0xC5 PUSH1 0x4 DUP1 CALLDATASIZE SUB DUP2 ADD SWAP1 PUSH2 0xC0 SWAP2 SWAP1 PUSH2 0x91A JUMP JUMPDEST PUSH2 0x6A3 JUMP JUMPDEST PUSH1 0x40 MLOAD PUSH2 0xD2 SWAP2 SWAP1 PUSH2 0xC46 JUMP JUMPDEST PUSH1 0x40 MLOAD DUP1 SWAP2 SUB SWAP1 RETURN JUMPDEST PUSH1 0x0 DUP1 CALLER PUSH20 0xFFFFFFFFFFFFFFFFFFFFFFFFFFFFFFFFFFFFFFFF AND PUSH20 0xFFFFFFFFFFFFFFFFFFFFFFFFFFFFFFFFFFFFFFFF AND DUP2 MSTORE PUSH1 0x20 ADD SWAP1 DUP2 MSTORE PUSH1 0x20 ADD PUSH1 0x0 KECCAK256 PUSH1 0x0 ADD PUSH1 0x0 SWAP1 SLOAD SWAP1 PUSH2 0x100 EXP SWAP1 DIV PUSH1 0xFF AND ISZERO PUSH2 0x16A JUMPI PUSH1 0x40 MLOAD PUSH32 0x8C379A000000000000000000000000000000000000000000000000000000000 DUP2 MSTORE PUSH1 0x4 ADD PUSH2 0x161 SWAP1 PUSH2 0xC06 JUMP JUMPDEST PUSH1 0x40 MLOAD DUP1 SWAP2 SUB SWAP1 REVERT JUMPDEST PUSH1 0x64 PUSH1 0x2 SLOAD SLT PUSH2 0x1AF JUMPI PUSH1 0x40 MLOAD PUSH32 0x8C379A000000000000000000000000000000000000000000000000000000000 DUP2 MSTORE PUSH1 0x4 ADD PUSH2 0x1A6 SWAP1 PUSH2 0xC26 JUMP JUMPDEST PUSH1 0x40 MLOAD DUP1 SWAP2 SUB SWAP1 REVERT JUMPDEST PUSH2 0x1B7 PUSH2 0x7E0 JUMP JUMPDEST PUSH1 0x0 DUP1 CALLER PUSH20 0xFFFFFFFFFFFFFFFFFFFFFFFFFFFFFFFFFFFFFFFF AND PUSH20 0xFFFFFFFFFFFFFFFFFFFFFFFFFFFFFFFFFFFFFFFF AND DUP2 MSTORE PUSH1 0x20 ADD SWAP1 DUP2 MSTORE PUSH1 0x20 ADD PUSH1 0x0 KECCAK256 PUSH1 0x1 ADD DUP2 SWAP1 SSTORE POP PUSH1 0x0 DUP1 PUSH1 0x0 CALLER PUSH20 0xFFFFFFFFFFFFFFFFFFFFFFFFFFFFFFFFFFFFFFFF AND PUSH20 0xFFFFFFFFFFFFFFFFFFFFFFFFFFFFFFFFFFFFFFFF AND DUP2 MSTORE PUSH1 0x20 ADD SWAP1 DUP2 MSTORE PUSH1 0x20 ADD PUSH1 0x0 KECCAK256 SWAP1 POP DUP1 PUSH1 0x0 ADD PUSH1 0x0 SWAP1 SLOAD SWAP1 PUSH2 0x100 EXP SWAP1 DIV PUSH1 0xFF AND ISZERO PUSH2 0x290 JUMPI PUSH1 0x40 MLOAD PUSH32 0x8C379A000000000000000000000000000000000000000000000000000000000 DUP2 MSTORE PUSH1 0x4 ADD PUSH2 0x287 SWAP1 PUSH2 0xBE6 JUMP JUMPDEST PUSH1 0x40 MLOAD DUP1 SWAP2 SUB SWAP1 REVERT JUMPDEST PUSH1 0x1 DUP2 PUSH1 0x0 ADD PUSH1 0x0 PUSH2 0x100 EXP DUP2 SLOAD DUP2 PUSH1 0xFF MUL NOT AND SWAP1 DUP4 ISZERO ISZERO MUL OR SWAP1 SSTORE POP PUSH2 0x2B5 PUSH2 0x821 JUMP JUMPDEST DUP2 PUSH1 0x2 ADD DUP2 SWAP1 SSTORE POP PUSH1 0x1 PUSH1 0x2 PUSH1 0x0 DUP3 DUP3 SLOAD PUSH2 0x2D0 SWAP2 SWAP1 PUSH2 0xC95 JUMP JUMPDEST SWAP3 POP POP DUP2 SWAP1 SSTORE POP PUSH1 0x1 DUP1 PUSH2 0x2E2 PUSH2 0x821 JUMP JUMPDEST DUP2 SLOAD DUP2 LT PUSH2 0x2F3 JUMPI PUSH2 0x2F2 PUSH2 0xF22 JUMP JUMPDEST JUMPDEST SWAP1 PUSH1 0x0 MSTORE PUSH1 0x20 PUSH1 0x0 KECCAK256 SWAP1 PUSH1 0xC MUL ADD PUSH1 0x1 ADD PUSH1 0x0 DUP3 DUP3 SLOAD PUSH2 0x313 SWAP2 SWAP1 PUSH2 0xD29 JUMP JUMPDEST SWAP3 POP POP DUP2 SWAP1 SSTORE POP PUSH1 0x0 DUP2 PUSH1 0x1 ADD SLOAD EQ ISZERO PUSH2 0x36F JUMPI PUSH1 0x1 DUP1 PUSH2 0x332 PUSH2 0x821 JUMP JUMPDEST DUP2 SLOAD DUP2 LT PUSH2 0x343 JUMPI PUSH2 0x342 PUSH2 0xF22 JUMP JUMPDEST JUMPDEST SWAP1 PUSH1 0x0 MSTORE PUSH1 0x20 PUSH1 0x0 KECCAK256 SWAP1 PUSH1 0xC MUL ADD PUSH1 0x2 ADD PUSH1 0x0 DUP3 DUP3 SLOAD PUSH2 0x363 SWAP2 SWAP1 PUSH2 0xD29 JUMP JUMPDEST SWAP3 POP POP DUP2 SWAP1 SSTORE POP PUSH2 0x663 JUMP JUMPDEST PUSH1 0x1 DUP2 PUSH1 0x1 ADD SLOAD EQ ISZERO PUSH2 0x3C4 JUMPI PUSH1 0x1 DUP1 PUSH2 0x387 PUSH2 0x821 JUMP JUMPDEST DUP2 SLOAD DUP2 LT PUSH2 0x398 JUMPI PUSH2 0x397 PUSH2 0xF22 JUMP JUMPDEST JUMPDEST SWAP1 PUSH1 0x0 MSTORE PUSH1 0x20 PUSH1 0x0 KECCAK256 SWAP1 PUSH1 0xC MUL ADD PUSH1 0x3 ADD PUSH1 0x0 DUP3 DUP3 SLOAD PUSH2 0x3B8 SWAP2 SWAP1 PUSH2 0xD29 JUMP JUMPDEST SWAP3 POP POP DUP2 SWAP1 SSTORE POP PUSH2 0x662 JUMP JUMPDEST PUSH1 0x2 DUP2 PUSH1 0x1 ADD SLOAD EQ ISZERO PUSH2 0x419 JUMPI PUSH1 0x1 DUP1 PUSH2 0x3DC PUSH2 0x821 JUMP JUMPDEST DUP2 SLOAD DUP2 LT PUSH2 0x3ED JUMPI PUSH2 0x3EC PUSH2 0xF22 JUMP JUMPDEST JUMPDEST SWAP1 PUSH1 0x0 MSTORE PUSH1 0x20 PUSH1 0x0 KECCAK256 SWAP1 PUSH1 0xC MUL ADD PUSH1 0x4 ADD PUSH1 0x0 DUP3 DUP3 SLOAD PUSH2 0x40D SWAP2 SWAP1 PUSH2 0xD29 JUMP JUMPDEST SWAP3 POP POP DUP2 SWAP1 SSTORE POP PUSH2 0x661 JUMP JUMPDEST PUSH1 0x3 DUP2 PUSH1 0x1 ADD SLOAD EQ ISZERO PUSH2 0x46E JUMPI PUSH1 0x1 DUP1 PUSH2 0x431 PUSH2 0x821 JUMP JUMPDEST DUP2 SLOAD DUP2 LT PUSH2 0x442 JUMPI PUSH2 0x441 PUSH2 0xF22 JUMP JUMPDEST JUMPDEST SWAP1 PUSH1 0x0 MSTORE PUSH1 0x20 PUSH1 0x0 KECCAK256 SWAP1 PUSH1 0xC MUL ADD PUSH1 0x5 ADD PUSH1 0x0 DUP3 DUP3 SLOAD PUSH2 0x462 SWAP2 SWAP1 PUSH2 0xD29 JUMP JUMPDEST SWAP3 POP POP DUP2 SWAP1 SSTORE POP PUSH2 0x660 JUMP JUMPDEST PUSH1 0x4 DUP2 PUSH1 0x1 ADD SLOAD EQ ISZERO PUSH2 0x4C3 JUMPI PUSH1 0x1 DUP1 PUSH2 0x486 PUSH2 0x821 JUMP JUMPDEST DUP2 SLOAD DUP2 LT PUSH2 0x497 JUMPI PUSH2 0x496 PUSH2 0xF22 JUMP JUMPDEST JUMPDEST SWAP1 PUSH1 0x0 MSTORE PUSH1 0x20 PUSH1 0x0 KECCAK256 SWAP1 PUSH1 0xC MUL ADD PUSH1 0x6 ADD PUSH1 0x0 DUP3 DUP3 SLOAD PUSH2 0x4B7 SWAP2 SWAP1 PUSH2 0xD29 JUMP JUMPDEST SWAP3 POP POP DUP2 SWAP1 SSTORE POP PUSH2 0x65F JUMP JUMPDEST PUSH1 0x5 DUP2 PUSH1 0x1 ADD SLOAD EQ ISZERO PUSH2 0x518 JUMPI PUSH1 0x1 DUP1 PUSH2 0x4DB PUSH2 0x821 JUMP JUMPDEST DUP2 SLOAD DUP2 LT PUSH2 0x4EC JUMPI PUSH2 0x4EB PUSH2 0xF22 JUMP JUMPDEST JUMPDEST SWAP1 PUSH1 0x0 MSTORE PUSH1 0x20 PUSH1 0x0 KECCAK256 SWAP1 PUSH1 0xC MUL ADD PUSH1 0x7 ADD PUSH1 0x0 DUP3 DUP3 SLOAD PUSH2 0x50C SWAP2 SWAP1 PUSH2 0xD29 JUMP JUMPDEST SWAP3 POP POP DUP2 SWAP1 SSTORE POP PUSH2 0x65E JUMP JUMPDEST PUSH1 0x6 DUP2 PUSH1 0x1 ADD SLOAD EQ ISZERO PUSH2 0x56D JUMPI PUSH1 0x1 DUP1 PUSH2 0x530 PUSH2 0x821 JUMP JUMPDEST DUP2 SLOAD DUP2 LT PUSH2 0x541 JUMPI PUSH2 0x540 PUSH2 0xF22 JUMP JUMPDEST JUMPDEST SWAP1 PUSH1 0x0 MSTORE PUSH1 0x20 PUSH1 0x0 KECCAK256 SWAP1 PUSH1 0xC MUL ADD PUSH1 0x8 ADD PUSH1 0x0 DUP3 DUP3 SLOAD PUSH2 0x561 SWAP2 SWAP1 PUSH2 0xD29 JUMP JUMPDEST SWAP3 POP POP DUP2 SWAP1 SSTORE POP PUSH2 0x65D JUMP JUMPDEST PUSH1 0x7 DUP2 PUSH1 0x1 ADD SLOAD EQ ISZERO PUSH2 0x5C2 JUMPI PUSH1 0x1 DUP1 PUSH2 0x585 PUSH2 0x821 JUMP JUMPDEST DUP2 SLOAD DUP2 LT PUSH2 0x596 JUMPI PUSH2 0x595 PUSH2 0xF22 JUMP JUMPDEST JUMPDEST SWAP1 PUSH1 0x0 MSTORE PUSH1 0x20 PUSH1 0x0 KECCAK256 SWAP1 PUSH1 0xC MUL ADD PUSH1 0x9 ADD PUSH1 0x0 DUP3 DUP3 SLOAD PUSH2 0x5B6 SWAP2 SWAP1 PUSH2 0xD29 JUMP JUMPDEST SWAP3 POP POP DUP2 SWAP1 SSTORE POP PUSH2 0x65C JUMP JUMPDEST PUSH1 0x8 DUP2 PUSH1 0x1 ADD SLOAD EQ ISZERO PUSH2 0x617 JUMPI PUSH1 0x1 DUP1 PUSH2 0x5DA PUSH2 0x821 JUMP JUMPDEST DUP2 SLOAD DUP2 LT PUSH2 0x5EB JUMPI PUSH2 0x5EA PUSH2 0xF22 JUMP JUMPDEST JUMPDEST SWAP1 PUSH1 0x0 MSTORE PUSH1 0x20 PUSH1 0x0 KECCAK256 SWAP1 PUSH1 0xC MUL ADD PUSH1 0xA ADD PUSH1 0x0 DUP3 DUP3 SLOAD PUSH2 0x60B SWAP2 SWAP1 PUSH2 0xD29 JUMP JUMPDEST SWAP3 POP POP DUP2 SWAP1 SSTORE POP PUSH2 0x65B JUMP JUMPDEST PUSH1 0x1 DUP1 PUSH2 0x622 PUSH2 0x821 JUMP JUMPDEST DUP2 SLOAD DUP2 LT PUSH2 0x633 JUMPI PUSH2 0x632 PUSH2 0xF22 JUMP JUMPDEST JUMPDEST SWAP1 PUSH1 0x0 MSTORE PUSH1 0x20 PUSH1 0x0 KECCAK256 SWAP1 PUSH1 0xC MUL ADD PUSH1 0xB ADD PUSH1 0x0 DUP3 DUP3 SLOAD PUSH2 0x653 SWAP2 SWAP1 PUSH2 0xD29 JUMP JUMPDEST SWAP3 POP POP DUP2 SWAP1 SSTORE POP JUMPDEST JUMPDEST JUMPDEST JUMPDEST JUMPDEST JUMPDEST JUMPDEST JUMPDEST JUMPDEST POP JUMP JUMPDEST PUSH1 0x2 SLOAD DUP2 JUMP JUMPDEST PUSH1 0x0 PUSH1 0x20 MSTORE DUP1 PUSH1 0x0 MSTORE PUSH1 0x40 PUSH1 0x0 KECCAK256 PUSH1 0x0 SWAP2 POP SWAP1 POP DUP1 PUSH1 0x0 ADD PUSH1 0x0 SWAP1 SLOAD SWAP1 PUSH2 0x100 EXP SWAP1 DIV PUSH1 0xFF AND SWAP1 DUP1 PUSH1 0x1 ADD SLOAD SWAP1 DUP1 PUSH1 0x2 ADD SLOAD SWAP1 POP DUP4 JUMP JUMPDEST PUSH2 0x6AB PUSH2 0x862 JUMP JUMPDEST PUSH1 0x1 DUP3 DUP2 SLOAD DUP2 LT PUSH2 0x6BF JUMPI PUSH2 0x6BE PUSH2 0xF22 JUMP JUMPDEST JUMPDEST SWAP1 PUSH1 0x0 MSTORE PUSH1 0x20 PUSH1 0x0 KECCAK256 SWAP1 PUSH1 0xC MUL ADD PUSH1 0x40 MLOAD DUP1 PUSH2 0x180 ADD PUSH1 0x40 MSTORE SWAP1 DUP2 PUSH1 0x0 DUP3 ADD DUP1 SLOAD PUSH2 0x6E9 SWAP1 PUSH2 0xE04 JUMP JUMPDEST DUP1 PUSH1 0x1F ADD PUSH1 0x20 DUP1 SWAP2 DIV MUL PUSH1 0x20 ADD PUSH1 0x40 MLOAD SWAP1 DUP2 ADD PUSH1 0x40 MSTORE DUP1 SWAP3 SWAP2 SWAP1 DUP2 DUP2 MSTORE PUSH1 0x20 ADD DUP3 DUP1 SLOAD PUSH2 0x715 SWAP1 PUSH2 0xE04 JUMP JUMPDEST DUP1 ISZERO PUSH2 0x762 JUMPI DUP1 PUSH1 0x1F LT PUSH2 0x737 JUMPI PUSH2 0x100 DUP1 DUP4 SLOAD DIV MUL DUP4 MSTORE SWAP2 PUSH1 0x20 ADD SWAP2 PUSH2 0x762 JUMP JUMPDEST DUP3 ADD SWAP2 SWAP1 PUSH1 0x0 MSTORE PUSH1 0x20 PUSH1 0x0 KECCAK256 SWAP1 JUMPDEST DUP2 SLOAD DUP2 MSTORE SWAP1 PUSH1 0x1 ADD SWAP1 PUSH1 0x20 ADD DUP1 DUP4 GT PUSH2 0x745 JUMPI DUP3 SWAP1 SUB PUSH1 0x1F AND DUP3 ADD SWAP2 JUMPDEST POP POP POP POP POP DUP2 MSTORE PUSH1 0x20 ADD PUSH1 0x1 DUP3 ADD SLOAD DUP2 MSTORE PUSH1 0x20 ADD PUSH1 0x2 DUP3 ADD SLOAD DUP2 MSTORE PUSH1 0x20 ADD PUSH1 0x3 DUP3 ADD SLOAD DUP2 MSTORE PUSH1 0x20 ADD PUSH1 0x4 DUP3 ADD SLOAD DUP2 MSTORE PUSH1 0x20 ADD PUSH1 0x5 DUP3 ADD SLOAD DUP2 MSTORE PUSH1 0x20 ADD PUSH1 0x6 DUP3 ADD SLOAD DUP2 MSTORE PUSH1 0x20 ADD PUSH1 0x7 DUP3 ADD SLOAD DUP2 MSTORE PUSH1 0x20 ADD PUSH1 0x8 DUP3 ADD SLOAD DUP2 MSTORE PUSH1 0x20 ADD PUSH1 0x9 DUP3 ADD SLOAD DUP2 MSTORE PUSH1 0x20 ADD PUSH1 0xA DUP3 ADD SLOAD DUP2 MSTORE PUSH1 0x20 ADD PUSH1 0xB DUP3 ADD SLOAD DUP2 MSTORE POP POP SWAP1 POP SWAP2 SWAP1 POP JUMP JUMPDEST PUSH1 0x0 PUSH1 0xA TIMESTAMP DIFFICULTY CALLER PUSH1 0x40 MLOAD PUSH1 0x20 ADD PUSH2 0x7F9 SWAP4 SWAP3 SWAP2 SWAP1 PUSH2 0xB57 JUMP JUMPDEST PUSH1 0x40 MLOAD PUSH1 0x20 DUP2 DUP4 SUB SUB DUP2 MSTORE SWAP1 PUSH1 0x40 MSTORE DUP1 MLOAD SWAP1 PUSH1 0x20 ADD KECCAK256 PUSH1 0x0 SHR PUSH2 0x81C SWAP2 SWAP1 PUSH2 0xE64 JUMP JUMPDEST SWAP1 POP SWAP1 JUMP JUMPDEST PUSH1 0x0 PUSH1 0x5 TIMESTAMP DIFFICULTY CALLER PUSH1 0x40 MLOAD PUSH1 0x20 ADD PUSH2 0x83A SWAP4 SWAP3 SWAP2 SWAP1 PUSH2 0xB57 JUMP JUMPDEST PUSH1 0x40 MLOAD PUSH1 0x20 DUP2 DUP4 SUB SUB DUP2 MSTORE SWAP1 PUSH1 0x40 MSTORE DUP1 MLOAD SWAP1 PUSH1 0x20 ADD KECCAK256 PUSH1 0x0 SHR PUSH2 0x85D SWAP2 SWAP1 PUSH2 0xE64 JUMP JUMPDEST SWAP1 POP SWAP1 JUMP JUMPDEST PUSH1 0x40 MLOAD DUP1 PUSH2 0x180 ADD PUSH1 0x40 MSTORE DUP1 PUSH1 0x60 DUP2 MSTORE PUSH1 0x20 ADD PUSH1 0x0 DUP2 MSTORE PUSH1 0x20 ADD PUSH1 0x0 DUP2 MSTORE PUSH1 0x20 ADD PUSH1 0x0 DUP2 MSTORE PUSH1 0x20 ADD PUSH1 0x0 DUP2 MSTORE PUSH1 0x20 ADD PUSH1 0x0 DUP2 MSTORE PUSH1 0x20 ADD PUSH1 0x0 DUP2 MSTORE PUSH1 0x20 ADD PUSH1 0x0 DUP2 MSTORE PUSH1 0x20 ADD PUSH1 0x0 DUP2 MSTORE PUSH1 0x20 ADD PUSH1 0x0 DUP2 MSTORE PUSH1 0x20 ADD PUSH1 0x0 DUP2 MSTORE PUSH1 0x20 ADD PUSH1 0x0 DUP2 MSTORE POP SWAP1 JUMP JUMPDEST PUSH1 0x0 DUP2 CALLDATALOAD SWAP1 POP PUSH2 0x8D2 DUP2 PUSH2 0xFEF JUMP JUMPDEST SWAP3 SWAP2 POP POP JUMP JUMPDEST PUSH1 0x0 DUP2 CALLDATALOAD SWAP1 POP PUSH2 0x8E7 DUP2 PUSH2 0x1006 JUMP JUMPDEST SWAP3 SWAP2 POP POP JUMP JUMPDEST PUSH1 0x0 PUSH1 0x20 DUP3 DUP5 SUB SLT ISZERO PUSH2 0x903 JUMPI PUSH2 0x902 PUSH2 0xF51 JUMP JUMPDEST JUMPDEST PUSH1 0x0 PUSH2 0x911 DUP5 DUP3 DUP6 ADD PUSH2 0x8C3 JUMP JUMPDEST SWAP2 POP POP SWAP3 SWAP2 POP POP JUMP JUMPDEST PUSH1 0x0 PUSH1 0x20 DUP3 DUP5 SUB SLT ISZERO PUSH2 0x930 JUMPI PUSH2 0x92F PUSH2 0xF51 JUMP JUMPDEST JUMPDEST PUSH1 0x0 PUSH2 0x93E DUP5 DUP3 DUP6 ADD PUSH2 0x8D8 JUMP JUMPDEST SWAP2 POP POP SWAP3 SWAP2 POP POP JUMP JUMPDEST PUSH2 0x958 PUSH2 0x953 DUP3 PUSH2 0xD7F JUMP JUMPDEST PUSH2 0xE36 JUMP JUMPDEST DUP3 MSTORE POP POP JUMP JUMPDEST PUSH2 0x967 DUP2 PUSH2 0xD91 JUMP JUMPDEST DUP3 MSTORE POP POP JUMP JUMPDEST PUSH2 0x976 DUP2 PUSH2 0xD9D JUMP JUMPDEST DUP3 MSTORE POP POP JUMP JUMPDEST PUSH1 0x0 PUSH2 0x987 DUP3 PUSH2 0xC68 JUMP JUMPDEST PUSH2 0x991 DUP2 DUP6 PUSH2 0xC73 JUMP JUMPDEST SWAP4 POP PUSH2 0x9A1 DUP2 DUP6 PUSH1 0x20 DUP7 ADD PUSH2 0xDD1 JUMP JUMPDEST PUSH2 0x9AA DUP2 PUSH2 0xF56 JUMP JUMPDEST DUP5 ADD SWAP2 POP POP SWAP3 SWAP2 POP POP JUMP JUMPDEST PUSH1 0x0 PUSH2 0x9C2 PUSH1 0xE DUP4 PUSH2 0xC84 JUMP JUMPDEST SWAP2 POP PUSH2 0x9CD DUP3 PUSH2 0xF74 JUMP JUMPDEST PUSH1 0x20 DUP3 ADD SWAP1 POP SWAP2 SWAP1 POP JUMP JUMPDEST PUSH1 0x0 PUSH2 0x9E5 PUSH1 0x18 DUP4 PUSH2 0xC84 JUMP JUMPDEST SWAP2 POP PUSH2 0x9F0 DUP3 PUSH2 0xF9D JUMP JUMPDEST PUSH1 0x20 DUP3 ADD SWAP1 POP SWAP2 SWAP1 POP JUMP JUMPDEST PUSH1 0x0 PUSH2 0xA08 PUSH1 0x13 DUP4 PUSH2 0xC84 JUMP JUMPDEST SWAP2 POP PUSH2 0xA13 DUP3 PUSH2 0xFC6 JUMP JUMPDEST PUSH1 0x20 DUP3 ADD SWAP1 POP SWAP2 SWAP1 POP JUMP JUMPDEST PUSH1 0x0 PUSH2 0x180 DUP4 ADD PUSH1 0x0 DUP4 ADD MLOAD DUP5 DUP3 SUB PUSH1 0x0 DUP7 ADD MSTORE PUSH2 0xA3C DUP3 DUP3 PUSH2 0x97C JUMP JUMPDEST SWAP2 POP POP PUSH1 0x20 DUP4 ADD MLOAD PUSH2 0xA51 PUSH1 0x20 DUP7 ADD DUP3 PUSH2 0xB22 JUMP JUMPDEST POP PUSH1 0x40 DUP4 ADD MLOAD PUSH2 0xA64 PUSH1 0x40 DUP7 ADD DUP3 PUSH2 0xB22 JUMP JUMPDEST POP PUSH1 0x60 DUP4 ADD MLOAD PUSH2 0xA77 PUSH1 0x60 DUP7 ADD DUP3 PUSH2 0xB22 JUMP JUMPDEST POP PUSH1 0x80 DUP4 ADD MLOAD PUSH2 0xA8A PUSH1 0x80 DUP7 ADD DUP3 PUSH2 0xB22 JUMP JUMPDEST POP PUSH1 0xA0 DUP4 ADD MLOAD PUSH2 0xA9D PUSH1 0xA0 DUP7 ADD DUP3 PUSH2 0xB22 JUMP JUMPDEST POP PUSH1 0xC0 DUP4 ADD MLOAD PUSH2 0xAB0 PUSH1 0xC0 DUP7 ADD DUP3 PUSH2 0xB22 JUMP JUMPDEST POP PUSH1 0xE0 DUP4 ADD MLOAD PUSH2 0xAC3 PUSH1 0xE0 DUP7 ADD DUP3 PUSH2 0xB22 JUMP JUMPDEST POP PUSH2 0x100 DUP4 ADD MLOAD PUSH2 0xAD8 PUSH2 0x100 DUP7 ADD DUP3 PUSH2 0xB22 JUMP JUMPDEST POP PUSH2 0x120 DUP4 ADD MLOAD PUSH2 0xAED PUSH2 0x120 DUP7 ADD DUP3 PUSH2 0xB22 JUMP JUMPDEST POP PUSH2 0x140 DUP4 ADD MLOAD PUSH2 0xB02 PUSH2 0x140 DUP7 ADD DUP3 PUSH2 0xB22 JUMP JUMPDEST POP PUSH2 0x160 DUP4 ADD MLOAD PUSH2 0xB17 PUSH2 0x160 DUP7 ADD DUP3 PUSH2 0xB22 JUMP JUMPDEST POP DUP1 SWAP2 POP POP SWAP3 SWAP2 POP POP JUMP JUMPDEST PUSH2 0xB2B DUP2 PUSH2 0xDC7 JUMP JUMPDEST DUP3 MSTORE POP POP JUMP JUMPDEST PUSH2 0xB3A DUP2 PUSH2 0xDC7 JUMP JUMPDEST DUP3 MSTORE POP POP JUMP JUMPDEST PUSH2 0xB51 PUSH2 0xB4C DUP3 PUSH2 0xDC7 JUMP JUMPDEST PUSH2 0xE5A JUMP JUMPDEST DUP3 MSTORE POP POP JUMP JUMPDEST PUSH1 0x0 PUSH2 0xB63 DUP3 DUP7 PUSH2 0xB40 JUMP JUMPDEST PUSH1 0x20 DUP3 ADD SWAP2 POP PUSH2 0xB73 DUP3 DUP6 PUSH2 0xB40 JUMP JUMPDEST PUSH1 0x20 DUP3 ADD SWAP2 POP PUSH2 0xB83 DUP3 DUP5 PUSH2 0x947 JUMP JUMPDEST PUSH1 0x14 DUP3 ADD SWAP2 POP DUP2 SWAP1 POP SWAP5 SWAP4 POP POP POP POP JUMP JUMPDEST PUSH1 0x0 PUSH1 0x60 DUP3 ADD SWAP1 POP PUSH2 0xBA9 PUSH1 0x0 DUP4 ADD DUP7 PUSH2 0x95E JUMP JUMPDEST PUSH2 0xBB6 PUSH1 0x20 DUP4 ADD DUP6 PUSH2 0xB31 JUMP JUMPDEST PUSH2 0xBC3 PUSH1 0x40 DUP4 ADD DUP5 PUSH2 0xB31 JUMP JUMPDEST SWAP5 SWAP4 POP POP POP POP JUMP JUMPDEST PUSH1 0x0 PUSH1 0x20 DUP3 ADD SWAP1 POP PUSH2 0xBE0 PUSH1 0x0 DUP4 ADD DUP5 PUSH2 0x96D JUMP JUMPDEST SWAP3 SWAP2 POP POP JUMP JUMPDEST PUSH1 0x0 PUSH1 0x20 DUP3 ADD SWAP1 POP DUP2 DUP2 SUB PUSH1 0x0 DUP4 ADD MSTORE PUSH2 0xBFF DUP2 PUSH2 0x9B5 JUMP JUMPDEST SWAP1 POP SWAP2 SWAP1 POP JUMP JUMPDEST PUSH1 0x0 PUSH1 0x20 DUP3 ADD SWAP1 POP DUP2 DUP2 SUB PUSH1 0x0 DUP4 ADD MSTORE PUSH2 0xC1F DUP2 PUSH2 0x9D8 JUMP JUMPDEST SWAP1 POP SWAP2 SWAP1 POP JUMP JUMPDEST PUSH1 0x0 PUSH1 0x20 DUP3 ADD SWAP1 POP DUP2 DUP2 SUB PUSH1 0x0 DUP4 ADD MSTORE PUSH2 0xC3F DUP2 PUSH2 0x9FB JUMP JUMPDEST SWAP1 POP SWAP2 SWAP1 POP JUMP JUMPDEST PUSH1 0x0 PUSH1 0x20 DUP3 ADD SWAP1 POP DUP2 DUP2 SUB PUSH1 0x0 DUP4 ADD MSTORE PUSH2 0xC60 DUP2 DUP5 PUSH2 0xA1E JUMP JUMPDEST SWAP1 POP SWAP3 SWAP2 POP POP JUMP JUMPDEST PUSH1 0x0 DUP2 MLOAD SWAP1 POP SWAP2 SWAP1 POP JUMP JUMPDEST PUSH1 0x0 DUP3 DUP3 MSTORE PUSH1 0x20 DUP3 ADD SWAP1 POP SWAP3 SWAP2 POP POP JUMP JUMPDEST PUSH1 0x0 DUP3 DUP3 MSTORE PUSH1 0x20 DUP3 ADD SWAP1 POP SWAP3 SWAP2 POP POP JUMP JUMPDEST PUSH1 0x0 PUSH2 0xCA0 DUP3 PUSH2 0xD9D JUMP JUMPDEST SWAP2 POP PUSH2 0xCAB DUP4 PUSH2 0xD9D JUMP JUMPDEST SWAP3 POP DUP2 PUSH32 0x7FFFFFFFFFFFFFFFFFFFFFFFFFFFFFFFFFFFFFFFFFFFFFFFFFFFFFFFFFFFFFFF SUB DUP4 SGT PUSH1 0x0 DUP4 SLT ISZERO AND ISZERO PUSH2 0xCE6 JUMPI PUSH2 0xCE5 PUSH2 0xE95 JUMP JUMPDEST JUMPDEST DUP2 PUSH32 0x8000000000000000000000000000000000000000000000000000000000000000 SUB DUP4 SLT PUSH1 0x0 DUP4 SLT AND ISZERO PUSH2 0xD1E JUMPI PUSH2 0xD1D PUSH2 0xE95 JUMP JUMPDEST JUMPDEST DUP3 DUP3 ADD SWAP1 POP SWAP3 SWAP2 POP POP JUMP JUMPDEST PUSH1 0x0 PUSH2 0xD34 DUP3 PUSH2 0xDC7 JUMP JUMPDEST SWAP2 POP PUSH2 0xD3F DUP4 PUSH2 0xDC7 JUMP JUMPDEST SWAP3 POP DUP3 PUSH32 0xFFFFFFFFFFFFFFFFFFFFFFFFFFFFFFFFFFFFFFFFFFFFFFFFFFFFFFFFFFFFFFFF SUB DUP3 GT ISZERO PUSH2 0xD74 JUMPI PUSH2 0xD73 PUSH2 0xE95 JUMP JUMPDEST JUMPDEST DUP3 DUP3 ADD SWAP1 POP SWAP3 SWAP2 POP POP JUMP JUMPDEST PUSH1 0x0 PUSH2 0xD8A DUP3 PUSH2 0xDA7 JUMP JUMPDEST SWAP1 POP SWAP2 SWAP1 POP JUMP JUMPDEST PUSH1 0x0 DUP2 ISZERO ISZERO SWAP1 POP SWAP2 SWAP1 POP JUMP JUMPDEST PUSH1 0x0 DUP2 SWAP1 POP SWAP2 SWAP1 POP JUMP JUMPDEST PUSH1 0x0 PUSH20 0xFFFFFFFFFFFFFFFFFFFFFFFFFFFFFFFFFFFFFFFF DUP3 AND SWAP1 POP SWAP2 SWAP1 POP JUMP JUMPDEST PUSH1 0x0 DUP2 SWAP1 POP SWAP2 SWAP1 POP JUMP JUMPDEST PUSH1 0x0 JUMPDEST DUP4 DUP2 LT ISZERO PUSH2 0xDEF JUMPI DUP1 DUP3 ADD MLOAD DUP2 DUP5 ADD MSTORE PUSH1 0x20 DUP2 ADD SWAP1 POP PUSH2 0xDD4 JUMP JUMPDEST DUP4 DUP2 GT ISZERO PUSH2 0xDFE JUMPI PUSH1 0x0 DUP5 DUP5 ADD MSTORE JUMPDEST POP POP POP POP JUMP JUMPDEST PUSH1 0x0 PUSH1 0x2 DUP3 DIV SWAP1 POP PUSH1 0x1 DUP3 AND DUP1 PUSH2 0xE1C JUMPI PUSH1 0x7F DUP3 AND SWAP2 POP JUMPDEST PUSH1 0x20 DUP3 LT DUP2 EQ ISZERO PUSH2 0xE30 JUMPI PUSH2 0xE2F PUSH2 0xEF3 JUMP JUMPDEST JUMPDEST POP SWAP2 SWAP1 POP JUMP JUMPDEST PUSH1 0x0 PUSH2 0xE41 DUP3 PUSH2 0xE48 JUMP JUMPDEST SWAP1 POP SWAP2 SWAP1 POP JUMP JUMPDEST PUSH1 0x0 PUSH2 0xE53 DUP3 PUSH2 0xF67 JUMP JUMPDEST SWAP1 POP SWAP2 SWAP1 POP JUMP JUMPDEST PUSH1 0x0 DUP2 SWAP1 POP SWAP2 SWAP1 POP JUMP JUMPDEST PUSH1 0x0 PUSH2 0xE6F DUP3 PUSH2 0xDC7 JUMP JUMPDEST SWAP2 POP PUSH2 0xE7A DUP4 PUSH2 0xDC7 JUMP JUMPDEST SWAP3 POP DUP3 PUSH2 0xE8A JUMPI PUSH2 0xE89 PUSH2 0xEC4 JUMP JUMPDEST JUMPDEST DUP3 DUP3 MOD SWAP1 POP SWAP3 SWAP2 POP POP JUMP JUMPDEST PUSH32 0x4E487B7100000000000000000000000000000000000000000000000000000000 PUSH1 0x0 MSTORE PUSH1 0x11 PUSH1 0x4 MSTORE PUSH1 0x24 PUSH1 0x0 REVERT JUMPDEST PUSH32 0x4E487B7100000000000000000000000000000000000000000000000000000000 PUSH1 0x0 MSTORE PUSH1 0x12 PUSH1 0x4 MSTORE PUSH1 0x24 PUSH1 0x0 REVERT JUMPDEST PUSH32 0x4E487B7100000000000000000000000000000000000000000000000000000000 PUSH1 0x0 MSTORE PUSH1 0x22 PUSH1 0x4 MSTORE PUSH1 0x24 PUSH1 0x0 REVERT JUMPDEST PUSH32 0x4E487B7100000000000000000000000000000000000000000000000000000000 PUSH1 0x0 MSTORE PUSH1 0x32 PUSH1 0x4 MSTORE PUSH1 0x24 PUSH1 0x0 REVERT JUMPDEST PUSH1 0x0 DUP1 REVERT JUMPDEST PUSH1 0x0 PUSH1 0x1F NOT PUSH1 0x1F DUP4 ADD AND SWAP1 POP SWAP2 SWAP1 POP JUMP JUMPDEST PUSH1 0x0 DUP2 PUSH1 0x60 SHL SWAP1 POP SWAP2 SWAP1 POP JUMP JUMPDEST PUSH32 0x416C726561647920766F7465642E000000000000000000000000000000000000 PUSH1 0x0 DUP3 ADD MSTORE POP JUMP JUMPDEST PUSH32 0x54686520766F74657220616C726561647920766F7465642E0000000000000000 PUSH1 0x0 DUP3 ADD MSTORE POP JUMP JUMPDEST PUSH32 0x52656163686564206D617820766F746572732E00000000000000000000000000 PUSH1 0x0 DUP3 ADD MSTORE POP JUMP JUMPDEST PUSH2 0xFF8 DUP2 PUSH2 0xD7F JUMP JUMPDEST DUP2 EQ PUSH2 0x1003 JUMPI PUSH1 0x0 DUP1 REVERT JUMPDEST POP JUMP JUMPDEST PUSH2 0x100F DUP2 PUSH2 0xDC7 JUMP JUMPDEST DUP2 EQ PUSH2 0x101A JUMPI PUSH1 0x0 DUP1 REVERT JUMPDEST POP JUMP INVALID LOG2 PUSH5 0x6970667358 0x22 SLT KECCAK256 RETURN 0xD6 0x4C PC 0xAF 0xA5 0xA5 0xDD 0x49 0xDC 0xB3 0xB6 PUSH2 0x411A 0xDF PUSH16 0x1F3E494A0169464953455F8CC774C264 PUSH20 0x6F6C634300080700330000000000000000000000 "
				},
				"gasEstimates": {
					"creation": {
						"codeDepositCost": "835800",
						"executionCost": "infinite",
						"totalCost": "infinite"
					},
					"external": {
						"countV()": "2429",
						"res(uint256)": "infinite",
						"vote()": "infinite",
						"voters(address)": "infinite"
					},
					"internal": {
						"random_district()": "infinite",
						"random_vote()": "infinite"
					}
				},
				"methodIdentifiers": {
					"countV()": "6d8f3f10",
					"res(uint256)": "d4e8fd2e",
					"vote()": "632a9a52",
					"voters(address)": "a3ec138d"
				}
			},
			"storageLayout": {
				"storage": [
					{
						"astId": 38,
						"contract": "smartContract/contracts/1_Ballot.sol:Ballot",
						"label": "voters",
						"offset": 0,
						"slot": "0",
						"type": "t_mapping(t_address,t_struct(Voter)8_storage)"
					},
					{
						"astId": 42,
						"contract": "smartContract/contracts/1_Ballot.sol:Ballot",
						"label": "proposals",
						"offset": 0,
						"slot": "1",
						"type": "t_array(t_struct(Proposal)33_storage)dyn_storage"
					},
					{
						"astId": 104,
						"contract": "smartContract/contracts/1_Ballot.sol:Ballot",
						"label": "countV",
						"offset": 0,
						"slot": "2",
						"type": "t_int256"
					}
				],
				"types": {
					"t_address": {
						"encoding": "inplace",
						"label": "address",
						"numberOfBytes": "20"
					},
					"t_array(t_struct(Proposal)33_storage)dyn_storage": {
						"base": "t_struct(Proposal)33_storage",
						"encoding": "dynamic_array",
						"label": "struct Ballot.Proposal[]",
						"numberOfBytes": "32"
					},
					"t_bool": {
						"encoding": "inplace",
						"label": "bool",
						"numberOfBytes": "1"
					},
					"t_int256": {
						"encoding": "inplace",
						"label": "int256",
						"numberOfBytes": "32"
					},
					"t_mapping(t_address,t_struct(Voter)8_storage)": {
						"encoding": "mapping",
						"key": "t_address",
						"label": "mapping(address => struct Ballot.Voter)",
						"numberOfBytes": "32",
						"value": "t_struct(Voter)8_storage"
					},
					"t_string_storage": {
						"encoding": "bytes",
						"label": "string",
						"numberOfBytes": "32"
					},
					"t_struct(Proposal)33_storage": {
						"encoding": "inplace",
						"label": "struct Ballot.Proposal",
						"members": [
							{
								"astId": 10,
								"contract": "smartContract/contracts/1_Ballot.sol:Ballot",
								"label": "name",
								"offset": 0,
								"slot": "0",
								"type": "t_string_storage"
							},
							{
								"astId": 12,
								"contract": "smartContract/contracts/1_Ballot.sol:Ballot",
								"label": "Total_Votes",
								"offset": 0,
								"slot": "1",
								"type": "t_uint256"
							},
							{
								"astId": 14,
								"contract": "smartContract/contracts/1_Ballot.sol:Ballot",
								"label": "Votes_District0",
								"offset": 0,
								"slot": "2",
								"type": "t_uint256"
							},
							{
								"astId": 16,
								"contract": "smartContract/contracts/1_Ballot.sol:Ballot",
								"label": "Votes_District1",
								"offset": 0,
								"slot": "3",
								"type": "t_uint256"
							},
							{
								"astId": 18,
								"contract": "smartContract/contracts/1_Ballot.sol:Ballot",
								"label": "Votes_District2",
								"offset": 0,
								"slot": "4",
								"type": "t_uint256"
							},
							{
								"astId": 20,
								"contract": "smartContract/contracts/1_Ballot.sol:Ballot",
								"label": "Votes_District3",
								"offset": 0,
								"slot": "5",
								"type": "t_uint256"
							},
							{
								"astId": 22,
								"contract": "smartContract/contracts/1_Ballot.sol:Ballot",
								"label": "Votes_District4",
								"offset": 0,
								"slot": "6",
								"type": "t_uint256"
							},
							{
								"astId": 24,
								"contract": "smartContract/contracts/1_Ballot.sol:Ballot",
								"label": "Votes_District5",
								"offset": 0,
								"slot": "7",
								"type": "t_uint256"
							},
							{
								"astId": 26,
								"contract": "smartContract/contracts/1_Ballot.sol:Ballot",
								"label": "Votes_District6",
								"offset": 0,
								"slot": "8",
								"type": "t_uint256"
							},
							{
								"astId": 28,
								"contract": "smartContract/contracts/1_Ballot.sol:Ballot",
								"label": "Votes_District7",
								"offset": 0,
								"slot": "9",
								"type": "t_uint256"
							},
							{
								"astId": 30,
								"contract": "smartContract/contracts/1_Ballot.sol:Ballot",
								"label": "Votes_District8",
								"offset": 0,
								"slot": "10",
								"type": "t_uint256"
							},
							{
								"astId": 32,
								"contract": "smartContract/contracts/1_Ballot.sol:Ballot",
								"label": "Votes_District9",
								"offset": 0,
								"slot": "11",
								"type": "t_uint256"
							}
						],
						"numberOfBytes": "384"
					},
					"t_struct(Voter)8_storage": {
						"encoding": "inplace",
						"label": "struct Ballot.Voter",
						"members": [
							{
								"astId": 3,
								"contract": "smartContract/contracts/1_Ballot.sol:Ballot",
								"label": "voted",
								"offset": 0,
								"slot": "0",
								"type": "t_bool"
							},
							{
								"astId": 5,
								"contract": "smartContract/contracts/1_Ballot.sol:Ballot",
								"label": "district",
								"offset": 0,
								"slot": "1",
								"type": "t_uint256"
							},
							{
								"astId": 7,
								"contract": "smartContract/contracts/1_Ballot.sol:Ballot",
								"label": "vote",
								"offset": 0,
								"slot": "2",
								"type": "t_uint256"
							}
						],
						"numberOfBytes": "96"
					},
					"t_uint256": {
						"encoding": "inplace",
						"label": "uint256",
						"numberOfBytes": "32"
					}
				}
			},
			"userdoc": {
				"kind": "user",
				"methods": {},
				"version": 1
			}
		}
	}
}