{
	"smartContract/contracts/3_Ballot.sol": {
		"Ballot": {
			"abi": [
				{
					"inputs": [],
					"stateMutability": "nonpayable",
					"type": "constructor"
				},
				{
					"inputs": [],
					"name": "countV",
					"outputs": [
						{
							"internalType": "int256",
							"name": "",
							"type": "int256"
						}
					],
					"stateMutability": "view",
					"type": "function"
				},
				{
					"inputs": [
						{
							"internalType": "uint256",
							"name": "_id",
							"type": "uint256"
						}
					],
					"name": "res",
					"outputs": [
						{
							"components": [
								{
									"internalType": "string",
									"name": "name",
									"type": "string"
								},
								{
									"internalType": "uint256",
									"name": "Total_Votes",
									"type": "uint256"
								},
								{
									"internalType": "uint256",
									"name": "Votes_District0",
									"type": "uint256"
								},
								{
									"internalType": "uint256",
									"name": "Votes_District1",
									"type": "uint256"
								},
								{
									"internalType": "uint256",
									"name": "Votes_District2",
									"type": "uint256"
								},
								{
									"internalType": "uint256",
									"name": "Votes_District3",
									"type": "uint256"
								},
								{
									"internalType": "uint256",
									"name": "Votes_District4",
									"type": "uint256"
								},
								{
									"internalType": "uint256",
									"name": "Votes_District5",
									"type": "uint256"
								},
								{
									"internalType": "uint256",
									"name": "Votes_District6",
									"type": "uint256"
								},
								{
									"internalType": "uint256",
									"name": "Votes_District7",
									"type": "uint256"
								},
								{
									"internalType": "uint256",
									"name": "Votes_District8",
									"type": "uint256"
								},
								{
									"internalType": "uint256",
									"name": "Votes_District9",
									"type": "uint256"
								}
							],
							"internalType": "struct Ballot.Proposal",
							"name": "",
							"type": "tuple"
						}
					],
					"stateMutability": "view",
					"type": "function"
				},
				{
					"inputs": [],
					"name": "vote",
					"outputs": [],
					"stateMutability": "nonpayable",
					"type": "function"
				},
				{
					"inputs": [
						{
							"internalType": "address",
							"name": "",
							"type": "address"
						}
					],
					"name": "voters",
					"outputs": [
						{
							"internalType": "uint256",
							"name": "weight",
							"type": "uint256"
						},
						{
							"internalType": "bool",
							"name": "voted",
							"type": "bool"
						},
						{
							"internalType": "uint256",
							"name": "district",
							"type": "uint256"
						},
						{
							"internalType": "uint256",
							"name": "vote",
							"type": "uint256"
						}
					],
					"stateMutability": "view",
					"type": "function"
				},
				{
					"inputs": [],
					"name": "winnerName",
					"outputs": [
						{
							"internalType": "string",
							"name": "winnerName_",
							"type": "string"
						}
					],
					"stateMutability": "view",
					"type": "function"
				}
			],
			"devdoc": {
				"details": "Implements voting process along with vote delegation",
				"kind": "dev",
				"methods": {},
				"title": "Ballot",
				"version": 1
			},
			"evm": {
				"assembly": "    /* \"smartContract/contracts/3_Ballot.sol\":157:4758  contract Ballot {... */\n  mstore(0x40, 0x80)\n    /* \"smartContract/contracts/3_Ballot.sol\":1922:1923  0 */\n  0x00\n    /* \"smartContract/contracts/3_Ballot.sol\":1902:1923  int public countV = 0 */\n  0x03\n  sstore\n    /* \"smartContract/contracts/3_Ballot.sol\":1081:1860  constructor() {... */\n  callvalue\n  dup1\n  iszero\n  tag_1\n  jumpi\n  0x00\n  dup1\n  revert\ntag_1:\n  pop\n    /* \"smartContract/contracts/3_Ballot.sol\":1119:1129  msg.sender */\n  caller\n    /* \"smartContract/contracts/3_Ballot.sol\":1105:1116  chairperson */\n  0x00\n  dup1\n    /* \"smartContract/contracts/3_Ballot.sol\":1105:1129  chairperson = msg.sender */\n  0x0100\n  exp\n  dup2\n  sload\n  dup2\n  0xffffffffffffffffffffffffffffffffffffffff\n  mul\n  not\n  and\n  swap1\n  dup4\n  0xffffffffffffffffffffffffffffffffffffffff\n  and\n  mul\n  or\n  swap1\n  sstore\n  pop\n    /* \"smartContract/contracts/3_Ballot.sol\":1168:1169  1 */\n  0x01\n    /* \"smartContract/contracts/3_Ballot.sol\":1139:1145  voters */\n  dup1\n    /* \"smartContract/contracts/3_Ballot.sol\":1139:1158  voters[chairperson] */\n  0x00\n    /* \"smartContract/contracts/3_Ballot.sol\":1146:1157  chairperson */\n  dup1\n  0x00\n  swap1\n  sload\n  swap1\n  0x0100\n  exp\n  swap1\n  div\n  0xffffffffffffffffffffffffffffffffffffffff\n  and\n    /* \"smartContract/contracts/3_Ballot.sol\":1139:1158  voters[chairperson] */\n  0xffffffffffffffffffffffffffffffffffffffff\n  and\n  0xffffffffffffffffffffffffffffffffffffffff\n  and\n  dup2\n  mstore\n  0x20\n  add\n  swap1\n  dup2\n  mstore\n  0x20\n  add\n  0x00\n  keccak256\n    /* \"smartContract/contracts/3_Ballot.sol\":1139:1165  voters[chairperson].weight */\n  0x00\n  add\n    /* \"smartContract/contracts/3_Ballot.sol\":1139:1169  voters[chairperson].weight = 1 */\n  dup2\n  swap1\n  sstore\n  pop\n    /* \"smartContract/contracts/3_Ballot.sol\":1179:1209  string[5] memory proposalNames */\n  0x00\n    /* \"smartContract/contracts/3_Ballot.sol\":1179:1233  string[5] memory proposalNames = [\"a\",\"b\",\"c\",\"d\",\"e\"] */\n  mload(0x40)\n  dup1\n  0xa0\n  add\n  0x40\n  mstore\n  dup1\n  mload(0x40)\n  dup1\n  0x40\n  add\n  0x40\n  mstore\n  dup1\n  0x01\n  dup2\n  mstore\n  0x20\n  add\n  0x6100000000000000000000000000000000000000000000000000000000000000\n  dup2\n  mstore\n  pop\n  dup2\n  mstore\n  0x20\n  add\n  mload(0x40)\n  dup1\n  0x40\n  add\n  0x40\n  mstore\n  dup1\n  0x01\n  dup2\n  mstore\n  0x20\n  add\n  0x6200000000000000000000000000000000000000000000000000000000000000\n  dup2\n  mstore\n  pop\n  dup2\n  mstore\n  0x20\n  add\n  mload(0x40)\n  dup1\n  0x40\n  add\n  0x40\n  mstore\n  dup1\n  0x01\n  dup2\n  mstore\n  0x20\n  add\n  0x6300000000000000000000000000000000000000000000000000000000000000\n  dup2\n  mstore\n  pop\n  dup2\n  mstore\n  0x20\n  add\n  mload(0x40)\n  dup1\n  0x40\n  add\n  0x40\n  mstore\n  dup1\n  0x01\n  dup2\n  mstore\n  0x20\n  add\n  0x6400000000000000000000000000000000000000000000000000000000000000\n  dup2\n  mstore\n  pop\n  dup2\n  mstore\n  0x20\n  add\n  mload(0x40)\n  dup1\n  0x40\n  add\n  0x40\n  mstore\n  dup1\n  0x01\n  dup2\n  mstore\n  0x20\n  add\n  0x6500000000000000000000000000000000000000000000000000000000000000\n  dup2\n  mstore\n  pop\n  dup2\n  mstore\n  pop\n  swap1\n  pop\n    /* \"smartContract/contracts/3_Ballot.sol\":1273:1274  5 */\n  0x05\n    /* \"smartContract/contracts/3_Ballot.sol\":1251:1271  proposalNames.length */\n  dup1\n    /* \"smartContract/contracts/3_Ballot.sol\":1251:1274  proposalNames.length==5 */\n  eq\n    /* \"smartContract/contracts/3_Ballot.sol\":1243:1299  require(proposalNames.length==5,\"Candidates must be 5.\") */\n  tag_4\n  jumpi\n  mload(0x40)\n  0x08c379a000000000000000000000000000000000000000000000000000000000\n  dup2\n  mstore\n  0x04\n  add\n  tag_5\n  swap1\n  tag_6\n  jump\t// in\ntag_5:\n  mload(0x40)\n  dup1\n  swap2\n  sub\n  swap1\n  revert\ntag_4:\n    /* \"smartContract/contracts/3_Ballot.sol\":1314:1320  uint i */\n  0x00\n    /* \"smartContract/contracts/3_Ballot.sol\":1309:1854  for (uint i = 0; i < proposalNames.length; i++) {... */\ntag_7:\n    /* \"smartContract/contracts/3_Ballot.sol\":1330:1350  proposalNames.length */\n  0x05\n    /* \"smartContract/contracts/3_Ballot.sol\":1326:1327  i */\n  dup2\n    /* \"smartContract/contracts/3_Ballot.sol\":1326:1350  i < proposalNames.length */\n  lt\n    /* \"smartContract/contracts/3_Ballot.sol\":1309:1854  for (uint i = 0; i < proposalNames.length; i++) {... */\n  iszero\n  tag_8\n  jumpi\n    /* \"smartContract/contracts/3_Ballot.sol\":1371:1380  proposals */\n  0x02\n    /* \"smartContract/contracts/3_Ballot.sol\":1386:1842  Proposal({... */\n  mload(0x40)\n  dup1\n  0x0180\n  add\n  0x40\n  mstore\n  dup1\n    /* \"smartContract/contracts/3_Ballot.sol\":1419:1432  proposalNames */\n  dup5\n    /* \"smartContract/contracts/3_Ballot.sol\":1433:1434  i */\n  dup5\n    /* \"smartContract/contracts/3_Ballot.sol\":1419:1435  proposalNames[i] */\n  0x05\n  dup2\n  lt\n  tag_10\n  jumpi\n  tag_11\n  tag_12\n  jump\t// in\ntag_11:\ntag_10:\n  0x20\n  mul\n  add\n  mload\n    /* \"smartContract/contracts/3_Ballot.sol\":1386:1842  Proposal({... */\n  dup2\n  mstore\n  0x20\n  add\n    /* \"smartContract/contracts/3_Ballot.sol\":1466:1467  0 */\n  0x00\n    /* \"smartContract/contracts/3_Ballot.sol\":1386:1842  Proposal({... */\n  dup2\n  mstore\n  0x20\n  add\n    /* \"smartContract/contracts/3_Ballot.sol\":1502:1503  0 */\n  0x00\n    /* \"smartContract/contracts/3_Ballot.sol\":1386:1842  Proposal({... */\n  dup2\n  mstore\n  0x20\n  add\n    /* \"smartContract/contracts/3_Ballot.sol\":1538:1539  0 */\n  0x00\n    /* \"smartContract/contracts/3_Ballot.sol\":1386:1842  Proposal({... */\n  dup2\n  mstore\n  0x20\n  add\n    /* \"smartContract/contracts/3_Ballot.sol\":1574:1575  0 */\n  0x00\n    /* \"smartContract/contracts/3_Ballot.sol\":1386:1842  Proposal({... */\n  dup2\n  mstore\n  0x20\n  add\n    /* \"smartContract/contracts/3_Ballot.sol\":1610:1611  0 */\n  0x00\n    /* \"smartContract/contracts/3_Ballot.sol\":1386:1842  Proposal({... */\n  dup2\n  mstore\n  0x20\n  add\n    /* \"smartContract/contracts/3_Ballot.sol\":1646:1647  0 */\n  0x00\n    /* \"smartContract/contracts/3_Ballot.sol\":1386:1842  Proposal({... */\n  dup2\n  mstore\n  0x20\n  add\n    /* \"smartContract/contracts/3_Ballot.sol\":1682:1683  0 */\n  0x00\n    /* \"smartContract/contracts/3_Ballot.sol\":1386:1842  Proposal({... */\n  dup2\n  mstore\n  0x20\n  add\n    /* \"smartContract/contracts/3_Ballot.sol\":1718:1719  0 */\n  0x00\n    /* \"smartContract/contracts/3_Ballot.sol\":1386:1842  Proposal({... */\n  dup2\n  mstore\n  0x20\n  add\n    /* \"smartContract/contracts/3_Ballot.sol\":1754:1755  0 */\n  0x00\n    /* \"smartContract/contracts/3_Ballot.sol\":1386:1842  Proposal({... */\n  dup2\n  mstore\n  0x20\n  add\n    /* \"smartContract/contracts/3_Ballot.sol\":1790:1791  0 */\n  0x00\n    /* \"smartContract/contracts/3_Ballot.sol\":1386:1842  Proposal({... */\n  dup2\n  mstore\n  0x20\n  add\n    /* \"smartContract/contracts/3_Ballot.sol\":1826:1827  0 */\n  0x00\n    /* \"smartContract/contracts/3_Ballot.sol\":1386:1842  Proposal({... */\n  dup2\n  mstore\n  pop\n    /* \"smartContract/contracts/3_Ballot.sol\":1371:1843  proposals.push(Proposal({... */\n  swap1\n  dup1\n  0x01\n  dup2\n  sload\n  add\n  dup1\n  dup3\n  sstore\n  dup1\n  swap2\n  pop\n  pop\n  0x01\n  swap1\n  sub\n  swap1\n  0x00\n  mstore\n  keccak256(0x00, 0x20)\n  swap1\n  0x0c\n  mul\n  add\n  0x00\n  swap1\n  swap2\n  swap1\n  swap2\n  swap1\n  swap2\n  pop\n  0x00\n  dup3\n  add\n  mload\n  dup2\n  0x00\n  add\n  swap1\n  dup1\n  mload\n  swap1\n  0x20\n  add\n  swap1\n  tag_14\n  swap3\n  swap2\n  swap1\n  tag_15\n  jump\t// in\ntag_14:\n  pop\n  0x20\n  dup3\n  add\n  mload\n  dup2\n  0x01\n  add\n  sstore\n  0x40\n  dup3\n  add\n  mload\n  dup2\n  0x02\n  add\n  sstore\n  0x60\n  dup3\n  add\n  mload\n  dup2\n  0x03\n  add\n  sstore\n  0x80\n  dup3\n  add\n  mload\n  dup2\n  0x04\n  add\n  sstore\n  0xa0\n  dup3\n  add\n  mload\n  dup2\n  0x05\n  add\n  sstore\n  0xc0\n  dup3\n  add\n  mload\n  dup2\n  0x06\n  add\n  sstore\n  0xe0\n  dup3\n  add\n  mload\n  dup2\n  0x07\n  add\n  sstore\n  0x0100\n  dup3\n  add\n  mload\n  dup2\n  0x08\n  add\n  sstore\n  0x0120\n  dup3\n  add\n  mload\n  dup2\n  0x09\n  add\n  sstore\n  0x0140\n  dup3\n  add\n  mload\n  dup2\n  0x0a\n  add\n  sstore\n  0x0160\n  dup3\n  add\n  mload\n  dup2\n  0x0b\n  add\n  sstore\n  pop\n  pop\n    /* \"smartContract/contracts/3_Ballot.sol\":1352:1355  i++ */\n  dup1\n  dup1\n  tag_16\n  swap1\n  tag_17\n  jump\t// in\ntag_16:\n  swap2\n  pop\n  pop\n    /* \"smartContract/contracts/3_Ballot.sol\":1309:1854  for (uint i = 0; i < proposalNames.length; i++) {... */\n  jump(tag_7)\ntag_8:\n  pop\n    /* \"smartContract/contracts/3_Ballot.sol\":1095:1860  {... */\n  pop\n    /* \"smartContract/contracts/3_Ballot.sol\":157:4758  contract Ballot {... */\n  jump(tag_18)\ntag_15:\n  dup3\n  dup1\n  sload\n  tag_19\n  swap1\n  tag_20\n  jump\t// in\ntag_19:\n  swap1\n  0x00\n  mstore\n  keccak256(0x00, 0x20)\n  swap1\n  0x1f\n  add\n  0x20\n  swap1\n  div\n  dup2\n  add\n  swap3\n  dup3\n  tag_22\n  jumpi\n  0x00\n  dup6\n  sstore\n  jump(tag_21)\ntag_22:\n  dup3\n  0x1f\n  lt\n  tag_23\n  jumpi\n  dup1\n  mload\n  not(0xff)\n  and\n  dup4\n  dup1\n  add\n  or\n  dup6\n  sstore\n  jump(tag_21)\ntag_23:\n  dup3\n  dup1\n  add\n  0x01\n  add\n  dup6\n  sstore\n  dup3\n  iszero\n  tag_21\n  jumpi\n  swap2\n  dup3\n  add\ntag_24:\n  dup3\n  dup2\n  gt\n  iszero\n  tag_25\n  jumpi\n  dup3\n  mload\n  dup3\n  sstore\n  swap2\n  0x20\n  add\n  swap2\n  swap1\n  0x01\n  add\n  swap1\n  jump(tag_24)\ntag_25:\ntag_21:\n  pop\n  swap1\n  pop\n  tag_26\n  swap2\n  swap1\n  tag_27\n  jump\t// in\ntag_26:\n  pop\n  swap1\n  jump\t// out\ntag_27:\ntag_28:\n  dup1\n  dup3\n  gt\n  iszero\n  tag_29\n  jumpi\n  0x00\n  dup2\n  0x00\n  swap1\n  sstore\n  pop\n  0x01\n  add\n  jump(tag_28)\ntag_29:\n  pop\n  swap1\n  jump\t// out\n    /* \"#utility.yul\":7:373   */\ntag_31:\n    /* \"#utility.yul\":149:152   */\n  0x00\n    /* \"#utility.yul\":170:237   */\n  tag_33\n    /* \"#utility.yul\":234:236   */\n  0x15\n    /* \"#utility.yul\":229:232   */\n  dup4\n    /* \"#utility.yul\":170:237   */\n  tag_34\n  jump\t// in\ntag_33:\n    /* \"#utility.yul\":163:237   */\n  swap2\n  pop\n    /* \"#utility.yul\":246:339   */\n  tag_35\n    /* \"#utility.yul\":335:338   */\n  dup3\n    /* \"#utility.yul\":246:339   */\n  tag_36\n  jump\t// in\ntag_35:\n    /* \"#utility.yul\":364:366   */\n  0x20\n    /* \"#utility.yul\":359:362   */\n  dup3\n    /* \"#utility.yul\":355:367   */\n  add\n    /* \"#utility.yul\":348:367   */\n  swap1\n  pop\n    /* \"#utility.yul\":7:373   */\n  swap2\n  swap1\n  pop\n  jump\t// out\n    /* \"#utility.yul\":379:798   */\ntag_6:\n    /* \"#utility.yul\":545:549   */\n  0x00\n    /* \"#utility.yul\":583:585   */\n  0x20\n    /* \"#utility.yul\":572:581   */\n  dup3\n    /* \"#utility.yul\":568:586   */\n  add\n    /* \"#utility.yul\":560:586   */\n  swap1\n  pop\n    /* \"#utility.yul\":632:641   */\n  dup2\n    /* \"#utility.yul\":626:630   */\n  dup2\n    /* \"#utility.yul\":622:642   */\n  sub\n    /* \"#utility.yul\":618:619   */\n  0x00\n    /* \"#utility.yul\":607:616   */\n  dup4\n    /* \"#utility.yul\":603:620   */\n  add\n    /* \"#utility.yul\":596:643   */\n  mstore\n    /* \"#utility.yul\":660:791   */\n  tag_38\n    /* \"#utility.yul\":786:790   */\n  dup2\n    /* \"#utility.yul\":660:791   */\n  tag_31\n  jump\t// in\ntag_38:\n    /* \"#utility.yul\":652:791   */\n  swap1\n  pop\n    /* \"#utility.yul\":379:798   */\n  swap2\n  swap1\n  pop\n  jump\t// out\n    /* \"#utility.yul\":804:973   */\ntag_34:\n    /* \"#utility.yul\":888:899   */\n  0x00\n    /* \"#utility.yul\":922:928   */\n  dup3\n    /* \"#utility.yul\":917:920   */\n  dup3\n    /* \"#utility.yul\":910:929   */\n  mstore\n    /* \"#utility.yul\":962:966   */\n  0x20\n    /* \"#utility.yul\":957:960   */\n  dup3\n    /* \"#utility.yul\":953:967   */\n  add\n    /* \"#utility.yul\":938:967   */\n  swap1\n  pop\n    /* \"#utility.yul\":804:973   */\n  swap3\n  swap2\n  pop\n  pop\n  jump\t// out\n    /* \"#utility.yul\":979:1056   */\ntag_40:\n    /* \"#utility.yul\":1016:1023   */\n  0x00\n    /* \"#utility.yul\":1045:1050   */\n  dup2\n    /* \"#utility.yul\":1034:1050   */\n  swap1\n  pop\n    /* \"#utility.yul\":979:1056   */\n  swap2\n  swap1\n  pop\n  jump\t// out\n    /* \"#utility.yul\":1062:1382   */\ntag_20:\n    /* \"#utility.yul\":1106:1112   */\n  0x00\n    /* \"#utility.yul\":1143:1144   */\n  0x02\n    /* \"#utility.yul\":1137:1141   */\n  dup3\n    /* \"#utility.yul\":1133:1145   */\n  div\n    /* \"#utility.yul\":1123:1145   */\n  swap1\n  pop\n    /* \"#utility.yul\":1190:1191   */\n  0x01\n    /* \"#utility.yul\":1184:1188   */\n  dup3\n    /* \"#utility.yul\":1180:1192   */\n  and\n    /* \"#utility.yul\":1211:1229   */\n  dup1\n    /* \"#utility.yul\":1201:1282   */\n  tag_43\n  jumpi\n    /* \"#utility.yul\":1267:1271   */\n  0x7f\n    /* \"#utility.yul\":1259:1265   */\n  dup3\n    /* \"#utility.yul\":1255:1272   */\n  and\n    /* \"#utility.yul\":1245:1272   */\n  swap2\n  pop\n    /* \"#utility.yul\":1201:1282   */\ntag_43:\n    /* \"#utility.yul\":1329:1331   */\n  0x20\n    /* \"#utility.yul\":1321:1327   */\n  dup3\n    /* \"#utility.yul\":1318:1332   */\n  lt\n    /* \"#utility.yul\":1298:1316   */\n  dup2\n    /* \"#utility.yul\":1295:1333   */\n  eq\n    /* \"#utility.yul\":1292:1376   */\n  iszero\n  tag_44\n  jumpi\n    /* \"#utility.yul\":1348:1366   */\n  tag_45\n  tag_46\n  jump\t// in\ntag_45:\n    /* \"#utility.yul\":1292:1376   */\ntag_44:\n    /* \"#utility.yul\":1113:1382   */\n  pop\n    /* \"#utility.yul\":1062:1382   */\n  swap2\n  swap1\n  pop\n  jump\t// out\n    /* \"#utility.yul\":1388:1621   */\ntag_17:\n    /* \"#utility.yul\":1427:1430   */\n  0x00\n    /* \"#utility.yul\":1450:1474   */\n  tag_48\n    /* \"#utility.yul\":1468:1473   */\n  dup3\n    /* \"#utility.yul\":1450:1474   */\n  tag_40\n  jump\t// in\ntag_48:\n    /* \"#utility.yul\":1441:1474   */\n  swap2\n  pop\n    /* \"#utility.yul\":1496:1562   */\n  0xffffffffffffffffffffffffffffffffffffffffffffffffffffffffffffffff\n    /* \"#utility.yul\":1489:1494   */\n  dup3\n    /* \"#utility.yul\":1486:1563   */\n  eq\n    /* \"#utility.yul\":1483:1586   */\n  iszero\n  tag_49\n  jumpi\n    /* \"#utility.yul\":1566:1584   */\n  tag_50\n  tag_51\n  jump\t// in\ntag_50:\n    /* \"#utility.yul\":1483:1586   */\ntag_49:\n    /* \"#utility.yul\":1613:1614   */\n  0x01\n    /* \"#utility.yul\":1606:1611   */\n  dup3\n    /* \"#utility.yul\":1602:1615   */\n  add\n    /* \"#utility.yul\":1595:1615   */\n  swap1\n  pop\n    /* \"#utility.yul\":1388:1621   */\n  swap2\n  swap1\n  pop\n  jump\t// out\n    /* \"#utility.yul\":1627:1807   */\ntag_51:\n    /* \"#utility.yul\":1675:1752   */\n  0x4e487b7100000000000000000000000000000000000000000000000000000000\n    /* \"#utility.yul\":1672:1673   */\n  0x00\n    /* \"#utility.yul\":1665:1753   */\n  mstore\n    /* \"#utility.yul\":1772:1776   */\n  0x11\n    /* \"#utility.yul\":1769:1770   */\n  0x04\n    /* \"#utility.yul\":1762:1777   */\n  mstore\n    /* \"#utility.yul\":1796:1800   */\n  0x24\n    /* \"#utility.yul\":1793:1794   */\n  0x00\n    /* \"#utility.yul\":1786:1801   */\n  revert\n    /* \"#utility.yul\":1813:1993   */\ntag_46:\n    /* \"#utility.yul\":1861:1938   */\n  0x4e487b7100000000000000000000000000000000000000000000000000000000\n    /* \"#utility.yul\":1858:1859   */\n  0x00\n    /* \"#utility.yul\":1851:1939   */\n  mstore\n    /* \"#utility.yul\":1958:1962   */\n  0x22\n    /* \"#utility.yul\":1955:1956   */\n  0x04\n    /* \"#utility.yul\":1948:1963   */\n  mstore\n    /* \"#utility.yul\":1982:1986   */\n  0x24\n    /* \"#utility.yul\":1979:1980   */\n  0x00\n    /* \"#utility.yul\":1972:1987   */\n  revert\n    /* \"#utility.yul\":1999:2179   */\ntag_12:\n    /* \"#utility.yul\":2047:2124   */\n  0x4e487b7100000000000000000000000000000000000000000000000000000000\n    /* \"#utility.yul\":2044:2045   */\n  0x00\n    /* \"#utility.yul\":2037:2125   */\n  mstore\n    /* \"#utility.yul\":2144:2148   */\n  0x32\n    /* \"#utility.yul\":2141:2142   */\n  0x04\n    /* \"#utility.yul\":2134:2149   */\n  mstore\n    /* \"#utility.yul\":2168:2172   */\n  0x24\n    /* \"#utility.yul\":2165:2166   */\n  0x00\n    /* \"#utility.yul\":2158:2173   */\n  revert\n    /* \"#utility.yul\":2185:2356   */\ntag_36:\n    /* \"#utility.yul\":2325:2348   */\n  0x43616e64696461746573206d75737420626520352e0000000000000000000000\n    /* \"#utility.yul\":2321:2322   */\n  0x00\n    /* \"#utility.yul\":2313:2319   */\n  dup3\n    /* \"#utility.yul\":2309:2323   */\n  add\n    /* \"#utility.yul\":2302:2349   */\n  mstore\n    /* \"#utility.yul\":2185:2356   */\n  pop\n  jump\t// out\n    /* \"smartContract/contracts/3_Ballot.sol\":157:4758  contract Ballot {... */\ntag_18:\n  dataSize(sub_0)\n  dup1\n  dataOffset(sub_0)\n  0x00\n  codecopy\n  0x00\n  return\nstop\n\nsub_0: assembly {\n        /* \"smartContract/contracts/3_Ballot.sol\":157:4758  contract Ballot {... */\n      mstore(0x40, 0x80)\n      callvalue\n      dup1\n      iszero\n      tag_1\n      jumpi\n      0x00\n      dup1\n      revert\n    tag_1:\n      pop\n      jumpi(tag_2, lt(calldatasize, 0x04))\n      shr(0xe0, calldataload(0x00))\n      dup1\n      0x632a9a52\n      eq\n      tag_3\n      jumpi\n      dup1\n      0x6d8f3f10\n      eq\n      tag_4\n      jumpi\n      dup1\n      0xa3ec138d\n      eq\n      tag_5\n      jumpi\n      dup1\n      0xd4e8fd2e\n      eq\n      tag_6\n      jumpi\n      dup1\n      0xe2ba53f0\n      eq\n      tag_7\n      jumpi\n    tag_2:\n      0x00\n      dup1\n      revert\n        /* \"smartContract/contracts/3_Ballot.sol\":2289:3916  function vote() public {... */\n    tag_3:\n      tag_8\n      tag_9\n      jump\t// in\n    tag_8:\n      stop\n        /* \"smartContract/contracts/3_Ballot.sol\":1902:1923  int public countV = 0 */\n    tag_4:\n      tag_10\n      tag_11\n      jump\t// in\n    tag_10:\n      mload(0x40)\n      tag_12\n      swap2\n      swap1\n      tag_13\n      jump\t// in\n    tag_12:\n      mload(0x40)\n      dup1\n      swap2\n      sub\n      swap1\n      return\n        /* \"smartContract/contracts/3_Ballot.sol\":814:853  mapping(address => Voter) public voters */\n    tag_5:\n      tag_14\n      0x04\n      dup1\n      calldatasize\n      sub\n      dup2\n      add\n      swap1\n      tag_15\n      swap2\n      swap1\n      tag_16\n      jump\t// in\n    tag_15:\n      tag_17\n      jump\t// in\n    tag_14:\n      mload(0x40)\n      tag_18\n      swap5\n      swap4\n      swap3\n      swap2\n      swap1\n      tag_19\n      jump\t// in\n    tag_18:\n      mload(0x40)\n      dup1\n      swap2\n      sub\n      swap1\n      return\n        /* \"smartContract/contracts/3_Ballot.sol\":3922:4019  function res(uint _id) public view returns(Proposal memory){... */\n    tag_6:\n      tag_20\n      0x04\n      dup1\n      calldatasize\n      sub\n      dup2\n      add\n      swap1\n      tag_21\n      swap2\n      swap1\n      tag_22\n      jump\t// in\n    tag_21:\n      tag_23\n      jump\t// in\n    tag_20:\n      mload(0x40)\n      tag_24\n      swap2\n      swap1\n      tag_25\n      jump\t// in\n    tag_24:\n      mload(0x40)\n      dup1\n      swap2\n      sub\n      swap1\n      return\n        /* \"smartContract/contracts/3_Ballot.sol\":4527:4756  function winnerName() public view... */\n    tag_7:\n      tag_26\n      tag_27\n      jump\t// in\n    tag_26:\n      mload(0x40)\n      tag_28\n      swap2\n      swap1\n      tag_29\n      jump\t// in\n    tag_28:\n      mload(0x40)\n      dup1\n      swap2\n      sub\n      swap1\n      return\n        /* \"smartContract/contracts/3_Ballot.sol\":2289:3916  function vote() public {... */\n    tag_9:\n        /* \"smartContract/contracts/3_Ballot.sol\":2332:2338  voters */\n      0x01\n        /* \"smartContract/contracts/3_Ballot.sol\":2332:2350  voters[msg.sender] */\n      0x00\n        /* \"smartContract/contracts/3_Ballot.sol\":2339:2349  msg.sender */\n      caller\n        /* \"smartContract/contracts/3_Ballot.sol\":2332:2350  voters[msg.sender] */\n      0xffffffffffffffffffffffffffffffffffffffff\n      and\n      0xffffffffffffffffffffffffffffffffffffffff\n      and\n      dup2\n      mstore\n      0x20\n      add\n      swap1\n      dup2\n      mstore\n      0x20\n      add\n      0x00\n      keccak256\n        /* \"smartContract/contracts/3_Ballot.sol\":2332:2356  voters[msg.sender].voted */\n      0x01\n      add\n      0x00\n      swap1\n      sload\n      swap1\n      0x0100\n      exp\n      swap1\n      div\n      0xff\n      and\n        /* \"smartContract/contracts/3_Ballot.sol\":2331:2356  !voters[msg.sender].voted */\n      iszero\n        /* \"smartContract/contracts/3_Ballot.sol\":2323:2397  require(!voters[msg.sender].voted,... */\n      tag_31\n      jumpi\n      mload(0x40)\n      0x08c379a000000000000000000000000000000000000000000000000000000000\n      dup2\n      mstore\n      0x04\n      add\n      tag_32\n      swap1\n      tag_33\n      jump\t// in\n    tag_32:\n      mload(0x40)\n      dup1\n      swap2\n      sub\n      swap1\n      revert\n    tag_31:\n        /* \"smartContract/contracts/3_Ballot.sol\":2436:2437  1 */\n      0x01\n        /* \"smartContract/contracts/3_Ballot.sol\":2408:2414  voters */\n      dup1\n        /* \"smartContract/contracts/3_Ballot.sol\":2408:2426  voters[msg.sender] */\n      0x00\n        /* \"smartContract/contracts/3_Ballot.sol\":2415:2425  msg.sender */\n      caller\n        /* \"smartContract/contracts/3_Ballot.sol\":2408:2426  voters[msg.sender] */\n      0xffffffffffffffffffffffffffffffffffffffff\n      and\n      0xffffffffffffffffffffffffffffffffffffffff\n      and\n      dup2\n      mstore\n      0x20\n      add\n      swap1\n      dup2\n      mstore\n      0x20\n      add\n      0x00\n      keccak256\n        /* \"smartContract/contracts/3_Ballot.sol\":2408:2433  voters[msg.sender].weight */\n      0x00\n      add\n        /* \"smartContract/contracts/3_Ballot.sol\":2408:2437  voters[msg.sender].weight = 1 */\n      dup2\n      swap1\n      sstore\n      pop\n        /* \"smartContract/contracts/3_Ballot.sol\":2463:2466  100 */\n      0x64\n        /* \"smartContract/contracts/3_Ballot.sol\":2455:2461  countV */\n      sload(0x03)\n        /* \"smartContract/contracts/3_Ballot.sol\":2455:2466  countV<=100 */\n      sgt\n      iszero\n        /* \"smartContract/contracts/3_Ballot.sol\":2447:2489  require(countV<=100,\"Reached max voters.\") */\n      tag_34\n      jumpi\n      mload(0x40)\n      0x08c379a000000000000000000000000000000000000000000000000000000000\n      dup2\n      mstore\n      0x04\n      add\n      tag_35\n      swap1\n      tag_36\n      jump\t// in\n    tag_35:\n      mload(0x40)\n      dup1\n      swap2\n      sub\n      swap1\n      revert\n    tag_34:\n        /* \"smartContract/contracts/3_Ballot.sol\":2528:2545  random_district() */\n      tag_37\n        /* \"smartContract/contracts/3_Ballot.sol\":2528:2543  random_district */\n      tag_38\n        /* \"smartContract/contracts/3_Ballot.sol\":2528:2545  random_district() */\n      jump\t// in\n    tag_37:\n        /* \"smartContract/contracts/3_Ballot.sol\":2500:2506  voters */\n      0x01\n        /* \"smartContract/contracts/3_Ballot.sol\":2500:2518  voters[msg.sender] */\n      0x00\n        /* \"smartContract/contracts/3_Ballot.sol\":2507:2517  msg.sender */\n      caller\n        /* \"smartContract/contracts/3_Ballot.sol\":2500:2518  voters[msg.sender] */\n      0xffffffffffffffffffffffffffffffffffffffff\n      and\n      0xffffffffffffffffffffffffffffffffffffffff\n      and\n      dup2\n      mstore\n      0x20\n      add\n      swap1\n      dup2\n      mstore\n      0x20\n      add\n      0x00\n      keccak256\n        /* \"smartContract/contracts/3_Ballot.sol\":2500:2527  voters[msg.sender].district */\n      0x02\n      add\n        /* \"smartContract/contracts/3_Ballot.sol\":2500:2545  voters[msg.sender].district=random_district() */\n      dup2\n      swap1\n      sstore\n      pop\n        /* \"smartContract/contracts/3_Ballot.sol\":2556:2576  Voter storage sender */\n      0x00\n        /* \"smartContract/contracts/3_Ballot.sol\":2579:2585  voters */\n      0x01\n        /* \"smartContract/contracts/3_Ballot.sol\":2579:2597  voters[msg.sender] */\n      0x00\n        /* \"smartContract/contracts/3_Ballot.sol\":2586:2596  msg.sender */\n      caller\n        /* \"smartContract/contracts/3_Ballot.sol\":2579:2597  voters[msg.sender] */\n      0xffffffffffffffffffffffffffffffffffffffff\n      and\n      0xffffffffffffffffffffffffffffffffffffffff\n      and\n      dup2\n      mstore\n      0x20\n      add\n      swap1\n      dup2\n      mstore\n      0x20\n      add\n      0x00\n      keccak256\n        /* \"smartContract/contracts/3_Ballot.sol\":2556:2597  Voter storage sender = voters[msg.sender] */\n      swap1\n      pop\n        /* \"smartContract/contracts/3_Ballot.sol\":2730:2736  sender */\n      dup1\n        /* \"smartContract/contracts/3_Ballot.sol\":2730:2742  sender.voted */\n      0x01\n      add\n      0x00\n      swap1\n      sload\n      swap1\n      0x0100\n      exp\n      swap1\n      div\n      0xff\n      and\n        /* \"smartContract/contracts/3_Ballot.sol\":2729:2742  !sender.voted */\n      iszero\n        /* \"smartContract/contracts/3_Ballot.sol\":2721:2761  require(!sender.voted, \"Already voted.\") */\n      tag_39\n      jumpi\n      mload(0x40)\n      0x08c379a000000000000000000000000000000000000000000000000000000000\n      dup2\n      mstore\n      0x04\n      add\n      tag_40\n      swap1\n      tag_41\n      jump\t// in\n    tag_40:\n      mload(0x40)\n      dup1\n      swap2\n      sub\n      swap1\n      revert\n    tag_39:\n        /* \"smartContract/contracts/3_Ballot.sol\":2786:2790  true */\n      0x01\n        /* \"smartContract/contracts/3_Ballot.sol\":2771:2777  sender */\n      dup2\n        /* \"smartContract/contracts/3_Ballot.sol\":2771:2783  sender.voted */\n      0x01\n      add\n      0x00\n        /* \"smartContract/contracts/3_Ballot.sol\":2771:2790  sender.voted = true */\n      0x0100\n      exp\n      dup2\n      sload\n      dup2\n      0xff\n      mul\n      not\n      and\n      swap1\n      dup4\n      iszero\n      iszero\n      mul\n      or\n      swap1\n      sstore\n      pop\n        /* \"smartContract/contracts/3_Ballot.sol\":2859:2872  random_vote() */\n      tag_42\n        /* \"smartContract/contracts/3_Ballot.sol\":2859:2870  random_vote */\n      tag_43\n        /* \"smartContract/contracts/3_Ballot.sol\":2859:2872  random_vote() */\n      jump\t// in\n    tag_42:\n        /* \"smartContract/contracts/3_Ballot.sol\":2845:2851  sender */\n      dup2\n        /* \"smartContract/contracts/3_Ballot.sol\":2845:2856  sender.vote */\n      0x03\n      add\n        /* \"smartContract/contracts/3_Ballot.sol\":2845:2872  sender.vote = random_vote() */\n      dup2\n      swap1\n      sstore\n      pop\n        /* \"smartContract/contracts/3_Ballot.sol\":2882:2895  countVoters() */\n      tag_44\n        /* \"smartContract/contracts/3_Ballot.sol\":2882:2893  countVoters */\n      tag_45\n        /* \"smartContract/contracts/3_Ballot.sol\":2882:2895  countVoters() */\n      jump\t// in\n    tag_44:\n        /* \"smartContract/contracts/3_Ballot.sol\":2954:2960  sender */\n      dup1\n        /* \"smartContract/contracts/3_Ballot.sol\":2954:2967  sender.weight */\n      0x00\n      add\n      sload\n        /* \"smartContract/contracts/3_Ballot.sol\":2914:2923  proposals */\n      0x02\n        /* \"smartContract/contracts/3_Ballot.sol\":2924:2937  random_vote() */\n      tag_46\n        /* \"smartContract/contracts/3_Ballot.sol\":2924:2935  random_vote */\n      tag_43\n        /* \"smartContract/contracts/3_Ballot.sol\":2924:2937  random_vote() */\n      jump\t// in\n    tag_46:\n        /* \"smartContract/contracts/3_Ballot.sol\":2914:2938  proposals[random_vote()] */\n      dup2\n      sload\n      dup2\n      lt\n      tag_47\n      jumpi\n      tag_48\n      tag_49\n      jump\t// in\n    tag_48:\n    tag_47:\n      swap1\n      0x00\n      mstore\n      keccak256(0x00, 0x20)\n      swap1\n      0x0c\n      mul\n      add\n        /* \"smartContract/contracts/3_Ballot.sol\":2914:2950  proposals[random_vote()].Total_Votes */\n      0x01\n      add\n      0x00\n        /* \"smartContract/contracts/3_Ballot.sol\":2914:2967  proposals[random_vote()].Total_Votes += sender.weight */\n      dup3\n      dup3\n      sload\n      tag_51\n      swap2\n      swap1\n      tag_52\n      jump\t// in\n    tag_51:\n      swap3\n      pop\n      pop\n      dup2\n      swap1\n      sstore\n      pop\n        /* \"smartContract/contracts/3_Ballot.sol\":2998:2999  0 */\n      0x00\n        /* \"smartContract/contracts/3_Ballot.sol\":2981:2987  sender */\n      dup2\n        /* \"smartContract/contracts/3_Ballot.sol\":2981:2996  sender.district */\n      0x02\n      add\n      sload\n        /* \"smartContract/contracts/3_Ballot.sol\":2981:2999  sender.district==0 */\n      eq\n        /* \"smartContract/contracts/3_Ballot.sol\":2977:3910  if (sender.district==0){proposals[random_vote()].Votes_District0 += sender.weight;}... */\n      iszero\n      tag_53\n      jumpi\n        /* \"smartContract/contracts/3_Ballot.sol\":3045:3051  sender */\n      dup1\n        /* \"smartContract/contracts/3_Ballot.sol\":3045:3058  sender.weight */\n      0x00\n      add\n      sload\n        /* \"smartContract/contracts/3_Ballot.sol\":3001:3010  proposals */\n      0x02\n        /* \"smartContract/contracts/3_Ballot.sol\":3011:3024  random_vote() */\n      tag_54\n        /* \"smartContract/contracts/3_Ballot.sol\":3011:3022  random_vote */\n      tag_43\n        /* \"smartContract/contracts/3_Ballot.sol\":3011:3024  random_vote() */\n      jump\t// in\n    tag_54:\n        /* \"smartContract/contracts/3_Ballot.sol\":3001:3025  proposals[random_vote()] */\n      dup2\n      sload\n      dup2\n      lt\n      tag_55\n      jumpi\n      tag_56\n      tag_49\n      jump\t// in\n    tag_56:\n    tag_55:\n      swap1\n      0x00\n      mstore\n      keccak256(0x00, 0x20)\n      swap1\n      0x0c\n      mul\n      add\n        /* \"smartContract/contracts/3_Ballot.sol\":3001:3041  proposals[random_vote()].Votes_District0 */\n      0x02\n      add\n      0x00\n        /* \"smartContract/contracts/3_Ballot.sol\":3001:3058  proposals[random_vote()].Votes_District0 += sender.weight */\n      dup3\n      dup3\n      sload\n      tag_58\n      swap2\n      swap1\n      tag_52\n      jump\t// in\n    tag_58:\n      swap3\n      pop\n      pop\n      dup2\n      swap1\n      sstore\n      pop\n        /* \"smartContract/contracts/3_Ballot.sol\":2977:3910  if (sender.district==0){proposals[random_vote()].Votes_District0 += sender.weight;}... */\n      jump(tag_59)\n    tag_53:\n        /* \"smartContract/contracts/3_Ballot.sol\":3095:3096  1 */\n      0x01\n        /* \"smartContract/contracts/3_Ballot.sol\":3078:3084  sender */\n      dup2\n        /* \"smartContract/contracts/3_Ballot.sol\":3078:3093  sender.district */\n      0x02\n      add\n      sload\n        /* \"smartContract/contracts/3_Ballot.sol\":3078:3096  sender.district==1 */\n      eq\n        /* \"smartContract/contracts/3_Ballot.sol\":3074:3910  if (sender.district==1){proposals[random_vote()].Votes_District1 += sender.weight;}... */\n      iszero\n      tag_60\n      jumpi\n        /* \"smartContract/contracts/3_Ballot.sol\":3142:3148  sender */\n      dup1\n        /* \"smartContract/contracts/3_Ballot.sol\":3142:3155  sender.weight */\n      0x00\n      add\n      sload\n        /* \"smartContract/contracts/3_Ballot.sol\":3098:3107  proposals */\n      0x02\n        /* \"smartContract/contracts/3_Ballot.sol\":3108:3121  random_vote() */\n      tag_61\n        /* \"smartContract/contracts/3_Ballot.sol\":3108:3119  random_vote */\n      tag_43\n        /* \"smartContract/contracts/3_Ballot.sol\":3108:3121  random_vote() */\n      jump\t// in\n    tag_61:\n        /* \"smartContract/contracts/3_Ballot.sol\":3098:3122  proposals[random_vote()] */\n      dup2\n      sload\n      dup2\n      lt\n      tag_62\n      jumpi\n      tag_63\n      tag_49\n      jump\t// in\n    tag_63:\n    tag_62:\n      swap1\n      0x00\n      mstore\n      keccak256(0x00, 0x20)\n      swap1\n      0x0c\n      mul\n      add\n        /* \"smartContract/contracts/3_Ballot.sol\":3098:3138  proposals[random_vote()].Votes_District1 */\n      0x03\n      add\n      0x00\n        /* \"smartContract/contracts/3_Ballot.sol\":3098:3155  proposals[random_vote()].Votes_District1 += sender.weight */\n      dup3\n      dup3\n      sload\n      tag_65\n      swap2\n      swap1\n      tag_52\n      jump\t// in\n    tag_65:\n      swap3\n      pop\n      pop\n      dup2\n      swap1\n      sstore\n      pop\n        /* \"smartContract/contracts/3_Ballot.sol\":3074:3910  if (sender.district==1){proposals[random_vote()].Votes_District1 += sender.weight;}... */\n      jump(tag_66)\n    tag_60:\n        /* \"smartContract/contracts/3_Ballot.sol\":3192:3193  2 */\n      0x02\n        /* \"smartContract/contracts/3_Ballot.sol\":3175:3181  sender */\n      dup2\n        /* \"smartContract/contracts/3_Ballot.sol\":3175:3190  sender.district */\n      0x02\n      add\n      sload\n        /* \"smartContract/contracts/3_Ballot.sol\":3175:3193  sender.district==2 */\n      eq\n        /* \"smartContract/contracts/3_Ballot.sol\":3171:3910  if (sender.district==2){proposals[random_vote()].Votes_District2 += sender.weight;}... */\n      iszero\n      tag_67\n      jumpi\n        /* \"smartContract/contracts/3_Ballot.sol\":3239:3245  sender */\n      dup1\n        /* \"smartContract/contracts/3_Ballot.sol\":3239:3252  sender.weight */\n      0x00\n      add\n      sload\n        /* \"smartContract/contracts/3_Ballot.sol\":3195:3204  proposals */\n      0x02\n        /* \"smartContract/contracts/3_Ballot.sol\":3205:3218  random_vote() */\n      tag_68\n        /* \"smartContract/contracts/3_Ballot.sol\":3205:3216  random_vote */\n      tag_43\n        /* \"smartContract/contracts/3_Ballot.sol\":3205:3218  random_vote() */\n      jump\t// in\n    tag_68:\n        /* \"smartContract/contracts/3_Ballot.sol\":3195:3219  proposals[random_vote()] */\n      dup2\n      sload\n      dup2\n      lt\n      tag_69\n      jumpi\n      tag_70\n      tag_49\n      jump\t// in\n    tag_70:\n    tag_69:\n      swap1\n      0x00\n      mstore\n      keccak256(0x00, 0x20)\n      swap1\n      0x0c\n      mul\n      add\n        /* \"smartContract/contracts/3_Ballot.sol\":3195:3235  proposals[random_vote()].Votes_District2 */\n      0x04\n      add\n      0x00\n        /* \"smartContract/contracts/3_Ballot.sol\":3195:3252  proposals[random_vote()].Votes_District2 += sender.weight */\n      dup3\n      dup3\n      sload\n      tag_72\n      swap2\n      swap1\n      tag_52\n      jump\t// in\n    tag_72:\n      swap3\n      pop\n      pop\n      dup2\n      swap1\n      sstore\n      pop\n        /* \"smartContract/contracts/3_Ballot.sol\":3171:3910  if (sender.district==2){proposals[random_vote()].Votes_District2 += sender.weight;}... */\n      jump(tag_73)\n    tag_67:\n        /* \"smartContract/contracts/3_Ballot.sol\":3289:3290  3 */\n      0x03\n        /* \"smartContract/contracts/3_Ballot.sol\":3272:3278  sender */\n      dup2\n        /* \"smartContract/contracts/3_Ballot.sol\":3272:3287  sender.district */\n      0x02\n      add\n      sload\n        /* \"smartContract/contracts/3_Ballot.sol\":3272:3290  sender.district==3 */\n      eq\n        /* \"smartContract/contracts/3_Ballot.sol\":3268:3910  if (sender.district==3){proposals[random_vote()].Votes_District3 += sender.weight;}... */\n      iszero\n      tag_74\n      jumpi\n        /* \"smartContract/contracts/3_Ballot.sol\":3336:3342  sender */\n      dup1\n        /* \"smartContract/contracts/3_Ballot.sol\":3336:3349  sender.weight */\n      0x00\n      add\n      sload\n        /* \"smartContract/contracts/3_Ballot.sol\":3292:3301  proposals */\n      0x02\n        /* \"smartContract/contracts/3_Ballot.sol\":3302:3315  random_vote() */\n      tag_75\n        /* \"smartContract/contracts/3_Ballot.sol\":3302:3313  random_vote */\n      tag_43\n        /* \"smartContract/contracts/3_Ballot.sol\":3302:3315  random_vote() */\n      jump\t// in\n    tag_75:\n        /* \"smartContract/contracts/3_Ballot.sol\":3292:3316  proposals[random_vote()] */\n      dup2\n      sload\n      dup2\n      lt\n      tag_76\n      jumpi\n      tag_77\n      tag_49\n      jump\t// in\n    tag_77:\n    tag_76:\n      swap1\n      0x00\n      mstore\n      keccak256(0x00, 0x20)\n      swap1\n      0x0c\n      mul\n      add\n        /* \"smartContract/contracts/3_Ballot.sol\":3292:3332  proposals[random_vote()].Votes_District3 */\n      0x05\n      add\n      0x00\n        /* \"smartContract/contracts/3_Ballot.sol\":3292:3349  proposals[random_vote()].Votes_District3 += sender.weight */\n      dup3\n      dup3\n      sload\n      tag_79\n      swap2\n      swap1\n      tag_52\n      jump\t// in\n    tag_79:\n      swap3\n      pop\n      pop\n      dup2\n      swap1\n      sstore\n      pop\n        /* \"smartContract/contracts/3_Ballot.sol\":3268:3910  if (sender.district==3){proposals[random_vote()].Votes_District3 += sender.weight;}... */\n      jump(tag_80)\n    tag_74:\n        /* \"smartContract/contracts/3_Ballot.sol\":3386:3387  4 */\n      0x04\n        /* \"smartContract/contracts/3_Ballot.sol\":3369:3375  sender */\n      dup2\n        /* \"smartContract/contracts/3_Ballot.sol\":3369:3384  sender.district */\n      0x02\n      add\n      sload\n        /* \"smartContract/contracts/3_Ballot.sol\":3369:3387  sender.district==4 */\n      eq\n        /* \"smartContract/contracts/3_Ballot.sol\":3365:3910  if (sender.district==4){proposals[random_vote()].Votes_District4 += sender.weight;}... */\n      iszero\n      tag_81\n      jumpi\n        /* \"smartContract/contracts/3_Ballot.sol\":3433:3439  sender */\n      dup1\n        /* \"smartContract/contracts/3_Ballot.sol\":3433:3446  sender.weight */\n      0x00\n      add\n      sload\n        /* \"smartContract/contracts/3_Ballot.sol\":3389:3398  proposals */\n      0x02\n        /* \"smartContract/contracts/3_Ballot.sol\":3399:3412  random_vote() */\n      tag_82\n        /* \"smartContract/contracts/3_Ballot.sol\":3399:3410  random_vote */\n      tag_43\n        /* \"smartContract/contracts/3_Ballot.sol\":3399:3412  random_vote() */\n      jump\t// in\n    tag_82:\n        /* \"smartContract/contracts/3_Ballot.sol\":3389:3413  proposals[random_vote()] */\n      dup2\n      sload\n      dup2\n      lt\n      tag_83\n      jumpi\n      tag_84\n      tag_49\n      jump\t// in\n    tag_84:\n    tag_83:\n      swap1\n      0x00\n      mstore\n      keccak256(0x00, 0x20)\n      swap1\n      0x0c\n      mul\n      add\n        /* \"smartContract/contracts/3_Ballot.sol\":3389:3429  proposals[random_vote()].Votes_District4 */\n      0x06\n      add\n      0x00\n        /* \"smartContract/contracts/3_Ballot.sol\":3389:3446  proposals[random_vote()].Votes_District4 += sender.weight */\n      dup3\n      dup3\n      sload\n      tag_86\n      swap2\n      swap1\n      tag_52\n      jump\t// in\n    tag_86:\n      swap3\n      pop\n      pop\n      dup2\n      swap1\n      sstore\n      pop\n        /* \"smartContract/contracts/3_Ballot.sol\":3365:3910  if (sender.district==4){proposals[random_vote()].Votes_District4 += sender.weight;}... */\n      jump(tag_87)\n    tag_81:\n        /* \"smartContract/contracts/3_Ballot.sol\":3483:3484  5 */\n      0x05\n        /* \"smartContract/contracts/3_Ballot.sol\":3466:3472  sender */\n      dup2\n        /* \"smartContract/contracts/3_Ballot.sol\":3466:3481  sender.district */\n      0x02\n      add\n      sload\n        /* \"smartContract/contracts/3_Ballot.sol\":3466:3484  sender.district==5 */\n      eq\n        /* \"smartContract/contracts/3_Ballot.sol\":3462:3910  if (sender.district==5){proposals[random_vote()].Votes_District5 += sender.weight;}... */\n      iszero\n      tag_88\n      jumpi\n        /* \"smartContract/contracts/3_Ballot.sol\":3530:3536  sender */\n      dup1\n        /* \"smartContract/contracts/3_Ballot.sol\":3530:3543  sender.weight */\n      0x00\n      add\n      sload\n        /* \"smartContract/contracts/3_Ballot.sol\":3486:3495  proposals */\n      0x02\n        /* \"smartContract/contracts/3_Ballot.sol\":3496:3509  random_vote() */\n      tag_89\n        /* \"smartContract/contracts/3_Ballot.sol\":3496:3507  random_vote */\n      tag_43\n        /* \"smartContract/contracts/3_Ballot.sol\":3496:3509  random_vote() */\n      jump\t// in\n    tag_89:\n        /* \"smartContract/contracts/3_Ballot.sol\":3486:3510  proposals[random_vote()] */\n      dup2\n      sload\n      dup2\n      lt\n      tag_90\n      jumpi\n      tag_91\n      tag_49\n      jump\t// in\n    tag_91:\n    tag_90:\n      swap1\n      0x00\n      mstore\n      keccak256(0x00, 0x20)\n      swap1\n      0x0c\n      mul\n      add\n        /* \"smartContract/contracts/3_Ballot.sol\":3486:3526  proposals[random_vote()].Votes_District5 */\n      0x07\n      add\n      0x00\n        /* \"smartContract/contracts/3_Ballot.sol\":3486:3543  proposals[random_vote()].Votes_District5 += sender.weight */\n      dup3\n      dup3\n      sload\n      tag_93\n      swap2\n      swap1\n      tag_52\n      jump\t// in\n    tag_93:\n      swap3\n      pop\n      pop\n      dup2\n      swap1\n      sstore\n      pop\n        /* \"smartContract/contracts/3_Ballot.sol\":3462:3910  if (sender.district==5){proposals[random_vote()].Votes_District5 += sender.weight;}... */\n      jump(tag_94)\n    tag_88:\n        /* \"smartContract/contracts/3_Ballot.sol\":3580:3581  6 */\n      0x06\n        /* \"smartContract/contracts/3_Ballot.sol\":3563:3569  sender */\n      dup2\n        /* \"smartContract/contracts/3_Ballot.sol\":3563:3578  sender.district */\n      0x02\n      add\n      sload\n        /* \"smartContract/contracts/3_Ballot.sol\":3563:3581  sender.district==6 */\n      eq\n        /* \"smartContract/contracts/3_Ballot.sol\":3559:3910  if (sender.district==6){proposals[random_vote()].Votes_District6 += sender.weight;}... */\n      iszero\n      tag_95\n      jumpi\n        /* \"smartContract/contracts/3_Ballot.sol\":3627:3633  sender */\n      dup1\n        /* \"smartContract/contracts/3_Ballot.sol\":3627:3640  sender.weight */\n      0x00\n      add\n      sload\n        /* \"smartContract/contracts/3_Ballot.sol\":3583:3592  proposals */\n      0x02\n        /* \"smartContract/contracts/3_Ballot.sol\":3593:3606  random_vote() */\n      tag_96\n        /* \"smartContract/contracts/3_Ballot.sol\":3593:3604  random_vote */\n      tag_43\n        /* \"smartContract/contracts/3_Ballot.sol\":3593:3606  random_vote() */\n      jump\t// in\n    tag_96:\n        /* \"smartContract/contracts/3_Ballot.sol\":3583:3607  proposals[random_vote()] */\n      dup2\n      sload\n      dup2\n      lt\n      tag_97\n      jumpi\n      tag_98\n      tag_49\n      jump\t// in\n    tag_98:\n    tag_97:\n      swap1\n      0x00\n      mstore\n      keccak256(0x00, 0x20)\n      swap1\n      0x0c\n      mul\n      add\n        /* \"smartContract/contracts/3_Ballot.sol\":3583:3623  proposals[random_vote()].Votes_District6 */\n      0x08\n      add\n      0x00\n        /* \"smartContract/contracts/3_Ballot.sol\":3583:3640  proposals[random_vote()].Votes_District6 += sender.weight */\n      dup3\n      dup3\n      sload\n      tag_100\n      swap2\n      swap1\n      tag_52\n      jump\t// in\n    tag_100:\n      swap3\n      pop\n      pop\n      dup2\n      swap1\n      sstore\n      pop\n        /* \"smartContract/contracts/3_Ballot.sol\":3559:3910  if (sender.district==6){proposals[random_vote()].Votes_District6 += sender.weight;}... */\n      jump(tag_101)\n    tag_95:\n        /* \"smartContract/contracts/3_Ballot.sol\":3677:3678  7 */\n      0x07\n        /* \"smartContract/contracts/3_Ballot.sol\":3660:3666  sender */\n      dup2\n        /* \"smartContract/contracts/3_Ballot.sol\":3660:3675  sender.district */\n      0x02\n      add\n      sload\n        /* \"smartContract/contracts/3_Ballot.sol\":3660:3678  sender.district==7 */\n      eq\n        /* \"smartContract/contracts/3_Ballot.sol\":3656:3910  if (sender.district==7){proposals[random_vote()].Votes_District7 += sender.weight;}... */\n      iszero\n      tag_102\n      jumpi\n        /* \"smartContract/contracts/3_Ballot.sol\":3724:3730  sender */\n      dup1\n        /* \"smartContract/contracts/3_Ballot.sol\":3724:3737  sender.weight */\n      0x00\n      add\n      sload\n        /* \"smartContract/contracts/3_Ballot.sol\":3680:3689  proposals */\n      0x02\n        /* \"smartContract/contracts/3_Ballot.sol\":3690:3703  random_vote() */\n      tag_103\n        /* \"smartContract/contracts/3_Ballot.sol\":3690:3701  random_vote */\n      tag_43\n        /* \"smartContract/contracts/3_Ballot.sol\":3690:3703  random_vote() */\n      jump\t// in\n    tag_103:\n        /* \"smartContract/contracts/3_Ballot.sol\":3680:3704  proposals[random_vote()] */\n      dup2\n      sload\n      dup2\n      lt\n      tag_104\n      jumpi\n      tag_105\n      tag_49\n      jump\t// in\n    tag_105:\n    tag_104:\n      swap1\n      0x00\n      mstore\n      keccak256(0x00, 0x20)\n      swap1\n      0x0c\n      mul\n      add\n        /* \"smartContract/contracts/3_Ballot.sol\":3680:3720  proposals[random_vote()].Votes_District7 */\n      0x09\n      add\n      0x00\n        /* \"smartContract/contracts/3_Ballot.sol\":3680:3737  proposals[random_vote()].Votes_District7 += sender.weight */\n      dup3\n      dup3\n      sload\n      tag_107\n      swap2\n      swap1\n      tag_52\n      jump\t// in\n    tag_107:\n      swap3\n      pop\n      pop\n      dup2\n      swap1\n      sstore\n      pop\n        /* \"smartContract/contracts/3_Ballot.sol\":3656:3910  if (sender.district==7){proposals[random_vote()].Votes_District7 += sender.weight;}... */\n      jump(tag_108)\n    tag_102:\n        /* \"smartContract/contracts/3_Ballot.sol\":3774:3775  8 */\n      0x08\n        /* \"smartContract/contracts/3_Ballot.sol\":3757:3763  sender */\n      dup2\n        /* \"smartContract/contracts/3_Ballot.sol\":3757:3772  sender.district */\n      0x02\n      add\n      sload\n        /* \"smartContract/contracts/3_Ballot.sol\":3757:3775  sender.district==8 */\n      eq\n        /* \"smartContract/contracts/3_Ballot.sol\":3753:3910  if (sender.district==8){proposals[random_vote()].Votes_District8 += sender.weight;}... */\n      iszero\n      tag_109\n      jumpi\n        /* \"smartContract/contracts/3_Ballot.sol\":3821:3827  sender */\n      dup1\n        /* \"smartContract/contracts/3_Ballot.sol\":3821:3834  sender.weight */\n      0x00\n      add\n      sload\n        /* \"smartContract/contracts/3_Ballot.sol\":3777:3786  proposals */\n      0x02\n        /* \"smartContract/contracts/3_Ballot.sol\":3787:3800  random_vote() */\n      tag_110\n        /* \"smartContract/contracts/3_Ballot.sol\":3787:3798  random_vote */\n      tag_43\n        /* \"smartContract/contracts/3_Ballot.sol\":3787:3800  random_vote() */\n      jump\t// in\n    tag_110:\n        /* \"smartContract/contracts/3_Ballot.sol\":3777:3801  proposals[random_vote()] */\n      dup2\n      sload\n      dup2\n      lt\n      tag_111\n      jumpi\n      tag_112\n      tag_49\n      jump\t// in\n    tag_112:\n    tag_111:\n      swap1\n      0x00\n      mstore\n      keccak256(0x00, 0x20)\n      swap1\n      0x0c\n      mul\n      add\n        /* \"smartContract/contracts/3_Ballot.sol\":3777:3817  proposals[random_vote()].Votes_District8 */\n      0x0a\n      add\n      0x00\n        /* \"smartContract/contracts/3_Ballot.sol\":3777:3834  proposals[random_vote()].Votes_District8 += sender.weight */\n      dup3\n      dup3\n      sload\n      tag_114\n      swap2\n      swap1\n      tag_52\n      jump\t// in\n    tag_114:\n      swap3\n      pop\n      pop\n      dup2\n      swap1\n      sstore\n      pop\n        /* \"smartContract/contracts/3_Ballot.sol\":3753:3910  if (sender.district==8){proposals[random_vote()].Votes_District8 += sender.weight;}... */\n      jump(tag_115)\n    tag_109:\n        /* \"smartContract/contracts/3_Ballot.sol\":3895:3901  sender */\n      dup1\n        /* \"smartContract/contracts/3_Ballot.sol\":3895:3908  sender.weight */\n      0x00\n      add\n      sload\n        /* \"smartContract/contracts/3_Ballot.sol\":3851:3860  proposals */\n      0x02\n        /* \"smartContract/contracts/3_Ballot.sol\":3861:3874  random_vote() */\n      tag_116\n        /* \"smartContract/contracts/3_Ballot.sol\":3861:3872  random_vote */\n      tag_43\n        /* \"smartContract/contracts/3_Ballot.sol\":3861:3874  random_vote() */\n      jump\t// in\n    tag_116:\n        /* \"smartContract/contracts/3_Ballot.sol\":3851:3875  proposals[random_vote()] */\n      dup2\n      sload\n      dup2\n      lt\n      tag_117\n      jumpi\n      tag_118\n      tag_49\n      jump\t// in\n    tag_118:\n    tag_117:\n      swap1\n      0x00\n      mstore\n      keccak256(0x00, 0x20)\n      swap1\n      0x0c\n      mul\n      add\n        /* \"smartContract/contracts/3_Ballot.sol\":3851:3891  proposals[random_vote()].Votes_District9 */\n      0x0b\n      add\n      0x00\n        /* \"smartContract/contracts/3_Ballot.sol\":3851:3908  proposals[random_vote()].Votes_District9 += sender.weight */\n      dup3\n      dup3\n      sload\n      tag_120\n      swap2\n      swap1\n      tag_52\n      jump\t// in\n    tag_120:\n      swap3\n      pop\n      pop\n      dup2\n      swap1\n      sstore\n      pop\n        /* \"smartContract/contracts/3_Ballot.sol\":3753:3910  if (sender.district==8){proposals[random_vote()].Votes_District8 += sender.weight;}... */\n    tag_115:\n        /* \"smartContract/contracts/3_Ballot.sol\":3656:3910  if (sender.district==7){proposals[random_vote()].Votes_District7 += sender.weight;}... */\n    tag_108:\n        /* \"smartContract/contracts/3_Ballot.sol\":3559:3910  if (sender.district==6){proposals[random_vote()].Votes_District6 += sender.weight;}... */\n    tag_101:\n        /* \"smartContract/contracts/3_Ballot.sol\":3462:3910  if (sender.district==5){proposals[random_vote()].Votes_District5 += sender.weight;}... */\n    tag_94:\n        /* \"smartContract/contracts/3_Ballot.sol\":3365:3910  if (sender.district==4){proposals[random_vote()].Votes_District4 += sender.weight;}... */\n    tag_87:\n        /* \"smartContract/contracts/3_Ballot.sol\":3268:3910  if (sender.district==3){proposals[random_vote()].Votes_District3 += sender.weight;}... */\n    tag_80:\n        /* \"smartContract/contracts/3_Ballot.sol\":3171:3910  if (sender.district==2){proposals[random_vote()].Votes_District2 += sender.weight;}... */\n    tag_73:\n        /* \"smartContract/contracts/3_Ballot.sol\":3074:3910  if (sender.district==1){proposals[random_vote()].Votes_District1 += sender.weight;}... */\n    tag_66:\n        /* \"smartContract/contracts/3_Ballot.sol\":2977:3910  if (sender.district==0){proposals[random_vote()].Votes_District0 += sender.weight;}... */\n    tag_59:\n        /* \"smartContract/contracts/3_Ballot.sol\":2312:3916  {... */\n      pop\n        /* \"smartContract/contracts/3_Ballot.sol\":2289:3916  function vote() public {... */\n      jump\t// out\n        /* \"smartContract/contracts/3_Ballot.sol\":1902:1923  int public countV = 0 */\n    tag_11:\n      sload(0x03)\n      dup2\n      jump\t// out\n        /* \"smartContract/contracts/3_Ballot.sol\":814:853  mapping(address => Voter) public voters */\n    tag_17:\n      mstore(0x20, 0x01)\n      dup1\n      0x00\n      mstore\n      keccak256(0x00, 0x40)\n      0x00\n      swap2\n      pop\n      swap1\n      pop\n      dup1\n      0x00\n      add\n      sload\n      swap1\n      dup1\n      0x01\n      add\n      0x00\n      swap1\n      sload\n      swap1\n      0x0100\n      exp\n      swap1\n      div\n      0xff\n      and\n      swap1\n      dup1\n      0x02\n      add\n      sload\n      swap1\n      dup1\n      0x03\n      add\n      sload\n      swap1\n      pop\n      dup5\n      jump\t// out\n        /* \"smartContract/contracts/3_Ballot.sol\":3922:4019  function res(uint _id) public view returns(Proposal memory){... */\n    tag_23:\n        /* \"smartContract/contracts/3_Ballot.sol\":3965:3980  Proposal memory */\n      tag_121\n      tag_122\n      jump\t// in\n    tag_121:\n        /* \"smartContract/contracts/3_Ballot.sol\":3998:4007  proposals */\n      0x02\n        /* \"smartContract/contracts/3_Ballot.sol\":4008:4011  _id */\n      dup3\n        /* \"smartContract/contracts/3_Ballot.sol\":3998:4012  proposals[_id] */\n      dup2\n      sload\n      dup2\n      lt\n      tag_124\n      jumpi\n      tag_125\n      tag_49\n      jump\t// in\n    tag_125:\n    tag_124:\n      swap1\n      0x00\n      mstore\n      keccak256(0x00, 0x20)\n      swap1\n      0x0c\n      mul\n      add\n        /* \"smartContract/contracts/3_Ballot.sol\":3991:4012  return proposals[_id] */\n      mload(0x40)\n      dup1\n      0x0180\n      add\n      0x40\n      mstore\n      swap1\n      dup2\n      0x00\n      dup3\n      add\n      dup1\n      sload\n      tag_127\n      swap1\n      tag_128\n      jump\t// in\n    tag_127:\n      dup1\n      0x1f\n      add\n      0x20\n      dup1\n      swap2\n      div\n      mul\n      0x20\n      add\n      mload(0x40)\n      swap1\n      dup2\n      add\n      0x40\n      mstore\n      dup1\n      swap3\n      swap2\n      swap1\n      dup2\n      dup2\n      mstore\n      0x20\n      add\n      dup3\n      dup1\n      sload\n      tag_129\n      swap1\n      tag_128\n      jump\t// in\n    tag_129:\n      dup1\n      iszero\n      tag_130\n      jumpi\n      dup1\n      0x1f\n      lt\n      tag_131\n      jumpi\n      0x0100\n      dup1\n      dup4\n      sload\n      div\n      mul\n      dup4\n      mstore\n      swap2\n      0x20\n      add\n      swap2\n      jump(tag_130)\n    tag_131:\n      dup3\n      add\n      swap2\n      swap1\n      0x00\n      mstore\n      keccak256(0x00, 0x20)\n      swap1\n    tag_132:\n      dup2\n      sload\n      dup2\n      mstore\n      swap1\n      0x01\n      add\n      swap1\n      0x20\n      add\n      dup1\n      dup4\n      gt\n      tag_132\n      jumpi\n      dup3\n      swap1\n      sub\n      0x1f\n      and\n      dup3\n      add\n      swap2\n    tag_130:\n      pop\n      pop\n      pop\n      pop\n      pop\n      dup2\n      mstore\n      0x20\n      add\n      0x01\n      dup3\n      add\n      sload\n      dup2\n      mstore\n      0x20\n      add\n      0x02\n      dup3\n      add\n      sload\n      dup2\n      mstore\n      0x20\n      add\n      0x03\n      dup3\n      add\n      sload\n      dup2\n      mstore\n      0x20\n      add\n      0x04\n      dup3\n      add\n      sload\n      dup2\n      mstore\n      0x20\n      add\n      0x05\n      dup3\n      add\n      sload\n      dup2\n      mstore\n      0x20\n      add\n      0x06\n      dup3\n      add\n      sload\n      dup2\n      mstore\n      0x20\n      add\n      0x07\n      dup3\n      add\n      sload\n      dup2\n      mstore\n      0x20\n      add\n      0x08\n      dup3\n      add\n      sload\n      dup2\n      mstore\n      0x20\n      add\n      0x09\n      dup3\n      add\n      sload\n      dup2\n      mstore\n      0x20\n      add\n      0x0a\n      dup3\n      add\n      sload\n      dup2\n      mstore\n      0x20\n      add\n      0x0b\n      dup3\n      add\n      sload\n      dup2\n      mstore\n      pop\n      pop\n      swap1\n      pop\n        /* \"smartContract/contracts/3_Ballot.sol\":3922:4019  function res(uint _id) public view returns(Proposal memory){... */\n      swap2\n      swap1\n      pop\n      jump\t// out\n        /* \"smartContract/contracts/3_Ballot.sol\":4527:4756  function winnerName() public view... */\n    tag_27:\n        /* \"smartContract/contracts/3_Ballot.sol\":4582:4607  string memory winnerName_ */\n      0x60\n        /* \"smartContract/contracts/3_Ballot.sol\":4716:4725  proposals */\n      0x02\n        /* \"smartContract/contracts/3_Ballot.sol\":4726:4743  winningProposal() */\n      tag_134\n        /* \"smartContract/contracts/3_Ballot.sol\":4726:4741  winningProposal */\n      tag_135\n        /* \"smartContract/contracts/3_Ballot.sol\":4726:4743  winningProposal() */\n      jump\t// in\n    tag_134:\n        /* \"smartContract/contracts/3_Ballot.sol\":4716:4744  proposals[winningProposal()] */\n      dup2\n      sload\n      dup2\n      lt\n      tag_136\n      jumpi\n      tag_137\n      tag_49\n      jump\t// in\n    tag_137:\n    tag_136:\n      swap1\n      0x00\n      mstore\n      keccak256(0x00, 0x20)\n      swap1\n      0x0c\n      mul\n      add\n        /* \"smartContract/contracts/3_Ballot.sol\":4716:4749  proposals[winningProposal()].name */\n      0x00\n      add\n        /* \"smartContract/contracts/3_Ballot.sol\":4702:4749  winnerName_ = proposals[winningProposal()].name */\n      dup1\n      sload\n      tag_139\n      swap1\n      tag_128\n      jump\t// in\n    tag_139:\n      dup1\n      0x1f\n      add\n      0x20\n      dup1\n      swap2\n      div\n      mul\n      0x20\n      add\n      mload(0x40)\n      swap1\n      dup2\n      add\n      0x40\n      mstore\n      dup1\n      swap3\n      swap2\n      swap1\n      dup2\n      dup2\n      mstore\n      0x20\n      add\n      dup3\n      dup1\n      sload\n      tag_140\n      swap1\n      tag_128\n      jump\t// in\n    tag_140:\n      dup1\n      iszero\n      tag_141\n      jumpi\n      dup1\n      0x1f\n      lt\n      tag_142\n      jumpi\n      0x0100\n      dup1\n      dup4\n      sload\n      div\n      mul\n      dup4\n      mstore\n      swap2\n      0x20\n      add\n      swap2\n      jump(tag_141)\n    tag_142:\n      dup3\n      add\n      swap2\n      swap1\n      0x00\n      mstore\n      keccak256(0x00, 0x20)\n      swap1\n    tag_143:\n      dup2\n      sload\n      dup2\n      mstore\n      swap1\n      0x01\n      add\n      swap1\n      0x20\n      add\n      dup1\n      dup4\n      gt\n      tag_143\n      jumpi\n      dup3\n      swap1\n      sub\n      0x1f\n      and\n      dup3\n      add\n      swap2\n    tag_141:\n      pop\n      pop\n      pop\n      pop\n      pop\n      swap1\n      pop\n        /* \"smartContract/contracts/3_Ballot.sol\":4527:4756  function winnerName() public view... */\n      swap1\n      jump\t// out\n        /* \"smartContract/contracts/3_Ballot.sol\":900:1071  function random_district() private view returns(uint){... */\n    tag_38:\n        /* \"smartContract/contracts/3_Ballot.sol\":948:952  uint */\n      0x00\n        /* \"smartContract/contracts/3_Ballot.sol\":1062:1064  10 */\n      0x0a\n        /* \"smartContract/contracts/3_Ballot.sol\":1002:1017  block.timestamp */\n      timestamp\n        /* \"smartContract/contracts/3_Ballot.sol\":1018:1034  block.difficulty */\n      difficulty\n        /* \"smartContract/contracts/3_Ballot.sol\":1046:1056  msg.sender */\n      caller\n        /* \"smartContract/contracts/3_Ballot.sol\":985:1057  abi.encodePacked(block.timestamp,block.difficulty,  ... */\n      add(0x20, mload(0x40))\n      tag_145\n      swap4\n      swap3\n      swap2\n      swap1\n      tag_146\n      jump\t// in\n    tag_145:\n      mload(0x40)\n      0x20\n      dup2\n      dup4\n      sub\n      sub\n      dup2\n      mstore\n      swap1\n      0x40\n      mstore\n        /* \"smartContract/contracts/3_Ballot.sol\":975:1058  keccak256(abi.encodePacked(block.timestamp,block.difficulty,  ... */\n      dup1\n      mload\n      swap1\n      0x20\n      add\n      keccak256\n        /* \"smartContract/contracts/3_Ballot.sol\":970:1059  uint(keccak256(abi.encodePacked(block.timestamp,block.difficulty,  ... */\n      0x00\n      shr\n        /* \"smartContract/contracts/3_Ballot.sol\":970:1064  uint(keccak256(abi.encodePacked(block.timestamp,block.difficulty,  ... */\n      tag_147\n      swap2\n      swap1\n      tag_148\n      jump\t// in\n    tag_147:\n        /* \"smartContract/contracts/3_Ballot.sol\":963:1064  return uint(keccak256(abi.encodePacked(block.timestamp,block.difficulty,  ... */\n      swap1\n      pop\n        /* \"smartContract/contracts/3_Ballot.sol\":900:1071  function random_district() private view returns(uint){... */\n      swap1\n      jump\t// out\n        /* \"smartContract/contracts/3_Ballot.sol\":2105:2283  function random_vote() private view returns(uint){... */\n    tag_43:\n        /* \"smartContract/contracts/3_Ballot.sol\":2149:2153  uint */\n      0x00\n        /* \"smartContract/contracts/3_Ballot.sol\":2271:2272  5 */\n      0x05\n        /* \"smartContract/contracts/3_Ballot.sol\":2207:2222  block.timestamp */\n      timestamp\n        /* \"smartContract/contracts/3_Ballot.sol\":2223:2239  block.difficulty */\n      difficulty\n        /* \"smartContract/contracts/3_Ballot.sol\":2255:2265  msg.sender */\n      caller\n        /* \"smartContract/contracts/3_Ballot.sol\":2190:2266  abi.encodePacked(block.timestamp,block.difficulty,  ... */\n      add(0x20, mload(0x40))\n      tag_150\n      swap4\n      swap3\n      swap2\n      swap1\n      tag_146\n      jump\t// in\n    tag_150:\n      mload(0x40)\n      0x20\n      dup2\n      dup4\n      sub\n      sub\n      dup2\n      mstore\n      swap1\n      0x40\n      mstore\n        /* \"smartContract/contracts/3_Ballot.sol\":2180:2267  keccak256(abi.encodePacked(block.timestamp,block.difficulty,  ... */\n      dup1\n      mload\n      swap1\n      0x20\n      add\n      keccak256\n        /* \"smartContract/contracts/3_Ballot.sol\":2175:2268  uint(keccak256(abi.encodePacked(block.timestamp,block.difficulty,  ... */\n      0x00\n      shr\n        /* \"smartContract/contracts/3_Ballot.sol\":2175:2272  uint(keccak256(abi.encodePacked(block.timestamp,block.difficulty,  ... */\n      tag_151\n      swap2\n      swap1\n      tag_148\n      jump\t// in\n    tag_151:\n        /* \"smartContract/contracts/3_Ballot.sol\":2168:2272  return uint(keccak256(abi.encodePacked(block.timestamp,block.difficulty,  ... */\n      swap1\n      pop\n        /* \"smartContract/contracts/3_Ballot.sol\":2105:2283  function random_vote() private view returns(uint){... */\n      swap1\n      jump\t// out\n        /* \"smartContract/contracts/3_Ballot.sol\":1929:1988  function countVoters() private {... */\n    tag_45:\n        /* \"smartContract/contracts/3_Ballot.sol\":1980:1981  1 */\n      0x01\n        /* \"smartContract/contracts/3_Ballot.sol\":1970:1976  countV */\n      0x03\n      0x00\n        /* \"smartContract/contracts/3_Ballot.sol\":1970:1981  countV += 1 */\n      dup3\n      dup3\n      sload\n      tag_153\n      swap2\n      swap1\n      tag_154\n      jump\t// in\n    tag_153:\n      swap3\n      pop\n      pop\n      dup2\n      swap1\n      sstore\n      pop\n        /* \"smartContract/contracts/3_Ballot.sol\":1929:1988  function countVoters() private {... */\n      jump\t// out\n        /* \"smartContract/contracts/3_Ballot.sol\":4026:4521  function winningProposal() private view... */\n    tag_135:\n        /* \"smartContract/contracts/3_Ballot.sol\":4087:4108  uint winningProposal_ */\n      0x00\n        /* \"smartContract/contracts/3_Ballot.sol\":4124:4152  uint[5] memory proposalNames */\n      tag_156\n      tag_157\n      jump\t// in\n    tag_156:\n        /* \"smartContract/contracts/3_Ballot.sol\":4162:4183  uint winningVoteCount */\n      0x00\n        /* \"smartContract/contracts/3_Ballot.sol\":4289:4295  uint p */\n      dup1\n        /* \"smartContract/contracts/3_Ballot.sol\":4284:4515  for (uint p = 0; p < proposals.length; p++) {... */\n    tag_158:\n        /* \"smartContract/contracts/3_Ballot.sol\":4305:4314  proposals */\n      0x02\n        /* \"smartContract/contracts/3_Ballot.sol\":4305:4321  proposals.length */\n      dup1\n      sload\n      swap1\n      pop\n        /* \"smartContract/contracts/3_Ballot.sol\":4301:4302  p */\n      dup2\n        /* \"smartContract/contracts/3_Ballot.sol\":4301:4321  p < proposals.length */\n      lt\n        /* \"smartContract/contracts/3_Ballot.sol\":4284:4515  for (uint p = 0; p < proposals.length; p++) {... */\n      iszero\n      tag_159\n      jumpi\n        /* \"smartContract/contracts/3_Ballot.sol\":4373:4389  winningVoteCount */\n      dup2\n        /* \"smartContract/contracts/3_Ballot.sol\":4346:4355  proposals */\n      0x02\n        /* \"smartContract/contracts/3_Ballot.sol\":4356:4357  p */\n      dup3\n        /* \"smartContract/contracts/3_Ballot.sol\":4346:4358  proposals[p] */\n      dup2\n      sload\n      dup2\n      lt\n      tag_161\n      jumpi\n      tag_162\n      tag_49\n      jump\t// in\n    tag_162:\n    tag_161:\n      swap1\n      0x00\n      mstore\n      keccak256(0x00, 0x20)\n      swap1\n      0x0c\n      mul\n      add\n        /* \"smartContract/contracts/3_Ballot.sol\":4346:4370  proposals[p].Total_Votes */\n      0x01\n      add\n      sload\n        /* \"smartContract/contracts/3_Ballot.sol\":4346:4389  proposals[p].Total_Votes > winningVoteCount */\n      gt\n        /* \"smartContract/contracts/3_Ballot.sol\":4342:4505  if (proposals[p].Total_Votes > winningVoteCount) {... */\n      iszero\n      tag_164\n      jumpi\n        /* \"smartContract/contracts/3_Ballot.sol\":4428:4437  proposals */\n      0x02\n        /* \"smartContract/contracts/3_Ballot.sol\":4438:4439  p */\n      dup2\n        /* \"smartContract/contracts/3_Ballot.sol\":4428:4440  proposals[p] */\n      dup2\n      sload\n      dup2\n      lt\n      tag_165\n      jumpi\n      tag_166\n      tag_49\n      jump\t// in\n    tag_166:\n    tag_165:\n      swap1\n      0x00\n      mstore\n      keccak256(0x00, 0x20)\n      swap1\n      0x0c\n      mul\n      add\n        /* \"smartContract/contracts/3_Ballot.sol\":4428:4452  proposals[p].Total_Votes */\n      0x01\n      add\n      sload\n        /* \"smartContract/contracts/3_Ballot.sol\":4409:4452  winningVoteCount = proposals[p].Total_Votes */\n      swap2\n      pop\n        /* \"smartContract/contracts/3_Ballot.sol\":4489:4490  p */\n      dup1\n        /* \"smartContract/contracts/3_Ballot.sol\":4470:4490  winningProposal_ = p */\n      swap4\n      pop\n        /* \"smartContract/contracts/3_Ballot.sol\":4342:4505  if (proposals[p].Total_Votes > winningVoteCount) {... */\n    tag_164:\n        /* \"smartContract/contracts/3_Ballot.sol\":4323:4326  p++ */\n      dup1\n      dup1\n      tag_168\n      swap1\n      tag_169\n      jump\t// in\n    tag_168:\n      swap2\n      pop\n      pop\n        /* \"smartContract/contracts/3_Ballot.sol\":4284:4515  for (uint p = 0; p < proposals.length; p++) {... */\n      jump(tag_158)\n    tag_159:\n      pop\n        /* \"smartContract/contracts/3_Ballot.sol\":4114:4521  {... */\n      pop\n      pop\n        /* \"smartContract/contracts/3_Ballot.sol\":4026:4521  function winningProposal() private view... */\n      swap1\n      jump\t// out\n    tag_122:\n      mload(0x40)\n      dup1\n      0x0180\n      add\n      0x40\n      mstore\n      dup1\n      0x60\n      dup2\n      mstore\n      0x20\n      add\n      0x00\n      dup2\n      mstore\n      0x20\n      add\n      0x00\n      dup2\n      mstore\n      0x20\n      add\n      0x00\n      dup2\n      mstore\n      0x20\n      add\n      0x00\n      dup2\n      mstore\n      0x20\n      add\n      0x00\n      dup2\n      mstore\n      0x20\n      add\n      0x00\n      dup2\n      mstore\n      0x20\n      add\n      0x00\n      dup2\n      mstore\n      0x20\n      add\n      0x00\n      dup2\n      mstore\n      0x20\n      add\n      0x00\n      dup2\n      mstore\n      0x20\n      add\n      0x00\n      dup2\n      mstore\n      0x20\n      add\n      0x00\n      dup2\n      mstore\n      pop\n      swap1\n      jump\t// out\n    tag_157:\n      mload(0x40)\n      dup1\n      0xa0\n      add\n      0x40\n      mstore\n      dup1\n      0x05\n      swap1\n      0x20\n      dup3\n      mul\n      dup1\n      calldatasize\n      dup4\n      calldatacopy\n      dup1\n      dup3\n      add\n      swap2\n      pop\n      pop\n      swap1\n      pop\n      pop\n      swap1\n      jump\t// out\n        /* \"#utility.yul\":7:146   */\n    tag_171:\n        /* \"#utility.yul\":53:58   */\n      0x00\n        /* \"#utility.yul\":91:97   */\n      dup2\n        /* \"#utility.yul\":78:98   */\n      calldataload\n        /* \"#utility.yul\":69:98   */\n      swap1\n      pop\n        /* \"#utility.yul\":107:140   */\n      tag_173\n        /* \"#utility.yul\":134:139   */\n      dup2\n        /* \"#utility.yul\":107:140   */\n      tag_174\n      jump\t// in\n    tag_173:\n        /* \"#utility.yul\":7:146   */\n      swap3\n      swap2\n      pop\n      pop\n      jump\t// out\n        /* \"#utility.yul\":152:291   */\n    tag_175:\n        /* \"#utility.yul\":198:203   */\n      0x00\n        /* \"#utility.yul\":236:242   */\n      dup2\n        /* \"#utility.yul\":223:243   */\n      calldataload\n        /* \"#utility.yul\":214:243   */\n      swap1\n      pop\n        /* \"#utility.yul\":252:285   */\n      tag_177\n        /* \"#utility.yul\":279:284   */\n      dup2\n        /* \"#utility.yul\":252:285   */\n      tag_178\n      jump\t// in\n    tag_177:\n        /* \"#utility.yul\":152:291   */\n      swap3\n      swap2\n      pop\n      pop\n      jump\t// out\n        /* \"#utility.yul\":297:626   */\n    tag_16:\n        /* \"#utility.yul\":356:362   */\n      0x00\n        /* \"#utility.yul\":405:407   */\n      0x20\n        /* \"#utility.yul\":393:402   */\n      dup3\n        /* \"#utility.yul\":384:391   */\n      dup5\n        /* \"#utility.yul\":380:403   */\n      sub\n        /* \"#utility.yul\":376:408   */\n      slt\n        /* \"#utility.yul\":373:492   */\n      iszero\n      tag_180\n      jumpi\n        /* \"#utility.yul\":411:490   */\n      tag_181\n      tag_182\n      jump\t// in\n    tag_181:\n        /* \"#utility.yul\":373:492   */\n    tag_180:\n        /* \"#utility.yul\":531:532   */\n      0x00\n        /* \"#utility.yul\":556:609   */\n      tag_183\n        /* \"#utility.yul\":601:608   */\n      dup5\n        /* \"#utility.yul\":592:598   */\n      dup3\n        /* \"#utility.yul\":581:590   */\n      dup6\n        /* \"#utility.yul\":577:599   */\n      add\n        /* \"#utility.yul\":556:609   */\n      tag_171\n      jump\t// in\n    tag_183:\n        /* \"#utility.yul\":546:609   */\n      swap2\n      pop\n        /* \"#utility.yul\":502:619   */\n      pop\n        /* \"#utility.yul\":297:626   */\n      swap3\n      swap2\n      pop\n      pop\n      jump\t// out\n        /* \"#utility.yul\":632:961   */\n    tag_22:\n        /* \"#utility.yul\":691:697   */\n      0x00\n        /* \"#utility.yul\":740:742   */\n      0x20\n        /* \"#utility.yul\":728:737   */\n      dup3\n        /* \"#utility.yul\":719:726   */\n      dup5\n        /* \"#utility.yul\":715:738   */\n      sub\n        /* \"#utility.yul\":711:743   */\n      slt\n        /* \"#utility.yul\":708:827   */\n      iszero\n      tag_185\n      jumpi\n        /* \"#utility.yul\":746:825   */\n      tag_186\n      tag_182\n      jump\t// in\n    tag_186:\n        /* \"#utility.yul\":708:827   */\n    tag_185:\n        /* \"#utility.yul\":866:867   */\n      0x00\n        /* \"#utility.yul\":891:944   */\n      tag_187\n        /* \"#utility.yul\":936:943   */\n      dup5\n        /* \"#utility.yul\":927:933   */\n      dup3\n        /* \"#utility.yul\":916:925   */\n      dup6\n        /* \"#utility.yul\":912:934   */\n      add\n        /* \"#utility.yul\":891:944   */\n      tag_175\n      jump\t// in\n    tag_187:\n        /* \"#utility.yul\":881:944   */\n      swap2\n      pop\n        /* \"#utility.yul\":837:954   */\n      pop\n        /* \"#utility.yul\":632:961   */\n      swap3\n      swap2\n      pop\n      pop\n      jump\t// out\n        /* \"#utility.yul\":967:1124   */\n    tag_188:\n        /* \"#utility.yul\":1072:1117   */\n      tag_190\n        /* \"#utility.yul\":1092:1116   */\n      tag_191\n        /* \"#utility.yul\":1110:1115   */\n      dup3\n        /* \"#utility.yul\":1092:1116   */\n      tag_192\n      jump\t// in\n    tag_191:\n        /* \"#utility.yul\":1072:1117   */\n      tag_193\n      jump\t// in\n    tag_190:\n        /* \"#utility.yul\":1067:1070   */\n      dup3\n        /* \"#utility.yul\":1060:1118   */\n      mstore\n        /* \"#utility.yul\":967:1124   */\n      pop\n      pop\n      jump\t// out\n        /* \"#utility.yul\":1130:1239   */\n    tag_194:\n        /* \"#utility.yul\":1211:1232   */\n      tag_196\n        /* \"#utility.yul\":1226:1231   */\n      dup2\n        /* \"#utility.yul\":1211:1232   */\n      tag_197\n      jump\t// in\n    tag_196:\n        /* \"#utility.yul\":1206:1209   */\n      dup3\n        /* \"#utility.yul\":1199:1233   */\n      mstore\n        /* \"#utility.yul\":1130:1239   */\n      pop\n      pop\n      jump\t// out\n        /* \"#utility.yul\":1245:1360   */\n    tag_198:\n        /* \"#utility.yul\":1330:1353   */\n      tag_200\n        /* \"#utility.yul\":1347:1352   */\n      dup2\n        /* \"#utility.yul\":1330:1353   */\n      tag_201\n      jump\t// in\n    tag_200:\n        /* \"#utility.yul\":1325:1328   */\n      dup3\n        /* \"#utility.yul\":1318:1354   */\n      mstore\n        /* \"#utility.yul\":1245:1360   */\n      pop\n      pop\n      jump\t// out\n        /* \"#utility.yul\":1366:1710   */\n    tag_202:\n        /* \"#utility.yul\":1444:1447   */\n      0x00\n        /* \"#utility.yul\":1472:1511   */\n      tag_204\n        /* \"#utility.yul\":1505:1510   */\n      dup3\n        /* \"#utility.yul\":1472:1511   */\n      tag_205\n      jump\t// in\n    tag_204:\n        /* \"#utility.yul\":1527:1588   */\n      tag_206\n        /* \"#utility.yul\":1581:1587   */\n      dup2\n        /* \"#utility.yul\":1576:1579   */\n      dup6\n        /* \"#utility.yul\":1527:1588   */\n      tag_207\n      jump\t// in\n    tag_206:\n        /* \"#utility.yul\":1520:1588   */\n      swap4\n      pop\n        /* \"#utility.yul\":1597:1649   */\n      tag_208\n        /* \"#utility.yul\":1642:1648   */\n      dup2\n        /* \"#utility.yul\":1637:1640   */\n      dup6\n        /* \"#utility.yul\":1630:1634   */\n      0x20\n        /* \"#utility.yul\":1623:1628   */\n      dup7\n        /* \"#utility.yul\":1619:1635   */\n      add\n        /* \"#utility.yul\":1597:1649   */\n      tag_209\n      jump\t// in\n    tag_208:\n        /* \"#utility.yul\":1674:1703   */\n      tag_210\n        /* \"#utility.yul\":1696:1702   */\n      dup2\n        /* \"#utility.yul\":1674:1703   */\n      tag_211\n      jump\t// in\n    tag_210:\n        /* \"#utility.yul\":1669:1672   */\n      dup5\n        /* \"#utility.yul\":1665:1704   */\n      add\n        /* \"#utility.yul\":1658:1704   */\n      swap2\n      pop\n        /* \"#utility.yul\":1448:1710   */\n      pop\n        /* \"#utility.yul\":1366:1710   */\n      swap3\n      swap2\n      pop\n      pop\n      jump\t// out\n        /* \"#utility.yul\":1716:2080   */\n    tag_212:\n        /* \"#utility.yul\":1804:1807   */\n      0x00\n        /* \"#utility.yul\":1832:1871   */\n      tag_214\n        /* \"#utility.yul\":1865:1870   */\n      dup3\n        /* \"#utility.yul\":1832:1871   */\n      tag_205\n      jump\t// in\n    tag_214:\n        /* \"#utility.yul\":1887:1958   */\n      tag_215\n        /* \"#utility.yul\":1951:1957   */\n      dup2\n        /* \"#utility.yul\":1946:1949   */\n      dup6\n        /* \"#utility.yul\":1887:1958   */\n      tag_216\n      jump\t// in\n    tag_215:\n        /* \"#utility.yul\":1880:1958   */\n      swap4\n      pop\n        /* \"#utility.yul\":1967:2019   */\n      tag_217\n        /* \"#utility.yul\":2012:2018   */\n      dup2\n        /* \"#utility.yul\":2007:2010   */\n      dup6\n        /* \"#utility.yul\":2000:2004   */\n      0x20\n        /* \"#utility.yul\":1993:1998   */\n      dup7\n        /* \"#utility.yul\":1989:2005   */\n      add\n        /* \"#utility.yul\":1967:2019   */\n      tag_209\n      jump\t// in\n    tag_217:\n        /* \"#utility.yul\":2044:2073   */\n      tag_218\n        /* \"#utility.yul\":2066:2072   */\n      dup2\n        /* \"#utility.yul\":2044:2073   */\n      tag_211\n      jump\t// in\n    tag_218:\n        /* \"#utility.yul\":2039:2042   */\n      dup5\n        /* \"#utility.yul\":2035:2074   */\n      add\n        /* \"#utility.yul\":2028:2074   */\n      swap2\n      pop\n        /* \"#utility.yul\":1808:2080   */\n      pop\n        /* \"#utility.yul\":1716:2080   */\n      swap3\n      swap2\n      pop\n      pop\n      jump\t// out\n        /* \"#utility.yul\":2086:2452   */\n    tag_219:\n        /* \"#utility.yul\":2228:2231   */\n      0x00\n        /* \"#utility.yul\":2249:2316   */\n      tag_221\n        /* \"#utility.yul\":2313:2315   */\n      0x0e\n        /* \"#utility.yul\":2308:2311   */\n      dup4\n        /* \"#utility.yul\":2249:2316   */\n      tag_216\n      jump\t// in\n    tag_221:\n        /* \"#utility.yul\":2242:2316   */\n      swap2\n      pop\n        /* \"#utility.yul\":2325:2418   */\n      tag_222\n        /* \"#utility.yul\":2414:2417   */\n      dup3\n        /* \"#utility.yul\":2325:2418   */\n      tag_223\n      jump\t// in\n    tag_222:\n        /* \"#utility.yul\":2443:2445   */\n      0x20\n        /* \"#utility.yul\":2438:2441   */\n      dup3\n        /* \"#utility.yul\":2434:2446   */\n      add\n        /* \"#utility.yul\":2427:2446   */\n      swap1\n      pop\n        /* \"#utility.yul\":2086:2452   */\n      swap2\n      swap1\n      pop\n      jump\t// out\n        /* \"#utility.yul\":2458:2824   */\n    tag_224:\n        /* \"#utility.yul\":2600:2603   */\n      0x00\n        /* \"#utility.yul\":2621:2688   */\n      tag_226\n        /* \"#utility.yul\":2685:2687   */\n      0x18\n        /* \"#utility.yul\":2680:2683   */\n      dup4\n        /* \"#utility.yul\":2621:2688   */\n      tag_216\n      jump\t// in\n    tag_226:\n        /* \"#utility.yul\":2614:2688   */\n      swap2\n      pop\n        /* \"#utility.yul\":2697:2790   */\n      tag_227\n        /* \"#utility.yul\":2786:2789   */\n      dup3\n        /* \"#utility.yul\":2697:2790   */\n      tag_228\n      jump\t// in\n    tag_227:\n        /* \"#utility.yul\":2815:2817   */\n      0x20\n        /* \"#utility.yul\":2810:2813   */\n      dup3\n        /* \"#utility.yul\":2806:2818   */\n      add\n        /* \"#utility.yul\":2799:2818   */\n      swap1\n      pop\n        /* \"#utility.yul\":2458:2824   */\n      swap2\n      swap1\n      pop\n      jump\t// out\n        /* \"#utility.yul\":2830:3196   */\n    tag_229:\n        /* \"#utility.yul\":2972:2975   */\n      0x00\n        /* \"#utility.yul\":2993:3060   */\n      tag_231\n        /* \"#utility.yul\":3057:3059   */\n      0x13\n        /* \"#utility.yul\":3052:3055   */\n      dup4\n        /* \"#utility.yul\":2993:3060   */\n      tag_216\n      jump\t// in\n    tag_231:\n        /* \"#utility.yul\":2986:3060   */\n      swap2\n      pop\n        /* \"#utility.yul\":3069:3162   */\n      tag_232\n        /* \"#utility.yul\":3158:3161   */\n      dup3\n        /* \"#utility.yul\":3069:3162   */\n      tag_233\n      jump\t// in\n    tag_232:\n        /* \"#utility.yul\":3187:3189   */\n      0x20\n        /* \"#utility.yul\":3182:3185   */\n      dup3\n        /* \"#utility.yul\":3178:3190   */\n      add\n        /* \"#utility.yul\":3171:3190   */\n      swap1\n      pop\n        /* \"#utility.yul\":2830:3196   */\n      swap2\n      swap1\n      pop\n      jump\t// out\n        /* \"#utility.yul\":3258:5737   */\n    tag_234:\n        /* \"#utility.yul\":3375:3378   */\n      0x00\n        /* \"#utility.yul\":3411:3417   */\n      0x0180\n        /* \"#utility.yul\":3406:3409   */\n      dup4\n        /* \"#utility.yul\":3402:3418   */\n      add\n        /* \"#utility.yul\":3500:3504   */\n      0x00\n        /* \"#utility.yul\":3493:3498   */\n      dup4\n        /* \"#utility.yul\":3489:3505   */\n      add\n        /* \"#utility.yul\":3483:3506   */\n      mload\n        /* \"#utility.yul\":3553:3556   */\n      dup5\n        /* \"#utility.yul\":3547:3551   */\n      dup3\n        /* \"#utility.yul\":3543:3557   */\n      sub\n        /* \"#utility.yul\":3536:3540   */\n      0x00\n        /* \"#utility.yul\":3531:3534   */\n      dup7\n        /* \"#utility.yul\":3527:3541   */\n      add\n        /* \"#utility.yul\":3520:3558   */\n      mstore\n        /* \"#utility.yul\":3579:3652   */\n      tag_236\n        /* \"#utility.yul\":3647:3651   */\n      dup3\n        /* \"#utility.yul\":3633:3645   */\n      dup3\n        /* \"#utility.yul\":3579:3652   */\n      tag_202\n      jump\t// in\n    tag_236:\n        /* \"#utility.yul\":3571:3652   */\n      swap2\n      pop\n        /* \"#utility.yul\":3428:3663   */\n      pop\n        /* \"#utility.yul\":3752:3756   */\n      0x20\n        /* \"#utility.yul\":3745:3750   */\n      dup4\n        /* \"#utility.yul\":3741:3757   */\n      add\n        /* \"#utility.yul\":3735:3758   */\n      mload\n        /* \"#utility.yul\":3771:3834   */\n      tag_237\n        /* \"#utility.yul\":3828:3832   */\n      0x20\n        /* \"#utility.yul\":3823:3826   */\n      dup7\n        /* \"#utility.yul\":3819:3833   */\n      add\n        /* \"#utility.yul\":3805:3817   */\n      dup3\n        /* \"#utility.yul\":3771:3834   */\n      tag_238\n      jump\t// in\n    tag_237:\n        /* \"#utility.yul\":3673:3844   */\n      pop\n        /* \"#utility.yul\":3937:3941   */\n      0x40\n        /* \"#utility.yul\":3930:3935   */\n      dup4\n        /* \"#utility.yul\":3926:3942   */\n      add\n        /* \"#utility.yul\":3920:3943   */\n      mload\n        /* \"#utility.yul\":3956:4019   */\n      tag_239\n        /* \"#utility.yul\":4013:4017   */\n      0x40\n        /* \"#utility.yul\":4008:4011   */\n      dup7\n        /* \"#utility.yul\":4004:4018   */\n      add\n        /* \"#utility.yul\":3990:4002   */\n      dup3\n        /* \"#utility.yul\":3956:4019   */\n      tag_238\n      jump\t// in\n    tag_239:\n        /* \"#utility.yul\":3854:4029   */\n      pop\n        /* \"#utility.yul\":4122:4126   */\n      0x60\n        /* \"#utility.yul\":4115:4120   */\n      dup4\n        /* \"#utility.yul\":4111:4127   */\n      add\n        /* \"#utility.yul\":4105:4128   */\n      mload\n        /* \"#utility.yul\":4141:4204   */\n      tag_240\n        /* \"#utility.yul\":4198:4202   */\n      0x60\n        /* \"#utility.yul\":4193:4196   */\n      dup7\n        /* \"#utility.yul\":4189:4203   */\n      add\n        /* \"#utility.yul\":4175:4187   */\n      dup3\n        /* \"#utility.yul\":4141:4204   */\n      tag_238\n      jump\t// in\n    tag_240:\n        /* \"#utility.yul\":4039:4214   */\n      pop\n        /* \"#utility.yul\":4307:4311   */\n      0x80\n        /* \"#utility.yul\":4300:4305   */\n      dup4\n        /* \"#utility.yul\":4296:4312   */\n      add\n        /* \"#utility.yul\":4290:4313   */\n      mload\n        /* \"#utility.yul\":4326:4389   */\n      tag_241\n        /* \"#utility.yul\":4383:4387   */\n      0x80\n        /* \"#utility.yul\":4378:4381   */\n      dup7\n        /* \"#utility.yul\":4374:4388   */\n      add\n        /* \"#utility.yul\":4360:4372   */\n      dup3\n        /* \"#utility.yul\":4326:4389   */\n      tag_238\n      jump\t// in\n    tag_241:\n        /* \"#utility.yul\":4224:4399   */\n      pop\n        /* \"#utility.yul\":4492:4496   */\n      0xa0\n        /* \"#utility.yul\":4485:4490   */\n      dup4\n        /* \"#utility.yul\":4481:4497   */\n      add\n        /* \"#utility.yul\":4475:4498   */\n      mload\n        /* \"#utility.yul\":4511:4574   */\n      tag_242\n        /* \"#utility.yul\":4568:4572   */\n      0xa0\n        /* \"#utility.yul\":4563:4566   */\n      dup7\n        /* \"#utility.yul\":4559:4573   */\n      add\n        /* \"#utility.yul\":4545:4557   */\n      dup3\n        /* \"#utility.yul\":4511:4574   */\n      tag_238\n      jump\t// in\n    tag_242:\n        /* \"#utility.yul\":4409:4584   */\n      pop\n        /* \"#utility.yul\":4677:4681   */\n      0xc0\n        /* \"#utility.yul\":4670:4675   */\n      dup4\n        /* \"#utility.yul\":4666:4682   */\n      add\n        /* \"#utility.yul\":4660:4683   */\n      mload\n        /* \"#utility.yul\":4696:4759   */\n      tag_243\n        /* \"#utility.yul\":4753:4757   */\n      0xc0\n        /* \"#utility.yul\":4748:4751   */\n      dup7\n        /* \"#utility.yul\":4744:4758   */\n      add\n        /* \"#utility.yul\":4730:4742   */\n      dup3\n        /* \"#utility.yul\":4696:4759   */\n      tag_238\n      jump\t// in\n    tag_243:\n        /* \"#utility.yul\":4594:4769   */\n      pop\n        /* \"#utility.yul\":4862:4866   */\n      0xe0\n        /* \"#utility.yul\":4855:4860   */\n      dup4\n        /* \"#utility.yul\":4851:4867   */\n      add\n        /* \"#utility.yul\":4845:4868   */\n      mload\n        /* \"#utility.yul\":4881:4944   */\n      tag_244\n        /* \"#utility.yul\":4938:4942   */\n      0xe0\n        /* \"#utility.yul\":4933:4936   */\n      dup7\n        /* \"#utility.yul\":4929:4943   */\n      add\n        /* \"#utility.yul\":4915:4927   */\n      dup3\n        /* \"#utility.yul\":4881:4944   */\n      tag_238\n      jump\t// in\n    tag_244:\n        /* \"#utility.yul\":4779:4954   */\n      pop\n        /* \"#utility.yul\":5047:5053   */\n      0x0100\n        /* \"#utility.yul\":5040:5045   */\n      dup4\n        /* \"#utility.yul\":5036:5054   */\n      add\n        /* \"#utility.yul\":5030:5055   */\n      mload\n        /* \"#utility.yul\":5068:5133   */\n      tag_245\n        /* \"#utility.yul\":5125:5131   */\n      0x0100\n        /* \"#utility.yul\":5120:5123   */\n      dup7\n        /* \"#utility.yul\":5116:5132   */\n      add\n        /* \"#utility.yul\":5102:5114   */\n      dup3\n        /* \"#utility.yul\":5068:5133   */\n      tag_238\n      jump\t// in\n    tag_245:\n        /* \"#utility.yul\":4964:5143   */\n      pop\n        /* \"#utility.yul\":5236:5242   */\n      0x0120\n        /* \"#utility.yul\":5229:5234   */\n      dup4\n        /* \"#utility.yul\":5225:5243   */\n      add\n        /* \"#utility.yul\":5219:5244   */\n      mload\n        /* \"#utility.yul\":5257:5322   */\n      tag_246\n        /* \"#utility.yul\":5314:5320   */\n      0x0120\n        /* \"#utility.yul\":5309:5312   */\n      dup7\n        /* \"#utility.yul\":5305:5321   */\n      add\n        /* \"#utility.yul\":5291:5303   */\n      dup3\n        /* \"#utility.yul\":5257:5322   */\n      tag_238\n      jump\t// in\n    tag_246:\n        /* \"#utility.yul\":5153:5332   */\n      pop\n        /* \"#utility.yul\":5425:5431   */\n      0x0140\n        /* \"#utility.yul\":5418:5423   */\n      dup4\n        /* \"#utility.yul\":5414:5432   */\n      add\n        /* \"#utility.yul\":5408:5433   */\n      mload\n        /* \"#utility.yul\":5446:5511   */\n      tag_247\n        /* \"#utility.yul\":5503:5509   */\n      0x0140\n        /* \"#utility.yul\":5498:5501   */\n      dup7\n        /* \"#utility.yul\":5494:5510   */\n      add\n        /* \"#utility.yul\":5480:5492   */\n      dup3\n        /* \"#utility.yul\":5446:5511   */\n      tag_238\n      jump\t// in\n    tag_247:\n        /* \"#utility.yul\":5342:5521   */\n      pop\n        /* \"#utility.yul\":5614:5620   */\n      0x0160\n        /* \"#utility.yul\":5607:5612   */\n      dup4\n        /* \"#utility.yul\":5603:5621   */\n      add\n        /* \"#utility.yul\":5597:5622   */\n      mload\n        /* \"#utility.yul\":5635:5700   */\n      tag_248\n        /* \"#utility.yul\":5692:5698   */\n      0x0160\n        /* \"#utility.yul\":5687:5690   */\n      dup7\n        /* \"#utility.yul\":5683:5699   */\n      add\n        /* \"#utility.yul\":5669:5681   */\n      dup3\n        /* \"#utility.yul\":5635:5700   */\n      tag_238\n      jump\t// in\n    tag_248:\n        /* \"#utility.yul\":5531:5710   */\n      pop\n        /* \"#utility.yul\":5727:5731   */\n      dup1\n        /* \"#utility.yul\":5720:5731   */\n      swap2\n      pop\n        /* \"#utility.yul\":3380:5737   */\n      pop\n        /* \"#utility.yul\":3258:5737   */\n      swap3\n      swap2\n      pop\n      pop\n      jump\t// out\n        /* \"#utility.yul\":5743:5851   */\n    tag_238:\n        /* \"#utility.yul\":5820:5844   */\n      tag_250\n        /* \"#utility.yul\":5838:5843   */\n      dup2\n        /* \"#utility.yul\":5820:5844   */\n      tag_251\n      jump\t// in\n    tag_250:\n        /* \"#utility.yul\":5815:5818   */\n      dup3\n        /* \"#utility.yul\":5808:5845   */\n      mstore\n        /* \"#utility.yul\":5743:5851   */\n      pop\n      pop\n      jump\t// out\n        /* \"#utility.yul\":5857:5975   */\n    tag_252:\n        /* \"#utility.yul\":5944:5968   */\n      tag_254\n        /* \"#utility.yul\":5962:5967   */\n      dup2\n        /* \"#utility.yul\":5944:5968   */\n      tag_251\n      jump\t// in\n    tag_254:\n        /* \"#utility.yul\":5939:5942   */\n      dup3\n        /* \"#utility.yul\":5932:5969   */\n      mstore\n        /* \"#utility.yul\":5857:5975   */\n      pop\n      pop\n      jump\t// out\n        /* \"#utility.yul\":5981:6138   */\n    tag_255:\n        /* \"#utility.yul\":6086:6131   */\n      tag_257\n        /* \"#utility.yul\":6106:6130   */\n      tag_258\n        /* \"#utility.yul\":6124:6129   */\n      dup3\n        /* \"#utility.yul\":6106:6130   */\n      tag_251\n      jump\t// in\n    tag_258:\n        /* \"#utility.yul\":6086:6131   */\n      tag_259\n      jump\t// in\n    tag_257:\n        /* \"#utility.yul\":6081:6084   */\n      dup3\n        /* \"#utility.yul\":6074:6132   */\n      mstore\n        /* \"#utility.yul\":5981:6138   */\n      pop\n      pop\n      jump\t// out\n        /* \"#utility.yul\":6144:6682   */\n    tag_146:\n        /* \"#utility.yul\":6312:6315   */\n      0x00\n        /* \"#utility.yul\":6327:6402   */\n      tag_261\n        /* \"#utility.yul\":6398:6401   */\n      dup3\n        /* \"#utility.yul\":6389:6395   */\n      dup7\n        /* \"#utility.yul\":6327:6402   */\n      tag_255\n      jump\t// in\n    tag_261:\n        /* \"#utility.yul\":6427:6429   */\n      0x20\n        /* \"#utility.yul\":6422:6425   */\n      dup3\n        /* \"#utility.yul\":6418:6430   */\n      add\n        /* \"#utility.yul\":6411:6430   */\n      swap2\n      pop\n        /* \"#utility.yul\":6440:6515   */\n      tag_262\n        /* \"#utility.yul\":6511:6514   */\n      dup3\n        /* \"#utility.yul\":6502:6508   */\n      dup6\n        /* \"#utility.yul\":6440:6515   */\n      tag_255\n      jump\t// in\n    tag_262:\n        /* \"#utility.yul\":6540:6542   */\n      0x20\n        /* \"#utility.yul\":6535:6538   */\n      dup3\n        /* \"#utility.yul\":6531:6543   */\n      add\n        /* \"#utility.yul\":6524:6543   */\n      swap2\n      pop\n        /* \"#utility.yul\":6553:6628   */\n      tag_263\n        /* \"#utility.yul\":6624:6627   */\n      dup3\n        /* \"#utility.yul\":6615:6621   */\n      dup5\n        /* \"#utility.yul\":6553:6628   */\n      tag_188\n      jump\t// in\n    tag_263:\n        /* \"#utility.yul\":6653:6655   */\n      0x14\n        /* \"#utility.yul\":6648:6651   */\n      dup3\n        /* \"#utility.yul\":6644:6656   */\n      add\n        /* \"#utility.yul\":6637:6656   */\n      swap2\n      pop\n        /* \"#utility.yul\":6673:6676   */\n      dup2\n        /* \"#utility.yul\":6666:6676   */\n      swap1\n      pop\n        /* \"#utility.yul\":6144:6682   */\n      swap5\n      swap4\n      pop\n      pop\n      pop\n      pop\n      jump\t// out\n        /* \"#utility.yul\":6688:6906   */\n    tag_13:\n        /* \"#utility.yul\":6779:6783   */\n      0x00\n        /* \"#utility.yul\":6817:6819   */\n      0x20\n        /* \"#utility.yul\":6806:6815   */\n      dup3\n        /* \"#utility.yul\":6802:6820   */\n      add\n        /* \"#utility.yul\":6794:6820   */\n      swap1\n      pop\n        /* \"#utility.yul\":6830:6899   */\n      tag_265\n        /* \"#utility.yul\":6896:6897   */\n      0x00\n        /* \"#utility.yul\":6885:6894   */\n      dup4\n        /* \"#utility.yul\":6881:6898   */\n      add\n        /* \"#utility.yul\":6872:6878   */\n      dup5\n        /* \"#utility.yul\":6830:6899   */\n      tag_198\n      jump\t// in\n    tag_265:\n        /* \"#utility.yul\":6688:6906   */\n      swap3\n      swap2\n      pop\n      pop\n      jump\t// out\n        /* \"#utility.yul\":6912:7225   */\n    tag_29:\n        /* \"#utility.yul\":7025:7029   */\n      0x00\n        /* \"#utility.yul\":7063:7065   */\n      0x20\n        /* \"#utility.yul\":7052:7061   */\n      dup3\n        /* \"#utility.yul\":7048:7066   */\n      add\n        /* \"#utility.yul\":7040:7066   */\n      swap1\n      pop\n        /* \"#utility.yul\":7112:7121   */\n      dup2\n        /* \"#utility.yul\":7106:7110   */\n      dup2\n        /* \"#utility.yul\":7102:7122   */\n      sub\n        /* \"#utility.yul\":7098:7099   */\n      0x00\n        /* \"#utility.yul\":7087:7096   */\n      dup4\n        /* \"#utility.yul\":7083:7100   */\n      add\n        /* \"#utility.yul\":7076:7123   */\n      mstore\n        /* \"#utility.yul\":7140:7218   */\n      tag_267\n        /* \"#utility.yul\":7213:7217   */\n      dup2\n        /* \"#utility.yul\":7204:7210   */\n      dup5\n        /* \"#utility.yul\":7140:7218   */\n      tag_212\n      jump\t// in\n    tag_267:\n        /* \"#utility.yul\":7132:7218   */\n      swap1\n      pop\n        /* \"#utility.yul\":6912:7225   */\n      swap3\n      swap2\n      pop\n      pop\n      jump\t// out\n        /* \"#utility.yul\":7231:7650   */\n    tag_41:\n        /* \"#utility.yul\":7397:7401   */\n      0x00\n        /* \"#utility.yul\":7435:7437   */\n      0x20\n        /* \"#utility.yul\":7424:7433   */\n      dup3\n        /* \"#utility.yul\":7420:7438   */\n      add\n        /* \"#utility.yul\":7412:7438   */\n      swap1\n      pop\n        /* \"#utility.yul\":7484:7493   */\n      dup2\n        /* \"#utility.yul\":7478:7482   */\n      dup2\n        /* \"#utility.yul\":7474:7494   */\n      sub\n        /* \"#utility.yul\":7470:7471   */\n      0x00\n        /* \"#utility.yul\":7459:7468   */\n      dup4\n        /* \"#utility.yul\":7455:7472   */\n      add\n        /* \"#utility.yul\":7448:7495   */\n      mstore\n        /* \"#utility.yul\":7512:7643   */\n      tag_269\n        /* \"#utility.yul\":7638:7642   */\n      dup2\n        /* \"#utility.yul\":7512:7643   */\n      tag_219\n      jump\t// in\n    tag_269:\n        /* \"#utility.yul\":7504:7643   */\n      swap1\n      pop\n        /* \"#utility.yul\":7231:7650   */\n      swap2\n      swap1\n      pop\n      jump\t// out\n        /* \"#utility.yul\":7656:8075   */\n    tag_33:\n        /* \"#utility.yul\":7822:7826   */\n      0x00\n        /* \"#utility.yul\":7860:7862   */\n      0x20\n        /* \"#utility.yul\":7849:7858   */\n      dup3\n        /* \"#utility.yul\":7845:7863   */\n      add\n        /* \"#utility.yul\":7837:7863   */\n      swap1\n      pop\n        /* \"#utility.yul\":7909:7918   */\n      dup2\n        /* \"#utility.yul\":7903:7907   */\n      dup2\n        /* \"#utility.yul\":7899:7919   */\n      sub\n        /* \"#utility.yul\":7895:7896   */\n      0x00\n        /* \"#utility.yul\":7884:7893   */\n      dup4\n        /* \"#utility.yul\":7880:7897   */\n      add\n        /* \"#utility.yul\":7873:7920   */\n      mstore\n        /* \"#utility.yul\":7937:8068   */\n      tag_271\n        /* \"#utility.yul\":8063:8067   */\n      dup2\n        /* \"#utility.yul\":7937:8068   */\n      tag_224\n      jump\t// in\n    tag_271:\n        /* \"#utility.yul\":7929:8068   */\n      swap1\n      pop\n        /* \"#utility.yul\":7656:8075   */\n      swap2\n      swap1\n      pop\n      jump\t// out\n        /* \"#utility.yul\":8081:8500   */\n    tag_36:\n        /* \"#utility.yul\":8247:8251   */\n      0x00\n        /* \"#utility.yul\":8285:8287   */\n      0x20\n        /* \"#utility.yul\":8274:8283   */\n      dup3\n        /* \"#utility.yul\":8270:8288   */\n      add\n        /* \"#utility.yul\":8262:8288   */\n      swap1\n      pop\n        /* \"#utility.yul\":8334:8343   */\n      dup2\n        /* \"#utility.yul\":8328:8332   */\n      dup2\n        /* \"#utility.yul\":8324:8344   */\n      sub\n        /* \"#utility.yul\":8320:8321   */\n      0x00\n        /* \"#utility.yul\":8309:8318   */\n      dup4\n        /* \"#utility.yul\":8305:8322   */\n      add\n        /* \"#utility.yul\":8298:8345   */\n      mstore\n        /* \"#utility.yul\":8362:8493   */\n      tag_273\n        /* \"#utility.yul\":8488:8492   */\n      dup2\n        /* \"#utility.yul\":8362:8493   */\n      tag_229\n      jump\t// in\n    tag_273:\n        /* \"#utility.yul\":8354:8493   */\n      swap1\n      pop\n        /* \"#utility.yul\":8081:8500   */\n      swap2\n      swap1\n      pop\n      jump\t// out\n        /* \"#utility.yul\":8506:8875   */\n    tag_25:\n        /* \"#utility.yul\":8647:8651   */\n      0x00\n        /* \"#utility.yul\":8685:8687   */\n      0x20\n        /* \"#utility.yul\":8674:8683   */\n      dup3\n        /* \"#utility.yul\":8670:8688   */\n      add\n        /* \"#utility.yul\":8662:8688   */\n      swap1\n      pop\n        /* \"#utility.yul\":8734:8743   */\n      dup2\n        /* \"#utility.yul\":8728:8732   */\n      dup2\n        /* \"#utility.yul\":8724:8744   */\n      sub\n        /* \"#utility.yul\":8720:8721   */\n      0x00\n        /* \"#utility.yul\":8709:8718   */\n      dup4\n        /* \"#utility.yul\":8705:8722   */\n      add\n        /* \"#utility.yul\":8698:8745   */\n      mstore\n        /* \"#utility.yul\":8762:8868   */\n      tag_275\n        /* \"#utility.yul\":8863:8867   */\n      dup2\n        /* \"#utility.yul\":8854:8860   */\n      dup5\n        /* \"#utility.yul\":8762:8868   */\n      tag_234\n      jump\t// in\n    tag_275:\n        /* \"#utility.yul\":8754:8868   */\n      swap1\n      pop\n        /* \"#utility.yul\":8506:8875   */\n      swap3\n      swap2\n      pop\n      pop\n      jump\t// out\n        /* \"#utility.yul\":8881:9422   */\n    tag_19:\n        /* \"#utility.yul\":9052:9056   */\n      0x00\n        /* \"#utility.yul\":9090:9093   */\n      0x80\n        /* \"#utility.yul\":9079:9088   */\n      dup3\n        /* \"#utility.yul\":9075:9094   */\n      add\n        /* \"#utility.yul\":9067:9094   */\n      swap1\n      pop\n        /* \"#utility.yul\":9104:9175   */\n      tag_277\n        /* \"#utility.yul\":9172:9173   */\n      0x00\n        /* \"#utility.yul\":9161:9170   */\n      dup4\n        /* \"#utility.yul\":9157:9174   */\n      add\n        /* \"#utility.yul\":9148:9154   */\n      dup8\n        /* \"#utility.yul\":9104:9175   */\n      tag_252\n      jump\t// in\n    tag_277:\n        /* \"#utility.yul\":9185:9251   */\n      tag_278\n        /* \"#utility.yul\":9247:9249   */\n      0x20\n        /* \"#utility.yul\":9236:9245   */\n      dup4\n        /* \"#utility.yul\":9232:9250   */\n      add\n        /* \"#utility.yul\":9223:9229   */\n      dup7\n        /* \"#utility.yul\":9185:9251   */\n      tag_194\n      jump\t// in\n    tag_278:\n        /* \"#utility.yul\":9261:9333   */\n      tag_279\n        /* \"#utility.yul\":9329:9331   */\n      0x40\n        /* \"#utility.yul\":9318:9327   */\n      dup4\n        /* \"#utility.yul\":9314:9332   */\n      add\n        /* \"#utility.yul\":9305:9311   */\n      dup6\n        /* \"#utility.yul\":9261:9333   */\n      tag_252\n      jump\t// in\n    tag_279:\n        /* \"#utility.yul\":9343:9415   */\n      tag_280\n        /* \"#utility.yul\":9411:9413   */\n      0x60\n        /* \"#utility.yul\":9400:9409   */\n      dup4\n        /* \"#utility.yul\":9396:9414   */\n      add\n        /* \"#utility.yul\":9387:9393   */\n      dup5\n        /* \"#utility.yul\":9343:9415   */\n      tag_252\n      jump\t// in\n    tag_280:\n        /* \"#utility.yul\":8881:9422   */\n      swap6\n      swap5\n      pop\n      pop\n      pop\n      pop\n      pop\n      jump\t// out\n        /* \"#utility.yul\":9509:9608   */\n    tag_205:\n        /* \"#utility.yul\":9561:9567   */\n      0x00\n        /* \"#utility.yul\":9595:9600   */\n      dup2\n        /* \"#utility.yul\":9589:9601   */\n      mload\n        /* \"#utility.yul\":9579:9601   */\n      swap1\n      pop\n        /* \"#utility.yul\":9509:9608   */\n      swap2\n      swap1\n      pop\n      jump\t// out\n        /* \"#utility.yul\":9614:9773   */\n    tag_207:\n        /* \"#utility.yul\":9688:9699   */\n      0x00\n        /* \"#utility.yul\":9722:9728   */\n      dup3\n        /* \"#utility.yul\":9717:9720   */\n      dup3\n        /* \"#utility.yul\":9710:9729   */\n      mstore\n        /* \"#utility.yul\":9762:9766   */\n      0x20\n        /* \"#utility.yul\":9757:9760   */\n      dup3\n        /* \"#utility.yul\":9753:9767   */\n      add\n        /* \"#utility.yul\":9738:9767   */\n      swap1\n      pop\n        /* \"#utility.yul\":9614:9773   */\n      swap3\n      swap2\n      pop\n      pop\n      jump\t// out\n        /* \"#utility.yul\":9779:9948   */\n    tag_216:\n        /* \"#utility.yul\":9863:9874   */\n      0x00\n        /* \"#utility.yul\":9897:9903   */\n      dup3\n        /* \"#utility.yul\":9892:9895   */\n      dup3\n        /* \"#utility.yul\":9885:9904   */\n      mstore\n        /* \"#utility.yul\":9937:9941   */\n      0x20\n        /* \"#utility.yul\":9932:9935   */\n      dup3\n        /* \"#utility.yul\":9928:9942   */\n      add\n        /* \"#utility.yul\":9913:9942   */\n      swap1\n      pop\n        /* \"#utility.yul\":9779:9948   */\n      swap3\n      swap2\n      pop\n      pop\n      jump\t// out\n        /* \"#utility.yul\":9954:10479   */\n    tag_154:\n        /* \"#utility.yul\":9993:9996   */\n      0x00\n        /* \"#utility.yul\":10012:10031   */\n      tag_287\n        /* \"#utility.yul\":10029:10030   */\n      dup3\n        /* \"#utility.yul\":10012:10031   */\n      tag_201\n      jump\t// in\n    tag_287:\n        /* \"#utility.yul\":10007:10031   */\n      swap2\n      pop\n        /* \"#utility.yul\":10045:10064   */\n      tag_288\n        /* \"#utility.yul\":10062:10063   */\n      dup4\n        /* \"#utility.yul\":10045:10064   */\n      tag_201\n      jump\t// in\n    tag_288:\n        /* \"#utility.yul\":10040:10064   */\n      swap3\n      pop\n        /* \"#utility.yul\":10233:10234   */\n      dup2\n        /* \"#utility.yul\":10165:10231   */\n      0x7fffffffffffffffffffffffffffffffffffffffffffffffffffffffffffffff\n        /* \"#utility.yul\":10161:10235   */\n      sub\n        /* \"#utility.yul\":10158:10159   */\n      dup4\n        /* \"#utility.yul\":10154:10236   */\n      sgt\n        /* \"#utility.yul\":10149:10150   */\n      0x00\n        /* \"#utility.yul\":10146:10147   */\n      dup4\n        /* \"#utility.yul\":10142:10151   */\n      slt\n        /* \"#utility.yul\":10135:10152   */\n      iszero\n        /* \"#utility.yul\":10131:10237   */\n      and\n        /* \"#utility.yul\":10128:10260   */\n      iszero\n      tag_289\n      jumpi\n        /* \"#utility.yul\":10240:10258   */\n      tag_290\n      tag_291\n      jump\t// in\n    tag_290:\n        /* \"#utility.yul\":10128:10260   */\n    tag_289:\n        /* \"#utility.yul\":10420:10421   */\n      dup2\n        /* \"#utility.yul\":10352:10418   */\n      0x8000000000000000000000000000000000000000000000000000000000000000\n        /* \"#utility.yul\":10348:10422   */\n      sub\n        /* \"#utility.yul\":10345:10346   */\n      dup4\n        /* \"#utility.yul\":10341:10423   */\n      slt\n        /* \"#utility.yul\":10337:10338   */\n      0x00\n        /* \"#utility.yul\":10334:10335   */\n      dup4\n        /* \"#utility.yul\":10330:10339   */\n      slt\n        /* \"#utility.yul\":10326:10424   */\n      and\n        /* \"#utility.yul\":10323:10447   */\n      iszero\n      tag_292\n      jumpi\n        /* \"#utility.yul\":10427:10445   */\n      tag_293\n      tag_291\n      jump\t// in\n    tag_293:\n        /* \"#utility.yul\":10323:10447   */\n    tag_292:\n        /* \"#utility.yul\":10471:10472   */\n      dup3\n        /* \"#utility.yul\":10468:10469   */\n      dup3\n        /* \"#utility.yul\":10464:10473   */\n      add\n        /* \"#utility.yul\":10457:10473   */\n      swap1\n      pop\n        /* \"#utility.yul\":9954:10479   */\n      swap3\n      swap2\n      pop\n      pop\n      jump\t// out\n        /* \"#utility.yul\":10485:10790   */\n    tag_52:\n        /* \"#utility.yul\":10525:10528   */\n      0x00\n        /* \"#utility.yul\":10544:10564   */\n      tag_295\n        /* \"#utility.yul\":10562:10563   */\n      dup3\n        /* \"#utility.yul\":10544:10564   */\n      tag_251\n      jump\t// in\n    tag_295:\n        /* \"#utility.yul\":10539:10564   */\n      swap2\n      pop\n        /* \"#utility.yul\":10578:10598   */\n      tag_296\n        /* \"#utility.yul\":10596:10597   */\n      dup4\n        /* \"#utility.yul\":10578:10598   */\n      tag_251\n      jump\t// in\n    tag_296:\n        /* \"#utility.yul\":10573:10598   */\n      swap3\n      pop\n        /* \"#utility.yul\":10732:10733   */\n      dup3\n        /* \"#utility.yul\":10664:10730   */\n      0xffffffffffffffffffffffffffffffffffffffffffffffffffffffffffffffff\n        /* \"#utility.yul\":10660:10734   */\n      sub\n        /* \"#utility.yul\":10657:10658   */\n      dup3\n        /* \"#utility.yul\":10654:10735   */\n      gt\n        /* \"#utility.yul\":10651:10758   */\n      iszero\n      tag_297\n      jumpi\n        /* \"#utility.yul\":10738:10756   */\n      tag_298\n      tag_291\n      jump\t// in\n    tag_298:\n        /* \"#utility.yul\":10651:10758   */\n    tag_297:\n        /* \"#utility.yul\":10782:10783   */\n      dup3\n        /* \"#utility.yul\":10779:10780   */\n      dup3\n        /* \"#utility.yul\":10775:10784   */\n      add\n        /* \"#utility.yul\":10768:10784   */\n      swap1\n      pop\n        /* \"#utility.yul\":10485:10790   */\n      swap3\n      swap2\n      pop\n      pop\n      jump\t// out\n        /* \"#utility.yul\":10796:10892   */\n    tag_192:\n        /* \"#utility.yul\":10833:10840   */\n      0x00\n        /* \"#utility.yul\":10862:10886   */\n      tag_300\n        /* \"#utility.yul\":10880:10885   */\n      dup3\n        /* \"#utility.yul\":10862:10886   */\n      tag_301\n      jump\t// in\n    tag_300:\n        /* \"#utility.yul\":10851:10886   */\n      swap1\n      pop\n        /* \"#utility.yul\":10796:10892   */\n      swap2\n      swap1\n      pop\n      jump\t// out\n        /* \"#utility.yul\":10898:10988   */\n    tag_197:\n        /* \"#utility.yul\":10932:10939   */\n      0x00\n        /* \"#utility.yul\":10975:10980   */\n      dup2\n        /* \"#utility.yul\":10968:10981   */\n      iszero\n        /* \"#utility.yul\":10961:10982   */\n      iszero\n        /* \"#utility.yul\":10950:10982   */\n      swap1\n      pop\n        /* \"#utility.yul\":10898:10988   */\n      swap2\n      swap1\n      pop\n      jump\t// out\n        /* \"#utility.yul\":10994:11070   */\n    tag_201:\n        /* \"#utility.yul\":11030:11037   */\n      0x00\n        /* \"#utility.yul\":11059:11064   */\n      dup2\n        /* \"#utility.yul\":11048:11064   */\n      swap1\n      pop\n        /* \"#utility.yul\":10994:11070   */\n      swap2\n      swap1\n      pop\n      jump\t// out\n        /* \"#utility.yul\":11076:11202   */\n    tag_301:\n        /* \"#utility.yul\":11113:11120   */\n      0x00\n        /* \"#utility.yul\":11153:11195   */\n      0xffffffffffffffffffffffffffffffffffffffff\n        /* \"#utility.yul\":11146:11151   */\n      dup3\n        /* \"#utility.yul\":11142:11196   */\n      and\n        /* \"#utility.yul\":11131:11196   */\n      swap1\n      pop\n        /* \"#utility.yul\":11076:11202   */\n      swap2\n      swap1\n      pop\n      jump\t// out\n        /* \"#utility.yul\":11208:11285   */\n    tag_251:\n        /* \"#utility.yul\":11245:11252   */\n      0x00\n        /* \"#utility.yul\":11274:11279   */\n      dup2\n        /* \"#utility.yul\":11263:11279   */\n      swap1\n      pop\n        /* \"#utility.yul\":11208:11285   */\n      swap2\n      swap1\n      pop\n      jump\t// out\n        /* \"#utility.yul\":11291:11598   */\n    tag_209:\n        /* \"#utility.yul\":11359:11360   */\n      0x00\n        /* \"#utility.yul\":11369:11482   */\n    tag_307:\n        /* \"#utility.yul\":11383:11389   */\n      dup4\n        /* \"#utility.yul\":11380:11381   */\n      dup2\n        /* \"#utility.yul\":11377:11390   */\n      lt\n        /* \"#utility.yul\":11369:11482   */\n      iszero\n      tag_309\n      jumpi\n        /* \"#utility.yul\":11468:11469   */\n      dup1\n        /* \"#utility.yul\":11463:11466   */\n      dup3\n        /* \"#utility.yul\":11459:11470   */\n      add\n        /* \"#utility.yul\":11453:11471   */\n      mload\n        /* \"#utility.yul\":11449:11450   */\n      dup2\n        /* \"#utility.yul\":11444:11447   */\n      dup5\n        /* \"#utility.yul\":11440:11451   */\n      add\n        /* \"#utility.yul\":11433:11472   */\n      mstore\n        /* \"#utility.yul\":11405:11407   */\n      0x20\n        /* \"#utility.yul\":11402:11403   */\n      dup2\n        /* \"#utility.yul\":11398:11408   */\n      add\n        /* \"#utility.yul\":11393:11408   */\n      swap1\n      pop\n        /* \"#utility.yul\":11369:11482   */\n      jump(tag_307)\n    tag_309:\n        /* \"#utility.yul\":11500:11506   */\n      dup4\n        /* \"#utility.yul\":11497:11498   */\n      dup2\n        /* \"#utility.yul\":11494:11507   */\n      gt\n        /* \"#utility.yul\":11491:11592   */\n      iszero\n      tag_310\n      jumpi\n        /* \"#utility.yul\":11580:11581   */\n      0x00\n        /* \"#utility.yul\":11571:11577   */\n      dup5\n        /* \"#utility.yul\":11566:11569   */\n      dup5\n        /* \"#utility.yul\":11562:11578   */\n      add\n        /* \"#utility.yul\":11555:11582   */\n      mstore\n        /* \"#utility.yul\":11491:11592   */\n    tag_310:\n        /* \"#utility.yul\":11340:11598   */\n      pop\n        /* \"#utility.yul\":11291:11598   */\n      pop\n      pop\n      pop\n      jump\t// out\n        /* \"#utility.yul\":11604:11924   */\n    tag_128:\n        /* \"#utility.yul\":11648:11654   */\n      0x00\n        /* \"#utility.yul\":11685:11686   */\n      0x02\n        /* \"#utility.yul\":11679:11683   */\n      dup3\n        /* \"#utility.yul\":11675:11687   */\n      div\n        /* \"#utility.yul\":11665:11687   */\n      swap1\n      pop\n        /* \"#utility.yul\":11732:11733   */\n      0x01\n        /* \"#utility.yul\":11726:11730   */\n      dup3\n        /* \"#utility.yul\":11722:11734   */\n      and\n        /* \"#utility.yul\":11753:11771   */\n      dup1\n        /* \"#utility.yul\":11743:11824   */\n      tag_312\n      jumpi\n        /* \"#utility.yul\":11809:11813   */\n      0x7f\n        /* \"#utility.yul\":11801:11807   */\n      dup3\n        /* \"#utility.yul\":11797:11814   */\n      and\n        /* \"#utility.yul\":11787:11814   */\n      swap2\n      pop\n        /* \"#utility.yul\":11743:11824   */\n    tag_312:\n        /* \"#utility.yul\":11871:11873   */\n      0x20\n        /* \"#utility.yul\":11863:11869   */\n      dup3\n        /* \"#utility.yul\":11860:11874   */\n      lt\n        /* \"#utility.yul\":11840:11858   */\n      dup2\n        /* \"#utility.yul\":11837:11875   */\n      eq\n        /* \"#utility.yul\":11834:11918   */\n      iszero\n      tag_313\n      jumpi\n        /* \"#utility.yul\":11890:11908   */\n      tag_314\n      tag_315\n      jump\t// in\n    tag_314:\n        /* \"#utility.yul\":11834:11918   */\n    tag_313:\n        /* \"#utility.yul\":11655:11924   */\n      pop\n        /* \"#utility.yul\":11604:11924   */\n      swap2\n      swap1\n      pop\n      jump\t// out\n        /* \"#utility.yul\":11930:12163   */\n    tag_169:\n        /* \"#utility.yul\":11969:11972   */\n      0x00\n        /* \"#utility.yul\":11992:12016   */\n      tag_317\n        /* \"#utility.yul\":12010:12015   */\n      dup3\n        /* \"#utility.yul\":11992:12016   */\n      tag_251\n      jump\t// in\n    tag_317:\n        /* \"#utility.yul\":11983:12016   */\n      swap2\n      pop\n        /* \"#utility.yul\":12038:12104   */\n      0xffffffffffffffffffffffffffffffffffffffffffffffffffffffffffffffff\n        /* \"#utility.yul\":12031:12036   */\n      dup3\n        /* \"#utility.yul\":12028:12105   */\n      eq\n        /* \"#utility.yul\":12025:12128   */\n      iszero\n      tag_318\n      jumpi\n        /* \"#utility.yul\":12108:12126   */\n      tag_319\n      tag_291\n      jump\t// in\n    tag_319:\n        /* \"#utility.yul\":12025:12128   */\n    tag_318:\n        /* \"#utility.yul\":12155:12156   */\n      0x01\n        /* \"#utility.yul\":12148:12153   */\n      dup3\n        /* \"#utility.yul\":12144:12157   */\n      add\n        /* \"#utility.yul\":12137:12157   */\n      swap1\n      pop\n        /* \"#utility.yul\":11930:12163   */\n      swap2\n      swap1\n      pop\n      jump\t// out\n        /* \"#utility.yul\":12169:12269   */\n    tag_193:\n        /* \"#utility.yul\":12208:12215   */\n      0x00\n        /* \"#utility.yul\":12237:12263   */\n      tag_321\n        /* \"#utility.yul\":12257:12262   */\n      dup3\n        /* \"#utility.yul\":12237:12263   */\n      tag_322\n      jump\t// in\n    tag_321:\n        /* \"#utility.yul\":12226:12263   */\n      swap1\n      pop\n        /* \"#utility.yul\":12169:12269   */\n      swap2\n      swap1\n      pop\n      jump\t// out\n        /* \"#utility.yul\":12275:12369   */\n    tag_322:\n        /* \"#utility.yul\":12314:12321   */\n      0x00\n        /* \"#utility.yul\":12343:12363   */\n      tag_324\n        /* \"#utility.yul\":12357:12362   */\n      dup3\n        /* \"#utility.yul\":12343:12363   */\n      tag_325\n      jump\t// in\n    tag_324:\n        /* \"#utility.yul\":12332:12363   */\n      swap1\n      pop\n        /* \"#utility.yul\":12275:12369   */\n      swap2\n      swap1\n      pop\n      jump\t// out\n        /* \"#utility.yul\":12375:12454   */\n    tag_259:\n        /* \"#utility.yul\":12414:12421   */\n      0x00\n        /* \"#utility.yul\":12443:12448   */\n      dup2\n        /* \"#utility.yul\":12432:12448   */\n      swap1\n      pop\n        /* \"#utility.yul\":12375:12454   */\n      swap2\n      swap1\n      pop\n      jump\t// out\n        /* \"#utility.yul\":12460:12636   */\n    tag_148:\n        /* \"#utility.yul\":12492:12493   */\n      0x00\n        /* \"#utility.yul\":12509:12529   */\n      tag_328\n        /* \"#utility.yul\":12527:12528   */\n      dup3\n        /* \"#utility.yul\":12509:12529   */\n      tag_251\n      jump\t// in\n    tag_328:\n        /* \"#utility.yul\":12504:12529   */\n      swap2\n      pop\n        /* \"#utility.yul\":12543:12563   */\n      tag_329\n        /* \"#utility.yul\":12561:12562   */\n      dup4\n        /* \"#utility.yul\":12543:12563   */\n      tag_251\n      jump\t// in\n    tag_329:\n        /* \"#utility.yul\":12538:12563   */\n      swap3\n      pop\n        /* \"#utility.yul\":12582:12583   */\n      dup3\n        /* \"#utility.yul\":12572:12607   */\n      tag_330\n      jumpi\n        /* \"#utility.yul\":12587:12605   */\n      tag_331\n      tag_332\n      jump\t// in\n    tag_331:\n        /* \"#utility.yul\":12572:12607   */\n    tag_330:\n        /* \"#utility.yul\":12628:12629   */\n      dup3\n        /* \"#utility.yul\":12625:12626   */\n      dup3\n        /* \"#utility.yul\":12621:12630   */\n      mod\n        /* \"#utility.yul\":12616:12630   */\n      swap1\n      pop\n        /* \"#utility.yul\":12460:12636   */\n      swap3\n      swap2\n      pop\n      pop\n      jump\t// out\n        /* \"#utility.yul\":12642:12822   */\n    tag_291:\n        /* \"#utility.yul\":12690:12767   */\n      0x4e487b7100000000000000000000000000000000000000000000000000000000\n        /* \"#utility.yul\":12687:12688   */\n      0x00\n        /* \"#utility.yul\":12680:12768   */\n      mstore\n        /* \"#utility.yul\":12787:12791   */\n      0x11\n        /* \"#utility.yul\":12784:12785   */\n      0x04\n        /* \"#utility.yul\":12777:12792   */\n      mstore\n        /* \"#utility.yul\":12811:12815   */\n      0x24\n        /* \"#utility.yul\":12808:12809   */\n      0x00\n        /* \"#utility.yul\":12801:12816   */\n      revert\n        /* \"#utility.yul\":12828:13008   */\n    tag_332:\n        /* \"#utility.yul\":12876:12953   */\n      0x4e487b7100000000000000000000000000000000000000000000000000000000\n        /* \"#utility.yul\":12873:12874   */\n      0x00\n        /* \"#utility.yul\":12866:12954   */\n      mstore\n        /* \"#utility.yul\":12973:12977   */\n      0x12\n        /* \"#utility.yul\":12970:12971   */\n      0x04\n        /* \"#utility.yul\":12963:12978   */\n      mstore\n        /* \"#utility.yul\":12997:13001   */\n      0x24\n        /* \"#utility.yul\":12994:12995   */\n      0x00\n        /* \"#utility.yul\":12987:13002   */\n      revert\n        /* \"#utility.yul\":13014:13194   */\n    tag_315:\n        /* \"#utility.yul\":13062:13139   */\n      0x4e487b7100000000000000000000000000000000000000000000000000000000\n        /* \"#utility.yul\":13059:13060   */\n      0x00\n        /* \"#utility.yul\":13052:13140   */\n      mstore\n        /* \"#utility.yul\":13159:13163   */\n      0x22\n        /* \"#utility.yul\":13156:13157   */\n      0x04\n        /* \"#utility.yul\":13149:13164   */\n      mstore\n        /* \"#utility.yul\":13183:13187   */\n      0x24\n        /* \"#utility.yul\":13180:13181   */\n      0x00\n        /* \"#utility.yul\":13173:13188   */\n      revert\n        /* \"#utility.yul\":13200:13380   */\n    tag_49:\n        /* \"#utility.yul\":13248:13325   */\n      0x4e487b7100000000000000000000000000000000000000000000000000000000\n        /* \"#utility.yul\":13245:13246   */\n      0x00\n        /* \"#utility.yul\":13238:13326   */\n      mstore\n        /* \"#utility.yul\":13345:13349   */\n      0x32\n        /* \"#utility.yul\":13342:13343   */\n      0x04\n        /* \"#utility.yul\":13335:13350   */\n      mstore\n        /* \"#utility.yul\":13369:13373   */\n      0x24\n        /* \"#utility.yul\":13366:13367   */\n      0x00\n        /* \"#utility.yul\":13359:13374   */\n      revert\n        /* \"#utility.yul\":13509:13626   */\n    tag_182:\n        /* \"#utility.yul\":13618:13619   */\n      0x00\n        /* \"#utility.yul\":13615:13616   */\n      dup1\n        /* \"#utility.yul\":13608:13620   */\n      revert\n        /* \"#utility.yul\":13632:13734   */\n    tag_211:\n        /* \"#utility.yul\":13673:13679   */\n      0x00\n        /* \"#utility.yul\":13724:13726   */\n      0x1f\n        /* \"#utility.yul\":13720:13727   */\n      not\n        /* \"#utility.yul\":13715:13717   */\n      0x1f\n        /* \"#utility.yul\":13708:13713   */\n      dup4\n        /* \"#utility.yul\":13704:13718   */\n      add\n        /* \"#utility.yul\":13700:13728   */\n      and\n        /* \"#utility.yul\":13690:13728   */\n      swap1\n      pop\n        /* \"#utility.yul\":13632:13734   */\n      swap2\n      swap1\n      pop\n      jump\t// out\n        /* \"#utility.yul\":13740:13834   */\n    tag_325:\n        /* \"#utility.yul\":13773:13781   */\n      0x00\n        /* \"#utility.yul\":13821:13826   */\n      dup2\n        /* \"#utility.yul\":13817:13819   */\n      0x60\n        /* \"#utility.yul\":13813:13827   */\n      shl\n        /* \"#utility.yul\":13792:13827   */\n      swap1\n      pop\n        /* \"#utility.yul\":13740:13834   */\n      swap2\n      swap1\n      pop\n      jump\t// out\n        /* \"#utility.yul\":13840:14004   */\n    tag_223:\n        /* \"#utility.yul\":13980:13996   */\n      0x416c726561647920766f7465642e000000000000000000000000000000000000\n        /* \"#utility.yul\":13976:13977   */\n      0x00\n        /* \"#utility.yul\":13968:13974   */\n      dup3\n        /* \"#utility.yul\":13964:13978   */\n      add\n        /* \"#utility.yul\":13957:13997   */\n      mstore\n        /* \"#utility.yul\":13840:14004   */\n      pop\n      jump\t// out\n        /* \"#utility.yul\":14010:14184   */\n    tag_228:\n        /* \"#utility.yul\":14150:14176   */\n      0x54686520766f74657220616c726561647920766f7465642e0000000000000000\n        /* \"#utility.yul\":14146:14147   */\n      0x00\n        /* \"#utility.yul\":14138:14144   */\n      dup3\n        /* \"#utility.yul\":14134:14148   */\n      add\n        /* \"#utility.yul\":14127:14177   */\n      mstore\n        /* \"#utility.yul\":14010:14184   */\n      pop\n      jump\t// out\n        /* \"#utility.yul\":14190:14359   */\n    tag_233:\n        /* \"#utility.yul\":14330:14351   */\n      0x52656163686564206d617820766f746572732e00000000000000000000000000\n        /* \"#utility.yul\":14326:14327   */\n      0x00\n        /* \"#utility.yul\":14318:14324   */\n      dup3\n        /* \"#utility.yul\":14314:14328   */\n      add\n        /* \"#utility.yul\":14307:14352   */\n      mstore\n        /* \"#utility.yul\":14190:14359   */\n      pop\n      jump\t// out\n        /* \"#utility.yul\":14365:14487   */\n    tag_174:\n        /* \"#utility.yul\":14438:14462   */\n      tag_346\n        /* \"#utility.yul\":14456:14461   */\n      dup2\n        /* \"#utility.yul\":14438:14462   */\n      tag_192\n      jump\t// in\n    tag_346:\n        /* \"#utility.yul\":14431:14436   */\n      dup2\n        /* \"#utility.yul\":14428:14463   */\n      eq\n        /* \"#utility.yul\":14418:14481   */\n      tag_347\n      jumpi\n        /* \"#utility.yul\":14477:14478   */\n      0x00\n        /* \"#utility.yul\":14474:14475   */\n      dup1\n        /* \"#utility.yul\":14467:14479   */\n      revert\n        /* \"#utility.yul\":14418:14481   */\n    tag_347:\n        /* \"#utility.yul\":14365:14487   */\n      pop\n      jump\t// out\n        /* \"#utility.yul\":14493:14615   */\n    tag_178:\n        /* \"#utility.yul\":14566:14590   */\n      tag_349\n        /* \"#utility.yul\":14584:14589   */\n      dup2\n        /* \"#utility.yul\":14566:14590   */\n      tag_251\n      jump\t// in\n    tag_349:\n        /* \"#utility.yul\":14559:14564   */\n      dup2\n        /* \"#utility.yul\":14556:14591   */\n      eq\n        /* \"#utility.yul\":14546:14609   */\n      tag_350\n      jumpi\n        /* \"#utility.yul\":14605:14606   */\n      0x00\n        /* \"#utility.yul\":14602:14603   */\n      dup1\n        /* \"#utility.yul\":14595:14607   */\n      revert\n        /* \"#utility.yul\":14546:14609   */\n    tag_350:\n        /* \"#utility.yul\":14493:14615   */\n      pop\n      jump\t// out\n\n    auxdata: 0xa26469706673582212203f9d101f59da641faa42d0e82db57c67d906d246dd5bbfe86b284ac5fdfbcd4664736f6c63430008070033\n}\n",
				"bytecode": {
					"linkReferences": {},
					"object": "608060405260006003553480156200001657600080fd5b50336000806101000a81548173ffffffffffffffffffffffffffffffffffffffff021916908373ffffffffffffffffffffffffffffffffffffffff16021790555060018060008060009054906101000a900473ffffffffffffffffffffffffffffffffffffffff1673ffffffffffffffffffffffffffffffffffffffff1673ffffffffffffffffffffffffffffffffffffffff1681526020019081526020016000206000018190555060006040518060a001604052806040518060400160405280600181526020017f610000000000000000000000000000000000000000000000000000000000000081525081526020016040518060400160405280600181526020017f620000000000000000000000000000000000000000000000000000000000000081525081526020016040518060400160405280600181526020017f630000000000000000000000000000000000000000000000000000000000000081525081526020016040518060400160405280600181526020017f640000000000000000000000000000000000000000000000000000000000000081525081526020016040518060400160405280600181526020017f650000000000000000000000000000000000000000000000000000000000000081525081525090506005801462000239576040517f08c379a0000000000000000000000000000000000000000000000000000000008152600401620002309062000470565b60405180910390fd5b60005b6005811015620003915760026040518061018001604052808484600581106200026a57620002696200058f565b5b6020020151815260200160008152602001600081526020016000815260200160008152602001600081526020016000815260200160008152602001600081526020016000815260200160008152602001600081525090806001815401808255809150506001900390600052602060002090600c020160009091909190915060008201518160000190805190602001906200030692919062000399565b506020820151816001015560408201518160020155606082015181600301556080820151816004015560a0820151816005015560c0820151816006015560e082015181600701556101008201518160080155610120820151816009015561014082015181600a015561016082015181600b0155505080806200038890620004e3565b9150506200023c565b5050620005e7565b828054620003a790620004ad565b90600052602060002090601f016020900481019282620003cb576000855562000417565b82601f10620003e657805160ff191683800117855562000417565b8280016001018555821562000417579182015b8281111562000416578251825591602001919060010190620003f9565b5b5090506200042691906200042a565b5090565b5b80821115620004455760008160009055506001016200042b565b5090565b60006200045860158362000492565b91506200046582620005be565b602082019050919050565b600060208201905081810360008301526200048b8162000449565b9050919050565b600082825260208201905092915050565b6000819050919050565b60006002820490506001821680620004c657607f821691505b60208210811415620004dd57620004dc62000560565b5b50919050565b6000620004f082620004a3565b91507fffffffffffffffffffffffffffffffffffffffffffffffffffffffffffffffff82141562000526576200052562000531565b5b600182019050919050565b7f4e487b7100000000000000000000000000000000000000000000000000000000600052601160045260246000fd5b7f4e487b7100000000000000000000000000000000000000000000000000000000600052602260045260246000fd5b7f4e487b7100000000000000000000000000000000000000000000000000000000600052603260045260246000fd5b7f43616e64696461746573206d75737420626520352e0000000000000000000000600082015250565b61132180620005f76000396000f3fe608060405234801561001057600080fd5b50600436106100575760003560e01c8063632a9a521461005c5780636d8f3f1014610066578063a3ec138d14610084578063d4e8fd2e146100b7578063e2ba53f0146100e7575b600080fd5b610064610105565b005b61006e6106f5565b60405161007b9190610de9565b60405180910390f35b61009e60048036038101906100999190610b09565b6106fb565b6040516100ae9493929190610ea8565b60405180910390f35b6100d160048036038101906100cc9190610b36565b610738565b6040516100de9190610e86565b60405180910390f35b6100ef610875565b6040516100fc9190610e04565b60405180910390f35b600160003373ffffffffffffffffffffffffffffffffffffffff1673ffffffffffffffffffffffffffffffffffffffff16815260200190815260200160002060010160009054906101000a900460ff1615610195576040517f08c379a000000000000000000000000000000000000000000000000000000000815260040161018c90610e46565b60405180910390fd5b60018060003373ffffffffffffffffffffffffffffffffffffffff1673ffffffffffffffffffffffffffffffffffffffff1681526020019081526020016000206000018190555060646003541315610222576040517f08c379a000000000000000000000000000000000000000000000000000000000815260040161021990610e66565b60405180910390fd5b61022a610931565b600160003373ffffffffffffffffffffffffffffffffffffffff1673ffffffffffffffffffffffffffffffffffffffff168152602001908152602001600020600201819055506000600160003373ffffffffffffffffffffffffffffffffffffffff1673ffffffffffffffffffffffffffffffffffffffff16815260200190815260200160002090508060010160009054906101000a900460ff1615610305576040517f08c379a00000000000000000000000000000000000000000000000000000000081526004016102fc90610e26565b60405180910390fd5b60018160010160006101000a81548160ff02191690831515021790555061032a610972565b816003018190555061033a6109b3565b80600001546002610349610972565b8154811061035a576103596111f0565b5b90600052602060002090600c0201600101600082825461037a9190610fae565b925050819055506000816002015414156103da578060000154600261039d610972565b815481106103ae576103ad6111f0565b5b90600052602060002090600c020160020160008282546103ce9190610fae565b925050819055506106f2565b60018160020154141561043357806000015460026103f6610972565b81548110610407576104066111f0565b5b90600052602060002090600c020160030160008282546104279190610fae565b925050819055506106f1565b60028160020154141561048c578060000154600261044f610972565b815481106104605761045f6111f0565b5b90600052602060002090600c020160040160008282546104809190610fae565b925050819055506106f0565b6003816002015414156104e557806000015460026104a8610972565b815481106104b9576104b86111f0565b5b90600052602060002090600c020160050160008282546104d99190610fae565b925050819055506106ef565b60048160020154141561053e5780600001546002610501610972565b81548110610512576105116111f0565b5b90600052602060002090600c020160060160008282546105329190610fae565b925050819055506106ee565b600581600201541415610597578060000154600261055a610972565b8154811061056b5761056a6111f0565b5b90600052602060002090600c0201600701600082825461058b9190610fae565b925050819055506106ed565b6006816002015414156105f057806000015460026105b3610972565b815481106105c4576105c36111f0565b5b90600052602060002090600c020160080160008282546105e49190610fae565b925050819055506106ec565b600781600201541415610649578060000154600261060c610972565b8154811061061d5761061c6111f0565b5b90600052602060002090600c0201600901600082825461063d9190610fae565b925050819055506106eb565b6008816002015414156106a25780600001546002610665610972565b81548110610676576106756111f0565b5b90600052602060002090600c0201600a0160008282546106969190610fae565b925050819055506106ea565b806000015460026106b1610972565b815481106106c2576106c16111f0565b5b90600052602060002090600c0201600b0160008282546106e29190610fae565b925050819055505b5b5b5b5b5b5b5b5b50565b60035481565b60016020528060005260406000206000915090508060000154908060010160009054906101000a900460ff16908060020154908060030154905084565b610740610a5c565b60028281548110610754576107536111f0565b5b90600052602060002090600c02016040518061018001604052908160008201805461077e90611089565b80601f01602080910402602001604051908101604052809291908181526020018280546107aa90611089565b80156107f75780601f106107cc576101008083540402835291602001916107f7565b820191906000526020600020905b8154815290600101906020018083116107da57829003601f168201915b50505050508152602001600182015481526020016002820154815260200160038201548152602001600482015481526020016005820154815260200160068201548152602001600782015481526020016008820154815260200160098201548152602001600a8201548152602001600b820154815250509050919050565b606060026108816109cf565b81548110610892576108916111f0565b5b90600052602060002090600c020160000180546108ae90611089565b80601f01602080910402602001604051908101604052809291908181526020018280546108da90611089565b80156109275780601f106108fc57610100808354040283529160200191610927565b820191906000526020600020905b81548152906001019060200180831161090a57829003601f168201915b5050505050905090565b6000600a42443360405160200161094a93929190610dac565b6040516020818303038152906040528051906020012060001c61096d9190611132565b905090565b6000600542443360405160200161098b93929190610dac565b6040516020818303038152906040528051906020012060001c6109ae9190611132565b905090565b6001600360008282546109c69190610f1a565b92505081905550565b60006109d9610abd565b6000805b600280549050811015610a565781600282815481106109ff576109fe6111f0565b5b90600052602060002090600c0201600101541115610a435760028181548110610a2b57610a2a6111f0565b5b90600052602060002090600c02016001015491508093505b8080610a4e906110bb565b9150506109dd565b50505090565b6040518061018001604052806060815260200160008152602001600081526020016000815260200160008152602001600081526020016000815260200160008152602001600081526020016000815260200160008152602001600081525090565b6040518060a00160405280600590602082028036833780820191505090505090565b600081359050610aee816112bd565b92915050565b600081359050610b03816112d4565b92915050565b600060208284031215610b1f57610b1e61121f565b5b6000610b2d84828501610adf565b91505092915050565b600060208284031215610b4c57610b4b61121f565b5b6000610b5a84828501610af4565b91505092915050565b610b74610b6f82611004565b611104565b82525050565b610b8381611016565b82525050565b610b9281611022565b82525050565b6000610ba382610eed565b610bad8185610ef8565b9350610bbd818560208601611056565b610bc681611224565b840191505092915050565b6000610bdc82610eed565b610be68185610f09565b9350610bf6818560208601611056565b610bff81611224565b840191505092915050565b6000610c17600e83610f09565b9150610c2282611242565b602082019050919050565b6000610c3a601883610f09565b9150610c458261126b565b602082019050919050565b6000610c5d601383610f09565b9150610c6882611294565b602082019050919050565b6000610180830160008301518482036000860152610c918282610b98565b9150506020830151610ca66020860182610d77565b506040830151610cb96040860182610d77565b506060830151610ccc6060860182610d77565b506080830151610cdf6080860182610d77565b5060a0830151610cf260a0860182610d77565b5060c0830151610d0560c0860182610d77565b5060e0830151610d1860e0860182610d77565b50610100830151610d2d610100860182610d77565b50610120830151610d42610120860182610d77565b50610140830151610d57610140860182610d77565b50610160830151610d6c610160860182610d77565b508091505092915050565b610d808161104c565b82525050565b610d8f8161104c565b82525050565b610da6610da18261104c565b611128565b82525050565b6000610db88286610d95565b602082019150610dc88285610d95565b602082019150610dd88284610b63565b601482019150819050949350505050565b6000602082019050610dfe6000830184610b89565b92915050565b60006020820190508181036000830152610e1e8184610bd1565b905092915050565b60006020820190508181036000830152610e3f81610c0a565b9050919050565b60006020820190508181036000830152610e5f81610c2d565b9050919050565b60006020820190508181036000830152610e7f81610c50565b9050919050565b60006020820190508181036000830152610ea08184610c73565b905092915050565b6000608082019050610ebd6000830187610d86565b610eca6020830186610b7a565b610ed76040830185610d86565b610ee46060830184610d86565b95945050505050565b600081519050919050565b600082825260208201905092915050565b600082825260208201905092915050565b6000610f2582611022565b9150610f3083611022565b9250817f7fffffffffffffffffffffffffffffffffffffffffffffffffffffffffffffff03831360008312151615610f6b57610f6a611163565b5b817f8000000000000000000000000000000000000000000000000000000000000000038312600083121615610fa357610fa2611163565b5b828201905092915050565b6000610fb98261104c565b9150610fc48361104c565b9250827fffffffffffffffffffffffffffffffffffffffffffffffffffffffffffffffff03821115610ff957610ff8611163565b5b828201905092915050565b600061100f8261102c565b9050919050565b60008115159050919050565b6000819050919050565b600073ffffffffffffffffffffffffffffffffffffffff82169050919050565b6000819050919050565b60005b83811015611074578082015181840152602081019050611059565b83811115611083576000848401525b50505050565b600060028204905060018216806110a157607f821691505b602082108114156110b5576110b46111c1565b5b50919050565b60006110c68261104c565b91507fffffffffffffffffffffffffffffffffffffffffffffffffffffffffffffffff8214156110f9576110f8611163565b5b600182019050919050565b600061110f82611116565b9050919050565b600061112182611235565b9050919050565b6000819050919050565b600061113d8261104c565b91506111488361104c565b92508261115857611157611192565b5b828206905092915050565b7f4e487b7100000000000000000000000000000000000000000000000000000000600052601160045260246000fd5b7f4e487b7100000000000000000000000000000000000000000000000000000000600052601260045260246000fd5b7f4e487b7100000000000000000000000000000000000000000000000000000000600052602260045260246000fd5b7f4e487b7100000000000000000000000000000000000000000000000000000000600052603260045260246000fd5b600080fd5b6000601f19601f8301169050919050565b60008160601b9050919050565b7f416c726561647920766f7465642e000000000000000000000000000000000000600082015250565b7f54686520766f74657220616c726561647920766f7465642e0000000000000000600082015250565b7f52656163686564206d617820766f746572732e00000000000000000000000000600082015250565b6112c681611004565b81146112d157600080fd5b50565b6112dd8161104c565b81146112e857600080fd5b5056fea26469706673582212203f9d101f59da641faa42d0e82db57c67d906d246dd5bbfe86b284ac5fdfbcd4664736f6c63430008070033",
					"opcodes": "PUSH1 0x80 PUSH1 0x40 MSTORE PUSH1 0x0 PUSH1 0x3 SSTORE CALLVALUE DUP1 ISZERO PUSH3 0x16 JUMPI PUSH1 0x0 DUP1 REVERT JUMPDEST POP CALLER PUSH1 0x0 DUP1 PUSH2 0x100 EXP DUP2 SLOAD DUP2 PUSH20 0xFFFFFFFFFFFFFFFFFFFFFFFFFFFFFFFFFFFFFFFF MUL NOT AND SWAP1 DUP4 PUSH20 0xFFFFFFFFFFFFFFFFFFFFFFFFFFFFFFFFFFFFFFFF AND MUL OR SWAP1 SSTORE POP PUSH1 0x1 DUP1 PUSH1 0x0 DUP1 PUSH1 0x0 SWAP1 SLOAD SWAP1 PUSH2 0x100 EXP SWAP1 DIV PUSH20 0xFFFFFFFFFFFFFFFFFFFFFFFFFFFFFFFFFFFFFFFF AND PUSH20 0xFFFFFFFFFFFFFFFFFFFFFFFFFFFFFFFFFFFFFFFF AND PUSH20 0xFFFFFFFFFFFFFFFFFFFFFFFFFFFFFFFFFFFFFFFF AND DUP2 MSTORE PUSH1 0x20 ADD SWAP1 DUP2 MSTORE PUSH1 0x20 ADD PUSH1 0x0 KECCAK256 PUSH1 0x0 ADD DUP2 SWAP1 SSTORE POP PUSH1 0x0 PUSH1 0x40 MLOAD DUP1 PUSH1 0xA0 ADD PUSH1 0x40 MSTORE DUP1 PUSH1 0x40 MLOAD DUP1 PUSH1 0x40 ADD PUSH1 0x40 MSTORE DUP1 PUSH1 0x1 DUP2 MSTORE PUSH1 0x20 ADD PUSH32 0x6100000000000000000000000000000000000000000000000000000000000000 DUP2 MSTORE POP DUP2 MSTORE PUSH1 0x20 ADD PUSH1 0x40 MLOAD DUP1 PUSH1 0x40 ADD PUSH1 0x40 MSTORE DUP1 PUSH1 0x1 DUP2 MSTORE PUSH1 0x20 ADD PUSH32 0x6200000000000000000000000000000000000000000000000000000000000000 DUP2 MSTORE POP DUP2 MSTORE PUSH1 0x20 ADD PUSH1 0x40 MLOAD DUP1 PUSH1 0x40 ADD PUSH1 0x40 MSTORE DUP1 PUSH1 0x1 DUP2 MSTORE PUSH1 0x20 ADD PUSH32 0x6300000000000000000000000000000000000000000000000000000000000000 DUP2 MSTORE POP DUP2 MSTORE PUSH1 0x20 ADD PUSH1 0x40 MLOAD DUP1 PUSH1 0x40 ADD PUSH1 0x40 MSTORE DUP1 PUSH1 0x1 DUP2 MSTORE PUSH1 0x20 ADD PUSH32 0x6400000000000000000000000000000000000000000000000000000000000000 DUP2 MSTORE POP DUP2 MSTORE PUSH1 0x20 ADD PUSH1 0x40 MLOAD DUP1 PUSH1 0x40 ADD PUSH1 0x40 MSTORE DUP1 PUSH1 0x1 DUP2 MSTORE PUSH1 0x20 ADD PUSH32 0x6500000000000000000000000000000000000000000000000000000000000000 DUP2 MSTORE POP DUP2 MSTORE POP SWAP1 POP PUSH1 0x5 DUP1 EQ PUSH3 0x239 JUMPI PUSH1 0x40 MLOAD PUSH32 0x8C379A000000000000000000000000000000000000000000000000000000000 DUP2 MSTORE PUSH1 0x4 ADD PUSH3 0x230 SWAP1 PUSH3 0x470 JUMP JUMPDEST PUSH1 0x40 MLOAD DUP1 SWAP2 SUB SWAP1 REVERT JUMPDEST PUSH1 0x0 JUMPDEST PUSH1 0x5 DUP2 LT ISZERO PUSH3 0x391 JUMPI PUSH1 0x2 PUSH1 0x40 MLOAD DUP1 PUSH2 0x180 ADD PUSH1 0x40 MSTORE DUP1 DUP5 DUP5 PUSH1 0x5 DUP2 LT PUSH3 0x26A JUMPI PUSH3 0x269 PUSH3 0x58F JUMP JUMPDEST JUMPDEST PUSH1 0x20 MUL ADD MLOAD DUP2 MSTORE PUSH1 0x20 ADD PUSH1 0x0 DUP2 MSTORE PUSH1 0x20 ADD PUSH1 0x0 DUP2 MSTORE PUSH1 0x20 ADD PUSH1 0x0 DUP2 MSTORE PUSH1 0x20 ADD PUSH1 0x0 DUP2 MSTORE PUSH1 0x20 ADD PUSH1 0x0 DUP2 MSTORE PUSH1 0x20 ADD PUSH1 0x0 DUP2 MSTORE PUSH1 0x20 ADD PUSH1 0x0 DUP2 MSTORE PUSH1 0x20 ADD PUSH1 0x0 DUP2 MSTORE PUSH1 0x20 ADD PUSH1 0x0 DUP2 MSTORE PUSH1 0x20 ADD PUSH1 0x0 DUP2 MSTORE PUSH1 0x20 ADD PUSH1 0x0 DUP2 MSTORE POP SWAP1 DUP1 PUSH1 0x1 DUP2 SLOAD ADD DUP1 DUP3 SSTORE DUP1 SWAP2 POP POP PUSH1 0x1 SWAP1 SUB SWAP1 PUSH1 0x0 MSTORE PUSH1 0x20 PUSH1 0x0 KECCAK256 SWAP1 PUSH1 0xC MUL ADD PUSH1 0x0 SWAP1 SWAP2 SWAP1 SWAP2 SWAP1 SWAP2 POP PUSH1 0x0 DUP3 ADD MLOAD DUP2 PUSH1 0x0 ADD SWAP1 DUP1 MLOAD SWAP1 PUSH1 0x20 ADD SWAP1 PUSH3 0x306 SWAP3 SWAP2 SWAP1 PUSH3 0x399 JUMP JUMPDEST POP PUSH1 0x20 DUP3 ADD MLOAD DUP2 PUSH1 0x1 ADD SSTORE PUSH1 0x40 DUP3 ADD MLOAD DUP2 PUSH1 0x2 ADD SSTORE PUSH1 0x60 DUP3 ADD MLOAD DUP2 PUSH1 0x3 ADD SSTORE PUSH1 0x80 DUP3 ADD MLOAD DUP2 PUSH1 0x4 ADD SSTORE PUSH1 0xA0 DUP3 ADD MLOAD DUP2 PUSH1 0x5 ADD SSTORE PUSH1 0xC0 DUP3 ADD MLOAD DUP2 PUSH1 0x6 ADD SSTORE PUSH1 0xE0 DUP3 ADD MLOAD DUP2 PUSH1 0x7 ADD SSTORE PUSH2 0x100 DUP3 ADD MLOAD DUP2 PUSH1 0x8 ADD SSTORE PUSH2 0x120 DUP3 ADD MLOAD DUP2 PUSH1 0x9 ADD SSTORE PUSH2 0x140 DUP3 ADD MLOAD DUP2 PUSH1 0xA ADD SSTORE PUSH2 0x160 DUP3 ADD MLOAD DUP2 PUSH1 0xB ADD SSTORE POP POP DUP1 DUP1 PUSH3 0x388 SWAP1 PUSH3 0x4E3 JUMP JUMPDEST SWAP2 POP POP PUSH3 0x23C JUMP JUMPDEST POP POP PUSH3 0x5E7 JUMP JUMPDEST DUP3 DUP1 SLOAD PUSH3 0x3A7 SWAP1 PUSH3 0x4AD JUMP JUMPDEST SWAP1 PUSH1 0x0 MSTORE PUSH1 0x20 PUSH1 0x0 KECCAK256 SWAP1 PUSH1 0x1F ADD PUSH1 0x20 SWAP1 DIV DUP2 ADD SWAP3 DUP3 PUSH3 0x3CB JUMPI PUSH1 0x0 DUP6 SSTORE PUSH3 0x417 JUMP JUMPDEST DUP3 PUSH1 0x1F LT PUSH3 0x3E6 JUMPI DUP1 MLOAD PUSH1 0xFF NOT AND DUP4 DUP1 ADD OR DUP6 SSTORE PUSH3 0x417 JUMP JUMPDEST DUP3 DUP1 ADD PUSH1 0x1 ADD DUP6 SSTORE DUP3 ISZERO PUSH3 0x417 JUMPI SWAP2 DUP3 ADD JUMPDEST DUP3 DUP2 GT ISZERO PUSH3 0x416 JUMPI DUP3 MLOAD DUP3 SSTORE SWAP2 PUSH1 0x20 ADD SWAP2 SWAP1 PUSH1 0x1 ADD SWAP1 PUSH3 0x3F9 JUMP JUMPDEST JUMPDEST POP SWAP1 POP PUSH3 0x426 SWAP2 SWAP1 PUSH3 0x42A JUMP JUMPDEST POP SWAP1 JUMP JUMPDEST JUMPDEST DUP1 DUP3 GT ISZERO PUSH3 0x445 JUMPI PUSH1 0x0 DUP2 PUSH1 0x0 SWAP1 SSTORE POP PUSH1 0x1 ADD PUSH3 0x42B JUMP JUMPDEST POP SWAP1 JUMP JUMPDEST PUSH1 0x0 PUSH3 0x458 PUSH1 0x15 DUP4 PUSH3 0x492 JUMP JUMPDEST SWAP2 POP PUSH3 0x465 DUP3 PUSH3 0x5BE JUMP JUMPDEST PUSH1 0x20 DUP3 ADD SWAP1 POP SWAP2 SWAP1 POP JUMP JUMPDEST PUSH1 0x0 PUSH1 0x20 DUP3 ADD SWAP1 POP DUP2 DUP2 SUB PUSH1 0x0 DUP4 ADD MSTORE PUSH3 0x48B DUP2 PUSH3 0x449 JUMP JUMPDEST SWAP1 POP SWAP2 SWAP1 POP JUMP JUMPDEST PUSH1 0x0 DUP3 DUP3 MSTORE PUSH1 0x20 DUP3 ADD SWAP1 POP SWAP3 SWAP2 POP POP JUMP JUMPDEST PUSH1 0x0 DUP2 SWAP1 POP SWAP2 SWAP1 POP JUMP JUMPDEST PUSH1 0x0 PUSH1 0x2 DUP3 DIV SWAP1 POP PUSH1 0x1 DUP3 AND DUP1 PUSH3 0x4C6 JUMPI PUSH1 0x7F DUP3 AND SWAP2 POP JUMPDEST PUSH1 0x20 DUP3 LT DUP2 EQ ISZERO PUSH3 0x4DD JUMPI PUSH3 0x4DC PUSH3 0x560 JUMP JUMPDEST JUMPDEST POP SWAP2 SWAP1 POP JUMP JUMPDEST PUSH1 0x0 PUSH3 0x4F0 DUP3 PUSH3 0x4A3 JUMP JUMPDEST SWAP2 POP PUSH32 0xFFFFFFFFFFFFFFFFFFFFFFFFFFFFFFFFFFFFFFFFFFFFFFFFFFFFFFFFFFFFFFFF DUP3 EQ ISZERO PUSH3 0x526 JUMPI PUSH3 0x525 PUSH3 0x531 JUMP JUMPDEST JUMPDEST PUSH1 0x1 DUP3 ADD SWAP1 POP SWAP2 SWAP1 POP JUMP JUMPDEST PUSH32 0x4E487B7100000000000000000000000000000000000000000000000000000000 PUSH1 0x0 MSTORE PUSH1 0x11 PUSH1 0x4 MSTORE PUSH1 0x24 PUSH1 0x0 REVERT JUMPDEST PUSH32 0x4E487B7100000000000000000000000000000000000000000000000000000000 PUSH1 0x0 MSTORE PUSH1 0x22 PUSH1 0x4 MSTORE PUSH1 0x24 PUSH1 0x0 REVERT JUMPDEST PUSH32 0x4E487B7100000000000000000000000000000000000000000000000000000000 PUSH1 0x0 MSTORE PUSH1 0x32 PUSH1 0x4 MSTORE PUSH1 0x24 PUSH1 0x0 REVERT JUMPDEST PUSH32 0x43616E64696461746573206D75737420626520352E0000000000000000000000 PUSH1 0x0 DUP3 ADD MSTORE POP JUMP JUMPDEST PUSH2 0x1321 DUP1 PUSH3 0x5F7 PUSH1 0x0 CODECOPY PUSH1 0x0 RETURN INVALID PUSH1 0x80 PUSH1 0x40 MSTORE CALLVALUE DUP1 ISZERO PUSH2 0x10 JUMPI PUSH1 0x0 DUP1 REVERT JUMPDEST POP PUSH1 0x4 CALLDATASIZE LT PUSH2 0x57 JUMPI PUSH1 0x0 CALLDATALOAD PUSH1 0xE0 SHR DUP1 PUSH4 0x632A9A52 EQ PUSH2 0x5C JUMPI DUP1 PUSH4 0x6D8F3F10 EQ PUSH2 0x66 JUMPI DUP1 PUSH4 0xA3EC138D EQ PUSH2 0x84 JUMPI DUP1 PUSH4 0xD4E8FD2E EQ PUSH2 0xB7 JUMPI DUP1 PUSH4 0xE2BA53F0 EQ PUSH2 0xE7 JUMPI JUMPDEST PUSH1 0x0 DUP1 REVERT JUMPDEST PUSH2 0x64 PUSH2 0x105 JUMP JUMPDEST STOP JUMPDEST PUSH2 0x6E PUSH2 0x6F5 JUMP JUMPDEST PUSH1 0x40 MLOAD PUSH2 0x7B SWAP2 SWAP1 PUSH2 0xDE9 JUMP JUMPDEST PUSH1 0x40 MLOAD DUP1 SWAP2 SUB SWAP1 RETURN JUMPDEST PUSH2 0x9E PUSH1 0x4 DUP1 CALLDATASIZE SUB DUP2 ADD SWAP1 PUSH2 0x99 SWAP2 SWAP1 PUSH2 0xB09 JUMP JUMPDEST PUSH2 0x6FB JUMP JUMPDEST PUSH1 0x40 MLOAD PUSH2 0xAE SWAP5 SWAP4 SWAP3 SWAP2 SWAP1 PUSH2 0xEA8 JUMP JUMPDEST PUSH1 0x40 MLOAD DUP1 SWAP2 SUB SWAP1 RETURN JUMPDEST PUSH2 0xD1 PUSH1 0x4 DUP1 CALLDATASIZE SUB DUP2 ADD SWAP1 PUSH2 0xCC SWAP2 SWAP1 PUSH2 0xB36 JUMP JUMPDEST PUSH2 0x738 JUMP JUMPDEST PUSH1 0x40 MLOAD PUSH2 0xDE SWAP2 SWAP1 PUSH2 0xE86 JUMP JUMPDEST PUSH1 0x40 MLOAD DUP1 SWAP2 SUB SWAP1 RETURN JUMPDEST PUSH2 0xEF PUSH2 0x875 JUMP JUMPDEST PUSH1 0x40 MLOAD PUSH2 0xFC SWAP2 SWAP1 PUSH2 0xE04 JUMP JUMPDEST PUSH1 0x40 MLOAD DUP1 SWAP2 SUB SWAP1 RETURN JUMPDEST PUSH1 0x1 PUSH1 0x0 CALLER PUSH20 0xFFFFFFFFFFFFFFFFFFFFFFFFFFFFFFFFFFFFFFFF AND PUSH20 0xFFFFFFFFFFFFFFFFFFFFFFFFFFFFFFFFFFFFFFFF AND DUP2 MSTORE PUSH1 0x20 ADD SWAP1 DUP2 MSTORE PUSH1 0x20 ADD PUSH1 0x0 KECCAK256 PUSH1 0x1 ADD PUSH1 0x0 SWAP1 SLOAD SWAP1 PUSH2 0x100 EXP SWAP1 DIV PUSH1 0xFF AND ISZERO PUSH2 0x195 JUMPI PUSH1 0x40 MLOAD PUSH32 0x8C379A000000000000000000000000000000000000000000000000000000000 DUP2 MSTORE PUSH1 0x4 ADD PUSH2 0x18C SWAP1 PUSH2 0xE46 JUMP JUMPDEST PUSH1 0x40 MLOAD DUP1 SWAP2 SUB SWAP1 REVERT JUMPDEST PUSH1 0x1 DUP1 PUSH1 0x0 CALLER PUSH20 0xFFFFFFFFFFFFFFFFFFFFFFFFFFFFFFFFFFFFFFFF AND PUSH20 0xFFFFFFFFFFFFFFFFFFFFFFFFFFFFFFFFFFFFFFFF AND DUP2 MSTORE PUSH1 0x20 ADD SWAP1 DUP2 MSTORE PUSH1 0x20 ADD PUSH1 0x0 KECCAK256 PUSH1 0x0 ADD DUP2 SWAP1 SSTORE POP PUSH1 0x64 PUSH1 0x3 SLOAD SGT ISZERO PUSH2 0x222 JUMPI PUSH1 0x40 MLOAD PUSH32 0x8C379A000000000000000000000000000000000000000000000000000000000 DUP2 MSTORE PUSH1 0x4 ADD PUSH2 0x219 SWAP1 PUSH2 0xE66 JUMP JUMPDEST PUSH1 0x40 MLOAD DUP1 SWAP2 SUB SWAP1 REVERT JUMPDEST PUSH2 0x22A PUSH2 0x931 JUMP JUMPDEST PUSH1 0x1 PUSH1 0x0 CALLER PUSH20 0xFFFFFFFFFFFFFFFFFFFFFFFFFFFFFFFFFFFFFFFF AND PUSH20 0xFFFFFFFFFFFFFFFFFFFFFFFFFFFFFFFFFFFFFFFF AND DUP2 MSTORE PUSH1 0x20 ADD SWAP1 DUP2 MSTORE PUSH1 0x20 ADD PUSH1 0x0 KECCAK256 PUSH1 0x2 ADD DUP2 SWAP1 SSTORE POP PUSH1 0x0 PUSH1 0x1 PUSH1 0x0 CALLER PUSH20 0xFFFFFFFFFFFFFFFFFFFFFFFFFFFFFFFFFFFFFFFF AND PUSH20 0xFFFFFFFFFFFFFFFFFFFFFFFFFFFFFFFFFFFFFFFF AND DUP2 MSTORE PUSH1 0x20 ADD SWAP1 DUP2 MSTORE PUSH1 0x20 ADD PUSH1 0x0 KECCAK256 SWAP1 POP DUP1 PUSH1 0x1 ADD PUSH1 0x0 SWAP1 SLOAD SWAP1 PUSH2 0x100 EXP SWAP1 DIV PUSH1 0xFF AND ISZERO PUSH2 0x305 JUMPI PUSH1 0x40 MLOAD PUSH32 0x8C379A000000000000000000000000000000000000000000000000000000000 DUP2 MSTORE PUSH1 0x4 ADD PUSH2 0x2FC SWAP1 PUSH2 0xE26 JUMP JUMPDEST PUSH1 0x40 MLOAD DUP1 SWAP2 SUB SWAP1 REVERT JUMPDEST PUSH1 0x1 DUP2 PUSH1 0x1 ADD PUSH1 0x0 PUSH2 0x100 EXP DUP2 SLOAD DUP2 PUSH1 0xFF MUL NOT AND SWAP1 DUP4 ISZERO ISZERO MUL OR SWAP1 SSTORE POP PUSH2 0x32A PUSH2 0x972 JUMP JUMPDEST DUP2 PUSH1 0x3 ADD DUP2 SWAP1 SSTORE POP PUSH2 0x33A PUSH2 0x9B3 JUMP JUMPDEST DUP1 PUSH1 0x0 ADD SLOAD PUSH1 0x2 PUSH2 0x349 PUSH2 0x972 JUMP JUMPDEST DUP2 SLOAD DUP2 LT PUSH2 0x35A JUMPI PUSH2 0x359 PUSH2 0x11F0 JUMP JUMPDEST JUMPDEST SWAP1 PUSH1 0x0 MSTORE PUSH1 0x20 PUSH1 0x0 KECCAK256 SWAP1 PUSH1 0xC MUL ADD PUSH1 0x1 ADD PUSH1 0x0 DUP3 DUP3 SLOAD PUSH2 0x37A SWAP2 SWAP1 PUSH2 0xFAE JUMP JUMPDEST SWAP3 POP POP DUP2 SWAP1 SSTORE POP PUSH1 0x0 DUP2 PUSH1 0x2 ADD SLOAD EQ ISZERO PUSH2 0x3DA JUMPI DUP1 PUSH1 0x0 ADD SLOAD PUSH1 0x2 PUSH2 0x39D PUSH2 0x972 JUMP JUMPDEST DUP2 SLOAD DUP2 LT PUSH2 0x3AE JUMPI PUSH2 0x3AD PUSH2 0x11F0 JUMP JUMPDEST JUMPDEST SWAP1 PUSH1 0x0 MSTORE PUSH1 0x20 PUSH1 0x0 KECCAK256 SWAP1 PUSH1 0xC MUL ADD PUSH1 0x2 ADD PUSH1 0x0 DUP3 DUP3 SLOAD PUSH2 0x3CE SWAP2 SWAP1 PUSH2 0xFAE JUMP JUMPDEST SWAP3 POP POP DUP2 SWAP1 SSTORE POP PUSH2 0x6F2 JUMP JUMPDEST PUSH1 0x1 DUP2 PUSH1 0x2 ADD SLOAD EQ ISZERO PUSH2 0x433 JUMPI DUP1 PUSH1 0x0 ADD SLOAD PUSH1 0x2 PUSH2 0x3F6 PUSH2 0x972 JUMP JUMPDEST DUP2 SLOAD DUP2 LT PUSH2 0x407 JUMPI PUSH2 0x406 PUSH2 0x11F0 JUMP JUMPDEST JUMPDEST SWAP1 PUSH1 0x0 MSTORE PUSH1 0x20 PUSH1 0x0 KECCAK256 SWAP1 PUSH1 0xC MUL ADD PUSH1 0x3 ADD PUSH1 0x0 DUP3 DUP3 SLOAD PUSH2 0x427 SWAP2 SWAP1 PUSH2 0xFAE JUMP JUMPDEST SWAP3 POP POP DUP2 SWAP1 SSTORE POP PUSH2 0x6F1 JUMP JUMPDEST PUSH1 0x2 DUP2 PUSH1 0x2 ADD SLOAD EQ ISZERO PUSH2 0x48C JUMPI DUP1 PUSH1 0x0 ADD SLOAD PUSH1 0x2 PUSH2 0x44F PUSH2 0x972 JUMP JUMPDEST DUP2 SLOAD DUP2 LT PUSH2 0x460 JUMPI PUSH2 0x45F PUSH2 0x11F0 JUMP JUMPDEST JUMPDEST SWAP1 PUSH1 0x0 MSTORE PUSH1 0x20 PUSH1 0x0 KECCAK256 SWAP1 PUSH1 0xC MUL ADD PUSH1 0x4 ADD PUSH1 0x0 DUP3 DUP3 SLOAD PUSH2 0x480 SWAP2 SWAP1 PUSH2 0xFAE JUMP JUMPDEST SWAP3 POP POP DUP2 SWAP1 SSTORE POP PUSH2 0x6F0 JUMP JUMPDEST PUSH1 0x3 DUP2 PUSH1 0x2 ADD SLOAD EQ ISZERO PUSH2 0x4E5 JUMPI DUP1 PUSH1 0x0 ADD SLOAD PUSH1 0x2 PUSH2 0x4A8 PUSH2 0x972 JUMP JUMPDEST DUP2 SLOAD DUP2 LT PUSH2 0x4B9 JUMPI PUSH2 0x4B8 PUSH2 0x11F0 JUMP JUMPDEST JUMPDEST SWAP1 PUSH1 0x0 MSTORE PUSH1 0x20 PUSH1 0x0 KECCAK256 SWAP1 PUSH1 0xC MUL ADD PUSH1 0x5 ADD PUSH1 0x0 DUP3 DUP3 SLOAD PUSH2 0x4D9 SWAP2 SWAP1 PUSH2 0xFAE JUMP JUMPDEST SWAP3 POP POP DUP2 SWAP1 SSTORE POP PUSH2 0x6EF JUMP JUMPDEST PUSH1 0x4 DUP2 PUSH1 0x2 ADD SLOAD EQ ISZERO PUSH2 0x53E JUMPI DUP1 PUSH1 0x0 ADD SLOAD PUSH1 0x2 PUSH2 0x501 PUSH2 0x972 JUMP JUMPDEST DUP2 SLOAD DUP2 LT PUSH2 0x512 JUMPI PUSH2 0x511 PUSH2 0x11F0 JUMP JUMPDEST JUMPDEST SWAP1 PUSH1 0x0 MSTORE PUSH1 0x20 PUSH1 0x0 KECCAK256 SWAP1 PUSH1 0xC MUL ADD PUSH1 0x6 ADD PUSH1 0x0 DUP3 DUP3 SLOAD PUSH2 0x532 SWAP2 SWAP1 PUSH2 0xFAE JUMP JUMPDEST SWAP3 POP POP DUP2 SWAP1 SSTORE POP PUSH2 0x6EE JUMP JUMPDEST PUSH1 0x5 DUP2 PUSH1 0x2 ADD SLOAD EQ ISZERO PUSH2 0x597 JUMPI DUP1 PUSH1 0x0 ADD SLOAD PUSH1 0x2 PUSH2 0x55A PUSH2 0x972 JUMP JUMPDEST DUP2 SLOAD DUP2 LT PUSH2 0x56B JUMPI PUSH2 0x56A PUSH2 0x11F0 JUMP JUMPDEST JUMPDEST SWAP1 PUSH1 0x0 MSTORE PUSH1 0x20 PUSH1 0x0 KECCAK256 SWAP1 PUSH1 0xC MUL ADD PUSH1 0x7 ADD PUSH1 0x0 DUP3 DUP3 SLOAD PUSH2 0x58B SWAP2 SWAP1 PUSH2 0xFAE JUMP JUMPDEST SWAP3 POP POP DUP2 SWAP1 SSTORE POP PUSH2 0x6ED JUMP JUMPDEST PUSH1 0x6 DUP2 PUSH1 0x2 ADD SLOAD EQ ISZERO PUSH2 0x5F0 JUMPI DUP1 PUSH1 0x0 ADD SLOAD PUSH1 0x2 PUSH2 0x5B3 PUSH2 0x972 JUMP JUMPDEST DUP2 SLOAD DUP2 LT PUSH2 0x5C4 JUMPI PUSH2 0x5C3 PUSH2 0x11F0 JUMP JUMPDEST JUMPDEST SWAP1 PUSH1 0x0 MSTORE PUSH1 0x20 PUSH1 0x0 KECCAK256 SWAP1 PUSH1 0xC MUL ADD PUSH1 0x8 ADD PUSH1 0x0 DUP3 DUP3 SLOAD PUSH2 0x5E4 SWAP2 SWAP1 PUSH2 0xFAE JUMP JUMPDEST SWAP3 POP POP DUP2 SWAP1 SSTORE POP PUSH2 0x6EC JUMP JUMPDEST PUSH1 0x7 DUP2 PUSH1 0x2 ADD SLOAD EQ ISZERO PUSH2 0x649 JUMPI DUP1 PUSH1 0x0 ADD SLOAD PUSH1 0x2 PUSH2 0x60C PUSH2 0x972 JUMP JUMPDEST DUP2 SLOAD DUP2 LT PUSH2 0x61D JUMPI PUSH2 0x61C PUSH2 0x11F0 JUMP JUMPDEST JUMPDEST SWAP1 PUSH1 0x0 MSTORE PUSH1 0x20 PUSH1 0x0 KECCAK256 SWAP1 PUSH1 0xC MUL ADD PUSH1 0x9 ADD PUSH1 0x0 DUP3 DUP3 SLOAD PUSH2 0x63D SWAP2 SWAP1 PUSH2 0xFAE JUMP JUMPDEST SWAP3 POP POP DUP2 SWAP1 SSTORE POP PUSH2 0x6EB JUMP JUMPDEST PUSH1 0x8 DUP2 PUSH1 0x2 ADD SLOAD EQ ISZERO PUSH2 0x6A2 JUMPI DUP1 PUSH1 0x0 ADD SLOAD PUSH1 0x2 PUSH2 0x665 PUSH2 0x972 JUMP JUMPDEST DUP2 SLOAD DUP2 LT PUSH2 0x676 JUMPI PUSH2 0x675 PUSH2 0x11F0 JUMP JUMPDEST JUMPDEST SWAP1 PUSH1 0x0 MSTORE PUSH1 0x20 PUSH1 0x0 KECCAK256 SWAP1 PUSH1 0xC MUL ADD PUSH1 0xA ADD PUSH1 0x0 DUP3 DUP3 SLOAD PUSH2 0x696 SWAP2 SWAP1 PUSH2 0xFAE JUMP JUMPDEST SWAP3 POP POP DUP2 SWAP1 SSTORE POP PUSH2 0x6EA JUMP JUMPDEST DUP1 PUSH1 0x0 ADD SLOAD PUSH1 0x2 PUSH2 0x6B1 PUSH2 0x972 JUMP JUMPDEST DUP2 SLOAD DUP2 LT PUSH2 0x6C2 JUMPI PUSH2 0x6C1 PUSH2 0x11F0 JUMP JUMPDEST JUMPDEST SWAP1 PUSH1 0x0 MSTORE PUSH1 0x20 PUSH1 0x0 KECCAK256 SWAP1 PUSH1 0xC MUL ADD PUSH1 0xB ADD PUSH1 0x0 DUP3 DUP3 SLOAD PUSH2 0x6E2 SWAP2 SWAP1 PUSH2 0xFAE JUMP JUMPDEST SWAP3 POP POP DUP2 SWAP1 SSTORE POP JUMPDEST JUMPDEST JUMPDEST JUMPDEST JUMPDEST JUMPDEST JUMPDEST JUMPDEST JUMPDEST POP JUMP JUMPDEST PUSH1 0x3 SLOAD DUP2 JUMP JUMPDEST PUSH1 0x1 PUSH1 0x20 MSTORE DUP1 PUSH1 0x0 MSTORE PUSH1 0x40 PUSH1 0x0 KECCAK256 PUSH1 0x0 SWAP2 POP SWAP1 POP DUP1 PUSH1 0x0 ADD SLOAD SWAP1 DUP1 PUSH1 0x1 ADD PUSH1 0x0 SWAP1 SLOAD SWAP1 PUSH2 0x100 EXP SWAP1 DIV PUSH1 0xFF AND SWAP1 DUP1 PUSH1 0x2 ADD SLOAD SWAP1 DUP1 PUSH1 0x3 ADD SLOAD SWAP1 POP DUP5 JUMP JUMPDEST PUSH2 0x740 PUSH2 0xA5C JUMP JUMPDEST PUSH1 0x2 DUP3 DUP2 SLOAD DUP2 LT PUSH2 0x754 JUMPI PUSH2 0x753 PUSH2 0x11F0 JUMP JUMPDEST JUMPDEST SWAP1 PUSH1 0x0 MSTORE PUSH1 0x20 PUSH1 0x0 KECCAK256 SWAP1 PUSH1 0xC MUL ADD PUSH1 0x40 MLOAD DUP1 PUSH2 0x180 ADD PUSH1 0x40 MSTORE SWAP1 DUP2 PUSH1 0x0 DUP3 ADD DUP1 SLOAD PUSH2 0x77E SWAP1 PUSH2 0x1089 JUMP JUMPDEST DUP1 PUSH1 0x1F ADD PUSH1 0x20 DUP1 SWAP2 DIV MUL PUSH1 0x20 ADD PUSH1 0x40 MLOAD SWAP1 DUP2 ADD PUSH1 0x40 MSTORE DUP1 SWAP3 SWAP2 SWAP1 DUP2 DUP2 MSTORE PUSH1 0x20 ADD DUP3 DUP1 SLOAD PUSH2 0x7AA SWAP1 PUSH2 0x1089 JUMP JUMPDEST DUP1 ISZERO PUSH2 0x7F7 JUMPI DUP1 PUSH1 0x1F LT PUSH2 0x7CC JUMPI PUSH2 0x100 DUP1 DUP4 SLOAD DIV MUL DUP4 MSTORE SWAP2 PUSH1 0x20 ADD SWAP2 PUSH2 0x7F7 JUMP JUMPDEST DUP3 ADD SWAP2 SWAP1 PUSH1 0x0 MSTORE PUSH1 0x20 PUSH1 0x0 KECCAK256 SWAP1 JUMPDEST DUP2 SLOAD DUP2 MSTORE SWAP1 PUSH1 0x1 ADD SWAP1 PUSH1 0x20 ADD DUP1 DUP4 GT PUSH2 0x7DA JUMPI DUP3 SWAP1 SUB PUSH1 0x1F AND DUP3 ADD SWAP2 JUMPDEST POP POP POP POP POP DUP2 MSTORE PUSH1 0x20 ADD PUSH1 0x1 DUP3 ADD SLOAD DUP2 MSTORE PUSH1 0x20 ADD PUSH1 0x2 DUP3 ADD SLOAD DUP2 MSTORE PUSH1 0x20 ADD PUSH1 0x3 DUP3 ADD SLOAD DUP2 MSTORE PUSH1 0x20 ADD PUSH1 0x4 DUP3 ADD SLOAD DUP2 MSTORE PUSH1 0x20 ADD PUSH1 0x5 DUP3 ADD SLOAD DUP2 MSTORE PUSH1 0x20 ADD PUSH1 0x6 DUP3 ADD SLOAD DUP2 MSTORE PUSH1 0x20 ADD PUSH1 0x7 DUP3 ADD SLOAD DUP2 MSTORE PUSH1 0x20 ADD PUSH1 0x8 DUP3 ADD SLOAD DUP2 MSTORE PUSH1 0x20 ADD PUSH1 0x9 DUP3 ADD SLOAD DUP2 MSTORE PUSH1 0x20 ADD PUSH1 0xA DUP3 ADD SLOAD DUP2 MSTORE PUSH1 0x20 ADD PUSH1 0xB DUP3 ADD SLOAD DUP2 MSTORE POP POP SWAP1 POP SWAP2 SWAP1 POP JUMP JUMPDEST PUSH1 0x60 PUSH1 0x2 PUSH2 0x881 PUSH2 0x9CF JUMP JUMPDEST DUP2 SLOAD DUP2 LT PUSH2 0x892 JUMPI PUSH2 0x891 PUSH2 0x11F0 JUMP JUMPDEST JUMPDEST SWAP1 PUSH1 0x0 MSTORE PUSH1 0x20 PUSH1 0x0 KECCAK256 SWAP1 PUSH1 0xC MUL ADD PUSH1 0x0 ADD DUP1 SLOAD PUSH2 0x8AE SWAP1 PUSH2 0x1089 JUMP JUMPDEST DUP1 PUSH1 0x1F ADD PUSH1 0x20 DUP1 SWAP2 DIV MUL PUSH1 0x20 ADD PUSH1 0x40 MLOAD SWAP1 DUP2 ADD PUSH1 0x40 MSTORE DUP1 SWAP3 SWAP2 SWAP1 DUP2 DUP2 MSTORE PUSH1 0x20 ADD DUP3 DUP1 SLOAD PUSH2 0x8DA SWAP1 PUSH2 0x1089 JUMP JUMPDEST DUP1 ISZERO PUSH2 0x927 JUMPI DUP1 PUSH1 0x1F LT PUSH2 0x8FC JUMPI PUSH2 0x100 DUP1 DUP4 SLOAD DIV MUL DUP4 MSTORE SWAP2 PUSH1 0x20 ADD SWAP2 PUSH2 0x927 JUMP JUMPDEST DUP3 ADD SWAP2 SWAP1 PUSH1 0x0 MSTORE PUSH1 0x20 PUSH1 0x0 KECCAK256 SWAP1 JUMPDEST DUP2 SLOAD DUP2 MSTORE SWAP1 PUSH1 0x1 ADD SWAP1 PUSH1 0x20 ADD DUP1 DUP4 GT PUSH2 0x90A JUMPI DUP3 SWAP1 SUB PUSH1 0x1F AND DUP3 ADD SWAP2 JUMPDEST POP POP POP POP POP SWAP1 POP SWAP1 JUMP JUMPDEST PUSH1 0x0 PUSH1 0xA TIMESTAMP DIFFICULTY CALLER PUSH1 0x40 MLOAD PUSH1 0x20 ADD PUSH2 0x94A SWAP4 SWAP3 SWAP2 SWAP1 PUSH2 0xDAC JUMP JUMPDEST PUSH1 0x40 MLOAD PUSH1 0x20 DUP2 DUP4 SUB SUB DUP2 MSTORE SWAP1 PUSH1 0x40 MSTORE DUP1 MLOAD SWAP1 PUSH1 0x20 ADD KECCAK256 PUSH1 0x0 SHR PUSH2 0x96D SWAP2 SWAP1 PUSH2 0x1132 JUMP JUMPDEST SWAP1 POP SWAP1 JUMP JUMPDEST PUSH1 0x0 PUSH1 0x5 TIMESTAMP DIFFICULTY CALLER PUSH1 0x40 MLOAD PUSH1 0x20 ADD PUSH2 0x98B SWAP4 SWAP3 SWAP2 SWAP1 PUSH2 0xDAC JUMP JUMPDEST PUSH1 0x40 MLOAD PUSH1 0x20 DUP2 DUP4 SUB SUB DUP2 MSTORE SWAP1 PUSH1 0x40 MSTORE DUP1 MLOAD SWAP1 PUSH1 0x20 ADD KECCAK256 PUSH1 0x0 SHR PUSH2 0x9AE SWAP2 SWAP1 PUSH2 0x1132 JUMP JUMPDEST SWAP1 POP SWAP1 JUMP JUMPDEST PUSH1 0x1 PUSH1 0x3 PUSH1 0x0 DUP3 DUP3 SLOAD PUSH2 0x9C6 SWAP2 SWAP1 PUSH2 0xF1A JUMP JUMPDEST SWAP3 POP POP DUP2 SWAP1 SSTORE POP JUMP JUMPDEST PUSH1 0x0 PUSH2 0x9D9 PUSH2 0xABD JUMP JUMPDEST PUSH1 0x0 DUP1 JUMPDEST PUSH1 0x2 DUP1 SLOAD SWAP1 POP DUP2 LT ISZERO PUSH2 0xA56 JUMPI DUP2 PUSH1 0x2 DUP3 DUP2 SLOAD DUP2 LT PUSH2 0x9FF JUMPI PUSH2 0x9FE PUSH2 0x11F0 JUMP JUMPDEST JUMPDEST SWAP1 PUSH1 0x0 MSTORE PUSH1 0x20 PUSH1 0x0 KECCAK256 SWAP1 PUSH1 0xC MUL ADD PUSH1 0x1 ADD SLOAD GT ISZERO PUSH2 0xA43 JUMPI PUSH1 0x2 DUP2 DUP2 SLOAD DUP2 LT PUSH2 0xA2B JUMPI PUSH2 0xA2A PUSH2 0x11F0 JUMP JUMPDEST JUMPDEST SWAP1 PUSH1 0x0 MSTORE PUSH1 0x20 PUSH1 0x0 KECCAK256 SWAP1 PUSH1 0xC MUL ADD PUSH1 0x1 ADD SLOAD SWAP2 POP DUP1 SWAP4 POP JUMPDEST DUP1 DUP1 PUSH2 0xA4E SWAP1 PUSH2 0x10BB JUMP JUMPDEST SWAP2 POP POP PUSH2 0x9DD JUMP JUMPDEST POP POP POP SWAP1 JUMP JUMPDEST PUSH1 0x40 MLOAD DUP1 PUSH2 0x180 ADD PUSH1 0x40 MSTORE DUP1 PUSH1 0x60 DUP2 MSTORE PUSH1 0x20 ADD PUSH1 0x0 DUP2 MSTORE PUSH1 0x20 ADD PUSH1 0x0 DUP2 MSTORE PUSH1 0x20 ADD PUSH1 0x0 DUP2 MSTORE PUSH1 0x20 ADD PUSH1 0x0 DUP2 MSTORE PUSH1 0x20 ADD PUSH1 0x0 DUP2 MSTORE PUSH1 0x20 ADD PUSH1 0x0 DUP2 MSTORE PUSH1 0x20 ADD PUSH1 0x0 DUP2 MSTORE PUSH1 0x20 ADD PUSH1 0x0 DUP2 MSTORE PUSH1 0x20 ADD PUSH1 0x0 DUP2 MSTORE PUSH1 0x20 ADD PUSH1 0x0 DUP2 MSTORE PUSH1 0x20 ADD PUSH1 0x0 DUP2 MSTORE POP SWAP1 JUMP JUMPDEST PUSH1 0x40 MLOAD DUP1 PUSH1 0xA0 ADD PUSH1 0x40 MSTORE DUP1 PUSH1 0x5 SWAP1 PUSH1 0x20 DUP3 MUL DUP1 CALLDATASIZE DUP4 CALLDATACOPY DUP1 DUP3 ADD SWAP2 POP POP SWAP1 POP POP SWAP1 JUMP JUMPDEST PUSH1 0x0 DUP2 CALLDATALOAD SWAP1 POP PUSH2 0xAEE DUP2 PUSH2 0x12BD JUMP JUMPDEST SWAP3 SWAP2 POP POP JUMP JUMPDEST PUSH1 0x0 DUP2 CALLDATALOAD SWAP1 POP PUSH2 0xB03 DUP2 PUSH2 0x12D4 JUMP JUMPDEST SWAP3 SWAP2 POP POP JUMP JUMPDEST PUSH1 0x0 PUSH1 0x20 DUP3 DUP5 SUB SLT ISZERO PUSH2 0xB1F JUMPI PUSH2 0xB1E PUSH2 0x121F JUMP JUMPDEST JUMPDEST PUSH1 0x0 PUSH2 0xB2D DUP5 DUP3 DUP6 ADD PUSH2 0xADF JUMP JUMPDEST SWAP2 POP POP SWAP3 SWAP2 POP POP JUMP JUMPDEST PUSH1 0x0 PUSH1 0x20 DUP3 DUP5 SUB SLT ISZERO PUSH2 0xB4C JUMPI PUSH2 0xB4B PUSH2 0x121F JUMP JUMPDEST JUMPDEST PUSH1 0x0 PUSH2 0xB5A DUP5 DUP3 DUP6 ADD PUSH2 0xAF4 JUMP JUMPDEST SWAP2 POP POP SWAP3 SWAP2 POP POP JUMP JUMPDEST PUSH2 0xB74 PUSH2 0xB6F DUP3 PUSH2 0x1004 JUMP JUMPDEST PUSH2 0x1104 JUMP JUMPDEST DUP3 MSTORE POP POP JUMP JUMPDEST PUSH2 0xB83 DUP2 PUSH2 0x1016 JUMP JUMPDEST DUP3 MSTORE POP POP JUMP JUMPDEST PUSH2 0xB92 DUP2 PUSH2 0x1022 JUMP JUMPDEST DUP3 MSTORE POP POP JUMP JUMPDEST PUSH1 0x0 PUSH2 0xBA3 DUP3 PUSH2 0xEED JUMP JUMPDEST PUSH2 0xBAD DUP2 DUP6 PUSH2 0xEF8 JUMP JUMPDEST SWAP4 POP PUSH2 0xBBD DUP2 DUP6 PUSH1 0x20 DUP7 ADD PUSH2 0x1056 JUMP JUMPDEST PUSH2 0xBC6 DUP2 PUSH2 0x1224 JUMP JUMPDEST DUP5 ADD SWAP2 POP POP SWAP3 SWAP2 POP POP JUMP JUMPDEST PUSH1 0x0 PUSH2 0xBDC DUP3 PUSH2 0xEED JUMP JUMPDEST PUSH2 0xBE6 DUP2 DUP6 PUSH2 0xF09 JUMP JUMPDEST SWAP4 POP PUSH2 0xBF6 DUP2 DUP6 PUSH1 0x20 DUP7 ADD PUSH2 0x1056 JUMP JUMPDEST PUSH2 0xBFF DUP2 PUSH2 0x1224 JUMP JUMPDEST DUP5 ADD SWAP2 POP POP SWAP3 SWAP2 POP POP JUMP JUMPDEST PUSH1 0x0 PUSH2 0xC17 PUSH1 0xE DUP4 PUSH2 0xF09 JUMP JUMPDEST SWAP2 POP PUSH2 0xC22 DUP3 PUSH2 0x1242 JUMP JUMPDEST PUSH1 0x20 DUP3 ADD SWAP1 POP SWAP2 SWAP1 POP JUMP JUMPDEST PUSH1 0x0 PUSH2 0xC3A PUSH1 0x18 DUP4 PUSH2 0xF09 JUMP JUMPDEST SWAP2 POP PUSH2 0xC45 DUP3 PUSH2 0x126B JUMP JUMPDEST PUSH1 0x20 DUP3 ADD SWAP1 POP SWAP2 SWAP1 POP JUMP JUMPDEST PUSH1 0x0 PUSH2 0xC5D PUSH1 0x13 DUP4 PUSH2 0xF09 JUMP JUMPDEST SWAP2 POP PUSH2 0xC68 DUP3 PUSH2 0x1294 JUMP JUMPDEST PUSH1 0x20 DUP3 ADD SWAP1 POP SWAP2 SWAP1 POP JUMP JUMPDEST PUSH1 0x0 PUSH2 0x180 DUP4 ADD PUSH1 0x0 DUP4 ADD MLOAD DUP5 DUP3 SUB PUSH1 0x0 DUP7 ADD MSTORE PUSH2 0xC91 DUP3 DUP3 PUSH2 0xB98 JUMP JUMPDEST SWAP2 POP POP PUSH1 0x20 DUP4 ADD MLOAD PUSH2 0xCA6 PUSH1 0x20 DUP7 ADD DUP3 PUSH2 0xD77 JUMP JUMPDEST POP PUSH1 0x40 DUP4 ADD MLOAD PUSH2 0xCB9 PUSH1 0x40 DUP7 ADD DUP3 PUSH2 0xD77 JUMP JUMPDEST POP PUSH1 0x60 DUP4 ADD MLOAD PUSH2 0xCCC PUSH1 0x60 DUP7 ADD DUP3 PUSH2 0xD77 JUMP JUMPDEST POP PUSH1 0x80 DUP4 ADD MLOAD PUSH2 0xCDF PUSH1 0x80 DUP7 ADD DUP3 PUSH2 0xD77 JUMP JUMPDEST POP PUSH1 0xA0 DUP4 ADD MLOAD PUSH2 0xCF2 PUSH1 0xA0 DUP7 ADD DUP3 PUSH2 0xD77 JUMP JUMPDEST POP PUSH1 0xC0 DUP4 ADD MLOAD PUSH2 0xD05 PUSH1 0xC0 DUP7 ADD DUP3 PUSH2 0xD77 JUMP JUMPDEST POP PUSH1 0xE0 DUP4 ADD MLOAD PUSH2 0xD18 PUSH1 0xE0 DUP7 ADD DUP3 PUSH2 0xD77 JUMP JUMPDEST POP PUSH2 0x100 DUP4 ADD MLOAD PUSH2 0xD2D PUSH2 0x100 DUP7 ADD DUP3 PUSH2 0xD77 JUMP JUMPDEST POP PUSH2 0x120 DUP4 ADD MLOAD PUSH2 0xD42 PUSH2 0x120 DUP7 ADD DUP3 PUSH2 0xD77 JUMP JUMPDEST POP PUSH2 0x140 DUP4 ADD MLOAD PUSH2 0xD57 PUSH2 0x140 DUP7 ADD DUP3 PUSH2 0xD77 JUMP JUMPDEST POP PUSH2 0x160 DUP4 ADD MLOAD PUSH2 0xD6C PUSH2 0x160 DUP7 ADD DUP3 PUSH2 0xD77 JUMP JUMPDEST POP DUP1 SWAP2 POP POP SWAP3 SWAP2 POP POP JUMP JUMPDEST PUSH2 0xD80 DUP2 PUSH2 0x104C JUMP JUMPDEST DUP3 MSTORE POP POP JUMP JUMPDEST PUSH2 0xD8F DUP2 PUSH2 0x104C JUMP JUMPDEST DUP3 MSTORE POP POP JUMP JUMPDEST PUSH2 0xDA6 PUSH2 0xDA1 DUP3 PUSH2 0x104C JUMP JUMPDEST PUSH2 0x1128 JUMP JUMPDEST DUP3 MSTORE POP POP JUMP JUMPDEST PUSH1 0x0 PUSH2 0xDB8 DUP3 DUP7 PUSH2 0xD95 JUMP JUMPDEST PUSH1 0x20 DUP3 ADD SWAP2 POP PUSH2 0xDC8 DUP3 DUP6 PUSH2 0xD95 JUMP JUMPDEST PUSH1 0x20 DUP3 ADD SWAP2 POP PUSH2 0xDD8 DUP3 DUP5 PUSH2 0xB63 JUMP JUMPDEST PUSH1 0x14 DUP3 ADD SWAP2 POP DUP2 SWAP1 POP SWAP5 SWAP4 POP POP POP POP JUMP JUMPDEST PUSH1 0x0 PUSH1 0x20 DUP3 ADD SWAP1 POP PUSH2 0xDFE PUSH1 0x0 DUP4 ADD DUP5 PUSH2 0xB89 JUMP JUMPDEST SWAP3 SWAP2 POP POP JUMP JUMPDEST PUSH1 0x0 PUSH1 0x20 DUP3 ADD SWAP1 POP DUP2 DUP2 SUB PUSH1 0x0 DUP4 ADD MSTORE PUSH2 0xE1E DUP2 DUP5 PUSH2 0xBD1 JUMP JUMPDEST SWAP1 POP SWAP3 SWAP2 POP POP JUMP JUMPDEST PUSH1 0x0 PUSH1 0x20 DUP3 ADD SWAP1 POP DUP2 DUP2 SUB PUSH1 0x0 DUP4 ADD MSTORE PUSH2 0xE3F DUP2 PUSH2 0xC0A JUMP JUMPDEST SWAP1 POP SWAP2 SWAP1 POP JUMP JUMPDEST PUSH1 0x0 PUSH1 0x20 DUP3 ADD SWAP1 POP DUP2 DUP2 SUB PUSH1 0x0 DUP4 ADD MSTORE PUSH2 0xE5F DUP2 PUSH2 0xC2D JUMP JUMPDEST SWAP1 POP SWAP2 SWAP1 POP JUMP JUMPDEST PUSH1 0x0 PUSH1 0x20 DUP3 ADD SWAP1 POP DUP2 DUP2 SUB PUSH1 0x0 DUP4 ADD MSTORE PUSH2 0xE7F DUP2 PUSH2 0xC50 JUMP JUMPDEST SWAP1 POP SWAP2 SWAP1 POP JUMP JUMPDEST PUSH1 0x0 PUSH1 0x20 DUP3 ADD SWAP1 POP DUP2 DUP2 SUB PUSH1 0x0 DUP4 ADD MSTORE PUSH2 0xEA0 DUP2 DUP5 PUSH2 0xC73 JUMP JUMPDEST SWAP1 POP SWAP3 SWAP2 POP POP JUMP JUMPDEST PUSH1 0x0 PUSH1 0x80 DUP3 ADD SWAP1 POP PUSH2 0xEBD PUSH1 0x0 DUP4 ADD DUP8 PUSH2 0xD86 JUMP JUMPDEST PUSH2 0xECA PUSH1 0x20 DUP4 ADD DUP7 PUSH2 0xB7A JUMP JUMPDEST PUSH2 0xED7 PUSH1 0x40 DUP4 ADD DUP6 PUSH2 0xD86 JUMP JUMPDEST PUSH2 0xEE4 PUSH1 0x60 DUP4 ADD DUP5 PUSH2 0xD86 JUMP JUMPDEST SWAP6 SWAP5 POP POP POP POP POP JUMP JUMPDEST PUSH1 0x0 DUP2 MLOAD SWAP1 POP SWAP2 SWAP1 POP JUMP JUMPDEST PUSH1 0x0 DUP3 DUP3 MSTORE PUSH1 0x20 DUP3 ADD SWAP1 POP SWAP3 SWAP2 POP POP JUMP JUMPDEST PUSH1 0x0 DUP3 DUP3 MSTORE PUSH1 0x20 DUP3 ADD SWAP1 POP SWAP3 SWAP2 POP POP JUMP JUMPDEST PUSH1 0x0 PUSH2 0xF25 DUP3 PUSH2 0x1022 JUMP JUMPDEST SWAP2 POP PUSH2 0xF30 DUP4 PUSH2 0x1022 JUMP JUMPDEST SWAP3 POP DUP2 PUSH32 0x7FFFFFFFFFFFFFFFFFFFFFFFFFFFFFFFFFFFFFFFFFFFFFFFFFFFFFFFFFFFFFFF SUB DUP4 SGT PUSH1 0x0 DUP4 SLT ISZERO AND ISZERO PUSH2 0xF6B JUMPI PUSH2 0xF6A PUSH2 0x1163 JUMP JUMPDEST JUMPDEST DUP2 PUSH32 0x8000000000000000000000000000000000000000000000000000000000000000 SUB DUP4 SLT PUSH1 0x0 DUP4 SLT AND ISZERO PUSH2 0xFA3 JUMPI PUSH2 0xFA2 PUSH2 0x1163 JUMP JUMPDEST JUMPDEST DUP3 DUP3 ADD SWAP1 POP SWAP3 SWAP2 POP POP JUMP JUMPDEST PUSH1 0x0 PUSH2 0xFB9 DUP3 PUSH2 0x104C JUMP JUMPDEST SWAP2 POP PUSH2 0xFC4 DUP4 PUSH2 0x104C JUMP JUMPDEST SWAP3 POP DUP3 PUSH32 0xFFFFFFFFFFFFFFFFFFFFFFFFFFFFFFFFFFFFFFFFFFFFFFFFFFFFFFFFFFFFFFFF SUB DUP3 GT ISZERO PUSH2 0xFF9 JUMPI PUSH2 0xFF8 PUSH2 0x1163 JUMP JUMPDEST JUMPDEST DUP3 DUP3 ADD SWAP1 POP SWAP3 SWAP2 POP POP JUMP JUMPDEST PUSH1 0x0 PUSH2 0x100F DUP3 PUSH2 0x102C JUMP JUMPDEST SWAP1 POP SWAP2 SWAP1 POP JUMP JUMPDEST PUSH1 0x0 DUP2 ISZERO ISZERO SWAP1 POP SWAP2 SWAP1 POP JUMP JUMPDEST PUSH1 0x0 DUP2 SWAP1 POP SWAP2 SWAP1 POP JUMP JUMPDEST PUSH1 0x0 PUSH20 0xFFFFFFFFFFFFFFFFFFFFFFFFFFFFFFFFFFFFFFFF DUP3 AND SWAP1 POP SWAP2 SWAP1 POP JUMP JUMPDEST PUSH1 0x0 DUP2 SWAP1 POP SWAP2 SWAP1 POP JUMP JUMPDEST PUSH1 0x0 JUMPDEST DUP4 DUP2 LT ISZERO PUSH2 0x1074 JUMPI DUP1 DUP3 ADD MLOAD DUP2 DUP5 ADD MSTORE PUSH1 0x20 DUP2 ADD SWAP1 POP PUSH2 0x1059 JUMP JUMPDEST DUP4 DUP2 GT ISZERO PUSH2 0x1083 JUMPI PUSH1 0x0 DUP5 DUP5 ADD MSTORE JUMPDEST POP POP POP POP JUMP JUMPDEST PUSH1 0x0 PUSH1 0x2 DUP3 DIV SWAP1 POP PUSH1 0x1 DUP3 AND DUP1 PUSH2 0x10A1 JUMPI PUSH1 0x7F DUP3 AND SWAP2 POP JUMPDEST PUSH1 0x20 DUP3 LT DUP2 EQ ISZERO PUSH2 0x10B5 JUMPI PUSH2 0x10B4 PUSH2 0x11C1 JUMP JUMPDEST JUMPDEST POP SWAP2 SWAP1 POP JUMP JUMPDEST PUSH1 0x0 PUSH2 0x10C6 DUP3 PUSH2 0x104C JUMP JUMPDEST SWAP2 POP PUSH32 0xFFFFFFFFFFFFFFFFFFFFFFFFFFFFFFFFFFFFFFFFFFFFFFFFFFFFFFFFFFFFFFFF DUP3 EQ ISZERO PUSH2 0x10F9 JUMPI PUSH2 0x10F8 PUSH2 0x1163 JUMP JUMPDEST JUMPDEST PUSH1 0x1 DUP3 ADD SWAP1 POP SWAP2 SWAP1 POP JUMP JUMPDEST PUSH1 0x0 PUSH2 0x110F DUP3 PUSH2 0x1116 JUMP JUMPDEST SWAP1 POP SWAP2 SWAP1 POP JUMP JUMPDEST PUSH1 0x0 PUSH2 0x1121 DUP3 PUSH2 0x1235 JUMP JUMPDEST SWAP1 POP SWAP2 SWAP1 POP JUMP JUMPDEST PUSH1 0x0 DUP2 SWAP1 POP SWAP2 SWAP1 POP JUMP JUMPDEST PUSH1 0x0 PUSH2 0x113D DUP3 PUSH2 0x104C JUMP JUMPDEST SWAP2 POP PUSH2 0x1148 DUP4 PUSH2 0x104C JUMP JUMPDEST SWAP3 POP DUP3 PUSH2 0x1158 JUMPI PUSH2 0x1157 PUSH2 0x1192 JUMP JUMPDEST JUMPDEST DUP3 DUP3 MOD SWAP1 POP SWAP3 SWAP2 POP POP JUMP JUMPDEST PUSH32 0x4E487B7100000000000000000000000000000000000000000000000000000000 PUSH1 0x0 MSTORE PUSH1 0x11 PUSH1 0x4 MSTORE PUSH1 0x24 PUSH1 0x0 REVERT JUMPDEST PUSH32 0x4E487B7100000000000000000000000000000000000000000000000000000000 PUSH1 0x0 MSTORE PUSH1 0x12 PUSH1 0x4 MSTORE PUSH1 0x24 PUSH1 0x0 REVERT JUMPDEST PUSH32 0x4E487B7100000000000000000000000000000000000000000000000000000000 PUSH1 0x0 MSTORE PUSH1 0x22 PUSH1 0x4 MSTORE PUSH1 0x24 PUSH1 0x0 REVERT JUMPDEST PUSH32 0x4E487B7100000000000000000000000000000000000000000000000000000000 PUSH1 0x0 MSTORE PUSH1 0x32 PUSH1 0x4 MSTORE PUSH1 0x24 PUSH1 0x0 REVERT JUMPDEST PUSH1 0x0 DUP1 REVERT JUMPDEST PUSH1 0x0 PUSH1 0x1F NOT PUSH1 0x1F DUP4 ADD AND SWAP1 POP SWAP2 SWAP1 POP JUMP JUMPDEST PUSH1 0x0 DUP2 PUSH1 0x60 SHL SWAP1 POP SWAP2 SWAP1 POP JUMP JUMPDEST PUSH32 0x416C726561647920766F7465642E000000000000000000000000000000000000 PUSH1 0x0 DUP3 ADD MSTORE POP JUMP JUMPDEST PUSH32 0x54686520766F74657220616C726561647920766F7465642E0000000000000000 PUSH1 0x0 DUP3 ADD MSTORE POP JUMP JUMPDEST PUSH32 0x52656163686564206D617820766F746572732E00000000000000000000000000 PUSH1 0x0 DUP3 ADD MSTORE POP JUMP JUMPDEST PUSH2 0x12C6 DUP2 PUSH2 0x1004 JUMP JUMPDEST DUP2 EQ PUSH2 0x12D1 JUMPI PUSH1 0x0 DUP1 REVERT JUMPDEST POP JUMP JUMPDEST PUSH2 0x12DD DUP2 PUSH2 0x104C JUMP JUMPDEST DUP2 EQ PUSH2 0x12E8 JUMPI PUSH1 0x0 DUP1 REVERT JUMPDEST POP JUMP INVALID LOG2 PUSH5 0x6970667358 0x22 SLT KECCAK256 EXTCODEHASH SWAP14 LT 0x1F MSIZE 0xDA PUSH5 0x1FAA42D0E8 0x2D 0xB5 PUSH29 0x67D906D246DD5BBFE86B284AC5FDFBCD4664736F6C6343000807003300 "
				},
				"gasEstimates": {
					"creation": {
						"codeDepositCost": "979400",
						"executionCost": "infinite",
						"totalCost": "infinite"
					},
					"external": {
						"countV()": "2429",
						"res(uint256)": "infinite",
						"vote()": "infinite",
						"voters(address)": "infinite",
						"winnerName()": "infinite"
					},
					"internal": {
						"countVoters()": "infinite",
						"random_district()": "infinite",
						"random_vote()": "infinite",
						"winningProposal()": "infinite"
					}
				},
				"methodIdentifiers": {
					"countV()": "6d8f3f10",
					"res(uint256)": "d4e8fd2e",
					"vote()": "632a9a52",
					"voters(address)": "a3ec138d",
					"winnerName()": "e2ba53f0"
				}
			},
			"storageLayout": {
				"storage": [
					{
						"astId": 38,
						"contract": "smartContract/contracts/3_Ballot.sol:Ballot",
						"label": "chairperson",
						"offset": 0,
						"slot": "0",
						"type": "t_address"
					},
					{
						"astId": 43,
						"contract": "smartContract/contracts/3_Ballot.sol:Ballot",
						"label": "voters",
						"offset": 0,
						"slot": "1",
						"type": "t_mapping(t_address,t_struct(Voter)11_storage)"
					},
					{
						"astId": 47,
						"contract": "smartContract/contracts/3_Ballot.sol:Ballot",
						"label": "proposals",
						"offset": 0,
						"slot": "2",
						"type": "t_array(t_struct(Proposal)36_storage)dyn_storage"
					},
					{
						"astId": 144,
						"contract": "smartContract/contracts/3_Ballot.sol:Ballot",
						"label": "countV",
						"offset": 0,
						"slot": "3",
						"type": "t_int256"
					}
				],
				"types": {
					"t_address": {
						"encoding": "inplace",
						"label": "address",
						"numberOfBytes": "20"
					},
					"t_array(t_struct(Proposal)36_storage)dyn_storage": {
						"base": "t_struct(Proposal)36_storage",
						"encoding": "dynamic_array",
						"label": "struct Ballot.Proposal[]",
						"numberOfBytes": "32"
					},
					"t_bool": {
						"encoding": "inplace",
						"label": "bool",
						"numberOfBytes": "1"
					},
					"t_int256": {
						"encoding": "inplace",
						"label": "int256",
						"numberOfBytes": "32"
					},
					"t_mapping(t_address,t_struct(Voter)11_storage)": {
						"encoding": "mapping",
						"key": "t_address",
						"label": "mapping(address => struct Ballot.Voter)",
						"numberOfBytes": "32",
						"value": "t_struct(Voter)11_storage"
					},
					"t_string_storage": {
						"encoding": "bytes",
						"label": "string",
						"numberOfBytes": "32"
					},
					"t_struct(Proposal)36_storage": {
						"encoding": "inplace",
						"label": "struct Ballot.Proposal",
						"members": [
							{
								"astId": 13,
								"contract": "smartContract/contracts/3_Ballot.sol:Ballot",
								"label": "name",
								"offset": 0,
								"slot": "0",
								"type": "t_string_storage"
							},
							{
								"astId": 15,
								"contract": "smartContract/contracts/3_Ballot.sol:Ballot",
								"label": "Total_Votes",
								"offset": 0,
								"slot": "1",
								"type": "t_uint256"
							},
							{
								"astId": 17,
								"contract": "smartContract/contracts/3_Ballot.sol:Ballot",
								"label": "Votes_District0",
								"offset": 0,
								"slot": "2",
								"type": "t_uint256"
							},
							{
								"astId": 19,
								"contract": "smartContract/contracts/3_Ballot.sol:Ballot",
								"label": "Votes_District1",
								"offset": 0,
								"slot": "3",
								"type": "t_uint256"
							},
							{
								"astId": 21,
								"contract": "smartContract/contracts/3_Ballot.sol:Ballot",
								"label": "Votes_District2",
								"offset": 0,
								"slot": "4",
								"type": "t_uint256"
							},
							{
								"astId": 23,
								"contract": "smartContract/contracts/3_Ballot.sol:Ballot",
								"label": "Votes_District3",
								"offset": 0,
								"slot": "5",
								"type": "t_uint256"
							},
							{
								"astId": 25,
								"contract": "smartContract/contracts/3_Ballot.sol:Ballot",
								"label": "Votes_District4",
								"offset": 0,
								"slot": "6",
								"type": "t_uint256"
							},
							{
								"astId": 27,
								"contract": "smartContract/contracts/3_Ballot.sol:Ballot",
								"label": "Votes_District5",
								"offset": 0,
								"slot": "7",
								"type": "t_uint256"
							},
							{
								"astId": 29,
								"contract": "smartContract/contracts/3_Ballot.sol:Ballot",
								"label": "Votes_District6",
								"offset": 0,
								"slot": "8",
								"type": "t_uint256"
							},
							{
								"astId": 31,
								"contract": "smartContract/contracts/3_Ballot.sol:Ballot",
								"label": "Votes_District7",
								"offset": 0,
								"slot": "9",
								"type": "t_uint256"
							},
							{
								"astId": 33,
								"contract": "smartContract/contracts/3_Ballot.sol:Ballot",
								"label": "Votes_District8",
								"offset": 0,
								"slot": "10",
								"type": "t_uint256"
							},
							{
								"astId": 35,
								"contract": "smartContract/contracts/3_Ballot.sol:Ballot",
								"label": "Votes_District9",
								"offset": 0,
								"slot": "11",
								"type": "t_uint256"
							}
						],
						"numberOfBytes": "384"
					},
					"t_struct(Voter)11_storage": {
						"encoding": "inplace",
						"label": "struct Ballot.Voter",
						"members": [
							{
								"astId": 4,
								"contract": "smartContract/contracts/3_Ballot.sol:Ballot",
								"label": "weight",
								"offset": 0,
								"slot": "0",
								"type": "t_uint256"
							},
							{
								"astId": 6,
								"contract": "smartContract/contracts/3_Ballot.sol:Ballot",
								"label": "voted",
								"offset": 0,
								"slot": "1",
								"type": "t_bool"
							},
							{
								"astId": 8,
								"contract": "smartContract/contracts/3_Ballot.sol:Ballot",
								"label": "district",
								"offset": 0,
								"slot": "2",
								"type": "t_uint256"
							},
							{
								"astId": 10,
								"contract": "smartContract/contracts/3_Ballot.sol:Ballot",
								"label": "vote",
								"offset": 0,
								"slot": "3",
								"type": "t_uint256"
							}
						],
						"numberOfBytes": "128"
					},
					"t_uint256": {
						"encoding": "inplace",
						"label": "uint256",
						"numberOfBytes": "32"
					}
				}
			},
			"userdoc": {
				"kind": "user",
				"methods": {},
				"version": 1
			}
		}
	}
}