{
	"smartContract/contracts/3_Ballot.sol": {
		"Ballot": {
			"abi": [
				{
					"inputs": [],
					"stateMutability": "nonpayable",
					"type": "constructor"
				},
				{
					"inputs": [],
					"name": "random_vote",
					"outputs": [
						{
							"internalType": "uint256",
							"name": "",
							"type": "uint256"
						}
					],
					"stateMutability": "view",
					"type": "function"
				},
				{
					"inputs": [
						{
							"internalType": "uint256",
							"name": "_id",
							"type": "uint256"
						}
					],
					"name": "res",
					"outputs": [
						{
							"components": [
								{
									"internalType": "string",
									"name": "name",
									"type": "string"
								},
								{
									"internalType": "uint256",
									"name": "Total_Votes",
									"type": "uint256"
								},
								{
									"internalType": "uint256",
									"name": "Votes_District0",
									"type": "uint256"
								},
								{
									"internalType": "uint256",
									"name": "Votes_District1",
									"type": "uint256"
								},
								{
									"internalType": "uint256",
									"name": "Votes_District2",
									"type": "uint256"
								},
								{
									"internalType": "uint256",
									"name": "Votes_District3",
									"type": "uint256"
								},
								{
									"internalType": "uint256",
									"name": "Votes_District4",
									"type": "uint256"
								},
								{
									"internalType": "uint256",
									"name": "Votes_District5",
									"type": "uint256"
								},
								{
									"internalType": "uint256",
									"name": "Votes_District6",
									"type": "uint256"
								},
								{
									"internalType": "uint256",
									"name": "Votes_District7",
									"type": "uint256"
								},
								{
									"internalType": "uint256",
									"name": "Votes_District8",
									"type": "uint256"
								},
								{
									"internalType": "uint256",
									"name": "Votes_District9",
									"type": "uint256"
								}
							],
							"internalType": "struct Ballot.Proposal",
							"name": "",
							"type": "tuple"
						}
					],
					"stateMutability": "view",
					"type": "function"
				},
				{
					"inputs": [],
					"name": "vote",
					"outputs": [],
					"stateMutability": "nonpayable",
					"type": "function"
				},
				{
					"inputs": [
						{
							"internalType": "address",
							"name": "",
							"type": "address"
						}
					],
					"name": "voters",
					"outputs": [
						{
							"internalType": "uint256",
							"name": "weight",
							"type": "uint256"
						},
						{
							"internalType": "bool",
							"name": "voted",
							"type": "bool"
						},
						{
							"internalType": "uint256",
							"name": "district",
							"type": "uint256"
						},
						{
							"internalType": "uint256",
							"name": "vote",
							"type": "uint256"
						}
					],
					"stateMutability": "view",
					"type": "function"
				}
			],
			"devdoc": {
				"details": "Implements voting process along with vote delegation",
				"kind": "dev",
				"methods": {},
				"title": "Ballot",
				"version": 1
			},
			"evm": {
				"assembly": "    /* \"smartContract/contracts/3_Ballot.sol\":157:4303  contract Ballot {... */\n  mstore(0x40, 0x80)\n    /* \"smartContract/contracts/3_Ballot.sol\":2100:2101  0 */\n  0x00\n    /* \"smartContract/contracts/3_Ballot.sol\":2079:2101  int private countV = 0 */\n  0x03\n  sstore\n    /* \"smartContract/contracts/3_Ballot.sol\":2193:2194  0 */\n  0x00\n    /* \"smartContract/contracts/3_Ballot.sol\":2172:2194  int private count2 = 0 */\n  0x04\n  sstore\n    /* \"smartContract/contracts/3_Ballot.sol\":1195:2037  constructor() {... */\n  callvalue\n  dup1\n  iszero\n  tag_1\n  jumpi\n  0x00\n  dup1\n  revert\ntag_1:\n  pop\n    /* \"smartContract/contracts/3_Ballot.sol\":1233:1243  msg.sender */\n  caller\n    /* \"smartContract/contracts/3_Ballot.sol\":1219:1230  chairperson */\n  0x00\n  dup1\n    /* \"smartContract/contracts/3_Ballot.sol\":1219:1243  chairperson = msg.sender */\n  0x0100\n  exp\n  dup2\n  sload\n  dup2\n  0xffffffffffffffffffffffffffffffffffffffff\n  mul\n  not\n  and\n  swap1\n  dup4\n  0xffffffffffffffffffffffffffffffffffffffff\n  and\n  mul\n  or\n  swap1\n  sstore\n  pop\n    /* \"smartContract/contracts/3_Ballot.sol\":1282:1283  1 */\n  0x01\n    /* \"smartContract/contracts/3_Ballot.sol\":1253:1259  voters */\n  dup1\n    /* \"smartContract/contracts/3_Ballot.sol\":1253:1272  voters[chairperson] */\n  0x00\n    /* \"smartContract/contracts/3_Ballot.sol\":1260:1271  chairperson */\n  dup1\n  0x00\n  swap1\n  sload\n  swap1\n  0x0100\n  exp\n  swap1\n  div\n  0xffffffffffffffffffffffffffffffffffffffff\n  and\n    /* \"smartContract/contracts/3_Ballot.sol\":1253:1272  voters[chairperson] */\n  0xffffffffffffffffffffffffffffffffffffffff\n  and\n  0xffffffffffffffffffffffffffffffffffffffff\n  and\n  dup2\n  mstore\n  0x20\n  add\n  swap1\n  dup2\n  mstore\n  0x20\n  add\n  0x00\n  keccak256\n    /* \"smartContract/contracts/3_Ballot.sol\":1253:1279  voters[chairperson].weight */\n  0x00\n  add\n    /* \"smartContract/contracts/3_Ballot.sol\":1253:1283  voters[chairperson].weight = 1 */\n  dup2\n  swap1\n  sstore\n  pop\n    /* \"smartContract/contracts/3_Ballot.sol\":1293:1323  string[5] memory proposalNames */\n  0x00\n    /* \"smartContract/contracts/3_Ballot.sol\":1293:1347  string[5] memory proposalNames = [\"a\",\"b\",\"c\",\"d\",\"e\"] */\n  mload(0x40)\n  dup1\n  0xa0\n  add\n  0x40\n  mstore\n  dup1\n  mload(0x40)\n  dup1\n  0x40\n  add\n  0x40\n  mstore\n  dup1\n  0x01\n  dup2\n  mstore\n  0x20\n  add\n  0x6100000000000000000000000000000000000000000000000000000000000000\n  dup2\n  mstore\n  pop\n  dup2\n  mstore\n  0x20\n  add\n  mload(0x40)\n  dup1\n  0x40\n  add\n  0x40\n  mstore\n  dup1\n  0x01\n  dup2\n  mstore\n  0x20\n  add\n  0x6200000000000000000000000000000000000000000000000000000000000000\n  dup2\n  mstore\n  pop\n  dup2\n  mstore\n  0x20\n  add\n  mload(0x40)\n  dup1\n  0x40\n  add\n  0x40\n  mstore\n  dup1\n  0x01\n  dup2\n  mstore\n  0x20\n  add\n  0x6300000000000000000000000000000000000000000000000000000000000000\n  dup2\n  mstore\n  pop\n  dup2\n  mstore\n  0x20\n  add\n  mload(0x40)\n  dup1\n  0x40\n  add\n  0x40\n  mstore\n  dup1\n  0x01\n  dup2\n  mstore\n  0x20\n  add\n  0x6400000000000000000000000000000000000000000000000000000000000000\n  dup2\n  mstore\n  pop\n  dup2\n  mstore\n  0x20\n  add\n  mload(0x40)\n  dup1\n  0x40\n  add\n  0x40\n  mstore\n  dup1\n  0x01\n  dup2\n  mstore\n  0x20\n  add\n  0x6500000000000000000000000000000000000000000000000000000000000000\n  dup2\n  mstore\n  pop\n  dup2\n  mstore\n  pop\n  swap1\n  pop\n    /* \"smartContract/contracts/3_Ballot.sol\":1387:1388  5 */\n  0x05\n    /* \"smartContract/contracts/3_Ballot.sol\":1365:1385  proposalNames.length */\n  dup1\n    /* \"smartContract/contracts/3_Ballot.sol\":1365:1388  proposalNames.length==5 */\n  eq\n    /* \"smartContract/contracts/3_Ballot.sol\":1357:1413  require(proposalNames.length==5,\"Candidates must be 5.\") */\n  tag_4\n  jumpi\n  mload(0x40)\n  0x08c379a000000000000000000000000000000000000000000000000000000000\n  dup2\n  mstore\n  0x04\n  add\n  tag_5\n  swap1\n  tag_6\n  jump\t// in\ntag_5:\n  mload(0x40)\n  dup1\n  swap2\n  sub\n  swap1\n  revert\ntag_4:\n    /* \"smartContract/contracts/3_Ballot.sol\":1428:1434  uint i */\n  0x00\n    /* \"smartContract/contracts/3_Ballot.sol\":1423:2031  for (uint i = 0; i < proposalNames.length; i++) {... */\ntag_7:\n    /* \"smartContract/contracts/3_Ballot.sol\":1444:1464  proposalNames.length */\n  0x05\n    /* \"smartContract/contracts/3_Ballot.sol\":1440:1441  i */\n  dup2\n    /* \"smartContract/contracts/3_Ballot.sol\":1440:1464  i < proposalNames.length */\n  lt\n    /* \"smartContract/contracts/3_Ballot.sol\":1423:2031  for (uint i = 0; i < proposalNames.length; i++) {... */\n  iszero\n  tag_8\n  jumpi\n    /* \"smartContract/contracts/3_Ballot.sol\":1485:1494  proposals */\n  0x02\n    /* \"smartContract/contracts/3_Ballot.sol\":1500:2019  Proposal({... */\n  mload(0x40)\n  dup1\n  0x0180\n  add\n  0x40\n  mstore\n  dup1\n    /* \"smartContract/contracts/3_Ballot.sol\":1533:1546  proposalNames */\n  dup5\n    /* \"smartContract/contracts/3_Ballot.sol\":1547:1548  i */\n  dup5\n    /* \"smartContract/contracts/3_Ballot.sol\":1533:1549  proposalNames[i] */\n  0x05\n  dup2\n  lt\n  tag_10\n  jumpi\n  tag_11\n  tag_12\n  jump\t// in\ntag_11:\ntag_10:\n  0x20\n  mul\n  add\n  mload\n    /* \"smartContract/contracts/3_Ballot.sol\":1500:2019  Proposal({... */\n  dup2\n  mstore\n  0x20\n  add\n    /* \"smartContract/contracts/3_Ballot.sol\":1643:1644  0 */\n  0x00\n    /* \"smartContract/contracts/3_Ballot.sol\":1500:2019  Proposal({... */\n  dup2\n  mstore\n  0x20\n  add\n    /* \"smartContract/contracts/3_Ballot.sol\":1679:1680  0 */\n  0x00\n    /* \"smartContract/contracts/3_Ballot.sol\":1500:2019  Proposal({... */\n  dup2\n  mstore\n  0x20\n  add\n    /* \"smartContract/contracts/3_Ballot.sol\":1715:1716  0 */\n  0x00\n    /* \"smartContract/contracts/3_Ballot.sol\":1500:2019  Proposal({... */\n  dup2\n  mstore\n  0x20\n  add\n    /* \"smartContract/contracts/3_Ballot.sol\":1751:1752  0 */\n  0x00\n    /* \"smartContract/contracts/3_Ballot.sol\":1500:2019  Proposal({... */\n  dup2\n  mstore\n  0x20\n  add\n    /* \"smartContract/contracts/3_Ballot.sol\":1787:1788  0 */\n  0x00\n    /* \"smartContract/contracts/3_Ballot.sol\":1500:2019  Proposal({... */\n  dup2\n  mstore\n  0x20\n  add\n    /* \"smartContract/contracts/3_Ballot.sol\":1823:1824  0 */\n  0x00\n    /* \"smartContract/contracts/3_Ballot.sol\":1500:2019  Proposal({... */\n  dup2\n  mstore\n  0x20\n  add\n    /* \"smartContract/contracts/3_Ballot.sol\":1859:1860  0 */\n  0x00\n    /* \"smartContract/contracts/3_Ballot.sol\":1500:2019  Proposal({... */\n  dup2\n  mstore\n  0x20\n  add\n    /* \"smartContract/contracts/3_Ballot.sol\":1895:1896  0 */\n  0x00\n    /* \"smartContract/contracts/3_Ballot.sol\":1500:2019  Proposal({... */\n  dup2\n  mstore\n  0x20\n  add\n    /* \"smartContract/contracts/3_Ballot.sol\":1931:1932  0 */\n  0x00\n    /* \"smartContract/contracts/3_Ballot.sol\":1500:2019  Proposal({... */\n  dup2\n  mstore\n  0x20\n  add\n    /* \"smartContract/contracts/3_Ballot.sol\":1967:1968  0 */\n  0x00\n    /* \"smartContract/contracts/3_Ballot.sol\":1500:2019  Proposal({... */\n  dup2\n  mstore\n  0x20\n  add\n    /* \"smartContract/contracts/3_Ballot.sol\":2003:2004  0 */\n  0x00\n    /* \"smartContract/contracts/3_Ballot.sol\":1500:2019  Proposal({... */\n  dup2\n  mstore\n  pop\n    /* \"smartContract/contracts/3_Ballot.sol\":1485:2020  proposals.push(Proposal({... */\n  swap1\n  dup1\n  0x01\n  dup2\n  sload\n  add\n  dup1\n  dup3\n  sstore\n  dup1\n  swap2\n  pop\n  pop\n  0x01\n  swap1\n  sub\n  swap1\n  0x00\n  mstore\n  keccak256(0x00, 0x20)\n  swap1\n  0x0c\n  mul\n  add\n  0x00\n  swap1\n  swap2\n  swap1\n  swap2\n  swap1\n  swap2\n  pop\n  0x00\n  dup3\n  add\n  mload\n  dup2\n  0x00\n  add\n  swap1\n  dup1\n  mload\n  swap1\n  0x20\n  add\n  swap1\n  tag_14\n  swap3\n  swap2\n  swap1\n  tag_15\n  jump\t// in\ntag_14:\n  pop\n  0x20\n  dup3\n  add\n  mload\n  dup2\n  0x01\n  add\n  sstore\n  0x40\n  dup3\n  add\n  mload\n  dup2\n  0x02\n  add\n  sstore\n  0x60\n  dup3\n  add\n  mload\n  dup2\n  0x03\n  add\n  sstore\n  0x80\n  dup3\n  add\n  mload\n  dup2\n  0x04\n  add\n  sstore\n  0xa0\n  dup3\n  add\n  mload\n  dup2\n  0x05\n  add\n  sstore\n  0xc0\n  dup3\n  add\n  mload\n  dup2\n  0x06\n  add\n  sstore\n  0xe0\n  dup3\n  add\n  mload\n  dup2\n  0x07\n  add\n  sstore\n  0x0100\n  dup3\n  add\n  mload\n  dup2\n  0x08\n  add\n  sstore\n  0x0120\n  dup3\n  add\n  mload\n  dup2\n  0x09\n  add\n  sstore\n  0x0140\n  dup3\n  add\n  mload\n  dup2\n  0x0a\n  add\n  sstore\n  0x0160\n  dup3\n  add\n  mload\n  dup2\n  0x0b\n  add\n  sstore\n  pop\n  pop\n    /* \"smartContract/contracts/3_Ballot.sol\":1466:1469  i++ */\n  dup1\n  dup1\n  tag_16\n  swap1\n  tag_17\n  jump\t// in\ntag_16:\n  swap2\n  pop\n  pop\n    /* \"smartContract/contracts/3_Ballot.sol\":1423:2031  for (uint i = 0; i < proposalNames.length; i++) {... */\n  jump(tag_7)\ntag_8:\n  pop\n    /* \"smartContract/contracts/3_Ballot.sol\":1209:2037  {... */\n  pop\n    /* \"smartContract/contracts/3_Ballot.sol\":157:4303  contract Ballot {... */\n  jump(tag_18)\ntag_15:\n  dup3\n  dup1\n  sload\n  tag_19\n  swap1\n  tag_20\n  jump\t// in\ntag_19:\n  swap1\n  0x00\n  mstore\n  keccak256(0x00, 0x20)\n  swap1\n  0x1f\n  add\n  0x20\n  swap1\n  div\n  dup2\n  add\n  swap3\n  dup3\n  tag_22\n  jumpi\n  0x00\n  dup6\n  sstore\n  jump(tag_21)\ntag_22:\n  dup3\n  0x1f\n  lt\n  tag_23\n  jumpi\n  dup1\n  mload\n  not(0xff)\n  and\n  dup4\n  dup1\n  add\n  or\n  dup6\n  sstore\n  jump(tag_21)\ntag_23:\n  dup3\n  dup1\n  add\n  0x01\n  add\n  dup6\n  sstore\n  dup3\n  iszero\n  tag_21\n  jumpi\n  swap2\n  dup3\n  add\ntag_24:\n  dup3\n  dup2\n  gt\n  iszero\n  tag_25\n  jumpi\n  dup3\n  mload\n  dup3\n  sstore\n  swap2\n  0x20\n  add\n  swap2\n  swap1\n  0x01\n  add\n  swap1\n  jump(tag_24)\ntag_25:\ntag_21:\n  pop\n  swap1\n  pop\n  tag_26\n  swap2\n  swap1\n  tag_27\n  jump\t// in\ntag_26:\n  pop\n  swap1\n  jump\t// out\ntag_27:\ntag_28:\n  dup1\n  dup3\n  gt\n  iszero\n  tag_29\n  jumpi\n  0x00\n  dup2\n  0x00\n  swap1\n  sstore\n  pop\n  0x01\n  add\n  jump(tag_28)\ntag_29:\n  pop\n  swap1\n  jump\t// out\n    /* \"#utility.yul\":7:373   */\ntag_31:\n    /* \"#utility.yul\":149:152   */\n  0x00\n    /* \"#utility.yul\":170:237   */\n  tag_33\n    /* \"#utility.yul\":234:236   */\n  0x15\n    /* \"#utility.yul\":229:232   */\n  dup4\n    /* \"#utility.yul\":170:237   */\n  tag_34\n  jump\t// in\ntag_33:\n    /* \"#utility.yul\":163:237   */\n  swap2\n  pop\n    /* \"#utility.yul\":246:339   */\n  tag_35\n    /* \"#utility.yul\":335:338   */\n  dup3\n    /* \"#utility.yul\":246:339   */\n  tag_36\n  jump\t// in\ntag_35:\n    /* \"#utility.yul\":364:366   */\n  0x20\n    /* \"#utility.yul\":359:362   */\n  dup3\n    /* \"#utility.yul\":355:367   */\n  add\n    /* \"#utility.yul\":348:367   */\n  swap1\n  pop\n    /* \"#utility.yul\":7:373   */\n  swap2\n  swap1\n  pop\n  jump\t// out\n    /* \"#utility.yul\":379:798   */\ntag_6:\n    /* \"#utility.yul\":545:549   */\n  0x00\n    /* \"#utility.yul\":583:585   */\n  0x20\n    /* \"#utility.yul\":572:581   */\n  dup3\n    /* \"#utility.yul\":568:586   */\n  add\n    /* \"#utility.yul\":560:586   */\n  swap1\n  pop\n    /* \"#utility.yul\":632:641   */\n  dup2\n    /* \"#utility.yul\":626:630   */\n  dup2\n    /* \"#utility.yul\":622:642   */\n  sub\n    /* \"#utility.yul\":618:619   */\n  0x00\n    /* \"#utility.yul\":607:616   */\n  dup4\n    /* \"#utility.yul\":603:620   */\n  add\n    /* \"#utility.yul\":596:643   */\n  mstore\n    /* \"#utility.yul\":660:791   */\n  tag_38\n    /* \"#utility.yul\":786:790   */\n  dup2\n    /* \"#utility.yul\":660:791   */\n  tag_31\n  jump\t// in\ntag_38:\n    /* \"#utility.yul\":652:791   */\n  swap1\n  pop\n    /* \"#utility.yul\":379:798   */\n  swap2\n  swap1\n  pop\n  jump\t// out\n    /* \"#utility.yul\":804:973   */\ntag_34:\n    /* \"#utility.yul\":888:899   */\n  0x00\n    /* \"#utility.yul\":922:928   */\n  dup3\n    /* \"#utility.yul\":917:920   */\n  dup3\n    /* \"#utility.yul\":910:929   */\n  mstore\n    /* \"#utility.yul\":962:966   */\n  0x20\n    /* \"#utility.yul\":957:960   */\n  dup3\n    /* \"#utility.yul\":953:967   */\n  add\n    /* \"#utility.yul\":938:967   */\n  swap1\n  pop\n    /* \"#utility.yul\":804:973   */\n  swap3\n  swap2\n  pop\n  pop\n  jump\t// out\n    /* \"#utility.yul\":979:1056   */\ntag_40:\n    /* \"#utility.yul\":1016:1023   */\n  0x00\n    /* \"#utility.yul\":1045:1050   */\n  dup2\n    /* \"#utility.yul\":1034:1050   */\n  swap1\n  pop\n    /* \"#utility.yul\":979:1056   */\n  swap2\n  swap1\n  pop\n  jump\t// out\n    /* \"#utility.yul\":1062:1382   */\ntag_20:\n    /* \"#utility.yul\":1106:1112   */\n  0x00\n    /* \"#utility.yul\":1143:1144   */\n  0x02\n    /* \"#utility.yul\":1137:1141   */\n  dup3\n    /* \"#utility.yul\":1133:1145   */\n  div\n    /* \"#utility.yul\":1123:1145   */\n  swap1\n  pop\n    /* \"#utility.yul\":1190:1191   */\n  0x01\n    /* \"#utility.yul\":1184:1188   */\n  dup3\n    /* \"#utility.yul\":1180:1192   */\n  and\n    /* \"#utility.yul\":1211:1229   */\n  dup1\n    /* \"#utility.yul\":1201:1282   */\n  tag_43\n  jumpi\n    /* \"#utility.yul\":1267:1271   */\n  0x7f\n    /* \"#utility.yul\":1259:1265   */\n  dup3\n    /* \"#utility.yul\":1255:1272   */\n  and\n    /* \"#utility.yul\":1245:1272   */\n  swap2\n  pop\n    /* \"#utility.yul\":1201:1282   */\ntag_43:\n    /* \"#utility.yul\":1329:1331   */\n  0x20\n    /* \"#utility.yul\":1321:1327   */\n  dup3\n    /* \"#utility.yul\":1318:1332   */\n  lt\n    /* \"#utility.yul\":1298:1316   */\n  dup2\n    /* \"#utility.yul\":1295:1333   */\n  eq\n    /* \"#utility.yul\":1292:1376   */\n  iszero\n  tag_44\n  jumpi\n    /* \"#utility.yul\":1348:1366   */\n  tag_45\n  tag_46\n  jump\t// in\ntag_45:\n    /* \"#utility.yul\":1292:1376   */\ntag_44:\n    /* \"#utility.yul\":1113:1382   */\n  pop\n    /* \"#utility.yul\":1062:1382   */\n  swap2\n  swap1\n  pop\n  jump\t// out\n    /* \"#utility.yul\":1388:1621   */\ntag_17:\n    /* \"#utility.yul\":1427:1430   */\n  0x00\n    /* \"#utility.yul\":1450:1474   */\n  tag_48\n    /* \"#utility.yul\":1468:1473   */\n  dup3\n    /* \"#utility.yul\":1450:1474   */\n  tag_40\n  jump\t// in\ntag_48:\n    /* \"#utility.yul\":1441:1474   */\n  swap2\n  pop\n    /* \"#utility.yul\":1496:1562   */\n  0xffffffffffffffffffffffffffffffffffffffffffffffffffffffffffffffff\n    /* \"#utility.yul\":1489:1494   */\n  dup3\n    /* \"#utility.yul\":1486:1563   */\n  eq\n    /* \"#utility.yul\":1483:1586   */\n  iszero\n  tag_49\n  jumpi\n    /* \"#utility.yul\":1566:1584   */\n  tag_50\n  tag_51\n  jump\t// in\ntag_50:\n    /* \"#utility.yul\":1483:1586   */\ntag_49:\n    /* \"#utility.yul\":1613:1614   */\n  0x01\n    /* \"#utility.yul\":1606:1611   */\n  dup3\n    /* \"#utility.yul\":1602:1615   */\n  add\n    /* \"#utility.yul\":1595:1615   */\n  swap1\n  pop\n    /* \"#utility.yul\":1388:1621   */\n  swap2\n  swap1\n  pop\n  jump\t// out\n    /* \"#utility.yul\":1627:1807   */\ntag_51:\n    /* \"#utility.yul\":1675:1752   */\n  0x4e487b7100000000000000000000000000000000000000000000000000000000\n    /* \"#utility.yul\":1672:1673   */\n  0x00\n    /* \"#utility.yul\":1665:1753   */\n  mstore\n    /* \"#utility.yul\":1772:1776   */\n  0x11\n    /* \"#utility.yul\":1769:1770   */\n  0x04\n    /* \"#utility.yul\":1762:1777   */\n  mstore\n    /* \"#utility.yul\":1796:1800   */\n  0x24\n    /* \"#utility.yul\":1793:1794   */\n  0x00\n    /* \"#utility.yul\":1786:1801   */\n  revert\n    /* \"#utility.yul\":1813:1993   */\ntag_46:\n    /* \"#utility.yul\":1861:1938   */\n  0x4e487b7100000000000000000000000000000000000000000000000000000000\n    /* \"#utility.yul\":1858:1859   */\n  0x00\n    /* \"#utility.yul\":1851:1939   */\n  mstore\n    /* \"#utility.yul\":1958:1962   */\n  0x22\n    /* \"#utility.yul\":1955:1956   */\n  0x04\n    /* \"#utility.yul\":1948:1963   */\n  mstore\n    /* \"#utility.yul\":1982:1986   */\n  0x24\n    /* \"#utility.yul\":1979:1980   */\n  0x00\n    /* \"#utility.yul\":1972:1987   */\n  revert\n    /* \"#utility.yul\":1999:2179   */\ntag_12:\n    /* \"#utility.yul\":2047:2124   */\n  0x4e487b7100000000000000000000000000000000000000000000000000000000\n    /* \"#utility.yul\":2044:2045   */\n  0x00\n    /* \"#utility.yul\":2037:2125   */\n  mstore\n    /* \"#utility.yul\":2144:2148   */\n  0x32\n    /* \"#utility.yul\":2141:2142   */\n  0x04\n    /* \"#utility.yul\":2134:2149   */\n  mstore\n    /* \"#utility.yul\":2168:2172   */\n  0x24\n    /* \"#utility.yul\":2165:2166   */\n  0x00\n    /* \"#utility.yul\":2158:2173   */\n  revert\n    /* \"#utility.yul\":2185:2356   */\ntag_36:\n    /* \"#utility.yul\":2325:2348   */\n  0x43616e64696461746573206d75737420626520352e0000000000000000000000\n    /* \"#utility.yul\":2321:2322   */\n  0x00\n    /* \"#utility.yul\":2313:2319   */\n  dup3\n    /* \"#utility.yul\":2309:2323   */\n  add\n    /* \"#utility.yul\":2302:2349   */\n  mstore\n    /* \"#utility.yul\":2185:2356   */\n  pop\n  jump\t// out\n    /* \"smartContract/contracts/3_Ballot.sol\":157:4303  contract Ballot {... */\ntag_18:\n  dataSize(sub_0)\n  dup1\n  dataOffset(sub_0)\n  0x00\n  codecopy\n  0x00\n  return\nstop\n\nsub_0: assembly {\n        /* \"smartContract/contracts/3_Ballot.sol\":157:4303  contract Ballot {... */\n      mstore(0x40, 0x80)\n      callvalue\n      dup1\n      iszero\n      tag_1\n      jumpi\n      0x00\n      dup1\n      revert\n    tag_1:\n      pop\n      jumpi(tag_2, lt(calldatasize, 0x04))\n      shr(0xe0, calldataload(0x00))\n      dup1\n      0x632a9a52\n      eq\n      tag_3\n      jumpi\n      dup1\n      0xa3ec138d\n      eq\n      tag_4\n      jumpi\n      dup1\n      0xcfa1f037\n      eq\n      tag_5\n      jumpi\n      dup1\n      0xd4e8fd2e\n      eq\n      tag_6\n      jumpi\n    tag_2:\n      0x00\n      dup1\n      revert\n        /* \"smartContract/contracts/3_Ballot.sol\":2454:4198  function vote() public {... */\n    tag_3:\n      tag_7\n      tag_8\n      jump\t// in\n    tag_7:\n      stop\n        /* \"smartContract/contracts/3_Ballot.sol\":814:853  mapping(address => Voter) public voters */\n    tag_4:\n      tag_9\n      0x04\n      dup1\n      calldatasize\n      sub\n      dup2\n      add\n      swap1\n      tag_10\n      swap2\n      swap1\n      tag_11\n      jump\t// in\n    tag_10:\n      tag_12\n      jump\t// in\n    tag_9:\n      mload(0x40)\n      tag_13\n      swap5\n      swap4\n      swap3\n      swap2\n      swap1\n      tag_14\n      jump\t// in\n    tag_13:\n      mload(0x40)\n      dup1\n      swap2\n      sub\n      swap1\n      return\n        /* \"smartContract/contracts/3_Ballot.sol\":2271:2448  function random_vote() public view returns(uint){... */\n    tag_5:\n      tag_15\n      tag_16\n      jump\t// in\n    tag_15:\n      mload(0x40)\n      tag_17\n      swap2\n      swap1\n      tag_18\n      jump\t// in\n    tag_17:\n      mload(0x40)\n      dup1\n      swap2\n      sub\n      swap1\n      return\n        /* \"smartContract/contracts/3_Ballot.sol\":4204:4301  function res(uint _id) public view returns(Proposal memory){... */\n    tag_6:\n      tag_19\n      0x04\n      dup1\n      calldatasize\n      sub\n      dup2\n      add\n      swap1\n      tag_20\n      swap2\n      swap1\n      tag_21\n      jump\t// in\n    tag_20:\n      tag_22\n      jump\t// in\n    tag_19:\n      mload(0x40)\n      tag_23\n      swap2\n      swap1\n      tag_24\n      jump\t// in\n    tag_23:\n      mload(0x40)\n      dup1\n      swap2\n      sub\n      swap1\n      return\n        /* \"smartContract/contracts/3_Ballot.sol\":2454:4198  function vote() public {... */\n    tag_8:\n        /* \"smartContract/contracts/3_Ballot.sol\":2497:2503  voters */\n      0x01\n        /* \"smartContract/contracts/3_Ballot.sol\":2497:2515  voters[msg.sender] */\n      0x00\n        /* \"smartContract/contracts/3_Ballot.sol\":2504:2514  msg.sender */\n      caller\n        /* \"smartContract/contracts/3_Ballot.sol\":2497:2515  voters[msg.sender] */\n      0xffffffffffffffffffffffffffffffffffffffff\n      and\n      0xffffffffffffffffffffffffffffffffffffffff\n      and\n      dup2\n      mstore\n      0x20\n      add\n      swap1\n      dup2\n      mstore\n      0x20\n      add\n      0x00\n      keccak256\n        /* \"smartContract/contracts/3_Ballot.sol\":2497:2521  voters[msg.sender].voted */\n      0x01\n      add\n      0x00\n      swap1\n      sload\n      swap1\n      0x0100\n      exp\n      swap1\n      div\n      0xff\n      and\n        /* \"smartContract/contracts/3_Ballot.sol\":2496:2521  !voters[msg.sender].voted */\n      iszero\n        /* \"smartContract/contracts/3_Ballot.sol\":2488:2562  require(!voters[msg.sender].voted,... */\n      tag_26\n      jumpi\n      mload(0x40)\n      0x08c379a000000000000000000000000000000000000000000000000000000000\n      dup2\n      mstore\n      0x04\n      add\n      tag_27\n      swap1\n      tag_28\n      jump\t// in\n    tag_27:\n      mload(0x40)\n      dup1\n      swap2\n      sub\n      swap1\n      revert\n    tag_26:\n        /* \"smartContract/contracts/3_Ballot.sol\":2610:2611  0 */\n      0x00\n        /* \"smartContract/contracts/3_Ballot.sol\":2581:2587  voters */\n      0x01\n        /* \"smartContract/contracts/3_Ballot.sol\":2581:2599  voters[msg.sender] */\n      0x00\n        /* \"smartContract/contracts/3_Ballot.sol\":2588:2598  msg.sender */\n      caller\n        /* \"smartContract/contracts/3_Ballot.sol\":2581:2599  voters[msg.sender] */\n      0xffffffffffffffffffffffffffffffffffffffff\n      and\n      0xffffffffffffffffffffffffffffffffffffffff\n      and\n      dup2\n      mstore\n      0x20\n      add\n      swap1\n      dup2\n      mstore\n      0x20\n      add\n      0x00\n      keccak256\n        /* \"smartContract/contracts/3_Ballot.sol\":2581:2606  voters[msg.sender].weight */\n      0x00\n      add\n      sload\n        /* \"smartContract/contracts/3_Ballot.sol\":2581:2611  voters[msg.sender].weight == 0 */\n      eq\n        /* \"smartContract/contracts/3_Ballot.sol\":2573:2612  require(voters[msg.sender].weight == 0) */\n      tag_29\n      jumpi\n      0x00\n      dup1\n      revert\n    tag_29:\n        /* \"smartContract/contracts/3_Ballot.sol\":2650:2651  1 */\n      0x01\n        /* \"smartContract/contracts/3_Ballot.sol\":2622:2628  voters */\n      dup1\n        /* \"smartContract/contracts/3_Ballot.sol\":2622:2640  voters[msg.sender] */\n      0x00\n        /* \"smartContract/contracts/3_Ballot.sol\":2629:2639  msg.sender */\n      caller\n        /* \"smartContract/contracts/3_Ballot.sol\":2622:2640  voters[msg.sender] */\n      0xffffffffffffffffffffffffffffffffffffffff\n      and\n      0xffffffffffffffffffffffffffffffffffffffff\n      and\n      dup2\n      mstore\n      0x20\n      add\n      swap1\n      dup2\n      mstore\n      0x20\n      add\n      0x00\n      keccak256\n        /* \"smartContract/contracts/3_Ballot.sol\":2622:2647  voters[msg.sender].weight */\n      0x00\n      add\n        /* \"smartContract/contracts/3_Ballot.sol\":2622:2651  voters[msg.sender].weight = 1 */\n      dup2\n      swap1\n      sstore\n      pop\n        /* \"smartContract/contracts/3_Ballot.sol\":2677:2680  100 */\n      0x64\n        /* \"smartContract/contracts/3_Ballot.sol\":2669:2675  countV */\n      sload(0x03)\n        /* \"smartContract/contracts/3_Ballot.sol\":2669:2680  countV<=100 */\n      sgt\n      iszero\n        /* \"smartContract/contracts/3_Ballot.sol\":2661:2703  require(countV<=100,\"Reached max voters.\") */\n      tag_30\n      jumpi\n      mload(0x40)\n      0x08c379a000000000000000000000000000000000000000000000000000000000\n      dup2\n      mstore\n      0x04\n      add\n      tag_31\n      swap1\n      tag_32\n      jump\t// in\n    tag_31:\n      mload(0x40)\n      dup1\n      swap2\n      sub\n      swap1\n      revert\n    tag_30:\n        /* \"smartContract/contracts/3_Ballot.sol\":2742:2759  random_district() */\n      tag_33\n        /* \"smartContract/contracts/3_Ballot.sol\":2742:2757  random_district */\n      tag_34\n        /* \"smartContract/contracts/3_Ballot.sol\":2742:2759  random_district() */\n      jump\t// in\n    tag_33:\n        /* \"smartContract/contracts/3_Ballot.sol\":2714:2720  voters */\n      0x01\n        /* \"smartContract/contracts/3_Ballot.sol\":2714:2732  voters[msg.sender] */\n      0x00\n        /* \"smartContract/contracts/3_Ballot.sol\":2721:2731  msg.sender */\n      caller\n        /* \"smartContract/contracts/3_Ballot.sol\":2714:2732  voters[msg.sender] */\n      0xffffffffffffffffffffffffffffffffffffffff\n      and\n      0xffffffffffffffffffffffffffffffffffffffff\n      and\n      dup2\n      mstore\n      0x20\n      add\n      swap1\n      dup2\n      mstore\n      0x20\n      add\n      0x00\n      keccak256\n        /* \"smartContract/contracts/3_Ballot.sol\":2714:2741  voters[msg.sender].district */\n      0x02\n      add\n        /* \"smartContract/contracts/3_Ballot.sol\":2714:2759  voters[msg.sender].district=random_district() */\n      dup2\n      swap1\n      sstore\n      pop\n        /* \"smartContract/contracts/3_Ballot.sol\":2770:2790  Voter storage sender */\n      0x00\n        /* \"smartContract/contracts/3_Ballot.sol\":2793:2799  voters */\n      0x01\n        /* \"smartContract/contracts/3_Ballot.sol\":2793:2811  voters[msg.sender] */\n      0x00\n        /* \"smartContract/contracts/3_Ballot.sol\":2800:2810  msg.sender */\n      caller\n        /* \"smartContract/contracts/3_Ballot.sol\":2793:2811  voters[msg.sender] */\n      0xffffffffffffffffffffffffffffffffffffffff\n      and\n      0xffffffffffffffffffffffffffffffffffffffff\n      and\n      dup2\n      mstore\n      0x20\n      add\n      swap1\n      dup2\n      mstore\n      0x20\n      add\n      0x00\n      keccak256\n        /* \"smartContract/contracts/3_Ballot.sol\":2770:2811  Voter storage sender = voters[msg.sender] */\n      swap1\n      pop\n        /* \"smartContract/contracts/3_Ballot.sol\":2944:2950  sender */\n      dup1\n        /* \"smartContract/contracts/3_Ballot.sol\":2944:2956  sender.voted */\n      0x01\n      add\n      0x00\n      swap1\n      sload\n      swap1\n      0x0100\n      exp\n      swap1\n      div\n      0xff\n      and\n        /* \"smartContract/contracts/3_Ballot.sol\":2943:2956  !sender.voted */\n      iszero\n        /* \"smartContract/contracts/3_Ballot.sol\":2935:2975  require(!sender.voted, \"Already voted.\") */\n      tag_35\n      jumpi\n      mload(0x40)\n      0x08c379a000000000000000000000000000000000000000000000000000000000\n      dup2\n      mstore\n      0x04\n      add\n      tag_36\n      swap1\n      tag_37\n      jump\t// in\n    tag_36:\n      mload(0x40)\n      dup1\n      swap2\n      sub\n      swap1\n      revert\n    tag_35:\n        /* \"smartContract/contracts/3_Ballot.sol\":3000:3004  true */\n      0x01\n        /* \"smartContract/contracts/3_Ballot.sol\":2985:2991  sender */\n      dup2\n        /* \"smartContract/contracts/3_Ballot.sol\":2985:2997  sender.voted */\n      0x01\n      add\n      0x00\n        /* \"smartContract/contracts/3_Ballot.sol\":2985:3004  sender.voted = true */\n      0x0100\n      exp\n      dup2\n      sload\n      dup2\n      0xff\n      mul\n      not\n      and\n      swap1\n      dup4\n      iszero\n      iszero\n      mul\n      or\n      swap1\n      sstore\n      pop\n        /* \"smartContract/contracts/3_Ballot.sol\":3029:3042  random_vote() */\n      tag_38\n        /* \"smartContract/contracts/3_Ballot.sol\":3029:3040  random_vote */\n      tag_16\n        /* \"smartContract/contracts/3_Ballot.sol\":3029:3042  random_vote() */\n      jump\t// in\n    tag_38:\n        /* \"smartContract/contracts/3_Ballot.sol\":3015:3021  sender */\n      dup2\n        /* \"smartContract/contracts/3_Ballot.sol\":3015:3026  sender.vote */\n      0x03\n      add\n        /* \"smartContract/contracts/3_Ballot.sol\":3015:3042  sender.vote = random_vote() */\n      dup2\n      swap1\n      sstore\n      pop\n        /* \"smartContract/contracts/3_Ballot.sol\":3052:3065  countVoters() */\n      tag_39\n        /* \"smartContract/contracts/3_Ballot.sol\":3052:3063  countVoters */\n      tag_40\n        /* \"smartContract/contracts/3_Ballot.sol\":3052:3065  countVoters() */\n      jump\t// in\n    tag_39:\n        /* \"smartContract/contracts/3_Ballot.sol\":3124:3130  sender */\n      dup1\n        /* \"smartContract/contracts/3_Ballot.sol\":3124:3137  sender.weight */\n      0x00\n      add\n      sload\n        /* \"smartContract/contracts/3_Ballot.sol\":3084:3093  proposals */\n      0x02\n        /* \"smartContract/contracts/3_Ballot.sol\":3094:3107  random_vote() */\n      tag_41\n        /* \"smartContract/contracts/3_Ballot.sol\":3094:3105  random_vote */\n      tag_16\n        /* \"smartContract/contracts/3_Ballot.sol\":3094:3107  random_vote() */\n      jump\t// in\n    tag_41:\n        /* \"smartContract/contracts/3_Ballot.sol\":3084:3108  proposals[random_vote()] */\n      dup2\n      sload\n      dup2\n      lt\n      tag_42\n      jumpi\n      tag_43\n      tag_44\n      jump\t// in\n    tag_43:\n    tag_42:\n      swap1\n      0x00\n      mstore\n      keccak256(0x00, 0x20)\n      swap1\n      0x0c\n      mul\n      add\n        /* \"smartContract/contracts/3_Ballot.sol\":3084:3120  proposals[random_vote()].Total_Votes */\n      0x01\n      add\n      0x00\n        /* \"smartContract/contracts/3_Ballot.sol\":3084:3137  proposals[random_vote()].Total_Votes += sender.weight */\n      dup3\n      dup3\n      sload\n      tag_46\n      swap2\n      swap1\n      tag_47\n      jump\t// in\n    tag_46:\n      swap3\n      pop\n      pop\n      dup2\n      swap1\n      sstore\n      pop\n        /* \"smartContract/contracts/3_Ballot.sol\":3168:3169  0 */\n      0x00\n        /* \"smartContract/contracts/3_Ballot.sol\":3151:3157  sender */\n      dup2\n        /* \"smartContract/contracts/3_Ballot.sol\":3151:3166  sender.district */\n      0x02\n      add\n      sload\n        /* \"smartContract/contracts/3_Ballot.sol\":3151:3169  sender.district==0 */\n      eq\n        /* \"smartContract/contracts/3_Ballot.sol\":3147:4080  if (sender.district==0){proposals[random_vote()].Votes_District0 += sender.weight;}... */\n      iszero\n      tag_48\n      jumpi\n        /* \"smartContract/contracts/3_Ballot.sol\":3215:3221  sender */\n      dup1\n        /* \"smartContract/contracts/3_Ballot.sol\":3215:3228  sender.weight */\n      0x00\n      add\n      sload\n        /* \"smartContract/contracts/3_Ballot.sol\":3171:3180  proposals */\n      0x02\n        /* \"smartContract/contracts/3_Ballot.sol\":3181:3194  random_vote() */\n      tag_49\n        /* \"smartContract/contracts/3_Ballot.sol\":3181:3192  random_vote */\n      tag_16\n        /* \"smartContract/contracts/3_Ballot.sol\":3181:3194  random_vote() */\n      jump\t// in\n    tag_49:\n        /* \"smartContract/contracts/3_Ballot.sol\":3171:3195  proposals[random_vote()] */\n      dup2\n      sload\n      dup2\n      lt\n      tag_50\n      jumpi\n      tag_51\n      tag_44\n      jump\t// in\n    tag_51:\n    tag_50:\n      swap1\n      0x00\n      mstore\n      keccak256(0x00, 0x20)\n      swap1\n      0x0c\n      mul\n      add\n        /* \"smartContract/contracts/3_Ballot.sol\":3171:3211  proposals[random_vote()].Votes_District0 */\n      0x02\n      add\n      0x00\n        /* \"smartContract/contracts/3_Ballot.sol\":3171:3228  proposals[random_vote()].Votes_District0 += sender.weight */\n      dup3\n      dup3\n      sload\n      tag_53\n      swap2\n      swap1\n      tag_47\n      jump\t// in\n    tag_53:\n      swap3\n      pop\n      pop\n      dup2\n      swap1\n      sstore\n      pop\n        /* \"smartContract/contracts/3_Ballot.sol\":3147:4080  if (sender.district==0){proposals[random_vote()].Votes_District0 += sender.weight;}... */\n      jump(tag_54)\n    tag_48:\n        /* \"smartContract/contracts/3_Ballot.sol\":3265:3266  1 */\n      0x01\n        /* \"smartContract/contracts/3_Ballot.sol\":3248:3254  sender */\n      dup2\n        /* \"smartContract/contracts/3_Ballot.sol\":3248:3263  sender.district */\n      0x02\n      add\n      sload\n        /* \"smartContract/contracts/3_Ballot.sol\":3248:3266  sender.district==1 */\n      eq\n        /* \"smartContract/contracts/3_Ballot.sol\":3244:4080  if (sender.district==1){proposals[random_vote()].Votes_District1 += sender.weight;}... */\n      iszero\n      tag_55\n      jumpi\n        /* \"smartContract/contracts/3_Ballot.sol\":3312:3318  sender */\n      dup1\n        /* \"smartContract/contracts/3_Ballot.sol\":3312:3325  sender.weight */\n      0x00\n      add\n      sload\n        /* \"smartContract/contracts/3_Ballot.sol\":3268:3277  proposals */\n      0x02\n        /* \"smartContract/contracts/3_Ballot.sol\":3278:3291  random_vote() */\n      tag_56\n        /* \"smartContract/contracts/3_Ballot.sol\":3278:3289  random_vote */\n      tag_16\n        /* \"smartContract/contracts/3_Ballot.sol\":3278:3291  random_vote() */\n      jump\t// in\n    tag_56:\n        /* \"smartContract/contracts/3_Ballot.sol\":3268:3292  proposals[random_vote()] */\n      dup2\n      sload\n      dup2\n      lt\n      tag_57\n      jumpi\n      tag_58\n      tag_44\n      jump\t// in\n    tag_58:\n    tag_57:\n      swap1\n      0x00\n      mstore\n      keccak256(0x00, 0x20)\n      swap1\n      0x0c\n      mul\n      add\n        /* \"smartContract/contracts/3_Ballot.sol\":3268:3308  proposals[random_vote()].Votes_District1 */\n      0x03\n      add\n      0x00\n        /* \"smartContract/contracts/3_Ballot.sol\":3268:3325  proposals[random_vote()].Votes_District1 += sender.weight */\n      dup3\n      dup3\n      sload\n      tag_60\n      swap2\n      swap1\n      tag_47\n      jump\t// in\n    tag_60:\n      swap3\n      pop\n      pop\n      dup2\n      swap1\n      sstore\n      pop\n        /* \"smartContract/contracts/3_Ballot.sol\":3244:4080  if (sender.district==1){proposals[random_vote()].Votes_District1 += sender.weight;}... */\n      jump(tag_61)\n    tag_55:\n        /* \"smartContract/contracts/3_Ballot.sol\":3362:3363  2 */\n      0x02\n        /* \"smartContract/contracts/3_Ballot.sol\":3345:3351  sender */\n      dup2\n        /* \"smartContract/contracts/3_Ballot.sol\":3345:3360  sender.district */\n      0x02\n      add\n      sload\n        /* \"smartContract/contracts/3_Ballot.sol\":3345:3363  sender.district==2 */\n      eq\n        /* \"smartContract/contracts/3_Ballot.sol\":3341:4080  if (sender.district==2){proposals[random_vote()].Votes_District2 += sender.weight;}... */\n      iszero\n      tag_62\n      jumpi\n        /* \"smartContract/contracts/3_Ballot.sol\":3409:3415  sender */\n      dup1\n        /* \"smartContract/contracts/3_Ballot.sol\":3409:3422  sender.weight */\n      0x00\n      add\n      sload\n        /* \"smartContract/contracts/3_Ballot.sol\":3365:3374  proposals */\n      0x02\n        /* \"smartContract/contracts/3_Ballot.sol\":3375:3388  random_vote() */\n      tag_63\n        /* \"smartContract/contracts/3_Ballot.sol\":3375:3386  random_vote */\n      tag_16\n        /* \"smartContract/contracts/3_Ballot.sol\":3375:3388  random_vote() */\n      jump\t// in\n    tag_63:\n        /* \"smartContract/contracts/3_Ballot.sol\":3365:3389  proposals[random_vote()] */\n      dup2\n      sload\n      dup2\n      lt\n      tag_64\n      jumpi\n      tag_65\n      tag_44\n      jump\t// in\n    tag_65:\n    tag_64:\n      swap1\n      0x00\n      mstore\n      keccak256(0x00, 0x20)\n      swap1\n      0x0c\n      mul\n      add\n        /* \"smartContract/contracts/3_Ballot.sol\":3365:3405  proposals[random_vote()].Votes_District2 */\n      0x04\n      add\n      0x00\n        /* \"smartContract/contracts/3_Ballot.sol\":3365:3422  proposals[random_vote()].Votes_District2 += sender.weight */\n      dup3\n      dup3\n      sload\n      tag_67\n      swap2\n      swap1\n      tag_47\n      jump\t// in\n    tag_67:\n      swap3\n      pop\n      pop\n      dup2\n      swap1\n      sstore\n      pop\n        /* \"smartContract/contracts/3_Ballot.sol\":3341:4080  if (sender.district==2){proposals[random_vote()].Votes_District2 += sender.weight;}... */\n      jump(tag_68)\n    tag_62:\n        /* \"smartContract/contracts/3_Ballot.sol\":3459:3460  3 */\n      0x03\n        /* \"smartContract/contracts/3_Ballot.sol\":3442:3448  sender */\n      dup2\n        /* \"smartContract/contracts/3_Ballot.sol\":3442:3457  sender.district */\n      0x02\n      add\n      sload\n        /* \"smartContract/contracts/3_Ballot.sol\":3442:3460  sender.district==3 */\n      eq\n        /* \"smartContract/contracts/3_Ballot.sol\":3438:4080  if (sender.district==3){proposals[random_vote()].Votes_District3 += sender.weight;}... */\n      iszero\n      tag_69\n      jumpi\n        /* \"smartContract/contracts/3_Ballot.sol\":3506:3512  sender */\n      dup1\n        /* \"smartContract/contracts/3_Ballot.sol\":3506:3519  sender.weight */\n      0x00\n      add\n      sload\n        /* \"smartContract/contracts/3_Ballot.sol\":3462:3471  proposals */\n      0x02\n        /* \"smartContract/contracts/3_Ballot.sol\":3472:3485  random_vote() */\n      tag_70\n        /* \"smartContract/contracts/3_Ballot.sol\":3472:3483  random_vote */\n      tag_16\n        /* \"smartContract/contracts/3_Ballot.sol\":3472:3485  random_vote() */\n      jump\t// in\n    tag_70:\n        /* \"smartContract/contracts/3_Ballot.sol\":3462:3486  proposals[random_vote()] */\n      dup2\n      sload\n      dup2\n      lt\n      tag_71\n      jumpi\n      tag_72\n      tag_44\n      jump\t// in\n    tag_72:\n    tag_71:\n      swap1\n      0x00\n      mstore\n      keccak256(0x00, 0x20)\n      swap1\n      0x0c\n      mul\n      add\n        /* \"smartContract/contracts/3_Ballot.sol\":3462:3502  proposals[random_vote()].Votes_District3 */\n      0x05\n      add\n      0x00\n        /* \"smartContract/contracts/3_Ballot.sol\":3462:3519  proposals[random_vote()].Votes_District3 += sender.weight */\n      dup3\n      dup3\n      sload\n      tag_74\n      swap2\n      swap1\n      tag_47\n      jump\t// in\n    tag_74:\n      swap3\n      pop\n      pop\n      dup2\n      swap1\n      sstore\n      pop\n        /* \"smartContract/contracts/3_Ballot.sol\":3438:4080  if (sender.district==3){proposals[random_vote()].Votes_District3 += sender.weight;}... */\n      jump(tag_75)\n    tag_69:\n        /* \"smartContract/contracts/3_Ballot.sol\":3556:3557  4 */\n      0x04\n        /* \"smartContract/contracts/3_Ballot.sol\":3539:3545  sender */\n      dup2\n        /* \"smartContract/contracts/3_Ballot.sol\":3539:3554  sender.district */\n      0x02\n      add\n      sload\n        /* \"smartContract/contracts/3_Ballot.sol\":3539:3557  sender.district==4 */\n      eq\n        /* \"smartContract/contracts/3_Ballot.sol\":3535:4080  if (sender.district==4){proposals[random_vote()].Votes_District4 += sender.weight;}... */\n      iszero\n      tag_76\n      jumpi\n        /* \"smartContract/contracts/3_Ballot.sol\":3603:3609  sender */\n      dup1\n        /* \"smartContract/contracts/3_Ballot.sol\":3603:3616  sender.weight */\n      0x00\n      add\n      sload\n        /* \"smartContract/contracts/3_Ballot.sol\":3559:3568  proposals */\n      0x02\n        /* \"smartContract/contracts/3_Ballot.sol\":3569:3582  random_vote() */\n      tag_77\n        /* \"smartContract/contracts/3_Ballot.sol\":3569:3580  random_vote */\n      tag_16\n        /* \"smartContract/contracts/3_Ballot.sol\":3569:3582  random_vote() */\n      jump\t// in\n    tag_77:\n        /* \"smartContract/contracts/3_Ballot.sol\":3559:3583  proposals[random_vote()] */\n      dup2\n      sload\n      dup2\n      lt\n      tag_78\n      jumpi\n      tag_79\n      tag_44\n      jump\t// in\n    tag_79:\n    tag_78:\n      swap1\n      0x00\n      mstore\n      keccak256(0x00, 0x20)\n      swap1\n      0x0c\n      mul\n      add\n        /* \"smartContract/contracts/3_Ballot.sol\":3559:3599  proposals[random_vote()].Votes_District4 */\n      0x06\n      add\n      0x00\n        /* \"smartContract/contracts/3_Ballot.sol\":3559:3616  proposals[random_vote()].Votes_District4 += sender.weight */\n      dup3\n      dup3\n      sload\n      tag_81\n      swap2\n      swap1\n      tag_47\n      jump\t// in\n    tag_81:\n      swap3\n      pop\n      pop\n      dup2\n      swap1\n      sstore\n      pop\n        /* \"smartContract/contracts/3_Ballot.sol\":3535:4080  if (sender.district==4){proposals[random_vote()].Votes_District4 += sender.weight;}... */\n      jump(tag_82)\n    tag_76:\n        /* \"smartContract/contracts/3_Ballot.sol\":3653:3654  5 */\n      0x05\n        /* \"smartContract/contracts/3_Ballot.sol\":3636:3642  sender */\n      dup2\n        /* \"smartContract/contracts/3_Ballot.sol\":3636:3651  sender.district */\n      0x02\n      add\n      sload\n        /* \"smartContract/contracts/3_Ballot.sol\":3636:3654  sender.district==5 */\n      eq\n        /* \"smartContract/contracts/3_Ballot.sol\":3632:4080  if (sender.district==5){proposals[random_vote()].Votes_District5 += sender.weight;}... */\n      iszero\n      tag_83\n      jumpi\n        /* \"smartContract/contracts/3_Ballot.sol\":3700:3706  sender */\n      dup1\n        /* \"smartContract/contracts/3_Ballot.sol\":3700:3713  sender.weight */\n      0x00\n      add\n      sload\n        /* \"smartContract/contracts/3_Ballot.sol\":3656:3665  proposals */\n      0x02\n        /* \"smartContract/contracts/3_Ballot.sol\":3666:3679  random_vote() */\n      tag_84\n        /* \"smartContract/contracts/3_Ballot.sol\":3666:3677  random_vote */\n      tag_16\n        /* \"smartContract/contracts/3_Ballot.sol\":3666:3679  random_vote() */\n      jump\t// in\n    tag_84:\n        /* \"smartContract/contracts/3_Ballot.sol\":3656:3680  proposals[random_vote()] */\n      dup2\n      sload\n      dup2\n      lt\n      tag_85\n      jumpi\n      tag_86\n      tag_44\n      jump\t// in\n    tag_86:\n    tag_85:\n      swap1\n      0x00\n      mstore\n      keccak256(0x00, 0x20)\n      swap1\n      0x0c\n      mul\n      add\n        /* \"smartContract/contracts/3_Ballot.sol\":3656:3696  proposals[random_vote()].Votes_District5 */\n      0x07\n      add\n      0x00\n        /* \"smartContract/contracts/3_Ballot.sol\":3656:3713  proposals[random_vote()].Votes_District5 += sender.weight */\n      dup3\n      dup3\n      sload\n      tag_88\n      swap2\n      swap1\n      tag_47\n      jump\t// in\n    tag_88:\n      swap3\n      pop\n      pop\n      dup2\n      swap1\n      sstore\n      pop\n        /* \"smartContract/contracts/3_Ballot.sol\":3632:4080  if (sender.district==5){proposals[random_vote()].Votes_District5 += sender.weight;}... */\n      jump(tag_89)\n    tag_83:\n        /* \"smartContract/contracts/3_Ballot.sol\":3750:3751  6 */\n      0x06\n        /* \"smartContract/contracts/3_Ballot.sol\":3733:3739  sender */\n      dup2\n        /* \"smartContract/contracts/3_Ballot.sol\":3733:3748  sender.district */\n      0x02\n      add\n      sload\n        /* \"smartContract/contracts/3_Ballot.sol\":3733:3751  sender.district==6 */\n      eq\n        /* \"smartContract/contracts/3_Ballot.sol\":3729:4080  if (sender.district==6){proposals[random_vote()].Votes_District6 += sender.weight;}... */\n      iszero\n      tag_90\n      jumpi\n        /* \"smartContract/contracts/3_Ballot.sol\":3797:3803  sender */\n      dup1\n        /* \"smartContract/contracts/3_Ballot.sol\":3797:3810  sender.weight */\n      0x00\n      add\n      sload\n        /* \"smartContract/contracts/3_Ballot.sol\":3753:3762  proposals */\n      0x02\n        /* \"smartContract/contracts/3_Ballot.sol\":3763:3776  random_vote() */\n      tag_91\n        /* \"smartContract/contracts/3_Ballot.sol\":3763:3774  random_vote */\n      tag_16\n        /* \"smartContract/contracts/3_Ballot.sol\":3763:3776  random_vote() */\n      jump\t// in\n    tag_91:\n        /* \"smartContract/contracts/3_Ballot.sol\":3753:3777  proposals[random_vote()] */\n      dup2\n      sload\n      dup2\n      lt\n      tag_92\n      jumpi\n      tag_93\n      tag_44\n      jump\t// in\n    tag_93:\n    tag_92:\n      swap1\n      0x00\n      mstore\n      keccak256(0x00, 0x20)\n      swap1\n      0x0c\n      mul\n      add\n        /* \"smartContract/contracts/3_Ballot.sol\":3753:3793  proposals[random_vote()].Votes_District6 */\n      0x08\n      add\n      0x00\n        /* \"smartContract/contracts/3_Ballot.sol\":3753:3810  proposals[random_vote()].Votes_District6 += sender.weight */\n      dup3\n      dup3\n      sload\n      tag_95\n      swap2\n      swap1\n      tag_47\n      jump\t// in\n    tag_95:\n      swap3\n      pop\n      pop\n      dup2\n      swap1\n      sstore\n      pop\n        /* \"smartContract/contracts/3_Ballot.sol\":3729:4080  if (sender.district==6){proposals[random_vote()].Votes_District6 += sender.weight;}... */\n      jump(tag_96)\n    tag_90:\n        /* \"smartContract/contracts/3_Ballot.sol\":3847:3848  7 */\n      0x07\n        /* \"smartContract/contracts/3_Ballot.sol\":3830:3836  sender */\n      dup2\n        /* \"smartContract/contracts/3_Ballot.sol\":3830:3845  sender.district */\n      0x02\n      add\n      sload\n        /* \"smartContract/contracts/3_Ballot.sol\":3830:3848  sender.district==7 */\n      eq\n        /* \"smartContract/contracts/3_Ballot.sol\":3826:4080  if (sender.district==7){proposals[random_vote()].Votes_District7 += sender.weight;}... */\n      iszero\n      tag_97\n      jumpi\n        /* \"smartContract/contracts/3_Ballot.sol\":3894:3900  sender */\n      dup1\n        /* \"smartContract/contracts/3_Ballot.sol\":3894:3907  sender.weight */\n      0x00\n      add\n      sload\n        /* \"smartContract/contracts/3_Ballot.sol\":3850:3859  proposals */\n      0x02\n        /* \"smartContract/contracts/3_Ballot.sol\":3860:3873  random_vote() */\n      tag_98\n        /* \"smartContract/contracts/3_Ballot.sol\":3860:3871  random_vote */\n      tag_16\n        /* \"smartContract/contracts/3_Ballot.sol\":3860:3873  random_vote() */\n      jump\t// in\n    tag_98:\n        /* \"smartContract/contracts/3_Ballot.sol\":3850:3874  proposals[random_vote()] */\n      dup2\n      sload\n      dup2\n      lt\n      tag_99\n      jumpi\n      tag_100\n      tag_44\n      jump\t// in\n    tag_100:\n    tag_99:\n      swap1\n      0x00\n      mstore\n      keccak256(0x00, 0x20)\n      swap1\n      0x0c\n      mul\n      add\n        /* \"smartContract/contracts/3_Ballot.sol\":3850:3890  proposals[random_vote()].Votes_District7 */\n      0x09\n      add\n      0x00\n        /* \"smartContract/contracts/3_Ballot.sol\":3850:3907  proposals[random_vote()].Votes_District7 += sender.weight */\n      dup3\n      dup3\n      sload\n      tag_102\n      swap2\n      swap1\n      tag_47\n      jump\t// in\n    tag_102:\n      swap3\n      pop\n      pop\n      dup2\n      swap1\n      sstore\n      pop\n        /* \"smartContract/contracts/3_Ballot.sol\":3826:4080  if (sender.district==7){proposals[random_vote()].Votes_District7 += sender.weight;}... */\n      jump(tag_103)\n    tag_97:\n        /* \"smartContract/contracts/3_Ballot.sol\":3944:3945  8 */\n      0x08\n        /* \"smartContract/contracts/3_Ballot.sol\":3927:3933  sender */\n      dup2\n        /* \"smartContract/contracts/3_Ballot.sol\":3927:3942  sender.district */\n      0x02\n      add\n      sload\n        /* \"smartContract/contracts/3_Ballot.sol\":3927:3945  sender.district==8 */\n      eq\n        /* \"smartContract/contracts/3_Ballot.sol\":3923:4080  if (sender.district==8){proposals[random_vote()].Votes_District8 += sender.weight;}... */\n      iszero\n      tag_104\n      jumpi\n        /* \"smartContract/contracts/3_Ballot.sol\":3991:3997  sender */\n      dup1\n        /* \"smartContract/contracts/3_Ballot.sol\":3991:4004  sender.weight */\n      0x00\n      add\n      sload\n        /* \"smartContract/contracts/3_Ballot.sol\":3947:3956  proposals */\n      0x02\n        /* \"smartContract/contracts/3_Ballot.sol\":3957:3970  random_vote() */\n      tag_105\n        /* \"smartContract/contracts/3_Ballot.sol\":3957:3968  random_vote */\n      tag_16\n        /* \"smartContract/contracts/3_Ballot.sol\":3957:3970  random_vote() */\n      jump\t// in\n    tag_105:\n        /* \"smartContract/contracts/3_Ballot.sol\":3947:3971  proposals[random_vote()] */\n      dup2\n      sload\n      dup2\n      lt\n      tag_106\n      jumpi\n      tag_107\n      tag_44\n      jump\t// in\n    tag_107:\n    tag_106:\n      swap1\n      0x00\n      mstore\n      keccak256(0x00, 0x20)\n      swap1\n      0x0c\n      mul\n      add\n        /* \"smartContract/contracts/3_Ballot.sol\":3947:3987  proposals[random_vote()].Votes_District8 */\n      0x0a\n      add\n      0x00\n        /* \"smartContract/contracts/3_Ballot.sol\":3947:4004  proposals[random_vote()].Votes_District8 += sender.weight */\n      dup3\n      dup3\n      sload\n      tag_109\n      swap2\n      swap1\n      tag_47\n      jump\t// in\n    tag_109:\n      swap3\n      pop\n      pop\n      dup2\n      swap1\n      sstore\n      pop\n        /* \"smartContract/contracts/3_Ballot.sol\":3923:4080  if (sender.district==8){proposals[random_vote()].Votes_District8 += sender.weight;}... */\n      jump(tag_110)\n    tag_104:\n        /* \"smartContract/contracts/3_Ballot.sol\":4065:4071  sender */\n      dup1\n        /* \"smartContract/contracts/3_Ballot.sol\":4065:4078  sender.weight */\n      0x00\n      add\n      sload\n        /* \"smartContract/contracts/3_Ballot.sol\":4021:4030  proposals */\n      0x02\n        /* \"smartContract/contracts/3_Ballot.sol\":4031:4044  random_vote() */\n      tag_111\n        /* \"smartContract/contracts/3_Ballot.sol\":4031:4042  random_vote */\n      tag_16\n        /* \"smartContract/contracts/3_Ballot.sol\":4031:4044  random_vote() */\n      jump\t// in\n    tag_111:\n        /* \"smartContract/contracts/3_Ballot.sol\":4021:4045  proposals[random_vote()] */\n      dup2\n      sload\n      dup2\n      lt\n      tag_112\n      jumpi\n      tag_113\n      tag_44\n      jump\t// in\n    tag_113:\n    tag_112:\n      swap1\n      0x00\n      mstore\n      keccak256(0x00, 0x20)\n      swap1\n      0x0c\n      mul\n      add\n        /* \"smartContract/contracts/3_Ballot.sol\":4021:4061  proposals[random_vote()].Votes_District9 */\n      0x0b\n      add\n      0x00\n        /* \"smartContract/contracts/3_Ballot.sol\":4021:4078  proposals[random_vote()].Votes_District9 += sender.weight */\n      dup3\n      dup3\n      sload\n      tag_115\n      swap2\n      swap1\n      tag_47\n      jump\t// in\n    tag_115:\n      swap3\n      pop\n      pop\n      dup2\n      swap1\n      sstore\n      pop\n        /* \"smartContract/contracts/3_Ballot.sol\":3923:4080  if (sender.district==8){proposals[random_vote()].Votes_District8 += sender.weight;}... */\n    tag_110:\n        /* \"smartContract/contracts/3_Ballot.sol\":3826:4080  if (sender.district==7){proposals[random_vote()].Votes_District7 += sender.weight;}... */\n    tag_103:\n        /* \"smartContract/contracts/3_Ballot.sol\":3729:4080  if (sender.district==6){proposals[random_vote()].Votes_District6 += sender.weight;}... */\n    tag_96:\n        /* \"smartContract/contracts/3_Ballot.sol\":3632:4080  if (sender.district==5){proposals[random_vote()].Votes_District5 += sender.weight;}... */\n    tag_89:\n        /* \"smartContract/contracts/3_Ballot.sol\":3535:4080  if (sender.district==4){proposals[random_vote()].Votes_District4 += sender.weight;}... */\n    tag_82:\n        /* \"smartContract/contracts/3_Ballot.sol\":3438:4080  if (sender.district==3){proposals[random_vote()].Votes_District3 += sender.weight;}... */\n    tag_75:\n        /* \"smartContract/contracts/3_Ballot.sol\":3341:4080  if (sender.district==2){proposals[random_vote()].Votes_District2 += sender.weight;}... */\n    tag_68:\n        /* \"smartContract/contracts/3_Ballot.sol\":3244:4080  if (sender.district==1){proposals[random_vote()].Votes_District1 += sender.weight;}... */\n    tag_61:\n        /* \"smartContract/contracts/3_Ballot.sol\":3147:4080  if (sender.district==0){proposals[random_vote()].Votes_District0 += sender.weight;}... */\n    tag_54:\n        /* \"smartContract/contracts/3_Ballot.sol\":2477:4198  {... */\n      pop\n        /* \"smartContract/contracts/3_Ballot.sol\":2454:4198  function vote() public {... */\n      jump\t// out\n        /* \"smartContract/contracts/3_Ballot.sol\":814:853  mapping(address => Voter) public voters */\n    tag_12:\n      mstore(0x20, 0x01)\n      dup1\n      0x00\n      mstore\n      keccak256(0x00, 0x40)\n      0x00\n      swap2\n      pop\n      swap1\n      pop\n      dup1\n      0x00\n      add\n      sload\n      swap1\n      dup1\n      0x01\n      add\n      0x00\n      swap1\n      sload\n      swap1\n      0x0100\n      exp\n      swap1\n      div\n      0xff\n      and\n      swap1\n      dup1\n      0x02\n      add\n      sload\n      swap1\n      dup1\n      0x03\n      add\n      sload\n      swap1\n      pop\n      dup5\n      jump\t// out\n        /* \"smartContract/contracts/3_Ballot.sol\":2271:2448  function random_vote() public view returns(uint){... */\n    tag_16:\n        /* \"smartContract/contracts/3_Ballot.sol\":2314:2318  uint */\n      0x00\n        /* \"smartContract/contracts/3_Ballot.sol\":2436:2437  5 */\n      0x05\n        /* \"smartContract/contracts/3_Ballot.sol\":2372:2387  block.timestamp */\n      timestamp\n        /* \"smartContract/contracts/3_Ballot.sol\":2388:2404  block.difficulty */\n      difficulty\n        /* \"smartContract/contracts/3_Ballot.sol\":2420:2430  msg.sender */\n      caller\n        /* \"smartContract/contracts/3_Ballot.sol\":2355:2431  abi.encodePacked(block.timestamp,block.difficulty,  ... */\n      add(0x20, mload(0x40))\n      tag_117\n      swap4\n      swap3\n      swap2\n      swap1\n      tag_118\n      jump\t// in\n    tag_117:\n      mload(0x40)\n      0x20\n      dup2\n      dup4\n      sub\n      sub\n      dup2\n      mstore\n      swap1\n      0x40\n      mstore\n        /* \"smartContract/contracts/3_Ballot.sol\":2345:2432  keccak256(abi.encodePacked(block.timestamp,block.difficulty,  ... */\n      dup1\n      mload\n      swap1\n      0x20\n      add\n      keccak256\n        /* \"smartContract/contracts/3_Ballot.sol\":2340:2433  uint(keccak256(abi.encodePacked(block.timestamp,block.difficulty,  ... */\n      0x00\n      shr\n        /* \"smartContract/contracts/3_Ballot.sol\":2340:2437  uint(keccak256(abi.encodePacked(block.timestamp,block.difficulty,  ... */\n      tag_119\n      swap2\n      swap1\n      tag_120\n      jump\t// in\n    tag_119:\n        /* \"smartContract/contracts/3_Ballot.sol\":2333:2437  return uint(keccak256(abi.encodePacked(block.timestamp,block.difficulty,  ... */\n      swap1\n      pop\n        /* \"smartContract/contracts/3_Ballot.sol\":2271:2448  function random_vote() public view returns(uint){... */\n      swap1\n      jump\t// out\n        /* \"smartContract/contracts/3_Ballot.sol\":4204:4301  function res(uint _id) public view returns(Proposal memory){... */\n    tag_22:\n        /* \"smartContract/contracts/3_Ballot.sol\":4247:4262  Proposal memory */\n      tag_121\n      tag_122\n      jump\t// in\n    tag_121:\n        /* \"smartContract/contracts/3_Ballot.sol\":4280:4289  proposals */\n      0x02\n        /* \"smartContract/contracts/3_Ballot.sol\":4290:4293  _id */\n      dup3\n        /* \"smartContract/contracts/3_Ballot.sol\":4280:4294  proposals[_id] */\n      dup2\n      sload\n      dup2\n      lt\n      tag_124\n      jumpi\n      tag_125\n      tag_44\n      jump\t// in\n    tag_125:\n    tag_124:\n      swap1\n      0x00\n      mstore\n      keccak256(0x00, 0x20)\n      swap1\n      0x0c\n      mul\n      add\n        /* \"smartContract/contracts/3_Ballot.sol\":4273:4294  return proposals[_id] */\n      mload(0x40)\n      dup1\n      0x0180\n      add\n      0x40\n      mstore\n      swap1\n      dup2\n      0x00\n      dup3\n      add\n      dup1\n      sload\n      tag_127\n      swap1\n      tag_128\n      jump\t// in\n    tag_127:\n      dup1\n      0x1f\n      add\n      0x20\n      dup1\n      swap2\n      div\n      mul\n      0x20\n      add\n      mload(0x40)\n      swap1\n      dup2\n      add\n      0x40\n      mstore\n      dup1\n      swap3\n      swap2\n      swap1\n      dup2\n      dup2\n      mstore\n      0x20\n      add\n      dup3\n      dup1\n      sload\n      tag_129\n      swap1\n      tag_128\n      jump\t// in\n    tag_129:\n      dup1\n      iszero\n      tag_130\n      jumpi\n      dup1\n      0x1f\n      lt\n      tag_131\n      jumpi\n      0x0100\n      dup1\n      dup4\n      sload\n      div\n      mul\n      dup4\n      mstore\n      swap2\n      0x20\n      add\n      swap2\n      jump(tag_130)\n    tag_131:\n      dup3\n      add\n      swap2\n      swap1\n      0x00\n      mstore\n      keccak256(0x00, 0x20)\n      swap1\n    tag_132:\n      dup2\n      sload\n      dup2\n      mstore\n      swap1\n      0x01\n      add\n      swap1\n      0x20\n      add\n      dup1\n      dup4\n      gt\n      tag_132\n      jumpi\n      dup3\n      swap1\n      sub\n      0x1f\n      and\n      dup3\n      add\n      swap2\n    tag_130:\n      pop\n      pop\n      pop\n      pop\n      pop\n      dup2\n      mstore\n      0x20\n      add\n      0x01\n      dup3\n      add\n      sload\n      dup2\n      mstore\n      0x20\n      add\n      0x02\n      dup3\n      add\n      sload\n      dup2\n      mstore\n      0x20\n      add\n      0x03\n      dup3\n      add\n      sload\n      dup2\n      mstore\n      0x20\n      add\n      0x04\n      dup3\n      add\n      sload\n      dup2\n      mstore\n      0x20\n      add\n      0x05\n      dup3\n      add\n      sload\n      dup2\n      mstore\n      0x20\n      add\n      0x06\n      dup3\n      add\n      sload\n      dup2\n      mstore\n      0x20\n      add\n      0x07\n      dup3\n      add\n      sload\n      dup2\n      mstore\n      0x20\n      add\n      0x08\n      dup3\n      add\n      sload\n      dup2\n      mstore\n      0x20\n      add\n      0x09\n      dup3\n      add\n      sload\n      dup2\n      mstore\n      0x20\n      add\n      0x0a\n      dup3\n      add\n      sload\n      dup2\n      mstore\n      0x20\n      add\n      0x0b\n      dup3\n      add\n      sload\n      dup2\n      mstore\n      pop\n      pop\n      swap1\n      pop\n        /* \"smartContract/contracts/3_Ballot.sol\":4204:4301  function res(uint _id) public view returns(Proposal memory){... */\n      swap2\n      swap1\n      pop\n      jump\t// out\n        /* \"smartContract/contracts/3_Ballot.sol\":1014:1185  function random_district() private view returns(uint){... */\n    tag_34:\n        /* \"smartContract/contracts/3_Ballot.sol\":1062:1066  uint */\n      0x00\n        /* \"smartContract/contracts/3_Ballot.sol\":1176:1178  10 */\n      0x0a\n        /* \"smartContract/contracts/3_Ballot.sol\":1116:1131  block.timestamp */\n      timestamp\n        /* \"smartContract/contracts/3_Ballot.sol\":1132:1148  block.difficulty */\n      difficulty\n        /* \"smartContract/contracts/3_Ballot.sol\":1160:1170  msg.sender */\n      caller\n        /* \"smartContract/contracts/3_Ballot.sol\":1099:1171  abi.encodePacked(block.timestamp,block.difficulty,  ... */\n      add(0x20, mload(0x40))\n      tag_134\n      swap4\n      swap3\n      swap2\n      swap1\n      tag_118\n      jump\t// in\n    tag_134:\n      mload(0x40)\n      0x20\n      dup2\n      dup4\n      sub\n      sub\n      dup2\n      mstore\n      swap1\n      0x40\n      mstore\n        /* \"smartContract/contracts/3_Ballot.sol\":1089:1172  keccak256(abi.encodePacked(block.timestamp,block.difficulty,  ... */\n      dup1\n      mload\n      swap1\n      0x20\n      add\n      keccak256\n        /* \"smartContract/contracts/3_Ballot.sol\":1084:1173  uint(keccak256(abi.encodePacked(block.timestamp,block.difficulty,  ... */\n      0x00\n      shr\n        /* \"smartContract/contracts/3_Ballot.sol\":1084:1178  uint(keccak256(abi.encodePacked(block.timestamp,block.difficulty,  ... */\n      tag_135\n      swap2\n      swap1\n      tag_120\n      jump\t// in\n    tag_135:\n        /* \"smartContract/contracts/3_Ballot.sol\":1077:1178  return uint(keccak256(abi.encodePacked(block.timestamp,block.difficulty,  ... */\n      swap1\n      pop\n        /* \"smartContract/contracts/3_Ballot.sol\":1014:1185  function random_district() private view returns(uint){... */\n      swap1\n      jump\t// out\n        /* \"smartContract/contracts/3_Ballot.sol\":2107:2166  function countVoters() private {... */\n    tag_40:\n        /* \"smartContract/contracts/3_Ballot.sol\":2158:2159  1 */\n      0x01\n        /* \"smartContract/contracts/3_Ballot.sol\":2148:2154  countV */\n      0x03\n      0x00\n        /* \"smartContract/contracts/3_Ballot.sol\":2148:2159  countV += 1 */\n      dup3\n      dup3\n      sload\n      tag_137\n      swap2\n      swap1\n      tag_138\n      jump\t// in\n    tag_137:\n      swap3\n      pop\n      pop\n      dup2\n      swap1\n      sstore\n      pop\n        /* \"smartContract/contracts/3_Ballot.sol\":2107:2166  function countVoters() private {... */\n      jump\t// out\n    tag_122:\n      mload(0x40)\n      dup1\n      0x0180\n      add\n      0x40\n      mstore\n      dup1\n      0x60\n      dup2\n      mstore\n      0x20\n      add\n      0x00\n      dup2\n      mstore\n      0x20\n      add\n      0x00\n      dup2\n      mstore\n      0x20\n      add\n      0x00\n      dup2\n      mstore\n      0x20\n      add\n      0x00\n      dup2\n      mstore\n      0x20\n      add\n      0x00\n      dup2\n      mstore\n      0x20\n      add\n      0x00\n      dup2\n      mstore\n      0x20\n      add\n      0x00\n      dup2\n      mstore\n      0x20\n      add\n      0x00\n      dup2\n      mstore\n      0x20\n      add\n      0x00\n      dup2\n      mstore\n      0x20\n      add\n      0x00\n      dup2\n      mstore\n      0x20\n      add\n      0x00\n      dup2\n      mstore\n      pop\n      swap1\n      jump\t// out\n        /* \"#utility.yul\":7:146   */\n    tag_140:\n        /* \"#utility.yul\":53:58   */\n      0x00\n        /* \"#utility.yul\":91:97   */\n      dup2\n        /* \"#utility.yul\":78:98   */\n      calldataload\n        /* \"#utility.yul\":69:98   */\n      swap1\n      pop\n        /* \"#utility.yul\":107:140   */\n      tag_142\n        /* \"#utility.yul\":134:139   */\n      dup2\n        /* \"#utility.yul\":107:140   */\n      tag_143\n      jump\t// in\n    tag_142:\n        /* \"#utility.yul\":7:146   */\n      swap3\n      swap2\n      pop\n      pop\n      jump\t// out\n        /* \"#utility.yul\":152:291   */\n    tag_144:\n        /* \"#utility.yul\":198:203   */\n      0x00\n        /* \"#utility.yul\":236:242   */\n      dup2\n        /* \"#utility.yul\":223:243   */\n      calldataload\n        /* \"#utility.yul\":214:243   */\n      swap1\n      pop\n        /* \"#utility.yul\":252:285   */\n      tag_146\n        /* \"#utility.yul\":279:284   */\n      dup2\n        /* \"#utility.yul\":252:285   */\n      tag_147\n      jump\t// in\n    tag_146:\n        /* \"#utility.yul\":152:291   */\n      swap3\n      swap2\n      pop\n      pop\n      jump\t// out\n        /* \"#utility.yul\":297:626   */\n    tag_11:\n        /* \"#utility.yul\":356:362   */\n      0x00\n        /* \"#utility.yul\":405:407   */\n      0x20\n        /* \"#utility.yul\":393:402   */\n      dup3\n        /* \"#utility.yul\":384:391   */\n      dup5\n        /* \"#utility.yul\":380:403   */\n      sub\n        /* \"#utility.yul\":376:408   */\n      slt\n        /* \"#utility.yul\":373:492   */\n      iszero\n      tag_149\n      jumpi\n        /* \"#utility.yul\":411:490   */\n      tag_150\n      tag_151\n      jump\t// in\n    tag_150:\n        /* \"#utility.yul\":373:492   */\n    tag_149:\n        /* \"#utility.yul\":531:532   */\n      0x00\n        /* \"#utility.yul\":556:609   */\n      tag_152\n        /* \"#utility.yul\":601:608   */\n      dup5\n        /* \"#utility.yul\":592:598   */\n      dup3\n        /* \"#utility.yul\":581:590   */\n      dup6\n        /* \"#utility.yul\":577:599   */\n      add\n        /* \"#utility.yul\":556:609   */\n      tag_140\n      jump\t// in\n    tag_152:\n        /* \"#utility.yul\":546:609   */\n      swap2\n      pop\n        /* \"#utility.yul\":502:619   */\n      pop\n        /* \"#utility.yul\":297:626   */\n      swap3\n      swap2\n      pop\n      pop\n      jump\t// out\n        /* \"#utility.yul\":632:961   */\n    tag_21:\n        /* \"#utility.yul\":691:697   */\n      0x00\n        /* \"#utility.yul\":740:742   */\n      0x20\n        /* \"#utility.yul\":728:737   */\n      dup3\n        /* \"#utility.yul\":719:726   */\n      dup5\n        /* \"#utility.yul\":715:738   */\n      sub\n        /* \"#utility.yul\":711:743   */\n      slt\n        /* \"#utility.yul\":708:827   */\n      iszero\n      tag_154\n      jumpi\n        /* \"#utility.yul\":746:825   */\n      tag_155\n      tag_151\n      jump\t// in\n    tag_155:\n        /* \"#utility.yul\":708:827   */\n    tag_154:\n        /* \"#utility.yul\":866:867   */\n      0x00\n        /* \"#utility.yul\":891:944   */\n      tag_156\n        /* \"#utility.yul\":936:943   */\n      dup5\n        /* \"#utility.yul\":927:933   */\n      dup3\n        /* \"#utility.yul\":916:925   */\n      dup6\n        /* \"#utility.yul\":912:934   */\n      add\n        /* \"#utility.yul\":891:944   */\n      tag_144\n      jump\t// in\n    tag_156:\n        /* \"#utility.yul\":881:944   */\n      swap2\n      pop\n        /* \"#utility.yul\":837:954   */\n      pop\n        /* \"#utility.yul\":632:961   */\n      swap3\n      swap2\n      pop\n      pop\n      jump\t// out\n        /* \"#utility.yul\":967:1124   */\n    tag_157:\n        /* \"#utility.yul\":1072:1117   */\n      tag_159\n        /* \"#utility.yul\":1092:1116   */\n      tag_160\n        /* \"#utility.yul\":1110:1115   */\n      dup3\n        /* \"#utility.yul\":1092:1116   */\n      tag_161\n      jump\t// in\n    tag_160:\n        /* \"#utility.yul\":1072:1117   */\n      tag_162\n      jump\t// in\n    tag_159:\n        /* \"#utility.yul\":1067:1070   */\n      dup3\n        /* \"#utility.yul\":1060:1118   */\n      mstore\n        /* \"#utility.yul\":967:1124   */\n      pop\n      pop\n      jump\t// out\n        /* \"#utility.yul\":1130:1239   */\n    tag_163:\n        /* \"#utility.yul\":1211:1232   */\n      tag_165\n        /* \"#utility.yul\":1226:1231   */\n      dup2\n        /* \"#utility.yul\":1211:1232   */\n      tag_166\n      jump\t// in\n    tag_165:\n        /* \"#utility.yul\":1206:1209   */\n      dup3\n        /* \"#utility.yul\":1199:1233   */\n      mstore\n        /* \"#utility.yul\":1130:1239   */\n      pop\n      pop\n      jump\t// out\n        /* \"#utility.yul\":1245:1589   */\n    tag_167:\n        /* \"#utility.yul\":1323:1326   */\n      0x00\n        /* \"#utility.yul\":1351:1390   */\n      tag_169\n        /* \"#utility.yul\":1384:1389   */\n      dup3\n        /* \"#utility.yul\":1351:1390   */\n      tag_170\n      jump\t// in\n    tag_169:\n        /* \"#utility.yul\":1406:1467   */\n      tag_171\n        /* \"#utility.yul\":1460:1466   */\n      dup2\n        /* \"#utility.yul\":1455:1458   */\n      dup6\n        /* \"#utility.yul\":1406:1467   */\n      tag_172\n      jump\t// in\n    tag_171:\n        /* \"#utility.yul\":1399:1467   */\n      swap4\n      pop\n        /* \"#utility.yul\":1476:1528   */\n      tag_173\n        /* \"#utility.yul\":1521:1527   */\n      dup2\n        /* \"#utility.yul\":1516:1519   */\n      dup6\n        /* \"#utility.yul\":1509:1513   */\n      0x20\n        /* \"#utility.yul\":1502:1507   */\n      dup7\n        /* \"#utility.yul\":1498:1514   */\n      add\n        /* \"#utility.yul\":1476:1528   */\n      tag_174\n      jump\t// in\n    tag_173:\n        /* \"#utility.yul\":1553:1582   */\n      tag_175\n        /* \"#utility.yul\":1575:1581   */\n      dup2\n        /* \"#utility.yul\":1553:1582   */\n      tag_176\n      jump\t// in\n    tag_175:\n        /* \"#utility.yul\":1548:1551   */\n      dup5\n        /* \"#utility.yul\":1544:1583   */\n      add\n        /* \"#utility.yul\":1537:1583   */\n      swap2\n      pop\n        /* \"#utility.yul\":1327:1589   */\n      pop\n        /* \"#utility.yul\":1245:1589   */\n      swap3\n      swap2\n      pop\n      pop\n      jump\t// out\n        /* \"#utility.yul\":1595:1961   */\n    tag_177:\n        /* \"#utility.yul\":1737:1740   */\n      0x00\n        /* \"#utility.yul\":1758:1825   */\n      tag_179\n        /* \"#utility.yul\":1822:1824   */\n      0x0e\n        /* \"#utility.yul\":1817:1820   */\n      dup4\n        /* \"#utility.yul\":1758:1825   */\n      tag_180\n      jump\t// in\n    tag_179:\n        /* \"#utility.yul\":1751:1825   */\n      swap2\n      pop\n        /* \"#utility.yul\":1834:1927   */\n      tag_181\n        /* \"#utility.yul\":1923:1926   */\n      dup3\n        /* \"#utility.yul\":1834:1927   */\n      tag_182\n      jump\t// in\n    tag_181:\n        /* \"#utility.yul\":1952:1954   */\n      0x20\n        /* \"#utility.yul\":1947:1950   */\n      dup3\n        /* \"#utility.yul\":1943:1955   */\n      add\n        /* \"#utility.yul\":1936:1955   */\n      swap1\n      pop\n        /* \"#utility.yul\":1595:1961   */\n      swap2\n      swap1\n      pop\n      jump\t// out\n        /* \"#utility.yul\":1967:2333   */\n    tag_183:\n        /* \"#utility.yul\":2109:2112   */\n      0x00\n        /* \"#utility.yul\":2130:2197   */\n      tag_185\n        /* \"#utility.yul\":2194:2196   */\n      0x18\n        /* \"#utility.yul\":2189:2192   */\n      dup4\n        /* \"#utility.yul\":2130:2197   */\n      tag_180\n      jump\t// in\n    tag_185:\n        /* \"#utility.yul\":2123:2197   */\n      swap2\n      pop\n        /* \"#utility.yul\":2206:2299   */\n      tag_186\n        /* \"#utility.yul\":2295:2298   */\n      dup3\n        /* \"#utility.yul\":2206:2299   */\n      tag_187\n      jump\t// in\n    tag_186:\n        /* \"#utility.yul\":2324:2326   */\n      0x20\n        /* \"#utility.yul\":2319:2322   */\n      dup3\n        /* \"#utility.yul\":2315:2327   */\n      add\n        /* \"#utility.yul\":2308:2327   */\n      swap1\n      pop\n        /* \"#utility.yul\":1967:2333   */\n      swap2\n      swap1\n      pop\n      jump\t// out\n        /* \"#utility.yul\":2339:2705   */\n    tag_188:\n        /* \"#utility.yul\":2481:2484   */\n      0x00\n        /* \"#utility.yul\":2502:2569   */\n      tag_190\n        /* \"#utility.yul\":2566:2568   */\n      0x13\n        /* \"#utility.yul\":2561:2564   */\n      dup4\n        /* \"#utility.yul\":2502:2569   */\n      tag_180\n      jump\t// in\n    tag_190:\n        /* \"#utility.yul\":2495:2569   */\n      swap2\n      pop\n        /* \"#utility.yul\":2578:2671   */\n      tag_191\n        /* \"#utility.yul\":2667:2670   */\n      dup3\n        /* \"#utility.yul\":2578:2671   */\n      tag_192\n      jump\t// in\n    tag_191:\n        /* \"#utility.yul\":2696:2698   */\n      0x20\n        /* \"#utility.yul\":2691:2694   */\n      dup3\n        /* \"#utility.yul\":2687:2699   */\n      add\n        /* \"#utility.yul\":2680:2699   */\n      swap1\n      pop\n        /* \"#utility.yul\":2339:2705   */\n      swap2\n      swap1\n      pop\n      jump\t// out\n        /* \"#utility.yul\":2767:5246   */\n    tag_193:\n        /* \"#utility.yul\":2884:2887   */\n      0x00\n        /* \"#utility.yul\":2920:2926   */\n      0x0180\n        /* \"#utility.yul\":2915:2918   */\n      dup4\n        /* \"#utility.yul\":2911:2927   */\n      add\n        /* \"#utility.yul\":3009:3013   */\n      0x00\n        /* \"#utility.yul\":3002:3007   */\n      dup4\n        /* \"#utility.yul\":2998:3014   */\n      add\n        /* \"#utility.yul\":2992:3015   */\n      mload\n        /* \"#utility.yul\":3062:3065   */\n      dup5\n        /* \"#utility.yul\":3056:3060   */\n      dup3\n        /* \"#utility.yul\":3052:3066   */\n      sub\n        /* \"#utility.yul\":3045:3049   */\n      0x00\n        /* \"#utility.yul\":3040:3043   */\n      dup7\n        /* \"#utility.yul\":3036:3050   */\n      add\n        /* \"#utility.yul\":3029:3067   */\n      mstore\n        /* \"#utility.yul\":3088:3161   */\n      tag_195\n        /* \"#utility.yul\":3156:3160   */\n      dup3\n        /* \"#utility.yul\":3142:3154   */\n      dup3\n        /* \"#utility.yul\":3088:3161   */\n      tag_167\n      jump\t// in\n    tag_195:\n        /* \"#utility.yul\":3080:3161   */\n      swap2\n      pop\n        /* \"#utility.yul\":2937:3172   */\n      pop\n        /* \"#utility.yul\":3261:3265   */\n      0x20\n        /* \"#utility.yul\":3254:3259   */\n      dup4\n        /* \"#utility.yul\":3250:3266   */\n      add\n        /* \"#utility.yul\":3244:3267   */\n      mload\n        /* \"#utility.yul\":3280:3343   */\n      tag_196\n        /* \"#utility.yul\":3337:3341   */\n      0x20\n        /* \"#utility.yul\":3332:3335   */\n      dup7\n        /* \"#utility.yul\":3328:3342   */\n      add\n        /* \"#utility.yul\":3314:3326   */\n      dup3\n        /* \"#utility.yul\":3280:3343   */\n      tag_197\n      jump\t// in\n    tag_196:\n        /* \"#utility.yul\":3182:3353   */\n      pop\n        /* \"#utility.yul\":3446:3450   */\n      0x40\n        /* \"#utility.yul\":3439:3444   */\n      dup4\n        /* \"#utility.yul\":3435:3451   */\n      add\n        /* \"#utility.yul\":3429:3452   */\n      mload\n        /* \"#utility.yul\":3465:3528   */\n      tag_198\n        /* \"#utility.yul\":3522:3526   */\n      0x40\n        /* \"#utility.yul\":3517:3520   */\n      dup7\n        /* \"#utility.yul\":3513:3527   */\n      add\n        /* \"#utility.yul\":3499:3511   */\n      dup3\n        /* \"#utility.yul\":3465:3528   */\n      tag_197\n      jump\t// in\n    tag_198:\n        /* \"#utility.yul\":3363:3538   */\n      pop\n        /* \"#utility.yul\":3631:3635   */\n      0x60\n        /* \"#utility.yul\":3624:3629   */\n      dup4\n        /* \"#utility.yul\":3620:3636   */\n      add\n        /* \"#utility.yul\":3614:3637   */\n      mload\n        /* \"#utility.yul\":3650:3713   */\n      tag_199\n        /* \"#utility.yul\":3707:3711   */\n      0x60\n        /* \"#utility.yul\":3702:3705   */\n      dup7\n        /* \"#utility.yul\":3698:3712   */\n      add\n        /* \"#utility.yul\":3684:3696   */\n      dup3\n        /* \"#utility.yul\":3650:3713   */\n      tag_197\n      jump\t// in\n    tag_199:\n        /* \"#utility.yul\":3548:3723   */\n      pop\n        /* \"#utility.yul\":3816:3820   */\n      0x80\n        /* \"#utility.yul\":3809:3814   */\n      dup4\n        /* \"#utility.yul\":3805:3821   */\n      add\n        /* \"#utility.yul\":3799:3822   */\n      mload\n        /* \"#utility.yul\":3835:3898   */\n      tag_200\n        /* \"#utility.yul\":3892:3896   */\n      0x80\n        /* \"#utility.yul\":3887:3890   */\n      dup7\n        /* \"#utility.yul\":3883:3897   */\n      add\n        /* \"#utility.yul\":3869:3881   */\n      dup3\n        /* \"#utility.yul\":3835:3898   */\n      tag_197\n      jump\t// in\n    tag_200:\n        /* \"#utility.yul\":3733:3908   */\n      pop\n        /* \"#utility.yul\":4001:4005   */\n      0xa0\n        /* \"#utility.yul\":3994:3999   */\n      dup4\n        /* \"#utility.yul\":3990:4006   */\n      add\n        /* \"#utility.yul\":3984:4007   */\n      mload\n        /* \"#utility.yul\":4020:4083   */\n      tag_201\n        /* \"#utility.yul\":4077:4081   */\n      0xa0\n        /* \"#utility.yul\":4072:4075   */\n      dup7\n        /* \"#utility.yul\":4068:4082   */\n      add\n        /* \"#utility.yul\":4054:4066   */\n      dup3\n        /* \"#utility.yul\":4020:4083   */\n      tag_197\n      jump\t// in\n    tag_201:\n        /* \"#utility.yul\":3918:4093   */\n      pop\n        /* \"#utility.yul\":4186:4190   */\n      0xc0\n        /* \"#utility.yul\":4179:4184   */\n      dup4\n        /* \"#utility.yul\":4175:4191   */\n      add\n        /* \"#utility.yul\":4169:4192   */\n      mload\n        /* \"#utility.yul\":4205:4268   */\n      tag_202\n        /* \"#utility.yul\":4262:4266   */\n      0xc0\n        /* \"#utility.yul\":4257:4260   */\n      dup7\n        /* \"#utility.yul\":4253:4267   */\n      add\n        /* \"#utility.yul\":4239:4251   */\n      dup3\n        /* \"#utility.yul\":4205:4268   */\n      tag_197\n      jump\t// in\n    tag_202:\n        /* \"#utility.yul\":4103:4278   */\n      pop\n        /* \"#utility.yul\":4371:4375   */\n      0xe0\n        /* \"#utility.yul\":4364:4369   */\n      dup4\n        /* \"#utility.yul\":4360:4376   */\n      add\n        /* \"#utility.yul\":4354:4377   */\n      mload\n        /* \"#utility.yul\":4390:4453   */\n      tag_203\n        /* \"#utility.yul\":4447:4451   */\n      0xe0\n        /* \"#utility.yul\":4442:4445   */\n      dup7\n        /* \"#utility.yul\":4438:4452   */\n      add\n        /* \"#utility.yul\":4424:4436   */\n      dup3\n        /* \"#utility.yul\":4390:4453   */\n      tag_197\n      jump\t// in\n    tag_203:\n        /* \"#utility.yul\":4288:4463   */\n      pop\n        /* \"#utility.yul\":4556:4562   */\n      0x0100\n        /* \"#utility.yul\":4549:4554   */\n      dup4\n        /* \"#utility.yul\":4545:4563   */\n      add\n        /* \"#utility.yul\":4539:4564   */\n      mload\n        /* \"#utility.yul\":4577:4642   */\n      tag_204\n        /* \"#utility.yul\":4634:4640   */\n      0x0100\n        /* \"#utility.yul\":4629:4632   */\n      dup7\n        /* \"#utility.yul\":4625:4641   */\n      add\n        /* \"#utility.yul\":4611:4623   */\n      dup3\n        /* \"#utility.yul\":4577:4642   */\n      tag_197\n      jump\t// in\n    tag_204:\n        /* \"#utility.yul\":4473:4652   */\n      pop\n        /* \"#utility.yul\":4745:4751   */\n      0x0120\n        /* \"#utility.yul\":4738:4743   */\n      dup4\n        /* \"#utility.yul\":4734:4752   */\n      add\n        /* \"#utility.yul\":4728:4753   */\n      mload\n        /* \"#utility.yul\":4766:4831   */\n      tag_205\n        /* \"#utility.yul\":4823:4829   */\n      0x0120\n        /* \"#utility.yul\":4818:4821   */\n      dup7\n        /* \"#utility.yul\":4814:4830   */\n      add\n        /* \"#utility.yul\":4800:4812   */\n      dup3\n        /* \"#utility.yul\":4766:4831   */\n      tag_197\n      jump\t// in\n    tag_205:\n        /* \"#utility.yul\":4662:4841   */\n      pop\n        /* \"#utility.yul\":4934:4940   */\n      0x0140\n        /* \"#utility.yul\":4927:4932   */\n      dup4\n        /* \"#utility.yul\":4923:4941   */\n      add\n        /* \"#utility.yul\":4917:4942   */\n      mload\n        /* \"#utility.yul\":4955:5020   */\n      tag_206\n        /* \"#utility.yul\":5012:5018   */\n      0x0140\n        /* \"#utility.yul\":5007:5010   */\n      dup7\n        /* \"#utility.yul\":5003:5019   */\n      add\n        /* \"#utility.yul\":4989:5001   */\n      dup3\n        /* \"#utility.yul\":4955:5020   */\n      tag_197\n      jump\t// in\n    tag_206:\n        /* \"#utility.yul\":4851:5030   */\n      pop\n        /* \"#utility.yul\":5123:5129   */\n      0x0160\n        /* \"#utility.yul\":5116:5121   */\n      dup4\n        /* \"#utility.yul\":5112:5130   */\n      add\n        /* \"#utility.yul\":5106:5131   */\n      mload\n        /* \"#utility.yul\":5144:5209   */\n      tag_207\n        /* \"#utility.yul\":5201:5207   */\n      0x0160\n        /* \"#utility.yul\":5196:5199   */\n      dup7\n        /* \"#utility.yul\":5192:5208   */\n      add\n        /* \"#utility.yul\":5178:5190   */\n      dup3\n        /* \"#utility.yul\":5144:5209   */\n      tag_197\n      jump\t// in\n    tag_207:\n        /* \"#utility.yul\":5040:5219   */\n      pop\n        /* \"#utility.yul\":5236:5240   */\n      dup1\n        /* \"#utility.yul\":5229:5240   */\n      swap2\n      pop\n        /* \"#utility.yul\":2889:5246   */\n      pop\n        /* \"#utility.yul\":2767:5246   */\n      swap3\n      swap2\n      pop\n      pop\n      jump\t// out\n        /* \"#utility.yul\":5252:5360   */\n    tag_197:\n        /* \"#utility.yul\":5329:5353   */\n      tag_209\n        /* \"#utility.yul\":5347:5352   */\n      dup2\n        /* \"#utility.yul\":5329:5353   */\n      tag_210\n      jump\t// in\n    tag_209:\n        /* \"#utility.yul\":5324:5327   */\n      dup3\n        /* \"#utility.yul\":5317:5354   */\n      mstore\n        /* \"#utility.yul\":5252:5360   */\n      pop\n      pop\n      jump\t// out\n        /* \"#utility.yul\":5366:5484   */\n    tag_211:\n        /* \"#utility.yul\":5453:5477   */\n      tag_213\n        /* \"#utility.yul\":5471:5476   */\n      dup2\n        /* \"#utility.yul\":5453:5477   */\n      tag_210\n      jump\t// in\n    tag_213:\n        /* \"#utility.yul\":5448:5451   */\n      dup3\n        /* \"#utility.yul\":5441:5478   */\n      mstore\n        /* \"#utility.yul\":5366:5484   */\n      pop\n      pop\n      jump\t// out\n        /* \"#utility.yul\":5490:5647   */\n    tag_214:\n        /* \"#utility.yul\":5595:5640   */\n      tag_216\n        /* \"#utility.yul\":5615:5639   */\n      tag_217\n        /* \"#utility.yul\":5633:5638   */\n      dup3\n        /* \"#utility.yul\":5615:5639   */\n      tag_210\n      jump\t// in\n    tag_217:\n        /* \"#utility.yul\":5595:5640   */\n      tag_218\n      jump\t// in\n    tag_216:\n        /* \"#utility.yul\":5590:5593   */\n      dup3\n        /* \"#utility.yul\":5583:5641   */\n      mstore\n        /* \"#utility.yul\":5490:5647   */\n      pop\n      pop\n      jump\t// out\n        /* \"#utility.yul\":5653:6191   */\n    tag_118:\n        /* \"#utility.yul\":5821:5824   */\n      0x00\n        /* \"#utility.yul\":5836:5911   */\n      tag_220\n        /* \"#utility.yul\":5907:5910   */\n      dup3\n        /* \"#utility.yul\":5898:5904   */\n      dup7\n        /* \"#utility.yul\":5836:5911   */\n      tag_214\n      jump\t// in\n    tag_220:\n        /* \"#utility.yul\":5936:5938   */\n      0x20\n        /* \"#utility.yul\":5931:5934   */\n      dup3\n        /* \"#utility.yul\":5927:5939   */\n      add\n        /* \"#utility.yul\":5920:5939   */\n      swap2\n      pop\n        /* \"#utility.yul\":5949:6024   */\n      tag_221\n        /* \"#utility.yul\":6020:6023   */\n      dup3\n        /* \"#utility.yul\":6011:6017   */\n      dup6\n        /* \"#utility.yul\":5949:6024   */\n      tag_214\n      jump\t// in\n    tag_221:\n        /* \"#utility.yul\":6049:6051   */\n      0x20\n        /* \"#utility.yul\":6044:6047   */\n      dup3\n        /* \"#utility.yul\":6040:6052   */\n      add\n        /* \"#utility.yul\":6033:6052   */\n      swap2\n      pop\n        /* \"#utility.yul\":6062:6137   */\n      tag_222\n        /* \"#utility.yul\":6133:6136   */\n      dup3\n        /* \"#utility.yul\":6124:6130   */\n      dup5\n        /* \"#utility.yul\":6062:6137   */\n      tag_157\n      jump\t// in\n    tag_222:\n        /* \"#utility.yul\":6162:6164   */\n      0x14\n        /* \"#utility.yul\":6157:6160   */\n      dup3\n        /* \"#utility.yul\":6153:6165   */\n      add\n        /* \"#utility.yul\":6146:6165   */\n      swap2\n      pop\n        /* \"#utility.yul\":6182:6185   */\n      dup2\n        /* \"#utility.yul\":6175:6185   */\n      swap1\n      pop\n        /* \"#utility.yul\":5653:6191   */\n      swap5\n      swap4\n      pop\n      pop\n      pop\n      pop\n      jump\t// out\n        /* \"#utility.yul\":6197:6616   */\n    tag_37:\n        /* \"#utility.yul\":6363:6367   */\n      0x00\n        /* \"#utility.yul\":6401:6403   */\n      0x20\n        /* \"#utility.yul\":6390:6399   */\n      dup3\n        /* \"#utility.yul\":6386:6404   */\n      add\n        /* \"#utility.yul\":6378:6404   */\n      swap1\n      pop\n        /* \"#utility.yul\":6450:6459   */\n      dup2\n        /* \"#utility.yul\":6444:6448   */\n      dup2\n        /* \"#utility.yul\":6440:6460   */\n      sub\n        /* \"#utility.yul\":6436:6437   */\n      0x00\n        /* \"#utility.yul\":6425:6434   */\n      dup4\n        /* \"#utility.yul\":6421:6438   */\n      add\n        /* \"#utility.yul\":6414:6461   */\n      mstore\n        /* \"#utility.yul\":6478:6609   */\n      tag_224\n        /* \"#utility.yul\":6604:6608   */\n      dup2\n        /* \"#utility.yul\":6478:6609   */\n      tag_177\n      jump\t// in\n    tag_224:\n        /* \"#utility.yul\":6470:6609   */\n      swap1\n      pop\n        /* \"#utility.yul\":6197:6616   */\n      swap2\n      swap1\n      pop\n      jump\t// out\n        /* \"#utility.yul\":6622:7041   */\n    tag_28:\n        /* \"#utility.yul\":6788:6792   */\n      0x00\n        /* \"#utility.yul\":6826:6828   */\n      0x20\n        /* \"#utility.yul\":6815:6824   */\n      dup3\n        /* \"#utility.yul\":6811:6829   */\n      add\n        /* \"#utility.yul\":6803:6829   */\n      swap1\n      pop\n        /* \"#utility.yul\":6875:6884   */\n      dup2\n        /* \"#utility.yul\":6869:6873   */\n      dup2\n        /* \"#utility.yul\":6865:6885   */\n      sub\n        /* \"#utility.yul\":6861:6862   */\n      0x00\n        /* \"#utility.yul\":6850:6859   */\n      dup4\n        /* \"#utility.yul\":6846:6863   */\n      add\n        /* \"#utility.yul\":6839:6886   */\n      mstore\n        /* \"#utility.yul\":6903:7034   */\n      tag_226\n        /* \"#utility.yul\":7029:7033   */\n      dup2\n        /* \"#utility.yul\":6903:7034   */\n      tag_183\n      jump\t// in\n    tag_226:\n        /* \"#utility.yul\":6895:7034   */\n      swap1\n      pop\n        /* \"#utility.yul\":6622:7041   */\n      swap2\n      swap1\n      pop\n      jump\t// out\n        /* \"#utility.yul\":7047:7466   */\n    tag_32:\n        /* \"#utility.yul\":7213:7217   */\n      0x00\n        /* \"#utility.yul\":7251:7253   */\n      0x20\n        /* \"#utility.yul\":7240:7249   */\n      dup3\n        /* \"#utility.yul\":7236:7254   */\n      add\n        /* \"#utility.yul\":7228:7254   */\n      swap1\n      pop\n        /* \"#utility.yul\":7300:7309   */\n      dup2\n        /* \"#utility.yul\":7294:7298   */\n      dup2\n        /* \"#utility.yul\":7290:7310   */\n      sub\n        /* \"#utility.yul\":7286:7287   */\n      0x00\n        /* \"#utility.yul\":7275:7284   */\n      dup4\n        /* \"#utility.yul\":7271:7288   */\n      add\n        /* \"#utility.yul\":7264:7311   */\n      mstore\n        /* \"#utility.yul\":7328:7459   */\n      tag_228\n        /* \"#utility.yul\":7454:7458   */\n      dup2\n        /* \"#utility.yul\":7328:7459   */\n      tag_188\n      jump\t// in\n    tag_228:\n        /* \"#utility.yul\":7320:7459   */\n      swap1\n      pop\n        /* \"#utility.yul\":7047:7466   */\n      swap2\n      swap1\n      pop\n      jump\t// out\n        /* \"#utility.yul\":7472:7841   */\n    tag_24:\n        /* \"#utility.yul\":7613:7617   */\n      0x00\n        /* \"#utility.yul\":7651:7653   */\n      0x20\n        /* \"#utility.yul\":7640:7649   */\n      dup3\n        /* \"#utility.yul\":7636:7654   */\n      add\n        /* \"#utility.yul\":7628:7654   */\n      swap1\n      pop\n        /* \"#utility.yul\":7700:7709   */\n      dup2\n        /* \"#utility.yul\":7694:7698   */\n      dup2\n        /* \"#utility.yul\":7690:7710   */\n      sub\n        /* \"#utility.yul\":7686:7687   */\n      0x00\n        /* \"#utility.yul\":7675:7684   */\n      dup4\n        /* \"#utility.yul\":7671:7688   */\n      add\n        /* \"#utility.yul\":7664:7711   */\n      mstore\n        /* \"#utility.yul\":7728:7834   */\n      tag_230\n        /* \"#utility.yul\":7829:7833   */\n      dup2\n        /* \"#utility.yul\":7820:7826   */\n      dup5\n        /* \"#utility.yul\":7728:7834   */\n      tag_193\n      jump\t// in\n    tag_230:\n        /* \"#utility.yul\":7720:7834   */\n      swap1\n      pop\n        /* \"#utility.yul\":7472:7841   */\n      swap3\n      swap2\n      pop\n      pop\n      jump\t// out\n        /* \"#utility.yul\":7847:8069   */\n    tag_18:\n        /* \"#utility.yul\":7940:7944   */\n      0x00\n        /* \"#utility.yul\":7978:7980   */\n      0x20\n        /* \"#utility.yul\":7967:7976   */\n      dup3\n        /* \"#utility.yul\":7963:7981   */\n      add\n        /* \"#utility.yul\":7955:7981   */\n      swap1\n      pop\n        /* \"#utility.yul\":7991:8062   */\n      tag_232\n        /* \"#utility.yul\":8059:8060   */\n      0x00\n        /* \"#utility.yul\":8048:8057   */\n      dup4\n        /* \"#utility.yul\":8044:8061   */\n      add\n        /* \"#utility.yul\":8035:8041   */\n      dup5\n        /* \"#utility.yul\":7991:8062   */\n      tag_211\n      jump\t// in\n    tag_232:\n        /* \"#utility.yul\":7847:8069   */\n      swap3\n      swap2\n      pop\n      pop\n      jump\t// out\n        /* \"#utility.yul\":8075:8616   */\n    tag_14:\n        /* \"#utility.yul\":8246:8250   */\n      0x00\n        /* \"#utility.yul\":8284:8287   */\n      0x80\n        /* \"#utility.yul\":8273:8282   */\n      dup3\n        /* \"#utility.yul\":8269:8288   */\n      add\n        /* \"#utility.yul\":8261:8288   */\n      swap1\n      pop\n        /* \"#utility.yul\":8298:8369   */\n      tag_234\n        /* \"#utility.yul\":8366:8367   */\n      0x00\n        /* \"#utility.yul\":8355:8364   */\n      dup4\n        /* \"#utility.yul\":8351:8368   */\n      add\n        /* \"#utility.yul\":8342:8348   */\n      dup8\n        /* \"#utility.yul\":8298:8369   */\n      tag_211\n      jump\t// in\n    tag_234:\n        /* \"#utility.yul\":8379:8445   */\n      tag_235\n        /* \"#utility.yul\":8441:8443   */\n      0x20\n        /* \"#utility.yul\":8430:8439   */\n      dup4\n        /* \"#utility.yul\":8426:8444   */\n      add\n        /* \"#utility.yul\":8417:8423   */\n      dup7\n        /* \"#utility.yul\":8379:8445   */\n      tag_163\n      jump\t// in\n    tag_235:\n        /* \"#utility.yul\":8455:8527   */\n      tag_236\n        /* \"#utility.yul\":8523:8525   */\n      0x40\n        /* \"#utility.yul\":8512:8521   */\n      dup4\n        /* \"#utility.yul\":8508:8526   */\n      add\n        /* \"#utility.yul\":8499:8505   */\n      dup6\n        /* \"#utility.yul\":8455:8527   */\n      tag_211\n      jump\t// in\n    tag_236:\n        /* \"#utility.yul\":8537:8609   */\n      tag_237\n        /* \"#utility.yul\":8605:8607   */\n      0x60\n        /* \"#utility.yul\":8594:8603   */\n      dup4\n        /* \"#utility.yul\":8590:8608   */\n      add\n        /* \"#utility.yul\":8581:8587   */\n      dup5\n        /* \"#utility.yul\":8537:8609   */\n      tag_211\n      jump\t// in\n    tag_237:\n        /* \"#utility.yul\":8075:8616   */\n      swap6\n      swap5\n      pop\n      pop\n      pop\n      pop\n      pop\n      jump\t// out\n        /* \"#utility.yul\":8703:8802   */\n    tag_170:\n        /* \"#utility.yul\":8755:8761   */\n      0x00\n        /* \"#utility.yul\":8789:8794   */\n      dup2\n        /* \"#utility.yul\":8783:8795   */\n      mload\n        /* \"#utility.yul\":8773:8795   */\n      swap1\n      pop\n        /* \"#utility.yul\":8703:8802   */\n      swap2\n      swap1\n      pop\n      jump\t// out\n        /* \"#utility.yul\":8808:8967   */\n    tag_172:\n        /* \"#utility.yul\":8882:8893   */\n      0x00\n        /* \"#utility.yul\":8916:8922   */\n      dup3\n        /* \"#utility.yul\":8911:8914   */\n      dup3\n        /* \"#utility.yul\":8904:8923   */\n      mstore\n        /* \"#utility.yul\":8956:8960   */\n      0x20\n        /* \"#utility.yul\":8951:8954   */\n      dup3\n        /* \"#utility.yul\":8947:8961   */\n      add\n        /* \"#utility.yul\":8932:8961   */\n      swap1\n      pop\n        /* \"#utility.yul\":8808:8967   */\n      swap3\n      swap2\n      pop\n      pop\n      jump\t// out\n        /* \"#utility.yul\":8973:9142   */\n    tag_180:\n        /* \"#utility.yul\":9057:9068   */\n      0x00\n        /* \"#utility.yul\":9091:9097   */\n      dup3\n        /* \"#utility.yul\":9086:9089   */\n      dup3\n        /* \"#utility.yul\":9079:9098   */\n      mstore\n        /* \"#utility.yul\":9131:9135   */\n      0x20\n        /* \"#utility.yul\":9126:9129   */\n      dup3\n        /* \"#utility.yul\":9122:9136   */\n      add\n        /* \"#utility.yul\":9107:9136   */\n      swap1\n      pop\n        /* \"#utility.yul\":8973:9142   */\n      swap3\n      swap2\n      pop\n      pop\n      jump\t// out\n        /* \"#utility.yul\":9148:9673   */\n    tag_138:\n        /* \"#utility.yul\":9187:9190   */\n      0x00\n        /* \"#utility.yul\":9206:9225   */\n      tag_244\n        /* \"#utility.yul\":9223:9224   */\n      dup3\n        /* \"#utility.yul\":9206:9225   */\n      tag_245\n      jump\t// in\n    tag_244:\n        /* \"#utility.yul\":9201:9225   */\n      swap2\n      pop\n        /* \"#utility.yul\":9239:9258   */\n      tag_246\n        /* \"#utility.yul\":9256:9257   */\n      dup4\n        /* \"#utility.yul\":9239:9258   */\n      tag_245\n      jump\t// in\n    tag_246:\n        /* \"#utility.yul\":9234:9258   */\n      swap3\n      pop\n        /* \"#utility.yul\":9427:9428   */\n      dup2\n        /* \"#utility.yul\":9359:9425   */\n      0x7fffffffffffffffffffffffffffffffffffffffffffffffffffffffffffffff\n        /* \"#utility.yul\":9355:9429   */\n      sub\n        /* \"#utility.yul\":9352:9353   */\n      dup4\n        /* \"#utility.yul\":9348:9430   */\n      sgt\n        /* \"#utility.yul\":9343:9344   */\n      0x00\n        /* \"#utility.yul\":9340:9341   */\n      dup4\n        /* \"#utility.yul\":9336:9345   */\n      slt\n        /* \"#utility.yul\":9329:9346   */\n      iszero\n        /* \"#utility.yul\":9325:9431   */\n      and\n        /* \"#utility.yul\":9322:9454   */\n      iszero\n      tag_247\n      jumpi\n        /* \"#utility.yul\":9434:9452   */\n      tag_248\n      tag_249\n      jump\t// in\n    tag_248:\n        /* \"#utility.yul\":9322:9454   */\n    tag_247:\n        /* \"#utility.yul\":9614:9615   */\n      dup2\n        /* \"#utility.yul\":9546:9612   */\n      0x8000000000000000000000000000000000000000000000000000000000000000\n        /* \"#utility.yul\":9542:9616   */\n      sub\n        /* \"#utility.yul\":9539:9540   */\n      dup4\n        /* \"#utility.yul\":9535:9617   */\n      slt\n        /* \"#utility.yul\":9531:9532   */\n      0x00\n        /* \"#utility.yul\":9528:9529   */\n      dup4\n        /* \"#utility.yul\":9524:9533   */\n      slt\n        /* \"#utility.yul\":9520:9618   */\n      and\n        /* \"#utility.yul\":9517:9641   */\n      iszero\n      tag_250\n      jumpi\n        /* \"#utility.yul\":9621:9639   */\n      tag_251\n      tag_249\n      jump\t// in\n    tag_251:\n        /* \"#utility.yul\":9517:9641   */\n    tag_250:\n        /* \"#utility.yul\":9665:9666   */\n      dup3\n        /* \"#utility.yul\":9662:9663   */\n      dup3\n        /* \"#utility.yul\":9658:9667   */\n      add\n        /* \"#utility.yul\":9651:9667   */\n      swap1\n      pop\n        /* \"#utility.yul\":9148:9673   */\n      swap3\n      swap2\n      pop\n      pop\n      jump\t// out\n        /* \"#utility.yul\":9679:9984   */\n    tag_47:\n        /* \"#utility.yul\":9719:9722   */\n      0x00\n        /* \"#utility.yul\":9738:9758   */\n      tag_253\n        /* \"#utility.yul\":9756:9757   */\n      dup3\n        /* \"#utility.yul\":9738:9758   */\n      tag_210\n      jump\t// in\n    tag_253:\n        /* \"#utility.yul\":9733:9758   */\n      swap2\n      pop\n        /* \"#utility.yul\":9772:9792   */\n      tag_254\n        /* \"#utility.yul\":9790:9791   */\n      dup4\n        /* \"#utility.yul\":9772:9792   */\n      tag_210\n      jump\t// in\n    tag_254:\n        /* \"#utility.yul\":9767:9792   */\n      swap3\n      pop\n        /* \"#utility.yul\":9926:9927   */\n      dup3\n        /* \"#utility.yul\":9858:9924   */\n      0xffffffffffffffffffffffffffffffffffffffffffffffffffffffffffffffff\n        /* \"#utility.yul\":9854:9928   */\n      sub\n        /* \"#utility.yul\":9851:9852   */\n      dup3\n        /* \"#utility.yul\":9848:9929   */\n      gt\n        /* \"#utility.yul\":9845:9952   */\n      iszero\n      tag_255\n      jumpi\n        /* \"#utility.yul\":9932:9950   */\n      tag_256\n      tag_249\n      jump\t// in\n    tag_256:\n        /* \"#utility.yul\":9845:9952   */\n    tag_255:\n        /* \"#utility.yul\":9976:9977   */\n      dup3\n        /* \"#utility.yul\":9973:9974   */\n      dup3\n        /* \"#utility.yul\":9969:9978   */\n      add\n        /* \"#utility.yul\":9962:9978   */\n      swap1\n      pop\n        /* \"#utility.yul\":9679:9984   */\n      swap3\n      swap2\n      pop\n      pop\n      jump\t// out\n        /* \"#utility.yul\":9990:10086   */\n    tag_161:\n        /* \"#utility.yul\":10027:10034   */\n      0x00\n        /* \"#utility.yul\":10056:10080   */\n      tag_258\n        /* \"#utility.yul\":10074:10079   */\n      dup3\n        /* \"#utility.yul\":10056:10080   */\n      tag_259\n      jump\t// in\n    tag_258:\n        /* \"#utility.yul\":10045:10080   */\n      swap1\n      pop\n        /* \"#utility.yul\":9990:10086   */\n      swap2\n      swap1\n      pop\n      jump\t// out\n        /* \"#utility.yul\":10092:10182   */\n    tag_166:\n        /* \"#utility.yul\":10126:10133   */\n      0x00\n        /* \"#utility.yul\":10169:10174   */\n      dup2\n        /* \"#utility.yul\":10162:10175   */\n      iszero\n        /* \"#utility.yul\":10155:10176   */\n      iszero\n        /* \"#utility.yul\":10144:10176   */\n      swap1\n      pop\n        /* \"#utility.yul\":10092:10182   */\n      swap2\n      swap1\n      pop\n      jump\t// out\n        /* \"#utility.yul\":10188:10264   */\n    tag_245:\n        /* \"#utility.yul\":10224:10231   */\n      0x00\n        /* \"#utility.yul\":10253:10258   */\n      dup2\n        /* \"#utility.yul\":10242:10258   */\n      swap1\n      pop\n        /* \"#utility.yul\":10188:10264   */\n      swap2\n      swap1\n      pop\n      jump\t// out\n        /* \"#utility.yul\":10270:10396   */\n    tag_259:\n        /* \"#utility.yul\":10307:10314   */\n      0x00\n        /* \"#utility.yul\":10347:10389   */\n      0xffffffffffffffffffffffffffffffffffffffff\n        /* \"#utility.yul\":10340:10345   */\n      dup3\n        /* \"#utility.yul\":10336:10390   */\n      and\n        /* \"#utility.yul\":10325:10390   */\n      swap1\n      pop\n        /* \"#utility.yul\":10270:10396   */\n      swap2\n      swap1\n      pop\n      jump\t// out\n        /* \"#utility.yul\":10402:10479   */\n    tag_210:\n        /* \"#utility.yul\":10439:10446   */\n      0x00\n        /* \"#utility.yul\":10468:10473   */\n      dup2\n        /* \"#utility.yul\":10457:10473   */\n      swap1\n      pop\n        /* \"#utility.yul\":10402:10479   */\n      swap2\n      swap1\n      pop\n      jump\t// out\n        /* \"#utility.yul\":10485:10792   */\n    tag_174:\n        /* \"#utility.yul\":10553:10554   */\n      0x00\n        /* \"#utility.yul\":10563:10676   */\n    tag_265:\n        /* \"#utility.yul\":10577:10583   */\n      dup4\n        /* \"#utility.yul\":10574:10575   */\n      dup2\n        /* \"#utility.yul\":10571:10584   */\n      lt\n        /* \"#utility.yul\":10563:10676   */\n      iszero\n      tag_267\n      jumpi\n        /* \"#utility.yul\":10662:10663   */\n      dup1\n        /* \"#utility.yul\":10657:10660   */\n      dup3\n        /* \"#utility.yul\":10653:10664   */\n      add\n        /* \"#utility.yul\":10647:10665   */\n      mload\n        /* \"#utility.yul\":10643:10644   */\n      dup2\n        /* \"#utility.yul\":10638:10641   */\n      dup5\n        /* \"#utility.yul\":10634:10645   */\n      add\n        /* \"#utility.yul\":10627:10666   */\n      mstore\n        /* \"#utility.yul\":10599:10601   */\n      0x20\n        /* \"#utility.yul\":10596:10597   */\n      dup2\n        /* \"#utility.yul\":10592:10602   */\n      add\n        /* \"#utility.yul\":10587:10602   */\n      swap1\n      pop\n        /* \"#utility.yul\":10563:10676   */\n      jump(tag_265)\n    tag_267:\n        /* \"#utility.yul\":10694:10700   */\n      dup4\n        /* \"#utility.yul\":10691:10692   */\n      dup2\n        /* \"#utility.yul\":10688:10701   */\n      gt\n        /* \"#utility.yul\":10685:10786   */\n      iszero\n      tag_268\n      jumpi\n        /* \"#utility.yul\":10774:10775   */\n      0x00\n        /* \"#utility.yul\":10765:10771   */\n      dup5\n        /* \"#utility.yul\":10760:10763   */\n      dup5\n        /* \"#utility.yul\":10756:10772   */\n      add\n        /* \"#utility.yul\":10749:10776   */\n      mstore\n        /* \"#utility.yul\":10685:10786   */\n    tag_268:\n        /* \"#utility.yul\":10534:10792   */\n      pop\n        /* \"#utility.yul\":10485:10792   */\n      pop\n      pop\n      pop\n      jump\t// out\n        /* \"#utility.yul\":10798:11118   */\n    tag_128:\n        /* \"#utility.yul\":10842:10848   */\n      0x00\n        /* \"#utility.yul\":10879:10880   */\n      0x02\n        /* \"#utility.yul\":10873:10877   */\n      dup3\n        /* \"#utility.yul\":10869:10881   */\n      div\n        /* \"#utility.yul\":10859:10881   */\n      swap1\n      pop\n        /* \"#utility.yul\":10926:10927   */\n      0x01\n        /* \"#utility.yul\":10920:10924   */\n      dup3\n        /* \"#utility.yul\":10916:10928   */\n      and\n        /* \"#utility.yul\":10947:10965   */\n      dup1\n        /* \"#utility.yul\":10937:11018   */\n      tag_270\n      jumpi\n        /* \"#utility.yul\":11003:11007   */\n      0x7f\n        /* \"#utility.yul\":10995:11001   */\n      dup3\n        /* \"#utility.yul\":10991:11008   */\n      and\n        /* \"#utility.yul\":10981:11008   */\n      swap2\n      pop\n        /* \"#utility.yul\":10937:11018   */\n    tag_270:\n        /* \"#utility.yul\":11065:11067   */\n      0x20\n        /* \"#utility.yul\":11057:11063   */\n      dup3\n        /* \"#utility.yul\":11054:11068   */\n      lt\n        /* \"#utility.yul\":11034:11052   */\n      dup2\n        /* \"#utility.yul\":11031:11069   */\n      eq\n        /* \"#utility.yul\":11028:11112   */\n      iszero\n      tag_271\n      jumpi\n        /* \"#utility.yul\":11084:11102   */\n      tag_272\n      tag_273\n      jump\t// in\n    tag_272:\n        /* \"#utility.yul\":11028:11112   */\n    tag_271:\n        /* \"#utility.yul\":10849:11118   */\n      pop\n        /* \"#utility.yul\":10798:11118   */\n      swap2\n      swap1\n      pop\n      jump\t// out\n        /* \"#utility.yul\":11124:11224   */\n    tag_162:\n        /* \"#utility.yul\":11163:11170   */\n      0x00\n        /* \"#utility.yul\":11192:11218   */\n      tag_275\n        /* \"#utility.yul\":11212:11217   */\n      dup3\n        /* \"#utility.yul\":11192:11218   */\n      tag_276\n      jump\t// in\n    tag_275:\n        /* \"#utility.yul\":11181:11218   */\n      swap1\n      pop\n        /* \"#utility.yul\":11124:11224   */\n      swap2\n      swap1\n      pop\n      jump\t// out\n        /* \"#utility.yul\":11230:11324   */\n    tag_276:\n        /* \"#utility.yul\":11269:11276   */\n      0x00\n        /* \"#utility.yul\":11298:11318   */\n      tag_278\n        /* \"#utility.yul\":11312:11317   */\n      dup3\n        /* \"#utility.yul\":11298:11318   */\n      tag_279\n      jump\t// in\n    tag_278:\n        /* \"#utility.yul\":11287:11318   */\n      swap1\n      pop\n        /* \"#utility.yul\":11230:11324   */\n      swap2\n      swap1\n      pop\n      jump\t// out\n        /* \"#utility.yul\":11330:11409   */\n    tag_218:\n        /* \"#utility.yul\":11369:11376   */\n      0x00\n        /* \"#utility.yul\":11398:11403   */\n      dup2\n        /* \"#utility.yul\":11387:11403   */\n      swap1\n      pop\n        /* \"#utility.yul\":11330:11409   */\n      swap2\n      swap1\n      pop\n      jump\t// out\n        /* \"#utility.yul\":11415:11591   */\n    tag_120:\n        /* \"#utility.yul\":11447:11448   */\n      0x00\n        /* \"#utility.yul\":11464:11484   */\n      tag_282\n        /* \"#utility.yul\":11482:11483   */\n      dup3\n        /* \"#utility.yul\":11464:11484   */\n      tag_210\n      jump\t// in\n    tag_282:\n        /* \"#utility.yul\":11459:11484   */\n      swap2\n      pop\n        /* \"#utility.yul\":11498:11518   */\n      tag_283\n        /* \"#utility.yul\":11516:11517   */\n      dup4\n        /* \"#utility.yul\":11498:11518   */\n      tag_210\n      jump\t// in\n    tag_283:\n        /* \"#utility.yul\":11493:11518   */\n      swap3\n      pop\n        /* \"#utility.yul\":11537:11538   */\n      dup3\n        /* \"#utility.yul\":11527:11562   */\n      tag_284\n      jumpi\n        /* \"#utility.yul\":11542:11560   */\n      tag_285\n      tag_286\n      jump\t// in\n    tag_285:\n        /* \"#utility.yul\":11527:11562   */\n    tag_284:\n        /* \"#utility.yul\":11583:11584   */\n      dup3\n        /* \"#utility.yul\":11580:11581   */\n      dup3\n        /* \"#utility.yul\":11576:11585   */\n      mod\n        /* \"#utility.yul\":11571:11585   */\n      swap1\n      pop\n        /* \"#utility.yul\":11415:11591   */\n      swap3\n      swap2\n      pop\n      pop\n      jump\t// out\n        /* \"#utility.yul\":11597:11777   */\n    tag_249:\n        /* \"#utility.yul\":11645:11722   */\n      0x4e487b7100000000000000000000000000000000000000000000000000000000\n        /* \"#utility.yul\":11642:11643   */\n      0x00\n        /* \"#utility.yul\":11635:11723   */\n      mstore\n        /* \"#utility.yul\":11742:11746   */\n      0x11\n        /* \"#utility.yul\":11739:11740   */\n      0x04\n        /* \"#utility.yul\":11732:11747   */\n      mstore\n        /* \"#utility.yul\":11766:11770   */\n      0x24\n        /* \"#utility.yul\":11763:11764   */\n      0x00\n        /* \"#utility.yul\":11756:11771   */\n      revert\n        /* \"#utility.yul\":11783:11963   */\n    tag_286:\n        /* \"#utility.yul\":11831:11908   */\n      0x4e487b7100000000000000000000000000000000000000000000000000000000\n        /* \"#utility.yul\":11828:11829   */\n      0x00\n        /* \"#utility.yul\":11821:11909   */\n      mstore\n        /* \"#utility.yul\":11928:11932   */\n      0x12\n        /* \"#utility.yul\":11925:11926   */\n      0x04\n        /* \"#utility.yul\":11918:11933   */\n      mstore\n        /* \"#utility.yul\":11952:11956   */\n      0x24\n        /* \"#utility.yul\":11949:11950   */\n      0x00\n        /* \"#utility.yul\":11942:11957   */\n      revert\n        /* \"#utility.yul\":11969:12149   */\n    tag_273:\n        /* \"#utility.yul\":12017:12094   */\n      0x4e487b7100000000000000000000000000000000000000000000000000000000\n        /* \"#utility.yul\":12014:12015   */\n      0x00\n        /* \"#utility.yul\":12007:12095   */\n      mstore\n        /* \"#utility.yul\":12114:12118   */\n      0x22\n        /* \"#utility.yul\":12111:12112   */\n      0x04\n        /* \"#utility.yul\":12104:12119   */\n      mstore\n        /* \"#utility.yul\":12138:12142   */\n      0x24\n        /* \"#utility.yul\":12135:12136   */\n      0x00\n        /* \"#utility.yul\":12128:12143   */\n      revert\n        /* \"#utility.yul\":12155:12335   */\n    tag_44:\n        /* \"#utility.yul\":12203:12280   */\n      0x4e487b7100000000000000000000000000000000000000000000000000000000\n        /* \"#utility.yul\":12200:12201   */\n      0x00\n        /* \"#utility.yul\":12193:12281   */\n      mstore\n        /* \"#utility.yul\":12300:12304   */\n      0x32\n        /* \"#utility.yul\":12297:12298   */\n      0x04\n        /* \"#utility.yul\":12290:12305   */\n      mstore\n        /* \"#utility.yul\":12324:12328   */\n      0x24\n        /* \"#utility.yul\":12321:12322   */\n      0x00\n        /* \"#utility.yul\":12314:12329   */\n      revert\n        /* \"#utility.yul\":12464:12581   */\n    tag_151:\n        /* \"#utility.yul\":12573:12574   */\n      0x00\n        /* \"#utility.yul\":12570:12571   */\n      dup1\n        /* \"#utility.yul\":12563:12575   */\n      revert\n        /* \"#utility.yul\":12587:12689   */\n    tag_176:\n        /* \"#utility.yul\":12628:12634   */\n      0x00\n        /* \"#utility.yul\":12679:12681   */\n      0x1f\n        /* \"#utility.yul\":12675:12682   */\n      not\n        /* \"#utility.yul\":12670:12672   */\n      0x1f\n        /* \"#utility.yul\":12663:12668   */\n      dup4\n        /* \"#utility.yul\":12659:12673   */\n      add\n        /* \"#utility.yul\":12655:12683   */\n      and\n        /* \"#utility.yul\":12645:12683   */\n      swap1\n      pop\n        /* \"#utility.yul\":12587:12689   */\n      swap2\n      swap1\n      pop\n      jump\t// out\n        /* \"#utility.yul\":12695:12789   */\n    tag_279:\n        /* \"#utility.yul\":12728:12736   */\n      0x00\n        /* \"#utility.yul\":12776:12781   */\n      dup2\n        /* \"#utility.yul\":12772:12774   */\n      0x60\n        /* \"#utility.yul\":12768:12782   */\n      shl\n        /* \"#utility.yul\":12747:12782   */\n      swap1\n      pop\n        /* \"#utility.yul\":12695:12789   */\n      swap2\n      swap1\n      pop\n      jump\t// out\n        /* \"#utility.yul\":12795:12959   */\n    tag_182:\n        /* \"#utility.yul\":12935:12951   */\n      0x416c726561647920766f7465642e000000000000000000000000000000000000\n        /* \"#utility.yul\":12931:12932   */\n      0x00\n        /* \"#utility.yul\":12923:12929   */\n      dup3\n        /* \"#utility.yul\":12919:12933   */\n      add\n        /* \"#utility.yul\":12912:12952   */\n      mstore\n        /* \"#utility.yul\":12795:12959   */\n      pop\n      jump\t// out\n        /* \"#utility.yul\":12965:13139   */\n    tag_187:\n        /* \"#utility.yul\":13105:13131   */\n      0x54686520766f74657220616c726561647920766f7465642e0000000000000000\n        /* \"#utility.yul\":13101:13102   */\n      0x00\n        /* \"#utility.yul\":13093:13099   */\n      dup3\n        /* \"#utility.yul\":13089:13103   */\n      add\n        /* \"#utility.yul\":13082:13132   */\n      mstore\n        /* \"#utility.yul\":12965:13139   */\n      pop\n      jump\t// out\n        /* \"#utility.yul\":13145:13314   */\n    tag_192:\n        /* \"#utility.yul\":13285:13306   */\n      0x52656163686564206d617820766f746572732e00000000000000000000000000\n        /* \"#utility.yul\":13281:13282   */\n      0x00\n        /* \"#utility.yul\":13273:13279   */\n      dup3\n        /* \"#utility.yul\":13269:13283   */\n      add\n        /* \"#utility.yul\":13262:13307   */\n      mstore\n        /* \"#utility.yul\":13145:13314   */\n      pop\n      jump\t// out\n        /* \"#utility.yul\":13320:13442   */\n    tag_143:\n        /* \"#utility.yul\":13393:13417   */\n      tag_300\n        /* \"#utility.yul\":13411:13416   */\n      dup2\n        /* \"#utility.yul\":13393:13417   */\n      tag_161\n      jump\t// in\n    tag_300:\n        /* \"#utility.yul\":13386:13391   */\n      dup2\n        /* \"#utility.yul\":13383:13418   */\n      eq\n        /* \"#utility.yul\":13373:13436   */\n      tag_301\n      jumpi\n        /* \"#utility.yul\":13432:13433   */\n      0x00\n        /* \"#utility.yul\":13429:13430   */\n      dup1\n        /* \"#utility.yul\":13422:13434   */\n      revert\n        /* \"#utility.yul\":13373:13436   */\n    tag_301:\n        /* \"#utility.yul\":13320:13442   */\n      pop\n      jump\t// out\n        /* \"#utility.yul\":13448:13570   */\n    tag_147:\n        /* \"#utility.yul\":13521:13545   */\n      tag_303\n        /* \"#utility.yul\":13539:13544   */\n      dup2\n        /* \"#utility.yul\":13521:13545   */\n      tag_210\n      jump\t// in\n    tag_303:\n        /* \"#utility.yul\":13514:13519   */\n      dup2\n        /* \"#utility.yul\":13511:13546   */\n      eq\n        /* \"#utility.yul\":13501:13564   */\n      tag_304\n      jumpi\n        /* \"#utility.yul\":13560:13561   */\n      0x00\n        /* \"#utility.yul\":13557:13558   */\n      dup1\n        /* \"#utility.yul\":13550:13562   */\n      revert\n        /* \"#utility.yul\":13501:13564   */\n    tag_304:\n        /* \"#utility.yul\":13448:13570   */\n      pop\n      jump\t// out\n\n    auxdata: 0xa2646970667358221220ab042e0f585de397de2001c162efab60db3104e6660dfe6696a385d697aef96564736f6c63430008070033\n}\n",
				"bytecode": {
					"linkReferences": {},
					"object": "6080604052600060035560006004553480156200001b57600080fd5b50336000806101000a81548173ffffffffffffffffffffffffffffffffffffffff021916908373ffffffffffffffffffffffffffffffffffffffff16021790555060018060008060009054906101000a900473ffffffffffffffffffffffffffffffffffffffff1673ffffffffffffffffffffffffffffffffffffffff1673ffffffffffffffffffffffffffffffffffffffff1681526020019081526020016000206000018190555060006040518060a001604052806040518060400160405280600181526020017f610000000000000000000000000000000000000000000000000000000000000081525081526020016040518060400160405280600181526020017f620000000000000000000000000000000000000000000000000000000000000081525081526020016040518060400160405280600181526020017f630000000000000000000000000000000000000000000000000000000000000081525081526020016040518060400160405280600181526020017f640000000000000000000000000000000000000000000000000000000000000081525081526020016040518060400160405280600181526020017f65000000000000000000000000000000000000000000000000000000000000008152508152509050600580146200023e576040517f08c379a0000000000000000000000000000000000000000000000000000000008152600401620002359062000475565b60405180910390fd5b60005b6005811015620003965760026040518061018001604052808484600581106200026f576200026e62000594565b5b6020020151815260200160008152602001600081526020016000815260200160008152602001600081526020016000815260200160008152602001600081526020016000815260200160008152602001600081525090806001815401808255809150506001900390600052602060002090600c020160009091909190915060008201518160000190805190602001906200030b9291906200039e565b506020820151816001015560408201518160020155606082015181600301556080820151816004015560a0820151816005015560c0820151816006015560e082015181600701556101008201518160080155610120820151816009015561014082015181600a015561016082015181600b0155505080806200038d90620004e8565b91505062000241565b5050620005ec565b828054620003ac90620004b2565b90600052602060002090601f016020900481019282620003d057600085556200041c565b82601f10620003eb57805160ff19168380011785556200041c565b828001600101855582156200041c579182015b828111156200041b578251825591602001919060010190620003fe565b5b5090506200042b91906200042f565b5090565b5b808211156200044a57600081600090555060010162000430565b5090565b60006200045d60158362000497565b91506200046a82620005c3565b602082019050919050565b6000602082019050818103600083015262000490816200044e565b9050919050565b600082825260208201905092915050565b6000819050919050565b60006002820490506001821680620004cb57607f821691505b60208210811415620004e257620004e162000565565b5b50919050565b6000620004f582620004a8565b91507fffffffffffffffffffffffffffffffffffffffffffffffffffffffffffffffff8214156200052b576200052a62000536565b5b600182019050919050565b7f4e487b7100000000000000000000000000000000000000000000000000000000600052601160045260246000fd5b7f4e487b7100000000000000000000000000000000000000000000000000000000600052602260045260246000fd5b7f4e487b7100000000000000000000000000000000000000000000000000000000600052603260045260246000fd5b7f43616e64696461746573206d75737420626520352e0000000000000000000000600082015250565b61112380620005fc6000396000f3fe608060405234801561001057600080fd5b506004361061004c5760003560e01c8063632a9a5214610051578063a3ec138d1461005b578063cfa1f0371461008e578063d4e8fd2e146100ac575b600080fd5b6100596100dc565b005b610075600480360381019061007091906109be565b61071b565b6040516100859493929190610cf3565b60405180910390f35b610096610758565b6040516100a39190610cd8565b60405180910390f35b6100c660048036038101906100c191906109eb565b610799565b6040516100d39190610cb6565b60405180910390f35b600160003373ffffffffffffffffffffffffffffffffffffffff1673ffffffffffffffffffffffffffffffffffffffff16815260200190815260200160002060010160009054906101000a900460ff161561016c576040517f08c379a000000000000000000000000000000000000000000000000000000000815260040161016390610c76565b60405180910390fd5b6000600160003373ffffffffffffffffffffffffffffffffffffffff1673ffffffffffffffffffffffffffffffffffffffff16815260200190815260200160002060000154146101bb57600080fd5b60018060003373ffffffffffffffffffffffffffffffffffffffff1673ffffffffffffffffffffffffffffffffffffffff1681526020019081526020016000206000018190555060646003541315610248576040517f08c379a000000000000000000000000000000000000000000000000000000000815260040161023f90610c96565b60405180910390fd5b6102506108d6565b600160003373ffffffffffffffffffffffffffffffffffffffff1673ffffffffffffffffffffffffffffffffffffffff168152602001908152602001600020600201819055506000600160003373ffffffffffffffffffffffffffffffffffffffff1673ffffffffffffffffffffffffffffffffffffffff16815260200190815260200160002090508060010160009054906101000a900460ff161561032b576040517f08c379a000000000000000000000000000000000000000000000000000000000815260040161032290610c56565b60405180910390fd5b60018160010160006101000a81548160ff021916908315150217905550610350610758565b8160030181905550610360610917565b8060000154600261036f610758565b815481106103805761037f610ff2565b5b90600052602060002090600c020160010160008282546103a09190610df9565b9250508190555060008160020154141561040057806000015460026103c3610758565b815481106103d4576103d3610ff2565b5b90600052602060002090600c020160020160008282546103f49190610df9565b92505081905550610718565b600181600201541415610459578060000154600261041c610758565b8154811061042d5761042c610ff2565b5b90600052602060002090600c0201600301600082825461044d9190610df9565b92505081905550610717565b6002816002015414156104b25780600001546002610475610758565b8154811061048657610485610ff2565b5b90600052602060002090600c020160040160008282546104a69190610df9565b92505081905550610716565b60038160020154141561050b57806000015460026104ce610758565b815481106104df576104de610ff2565b5b90600052602060002090600c020160050160008282546104ff9190610df9565b92505081905550610715565b6004816002015414156105645780600001546002610527610758565b8154811061053857610537610ff2565b5b90600052602060002090600c020160060160008282546105589190610df9565b92505081905550610714565b6005816002015414156105bd5780600001546002610580610758565b8154811061059157610590610ff2565b5b90600052602060002090600c020160070160008282546105b19190610df9565b92505081905550610713565b60068160020154141561061657806000015460026105d9610758565b815481106105ea576105e9610ff2565b5b90600052602060002090600c0201600801600082825461060a9190610df9565b92505081905550610712565b60078160020154141561066f5780600001546002610632610758565b8154811061064357610642610ff2565b5b90600052602060002090600c020160090160008282546106639190610df9565b92505081905550610711565b6008816002015414156106c8578060000154600261068b610758565b8154811061069c5761069b610ff2565b5b90600052602060002090600c0201600a0160008282546106bc9190610df9565b92505081905550610710565b806000015460026106d7610758565b815481106106e8576106e7610ff2565b5b90600052602060002090600c0201600b0160008282546107089190610df9565b925050819055505b5b5b5b5b5b5b5b5b50565b60016020528060005260406000206000915090508060000154908060010160009054906101000a900460ff16908060020154908060030154905084565b6000600542443360405160200161077193929190610c19565b6040516020818303038152906040528051906020012060001c6107949190610f34565b905090565b6107a1610933565b600282815481106107b5576107b4610ff2565b5b90600052602060002090600c0201604051806101800160405290816000820180546107df90610ed4565b80601f016020809104026020016040519081016040528092919081815260200182805461080b90610ed4565b80156108585780601f1061082d57610100808354040283529160200191610858565b820191906000526020600020905b81548152906001019060200180831161083b57829003601f168201915b50505050508152602001600182015481526020016002820154815260200160038201548152602001600482015481526020016005820154815260200160068201548152602001600782015481526020016008820154815260200160098201548152602001600a8201548152602001600b820154815250509050919050565b6000600a4244336040516020016108ef93929190610c19565b6040516020818303038152906040528051906020012060001c6109129190610f34565b905090565b60016003600082825461092a9190610d65565b92505081905550565b6040518061018001604052806060815260200160008152602001600081526020016000815260200160008152602001600081526020016000815260200160008152602001600081526020016000815260200160008152602001600081525090565b6000813590506109a3816110bf565b92915050565b6000813590506109b8816110d6565b92915050565b6000602082840312156109d4576109d3611021565b5b60006109e284828501610994565b91505092915050565b600060208284031215610a0157610a00611021565b5b6000610a0f848285016109a9565b91505092915050565b610a29610a2482610e4f565b610f06565b82525050565b610a3881610e61565b82525050565b6000610a4982610d38565b610a538185610d43565b9350610a63818560208601610ea1565b610a6c81611026565b840191505092915050565b6000610a84600e83610d54565b9150610a8f82611044565b602082019050919050565b6000610aa7601883610d54565b9150610ab28261106d565b602082019050919050565b6000610aca601383610d54565b9150610ad582611096565b602082019050919050565b6000610180830160008301518482036000860152610afe8282610a3e565b9150506020830151610b136020860182610be4565b506040830151610b266040860182610be4565b506060830151610b396060860182610be4565b506080830151610b4c6080860182610be4565b5060a0830151610b5f60a0860182610be4565b5060c0830151610b7260c0860182610be4565b5060e0830151610b8560e0860182610be4565b50610100830151610b9a610100860182610be4565b50610120830151610baf610120860182610be4565b50610140830151610bc4610140860182610be4565b50610160830151610bd9610160860182610be4565b508091505092915050565b610bed81610e97565b82525050565b610bfc81610e97565b82525050565b610c13610c0e82610e97565b610f2a565b82525050565b6000610c258286610c02565b602082019150610c358285610c02565b602082019150610c458284610a18565b601482019150819050949350505050565b60006020820190508181036000830152610c6f81610a77565b9050919050565b60006020820190508181036000830152610c8f81610a9a565b9050919050565b60006020820190508181036000830152610caf81610abd565b9050919050565b60006020820190508181036000830152610cd08184610ae0565b905092915050565b6000602082019050610ced6000830184610bf3565b92915050565b6000608082019050610d086000830187610bf3565b610d156020830186610a2f565b610d226040830185610bf3565b610d2f6060830184610bf3565b95945050505050565b600081519050919050565b600082825260208201905092915050565b600082825260208201905092915050565b6000610d7082610e6d565b9150610d7b83610e6d565b9250817f7fffffffffffffffffffffffffffffffffffffffffffffffffffffffffffffff03831360008312151615610db657610db5610f65565b5b817f8000000000000000000000000000000000000000000000000000000000000000038312600083121615610dee57610ded610f65565b5b828201905092915050565b6000610e0482610e97565b9150610e0f83610e97565b9250827fffffffffffffffffffffffffffffffffffffffffffffffffffffffffffffffff03821115610e4457610e43610f65565b5b828201905092915050565b6000610e5a82610e77565b9050919050565b60008115159050919050565b6000819050919050565b600073ffffffffffffffffffffffffffffffffffffffff82169050919050565b6000819050919050565b60005b83811015610ebf578082015181840152602081019050610ea4565b83811115610ece576000848401525b50505050565b60006002820490506001821680610eec57607f821691505b60208210811415610f0057610eff610fc3565b5b50919050565b6000610f1182610f18565b9050919050565b6000610f2382611037565b9050919050565b6000819050919050565b6000610f3f82610e97565b9150610f4a83610e97565b925082610f5a57610f59610f94565b5b828206905092915050565b7f4e487b7100000000000000000000000000000000000000000000000000000000600052601160045260246000fd5b7f4e487b7100000000000000000000000000000000000000000000000000000000600052601260045260246000fd5b7f4e487b7100000000000000000000000000000000000000000000000000000000600052602260045260246000fd5b7f4e487b7100000000000000000000000000000000000000000000000000000000600052603260045260246000fd5b600080fd5b6000601f19601f8301169050919050565b60008160601b9050919050565b7f416c726561647920766f7465642e000000000000000000000000000000000000600082015250565b7f54686520766f74657220616c726561647920766f7465642e0000000000000000600082015250565b7f52656163686564206d617820766f746572732e00000000000000000000000000600082015250565b6110c881610e4f565b81146110d357600080fd5b50565b6110df81610e97565b81146110ea57600080fd5b5056fea2646970667358221220ab042e0f585de397de2001c162efab60db3104e6660dfe6696a385d697aef96564736f6c63430008070033",
					"opcodes": "PUSH1 0x80 PUSH1 0x40 MSTORE PUSH1 0x0 PUSH1 0x3 SSTORE PUSH1 0x0 PUSH1 0x4 SSTORE CALLVALUE DUP1 ISZERO PUSH3 0x1B JUMPI PUSH1 0x0 DUP1 REVERT JUMPDEST POP CALLER PUSH1 0x0 DUP1 PUSH2 0x100 EXP DUP2 SLOAD DUP2 PUSH20 0xFFFFFFFFFFFFFFFFFFFFFFFFFFFFFFFFFFFFFFFF MUL NOT AND SWAP1 DUP4 PUSH20 0xFFFFFFFFFFFFFFFFFFFFFFFFFFFFFFFFFFFFFFFF AND MUL OR SWAP1 SSTORE POP PUSH1 0x1 DUP1 PUSH1 0x0 DUP1 PUSH1 0x0 SWAP1 SLOAD SWAP1 PUSH2 0x100 EXP SWAP1 DIV PUSH20 0xFFFFFFFFFFFFFFFFFFFFFFFFFFFFFFFFFFFFFFFF AND PUSH20 0xFFFFFFFFFFFFFFFFFFFFFFFFFFFFFFFFFFFFFFFF AND PUSH20 0xFFFFFFFFFFFFFFFFFFFFFFFFFFFFFFFFFFFFFFFF AND DUP2 MSTORE PUSH1 0x20 ADD SWAP1 DUP2 MSTORE PUSH1 0x20 ADD PUSH1 0x0 KECCAK256 PUSH1 0x0 ADD DUP2 SWAP1 SSTORE POP PUSH1 0x0 PUSH1 0x40 MLOAD DUP1 PUSH1 0xA0 ADD PUSH1 0x40 MSTORE DUP1 PUSH1 0x40 MLOAD DUP1 PUSH1 0x40 ADD PUSH1 0x40 MSTORE DUP1 PUSH1 0x1 DUP2 MSTORE PUSH1 0x20 ADD PUSH32 0x6100000000000000000000000000000000000000000000000000000000000000 DUP2 MSTORE POP DUP2 MSTORE PUSH1 0x20 ADD PUSH1 0x40 MLOAD DUP1 PUSH1 0x40 ADD PUSH1 0x40 MSTORE DUP1 PUSH1 0x1 DUP2 MSTORE PUSH1 0x20 ADD PUSH32 0x6200000000000000000000000000000000000000000000000000000000000000 DUP2 MSTORE POP DUP2 MSTORE PUSH1 0x20 ADD PUSH1 0x40 MLOAD DUP1 PUSH1 0x40 ADD PUSH1 0x40 MSTORE DUP1 PUSH1 0x1 DUP2 MSTORE PUSH1 0x20 ADD PUSH32 0x6300000000000000000000000000000000000000000000000000000000000000 DUP2 MSTORE POP DUP2 MSTORE PUSH1 0x20 ADD PUSH1 0x40 MLOAD DUP1 PUSH1 0x40 ADD PUSH1 0x40 MSTORE DUP1 PUSH1 0x1 DUP2 MSTORE PUSH1 0x20 ADD PUSH32 0x6400000000000000000000000000000000000000000000000000000000000000 DUP2 MSTORE POP DUP2 MSTORE PUSH1 0x20 ADD PUSH1 0x40 MLOAD DUP1 PUSH1 0x40 ADD PUSH1 0x40 MSTORE DUP1 PUSH1 0x1 DUP2 MSTORE PUSH1 0x20 ADD PUSH32 0x6500000000000000000000000000000000000000000000000000000000000000 DUP2 MSTORE POP DUP2 MSTORE POP SWAP1 POP PUSH1 0x5 DUP1 EQ PUSH3 0x23E JUMPI PUSH1 0x40 MLOAD PUSH32 0x8C379A000000000000000000000000000000000000000000000000000000000 DUP2 MSTORE PUSH1 0x4 ADD PUSH3 0x235 SWAP1 PUSH3 0x475 JUMP JUMPDEST PUSH1 0x40 MLOAD DUP1 SWAP2 SUB SWAP1 REVERT JUMPDEST PUSH1 0x0 JUMPDEST PUSH1 0x5 DUP2 LT ISZERO PUSH3 0x396 JUMPI PUSH1 0x2 PUSH1 0x40 MLOAD DUP1 PUSH2 0x180 ADD PUSH1 0x40 MSTORE DUP1 DUP5 DUP5 PUSH1 0x5 DUP2 LT PUSH3 0x26F JUMPI PUSH3 0x26E PUSH3 0x594 JUMP JUMPDEST JUMPDEST PUSH1 0x20 MUL ADD MLOAD DUP2 MSTORE PUSH1 0x20 ADD PUSH1 0x0 DUP2 MSTORE PUSH1 0x20 ADD PUSH1 0x0 DUP2 MSTORE PUSH1 0x20 ADD PUSH1 0x0 DUP2 MSTORE PUSH1 0x20 ADD PUSH1 0x0 DUP2 MSTORE PUSH1 0x20 ADD PUSH1 0x0 DUP2 MSTORE PUSH1 0x20 ADD PUSH1 0x0 DUP2 MSTORE PUSH1 0x20 ADD PUSH1 0x0 DUP2 MSTORE PUSH1 0x20 ADD PUSH1 0x0 DUP2 MSTORE PUSH1 0x20 ADD PUSH1 0x0 DUP2 MSTORE PUSH1 0x20 ADD PUSH1 0x0 DUP2 MSTORE PUSH1 0x20 ADD PUSH1 0x0 DUP2 MSTORE POP SWAP1 DUP1 PUSH1 0x1 DUP2 SLOAD ADD DUP1 DUP3 SSTORE DUP1 SWAP2 POP POP PUSH1 0x1 SWAP1 SUB SWAP1 PUSH1 0x0 MSTORE PUSH1 0x20 PUSH1 0x0 KECCAK256 SWAP1 PUSH1 0xC MUL ADD PUSH1 0x0 SWAP1 SWAP2 SWAP1 SWAP2 SWAP1 SWAP2 POP PUSH1 0x0 DUP3 ADD MLOAD DUP2 PUSH1 0x0 ADD SWAP1 DUP1 MLOAD SWAP1 PUSH1 0x20 ADD SWAP1 PUSH3 0x30B SWAP3 SWAP2 SWAP1 PUSH3 0x39E JUMP JUMPDEST POP PUSH1 0x20 DUP3 ADD MLOAD DUP2 PUSH1 0x1 ADD SSTORE PUSH1 0x40 DUP3 ADD MLOAD DUP2 PUSH1 0x2 ADD SSTORE PUSH1 0x60 DUP3 ADD MLOAD DUP2 PUSH1 0x3 ADD SSTORE PUSH1 0x80 DUP3 ADD MLOAD DUP2 PUSH1 0x4 ADD SSTORE PUSH1 0xA0 DUP3 ADD MLOAD DUP2 PUSH1 0x5 ADD SSTORE PUSH1 0xC0 DUP3 ADD MLOAD DUP2 PUSH1 0x6 ADD SSTORE PUSH1 0xE0 DUP3 ADD MLOAD DUP2 PUSH1 0x7 ADD SSTORE PUSH2 0x100 DUP3 ADD MLOAD DUP2 PUSH1 0x8 ADD SSTORE PUSH2 0x120 DUP3 ADD MLOAD DUP2 PUSH1 0x9 ADD SSTORE PUSH2 0x140 DUP3 ADD MLOAD DUP2 PUSH1 0xA ADD SSTORE PUSH2 0x160 DUP3 ADD MLOAD DUP2 PUSH1 0xB ADD SSTORE POP POP DUP1 DUP1 PUSH3 0x38D SWAP1 PUSH3 0x4E8 JUMP JUMPDEST SWAP2 POP POP PUSH3 0x241 JUMP JUMPDEST POP POP PUSH3 0x5EC JUMP JUMPDEST DUP3 DUP1 SLOAD PUSH3 0x3AC SWAP1 PUSH3 0x4B2 JUMP JUMPDEST SWAP1 PUSH1 0x0 MSTORE PUSH1 0x20 PUSH1 0x0 KECCAK256 SWAP1 PUSH1 0x1F ADD PUSH1 0x20 SWAP1 DIV DUP2 ADD SWAP3 DUP3 PUSH3 0x3D0 JUMPI PUSH1 0x0 DUP6 SSTORE PUSH3 0x41C JUMP JUMPDEST DUP3 PUSH1 0x1F LT PUSH3 0x3EB JUMPI DUP1 MLOAD PUSH1 0xFF NOT AND DUP4 DUP1 ADD OR DUP6 SSTORE PUSH3 0x41C JUMP JUMPDEST DUP3 DUP1 ADD PUSH1 0x1 ADD DUP6 SSTORE DUP3 ISZERO PUSH3 0x41C JUMPI SWAP2 DUP3 ADD JUMPDEST DUP3 DUP2 GT ISZERO PUSH3 0x41B JUMPI DUP3 MLOAD DUP3 SSTORE SWAP2 PUSH1 0x20 ADD SWAP2 SWAP1 PUSH1 0x1 ADD SWAP1 PUSH3 0x3FE JUMP JUMPDEST JUMPDEST POP SWAP1 POP PUSH3 0x42B SWAP2 SWAP1 PUSH3 0x42F JUMP JUMPDEST POP SWAP1 JUMP JUMPDEST JUMPDEST DUP1 DUP3 GT ISZERO PUSH3 0x44A JUMPI PUSH1 0x0 DUP2 PUSH1 0x0 SWAP1 SSTORE POP PUSH1 0x1 ADD PUSH3 0x430 JUMP JUMPDEST POP SWAP1 JUMP JUMPDEST PUSH1 0x0 PUSH3 0x45D PUSH1 0x15 DUP4 PUSH3 0x497 JUMP JUMPDEST SWAP2 POP PUSH3 0x46A DUP3 PUSH3 0x5C3 JUMP JUMPDEST PUSH1 0x20 DUP3 ADD SWAP1 POP SWAP2 SWAP1 POP JUMP JUMPDEST PUSH1 0x0 PUSH1 0x20 DUP3 ADD SWAP1 POP DUP2 DUP2 SUB PUSH1 0x0 DUP4 ADD MSTORE PUSH3 0x490 DUP2 PUSH3 0x44E JUMP JUMPDEST SWAP1 POP SWAP2 SWAP1 POP JUMP JUMPDEST PUSH1 0x0 DUP3 DUP3 MSTORE PUSH1 0x20 DUP3 ADD SWAP1 POP SWAP3 SWAP2 POP POP JUMP JUMPDEST PUSH1 0x0 DUP2 SWAP1 POP SWAP2 SWAP1 POP JUMP JUMPDEST PUSH1 0x0 PUSH1 0x2 DUP3 DIV SWAP1 POP PUSH1 0x1 DUP3 AND DUP1 PUSH3 0x4CB JUMPI PUSH1 0x7F DUP3 AND SWAP2 POP JUMPDEST PUSH1 0x20 DUP3 LT DUP2 EQ ISZERO PUSH3 0x4E2 JUMPI PUSH3 0x4E1 PUSH3 0x565 JUMP JUMPDEST JUMPDEST POP SWAP2 SWAP1 POP JUMP JUMPDEST PUSH1 0x0 PUSH3 0x4F5 DUP3 PUSH3 0x4A8 JUMP JUMPDEST SWAP2 POP PUSH32 0xFFFFFFFFFFFFFFFFFFFFFFFFFFFFFFFFFFFFFFFFFFFFFFFFFFFFFFFFFFFFFFFF DUP3 EQ ISZERO PUSH3 0x52B JUMPI PUSH3 0x52A PUSH3 0x536 JUMP JUMPDEST JUMPDEST PUSH1 0x1 DUP3 ADD SWAP1 POP SWAP2 SWAP1 POP JUMP JUMPDEST PUSH32 0x4E487B7100000000000000000000000000000000000000000000000000000000 PUSH1 0x0 MSTORE PUSH1 0x11 PUSH1 0x4 MSTORE PUSH1 0x24 PUSH1 0x0 REVERT JUMPDEST PUSH32 0x4E487B7100000000000000000000000000000000000000000000000000000000 PUSH1 0x0 MSTORE PUSH1 0x22 PUSH1 0x4 MSTORE PUSH1 0x24 PUSH1 0x0 REVERT JUMPDEST PUSH32 0x4E487B7100000000000000000000000000000000000000000000000000000000 PUSH1 0x0 MSTORE PUSH1 0x32 PUSH1 0x4 MSTORE PUSH1 0x24 PUSH1 0x0 REVERT JUMPDEST PUSH32 0x43616E64696461746573206D75737420626520352E0000000000000000000000 PUSH1 0x0 DUP3 ADD MSTORE POP JUMP JUMPDEST PUSH2 0x1123 DUP1 PUSH3 0x5FC PUSH1 0x0 CODECOPY PUSH1 0x0 RETURN INVALID PUSH1 0x80 PUSH1 0x40 MSTORE CALLVALUE DUP1 ISZERO PUSH2 0x10 JUMPI PUSH1 0x0 DUP1 REVERT JUMPDEST POP PUSH1 0x4 CALLDATASIZE LT PUSH2 0x4C JUMPI PUSH1 0x0 CALLDATALOAD PUSH1 0xE0 SHR DUP1 PUSH4 0x632A9A52 EQ PUSH2 0x51 JUMPI DUP1 PUSH4 0xA3EC138D EQ PUSH2 0x5B JUMPI DUP1 PUSH4 0xCFA1F037 EQ PUSH2 0x8E JUMPI DUP1 PUSH4 0xD4E8FD2E EQ PUSH2 0xAC JUMPI JUMPDEST PUSH1 0x0 DUP1 REVERT JUMPDEST PUSH2 0x59 PUSH2 0xDC JUMP JUMPDEST STOP JUMPDEST PUSH2 0x75 PUSH1 0x4 DUP1 CALLDATASIZE SUB DUP2 ADD SWAP1 PUSH2 0x70 SWAP2 SWAP1 PUSH2 0x9BE JUMP JUMPDEST PUSH2 0x71B JUMP JUMPDEST PUSH1 0x40 MLOAD PUSH2 0x85 SWAP5 SWAP4 SWAP3 SWAP2 SWAP1 PUSH2 0xCF3 JUMP JUMPDEST PUSH1 0x40 MLOAD DUP1 SWAP2 SUB SWAP1 RETURN JUMPDEST PUSH2 0x96 PUSH2 0x758 JUMP JUMPDEST PUSH1 0x40 MLOAD PUSH2 0xA3 SWAP2 SWAP1 PUSH2 0xCD8 JUMP JUMPDEST PUSH1 0x40 MLOAD DUP1 SWAP2 SUB SWAP1 RETURN JUMPDEST PUSH2 0xC6 PUSH1 0x4 DUP1 CALLDATASIZE SUB DUP2 ADD SWAP1 PUSH2 0xC1 SWAP2 SWAP1 PUSH2 0x9EB JUMP JUMPDEST PUSH2 0x799 JUMP JUMPDEST PUSH1 0x40 MLOAD PUSH2 0xD3 SWAP2 SWAP1 PUSH2 0xCB6 JUMP JUMPDEST PUSH1 0x40 MLOAD DUP1 SWAP2 SUB SWAP1 RETURN JUMPDEST PUSH1 0x1 PUSH1 0x0 CALLER PUSH20 0xFFFFFFFFFFFFFFFFFFFFFFFFFFFFFFFFFFFFFFFF AND PUSH20 0xFFFFFFFFFFFFFFFFFFFFFFFFFFFFFFFFFFFFFFFF AND DUP2 MSTORE PUSH1 0x20 ADD SWAP1 DUP2 MSTORE PUSH1 0x20 ADD PUSH1 0x0 KECCAK256 PUSH1 0x1 ADD PUSH1 0x0 SWAP1 SLOAD SWAP1 PUSH2 0x100 EXP SWAP1 DIV PUSH1 0xFF AND ISZERO PUSH2 0x16C JUMPI PUSH1 0x40 MLOAD PUSH32 0x8C379A000000000000000000000000000000000000000000000000000000000 DUP2 MSTORE PUSH1 0x4 ADD PUSH2 0x163 SWAP1 PUSH2 0xC76 JUMP JUMPDEST PUSH1 0x40 MLOAD DUP1 SWAP2 SUB SWAP1 REVERT JUMPDEST PUSH1 0x0 PUSH1 0x1 PUSH1 0x0 CALLER PUSH20 0xFFFFFFFFFFFFFFFFFFFFFFFFFFFFFFFFFFFFFFFF AND PUSH20 0xFFFFFFFFFFFFFFFFFFFFFFFFFFFFFFFFFFFFFFFF AND DUP2 MSTORE PUSH1 0x20 ADD SWAP1 DUP2 MSTORE PUSH1 0x20 ADD PUSH1 0x0 KECCAK256 PUSH1 0x0 ADD SLOAD EQ PUSH2 0x1BB JUMPI PUSH1 0x0 DUP1 REVERT JUMPDEST PUSH1 0x1 DUP1 PUSH1 0x0 CALLER PUSH20 0xFFFFFFFFFFFFFFFFFFFFFFFFFFFFFFFFFFFFFFFF AND PUSH20 0xFFFFFFFFFFFFFFFFFFFFFFFFFFFFFFFFFFFFFFFF AND DUP2 MSTORE PUSH1 0x20 ADD SWAP1 DUP2 MSTORE PUSH1 0x20 ADD PUSH1 0x0 KECCAK256 PUSH1 0x0 ADD DUP2 SWAP1 SSTORE POP PUSH1 0x64 PUSH1 0x3 SLOAD SGT ISZERO PUSH2 0x248 JUMPI PUSH1 0x40 MLOAD PUSH32 0x8C379A000000000000000000000000000000000000000000000000000000000 DUP2 MSTORE PUSH1 0x4 ADD PUSH2 0x23F SWAP1 PUSH2 0xC96 JUMP JUMPDEST PUSH1 0x40 MLOAD DUP1 SWAP2 SUB SWAP1 REVERT JUMPDEST PUSH2 0x250 PUSH2 0x8D6 JUMP JUMPDEST PUSH1 0x1 PUSH1 0x0 CALLER PUSH20 0xFFFFFFFFFFFFFFFFFFFFFFFFFFFFFFFFFFFFFFFF AND PUSH20 0xFFFFFFFFFFFFFFFFFFFFFFFFFFFFFFFFFFFFFFFF AND DUP2 MSTORE PUSH1 0x20 ADD SWAP1 DUP2 MSTORE PUSH1 0x20 ADD PUSH1 0x0 KECCAK256 PUSH1 0x2 ADD DUP2 SWAP1 SSTORE POP PUSH1 0x0 PUSH1 0x1 PUSH1 0x0 CALLER PUSH20 0xFFFFFFFFFFFFFFFFFFFFFFFFFFFFFFFFFFFFFFFF AND PUSH20 0xFFFFFFFFFFFFFFFFFFFFFFFFFFFFFFFFFFFFFFFF AND DUP2 MSTORE PUSH1 0x20 ADD SWAP1 DUP2 MSTORE PUSH1 0x20 ADD PUSH1 0x0 KECCAK256 SWAP1 POP DUP1 PUSH1 0x1 ADD PUSH1 0x0 SWAP1 SLOAD SWAP1 PUSH2 0x100 EXP SWAP1 DIV PUSH1 0xFF AND ISZERO PUSH2 0x32B JUMPI PUSH1 0x40 MLOAD PUSH32 0x8C379A000000000000000000000000000000000000000000000000000000000 DUP2 MSTORE PUSH1 0x4 ADD PUSH2 0x322 SWAP1 PUSH2 0xC56 JUMP JUMPDEST PUSH1 0x40 MLOAD DUP1 SWAP2 SUB SWAP1 REVERT JUMPDEST PUSH1 0x1 DUP2 PUSH1 0x1 ADD PUSH1 0x0 PUSH2 0x100 EXP DUP2 SLOAD DUP2 PUSH1 0xFF MUL NOT AND SWAP1 DUP4 ISZERO ISZERO MUL OR SWAP1 SSTORE POP PUSH2 0x350 PUSH2 0x758 JUMP JUMPDEST DUP2 PUSH1 0x3 ADD DUP2 SWAP1 SSTORE POP PUSH2 0x360 PUSH2 0x917 JUMP JUMPDEST DUP1 PUSH1 0x0 ADD SLOAD PUSH1 0x2 PUSH2 0x36F PUSH2 0x758 JUMP JUMPDEST DUP2 SLOAD DUP2 LT PUSH2 0x380 JUMPI PUSH2 0x37F PUSH2 0xFF2 JUMP JUMPDEST JUMPDEST SWAP1 PUSH1 0x0 MSTORE PUSH1 0x20 PUSH1 0x0 KECCAK256 SWAP1 PUSH1 0xC MUL ADD PUSH1 0x1 ADD PUSH1 0x0 DUP3 DUP3 SLOAD PUSH2 0x3A0 SWAP2 SWAP1 PUSH2 0xDF9 JUMP JUMPDEST SWAP3 POP POP DUP2 SWAP1 SSTORE POP PUSH1 0x0 DUP2 PUSH1 0x2 ADD SLOAD EQ ISZERO PUSH2 0x400 JUMPI DUP1 PUSH1 0x0 ADD SLOAD PUSH1 0x2 PUSH2 0x3C3 PUSH2 0x758 JUMP JUMPDEST DUP2 SLOAD DUP2 LT PUSH2 0x3D4 JUMPI PUSH2 0x3D3 PUSH2 0xFF2 JUMP JUMPDEST JUMPDEST SWAP1 PUSH1 0x0 MSTORE PUSH1 0x20 PUSH1 0x0 KECCAK256 SWAP1 PUSH1 0xC MUL ADD PUSH1 0x2 ADD PUSH1 0x0 DUP3 DUP3 SLOAD PUSH2 0x3F4 SWAP2 SWAP1 PUSH2 0xDF9 JUMP JUMPDEST SWAP3 POP POP DUP2 SWAP1 SSTORE POP PUSH2 0x718 JUMP JUMPDEST PUSH1 0x1 DUP2 PUSH1 0x2 ADD SLOAD EQ ISZERO PUSH2 0x459 JUMPI DUP1 PUSH1 0x0 ADD SLOAD PUSH1 0x2 PUSH2 0x41C PUSH2 0x758 JUMP JUMPDEST DUP2 SLOAD DUP2 LT PUSH2 0x42D JUMPI PUSH2 0x42C PUSH2 0xFF2 JUMP JUMPDEST JUMPDEST SWAP1 PUSH1 0x0 MSTORE PUSH1 0x20 PUSH1 0x0 KECCAK256 SWAP1 PUSH1 0xC MUL ADD PUSH1 0x3 ADD PUSH1 0x0 DUP3 DUP3 SLOAD PUSH2 0x44D SWAP2 SWAP1 PUSH2 0xDF9 JUMP JUMPDEST SWAP3 POP POP DUP2 SWAP1 SSTORE POP PUSH2 0x717 JUMP JUMPDEST PUSH1 0x2 DUP2 PUSH1 0x2 ADD SLOAD EQ ISZERO PUSH2 0x4B2 JUMPI DUP1 PUSH1 0x0 ADD SLOAD PUSH1 0x2 PUSH2 0x475 PUSH2 0x758 JUMP JUMPDEST DUP2 SLOAD DUP2 LT PUSH2 0x486 JUMPI PUSH2 0x485 PUSH2 0xFF2 JUMP JUMPDEST JUMPDEST SWAP1 PUSH1 0x0 MSTORE PUSH1 0x20 PUSH1 0x0 KECCAK256 SWAP1 PUSH1 0xC MUL ADD PUSH1 0x4 ADD PUSH1 0x0 DUP3 DUP3 SLOAD PUSH2 0x4A6 SWAP2 SWAP1 PUSH2 0xDF9 JUMP JUMPDEST SWAP3 POP POP DUP2 SWAP1 SSTORE POP PUSH2 0x716 JUMP JUMPDEST PUSH1 0x3 DUP2 PUSH1 0x2 ADD SLOAD EQ ISZERO PUSH2 0x50B JUMPI DUP1 PUSH1 0x0 ADD SLOAD PUSH1 0x2 PUSH2 0x4CE PUSH2 0x758 JUMP JUMPDEST DUP2 SLOAD DUP2 LT PUSH2 0x4DF JUMPI PUSH2 0x4DE PUSH2 0xFF2 JUMP JUMPDEST JUMPDEST SWAP1 PUSH1 0x0 MSTORE PUSH1 0x20 PUSH1 0x0 KECCAK256 SWAP1 PUSH1 0xC MUL ADD PUSH1 0x5 ADD PUSH1 0x0 DUP3 DUP3 SLOAD PUSH2 0x4FF SWAP2 SWAP1 PUSH2 0xDF9 JUMP JUMPDEST SWAP3 POP POP DUP2 SWAP1 SSTORE POP PUSH2 0x715 JUMP JUMPDEST PUSH1 0x4 DUP2 PUSH1 0x2 ADD SLOAD EQ ISZERO PUSH2 0x564 JUMPI DUP1 PUSH1 0x0 ADD SLOAD PUSH1 0x2 PUSH2 0x527 PUSH2 0x758 JUMP JUMPDEST DUP2 SLOAD DUP2 LT PUSH2 0x538 JUMPI PUSH2 0x537 PUSH2 0xFF2 JUMP JUMPDEST JUMPDEST SWAP1 PUSH1 0x0 MSTORE PUSH1 0x20 PUSH1 0x0 KECCAK256 SWAP1 PUSH1 0xC MUL ADD PUSH1 0x6 ADD PUSH1 0x0 DUP3 DUP3 SLOAD PUSH2 0x558 SWAP2 SWAP1 PUSH2 0xDF9 JUMP JUMPDEST SWAP3 POP POP DUP2 SWAP1 SSTORE POP PUSH2 0x714 JUMP JUMPDEST PUSH1 0x5 DUP2 PUSH1 0x2 ADD SLOAD EQ ISZERO PUSH2 0x5BD JUMPI DUP1 PUSH1 0x0 ADD SLOAD PUSH1 0x2 PUSH2 0x580 PUSH2 0x758 JUMP JUMPDEST DUP2 SLOAD DUP2 LT PUSH2 0x591 JUMPI PUSH2 0x590 PUSH2 0xFF2 JUMP JUMPDEST JUMPDEST SWAP1 PUSH1 0x0 MSTORE PUSH1 0x20 PUSH1 0x0 KECCAK256 SWAP1 PUSH1 0xC MUL ADD PUSH1 0x7 ADD PUSH1 0x0 DUP3 DUP3 SLOAD PUSH2 0x5B1 SWAP2 SWAP1 PUSH2 0xDF9 JUMP JUMPDEST SWAP3 POP POP DUP2 SWAP1 SSTORE POP PUSH2 0x713 JUMP JUMPDEST PUSH1 0x6 DUP2 PUSH1 0x2 ADD SLOAD EQ ISZERO PUSH2 0x616 JUMPI DUP1 PUSH1 0x0 ADD SLOAD PUSH1 0x2 PUSH2 0x5D9 PUSH2 0x758 JUMP JUMPDEST DUP2 SLOAD DUP2 LT PUSH2 0x5EA JUMPI PUSH2 0x5E9 PUSH2 0xFF2 JUMP JUMPDEST JUMPDEST SWAP1 PUSH1 0x0 MSTORE PUSH1 0x20 PUSH1 0x0 KECCAK256 SWAP1 PUSH1 0xC MUL ADD PUSH1 0x8 ADD PUSH1 0x0 DUP3 DUP3 SLOAD PUSH2 0x60A SWAP2 SWAP1 PUSH2 0xDF9 JUMP JUMPDEST SWAP3 POP POP DUP2 SWAP1 SSTORE POP PUSH2 0x712 JUMP JUMPDEST PUSH1 0x7 DUP2 PUSH1 0x2 ADD SLOAD EQ ISZERO PUSH2 0x66F JUMPI DUP1 PUSH1 0x0 ADD SLOAD PUSH1 0x2 PUSH2 0x632 PUSH2 0x758 JUMP JUMPDEST DUP2 SLOAD DUP2 LT PUSH2 0x643 JUMPI PUSH2 0x642 PUSH2 0xFF2 JUMP JUMPDEST JUMPDEST SWAP1 PUSH1 0x0 MSTORE PUSH1 0x20 PUSH1 0x0 KECCAK256 SWAP1 PUSH1 0xC MUL ADD PUSH1 0x9 ADD PUSH1 0x0 DUP3 DUP3 SLOAD PUSH2 0x663 SWAP2 SWAP1 PUSH2 0xDF9 JUMP JUMPDEST SWAP3 POP POP DUP2 SWAP1 SSTORE POP PUSH2 0x711 JUMP JUMPDEST PUSH1 0x8 DUP2 PUSH1 0x2 ADD SLOAD EQ ISZERO PUSH2 0x6C8 JUMPI DUP1 PUSH1 0x0 ADD SLOAD PUSH1 0x2 PUSH2 0x68B PUSH2 0x758 JUMP JUMPDEST DUP2 SLOAD DUP2 LT PUSH2 0x69C JUMPI PUSH2 0x69B PUSH2 0xFF2 JUMP JUMPDEST JUMPDEST SWAP1 PUSH1 0x0 MSTORE PUSH1 0x20 PUSH1 0x0 KECCAK256 SWAP1 PUSH1 0xC MUL ADD PUSH1 0xA ADD PUSH1 0x0 DUP3 DUP3 SLOAD PUSH2 0x6BC SWAP2 SWAP1 PUSH2 0xDF9 JUMP JUMPDEST SWAP3 POP POP DUP2 SWAP1 SSTORE POP PUSH2 0x710 JUMP JUMPDEST DUP1 PUSH1 0x0 ADD SLOAD PUSH1 0x2 PUSH2 0x6D7 PUSH2 0x758 JUMP JUMPDEST DUP2 SLOAD DUP2 LT PUSH2 0x6E8 JUMPI PUSH2 0x6E7 PUSH2 0xFF2 JUMP JUMPDEST JUMPDEST SWAP1 PUSH1 0x0 MSTORE PUSH1 0x20 PUSH1 0x0 KECCAK256 SWAP1 PUSH1 0xC MUL ADD PUSH1 0xB ADD PUSH1 0x0 DUP3 DUP3 SLOAD PUSH2 0x708 SWAP2 SWAP1 PUSH2 0xDF9 JUMP JUMPDEST SWAP3 POP POP DUP2 SWAP1 SSTORE POP JUMPDEST JUMPDEST JUMPDEST JUMPDEST JUMPDEST JUMPDEST JUMPDEST JUMPDEST JUMPDEST POP JUMP JUMPDEST PUSH1 0x1 PUSH1 0x20 MSTORE DUP1 PUSH1 0x0 MSTORE PUSH1 0x40 PUSH1 0x0 KECCAK256 PUSH1 0x0 SWAP2 POP SWAP1 POP DUP1 PUSH1 0x0 ADD SLOAD SWAP1 DUP1 PUSH1 0x1 ADD PUSH1 0x0 SWAP1 SLOAD SWAP1 PUSH2 0x100 EXP SWAP1 DIV PUSH1 0xFF AND SWAP1 DUP1 PUSH1 0x2 ADD SLOAD SWAP1 DUP1 PUSH1 0x3 ADD SLOAD SWAP1 POP DUP5 JUMP JUMPDEST PUSH1 0x0 PUSH1 0x5 TIMESTAMP DIFFICULTY CALLER PUSH1 0x40 MLOAD PUSH1 0x20 ADD PUSH2 0x771 SWAP4 SWAP3 SWAP2 SWAP1 PUSH2 0xC19 JUMP JUMPDEST PUSH1 0x40 MLOAD PUSH1 0x20 DUP2 DUP4 SUB SUB DUP2 MSTORE SWAP1 PUSH1 0x40 MSTORE DUP1 MLOAD SWAP1 PUSH1 0x20 ADD KECCAK256 PUSH1 0x0 SHR PUSH2 0x794 SWAP2 SWAP1 PUSH2 0xF34 JUMP JUMPDEST SWAP1 POP SWAP1 JUMP JUMPDEST PUSH2 0x7A1 PUSH2 0x933 JUMP JUMPDEST PUSH1 0x2 DUP3 DUP2 SLOAD DUP2 LT PUSH2 0x7B5 JUMPI PUSH2 0x7B4 PUSH2 0xFF2 JUMP JUMPDEST JUMPDEST SWAP1 PUSH1 0x0 MSTORE PUSH1 0x20 PUSH1 0x0 KECCAK256 SWAP1 PUSH1 0xC MUL ADD PUSH1 0x40 MLOAD DUP1 PUSH2 0x180 ADD PUSH1 0x40 MSTORE SWAP1 DUP2 PUSH1 0x0 DUP3 ADD DUP1 SLOAD PUSH2 0x7DF SWAP1 PUSH2 0xED4 JUMP JUMPDEST DUP1 PUSH1 0x1F ADD PUSH1 0x20 DUP1 SWAP2 DIV MUL PUSH1 0x20 ADD PUSH1 0x40 MLOAD SWAP1 DUP2 ADD PUSH1 0x40 MSTORE DUP1 SWAP3 SWAP2 SWAP1 DUP2 DUP2 MSTORE PUSH1 0x20 ADD DUP3 DUP1 SLOAD PUSH2 0x80B SWAP1 PUSH2 0xED4 JUMP JUMPDEST DUP1 ISZERO PUSH2 0x858 JUMPI DUP1 PUSH1 0x1F LT PUSH2 0x82D JUMPI PUSH2 0x100 DUP1 DUP4 SLOAD DIV MUL DUP4 MSTORE SWAP2 PUSH1 0x20 ADD SWAP2 PUSH2 0x858 JUMP JUMPDEST DUP3 ADD SWAP2 SWAP1 PUSH1 0x0 MSTORE PUSH1 0x20 PUSH1 0x0 KECCAK256 SWAP1 JUMPDEST DUP2 SLOAD DUP2 MSTORE SWAP1 PUSH1 0x1 ADD SWAP1 PUSH1 0x20 ADD DUP1 DUP4 GT PUSH2 0x83B JUMPI DUP3 SWAP1 SUB PUSH1 0x1F AND DUP3 ADD SWAP2 JUMPDEST POP POP POP POP POP DUP2 MSTORE PUSH1 0x20 ADD PUSH1 0x1 DUP3 ADD SLOAD DUP2 MSTORE PUSH1 0x20 ADD PUSH1 0x2 DUP3 ADD SLOAD DUP2 MSTORE PUSH1 0x20 ADD PUSH1 0x3 DUP3 ADD SLOAD DUP2 MSTORE PUSH1 0x20 ADD PUSH1 0x4 DUP3 ADD SLOAD DUP2 MSTORE PUSH1 0x20 ADD PUSH1 0x5 DUP3 ADD SLOAD DUP2 MSTORE PUSH1 0x20 ADD PUSH1 0x6 DUP3 ADD SLOAD DUP2 MSTORE PUSH1 0x20 ADD PUSH1 0x7 DUP3 ADD SLOAD DUP2 MSTORE PUSH1 0x20 ADD PUSH1 0x8 DUP3 ADD SLOAD DUP2 MSTORE PUSH1 0x20 ADD PUSH1 0x9 DUP3 ADD SLOAD DUP2 MSTORE PUSH1 0x20 ADD PUSH1 0xA DUP3 ADD SLOAD DUP2 MSTORE PUSH1 0x20 ADD PUSH1 0xB DUP3 ADD SLOAD DUP2 MSTORE POP POP SWAP1 POP SWAP2 SWAP1 POP JUMP JUMPDEST PUSH1 0x0 PUSH1 0xA TIMESTAMP DIFFICULTY CALLER PUSH1 0x40 MLOAD PUSH1 0x20 ADD PUSH2 0x8EF SWAP4 SWAP3 SWAP2 SWAP1 PUSH2 0xC19 JUMP JUMPDEST PUSH1 0x40 MLOAD PUSH1 0x20 DUP2 DUP4 SUB SUB DUP2 MSTORE SWAP1 PUSH1 0x40 MSTORE DUP1 MLOAD SWAP1 PUSH1 0x20 ADD KECCAK256 PUSH1 0x0 SHR PUSH2 0x912 SWAP2 SWAP1 PUSH2 0xF34 JUMP JUMPDEST SWAP1 POP SWAP1 JUMP JUMPDEST PUSH1 0x1 PUSH1 0x3 PUSH1 0x0 DUP3 DUP3 SLOAD PUSH2 0x92A SWAP2 SWAP1 PUSH2 0xD65 JUMP JUMPDEST SWAP3 POP POP DUP2 SWAP1 SSTORE POP JUMP JUMPDEST PUSH1 0x40 MLOAD DUP1 PUSH2 0x180 ADD PUSH1 0x40 MSTORE DUP1 PUSH1 0x60 DUP2 MSTORE PUSH1 0x20 ADD PUSH1 0x0 DUP2 MSTORE PUSH1 0x20 ADD PUSH1 0x0 DUP2 MSTORE PUSH1 0x20 ADD PUSH1 0x0 DUP2 MSTORE PUSH1 0x20 ADD PUSH1 0x0 DUP2 MSTORE PUSH1 0x20 ADD PUSH1 0x0 DUP2 MSTORE PUSH1 0x20 ADD PUSH1 0x0 DUP2 MSTORE PUSH1 0x20 ADD PUSH1 0x0 DUP2 MSTORE PUSH1 0x20 ADD PUSH1 0x0 DUP2 MSTORE PUSH1 0x20 ADD PUSH1 0x0 DUP2 MSTORE PUSH1 0x20 ADD PUSH1 0x0 DUP2 MSTORE PUSH1 0x20 ADD PUSH1 0x0 DUP2 MSTORE POP SWAP1 JUMP JUMPDEST PUSH1 0x0 DUP2 CALLDATALOAD SWAP1 POP PUSH2 0x9A3 DUP2 PUSH2 0x10BF JUMP JUMPDEST SWAP3 SWAP2 POP POP JUMP JUMPDEST PUSH1 0x0 DUP2 CALLDATALOAD SWAP1 POP PUSH2 0x9B8 DUP2 PUSH2 0x10D6 JUMP JUMPDEST SWAP3 SWAP2 POP POP JUMP JUMPDEST PUSH1 0x0 PUSH1 0x20 DUP3 DUP5 SUB SLT ISZERO PUSH2 0x9D4 JUMPI PUSH2 0x9D3 PUSH2 0x1021 JUMP JUMPDEST JUMPDEST PUSH1 0x0 PUSH2 0x9E2 DUP5 DUP3 DUP6 ADD PUSH2 0x994 JUMP JUMPDEST SWAP2 POP POP SWAP3 SWAP2 POP POP JUMP JUMPDEST PUSH1 0x0 PUSH1 0x20 DUP3 DUP5 SUB SLT ISZERO PUSH2 0xA01 JUMPI PUSH2 0xA00 PUSH2 0x1021 JUMP JUMPDEST JUMPDEST PUSH1 0x0 PUSH2 0xA0F DUP5 DUP3 DUP6 ADD PUSH2 0x9A9 JUMP JUMPDEST SWAP2 POP POP SWAP3 SWAP2 POP POP JUMP JUMPDEST PUSH2 0xA29 PUSH2 0xA24 DUP3 PUSH2 0xE4F JUMP JUMPDEST PUSH2 0xF06 JUMP JUMPDEST DUP3 MSTORE POP POP JUMP JUMPDEST PUSH2 0xA38 DUP2 PUSH2 0xE61 JUMP JUMPDEST DUP3 MSTORE POP POP JUMP JUMPDEST PUSH1 0x0 PUSH2 0xA49 DUP3 PUSH2 0xD38 JUMP JUMPDEST PUSH2 0xA53 DUP2 DUP6 PUSH2 0xD43 JUMP JUMPDEST SWAP4 POP PUSH2 0xA63 DUP2 DUP6 PUSH1 0x20 DUP7 ADD PUSH2 0xEA1 JUMP JUMPDEST PUSH2 0xA6C DUP2 PUSH2 0x1026 JUMP JUMPDEST DUP5 ADD SWAP2 POP POP SWAP3 SWAP2 POP POP JUMP JUMPDEST PUSH1 0x0 PUSH2 0xA84 PUSH1 0xE DUP4 PUSH2 0xD54 JUMP JUMPDEST SWAP2 POP PUSH2 0xA8F DUP3 PUSH2 0x1044 JUMP JUMPDEST PUSH1 0x20 DUP3 ADD SWAP1 POP SWAP2 SWAP1 POP JUMP JUMPDEST PUSH1 0x0 PUSH2 0xAA7 PUSH1 0x18 DUP4 PUSH2 0xD54 JUMP JUMPDEST SWAP2 POP PUSH2 0xAB2 DUP3 PUSH2 0x106D JUMP JUMPDEST PUSH1 0x20 DUP3 ADD SWAP1 POP SWAP2 SWAP1 POP JUMP JUMPDEST PUSH1 0x0 PUSH2 0xACA PUSH1 0x13 DUP4 PUSH2 0xD54 JUMP JUMPDEST SWAP2 POP PUSH2 0xAD5 DUP3 PUSH2 0x1096 JUMP JUMPDEST PUSH1 0x20 DUP3 ADD SWAP1 POP SWAP2 SWAP1 POP JUMP JUMPDEST PUSH1 0x0 PUSH2 0x180 DUP4 ADD PUSH1 0x0 DUP4 ADD MLOAD DUP5 DUP3 SUB PUSH1 0x0 DUP7 ADD MSTORE PUSH2 0xAFE DUP3 DUP3 PUSH2 0xA3E JUMP JUMPDEST SWAP2 POP POP PUSH1 0x20 DUP4 ADD MLOAD PUSH2 0xB13 PUSH1 0x20 DUP7 ADD DUP3 PUSH2 0xBE4 JUMP JUMPDEST POP PUSH1 0x40 DUP4 ADD MLOAD PUSH2 0xB26 PUSH1 0x40 DUP7 ADD DUP3 PUSH2 0xBE4 JUMP JUMPDEST POP PUSH1 0x60 DUP4 ADD MLOAD PUSH2 0xB39 PUSH1 0x60 DUP7 ADD DUP3 PUSH2 0xBE4 JUMP JUMPDEST POP PUSH1 0x80 DUP4 ADD MLOAD PUSH2 0xB4C PUSH1 0x80 DUP7 ADD DUP3 PUSH2 0xBE4 JUMP JUMPDEST POP PUSH1 0xA0 DUP4 ADD MLOAD PUSH2 0xB5F PUSH1 0xA0 DUP7 ADD DUP3 PUSH2 0xBE4 JUMP JUMPDEST POP PUSH1 0xC0 DUP4 ADD MLOAD PUSH2 0xB72 PUSH1 0xC0 DUP7 ADD DUP3 PUSH2 0xBE4 JUMP JUMPDEST POP PUSH1 0xE0 DUP4 ADD MLOAD PUSH2 0xB85 PUSH1 0xE0 DUP7 ADD DUP3 PUSH2 0xBE4 JUMP JUMPDEST POP PUSH2 0x100 DUP4 ADD MLOAD PUSH2 0xB9A PUSH2 0x100 DUP7 ADD DUP3 PUSH2 0xBE4 JUMP JUMPDEST POP PUSH2 0x120 DUP4 ADD MLOAD PUSH2 0xBAF PUSH2 0x120 DUP7 ADD DUP3 PUSH2 0xBE4 JUMP JUMPDEST POP PUSH2 0x140 DUP4 ADD MLOAD PUSH2 0xBC4 PUSH2 0x140 DUP7 ADD DUP3 PUSH2 0xBE4 JUMP JUMPDEST POP PUSH2 0x160 DUP4 ADD MLOAD PUSH2 0xBD9 PUSH2 0x160 DUP7 ADD DUP3 PUSH2 0xBE4 JUMP JUMPDEST POP DUP1 SWAP2 POP POP SWAP3 SWAP2 POP POP JUMP JUMPDEST PUSH2 0xBED DUP2 PUSH2 0xE97 JUMP JUMPDEST DUP3 MSTORE POP POP JUMP JUMPDEST PUSH2 0xBFC DUP2 PUSH2 0xE97 JUMP JUMPDEST DUP3 MSTORE POP POP JUMP JUMPDEST PUSH2 0xC13 PUSH2 0xC0E DUP3 PUSH2 0xE97 JUMP JUMPDEST PUSH2 0xF2A JUMP JUMPDEST DUP3 MSTORE POP POP JUMP JUMPDEST PUSH1 0x0 PUSH2 0xC25 DUP3 DUP7 PUSH2 0xC02 JUMP JUMPDEST PUSH1 0x20 DUP3 ADD SWAP2 POP PUSH2 0xC35 DUP3 DUP6 PUSH2 0xC02 JUMP JUMPDEST PUSH1 0x20 DUP3 ADD SWAP2 POP PUSH2 0xC45 DUP3 DUP5 PUSH2 0xA18 JUMP JUMPDEST PUSH1 0x14 DUP3 ADD SWAP2 POP DUP2 SWAP1 POP SWAP5 SWAP4 POP POP POP POP JUMP JUMPDEST PUSH1 0x0 PUSH1 0x20 DUP3 ADD SWAP1 POP DUP2 DUP2 SUB PUSH1 0x0 DUP4 ADD MSTORE PUSH2 0xC6F DUP2 PUSH2 0xA77 JUMP JUMPDEST SWAP1 POP SWAP2 SWAP1 POP JUMP JUMPDEST PUSH1 0x0 PUSH1 0x20 DUP3 ADD SWAP1 POP DUP2 DUP2 SUB PUSH1 0x0 DUP4 ADD MSTORE PUSH2 0xC8F DUP2 PUSH2 0xA9A JUMP JUMPDEST SWAP1 POP SWAP2 SWAP1 POP JUMP JUMPDEST PUSH1 0x0 PUSH1 0x20 DUP3 ADD SWAP1 POP DUP2 DUP2 SUB PUSH1 0x0 DUP4 ADD MSTORE PUSH2 0xCAF DUP2 PUSH2 0xABD JUMP JUMPDEST SWAP1 POP SWAP2 SWAP1 POP JUMP JUMPDEST PUSH1 0x0 PUSH1 0x20 DUP3 ADD SWAP1 POP DUP2 DUP2 SUB PUSH1 0x0 DUP4 ADD MSTORE PUSH2 0xCD0 DUP2 DUP5 PUSH2 0xAE0 JUMP JUMPDEST SWAP1 POP SWAP3 SWAP2 POP POP JUMP JUMPDEST PUSH1 0x0 PUSH1 0x20 DUP3 ADD SWAP1 POP PUSH2 0xCED PUSH1 0x0 DUP4 ADD DUP5 PUSH2 0xBF3 JUMP JUMPDEST SWAP3 SWAP2 POP POP JUMP JUMPDEST PUSH1 0x0 PUSH1 0x80 DUP3 ADD SWAP1 POP PUSH2 0xD08 PUSH1 0x0 DUP4 ADD DUP8 PUSH2 0xBF3 JUMP JUMPDEST PUSH2 0xD15 PUSH1 0x20 DUP4 ADD DUP7 PUSH2 0xA2F JUMP JUMPDEST PUSH2 0xD22 PUSH1 0x40 DUP4 ADD DUP6 PUSH2 0xBF3 JUMP JUMPDEST PUSH2 0xD2F PUSH1 0x60 DUP4 ADD DUP5 PUSH2 0xBF3 JUMP JUMPDEST SWAP6 SWAP5 POP POP POP POP POP JUMP JUMPDEST PUSH1 0x0 DUP2 MLOAD SWAP1 POP SWAP2 SWAP1 POP JUMP JUMPDEST PUSH1 0x0 DUP3 DUP3 MSTORE PUSH1 0x20 DUP3 ADD SWAP1 POP SWAP3 SWAP2 POP POP JUMP JUMPDEST PUSH1 0x0 DUP3 DUP3 MSTORE PUSH1 0x20 DUP3 ADD SWAP1 POP SWAP3 SWAP2 POP POP JUMP JUMPDEST PUSH1 0x0 PUSH2 0xD70 DUP3 PUSH2 0xE6D JUMP JUMPDEST SWAP2 POP PUSH2 0xD7B DUP4 PUSH2 0xE6D JUMP JUMPDEST SWAP3 POP DUP2 PUSH32 0x7FFFFFFFFFFFFFFFFFFFFFFFFFFFFFFFFFFFFFFFFFFFFFFFFFFFFFFFFFFFFFFF SUB DUP4 SGT PUSH1 0x0 DUP4 SLT ISZERO AND ISZERO PUSH2 0xDB6 JUMPI PUSH2 0xDB5 PUSH2 0xF65 JUMP JUMPDEST JUMPDEST DUP2 PUSH32 0x8000000000000000000000000000000000000000000000000000000000000000 SUB DUP4 SLT PUSH1 0x0 DUP4 SLT AND ISZERO PUSH2 0xDEE JUMPI PUSH2 0xDED PUSH2 0xF65 JUMP JUMPDEST JUMPDEST DUP3 DUP3 ADD SWAP1 POP SWAP3 SWAP2 POP POP JUMP JUMPDEST PUSH1 0x0 PUSH2 0xE04 DUP3 PUSH2 0xE97 JUMP JUMPDEST SWAP2 POP PUSH2 0xE0F DUP4 PUSH2 0xE97 JUMP JUMPDEST SWAP3 POP DUP3 PUSH32 0xFFFFFFFFFFFFFFFFFFFFFFFFFFFFFFFFFFFFFFFFFFFFFFFFFFFFFFFFFFFFFFFF SUB DUP3 GT ISZERO PUSH2 0xE44 JUMPI PUSH2 0xE43 PUSH2 0xF65 JUMP JUMPDEST JUMPDEST DUP3 DUP3 ADD SWAP1 POP SWAP3 SWAP2 POP POP JUMP JUMPDEST PUSH1 0x0 PUSH2 0xE5A DUP3 PUSH2 0xE77 JUMP JUMPDEST SWAP1 POP SWAP2 SWAP1 POP JUMP JUMPDEST PUSH1 0x0 DUP2 ISZERO ISZERO SWAP1 POP SWAP2 SWAP1 POP JUMP JUMPDEST PUSH1 0x0 DUP2 SWAP1 POP SWAP2 SWAP1 POP JUMP JUMPDEST PUSH1 0x0 PUSH20 0xFFFFFFFFFFFFFFFFFFFFFFFFFFFFFFFFFFFFFFFF DUP3 AND SWAP1 POP SWAP2 SWAP1 POP JUMP JUMPDEST PUSH1 0x0 DUP2 SWAP1 POP SWAP2 SWAP1 POP JUMP JUMPDEST PUSH1 0x0 JUMPDEST DUP4 DUP2 LT ISZERO PUSH2 0xEBF JUMPI DUP1 DUP3 ADD MLOAD DUP2 DUP5 ADD MSTORE PUSH1 0x20 DUP2 ADD SWAP1 POP PUSH2 0xEA4 JUMP JUMPDEST DUP4 DUP2 GT ISZERO PUSH2 0xECE JUMPI PUSH1 0x0 DUP5 DUP5 ADD MSTORE JUMPDEST POP POP POP POP JUMP JUMPDEST PUSH1 0x0 PUSH1 0x2 DUP3 DIV SWAP1 POP PUSH1 0x1 DUP3 AND DUP1 PUSH2 0xEEC JUMPI PUSH1 0x7F DUP3 AND SWAP2 POP JUMPDEST PUSH1 0x20 DUP3 LT DUP2 EQ ISZERO PUSH2 0xF00 JUMPI PUSH2 0xEFF PUSH2 0xFC3 JUMP JUMPDEST JUMPDEST POP SWAP2 SWAP1 POP JUMP JUMPDEST PUSH1 0x0 PUSH2 0xF11 DUP3 PUSH2 0xF18 JUMP JUMPDEST SWAP1 POP SWAP2 SWAP1 POP JUMP JUMPDEST PUSH1 0x0 PUSH2 0xF23 DUP3 PUSH2 0x1037 JUMP JUMPDEST SWAP1 POP SWAP2 SWAP1 POP JUMP JUMPDEST PUSH1 0x0 DUP2 SWAP1 POP SWAP2 SWAP1 POP JUMP JUMPDEST PUSH1 0x0 PUSH2 0xF3F DUP3 PUSH2 0xE97 JUMP JUMPDEST SWAP2 POP PUSH2 0xF4A DUP4 PUSH2 0xE97 JUMP JUMPDEST SWAP3 POP DUP3 PUSH2 0xF5A JUMPI PUSH2 0xF59 PUSH2 0xF94 JUMP JUMPDEST JUMPDEST DUP3 DUP3 MOD SWAP1 POP SWAP3 SWAP2 POP POP JUMP JUMPDEST PUSH32 0x4E487B7100000000000000000000000000000000000000000000000000000000 PUSH1 0x0 MSTORE PUSH1 0x11 PUSH1 0x4 MSTORE PUSH1 0x24 PUSH1 0x0 REVERT JUMPDEST PUSH32 0x4E487B7100000000000000000000000000000000000000000000000000000000 PUSH1 0x0 MSTORE PUSH1 0x12 PUSH1 0x4 MSTORE PUSH1 0x24 PUSH1 0x0 REVERT JUMPDEST PUSH32 0x4E487B7100000000000000000000000000000000000000000000000000000000 PUSH1 0x0 MSTORE PUSH1 0x22 PUSH1 0x4 MSTORE PUSH1 0x24 PUSH1 0x0 REVERT JUMPDEST PUSH32 0x4E487B7100000000000000000000000000000000000000000000000000000000 PUSH1 0x0 MSTORE PUSH1 0x32 PUSH1 0x4 MSTORE PUSH1 0x24 PUSH1 0x0 REVERT JUMPDEST PUSH1 0x0 DUP1 REVERT JUMPDEST PUSH1 0x0 PUSH1 0x1F NOT PUSH1 0x1F DUP4 ADD AND SWAP1 POP SWAP2 SWAP1 POP JUMP JUMPDEST PUSH1 0x0 DUP2 PUSH1 0x60 SHL SWAP1 POP SWAP2 SWAP1 POP JUMP JUMPDEST PUSH32 0x416C726561647920766F7465642E000000000000000000000000000000000000 PUSH1 0x0 DUP3 ADD MSTORE POP JUMP JUMPDEST PUSH32 0x54686520766F74657220616C726561647920766F7465642E0000000000000000 PUSH1 0x0 DUP3 ADD MSTORE POP JUMP JUMPDEST PUSH32 0x52656163686564206D617820766F746572732E00000000000000000000000000 PUSH1 0x0 DUP3 ADD MSTORE POP JUMP JUMPDEST PUSH2 0x10C8 DUP2 PUSH2 0xE4F JUMP JUMPDEST DUP2 EQ PUSH2 0x10D3 JUMPI PUSH1 0x0 DUP1 REVERT JUMPDEST POP JUMP JUMPDEST PUSH2 0x10DF DUP2 PUSH2 0xE97 JUMP JUMPDEST DUP2 EQ PUSH2 0x10EA JUMPI PUSH1 0x0 DUP1 REVERT JUMPDEST POP JUMP INVALID LOG2 PUSH5 0x6970667358 0x22 SLT KECCAK256 0xAB DIV 0x2E 0xF PC 0x5D 0xE3 SWAP8 0xDE KECCAK256 ADD 0xC1 PUSH3 0xEFAB60 0xDB BALANCE DIV 0xE6 PUSH7 0xDFE6696A385D6 SWAP8 0xAE 0xF9 PUSH6 0x64736F6C6343 STOP ADDMOD SMOD STOP CALLER "
				},
				"gasEstimates": {
					"creation": {
						"codeDepositCost": "877400",
						"executionCost": "infinite",
						"totalCost": "infinite"
					},
					"external": {
						"random_vote()": "infinite",
						"res(uint256)": "infinite",
						"vote()": "infinite",
						"voters(address)": "infinite"
					},
					"internal": {
						"countVoters()": "infinite",
						"incrementCounter2()": "infinite",
						"random_district()": "infinite"
					}
				},
				"methodIdentifiers": {
					"random_vote()": "cfa1f037",
					"res(uint256)": "d4e8fd2e",
					"vote()": "632a9a52",
					"voters(address)": "a3ec138d"
				}
			},
			"storageLayout": {
				"storage": [
					{
						"astId": 38,
						"contract": "smartContract/contracts/3_Ballot.sol:Ballot",
						"label": "chairperson",
						"offset": 0,
						"slot": "0",
						"type": "t_address"
					},
					{
						"astId": 43,
						"contract": "smartContract/contracts/3_Ballot.sol:Ballot",
						"label": "voters",
						"offset": 0,
						"slot": "1",
						"type": "t_mapping(t_address,t_struct(Voter)11_storage)"
					},
					{
						"astId": 47,
						"contract": "smartContract/contracts/3_Ballot.sol:Ballot",
						"label": "proposals",
						"offset": 0,
						"slot": "2",
						"type": "t_array(t_struct(Proposal)36_storage)dyn_storage"
					},
					{
						"astId": 144,
						"contract": "smartContract/contracts/3_Ballot.sol:Ballot",
						"label": "countV",
						"offset": 0,
						"slot": "3",
						"type": "t_int256"
					},
					{
						"astId": 155,
						"contract": "smartContract/contracts/3_Ballot.sol:Ballot",
						"label": "count2",
						"offset": 0,
						"slot": "4",
						"type": "t_int256"
					}
				],
				"types": {
					"t_address": {
						"encoding": "inplace",
						"label": "address",
						"numberOfBytes": "20"
					},
					"t_array(t_struct(Proposal)36_storage)dyn_storage": {
						"base": "t_struct(Proposal)36_storage",
						"encoding": "dynamic_array",
						"label": "struct Ballot.Proposal[]",
						"numberOfBytes": "32"
					},
					"t_bool": {
						"encoding": "inplace",
						"label": "bool",
						"numberOfBytes": "1"
					},
					"t_int256": {
						"encoding": "inplace",
						"label": "int256",
						"numberOfBytes": "32"
					},
					"t_mapping(t_address,t_struct(Voter)11_storage)": {
						"encoding": "mapping",
						"key": "t_address",
						"label": "mapping(address => struct Ballot.Voter)",
						"numberOfBytes": "32",
						"value": "t_struct(Voter)11_storage"
					},
					"t_string_storage": {
						"encoding": "bytes",
						"label": "string",
						"numberOfBytes": "32"
					},
					"t_struct(Proposal)36_storage": {
						"encoding": "inplace",
						"label": "struct Ballot.Proposal",
						"members": [
							{
								"astId": 13,
								"contract": "smartContract/contracts/3_Ballot.sol:Ballot",
								"label": "name",
								"offset": 0,
								"slot": "0",
								"type": "t_string_storage"
							},
							{
								"astId": 15,
								"contract": "smartContract/contracts/3_Ballot.sol:Ballot",
								"label": "Total_Votes",
								"offset": 0,
								"slot": "1",
								"type": "t_uint256"
							},
							{
								"astId": 17,
								"contract": "smartContract/contracts/3_Ballot.sol:Ballot",
								"label": "Votes_District0",
								"offset": 0,
								"slot": "2",
								"type": "t_uint256"
							},
							{
								"astId": 19,
								"contract": "smartContract/contracts/3_Ballot.sol:Ballot",
								"label": "Votes_District1",
								"offset": 0,
								"slot": "3",
								"type": "t_uint256"
							},
							{
								"astId": 21,
								"contract": "smartContract/contracts/3_Ballot.sol:Ballot",
								"label": "Votes_District2",
								"offset": 0,
								"slot": "4",
								"type": "t_uint256"
							},
							{
								"astId": 23,
								"contract": "smartContract/contracts/3_Ballot.sol:Ballot",
								"label": "Votes_District3",
								"offset": 0,
								"slot": "5",
								"type": "t_uint256"
							},
							{
								"astId": 25,
								"contract": "smartContract/contracts/3_Ballot.sol:Ballot",
								"label": "Votes_District4",
								"offset": 0,
								"slot": "6",
								"type": "t_uint256"
							},
							{
								"astId": 27,
								"contract": "smartContract/contracts/3_Ballot.sol:Ballot",
								"label": "Votes_District5",
								"offset": 0,
								"slot": "7",
								"type": "t_uint256"
							},
							{
								"astId": 29,
								"contract": "smartContract/contracts/3_Ballot.sol:Ballot",
								"label": "Votes_District6",
								"offset": 0,
								"slot": "8",
								"type": "t_uint256"
							},
							{
								"astId": 31,
								"contract": "smartContract/contracts/3_Ballot.sol:Ballot",
								"label": "Votes_District7",
								"offset": 0,
								"slot": "9",
								"type": "t_uint256"
							},
							{
								"astId": 33,
								"contract": "smartContract/contracts/3_Ballot.sol:Ballot",
								"label": "Votes_District8",
								"offset": 0,
								"slot": "10",
								"type": "t_uint256"
							},
							{
								"astId": 35,
								"contract": "smartContract/contracts/3_Ballot.sol:Ballot",
								"label": "Votes_District9",
								"offset": 0,
								"slot": "11",
								"type": "t_uint256"
							}
						],
						"numberOfBytes": "384"
					},
					"t_struct(Voter)11_storage": {
						"encoding": "inplace",
						"label": "struct Ballot.Voter",
						"members": [
							{
								"astId": 4,
								"contract": "smartContract/contracts/3_Ballot.sol:Ballot",
								"label": "weight",
								"offset": 0,
								"slot": "0",
								"type": "t_uint256"
							},
							{
								"astId": 6,
								"contract": "smartContract/contracts/3_Ballot.sol:Ballot",
								"label": "voted",
								"offset": 0,
								"slot": "1",
								"type": "t_bool"
							},
							{
								"astId": 8,
								"contract": "smartContract/contracts/3_Ballot.sol:Ballot",
								"label": "district",
								"offset": 0,
								"slot": "2",
								"type": "t_uint256"
							},
							{
								"astId": 10,
								"contract": "smartContract/contracts/3_Ballot.sol:Ballot",
								"label": "vote",
								"offset": 0,
								"slot": "3",
								"type": "t_uint256"
							}
						],
						"numberOfBytes": "128"
					},
					"t_uint256": {
						"encoding": "inplace",
						"label": "uint256",
						"numberOfBytes": "32"
					}
				}
			},
			"userdoc": {
				"kind": "user",
				"methods": {},
				"version": 1
			}
		}
	}
}