{
	"smartContract/contracts/3_Ballot.sol": {
		"Ballot": {
			"abi": [
				{
					"inputs": [],
					"stateMutability": "nonpayable",
					"type": "constructor"
				},
				{
					"inputs": [
						{
							"internalType": "uint256",
							"name": "_id",
							"type": "uint256"
						}
					],
					"name": "res",
					"outputs": [
						{
							"components": [
								{
									"internalType": "string",
									"name": "name",
									"type": "string"
								},
								{
									"internalType": "uint256",
									"name": "Total_Votes",
									"type": "uint256"
								},
								{
									"internalType": "uint256",
									"name": "Votes_District0",
									"type": "uint256"
								},
								{
									"internalType": "uint256",
									"name": "Votes_District1",
									"type": "uint256"
								},
								{
									"internalType": "uint256",
									"name": "Votes_District2",
									"type": "uint256"
								},
								{
									"internalType": "uint256",
									"name": "Votes_District3",
									"type": "uint256"
								},
								{
									"internalType": "uint256",
									"name": "Votes_District4",
									"type": "uint256"
								},
								{
									"internalType": "uint256",
									"name": "Votes_District5",
									"type": "uint256"
								},
								{
									"internalType": "uint256",
									"name": "Votes_District6",
									"type": "uint256"
								},
								{
									"internalType": "uint256",
									"name": "Votes_District7",
									"type": "uint256"
								},
								{
									"internalType": "uint256",
									"name": "Votes_District8",
									"type": "uint256"
								},
								{
									"internalType": "uint256",
									"name": "Votes_District9",
									"type": "uint256"
								}
							],
							"internalType": "struct Ballot.Proposal",
							"name": "",
							"type": "tuple"
						}
					],
					"stateMutability": "view",
					"type": "function"
				},
				{
					"inputs": [],
					"name": "vote",
					"outputs": [],
					"stateMutability": "nonpayable",
					"type": "function"
				},
				{
					"inputs": [
						{
							"internalType": "address",
							"name": "",
							"type": "address"
						}
					],
					"name": "voters",
					"outputs": [
						{
							"internalType": "uint256",
							"name": "weight",
							"type": "uint256"
						},
						{
							"internalType": "bool",
							"name": "voted",
							"type": "bool"
						},
						{
							"internalType": "uint256",
							"name": "district",
							"type": "uint256"
						},
						{
							"internalType": "uint256",
							"name": "vote",
							"type": "uint256"
						}
					],
					"stateMutability": "view",
					"type": "function"
				}
			],
			"devdoc": {
				"details": "Implements voting process along with vote delegation",
				"kind": "dev",
				"methods": {},
				"title": "Ballot",
				"version": 1
			},
			"evm": {
				"assembly": "    /* \"smartContract/contracts/3_Ballot.sol\":157:4304  contract Ballot {... */\n  mstore(0x40, 0x80)\n    /* \"smartContract/contracts/3_Ballot.sol\":2100:2101  0 */\n  0x00\n    /* \"smartContract/contracts/3_Ballot.sol\":2079:2101  int private countV = 0 */\n  0x03\n  sstore\n    /* \"smartContract/contracts/3_Ballot.sol\":2193:2194  0 */\n  0x00\n    /* \"smartContract/contracts/3_Ballot.sol\":2172:2194  int private count2 = 0 */\n  0x04\n  sstore\n    /* \"smartContract/contracts/3_Ballot.sol\":1195:2037  constructor() {... */\n  callvalue\n  dup1\n  iszero\n  tag_1\n  jumpi\n  0x00\n  dup1\n  revert\ntag_1:\n  pop\n    /* \"smartContract/contracts/3_Ballot.sol\":1233:1243  msg.sender */\n  caller\n    /* \"smartContract/contracts/3_Ballot.sol\":1219:1230  chairperson */\n  0x00\n  dup1\n    /* \"smartContract/contracts/3_Ballot.sol\":1219:1243  chairperson = msg.sender */\n  0x0100\n  exp\n  dup2\n  sload\n  dup2\n  0xffffffffffffffffffffffffffffffffffffffff\n  mul\n  not\n  and\n  swap1\n  dup4\n  0xffffffffffffffffffffffffffffffffffffffff\n  and\n  mul\n  or\n  swap1\n  sstore\n  pop\n    /* \"smartContract/contracts/3_Ballot.sol\":1282:1283  1 */\n  0x01\n    /* \"smartContract/contracts/3_Ballot.sol\":1253:1259  voters */\n  dup1\n    /* \"smartContract/contracts/3_Ballot.sol\":1253:1272  voters[chairperson] */\n  0x00\n    /* \"smartContract/contracts/3_Ballot.sol\":1260:1271  chairperson */\n  dup1\n  0x00\n  swap1\n  sload\n  swap1\n  0x0100\n  exp\n  swap1\n  div\n  0xffffffffffffffffffffffffffffffffffffffff\n  and\n    /* \"smartContract/contracts/3_Ballot.sol\":1253:1272  voters[chairperson] */\n  0xffffffffffffffffffffffffffffffffffffffff\n  and\n  0xffffffffffffffffffffffffffffffffffffffff\n  and\n  dup2\n  mstore\n  0x20\n  add\n  swap1\n  dup2\n  mstore\n  0x20\n  add\n  0x00\n  keccak256\n    /* \"smartContract/contracts/3_Ballot.sol\":1253:1279  voters[chairperson].weight */\n  0x00\n  add\n    /* \"smartContract/contracts/3_Ballot.sol\":1253:1283  voters[chairperson].weight = 1 */\n  dup2\n  swap1\n  sstore\n  pop\n    /* \"smartContract/contracts/3_Ballot.sol\":1293:1323  string[5] memory proposalNames */\n  0x00\n    /* \"smartContract/contracts/3_Ballot.sol\":1293:1347  string[5] memory proposalNames = [\"a\",\"b\",\"c\",\"d\",\"e\"] */\n  mload(0x40)\n  dup1\n  0xa0\n  add\n  0x40\n  mstore\n  dup1\n  mload(0x40)\n  dup1\n  0x40\n  add\n  0x40\n  mstore\n  dup1\n  0x01\n  dup2\n  mstore\n  0x20\n  add\n  0x6100000000000000000000000000000000000000000000000000000000000000\n  dup2\n  mstore\n  pop\n  dup2\n  mstore\n  0x20\n  add\n  mload(0x40)\n  dup1\n  0x40\n  add\n  0x40\n  mstore\n  dup1\n  0x01\n  dup2\n  mstore\n  0x20\n  add\n  0x6200000000000000000000000000000000000000000000000000000000000000\n  dup2\n  mstore\n  pop\n  dup2\n  mstore\n  0x20\n  add\n  mload(0x40)\n  dup1\n  0x40\n  add\n  0x40\n  mstore\n  dup1\n  0x01\n  dup2\n  mstore\n  0x20\n  add\n  0x6300000000000000000000000000000000000000000000000000000000000000\n  dup2\n  mstore\n  pop\n  dup2\n  mstore\n  0x20\n  add\n  mload(0x40)\n  dup1\n  0x40\n  add\n  0x40\n  mstore\n  dup1\n  0x01\n  dup2\n  mstore\n  0x20\n  add\n  0x6400000000000000000000000000000000000000000000000000000000000000\n  dup2\n  mstore\n  pop\n  dup2\n  mstore\n  0x20\n  add\n  mload(0x40)\n  dup1\n  0x40\n  add\n  0x40\n  mstore\n  dup1\n  0x01\n  dup2\n  mstore\n  0x20\n  add\n  0x6500000000000000000000000000000000000000000000000000000000000000\n  dup2\n  mstore\n  pop\n  dup2\n  mstore\n  pop\n  swap1\n  pop\n    /* \"smartContract/contracts/3_Ballot.sol\":1387:1388  5 */\n  0x05\n    /* \"smartContract/contracts/3_Ballot.sol\":1365:1385  proposalNames.length */\n  dup1\n    /* \"smartContract/contracts/3_Ballot.sol\":1365:1388  proposalNames.length==5 */\n  eq\n    /* \"smartContract/contracts/3_Ballot.sol\":1357:1413  require(proposalNames.length==5,\"Candidates must be 5.\") */\n  tag_4\n  jumpi\n  mload(0x40)\n  0x08c379a000000000000000000000000000000000000000000000000000000000\n  dup2\n  mstore\n  0x04\n  add\n  tag_5\n  swap1\n  tag_6\n  jump\t// in\ntag_5:\n  mload(0x40)\n  dup1\n  swap2\n  sub\n  swap1\n  revert\ntag_4:\n    /* \"smartContract/contracts/3_Ballot.sol\":1428:1434  uint i */\n  0x00\n    /* \"smartContract/contracts/3_Ballot.sol\":1423:2031  for (uint i = 0; i < proposalNames.length; i++) {... */\ntag_7:\n    /* \"smartContract/contracts/3_Ballot.sol\":1444:1464  proposalNames.length */\n  0x05\n    /* \"smartContract/contracts/3_Ballot.sol\":1440:1441  i */\n  dup2\n    /* \"smartContract/contracts/3_Ballot.sol\":1440:1464  i < proposalNames.length */\n  lt\n    /* \"smartContract/contracts/3_Ballot.sol\":1423:2031  for (uint i = 0; i < proposalNames.length; i++) {... */\n  iszero\n  tag_8\n  jumpi\n    /* \"smartContract/contracts/3_Ballot.sol\":1485:1494  proposals */\n  0x02\n    /* \"smartContract/contracts/3_Ballot.sol\":1500:2019  Proposal({... */\n  mload(0x40)\n  dup1\n  0x0180\n  add\n  0x40\n  mstore\n  dup1\n    /* \"smartContract/contracts/3_Ballot.sol\":1533:1546  proposalNames */\n  dup5\n    /* \"smartContract/contracts/3_Ballot.sol\":1547:1548  i */\n  dup5\n    /* \"smartContract/contracts/3_Ballot.sol\":1533:1549  proposalNames[i] */\n  0x05\n  dup2\n  lt\n  tag_10\n  jumpi\n  tag_11\n  tag_12\n  jump\t// in\ntag_11:\ntag_10:\n  0x20\n  mul\n  add\n  mload\n    /* \"smartContract/contracts/3_Ballot.sol\":1500:2019  Proposal({... */\n  dup2\n  mstore\n  0x20\n  add\n    /* \"smartContract/contracts/3_Ballot.sol\":1643:1644  0 */\n  0x00\n    /* \"smartContract/contracts/3_Ballot.sol\":1500:2019  Proposal({... */\n  dup2\n  mstore\n  0x20\n  add\n    /* \"smartContract/contracts/3_Ballot.sol\":1679:1680  0 */\n  0x00\n    /* \"smartContract/contracts/3_Ballot.sol\":1500:2019  Proposal({... */\n  dup2\n  mstore\n  0x20\n  add\n    /* \"smartContract/contracts/3_Ballot.sol\":1715:1716  0 */\n  0x00\n    /* \"smartContract/contracts/3_Ballot.sol\":1500:2019  Proposal({... */\n  dup2\n  mstore\n  0x20\n  add\n    /* \"smartContract/contracts/3_Ballot.sol\":1751:1752  0 */\n  0x00\n    /* \"smartContract/contracts/3_Ballot.sol\":1500:2019  Proposal({... */\n  dup2\n  mstore\n  0x20\n  add\n    /* \"smartContract/contracts/3_Ballot.sol\":1787:1788  0 */\n  0x00\n    /* \"smartContract/contracts/3_Ballot.sol\":1500:2019  Proposal({... */\n  dup2\n  mstore\n  0x20\n  add\n    /* \"smartContract/contracts/3_Ballot.sol\":1823:1824  0 */\n  0x00\n    /* \"smartContract/contracts/3_Ballot.sol\":1500:2019  Proposal({... */\n  dup2\n  mstore\n  0x20\n  add\n    /* \"smartContract/contracts/3_Ballot.sol\":1859:1860  0 */\n  0x00\n    /* \"smartContract/contracts/3_Ballot.sol\":1500:2019  Proposal({... */\n  dup2\n  mstore\n  0x20\n  add\n    /* \"smartContract/contracts/3_Ballot.sol\":1895:1896  0 */\n  0x00\n    /* \"smartContract/contracts/3_Ballot.sol\":1500:2019  Proposal({... */\n  dup2\n  mstore\n  0x20\n  add\n    /* \"smartContract/contracts/3_Ballot.sol\":1931:1932  0 */\n  0x00\n    /* \"smartContract/contracts/3_Ballot.sol\":1500:2019  Proposal({... */\n  dup2\n  mstore\n  0x20\n  add\n    /* \"smartContract/contracts/3_Ballot.sol\":1967:1968  0 */\n  0x00\n    /* \"smartContract/contracts/3_Ballot.sol\":1500:2019  Proposal({... */\n  dup2\n  mstore\n  0x20\n  add\n    /* \"smartContract/contracts/3_Ballot.sol\":2003:2004  0 */\n  0x00\n    /* \"smartContract/contracts/3_Ballot.sol\":1500:2019  Proposal({... */\n  dup2\n  mstore\n  pop\n    /* \"smartContract/contracts/3_Ballot.sol\":1485:2020  proposals.push(Proposal({... */\n  swap1\n  dup1\n  0x01\n  dup2\n  sload\n  add\n  dup1\n  dup3\n  sstore\n  dup1\n  swap2\n  pop\n  pop\n  0x01\n  swap1\n  sub\n  swap1\n  0x00\n  mstore\n  keccak256(0x00, 0x20)\n  swap1\n  0x0c\n  mul\n  add\n  0x00\n  swap1\n  swap2\n  swap1\n  swap2\n  swap1\n  swap2\n  pop\n  0x00\n  dup3\n  add\n  mload\n  dup2\n  0x00\n  add\n  swap1\n  dup1\n  mload\n  swap1\n  0x20\n  add\n  swap1\n  tag_14\n  swap3\n  swap2\n  swap1\n  tag_15\n  jump\t// in\ntag_14:\n  pop\n  0x20\n  dup3\n  add\n  mload\n  dup2\n  0x01\n  add\n  sstore\n  0x40\n  dup3\n  add\n  mload\n  dup2\n  0x02\n  add\n  sstore\n  0x60\n  dup3\n  add\n  mload\n  dup2\n  0x03\n  add\n  sstore\n  0x80\n  dup3\n  add\n  mload\n  dup2\n  0x04\n  add\n  sstore\n  0xa0\n  dup3\n  add\n  mload\n  dup2\n  0x05\n  add\n  sstore\n  0xc0\n  dup3\n  add\n  mload\n  dup2\n  0x06\n  add\n  sstore\n  0xe0\n  dup3\n  add\n  mload\n  dup2\n  0x07\n  add\n  sstore\n  0x0100\n  dup3\n  add\n  mload\n  dup2\n  0x08\n  add\n  sstore\n  0x0120\n  dup3\n  add\n  mload\n  dup2\n  0x09\n  add\n  sstore\n  0x0140\n  dup3\n  add\n  mload\n  dup2\n  0x0a\n  add\n  sstore\n  0x0160\n  dup3\n  add\n  mload\n  dup2\n  0x0b\n  add\n  sstore\n  pop\n  pop\n    /* \"smartContract/contracts/3_Ballot.sol\":1466:1469  i++ */\n  dup1\n  dup1\n  tag_16\n  swap1\n  tag_17\n  jump\t// in\ntag_16:\n  swap2\n  pop\n  pop\n    /* \"smartContract/contracts/3_Ballot.sol\":1423:2031  for (uint i = 0; i < proposalNames.length; i++) {... */\n  jump(tag_7)\ntag_8:\n  pop\n    /* \"smartContract/contracts/3_Ballot.sol\":1209:2037  {... */\n  pop\n    /* \"smartContract/contracts/3_Ballot.sol\":157:4304  contract Ballot {... */\n  jump(tag_18)\ntag_15:\n  dup3\n  dup1\n  sload\n  tag_19\n  swap1\n  tag_20\n  jump\t// in\ntag_19:\n  swap1\n  0x00\n  mstore\n  keccak256(0x00, 0x20)\n  swap1\n  0x1f\n  add\n  0x20\n  swap1\n  div\n  dup2\n  add\n  swap3\n  dup3\n  tag_22\n  jumpi\n  0x00\n  dup6\n  sstore\n  jump(tag_21)\ntag_22:\n  dup3\n  0x1f\n  lt\n  tag_23\n  jumpi\n  dup1\n  mload\n  not(0xff)\n  and\n  dup4\n  dup1\n  add\n  or\n  dup6\n  sstore\n  jump(tag_21)\ntag_23:\n  dup3\n  dup1\n  add\n  0x01\n  add\n  dup6\n  sstore\n  dup3\n  iszero\n  tag_21\n  jumpi\n  swap2\n  dup3\n  add\ntag_24:\n  dup3\n  dup2\n  gt\n  iszero\n  tag_25\n  jumpi\n  dup3\n  mload\n  dup3\n  sstore\n  swap2\n  0x20\n  add\n  swap2\n  swap1\n  0x01\n  add\n  swap1\n  jump(tag_24)\ntag_25:\ntag_21:\n  pop\n  swap1\n  pop\n  tag_26\n  swap2\n  swap1\n  tag_27\n  jump\t// in\ntag_26:\n  pop\n  swap1\n  jump\t// out\ntag_27:\ntag_28:\n  dup1\n  dup3\n  gt\n  iszero\n  tag_29\n  jumpi\n  0x00\n  dup2\n  0x00\n  swap1\n  sstore\n  pop\n  0x01\n  add\n  jump(tag_28)\ntag_29:\n  pop\n  swap1\n  jump\t// out\n    /* \"#utility.yul\":7:373   */\ntag_31:\n    /* \"#utility.yul\":149:152   */\n  0x00\n    /* \"#utility.yul\":170:237   */\n  tag_33\n    /* \"#utility.yul\":234:236   */\n  0x15\n    /* \"#utility.yul\":229:232   */\n  dup4\n    /* \"#utility.yul\":170:237   */\n  tag_34\n  jump\t// in\ntag_33:\n    /* \"#utility.yul\":163:237   */\n  swap2\n  pop\n    /* \"#utility.yul\":246:339   */\n  tag_35\n    /* \"#utility.yul\":335:338   */\n  dup3\n    /* \"#utility.yul\":246:339   */\n  tag_36\n  jump\t// in\ntag_35:\n    /* \"#utility.yul\":364:366   */\n  0x20\n    /* \"#utility.yul\":359:362   */\n  dup3\n    /* \"#utility.yul\":355:367   */\n  add\n    /* \"#utility.yul\":348:367   */\n  swap1\n  pop\n    /* \"#utility.yul\":7:373   */\n  swap2\n  swap1\n  pop\n  jump\t// out\n    /* \"#utility.yul\":379:798   */\ntag_6:\n    /* \"#utility.yul\":545:549   */\n  0x00\n    /* \"#utility.yul\":583:585   */\n  0x20\n    /* \"#utility.yul\":572:581   */\n  dup3\n    /* \"#utility.yul\":568:586   */\n  add\n    /* \"#utility.yul\":560:586   */\n  swap1\n  pop\n    /* \"#utility.yul\":632:641   */\n  dup2\n    /* \"#utility.yul\":626:630   */\n  dup2\n    /* \"#utility.yul\":622:642   */\n  sub\n    /* \"#utility.yul\":618:619   */\n  0x00\n    /* \"#utility.yul\":607:616   */\n  dup4\n    /* \"#utility.yul\":603:620   */\n  add\n    /* \"#utility.yul\":596:643   */\n  mstore\n    /* \"#utility.yul\":660:791   */\n  tag_38\n    /* \"#utility.yul\":786:790   */\n  dup2\n    /* \"#utility.yul\":660:791   */\n  tag_31\n  jump\t// in\ntag_38:\n    /* \"#utility.yul\":652:791   */\n  swap1\n  pop\n    /* \"#utility.yul\":379:798   */\n  swap2\n  swap1\n  pop\n  jump\t// out\n    /* \"#utility.yul\":804:973   */\ntag_34:\n    /* \"#utility.yul\":888:899   */\n  0x00\n    /* \"#utility.yul\":922:928   */\n  dup3\n    /* \"#utility.yul\":917:920   */\n  dup3\n    /* \"#utility.yul\":910:929   */\n  mstore\n    /* \"#utility.yul\":962:966   */\n  0x20\n    /* \"#utility.yul\":957:960   */\n  dup3\n    /* \"#utility.yul\":953:967   */\n  add\n    /* \"#utility.yul\":938:967   */\n  swap1\n  pop\n    /* \"#utility.yul\":804:973   */\n  swap3\n  swap2\n  pop\n  pop\n  jump\t// out\n    /* \"#utility.yul\":979:1056   */\ntag_40:\n    /* \"#utility.yul\":1016:1023   */\n  0x00\n    /* \"#utility.yul\":1045:1050   */\n  dup2\n    /* \"#utility.yul\":1034:1050   */\n  swap1\n  pop\n    /* \"#utility.yul\":979:1056   */\n  swap2\n  swap1\n  pop\n  jump\t// out\n    /* \"#utility.yul\":1062:1382   */\ntag_20:\n    /* \"#utility.yul\":1106:1112   */\n  0x00\n    /* \"#utility.yul\":1143:1144   */\n  0x02\n    /* \"#utility.yul\":1137:1141   */\n  dup3\n    /* \"#utility.yul\":1133:1145   */\n  div\n    /* \"#utility.yul\":1123:1145   */\n  swap1\n  pop\n    /* \"#utility.yul\":1190:1191   */\n  0x01\n    /* \"#utility.yul\":1184:1188   */\n  dup3\n    /* \"#utility.yul\":1180:1192   */\n  and\n    /* \"#utility.yul\":1211:1229   */\n  dup1\n    /* \"#utility.yul\":1201:1282   */\n  tag_43\n  jumpi\n    /* \"#utility.yul\":1267:1271   */\n  0x7f\n    /* \"#utility.yul\":1259:1265   */\n  dup3\n    /* \"#utility.yul\":1255:1272   */\n  and\n    /* \"#utility.yul\":1245:1272   */\n  swap2\n  pop\n    /* \"#utility.yul\":1201:1282   */\ntag_43:\n    /* \"#utility.yul\":1329:1331   */\n  0x20\n    /* \"#utility.yul\":1321:1327   */\n  dup3\n    /* \"#utility.yul\":1318:1332   */\n  lt\n    /* \"#utility.yul\":1298:1316   */\n  dup2\n    /* \"#utility.yul\":1295:1333   */\n  eq\n    /* \"#utility.yul\":1292:1376   */\n  iszero\n  tag_44\n  jumpi\n    /* \"#utility.yul\":1348:1366   */\n  tag_45\n  tag_46\n  jump\t// in\ntag_45:\n    /* \"#utility.yul\":1292:1376   */\ntag_44:\n    /* \"#utility.yul\":1113:1382   */\n  pop\n    /* \"#utility.yul\":1062:1382   */\n  swap2\n  swap1\n  pop\n  jump\t// out\n    /* \"#utility.yul\":1388:1621   */\ntag_17:\n    /* \"#utility.yul\":1427:1430   */\n  0x00\n    /* \"#utility.yul\":1450:1474   */\n  tag_48\n    /* \"#utility.yul\":1468:1473   */\n  dup3\n    /* \"#utility.yul\":1450:1474   */\n  tag_40\n  jump\t// in\ntag_48:\n    /* \"#utility.yul\":1441:1474   */\n  swap2\n  pop\n    /* \"#utility.yul\":1496:1562   */\n  0xffffffffffffffffffffffffffffffffffffffffffffffffffffffffffffffff\n    /* \"#utility.yul\":1489:1494   */\n  dup3\n    /* \"#utility.yul\":1486:1563   */\n  eq\n    /* \"#utility.yul\":1483:1586   */\n  iszero\n  tag_49\n  jumpi\n    /* \"#utility.yul\":1566:1584   */\n  tag_50\n  tag_51\n  jump\t// in\ntag_50:\n    /* \"#utility.yul\":1483:1586   */\ntag_49:\n    /* \"#utility.yul\":1613:1614   */\n  0x01\n    /* \"#utility.yul\":1606:1611   */\n  dup3\n    /* \"#utility.yul\":1602:1615   */\n  add\n    /* \"#utility.yul\":1595:1615   */\n  swap1\n  pop\n    /* \"#utility.yul\":1388:1621   */\n  swap2\n  swap1\n  pop\n  jump\t// out\n    /* \"#utility.yul\":1627:1807   */\ntag_51:\n    /* \"#utility.yul\":1675:1752   */\n  0x4e487b7100000000000000000000000000000000000000000000000000000000\n    /* \"#utility.yul\":1672:1673   */\n  0x00\n    /* \"#utility.yul\":1665:1753   */\n  mstore\n    /* \"#utility.yul\":1772:1776   */\n  0x11\n    /* \"#utility.yul\":1769:1770   */\n  0x04\n    /* \"#utility.yul\":1762:1777   */\n  mstore\n    /* \"#utility.yul\":1796:1800   */\n  0x24\n    /* \"#utility.yul\":1793:1794   */\n  0x00\n    /* \"#utility.yul\":1786:1801   */\n  revert\n    /* \"#utility.yul\":1813:1993   */\ntag_46:\n    /* \"#utility.yul\":1861:1938   */\n  0x4e487b7100000000000000000000000000000000000000000000000000000000\n    /* \"#utility.yul\":1858:1859   */\n  0x00\n    /* \"#utility.yul\":1851:1939   */\n  mstore\n    /* \"#utility.yul\":1958:1962   */\n  0x22\n    /* \"#utility.yul\":1955:1956   */\n  0x04\n    /* \"#utility.yul\":1948:1963   */\n  mstore\n    /* \"#utility.yul\":1982:1986   */\n  0x24\n    /* \"#utility.yul\":1979:1980   */\n  0x00\n    /* \"#utility.yul\":1972:1987   */\n  revert\n    /* \"#utility.yul\":1999:2179   */\ntag_12:\n    /* \"#utility.yul\":2047:2124   */\n  0x4e487b7100000000000000000000000000000000000000000000000000000000\n    /* \"#utility.yul\":2044:2045   */\n  0x00\n    /* \"#utility.yul\":2037:2125   */\n  mstore\n    /* \"#utility.yul\":2144:2148   */\n  0x32\n    /* \"#utility.yul\":2141:2142   */\n  0x04\n    /* \"#utility.yul\":2134:2149   */\n  mstore\n    /* \"#utility.yul\":2168:2172   */\n  0x24\n    /* \"#utility.yul\":2165:2166   */\n  0x00\n    /* \"#utility.yul\":2158:2173   */\n  revert\n    /* \"#utility.yul\":2185:2356   */\ntag_36:\n    /* \"#utility.yul\":2325:2348   */\n  0x43616e64696461746573206d75737420626520352e0000000000000000000000\n    /* \"#utility.yul\":2321:2322   */\n  0x00\n    /* \"#utility.yul\":2313:2319   */\n  dup3\n    /* \"#utility.yul\":2309:2323   */\n  add\n    /* \"#utility.yul\":2302:2349   */\n  mstore\n    /* \"#utility.yul\":2185:2356   */\n  pop\n  jump\t// out\n    /* \"smartContract/contracts/3_Ballot.sol\":157:4304  contract Ballot {... */\ntag_18:\n  dataSize(sub_0)\n  dup1\n  dataOffset(sub_0)\n  0x00\n  codecopy\n  0x00\n  return\nstop\n\nsub_0: assembly {\n        /* \"smartContract/contracts/3_Ballot.sol\":157:4304  contract Ballot {... */\n      mstore(0x40, 0x80)\n      callvalue\n      dup1\n      iszero\n      tag_1\n      jumpi\n      0x00\n      dup1\n      revert\n    tag_1:\n      pop\n      jumpi(tag_2, lt(calldatasize, 0x04))\n      shr(0xe0, calldataload(0x00))\n      dup1\n      0x632a9a52\n      eq\n      tag_3\n      jumpi\n      dup1\n      0xa3ec138d\n      eq\n      tag_4\n      jumpi\n      dup1\n      0xd4e8fd2e\n      eq\n      tag_5\n      jumpi\n    tag_2:\n      0x00\n      dup1\n      revert\n        /* \"smartContract/contracts/3_Ballot.sol\":2455:4199  function vote() public {... */\n    tag_3:\n      tag_6\n      tag_7\n      jump\t// in\n    tag_6:\n      stop\n        /* \"smartContract/contracts/3_Ballot.sol\":814:853  mapping(address => Voter) public voters */\n    tag_4:\n      tag_8\n      0x04\n      dup1\n      calldatasize\n      sub\n      dup2\n      add\n      swap1\n      tag_9\n      swap2\n      swap1\n      tag_10\n      jump\t// in\n    tag_9:\n      tag_11\n      jump\t// in\n    tag_8:\n      mload(0x40)\n      tag_12\n      swap5\n      swap4\n      swap3\n      swap2\n      swap1\n      tag_13\n      jump\t// in\n    tag_12:\n      mload(0x40)\n      dup1\n      swap2\n      sub\n      swap1\n      return\n        /* \"smartContract/contracts/3_Ballot.sol\":4205:4302  function res(uint _id) public view returns(Proposal memory){... */\n    tag_5:\n      tag_14\n      0x04\n      dup1\n      calldatasize\n      sub\n      dup2\n      add\n      swap1\n      tag_15\n      swap2\n      swap1\n      tag_16\n      jump\t// in\n    tag_15:\n      tag_17\n      jump\t// in\n    tag_14:\n      mload(0x40)\n      tag_18\n      swap2\n      swap1\n      tag_19\n      jump\t// in\n    tag_18:\n      mload(0x40)\n      dup1\n      swap2\n      sub\n      swap1\n      return\n        /* \"smartContract/contracts/3_Ballot.sol\":2455:4199  function vote() public {... */\n    tag_7:\n        /* \"smartContract/contracts/3_Ballot.sol\":2498:2504  voters */\n      0x01\n        /* \"smartContract/contracts/3_Ballot.sol\":2498:2516  voters[msg.sender] */\n      0x00\n        /* \"smartContract/contracts/3_Ballot.sol\":2505:2515  msg.sender */\n      caller\n        /* \"smartContract/contracts/3_Ballot.sol\":2498:2516  voters[msg.sender] */\n      0xffffffffffffffffffffffffffffffffffffffff\n      and\n      0xffffffffffffffffffffffffffffffffffffffff\n      and\n      dup2\n      mstore\n      0x20\n      add\n      swap1\n      dup2\n      mstore\n      0x20\n      add\n      0x00\n      keccak256\n        /* \"smartContract/contracts/3_Ballot.sol\":2498:2522  voters[msg.sender].voted */\n      0x01\n      add\n      0x00\n      swap1\n      sload\n      swap1\n      0x0100\n      exp\n      swap1\n      div\n      0xff\n      and\n        /* \"smartContract/contracts/3_Ballot.sol\":2497:2522  !voters[msg.sender].voted */\n      iszero\n        /* \"smartContract/contracts/3_Ballot.sol\":2489:2563  require(!voters[msg.sender].voted,... */\n      tag_21\n      jumpi\n      mload(0x40)\n      0x08c379a000000000000000000000000000000000000000000000000000000000\n      dup2\n      mstore\n      0x04\n      add\n      tag_22\n      swap1\n      tag_23\n      jump\t// in\n    tag_22:\n      mload(0x40)\n      dup1\n      swap2\n      sub\n      swap1\n      revert\n    tag_21:\n        /* \"smartContract/contracts/3_Ballot.sol\":2611:2612  0 */\n      0x00\n        /* \"smartContract/contracts/3_Ballot.sol\":2582:2588  voters */\n      0x01\n        /* \"smartContract/contracts/3_Ballot.sol\":2582:2600  voters[msg.sender] */\n      0x00\n        /* \"smartContract/contracts/3_Ballot.sol\":2589:2599  msg.sender */\n      caller\n        /* \"smartContract/contracts/3_Ballot.sol\":2582:2600  voters[msg.sender] */\n      0xffffffffffffffffffffffffffffffffffffffff\n      and\n      0xffffffffffffffffffffffffffffffffffffffff\n      and\n      dup2\n      mstore\n      0x20\n      add\n      swap1\n      dup2\n      mstore\n      0x20\n      add\n      0x00\n      keccak256\n        /* \"smartContract/contracts/3_Ballot.sol\":2582:2607  voters[msg.sender].weight */\n      0x00\n      add\n      sload\n        /* \"smartContract/contracts/3_Ballot.sol\":2582:2612  voters[msg.sender].weight == 0 */\n      eq\n        /* \"smartContract/contracts/3_Ballot.sol\":2574:2613  require(voters[msg.sender].weight == 0) */\n      tag_24\n      jumpi\n      0x00\n      dup1\n      revert\n    tag_24:\n        /* \"smartContract/contracts/3_Ballot.sol\":2651:2652  1 */\n      0x01\n        /* \"smartContract/contracts/3_Ballot.sol\":2623:2629  voters */\n      dup1\n        /* \"smartContract/contracts/3_Ballot.sol\":2623:2641  voters[msg.sender] */\n      0x00\n        /* \"smartContract/contracts/3_Ballot.sol\":2630:2640  msg.sender */\n      caller\n        /* \"smartContract/contracts/3_Ballot.sol\":2623:2641  voters[msg.sender] */\n      0xffffffffffffffffffffffffffffffffffffffff\n      and\n      0xffffffffffffffffffffffffffffffffffffffff\n      and\n      dup2\n      mstore\n      0x20\n      add\n      swap1\n      dup2\n      mstore\n      0x20\n      add\n      0x00\n      keccak256\n        /* \"smartContract/contracts/3_Ballot.sol\":2623:2648  voters[msg.sender].weight */\n      0x00\n      add\n        /* \"smartContract/contracts/3_Ballot.sol\":2623:2652  voters[msg.sender].weight = 1 */\n      dup2\n      swap1\n      sstore\n      pop\n        /* \"smartContract/contracts/3_Ballot.sol\":2678:2681  100 */\n      0x64\n        /* \"smartContract/contracts/3_Ballot.sol\":2670:2676  countV */\n      sload(0x03)\n        /* \"smartContract/contracts/3_Ballot.sol\":2670:2681  countV<=100 */\n      sgt\n      iszero\n        /* \"smartContract/contracts/3_Ballot.sol\":2662:2704  require(countV<=100,\"Reached max voters.\") */\n      tag_25\n      jumpi\n      mload(0x40)\n      0x08c379a000000000000000000000000000000000000000000000000000000000\n      dup2\n      mstore\n      0x04\n      add\n      tag_26\n      swap1\n      tag_27\n      jump\t// in\n    tag_26:\n      mload(0x40)\n      dup1\n      swap2\n      sub\n      swap1\n      revert\n    tag_25:\n        /* \"smartContract/contracts/3_Ballot.sol\":2743:2760  random_district() */\n      tag_28\n        /* \"smartContract/contracts/3_Ballot.sol\":2743:2758  random_district */\n      tag_29\n        /* \"smartContract/contracts/3_Ballot.sol\":2743:2760  random_district() */\n      jump\t// in\n    tag_28:\n        /* \"smartContract/contracts/3_Ballot.sol\":2715:2721  voters */\n      0x01\n        /* \"smartContract/contracts/3_Ballot.sol\":2715:2733  voters[msg.sender] */\n      0x00\n        /* \"smartContract/contracts/3_Ballot.sol\":2722:2732  msg.sender */\n      caller\n        /* \"smartContract/contracts/3_Ballot.sol\":2715:2733  voters[msg.sender] */\n      0xffffffffffffffffffffffffffffffffffffffff\n      and\n      0xffffffffffffffffffffffffffffffffffffffff\n      and\n      dup2\n      mstore\n      0x20\n      add\n      swap1\n      dup2\n      mstore\n      0x20\n      add\n      0x00\n      keccak256\n        /* \"smartContract/contracts/3_Ballot.sol\":2715:2742  voters[msg.sender].district */\n      0x02\n      add\n        /* \"smartContract/contracts/3_Ballot.sol\":2715:2760  voters[msg.sender].district=random_district() */\n      dup2\n      swap1\n      sstore\n      pop\n        /* \"smartContract/contracts/3_Ballot.sol\":2771:2791  Voter storage sender */\n      0x00\n        /* \"smartContract/contracts/3_Ballot.sol\":2794:2800  voters */\n      0x01\n        /* \"smartContract/contracts/3_Ballot.sol\":2794:2812  voters[msg.sender] */\n      0x00\n        /* \"smartContract/contracts/3_Ballot.sol\":2801:2811  msg.sender */\n      caller\n        /* \"smartContract/contracts/3_Ballot.sol\":2794:2812  voters[msg.sender] */\n      0xffffffffffffffffffffffffffffffffffffffff\n      and\n      0xffffffffffffffffffffffffffffffffffffffff\n      and\n      dup2\n      mstore\n      0x20\n      add\n      swap1\n      dup2\n      mstore\n      0x20\n      add\n      0x00\n      keccak256\n        /* \"smartContract/contracts/3_Ballot.sol\":2771:2812  Voter storage sender = voters[msg.sender] */\n      swap1\n      pop\n        /* \"smartContract/contracts/3_Ballot.sol\":2945:2951  sender */\n      dup1\n        /* \"smartContract/contracts/3_Ballot.sol\":2945:2957  sender.voted */\n      0x01\n      add\n      0x00\n      swap1\n      sload\n      swap1\n      0x0100\n      exp\n      swap1\n      div\n      0xff\n      and\n        /* \"smartContract/contracts/3_Ballot.sol\":2944:2957  !sender.voted */\n      iszero\n        /* \"smartContract/contracts/3_Ballot.sol\":2936:2976  require(!sender.voted, \"Already voted.\") */\n      tag_30\n      jumpi\n      mload(0x40)\n      0x08c379a000000000000000000000000000000000000000000000000000000000\n      dup2\n      mstore\n      0x04\n      add\n      tag_31\n      swap1\n      tag_32\n      jump\t// in\n    tag_31:\n      mload(0x40)\n      dup1\n      swap2\n      sub\n      swap1\n      revert\n    tag_30:\n        /* \"smartContract/contracts/3_Ballot.sol\":3001:3005  true */\n      0x01\n        /* \"smartContract/contracts/3_Ballot.sol\":2986:2992  sender */\n      dup2\n        /* \"smartContract/contracts/3_Ballot.sol\":2986:2998  sender.voted */\n      0x01\n      add\n      0x00\n        /* \"smartContract/contracts/3_Ballot.sol\":2986:3005  sender.voted = true */\n      0x0100\n      exp\n      dup2\n      sload\n      dup2\n      0xff\n      mul\n      not\n      and\n      swap1\n      dup4\n      iszero\n      iszero\n      mul\n      or\n      swap1\n      sstore\n      pop\n        /* \"smartContract/contracts/3_Ballot.sol\":3030:3043  random_vote() */\n      tag_33\n        /* \"smartContract/contracts/3_Ballot.sol\":3030:3041  random_vote */\n      tag_34\n        /* \"smartContract/contracts/3_Ballot.sol\":3030:3043  random_vote() */\n      jump\t// in\n    tag_33:\n        /* \"smartContract/contracts/3_Ballot.sol\":3016:3022  sender */\n      dup2\n        /* \"smartContract/contracts/3_Ballot.sol\":3016:3027  sender.vote */\n      0x03\n      add\n        /* \"smartContract/contracts/3_Ballot.sol\":3016:3043  sender.vote = random_vote() */\n      dup2\n      swap1\n      sstore\n      pop\n        /* \"smartContract/contracts/3_Ballot.sol\":3053:3066  countVoters() */\n      tag_35\n        /* \"smartContract/contracts/3_Ballot.sol\":3053:3064  countVoters */\n      tag_36\n        /* \"smartContract/contracts/3_Ballot.sol\":3053:3066  countVoters() */\n      jump\t// in\n    tag_35:\n        /* \"smartContract/contracts/3_Ballot.sol\":3125:3131  sender */\n      dup1\n        /* \"smartContract/contracts/3_Ballot.sol\":3125:3138  sender.weight */\n      0x00\n      add\n      sload\n        /* \"smartContract/contracts/3_Ballot.sol\":3085:3094  proposals */\n      0x02\n        /* \"smartContract/contracts/3_Ballot.sol\":3095:3108  random_vote() */\n      tag_37\n        /* \"smartContract/contracts/3_Ballot.sol\":3095:3106  random_vote */\n      tag_34\n        /* \"smartContract/contracts/3_Ballot.sol\":3095:3108  random_vote() */\n      jump\t// in\n    tag_37:\n        /* \"smartContract/contracts/3_Ballot.sol\":3085:3109  proposals[random_vote()] */\n      dup2\n      sload\n      dup2\n      lt\n      tag_38\n      jumpi\n      tag_39\n      tag_40\n      jump\t// in\n    tag_39:\n    tag_38:\n      swap1\n      0x00\n      mstore\n      keccak256(0x00, 0x20)\n      swap1\n      0x0c\n      mul\n      add\n        /* \"smartContract/contracts/3_Ballot.sol\":3085:3121  proposals[random_vote()].Total_Votes */\n      0x01\n      add\n      0x00\n        /* \"smartContract/contracts/3_Ballot.sol\":3085:3138  proposals[random_vote()].Total_Votes += sender.weight */\n      dup3\n      dup3\n      sload\n      tag_42\n      swap2\n      swap1\n      tag_43\n      jump\t// in\n    tag_42:\n      swap3\n      pop\n      pop\n      dup2\n      swap1\n      sstore\n      pop\n        /* \"smartContract/contracts/3_Ballot.sol\":3169:3170  0 */\n      0x00\n        /* \"smartContract/contracts/3_Ballot.sol\":3152:3158  sender */\n      dup2\n        /* \"smartContract/contracts/3_Ballot.sol\":3152:3167  sender.district */\n      0x02\n      add\n      sload\n        /* \"smartContract/contracts/3_Ballot.sol\":3152:3170  sender.district==0 */\n      eq\n        /* \"smartContract/contracts/3_Ballot.sol\":3148:4081  if (sender.district==0){proposals[random_vote()].Votes_District0 += sender.weight;}... */\n      iszero\n      tag_44\n      jumpi\n        /* \"smartContract/contracts/3_Ballot.sol\":3216:3222  sender */\n      dup1\n        /* \"smartContract/contracts/3_Ballot.sol\":3216:3229  sender.weight */\n      0x00\n      add\n      sload\n        /* \"smartContract/contracts/3_Ballot.sol\":3172:3181  proposals */\n      0x02\n        /* \"smartContract/contracts/3_Ballot.sol\":3182:3195  random_vote() */\n      tag_45\n        /* \"smartContract/contracts/3_Ballot.sol\":3182:3193  random_vote */\n      tag_34\n        /* \"smartContract/contracts/3_Ballot.sol\":3182:3195  random_vote() */\n      jump\t// in\n    tag_45:\n        /* \"smartContract/contracts/3_Ballot.sol\":3172:3196  proposals[random_vote()] */\n      dup2\n      sload\n      dup2\n      lt\n      tag_46\n      jumpi\n      tag_47\n      tag_40\n      jump\t// in\n    tag_47:\n    tag_46:\n      swap1\n      0x00\n      mstore\n      keccak256(0x00, 0x20)\n      swap1\n      0x0c\n      mul\n      add\n        /* \"smartContract/contracts/3_Ballot.sol\":3172:3212  proposals[random_vote()].Votes_District0 */\n      0x02\n      add\n      0x00\n        /* \"smartContract/contracts/3_Ballot.sol\":3172:3229  proposals[random_vote()].Votes_District0 += sender.weight */\n      dup3\n      dup3\n      sload\n      tag_49\n      swap2\n      swap1\n      tag_43\n      jump\t// in\n    tag_49:\n      swap3\n      pop\n      pop\n      dup2\n      swap1\n      sstore\n      pop\n        /* \"smartContract/contracts/3_Ballot.sol\":3148:4081  if (sender.district==0){proposals[random_vote()].Votes_District0 += sender.weight;}... */\n      jump(tag_50)\n    tag_44:\n        /* \"smartContract/contracts/3_Ballot.sol\":3266:3267  1 */\n      0x01\n        /* \"smartContract/contracts/3_Ballot.sol\":3249:3255  sender */\n      dup2\n        /* \"smartContract/contracts/3_Ballot.sol\":3249:3264  sender.district */\n      0x02\n      add\n      sload\n        /* \"smartContract/contracts/3_Ballot.sol\":3249:3267  sender.district==1 */\n      eq\n        /* \"smartContract/contracts/3_Ballot.sol\":3245:4081  if (sender.district==1){proposals[random_vote()].Votes_District1 += sender.weight;}... */\n      iszero\n      tag_51\n      jumpi\n        /* \"smartContract/contracts/3_Ballot.sol\":3313:3319  sender */\n      dup1\n        /* \"smartContract/contracts/3_Ballot.sol\":3313:3326  sender.weight */\n      0x00\n      add\n      sload\n        /* \"smartContract/contracts/3_Ballot.sol\":3269:3278  proposals */\n      0x02\n        /* \"smartContract/contracts/3_Ballot.sol\":3279:3292  random_vote() */\n      tag_52\n        /* \"smartContract/contracts/3_Ballot.sol\":3279:3290  random_vote */\n      tag_34\n        /* \"smartContract/contracts/3_Ballot.sol\":3279:3292  random_vote() */\n      jump\t// in\n    tag_52:\n        /* \"smartContract/contracts/3_Ballot.sol\":3269:3293  proposals[random_vote()] */\n      dup2\n      sload\n      dup2\n      lt\n      tag_53\n      jumpi\n      tag_54\n      tag_40\n      jump\t// in\n    tag_54:\n    tag_53:\n      swap1\n      0x00\n      mstore\n      keccak256(0x00, 0x20)\n      swap1\n      0x0c\n      mul\n      add\n        /* \"smartContract/contracts/3_Ballot.sol\":3269:3309  proposals[random_vote()].Votes_District1 */\n      0x03\n      add\n      0x00\n        /* \"smartContract/contracts/3_Ballot.sol\":3269:3326  proposals[random_vote()].Votes_District1 += sender.weight */\n      dup3\n      dup3\n      sload\n      tag_56\n      swap2\n      swap1\n      tag_43\n      jump\t// in\n    tag_56:\n      swap3\n      pop\n      pop\n      dup2\n      swap1\n      sstore\n      pop\n        /* \"smartContract/contracts/3_Ballot.sol\":3245:4081  if (sender.district==1){proposals[random_vote()].Votes_District1 += sender.weight;}... */\n      jump(tag_57)\n    tag_51:\n        /* \"smartContract/contracts/3_Ballot.sol\":3363:3364  2 */\n      0x02\n        /* \"smartContract/contracts/3_Ballot.sol\":3346:3352  sender */\n      dup2\n        /* \"smartContract/contracts/3_Ballot.sol\":3346:3361  sender.district */\n      0x02\n      add\n      sload\n        /* \"smartContract/contracts/3_Ballot.sol\":3346:3364  sender.district==2 */\n      eq\n        /* \"smartContract/contracts/3_Ballot.sol\":3342:4081  if (sender.district==2){proposals[random_vote()].Votes_District2 += sender.weight;}... */\n      iszero\n      tag_58\n      jumpi\n        /* \"smartContract/contracts/3_Ballot.sol\":3410:3416  sender */\n      dup1\n        /* \"smartContract/contracts/3_Ballot.sol\":3410:3423  sender.weight */\n      0x00\n      add\n      sload\n        /* \"smartContract/contracts/3_Ballot.sol\":3366:3375  proposals */\n      0x02\n        /* \"smartContract/contracts/3_Ballot.sol\":3376:3389  random_vote() */\n      tag_59\n        /* \"smartContract/contracts/3_Ballot.sol\":3376:3387  random_vote */\n      tag_34\n        /* \"smartContract/contracts/3_Ballot.sol\":3376:3389  random_vote() */\n      jump\t// in\n    tag_59:\n        /* \"smartContract/contracts/3_Ballot.sol\":3366:3390  proposals[random_vote()] */\n      dup2\n      sload\n      dup2\n      lt\n      tag_60\n      jumpi\n      tag_61\n      tag_40\n      jump\t// in\n    tag_61:\n    tag_60:\n      swap1\n      0x00\n      mstore\n      keccak256(0x00, 0x20)\n      swap1\n      0x0c\n      mul\n      add\n        /* \"smartContract/contracts/3_Ballot.sol\":3366:3406  proposals[random_vote()].Votes_District2 */\n      0x04\n      add\n      0x00\n        /* \"smartContract/contracts/3_Ballot.sol\":3366:3423  proposals[random_vote()].Votes_District2 += sender.weight */\n      dup3\n      dup3\n      sload\n      tag_63\n      swap2\n      swap1\n      tag_43\n      jump\t// in\n    tag_63:\n      swap3\n      pop\n      pop\n      dup2\n      swap1\n      sstore\n      pop\n        /* \"smartContract/contracts/3_Ballot.sol\":3342:4081  if (sender.district==2){proposals[random_vote()].Votes_District2 += sender.weight;}... */\n      jump(tag_64)\n    tag_58:\n        /* \"smartContract/contracts/3_Ballot.sol\":3460:3461  3 */\n      0x03\n        /* \"smartContract/contracts/3_Ballot.sol\":3443:3449  sender */\n      dup2\n        /* \"smartContract/contracts/3_Ballot.sol\":3443:3458  sender.district */\n      0x02\n      add\n      sload\n        /* \"smartContract/contracts/3_Ballot.sol\":3443:3461  sender.district==3 */\n      eq\n        /* \"smartContract/contracts/3_Ballot.sol\":3439:4081  if (sender.district==3){proposals[random_vote()].Votes_District3 += sender.weight;}... */\n      iszero\n      tag_65\n      jumpi\n        /* \"smartContract/contracts/3_Ballot.sol\":3507:3513  sender */\n      dup1\n        /* \"smartContract/contracts/3_Ballot.sol\":3507:3520  sender.weight */\n      0x00\n      add\n      sload\n        /* \"smartContract/contracts/3_Ballot.sol\":3463:3472  proposals */\n      0x02\n        /* \"smartContract/contracts/3_Ballot.sol\":3473:3486  random_vote() */\n      tag_66\n        /* \"smartContract/contracts/3_Ballot.sol\":3473:3484  random_vote */\n      tag_34\n        /* \"smartContract/contracts/3_Ballot.sol\":3473:3486  random_vote() */\n      jump\t// in\n    tag_66:\n        /* \"smartContract/contracts/3_Ballot.sol\":3463:3487  proposals[random_vote()] */\n      dup2\n      sload\n      dup2\n      lt\n      tag_67\n      jumpi\n      tag_68\n      tag_40\n      jump\t// in\n    tag_68:\n    tag_67:\n      swap1\n      0x00\n      mstore\n      keccak256(0x00, 0x20)\n      swap1\n      0x0c\n      mul\n      add\n        /* \"smartContract/contracts/3_Ballot.sol\":3463:3503  proposals[random_vote()].Votes_District3 */\n      0x05\n      add\n      0x00\n        /* \"smartContract/contracts/3_Ballot.sol\":3463:3520  proposals[random_vote()].Votes_District3 += sender.weight */\n      dup3\n      dup3\n      sload\n      tag_70\n      swap2\n      swap1\n      tag_43\n      jump\t// in\n    tag_70:\n      swap3\n      pop\n      pop\n      dup2\n      swap1\n      sstore\n      pop\n        /* \"smartContract/contracts/3_Ballot.sol\":3439:4081  if (sender.district==3){proposals[random_vote()].Votes_District3 += sender.weight;}... */\n      jump(tag_71)\n    tag_65:\n        /* \"smartContract/contracts/3_Ballot.sol\":3557:3558  4 */\n      0x04\n        /* \"smartContract/contracts/3_Ballot.sol\":3540:3546  sender */\n      dup2\n        /* \"smartContract/contracts/3_Ballot.sol\":3540:3555  sender.district */\n      0x02\n      add\n      sload\n        /* \"smartContract/contracts/3_Ballot.sol\":3540:3558  sender.district==4 */\n      eq\n        /* \"smartContract/contracts/3_Ballot.sol\":3536:4081  if (sender.district==4){proposals[random_vote()].Votes_District4 += sender.weight;}... */\n      iszero\n      tag_72\n      jumpi\n        /* \"smartContract/contracts/3_Ballot.sol\":3604:3610  sender */\n      dup1\n        /* \"smartContract/contracts/3_Ballot.sol\":3604:3617  sender.weight */\n      0x00\n      add\n      sload\n        /* \"smartContract/contracts/3_Ballot.sol\":3560:3569  proposals */\n      0x02\n        /* \"smartContract/contracts/3_Ballot.sol\":3570:3583  random_vote() */\n      tag_73\n        /* \"smartContract/contracts/3_Ballot.sol\":3570:3581  random_vote */\n      tag_34\n        /* \"smartContract/contracts/3_Ballot.sol\":3570:3583  random_vote() */\n      jump\t// in\n    tag_73:\n        /* \"smartContract/contracts/3_Ballot.sol\":3560:3584  proposals[random_vote()] */\n      dup2\n      sload\n      dup2\n      lt\n      tag_74\n      jumpi\n      tag_75\n      tag_40\n      jump\t// in\n    tag_75:\n    tag_74:\n      swap1\n      0x00\n      mstore\n      keccak256(0x00, 0x20)\n      swap1\n      0x0c\n      mul\n      add\n        /* \"smartContract/contracts/3_Ballot.sol\":3560:3600  proposals[random_vote()].Votes_District4 */\n      0x06\n      add\n      0x00\n        /* \"smartContract/contracts/3_Ballot.sol\":3560:3617  proposals[random_vote()].Votes_District4 += sender.weight */\n      dup3\n      dup3\n      sload\n      tag_77\n      swap2\n      swap1\n      tag_43\n      jump\t// in\n    tag_77:\n      swap3\n      pop\n      pop\n      dup2\n      swap1\n      sstore\n      pop\n        /* \"smartContract/contracts/3_Ballot.sol\":3536:4081  if (sender.district==4){proposals[random_vote()].Votes_District4 += sender.weight;}... */\n      jump(tag_78)\n    tag_72:\n        /* \"smartContract/contracts/3_Ballot.sol\":3654:3655  5 */\n      0x05\n        /* \"smartContract/contracts/3_Ballot.sol\":3637:3643  sender */\n      dup2\n        /* \"smartContract/contracts/3_Ballot.sol\":3637:3652  sender.district */\n      0x02\n      add\n      sload\n        /* \"smartContract/contracts/3_Ballot.sol\":3637:3655  sender.district==5 */\n      eq\n        /* \"smartContract/contracts/3_Ballot.sol\":3633:4081  if (sender.district==5){proposals[random_vote()].Votes_District5 += sender.weight;}... */\n      iszero\n      tag_79\n      jumpi\n        /* \"smartContract/contracts/3_Ballot.sol\":3701:3707  sender */\n      dup1\n        /* \"smartContract/contracts/3_Ballot.sol\":3701:3714  sender.weight */\n      0x00\n      add\n      sload\n        /* \"smartContract/contracts/3_Ballot.sol\":3657:3666  proposals */\n      0x02\n        /* \"smartContract/contracts/3_Ballot.sol\":3667:3680  random_vote() */\n      tag_80\n        /* \"smartContract/contracts/3_Ballot.sol\":3667:3678  random_vote */\n      tag_34\n        /* \"smartContract/contracts/3_Ballot.sol\":3667:3680  random_vote() */\n      jump\t// in\n    tag_80:\n        /* \"smartContract/contracts/3_Ballot.sol\":3657:3681  proposals[random_vote()] */\n      dup2\n      sload\n      dup2\n      lt\n      tag_81\n      jumpi\n      tag_82\n      tag_40\n      jump\t// in\n    tag_82:\n    tag_81:\n      swap1\n      0x00\n      mstore\n      keccak256(0x00, 0x20)\n      swap1\n      0x0c\n      mul\n      add\n        /* \"smartContract/contracts/3_Ballot.sol\":3657:3697  proposals[random_vote()].Votes_District5 */\n      0x07\n      add\n      0x00\n        /* \"smartContract/contracts/3_Ballot.sol\":3657:3714  proposals[random_vote()].Votes_District5 += sender.weight */\n      dup3\n      dup3\n      sload\n      tag_84\n      swap2\n      swap1\n      tag_43\n      jump\t// in\n    tag_84:\n      swap3\n      pop\n      pop\n      dup2\n      swap1\n      sstore\n      pop\n        /* \"smartContract/contracts/3_Ballot.sol\":3633:4081  if (sender.district==5){proposals[random_vote()].Votes_District5 += sender.weight;}... */\n      jump(tag_85)\n    tag_79:\n        /* \"smartContract/contracts/3_Ballot.sol\":3751:3752  6 */\n      0x06\n        /* \"smartContract/contracts/3_Ballot.sol\":3734:3740  sender */\n      dup2\n        /* \"smartContract/contracts/3_Ballot.sol\":3734:3749  sender.district */\n      0x02\n      add\n      sload\n        /* \"smartContract/contracts/3_Ballot.sol\":3734:3752  sender.district==6 */\n      eq\n        /* \"smartContract/contracts/3_Ballot.sol\":3730:4081  if (sender.district==6){proposals[random_vote()].Votes_District6 += sender.weight;}... */\n      iszero\n      tag_86\n      jumpi\n        /* \"smartContract/contracts/3_Ballot.sol\":3798:3804  sender */\n      dup1\n        /* \"smartContract/contracts/3_Ballot.sol\":3798:3811  sender.weight */\n      0x00\n      add\n      sload\n        /* \"smartContract/contracts/3_Ballot.sol\":3754:3763  proposals */\n      0x02\n        /* \"smartContract/contracts/3_Ballot.sol\":3764:3777  random_vote() */\n      tag_87\n        /* \"smartContract/contracts/3_Ballot.sol\":3764:3775  random_vote */\n      tag_34\n        /* \"smartContract/contracts/3_Ballot.sol\":3764:3777  random_vote() */\n      jump\t// in\n    tag_87:\n        /* \"smartContract/contracts/3_Ballot.sol\":3754:3778  proposals[random_vote()] */\n      dup2\n      sload\n      dup2\n      lt\n      tag_88\n      jumpi\n      tag_89\n      tag_40\n      jump\t// in\n    tag_89:\n    tag_88:\n      swap1\n      0x00\n      mstore\n      keccak256(0x00, 0x20)\n      swap1\n      0x0c\n      mul\n      add\n        /* \"smartContract/contracts/3_Ballot.sol\":3754:3794  proposals[random_vote()].Votes_District6 */\n      0x08\n      add\n      0x00\n        /* \"smartContract/contracts/3_Ballot.sol\":3754:3811  proposals[random_vote()].Votes_District6 += sender.weight */\n      dup3\n      dup3\n      sload\n      tag_91\n      swap2\n      swap1\n      tag_43\n      jump\t// in\n    tag_91:\n      swap3\n      pop\n      pop\n      dup2\n      swap1\n      sstore\n      pop\n        /* \"smartContract/contracts/3_Ballot.sol\":3730:4081  if (sender.district==6){proposals[random_vote()].Votes_District6 += sender.weight;}... */\n      jump(tag_92)\n    tag_86:\n        /* \"smartContract/contracts/3_Ballot.sol\":3848:3849  7 */\n      0x07\n        /* \"smartContract/contracts/3_Ballot.sol\":3831:3837  sender */\n      dup2\n        /* \"smartContract/contracts/3_Ballot.sol\":3831:3846  sender.district */\n      0x02\n      add\n      sload\n        /* \"smartContract/contracts/3_Ballot.sol\":3831:3849  sender.district==7 */\n      eq\n        /* \"smartContract/contracts/3_Ballot.sol\":3827:4081  if (sender.district==7){proposals[random_vote()].Votes_District7 += sender.weight;}... */\n      iszero\n      tag_93\n      jumpi\n        /* \"smartContract/contracts/3_Ballot.sol\":3895:3901  sender */\n      dup1\n        /* \"smartContract/contracts/3_Ballot.sol\":3895:3908  sender.weight */\n      0x00\n      add\n      sload\n        /* \"smartContract/contracts/3_Ballot.sol\":3851:3860  proposals */\n      0x02\n        /* \"smartContract/contracts/3_Ballot.sol\":3861:3874  random_vote() */\n      tag_94\n        /* \"smartContract/contracts/3_Ballot.sol\":3861:3872  random_vote */\n      tag_34\n        /* \"smartContract/contracts/3_Ballot.sol\":3861:3874  random_vote() */\n      jump\t// in\n    tag_94:\n        /* \"smartContract/contracts/3_Ballot.sol\":3851:3875  proposals[random_vote()] */\n      dup2\n      sload\n      dup2\n      lt\n      tag_95\n      jumpi\n      tag_96\n      tag_40\n      jump\t// in\n    tag_96:\n    tag_95:\n      swap1\n      0x00\n      mstore\n      keccak256(0x00, 0x20)\n      swap1\n      0x0c\n      mul\n      add\n        /* \"smartContract/contracts/3_Ballot.sol\":3851:3891  proposals[random_vote()].Votes_District7 */\n      0x09\n      add\n      0x00\n        /* \"smartContract/contracts/3_Ballot.sol\":3851:3908  proposals[random_vote()].Votes_District7 += sender.weight */\n      dup3\n      dup3\n      sload\n      tag_98\n      swap2\n      swap1\n      tag_43\n      jump\t// in\n    tag_98:\n      swap3\n      pop\n      pop\n      dup2\n      swap1\n      sstore\n      pop\n        /* \"smartContract/contracts/3_Ballot.sol\":3827:4081  if (sender.district==7){proposals[random_vote()].Votes_District7 += sender.weight;}... */\n      jump(tag_99)\n    tag_93:\n        /* \"smartContract/contracts/3_Ballot.sol\":3945:3946  8 */\n      0x08\n        /* \"smartContract/contracts/3_Ballot.sol\":3928:3934  sender */\n      dup2\n        /* \"smartContract/contracts/3_Ballot.sol\":3928:3943  sender.district */\n      0x02\n      add\n      sload\n        /* \"smartContract/contracts/3_Ballot.sol\":3928:3946  sender.district==8 */\n      eq\n        /* \"smartContract/contracts/3_Ballot.sol\":3924:4081  if (sender.district==8){proposals[random_vote()].Votes_District8 += sender.weight;}... */\n      iszero\n      tag_100\n      jumpi\n        /* \"smartContract/contracts/3_Ballot.sol\":3992:3998  sender */\n      dup1\n        /* \"smartContract/contracts/3_Ballot.sol\":3992:4005  sender.weight */\n      0x00\n      add\n      sload\n        /* \"smartContract/contracts/3_Ballot.sol\":3948:3957  proposals */\n      0x02\n        /* \"smartContract/contracts/3_Ballot.sol\":3958:3971  random_vote() */\n      tag_101\n        /* \"smartContract/contracts/3_Ballot.sol\":3958:3969  random_vote */\n      tag_34\n        /* \"smartContract/contracts/3_Ballot.sol\":3958:3971  random_vote() */\n      jump\t// in\n    tag_101:\n        /* \"smartContract/contracts/3_Ballot.sol\":3948:3972  proposals[random_vote()] */\n      dup2\n      sload\n      dup2\n      lt\n      tag_102\n      jumpi\n      tag_103\n      tag_40\n      jump\t// in\n    tag_103:\n    tag_102:\n      swap1\n      0x00\n      mstore\n      keccak256(0x00, 0x20)\n      swap1\n      0x0c\n      mul\n      add\n        /* \"smartContract/contracts/3_Ballot.sol\":3948:3988  proposals[random_vote()].Votes_District8 */\n      0x0a\n      add\n      0x00\n        /* \"smartContract/contracts/3_Ballot.sol\":3948:4005  proposals[random_vote()].Votes_District8 += sender.weight */\n      dup3\n      dup3\n      sload\n      tag_105\n      swap2\n      swap1\n      tag_43\n      jump\t// in\n    tag_105:\n      swap3\n      pop\n      pop\n      dup2\n      swap1\n      sstore\n      pop\n        /* \"smartContract/contracts/3_Ballot.sol\":3924:4081  if (sender.district==8){proposals[random_vote()].Votes_District8 += sender.weight;}... */\n      jump(tag_106)\n    tag_100:\n        /* \"smartContract/contracts/3_Ballot.sol\":4066:4072  sender */\n      dup1\n        /* \"smartContract/contracts/3_Ballot.sol\":4066:4079  sender.weight */\n      0x00\n      add\n      sload\n        /* \"smartContract/contracts/3_Ballot.sol\":4022:4031  proposals */\n      0x02\n        /* \"smartContract/contracts/3_Ballot.sol\":4032:4045  random_vote() */\n      tag_107\n        /* \"smartContract/contracts/3_Ballot.sol\":4032:4043  random_vote */\n      tag_34\n        /* \"smartContract/contracts/3_Ballot.sol\":4032:4045  random_vote() */\n      jump\t// in\n    tag_107:\n        /* \"smartContract/contracts/3_Ballot.sol\":4022:4046  proposals[random_vote()] */\n      dup2\n      sload\n      dup2\n      lt\n      tag_108\n      jumpi\n      tag_109\n      tag_40\n      jump\t// in\n    tag_109:\n    tag_108:\n      swap1\n      0x00\n      mstore\n      keccak256(0x00, 0x20)\n      swap1\n      0x0c\n      mul\n      add\n        /* \"smartContract/contracts/3_Ballot.sol\":4022:4062  proposals[random_vote()].Votes_District9 */\n      0x0b\n      add\n      0x00\n        /* \"smartContract/contracts/3_Ballot.sol\":4022:4079  proposals[random_vote()].Votes_District9 += sender.weight */\n      dup3\n      dup3\n      sload\n      tag_111\n      swap2\n      swap1\n      tag_43\n      jump\t// in\n    tag_111:\n      swap3\n      pop\n      pop\n      dup2\n      swap1\n      sstore\n      pop\n        /* \"smartContract/contracts/3_Ballot.sol\":3924:4081  if (sender.district==8){proposals[random_vote()].Votes_District8 += sender.weight;}... */\n    tag_106:\n        /* \"smartContract/contracts/3_Ballot.sol\":3827:4081  if (sender.district==7){proposals[random_vote()].Votes_District7 += sender.weight;}... */\n    tag_99:\n        /* \"smartContract/contracts/3_Ballot.sol\":3730:4081  if (sender.district==6){proposals[random_vote()].Votes_District6 += sender.weight;}... */\n    tag_92:\n        /* \"smartContract/contracts/3_Ballot.sol\":3633:4081  if (sender.district==5){proposals[random_vote()].Votes_District5 += sender.weight;}... */\n    tag_85:\n        /* \"smartContract/contracts/3_Ballot.sol\":3536:4081  if (sender.district==4){proposals[random_vote()].Votes_District4 += sender.weight;}... */\n    tag_78:\n        /* \"smartContract/contracts/3_Ballot.sol\":3439:4081  if (sender.district==3){proposals[random_vote()].Votes_District3 += sender.weight;}... */\n    tag_71:\n        /* \"smartContract/contracts/3_Ballot.sol\":3342:4081  if (sender.district==2){proposals[random_vote()].Votes_District2 += sender.weight;}... */\n    tag_64:\n        /* \"smartContract/contracts/3_Ballot.sol\":3245:4081  if (sender.district==1){proposals[random_vote()].Votes_District1 += sender.weight;}... */\n    tag_57:\n        /* \"smartContract/contracts/3_Ballot.sol\":3148:4081  if (sender.district==0){proposals[random_vote()].Votes_District0 += sender.weight;}... */\n    tag_50:\n        /* \"smartContract/contracts/3_Ballot.sol\":2478:4199  {... */\n      pop\n        /* \"smartContract/contracts/3_Ballot.sol\":2455:4199  function vote() public {... */\n      jump\t// out\n        /* \"smartContract/contracts/3_Ballot.sol\":814:853  mapping(address => Voter) public voters */\n    tag_11:\n      mstore(0x20, 0x01)\n      dup1\n      0x00\n      mstore\n      keccak256(0x00, 0x40)\n      0x00\n      swap2\n      pop\n      swap1\n      pop\n      dup1\n      0x00\n      add\n      sload\n      swap1\n      dup1\n      0x01\n      add\n      0x00\n      swap1\n      sload\n      swap1\n      0x0100\n      exp\n      swap1\n      div\n      0xff\n      and\n      swap1\n      dup1\n      0x02\n      add\n      sload\n      swap1\n      dup1\n      0x03\n      add\n      sload\n      swap1\n      pop\n      dup5\n      jump\t// out\n        /* \"smartContract/contracts/3_Ballot.sol\":4205:4302  function res(uint _id) public view returns(Proposal memory){... */\n    tag_17:\n        /* \"smartContract/contracts/3_Ballot.sol\":4248:4263  Proposal memory */\n      tag_112\n      tag_113\n      jump\t// in\n    tag_112:\n        /* \"smartContract/contracts/3_Ballot.sol\":4281:4290  proposals */\n      0x02\n        /* \"smartContract/contracts/3_Ballot.sol\":4291:4294  _id */\n      dup3\n        /* \"smartContract/contracts/3_Ballot.sol\":4281:4295  proposals[_id] */\n      dup2\n      sload\n      dup2\n      lt\n      tag_115\n      jumpi\n      tag_116\n      tag_40\n      jump\t// in\n    tag_116:\n    tag_115:\n      swap1\n      0x00\n      mstore\n      keccak256(0x00, 0x20)\n      swap1\n      0x0c\n      mul\n      add\n        /* \"smartContract/contracts/3_Ballot.sol\":4274:4295  return proposals[_id] */\n      mload(0x40)\n      dup1\n      0x0180\n      add\n      0x40\n      mstore\n      swap1\n      dup2\n      0x00\n      dup3\n      add\n      dup1\n      sload\n      tag_118\n      swap1\n      tag_119\n      jump\t// in\n    tag_118:\n      dup1\n      0x1f\n      add\n      0x20\n      dup1\n      swap2\n      div\n      mul\n      0x20\n      add\n      mload(0x40)\n      swap1\n      dup2\n      add\n      0x40\n      mstore\n      dup1\n      swap3\n      swap2\n      swap1\n      dup2\n      dup2\n      mstore\n      0x20\n      add\n      dup3\n      dup1\n      sload\n      tag_120\n      swap1\n      tag_119\n      jump\t// in\n    tag_120:\n      dup1\n      iszero\n      tag_121\n      jumpi\n      dup1\n      0x1f\n      lt\n      tag_122\n      jumpi\n      0x0100\n      dup1\n      dup4\n      sload\n      div\n      mul\n      dup4\n      mstore\n      swap2\n      0x20\n      add\n      swap2\n      jump(tag_121)\n    tag_122:\n      dup3\n      add\n      swap2\n      swap1\n      0x00\n      mstore\n      keccak256(0x00, 0x20)\n      swap1\n    tag_123:\n      dup2\n      sload\n      dup2\n      mstore\n      swap1\n      0x01\n      add\n      swap1\n      0x20\n      add\n      dup1\n      dup4\n      gt\n      tag_123\n      jumpi\n      dup3\n      swap1\n      sub\n      0x1f\n      and\n      dup3\n      add\n      swap2\n    tag_121:\n      pop\n      pop\n      pop\n      pop\n      pop\n      dup2\n      mstore\n      0x20\n      add\n      0x01\n      dup3\n      add\n      sload\n      dup2\n      mstore\n      0x20\n      add\n      0x02\n      dup3\n      add\n      sload\n      dup2\n      mstore\n      0x20\n      add\n      0x03\n      dup3\n      add\n      sload\n      dup2\n      mstore\n      0x20\n      add\n      0x04\n      dup3\n      add\n      sload\n      dup2\n      mstore\n      0x20\n      add\n      0x05\n      dup3\n      add\n      sload\n      dup2\n      mstore\n      0x20\n      add\n      0x06\n      dup3\n      add\n      sload\n      dup2\n      mstore\n      0x20\n      add\n      0x07\n      dup3\n      add\n      sload\n      dup2\n      mstore\n      0x20\n      add\n      0x08\n      dup3\n      add\n      sload\n      dup2\n      mstore\n      0x20\n      add\n      0x09\n      dup3\n      add\n      sload\n      dup2\n      mstore\n      0x20\n      add\n      0x0a\n      dup3\n      add\n      sload\n      dup2\n      mstore\n      0x20\n      add\n      0x0b\n      dup3\n      add\n      sload\n      dup2\n      mstore\n      pop\n      pop\n      swap1\n      pop\n        /* \"smartContract/contracts/3_Ballot.sol\":4205:4302  function res(uint _id) public view returns(Proposal memory){... */\n      swap2\n      swap1\n      pop\n      jump\t// out\n        /* \"smartContract/contracts/3_Ballot.sol\":1014:1185  function random_district() private view returns(uint){... */\n    tag_29:\n        /* \"smartContract/contracts/3_Ballot.sol\":1062:1066  uint */\n      0x00\n        /* \"smartContract/contracts/3_Ballot.sol\":1176:1178  10 */\n      0x0a\n        /* \"smartContract/contracts/3_Ballot.sol\":1116:1131  block.timestamp */\n      timestamp\n        /* \"smartContract/contracts/3_Ballot.sol\":1132:1148  block.difficulty */\n      difficulty\n        /* \"smartContract/contracts/3_Ballot.sol\":1160:1170  msg.sender */\n      caller\n        /* \"smartContract/contracts/3_Ballot.sol\":1099:1171  abi.encodePacked(block.timestamp,block.difficulty,  ... */\n      add(0x20, mload(0x40))\n      tag_125\n      swap4\n      swap3\n      swap2\n      swap1\n      tag_126\n      jump\t// in\n    tag_125:\n      mload(0x40)\n      0x20\n      dup2\n      dup4\n      sub\n      sub\n      dup2\n      mstore\n      swap1\n      0x40\n      mstore\n        /* \"smartContract/contracts/3_Ballot.sol\":1089:1172  keccak256(abi.encodePacked(block.timestamp,block.difficulty,  ... */\n      dup1\n      mload\n      swap1\n      0x20\n      add\n      keccak256\n        /* \"smartContract/contracts/3_Ballot.sol\":1084:1173  uint(keccak256(abi.encodePacked(block.timestamp,block.difficulty,  ... */\n      0x00\n      shr\n        /* \"smartContract/contracts/3_Ballot.sol\":1084:1178  uint(keccak256(abi.encodePacked(block.timestamp,block.difficulty,  ... */\n      tag_127\n      swap2\n      swap1\n      tag_128\n      jump\t// in\n    tag_127:\n        /* \"smartContract/contracts/3_Ballot.sol\":1077:1178  return uint(keccak256(abi.encodePacked(block.timestamp,block.difficulty,  ... */\n      swap1\n      pop\n        /* \"smartContract/contracts/3_Ballot.sol\":1014:1185  function random_district() private view returns(uint){... */\n      swap1\n      jump\t// out\n        /* \"smartContract/contracts/3_Ballot.sol\":2271:2449  function random_vote() private view returns(uint){... */\n    tag_34:\n        /* \"smartContract/contracts/3_Ballot.sol\":2315:2319  uint */\n      0x00\n        /* \"smartContract/contracts/3_Ballot.sol\":2437:2438  5 */\n      0x05\n        /* \"smartContract/contracts/3_Ballot.sol\":2373:2388  block.timestamp */\n      timestamp\n        /* \"smartContract/contracts/3_Ballot.sol\":2389:2405  block.difficulty */\n      difficulty\n        /* \"smartContract/contracts/3_Ballot.sol\":2421:2431  msg.sender */\n      caller\n        /* \"smartContract/contracts/3_Ballot.sol\":2356:2432  abi.encodePacked(block.timestamp,block.difficulty,  ... */\n      add(0x20, mload(0x40))\n      tag_130\n      swap4\n      swap3\n      swap2\n      swap1\n      tag_126\n      jump\t// in\n    tag_130:\n      mload(0x40)\n      0x20\n      dup2\n      dup4\n      sub\n      sub\n      dup2\n      mstore\n      swap1\n      0x40\n      mstore\n        /* \"smartContract/contracts/3_Ballot.sol\":2346:2433  keccak256(abi.encodePacked(block.timestamp,block.difficulty,  ... */\n      dup1\n      mload\n      swap1\n      0x20\n      add\n      keccak256\n        /* \"smartContract/contracts/3_Ballot.sol\":2341:2434  uint(keccak256(abi.encodePacked(block.timestamp,block.difficulty,  ... */\n      0x00\n      shr\n        /* \"smartContract/contracts/3_Ballot.sol\":2341:2438  uint(keccak256(abi.encodePacked(block.timestamp,block.difficulty,  ... */\n      tag_131\n      swap2\n      swap1\n      tag_128\n      jump\t// in\n    tag_131:\n        /* \"smartContract/contracts/3_Ballot.sol\":2334:2438  return uint(keccak256(abi.encodePacked(block.timestamp,block.difficulty,  ... */\n      swap1\n      pop\n        /* \"smartContract/contracts/3_Ballot.sol\":2271:2449  function random_vote() private view returns(uint){... */\n      swap1\n      jump\t// out\n        /* \"smartContract/contracts/3_Ballot.sol\":2107:2166  function countVoters() private {... */\n    tag_36:\n        /* \"smartContract/contracts/3_Ballot.sol\":2158:2159  1 */\n      0x01\n        /* \"smartContract/contracts/3_Ballot.sol\":2148:2154  countV */\n      0x03\n      0x00\n        /* \"smartContract/contracts/3_Ballot.sol\":2148:2159  countV += 1 */\n      dup3\n      dup3\n      sload\n      tag_133\n      swap2\n      swap1\n      tag_134\n      jump\t// in\n    tag_133:\n      swap3\n      pop\n      pop\n      dup2\n      swap1\n      sstore\n      pop\n        /* \"smartContract/contracts/3_Ballot.sol\":2107:2166  function countVoters() private {... */\n      jump\t// out\n    tag_113:\n      mload(0x40)\n      dup1\n      0x0180\n      add\n      0x40\n      mstore\n      dup1\n      0x60\n      dup2\n      mstore\n      0x20\n      add\n      0x00\n      dup2\n      mstore\n      0x20\n      add\n      0x00\n      dup2\n      mstore\n      0x20\n      add\n      0x00\n      dup2\n      mstore\n      0x20\n      add\n      0x00\n      dup2\n      mstore\n      0x20\n      add\n      0x00\n      dup2\n      mstore\n      0x20\n      add\n      0x00\n      dup2\n      mstore\n      0x20\n      add\n      0x00\n      dup2\n      mstore\n      0x20\n      add\n      0x00\n      dup2\n      mstore\n      0x20\n      add\n      0x00\n      dup2\n      mstore\n      0x20\n      add\n      0x00\n      dup2\n      mstore\n      0x20\n      add\n      0x00\n      dup2\n      mstore\n      pop\n      swap1\n      jump\t// out\n        /* \"#utility.yul\":7:146   */\n    tag_136:\n        /* \"#utility.yul\":53:58   */\n      0x00\n        /* \"#utility.yul\":91:97   */\n      dup2\n        /* \"#utility.yul\":78:98   */\n      calldataload\n        /* \"#utility.yul\":69:98   */\n      swap1\n      pop\n        /* \"#utility.yul\":107:140   */\n      tag_138\n        /* \"#utility.yul\":134:139   */\n      dup2\n        /* \"#utility.yul\":107:140   */\n      tag_139\n      jump\t// in\n    tag_138:\n        /* \"#utility.yul\":7:146   */\n      swap3\n      swap2\n      pop\n      pop\n      jump\t// out\n        /* \"#utility.yul\":152:291   */\n    tag_140:\n        /* \"#utility.yul\":198:203   */\n      0x00\n        /* \"#utility.yul\":236:242   */\n      dup2\n        /* \"#utility.yul\":223:243   */\n      calldataload\n        /* \"#utility.yul\":214:243   */\n      swap1\n      pop\n        /* \"#utility.yul\":252:285   */\n      tag_142\n        /* \"#utility.yul\":279:284   */\n      dup2\n        /* \"#utility.yul\":252:285   */\n      tag_143\n      jump\t// in\n    tag_142:\n        /* \"#utility.yul\":152:291   */\n      swap3\n      swap2\n      pop\n      pop\n      jump\t// out\n        /* \"#utility.yul\":297:626   */\n    tag_10:\n        /* \"#utility.yul\":356:362   */\n      0x00\n        /* \"#utility.yul\":405:407   */\n      0x20\n        /* \"#utility.yul\":393:402   */\n      dup3\n        /* \"#utility.yul\":384:391   */\n      dup5\n        /* \"#utility.yul\":380:403   */\n      sub\n        /* \"#utility.yul\":376:408   */\n      slt\n        /* \"#utility.yul\":373:492   */\n      iszero\n      tag_145\n      jumpi\n        /* \"#utility.yul\":411:490   */\n      tag_146\n      tag_147\n      jump\t// in\n    tag_146:\n        /* \"#utility.yul\":373:492   */\n    tag_145:\n        /* \"#utility.yul\":531:532   */\n      0x00\n        /* \"#utility.yul\":556:609   */\n      tag_148\n        /* \"#utility.yul\":601:608   */\n      dup5\n        /* \"#utility.yul\":592:598   */\n      dup3\n        /* \"#utility.yul\":581:590   */\n      dup6\n        /* \"#utility.yul\":577:599   */\n      add\n        /* \"#utility.yul\":556:609   */\n      tag_136\n      jump\t// in\n    tag_148:\n        /* \"#utility.yul\":546:609   */\n      swap2\n      pop\n        /* \"#utility.yul\":502:619   */\n      pop\n        /* \"#utility.yul\":297:626   */\n      swap3\n      swap2\n      pop\n      pop\n      jump\t// out\n        /* \"#utility.yul\":632:961   */\n    tag_16:\n        /* \"#utility.yul\":691:697   */\n      0x00\n        /* \"#utility.yul\":740:742   */\n      0x20\n        /* \"#utility.yul\":728:737   */\n      dup3\n        /* \"#utility.yul\":719:726   */\n      dup5\n        /* \"#utility.yul\":715:738   */\n      sub\n        /* \"#utility.yul\":711:743   */\n      slt\n        /* \"#utility.yul\":708:827   */\n      iszero\n      tag_150\n      jumpi\n        /* \"#utility.yul\":746:825   */\n      tag_151\n      tag_147\n      jump\t// in\n    tag_151:\n        /* \"#utility.yul\":708:827   */\n    tag_150:\n        /* \"#utility.yul\":866:867   */\n      0x00\n        /* \"#utility.yul\":891:944   */\n      tag_152\n        /* \"#utility.yul\":936:943   */\n      dup5\n        /* \"#utility.yul\":927:933   */\n      dup3\n        /* \"#utility.yul\":916:925   */\n      dup6\n        /* \"#utility.yul\":912:934   */\n      add\n        /* \"#utility.yul\":891:944   */\n      tag_140\n      jump\t// in\n    tag_152:\n        /* \"#utility.yul\":881:944   */\n      swap2\n      pop\n        /* \"#utility.yul\":837:954   */\n      pop\n        /* \"#utility.yul\":632:961   */\n      swap3\n      swap2\n      pop\n      pop\n      jump\t// out\n        /* \"#utility.yul\":967:1124   */\n    tag_153:\n        /* \"#utility.yul\":1072:1117   */\n      tag_155\n        /* \"#utility.yul\":1092:1116   */\n      tag_156\n        /* \"#utility.yul\":1110:1115   */\n      dup3\n        /* \"#utility.yul\":1092:1116   */\n      tag_157\n      jump\t// in\n    tag_156:\n        /* \"#utility.yul\":1072:1117   */\n      tag_158\n      jump\t// in\n    tag_155:\n        /* \"#utility.yul\":1067:1070   */\n      dup3\n        /* \"#utility.yul\":1060:1118   */\n      mstore\n        /* \"#utility.yul\":967:1124   */\n      pop\n      pop\n      jump\t// out\n        /* \"#utility.yul\":1130:1239   */\n    tag_159:\n        /* \"#utility.yul\":1211:1232   */\n      tag_161\n        /* \"#utility.yul\":1226:1231   */\n      dup2\n        /* \"#utility.yul\":1211:1232   */\n      tag_162\n      jump\t// in\n    tag_161:\n        /* \"#utility.yul\":1206:1209   */\n      dup3\n        /* \"#utility.yul\":1199:1233   */\n      mstore\n        /* \"#utility.yul\":1130:1239   */\n      pop\n      pop\n      jump\t// out\n        /* \"#utility.yul\":1245:1589   */\n    tag_163:\n        /* \"#utility.yul\":1323:1326   */\n      0x00\n        /* \"#utility.yul\":1351:1390   */\n      tag_165\n        /* \"#utility.yul\":1384:1389   */\n      dup3\n        /* \"#utility.yul\":1351:1390   */\n      tag_166\n      jump\t// in\n    tag_165:\n        /* \"#utility.yul\":1406:1467   */\n      tag_167\n        /* \"#utility.yul\":1460:1466   */\n      dup2\n        /* \"#utility.yul\":1455:1458   */\n      dup6\n        /* \"#utility.yul\":1406:1467   */\n      tag_168\n      jump\t// in\n    tag_167:\n        /* \"#utility.yul\":1399:1467   */\n      swap4\n      pop\n        /* \"#utility.yul\":1476:1528   */\n      tag_169\n        /* \"#utility.yul\":1521:1527   */\n      dup2\n        /* \"#utility.yul\":1516:1519   */\n      dup6\n        /* \"#utility.yul\":1509:1513   */\n      0x20\n        /* \"#utility.yul\":1502:1507   */\n      dup7\n        /* \"#utility.yul\":1498:1514   */\n      add\n        /* \"#utility.yul\":1476:1528   */\n      tag_170\n      jump\t// in\n    tag_169:\n        /* \"#utility.yul\":1553:1582   */\n      tag_171\n        /* \"#utility.yul\":1575:1581   */\n      dup2\n        /* \"#utility.yul\":1553:1582   */\n      tag_172\n      jump\t// in\n    tag_171:\n        /* \"#utility.yul\":1548:1551   */\n      dup5\n        /* \"#utility.yul\":1544:1583   */\n      add\n        /* \"#utility.yul\":1537:1583   */\n      swap2\n      pop\n        /* \"#utility.yul\":1327:1589   */\n      pop\n        /* \"#utility.yul\":1245:1589   */\n      swap3\n      swap2\n      pop\n      pop\n      jump\t// out\n        /* \"#utility.yul\":1595:1961   */\n    tag_173:\n        /* \"#utility.yul\":1737:1740   */\n      0x00\n        /* \"#utility.yul\":1758:1825   */\n      tag_175\n        /* \"#utility.yul\":1822:1824   */\n      0x0e\n        /* \"#utility.yul\":1817:1820   */\n      dup4\n        /* \"#utility.yul\":1758:1825   */\n      tag_176\n      jump\t// in\n    tag_175:\n        /* \"#utility.yul\":1751:1825   */\n      swap2\n      pop\n        /* \"#utility.yul\":1834:1927   */\n      tag_177\n        /* \"#utility.yul\":1923:1926   */\n      dup3\n        /* \"#utility.yul\":1834:1927   */\n      tag_178\n      jump\t// in\n    tag_177:\n        /* \"#utility.yul\":1952:1954   */\n      0x20\n        /* \"#utility.yul\":1947:1950   */\n      dup3\n        /* \"#utility.yul\":1943:1955   */\n      add\n        /* \"#utility.yul\":1936:1955   */\n      swap1\n      pop\n        /* \"#utility.yul\":1595:1961   */\n      swap2\n      swap1\n      pop\n      jump\t// out\n        /* \"#utility.yul\":1967:2333   */\n    tag_179:\n        /* \"#utility.yul\":2109:2112   */\n      0x00\n        /* \"#utility.yul\":2130:2197   */\n      tag_181\n        /* \"#utility.yul\":2194:2196   */\n      0x18\n        /* \"#utility.yul\":2189:2192   */\n      dup4\n        /* \"#utility.yul\":2130:2197   */\n      tag_176\n      jump\t// in\n    tag_181:\n        /* \"#utility.yul\":2123:2197   */\n      swap2\n      pop\n        /* \"#utility.yul\":2206:2299   */\n      tag_182\n        /* \"#utility.yul\":2295:2298   */\n      dup3\n        /* \"#utility.yul\":2206:2299   */\n      tag_183\n      jump\t// in\n    tag_182:\n        /* \"#utility.yul\":2324:2326   */\n      0x20\n        /* \"#utility.yul\":2319:2322   */\n      dup3\n        /* \"#utility.yul\":2315:2327   */\n      add\n        /* \"#utility.yul\":2308:2327   */\n      swap1\n      pop\n        /* \"#utility.yul\":1967:2333   */\n      swap2\n      swap1\n      pop\n      jump\t// out\n        /* \"#utility.yul\":2339:2705   */\n    tag_184:\n        /* \"#utility.yul\":2481:2484   */\n      0x00\n        /* \"#utility.yul\":2502:2569   */\n      tag_186\n        /* \"#utility.yul\":2566:2568   */\n      0x13\n        /* \"#utility.yul\":2561:2564   */\n      dup4\n        /* \"#utility.yul\":2502:2569   */\n      tag_176\n      jump\t// in\n    tag_186:\n        /* \"#utility.yul\":2495:2569   */\n      swap2\n      pop\n        /* \"#utility.yul\":2578:2671   */\n      tag_187\n        /* \"#utility.yul\":2667:2670   */\n      dup3\n        /* \"#utility.yul\":2578:2671   */\n      tag_188\n      jump\t// in\n    tag_187:\n        /* \"#utility.yul\":2696:2698   */\n      0x20\n        /* \"#utility.yul\":2691:2694   */\n      dup3\n        /* \"#utility.yul\":2687:2699   */\n      add\n        /* \"#utility.yul\":2680:2699   */\n      swap1\n      pop\n        /* \"#utility.yul\":2339:2705   */\n      swap2\n      swap1\n      pop\n      jump\t// out\n        /* \"#utility.yul\":2767:5246   */\n    tag_189:\n        /* \"#utility.yul\":2884:2887   */\n      0x00\n        /* \"#utility.yul\":2920:2926   */\n      0x0180\n        /* \"#utility.yul\":2915:2918   */\n      dup4\n        /* \"#utility.yul\":2911:2927   */\n      add\n        /* \"#utility.yul\":3009:3013   */\n      0x00\n        /* \"#utility.yul\":3002:3007   */\n      dup4\n        /* \"#utility.yul\":2998:3014   */\n      add\n        /* \"#utility.yul\":2992:3015   */\n      mload\n        /* \"#utility.yul\":3062:3065   */\n      dup5\n        /* \"#utility.yul\":3056:3060   */\n      dup3\n        /* \"#utility.yul\":3052:3066   */\n      sub\n        /* \"#utility.yul\":3045:3049   */\n      0x00\n        /* \"#utility.yul\":3040:3043   */\n      dup7\n        /* \"#utility.yul\":3036:3050   */\n      add\n        /* \"#utility.yul\":3029:3067   */\n      mstore\n        /* \"#utility.yul\":3088:3161   */\n      tag_191\n        /* \"#utility.yul\":3156:3160   */\n      dup3\n        /* \"#utility.yul\":3142:3154   */\n      dup3\n        /* \"#utility.yul\":3088:3161   */\n      tag_163\n      jump\t// in\n    tag_191:\n        /* \"#utility.yul\":3080:3161   */\n      swap2\n      pop\n        /* \"#utility.yul\":2937:3172   */\n      pop\n        /* \"#utility.yul\":3261:3265   */\n      0x20\n        /* \"#utility.yul\":3254:3259   */\n      dup4\n        /* \"#utility.yul\":3250:3266   */\n      add\n        /* \"#utility.yul\":3244:3267   */\n      mload\n        /* \"#utility.yul\":3280:3343   */\n      tag_192\n        /* \"#utility.yul\":3337:3341   */\n      0x20\n        /* \"#utility.yul\":3332:3335   */\n      dup7\n        /* \"#utility.yul\":3328:3342   */\n      add\n        /* \"#utility.yul\":3314:3326   */\n      dup3\n        /* \"#utility.yul\":3280:3343   */\n      tag_193\n      jump\t// in\n    tag_192:\n        /* \"#utility.yul\":3182:3353   */\n      pop\n        /* \"#utility.yul\":3446:3450   */\n      0x40\n        /* \"#utility.yul\":3439:3444   */\n      dup4\n        /* \"#utility.yul\":3435:3451   */\n      add\n        /* \"#utility.yul\":3429:3452   */\n      mload\n        /* \"#utility.yul\":3465:3528   */\n      tag_194\n        /* \"#utility.yul\":3522:3526   */\n      0x40\n        /* \"#utility.yul\":3517:3520   */\n      dup7\n        /* \"#utility.yul\":3513:3527   */\n      add\n        /* \"#utility.yul\":3499:3511   */\n      dup3\n        /* \"#utility.yul\":3465:3528   */\n      tag_193\n      jump\t// in\n    tag_194:\n        /* \"#utility.yul\":3363:3538   */\n      pop\n        /* \"#utility.yul\":3631:3635   */\n      0x60\n        /* \"#utility.yul\":3624:3629   */\n      dup4\n        /* \"#utility.yul\":3620:3636   */\n      add\n        /* \"#utility.yul\":3614:3637   */\n      mload\n        /* \"#utility.yul\":3650:3713   */\n      tag_195\n        /* \"#utility.yul\":3707:3711   */\n      0x60\n        /* \"#utility.yul\":3702:3705   */\n      dup7\n        /* \"#utility.yul\":3698:3712   */\n      add\n        /* \"#utility.yul\":3684:3696   */\n      dup3\n        /* \"#utility.yul\":3650:3713   */\n      tag_193\n      jump\t// in\n    tag_195:\n        /* \"#utility.yul\":3548:3723   */\n      pop\n        /* \"#utility.yul\":3816:3820   */\n      0x80\n        /* \"#utility.yul\":3809:3814   */\n      dup4\n        /* \"#utility.yul\":3805:3821   */\n      add\n        /* \"#utility.yul\":3799:3822   */\n      mload\n        /* \"#utility.yul\":3835:3898   */\n      tag_196\n        /* \"#utility.yul\":3892:3896   */\n      0x80\n        /* \"#utility.yul\":3887:3890   */\n      dup7\n        /* \"#utility.yul\":3883:3897   */\n      add\n        /* \"#utility.yul\":3869:3881   */\n      dup3\n        /* \"#utility.yul\":3835:3898   */\n      tag_193\n      jump\t// in\n    tag_196:\n        /* \"#utility.yul\":3733:3908   */\n      pop\n        /* \"#utility.yul\":4001:4005   */\n      0xa0\n        /* \"#utility.yul\":3994:3999   */\n      dup4\n        /* \"#utility.yul\":3990:4006   */\n      add\n        /* \"#utility.yul\":3984:4007   */\n      mload\n        /* \"#utility.yul\":4020:4083   */\n      tag_197\n        /* \"#utility.yul\":4077:4081   */\n      0xa0\n        /* \"#utility.yul\":4072:4075   */\n      dup7\n        /* \"#utility.yul\":4068:4082   */\n      add\n        /* \"#utility.yul\":4054:4066   */\n      dup3\n        /* \"#utility.yul\":4020:4083   */\n      tag_193\n      jump\t// in\n    tag_197:\n        /* \"#utility.yul\":3918:4093   */\n      pop\n        /* \"#utility.yul\":4186:4190   */\n      0xc0\n        /* \"#utility.yul\":4179:4184   */\n      dup4\n        /* \"#utility.yul\":4175:4191   */\n      add\n        /* \"#utility.yul\":4169:4192   */\n      mload\n        /* \"#utility.yul\":4205:4268   */\n      tag_198\n        /* \"#utility.yul\":4262:4266   */\n      0xc0\n        /* \"#utility.yul\":4257:4260   */\n      dup7\n        /* \"#utility.yul\":4253:4267   */\n      add\n        /* \"#utility.yul\":4239:4251   */\n      dup3\n        /* \"#utility.yul\":4205:4268   */\n      tag_193\n      jump\t// in\n    tag_198:\n        /* \"#utility.yul\":4103:4278   */\n      pop\n        /* \"#utility.yul\":4371:4375   */\n      0xe0\n        /* \"#utility.yul\":4364:4369   */\n      dup4\n        /* \"#utility.yul\":4360:4376   */\n      add\n        /* \"#utility.yul\":4354:4377   */\n      mload\n        /* \"#utility.yul\":4390:4453   */\n      tag_199\n        /* \"#utility.yul\":4447:4451   */\n      0xe0\n        /* \"#utility.yul\":4442:4445   */\n      dup7\n        /* \"#utility.yul\":4438:4452   */\n      add\n        /* \"#utility.yul\":4424:4436   */\n      dup3\n        /* \"#utility.yul\":4390:4453   */\n      tag_193\n      jump\t// in\n    tag_199:\n        /* \"#utility.yul\":4288:4463   */\n      pop\n        /* \"#utility.yul\":4556:4562   */\n      0x0100\n        /* \"#utility.yul\":4549:4554   */\n      dup4\n        /* \"#utility.yul\":4545:4563   */\n      add\n        /* \"#utility.yul\":4539:4564   */\n      mload\n        /* \"#utility.yul\":4577:4642   */\n      tag_200\n        /* \"#utility.yul\":4634:4640   */\n      0x0100\n        /* \"#utility.yul\":4629:4632   */\n      dup7\n        /* \"#utility.yul\":4625:4641   */\n      add\n        /* \"#utility.yul\":4611:4623   */\n      dup3\n        /* \"#utility.yul\":4577:4642   */\n      tag_193\n      jump\t// in\n    tag_200:\n        /* \"#utility.yul\":4473:4652   */\n      pop\n        /* \"#utility.yul\":4745:4751   */\n      0x0120\n        /* \"#utility.yul\":4738:4743   */\n      dup4\n        /* \"#utility.yul\":4734:4752   */\n      add\n        /* \"#utility.yul\":4728:4753   */\n      mload\n        /* \"#utility.yul\":4766:4831   */\n      tag_201\n        /* \"#utility.yul\":4823:4829   */\n      0x0120\n        /* \"#utility.yul\":4818:4821   */\n      dup7\n        /* \"#utility.yul\":4814:4830   */\n      add\n        /* \"#utility.yul\":4800:4812   */\n      dup3\n        /* \"#utility.yul\":4766:4831   */\n      tag_193\n      jump\t// in\n    tag_201:\n        /* \"#utility.yul\":4662:4841   */\n      pop\n        /* \"#utility.yul\":4934:4940   */\n      0x0140\n        /* \"#utility.yul\":4927:4932   */\n      dup4\n        /* \"#utility.yul\":4923:4941   */\n      add\n        /* \"#utility.yul\":4917:4942   */\n      mload\n        /* \"#utility.yul\":4955:5020   */\n      tag_202\n        /* \"#utility.yul\":5012:5018   */\n      0x0140\n        /* \"#utility.yul\":5007:5010   */\n      dup7\n        /* \"#utility.yul\":5003:5019   */\n      add\n        /* \"#utility.yul\":4989:5001   */\n      dup3\n        /* \"#utility.yul\":4955:5020   */\n      tag_193\n      jump\t// in\n    tag_202:\n        /* \"#utility.yul\":4851:5030   */\n      pop\n        /* \"#utility.yul\":5123:5129   */\n      0x0160\n        /* \"#utility.yul\":5116:5121   */\n      dup4\n        /* \"#utility.yul\":5112:5130   */\n      add\n        /* \"#utility.yul\":5106:5131   */\n      mload\n        /* \"#utility.yul\":5144:5209   */\n      tag_203\n        /* \"#utility.yul\":5201:5207   */\n      0x0160\n        /* \"#utility.yul\":5196:5199   */\n      dup7\n        /* \"#utility.yul\":5192:5208   */\n      add\n        /* \"#utility.yul\":5178:5190   */\n      dup3\n        /* \"#utility.yul\":5144:5209   */\n      tag_193\n      jump\t// in\n    tag_203:\n        /* \"#utility.yul\":5040:5219   */\n      pop\n        /* \"#utility.yul\":5236:5240   */\n      dup1\n        /* \"#utility.yul\":5229:5240   */\n      swap2\n      pop\n        /* \"#utility.yul\":2889:5246   */\n      pop\n        /* \"#utility.yul\":2767:5246   */\n      swap3\n      swap2\n      pop\n      pop\n      jump\t// out\n        /* \"#utility.yul\":5252:5360   */\n    tag_193:\n        /* \"#utility.yul\":5329:5353   */\n      tag_205\n        /* \"#utility.yul\":5347:5352   */\n      dup2\n        /* \"#utility.yul\":5329:5353   */\n      tag_206\n      jump\t// in\n    tag_205:\n        /* \"#utility.yul\":5324:5327   */\n      dup3\n        /* \"#utility.yul\":5317:5354   */\n      mstore\n        /* \"#utility.yul\":5252:5360   */\n      pop\n      pop\n      jump\t// out\n        /* \"#utility.yul\":5366:5484   */\n    tag_207:\n        /* \"#utility.yul\":5453:5477   */\n      tag_209\n        /* \"#utility.yul\":5471:5476   */\n      dup2\n        /* \"#utility.yul\":5453:5477   */\n      tag_206\n      jump\t// in\n    tag_209:\n        /* \"#utility.yul\":5448:5451   */\n      dup3\n        /* \"#utility.yul\":5441:5478   */\n      mstore\n        /* \"#utility.yul\":5366:5484   */\n      pop\n      pop\n      jump\t// out\n        /* \"#utility.yul\":5490:5647   */\n    tag_210:\n        /* \"#utility.yul\":5595:5640   */\n      tag_212\n        /* \"#utility.yul\":5615:5639   */\n      tag_213\n        /* \"#utility.yul\":5633:5638   */\n      dup3\n        /* \"#utility.yul\":5615:5639   */\n      tag_206\n      jump\t// in\n    tag_213:\n        /* \"#utility.yul\":5595:5640   */\n      tag_214\n      jump\t// in\n    tag_212:\n        /* \"#utility.yul\":5590:5593   */\n      dup3\n        /* \"#utility.yul\":5583:5641   */\n      mstore\n        /* \"#utility.yul\":5490:5647   */\n      pop\n      pop\n      jump\t// out\n        /* \"#utility.yul\":5653:6191   */\n    tag_126:\n        /* \"#utility.yul\":5821:5824   */\n      0x00\n        /* \"#utility.yul\":5836:5911   */\n      tag_216\n        /* \"#utility.yul\":5907:5910   */\n      dup3\n        /* \"#utility.yul\":5898:5904   */\n      dup7\n        /* \"#utility.yul\":5836:5911   */\n      tag_210\n      jump\t// in\n    tag_216:\n        /* \"#utility.yul\":5936:5938   */\n      0x20\n        /* \"#utility.yul\":5931:5934   */\n      dup3\n        /* \"#utility.yul\":5927:5939   */\n      add\n        /* \"#utility.yul\":5920:5939   */\n      swap2\n      pop\n        /* \"#utility.yul\":5949:6024   */\n      tag_217\n        /* \"#utility.yul\":6020:6023   */\n      dup3\n        /* \"#utility.yul\":6011:6017   */\n      dup6\n        /* \"#utility.yul\":5949:6024   */\n      tag_210\n      jump\t// in\n    tag_217:\n        /* \"#utility.yul\":6049:6051   */\n      0x20\n        /* \"#utility.yul\":6044:6047   */\n      dup3\n        /* \"#utility.yul\":6040:6052   */\n      add\n        /* \"#utility.yul\":6033:6052   */\n      swap2\n      pop\n        /* \"#utility.yul\":6062:6137   */\n      tag_218\n        /* \"#utility.yul\":6133:6136   */\n      dup3\n        /* \"#utility.yul\":6124:6130   */\n      dup5\n        /* \"#utility.yul\":6062:6137   */\n      tag_153\n      jump\t// in\n    tag_218:\n        /* \"#utility.yul\":6162:6164   */\n      0x14\n        /* \"#utility.yul\":6157:6160   */\n      dup3\n        /* \"#utility.yul\":6153:6165   */\n      add\n        /* \"#utility.yul\":6146:6165   */\n      swap2\n      pop\n        /* \"#utility.yul\":6182:6185   */\n      dup2\n        /* \"#utility.yul\":6175:6185   */\n      swap1\n      pop\n        /* \"#utility.yul\":5653:6191   */\n      swap5\n      swap4\n      pop\n      pop\n      pop\n      pop\n      jump\t// out\n        /* \"#utility.yul\":6197:6616   */\n    tag_32:\n        /* \"#utility.yul\":6363:6367   */\n      0x00\n        /* \"#utility.yul\":6401:6403   */\n      0x20\n        /* \"#utility.yul\":6390:6399   */\n      dup3\n        /* \"#utility.yul\":6386:6404   */\n      add\n        /* \"#utility.yul\":6378:6404   */\n      swap1\n      pop\n        /* \"#utility.yul\":6450:6459   */\n      dup2\n        /* \"#utility.yul\":6444:6448   */\n      dup2\n        /* \"#utility.yul\":6440:6460   */\n      sub\n        /* \"#utility.yul\":6436:6437   */\n      0x00\n        /* \"#utility.yul\":6425:6434   */\n      dup4\n        /* \"#utility.yul\":6421:6438   */\n      add\n        /* \"#utility.yul\":6414:6461   */\n      mstore\n        /* \"#utility.yul\":6478:6609   */\n      tag_220\n        /* \"#utility.yul\":6604:6608   */\n      dup2\n        /* \"#utility.yul\":6478:6609   */\n      tag_173\n      jump\t// in\n    tag_220:\n        /* \"#utility.yul\":6470:6609   */\n      swap1\n      pop\n        /* \"#utility.yul\":6197:6616   */\n      swap2\n      swap1\n      pop\n      jump\t// out\n        /* \"#utility.yul\":6622:7041   */\n    tag_23:\n        /* \"#utility.yul\":6788:6792   */\n      0x00\n        /* \"#utility.yul\":6826:6828   */\n      0x20\n        /* \"#utility.yul\":6815:6824   */\n      dup3\n        /* \"#utility.yul\":6811:6829   */\n      add\n        /* \"#utility.yul\":6803:6829   */\n      swap1\n      pop\n        /* \"#utility.yul\":6875:6884   */\n      dup2\n        /* \"#utility.yul\":6869:6873   */\n      dup2\n        /* \"#utility.yul\":6865:6885   */\n      sub\n        /* \"#utility.yul\":6861:6862   */\n      0x00\n        /* \"#utility.yul\":6850:6859   */\n      dup4\n        /* \"#utility.yul\":6846:6863   */\n      add\n        /* \"#utility.yul\":6839:6886   */\n      mstore\n        /* \"#utility.yul\":6903:7034   */\n      tag_222\n        /* \"#utility.yul\":7029:7033   */\n      dup2\n        /* \"#utility.yul\":6903:7034   */\n      tag_179\n      jump\t// in\n    tag_222:\n        /* \"#utility.yul\":6895:7034   */\n      swap1\n      pop\n        /* \"#utility.yul\":6622:7041   */\n      swap2\n      swap1\n      pop\n      jump\t// out\n        /* \"#utility.yul\":7047:7466   */\n    tag_27:\n        /* \"#utility.yul\":7213:7217   */\n      0x00\n        /* \"#utility.yul\":7251:7253   */\n      0x20\n        /* \"#utility.yul\":7240:7249   */\n      dup3\n        /* \"#utility.yul\":7236:7254   */\n      add\n        /* \"#utility.yul\":7228:7254   */\n      swap1\n      pop\n        /* \"#utility.yul\":7300:7309   */\n      dup2\n        /* \"#utility.yul\":7294:7298   */\n      dup2\n        /* \"#utility.yul\":7290:7310   */\n      sub\n        /* \"#utility.yul\":7286:7287   */\n      0x00\n        /* \"#utility.yul\":7275:7284   */\n      dup4\n        /* \"#utility.yul\":7271:7288   */\n      add\n        /* \"#utility.yul\":7264:7311   */\n      mstore\n        /* \"#utility.yul\":7328:7459   */\n      tag_224\n        /* \"#utility.yul\":7454:7458   */\n      dup2\n        /* \"#utility.yul\":7328:7459   */\n      tag_184\n      jump\t// in\n    tag_224:\n        /* \"#utility.yul\":7320:7459   */\n      swap1\n      pop\n        /* \"#utility.yul\":7047:7466   */\n      swap2\n      swap1\n      pop\n      jump\t// out\n        /* \"#utility.yul\":7472:7841   */\n    tag_19:\n        /* \"#utility.yul\":7613:7617   */\n      0x00\n        /* \"#utility.yul\":7651:7653   */\n      0x20\n        /* \"#utility.yul\":7640:7649   */\n      dup3\n        /* \"#utility.yul\":7636:7654   */\n      add\n        /* \"#utility.yul\":7628:7654   */\n      swap1\n      pop\n        /* \"#utility.yul\":7700:7709   */\n      dup2\n        /* \"#utility.yul\":7694:7698   */\n      dup2\n        /* \"#utility.yul\":7690:7710   */\n      sub\n        /* \"#utility.yul\":7686:7687   */\n      0x00\n        /* \"#utility.yul\":7675:7684   */\n      dup4\n        /* \"#utility.yul\":7671:7688   */\n      add\n        /* \"#utility.yul\":7664:7711   */\n      mstore\n        /* \"#utility.yul\":7728:7834   */\n      tag_226\n        /* \"#utility.yul\":7829:7833   */\n      dup2\n        /* \"#utility.yul\":7820:7826   */\n      dup5\n        /* \"#utility.yul\":7728:7834   */\n      tag_189\n      jump\t// in\n    tag_226:\n        /* \"#utility.yul\":7720:7834   */\n      swap1\n      pop\n        /* \"#utility.yul\":7472:7841   */\n      swap3\n      swap2\n      pop\n      pop\n      jump\t// out\n        /* \"#utility.yul\":7847:8388   */\n    tag_13:\n        /* \"#utility.yul\":8018:8022   */\n      0x00\n        /* \"#utility.yul\":8056:8059   */\n      0x80\n        /* \"#utility.yul\":8045:8054   */\n      dup3\n        /* \"#utility.yul\":8041:8060   */\n      add\n        /* \"#utility.yul\":8033:8060   */\n      swap1\n      pop\n        /* \"#utility.yul\":8070:8141   */\n      tag_228\n        /* \"#utility.yul\":8138:8139   */\n      0x00\n        /* \"#utility.yul\":8127:8136   */\n      dup4\n        /* \"#utility.yul\":8123:8140   */\n      add\n        /* \"#utility.yul\":8114:8120   */\n      dup8\n        /* \"#utility.yul\":8070:8141   */\n      tag_207\n      jump\t// in\n    tag_228:\n        /* \"#utility.yul\":8151:8217   */\n      tag_229\n        /* \"#utility.yul\":8213:8215   */\n      0x20\n        /* \"#utility.yul\":8202:8211   */\n      dup4\n        /* \"#utility.yul\":8198:8216   */\n      add\n        /* \"#utility.yul\":8189:8195   */\n      dup7\n        /* \"#utility.yul\":8151:8217   */\n      tag_159\n      jump\t// in\n    tag_229:\n        /* \"#utility.yul\":8227:8299   */\n      tag_230\n        /* \"#utility.yul\":8295:8297   */\n      0x40\n        /* \"#utility.yul\":8284:8293   */\n      dup4\n        /* \"#utility.yul\":8280:8298   */\n      add\n        /* \"#utility.yul\":8271:8277   */\n      dup6\n        /* \"#utility.yul\":8227:8299   */\n      tag_207\n      jump\t// in\n    tag_230:\n        /* \"#utility.yul\":8309:8381   */\n      tag_231\n        /* \"#utility.yul\":8377:8379   */\n      0x60\n        /* \"#utility.yul\":8366:8375   */\n      dup4\n        /* \"#utility.yul\":8362:8380   */\n      add\n        /* \"#utility.yul\":8353:8359   */\n      dup5\n        /* \"#utility.yul\":8309:8381   */\n      tag_207\n      jump\t// in\n    tag_231:\n        /* \"#utility.yul\":7847:8388   */\n      swap6\n      swap5\n      pop\n      pop\n      pop\n      pop\n      pop\n      jump\t// out\n        /* \"#utility.yul\":8475:8574   */\n    tag_166:\n        /* \"#utility.yul\":8527:8533   */\n      0x00\n        /* \"#utility.yul\":8561:8566   */\n      dup2\n        /* \"#utility.yul\":8555:8567   */\n      mload\n        /* \"#utility.yul\":8545:8567   */\n      swap1\n      pop\n        /* \"#utility.yul\":8475:8574   */\n      swap2\n      swap1\n      pop\n      jump\t// out\n        /* \"#utility.yul\":8580:8739   */\n    tag_168:\n        /* \"#utility.yul\":8654:8665   */\n      0x00\n        /* \"#utility.yul\":8688:8694   */\n      dup3\n        /* \"#utility.yul\":8683:8686   */\n      dup3\n        /* \"#utility.yul\":8676:8695   */\n      mstore\n        /* \"#utility.yul\":8728:8732   */\n      0x20\n        /* \"#utility.yul\":8723:8726   */\n      dup3\n        /* \"#utility.yul\":8719:8733   */\n      add\n        /* \"#utility.yul\":8704:8733   */\n      swap1\n      pop\n        /* \"#utility.yul\":8580:8739   */\n      swap3\n      swap2\n      pop\n      pop\n      jump\t// out\n        /* \"#utility.yul\":8745:8914   */\n    tag_176:\n        /* \"#utility.yul\":8829:8840   */\n      0x00\n        /* \"#utility.yul\":8863:8869   */\n      dup3\n        /* \"#utility.yul\":8858:8861   */\n      dup3\n        /* \"#utility.yul\":8851:8870   */\n      mstore\n        /* \"#utility.yul\":8903:8907   */\n      0x20\n        /* \"#utility.yul\":8898:8901   */\n      dup3\n        /* \"#utility.yul\":8894:8908   */\n      add\n        /* \"#utility.yul\":8879:8908   */\n      swap1\n      pop\n        /* \"#utility.yul\":8745:8914   */\n      swap3\n      swap2\n      pop\n      pop\n      jump\t// out\n        /* \"#utility.yul\":8920:9445   */\n    tag_134:\n        /* \"#utility.yul\":8959:8962   */\n      0x00\n        /* \"#utility.yul\":8978:8997   */\n      tag_238\n        /* \"#utility.yul\":8995:8996   */\n      dup3\n        /* \"#utility.yul\":8978:8997   */\n      tag_239\n      jump\t// in\n    tag_238:\n        /* \"#utility.yul\":8973:8997   */\n      swap2\n      pop\n        /* \"#utility.yul\":9011:9030   */\n      tag_240\n        /* \"#utility.yul\":9028:9029   */\n      dup4\n        /* \"#utility.yul\":9011:9030   */\n      tag_239\n      jump\t// in\n    tag_240:\n        /* \"#utility.yul\":9006:9030   */\n      swap3\n      pop\n        /* \"#utility.yul\":9199:9200   */\n      dup2\n        /* \"#utility.yul\":9131:9197   */\n      0x7fffffffffffffffffffffffffffffffffffffffffffffffffffffffffffffff\n        /* \"#utility.yul\":9127:9201   */\n      sub\n        /* \"#utility.yul\":9124:9125   */\n      dup4\n        /* \"#utility.yul\":9120:9202   */\n      sgt\n        /* \"#utility.yul\":9115:9116   */\n      0x00\n        /* \"#utility.yul\":9112:9113   */\n      dup4\n        /* \"#utility.yul\":9108:9117   */\n      slt\n        /* \"#utility.yul\":9101:9118   */\n      iszero\n        /* \"#utility.yul\":9097:9203   */\n      and\n        /* \"#utility.yul\":9094:9226   */\n      iszero\n      tag_241\n      jumpi\n        /* \"#utility.yul\":9206:9224   */\n      tag_242\n      tag_243\n      jump\t// in\n    tag_242:\n        /* \"#utility.yul\":9094:9226   */\n    tag_241:\n        /* \"#utility.yul\":9386:9387   */\n      dup2\n        /* \"#utility.yul\":9318:9384   */\n      0x8000000000000000000000000000000000000000000000000000000000000000\n        /* \"#utility.yul\":9314:9388   */\n      sub\n        /* \"#utility.yul\":9311:9312   */\n      dup4\n        /* \"#utility.yul\":9307:9389   */\n      slt\n        /* \"#utility.yul\":9303:9304   */\n      0x00\n        /* \"#utility.yul\":9300:9301   */\n      dup4\n        /* \"#utility.yul\":9296:9305   */\n      slt\n        /* \"#utility.yul\":9292:9390   */\n      and\n        /* \"#utility.yul\":9289:9413   */\n      iszero\n      tag_244\n      jumpi\n        /* \"#utility.yul\":9393:9411   */\n      tag_245\n      tag_243\n      jump\t// in\n    tag_245:\n        /* \"#utility.yul\":9289:9413   */\n    tag_244:\n        /* \"#utility.yul\":9437:9438   */\n      dup3\n        /* \"#utility.yul\":9434:9435   */\n      dup3\n        /* \"#utility.yul\":9430:9439   */\n      add\n        /* \"#utility.yul\":9423:9439   */\n      swap1\n      pop\n        /* \"#utility.yul\":8920:9445   */\n      swap3\n      swap2\n      pop\n      pop\n      jump\t// out\n        /* \"#utility.yul\":9451:9756   */\n    tag_43:\n        /* \"#utility.yul\":9491:9494   */\n      0x00\n        /* \"#utility.yul\":9510:9530   */\n      tag_247\n        /* \"#utility.yul\":9528:9529   */\n      dup3\n        /* \"#utility.yul\":9510:9530   */\n      tag_206\n      jump\t// in\n    tag_247:\n        /* \"#utility.yul\":9505:9530   */\n      swap2\n      pop\n        /* \"#utility.yul\":9544:9564   */\n      tag_248\n        /* \"#utility.yul\":9562:9563   */\n      dup4\n        /* \"#utility.yul\":9544:9564   */\n      tag_206\n      jump\t// in\n    tag_248:\n        /* \"#utility.yul\":9539:9564   */\n      swap3\n      pop\n        /* \"#utility.yul\":9698:9699   */\n      dup3\n        /* \"#utility.yul\":9630:9696   */\n      0xffffffffffffffffffffffffffffffffffffffffffffffffffffffffffffffff\n        /* \"#utility.yul\":9626:9700   */\n      sub\n        /* \"#utility.yul\":9623:9624   */\n      dup3\n        /* \"#utility.yul\":9620:9701   */\n      gt\n        /* \"#utility.yul\":9617:9724   */\n      iszero\n      tag_249\n      jumpi\n        /* \"#utility.yul\":9704:9722   */\n      tag_250\n      tag_243\n      jump\t// in\n    tag_250:\n        /* \"#utility.yul\":9617:9724   */\n    tag_249:\n        /* \"#utility.yul\":9748:9749   */\n      dup3\n        /* \"#utility.yul\":9745:9746   */\n      dup3\n        /* \"#utility.yul\":9741:9750   */\n      add\n        /* \"#utility.yul\":9734:9750   */\n      swap1\n      pop\n        /* \"#utility.yul\":9451:9756   */\n      swap3\n      swap2\n      pop\n      pop\n      jump\t// out\n        /* \"#utility.yul\":9762:9858   */\n    tag_157:\n        /* \"#utility.yul\":9799:9806   */\n      0x00\n        /* \"#utility.yul\":9828:9852   */\n      tag_252\n        /* \"#utility.yul\":9846:9851   */\n      dup3\n        /* \"#utility.yul\":9828:9852   */\n      tag_253\n      jump\t// in\n    tag_252:\n        /* \"#utility.yul\":9817:9852   */\n      swap1\n      pop\n        /* \"#utility.yul\":9762:9858   */\n      swap2\n      swap1\n      pop\n      jump\t// out\n        /* \"#utility.yul\":9864:9954   */\n    tag_162:\n        /* \"#utility.yul\":9898:9905   */\n      0x00\n        /* \"#utility.yul\":9941:9946   */\n      dup2\n        /* \"#utility.yul\":9934:9947   */\n      iszero\n        /* \"#utility.yul\":9927:9948   */\n      iszero\n        /* \"#utility.yul\":9916:9948   */\n      swap1\n      pop\n        /* \"#utility.yul\":9864:9954   */\n      swap2\n      swap1\n      pop\n      jump\t// out\n        /* \"#utility.yul\":9960:10036   */\n    tag_239:\n        /* \"#utility.yul\":9996:10003   */\n      0x00\n        /* \"#utility.yul\":10025:10030   */\n      dup2\n        /* \"#utility.yul\":10014:10030   */\n      swap1\n      pop\n        /* \"#utility.yul\":9960:10036   */\n      swap2\n      swap1\n      pop\n      jump\t// out\n        /* \"#utility.yul\":10042:10168   */\n    tag_253:\n        /* \"#utility.yul\":10079:10086   */\n      0x00\n        /* \"#utility.yul\":10119:10161   */\n      0xffffffffffffffffffffffffffffffffffffffff\n        /* \"#utility.yul\":10112:10117   */\n      dup3\n        /* \"#utility.yul\":10108:10162   */\n      and\n        /* \"#utility.yul\":10097:10162   */\n      swap1\n      pop\n        /* \"#utility.yul\":10042:10168   */\n      swap2\n      swap1\n      pop\n      jump\t// out\n        /* \"#utility.yul\":10174:10251   */\n    tag_206:\n        /* \"#utility.yul\":10211:10218   */\n      0x00\n        /* \"#utility.yul\":10240:10245   */\n      dup2\n        /* \"#utility.yul\":10229:10245   */\n      swap1\n      pop\n        /* \"#utility.yul\":10174:10251   */\n      swap2\n      swap1\n      pop\n      jump\t// out\n        /* \"#utility.yul\":10257:10564   */\n    tag_170:\n        /* \"#utility.yul\":10325:10326   */\n      0x00\n        /* \"#utility.yul\":10335:10448   */\n    tag_259:\n        /* \"#utility.yul\":10349:10355   */\n      dup4\n        /* \"#utility.yul\":10346:10347   */\n      dup2\n        /* \"#utility.yul\":10343:10356   */\n      lt\n        /* \"#utility.yul\":10335:10448   */\n      iszero\n      tag_261\n      jumpi\n        /* \"#utility.yul\":10434:10435   */\n      dup1\n        /* \"#utility.yul\":10429:10432   */\n      dup3\n        /* \"#utility.yul\":10425:10436   */\n      add\n        /* \"#utility.yul\":10419:10437   */\n      mload\n        /* \"#utility.yul\":10415:10416   */\n      dup2\n        /* \"#utility.yul\":10410:10413   */\n      dup5\n        /* \"#utility.yul\":10406:10417   */\n      add\n        /* \"#utility.yul\":10399:10438   */\n      mstore\n        /* \"#utility.yul\":10371:10373   */\n      0x20\n        /* \"#utility.yul\":10368:10369   */\n      dup2\n        /* \"#utility.yul\":10364:10374   */\n      add\n        /* \"#utility.yul\":10359:10374   */\n      swap1\n      pop\n        /* \"#utility.yul\":10335:10448   */\n      jump(tag_259)\n    tag_261:\n        /* \"#utility.yul\":10466:10472   */\n      dup4\n        /* \"#utility.yul\":10463:10464   */\n      dup2\n        /* \"#utility.yul\":10460:10473   */\n      gt\n        /* \"#utility.yul\":10457:10558   */\n      iszero\n      tag_262\n      jumpi\n        /* \"#utility.yul\":10546:10547   */\n      0x00\n        /* \"#utility.yul\":10537:10543   */\n      dup5\n        /* \"#utility.yul\":10532:10535   */\n      dup5\n        /* \"#utility.yul\":10528:10544   */\n      add\n        /* \"#utility.yul\":10521:10548   */\n      mstore\n        /* \"#utility.yul\":10457:10558   */\n    tag_262:\n        /* \"#utility.yul\":10306:10564   */\n      pop\n        /* \"#utility.yul\":10257:10564   */\n      pop\n      pop\n      pop\n      jump\t// out\n        /* \"#utility.yul\":10570:10890   */\n    tag_119:\n        /* \"#utility.yul\":10614:10620   */\n      0x00\n        /* \"#utility.yul\":10651:10652   */\n      0x02\n        /* \"#utility.yul\":10645:10649   */\n      dup3\n        /* \"#utility.yul\":10641:10653   */\n      div\n        /* \"#utility.yul\":10631:10653   */\n      swap1\n      pop\n        /* \"#utility.yul\":10698:10699   */\n      0x01\n        /* \"#utility.yul\":10692:10696   */\n      dup3\n        /* \"#utility.yul\":10688:10700   */\n      and\n        /* \"#utility.yul\":10719:10737   */\n      dup1\n        /* \"#utility.yul\":10709:10790   */\n      tag_264\n      jumpi\n        /* \"#utility.yul\":10775:10779   */\n      0x7f\n        /* \"#utility.yul\":10767:10773   */\n      dup3\n        /* \"#utility.yul\":10763:10780   */\n      and\n        /* \"#utility.yul\":10753:10780   */\n      swap2\n      pop\n        /* \"#utility.yul\":10709:10790   */\n    tag_264:\n        /* \"#utility.yul\":10837:10839   */\n      0x20\n        /* \"#utility.yul\":10829:10835   */\n      dup3\n        /* \"#utility.yul\":10826:10840   */\n      lt\n        /* \"#utility.yul\":10806:10824   */\n      dup2\n        /* \"#utility.yul\":10803:10841   */\n      eq\n        /* \"#utility.yul\":10800:10884   */\n      iszero\n      tag_265\n      jumpi\n        /* \"#utility.yul\":10856:10874   */\n      tag_266\n      tag_267\n      jump\t// in\n    tag_266:\n        /* \"#utility.yul\":10800:10884   */\n    tag_265:\n        /* \"#utility.yul\":10621:10890   */\n      pop\n        /* \"#utility.yul\":10570:10890   */\n      swap2\n      swap1\n      pop\n      jump\t// out\n        /* \"#utility.yul\":10896:10996   */\n    tag_158:\n        /* \"#utility.yul\":10935:10942   */\n      0x00\n        /* \"#utility.yul\":10964:10990   */\n      tag_269\n        /* \"#utility.yul\":10984:10989   */\n      dup3\n        /* \"#utility.yul\":10964:10990   */\n      tag_270\n      jump\t// in\n    tag_269:\n        /* \"#utility.yul\":10953:10990   */\n      swap1\n      pop\n        /* \"#utility.yul\":10896:10996   */\n      swap2\n      swap1\n      pop\n      jump\t// out\n        /* \"#utility.yul\":11002:11096   */\n    tag_270:\n        /* \"#utility.yul\":11041:11048   */\n      0x00\n        /* \"#utility.yul\":11070:11090   */\n      tag_272\n        /* \"#utility.yul\":11084:11089   */\n      dup3\n        /* \"#utility.yul\":11070:11090   */\n      tag_273\n      jump\t// in\n    tag_272:\n        /* \"#utility.yul\":11059:11090   */\n      swap1\n      pop\n        /* \"#utility.yul\":11002:11096   */\n      swap2\n      swap1\n      pop\n      jump\t// out\n        /* \"#utility.yul\":11102:11181   */\n    tag_214:\n        /* \"#utility.yul\":11141:11148   */\n      0x00\n        /* \"#utility.yul\":11170:11175   */\n      dup2\n        /* \"#utility.yul\":11159:11175   */\n      swap1\n      pop\n        /* \"#utility.yul\":11102:11181   */\n      swap2\n      swap1\n      pop\n      jump\t// out\n        /* \"#utility.yul\":11187:11363   */\n    tag_128:\n        /* \"#utility.yul\":11219:11220   */\n      0x00\n        /* \"#utility.yul\":11236:11256   */\n      tag_276\n        /* \"#utility.yul\":11254:11255   */\n      dup3\n        /* \"#utility.yul\":11236:11256   */\n      tag_206\n      jump\t// in\n    tag_276:\n        /* \"#utility.yul\":11231:11256   */\n      swap2\n      pop\n        /* \"#utility.yul\":11270:11290   */\n      tag_277\n        /* \"#utility.yul\":11288:11289   */\n      dup4\n        /* \"#utility.yul\":11270:11290   */\n      tag_206\n      jump\t// in\n    tag_277:\n        /* \"#utility.yul\":11265:11290   */\n      swap3\n      pop\n        /* \"#utility.yul\":11309:11310   */\n      dup3\n        /* \"#utility.yul\":11299:11334   */\n      tag_278\n      jumpi\n        /* \"#utility.yul\":11314:11332   */\n      tag_279\n      tag_280\n      jump\t// in\n    tag_279:\n        /* \"#utility.yul\":11299:11334   */\n    tag_278:\n        /* \"#utility.yul\":11355:11356   */\n      dup3\n        /* \"#utility.yul\":11352:11353   */\n      dup3\n        /* \"#utility.yul\":11348:11357   */\n      mod\n        /* \"#utility.yul\":11343:11357   */\n      swap1\n      pop\n        /* \"#utility.yul\":11187:11363   */\n      swap3\n      swap2\n      pop\n      pop\n      jump\t// out\n        /* \"#utility.yul\":11369:11549   */\n    tag_243:\n        /* \"#utility.yul\":11417:11494   */\n      0x4e487b7100000000000000000000000000000000000000000000000000000000\n        /* \"#utility.yul\":11414:11415   */\n      0x00\n        /* \"#utility.yul\":11407:11495   */\n      mstore\n        /* \"#utility.yul\":11514:11518   */\n      0x11\n        /* \"#utility.yul\":11511:11512   */\n      0x04\n        /* \"#utility.yul\":11504:11519   */\n      mstore\n        /* \"#utility.yul\":11538:11542   */\n      0x24\n        /* \"#utility.yul\":11535:11536   */\n      0x00\n        /* \"#utility.yul\":11528:11543   */\n      revert\n        /* \"#utility.yul\":11555:11735   */\n    tag_280:\n        /* \"#utility.yul\":11603:11680   */\n      0x4e487b7100000000000000000000000000000000000000000000000000000000\n        /* \"#utility.yul\":11600:11601   */\n      0x00\n        /* \"#utility.yul\":11593:11681   */\n      mstore\n        /* \"#utility.yul\":11700:11704   */\n      0x12\n        /* \"#utility.yul\":11697:11698   */\n      0x04\n        /* \"#utility.yul\":11690:11705   */\n      mstore\n        /* \"#utility.yul\":11724:11728   */\n      0x24\n        /* \"#utility.yul\":11721:11722   */\n      0x00\n        /* \"#utility.yul\":11714:11729   */\n      revert\n        /* \"#utility.yul\":11741:11921   */\n    tag_267:\n        /* \"#utility.yul\":11789:11866   */\n      0x4e487b7100000000000000000000000000000000000000000000000000000000\n        /* \"#utility.yul\":11786:11787   */\n      0x00\n        /* \"#utility.yul\":11779:11867   */\n      mstore\n        /* \"#utility.yul\":11886:11890   */\n      0x22\n        /* \"#utility.yul\":11883:11884   */\n      0x04\n        /* \"#utility.yul\":11876:11891   */\n      mstore\n        /* \"#utility.yul\":11910:11914   */\n      0x24\n        /* \"#utility.yul\":11907:11908   */\n      0x00\n        /* \"#utility.yul\":11900:11915   */\n      revert\n        /* \"#utility.yul\":11927:12107   */\n    tag_40:\n        /* \"#utility.yul\":11975:12052   */\n      0x4e487b7100000000000000000000000000000000000000000000000000000000\n        /* \"#utility.yul\":11972:11973   */\n      0x00\n        /* \"#utility.yul\":11965:12053   */\n      mstore\n        /* \"#utility.yul\":12072:12076   */\n      0x32\n        /* \"#utility.yul\":12069:12070   */\n      0x04\n        /* \"#utility.yul\":12062:12077   */\n      mstore\n        /* \"#utility.yul\":12096:12100   */\n      0x24\n        /* \"#utility.yul\":12093:12094   */\n      0x00\n        /* \"#utility.yul\":12086:12101   */\n      revert\n        /* \"#utility.yul\":12236:12353   */\n    tag_147:\n        /* \"#utility.yul\":12345:12346   */\n      0x00\n        /* \"#utility.yul\":12342:12343   */\n      dup1\n        /* \"#utility.yul\":12335:12347   */\n      revert\n        /* \"#utility.yul\":12359:12461   */\n    tag_172:\n        /* \"#utility.yul\":12400:12406   */\n      0x00\n        /* \"#utility.yul\":12451:12453   */\n      0x1f\n        /* \"#utility.yul\":12447:12454   */\n      not\n        /* \"#utility.yul\":12442:12444   */\n      0x1f\n        /* \"#utility.yul\":12435:12440   */\n      dup4\n        /* \"#utility.yul\":12431:12445   */\n      add\n        /* \"#utility.yul\":12427:12455   */\n      and\n        /* \"#utility.yul\":12417:12455   */\n      swap1\n      pop\n        /* \"#utility.yul\":12359:12461   */\n      swap2\n      swap1\n      pop\n      jump\t// out\n        /* \"#utility.yul\":12467:12561   */\n    tag_273:\n        /* \"#utility.yul\":12500:12508   */\n      0x00\n        /* \"#utility.yul\":12548:12553   */\n      dup2\n        /* \"#utility.yul\":12544:12546   */\n      0x60\n        /* \"#utility.yul\":12540:12554   */\n      shl\n        /* \"#utility.yul\":12519:12554   */\n      swap1\n      pop\n        /* \"#utility.yul\":12467:12561   */\n      swap2\n      swap1\n      pop\n      jump\t// out\n        /* \"#utility.yul\":12567:12731   */\n    tag_178:\n        /* \"#utility.yul\":12707:12723   */\n      0x416c726561647920766f7465642e000000000000000000000000000000000000\n        /* \"#utility.yul\":12703:12704   */\n      0x00\n        /* \"#utility.yul\":12695:12701   */\n      dup3\n        /* \"#utility.yul\":12691:12705   */\n      add\n        /* \"#utility.yul\":12684:12724   */\n      mstore\n        /* \"#utility.yul\":12567:12731   */\n      pop\n      jump\t// out\n        /* \"#utility.yul\":12737:12911   */\n    tag_183:\n        /* \"#utility.yul\":12877:12903   */\n      0x54686520766f74657220616c726561647920766f7465642e0000000000000000\n        /* \"#utility.yul\":12873:12874   */\n      0x00\n        /* \"#utility.yul\":12865:12871   */\n      dup3\n        /* \"#utility.yul\":12861:12875   */\n      add\n        /* \"#utility.yul\":12854:12904   */\n      mstore\n        /* \"#utility.yul\":12737:12911   */\n      pop\n      jump\t// out\n        /* \"#utility.yul\":12917:13086   */\n    tag_188:\n        /* \"#utility.yul\":13057:13078   */\n      0x52656163686564206d617820766f746572732e00000000000000000000000000\n        /* \"#utility.yul\":13053:13054   */\n      0x00\n        /* \"#utility.yul\":13045:13051   */\n      dup3\n        /* \"#utility.yul\":13041:13055   */\n      add\n        /* \"#utility.yul\":13034:13079   */\n      mstore\n        /* \"#utility.yul\":12917:13086   */\n      pop\n      jump\t// out\n        /* \"#utility.yul\":13092:13214   */\n    tag_139:\n        /* \"#utility.yul\":13165:13189   */\n      tag_294\n        /* \"#utility.yul\":13183:13188   */\n      dup2\n        /* \"#utility.yul\":13165:13189   */\n      tag_157\n      jump\t// in\n    tag_294:\n        /* \"#utility.yul\":13158:13163   */\n      dup2\n        /* \"#utility.yul\":13155:13190   */\n      eq\n        /* \"#utility.yul\":13145:13208   */\n      tag_295\n      jumpi\n        /* \"#utility.yul\":13204:13205   */\n      0x00\n        /* \"#utility.yul\":13201:13202   */\n      dup1\n        /* \"#utility.yul\":13194:13206   */\n      revert\n        /* \"#utility.yul\":13145:13208   */\n    tag_295:\n        /* \"#utility.yul\":13092:13214   */\n      pop\n      jump\t// out\n        /* \"#utility.yul\":13220:13342   */\n    tag_143:\n        /* \"#utility.yul\":13293:13317   */\n      tag_297\n        /* \"#utility.yul\":13311:13316   */\n      dup2\n        /* \"#utility.yul\":13293:13317   */\n      tag_206\n      jump\t// in\n    tag_297:\n        /* \"#utility.yul\":13286:13291   */\n      dup2\n        /* \"#utility.yul\":13283:13318   */\n      eq\n        /* \"#utility.yul\":13273:13336   */\n      tag_298\n      jumpi\n        /* \"#utility.yul\":13332:13333   */\n      0x00\n        /* \"#utility.yul\":13329:13330   */\n      dup1\n        /* \"#utility.yul\":13322:13334   */\n      revert\n        /* \"#utility.yul\":13273:13336   */\n    tag_298:\n        /* \"#utility.yul\":13220:13342   */\n      pop\n      jump\t// out\n\n    auxdata: 0xa264697066735822122027f4c21eea1e384fd4b0c08a7eafa72af4f885d97de2647df759c5729d2475ee64736f6c63430008070033\n}\n",
				"bytecode": {
					"linkReferences": {},
					"object": "6080604052600060035560006004553480156200001b57600080fd5b50336000806101000a81548173ffffffffffffffffffffffffffffffffffffffff021916908373ffffffffffffffffffffffffffffffffffffffff16021790555060018060008060009054906101000a900473ffffffffffffffffffffffffffffffffffffffff1673ffffffffffffffffffffffffffffffffffffffff1673ffffffffffffffffffffffffffffffffffffffff1681526020019081526020016000206000018190555060006040518060a001604052806040518060400160405280600181526020017f610000000000000000000000000000000000000000000000000000000000000081525081526020016040518060400160405280600181526020017f620000000000000000000000000000000000000000000000000000000000000081525081526020016040518060400160405280600181526020017f630000000000000000000000000000000000000000000000000000000000000081525081526020016040518060400160405280600181526020017f640000000000000000000000000000000000000000000000000000000000000081525081526020016040518060400160405280600181526020017f65000000000000000000000000000000000000000000000000000000000000008152508152509050600580146200023e576040517f08c379a0000000000000000000000000000000000000000000000000000000008152600401620002359062000475565b60405180910390fd5b60005b6005811015620003965760026040518061018001604052808484600581106200026f576200026e62000594565b5b6020020151815260200160008152602001600081526020016000815260200160008152602001600081526020016000815260200160008152602001600081526020016000815260200160008152602001600081525090806001815401808255809150506001900390600052602060002090600c020160009091909190915060008201518160000190805190602001906200030b9291906200039e565b506020820151816001015560408201518160020155606082015181600301556080820151816004015560a0820151816005015560c0820151816006015560e082015181600701556101008201518160080155610120820151816009015561014082015181600a015561016082015181600b0155505080806200038d90620004e8565b91505062000241565b5050620005ec565b828054620003ac90620004b2565b90600052602060002090601f016020900481019282620003d057600085556200041c565b82601f10620003eb57805160ff19168380011785556200041c565b828001600101855582156200041c579182015b828111156200041b578251825591602001919060010190620003fe565b5b5090506200042b91906200042f565b5090565b5b808211156200044a57600081600090555060010162000430565b5090565b60006200045d60158362000497565b91506200046a82620005c3565b602082019050919050565b6000602082019050818103600083015262000490816200044e565b9050919050565b600082825260208201905092915050565b6000819050919050565b60006002820490506001821680620004cb57607f821691505b60208210811415620004e257620004e162000565565b5b50919050565b6000620004f582620004a8565b91507fffffffffffffffffffffffffffffffffffffffffffffffffffffffffffffffff8214156200052b576200052a62000536565b5b600182019050919050565b7f4e487b7100000000000000000000000000000000000000000000000000000000600052601160045260246000fd5b7f4e487b7100000000000000000000000000000000000000000000000000000000600052602260045260246000fd5b7f4e487b7100000000000000000000000000000000000000000000000000000000600052603260045260246000fd5b7f43616e64696461746573206d75737420626520352e0000000000000000000000600082015250565b6110df80620005fc6000396000f3fe608060405234801561001057600080fd5b50600436106100415760003560e01c8063632a9a5214610046578063a3ec138d14610050578063d4e8fd2e14610083575b600080fd5b61004e6100b3565b005b61006a60048036038101906100659190610995565b6106f2565b60405161007a9493929190610caf565b60405180910390f35b61009d600480360381019061009891906109c2565b61072f565b6040516100aa9190610c8d565b60405180910390f35b600160003373ffffffffffffffffffffffffffffffffffffffff1673ffffffffffffffffffffffffffffffffffffffff16815260200190815260200160002060010160009054906101000a900460ff1615610143576040517f08c379a000000000000000000000000000000000000000000000000000000000815260040161013a90610c4d565b60405180910390fd5b6000600160003373ffffffffffffffffffffffffffffffffffffffff1673ffffffffffffffffffffffffffffffffffffffff168152602001908152602001600020600001541461019257600080fd5b60018060003373ffffffffffffffffffffffffffffffffffffffff1673ffffffffffffffffffffffffffffffffffffffff168152602001908152602001600020600001819055506064600354131561021f576040517f08c379a000000000000000000000000000000000000000000000000000000000815260040161021690610c6d565b60405180910390fd5b61022761086c565b600160003373ffffffffffffffffffffffffffffffffffffffff1673ffffffffffffffffffffffffffffffffffffffff168152602001908152602001600020600201819055506000600160003373ffffffffffffffffffffffffffffffffffffffff1673ffffffffffffffffffffffffffffffffffffffff16815260200190815260200160002090508060010160009054906101000a900460ff1615610302576040517f08c379a00000000000000000000000000000000000000000000000000000000081526004016102f990610c2d565b60405180910390fd5b60018160010160006101000a81548160ff0219169083151502179055506103276108ad565b81600301819055506103376108ee565b806000015460026103466108ad565b8154811061035757610356610fae565b5b90600052602060002090600c020160010160008282546103779190610db5565b925050819055506000816002015414156103d7578060000154600261039a6108ad565b815481106103ab576103aa610fae565b5b90600052602060002090600c020160020160008282546103cb9190610db5565b925050819055506106ef565b60018160020154141561043057806000015460026103f36108ad565b8154811061040457610403610fae565b5b90600052602060002090600c020160030160008282546104249190610db5565b925050819055506106ee565b600281600201541415610489578060000154600261044c6108ad565b8154811061045d5761045c610fae565b5b90600052602060002090600c0201600401600082825461047d9190610db5565b925050819055506106ed565b6003816002015414156104e257806000015460026104a56108ad565b815481106104b6576104b5610fae565b5b90600052602060002090600c020160050160008282546104d69190610db5565b925050819055506106ec565b60048160020154141561053b57806000015460026104fe6108ad565b8154811061050f5761050e610fae565b5b90600052602060002090600c0201600601600082825461052f9190610db5565b925050819055506106eb565b60058160020154141561059457806000015460026105576108ad565b8154811061056857610567610fae565b5b90600052602060002090600c020160070160008282546105889190610db5565b925050819055506106ea565b6006816002015414156105ed57806000015460026105b06108ad565b815481106105c1576105c0610fae565b5b90600052602060002090600c020160080160008282546105e19190610db5565b925050819055506106e9565b60078160020154141561064657806000015460026106096108ad565b8154811061061a57610619610fae565b5b90600052602060002090600c0201600901600082825461063a9190610db5565b925050819055506106e8565b60088160020154141561069f57806000015460026106626108ad565b8154811061067357610672610fae565b5b90600052602060002090600c0201600a0160008282546106939190610db5565b925050819055506106e7565b806000015460026106ae6108ad565b815481106106bf576106be610fae565b5b90600052602060002090600c0201600b0160008282546106df9190610db5565b925050819055505b5b5b5b5b5b5b5b5b50565b60016020528060005260406000206000915090508060000154908060010160009054906101000a900460ff16908060020154908060030154905084565b61073761090a565b6002828154811061074b5761074a610fae565b5b90600052602060002090600c02016040518061018001604052908160008201805461077590610e90565b80601f01602080910402602001604051908101604052809291908181526020018280546107a190610e90565b80156107ee5780601f106107c3576101008083540402835291602001916107ee565b820191906000526020600020905b8154815290600101906020018083116107d157829003601f168201915b50505050508152602001600182015481526020016002820154815260200160038201548152602001600482015481526020016005820154815260200160068201548152602001600782015481526020016008820154815260200160098201548152602001600a8201548152602001600b820154815250509050919050565b6000600a42443360405160200161088593929190610bf0565b6040516020818303038152906040528051906020012060001c6108a89190610ef0565b905090565b600060054244336040516020016108c693929190610bf0565b6040516020818303038152906040528051906020012060001c6108e99190610ef0565b905090565b6001600360008282546109019190610d21565b92505081905550565b6040518061018001604052806060815260200160008152602001600081526020016000815260200160008152602001600081526020016000815260200160008152602001600081526020016000815260200160008152602001600081525090565b60008135905061097a8161107b565b92915050565b60008135905061098f81611092565b92915050565b6000602082840312156109ab576109aa610fdd565b5b60006109b98482850161096b565b91505092915050565b6000602082840312156109d8576109d7610fdd565b5b60006109e684828501610980565b91505092915050565b610a006109fb82610e0b565b610ec2565b82525050565b610a0f81610e1d565b82525050565b6000610a2082610cf4565b610a2a8185610cff565b9350610a3a818560208601610e5d565b610a4381610fe2565b840191505092915050565b6000610a5b600e83610d10565b9150610a6682611000565b602082019050919050565b6000610a7e601883610d10565b9150610a8982611029565b602082019050919050565b6000610aa1601383610d10565b9150610aac82611052565b602082019050919050565b6000610180830160008301518482036000860152610ad58282610a15565b9150506020830151610aea6020860182610bbb565b506040830151610afd6040860182610bbb565b506060830151610b106060860182610bbb565b506080830151610b236080860182610bbb565b5060a0830151610b3660a0860182610bbb565b5060c0830151610b4960c0860182610bbb565b5060e0830151610b5c60e0860182610bbb565b50610100830151610b71610100860182610bbb565b50610120830151610b86610120860182610bbb565b50610140830151610b9b610140860182610bbb565b50610160830151610bb0610160860182610bbb565b508091505092915050565b610bc481610e53565b82525050565b610bd381610e53565b82525050565b610bea610be582610e53565b610ee6565b82525050565b6000610bfc8286610bd9565b602082019150610c0c8285610bd9565b602082019150610c1c82846109ef565b601482019150819050949350505050565b60006020820190508181036000830152610c4681610a4e565b9050919050565b60006020820190508181036000830152610c6681610a71565b9050919050565b60006020820190508181036000830152610c8681610a94565b9050919050565b60006020820190508181036000830152610ca78184610ab7565b905092915050565b6000608082019050610cc46000830187610bca565b610cd16020830186610a06565b610cde6040830185610bca565b610ceb6060830184610bca565b95945050505050565b600081519050919050565b600082825260208201905092915050565b600082825260208201905092915050565b6000610d2c82610e29565b9150610d3783610e29565b9250817f7fffffffffffffffffffffffffffffffffffffffffffffffffffffffffffffff03831360008312151615610d7257610d71610f21565b5b817f8000000000000000000000000000000000000000000000000000000000000000038312600083121615610daa57610da9610f21565b5b828201905092915050565b6000610dc082610e53565b9150610dcb83610e53565b9250827fffffffffffffffffffffffffffffffffffffffffffffffffffffffffffffffff03821115610e0057610dff610f21565b5b828201905092915050565b6000610e1682610e33565b9050919050565b60008115159050919050565b6000819050919050565b600073ffffffffffffffffffffffffffffffffffffffff82169050919050565b6000819050919050565b60005b83811015610e7b578082015181840152602081019050610e60565b83811115610e8a576000848401525b50505050565b60006002820490506001821680610ea857607f821691505b60208210811415610ebc57610ebb610f7f565b5b50919050565b6000610ecd82610ed4565b9050919050565b6000610edf82610ff3565b9050919050565b6000819050919050565b6000610efb82610e53565b9150610f0683610e53565b925082610f1657610f15610f50565b5b828206905092915050565b7f4e487b7100000000000000000000000000000000000000000000000000000000600052601160045260246000fd5b7f4e487b7100000000000000000000000000000000000000000000000000000000600052601260045260246000fd5b7f4e487b7100000000000000000000000000000000000000000000000000000000600052602260045260246000fd5b7f4e487b7100000000000000000000000000000000000000000000000000000000600052603260045260246000fd5b600080fd5b6000601f19601f8301169050919050565b60008160601b9050919050565b7f416c726561647920766f7465642e000000000000000000000000000000000000600082015250565b7f54686520766f74657220616c726561647920766f7465642e0000000000000000600082015250565b7f52656163686564206d617820766f746572732e00000000000000000000000000600082015250565b61108481610e0b565b811461108f57600080fd5b50565b61109b81610e53565b81146110a657600080fd5b5056fea264697066735822122027f4c21eea1e384fd4b0c08a7eafa72af4f885d97de2647df759c5729d2475ee64736f6c63430008070033",
					"opcodes": "PUSH1 0x80 PUSH1 0x40 MSTORE PUSH1 0x0 PUSH1 0x3 SSTORE PUSH1 0x0 PUSH1 0x4 SSTORE CALLVALUE DUP1 ISZERO PUSH3 0x1B JUMPI PUSH1 0x0 DUP1 REVERT JUMPDEST POP CALLER PUSH1 0x0 DUP1 PUSH2 0x100 EXP DUP2 SLOAD DUP2 PUSH20 0xFFFFFFFFFFFFFFFFFFFFFFFFFFFFFFFFFFFFFFFF MUL NOT AND SWAP1 DUP4 PUSH20 0xFFFFFFFFFFFFFFFFFFFFFFFFFFFFFFFFFFFFFFFF AND MUL OR SWAP1 SSTORE POP PUSH1 0x1 DUP1 PUSH1 0x0 DUP1 PUSH1 0x0 SWAP1 SLOAD SWAP1 PUSH2 0x100 EXP SWAP1 DIV PUSH20 0xFFFFFFFFFFFFFFFFFFFFFFFFFFFFFFFFFFFFFFFF AND PUSH20 0xFFFFFFFFFFFFFFFFFFFFFFFFFFFFFFFFFFFFFFFF AND PUSH20 0xFFFFFFFFFFFFFFFFFFFFFFFFFFFFFFFFFFFFFFFF AND DUP2 MSTORE PUSH1 0x20 ADD SWAP1 DUP2 MSTORE PUSH1 0x20 ADD PUSH1 0x0 KECCAK256 PUSH1 0x0 ADD DUP2 SWAP1 SSTORE POP PUSH1 0x0 PUSH1 0x40 MLOAD DUP1 PUSH1 0xA0 ADD PUSH1 0x40 MSTORE DUP1 PUSH1 0x40 MLOAD DUP1 PUSH1 0x40 ADD PUSH1 0x40 MSTORE DUP1 PUSH1 0x1 DUP2 MSTORE PUSH1 0x20 ADD PUSH32 0x6100000000000000000000000000000000000000000000000000000000000000 DUP2 MSTORE POP DUP2 MSTORE PUSH1 0x20 ADD PUSH1 0x40 MLOAD DUP1 PUSH1 0x40 ADD PUSH1 0x40 MSTORE DUP1 PUSH1 0x1 DUP2 MSTORE PUSH1 0x20 ADD PUSH32 0x6200000000000000000000000000000000000000000000000000000000000000 DUP2 MSTORE POP DUP2 MSTORE PUSH1 0x20 ADD PUSH1 0x40 MLOAD DUP1 PUSH1 0x40 ADD PUSH1 0x40 MSTORE DUP1 PUSH1 0x1 DUP2 MSTORE PUSH1 0x20 ADD PUSH32 0x6300000000000000000000000000000000000000000000000000000000000000 DUP2 MSTORE POP DUP2 MSTORE PUSH1 0x20 ADD PUSH1 0x40 MLOAD DUP1 PUSH1 0x40 ADD PUSH1 0x40 MSTORE DUP1 PUSH1 0x1 DUP2 MSTORE PUSH1 0x20 ADD PUSH32 0x6400000000000000000000000000000000000000000000000000000000000000 DUP2 MSTORE POP DUP2 MSTORE PUSH1 0x20 ADD PUSH1 0x40 MLOAD DUP1 PUSH1 0x40 ADD PUSH1 0x40 MSTORE DUP1 PUSH1 0x1 DUP2 MSTORE PUSH1 0x20 ADD PUSH32 0x6500000000000000000000000000000000000000000000000000000000000000 DUP2 MSTORE POP DUP2 MSTORE POP SWAP1 POP PUSH1 0x5 DUP1 EQ PUSH3 0x23E JUMPI PUSH1 0x40 MLOAD PUSH32 0x8C379A000000000000000000000000000000000000000000000000000000000 DUP2 MSTORE PUSH1 0x4 ADD PUSH3 0x235 SWAP1 PUSH3 0x475 JUMP JUMPDEST PUSH1 0x40 MLOAD DUP1 SWAP2 SUB SWAP1 REVERT JUMPDEST PUSH1 0x0 JUMPDEST PUSH1 0x5 DUP2 LT ISZERO PUSH3 0x396 JUMPI PUSH1 0x2 PUSH1 0x40 MLOAD DUP1 PUSH2 0x180 ADD PUSH1 0x40 MSTORE DUP1 DUP5 DUP5 PUSH1 0x5 DUP2 LT PUSH3 0x26F JUMPI PUSH3 0x26E PUSH3 0x594 JUMP JUMPDEST JUMPDEST PUSH1 0x20 MUL ADD MLOAD DUP2 MSTORE PUSH1 0x20 ADD PUSH1 0x0 DUP2 MSTORE PUSH1 0x20 ADD PUSH1 0x0 DUP2 MSTORE PUSH1 0x20 ADD PUSH1 0x0 DUP2 MSTORE PUSH1 0x20 ADD PUSH1 0x0 DUP2 MSTORE PUSH1 0x20 ADD PUSH1 0x0 DUP2 MSTORE PUSH1 0x20 ADD PUSH1 0x0 DUP2 MSTORE PUSH1 0x20 ADD PUSH1 0x0 DUP2 MSTORE PUSH1 0x20 ADD PUSH1 0x0 DUP2 MSTORE PUSH1 0x20 ADD PUSH1 0x0 DUP2 MSTORE PUSH1 0x20 ADD PUSH1 0x0 DUP2 MSTORE PUSH1 0x20 ADD PUSH1 0x0 DUP2 MSTORE POP SWAP1 DUP1 PUSH1 0x1 DUP2 SLOAD ADD DUP1 DUP3 SSTORE DUP1 SWAP2 POP POP PUSH1 0x1 SWAP1 SUB SWAP1 PUSH1 0x0 MSTORE PUSH1 0x20 PUSH1 0x0 KECCAK256 SWAP1 PUSH1 0xC MUL ADD PUSH1 0x0 SWAP1 SWAP2 SWAP1 SWAP2 SWAP1 SWAP2 POP PUSH1 0x0 DUP3 ADD MLOAD DUP2 PUSH1 0x0 ADD SWAP1 DUP1 MLOAD SWAP1 PUSH1 0x20 ADD SWAP1 PUSH3 0x30B SWAP3 SWAP2 SWAP1 PUSH3 0x39E JUMP JUMPDEST POP PUSH1 0x20 DUP3 ADD MLOAD DUP2 PUSH1 0x1 ADD SSTORE PUSH1 0x40 DUP3 ADD MLOAD DUP2 PUSH1 0x2 ADD SSTORE PUSH1 0x60 DUP3 ADD MLOAD DUP2 PUSH1 0x3 ADD SSTORE PUSH1 0x80 DUP3 ADD MLOAD DUP2 PUSH1 0x4 ADD SSTORE PUSH1 0xA0 DUP3 ADD MLOAD DUP2 PUSH1 0x5 ADD SSTORE PUSH1 0xC0 DUP3 ADD MLOAD DUP2 PUSH1 0x6 ADD SSTORE PUSH1 0xE0 DUP3 ADD MLOAD DUP2 PUSH1 0x7 ADD SSTORE PUSH2 0x100 DUP3 ADD MLOAD DUP2 PUSH1 0x8 ADD SSTORE PUSH2 0x120 DUP3 ADD MLOAD DUP2 PUSH1 0x9 ADD SSTORE PUSH2 0x140 DUP3 ADD MLOAD DUP2 PUSH1 0xA ADD SSTORE PUSH2 0x160 DUP3 ADD MLOAD DUP2 PUSH1 0xB ADD SSTORE POP POP DUP1 DUP1 PUSH3 0x38D SWAP1 PUSH3 0x4E8 JUMP JUMPDEST SWAP2 POP POP PUSH3 0x241 JUMP JUMPDEST POP POP PUSH3 0x5EC JUMP JUMPDEST DUP3 DUP1 SLOAD PUSH3 0x3AC SWAP1 PUSH3 0x4B2 JUMP JUMPDEST SWAP1 PUSH1 0x0 MSTORE PUSH1 0x20 PUSH1 0x0 KECCAK256 SWAP1 PUSH1 0x1F ADD PUSH1 0x20 SWAP1 DIV DUP2 ADD SWAP3 DUP3 PUSH3 0x3D0 JUMPI PUSH1 0x0 DUP6 SSTORE PUSH3 0x41C JUMP JUMPDEST DUP3 PUSH1 0x1F LT PUSH3 0x3EB JUMPI DUP1 MLOAD PUSH1 0xFF NOT AND DUP4 DUP1 ADD OR DUP6 SSTORE PUSH3 0x41C JUMP JUMPDEST DUP3 DUP1 ADD PUSH1 0x1 ADD DUP6 SSTORE DUP3 ISZERO PUSH3 0x41C JUMPI SWAP2 DUP3 ADD JUMPDEST DUP3 DUP2 GT ISZERO PUSH3 0x41B JUMPI DUP3 MLOAD DUP3 SSTORE SWAP2 PUSH1 0x20 ADD SWAP2 SWAP1 PUSH1 0x1 ADD SWAP1 PUSH3 0x3FE JUMP JUMPDEST JUMPDEST POP SWAP1 POP PUSH3 0x42B SWAP2 SWAP1 PUSH3 0x42F JUMP JUMPDEST POP SWAP1 JUMP JUMPDEST JUMPDEST DUP1 DUP3 GT ISZERO PUSH3 0x44A JUMPI PUSH1 0x0 DUP2 PUSH1 0x0 SWAP1 SSTORE POP PUSH1 0x1 ADD PUSH3 0x430 JUMP JUMPDEST POP SWAP1 JUMP JUMPDEST PUSH1 0x0 PUSH3 0x45D PUSH1 0x15 DUP4 PUSH3 0x497 JUMP JUMPDEST SWAP2 POP PUSH3 0x46A DUP3 PUSH3 0x5C3 JUMP JUMPDEST PUSH1 0x20 DUP3 ADD SWAP1 POP SWAP2 SWAP1 POP JUMP JUMPDEST PUSH1 0x0 PUSH1 0x20 DUP3 ADD SWAP1 POP DUP2 DUP2 SUB PUSH1 0x0 DUP4 ADD MSTORE PUSH3 0x490 DUP2 PUSH3 0x44E JUMP JUMPDEST SWAP1 POP SWAP2 SWAP1 POP JUMP JUMPDEST PUSH1 0x0 DUP3 DUP3 MSTORE PUSH1 0x20 DUP3 ADD SWAP1 POP SWAP3 SWAP2 POP POP JUMP JUMPDEST PUSH1 0x0 DUP2 SWAP1 POP SWAP2 SWAP1 POP JUMP JUMPDEST PUSH1 0x0 PUSH1 0x2 DUP3 DIV SWAP1 POP PUSH1 0x1 DUP3 AND DUP1 PUSH3 0x4CB JUMPI PUSH1 0x7F DUP3 AND SWAP2 POP JUMPDEST PUSH1 0x20 DUP3 LT DUP2 EQ ISZERO PUSH3 0x4E2 JUMPI PUSH3 0x4E1 PUSH3 0x565 JUMP JUMPDEST JUMPDEST POP SWAP2 SWAP1 POP JUMP JUMPDEST PUSH1 0x0 PUSH3 0x4F5 DUP3 PUSH3 0x4A8 JUMP JUMPDEST SWAP2 POP PUSH32 0xFFFFFFFFFFFFFFFFFFFFFFFFFFFFFFFFFFFFFFFFFFFFFFFFFFFFFFFFFFFFFFFF DUP3 EQ ISZERO PUSH3 0x52B JUMPI PUSH3 0x52A PUSH3 0x536 JUMP JUMPDEST JUMPDEST PUSH1 0x1 DUP3 ADD SWAP1 POP SWAP2 SWAP1 POP JUMP JUMPDEST PUSH32 0x4E487B7100000000000000000000000000000000000000000000000000000000 PUSH1 0x0 MSTORE PUSH1 0x11 PUSH1 0x4 MSTORE PUSH1 0x24 PUSH1 0x0 REVERT JUMPDEST PUSH32 0x4E487B7100000000000000000000000000000000000000000000000000000000 PUSH1 0x0 MSTORE PUSH1 0x22 PUSH1 0x4 MSTORE PUSH1 0x24 PUSH1 0x0 REVERT JUMPDEST PUSH32 0x4E487B7100000000000000000000000000000000000000000000000000000000 PUSH1 0x0 MSTORE PUSH1 0x32 PUSH1 0x4 MSTORE PUSH1 0x24 PUSH1 0x0 REVERT JUMPDEST PUSH32 0x43616E64696461746573206D75737420626520352E0000000000000000000000 PUSH1 0x0 DUP3 ADD MSTORE POP JUMP JUMPDEST PUSH2 0x10DF DUP1 PUSH3 0x5FC PUSH1 0x0 CODECOPY PUSH1 0x0 RETURN INVALID PUSH1 0x80 PUSH1 0x40 MSTORE CALLVALUE DUP1 ISZERO PUSH2 0x10 JUMPI PUSH1 0x0 DUP1 REVERT JUMPDEST POP PUSH1 0x4 CALLDATASIZE LT PUSH2 0x41 JUMPI PUSH1 0x0 CALLDATALOAD PUSH1 0xE0 SHR DUP1 PUSH4 0x632A9A52 EQ PUSH2 0x46 JUMPI DUP1 PUSH4 0xA3EC138D EQ PUSH2 0x50 JUMPI DUP1 PUSH4 0xD4E8FD2E EQ PUSH2 0x83 JUMPI JUMPDEST PUSH1 0x0 DUP1 REVERT JUMPDEST PUSH2 0x4E PUSH2 0xB3 JUMP JUMPDEST STOP JUMPDEST PUSH2 0x6A PUSH1 0x4 DUP1 CALLDATASIZE SUB DUP2 ADD SWAP1 PUSH2 0x65 SWAP2 SWAP1 PUSH2 0x995 JUMP JUMPDEST PUSH2 0x6F2 JUMP JUMPDEST PUSH1 0x40 MLOAD PUSH2 0x7A SWAP5 SWAP4 SWAP3 SWAP2 SWAP1 PUSH2 0xCAF JUMP JUMPDEST PUSH1 0x40 MLOAD DUP1 SWAP2 SUB SWAP1 RETURN JUMPDEST PUSH2 0x9D PUSH1 0x4 DUP1 CALLDATASIZE SUB DUP2 ADD SWAP1 PUSH2 0x98 SWAP2 SWAP1 PUSH2 0x9C2 JUMP JUMPDEST PUSH2 0x72F JUMP JUMPDEST PUSH1 0x40 MLOAD PUSH2 0xAA SWAP2 SWAP1 PUSH2 0xC8D JUMP JUMPDEST PUSH1 0x40 MLOAD DUP1 SWAP2 SUB SWAP1 RETURN JUMPDEST PUSH1 0x1 PUSH1 0x0 CALLER PUSH20 0xFFFFFFFFFFFFFFFFFFFFFFFFFFFFFFFFFFFFFFFF AND PUSH20 0xFFFFFFFFFFFFFFFFFFFFFFFFFFFFFFFFFFFFFFFF AND DUP2 MSTORE PUSH1 0x20 ADD SWAP1 DUP2 MSTORE PUSH1 0x20 ADD PUSH1 0x0 KECCAK256 PUSH1 0x1 ADD PUSH1 0x0 SWAP1 SLOAD SWAP1 PUSH2 0x100 EXP SWAP1 DIV PUSH1 0xFF AND ISZERO PUSH2 0x143 JUMPI PUSH1 0x40 MLOAD PUSH32 0x8C379A000000000000000000000000000000000000000000000000000000000 DUP2 MSTORE PUSH1 0x4 ADD PUSH2 0x13A SWAP1 PUSH2 0xC4D JUMP JUMPDEST PUSH1 0x40 MLOAD DUP1 SWAP2 SUB SWAP1 REVERT JUMPDEST PUSH1 0x0 PUSH1 0x1 PUSH1 0x0 CALLER PUSH20 0xFFFFFFFFFFFFFFFFFFFFFFFFFFFFFFFFFFFFFFFF AND PUSH20 0xFFFFFFFFFFFFFFFFFFFFFFFFFFFFFFFFFFFFFFFF AND DUP2 MSTORE PUSH1 0x20 ADD SWAP1 DUP2 MSTORE PUSH1 0x20 ADD PUSH1 0x0 KECCAK256 PUSH1 0x0 ADD SLOAD EQ PUSH2 0x192 JUMPI PUSH1 0x0 DUP1 REVERT JUMPDEST PUSH1 0x1 DUP1 PUSH1 0x0 CALLER PUSH20 0xFFFFFFFFFFFFFFFFFFFFFFFFFFFFFFFFFFFFFFFF AND PUSH20 0xFFFFFFFFFFFFFFFFFFFFFFFFFFFFFFFFFFFFFFFF AND DUP2 MSTORE PUSH1 0x20 ADD SWAP1 DUP2 MSTORE PUSH1 0x20 ADD PUSH1 0x0 KECCAK256 PUSH1 0x0 ADD DUP2 SWAP1 SSTORE POP PUSH1 0x64 PUSH1 0x3 SLOAD SGT ISZERO PUSH2 0x21F JUMPI PUSH1 0x40 MLOAD PUSH32 0x8C379A000000000000000000000000000000000000000000000000000000000 DUP2 MSTORE PUSH1 0x4 ADD PUSH2 0x216 SWAP1 PUSH2 0xC6D JUMP JUMPDEST PUSH1 0x40 MLOAD DUP1 SWAP2 SUB SWAP1 REVERT JUMPDEST PUSH2 0x227 PUSH2 0x86C JUMP JUMPDEST PUSH1 0x1 PUSH1 0x0 CALLER PUSH20 0xFFFFFFFFFFFFFFFFFFFFFFFFFFFFFFFFFFFFFFFF AND PUSH20 0xFFFFFFFFFFFFFFFFFFFFFFFFFFFFFFFFFFFFFFFF AND DUP2 MSTORE PUSH1 0x20 ADD SWAP1 DUP2 MSTORE PUSH1 0x20 ADD PUSH1 0x0 KECCAK256 PUSH1 0x2 ADD DUP2 SWAP1 SSTORE POP PUSH1 0x0 PUSH1 0x1 PUSH1 0x0 CALLER PUSH20 0xFFFFFFFFFFFFFFFFFFFFFFFFFFFFFFFFFFFFFFFF AND PUSH20 0xFFFFFFFFFFFFFFFFFFFFFFFFFFFFFFFFFFFFFFFF AND DUP2 MSTORE PUSH1 0x20 ADD SWAP1 DUP2 MSTORE PUSH1 0x20 ADD PUSH1 0x0 KECCAK256 SWAP1 POP DUP1 PUSH1 0x1 ADD PUSH1 0x0 SWAP1 SLOAD SWAP1 PUSH2 0x100 EXP SWAP1 DIV PUSH1 0xFF AND ISZERO PUSH2 0x302 JUMPI PUSH1 0x40 MLOAD PUSH32 0x8C379A000000000000000000000000000000000000000000000000000000000 DUP2 MSTORE PUSH1 0x4 ADD PUSH2 0x2F9 SWAP1 PUSH2 0xC2D JUMP JUMPDEST PUSH1 0x40 MLOAD DUP1 SWAP2 SUB SWAP1 REVERT JUMPDEST PUSH1 0x1 DUP2 PUSH1 0x1 ADD PUSH1 0x0 PUSH2 0x100 EXP DUP2 SLOAD DUP2 PUSH1 0xFF MUL NOT AND SWAP1 DUP4 ISZERO ISZERO MUL OR SWAP1 SSTORE POP PUSH2 0x327 PUSH2 0x8AD JUMP JUMPDEST DUP2 PUSH1 0x3 ADD DUP2 SWAP1 SSTORE POP PUSH2 0x337 PUSH2 0x8EE JUMP JUMPDEST DUP1 PUSH1 0x0 ADD SLOAD PUSH1 0x2 PUSH2 0x346 PUSH2 0x8AD JUMP JUMPDEST DUP2 SLOAD DUP2 LT PUSH2 0x357 JUMPI PUSH2 0x356 PUSH2 0xFAE JUMP JUMPDEST JUMPDEST SWAP1 PUSH1 0x0 MSTORE PUSH1 0x20 PUSH1 0x0 KECCAK256 SWAP1 PUSH1 0xC MUL ADD PUSH1 0x1 ADD PUSH1 0x0 DUP3 DUP3 SLOAD PUSH2 0x377 SWAP2 SWAP1 PUSH2 0xDB5 JUMP JUMPDEST SWAP3 POP POP DUP2 SWAP1 SSTORE POP PUSH1 0x0 DUP2 PUSH1 0x2 ADD SLOAD EQ ISZERO PUSH2 0x3D7 JUMPI DUP1 PUSH1 0x0 ADD SLOAD PUSH1 0x2 PUSH2 0x39A PUSH2 0x8AD JUMP JUMPDEST DUP2 SLOAD DUP2 LT PUSH2 0x3AB JUMPI PUSH2 0x3AA PUSH2 0xFAE JUMP JUMPDEST JUMPDEST SWAP1 PUSH1 0x0 MSTORE PUSH1 0x20 PUSH1 0x0 KECCAK256 SWAP1 PUSH1 0xC MUL ADD PUSH1 0x2 ADD PUSH1 0x0 DUP3 DUP3 SLOAD PUSH2 0x3CB SWAP2 SWAP1 PUSH2 0xDB5 JUMP JUMPDEST SWAP3 POP POP DUP2 SWAP1 SSTORE POP PUSH2 0x6EF JUMP JUMPDEST PUSH1 0x1 DUP2 PUSH1 0x2 ADD SLOAD EQ ISZERO PUSH2 0x430 JUMPI DUP1 PUSH1 0x0 ADD SLOAD PUSH1 0x2 PUSH2 0x3F3 PUSH2 0x8AD JUMP JUMPDEST DUP2 SLOAD DUP2 LT PUSH2 0x404 JUMPI PUSH2 0x403 PUSH2 0xFAE JUMP JUMPDEST JUMPDEST SWAP1 PUSH1 0x0 MSTORE PUSH1 0x20 PUSH1 0x0 KECCAK256 SWAP1 PUSH1 0xC MUL ADD PUSH1 0x3 ADD PUSH1 0x0 DUP3 DUP3 SLOAD PUSH2 0x424 SWAP2 SWAP1 PUSH2 0xDB5 JUMP JUMPDEST SWAP3 POP POP DUP2 SWAP1 SSTORE POP PUSH2 0x6EE JUMP JUMPDEST PUSH1 0x2 DUP2 PUSH1 0x2 ADD SLOAD EQ ISZERO PUSH2 0x489 JUMPI DUP1 PUSH1 0x0 ADD SLOAD PUSH1 0x2 PUSH2 0x44C PUSH2 0x8AD JUMP JUMPDEST DUP2 SLOAD DUP2 LT PUSH2 0x45D JUMPI PUSH2 0x45C PUSH2 0xFAE JUMP JUMPDEST JUMPDEST SWAP1 PUSH1 0x0 MSTORE PUSH1 0x20 PUSH1 0x0 KECCAK256 SWAP1 PUSH1 0xC MUL ADD PUSH1 0x4 ADD PUSH1 0x0 DUP3 DUP3 SLOAD PUSH2 0x47D SWAP2 SWAP1 PUSH2 0xDB5 JUMP JUMPDEST SWAP3 POP POP DUP2 SWAP1 SSTORE POP PUSH2 0x6ED JUMP JUMPDEST PUSH1 0x3 DUP2 PUSH1 0x2 ADD SLOAD EQ ISZERO PUSH2 0x4E2 JUMPI DUP1 PUSH1 0x0 ADD SLOAD PUSH1 0x2 PUSH2 0x4A5 PUSH2 0x8AD JUMP JUMPDEST DUP2 SLOAD DUP2 LT PUSH2 0x4B6 JUMPI PUSH2 0x4B5 PUSH2 0xFAE JUMP JUMPDEST JUMPDEST SWAP1 PUSH1 0x0 MSTORE PUSH1 0x20 PUSH1 0x0 KECCAK256 SWAP1 PUSH1 0xC MUL ADD PUSH1 0x5 ADD PUSH1 0x0 DUP3 DUP3 SLOAD PUSH2 0x4D6 SWAP2 SWAP1 PUSH2 0xDB5 JUMP JUMPDEST SWAP3 POP POP DUP2 SWAP1 SSTORE POP PUSH2 0x6EC JUMP JUMPDEST PUSH1 0x4 DUP2 PUSH1 0x2 ADD SLOAD EQ ISZERO PUSH2 0x53B JUMPI DUP1 PUSH1 0x0 ADD SLOAD PUSH1 0x2 PUSH2 0x4FE PUSH2 0x8AD JUMP JUMPDEST DUP2 SLOAD DUP2 LT PUSH2 0x50F JUMPI PUSH2 0x50E PUSH2 0xFAE JUMP JUMPDEST JUMPDEST SWAP1 PUSH1 0x0 MSTORE PUSH1 0x20 PUSH1 0x0 KECCAK256 SWAP1 PUSH1 0xC MUL ADD PUSH1 0x6 ADD PUSH1 0x0 DUP3 DUP3 SLOAD PUSH2 0x52F SWAP2 SWAP1 PUSH2 0xDB5 JUMP JUMPDEST SWAP3 POP POP DUP2 SWAP1 SSTORE POP PUSH2 0x6EB JUMP JUMPDEST PUSH1 0x5 DUP2 PUSH1 0x2 ADD SLOAD EQ ISZERO PUSH2 0x594 JUMPI DUP1 PUSH1 0x0 ADD SLOAD PUSH1 0x2 PUSH2 0x557 PUSH2 0x8AD JUMP JUMPDEST DUP2 SLOAD DUP2 LT PUSH2 0x568 JUMPI PUSH2 0x567 PUSH2 0xFAE JUMP JUMPDEST JUMPDEST SWAP1 PUSH1 0x0 MSTORE PUSH1 0x20 PUSH1 0x0 KECCAK256 SWAP1 PUSH1 0xC MUL ADD PUSH1 0x7 ADD PUSH1 0x0 DUP3 DUP3 SLOAD PUSH2 0x588 SWAP2 SWAP1 PUSH2 0xDB5 JUMP JUMPDEST SWAP3 POP POP DUP2 SWAP1 SSTORE POP PUSH2 0x6EA JUMP JUMPDEST PUSH1 0x6 DUP2 PUSH1 0x2 ADD SLOAD EQ ISZERO PUSH2 0x5ED JUMPI DUP1 PUSH1 0x0 ADD SLOAD PUSH1 0x2 PUSH2 0x5B0 PUSH2 0x8AD JUMP JUMPDEST DUP2 SLOAD DUP2 LT PUSH2 0x5C1 JUMPI PUSH2 0x5C0 PUSH2 0xFAE JUMP JUMPDEST JUMPDEST SWAP1 PUSH1 0x0 MSTORE PUSH1 0x20 PUSH1 0x0 KECCAK256 SWAP1 PUSH1 0xC MUL ADD PUSH1 0x8 ADD PUSH1 0x0 DUP3 DUP3 SLOAD PUSH2 0x5E1 SWAP2 SWAP1 PUSH2 0xDB5 JUMP JUMPDEST SWAP3 POP POP DUP2 SWAP1 SSTORE POP PUSH2 0x6E9 JUMP JUMPDEST PUSH1 0x7 DUP2 PUSH1 0x2 ADD SLOAD EQ ISZERO PUSH2 0x646 JUMPI DUP1 PUSH1 0x0 ADD SLOAD PUSH1 0x2 PUSH2 0x609 PUSH2 0x8AD JUMP JUMPDEST DUP2 SLOAD DUP2 LT PUSH2 0x61A JUMPI PUSH2 0x619 PUSH2 0xFAE JUMP JUMPDEST JUMPDEST SWAP1 PUSH1 0x0 MSTORE PUSH1 0x20 PUSH1 0x0 KECCAK256 SWAP1 PUSH1 0xC MUL ADD PUSH1 0x9 ADD PUSH1 0x0 DUP3 DUP3 SLOAD PUSH2 0x63A SWAP2 SWAP1 PUSH2 0xDB5 JUMP JUMPDEST SWAP3 POP POP DUP2 SWAP1 SSTORE POP PUSH2 0x6E8 JUMP JUMPDEST PUSH1 0x8 DUP2 PUSH1 0x2 ADD SLOAD EQ ISZERO PUSH2 0x69F JUMPI DUP1 PUSH1 0x0 ADD SLOAD PUSH1 0x2 PUSH2 0x662 PUSH2 0x8AD JUMP JUMPDEST DUP2 SLOAD DUP2 LT PUSH2 0x673 JUMPI PUSH2 0x672 PUSH2 0xFAE JUMP JUMPDEST JUMPDEST SWAP1 PUSH1 0x0 MSTORE PUSH1 0x20 PUSH1 0x0 KECCAK256 SWAP1 PUSH1 0xC MUL ADD PUSH1 0xA ADD PUSH1 0x0 DUP3 DUP3 SLOAD PUSH2 0x693 SWAP2 SWAP1 PUSH2 0xDB5 JUMP JUMPDEST SWAP3 POP POP DUP2 SWAP1 SSTORE POP PUSH2 0x6E7 JUMP JUMPDEST DUP1 PUSH1 0x0 ADD SLOAD PUSH1 0x2 PUSH2 0x6AE PUSH2 0x8AD JUMP JUMPDEST DUP2 SLOAD DUP2 LT PUSH2 0x6BF JUMPI PUSH2 0x6BE PUSH2 0xFAE JUMP JUMPDEST JUMPDEST SWAP1 PUSH1 0x0 MSTORE PUSH1 0x20 PUSH1 0x0 KECCAK256 SWAP1 PUSH1 0xC MUL ADD PUSH1 0xB ADD PUSH1 0x0 DUP3 DUP3 SLOAD PUSH2 0x6DF SWAP2 SWAP1 PUSH2 0xDB5 JUMP JUMPDEST SWAP3 POP POP DUP2 SWAP1 SSTORE POP JUMPDEST JUMPDEST JUMPDEST JUMPDEST JUMPDEST JUMPDEST JUMPDEST JUMPDEST JUMPDEST POP JUMP JUMPDEST PUSH1 0x1 PUSH1 0x20 MSTORE DUP1 PUSH1 0x0 MSTORE PUSH1 0x40 PUSH1 0x0 KECCAK256 PUSH1 0x0 SWAP2 POP SWAP1 POP DUP1 PUSH1 0x0 ADD SLOAD SWAP1 DUP1 PUSH1 0x1 ADD PUSH1 0x0 SWAP1 SLOAD SWAP1 PUSH2 0x100 EXP SWAP1 DIV PUSH1 0xFF AND SWAP1 DUP1 PUSH1 0x2 ADD SLOAD SWAP1 DUP1 PUSH1 0x3 ADD SLOAD SWAP1 POP DUP5 JUMP JUMPDEST PUSH2 0x737 PUSH2 0x90A JUMP JUMPDEST PUSH1 0x2 DUP3 DUP2 SLOAD DUP2 LT PUSH2 0x74B JUMPI PUSH2 0x74A PUSH2 0xFAE JUMP JUMPDEST JUMPDEST SWAP1 PUSH1 0x0 MSTORE PUSH1 0x20 PUSH1 0x0 KECCAK256 SWAP1 PUSH1 0xC MUL ADD PUSH1 0x40 MLOAD DUP1 PUSH2 0x180 ADD PUSH1 0x40 MSTORE SWAP1 DUP2 PUSH1 0x0 DUP3 ADD DUP1 SLOAD PUSH2 0x775 SWAP1 PUSH2 0xE90 JUMP JUMPDEST DUP1 PUSH1 0x1F ADD PUSH1 0x20 DUP1 SWAP2 DIV MUL PUSH1 0x20 ADD PUSH1 0x40 MLOAD SWAP1 DUP2 ADD PUSH1 0x40 MSTORE DUP1 SWAP3 SWAP2 SWAP1 DUP2 DUP2 MSTORE PUSH1 0x20 ADD DUP3 DUP1 SLOAD PUSH2 0x7A1 SWAP1 PUSH2 0xE90 JUMP JUMPDEST DUP1 ISZERO PUSH2 0x7EE JUMPI DUP1 PUSH1 0x1F LT PUSH2 0x7C3 JUMPI PUSH2 0x100 DUP1 DUP4 SLOAD DIV MUL DUP4 MSTORE SWAP2 PUSH1 0x20 ADD SWAP2 PUSH2 0x7EE JUMP JUMPDEST DUP3 ADD SWAP2 SWAP1 PUSH1 0x0 MSTORE PUSH1 0x20 PUSH1 0x0 KECCAK256 SWAP1 JUMPDEST DUP2 SLOAD DUP2 MSTORE SWAP1 PUSH1 0x1 ADD SWAP1 PUSH1 0x20 ADD DUP1 DUP4 GT PUSH2 0x7D1 JUMPI DUP3 SWAP1 SUB PUSH1 0x1F AND DUP3 ADD SWAP2 JUMPDEST POP POP POP POP POP DUP2 MSTORE PUSH1 0x20 ADD PUSH1 0x1 DUP3 ADD SLOAD DUP2 MSTORE PUSH1 0x20 ADD PUSH1 0x2 DUP3 ADD SLOAD DUP2 MSTORE PUSH1 0x20 ADD PUSH1 0x3 DUP3 ADD SLOAD DUP2 MSTORE PUSH1 0x20 ADD PUSH1 0x4 DUP3 ADD SLOAD DUP2 MSTORE PUSH1 0x20 ADD PUSH1 0x5 DUP3 ADD SLOAD DUP2 MSTORE PUSH1 0x20 ADD PUSH1 0x6 DUP3 ADD SLOAD DUP2 MSTORE PUSH1 0x20 ADD PUSH1 0x7 DUP3 ADD SLOAD DUP2 MSTORE PUSH1 0x20 ADD PUSH1 0x8 DUP3 ADD SLOAD DUP2 MSTORE PUSH1 0x20 ADD PUSH1 0x9 DUP3 ADD SLOAD DUP2 MSTORE PUSH1 0x20 ADD PUSH1 0xA DUP3 ADD SLOAD DUP2 MSTORE PUSH1 0x20 ADD PUSH1 0xB DUP3 ADD SLOAD DUP2 MSTORE POP POP SWAP1 POP SWAP2 SWAP1 POP JUMP JUMPDEST PUSH1 0x0 PUSH1 0xA TIMESTAMP DIFFICULTY CALLER PUSH1 0x40 MLOAD PUSH1 0x20 ADD PUSH2 0x885 SWAP4 SWAP3 SWAP2 SWAP1 PUSH2 0xBF0 JUMP JUMPDEST PUSH1 0x40 MLOAD PUSH1 0x20 DUP2 DUP4 SUB SUB DUP2 MSTORE SWAP1 PUSH1 0x40 MSTORE DUP1 MLOAD SWAP1 PUSH1 0x20 ADD KECCAK256 PUSH1 0x0 SHR PUSH2 0x8A8 SWAP2 SWAP1 PUSH2 0xEF0 JUMP JUMPDEST SWAP1 POP SWAP1 JUMP JUMPDEST PUSH1 0x0 PUSH1 0x5 TIMESTAMP DIFFICULTY CALLER PUSH1 0x40 MLOAD PUSH1 0x20 ADD PUSH2 0x8C6 SWAP4 SWAP3 SWAP2 SWAP1 PUSH2 0xBF0 JUMP JUMPDEST PUSH1 0x40 MLOAD PUSH1 0x20 DUP2 DUP4 SUB SUB DUP2 MSTORE SWAP1 PUSH1 0x40 MSTORE DUP1 MLOAD SWAP1 PUSH1 0x20 ADD KECCAK256 PUSH1 0x0 SHR PUSH2 0x8E9 SWAP2 SWAP1 PUSH2 0xEF0 JUMP JUMPDEST SWAP1 POP SWAP1 JUMP JUMPDEST PUSH1 0x1 PUSH1 0x3 PUSH1 0x0 DUP3 DUP3 SLOAD PUSH2 0x901 SWAP2 SWAP1 PUSH2 0xD21 JUMP JUMPDEST SWAP3 POP POP DUP2 SWAP1 SSTORE POP JUMP JUMPDEST PUSH1 0x40 MLOAD DUP1 PUSH2 0x180 ADD PUSH1 0x40 MSTORE DUP1 PUSH1 0x60 DUP2 MSTORE PUSH1 0x20 ADD PUSH1 0x0 DUP2 MSTORE PUSH1 0x20 ADD PUSH1 0x0 DUP2 MSTORE PUSH1 0x20 ADD PUSH1 0x0 DUP2 MSTORE PUSH1 0x20 ADD PUSH1 0x0 DUP2 MSTORE PUSH1 0x20 ADD PUSH1 0x0 DUP2 MSTORE PUSH1 0x20 ADD PUSH1 0x0 DUP2 MSTORE PUSH1 0x20 ADD PUSH1 0x0 DUP2 MSTORE PUSH1 0x20 ADD PUSH1 0x0 DUP2 MSTORE PUSH1 0x20 ADD PUSH1 0x0 DUP2 MSTORE PUSH1 0x20 ADD PUSH1 0x0 DUP2 MSTORE PUSH1 0x20 ADD PUSH1 0x0 DUP2 MSTORE POP SWAP1 JUMP JUMPDEST PUSH1 0x0 DUP2 CALLDATALOAD SWAP1 POP PUSH2 0x97A DUP2 PUSH2 0x107B JUMP JUMPDEST SWAP3 SWAP2 POP POP JUMP JUMPDEST PUSH1 0x0 DUP2 CALLDATALOAD SWAP1 POP PUSH2 0x98F DUP2 PUSH2 0x1092 JUMP JUMPDEST SWAP3 SWAP2 POP POP JUMP JUMPDEST PUSH1 0x0 PUSH1 0x20 DUP3 DUP5 SUB SLT ISZERO PUSH2 0x9AB JUMPI PUSH2 0x9AA PUSH2 0xFDD JUMP JUMPDEST JUMPDEST PUSH1 0x0 PUSH2 0x9B9 DUP5 DUP3 DUP6 ADD PUSH2 0x96B JUMP JUMPDEST SWAP2 POP POP SWAP3 SWAP2 POP POP JUMP JUMPDEST PUSH1 0x0 PUSH1 0x20 DUP3 DUP5 SUB SLT ISZERO PUSH2 0x9D8 JUMPI PUSH2 0x9D7 PUSH2 0xFDD JUMP JUMPDEST JUMPDEST PUSH1 0x0 PUSH2 0x9E6 DUP5 DUP3 DUP6 ADD PUSH2 0x980 JUMP JUMPDEST SWAP2 POP POP SWAP3 SWAP2 POP POP JUMP JUMPDEST PUSH2 0xA00 PUSH2 0x9FB DUP3 PUSH2 0xE0B JUMP JUMPDEST PUSH2 0xEC2 JUMP JUMPDEST DUP3 MSTORE POP POP JUMP JUMPDEST PUSH2 0xA0F DUP2 PUSH2 0xE1D JUMP JUMPDEST DUP3 MSTORE POP POP JUMP JUMPDEST PUSH1 0x0 PUSH2 0xA20 DUP3 PUSH2 0xCF4 JUMP JUMPDEST PUSH2 0xA2A DUP2 DUP6 PUSH2 0xCFF JUMP JUMPDEST SWAP4 POP PUSH2 0xA3A DUP2 DUP6 PUSH1 0x20 DUP7 ADD PUSH2 0xE5D JUMP JUMPDEST PUSH2 0xA43 DUP2 PUSH2 0xFE2 JUMP JUMPDEST DUP5 ADD SWAP2 POP POP SWAP3 SWAP2 POP POP JUMP JUMPDEST PUSH1 0x0 PUSH2 0xA5B PUSH1 0xE DUP4 PUSH2 0xD10 JUMP JUMPDEST SWAP2 POP PUSH2 0xA66 DUP3 PUSH2 0x1000 JUMP JUMPDEST PUSH1 0x20 DUP3 ADD SWAP1 POP SWAP2 SWAP1 POP JUMP JUMPDEST PUSH1 0x0 PUSH2 0xA7E PUSH1 0x18 DUP4 PUSH2 0xD10 JUMP JUMPDEST SWAP2 POP PUSH2 0xA89 DUP3 PUSH2 0x1029 JUMP JUMPDEST PUSH1 0x20 DUP3 ADD SWAP1 POP SWAP2 SWAP1 POP JUMP JUMPDEST PUSH1 0x0 PUSH2 0xAA1 PUSH1 0x13 DUP4 PUSH2 0xD10 JUMP JUMPDEST SWAP2 POP PUSH2 0xAAC DUP3 PUSH2 0x1052 JUMP JUMPDEST PUSH1 0x20 DUP3 ADD SWAP1 POP SWAP2 SWAP1 POP JUMP JUMPDEST PUSH1 0x0 PUSH2 0x180 DUP4 ADD PUSH1 0x0 DUP4 ADD MLOAD DUP5 DUP3 SUB PUSH1 0x0 DUP7 ADD MSTORE PUSH2 0xAD5 DUP3 DUP3 PUSH2 0xA15 JUMP JUMPDEST SWAP2 POP POP PUSH1 0x20 DUP4 ADD MLOAD PUSH2 0xAEA PUSH1 0x20 DUP7 ADD DUP3 PUSH2 0xBBB JUMP JUMPDEST POP PUSH1 0x40 DUP4 ADD MLOAD PUSH2 0xAFD PUSH1 0x40 DUP7 ADD DUP3 PUSH2 0xBBB JUMP JUMPDEST POP PUSH1 0x60 DUP4 ADD MLOAD PUSH2 0xB10 PUSH1 0x60 DUP7 ADD DUP3 PUSH2 0xBBB JUMP JUMPDEST POP PUSH1 0x80 DUP4 ADD MLOAD PUSH2 0xB23 PUSH1 0x80 DUP7 ADD DUP3 PUSH2 0xBBB JUMP JUMPDEST POP PUSH1 0xA0 DUP4 ADD MLOAD PUSH2 0xB36 PUSH1 0xA0 DUP7 ADD DUP3 PUSH2 0xBBB JUMP JUMPDEST POP PUSH1 0xC0 DUP4 ADD MLOAD PUSH2 0xB49 PUSH1 0xC0 DUP7 ADD DUP3 PUSH2 0xBBB JUMP JUMPDEST POP PUSH1 0xE0 DUP4 ADD MLOAD PUSH2 0xB5C PUSH1 0xE0 DUP7 ADD DUP3 PUSH2 0xBBB JUMP JUMPDEST POP PUSH2 0x100 DUP4 ADD MLOAD PUSH2 0xB71 PUSH2 0x100 DUP7 ADD DUP3 PUSH2 0xBBB JUMP JUMPDEST POP PUSH2 0x120 DUP4 ADD MLOAD PUSH2 0xB86 PUSH2 0x120 DUP7 ADD DUP3 PUSH2 0xBBB JUMP JUMPDEST POP PUSH2 0x140 DUP4 ADD MLOAD PUSH2 0xB9B PUSH2 0x140 DUP7 ADD DUP3 PUSH2 0xBBB JUMP JUMPDEST POP PUSH2 0x160 DUP4 ADD MLOAD PUSH2 0xBB0 PUSH2 0x160 DUP7 ADD DUP3 PUSH2 0xBBB JUMP JUMPDEST POP DUP1 SWAP2 POP POP SWAP3 SWAP2 POP POP JUMP JUMPDEST PUSH2 0xBC4 DUP2 PUSH2 0xE53 JUMP JUMPDEST DUP3 MSTORE POP POP JUMP JUMPDEST PUSH2 0xBD3 DUP2 PUSH2 0xE53 JUMP JUMPDEST DUP3 MSTORE POP POP JUMP JUMPDEST PUSH2 0xBEA PUSH2 0xBE5 DUP3 PUSH2 0xE53 JUMP JUMPDEST PUSH2 0xEE6 JUMP JUMPDEST DUP3 MSTORE POP POP JUMP JUMPDEST PUSH1 0x0 PUSH2 0xBFC DUP3 DUP7 PUSH2 0xBD9 JUMP JUMPDEST PUSH1 0x20 DUP3 ADD SWAP2 POP PUSH2 0xC0C DUP3 DUP6 PUSH2 0xBD9 JUMP JUMPDEST PUSH1 0x20 DUP3 ADD SWAP2 POP PUSH2 0xC1C DUP3 DUP5 PUSH2 0x9EF JUMP JUMPDEST PUSH1 0x14 DUP3 ADD SWAP2 POP DUP2 SWAP1 POP SWAP5 SWAP4 POP POP POP POP JUMP JUMPDEST PUSH1 0x0 PUSH1 0x20 DUP3 ADD SWAP1 POP DUP2 DUP2 SUB PUSH1 0x0 DUP4 ADD MSTORE PUSH2 0xC46 DUP2 PUSH2 0xA4E JUMP JUMPDEST SWAP1 POP SWAP2 SWAP1 POP JUMP JUMPDEST PUSH1 0x0 PUSH1 0x20 DUP3 ADD SWAP1 POP DUP2 DUP2 SUB PUSH1 0x0 DUP4 ADD MSTORE PUSH2 0xC66 DUP2 PUSH2 0xA71 JUMP JUMPDEST SWAP1 POP SWAP2 SWAP1 POP JUMP JUMPDEST PUSH1 0x0 PUSH1 0x20 DUP3 ADD SWAP1 POP DUP2 DUP2 SUB PUSH1 0x0 DUP4 ADD MSTORE PUSH2 0xC86 DUP2 PUSH2 0xA94 JUMP JUMPDEST SWAP1 POP SWAP2 SWAP1 POP JUMP JUMPDEST PUSH1 0x0 PUSH1 0x20 DUP3 ADD SWAP1 POP DUP2 DUP2 SUB PUSH1 0x0 DUP4 ADD MSTORE PUSH2 0xCA7 DUP2 DUP5 PUSH2 0xAB7 JUMP JUMPDEST SWAP1 POP SWAP3 SWAP2 POP POP JUMP JUMPDEST PUSH1 0x0 PUSH1 0x80 DUP3 ADD SWAP1 POP PUSH2 0xCC4 PUSH1 0x0 DUP4 ADD DUP8 PUSH2 0xBCA JUMP JUMPDEST PUSH2 0xCD1 PUSH1 0x20 DUP4 ADD DUP7 PUSH2 0xA06 JUMP JUMPDEST PUSH2 0xCDE PUSH1 0x40 DUP4 ADD DUP6 PUSH2 0xBCA JUMP JUMPDEST PUSH2 0xCEB PUSH1 0x60 DUP4 ADD DUP5 PUSH2 0xBCA JUMP JUMPDEST SWAP6 SWAP5 POP POP POP POP POP JUMP JUMPDEST PUSH1 0x0 DUP2 MLOAD SWAP1 POP SWAP2 SWAP1 POP JUMP JUMPDEST PUSH1 0x0 DUP3 DUP3 MSTORE PUSH1 0x20 DUP3 ADD SWAP1 POP SWAP3 SWAP2 POP POP JUMP JUMPDEST PUSH1 0x0 DUP3 DUP3 MSTORE PUSH1 0x20 DUP3 ADD SWAP1 POP SWAP3 SWAP2 POP POP JUMP JUMPDEST PUSH1 0x0 PUSH2 0xD2C DUP3 PUSH2 0xE29 JUMP JUMPDEST SWAP2 POP PUSH2 0xD37 DUP4 PUSH2 0xE29 JUMP JUMPDEST SWAP3 POP DUP2 PUSH32 0x7FFFFFFFFFFFFFFFFFFFFFFFFFFFFFFFFFFFFFFFFFFFFFFFFFFFFFFFFFFFFFFF SUB DUP4 SGT PUSH1 0x0 DUP4 SLT ISZERO AND ISZERO PUSH2 0xD72 JUMPI PUSH2 0xD71 PUSH2 0xF21 JUMP JUMPDEST JUMPDEST DUP2 PUSH32 0x8000000000000000000000000000000000000000000000000000000000000000 SUB DUP4 SLT PUSH1 0x0 DUP4 SLT AND ISZERO PUSH2 0xDAA JUMPI PUSH2 0xDA9 PUSH2 0xF21 JUMP JUMPDEST JUMPDEST DUP3 DUP3 ADD SWAP1 POP SWAP3 SWAP2 POP POP JUMP JUMPDEST PUSH1 0x0 PUSH2 0xDC0 DUP3 PUSH2 0xE53 JUMP JUMPDEST SWAP2 POP PUSH2 0xDCB DUP4 PUSH2 0xE53 JUMP JUMPDEST SWAP3 POP DUP3 PUSH32 0xFFFFFFFFFFFFFFFFFFFFFFFFFFFFFFFFFFFFFFFFFFFFFFFFFFFFFFFFFFFFFFFF SUB DUP3 GT ISZERO PUSH2 0xE00 JUMPI PUSH2 0xDFF PUSH2 0xF21 JUMP JUMPDEST JUMPDEST DUP3 DUP3 ADD SWAP1 POP SWAP3 SWAP2 POP POP JUMP JUMPDEST PUSH1 0x0 PUSH2 0xE16 DUP3 PUSH2 0xE33 JUMP JUMPDEST SWAP1 POP SWAP2 SWAP1 POP JUMP JUMPDEST PUSH1 0x0 DUP2 ISZERO ISZERO SWAP1 POP SWAP2 SWAP1 POP JUMP JUMPDEST PUSH1 0x0 DUP2 SWAP1 POP SWAP2 SWAP1 POP JUMP JUMPDEST PUSH1 0x0 PUSH20 0xFFFFFFFFFFFFFFFFFFFFFFFFFFFFFFFFFFFFFFFF DUP3 AND SWAP1 POP SWAP2 SWAP1 POP JUMP JUMPDEST PUSH1 0x0 DUP2 SWAP1 POP SWAP2 SWAP1 POP JUMP JUMPDEST PUSH1 0x0 JUMPDEST DUP4 DUP2 LT ISZERO PUSH2 0xE7B JUMPI DUP1 DUP3 ADD MLOAD DUP2 DUP5 ADD MSTORE PUSH1 0x20 DUP2 ADD SWAP1 POP PUSH2 0xE60 JUMP JUMPDEST DUP4 DUP2 GT ISZERO PUSH2 0xE8A JUMPI PUSH1 0x0 DUP5 DUP5 ADD MSTORE JUMPDEST POP POP POP POP JUMP JUMPDEST PUSH1 0x0 PUSH1 0x2 DUP3 DIV SWAP1 POP PUSH1 0x1 DUP3 AND DUP1 PUSH2 0xEA8 JUMPI PUSH1 0x7F DUP3 AND SWAP2 POP JUMPDEST PUSH1 0x20 DUP3 LT DUP2 EQ ISZERO PUSH2 0xEBC JUMPI PUSH2 0xEBB PUSH2 0xF7F JUMP JUMPDEST JUMPDEST POP SWAP2 SWAP1 POP JUMP JUMPDEST PUSH1 0x0 PUSH2 0xECD DUP3 PUSH2 0xED4 JUMP JUMPDEST SWAP1 POP SWAP2 SWAP1 POP JUMP JUMPDEST PUSH1 0x0 PUSH2 0xEDF DUP3 PUSH2 0xFF3 JUMP JUMPDEST SWAP1 POP SWAP2 SWAP1 POP JUMP JUMPDEST PUSH1 0x0 DUP2 SWAP1 POP SWAP2 SWAP1 POP JUMP JUMPDEST PUSH1 0x0 PUSH2 0xEFB DUP3 PUSH2 0xE53 JUMP JUMPDEST SWAP2 POP PUSH2 0xF06 DUP4 PUSH2 0xE53 JUMP JUMPDEST SWAP3 POP DUP3 PUSH2 0xF16 JUMPI PUSH2 0xF15 PUSH2 0xF50 JUMP JUMPDEST JUMPDEST DUP3 DUP3 MOD SWAP1 POP SWAP3 SWAP2 POP POP JUMP JUMPDEST PUSH32 0x4E487B7100000000000000000000000000000000000000000000000000000000 PUSH1 0x0 MSTORE PUSH1 0x11 PUSH1 0x4 MSTORE PUSH1 0x24 PUSH1 0x0 REVERT JUMPDEST PUSH32 0x4E487B7100000000000000000000000000000000000000000000000000000000 PUSH1 0x0 MSTORE PUSH1 0x12 PUSH1 0x4 MSTORE PUSH1 0x24 PUSH1 0x0 REVERT JUMPDEST PUSH32 0x4E487B7100000000000000000000000000000000000000000000000000000000 PUSH1 0x0 MSTORE PUSH1 0x22 PUSH1 0x4 MSTORE PUSH1 0x24 PUSH1 0x0 REVERT JUMPDEST PUSH32 0x4E487B7100000000000000000000000000000000000000000000000000000000 PUSH1 0x0 MSTORE PUSH1 0x32 PUSH1 0x4 MSTORE PUSH1 0x24 PUSH1 0x0 REVERT JUMPDEST PUSH1 0x0 DUP1 REVERT JUMPDEST PUSH1 0x0 PUSH1 0x1F NOT PUSH1 0x1F DUP4 ADD AND SWAP1 POP SWAP2 SWAP1 POP JUMP JUMPDEST PUSH1 0x0 DUP2 PUSH1 0x60 SHL SWAP1 POP SWAP2 SWAP1 POP JUMP JUMPDEST PUSH32 0x416C726561647920766F7465642E000000000000000000000000000000000000 PUSH1 0x0 DUP3 ADD MSTORE POP JUMP JUMPDEST PUSH32 0x54686520766F74657220616C726561647920766F7465642E0000000000000000 PUSH1 0x0 DUP3 ADD MSTORE POP JUMP JUMPDEST PUSH32 0x52656163686564206D617820766F746572732E00000000000000000000000000 PUSH1 0x0 DUP3 ADD MSTORE POP JUMP JUMPDEST PUSH2 0x1084 DUP2 PUSH2 0xE0B JUMP JUMPDEST DUP2 EQ PUSH2 0x108F JUMPI PUSH1 0x0 DUP1 REVERT JUMPDEST POP JUMP JUMPDEST PUSH2 0x109B DUP2 PUSH2 0xE53 JUMP JUMPDEST DUP2 EQ PUSH2 0x10A6 JUMPI PUSH1 0x0 DUP1 REVERT JUMPDEST POP JUMP INVALID LOG2 PUSH5 0x6970667358 0x22 SLT KECCAK256 0x27 DELEGATECALL 0xC2 0x1E 0xEA 0x1E CODESIZE 0x4F 0xD4 0xB0 0xC0 DUP11 PUSH31 0xAFA72AF4F885D97DE2647DF759C5729D2475EE64736F6C6343000807003300 "
				},
				"gasEstimates": {
					"creation": {
						"codeDepositCost": "863800",
						"executionCost": "infinite",
						"totalCost": "infinite"
					},
					"external": {
						"res(uint256)": "infinite",
						"vote()": "infinite",
						"voters(address)": "infinite"
					},
					"internal": {
						"countVoters()": "infinite",
						"incrementCounter2()": "infinite",
						"random_district()": "infinite",
						"random_vote()": "infinite"
					}
				},
				"methodIdentifiers": {
					"res(uint256)": "d4e8fd2e",
					"vote()": "632a9a52",
					"voters(address)": "a3ec138d"
				}
			},
			"storageLayout": {
				"storage": [
					{
						"astId": 38,
						"contract": "smartContract/contracts/3_Ballot.sol:Ballot",
						"label": "chairperson",
						"offset": 0,
						"slot": "0",
						"type": "t_address"
					},
					{
						"astId": 43,
						"contract": "smartContract/contracts/3_Ballot.sol:Ballot",
						"label": "voters",
						"offset": 0,
						"slot": "1",
						"type": "t_mapping(t_address,t_struct(Voter)11_storage)"
					},
					{
						"astId": 47,
						"contract": "smartContract/contracts/3_Ballot.sol:Ballot",
						"label": "proposals",
						"offset": 0,
						"slot": "2",
						"type": "t_array(t_struct(Proposal)36_storage)dyn_storage"
					},
					{
						"astId": 144,
						"contract": "smartContract/contracts/3_Ballot.sol:Ballot",
						"label": "countV",
						"offset": 0,
						"slot": "3",
						"type": "t_int256"
					},
					{
						"astId": 155,
						"contract": "smartContract/contracts/3_Ballot.sol:Ballot",
						"label": "count2",
						"offset": 0,
						"slot": "4",
						"type": "t_int256"
					}
				],
				"types": {
					"t_address": {
						"encoding": "inplace",
						"label": "address",
						"numberOfBytes": "20"
					},
					"t_array(t_struct(Proposal)36_storage)dyn_storage": {
						"base": "t_struct(Proposal)36_storage",
						"encoding": "dynamic_array",
						"label": "struct Ballot.Proposal[]",
						"numberOfBytes": "32"
					},
					"t_bool": {
						"encoding": "inplace",
						"label": "bool",
						"numberOfBytes": "1"
					},
					"t_int256": {
						"encoding": "inplace",
						"label": "int256",
						"numberOfBytes": "32"
					},
					"t_mapping(t_address,t_struct(Voter)11_storage)": {
						"encoding": "mapping",
						"key": "t_address",
						"label": "mapping(address => struct Ballot.Voter)",
						"numberOfBytes": "32",
						"value": "t_struct(Voter)11_storage"
					},
					"t_string_storage": {
						"encoding": "bytes",
						"label": "string",
						"numberOfBytes": "32"
					},
					"t_struct(Proposal)36_storage": {
						"encoding": "inplace",
						"label": "struct Ballot.Proposal",
						"members": [
							{
								"astId": 13,
								"contract": "smartContract/contracts/3_Ballot.sol:Ballot",
								"label": "name",
								"offset": 0,
								"slot": "0",
								"type": "t_string_storage"
							},
							{
								"astId": 15,
								"contract": "smartContract/contracts/3_Ballot.sol:Ballot",
								"label": "Total_Votes",
								"offset": 0,
								"slot": "1",
								"type": "t_uint256"
							},
							{
								"astId": 17,
								"contract": "smartContract/contracts/3_Ballot.sol:Ballot",
								"label": "Votes_District0",
								"offset": 0,
								"slot": "2",
								"type": "t_uint256"
							},
							{
								"astId": 19,
								"contract": "smartContract/contracts/3_Ballot.sol:Ballot",
								"label": "Votes_District1",
								"offset": 0,
								"slot": "3",
								"type": "t_uint256"
							},
							{
								"astId": 21,
								"contract": "smartContract/contracts/3_Ballot.sol:Ballot",
								"label": "Votes_District2",
								"offset": 0,
								"slot": "4",
								"type": "t_uint256"
							},
							{
								"astId": 23,
								"contract": "smartContract/contracts/3_Ballot.sol:Ballot",
								"label": "Votes_District3",
								"offset": 0,
								"slot": "5",
								"type": "t_uint256"
							},
							{
								"astId": 25,
								"contract": "smartContract/contracts/3_Ballot.sol:Ballot",
								"label": "Votes_District4",
								"offset": 0,
								"slot": "6",
								"type": "t_uint256"
							},
							{
								"astId": 27,
								"contract": "smartContract/contracts/3_Ballot.sol:Ballot",
								"label": "Votes_District5",
								"offset": 0,
								"slot": "7",
								"type": "t_uint256"
							},
							{
								"astId": 29,
								"contract": "smartContract/contracts/3_Ballot.sol:Ballot",
								"label": "Votes_District6",
								"offset": 0,
								"slot": "8",
								"type": "t_uint256"
							},
							{
								"astId": 31,
								"contract": "smartContract/contracts/3_Ballot.sol:Ballot",
								"label": "Votes_District7",
								"offset": 0,
								"slot": "9",
								"type": "t_uint256"
							},
							{
								"astId": 33,
								"contract": "smartContract/contracts/3_Ballot.sol:Ballot",
								"label": "Votes_District8",
								"offset": 0,
								"slot": "10",
								"type": "t_uint256"
							},
							{
								"astId": 35,
								"contract": "smartContract/contracts/3_Ballot.sol:Ballot",
								"label": "Votes_District9",
								"offset": 0,
								"slot": "11",
								"type": "t_uint256"
							}
						],
						"numberOfBytes": "384"
					},
					"t_struct(Voter)11_storage": {
						"encoding": "inplace",
						"label": "struct Ballot.Voter",
						"members": [
							{
								"astId": 4,
								"contract": "smartContract/contracts/3_Ballot.sol:Ballot",
								"label": "weight",
								"offset": 0,
								"slot": "0",
								"type": "t_uint256"
							},
							{
								"astId": 6,
								"contract": "smartContract/contracts/3_Ballot.sol:Ballot",
								"label": "voted",
								"offset": 0,
								"slot": "1",
								"type": "t_bool"
							},
							{
								"astId": 8,
								"contract": "smartContract/contracts/3_Ballot.sol:Ballot",
								"label": "district",
								"offset": 0,
								"slot": "2",
								"type": "t_uint256"
							},
							{
								"astId": 10,
								"contract": "smartContract/contracts/3_Ballot.sol:Ballot",
								"label": "vote",
								"offset": 0,
								"slot": "3",
								"type": "t_uint256"
							}
						],
						"numberOfBytes": "128"
					},
					"t_uint256": {
						"encoding": "inplace",
						"label": "uint256",
						"numberOfBytes": "32"
					}
				}
			},
			"userdoc": {
				"kind": "user",
				"methods": {},
				"version": 1
			}
		}
	}
}