{
	"smartContract/contracts/3_Ballot.sol": {
		"Ballot": {
			"abi": [
				{
					"inputs": [],
					"stateMutability": "nonpayable",
					"type": "constructor"
				},
				{
					"inputs": [
						{
							"internalType": "uint256",
							"name": "",
							"type": "uint256"
						}
					],
					"name": "axx",
					"outputs": [
						{
							"internalType": "uint256",
							"name": "weight",
							"type": "uint256"
						},
						{
							"internalType": "bool",
							"name": "voted",
							"type": "bool"
						},
						{
							"internalType": "uint256",
							"name": "district",
							"type": "uint256"
						},
						{
							"internalType": "uint256",
							"name": "vote",
							"type": "uint256"
						}
					],
					"stateMutability": "view",
					"type": "function"
				},
				{
					"inputs": [],
					"name": "countV",
					"outputs": [
						{
							"internalType": "int256",
							"name": "",
							"type": "int256"
						}
					],
					"stateMutability": "view",
					"type": "function"
				},
				{
					"inputs": [
						{
							"internalType": "uint256",
							"name": "_id",
							"type": "uint256"
						}
					],
					"name": "res",
					"outputs": [
						{
							"components": [
								{
									"internalType": "string",
									"name": "name",
									"type": "string"
								},
								{
									"internalType": "uint256",
									"name": "Total_Votes",
									"type": "uint256"
								},
								{
									"internalType": "uint256",
									"name": "Votes_District0",
									"type": "uint256"
								},
								{
									"internalType": "uint256",
									"name": "Votes_District1",
									"type": "uint256"
								},
								{
									"internalType": "uint256",
									"name": "Votes_District2",
									"type": "uint256"
								},
								{
									"internalType": "uint256",
									"name": "Votes_District3",
									"type": "uint256"
								},
								{
									"internalType": "uint256",
									"name": "Votes_District4",
									"type": "uint256"
								},
								{
									"internalType": "uint256",
									"name": "Votes_District5",
									"type": "uint256"
								},
								{
									"internalType": "uint256",
									"name": "Votes_District6",
									"type": "uint256"
								},
								{
									"internalType": "uint256",
									"name": "Votes_District7",
									"type": "uint256"
								},
								{
									"internalType": "uint256",
									"name": "Votes_District8",
									"type": "uint256"
								},
								{
									"internalType": "uint256",
									"name": "Votes_District9",
									"type": "uint256"
								}
							],
							"internalType": "struct Ballot.Proposal",
							"name": "",
							"type": "tuple"
						}
					],
					"stateMutability": "view",
					"type": "function"
				},
				{
					"inputs": [],
					"name": "vote",
					"outputs": [],
					"stateMutability": "nonpayable",
					"type": "function"
				}
			],
			"devdoc": {
				"details": "Implements voting process along with vote delegation",
				"kind": "dev",
				"methods": {},
				"title": "Ballot",
				"version": 1
			},
			"evm": {
				"assembly": "    /* \"smartContract/contracts/3_Ballot.sol\":157:4342  contract Ballot {... */\n  mstore(0x40, 0x80)\n    /* \"smartContract/contracts/3_Ballot.sol\":2123:2124  0 */\n  0x00\n    /* \"smartContract/contracts/3_Ballot.sol\":2103:2124  int public countV = 0 */\n  0x04\n  sstore\n    /* \"smartContract/contracts/3_Ballot.sol\":1219:2061  constructor() {... */\n  callvalue\n  dup1\n  iszero\n  tag_1\n  jumpi\n  0x00\n  dup1\n  revert\ntag_1:\n  pop\n    /* \"smartContract/contracts/3_Ballot.sol\":1257:1267  msg.sender */\n  caller\n    /* \"smartContract/contracts/3_Ballot.sol\":1243:1254  chairperson */\n  0x00\n  dup1\n    /* \"smartContract/contracts/3_Ballot.sol\":1243:1267  chairperson = msg.sender */\n  0x0100\n  exp\n  dup2\n  sload\n  dup2\n  0xffffffffffffffffffffffffffffffffffffffff\n  mul\n  not\n  and\n  swap1\n  dup4\n  0xffffffffffffffffffffffffffffffffffffffff\n  and\n  mul\n  or\n  swap1\n  sstore\n  pop\n    /* \"smartContract/contracts/3_Ballot.sol\":1306:1307  1 */\n  0x01\n    /* \"smartContract/contracts/3_Ballot.sol\":1277:1283  voters */\n  dup1\n    /* \"smartContract/contracts/3_Ballot.sol\":1277:1296  voters[chairperson] */\n  0x00\n    /* \"smartContract/contracts/3_Ballot.sol\":1284:1295  chairperson */\n  dup1\n  0x00\n  swap1\n  sload\n  swap1\n  0x0100\n  exp\n  swap1\n  div\n  0xffffffffffffffffffffffffffffffffffffffff\n  and\n    /* \"smartContract/contracts/3_Ballot.sol\":1277:1296  voters[chairperson] */\n  0xffffffffffffffffffffffffffffffffffffffff\n  and\n  0xffffffffffffffffffffffffffffffffffffffff\n  and\n  dup2\n  mstore\n  0x20\n  add\n  swap1\n  dup2\n  mstore\n  0x20\n  add\n  0x00\n  keccak256\n    /* \"smartContract/contracts/3_Ballot.sol\":1277:1303  voters[chairperson].weight */\n  0x00\n  add\n    /* \"smartContract/contracts/3_Ballot.sol\":1277:1307  voters[chairperson].weight = 1 */\n  dup2\n  swap1\n  sstore\n  pop\n    /* \"smartContract/contracts/3_Ballot.sol\":1317:1347  string[5] memory proposalNames */\n  0x00\n    /* \"smartContract/contracts/3_Ballot.sol\":1317:1371  string[5] memory proposalNames = [\"a\",\"b\",\"c\",\"d\",\"e\"] */\n  mload(0x40)\n  dup1\n  0xa0\n  add\n  0x40\n  mstore\n  dup1\n  mload(0x40)\n  dup1\n  0x40\n  add\n  0x40\n  mstore\n  dup1\n  0x01\n  dup2\n  mstore\n  0x20\n  add\n  0x6100000000000000000000000000000000000000000000000000000000000000\n  dup2\n  mstore\n  pop\n  dup2\n  mstore\n  0x20\n  add\n  mload(0x40)\n  dup1\n  0x40\n  add\n  0x40\n  mstore\n  dup1\n  0x01\n  dup2\n  mstore\n  0x20\n  add\n  0x6200000000000000000000000000000000000000000000000000000000000000\n  dup2\n  mstore\n  pop\n  dup2\n  mstore\n  0x20\n  add\n  mload(0x40)\n  dup1\n  0x40\n  add\n  0x40\n  mstore\n  dup1\n  0x01\n  dup2\n  mstore\n  0x20\n  add\n  0x6300000000000000000000000000000000000000000000000000000000000000\n  dup2\n  mstore\n  pop\n  dup2\n  mstore\n  0x20\n  add\n  mload(0x40)\n  dup1\n  0x40\n  add\n  0x40\n  mstore\n  dup1\n  0x01\n  dup2\n  mstore\n  0x20\n  add\n  0x6400000000000000000000000000000000000000000000000000000000000000\n  dup2\n  mstore\n  pop\n  dup2\n  mstore\n  0x20\n  add\n  mload(0x40)\n  dup1\n  0x40\n  add\n  0x40\n  mstore\n  dup1\n  0x01\n  dup2\n  mstore\n  0x20\n  add\n  0x6500000000000000000000000000000000000000000000000000000000000000\n  dup2\n  mstore\n  pop\n  dup2\n  mstore\n  pop\n  swap1\n  pop\n    /* \"smartContract/contracts/3_Ballot.sol\":1411:1412  5 */\n  0x05\n    /* \"smartContract/contracts/3_Ballot.sol\":1389:1409  proposalNames.length */\n  dup1\n    /* \"smartContract/contracts/3_Ballot.sol\":1389:1412  proposalNames.length==5 */\n  eq\n    /* \"smartContract/contracts/3_Ballot.sol\":1381:1437  require(proposalNames.length==5,\"Candidates must be 5.\") */\n  tag_4\n  jumpi\n  mload(0x40)\n  0x08c379a000000000000000000000000000000000000000000000000000000000\n  dup2\n  mstore\n  0x04\n  add\n  tag_5\n  swap1\n  tag_6\n  jump\t// in\ntag_5:\n  mload(0x40)\n  dup1\n  swap2\n  sub\n  swap1\n  revert\ntag_4:\n    /* \"smartContract/contracts/3_Ballot.sol\":1452:1458  uint i */\n  0x00\n    /* \"smartContract/contracts/3_Ballot.sol\":1447:2055  for (uint i = 0; i < proposalNames.length; i++) {... */\ntag_7:\n    /* \"smartContract/contracts/3_Ballot.sol\":1468:1488  proposalNames.length */\n  0x05\n    /* \"smartContract/contracts/3_Ballot.sol\":1464:1465  i */\n  dup2\n    /* \"smartContract/contracts/3_Ballot.sol\":1464:1488  i < proposalNames.length */\n  lt\n    /* \"smartContract/contracts/3_Ballot.sol\":1447:2055  for (uint i = 0; i < proposalNames.length; i++) {... */\n  iszero\n  tag_8\n  jumpi\n    /* \"smartContract/contracts/3_Ballot.sol\":1509:1518  proposals */\n  0x03\n    /* \"smartContract/contracts/3_Ballot.sol\":1524:2043  Proposal({... */\n  mload(0x40)\n  dup1\n  0x0180\n  add\n  0x40\n  mstore\n  dup1\n    /* \"smartContract/contracts/3_Ballot.sol\":1557:1570  proposalNames */\n  dup5\n    /* \"smartContract/contracts/3_Ballot.sol\":1571:1572  i */\n  dup5\n    /* \"smartContract/contracts/3_Ballot.sol\":1557:1573  proposalNames[i] */\n  0x05\n  dup2\n  lt\n  tag_10\n  jumpi\n  tag_11\n  tag_12\n  jump\t// in\ntag_11:\ntag_10:\n  0x20\n  mul\n  add\n  mload\n    /* \"smartContract/contracts/3_Ballot.sol\":1524:2043  Proposal({... */\n  dup2\n  mstore\n  0x20\n  add\n    /* \"smartContract/contracts/3_Ballot.sol\":1667:1668  0 */\n  0x00\n    /* \"smartContract/contracts/3_Ballot.sol\":1524:2043  Proposal({... */\n  dup2\n  mstore\n  0x20\n  add\n    /* \"smartContract/contracts/3_Ballot.sol\":1703:1704  0 */\n  0x00\n    /* \"smartContract/contracts/3_Ballot.sol\":1524:2043  Proposal({... */\n  dup2\n  mstore\n  0x20\n  add\n    /* \"smartContract/contracts/3_Ballot.sol\":1739:1740  0 */\n  0x00\n    /* \"smartContract/contracts/3_Ballot.sol\":1524:2043  Proposal({... */\n  dup2\n  mstore\n  0x20\n  add\n    /* \"smartContract/contracts/3_Ballot.sol\":1775:1776  0 */\n  0x00\n    /* \"smartContract/contracts/3_Ballot.sol\":1524:2043  Proposal({... */\n  dup2\n  mstore\n  0x20\n  add\n    /* \"smartContract/contracts/3_Ballot.sol\":1811:1812  0 */\n  0x00\n    /* \"smartContract/contracts/3_Ballot.sol\":1524:2043  Proposal({... */\n  dup2\n  mstore\n  0x20\n  add\n    /* \"smartContract/contracts/3_Ballot.sol\":1847:1848  0 */\n  0x00\n    /* \"smartContract/contracts/3_Ballot.sol\":1524:2043  Proposal({... */\n  dup2\n  mstore\n  0x20\n  add\n    /* \"smartContract/contracts/3_Ballot.sol\":1883:1884  0 */\n  0x00\n    /* \"smartContract/contracts/3_Ballot.sol\":1524:2043  Proposal({... */\n  dup2\n  mstore\n  0x20\n  add\n    /* \"smartContract/contracts/3_Ballot.sol\":1919:1920  0 */\n  0x00\n    /* \"smartContract/contracts/3_Ballot.sol\":1524:2043  Proposal({... */\n  dup2\n  mstore\n  0x20\n  add\n    /* \"smartContract/contracts/3_Ballot.sol\":1955:1956  0 */\n  0x00\n    /* \"smartContract/contracts/3_Ballot.sol\":1524:2043  Proposal({... */\n  dup2\n  mstore\n  0x20\n  add\n    /* \"smartContract/contracts/3_Ballot.sol\":1991:1992  0 */\n  0x00\n    /* \"smartContract/contracts/3_Ballot.sol\":1524:2043  Proposal({... */\n  dup2\n  mstore\n  0x20\n  add\n    /* \"smartContract/contracts/3_Ballot.sol\":2027:2028  0 */\n  0x00\n    /* \"smartContract/contracts/3_Ballot.sol\":1524:2043  Proposal({... */\n  dup2\n  mstore\n  pop\n    /* \"smartContract/contracts/3_Ballot.sol\":1509:2044  proposals.push(Proposal({... */\n  swap1\n  dup1\n  0x01\n  dup2\n  sload\n  add\n  dup1\n  dup3\n  sstore\n  dup1\n  swap2\n  pop\n  pop\n  0x01\n  swap1\n  sub\n  swap1\n  0x00\n  mstore\n  keccak256(0x00, 0x20)\n  swap1\n  0x0c\n  mul\n  add\n  0x00\n  swap1\n  swap2\n  swap1\n  swap2\n  swap1\n  swap2\n  pop\n  0x00\n  dup3\n  add\n  mload\n  dup2\n  0x00\n  add\n  swap1\n  dup1\n  mload\n  swap1\n  0x20\n  add\n  swap1\n  tag_14\n  swap3\n  swap2\n  swap1\n  tag_15\n  jump\t// in\ntag_14:\n  pop\n  0x20\n  dup3\n  add\n  mload\n  dup2\n  0x01\n  add\n  sstore\n  0x40\n  dup3\n  add\n  mload\n  dup2\n  0x02\n  add\n  sstore\n  0x60\n  dup3\n  add\n  mload\n  dup2\n  0x03\n  add\n  sstore\n  0x80\n  dup3\n  add\n  mload\n  dup2\n  0x04\n  add\n  sstore\n  0xa0\n  dup3\n  add\n  mload\n  dup2\n  0x05\n  add\n  sstore\n  0xc0\n  dup3\n  add\n  mload\n  dup2\n  0x06\n  add\n  sstore\n  0xe0\n  dup3\n  add\n  mload\n  dup2\n  0x07\n  add\n  sstore\n  0x0100\n  dup3\n  add\n  mload\n  dup2\n  0x08\n  add\n  sstore\n  0x0120\n  dup3\n  add\n  mload\n  dup2\n  0x09\n  add\n  sstore\n  0x0140\n  dup3\n  add\n  mload\n  dup2\n  0x0a\n  add\n  sstore\n  0x0160\n  dup3\n  add\n  mload\n  dup2\n  0x0b\n  add\n  sstore\n  pop\n  pop\n    /* \"smartContract/contracts/3_Ballot.sol\":1490:1493  i++ */\n  dup1\n  dup1\n  tag_16\n  swap1\n  tag_17\n  jump\t// in\ntag_16:\n  swap2\n  pop\n  pop\n    /* \"smartContract/contracts/3_Ballot.sol\":1447:2055  for (uint i = 0; i < proposalNames.length; i++) {... */\n  jump(tag_7)\ntag_8:\n  pop\n    /* \"smartContract/contracts/3_Ballot.sol\":1233:2061  {... */\n  pop\n    /* \"smartContract/contracts/3_Ballot.sol\":157:4342  contract Ballot {... */\n  jump(tag_18)\ntag_15:\n  dup3\n  dup1\n  sload\n  tag_19\n  swap1\n  tag_20\n  jump\t// in\ntag_19:\n  swap1\n  0x00\n  mstore\n  keccak256(0x00, 0x20)\n  swap1\n  0x1f\n  add\n  0x20\n  swap1\n  div\n  dup2\n  add\n  swap3\n  dup3\n  tag_22\n  jumpi\n  0x00\n  dup6\n  sstore\n  jump(tag_21)\ntag_22:\n  dup3\n  0x1f\n  lt\n  tag_23\n  jumpi\n  dup1\n  mload\n  not(0xff)\n  and\n  dup4\n  dup1\n  add\n  or\n  dup6\n  sstore\n  jump(tag_21)\ntag_23:\n  dup3\n  dup1\n  add\n  0x01\n  add\n  dup6\n  sstore\n  dup3\n  iszero\n  tag_21\n  jumpi\n  swap2\n  dup3\n  add\ntag_24:\n  dup3\n  dup2\n  gt\n  iszero\n  tag_25\n  jumpi\n  dup3\n  mload\n  dup3\n  sstore\n  swap2\n  0x20\n  add\n  swap2\n  swap1\n  0x01\n  add\n  swap1\n  jump(tag_24)\ntag_25:\ntag_21:\n  pop\n  swap1\n  pop\n  tag_26\n  swap2\n  swap1\n  tag_27\n  jump\t// in\ntag_26:\n  pop\n  swap1\n  jump\t// out\ntag_27:\ntag_28:\n  dup1\n  dup3\n  gt\n  iszero\n  tag_29\n  jumpi\n  0x00\n  dup2\n  0x00\n  swap1\n  sstore\n  pop\n  0x01\n  add\n  jump(tag_28)\ntag_29:\n  pop\n  swap1\n  jump\t// out\n    /* \"#utility.yul\":7:373   */\ntag_31:\n    /* \"#utility.yul\":149:152   */\n  0x00\n    /* \"#utility.yul\":170:237   */\n  tag_33\n    /* \"#utility.yul\":234:236   */\n  0x15\n    /* \"#utility.yul\":229:232   */\n  dup4\n    /* \"#utility.yul\":170:237   */\n  tag_34\n  jump\t// in\ntag_33:\n    /* \"#utility.yul\":163:237   */\n  swap2\n  pop\n    /* \"#utility.yul\":246:339   */\n  tag_35\n    /* \"#utility.yul\":335:338   */\n  dup3\n    /* \"#utility.yul\":246:339   */\n  tag_36\n  jump\t// in\ntag_35:\n    /* \"#utility.yul\":364:366   */\n  0x20\n    /* \"#utility.yul\":359:362   */\n  dup3\n    /* \"#utility.yul\":355:367   */\n  add\n    /* \"#utility.yul\":348:367   */\n  swap1\n  pop\n    /* \"#utility.yul\":7:373   */\n  swap2\n  swap1\n  pop\n  jump\t// out\n    /* \"#utility.yul\":379:798   */\ntag_6:\n    /* \"#utility.yul\":545:549   */\n  0x00\n    /* \"#utility.yul\":583:585   */\n  0x20\n    /* \"#utility.yul\":572:581   */\n  dup3\n    /* \"#utility.yul\":568:586   */\n  add\n    /* \"#utility.yul\":560:586   */\n  swap1\n  pop\n    /* \"#utility.yul\":632:641   */\n  dup2\n    /* \"#utility.yul\":626:630   */\n  dup2\n    /* \"#utility.yul\":622:642   */\n  sub\n    /* \"#utility.yul\":618:619   */\n  0x00\n    /* \"#utility.yul\":607:616   */\n  dup4\n    /* \"#utility.yul\":603:620   */\n  add\n    /* \"#utility.yul\":596:643   */\n  mstore\n    /* \"#utility.yul\":660:791   */\n  tag_38\n    /* \"#utility.yul\":786:790   */\n  dup2\n    /* \"#utility.yul\":660:791   */\n  tag_31\n  jump\t// in\ntag_38:\n    /* \"#utility.yul\":652:791   */\n  swap1\n  pop\n    /* \"#utility.yul\":379:798   */\n  swap2\n  swap1\n  pop\n  jump\t// out\n    /* \"#utility.yul\":804:973   */\ntag_34:\n    /* \"#utility.yul\":888:899   */\n  0x00\n    /* \"#utility.yul\":922:928   */\n  dup3\n    /* \"#utility.yul\":917:920   */\n  dup3\n    /* \"#utility.yul\":910:929   */\n  mstore\n    /* \"#utility.yul\":962:966   */\n  0x20\n    /* \"#utility.yul\":957:960   */\n  dup3\n    /* \"#utility.yul\":953:967   */\n  add\n    /* \"#utility.yul\":938:967   */\n  swap1\n  pop\n    /* \"#utility.yul\":804:973   */\n  swap3\n  swap2\n  pop\n  pop\n  jump\t// out\n    /* \"#utility.yul\":979:1056   */\ntag_40:\n    /* \"#utility.yul\":1016:1023   */\n  0x00\n    /* \"#utility.yul\":1045:1050   */\n  dup2\n    /* \"#utility.yul\":1034:1050   */\n  swap1\n  pop\n    /* \"#utility.yul\":979:1056   */\n  swap2\n  swap1\n  pop\n  jump\t// out\n    /* \"#utility.yul\":1062:1382   */\ntag_20:\n    /* \"#utility.yul\":1106:1112   */\n  0x00\n    /* \"#utility.yul\":1143:1144   */\n  0x02\n    /* \"#utility.yul\":1137:1141   */\n  dup3\n    /* \"#utility.yul\":1133:1145   */\n  div\n    /* \"#utility.yul\":1123:1145   */\n  swap1\n  pop\n    /* \"#utility.yul\":1190:1191   */\n  0x01\n    /* \"#utility.yul\":1184:1188   */\n  dup3\n    /* \"#utility.yul\":1180:1192   */\n  and\n    /* \"#utility.yul\":1211:1229   */\n  dup1\n    /* \"#utility.yul\":1201:1282   */\n  tag_43\n  jumpi\n    /* \"#utility.yul\":1267:1271   */\n  0x7f\n    /* \"#utility.yul\":1259:1265   */\n  dup3\n    /* \"#utility.yul\":1255:1272   */\n  and\n    /* \"#utility.yul\":1245:1272   */\n  swap2\n  pop\n    /* \"#utility.yul\":1201:1282   */\ntag_43:\n    /* \"#utility.yul\":1329:1331   */\n  0x20\n    /* \"#utility.yul\":1321:1327   */\n  dup3\n    /* \"#utility.yul\":1318:1332   */\n  lt\n    /* \"#utility.yul\":1298:1316   */\n  dup2\n    /* \"#utility.yul\":1295:1333   */\n  eq\n    /* \"#utility.yul\":1292:1376   */\n  iszero\n  tag_44\n  jumpi\n    /* \"#utility.yul\":1348:1366   */\n  tag_45\n  tag_46\n  jump\t// in\ntag_45:\n    /* \"#utility.yul\":1292:1376   */\ntag_44:\n    /* \"#utility.yul\":1113:1382   */\n  pop\n    /* \"#utility.yul\":1062:1382   */\n  swap2\n  swap1\n  pop\n  jump\t// out\n    /* \"#utility.yul\":1388:1621   */\ntag_17:\n    /* \"#utility.yul\":1427:1430   */\n  0x00\n    /* \"#utility.yul\":1450:1474   */\n  tag_48\n    /* \"#utility.yul\":1468:1473   */\n  dup3\n    /* \"#utility.yul\":1450:1474   */\n  tag_40\n  jump\t// in\ntag_48:\n    /* \"#utility.yul\":1441:1474   */\n  swap2\n  pop\n    /* \"#utility.yul\":1496:1562   */\n  0xffffffffffffffffffffffffffffffffffffffffffffffffffffffffffffffff\n    /* \"#utility.yul\":1489:1494   */\n  dup3\n    /* \"#utility.yul\":1486:1563   */\n  eq\n    /* \"#utility.yul\":1483:1586   */\n  iszero\n  tag_49\n  jumpi\n    /* \"#utility.yul\":1566:1584   */\n  tag_50\n  tag_51\n  jump\t// in\ntag_50:\n    /* \"#utility.yul\":1483:1586   */\ntag_49:\n    /* \"#utility.yul\":1613:1614   */\n  0x01\n    /* \"#utility.yul\":1606:1611   */\n  dup3\n    /* \"#utility.yul\":1602:1615   */\n  add\n    /* \"#utility.yul\":1595:1615   */\n  swap1\n  pop\n    /* \"#utility.yul\":1388:1621   */\n  swap2\n  swap1\n  pop\n  jump\t// out\n    /* \"#utility.yul\":1627:1807   */\ntag_51:\n    /* \"#utility.yul\":1675:1752   */\n  0x4e487b7100000000000000000000000000000000000000000000000000000000\n    /* \"#utility.yul\":1672:1673   */\n  0x00\n    /* \"#utility.yul\":1665:1753   */\n  mstore\n    /* \"#utility.yul\":1772:1776   */\n  0x11\n    /* \"#utility.yul\":1769:1770   */\n  0x04\n    /* \"#utility.yul\":1762:1777   */\n  mstore\n    /* \"#utility.yul\":1796:1800   */\n  0x24\n    /* \"#utility.yul\":1793:1794   */\n  0x00\n    /* \"#utility.yul\":1786:1801   */\n  revert\n    /* \"#utility.yul\":1813:1993   */\ntag_46:\n    /* \"#utility.yul\":1861:1938   */\n  0x4e487b7100000000000000000000000000000000000000000000000000000000\n    /* \"#utility.yul\":1858:1859   */\n  0x00\n    /* \"#utility.yul\":1851:1939   */\n  mstore\n    /* \"#utility.yul\":1958:1962   */\n  0x22\n    /* \"#utility.yul\":1955:1956   */\n  0x04\n    /* \"#utility.yul\":1948:1963   */\n  mstore\n    /* \"#utility.yul\":1982:1986   */\n  0x24\n    /* \"#utility.yul\":1979:1980   */\n  0x00\n    /* \"#utility.yul\":1972:1987   */\n  revert\n    /* \"#utility.yul\":1999:2179   */\ntag_12:\n    /* \"#utility.yul\":2047:2124   */\n  0x4e487b7100000000000000000000000000000000000000000000000000000000\n    /* \"#utility.yul\":2044:2045   */\n  0x00\n    /* \"#utility.yul\":2037:2125   */\n  mstore\n    /* \"#utility.yul\":2144:2148   */\n  0x32\n    /* \"#utility.yul\":2141:2142   */\n  0x04\n    /* \"#utility.yul\":2134:2149   */\n  mstore\n    /* \"#utility.yul\":2168:2172   */\n  0x24\n    /* \"#utility.yul\":2165:2166   */\n  0x00\n    /* \"#utility.yul\":2158:2173   */\n  revert\n    /* \"#utility.yul\":2185:2356   */\ntag_36:\n    /* \"#utility.yul\":2325:2348   */\n  0x43616e64696461746573206d75737420626520352e0000000000000000000000\n    /* \"#utility.yul\":2321:2322   */\n  0x00\n    /* \"#utility.yul\":2313:2319   */\n  dup3\n    /* \"#utility.yul\":2309:2323   */\n  add\n    /* \"#utility.yul\":2302:2349   */\n  mstore\n    /* \"#utility.yul\":2185:2356   */\n  pop\n  jump\t// out\n    /* \"smartContract/contracts/3_Ballot.sol\":157:4342  contract Ballot {... */\ntag_18:\n  dataSize(sub_0)\n  dup1\n  dataOffset(sub_0)\n  0x00\n  codecopy\n  0x00\n  return\nstop\n\nsub_0: assembly {\n        /* \"smartContract/contracts/3_Ballot.sol\":157:4342  contract Ballot {... */\n      mstore(0x40, 0x80)\n      callvalue\n      dup1\n      iszero\n      tag_1\n      jumpi\n      0x00\n      dup1\n      revert\n    tag_1:\n      pop\n      jumpi(tag_2, lt(calldatasize, 0x04))\n      shr(0xe0, calldataload(0x00))\n      dup1\n      0x632a9a52\n      eq\n      tag_3\n      jumpi\n      dup1\n      0x64030a19\n      eq\n      tag_4\n      jumpi\n      dup1\n      0x6d8f3f10\n      eq\n      tag_5\n      jumpi\n      dup1\n      0xd4e8fd2e\n      eq\n      tag_6\n      jumpi\n    tag_2:\n      0x00\n      dup1\n      revert\n        /* \"smartContract/contracts/3_Ballot.sol\":2490:4237  function vote() public {... */\n    tag_3:\n      tag_7\n      tag_8\n      jump\t// in\n    tag_7:\n      stop\n        /* \"smartContract/contracts/3_Ballot.sol\":974:992  Voter[] public axx */\n    tag_4:\n      tag_9\n      0x04\n      dup1\n      calldatasize\n      sub\n      dup2\n      add\n      swap1\n      tag_10\n      swap2\n      swap1\n      tag_11\n      jump\t// in\n    tag_10:\n      tag_12\n      jump\t// in\n    tag_9:\n      mload(0x40)\n      tag_13\n      swap5\n      swap4\n      swap3\n      swap2\n      swap1\n      tag_14\n      jump\t// in\n    tag_13:\n      mload(0x40)\n      dup1\n      swap2\n      sub\n      swap1\n      return\n        /* \"smartContract/contracts/3_Ballot.sol\":2103:2124  int public countV = 0 */\n    tag_5:\n      tag_15\n      tag_16\n      jump\t// in\n    tag_15:\n      mload(0x40)\n      tag_17\n      swap2\n      swap1\n      tag_18\n      jump\t// in\n    tag_17:\n      mload(0x40)\n      dup1\n      swap2\n      sub\n      swap1\n      return\n        /* \"smartContract/contracts/3_Ballot.sol\":4243:4340  function res(uint _id) public view returns(Proposal memory){... */\n    tag_6:\n      tag_19\n      0x04\n      dup1\n      calldatasize\n      sub\n      dup2\n      add\n      swap1\n      tag_20\n      swap2\n      swap1\n      tag_11\n      jump\t// in\n    tag_20:\n      tag_21\n      jump\t// in\n    tag_19:\n      mload(0x40)\n      tag_22\n      swap2\n      swap1\n      tag_23\n      jump\t// in\n    tag_22:\n      mload(0x40)\n      dup1\n      swap2\n      sub\n      swap1\n      return\n        /* \"smartContract/contracts/3_Ballot.sol\":2490:4237  function vote() public {... */\n    tag_8:\n        /* \"smartContract/contracts/3_Ballot.sol\":2533:2539  voters */\n      0x01\n        /* \"smartContract/contracts/3_Ballot.sol\":2533:2551  voters[msg.sender] */\n      0x00\n        /* \"smartContract/contracts/3_Ballot.sol\":2540:2550  msg.sender */\n      caller\n        /* \"smartContract/contracts/3_Ballot.sol\":2533:2551  voters[msg.sender] */\n      0xffffffffffffffffffffffffffffffffffffffff\n      and\n      0xffffffffffffffffffffffffffffffffffffffff\n      and\n      dup2\n      mstore\n      0x20\n      add\n      swap1\n      dup2\n      mstore\n      0x20\n      add\n      0x00\n      keccak256\n        /* \"smartContract/contracts/3_Ballot.sol\":2533:2557  voters[msg.sender].voted */\n      0x01\n      add\n      0x00\n      swap1\n      sload\n      swap1\n      0x0100\n      exp\n      swap1\n      div\n      0xff\n      and\n        /* \"smartContract/contracts/3_Ballot.sol\":2532:2557  !voters[msg.sender].voted */\n      iszero\n        /* \"smartContract/contracts/3_Ballot.sol\":2524:2598  require(!voters[msg.sender].voted,... */\n      tag_25\n      jumpi\n      mload(0x40)\n      0x08c379a000000000000000000000000000000000000000000000000000000000\n      dup2\n      mstore\n      0x04\n      add\n      tag_26\n      swap1\n      tag_27\n      jump\t// in\n    tag_26:\n      mload(0x40)\n      dup1\n      swap2\n      sub\n      swap1\n      revert\n    tag_25:\n        /* \"smartContract/contracts/3_Ballot.sol\":2689:2690  1 */\n      0x01\n        /* \"smartContract/contracts/3_Ballot.sol\":2661:2667  voters */\n      dup1\n        /* \"smartContract/contracts/3_Ballot.sol\":2661:2679  voters[msg.sender] */\n      0x00\n        /* \"smartContract/contracts/3_Ballot.sol\":2668:2678  msg.sender */\n      caller\n        /* \"smartContract/contracts/3_Ballot.sol\":2661:2679  voters[msg.sender] */\n      0xffffffffffffffffffffffffffffffffffffffff\n      and\n      0xffffffffffffffffffffffffffffffffffffffff\n      and\n      dup2\n      mstore\n      0x20\n      add\n      swap1\n      dup2\n      mstore\n      0x20\n      add\n      0x00\n      keccak256\n        /* \"smartContract/contracts/3_Ballot.sol\":2661:2686  voters[msg.sender].weight */\n      0x00\n      add\n        /* \"smartContract/contracts/3_Ballot.sol\":2661:2690  voters[msg.sender].weight = 1 */\n      dup2\n      swap1\n      sstore\n      pop\n        /* \"smartContract/contracts/3_Ballot.sol\":2716:2719  100 */\n      0x64\n        /* \"smartContract/contracts/3_Ballot.sol\":2708:2714  countV */\n      sload(0x04)\n        /* \"smartContract/contracts/3_Ballot.sol\":2708:2719  countV<=100 */\n      sgt\n      iszero\n        /* \"smartContract/contracts/3_Ballot.sol\":2700:2742  require(countV<=100,\"Reached max voters.\") */\n      tag_28\n      jumpi\n      mload(0x40)\n      0x08c379a000000000000000000000000000000000000000000000000000000000\n      dup2\n      mstore\n      0x04\n      add\n      tag_29\n      swap1\n      tag_30\n      jump\t// in\n    tag_29:\n      mload(0x40)\n      dup1\n      swap2\n      sub\n      swap1\n      revert\n    tag_28:\n        /* \"smartContract/contracts/3_Ballot.sol\":2781:2798  random_district() */\n      tag_31\n        /* \"smartContract/contracts/3_Ballot.sol\":2781:2796  random_district */\n      tag_32\n        /* \"smartContract/contracts/3_Ballot.sol\":2781:2798  random_district() */\n      jump\t// in\n    tag_31:\n        /* \"smartContract/contracts/3_Ballot.sol\":2753:2759  voters */\n      0x01\n        /* \"smartContract/contracts/3_Ballot.sol\":2753:2771  voters[msg.sender] */\n      0x00\n        /* \"smartContract/contracts/3_Ballot.sol\":2760:2770  msg.sender */\n      caller\n        /* \"smartContract/contracts/3_Ballot.sol\":2753:2771  voters[msg.sender] */\n      0xffffffffffffffffffffffffffffffffffffffff\n      and\n      0xffffffffffffffffffffffffffffffffffffffff\n      and\n      dup2\n      mstore\n      0x20\n      add\n      swap1\n      dup2\n      mstore\n      0x20\n      add\n      0x00\n      keccak256\n        /* \"smartContract/contracts/3_Ballot.sol\":2753:2780  voters[msg.sender].district */\n      0x02\n      add\n        /* \"smartContract/contracts/3_Ballot.sol\":2753:2798  voters[msg.sender].district=random_district() */\n      dup2\n      swap1\n      sstore\n      pop\n        /* \"smartContract/contracts/3_Ballot.sol\":2809:2829  Voter storage sender */\n      0x00\n        /* \"smartContract/contracts/3_Ballot.sol\":2832:2838  voters */\n      0x01\n        /* \"smartContract/contracts/3_Ballot.sol\":2832:2850  voters[msg.sender] */\n      0x00\n        /* \"smartContract/contracts/3_Ballot.sol\":2839:2849  msg.sender */\n      caller\n        /* \"smartContract/contracts/3_Ballot.sol\":2832:2850  voters[msg.sender] */\n      0xffffffffffffffffffffffffffffffffffffffff\n      and\n      0xffffffffffffffffffffffffffffffffffffffff\n      and\n      dup2\n      mstore\n      0x20\n      add\n      swap1\n      dup2\n      mstore\n      0x20\n      add\n      0x00\n      keccak256\n        /* \"smartContract/contracts/3_Ballot.sol\":2809:2850  Voter storage sender = voters[msg.sender] */\n      swap1\n      pop\n        /* \"smartContract/contracts/3_Ballot.sol\":2983:2989  sender */\n      dup1\n        /* \"smartContract/contracts/3_Ballot.sol\":2983:2995  sender.voted */\n      0x01\n      add\n      0x00\n      swap1\n      sload\n      swap1\n      0x0100\n      exp\n      swap1\n      div\n      0xff\n      and\n        /* \"smartContract/contracts/3_Ballot.sol\":2982:2995  !sender.voted */\n      iszero\n        /* \"smartContract/contracts/3_Ballot.sol\":2974:3014  require(!sender.voted, \"Already voted.\") */\n      tag_33\n      jumpi\n      mload(0x40)\n      0x08c379a000000000000000000000000000000000000000000000000000000000\n      dup2\n      mstore\n      0x04\n      add\n      tag_34\n      swap1\n      tag_35\n      jump\t// in\n    tag_34:\n      mload(0x40)\n      dup1\n      swap2\n      sub\n      swap1\n      revert\n    tag_33:\n        /* \"smartContract/contracts/3_Ballot.sol\":3039:3043  true */\n      0x01\n        /* \"smartContract/contracts/3_Ballot.sol\":3024:3030  sender */\n      dup2\n        /* \"smartContract/contracts/3_Ballot.sol\":3024:3036  sender.voted */\n      0x01\n      add\n      0x00\n        /* \"smartContract/contracts/3_Ballot.sol\":3024:3043  sender.voted = true */\n      0x0100\n      exp\n      dup2\n      sload\n      dup2\n      0xff\n      mul\n      not\n      and\n      swap1\n      dup4\n      iszero\n      iszero\n      mul\n      or\n      swap1\n      sstore\n      pop\n        /* \"smartContract/contracts/3_Ballot.sol\":3068:3081  random_vote() */\n      tag_36\n        /* \"smartContract/contracts/3_Ballot.sol\":3068:3079  random_vote */\n      tag_37\n        /* \"smartContract/contracts/3_Ballot.sol\":3068:3081  random_vote() */\n      jump\t// in\n    tag_36:\n        /* \"smartContract/contracts/3_Ballot.sol\":3054:3060  sender */\n      dup2\n        /* \"smartContract/contracts/3_Ballot.sol\":3054:3065  sender.vote */\n      0x03\n      add\n        /* \"smartContract/contracts/3_Ballot.sol\":3054:3081  sender.vote = random_vote() */\n      dup2\n      swap1\n      sstore\n      pop\n        /* \"smartContract/contracts/3_Ballot.sol\":3091:3104  countVoters() */\n      tag_38\n        /* \"smartContract/contracts/3_Ballot.sol\":3091:3102  countVoters */\n      tag_39\n        /* \"smartContract/contracts/3_Ballot.sol\":3091:3104  countVoters() */\n      jump\t// in\n    tag_38:\n        /* \"smartContract/contracts/3_Ballot.sol\":3163:3169  sender */\n      dup1\n        /* \"smartContract/contracts/3_Ballot.sol\":3163:3176  sender.weight */\n      0x00\n      add\n      sload\n        /* \"smartContract/contracts/3_Ballot.sol\":3123:3132  proposals */\n      0x03\n        /* \"smartContract/contracts/3_Ballot.sol\":3133:3146  random_vote() */\n      tag_40\n        /* \"smartContract/contracts/3_Ballot.sol\":3133:3144  random_vote */\n      tag_37\n        /* \"smartContract/contracts/3_Ballot.sol\":3133:3146  random_vote() */\n      jump\t// in\n    tag_40:\n        /* \"smartContract/contracts/3_Ballot.sol\":3123:3147  proposals[random_vote()] */\n      dup2\n      sload\n      dup2\n      lt\n      tag_41\n      jumpi\n      tag_42\n      tag_43\n      jump\t// in\n    tag_42:\n    tag_41:\n      swap1\n      0x00\n      mstore\n      keccak256(0x00, 0x20)\n      swap1\n      0x0c\n      mul\n      add\n        /* \"smartContract/contracts/3_Ballot.sol\":3123:3159  proposals[random_vote()].Total_Votes */\n      0x01\n      add\n      0x00\n        /* \"smartContract/contracts/3_Ballot.sol\":3123:3176  proposals[random_vote()].Total_Votes += sender.weight */\n      dup3\n      dup3\n      sload\n      tag_45\n      swap2\n      swap1\n      tag_46\n      jump\t// in\n    tag_45:\n      swap3\n      pop\n      pop\n      dup2\n      swap1\n      sstore\n      pop\n        /* \"smartContract/contracts/3_Ballot.sol\":3207:3208  0 */\n      0x00\n        /* \"smartContract/contracts/3_Ballot.sol\":3190:3196  sender */\n      dup2\n        /* \"smartContract/contracts/3_Ballot.sol\":3190:3205  sender.district */\n      0x02\n      add\n      sload\n        /* \"smartContract/contracts/3_Ballot.sol\":3190:3208  sender.district==0 */\n      eq\n        /* \"smartContract/contracts/3_Ballot.sol\":3186:4119  if (sender.district==0){proposals[random_vote()].Votes_District0 += sender.weight;}... */\n      iszero\n      tag_47\n      jumpi\n        /* \"smartContract/contracts/3_Ballot.sol\":3254:3260  sender */\n      dup1\n        /* \"smartContract/contracts/3_Ballot.sol\":3254:3267  sender.weight */\n      0x00\n      add\n      sload\n        /* \"smartContract/contracts/3_Ballot.sol\":3210:3219  proposals */\n      0x03\n        /* \"smartContract/contracts/3_Ballot.sol\":3220:3233  random_vote() */\n      tag_48\n        /* \"smartContract/contracts/3_Ballot.sol\":3220:3231  random_vote */\n      tag_37\n        /* \"smartContract/contracts/3_Ballot.sol\":3220:3233  random_vote() */\n      jump\t// in\n    tag_48:\n        /* \"smartContract/contracts/3_Ballot.sol\":3210:3234  proposals[random_vote()] */\n      dup2\n      sload\n      dup2\n      lt\n      tag_49\n      jumpi\n      tag_50\n      tag_43\n      jump\t// in\n    tag_50:\n    tag_49:\n      swap1\n      0x00\n      mstore\n      keccak256(0x00, 0x20)\n      swap1\n      0x0c\n      mul\n      add\n        /* \"smartContract/contracts/3_Ballot.sol\":3210:3250  proposals[random_vote()].Votes_District0 */\n      0x02\n      add\n      0x00\n        /* \"smartContract/contracts/3_Ballot.sol\":3210:3267  proposals[random_vote()].Votes_District0 += sender.weight */\n      dup3\n      dup3\n      sload\n      tag_52\n      swap2\n      swap1\n      tag_46\n      jump\t// in\n    tag_52:\n      swap3\n      pop\n      pop\n      dup2\n      swap1\n      sstore\n      pop\n        /* \"smartContract/contracts/3_Ballot.sol\":3186:4119  if (sender.district==0){proposals[random_vote()].Votes_District0 += sender.weight;}... */\n      jump(tag_53)\n    tag_47:\n        /* \"smartContract/contracts/3_Ballot.sol\":3304:3305  1 */\n      0x01\n        /* \"smartContract/contracts/3_Ballot.sol\":3287:3293  sender */\n      dup2\n        /* \"smartContract/contracts/3_Ballot.sol\":3287:3302  sender.district */\n      0x02\n      add\n      sload\n        /* \"smartContract/contracts/3_Ballot.sol\":3287:3305  sender.district==1 */\n      eq\n        /* \"smartContract/contracts/3_Ballot.sol\":3283:4119  if (sender.district==1){proposals[random_vote()].Votes_District1 += sender.weight;}... */\n      iszero\n      tag_54\n      jumpi\n        /* \"smartContract/contracts/3_Ballot.sol\":3351:3357  sender */\n      dup1\n        /* \"smartContract/contracts/3_Ballot.sol\":3351:3364  sender.weight */\n      0x00\n      add\n      sload\n        /* \"smartContract/contracts/3_Ballot.sol\":3307:3316  proposals */\n      0x03\n        /* \"smartContract/contracts/3_Ballot.sol\":3317:3330  random_vote() */\n      tag_55\n        /* \"smartContract/contracts/3_Ballot.sol\":3317:3328  random_vote */\n      tag_37\n        /* \"smartContract/contracts/3_Ballot.sol\":3317:3330  random_vote() */\n      jump\t// in\n    tag_55:\n        /* \"smartContract/contracts/3_Ballot.sol\":3307:3331  proposals[random_vote()] */\n      dup2\n      sload\n      dup2\n      lt\n      tag_56\n      jumpi\n      tag_57\n      tag_43\n      jump\t// in\n    tag_57:\n    tag_56:\n      swap1\n      0x00\n      mstore\n      keccak256(0x00, 0x20)\n      swap1\n      0x0c\n      mul\n      add\n        /* \"smartContract/contracts/3_Ballot.sol\":3307:3347  proposals[random_vote()].Votes_District1 */\n      0x03\n      add\n      0x00\n        /* \"smartContract/contracts/3_Ballot.sol\":3307:3364  proposals[random_vote()].Votes_District1 += sender.weight */\n      dup3\n      dup3\n      sload\n      tag_59\n      swap2\n      swap1\n      tag_46\n      jump\t// in\n    tag_59:\n      swap3\n      pop\n      pop\n      dup2\n      swap1\n      sstore\n      pop\n        /* \"smartContract/contracts/3_Ballot.sol\":3283:4119  if (sender.district==1){proposals[random_vote()].Votes_District1 += sender.weight;}... */\n      jump(tag_60)\n    tag_54:\n        /* \"smartContract/contracts/3_Ballot.sol\":3401:3402  2 */\n      0x02\n        /* \"smartContract/contracts/3_Ballot.sol\":3384:3390  sender */\n      dup2\n        /* \"smartContract/contracts/3_Ballot.sol\":3384:3399  sender.district */\n      0x02\n      add\n      sload\n        /* \"smartContract/contracts/3_Ballot.sol\":3384:3402  sender.district==2 */\n      eq\n        /* \"smartContract/contracts/3_Ballot.sol\":3380:4119  if (sender.district==2){proposals[random_vote()].Votes_District2 += sender.weight;}... */\n      iszero\n      tag_61\n      jumpi\n        /* \"smartContract/contracts/3_Ballot.sol\":3448:3454  sender */\n      dup1\n        /* \"smartContract/contracts/3_Ballot.sol\":3448:3461  sender.weight */\n      0x00\n      add\n      sload\n        /* \"smartContract/contracts/3_Ballot.sol\":3404:3413  proposals */\n      0x03\n        /* \"smartContract/contracts/3_Ballot.sol\":3414:3427  random_vote() */\n      tag_62\n        /* \"smartContract/contracts/3_Ballot.sol\":3414:3425  random_vote */\n      tag_37\n        /* \"smartContract/contracts/3_Ballot.sol\":3414:3427  random_vote() */\n      jump\t// in\n    tag_62:\n        /* \"smartContract/contracts/3_Ballot.sol\":3404:3428  proposals[random_vote()] */\n      dup2\n      sload\n      dup2\n      lt\n      tag_63\n      jumpi\n      tag_64\n      tag_43\n      jump\t// in\n    tag_64:\n    tag_63:\n      swap1\n      0x00\n      mstore\n      keccak256(0x00, 0x20)\n      swap1\n      0x0c\n      mul\n      add\n        /* \"smartContract/contracts/3_Ballot.sol\":3404:3444  proposals[random_vote()].Votes_District2 */\n      0x04\n      add\n      0x00\n        /* \"smartContract/contracts/3_Ballot.sol\":3404:3461  proposals[random_vote()].Votes_District2 += sender.weight */\n      dup3\n      dup3\n      sload\n      tag_66\n      swap2\n      swap1\n      tag_46\n      jump\t// in\n    tag_66:\n      swap3\n      pop\n      pop\n      dup2\n      swap1\n      sstore\n      pop\n        /* \"smartContract/contracts/3_Ballot.sol\":3380:4119  if (sender.district==2){proposals[random_vote()].Votes_District2 += sender.weight;}... */\n      jump(tag_67)\n    tag_61:\n        /* \"smartContract/contracts/3_Ballot.sol\":3498:3499  3 */\n      0x03\n        /* \"smartContract/contracts/3_Ballot.sol\":3481:3487  sender */\n      dup2\n        /* \"smartContract/contracts/3_Ballot.sol\":3481:3496  sender.district */\n      0x02\n      add\n      sload\n        /* \"smartContract/contracts/3_Ballot.sol\":3481:3499  sender.district==3 */\n      eq\n        /* \"smartContract/contracts/3_Ballot.sol\":3477:4119  if (sender.district==3){proposals[random_vote()].Votes_District3 += sender.weight;}... */\n      iszero\n      tag_68\n      jumpi\n        /* \"smartContract/contracts/3_Ballot.sol\":3545:3551  sender */\n      dup1\n        /* \"smartContract/contracts/3_Ballot.sol\":3545:3558  sender.weight */\n      0x00\n      add\n      sload\n        /* \"smartContract/contracts/3_Ballot.sol\":3501:3510  proposals */\n      0x03\n        /* \"smartContract/contracts/3_Ballot.sol\":3511:3524  random_vote() */\n      tag_69\n        /* \"smartContract/contracts/3_Ballot.sol\":3511:3522  random_vote */\n      tag_37\n        /* \"smartContract/contracts/3_Ballot.sol\":3511:3524  random_vote() */\n      jump\t// in\n    tag_69:\n        /* \"smartContract/contracts/3_Ballot.sol\":3501:3525  proposals[random_vote()] */\n      dup2\n      sload\n      dup2\n      lt\n      tag_70\n      jumpi\n      tag_71\n      tag_43\n      jump\t// in\n    tag_71:\n    tag_70:\n      swap1\n      0x00\n      mstore\n      keccak256(0x00, 0x20)\n      swap1\n      0x0c\n      mul\n      add\n        /* \"smartContract/contracts/3_Ballot.sol\":3501:3541  proposals[random_vote()].Votes_District3 */\n      0x05\n      add\n      0x00\n        /* \"smartContract/contracts/3_Ballot.sol\":3501:3558  proposals[random_vote()].Votes_District3 += sender.weight */\n      dup3\n      dup3\n      sload\n      tag_73\n      swap2\n      swap1\n      tag_46\n      jump\t// in\n    tag_73:\n      swap3\n      pop\n      pop\n      dup2\n      swap1\n      sstore\n      pop\n        /* \"smartContract/contracts/3_Ballot.sol\":3477:4119  if (sender.district==3){proposals[random_vote()].Votes_District3 += sender.weight;}... */\n      jump(tag_74)\n    tag_68:\n        /* \"smartContract/contracts/3_Ballot.sol\":3595:3596  4 */\n      0x04\n        /* \"smartContract/contracts/3_Ballot.sol\":3578:3584  sender */\n      dup2\n        /* \"smartContract/contracts/3_Ballot.sol\":3578:3593  sender.district */\n      0x02\n      add\n      sload\n        /* \"smartContract/contracts/3_Ballot.sol\":3578:3596  sender.district==4 */\n      eq\n        /* \"smartContract/contracts/3_Ballot.sol\":3574:4119  if (sender.district==4){proposals[random_vote()].Votes_District4 += sender.weight;}... */\n      iszero\n      tag_75\n      jumpi\n        /* \"smartContract/contracts/3_Ballot.sol\":3642:3648  sender */\n      dup1\n        /* \"smartContract/contracts/3_Ballot.sol\":3642:3655  sender.weight */\n      0x00\n      add\n      sload\n        /* \"smartContract/contracts/3_Ballot.sol\":3598:3607  proposals */\n      0x03\n        /* \"smartContract/contracts/3_Ballot.sol\":3608:3621  random_vote() */\n      tag_76\n        /* \"smartContract/contracts/3_Ballot.sol\":3608:3619  random_vote */\n      tag_37\n        /* \"smartContract/contracts/3_Ballot.sol\":3608:3621  random_vote() */\n      jump\t// in\n    tag_76:\n        /* \"smartContract/contracts/3_Ballot.sol\":3598:3622  proposals[random_vote()] */\n      dup2\n      sload\n      dup2\n      lt\n      tag_77\n      jumpi\n      tag_78\n      tag_43\n      jump\t// in\n    tag_78:\n    tag_77:\n      swap1\n      0x00\n      mstore\n      keccak256(0x00, 0x20)\n      swap1\n      0x0c\n      mul\n      add\n        /* \"smartContract/contracts/3_Ballot.sol\":3598:3638  proposals[random_vote()].Votes_District4 */\n      0x06\n      add\n      0x00\n        /* \"smartContract/contracts/3_Ballot.sol\":3598:3655  proposals[random_vote()].Votes_District4 += sender.weight */\n      dup3\n      dup3\n      sload\n      tag_80\n      swap2\n      swap1\n      tag_46\n      jump\t// in\n    tag_80:\n      swap3\n      pop\n      pop\n      dup2\n      swap1\n      sstore\n      pop\n        /* \"smartContract/contracts/3_Ballot.sol\":3574:4119  if (sender.district==4){proposals[random_vote()].Votes_District4 += sender.weight;}... */\n      jump(tag_81)\n    tag_75:\n        /* \"smartContract/contracts/3_Ballot.sol\":3692:3693  5 */\n      0x05\n        /* \"smartContract/contracts/3_Ballot.sol\":3675:3681  sender */\n      dup2\n        /* \"smartContract/contracts/3_Ballot.sol\":3675:3690  sender.district */\n      0x02\n      add\n      sload\n        /* \"smartContract/contracts/3_Ballot.sol\":3675:3693  sender.district==5 */\n      eq\n        /* \"smartContract/contracts/3_Ballot.sol\":3671:4119  if (sender.district==5){proposals[random_vote()].Votes_District5 += sender.weight;}... */\n      iszero\n      tag_82\n      jumpi\n        /* \"smartContract/contracts/3_Ballot.sol\":3739:3745  sender */\n      dup1\n        /* \"smartContract/contracts/3_Ballot.sol\":3739:3752  sender.weight */\n      0x00\n      add\n      sload\n        /* \"smartContract/contracts/3_Ballot.sol\":3695:3704  proposals */\n      0x03\n        /* \"smartContract/contracts/3_Ballot.sol\":3705:3718  random_vote() */\n      tag_83\n        /* \"smartContract/contracts/3_Ballot.sol\":3705:3716  random_vote */\n      tag_37\n        /* \"smartContract/contracts/3_Ballot.sol\":3705:3718  random_vote() */\n      jump\t// in\n    tag_83:\n        /* \"smartContract/contracts/3_Ballot.sol\":3695:3719  proposals[random_vote()] */\n      dup2\n      sload\n      dup2\n      lt\n      tag_84\n      jumpi\n      tag_85\n      tag_43\n      jump\t// in\n    tag_85:\n    tag_84:\n      swap1\n      0x00\n      mstore\n      keccak256(0x00, 0x20)\n      swap1\n      0x0c\n      mul\n      add\n        /* \"smartContract/contracts/3_Ballot.sol\":3695:3735  proposals[random_vote()].Votes_District5 */\n      0x07\n      add\n      0x00\n        /* \"smartContract/contracts/3_Ballot.sol\":3695:3752  proposals[random_vote()].Votes_District5 += sender.weight */\n      dup3\n      dup3\n      sload\n      tag_87\n      swap2\n      swap1\n      tag_46\n      jump\t// in\n    tag_87:\n      swap3\n      pop\n      pop\n      dup2\n      swap1\n      sstore\n      pop\n        /* \"smartContract/contracts/3_Ballot.sol\":3671:4119  if (sender.district==5){proposals[random_vote()].Votes_District5 += sender.weight;}... */\n      jump(tag_88)\n    tag_82:\n        /* \"smartContract/contracts/3_Ballot.sol\":3789:3790  6 */\n      0x06\n        /* \"smartContract/contracts/3_Ballot.sol\":3772:3778  sender */\n      dup2\n        /* \"smartContract/contracts/3_Ballot.sol\":3772:3787  sender.district */\n      0x02\n      add\n      sload\n        /* \"smartContract/contracts/3_Ballot.sol\":3772:3790  sender.district==6 */\n      eq\n        /* \"smartContract/contracts/3_Ballot.sol\":3768:4119  if (sender.district==6){proposals[random_vote()].Votes_District6 += sender.weight;}... */\n      iszero\n      tag_89\n      jumpi\n        /* \"smartContract/contracts/3_Ballot.sol\":3836:3842  sender */\n      dup1\n        /* \"smartContract/contracts/3_Ballot.sol\":3836:3849  sender.weight */\n      0x00\n      add\n      sload\n        /* \"smartContract/contracts/3_Ballot.sol\":3792:3801  proposals */\n      0x03\n        /* \"smartContract/contracts/3_Ballot.sol\":3802:3815  random_vote() */\n      tag_90\n        /* \"smartContract/contracts/3_Ballot.sol\":3802:3813  random_vote */\n      tag_37\n        /* \"smartContract/contracts/3_Ballot.sol\":3802:3815  random_vote() */\n      jump\t// in\n    tag_90:\n        /* \"smartContract/contracts/3_Ballot.sol\":3792:3816  proposals[random_vote()] */\n      dup2\n      sload\n      dup2\n      lt\n      tag_91\n      jumpi\n      tag_92\n      tag_43\n      jump\t// in\n    tag_92:\n    tag_91:\n      swap1\n      0x00\n      mstore\n      keccak256(0x00, 0x20)\n      swap1\n      0x0c\n      mul\n      add\n        /* \"smartContract/contracts/3_Ballot.sol\":3792:3832  proposals[random_vote()].Votes_District6 */\n      0x08\n      add\n      0x00\n        /* \"smartContract/contracts/3_Ballot.sol\":3792:3849  proposals[random_vote()].Votes_District6 += sender.weight */\n      dup3\n      dup3\n      sload\n      tag_94\n      swap2\n      swap1\n      tag_46\n      jump\t// in\n    tag_94:\n      swap3\n      pop\n      pop\n      dup2\n      swap1\n      sstore\n      pop\n        /* \"smartContract/contracts/3_Ballot.sol\":3768:4119  if (sender.district==6){proposals[random_vote()].Votes_District6 += sender.weight;}... */\n      jump(tag_95)\n    tag_89:\n        /* \"smartContract/contracts/3_Ballot.sol\":3886:3887  7 */\n      0x07\n        /* \"smartContract/contracts/3_Ballot.sol\":3869:3875  sender */\n      dup2\n        /* \"smartContract/contracts/3_Ballot.sol\":3869:3884  sender.district */\n      0x02\n      add\n      sload\n        /* \"smartContract/contracts/3_Ballot.sol\":3869:3887  sender.district==7 */\n      eq\n        /* \"smartContract/contracts/3_Ballot.sol\":3865:4119  if (sender.district==7){proposals[random_vote()].Votes_District7 += sender.weight;}... */\n      iszero\n      tag_96\n      jumpi\n        /* \"smartContract/contracts/3_Ballot.sol\":3933:3939  sender */\n      dup1\n        /* \"smartContract/contracts/3_Ballot.sol\":3933:3946  sender.weight */\n      0x00\n      add\n      sload\n        /* \"smartContract/contracts/3_Ballot.sol\":3889:3898  proposals */\n      0x03\n        /* \"smartContract/contracts/3_Ballot.sol\":3899:3912  random_vote() */\n      tag_97\n        /* \"smartContract/contracts/3_Ballot.sol\":3899:3910  random_vote */\n      tag_37\n        /* \"smartContract/contracts/3_Ballot.sol\":3899:3912  random_vote() */\n      jump\t// in\n    tag_97:\n        /* \"smartContract/contracts/3_Ballot.sol\":3889:3913  proposals[random_vote()] */\n      dup2\n      sload\n      dup2\n      lt\n      tag_98\n      jumpi\n      tag_99\n      tag_43\n      jump\t// in\n    tag_99:\n    tag_98:\n      swap1\n      0x00\n      mstore\n      keccak256(0x00, 0x20)\n      swap1\n      0x0c\n      mul\n      add\n        /* \"smartContract/contracts/3_Ballot.sol\":3889:3929  proposals[random_vote()].Votes_District7 */\n      0x09\n      add\n      0x00\n        /* \"smartContract/contracts/3_Ballot.sol\":3889:3946  proposals[random_vote()].Votes_District7 += sender.weight */\n      dup3\n      dup3\n      sload\n      tag_101\n      swap2\n      swap1\n      tag_46\n      jump\t// in\n    tag_101:\n      swap3\n      pop\n      pop\n      dup2\n      swap1\n      sstore\n      pop\n        /* \"smartContract/contracts/3_Ballot.sol\":3865:4119  if (sender.district==7){proposals[random_vote()].Votes_District7 += sender.weight;}... */\n      jump(tag_102)\n    tag_96:\n        /* \"smartContract/contracts/3_Ballot.sol\":3983:3984  8 */\n      0x08\n        /* \"smartContract/contracts/3_Ballot.sol\":3966:3972  sender */\n      dup2\n        /* \"smartContract/contracts/3_Ballot.sol\":3966:3981  sender.district */\n      0x02\n      add\n      sload\n        /* \"smartContract/contracts/3_Ballot.sol\":3966:3984  sender.district==8 */\n      eq\n        /* \"smartContract/contracts/3_Ballot.sol\":3962:4119  if (sender.district==8){proposals[random_vote()].Votes_District8 += sender.weight;}... */\n      iszero\n      tag_103\n      jumpi\n        /* \"smartContract/contracts/3_Ballot.sol\":4030:4036  sender */\n      dup1\n        /* \"smartContract/contracts/3_Ballot.sol\":4030:4043  sender.weight */\n      0x00\n      add\n      sload\n        /* \"smartContract/contracts/3_Ballot.sol\":3986:3995  proposals */\n      0x03\n        /* \"smartContract/contracts/3_Ballot.sol\":3996:4009  random_vote() */\n      tag_104\n        /* \"smartContract/contracts/3_Ballot.sol\":3996:4007  random_vote */\n      tag_37\n        /* \"smartContract/contracts/3_Ballot.sol\":3996:4009  random_vote() */\n      jump\t// in\n    tag_104:\n        /* \"smartContract/contracts/3_Ballot.sol\":3986:4010  proposals[random_vote()] */\n      dup2\n      sload\n      dup2\n      lt\n      tag_105\n      jumpi\n      tag_106\n      tag_43\n      jump\t// in\n    tag_106:\n    tag_105:\n      swap1\n      0x00\n      mstore\n      keccak256(0x00, 0x20)\n      swap1\n      0x0c\n      mul\n      add\n        /* \"smartContract/contracts/3_Ballot.sol\":3986:4026  proposals[random_vote()].Votes_District8 */\n      0x0a\n      add\n      0x00\n        /* \"smartContract/contracts/3_Ballot.sol\":3986:4043  proposals[random_vote()].Votes_District8 += sender.weight */\n      dup3\n      dup3\n      sload\n      tag_108\n      swap2\n      swap1\n      tag_46\n      jump\t// in\n    tag_108:\n      swap3\n      pop\n      pop\n      dup2\n      swap1\n      sstore\n      pop\n        /* \"smartContract/contracts/3_Ballot.sol\":3962:4119  if (sender.district==8){proposals[random_vote()].Votes_District8 += sender.weight;}... */\n      jump(tag_109)\n    tag_103:\n        /* \"smartContract/contracts/3_Ballot.sol\":4104:4110  sender */\n      dup1\n        /* \"smartContract/contracts/3_Ballot.sol\":4104:4117  sender.weight */\n      0x00\n      add\n      sload\n        /* \"smartContract/contracts/3_Ballot.sol\":4060:4069  proposals */\n      0x03\n        /* \"smartContract/contracts/3_Ballot.sol\":4070:4083  random_vote() */\n      tag_110\n        /* \"smartContract/contracts/3_Ballot.sol\":4070:4081  random_vote */\n      tag_37\n        /* \"smartContract/contracts/3_Ballot.sol\":4070:4083  random_vote() */\n      jump\t// in\n    tag_110:\n        /* \"smartContract/contracts/3_Ballot.sol\":4060:4084  proposals[random_vote()] */\n      dup2\n      sload\n      dup2\n      lt\n      tag_111\n      jumpi\n      tag_112\n      tag_43\n      jump\t// in\n    tag_112:\n    tag_111:\n      swap1\n      0x00\n      mstore\n      keccak256(0x00, 0x20)\n      swap1\n      0x0c\n      mul\n      add\n        /* \"smartContract/contracts/3_Ballot.sol\":4060:4100  proposals[random_vote()].Votes_District9 */\n      0x0b\n      add\n      0x00\n        /* \"smartContract/contracts/3_Ballot.sol\":4060:4117  proposals[random_vote()].Votes_District9 += sender.weight */\n      dup3\n      dup3\n      sload\n      tag_114\n      swap2\n      swap1\n      tag_46\n      jump\t// in\n    tag_114:\n      swap3\n      pop\n      pop\n      dup2\n      swap1\n      sstore\n      pop\n        /* \"smartContract/contracts/3_Ballot.sol\":3962:4119  if (sender.district==8){proposals[random_vote()].Votes_District8 += sender.weight;}... */\n    tag_109:\n        /* \"smartContract/contracts/3_Ballot.sol\":3865:4119  if (sender.district==7){proposals[random_vote()].Votes_District7 += sender.weight;}... */\n    tag_102:\n        /* \"smartContract/contracts/3_Ballot.sol\":3768:4119  if (sender.district==6){proposals[random_vote()].Votes_District6 += sender.weight;}... */\n    tag_95:\n        /* \"smartContract/contracts/3_Ballot.sol\":3671:4119  if (sender.district==5){proposals[random_vote()].Votes_District5 += sender.weight;}... */\n    tag_88:\n        /* \"smartContract/contracts/3_Ballot.sol\":3574:4119  if (sender.district==4){proposals[random_vote()].Votes_District4 += sender.weight;}... */\n    tag_81:\n        /* \"smartContract/contracts/3_Ballot.sol\":3477:4119  if (sender.district==3){proposals[random_vote()].Votes_District3 += sender.weight;}... */\n    tag_74:\n        /* \"smartContract/contracts/3_Ballot.sol\":3380:4119  if (sender.district==2){proposals[random_vote()].Votes_District2 += sender.weight;}... */\n    tag_67:\n        /* \"smartContract/contracts/3_Ballot.sol\":3283:4119  if (sender.district==1){proposals[random_vote()].Votes_District1 += sender.weight;}... */\n    tag_60:\n        /* \"smartContract/contracts/3_Ballot.sol\":3186:4119  if (sender.district==0){proposals[random_vote()].Votes_District0 += sender.weight;}... */\n    tag_53:\n        /* \"smartContract/contracts/3_Ballot.sol\":2513:4237  {... */\n      pop\n        /* \"smartContract/contracts/3_Ballot.sol\":2490:4237  function vote() public {... */\n      jump\t// out\n        /* \"smartContract/contracts/3_Ballot.sol\":974:992  Voter[] public axx */\n    tag_12:\n      0x02\n      dup2\n      dup2\n      sload\n      dup2\n      lt\n      tag_115\n      jumpi\n      0x00\n      dup1\n      revert\n    tag_115:\n      swap1\n      0x00\n      mstore\n      keccak256(0x00, 0x20)\n      swap1\n      0x04\n      mul\n      add\n      0x00\n      swap2\n      pop\n      swap1\n      pop\n      dup1\n      0x00\n      add\n      sload\n      swap1\n      dup1\n      0x01\n      add\n      0x00\n      swap1\n      sload\n      swap1\n      0x0100\n      exp\n      swap1\n      div\n      0xff\n      and\n      swap1\n      dup1\n      0x02\n      add\n      sload\n      swap1\n      dup1\n      0x03\n      add\n      sload\n      swap1\n      pop\n      dup5\n      jump\t// out\n        /* \"smartContract/contracts/3_Ballot.sol\":2103:2124  int public countV = 0 */\n    tag_16:\n      sload(0x04)\n      dup2\n      jump\t// out\n        /* \"smartContract/contracts/3_Ballot.sol\":4243:4340  function res(uint _id) public view returns(Proposal memory){... */\n    tag_21:\n        /* \"smartContract/contracts/3_Ballot.sol\":4286:4301  Proposal memory */\n      tag_117\n      tag_118\n      jump\t// in\n    tag_117:\n        /* \"smartContract/contracts/3_Ballot.sol\":4319:4328  proposals */\n      0x03\n        /* \"smartContract/contracts/3_Ballot.sol\":4329:4332  _id */\n      dup3\n        /* \"smartContract/contracts/3_Ballot.sol\":4319:4333  proposals[_id] */\n      dup2\n      sload\n      dup2\n      lt\n      tag_120\n      jumpi\n      tag_121\n      tag_43\n      jump\t// in\n    tag_121:\n    tag_120:\n      swap1\n      0x00\n      mstore\n      keccak256(0x00, 0x20)\n      swap1\n      0x0c\n      mul\n      add\n        /* \"smartContract/contracts/3_Ballot.sol\":4312:4333  return proposals[_id] */\n      mload(0x40)\n      dup1\n      0x0180\n      add\n      0x40\n      mstore\n      swap1\n      dup2\n      0x00\n      dup3\n      add\n      dup1\n      sload\n      tag_123\n      swap1\n      tag_124\n      jump\t// in\n    tag_123:\n      dup1\n      0x1f\n      add\n      0x20\n      dup1\n      swap2\n      div\n      mul\n      0x20\n      add\n      mload(0x40)\n      swap1\n      dup2\n      add\n      0x40\n      mstore\n      dup1\n      swap3\n      swap2\n      swap1\n      dup2\n      dup2\n      mstore\n      0x20\n      add\n      dup3\n      dup1\n      sload\n      tag_125\n      swap1\n      tag_124\n      jump\t// in\n    tag_125:\n      dup1\n      iszero\n      tag_126\n      jumpi\n      dup1\n      0x1f\n      lt\n      tag_127\n      jumpi\n      0x0100\n      dup1\n      dup4\n      sload\n      div\n      mul\n      dup4\n      mstore\n      swap2\n      0x20\n      add\n      swap2\n      jump(tag_126)\n    tag_127:\n      dup3\n      add\n      swap2\n      swap1\n      0x00\n      mstore\n      keccak256(0x00, 0x20)\n      swap1\n    tag_128:\n      dup2\n      sload\n      dup2\n      mstore\n      swap1\n      0x01\n      add\n      swap1\n      0x20\n      add\n      dup1\n      dup4\n      gt\n      tag_128\n      jumpi\n      dup3\n      swap1\n      sub\n      0x1f\n      and\n      dup3\n      add\n      swap2\n    tag_126:\n      pop\n      pop\n      pop\n      pop\n      pop\n      dup2\n      mstore\n      0x20\n      add\n      0x01\n      dup3\n      add\n      sload\n      dup2\n      mstore\n      0x20\n      add\n      0x02\n      dup3\n      add\n      sload\n      dup2\n      mstore\n      0x20\n      add\n      0x03\n      dup3\n      add\n      sload\n      dup2\n      mstore\n      0x20\n      add\n      0x04\n      dup3\n      add\n      sload\n      dup2\n      mstore\n      0x20\n      add\n      0x05\n      dup3\n      add\n      sload\n      dup2\n      mstore\n      0x20\n      add\n      0x06\n      dup3\n      add\n      sload\n      dup2\n      mstore\n      0x20\n      add\n      0x07\n      dup3\n      add\n      sload\n      dup2\n      mstore\n      0x20\n      add\n      0x08\n      dup3\n      add\n      sload\n      dup2\n      mstore\n      0x20\n      add\n      0x09\n      dup3\n      add\n      sload\n      dup2\n      mstore\n      0x20\n      add\n      0x0a\n      dup3\n      add\n      sload\n      dup2\n      mstore\n      0x20\n      add\n      0x0b\n      dup3\n      add\n      sload\n      dup2\n      mstore\n      pop\n      pop\n      swap1\n      pop\n        /* \"smartContract/contracts/3_Ballot.sol\":4243:4340  function res(uint _id) public view returns(Proposal memory){... */\n      swap2\n      swap1\n      pop\n      jump\t// out\n        /* \"smartContract/contracts/3_Ballot.sol\":1038:1209  function random_district() private view returns(uint){... */\n    tag_32:\n        /* \"smartContract/contracts/3_Ballot.sol\":1086:1090  uint */\n      0x00\n        /* \"smartContract/contracts/3_Ballot.sol\":1200:1202  10 */\n      0x0a\n        /* \"smartContract/contracts/3_Ballot.sol\":1140:1155  block.timestamp */\n      timestamp\n        /* \"smartContract/contracts/3_Ballot.sol\":1156:1172  block.difficulty */\n      difficulty\n        /* \"smartContract/contracts/3_Ballot.sol\":1184:1194  msg.sender */\n      caller\n        /* \"smartContract/contracts/3_Ballot.sol\":1123:1195  abi.encodePacked(block.timestamp,block.difficulty,  ... */\n      add(0x20, mload(0x40))\n      tag_130\n      swap4\n      swap3\n      swap2\n      swap1\n      tag_131\n      jump\t// in\n    tag_130:\n      mload(0x40)\n      0x20\n      dup2\n      dup4\n      sub\n      sub\n      dup2\n      mstore\n      swap1\n      0x40\n      mstore\n        /* \"smartContract/contracts/3_Ballot.sol\":1113:1196  keccak256(abi.encodePacked(block.timestamp,block.difficulty,  ... */\n      dup1\n      mload\n      swap1\n      0x20\n      add\n      keccak256\n        /* \"smartContract/contracts/3_Ballot.sol\":1108:1197  uint(keccak256(abi.encodePacked(block.timestamp,block.difficulty,  ... */\n      0x00\n      shr\n        /* \"smartContract/contracts/3_Ballot.sol\":1108:1202  uint(keccak256(abi.encodePacked(block.timestamp,block.difficulty,  ... */\n      tag_132\n      swap2\n      swap1\n      tag_133\n      jump\t// in\n    tag_132:\n        /* \"smartContract/contracts/3_Ballot.sol\":1101:1202  return uint(keccak256(abi.encodePacked(block.timestamp,block.difficulty,  ... */\n      swap1\n      pop\n        /* \"smartContract/contracts/3_Ballot.sol\":1038:1209  function random_district() private view returns(uint){... */\n      swap1\n      jump\t// out\n        /* \"smartContract/contracts/3_Ballot.sol\":2306:2484  function random_vote() private view returns(uint){... */\n    tag_37:\n        /* \"smartContract/contracts/3_Ballot.sol\":2350:2354  uint */\n      0x00\n        /* \"smartContract/contracts/3_Ballot.sol\":2472:2473  5 */\n      0x05\n        /* \"smartContract/contracts/3_Ballot.sol\":2408:2423  block.timestamp */\n      timestamp\n        /* \"smartContract/contracts/3_Ballot.sol\":2424:2440  block.difficulty */\n      difficulty\n        /* \"smartContract/contracts/3_Ballot.sol\":2456:2466  msg.sender */\n      caller\n        /* \"smartContract/contracts/3_Ballot.sol\":2391:2467  abi.encodePacked(block.timestamp,block.difficulty,  ... */\n      add(0x20, mload(0x40))\n      tag_135\n      swap4\n      swap3\n      swap2\n      swap1\n      tag_131\n      jump\t// in\n    tag_135:\n      mload(0x40)\n      0x20\n      dup2\n      dup4\n      sub\n      sub\n      dup2\n      mstore\n      swap1\n      0x40\n      mstore\n        /* \"smartContract/contracts/3_Ballot.sol\":2381:2468  keccak256(abi.encodePacked(block.timestamp,block.difficulty,  ... */\n      dup1\n      mload\n      swap1\n      0x20\n      add\n      keccak256\n        /* \"smartContract/contracts/3_Ballot.sol\":2376:2469  uint(keccak256(abi.encodePacked(block.timestamp,block.difficulty,  ... */\n      0x00\n      shr\n        /* \"smartContract/contracts/3_Ballot.sol\":2376:2473  uint(keccak256(abi.encodePacked(block.timestamp,block.difficulty,  ... */\n      tag_136\n      swap2\n      swap1\n      tag_133\n      jump\t// in\n    tag_136:\n        /* \"smartContract/contracts/3_Ballot.sol\":2369:2473  return uint(keccak256(abi.encodePacked(block.timestamp,block.difficulty,  ... */\n      swap1\n      pop\n        /* \"smartContract/contracts/3_Ballot.sol\":2306:2484  function random_vote() private view returns(uint){... */\n      swap1\n      jump\t// out\n        /* \"smartContract/contracts/3_Ballot.sol\":2130:2189  function countVoters() private {... */\n    tag_39:\n        /* \"smartContract/contracts/3_Ballot.sol\":2181:2182  1 */\n      0x01\n        /* \"smartContract/contracts/3_Ballot.sol\":2171:2177  countV */\n      0x04\n      0x00\n        /* \"smartContract/contracts/3_Ballot.sol\":2171:2182  countV += 1 */\n      dup3\n      dup3\n      sload\n      tag_138\n      swap2\n      swap1\n      tag_139\n      jump\t// in\n    tag_138:\n      swap3\n      pop\n      pop\n      dup2\n      swap1\n      sstore\n      pop\n        /* \"smartContract/contracts/3_Ballot.sol\":2130:2189  function countVoters() private {... */\n      jump\t// out\n    tag_118:\n      mload(0x40)\n      dup1\n      0x0180\n      add\n      0x40\n      mstore\n      dup1\n      0x60\n      dup2\n      mstore\n      0x20\n      add\n      0x00\n      dup2\n      mstore\n      0x20\n      add\n      0x00\n      dup2\n      mstore\n      0x20\n      add\n      0x00\n      dup2\n      mstore\n      0x20\n      add\n      0x00\n      dup2\n      mstore\n      0x20\n      add\n      0x00\n      dup2\n      mstore\n      0x20\n      add\n      0x00\n      dup2\n      mstore\n      0x20\n      add\n      0x00\n      dup2\n      mstore\n      0x20\n      add\n      0x00\n      dup2\n      mstore\n      0x20\n      add\n      0x00\n      dup2\n      mstore\n      0x20\n      add\n      0x00\n      dup2\n      mstore\n      0x20\n      add\n      0x00\n      dup2\n      mstore\n      pop\n      swap1\n      jump\t// out\n        /* \"#utility.yul\":7:146   */\n    tag_141:\n        /* \"#utility.yul\":53:58   */\n      0x00\n        /* \"#utility.yul\":91:97   */\n      dup2\n        /* \"#utility.yul\":78:98   */\n      calldataload\n        /* \"#utility.yul\":69:98   */\n      swap1\n      pop\n        /* \"#utility.yul\":107:140   */\n      tag_143\n        /* \"#utility.yul\":134:139   */\n      dup2\n        /* \"#utility.yul\":107:140   */\n      tag_144\n      jump\t// in\n    tag_143:\n        /* \"#utility.yul\":7:146   */\n      swap3\n      swap2\n      pop\n      pop\n      jump\t// out\n        /* \"#utility.yul\":152:481   */\n    tag_11:\n        /* \"#utility.yul\":211:217   */\n      0x00\n        /* \"#utility.yul\":260:262   */\n      0x20\n        /* \"#utility.yul\":248:257   */\n      dup3\n        /* \"#utility.yul\":239:246   */\n      dup5\n        /* \"#utility.yul\":235:258   */\n      sub\n        /* \"#utility.yul\":231:263   */\n      slt\n        /* \"#utility.yul\":228:347   */\n      iszero\n      tag_146\n      jumpi\n        /* \"#utility.yul\":266:345   */\n      tag_147\n      tag_148\n      jump\t// in\n    tag_147:\n        /* \"#utility.yul\":228:347   */\n    tag_146:\n        /* \"#utility.yul\":386:387   */\n      0x00\n        /* \"#utility.yul\":411:464   */\n      tag_149\n        /* \"#utility.yul\":456:463   */\n      dup5\n        /* \"#utility.yul\":447:453   */\n      dup3\n        /* \"#utility.yul\":436:445   */\n      dup6\n        /* \"#utility.yul\":432:454   */\n      add\n        /* \"#utility.yul\":411:464   */\n      tag_141\n      jump\t// in\n    tag_149:\n        /* \"#utility.yul\":401:464   */\n      swap2\n      pop\n        /* \"#utility.yul\":357:474   */\n      pop\n        /* \"#utility.yul\":152:481   */\n      swap3\n      swap2\n      pop\n      pop\n      jump\t// out\n        /* \"#utility.yul\":487:644   */\n    tag_150:\n        /* \"#utility.yul\":592:637   */\n      tag_152\n        /* \"#utility.yul\":612:636   */\n      tag_153\n        /* \"#utility.yul\":630:635   */\n      dup3\n        /* \"#utility.yul\":612:636   */\n      tag_154\n      jump\t// in\n    tag_153:\n        /* \"#utility.yul\":592:637   */\n      tag_155\n      jump\t// in\n    tag_152:\n        /* \"#utility.yul\":587:590   */\n      dup3\n        /* \"#utility.yul\":580:638   */\n      mstore\n        /* \"#utility.yul\":487:644   */\n      pop\n      pop\n      jump\t// out\n        /* \"#utility.yul\":650:759   */\n    tag_156:\n        /* \"#utility.yul\":731:752   */\n      tag_158\n        /* \"#utility.yul\":746:751   */\n      dup2\n        /* \"#utility.yul\":731:752   */\n      tag_159\n      jump\t// in\n    tag_158:\n        /* \"#utility.yul\":726:729   */\n      dup3\n        /* \"#utility.yul\":719:753   */\n      mstore\n        /* \"#utility.yul\":650:759   */\n      pop\n      pop\n      jump\t// out\n        /* \"#utility.yul\":765:880   */\n    tag_160:\n        /* \"#utility.yul\":850:873   */\n      tag_162\n        /* \"#utility.yul\":867:872   */\n      dup2\n        /* \"#utility.yul\":850:873   */\n      tag_163\n      jump\t// in\n    tag_162:\n        /* \"#utility.yul\":845:848   */\n      dup3\n        /* \"#utility.yul\":838:874   */\n      mstore\n        /* \"#utility.yul\":765:880   */\n      pop\n      pop\n      jump\t// out\n        /* \"#utility.yul\":886:1230   */\n    tag_164:\n        /* \"#utility.yul\":964:967   */\n      0x00\n        /* \"#utility.yul\":992:1031   */\n      tag_166\n        /* \"#utility.yul\":1025:1030   */\n      dup3\n        /* \"#utility.yul\":992:1031   */\n      tag_167\n      jump\t// in\n    tag_166:\n        /* \"#utility.yul\":1047:1108   */\n      tag_168\n        /* \"#utility.yul\":1101:1107   */\n      dup2\n        /* \"#utility.yul\":1096:1099   */\n      dup6\n        /* \"#utility.yul\":1047:1108   */\n      tag_169\n      jump\t// in\n    tag_168:\n        /* \"#utility.yul\":1040:1108   */\n      swap4\n      pop\n        /* \"#utility.yul\":1117:1169   */\n      tag_170\n        /* \"#utility.yul\":1162:1168   */\n      dup2\n        /* \"#utility.yul\":1157:1160   */\n      dup6\n        /* \"#utility.yul\":1150:1154   */\n      0x20\n        /* \"#utility.yul\":1143:1148   */\n      dup7\n        /* \"#utility.yul\":1139:1155   */\n      add\n        /* \"#utility.yul\":1117:1169   */\n      tag_171\n      jump\t// in\n    tag_170:\n        /* \"#utility.yul\":1194:1223   */\n      tag_172\n        /* \"#utility.yul\":1216:1222   */\n      dup2\n        /* \"#utility.yul\":1194:1223   */\n      tag_173\n      jump\t// in\n    tag_172:\n        /* \"#utility.yul\":1189:1192   */\n      dup5\n        /* \"#utility.yul\":1185:1224   */\n      add\n        /* \"#utility.yul\":1178:1224   */\n      swap2\n      pop\n        /* \"#utility.yul\":968:1230   */\n      pop\n        /* \"#utility.yul\":886:1230   */\n      swap3\n      swap2\n      pop\n      pop\n      jump\t// out\n        /* \"#utility.yul\":1236:1602   */\n    tag_174:\n        /* \"#utility.yul\":1378:1381   */\n      0x00\n        /* \"#utility.yul\":1399:1466   */\n      tag_176\n        /* \"#utility.yul\":1463:1465   */\n      0x0e\n        /* \"#utility.yul\":1458:1461   */\n      dup4\n        /* \"#utility.yul\":1399:1466   */\n      tag_177\n      jump\t// in\n    tag_176:\n        /* \"#utility.yul\":1392:1466   */\n      swap2\n      pop\n        /* \"#utility.yul\":1475:1568   */\n      tag_178\n        /* \"#utility.yul\":1564:1567   */\n      dup3\n        /* \"#utility.yul\":1475:1568   */\n      tag_179\n      jump\t// in\n    tag_178:\n        /* \"#utility.yul\":1593:1595   */\n      0x20\n        /* \"#utility.yul\":1588:1591   */\n      dup3\n        /* \"#utility.yul\":1584:1596   */\n      add\n        /* \"#utility.yul\":1577:1596   */\n      swap1\n      pop\n        /* \"#utility.yul\":1236:1602   */\n      swap2\n      swap1\n      pop\n      jump\t// out\n        /* \"#utility.yul\":1608:1974   */\n    tag_180:\n        /* \"#utility.yul\":1750:1753   */\n      0x00\n        /* \"#utility.yul\":1771:1838   */\n      tag_182\n        /* \"#utility.yul\":1835:1837   */\n      0x18\n        /* \"#utility.yul\":1830:1833   */\n      dup4\n        /* \"#utility.yul\":1771:1838   */\n      tag_177\n      jump\t// in\n    tag_182:\n        /* \"#utility.yul\":1764:1838   */\n      swap2\n      pop\n        /* \"#utility.yul\":1847:1940   */\n      tag_183\n        /* \"#utility.yul\":1936:1939   */\n      dup3\n        /* \"#utility.yul\":1847:1940   */\n      tag_184\n      jump\t// in\n    tag_183:\n        /* \"#utility.yul\":1965:1967   */\n      0x20\n        /* \"#utility.yul\":1960:1963   */\n      dup3\n        /* \"#utility.yul\":1956:1968   */\n      add\n        /* \"#utility.yul\":1949:1968   */\n      swap1\n      pop\n        /* \"#utility.yul\":1608:1974   */\n      swap2\n      swap1\n      pop\n      jump\t// out\n        /* \"#utility.yul\":1980:2346   */\n    tag_185:\n        /* \"#utility.yul\":2122:2125   */\n      0x00\n        /* \"#utility.yul\":2143:2210   */\n      tag_187\n        /* \"#utility.yul\":2207:2209   */\n      0x13\n        /* \"#utility.yul\":2202:2205   */\n      dup4\n        /* \"#utility.yul\":2143:2210   */\n      tag_177\n      jump\t// in\n    tag_187:\n        /* \"#utility.yul\":2136:2210   */\n      swap2\n      pop\n        /* \"#utility.yul\":2219:2312   */\n      tag_188\n        /* \"#utility.yul\":2308:2311   */\n      dup3\n        /* \"#utility.yul\":2219:2312   */\n      tag_189\n      jump\t// in\n    tag_188:\n        /* \"#utility.yul\":2337:2339   */\n      0x20\n        /* \"#utility.yul\":2332:2335   */\n      dup3\n        /* \"#utility.yul\":2328:2340   */\n      add\n        /* \"#utility.yul\":2321:2340   */\n      swap1\n      pop\n        /* \"#utility.yul\":1980:2346   */\n      swap2\n      swap1\n      pop\n      jump\t// out\n        /* \"#utility.yul\":2408:4887   */\n    tag_190:\n        /* \"#utility.yul\":2525:2528   */\n      0x00\n        /* \"#utility.yul\":2561:2567   */\n      0x0180\n        /* \"#utility.yul\":2556:2559   */\n      dup4\n        /* \"#utility.yul\":2552:2568   */\n      add\n        /* \"#utility.yul\":2650:2654   */\n      0x00\n        /* \"#utility.yul\":2643:2648   */\n      dup4\n        /* \"#utility.yul\":2639:2655   */\n      add\n        /* \"#utility.yul\":2633:2656   */\n      mload\n        /* \"#utility.yul\":2703:2706   */\n      dup5\n        /* \"#utility.yul\":2697:2701   */\n      dup3\n        /* \"#utility.yul\":2693:2707   */\n      sub\n        /* \"#utility.yul\":2686:2690   */\n      0x00\n        /* \"#utility.yul\":2681:2684   */\n      dup7\n        /* \"#utility.yul\":2677:2691   */\n      add\n        /* \"#utility.yul\":2670:2708   */\n      mstore\n        /* \"#utility.yul\":2729:2802   */\n      tag_192\n        /* \"#utility.yul\":2797:2801   */\n      dup3\n        /* \"#utility.yul\":2783:2795   */\n      dup3\n        /* \"#utility.yul\":2729:2802   */\n      tag_164\n      jump\t// in\n    tag_192:\n        /* \"#utility.yul\":2721:2802   */\n      swap2\n      pop\n        /* \"#utility.yul\":2578:2813   */\n      pop\n        /* \"#utility.yul\":2902:2906   */\n      0x20\n        /* \"#utility.yul\":2895:2900   */\n      dup4\n        /* \"#utility.yul\":2891:2907   */\n      add\n        /* \"#utility.yul\":2885:2908   */\n      mload\n        /* \"#utility.yul\":2921:2984   */\n      tag_193\n        /* \"#utility.yul\":2978:2982   */\n      0x20\n        /* \"#utility.yul\":2973:2976   */\n      dup7\n        /* \"#utility.yul\":2969:2983   */\n      add\n        /* \"#utility.yul\":2955:2967   */\n      dup3\n        /* \"#utility.yul\":2921:2984   */\n      tag_194\n      jump\t// in\n    tag_193:\n        /* \"#utility.yul\":2823:2994   */\n      pop\n        /* \"#utility.yul\":3087:3091   */\n      0x40\n        /* \"#utility.yul\":3080:3085   */\n      dup4\n        /* \"#utility.yul\":3076:3092   */\n      add\n        /* \"#utility.yul\":3070:3093   */\n      mload\n        /* \"#utility.yul\":3106:3169   */\n      tag_195\n        /* \"#utility.yul\":3163:3167   */\n      0x40\n        /* \"#utility.yul\":3158:3161   */\n      dup7\n        /* \"#utility.yul\":3154:3168   */\n      add\n        /* \"#utility.yul\":3140:3152   */\n      dup3\n        /* \"#utility.yul\":3106:3169   */\n      tag_194\n      jump\t// in\n    tag_195:\n        /* \"#utility.yul\":3004:3179   */\n      pop\n        /* \"#utility.yul\":3272:3276   */\n      0x60\n        /* \"#utility.yul\":3265:3270   */\n      dup4\n        /* \"#utility.yul\":3261:3277   */\n      add\n        /* \"#utility.yul\":3255:3278   */\n      mload\n        /* \"#utility.yul\":3291:3354   */\n      tag_196\n        /* \"#utility.yul\":3348:3352   */\n      0x60\n        /* \"#utility.yul\":3343:3346   */\n      dup7\n        /* \"#utility.yul\":3339:3353   */\n      add\n        /* \"#utility.yul\":3325:3337   */\n      dup3\n        /* \"#utility.yul\":3291:3354   */\n      tag_194\n      jump\t// in\n    tag_196:\n        /* \"#utility.yul\":3189:3364   */\n      pop\n        /* \"#utility.yul\":3457:3461   */\n      0x80\n        /* \"#utility.yul\":3450:3455   */\n      dup4\n        /* \"#utility.yul\":3446:3462   */\n      add\n        /* \"#utility.yul\":3440:3463   */\n      mload\n        /* \"#utility.yul\":3476:3539   */\n      tag_197\n        /* \"#utility.yul\":3533:3537   */\n      0x80\n        /* \"#utility.yul\":3528:3531   */\n      dup7\n        /* \"#utility.yul\":3524:3538   */\n      add\n        /* \"#utility.yul\":3510:3522   */\n      dup3\n        /* \"#utility.yul\":3476:3539   */\n      tag_194\n      jump\t// in\n    tag_197:\n        /* \"#utility.yul\":3374:3549   */\n      pop\n        /* \"#utility.yul\":3642:3646   */\n      0xa0\n        /* \"#utility.yul\":3635:3640   */\n      dup4\n        /* \"#utility.yul\":3631:3647   */\n      add\n        /* \"#utility.yul\":3625:3648   */\n      mload\n        /* \"#utility.yul\":3661:3724   */\n      tag_198\n        /* \"#utility.yul\":3718:3722   */\n      0xa0\n        /* \"#utility.yul\":3713:3716   */\n      dup7\n        /* \"#utility.yul\":3709:3723   */\n      add\n        /* \"#utility.yul\":3695:3707   */\n      dup3\n        /* \"#utility.yul\":3661:3724   */\n      tag_194\n      jump\t// in\n    tag_198:\n        /* \"#utility.yul\":3559:3734   */\n      pop\n        /* \"#utility.yul\":3827:3831   */\n      0xc0\n        /* \"#utility.yul\":3820:3825   */\n      dup4\n        /* \"#utility.yul\":3816:3832   */\n      add\n        /* \"#utility.yul\":3810:3833   */\n      mload\n        /* \"#utility.yul\":3846:3909   */\n      tag_199\n        /* \"#utility.yul\":3903:3907   */\n      0xc0\n        /* \"#utility.yul\":3898:3901   */\n      dup7\n        /* \"#utility.yul\":3894:3908   */\n      add\n        /* \"#utility.yul\":3880:3892   */\n      dup3\n        /* \"#utility.yul\":3846:3909   */\n      tag_194\n      jump\t// in\n    tag_199:\n        /* \"#utility.yul\":3744:3919   */\n      pop\n        /* \"#utility.yul\":4012:4016   */\n      0xe0\n        /* \"#utility.yul\":4005:4010   */\n      dup4\n        /* \"#utility.yul\":4001:4017   */\n      add\n        /* \"#utility.yul\":3995:4018   */\n      mload\n        /* \"#utility.yul\":4031:4094   */\n      tag_200\n        /* \"#utility.yul\":4088:4092   */\n      0xe0\n        /* \"#utility.yul\":4083:4086   */\n      dup7\n        /* \"#utility.yul\":4079:4093   */\n      add\n        /* \"#utility.yul\":4065:4077   */\n      dup3\n        /* \"#utility.yul\":4031:4094   */\n      tag_194\n      jump\t// in\n    tag_200:\n        /* \"#utility.yul\":3929:4104   */\n      pop\n        /* \"#utility.yul\":4197:4203   */\n      0x0100\n        /* \"#utility.yul\":4190:4195   */\n      dup4\n        /* \"#utility.yul\":4186:4204   */\n      add\n        /* \"#utility.yul\":4180:4205   */\n      mload\n        /* \"#utility.yul\":4218:4283   */\n      tag_201\n        /* \"#utility.yul\":4275:4281   */\n      0x0100\n        /* \"#utility.yul\":4270:4273   */\n      dup7\n        /* \"#utility.yul\":4266:4282   */\n      add\n        /* \"#utility.yul\":4252:4264   */\n      dup3\n        /* \"#utility.yul\":4218:4283   */\n      tag_194\n      jump\t// in\n    tag_201:\n        /* \"#utility.yul\":4114:4293   */\n      pop\n        /* \"#utility.yul\":4386:4392   */\n      0x0120\n        /* \"#utility.yul\":4379:4384   */\n      dup4\n        /* \"#utility.yul\":4375:4393   */\n      add\n        /* \"#utility.yul\":4369:4394   */\n      mload\n        /* \"#utility.yul\":4407:4472   */\n      tag_202\n        /* \"#utility.yul\":4464:4470   */\n      0x0120\n        /* \"#utility.yul\":4459:4462   */\n      dup7\n        /* \"#utility.yul\":4455:4471   */\n      add\n        /* \"#utility.yul\":4441:4453   */\n      dup3\n        /* \"#utility.yul\":4407:4472   */\n      tag_194\n      jump\t// in\n    tag_202:\n        /* \"#utility.yul\":4303:4482   */\n      pop\n        /* \"#utility.yul\":4575:4581   */\n      0x0140\n        /* \"#utility.yul\":4568:4573   */\n      dup4\n        /* \"#utility.yul\":4564:4582   */\n      add\n        /* \"#utility.yul\":4558:4583   */\n      mload\n        /* \"#utility.yul\":4596:4661   */\n      tag_203\n        /* \"#utility.yul\":4653:4659   */\n      0x0140\n        /* \"#utility.yul\":4648:4651   */\n      dup7\n        /* \"#utility.yul\":4644:4660   */\n      add\n        /* \"#utility.yul\":4630:4642   */\n      dup3\n        /* \"#utility.yul\":4596:4661   */\n      tag_194\n      jump\t// in\n    tag_203:\n        /* \"#utility.yul\":4492:4671   */\n      pop\n        /* \"#utility.yul\":4764:4770   */\n      0x0160\n        /* \"#utility.yul\":4757:4762   */\n      dup4\n        /* \"#utility.yul\":4753:4771   */\n      add\n        /* \"#utility.yul\":4747:4772   */\n      mload\n        /* \"#utility.yul\":4785:4850   */\n      tag_204\n        /* \"#utility.yul\":4842:4848   */\n      0x0160\n        /* \"#utility.yul\":4837:4840   */\n      dup7\n        /* \"#utility.yul\":4833:4849   */\n      add\n        /* \"#utility.yul\":4819:4831   */\n      dup3\n        /* \"#utility.yul\":4785:4850   */\n      tag_194\n      jump\t// in\n    tag_204:\n        /* \"#utility.yul\":4681:4860   */\n      pop\n        /* \"#utility.yul\":4877:4881   */\n      dup1\n        /* \"#utility.yul\":4870:4881   */\n      swap2\n      pop\n        /* \"#utility.yul\":2530:4887   */\n      pop\n        /* \"#utility.yul\":2408:4887   */\n      swap3\n      swap2\n      pop\n      pop\n      jump\t// out\n        /* \"#utility.yul\":4893:5001   */\n    tag_194:\n        /* \"#utility.yul\":4970:4994   */\n      tag_206\n        /* \"#utility.yul\":4988:4993   */\n      dup2\n        /* \"#utility.yul\":4970:4994   */\n      tag_207\n      jump\t// in\n    tag_206:\n        /* \"#utility.yul\":4965:4968   */\n      dup3\n        /* \"#utility.yul\":4958:4995   */\n      mstore\n        /* \"#utility.yul\":4893:5001   */\n      pop\n      pop\n      jump\t// out\n        /* \"#utility.yul\":5007:5125   */\n    tag_208:\n        /* \"#utility.yul\":5094:5118   */\n      tag_210\n        /* \"#utility.yul\":5112:5117   */\n      dup2\n        /* \"#utility.yul\":5094:5118   */\n      tag_207\n      jump\t// in\n    tag_210:\n        /* \"#utility.yul\":5089:5092   */\n      dup3\n        /* \"#utility.yul\":5082:5119   */\n      mstore\n        /* \"#utility.yul\":5007:5125   */\n      pop\n      pop\n      jump\t// out\n        /* \"#utility.yul\":5131:5288   */\n    tag_211:\n        /* \"#utility.yul\":5236:5281   */\n      tag_213\n        /* \"#utility.yul\":5256:5280   */\n      tag_214\n        /* \"#utility.yul\":5274:5279   */\n      dup3\n        /* \"#utility.yul\":5256:5280   */\n      tag_207\n      jump\t// in\n    tag_214:\n        /* \"#utility.yul\":5236:5281   */\n      tag_215\n      jump\t// in\n    tag_213:\n        /* \"#utility.yul\":5231:5234   */\n      dup3\n        /* \"#utility.yul\":5224:5282   */\n      mstore\n        /* \"#utility.yul\":5131:5288   */\n      pop\n      pop\n      jump\t// out\n        /* \"#utility.yul\":5294:5832   */\n    tag_131:\n        /* \"#utility.yul\":5462:5465   */\n      0x00\n        /* \"#utility.yul\":5477:5552   */\n      tag_217\n        /* \"#utility.yul\":5548:5551   */\n      dup3\n        /* \"#utility.yul\":5539:5545   */\n      dup7\n        /* \"#utility.yul\":5477:5552   */\n      tag_211\n      jump\t// in\n    tag_217:\n        /* \"#utility.yul\":5577:5579   */\n      0x20\n        /* \"#utility.yul\":5572:5575   */\n      dup3\n        /* \"#utility.yul\":5568:5580   */\n      add\n        /* \"#utility.yul\":5561:5580   */\n      swap2\n      pop\n        /* \"#utility.yul\":5590:5665   */\n      tag_218\n        /* \"#utility.yul\":5661:5664   */\n      dup3\n        /* \"#utility.yul\":5652:5658   */\n      dup6\n        /* \"#utility.yul\":5590:5665   */\n      tag_211\n      jump\t// in\n    tag_218:\n        /* \"#utility.yul\":5690:5692   */\n      0x20\n        /* \"#utility.yul\":5685:5688   */\n      dup3\n        /* \"#utility.yul\":5681:5693   */\n      add\n        /* \"#utility.yul\":5674:5693   */\n      swap2\n      pop\n        /* \"#utility.yul\":5703:5778   */\n      tag_219\n        /* \"#utility.yul\":5774:5777   */\n      dup3\n        /* \"#utility.yul\":5765:5771   */\n      dup5\n        /* \"#utility.yul\":5703:5778   */\n      tag_150\n      jump\t// in\n    tag_219:\n        /* \"#utility.yul\":5803:5805   */\n      0x14\n        /* \"#utility.yul\":5798:5801   */\n      dup3\n        /* \"#utility.yul\":5794:5806   */\n      add\n        /* \"#utility.yul\":5787:5806   */\n      swap2\n      pop\n        /* \"#utility.yul\":5823:5826   */\n      dup2\n        /* \"#utility.yul\":5816:5826   */\n      swap1\n      pop\n        /* \"#utility.yul\":5294:5832   */\n      swap5\n      swap4\n      pop\n      pop\n      pop\n      pop\n      jump\t// out\n        /* \"#utility.yul\":5838:6056   */\n    tag_18:\n        /* \"#utility.yul\":5929:5933   */\n      0x00\n        /* \"#utility.yul\":5967:5969   */\n      0x20\n        /* \"#utility.yul\":5956:5965   */\n      dup3\n        /* \"#utility.yul\":5952:5970   */\n      add\n        /* \"#utility.yul\":5944:5970   */\n      swap1\n      pop\n        /* \"#utility.yul\":5980:6049   */\n      tag_221\n        /* \"#utility.yul\":6046:6047   */\n      0x00\n        /* \"#utility.yul\":6035:6044   */\n      dup4\n        /* \"#utility.yul\":6031:6048   */\n      add\n        /* \"#utility.yul\":6022:6028   */\n      dup5\n        /* \"#utility.yul\":5980:6049   */\n      tag_160\n      jump\t// in\n    tag_221:\n        /* \"#utility.yul\":5838:6056   */\n      swap3\n      swap2\n      pop\n      pop\n      jump\t// out\n        /* \"#utility.yul\":6062:6481   */\n    tag_35:\n        /* \"#utility.yul\":6228:6232   */\n      0x00\n        /* \"#utility.yul\":6266:6268   */\n      0x20\n        /* \"#utility.yul\":6255:6264   */\n      dup3\n        /* \"#utility.yul\":6251:6269   */\n      add\n        /* \"#utility.yul\":6243:6269   */\n      swap1\n      pop\n        /* \"#utility.yul\":6315:6324   */\n      dup2\n        /* \"#utility.yul\":6309:6313   */\n      dup2\n        /* \"#utility.yul\":6305:6325   */\n      sub\n        /* \"#utility.yul\":6301:6302   */\n      0x00\n        /* \"#utility.yul\":6290:6299   */\n      dup4\n        /* \"#utility.yul\":6286:6303   */\n      add\n        /* \"#utility.yul\":6279:6326   */\n      mstore\n        /* \"#utility.yul\":6343:6474   */\n      tag_223\n        /* \"#utility.yul\":6469:6473   */\n      dup2\n        /* \"#utility.yul\":6343:6474   */\n      tag_174\n      jump\t// in\n    tag_223:\n        /* \"#utility.yul\":6335:6474   */\n      swap1\n      pop\n        /* \"#utility.yul\":6062:6481   */\n      swap2\n      swap1\n      pop\n      jump\t// out\n        /* \"#utility.yul\":6487:6906   */\n    tag_27:\n        /* \"#utility.yul\":6653:6657   */\n      0x00\n        /* \"#utility.yul\":6691:6693   */\n      0x20\n        /* \"#utility.yul\":6680:6689   */\n      dup3\n        /* \"#utility.yul\":6676:6694   */\n      add\n        /* \"#utility.yul\":6668:6694   */\n      swap1\n      pop\n        /* \"#utility.yul\":6740:6749   */\n      dup2\n        /* \"#utility.yul\":6734:6738   */\n      dup2\n        /* \"#utility.yul\":6730:6750   */\n      sub\n        /* \"#utility.yul\":6726:6727   */\n      0x00\n        /* \"#utility.yul\":6715:6724   */\n      dup4\n        /* \"#utility.yul\":6711:6728   */\n      add\n        /* \"#utility.yul\":6704:6751   */\n      mstore\n        /* \"#utility.yul\":6768:6899   */\n      tag_225\n        /* \"#utility.yul\":6894:6898   */\n      dup2\n        /* \"#utility.yul\":6768:6899   */\n      tag_180\n      jump\t// in\n    tag_225:\n        /* \"#utility.yul\":6760:6899   */\n      swap1\n      pop\n        /* \"#utility.yul\":6487:6906   */\n      swap2\n      swap1\n      pop\n      jump\t// out\n        /* \"#utility.yul\":6912:7331   */\n    tag_30:\n        /* \"#utility.yul\":7078:7082   */\n      0x00\n        /* \"#utility.yul\":7116:7118   */\n      0x20\n        /* \"#utility.yul\":7105:7114   */\n      dup3\n        /* \"#utility.yul\":7101:7119   */\n      add\n        /* \"#utility.yul\":7093:7119   */\n      swap1\n      pop\n        /* \"#utility.yul\":7165:7174   */\n      dup2\n        /* \"#utility.yul\":7159:7163   */\n      dup2\n        /* \"#utility.yul\":7155:7175   */\n      sub\n        /* \"#utility.yul\":7151:7152   */\n      0x00\n        /* \"#utility.yul\":7140:7149   */\n      dup4\n        /* \"#utility.yul\":7136:7153   */\n      add\n        /* \"#utility.yul\":7129:7176   */\n      mstore\n        /* \"#utility.yul\":7193:7324   */\n      tag_227\n        /* \"#utility.yul\":7319:7323   */\n      dup2\n        /* \"#utility.yul\":7193:7324   */\n      tag_185\n      jump\t// in\n    tag_227:\n        /* \"#utility.yul\":7185:7324   */\n      swap1\n      pop\n        /* \"#utility.yul\":6912:7331   */\n      swap2\n      swap1\n      pop\n      jump\t// out\n        /* \"#utility.yul\":7337:7706   */\n    tag_23:\n        /* \"#utility.yul\":7478:7482   */\n      0x00\n        /* \"#utility.yul\":7516:7518   */\n      0x20\n        /* \"#utility.yul\":7505:7514   */\n      dup3\n        /* \"#utility.yul\":7501:7519   */\n      add\n        /* \"#utility.yul\":7493:7519   */\n      swap1\n      pop\n        /* \"#utility.yul\":7565:7574   */\n      dup2\n        /* \"#utility.yul\":7559:7563   */\n      dup2\n        /* \"#utility.yul\":7555:7575   */\n      sub\n        /* \"#utility.yul\":7551:7552   */\n      0x00\n        /* \"#utility.yul\":7540:7549   */\n      dup4\n        /* \"#utility.yul\":7536:7553   */\n      add\n        /* \"#utility.yul\":7529:7576   */\n      mstore\n        /* \"#utility.yul\":7593:7699   */\n      tag_229\n        /* \"#utility.yul\":7694:7698   */\n      dup2\n        /* \"#utility.yul\":7685:7691   */\n      dup5\n        /* \"#utility.yul\":7593:7699   */\n      tag_190\n      jump\t// in\n    tag_229:\n        /* \"#utility.yul\":7585:7699   */\n      swap1\n      pop\n        /* \"#utility.yul\":7337:7706   */\n      swap3\n      swap2\n      pop\n      pop\n      jump\t// out\n        /* \"#utility.yul\":7712:8253   */\n    tag_14:\n        /* \"#utility.yul\":7883:7887   */\n      0x00\n        /* \"#utility.yul\":7921:7924   */\n      0x80\n        /* \"#utility.yul\":7910:7919   */\n      dup3\n        /* \"#utility.yul\":7906:7925   */\n      add\n        /* \"#utility.yul\":7898:7925   */\n      swap1\n      pop\n        /* \"#utility.yul\":7935:8006   */\n      tag_231\n        /* \"#utility.yul\":8003:8004   */\n      0x00\n        /* \"#utility.yul\":7992:8001   */\n      dup4\n        /* \"#utility.yul\":7988:8005   */\n      add\n        /* \"#utility.yul\":7979:7985   */\n      dup8\n        /* \"#utility.yul\":7935:8006   */\n      tag_208\n      jump\t// in\n    tag_231:\n        /* \"#utility.yul\":8016:8082   */\n      tag_232\n        /* \"#utility.yul\":8078:8080   */\n      0x20\n        /* \"#utility.yul\":8067:8076   */\n      dup4\n        /* \"#utility.yul\":8063:8081   */\n      add\n        /* \"#utility.yul\":8054:8060   */\n      dup7\n        /* \"#utility.yul\":8016:8082   */\n      tag_156\n      jump\t// in\n    tag_232:\n        /* \"#utility.yul\":8092:8164   */\n      tag_233\n        /* \"#utility.yul\":8160:8162   */\n      0x40\n        /* \"#utility.yul\":8149:8158   */\n      dup4\n        /* \"#utility.yul\":8145:8163   */\n      add\n        /* \"#utility.yul\":8136:8142   */\n      dup6\n        /* \"#utility.yul\":8092:8164   */\n      tag_208\n      jump\t// in\n    tag_233:\n        /* \"#utility.yul\":8174:8246   */\n      tag_234\n        /* \"#utility.yul\":8242:8244   */\n      0x60\n        /* \"#utility.yul\":8231:8240   */\n      dup4\n        /* \"#utility.yul\":8227:8245   */\n      add\n        /* \"#utility.yul\":8218:8224   */\n      dup5\n        /* \"#utility.yul\":8174:8246   */\n      tag_208\n      jump\t// in\n    tag_234:\n        /* \"#utility.yul\":7712:8253   */\n      swap6\n      swap5\n      pop\n      pop\n      pop\n      pop\n      pop\n      jump\t// out\n        /* \"#utility.yul\":8340:8439   */\n    tag_167:\n        /* \"#utility.yul\":8392:8398   */\n      0x00\n        /* \"#utility.yul\":8426:8431   */\n      dup2\n        /* \"#utility.yul\":8420:8432   */\n      mload\n        /* \"#utility.yul\":8410:8432   */\n      swap1\n      pop\n        /* \"#utility.yul\":8340:8439   */\n      swap2\n      swap1\n      pop\n      jump\t// out\n        /* \"#utility.yul\":8445:8604   */\n    tag_169:\n        /* \"#utility.yul\":8519:8530   */\n      0x00\n        /* \"#utility.yul\":8553:8559   */\n      dup3\n        /* \"#utility.yul\":8548:8551   */\n      dup3\n        /* \"#utility.yul\":8541:8560   */\n      mstore\n        /* \"#utility.yul\":8593:8597   */\n      0x20\n        /* \"#utility.yul\":8588:8591   */\n      dup3\n        /* \"#utility.yul\":8584:8598   */\n      add\n        /* \"#utility.yul\":8569:8598   */\n      swap1\n      pop\n        /* \"#utility.yul\":8445:8604   */\n      swap3\n      swap2\n      pop\n      pop\n      jump\t// out\n        /* \"#utility.yul\":8610:8779   */\n    tag_177:\n        /* \"#utility.yul\":8694:8705   */\n      0x00\n        /* \"#utility.yul\":8728:8734   */\n      dup3\n        /* \"#utility.yul\":8723:8726   */\n      dup3\n        /* \"#utility.yul\":8716:8735   */\n      mstore\n        /* \"#utility.yul\":8768:8772   */\n      0x20\n        /* \"#utility.yul\":8763:8766   */\n      dup3\n        /* \"#utility.yul\":8759:8773   */\n      add\n        /* \"#utility.yul\":8744:8773   */\n      swap1\n      pop\n        /* \"#utility.yul\":8610:8779   */\n      swap3\n      swap2\n      pop\n      pop\n      jump\t// out\n        /* \"#utility.yul\":8785:9310   */\n    tag_139:\n        /* \"#utility.yul\":8824:8827   */\n      0x00\n        /* \"#utility.yul\":8843:8862   */\n      tag_241\n        /* \"#utility.yul\":8860:8861   */\n      dup3\n        /* \"#utility.yul\":8843:8862   */\n      tag_163\n      jump\t// in\n    tag_241:\n        /* \"#utility.yul\":8838:8862   */\n      swap2\n      pop\n        /* \"#utility.yul\":8876:8895   */\n      tag_242\n        /* \"#utility.yul\":8893:8894   */\n      dup4\n        /* \"#utility.yul\":8876:8895   */\n      tag_163\n      jump\t// in\n    tag_242:\n        /* \"#utility.yul\":8871:8895   */\n      swap3\n      pop\n        /* \"#utility.yul\":9064:9065   */\n      dup2\n        /* \"#utility.yul\":8996:9062   */\n      0x7fffffffffffffffffffffffffffffffffffffffffffffffffffffffffffffff\n        /* \"#utility.yul\":8992:9066   */\n      sub\n        /* \"#utility.yul\":8989:8990   */\n      dup4\n        /* \"#utility.yul\":8985:9067   */\n      sgt\n        /* \"#utility.yul\":8980:8981   */\n      0x00\n        /* \"#utility.yul\":8977:8978   */\n      dup4\n        /* \"#utility.yul\":8973:8982   */\n      slt\n        /* \"#utility.yul\":8966:8983   */\n      iszero\n        /* \"#utility.yul\":8962:9068   */\n      and\n        /* \"#utility.yul\":8959:9091   */\n      iszero\n      tag_243\n      jumpi\n        /* \"#utility.yul\":9071:9089   */\n      tag_244\n      tag_245\n      jump\t// in\n    tag_244:\n        /* \"#utility.yul\":8959:9091   */\n    tag_243:\n        /* \"#utility.yul\":9251:9252   */\n      dup2\n        /* \"#utility.yul\":9183:9249   */\n      0x8000000000000000000000000000000000000000000000000000000000000000\n        /* \"#utility.yul\":9179:9253   */\n      sub\n        /* \"#utility.yul\":9176:9177   */\n      dup4\n        /* \"#utility.yul\":9172:9254   */\n      slt\n        /* \"#utility.yul\":9168:9169   */\n      0x00\n        /* \"#utility.yul\":9165:9166   */\n      dup4\n        /* \"#utility.yul\":9161:9170   */\n      slt\n        /* \"#utility.yul\":9157:9255   */\n      and\n        /* \"#utility.yul\":9154:9278   */\n      iszero\n      tag_246\n      jumpi\n        /* \"#utility.yul\":9258:9276   */\n      tag_247\n      tag_245\n      jump\t// in\n    tag_247:\n        /* \"#utility.yul\":9154:9278   */\n    tag_246:\n        /* \"#utility.yul\":9302:9303   */\n      dup3\n        /* \"#utility.yul\":9299:9300   */\n      dup3\n        /* \"#utility.yul\":9295:9304   */\n      add\n        /* \"#utility.yul\":9288:9304   */\n      swap1\n      pop\n        /* \"#utility.yul\":8785:9310   */\n      swap3\n      swap2\n      pop\n      pop\n      jump\t// out\n        /* \"#utility.yul\":9316:9621   */\n    tag_46:\n        /* \"#utility.yul\":9356:9359   */\n      0x00\n        /* \"#utility.yul\":9375:9395   */\n      tag_249\n        /* \"#utility.yul\":9393:9394   */\n      dup3\n        /* \"#utility.yul\":9375:9395   */\n      tag_207\n      jump\t// in\n    tag_249:\n        /* \"#utility.yul\":9370:9395   */\n      swap2\n      pop\n        /* \"#utility.yul\":9409:9429   */\n      tag_250\n        /* \"#utility.yul\":9427:9428   */\n      dup4\n        /* \"#utility.yul\":9409:9429   */\n      tag_207\n      jump\t// in\n    tag_250:\n        /* \"#utility.yul\":9404:9429   */\n      swap3\n      pop\n        /* \"#utility.yul\":9563:9564   */\n      dup3\n        /* \"#utility.yul\":9495:9561   */\n      0xffffffffffffffffffffffffffffffffffffffffffffffffffffffffffffffff\n        /* \"#utility.yul\":9491:9565   */\n      sub\n        /* \"#utility.yul\":9488:9489   */\n      dup3\n        /* \"#utility.yul\":9485:9566   */\n      gt\n        /* \"#utility.yul\":9482:9589   */\n      iszero\n      tag_251\n      jumpi\n        /* \"#utility.yul\":9569:9587   */\n      tag_252\n      tag_245\n      jump\t// in\n    tag_252:\n        /* \"#utility.yul\":9482:9589   */\n    tag_251:\n        /* \"#utility.yul\":9613:9614   */\n      dup3\n        /* \"#utility.yul\":9610:9611   */\n      dup3\n        /* \"#utility.yul\":9606:9615   */\n      add\n        /* \"#utility.yul\":9599:9615   */\n      swap1\n      pop\n        /* \"#utility.yul\":9316:9621   */\n      swap3\n      swap2\n      pop\n      pop\n      jump\t// out\n        /* \"#utility.yul\":9627:9723   */\n    tag_154:\n        /* \"#utility.yul\":9664:9671   */\n      0x00\n        /* \"#utility.yul\":9693:9717   */\n      tag_254\n        /* \"#utility.yul\":9711:9716   */\n      dup3\n        /* \"#utility.yul\":9693:9717   */\n      tag_255\n      jump\t// in\n    tag_254:\n        /* \"#utility.yul\":9682:9717   */\n      swap1\n      pop\n        /* \"#utility.yul\":9627:9723   */\n      swap2\n      swap1\n      pop\n      jump\t// out\n        /* \"#utility.yul\":9729:9819   */\n    tag_159:\n        /* \"#utility.yul\":9763:9770   */\n      0x00\n        /* \"#utility.yul\":9806:9811   */\n      dup2\n        /* \"#utility.yul\":9799:9812   */\n      iszero\n        /* \"#utility.yul\":9792:9813   */\n      iszero\n        /* \"#utility.yul\":9781:9813   */\n      swap1\n      pop\n        /* \"#utility.yul\":9729:9819   */\n      swap2\n      swap1\n      pop\n      jump\t// out\n        /* \"#utility.yul\":9825:9901   */\n    tag_163:\n        /* \"#utility.yul\":9861:9868   */\n      0x00\n        /* \"#utility.yul\":9890:9895   */\n      dup2\n        /* \"#utility.yul\":9879:9895   */\n      swap1\n      pop\n        /* \"#utility.yul\":9825:9901   */\n      swap2\n      swap1\n      pop\n      jump\t// out\n        /* \"#utility.yul\":9907:10033   */\n    tag_255:\n        /* \"#utility.yul\":9944:9951   */\n      0x00\n        /* \"#utility.yul\":9984:10026   */\n      0xffffffffffffffffffffffffffffffffffffffff\n        /* \"#utility.yul\":9977:9982   */\n      dup3\n        /* \"#utility.yul\":9973:10027   */\n      and\n        /* \"#utility.yul\":9962:10027   */\n      swap1\n      pop\n        /* \"#utility.yul\":9907:10033   */\n      swap2\n      swap1\n      pop\n      jump\t// out\n        /* \"#utility.yul\":10039:10116   */\n    tag_207:\n        /* \"#utility.yul\":10076:10083   */\n      0x00\n        /* \"#utility.yul\":10105:10110   */\n      dup2\n        /* \"#utility.yul\":10094:10110   */\n      swap1\n      pop\n        /* \"#utility.yul\":10039:10116   */\n      swap2\n      swap1\n      pop\n      jump\t// out\n        /* \"#utility.yul\":10122:10429   */\n    tag_171:\n        /* \"#utility.yul\":10190:10191   */\n      0x00\n        /* \"#utility.yul\":10200:10313   */\n    tag_261:\n        /* \"#utility.yul\":10214:10220   */\n      dup4\n        /* \"#utility.yul\":10211:10212   */\n      dup2\n        /* \"#utility.yul\":10208:10221   */\n      lt\n        /* \"#utility.yul\":10200:10313   */\n      iszero\n      tag_263\n      jumpi\n        /* \"#utility.yul\":10299:10300   */\n      dup1\n        /* \"#utility.yul\":10294:10297   */\n      dup3\n        /* \"#utility.yul\":10290:10301   */\n      add\n        /* \"#utility.yul\":10284:10302   */\n      mload\n        /* \"#utility.yul\":10280:10281   */\n      dup2\n        /* \"#utility.yul\":10275:10278   */\n      dup5\n        /* \"#utility.yul\":10271:10282   */\n      add\n        /* \"#utility.yul\":10264:10303   */\n      mstore\n        /* \"#utility.yul\":10236:10238   */\n      0x20\n        /* \"#utility.yul\":10233:10234   */\n      dup2\n        /* \"#utility.yul\":10229:10239   */\n      add\n        /* \"#utility.yul\":10224:10239   */\n      swap1\n      pop\n        /* \"#utility.yul\":10200:10313   */\n      jump(tag_261)\n    tag_263:\n        /* \"#utility.yul\":10331:10337   */\n      dup4\n        /* \"#utility.yul\":10328:10329   */\n      dup2\n        /* \"#utility.yul\":10325:10338   */\n      gt\n        /* \"#utility.yul\":10322:10423   */\n      iszero\n      tag_264\n      jumpi\n        /* \"#utility.yul\":10411:10412   */\n      0x00\n        /* \"#utility.yul\":10402:10408   */\n      dup5\n        /* \"#utility.yul\":10397:10400   */\n      dup5\n        /* \"#utility.yul\":10393:10409   */\n      add\n        /* \"#utility.yul\":10386:10413   */\n      mstore\n        /* \"#utility.yul\":10322:10423   */\n    tag_264:\n        /* \"#utility.yul\":10171:10429   */\n      pop\n        /* \"#utility.yul\":10122:10429   */\n      pop\n      pop\n      pop\n      jump\t// out\n        /* \"#utility.yul\":10435:10755   */\n    tag_124:\n        /* \"#utility.yul\":10479:10485   */\n      0x00\n        /* \"#utility.yul\":10516:10517   */\n      0x02\n        /* \"#utility.yul\":10510:10514   */\n      dup3\n        /* \"#utility.yul\":10506:10518   */\n      div\n        /* \"#utility.yul\":10496:10518   */\n      swap1\n      pop\n        /* \"#utility.yul\":10563:10564   */\n      0x01\n        /* \"#utility.yul\":10557:10561   */\n      dup3\n        /* \"#utility.yul\":10553:10565   */\n      and\n        /* \"#utility.yul\":10584:10602   */\n      dup1\n        /* \"#utility.yul\":10574:10655   */\n      tag_266\n      jumpi\n        /* \"#utility.yul\":10640:10644   */\n      0x7f\n        /* \"#utility.yul\":10632:10638   */\n      dup3\n        /* \"#utility.yul\":10628:10645   */\n      and\n        /* \"#utility.yul\":10618:10645   */\n      swap2\n      pop\n        /* \"#utility.yul\":10574:10655   */\n    tag_266:\n        /* \"#utility.yul\":10702:10704   */\n      0x20\n        /* \"#utility.yul\":10694:10700   */\n      dup3\n        /* \"#utility.yul\":10691:10705   */\n      lt\n        /* \"#utility.yul\":10671:10689   */\n      dup2\n        /* \"#utility.yul\":10668:10706   */\n      eq\n        /* \"#utility.yul\":10665:10749   */\n      iszero\n      tag_267\n      jumpi\n        /* \"#utility.yul\":10721:10739   */\n      tag_268\n      tag_269\n      jump\t// in\n    tag_268:\n        /* \"#utility.yul\":10665:10749   */\n    tag_267:\n        /* \"#utility.yul\":10486:10755   */\n      pop\n        /* \"#utility.yul\":10435:10755   */\n      swap2\n      swap1\n      pop\n      jump\t// out\n        /* \"#utility.yul\":10761:10861   */\n    tag_155:\n        /* \"#utility.yul\":10800:10807   */\n      0x00\n        /* \"#utility.yul\":10829:10855   */\n      tag_271\n        /* \"#utility.yul\":10849:10854   */\n      dup3\n        /* \"#utility.yul\":10829:10855   */\n      tag_272\n      jump\t// in\n    tag_271:\n        /* \"#utility.yul\":10818:10855   */\n      swap1\n      pop\n        /* \"#utility.yul\":10761:10861   */\n      swap2\n      swap1\n      pop\n      jump\t// out\n        /* \"#utility.yul\":10867:10961   */\n    tag_272:\n        /* \"#utility.yul\":10906:10913   */\n      0x00\n        /* \"#utility.yul\":10935:10955   */\n      tag_274\n        /* \"#utility.yul\":10949:10954   */\n      dup3\n        /* \"#utility.yul\":10935:10955   */\n      tag_275\n      jump\t// in\n    tag_274:\n        /* \"#utility.yul\":10924:10955   */\n      swap1\n      pop\n        /* \"#utility.yul\":10867:10961   */\n      swap2\n      swap1\n      pop\n      jump\t// out\n        /* \"#utility.yul\":10967:11046   */\n    tag_215:\n        /* \"#utility.yul\":11006:11013   */\n      0x00\n        /* \"#utility.yul\":11035:11040   */\n      dup2\n        /* \"#utility.yul\":11024:11040   */\n      swap1\n      pop\n        /* \"#utility.yul\":10967:11046   */\n      swap2\n      swap1\n      pop\n      jump\t// out\n        /* \"#utility.yul\":11052:11228   */\n    tag_133:\n        /* \"#utility.yul\":11084:11085   */\n      0x00\n        /* \"#utility.yul\":11101:11121   */\n      tag_278\n        /* \"#utility.yul\":11119:11120   */\n      dup3\n        /* \"#utility.yul\":11101:11121   */\n      tag_207\n      jump\t// in\n    tag_278:\n        /* \"#utility.yul\":11096:11121   */\n      swap2\n      pop\n        /* \"#utility.yul\":11135:11155   */\n      tag_279\n        /* \"#utility.yul\":11153:11154   */\n      dup4\n        /* \"#utility.yul\":11135:11155   */\n      tag_207\n      jump\t// in\n    tag_279:\n        /* \"#utility.yul\":11130:11155   */\n      swap3\n      pop\n        /* \"#utility.yul\":11174:11175   */\n      dup3\n        /* \"#utility.yul\":11164:11199   */\n      tag_280\n      jumpi\n        /* \"#utility.yul\":11179:11197   */\n      tag_281\n      tag_282\n      jump\t// in\n    tag_281:\n        /* \"#utility.yul\":11164:11199   */\n    tag_280:\n        /* \"#utility.yul\":11220:11221   */\n      dup3\n        /* \"#utility.yul\":11217:11218   */\n      dup3\n        /* \"#utility.yul\":11213:11222   */\n      mod\n        /* \"#utility.yul\":11208:11222   */\n      swap1\n      pop\n        /* \"#utility.yul\":11052:11228   */\n      swap3\n      swap2\n      pop\n      pop\n      jump\t// out\n        /* \"#utility.yul\":11234:11414   */\n    tag_245:\n        /* \"#utility.yul\":11282:11359   */\n      0x4e487b7100000000000000000000000000000000000000000000000000000000\n        /* \"#utility.yul\":11279:11280   */\n      0x00\n        /* \"#utility.yul\":11272:11360   */\n      mstore\n        /* \"#utility.yul\":11379:11383   */\n      0x11\n        /* \"#utility.yul\":11376:11377   */\n      0x04\n        /* \"#utility.yul\":11369:11384   */\n      mstore\n        /* \"#utility.yul\":11403:11407   */\n      0x24\n        /* \"#utility.yul\":11400:11401   */\n      0x00\n        /* \"#utility.yul\":11393:11408   */\n      revert\n        /* \"#utility.yul\":11420:11600   */\n    tag_282:\n        /* \"#utility.yul\":11468:11545   */\n      0x4e487b7100000000000000000000000000000000000000000000000000000000\n        /* \"#utility.yul\":11465:11466   */\n      0x00\n        /* \"#utility.yul\":11458:11546   */\n      mstore\n        /* \"#utility.yul\":11565:11569   */\n      0x12\n        /* \"#utility.yul\":11562:11563   */\n      0x04\n        /* \"#utility.yul\":11555:11570   */\n      mstore\n        /* \"#utility.yul\":11589:11593   */\n      0x24\n        /* \"#utility.yul\":11586:11587   */\n      0x00\n        /* \"#utility.yul\":11579:11594   */\n      revert\n        /* \"#utility.yul\":11606:11786   */\n    tag_269:\n        /* \"#utility.yul\":11654:11731   */\n      0x4e487b7100000000000000000000000000000000000000000000000000000000\n        /* \"#utility.yul\":11651:11652   */\n      0x00\n        /* \"#utility.yul\":11644:11732   */\n      mstore\n        /* \"#utility.yul\":11751:11755   */\n      0x22\n        /* \"#utility.yul\":11748:11749   */\n      0x04\n        /* \"#utility.yul\":11741:11756   */\n      mstore\n        /* \"#utility.yul\":11775:11779   */\n      0x24\n        /* \"#utility.yul\":11772:11773   */\n      0x00\n        /* \"#utility.yul\":11765:11780   */\n      revert\n        /* \"#utility.yul\":11792:11972   */\n    tag_43:\n        /* \"#utility.yul\":11840:11917   */\n      0x4e487b7100000000000000000000000000000000000000000000000000000000\n        /* \"#utility.yul\":11837:11838   */\n      0x00\n        /* \"#utility.yul\":11830:11918   */\n      mstore\n        /* \"#utility.yul\":11937:11941   */\n      0x32\n        /* \"#utility.yul\":11934:11935   */\n      0x04\n        /* \"#utility.yul\":11927:11942   */\n      mstore\n        /* \"#utility.yul\":11961:11965   */\n      0x24\n        /* \"#utility.yul\":11958:11959   */\n      0x00\n        /* \"#utility.yul\":11951:11966   */\n      revert\n        /* \"#utility.yul\":12101:12218   */\n    tag_148:\n        /* \"#utility.yul\":12210:12211   */\n      0x00\n        /* \"#utility.yul\":12207:12208   */\n      dup1\n        /* \"#utility.yul\":12200:12212   */\n      revert\n        /* \"#utility.yul\":12224:12326   */\n    tag_173:\n        /* \"#utility.yul\":12265:12271   */\n      0x00\n        /* \"#utility.yul\":12316:12318   */\n      0x1f\n        /* \"#utility.yul\":12312:12319   */\n      not\n        /* \"#utility.yul\":12307:12309   */\n      0x1f\n        /* \"#utility.yul\":12300:12305   */\n      dup4\n        /* \"#utility.yul\":12296:12310   */\n      add\n        /* \"#utility.yul\":12292:12320   */\n      and\n        /* \"#utility.yul\":12282:12320   */\n      swap1\n      pop\n        /* \"#utility.yul\":12224:12326   */\n      swap2\n      swap1\n      pop\n      jump\t// out\n        /* \"#utility.yul\":12332:12426   */\n    tag_275:\n        /* \"#utility.yul\":12365:12373   */\n      0x00\n        /* \"#utility.yul\":12413:12418   */\n      dup2\n        /* \"#utility.yul\":12409:12411   */\n      0x60\n        /* \"#utility.yul\":12405:12419   */\n      shl\n        /* \"#utility.yul\":12384:12419   */\n      swap1\n      pop\n        /* \"#utility.yul\":12332:12426   */\n      swap2\n      swap1\n      pop\n      jump\t// out\n        /* \"#utility.yul\":12432:12596   */\n    tag_179:\n        /* \"#utility.yul\":12572:12588   */\n      0x416c726561647920766f7465642e000000000000000000000000000000000000\n        /* \"#utility.yul\":12568:12569   */\n      0x00\n        /* \"#utility.yul\":12560:12566   */\n      dup3\n        /* \"#utility.yul\":12556:12570   */\n      add\n        /* \"#utility.yul\":12549:12589   */\n      mstore\n        /* \"#utility.yul\":12432:12596   */\n      pop\n      jump\t// out\n        /* \"#utility.yul\":12602:12776   */\n    tag_184:\n        /* \"#utility.yul\":12742:12768   */\n      0x54686520766f74657220616c726561647920766f7465642e0000000000000000\n        /* \"#utility.yul\":12738:12739   */\n      0x00\n        /* \"#utility.yul\":12730:12736   */\n      dup3\n        /* \"#utility.yul\":12726:12740   */\n      add\n        /* \"#utility.yul\":12719:12769   */\n      mstore\n        /* \"#utility.yul\":12602:12776   */\n      pop\n      jump\t// out\n        /* \"#utility.yul\":12782:12951   */\n    tag_189:\n        /* \"#utility.yul\":12922:12943   */\n      0x52656163686564206d617820766f746572732e00000000000000000000000000\n        /* \"#utility.yul\":12918:12919   */\n      0x00\n        /* \"#utility.yul\":12910:12916   */\n      dup3\n        /* \"#utility.yul\":12906:12920   */\n      add\n        /* \"#utility.yul\":12899:12944   */\n      mstore\n        /* \"#utility.yul\":12782:12951   */\n      pop\n      jump\t// out\n        /* \"#utility.yul\":12957:13079   */\n    tag_144:\n        /* \"#utility.yul\":13030:13054   */\n      tag_296\n        /* \"#utility.yul\":13048:13053   */\n      dup2\n        /* \"#utility.yul\":13030:13054   */\n      tag_207\n      jump\t// in\n    tag_296:\n        /* \"#utility.yul\":13023:13028   */\n      dup2\n        /* \"#utility.yul\":13020:13055   */\n      eq\n        /* \"#utility.yul\":13010:13073   */\n      tag_297\n      jumpi\n        /* \"#utility.yul\":13069:13070   */\n      0x00\n        /* \"#utility.yul\":13066:13067   */\n      dup1\n        /* \"#utility.yul\":13059:13071   */\n      revert\n        /* \"#utility.yul\":13010:13073   */\n    tag_297:\n        /* \"#utility.yul\":12957:13079   */\n      pop\n      jump\t// out\n\n    auxdata: 0xa2646970667358221220d3d1fe7d49a4f64f89dca8f98c4862ce8a601525324de1d624460f9f8eaee81964736f6c63430008070033\n}\n",
				"bytecode": {
					"linkReferences": {},
					"object": "608060405260006004553480156200001657600080fd5b50336000806101000a81548173ffffffffffffffffffffffffffffffffffffffff021916908373ffffffffffffffffffffffffffffffffffffffff16021790555060018060008060009054906101000a900473ffffffffffffffffffffffffffffffffffffffff1673ffffffffffffffffffffffffffffffffffffffff1673ffffffffffffffffffffffffffffffffffffffff1681526020019081526020016000206000018190555060006040518060a001604052806040518060400160405280600181526020017f610000000000000000000000000000000000000000000000000000000000000081525081526020016040518060400160405280600181526020017f620000000000000000000000000000000000000000000000000000000000000081525081526020016040518060400160405280600181526020017f630000000000000000000000000000000000000000000000000000000000000081525081526020016040518060400160405280600181526020017f640000000000000000000000000000000000000000000000000000000000000081525081526020016040518060400160405280600181526020017f650000000000000000000000000000000000000000000000000000000000000081525081525090506005801462000239576040517f08c379a0000000000000000000000000000000000000000000000000000000008152600401620002309062000470565b60405180910390fd5b60005b6005811015620003915760036040518061018001604052808484600581106200026a57620002696200058f565b5b6020020151815260200160008152602001600081526020016000815260200160008152602001600081526020016000815260200160008152602001600081526020016000815260200160008152602001600081525090806001815401808255809150506001900390600052602060002090600c020160009091909190915060008201518160000190805190602001906200030692919062000399565b506020820151816001015560408201518160020155606082015181600301556080820151816004015560a0820151816005015560c0820151816006015560e082015181600701556101008201518160080155610120820151816009015561014082015181600a015561016082015181600b0155505080806200038890620004e3565b9150506200023c565b5050620005e7565b828054620003a790620004ad565b90600052602060002090601f016020900481019282620003cb576000855562000417565b82601f10620003e657805160ff191683800117855562000417565b8280016001018555821562000417579182015b8281111562000416578251825591602001919060010190620003f9565b5b5090506200042691906200042a565b5090565b5b80821115620004455760008160009055506001016200042b565b5090565b60006200045860158362000492565b91506200046582620005be565b602082019050919050565b600060208201905081810360008301526200048b8162000449565b9050919050565b600082825260208201905092915050565b6000819050919050565b60006002820490506001821680620004c657607f821691505b60208210811415620004dd57620004dc62000560565b5b50919050565b6000620004f082620004a3565b91507fffffffffffffffffffffffffffffffffffffffffffffffffffffffffffffffff82141562000526576200052562000531565b5b600182019050919050565b7f4e487b7100000000000000000000000000000000000000000000000000000000600052601160045260246000fd5b7f4e487b7100000000000000000000000000000000000000000000000000000000600052602260045260246000fd5b7f4e487b7100000000000000000000000000000000000000000000000000000000600052603260045260246000fd5b7f43616e64696461746573206d75737420626520352e0000000000000000000000600082015250565b6110a080620005f76000396000f3fe608060405234801561001057600080fd5b506004361061004c5760003560e01c8063632a9a521461005157806364030a191461005b5780636d8f3f101461008e578063d4e8fd2e146100ac575b600080fd5b6100596100dc565b005b61007560048036038101906100709190610970565b6106cc565b6040516100859493929190610c87565b60405180910390f35b610096610719565b6040516100a39190610bea565b60405180910390f35b6100c660048036038101906100c19190610970565b61071f565b6040516100d39190610c65565b60405180910390f35b600160003373ffffffffffffffffffffffffffffffffffffffff1673ffffffffffffffffffffffffffffffffffffffff16815260200190815260200160002060010160009054906101000a900460ff161561016c576040517f08c379a000000000000000000000000000000000000000000000000000000000815260040161016390610c25565b60405180910390fd5b60018060003373ffffffffffffffffffffffffffffffffffffffff1673ffffffffffffffffffffffffffffffffffffffff16815260200190815260200160002060000181905550606460045413156101f9576040517f08c379a00000000000000000000000000000000000000000000000000000000081526004016101f090610c45565b60405180910390fd5b61020161085c565b600160003373ffffffffffffffffffffffffffffffffffffffff1673ffffffffffffffffffffffffffffffffffffffff168152602001908152602001600020600201819055506000600160003373ffffffffffffffffffffffffffffffffffffffff1673ffffffffffffffffffffffffffffffffffffffff16815260200190815260200160002090508060010160009054906101000a900460ff16156102dc576040517f08c379a00000000000000000000000000000000000000000000000000000000081526004016102d390610c05565b60405180910390fd5b60018160010160006101000a81548160ff02191690831515021790555061030161089d565b81600301819055506103116108de565b8060000154600361032061089d565b8154811061033157610330610f86565b5b90600052602060002090600c020160010160008282546103519190610d8d565b925050819055506000816002015414156103b1578060000154600361037461089d565b8154811061038557610384610f86565b5b90600052602060002090600c020160020160008282546103a59190610d8d565b925050819055506106c9565b60018160020154141561040a57806000015460036103cd61089d565b815481106103de576103dd610f86565b5b90600052602060002090600c020160030160008282546103fe9190610d8d565b925050819055506106c8565b600281600201541415610463578060000154600361042661089d565b8154811061043757610436610f86565b5b90600052602060002090600c020160040160008282546104579190610d8d565b925050819055506106c7565b6003816002015414156104bc578060000154600361047f61089d565b815481106104905761048f610f86565b5b90600052602060002090600c020160050160008282546104b09190610d8d565b925050819055506106c6565b60048160020154141561051557806000015460036104d861089d565b815481106104e9576104e8610f86565b5b90600052602060002090600c020160060160008282546105099190610d8d565b925050819055506106c5565b60058160020154141561056e578060000154600361053161089d565b8154811061054257610541610f86565b5b90600052602060002090600c020160070160008282546105629190610d8d565b925050819055506106c4565b6006816002015414156105c7578060000154600361058a61089d565b8154811061059b5761059a610f86565b5b90600052602060002090600c020160080160008282546105bb9190610d8d565b925050819055506106c3565b60078160020154141561062057806000015460036105e361089d565b815481106105f4576105f3610f86565b5b90600052602060002090600c020160090160008282546106149190610d8d565b925050819055506106c2565b600881600201541415610679578060000154600361063c61089d565b8154811061064d5761064c610f86565b5b90600052602060002090600c0201600a01600082825461066d9190610d8d565b925050819055506106c1565b8060000154600361068861089d565b8154811061069957610698610f86565b5b90600052602060002090600c0201600b0160008282546106b99190610d8d565b925050819055505b5b5b5b5b5b5b5b5b50565b600281815481106106dc57600080fd5b90600052602060002090600402016000915090508060000154908060010160009054906101000a900460ff16908060020154908060030154905084565b60045481565b6107276108fa565b6003828154811061073b5761073a610f86565b5b90600052602060002090600c02016040518061018001604052908160008201805461076590610e68565b80601f016020809104026020016040519081016040528092919081815260200182805461079190610e68565b80156107de5780601f106107b3576101008083540402835291602001916107de565b820191906000526020600020905b8154815290600101906020018083116107c157829003601f168201915b50505050508152602001600182015481526020016002820154815260200160038201548152602001600482015481526020016005820154815260200160068201548152602001600782015481526020016008820154815260200160098201548152602001600a8201548152602001600b820154815250509050919050565b6000600a42443360405160200161087593929190610bad565b6040516020818303038152906040528051906020012060001c6108989190610ec8565b905090565b600060054244336040516020016108b693929190610bad565b6040516020818303038152906040528051906020012060001c6108d99190610ec8565b905090565b6001600460008282546108f19190610cf9565b92505081905550565b6040518061018001604052806060815260200160008152602001600081526020016000815260200160008152602001600081526020016000815260200160008152602001600081526020016000815260200160008152602001600081525090565b60008135905061096a81611053565b92915050565b60006020828403121561098657610985610fb5565b5b60006109948482850161095b565b91505092915050565b6109ae6109a982610de3565b610e9a565b82525050565b6109bd81610df5565b82525050565b6109cc81610e01565b82525050565b60006109dd82610ccc565b6109e78185610cd7565b93506109f7818560208601610e35565b610a0081610fba565b840191505092915050565b6000610a18600e83610ce8565b9150610a2382610fd8565b602082019050919050565b6000610a3b601883610ce8565b9150610a4682611001565b602082019050919050565b6000610a5e601383610ce8565b9150610a698261102a565b602082019050919050565b6000610180830160008301518482036000860152610a9282826109d2565b9150506020830151610aa76020860182610b78565b506040830151610aba6040860182610b78565b506060830151610acd6060860182610b78565b506080830151610ae06080860182610b78565b5060a0830151610af360a0860182610b78565b5060c0830151610b0660c0860182610b78565b5060e0830151610b1960e0860182610b78565b50610100830151610b2e610100860182610b78565b50610120830151610b43610120860182610b78565b50610140830151610b58610140860182610b78565b50610160830151610b6d610160860182610b78565b508091505092915050565b610b8181610e2b565b82525050565b610b9081610e2b565b82525050565b610ba7610ba282610e2b565b610ebe565b82525050565b6000610bb98286610b96565b602082019150610bc98285610b96565b602082019150610bd9828461099d565b601482019150819050949350505050565b6000602082019050610bff60008301846109c3565b92915050565b60006020820190508181036000830152610c1e81610a0b565b9050919050565b60006020820190508181036000830152610c3e81610a2e565b9050919050565b60006020820190508181036000830152610c5e81610a51565b9050919050565b60006020820190508181036000830152610c7f8184610a74565b905092915050565b6000608082019050610c9c6000830187610b87565b610ca960208301866109b4565b610cb66040830185610b87565b610cc36060830184610b87565b95945050505050565b600081519050919050565b600082825260208201905092915050565b600082825260208201905092915050565b6000610d0482610e01565b9150610d0f83610e01565b9250817f7fffffffffffffffffffffffffffffffffffffffffffffffffffffffffffffff03831360008312151615610d4a57610d49610ef9565b5b817f8000000000000000000000000000000000000000000000000000000000000000038312600083121615610d8257610d81610ef9565b5b828201905092915050565b6000610d9882610e2b565b9150610da383610e2b565b9250827fffffffffffffffffffffffffffffffffffffffffffffffffffffffffffffffff03821115610dd857610dd7610ef9565b5b828201905092915050565b6000610dee82610e0b565b9050919050565b60008115159050919050565b6000819050919050565b600073ffffffffffffffffffffffffffffffffffffffff82169050919050565b6000819050919050565b60005b83811015610e53578082015181840152602081019050610e38565b83811115610e62576000848401525b50505050565b60006002820490506001821680610e8057607f821691505b60208210811415610e9457610e93610f57565b5b50919050565b6000610ea582610eac565b9050919050565b6000610eb782610fcb565b9050919050565b6000819050919050565b6000610ed382610e2b565b9150610ede83610e2b565b925082610eee57610eed610f28565b5b828206905092915050565b7f4e487b7100000000000000000000000000000000000000000000000000000000600052601160045260246000fd5b7f4e487b7100000000000000000000000000000000000000000000000000000000600052601260045260246000fd5b7f4e487b7100000000000000000000000000000000000000000000000000000000600052602260045260246000fd5b7f4e487b7100000000000000000000000000000000000000000000000000000000600052603260045260246000fd5b600080fd5b6000601f19601f8301169050919050565b60008160601b9050919050565b7f416c726561647920766f7465642e000000000000000000000000000000000000600082015250565b7f54686520766f74657220616c726561647920766f7465642e0000000000000000600082015250565b7f52656163686564206d617820766f746572732e00000000000000000000000000600082015250565b61105c81610e2b565b811461106757600080fd5b5056fea2646970667358221220d3d1fe7d49a4f64f89dca8f98c4862ce8a601525324de1d624460f9f8eaee81964736f6c63430008070033",
					"opcodes": "PUSH1 0x80 PUSH1 0x40 MSTORE PUSH1 0x0 PUSH1 0x4 SSTORE CALLVALUE DUP1 ISZERO PUSH3 0x16 JUMPI PUSH1 0x0 DUP1 REVERT JUMPDEST POP CALLER PUSH1 0x0 DUP1 PUSH2 0x100 EXP DUP2 SLOAD DUP2 PUSH20 0xFFFFFFFFFFFFFFFFFFFFFFFFFFFFFFFFFFFFFFFF MUL NOT AND SWAP1 DUP4 PUSH20 0xFFFFFFFFFFFFFFFFFFFFFFFFFFFFFFFFFFFFFFFF AND MUL OR SWAP1 SSTORE POP PUSH1 0x1 DUP1 PUSH1 0x0 DUP1 PUSH1 0x0 SWAP1 SLOAD SWAP1 PUSH2 0x100 EXP SWAP1 DIV PUSH20 0xFFFFFFFFFFFFFFFFFFFFFFFFFFFFFFFFFFFFFFFF AND PUSH20 0xFFFFFFFFFFFFFFFFFFFFFFFFFFFFFFFFFFFFFFFF AND PUSH20 0xFFFFFFFFFFFFFFFFFFFFFFFFFFFFFFFFFFFFFFFF AND DUP2 MSTORE PUSH1 0x20 ADD SWAP1 DUP2 MSTORE PUSH1 0x20 ADD PUSH1 0x0 KECCAK256 PUSH1 0x0 ADD DUP2 SWAP1 SSTORE POP PUSH1 0x0 PUSH1 0x40 MLOAD DUP1 PUSH1 0xA0 ADD PUSH1 0x40 MSTORE DUP1 PUSH1 0x40 MLOAD DUP1 PUSH1 0x40 ADD PUSH1 0x40 MSTORE DUP1 PUSH1 0x1 DUP2 MSTORE PUSH1 0x20 ADD PUSH32 0x6100000000000000000000000000000000000000000000000000000000000000 DUP2 MSTORE POP DUP2 MSTORE PUSH1 0x20 ADD PUSH1 0x40 MLOAD DUP1 PUSH1 0x40 ADD PUSH1 0x40 MSTORE DUP1 PUSH1 0x1 DUP2 MSTORE PUSH1 0x20 ADD PUSH32 0x6200000000000000000000000000000000000000000000000000000000000000 DUP2 MSTORE POP DUP2 MSTORE PUSH1 0x20 ADD PUSH1 0x40 MLOAD DUP1 PUSH1 0x40 ADD PUSH1 0x40 MSTORE DUP1 PUSH1 0x1 DUP2 MSTORE PUSH1 0x20 ADD PUSH32 0x6300000000000000000000000000000000000000000000000000000000000000 DUP2 MSTORE POP DUP2 MSTORE PUSH1 0x20 ADD PUSH1 0x40 MLOAD DUP1 PUSH1 0x40 ADD PUSH1 0x40 MSTORE DUP1 PUSH1 0x1 DUP2 MSTORE PUSH1 0x20 ADD PUSH32 0x6400000000000000000000000000000000000000000000000000000000000000 DUP2 MSTORE POP DUP2 MSTORE PUSH1 0x20 ADD PUSH1 0x40 MLOAD DUP1 PUSH1 0x40 ADD PUSH1 0x40 MSTORE DUP1 PUSH1 0x1 DUP2 MSTORE PUSH1 0x20 ADD PUSH32 0x6500000000000000000000000000000000000000000000000000000000000000 DUP2 MSTORE POP DUP2 MSTORE POP SWAP1 POP PUSH1 0x5 DUP1 EQ PUSH3 0x239 JUMPI PUSH1 0x40 MLOAD PUSH32 0x8C379A000000000000000000000000000000000000000000000000000000000 DUP2 MSTORE PUSH1 0x4 ADD PUSH3 0x230 SWAP1 PUSH3 0x470 JUMP JUMPDEST PUSH1 0x40 MLOAD DUP1 SWAP2 SUB SWAP1 REVERT JUMPDEST PUSH1 0x0 JUMPDEST PUSH1 0x5 DUP2 LT ISZERO PUSH3 0x391 JUMPI PUSH1 0x3 PUSH1 0x40 MLOAD DUP1 PUSH2 0x180 ADD PUSH1 0x40 MSTORE DUP1 DUP5 DUP5 PUSH1 0x5 DUP2 LT PUSH3 0x26A JUMPI PUSH3 0x269 PUSH3 0x58F JUMP JUMPDEST JUMPDEST PUSH1 0x20 MUL ADD MLOAD DUP2 MSTORE PUSH1 0x20 ADD PUSH1 0x0 DUP2 MSTORE PUSH1 0x20 ADD PUSH1 0x0 DUP2 MSTORE PUSH1 0x20 ADD PUSH1 0x0 DUP2 MSTORE PUSH1 0x20 ADD PUSH1 0x0 DUP2 MSTORE PUSH1 0x20 ADD PUSH1 0x0 DUP2 MSTORE PUSH1 0x20 ADD PUSH1 0x0 DUP2 MSTORE PUSH1 0x20 ADD PUSH1 0x0 DUP2 MSTORE PUSH1 0x20 ADD PUSH1 0x0 DUP2 MSTORE PUSH1 0x20 ADD PUSH1 0x0 DUP2 MSTORE PUSH1 0x20 ADD PUSH1 0x0 DUP2 MSTORE PUSH1 0x20 ADD PUSH1 0x0 DUP2 MSTORE POP SWAP1 DUP1 PUSH1 0x1 DUP2 SLOAD ADD DUP1 DUP3 SSTORE DUP1 SWAP2 POP POP PUSH1 0x1 SWAP1 SUB SWAP1 PUSH1 0x0 MSTORE PUSH1 0x20 PUSH1 0x0 KECCAK256 SWAP1 PUSH1 0xC MUL ADD PUSH1 0x0 SWAP1 SWAP2 SWAP1 SWAP2 SWAP1 SWAP2 POP PUSH1 0x0 DUP3 ADD MLOAD DUP2 PUSH1 0x0 ADD SWAP1 DUP1 MLOAD SWAP1 PUSH1 0x20 ADD SWAP1 PUSH3 0x306 SWAP3 SWAP2 SWAP1 PUSH3 0x399 JUMP JUMPDEST POP PUSH1 0x20 DUP3 ADD MLOAD DUP2 PUSH1 0x1 ADD SSTORE PUSH1 0x40 DUP3 ADD MLOAD DUP2 PUSH1 0x2 ADD SSTORE PUSH1 0x60 DUP3 ADD MLOAD DUP2 PUSH1 0x3 ADD SSTORE PUSH1 0x80 DUP3 ADD MLOAD DUP2 PUSH1 0x4 ADD SSTORE PUSH1 0xA0 DUP3 ADD MLOAD DUP2 PUSH1 0x5 ADD SSTORE PUSH1 0xC0 DUP3 ADD MLOAD DUP2 PUSH1 0x6 ADD SSTORE PUSH1 0xE0 DUP3 ADD MLOAD DUP2 PUSH1 0x7 ADD SSTORE PUSH2 0x100 DUP3 ADD MLOAD DUP2 PUSH1 0x8 ADD SSTORE PUSH2 0x120 DUP3 ADD MLOAD DUP2 PUSH1 0x9 ADD SSTORE PUSH2 0x140 DUP3 ADD MLOAD DUP2 PUSH1 0xA ADD SSTORE PUSH2 0x160 DUP3 ADD MLOAD DUP2 PUSH1 0xB ADD SSTORE POP POP DUP1 DUP1 PUSH3 0x388 SWAP1 PUSH3 0x4E3 JUMP JUMPDEST SWAP2 POP POP PUSH3 0x23C JUMP JUMPDEST POP POP PUSH3 0x5E7 JUMP JUMPDEST DUP3 DUP1 SLOAD PUSH3 0x3A7 SWAP1 PUSH3 0x4AD JUMP JUMPDEST SWAP1 PUSH1 0x0 MSTORE PUSH1 0x20 PUSH1 0x0 KECCAK256 SWAP1 PUSH1 0x1F ADD PUSH1 0x20 SWAP1 DIV DUP2 ADD SWAP3 DUP3 PUSH3 0x3CB JUMPI PUSH1 0x0 DUP6 SSTORE PUSH3 0x417 JUMP JUMPDEST DUP3 PUSH1 0x1F LT PUSH3 0x3E6 JUMPI DUP1 MLOAD PUSH1 0xFF NOT AND DUP4 DUP1 ADD OR DUP6 SSTORE PUSH3 0x417 JUMP JUMPDEST DUP3 DUP1 ADD PUSH1 0x1 ADD DUP6 SSTORE DUP3 ISZERO PUSH3 0x417 JUMPI SWAP2 DUP3 ADD JUMPDEST DUP3 DUP2 GT ISZERO PUSH3 0x416 JUMPI DUP3 MLOAD DUP3 SSTORE SWAP2 PUSH1 0x20 ADD SWAP2 SWAP1 PUSH1 0x1 ADD SWAP1 PUSH3 0x3F9 JUMP JUMPDEST JUMPDEST POP SWAP1 POP PUSH3 0x426 SWAP2 SWAP1 PUSH3 0x42A JUMP JUMPDEST POP SWAP1 JUMP JUMPDEST JUMPDEST DUP1 DUP3 GT ISZERO PUSH3 0x445 JUMPI PUSH1 0x0 DUP2 PUSH1 0x0 SWAP1 SSTORE POP PUSH1 0x1 ADD PUSH3 0x42B JUMP JUMPDEST POP SWAP1 JUMP JUMPDEST PUSH1 0x0 PUSH3 0x458 PUSH1 0x15 DUP4 PUSH3 0x492 JUMP JUMPDEST SWAP2 POP PUSH3 0x465 DUP3 PUSH3 0x5BE JUMP JUMPDEST PUSH1 0x20 DUP3 ADD SWAP1 POP SWAP2 SWAP1 POP JUMP JUMPDEST PUSH1 0x0 PUSH1 0x20 DUP3 ADD SWAP1 POP DUP2 DUP2 SUB PUSH1 0x0 DUP4 ADD MSTORE PUSH3 0x48B DUP2 PUSH3 0x449 JUMP JUMPDEST SWAP1 POP SWAP2 SWAP1 POP JUMP JUMPDEST PUSH1 0x0 DUP3 DUP3 MSTORE PUSH1 0x20 DUP3 ADD SWAP1 POP SWAP3 SWAP2 POP POP JUMP JUMPDEST PUSH1 0x0 DUP2 SWAP1 POP SWAP2 SWAP1 POP JUMP JUMPDEST PUSH1 0x0 PUSH1 0x2 DUP3 DIV SWAP1 POP PUSH1 0x1 DUP3 AND DUP1 PUSH3 0x4C6 JUMPI PUSH1 0x7F DUP3 AND SWAP2 POP JUMPDEST PUSH1 0x20 DUP3 LT DUP2 EQ ISZERO PUSH3 0x4DD JUMPI PUSH3 0x4DC PUSH3 0x560 JUMP JUMPDEST JUMPDEST POP SWAP2 SWAP1 POP JUMP JUMPDEST PUSH1 0x0 PUSH3 0x4F0 DUP3 PUSH3 0x4A3 JUMP JUMPDEST SWAP2 POP PUSH32 0xFFFFFFFFFFFFFFFFFFFFFFFFFFFFFFFFFFFFFFFFFFFFFFFFFFFFFFFFFFFFFFFF DUP3 EQ ISZERO PUSH3 0x526 JUMPI PUSH3 0x525 PUSH3 0x531 JUMP JUMPDEST JUMPDEST PUSH1 0x1 DUP3 ADD SWAP1 POP SWAP2 SWAP1 POP JUMP JUMPDEST PUSH32 0x4E487B7100000000000000000000000000000000000000000000000000000000 PUSH1 0x0 MSTORE PUSH1 0x11 PUSH1 0x4 MSTORE PUSH1 0x24 PUSH1 0x0 REVERT JUMPDEST PUSH32 0x4E487B7100000000000000000000000000000000000000000000000000000000 PUSH1 0x0 MSTORE PUSH1 0x22 PUSH1 0x4 MSTORE PUSH1 0x24 PUSH1 0x0 REVERT JUMPDEST PUSH32 0x4E487B7100000000000000000000000000000000000000000000000000000000 PUSH1 0x0 MSTORE PUSH1 0x32 PUSH1 0x4 MSTORE PUSH1 0x24 PUSH1 0x0 REVERT JUMPDEST PUSH32 0x43616E64696461746573206D75737420626520352E0000000000000000000000 PUSH1 0x0 DUP3 ADD MSTORE POP JUMP JUMPDEST PUSH2 0x10A0 DUP1 PUSH3 0x5F7 PUSH1 0x0 CODECOPY PUSH1 0x0 RETURN INVALID PUSH1 0x80 PUSH1 0x40 MSTORE CALLVALUE DUP1 ISZERO PUSH2 0x10 JUMPI PUSH1 0x0 DUP1 REVERT JUMPDEST POP PUSH1 0x4 CALLDATASIZE LT PUSH2 0x4C JUMPI PUSH1 0x0 CALLDATALOAD PUSH1 0xE0 SHR DUP1 PUSH4 0x632A9A52 EQ PUSH2 0x51 JUMPI DUP1 PUSH4 0x64030A19 EQ PUSH2 0x5B JUMPI DUP1 PUSH4 0x6D8F3F10 EQ PUSH2 0x8E JUMPI DUP1 PUSH4 0xD4E8FD2E EQ PUSH2 0xAC JUMPI JUMPDEST PUSH1 0x0 DUP1 REVERT JUMPDEST PUSH2 0x59 PUSH2 0xDC JUMP JUMPDEST STOP JUMPDEST PUSH2 0x75 PUSH1 0x4 DUP1 CALLDATASIZE SUB DUP2 ADD SWAP1 PUSH2 0x70 SWAP2 SWAP1 PUSH2 0x970 JUMP JUMPDEST PUSH2 0x6CC JUMP JUMPDEST PUSH1 0x40 MLOAD PUSH2 0x85 SWAP5 SWAP4 SWAP3 SWAP2 SWAP1 PUSH2 0xC87 JUMP JUMPDEST PUSH1 0x40 MLOAD DUP1 SWAP2 SUB SWAP1 RETURN JUMPDEST PUSH2 0x96 PUSH2 0x719 JUMP JUMPDEST PUSH1 0x40 MLOAD PUSH2 0xA3 SWAP2 SWAP1 PUSH2 0xBEA JUMP JUMPDEST PUSH1 0x40 MLOAD DUP1 SWAP2 SUB SWAP1 RETURN JUMPDEST PUSH2 0xC6 PUSH1 0x4 DUP1 CALLDATASIZE SUB DUP2 ADD SWAP1 PUSH2 0xC1 SWAP2 SWAP1 PUSH2 0x970 JUMP JUMPDEST PUSH2 0x71F JUMP JUMPDEST PUSH1 0x40 MLOAD PUSH2 0xD3 SWAP2 SWAP1 PUSH2 0xC65 JUMP JUMPDEST PUSH1 0x40 MLOAD DUP1 SWAP2 SUB SWAP1 RETURN JUMPDEST PUSH1 0x1 PUSH1 0x0 CALLER PUSH20 0xFFFFFFFFFFFFFFFFFFFFFFFFFFFFFFFFFFFFFFFF AND PUSH20 0xFFFFFFFFFFFFFFFFFFFFFFFFFFFFFFFFFFFFFFFF AND DUP2 MSTORE PUSH1 0x20 ADD SWAP1 DUP2 MSTORE PUSH1 0x20 ADD PUSH1 0x0 KECCAK256 PUSH1 0x1 ADD PUSH1 0x0 SWAP1 SLOAD SWAP1 PUSH2 0x100 EXP SWAP1 DIV PUSH1 0xFF AND ISZERO PUSH2 0x16C JUMPI PUSH1 0x40 MLOAD PUSH32 0x8C379A000000000000000000000000000000000000000000000000000000000 DUP2 MSTORE PUSH1 0x4 ADD PUSH2 0x163 SWAP1 PUSH2 0xC25 JUMP JUMPDEST PUSH1 0x40 MLOAD DUP1 SWAP2 SUB SWAP1 REVERT JUMPDEST PUSH1 0x1 DUP1 PUSH1 0x0 CALLER PUSH20 0xFFFFFFFFFFFFFFFFFFFFFFFFFFFFFFFFFFFFFFFF AND PUSH20 0xFFFFFFFFFFFFFFFFFFFFFFFFFFFFFFFFFFFFFFFF AND DUP2 MSTORE PUSH1 0x20 ADD SWAP1 DUP2 MSTORE PUSH1 0x20 ADD PUSH1 0x0 KECCAK256 PUSH1 0x0 ADD DUP2 SWAP1 SSTORE POP PUSH1 0x64 PUSH1 0x4 SLOAD SGT ISZERO PUSH2 0x1F9 JUMPI PUSH1 0x40 MLOAD PUSH32 0x8C379A000000000000000000000000000000000000000000000000000000000 DUP2 MSTORE PUSH1 0x4 ADD PUSH2 0x1F0 SWAP1 PUSH2 0xC45 JUMP JUMPDEST PUSH1 0x40 MLOAD DUP1 SWAP2 SUB SWAP1 REVERT JUMPDEST PUSH2 0x201 PUSH2 0x85C JUMP JUMPDEST PUSH1 0x1 PUSH1 0x0 CALLER PUSH20 0xFFFFFFFFFFFFFFFFFFFFFFFFFFFFFFFFFFFFFFFF AND PUSH20 0xFFFFFFFFFFFFFFFFFFFFFFFFFFFFFFFFFFFFFFFF AND DUP2 MSTORE PUSH1 0x20 ADD SWAP1 DUP2 MSTORE PUSH1 0x20 ADD PUSH1 0x0 KECCAK256 PUSH1 0x2 ADD DUP2 SWAP1 SSTORE POP PUSH1 0x0 PUSH1 0x1 PUSH1 0x0 CALLER PUSH20 0xFFFFFFFFFFFFFFFFFFFFFFFFFFFFFFFFFFFFFFFF AND PUSH20 0xFFFFFFFFFFFFFFFFFFFFFFFFFFFFFFFFFFFFFFFF AND DUP2 MSTORE PUSH1 0x20 ADD SWAP1 DUP2 MSTORE PUSH1 0x20 ADD PUSH1 0x0 KECCAK256 SWAP1 POP DUP1 PUSH1 0x1 ADD PUSH1 0x0 SWAP1 SLOAD SWAP1 PUSH2 0x100 EXP SWAP1 DIV PUSH1 0xFF AND ISZERO PUSH2 0x2DC JUMPI PUSH1 0x40 MLOAD PUSH32 0x8C379A000000000000000000000000000000000000000000000000000000000 DUP2 MSTORE PUSH1 0x4 ADD PUSH2 0x2D3 SWAP1 PUSH2 0xC05 JUMP JUMPDEST PUSH1 0x40 MLOAD DUP1 SWAP2 SUB SWAP1 REVERT JUMPDEST PUSH1 0x1 DUP2 PUSH1 0x1 ADD PUSH1 0x0 PUSH2 0x100 EXP DUP2 SLOAD DUP2 PUSH1 0xFF MUL NOT AND SWAP1 DUP4 ISZERO ISZERO MUL OR SWAP1 SSTORE POP PUSH2 0x301 PUSH2 0x89D JUMP JUMPDEST DUP2 PUSH1 0x3 ADD DUP2 SWAP1 SSTORE POP PUSH2 0x311 PUSH2 0x8DE JUMP JUMPDEST DUP1 PUSH1 0x0 ADD SLOAD PUSH1 0x3 PUSH2 0x320 PUSH2 0x89D JUMP JUMPDEST DUP2 SLOAD DUP2 LT PUSH2 0x331 JUMPI PUSH2 0x330 PUSH2 0xF86 JUMP JUMPDEST JUMPDEST SWAP1 PUSH1 0x0 MSTORE PUSH1 0x20 PUSH1 0x0 KECCAK256 SWAP1 PUSH1 0xC MUL ADD PUSH1 0x1 ADD PUSH1 0x0 DUP3 DUP3 SLOAD PUSH2 0x351 SWAP2 SWAP1 PUSH2 0xD8D JUMP JUMPDEST SWAP3 POP POP DUP2 SWAP1 SSTORE POP PUSH1 0x0 DUP2 PUSH1 0x2 ADD SLOAD EQ ISZERO PUSH2 0x3B1 JUMPI DUP1 PUSH1 0x0 ADD SLOAD PUSH1 0x3 PUSH2 0x374 PUSH2 0x89D JUMP JUMPDEST DUP2 SLOAD DUP2 LT PUSH2 0x385 JUMPI PUSH2 0x384 PUSH2 0xF86 JUMP JUMPDEST JUMPDEST SWAP1 PUSH1 0x0 MSTORE PUSH1 0x20 PUSH1 0x0 KECCAK256 SWAP1 PUSH1 0xC MUL ADD PUSH1 0x2 ADD PUSH1 0x0 DUP3 DUP3 SLOAD PUSH2 0x3A5 SWAP2 SWAP1 PUSH2 0xD8D JUMP JUMPDEST SWAP3 POP POP DUP2 SWAP1 SSTORE POP PUSH2 0x6C9 JUMP JUMPDEST PUSH1 0x1 DUP2 PUSH1 0x2 ADD SLOAD EQ ISZERO PUSH2 0x40A JUMPI DUP1 PUSH1 0x0 ADD SLOAD PUSH1 0x3 PUSH2 0x3CD PUSH2 0x89D JUMP JUMPDEST DUP2 SLOAD DUP2 LT PUSH2 0x3DE JUMPI PUSH2 0x3DD PUSH2 0xF86 JUMP JUMPDEST JUMPDEST SWAP1 PUSH1 0x0 MSTORE PUSH1 0x20 PUSH1 0x0 KECCAK256 SWAP1 PUSH1 0xC MUL ADD PUSH1 0x3 ADD PUSH1 0x0 DUP3 DUP3 SLOAD PUSH2 0x3FE SWAP2 SWAP1 PUSH2 0xD8D JUMP JUMPDEST SWAP3 POP POP DUP2 SWAP1 SSTORE POP PUSH2 0x6C8 JUMP JUMPDEST PUSH1 0x2 DUP2 PUSH1 0x2 ADD SLOAD EQ ISZERO PUSH2 0x463 JUMPI DUP1 PUSH1 0x0 ADD SLOAD PUSH1 0x3 PUSH2 0x426 PUSH2 0x89D JUMP JUMPDEST DUP2 SLOAD DUP2 LT PUSH2 0x437 JUMPI PUSH2 0x436 PUSH2 0xF86 JUMP JUMPDEST JUMPDEST SWAP1 PUSH1 0x0 MSTORE PUSH1 0x20 PUSH1 0x0 KECCAK256 SWAP1 PUSH1 0xC MUL ADD PUSH1 0x4 ADD PUSH1 0x0 DUP3 DUP3 SLOAD PUSH2 0x457 SWAP2 SWAP1 PUSH2 0xD8D JUMP JUMPDEST SWAP3 POP POP DUP2 SWAP1 SSTORE POP PUSH2 0x6C7 JUMP JUMPDEST PUSH1 0x3 DUP2 PUSH1 0x2 ADD SLOAD EQ ISZERO PUSH2 0x4BC JUMPI DUP1 PUSH1 0x0 ADD SLOAD PUSH1 0x3 PUSH2 0x47F PUSH2 0x89D JUMP JUMPDEST DUP2 SLOAD DUP2 LT PUSH2 0x490 JUMPI PUSH2 0x48F PUSH2 0xF86 JUMP JUMPDEST JUMPDEST SWAP1 PUSH1 0x0 MSTORE PUSH1 0x20 PUSH1 0x0 KECCAK256 SWAP1 PUSH1 0xC MUL ADD PUSH1 0x5 ADD PUSH1 0x0 DUP3 DUP3 SLOAD PUSH2 0x4B0 SWAP2 SWAP1 PUSH2 0xD8D JUMP JUMPDEST SWAP3 POP POP DUP2 SWAP1 SSTORE POP PUSH2 0x6C6 JUMP JUMPDEST PUSH1 0x4 DUP2 PUSH1 0x2 ADD SLOAD EQ ISZERO PUSH2 0x515 JUMPI DUP1 PUSH1 0x0 ADD SLOAD PUSH1 0x3 PUSH2 0x4D8 PUSH2 0x89D JUMP JUMPDEST DUP2 SLOAD DUP2 LT PUSH2 0x4E9 JUMPI PUSH2 0x4E8 PUSH2 0xF86 JUMP JUMPDEST JUMPDEST SWAP1 PUSH1 0x0 MSTORE PUSH1 0x20 PUSH1 0x0 KECCAK256 SWAP1 PUSH1 0xC MUL ADD PUSH1 0x6 ADD PUSH1 0x0 DUP3 DUP3 SLOAD PUSH2 0x509 SWAP2 SWAP1 PUSH2 0xD8D JUMP JUMPDEST SWAP3 POP POP DUP2 SWAP1 SSTORE POP PUSH2 0x6C5 JUMP JUMPDEST PUSH1 0x5 DUP2 PUSH1 0x2 ADD SLOAD EQ ISZERO PUSH2 0x56E JUMPI DUP1 PUSH1 0x0 ADD SLOAD PUSH1 0x3 PUSH2 0x531 PUSH2 0x89D JUMP JUMPDEST DUP2 SLOAD DUP2 LT PUSH2 0x542 JUMPI PUSH2 0x541 PUSH2 0xF86 JUMP JUMPDEST JUMPDEST SWAP1 PUSH1 0x0 MSTORE PUSH1 0x20 PUSH1 0x0 KECCAK256 SWAP1 PUSH1 0xC MUL ADD PUSH1 0x7 ADD PUSH1 0x0 DUP3 DUP3 SLOAD PUSH2 0x562 SWAP2 SWAP1 PUSH2 0xD8D JUMP JUMPDEST SWAP3 POP POP DUP2 SWAP1 SSTORE POP PUSH2 0x6C4 JUMP JUMPDEST PUSH1 0x6 DUP2 PUSH1 0x2 ADD SLOAD EQ ISZERO PUSH2 0x5C7 JUMPI DUP1 PUSH1 0x0 ADD SLOAD PUSH1 0x3 PUSH2 0x58A PUSH2 0x89D JUMP JUMPDEST DUP2 SLOAD DUP2 LT PUSH2 0x59B JUMPI PUSH2 0x59A PUSH2 0xF86 JUMP JUMPDEST JUMPDEST SWAP1 PUSH1 0x0 MSTORE PUSH1 0x20 PUSH1 0x0 KECCAK256 SWAP1 PUSH1 0xC MUL ADD PUSH1 0x8 ADD PUSH1 0x0 DUP3 DUP3 SLOAD PUSH2 0x5BB SWAP2 SWAP1 PUSH2 0xD8D JUMP JUMPDEST SWAP3 POP POP DUP2 SWAP1 SSTORE POP PUSH2 0x6C3 JUMP JUMPDEST PUSH1 0x7 DUP2 PUSH1 0x2 ADD SLOAD EQ ISZERO PUSH2 0x620 JUMPI DUP1 PUSH1 0x0 ADD SLOAD PUSH1 0x3 PUSH2 0x5E3 PUSH2 0x89D JUMP JUMPDEST DUP2 SLOAD DUP2 LT PUSH2 0x5F4 JUMPI PUSH2 0x5F3 PUSH2 0xF86 JUMP JUMPDEST JUMPDEST SWAP1 PUSH1 0x0 MSTORE PUSH1 0x20 PUSH1 0x0 KECCAK256 SWAP1 PUSH1 0xC MUL ADD PUSH1 0x9 ADD PUSH1 0x0 DUP3 DUP3 SLOAD PUSH2 0x614 SWAP2 SWAP1 PUSH2 0xD8D JUMP JUMPDEST SWAP3 POP POP DUP2 SWAP1 SSTORE POP PUSH2 0x6C2 JUMP JUMPDEST PUSH1 0x8 DUP2 PUSH1 0x2 ADD SLOAD EQ ISZERO PUSH2 0x679 JUMPI DUP1 PUSH1 0x0 ADD SLOAD PUSH1 0x3 PUSH2 0x63C PUSH2 0x89D JUMP JUMPDEST DUP2 SLOAD DUP2 LT PUSH2 0x64D JUMPI PUSH2 0x64C PUSH2 0xF86 JUMP JUMPDEST JUMPDEST SWAP1 PUSH1 0x0 MSTORE PUSH1 0x20 PUSH1 0x0 KECCAK256 SWAP1 PUSH1 0xC MUL ADD PUSH1 0xA ADD PUSH1 0x0 DUP3 DUP3 SLOAD PUSH2 0x66D SWAP2 SWAP1 PUSH2 0xD8D JUMP JUMPDEST SWAP3 POP POP DUP2 SWAP1 SSTORE POP PUSH2 0x6C1 JUMP JUMPDEST DUP1 PUSH1 0x0 ADD SLOAD PUSH1 0x3 PUSH2 0x688 PUSH2 0x89D JUMP JUMPDEST DUP2 SLOAD DUP2 LT PUSH2 0x699 JUMPI PUSH2 0x698 PUSH2 0xF86 JUMP JUMPDEST JUMPDEST SWAP1 PUSH1 0x0 MSTORE PUSH1 0x20 PUSH1 0x0 KECCAK256 SWAP1 PUSH1 0xC MUL ADD PUSH1 0xB ADD PUSH1 0x0 DUP3 DUP3 SLOAD PUSH2 0x6B9 SWAP2 SWAP1 PUSH2 0xD8D JUMP JUMPDEST SWAP3 POP POP DUP2 SWAP1 SSTORE POP JUMPDEST JUMPDEST JUMPDEST JUMPDEST JUMPDEST JUMPDEST JUMPDEST JUMPDEST JUMPDEST POP JUMP JUMPDEST PUSH1 0x2 DUP2 DUP2 SLOAD DUP2 LT PUSH2 0x6DC JUMPI PUSH1 0x0 DUP1 REVERT JUMPDEST SWAP1 PUSH1 0x0 MSTORE PUSH1 0x20 PUSH1 0x0 KECCAK256 SWAP1 PUSH1 0x4 MUL ADD PUSH1 0x0 SWAP2 POP SWAP1 POP DUP1 PUSH1 0x0 ADD SLOAD SWAP1 DUP1 PUSH1 0x1 ADD PUSH1 0x0 SWAP1 SLOAD SWAP1 PUSH2 0x100 EXP SWAP1 DIV PUSH1 0xFF AND SWAP1 DUP1 PUSH1 0x2 ADD SLOAD SWAP1 DUP1 PUSH1 0x3 ADD SLOAD SWAP1 POP DUP5 JUMP JUMPDEST PUSH1 0x4 SLOAD DUP2 JUMP JUMPDEST PUSH2 0x727 PUSH2 0x8FA JUMP JUMPDEST PUSH1 0x3 DUP3 DUP2 SLOAD DUP2 LT PUSH2 0x73B JUMPI PUSH2 0x73A PUSH2 0xF86 JUMP JUMPDEST JUMPDEST SWAP1 PUSH1 0x0 MSTORE PUSH1 0x20 PUSH1 0x0 KECCAK256 SWAP1 PUSH1 0xC MUL ADD PUSH1 0x40 MLOAD DUP1 PUSH2 0x180 ADD PUSH1 0x40 MSTORE SWAP1 DUP2 PUSH1 0x0 DUP3 ADD DUP1 SLOAD PUSH2 0x765 SWAP1 PUSH2 0xE68 JUMP JUMPDEST DUP1 PUSH1 0x1F ADD PUSH1 0x20 DUP1 SWAP2 DIV MUL PUSH1 0x20 ADD PUSH1 0x40 MLOAD SWAP1 DUP2 ADD PUSH1 0x40 MSTORE DUP1 SWAP3 SWAP2 SWAP1 DUP2 DUP2 MSTORE PUSH1 0x20 ADD DUP3 DUP1 SLOAD PUSH2 0x791 SWAP1 PUSH2 0xE68 JUMP JUMPDEST DUP1 ISZERO PUSH2 0x7DE JUMPI DUP1 PUSH1 0x1F LT PUSH2 0x7B3 JUMPI PUSH2 0x100 DUP1 DUP4 SLOAD DIV MUL DUP4 MSTORE SWAP2 PUSH1 0x20 ADD SWAP2 PUSH2 0x7DE JUMP JUMPDEST DUP3 ADD SWAP2 SWAP1 PUSH1 0x0 MSTORE PUSH1 0x20 PUSH1 0x0 KECCAK256 SWAP1 JUMPDEST DUP2 SLOAD DUP2 MSTORE SWAP1 PUSH1 0x1 ADD SWAP1 PUSH1 0x20 ADD DUP1 DUP4 GT PUSH2 0x7C1 JUMPI DUP3 SWAP1 SUB PUSH1 0x1F AND DUP3 ADD SWAP2 JUMPDEST POP POP POP POP POP DUP2 MSTORE PUSH1 0x20 ADD PUSH1 0x1 DUP3 ADD SLOAD DUP2 MSTORE PUSH1 0x20 ADD PUSH1 0x2 DUP3 ADD SLOAD DUP2 MSTORE PUSH1 0x20 ADD PUSH1 0x3 DUP3 ADD SLOAD DUP2 MSTORE PUSH1 0x20 ADD PUSH1 0x4 DUP3 ADD SLOAD DUP2 MSTORE PUSH1 0x20 ADD PUSH1 0x5 DUP3 ADD SLOAD DUP2 MSTORE PUSH1 0x20 ADD PUSH1 0x6 DUP3 ADD SLOAD DUP2 MSTORE PUSH1 0x20 ADD PUSH1 0x7 DUP3 ADD SLOAD DUP2 MSTORE PUSH1 0x20 ADD PUSH1 0x8 DUP3 ADD SLOAD DUP2 MSTORE PUSH1 0x20 ADD PUSH1 0x9 DUP3 ADD SLOAD DUP2 MSTORE PUSH1 0x20 ADD PUSH1 0xA DUP3 ADD SLOAD DUP2 MSTORE PUSH1 0x20 ADD PUSH1 0xB DUP3 ADD SLOAD DUP2 MSTORE POP POP SWAP1 POP SWAP2 SWAP1 POP JUMP JUMPDEST PUSH1 0x0 PUSH1 0xA TIMESTAMP DIFFICULTY CALLER PUSH1 0x40 MLOAD PUSH1 0x20 ADD PUSH2 0x875 SWAP4 SWAP3 SWAP2 SWAP1 PUSH2 0xBAD JUMP JUMPDEST PUSH1 0x40 MLOAD PUSH1 0x20 DUP2 DUP4 SUB SUB DUP2 MSTORE SWAP1 PUSH1 0x40 MSTORE DUP1 MLOAD SWAP1 PUSH1 0x20 ADD KECCAK256 PUSH1 0x0 SHR PUSH2 0x898 SWAP2 SWAP1 PUSH2 0xEC8 JUMP JUMPDEST SWAP1 POP SWAP1 JUMP JUMPDEST PUSH1 0x0 PUSH1 0x5 TIMESTAMP DIFFICULTY CALLER PUSH1 0x40 MLOAD PUSH1 0x20 ADD PUSH2 0x8B6 SWAP4 SWAP3 SWAP2 SWAP1 PUSH2 0xBAD JUMP JUMPDEST PUSH1 0x40 MLOAD PUSH1 0x20 DUP2 DUP4 SUB SUB DUP2 MSTORE SWAP1 PUSH1 0x40 MSTORE DUP1 MLOAD SWAP1 PUSH1 0x20 ADD KECCAK256 PUSH1 0x0 SHR PUSH2 0x8D9 SWAP2 SWAP1 PUSH2 0xEC8 JUMP JUMPDEST SWAP1 POP SWAP1 JUMP JUMPDEST PUSH1 0x1 PUSH1 0x4 PUSH1 0x0 DUP3 DUP3 SLOAD PUSH2 0x8F1 SWAP2 SWAP1 PUSH2 0xCF9 JUMP JUMPDEST SWAP3 POP POP DUP2 SWAP1 SSTORE POP JUMP JUMPDEST PUSH1 0x40 MLOAD DUP1 PUSH2 0x180 ADD PUSH1 0x40 MSTORE DUP1 PUSH1 0x60 DUP2 MSTORE PUSH1 0x20 ADD PUSH1 0x0 DUP2 MSTORE PUSH1 0x20 ADD PUSH1 0x0 DUP2 MSTORE PUSH1 0x20 ADD PUSH1 0x0 DUP2 MSTORE PUSH1 0x20 ADD PUSH1 0x0 DUP2 MSTORE PUSH1 0x20 ADD PUSH1 0x0 DUP2 MSTORE PUSH1 0x20 ADD PUSH1 0x0 DUP2 MSTORE PUSH1 0x20 ADD PUSH1 0x0 DUP2 MSTORE PUSH1 0x20 ADD PUSH1 0x0 DUP2 MSTORE PUSH1 0x20 ADD PUSH1 0x0 DUP2 MSTORE PUSH1 0x20 ADD PUSH1 0x0 DUP2 MSTORE PUSH1 0x20 ADD PUSH1 0x0 DUP2 MSTORE POP SWAP1 JUMP JUMPDEST PUSH1 0x0 DUP2 CALLDATALOAD SWAP1 POP PUSH2 0x96A DUP2 PUSH2 0x1053 JUMP JUMPDEST SWAP3 SWAP2 POP POP JUMP JUMPDEST PUSH1 0x0 PUSH1 0x20 DUP3 DUP5 SUB SLT ISZERO PUSH2 0x986 JUMPI PUSH2 0x985 PUSH2 0xFB5 JUMP JUMPDEST JUMPDEST PUSH1 0x0 PUSH2 0x994 DUP5 DUP3 DUP6 ADD PUSH2 0x95B JUMP JUMPDEST SWAP2 POP POP SWAP3 SWAP2 POP POP JUMP JUMPDEST PUSH2 0x9AE PUSH2 0x9A9 DUP3 PUSH2 0xDE3 JUMP JUMPDEST PUSH2 0xE9A JUMP JUMPDEST DUP3 MSTORE POP POP JUMP JUMPDEST PUSH2 0x9BD DUP2 PUSH2 0xDF5 JUMP JUMPDEST DUP3 MSTORE POP POP JUMP JUMPDEST PUSH2 0x9CC DUP2 PUSH2 0xE01 JUMP JUMPDEST DUP3 MSTORE POP POP JUMP JUMPDEST PUSH1 0x0 PUSH2 0x9DD DUP3 PUSH2 0xCCC JUMP JUMPDEST PUSH2 0x9E7 DUP2 DUP6 PUSH2 0xCD7 JUMP JUMPDEST SWAP4 POP PUSH2 0x9F7 DUP2 DUP6 PUSH1 0x20 DUP7 ADD PUSH2 0xE35 JUMP JUMPDEST PUSH2 0xA00 DUP2 PUSH2 0xFBA JUMP JUMPDEST DUP5 ADD SWAP2 POP POP SWAP3 SWAP2 POP POP JUMP JUMPDEST PUSH1 0x0 PUSH2 0xA18 PUSH1 0xE DUP4 PUSH2 0xCE8 JUMP JUMPDEST SWAP2 POP PUSH2 0xA23 DUP3 PUSH2 0xFD8 JUMP JUMPDEST PUSH1 0x20 DUP3 ADD SWAP1 POP SWAP2 SWAP1 POP JUMP JUMPDEST PUSH1 0x0 PUSH2 0xA3B PUSH1 0x18 DUP4 PUSH2 0xCE8 JUMP JUMPDEST SWAP2 POP PUSH2 0xA46 DUP3 PUSH2 0x1001 JUMP JUMPDEST PUSH1 0x20 DUP3 ADD SWAP1 POP SWAP2 SWAP1 POP JUMP JUMPDEST PUSH1 0x0 PUSH2 0xA5E PUSH1 0x13 DUP4 PUSH2 0xCE8 JUMP JUMPDEST SWAP2 POP PUSH2 0xA69 DUP3 PUSH2 0x102A JUMP JUMPDEST PUSH1 0x20 DUP3 ADD SWAP1 POP SWAP2 SWAP1 POP JUMP JUMPDEST PUSH1 0x0 PUSH2 0x180 DUP4 ADD PUSH1 0x0 DUP4 ADD MLOAD DUP5 DUP3 SUB PUSH1 0x0 DUP7 ADD MSTORE PUSH2 0xA92 DUP3 DUP3 PUSH2 0x9D2 JUMP JUMPDEST SWAP2 POP POP PUSH1 0x20 DUP4 ADD MLOAD PUSH2 0xAA7 PUSH1 0x20 DUP7 ADD DUP3 PUSH2 0xB78 JUMP JUMPDEST POP PUSH1 0x40 DUP4 ADD MLOAD PUSH2 0xABA PUSH1 0x40 DUP7 ADD DUP3 PUSH2 0xB78 JUMP JUMPDEST POP PUSH1 0x60 DUP4 ADD MLOAD PUSH2 0xACD PUSH1 0x60 DUP7 ADD DUP3 PUSH2 0xB78 JUMP JUMPDEST POP PUSH1 0x80 DUP4 ADD MLOAD PUSH2 0xAE0 PUSH1 0x80 DUP7 ADD DUP3 PUSH2 0xB78 JUMP JUMPDEST POP PUSH1 0xA0 DUP4 ADD MLOAD PUSH2 0xAF3 PUSH1 0xA0 DUP7 ADD DUP3 PUSH2 0xB78 JUMP JUMPDEST POP PUSH1 0xC0 DUP4 ADD MLOAD PUSH2 0xB06 PUSH1 0xC0 DUP7 ADD DUP3 PUSH2 0xB78 JUMP JUMPDEST POP PUSH1 0xE0 DUP4 ADD MLOAD PUSH2 0xB19 PUSH1 0xE0 DUP7 ADD DUP3 PUSH2 0xB78 JUMP JUMPDEST POP PUSH2 0x100 DUP4 ADD MLOAD PUSH2 0xB2E PUSH2 0x100 DUP7 ADD DUP3 PUSH2 0xB78 JUMP JUMPDEST POP PUSH2 0x120 DUP4 ADD MLOAD PUSH2 0xB43 PUSH2 0x120 DUP7 ADD DUP3 PUSH2 0xB78 JUMP JUMPDEST POP PUSH2 0x140 DUP4 ADD MLOAD PUSH2 0xB58 PUSH2 0x140 DUP7 ADD DUP3 PUSH2 0xB78 JUMP JUMPDEST POP PUSH2 0x160 DUP4 ADD MLOAD PUSH2 0xB6D PUSH2 0x160 DUP7 ADD DUP3 PUSH2 0xB78 JUMP JUMPDEST POP DUP1 SWAP2 POP POP SWAP3 SWAP2 POP POP JUMP JUMPDEST PUSH2 0xB81 DUP2 PUSH2 0xE2B JUMP JUMPDEST DUP3 MSTORE POP POP JUMP JUMPDEST PUSH2 0xB90 DUP2 PUSH2 0xE2B JUMP JUMPDEST DUP3 MSTORE POP POP JUMP JUMPDEST PUSH2 0xBA7 PUSH2 0xBA2 DUP3 PUSH2 0xE2B JUMP JUMPDEST PUSH2 0xEBE JUMP JUMPDEST DUP3 MSTORE POP POP JUMP JUMPDEST PUSH1 0x0 PUSH2 0xBB9 DUP3 DUP7 PUSH2 0xB96 JUMP JUMPDEST PUSH1 0x20 DUP3 ADD SWAP2 POP PUSH2 0xBC9 DUP3 DUP6 PUSH2 0xB96 JUMP JUMPDEST PUSH1 0x20 DUP3 ADD SWAP2 POP PUSH2 0xBD9 DUP3 DUP5 PUSH2 0x99D JUMP JUMPDEST PUSH1 0x14 DUP3 ADD SWAP2 POP DUP2 SWAP1 POP SWAP5 SWAP4 POP POP POP POP JUMP JUMPDEST PUSH1 0x0 PUSH1 0x20 DUP3 ADD SWAP1 POP PUSH2 0xBFF PUSH1 0x0 DUP4 ADD DUP5 PUSH2 0x9C3 JUMP JUMPDEST SWAP3 SWAP2 POP POP JUMP JUMPDEST PUSH1 0x0 PUSH1 0x20 DUP3 ADD SWAP1 POP DUP2 DUP2 SUB PUSH1 0x0 DUP4 ADD MSTORE PUSH2 0xC1E DUP2 PUSH2 0xA0B JUMP JUMPDEST SWAP1 POP SWAP2 SWAP1 POP JUMP JUMPDEST PUSH1 0x0 PUSH1 0x20 DUP3 ADD SWAP1 POP DUP2 DUP2 SUB PUSH1 0x0 DUP4 ADD MSTORE PUSH2 0xC3E DUP2 PUSH2 0xA2E JUMP JUMPDEST SWAP1 POP SWAP2 SWAP1 POP JUMP JUMPDEST PUSH1 0x0 PUSH1 0x20 DUP3 ADD SWAP1 POP DUP2 DUP2 SUB PUSH1 0x0 DUP4 ADD MSTORE PUSH2 0xC5E DUP2 PUSH2 0xA51 JUMP JUMPDEST SWAP1 POP SWAP2 SWAP1 POP JUMP JUMPDEST PUSH1 0x0 PUSH1 0x20 DUP3 ADD SWAP1 POP DUP2 DUP2 SUB PUSH1 0x0 DUP4 ADD MSTORE PUSH2 0xC7F DUP2 DUP5 PUSH2 0xA74 JUMP JUMPDEST SWAP1 POP SWAP3 SWAP2 POP POP JUMP JUMPDEST PUSH1 0x0 PUSH1 0x80 DUP3 ADD SWAP1 POP PUSH2 0xC9C PUSH1 0x0 DUP4 ADD DUP8 PUSH2 0xB87 JUMP JUMPDEST PUSH2 0xCA9 PUSH1 0x20 DUP4 ADD DUP7 PUSH2 0x9B4 JUMP JUMPDEST PUSH2 0xCB6 PUSH1 0x40 DUP4 ADD DUP6 PUSH2 0xB87 JUMP JUMPDEST PUSH2 0xCC3 PUSH1 0x60 DUP4 ADD DUP5 PUSH2 0xB87 JUMP JUMPDEST SWAP6 SWAP5 POP POP POP POP POP JUMP JUMPDEST PUSH1 0x0 DUP2 MLOAD SWAP1 POP SWAP2 SWAP1 POP JUMP JUMPDEST PUSH1 0x0 DUP3 DUP3 MSTORE PUSH1 0x20 DUP3 ADD SWAP1 POP SWAP3 SWAP2 POP POP JUMP JUMPDEST PUSH1 0x0 DUP3 DUP3 MSTORE PUSH1 0x20 DUP3 ADD SWAP1 POP SWAP3 SWAP2 POP POP JUMP JUMPDEST PUSH1 0x0 PUSH2 0xD04 DUP3 PUSH2 0xE01 JUMP JUMPDEST SWAP2 POP PUSH2 0xD0F DUP4 PUSH2 0xE01 JUMP JUMPDEST SWAP3 POP DUP2 PUSH32 0x7FFFFFFFFFFFFFFFFFFFFFFFFFFFFFFFFFFFFFFFFFFFFFFFFFFFFFFFFFFFFFFF SUB DUP4 SGT PUSH1 0x0 DUP4 SLT ISZERO AND ISZERO PUSH2 0xD4A JUMPI PUSH2 0xD49 PUSH2 0xEF9 JUMP JUMPDEST JUMPDEST DUP2 PUSH32 0x8000000000000000000000000000000000000000000000000000000000000000 SUB DUP4 SLT PUSH1 0x0 DUP4 SLT AND ISZERO PUSH2 0xD82 JUMPI PUSH2 0xD81 PUSH2 0xEF9 JUMP JUMPDEST JUMPDEST DUP3 DUP3 ADD SWAP1 POP SWAP3 SWAP2 POP POP JUMP JUMPDEST PUSH1 0x0 PUSH2 0xD98 DUP3 PUSH2 0xE2B JUMP JUMPDEST SWAP2 POP PUSH2 0xDA3 DUP4 PUSH2 0xE2B JUMP JUMPDEST SWAP3 POP DUP3 PUSH32 0xFFFFFFFFFFFFFFFFFFFFFFFFFFFFFFFFFFFFFFFFFFFFFFFFFFFFFFFFFFFFFFFF SUB DUP3 GT ISZERO PUSH2 0xDD8 JUMPI PUSH2 0xDD7 PUSH2 0xEF9 JUMP JUMPDEST JUMPDEST DUP3 DUP3 ADD SWAP1 POP SWAP3 SWAP2 POP POP JUMP JUMPDEST PUSH1 0x0 PUSH2 0xDEE DUP3 PUSH2 0xE0B JUMP JUMPDEST SWAP1 POP SWAP2 SWAP1 POP JUMP JUMPDEST PUSH1 0x0 DUP2 ISZERO ISZERO SWAP1 POP SWAP2 SWAP1 POP JUMP JUMPDEST PUSH1 0x0 DUP2 SWAP1 POP SWAP2 SWAP1 POP JUMP JUMPDEST PUSH1 0x0 PUSH20 0xFFFFFFFFFFFFFFFFFFFFFFFFFFFFFFFFFFFFFFFF DUP3 AND SWAP1 POP SWAP2 SWAP1 POP JUMP JUMPDEST PUSH1 0x0 DUP2 SWAP1 POP SWAP2 SWAP1 POP JUMP JUMPDEST PUSH1 0x0 JUMPDEST DUP4 DUP2 LT ISZERO PUSH2 0xE53 JUMPI DUP1 DUP3 ADD MLOAD DUP2 DUP5 ADD MSTORE PUSH1 0x20 DUP2 ADD SWAP1 POP PUSH2 0xE38 JUMP JUMPDEST DUP4 DUP2 GT ISZERO PUSH2 0xE62 JUMPI PUSH1 0x0 DUP5 DUP5 ADD MSTORE JUMPDEST POP POP POP POP JUMP JUMPDEST PUSH1 0x0 PUSH1 0x2 DUP3 DIV SWAP1 POP PUSH1 0x1 DUP3 AND DUP1 PUSH2 0xE80 JUMPI PUSH1 0x7F DUP3 AND SWAP2 POP JUMPDEST PUSH1 0x20 DUP3 LT DUP2 EQ ISZERO PUSH2 0xE94 JUMPI PUSH2 0xE93 PUSH2 0xF57 JUMP JUMPDEST JUMPDEST POP SWAP2 SWAP1 POP JUMP JUMPDEST PUSH1 0x0 PUSH2 0xEA5 DUP3 PUSH2 0xEAC JUMP JUMPDEST SWAP1 POP SWAP2 SWAP1 POP JUMP JUMPDEST PUSH1 0x0 PUSH2 0xEB7 DUP3 PUSH2 0xFCB JUMP JUMPDEST SWAP1 POP SWAP2 SWAP1 POP JUMP JUMPDEST PUSH1 0x0 DUP2 SWAP1 POP SWAP2 SWAP1 POP JUMP JUMPDEST PUSH1 0x0 PUSH2 0xED3 DUP3 PUSH2 0xE2B JUMP JUMPDEST SWAP2 POP PUSH2 0xEDE DUP4 PUSH2 0xE2B JUMP JUMPDEST SWAP3 POP DUP3 PUSH2 0xEEE JUMPI PUSH2 0xEED PUSH2 0xF28 JUMP JUMPDEST JUMPDEST DUP3 DUP3 MOD SWAP1 POP SWAP3 SWAP2 POP POP JUMP JUMPDEST PUSH32 0x4E487B7100000000000000000000000000000000000000000000000000000000 PUSH1 0x0 MSTORE PUSH1 0x11 PUSH1 0x4 MSTORE PUSH1 0x24 PUSH1 0x0 REVERT JUMPDEST PUSH32 0x4E487B7100000000000000000000000000000000000000000000000000000000 PUSH1 0x0 MSTORE PUSH1 0x12 PUSH1 0x4 MSTORE PUSH1 0x24 PUSH1 0x0 REVERT JUMPDEST PUSH32 0x4E487B7100000000000000000000000000000000000000000000000000000000 PUSH1 0x0 MSTORE PUSH1 0x22 PUSH1 0x4 MSTORE PUSH1 0x24 PUSH1 0x0 REVERT JUMPDEST PUSH32 0x4E487B7100000000000000000000000000000000000000000000000000000000 PUSH1 0x0 MSTORE PUSH1 0x32 PUSH1 0x4 MSTORE PUSH1 0x24 PUSH1 0x0 REVERT JUMPDEST PUSH1 0x0 DUP1 REVERT JUMPDEST PUSH1 0x0 PUSH1 0x1F NOT PUSH1 0x1F DUP4 ADD AND SWAP1 POP SWAP2 SWAP1 POP JUMP JUMPDEST PUSH1 0x0 DUP2 PUSH1 0x60 SHL SWAP1 POP SWAP2 SWAP1 POP JUMP JUMPDEST PUSH32 0x416C726561647920766F7465642E000000000000000000000000000000000000 PUSH1 0x0 DUP3 ADD MSTORE POP JUMP JUMPDEST PUSH32 0x54686520766F74657220616C726561647920766F7465642E0000000000000000 PUSH1 0x0 DUP3 ADD MSTORE POP JUMP JUMPDEST PUSH32 0x52656163686564206D617820766F746572732E00000000000000000000000000 PUSH1 0x0 DUP3 ADD MSTORE POP JUMP JUMPDEST PUSH2 0x105C DUP2 PUSH2 0xE2B JUMP JUMPDEST DUP2 EQ PUSH2 0x1067 JUMPI PUSH1 0x0 DUP1 REVERT JUMPDEST POP JUMP INVALID LOG2 PUSH5 0x6970667358 0x22 SLT KECCAK256 0xD3 0xD1 INVALID PUSH30 0x49A4F64F89DCA8F98C4862CE8A601525324DE1D624460F9F8EAEE8196473 PUSH16 0x6C634300080700330000000000000000 "
				},
				"gasEstimates": {
					"creation": {
						"codeDepositCost": "851200",
						"executionCost": "infinite",
						"totalCost": "infinite"
					},
					"external": {
						"axx(uint256)": "infinite",
						"countV()": "2451",
						"res(uint256)": "infinite",
						"vote()": "infinite"
					},
					"internal": {
						"countVoters()": "infinite",
						"random_district()": "infinite",
						"random_vote()": "infinite"
					}
				},
				"methodIdentifiers": {
					"axx(uint256)": "64030a19",
					"countV()": "6d8f3f10",
					"res(uint256)": "d4e8fd2e",
					"vote()": "632a9a52"
				}
			},
			"storageLayout": {
				"storage": [
					{
						"astId": 38,
						"contract": "smartContract/contracts/3_Ballot.sol:Ballot",
						"label": "chairperson",
						"offset": 0,
						"slot": "0",
						"type": "t_address"
					},
					{
						"astId": 43,
						"contract": "smartContract/contracts/3_Ballot.sol:Ballot",
						"label": "voters",
						"offset": 0,
						"slot": "1",
						"type": "t_mapping(t_address,t_struct(Voter)11_storage)"
					},
					{
						"astId": 47,
						"contract": "smartContract/contracts/3_Ballot.sol:Ballot",
						"label": "axx",
						"offset": 0,
						"slot": "2",
						"type": "t_array(t_struct(Voter)11_storage)dyn_storage"
					},
					{
						"astId": 51,
						"contract": "smartContract/contracts/3_Ballot.sol:Ballot",
						"label": "proposals",
						"offset": 0,
						"slot": "3",
						"type": "t_array(t_struct(Proposal)36_storage)dyn_storage"
					},
					{
						"astId": 148,
						"contract": "smartContract/contracts/3_Ballot.sol:Ballot",
						"label": "countV",
						"offset": 0,
						"slot": "4",
						"type": "t_int256"
					}
				],
				"types": {
					"t_address": {
						"encoding": "inplace",
						"label": "address",
						"numberOfBytes": "20"
					},
					"t_array(t_struct(Proposal)36_storage)dyn_storage": {
						"base": "t_struct(Proposal)36_storage",
						"encoding": "dynamic_array",
						"label": "struct Ballot.Proposal[]",
						"numberOfBytes": "32"
					},
					"t_array(t_struct(Voter)11_storage)dyn_storage": {
						"base": "t_struct(Voter)11_storage",
						"encoding": "dynamic_array",
						"label": "struct Ballot.Voter[]",
						"numberOfBytes": "32"
					},
					"t_bool": {
						"encoding": "inplace",
						"label": "bool",
						"numberOfBytes": "1"
					},
					"t_int256": {
						"encoding": "inplace",
						"label": "int256",
						"numberOfBytes": "32"
					},
					"t_mapping(t_address,t_struct(Voter)11_storage)": {
						"encoding": "mapping",
						"key": "t_address",
						"label": "mapping(address => struct Ballot.Voter)",
						"numberOfBytes": "32",
						"value": "t_struct(Voter)11_storage"
					},
					"t_string_storage": {
						"encoding": "bytes",
						"label": "string",
						"numberOfBytes": "32"
					},
					"t_struct(Proposal)36_storage": {
						"encoding": "inplace",
						"label": "struct Ballot.Proposal",
						"members": [
							{
								"astId": 13,
								"contract": "smartContract/contracts/3_Ballot.sol:Ballot",
								"label": "name",
								"offset": 0,
								"slot": "0",
								"type": "t_string_storage"
							},
							{
								"astId": 15,
								"contract": "smartContract/contracts/3_Ballot.sol:Ballot",
								"label": "Total_Votes",
								"offset": 0,
								"slot": "1",
								"type": "t_uint256"
							},
							{
								"astId": 17,
								"contract": "smartContract/contracts/3_Ballot.sol:Ballot",
								"label": "Votes_District0",
								"offset": 0,
								"slot": "2",
								"type": "t_uint256"
							},
							{
								"astId": 19,
								"contract": "smartContract/contracts/3_Ballot.sol:Ballot",
								"label": "Votes_District1",
								"offset": 0,
								"slot": "3",
								"type": "t_uint256"
							},
							{
								"astId": 21,
								"contract": "smartContract/contracts/3_Ballot.sol:Ballot",
								"label": "Votes_District2",
								"offset": 0,
								"slot": "4",
								"type": "t_uint256"
							},
							{
								"astId": 23,
								"contract": "smartContract/contracts/3_Ballot.sol:Ballot",
								"label": "Votes_District3",
								"offset": 0,
								"slot": "5",
								"type": "t_uint256"
							},
							{
								"astId": 25,
								"contract": "smartContract/contracts/3_Ballot.sol:Ballot",
								"label": "Votes_District4",
								"offset": 0,
								"slot": "6",
								"type": "t_uint256"
							},
							{
								"astId": 27,
								"contract": "smartContract/contracts/3_Ballot.sol:Ballot",
								"label": "Votes_District5",
								"offset": 0,
								"slot": "7",
								"type": "t_uint256"
							},
							{
								"astId": 29,
								"contract": "smartContract/contracts/3_Ballot.sol:Ballot",
								"label": "Votes_District6",
								"offset": 0,
								"slot": "8",
								"type": "t_uint256"
							},
							{
								"astId": 31,
								"contract": "smartContract/contracts/3_Ballot.sol:Ballot",
								"label": "Votes_District7",
								"offset": 0,
								"slot": "9",
								"type": "t_uint256"
							},
							{
								"astId": 33,
								"contract": "smartContract/contracts/3_Ballot.sol:Ballot",
								"label": "Votes_District8",
								"offset": 0,
								"slot": "10",
								"type": "t_uint256"
							},
							{
								"astId": 35,
								"contract": "smartContract/contracts/3_Ballot.sol:Ballot",
								"label": "Votes_District9",
								"offset": 0,
								"slot": "11",
								"type": "t_uint256"
							}
						],
						"numberOfBytes": "384"
					},
					"t_struct(Voter)11_storage": {
						"encoding": "inplace",
						"label": "struct Ballot.Voter",
						"members": [
							{
								"astId": 4,
								"contract": "smartContract/contracts/3_Ballot.sol:Ballot",
								"label": "weight",
								"offset": 0,
								"slot": "0",
								"type": "t_uint256"
							},
							{
								"astId": 6,
								"contract": "smartContract/contracts/3_Ballot.sol:Ballot",
								"label": "voted",
								"offset": 0,
								"slot": "1",
								"type": "t_bool"
							},
							{
								"astId": 8,
								"contract": "smartContract/contracts/3_Ballot.sol:Ballot",
								"label": "district",
								"offset": 0,
								"slot": "2",
								"type": "t_uint256"
							},
							{
								"astId": 10,
								"contract": "smartContract/contracts/3_Ballot.sol:Ballot",
								"label": "vote",
								"offset": 0,
								"slot": "3",
								"type": "t_uint256"
							}
						],
						"numberOfBytes": "128"
					},
					"t_uint256": {
						"encoding": "inplace",
						"label": "uint256",
						"numberOfBytes": "32"
					}
				}
			},
			"userdoc": {
				"kind": "user",
				"methods": {},
				"version": 1
			}
		}
	}
}