{
	"smartContract/contracts/3_Ballot.sol": {
		"Ballot": {
			"abi": [
				{
					"inputs": [],
					"stateMutability": "nonpayable",
					"type": "constructor"
				},
				{
					"inputs": [
						{
							"internalType": "uint256",
							"name": "",
							"type": "uint256"
						}
					],
					"name": "axx",
					"outputs": [
						{
							"internalType": "uint256",
							"name": "weight",
							"type": "uint256"
						},
						{
							"internalType": "bool",
							"name": "voted",
							"type": "bool"
						},
						{
							"internalType": "uint256",
							"name": "district",
							"type": "uint256"
						},
						{
							"internalType": "uint256",
							"name": "vote",
							"type": "uint256"
						}
					],
					"stateMutability": "view",
					"type": "function"
				},
				{
					"inputs": [
						{
							"internalType": "uint256",
							"name": "_id",
							"type": "uint256"
						}
					],
					"name": "res",
					"outputs": [
						{
							"components": [
								{
									"internalType": "string",
									"name": "name",
									"type": "string"
								},
								{
									"internalType": "uint256",
									"name": "Total_Votes",
									"type": "uint256"
								},
								{
									"internalType": "uint256",
									"name": "Votes_District0",
									"type": "uint256"
								},
								{
									"internalType": "uint256",
									"name": "Votes_District1",
									"type": "uint256"
								},
								{
									"internalType": "uint256",
									"name": "Votes_District2",
									"type": "uint256"
								},
								{
									"internalType": "uint256",
									"name": "Votes_District3",
									"type": "uint256"
								},
								{
									"internalType": "uint256",
									"name": "Votes_District4",
									"type": "uint256"
								},
								{
									"internalType": "uint256",
									"name": "Votes_District5",
									"type": "uint256"
								},
								{
									"internalType": "uint256",
									"name": "Votes_District6",
									"type": "uint256"
								},
								{
									"internalType": "uint256",
									"name": "Votes_District7",
									"type": "uint256"
								},
								{
									"internalType": "uint256",
									"name": "Votes_District8",
									"type": "uint256"
								},
								{
									"internalType": "uint256",
									"name": "Votes_District9",
									"type": "uint256"
								}
							],
							"internalType": "struct Ballot.Proposal",
							"name": "",
							"type": "tuple"
						}
					],
					"stateMutability": "view",
					"type": "function"
				},
				{
					"inputs": [],
					"name": "vote",
					"outputs": [],
					"stateMutability": "nonpayable",
					"type": "function"
				}
			],
			"devdoc": {
				"details": "Implements voting process along with vote delegation",
				"kind": "dev",
				"methods": {},
				"title": "Ballot",
				"version": 1
			},
			"evm": {
				"assembly": "    /* \"smartContract/contracts/3_Ballot.sol\":157:4383  contract Ballot {... */\n  mstore(0x40, 0x80)\n    /* \"smartContract/contracts/3_Ballot.sol\":2124:2125  0 */\n  0x00\n    /* \"smartContract/contracts/3_Ballot.sol\":2103:2125  int private countV = 0 */\n  0x04\n  sstore\n    /* \"smartContract/contracts/3_Ballot.sol\":1219:2061  constructor() {... */\n  callvalue\n  dup1\n  iszero\n  tag_1\n  jumpi\n  0x00\n  dup1\n  revert\ntag_1:\n  pop\n    /* \"smartContract/contracts/3_Ballot.sol\":1257:1267  msg.sender */\n  caller\n    /* \"smartContract/contracts/3_Ballot.sol\":1243:1254  chairperson */\n  0x00\n  dup1\n    /* \"smartContract/contracts/3_Ballot.sol\":1243:1267  chairperson = msg.sender */\n  0x0100\n  exp\n  dup2\n  sload\n  dup2\n  0xffffffffffffffffffffffffffffffffffffffff\n  mul\n  not\n  and\n  swap1\n  dup4\n  0xffffffffffffffffffffffffffffffffffffffff\n  and\n  mul\n  or\n  swap1\n  sstore\n  pop\n    /* \"smartContract/contracts/3_Ballot.sol\":1306:1307  1 */\n  0x01\n    /* \"smartContract/contracts/3_Ballot.sol\":1277:1283  voters */\n  dup1\n    /* \"smartContract/contracts/3_Ballot.sol\":1277:1296  voters[chairperson] */\n  0x00\n    /* \"smartContract/contracts/3_Ballot.sol\":1284:1295  chairperson */\n  dup1\n  0x00\n  swap1\n  sload\n  swap1\n  0x0100\n  exp\n  swap1\n  div\n  0xffffffffffffffffffffffffffffffffffffffff\n  and\n    /* \"smartContract/contracts/3_Ballot.sol\":1277:1296  voters[chairperson] */\n  0xffffffffffffffffffffffffffffffffffffffff\n  and\n  0xffffffffffffffffffffffffffffffffffffffff\n  and\n  dup2\n  mstore\n  0x20\n  add\n  swap1\n  dup2\n  mstore\n  0x20\n  add\n  0x00\n  keccak256\n    /* \"smartContract/contracts/3_Ballot.sol\":1277:1303  voters[chairperson].weight */\n  0x00\n  add\n    /* \"smartContract/contracts/3_Ballot.sol\":1277:1307  voters[chairperson].weight = 1 */\n  dup2\n  swap1\n  sstore\n  pop\n    /* \"smartContract/contracts/3_Ballot.sol\":1317:1347  string[5] memory proposalNames */\n  0x00\n    /* \"smartContract/contracts/3_Ballot.sol\":1317:1371  string[5] memory proposalNames = [\"a\",\"b\",\"c\",\"d\",\"e\"] */\n  mload(0x40)\n  dup1\n  0xa0\n  add\n  0x40\n  mstore\n  dup1\n  mload(0x40)\n  dup1\n  0x40\n  add\n  0x40\n  mstore\n  dup1\n  0x01\n  dup2\n  mstore\n  0x20\n  add\n  0x6100000000000000000000000000000000000000000000000000000000000000\n  dup2\n  mstore\n  pop\n  dup2\n  mstore\n  0x20\n  add\n  mload(0x40)\n  dup1\n  0x40\n  add\n  0x40\n  mstore\n  dup1\n  0x01\n  dup2\n  mstore\n  0x20\n  add\n  0x6200000000000000000000000000000000000000000000000000000000000000\n  dup2\n  mstore\n  pop\n  dup2\n  mstore\n  0x20\n  add\n  mload(0x40)\n  dup1\n  0x40\n  add\n  0x40\n  mstore\n  dup1\n  0x01\n  dup2\n  mstore\n  0x20\n  add\n  0x6300000000000000000000000000000000000000000000000000000000000000\n  dup2\n  mstore\n  pop\n  dup2\n  mstore\n  0x20\n  add\n  mload(0x40)\n  dup1\n  0x40\n  add\n  0x40\n  mstore\n  dup1\n  0x01\n  dup2\n  mstore\n  0x20\n  add\n  0x6400000000000000000000000000000000000000000000000000000000000000\n  dup2\n  mstore\n  pop\n  dup2\n  mstore\n  0x20\n  add\n  mload(0x40)\n  dup1\n  0x40\n  add\n  0x40\n  mstore\n  dup1\n  0x01\n  dup2\n  mstore\n  0x20\n  add\n  0x6500000000000000000000000000000000000000000000000000000000000000\n  dup2\n  mstore\n  pop\n  dup2\n  mstore\n  pop\n  swap1\n  pop\n    /* \"smartContract/contracts/3_Ballot.sol\":1411:1412  5 */\n  0x05\n    /* \"smartContract/contracts/3_Ballot.sol\":1389:1409  proposalNames.length */\n  dup1\n    /* \"smartContract/contracts/3_Ballot.sol\":1389:1412  proposalNames.length==5 */\n  eq\n    /* \"smartContract/contracts/3_Ballot.sol\":1381:1437  require(proposalNames.length==5,\"Candidates must be 5.\") */\n  tag_4\n  jumpi\n  mload(0x40)\n  0x08c379a000000000000000000000000000000000000000000000000000000000\n  dup2\n  mstore\n  0x04\n  add\n  tag_5\n  swap1\n  tag_6\n  jump\t// in\ntag_5:\n  mload(0x40)\n  dup1\n  swap2\n  sub\n  swap1\n  revert\ntag_4:\n    /* \"smartContract/contracts/3_Ballot.sol\":1452:1458  uint i */\n  0x00\n    /* \"smartContract/contracts/3_Ballot.sol\":1447:2055  for (uint i = 0; i < proposalNames.length; i++) {... */\ntag_7:\n    /* \"smartContract/contracts/3_Ballot.sol\":1468:1488  proposalNames.length */\n  0x05\n    /* \"smartContract/contracts/3_Ballot.sol\":1464:1465  i */\n  dup2\n    /* \"smartContract/contracts/3_Ballot.sol\":1464:1488  i < proposalNames.length */\n  lt\n    /* \"smartContract/contracts/3_Ballot.sol\":1447:2055  for (uint i = 0; i < proposalNames.length; i++) {... */\n  iszero\n  tag_8\n  jumpi\n    /* \"smartContract/contracts/3_Ballot.sol\":1509:1518  proposals */\n  0x03\n    /* \"smartContract/contracts/3_Ballot.sol\":1524:2043  Proposal({... */\n  mload(0x40)\n  dup1\n  0x0180\n  add\n  0x40\n  mstore\n  dup1\n    /* \"smartContract/contracts/3_Ballot.sol\":1557:1570  proposalNames */\n  dup5\n    /* \"smartContract/contracts/3_Ballot.sol\":1571:1572  i */\n  dup5\n    /* \"smartContract/contracts/3_Ballot.sol\":1557:1573  proposalNames[i] */\n  0x05\n  dup2\n  lt\n  tag_10\n  jumpi\n  tag_11\n  tag_12\n  jump\t// in\ntag_11:\ntag_10:\n  0x20\n  mul\n  add\n  mload\n    /* \"smartContract/contracts/3_Ballot.sol\":1524:2043  Proposal({... */\n  dup2\n  mstore\n  0x20\n  add\n    /* \"smartContract/contracts/3_Ballot.sol\":1667:1668  0 */\n  0x00\n    /* \"smartContract/contracts/3_Ballot.sol\":1524:2043  Proposal({... */\n  dup2\n  mstore\n  0x20\n  add\n    /* \"smartContract/contracts/3_Ballot.sol\":1703:1704  0 */\n  0x00\n    /* \"smartContract/contracts/3_Ballot.sol\":1524:2043  Proposal({... */\n  dup2\n  mstore\n  0x20\n  add\n    /* \"smartContract/contracts/3_Ballot.sol\":1739:1740  0 */\n  0x00\n    /* \"smartContract/contracts/3_Ballot.sol\":1524:2043  Proposal({... */\n  dup2\n  mstore\n  0x20\n  add\n    /* \"smartContract/contracts/3_Ballot.sol\":1775:1776  0 */\n  0x00\n    /* \"smartContract/contracts/3_Ballot.sol\":1524:2043  Proposal({... */\n  dup2\n  mstore\n  0x20\n  add\n    /* \"smartContract/contracts/3_Ballot.sol\":1811:1812  0 */\n  0x00\n    /* \"smartContract/contracts/3_Ballot.sol\":1524:2043  Proposal({... */\n  dup2\n  mstore\n  0x20\n  add\n    /* \"smartContract/contracts/3_Ballot.sol\":1847:1848  0 */\n  0x00\n    /* \"smartContract/contracts/3_Ballot.sol\":1524:2043  Proposal({... */\n  dup2\n  mstore\n  0x20\n  add\n    /* \"smartContract/contracts/3_Ballot.sol\":1883:1884  0 */\n  0x00\n    /* \"smartContract/contracts/3_Ballot.sol\":1524:2043  Proposal({... */\n  dup2\n  mstore\n  0x20\n  add\n    /* \"smartContract/contracts/3_Ballot.sol\":1919:1920  0 */\n  0x00\n    /* \"smartContract/contracts/3_Ballot.sol\":1524:2043  Proposal({... */\n  dup2\n  mstore\n  0x20\n  add\n    /* \"smartContract/contracts/3_Ballot.sol\":1955:1956  0 */\n  0x00\n    /* \"smartContract/contracts/3_Ballot.sol\":1524:2043  Proposal({... */\n  dup2\n  mstore\n  0x20\n  add\n    /* \"smartContract/contracts/3_Ballot.sol\":1991:1992  0 */\n  0x00\n    /* \"smartContract/contracts/3_Ballot.sol\":1524:2043  Proposal({... */\n  dup2\n  mstore\n  0x20\n  add\n    /* \"smartContract/contracts/3_Ballot.sol\":2027:2028  0 */\n  0x00\n    /* \"smartContract/contracts/3_Ballot.sol\":1524:2043  Proposal({... */\n  dup2\n  mstore\n  pop\n    /* \"smartContract/contracts/3_Ballot.sol\":1509:2044  proposals.push(Proposal({... */\n  swap1\n  dup1\n  0x01\n  dup2\n  sload\n  add\n  dup1\n  dup3\n  sstore\n  dup1\n  swap2\n  pop\n  pop\n  0x01\n  swap1\n  sub\n  swap1\n  0x00\n  mstore\n  keccak256(0x00, 0x20)\n  swap1\n  0x0c\n  mul\n  add\n  0x00\n  swap1\n  swap2\n  swap1\n  swap2\n  swap1\n  swap2\n  pop\n  0x00\n  dup3\n  add\n  mload\n  dup2\n  0x00\n  add\n  swap1\n  dup1\n  mload\n  swap1\n  0x20\n  add\n  swap1\n  tag_14\n  swap3\n  swap2\n  swap1\n  tag_15\n  jump\t// in\ntag_14:\n  pop\n  0x20\n  dup3\n  add\n  mload\n  dup2\n  0x01\n  add\n  sstore\n  0x40\n  dup3\n  add\n  mload\n  dup2\n  0x02\n  add\n  sstore\n  0x60\n  dup3\n  add\n  mload\n  dup2\n  0x03\n  add\n  sstore\n  0x80\n  dup3\n  add\n  mload\n  dup2\n  0x04\n  add\n  sstore\n  0xa0\n  dup3\n  add\n  mload\n  dup2\n  0x05\n  add\n  sstore\n  0xc0\n  dup3\n  add\n  mload\n  dup2\n  0x06\n  add\n  sstore\n  0xe0\n  dup3\n  add\n  mload\n  dup2\n  0x07\n  add\n  sstore\n  0x0100\n  dup3\n  add\n  mload\n  dup2\n  0x08\n  add\n  sstore\n  0x0120\n  dup3\n  add\n  mload\n  dup2\n  0x09\n  add\n  sstore\n  0x0140\n  dup3\n  add\n  mload\n  dup2\n  0x0a\n  add\n  sstore\n  0x0160\n  dup3\n  add\n  mload\n  dup2\n  0x0b\n  add\n  sstore\n  pop\n  pop\n    /* \"smartContract/contracts/3_Ballot.sol\":1490:1493  i++ */\n  dup1\n  dup1\n  tag_16\n  swap1\n  tag_17\n  jump\t// in\ntag_16:\n  swap2\n  pop\n  pop\n    /* \"smartContract/contracts/3_Ballot.sol\":1447:2055  for (uint i = 0; i < proposalNames.length; i++) {... */\n  jump(tag_7)\ntag_8:\n  pop\n    /* \"smartContract/contracts/3_Ballot.sol\":1233:2061  {... */\n  pop\n    /* \"smartContract/contracts/3_Ballot.sol\":157:4383  contract Ballot {... */\n  jump(tag_18)\ntag_15:\n  dup3\n  dup1\n  sload\n  tag_19\n  swap1\n  tag_20\n  jump\t// in\ntag_19:\n  swap1\n  0x00\n  mstore\n  keccak256(0x00, 0x20)\n  swap1\n  0x1f\n  add\n  0x20\n  swap1\n  div\n  dup2\n  add\n  swap3\n  dup3\n  tag_22\n  jumpi\n  0x00\n  dup6\n  sstore\n  jump(tag_21)\ntag_22:\n  dup3\n  0x1f\n  lt\n  tag_23\n  jumpi\n  dup1\n  mload\n  not(0xff)\n  and\n  dup4\n  dup1\n  add\n  or\n  dup6\n  sstore\n  jump(tag_21)\ntag_23:\n  dup3\n  dup1\n  add\n  0x01\n  add\n  dup6\n  sstore\n  dup3\n  iszero\n  tag_21\n  jumpi\n  swap2\n  dup3\n  add\ntag_24:\n  dup3\n  dup2\n  gt\n  iszero\n  tag_25\n  jumpi\n  dup3\n  mload\n  dup3\n  sstore\n  swap2\n  0x20\n  add\n  swap2\n  swap1\n  0x01\n  add\n  swap1\n  jump(tag_24)\ntag_25:\ntag_21:\n  pop\n  swap1\n  pop\n  tag_26\n  swap2\n  swap1\n  tag_27\n  jump\t// in\ntag_26:\n  pop\n  swap1\n  jump\t// out\ntag_27:\ntag_28:\n  dup1\n  dup3\n  gt\n  iszero\n  tag_29\n  jumpi\n  0x00\n  dup2\n  0x00\n  swap1\n  sstore\n  pop\n  0x01\n  add\n  jump(tag_28)\ntag_29:\n  pop\n  swap1\n  jump\t// out\n    /* \"#utility.yul\":7:373   */\ntag_31:\n    /* \"#utility.yul\":149:152   */\n  0x00\n    /* \"#utility.yul\":170:237   */\n  tag_33\n    /* \"#utility.yul\":234:236   */\n  0x15\n    /* \"#utility.yul\":229:232   */\n  dup4\n    /* \"#utility.yul\":170:237   */\n  tag_34\n  jump\t// in\ntag_33:\n    /* \"#utility.yul\":163:237   */\n  swap2\n  pop\n    /* \"#utility.yul\":246:339   */\n  tag_35\n    /* \"#utility.yul\":335:338   */\n  dup3\n    /* \"#utility.yul\":246:339   */\n  tag_36\n  jump\t// in\ntag_35:\n    /* \"#utility.yul\":364:366   */\n  0x20\n    /* \"#utility.yul\":359:362   */\n  dup3\n    /* \"#utility.yul\":355:367   */\n  add\n    /* \"#utility.yul\":348:367   */\n  swap1\n  pop\n    /* \"#utility.yul\":7:373   */\n  swap2\n  swap1\n  pop\n  jump\t// out\n    /* \"#utility.yul\":379:798   */\ntag_6:\n    /* \"#utility.yul\":545:549   */\n  0x00\n    /* \"#utility.yul\":583:585   */\n  0x20\n    /* \"#utility.yul\":572:581   */\n  dup3\n    /* \"#utility.yul\":568:586   */\n  add\n    /* \"#utility.yul\":560:586   */\n  swap1\n  pop\n    /* \"#utility.yul\":632:641   */\n  dup2\n    /* \"#utility.yul\":626:630   */\n  dup2\n    /* \"#utility.yul\":622:642   */\n  sub\n    /* \"#utility.yul\":618:619   */\n  0x00\n    /* \"#utility.yul\":607:616   */\n  dup4\n    /* \"#utility.yul\":603:620   */\n  add\n    /* \"#utility.yul\":596:643   */\n  mstore\n    /* \"#utility.yul\":660:791   */\n  tag_38\n    /* \"#utility.yul\":786:790   */\n  dup2\n    /* \"#utility.yul\":660:791   */\n  tag_31\n  jump\t// in\ntag_38:\n    /* \"#utility.yul\":652:791   */\n  swap1\n  pop\n    /* \"#utility.yul\":379:798   */\n  swap2\n  swap1\n  pop\n  jump\t// out\n    /* \"#utility.yul\":804:973   */\ntag_34:\n    /* \"#utility.yul\":888:899   */\n  0x00\n    /* \"#utility.yul\":922:928   */\n  dup3\n    /* \"#utility.yul\":917:920   */\n  dup3\n    /* \"#utility.yul\":910:929   */\n  mstore\n    /* \"#utility.yul\":962:966   */\n  0x20\n    /* \"#utility.yul\":957:960   */\n  dup3\n    /* \"#utility.yul\":953:967   */\n  add\n    /* \"#utility.yul\":938:967   */\n  swap1\n  pop\n    /* \"#utility.yul\":804:973   */\n  swap3\n  swap2\n  pop\n  pop\n  jump\t// out\n    /* \"#utility.yul\":979:1056   */\ntag_40:\n    /* \"#utility.yul\":1016:1023   */\n  0x00\n    /* \"#utility.yul\":1045:1050   */\n  dup2\n    /* \"#utility.yul\":1034:1050   */\n  swap1\n  pop\n    /* \"#utility.yul\":979:1056   */\n  swap2\n  swap1\n  pop\n  jump\t// out\n    /* \"#utility.yul\":1062:1382   */\ntag_20:\n    /* \"#utility.yul\":1106:1112   */\n  0x00\n    /* \"#utility.yul\":1143:1144   */\n  0x02\n    /* \"#utility.yul\":1137:1141   */\n  dup3\n    /* \"#utility.yul\":1133:1145   */\n  div\n    /* \"#utility.yul\":1123:1145   */\n  swap1\n  pop\n    /* \"#utility.yul\":1190:1191   */\n  0x01\n    /* \"#utility.yul\":1184:1188   */\n  dup3\n    /* \"#utility.yul\":1180:1192   */\n  and\n    /* \"#utility.yul\":1211:1229   */\n  dup1\n    /* \"#utility.yul\":1201:1282   */\n  tag_43\n  jumpi\n    /* \"#utility.yul\":1267:1271   */\n  0x7f\n    /* \"#utility.yul\":1259:1265   */\n  dup3\n    /* \"#utility.yul\":1255:1272   */\n  and\n    /* \"#utility.yul\":1245:1272   */\n  swap2\n  pop\n    /* \"#utility.yul\":1201:1282   */\ntag_43:\n    /* \"#utility.yul\":1329:1331   */\n  0x20\n    /* \"#utility.yul\":1321:1327   */\n  dup3\n    /* \"#utility.yul\":1318:1332   */\n  lt\n    /* \"#utility.yul\":1298:1316   */\n  dup2\n    /* \"#utility.yul\":1295:1333   */\n  eq\n    /* \"#utility.yul\":1292:1376   */\n  iszero\n  tag_44\n  jumpi\n    /* \"#utility.yul\":1348:1366   */\n  tag_45\n  tag_46\n  jump\t// in\ntag_45:\n    /* \"#utility.yul\":1292:1376   */\ntag_44:\n    /* \"#utility.yul\":1113:1382   */\n  pop\n    /* \"#utility.yul\":1062:1382   */\n  swap2\n  swap1\n  pop\n  jump\t// out\n    /* \"#utility.yul\":1388:1621   */\ntag_17:\n    /* \"#utility.yul\":1427:1430   */\n  0x00\n    /* \"#utility.yul\":1450:1474   */\n  tag_48\n    /* \"#utility.yul\":1468:1473   */\n  dup3\n    /* \"#utility.yul\":1450:1474   */\n  tag_40\n  jump\t// in\ntag_48:\n    /* \"#utility.yul\":1441:1474   */\n  swap2\n  pop\n    /* \"#utility.yul\":1496:1562   */\n  0xffffffffffffffffffffffffffffffffffffffffffffffffffffffffffffffff\n    /* \"#utility.yul\":1489:1494   */\n  dup3\n    /* \"#utility.yul\":1486:1563   */\n  eq\n    /* \"#utility.yul\":1483:1586   */\n  iszero\n  tag_49\n  jumpi\n    /* \"#utility.yul\":1566:1584   */\n  tag_50\n  tag_51\n  jump\t// in\ntag_50:\n    /* \"#utility.yul\":1483:1586   */\ntag_49:\n    /* \"#utility.yul\":1613:1614   */\n  0x01\n    /* \"#utility.yul\":1606:1611   */\n  dup3\n    /* \"#utility.yul\":1602:1615   */\n  add\n    /* \"#utility.yul\":1595:1615   */\n  swap1\n  pop\n    /* \"#utility.yul\":1388:1621   */\n  swap2\n  swap1\n  pop\n  jump\t// out\n    /* \"#utility.yul\":1627:1807   */\ntag_51:\n    /* \"#utility.yul\":1675:1752   */\n  0x4e487b7100000000000000000000000000000000000000000000000000000000\n    /* \"#utility.yul\":1672:1673   */\n  0x00\n    /* \"#utility.yul\":1665:1753   */\n  mstore\n    /* \"#utility.yul\":1772:1776   */\n  0x11\n    /* \"#utility.yul\":1769:1770   */\n  0x04\n    /* \"#utility.yul\":1762:1777   */\n  mstore\n    /* \"#utility.yul\":1796:1800   */\n  0x24\n    /* \"#utility.yul\":1793:1794   */\n  0x00\n    /* \"#utility.yul\":1786:1801   */\n  revert\n    /* \"#utility.yul\":1813:1993   */\ntag_46:\n    /* \"#utility.yul\":1861:1938   */\n  0x4e487b7100000000000000000000000000000000000000000000000000000000\n    /* \"#utility.yul\":1858:1859   */\n  0x00\n    /* \"#utility.yul\":1851:1939   */\n  mstore\n    /* \"#utility.yul\":1958:1962   */\n  0x22\n    /* \"#utility.yul\":1955:1956   */\n  0x04\n    /* \"#utility.yul\":1948:1963   */\n  mstore\n    /* \"#utility.yul\":1982:1986   */\n  0x24\n    /* \"#utility.yul\":1979:1980   */\n  0x00\n    /* \"#utility.yul\":1972:1987   */\n  revert\n    /* \"#utility.yul\":1999:2179   */\ntag_12:\n    /* \"#utility.yul\":2047:2124   */\n  0x4e487b7100000000000000000000000000000000000000000000000000000000\n    /* \"#utility.yul\":2044:2045   */\n  0x00\n    /* \"#utility.yul\":2037:2125   */\n  mstore\n    /* \"#utility.yul\":2144:2148   */\n  0x32\n    /* \"#utility.yul\":2141:2142   */\n  0x04\n    /* \"#utility.yul\":2134:2149   */\n  mstore\n    /* \"#utility.yul\":2168:2172   */\n  0x24\n    /* \"#utility.yul\":2165:2166   */\n  0x00\n    /* \"#utility.yul\":2158:2173   */\n  revert\n    /* \"#utility.yul\":2185:2356   */\ntag_36:\n    /* \"#utility.yul\":2325:2348   */\n  0x43616e64696461746573206d75737420626520352e0000000000000000000000\n    /* \"#utility.yul\":2321:2322   */\n  0x00\n    /* \"#utility.yul\":2313:2319   */\n  dup3\n    /* \"#utility.yul\":2309:2323   */\n  add\n    /* \"#utility.yul\":2302:2349   */\n  mstore\n    /* \"#utility.yul\":2185:2356   */\n  pop\n  jump\t// out\n    /* \"smartContract/contracts/3_Ballot.sol\":157:4383  contract Ballot {... */\ntag_18:\n  dataSize(sub_0)\n  dup1\n  dataOffset(sub_0)\n  0x00\n  codecopy\n  0x00\n  return\nstop\n\nsub_0: assembly {\n        /* \"smartContract/contracts/3_Ballot.sol\":157:4383  contract Ballot {... */\n      mstore(0x40, 0x80)\n      callvalue\n      dup1\n      iszero\n      tag_1\n      jumpi\n      0x00\n      dup1\n      revert\n    tag_1:\n      pop\n      jumpi(tag_2, lt(calldatasize, 0x04))\n      shr(0xe0, calldataload(0x00))\n      dup1\n      0x632a9a52\n      eq\n      tag_3\n      jumpi\n      dup1\n      0x64030a19\n      eq\n      tag_4\n      jumpi\n      dup1\n      0xd4e8fd2e\n      eq\n      tag_5\n      jumpi\n    tag_2:\n      0x00\n      dup1\n      revert\n        /* \"smartContract/contracts/3_Ballot.sol\":2491:4278  function vote() public {... */\n    tag_3:\n      tag_6\n      tag_7\n      jump\t// in\n    tag_6:\n      stop\n        /* \"smartContract/contracts/3_Ballot.sol\":974:992  Voter[] public axx */\n    tag_4:\n      tag_8\n      0x04\n      dup1\n      calldatasize\n      sub\n      dup2\n      add\n      swap1\n      tag_9\n      swap2\n      swap1\n      tag_10\n      jump\t// in\n    tag_9:\n      tag_11\n      jump\t// in\n    tag_8:\n      mload(0x40)\n      tag_12\n      swap5\n      swap4\n      swap3\n      swap2\n      swap1\n      tag_13\n      jump\t// in\n    tag_12:\n      mload(0x40)\n      dup1\n      swap2\n      sub\n      swap1\n      return\n        /* \"smartContract/contracts/3_Ballot.sol\":4284:4381  function res(uint _id) public view returns(Proposal memory){... */\n    tag_5:\n      tag_14\n      0x04\n      dup1\n      calldatasize\n      sub\n      dup2\n      add\n      swap1\n      tag_15\n      swap2\n      swap1\n      tag_10\n      jump\t// in\n    tag_15:\n      tag_16\n      jump\t// in\n    tag_14:\n      mload(0x40)\n      tag_17\n      swap2\n      swap1\n      tag_18\n      jump\t// in\n    tag_17:\n      mload(0x40)\n      dup1\n      swap2\n      sub\n      swap1\n      return\n        /* \"smartContract/contracts/3_Ballot.sol\":2491:4278  function vote() public {... */\n    tag_7:\n        /* \"smartContract/contracts/3_Ballot.sol\":2534:2540  voters */\n      0x01\n        /* \"smartContract/contracts/3_Ballot.sol\":2534:2552  voters[msg.sender] */\n      0x00\n        /* \"smartContract/contracts/3_Ballot.sol\":2541:2551  msg.sender */\n      caller\n        /* \"smartContract/contracts/3_Ballot.sol\":2534:2552  voters[msg.sender] */\n      0xffffffffffffffffffffffffffffffffffffffff\n      and\n      0xffffffffffffffffffffffffffffffffffffffff\n      and\n      dup2\n      mstore\n      0x20\n      add\n      swap1\n      dup2\n      mstore\n      0x20\n      add\n      0x00\n      keccak256\n        /* \"smartContract/contracts/3_Ballot.sol\":2534:2558  voters[msg.sender].voted */\n      0x01\n      add\n      0x00\n      swap1\n      sload\n      swap1\n      0x0100\n      exp\n      swap1\n      div\n      0xff\n      and\n        /* \"smartContract/contracts/3_Ballot.sol\":2533:2558  !voters[msg.sender].voted */\n      iszero\n        /* \"smartContract/contracts/3_Ballot.sol\":2525:2599  require(!voters[msg.sender].voted,... */\n      tag_20\n      jumpi\n      mload(0x40)\n      0x08c379a000000000000000000000000000000000000000000000000000000000\n      dup2\n      mstore\n      0x04\n      add\n      tag_21\n      swap1\n      tag_22\n      jump\t// in\n    tag_21:\n      mload(0x40)\n      dup1\n      swap2\n      sub\n      swap1\n      revert\n    tag_20:\n        /* \"smartContract/contracts/3_Ballot.sol\":2690:2691  1 */\n      0x01\n        /* \"smartContract/contracts/3_Ballot.sol\":2662:2668  voters */\n      dup1\n        /* \"smartContract/contracts/3_Ballot.sol\":2662:2680  voters[msg.sender] */\n      0x00\n        /* \"smartContract/contracts/3_Ballot.sol\":2669:2679  msg.sender */\n      caller\n        /* \"smartContract/contracts/3_Ballot.sol\":2662:2680  voters[msg.sender] */\n      0xffffffffffffffffffffffffffffffffffffffff\n      and\n      0xffffffffffffffffffffffffffffffffffffffff\n      and\n      dup2\n      mstore\n      0x20\n      add\n      swap1\n      dup2\n      mstore\n      0x20\n      add\n      0x00\n      keccak256\n        /* \"smartContract/contracts/3_Ballot.sol\":2662:2687  voters[msg.sender].weight */\n      0x00\n      add\n        /* \"smartContract/contracts/3_Ballot.sol\":2662:2691  voters[msg.sender].weight = 1 */\n      dup2\n      swap1\n      sstore\n      pop\n        /* \"smartContract/contracts/3_Ballot.sol\":2717:2720  100 */\n      0x64\n        /* \"smartContract/contracts/3_Ballot.sol\":2709:2715  countV */\n      sload(0x04)\n        /* \"smartContract/contracts/3_Ballot.sol\":2709:2720  countV<=100 */\n      sgt\n      iszero\n        /* \"smartContract/contracts/3_Ballot.sol\":2701:2743  require(countV<=100,\"Reached max voters.\") */\n      tag_23\n      jumpi\n      mload(0x40)\n      0x08c379a000000000000000000000000000000000000000000000000000000000\n      dup2\n      mstore\n      0x04\n      add\n      tag_24\n      swap1\n      tag_25\n      jump\t// in\n    tag_24:\n      mload(0x40)\n      dup1\n      swap2\n      sub\n      swap1\n      revert\n    tag_23:\n        /* \"smartContract/contracts/3_Ballot.sol\":2782:2799  random_district() */\n      tag_26\n        /* \"smartContract/contracts/3_Ballot.sol\":2782:2797  random_district */\n      tag_27\n        /* \"smartContract/contracts/3_Ballot.sol\":2782:2799  random_district() */\n      jump\t// in\n    tag_26:\n        /* \"smartContract/contracts/3_Ballot.sol\":2754:2760  voters */\n      0x01\n        /* \"smartContract/contracts/3_Ballot.sol\":2754:2772  voters[msg.sender] */\n      0x00\n        /* \"smartContract/contracts/3_Ballot.sol\":2761:2771  msg.sender */\n      caller\n        /* \"smartContract/contracts/3_Ballot.sol\":2754:2772  voters[msg.sender] */\n      0xffffffffffffffffffffffffffffffffffffffff\n      and\n      0xffffffffffffffffffffffffffffffffffffffff\n      and\n      dup2\n      mstore\n      0x20\n      add\n      swap1\n      dup2\n      mstore\n      0x20\n      add\n      0x00\n      keccak256\n        /* \"smartContract/contracts/3_Ballot.sol\":2754:2781  voters[msg.sender].district */\n      0x02\n      add\n        /* \"smartContract/contracts/3_Ballot.sol\":2754:2799  voters[msg.sender].district=random_district() */\n      dup2\n      swap1\n      sstore\n      pop\n        /* \"smartContract/contracts/3_Ballot.sol\":2836:2840  true */\n      0x01\n        /* \"smartContract/contracts/3_Ballot.sol\":2809:2815  voters */\n      dup1\n        /* \"smartContract/contracts/3_Ballot.sol\":2809:2827  voters[msg.sender] */\n      0x00\n        /* \"smartContract/contracts/3_Ballot.sol\":2816:2826  msg.sender */\n      caller\n        /* \"smartContract/contracts/3_Ballot.sol\":2809:2827  voters[msg.sender] */\n      0xffffffffffffffffffffffffffffffffffffffff\n      and\n      0xffffffffffffffffffffffffffffffffffffffff\n      and\n      dup2\n      mstore\n      0x20\n      add\n      swap1\n      dup2\n      mstore\n      0x20\n      add\n      0x00\n      keccak256\n        /* \"smartContract/contracts/3_Ballot.sol\":2809:2833  voters[msg.sender].voted */\n      0x01\n      add\n      0x00\n        /* \"smartContract/contracts/3_Ballot.sol\":2809:2840  voters[msg.sender].voted = true */\n      0x0100\n      exp\n      dup2\n      sload\n      dup2\n      0xff\n      mul\n      not\n      and\n      swap1\n      dup4\n      iszero\n      iszero\n      mul\n      or\n      swap1\n      sstore\n      pop\n        /* \"smartContract/contracts/3_Ballot.sol\":2850:2870  Voter storage sender */\n      0x00\n        /* \"smartContract/contracts/3_Ballot.sol\":2873:2879  voters */\n      0x01\n        /* \"smartContract/contracts/3_Ballot.sol\":2873:2891  voters[msg.sender] */\n      0x00\n        /* \"smartContract/contracts/3_Ballot.sol\":2880:2890  msg.sender */\n      caller\n        /* \"smartContract/contracts/3_Ballot.sol\":2873:2891  voters[msg.sender] */\n      0xffffffffffffffffffffffffffffffffffffffff\n      and\n      0xffffffffffffffffffffffffffffffffffffffff\n      and\n      dup2\n      mstore\n      0x20\n      add\n      swap1\n      dup2\n      mstore\n      0x20\n      add\n      0x00\n      keccak256\n        /* \"smartContract/contracts/3_Ballot.sol\":2850:2891  Voter storage sender = voters[msg.sender] */\n      swap1\n      pop\n        /* \"smartContract/contracts/3_Ballot.sol\":3024:3030  sender */\n      dup1\n        /* \"smartContract/contracts/3_Ballot.sol\":3024:3036  sender.voted */\n      0x01\n      add\n      0x00\n      swap1\n      sload\n      swap1\n      0x0100\n      exp\n      swap1\n      div\n      0xff\n      and\n        /* \"smartContract/contracts/3_Ballot.sol\":3023:3036  !sender.voted */\n      iszero\n        /* \"smartContract/contracts/3_Ballot.sol\":3015:3055  require(!sender.voted, \"Already voted.\") */\n      tag_28\n      jumpi\n      mload(0x40)\n      0x08c379a000000000000000000000000000000000000000000000000000000000\n      dup2\n      mstore\n      0x04\n      add\n      tag_29\n      swap1\n      tag_30\n      jump\t// in\n    tag_29:\n      mload(0x40)\n      dup1\n      swap2\n      sub\n      swap1\n      revert\n    tag_28:\n        /* \"smartContract/contracts/3_Ballot.sol\":3080:3084  true */\n      0x01\n        /* \"smartContract/contracts/3_Ballot.sol\":3065:3071  sender */\n      dup2\n        /* \"smartContract/contracts/3_Ballot.sol\":3065:3077  sender.voted */\n      0x01\n      add\n      0x00\n        /* \"smartContract/contracts/3_Ballot.sol\":3065:3084  sender.voted = true */\n      0x0100\n      exp\n      dup2\n      sload\n      dup2\n      0xff\n      mul\n      not\n      and\n      swap1\n      dup4\n      iszero\n      iszero\n      mul\n      or\n      swap1\n      sstore\n      pop\n        /* \"smartContract/contracts/3_Ballot.sol\":3109:3122  random_vote() */\n      tag_31\n        /* \"smartContract/contracts/3_Ballot.sol\":3109:3120  random_vote */\n      tag_32\n        /* \"smartContract/contracts/3_Ballot.sol\":3109:3122  random_vote() */\n      jump\t// in\n    tag_31:\n        /* \"smartContract/contracts/3_Ballot.sol\":3095:3101  sender */\n      dup2\n        /* \"smartContract/contracts/3_Ballot.sol\":3095:3106  sender.vote */\n      0x03\n      add\n        /* \"smartContract/contracts/3_Ballot.sol\":3095:3122  sender.vote = random_vote() */\n      dup2\n      swap1\n      sstore\n      pop\n        /* \"smartContract/contracts/3_Ballot.sol\":3132:3145  countVoters() */\n      tag_33\n        /* \"smartContract/contracts/3_Ballot.sol\":3132:3143  countVoters */\n      tag_34\n        /* \"smartContract/contracts/3_Ballot.sol\":3132:3145  countVoters() */\n      jump\t// in\n    tag_33:\n        /* \"smartContract/contracts/3_Ballot.sol\":3204:3210  sender */\n      dup1\n        /* \"smartContract/contracts/3_Ballot.sol\":3204:3217  sender.weight */\n      0x00\n      add\n      sload\n        /* \"smartContract/contracts/3_Ballot.sol\":3164:3173  proposals */\n      0x03\n        /* \"smartContract/contracts/3_Ballot.sol\":3174:3187  random_vote() */\n      tag_35\n        /* \"smartContract/contracts/3_Ballot.sol\":3174:3185  random_vote */\n      tag_32\n        /* \"smartContract/contracts/3_Ballot.sol\":3174:3187  random_vote() */\n      jump\t// in\n    tag_35:\n        /* \"smartContract/contracts/3_Ballot.sol\":3164:3188  proposals[random_vote()] */\n      dup2\n      sload\n      dup2\n      lt\n      tag_36\n      jumpi\n      tag_37\n      tag_38\n      jump\t// in\n    tag_37:\n    tag_36:\n      swap1\n      0x00\n      mstore\n      keccak256(0x00, 0x20)\n      swap1\n      0x0c\n      mul\n      add\n        /* \"smartContract/contracts/3_Ballot.sol\":3164:3200  proposals[random_vote()].Total_Votes */\n      0x01\n      add\n      0x00\n        /* \"smartContract/contracts/3_Ballot.sol\":3164:3217  proposals[random_vote()].Total_Votes += sender.weight */\n      dup3\n      dup3\n      sload\n      tag_40\n      swap2\n      swap1\n      tag_41\n      jump\t// in\n    tag_40:\n      swap3\n      pop\n      pop\n      dup2\n      swap1\n      sstore\n      pop\n        /* \"smartContract/contracts/3_Ballot.sol\":3248:3249  0 */\n      0x00\n        /* \"smartContract/contracts/3_Ballot.sol\":3231:3237  sender */\n      dup2\n        /* \"smartContract/contracts/3_Ballot.sol\":3231:3246  sender.district */\n      0x02\n      add\n      sload\n        /* \"smartContract/contracts/3_Ballot.sol\":3231:3249  sender.district==0 */\n      eq\n        /* \"smartContract/contracts/3_Ballot.sol\":3227:4160  if (sender.district==0){proposals[random_vote()].Votes_District0 += sender.weight;}... */\n      iszero\n      tag_42\n      jumpi\n        /* \"smartContract/contracts/3_Ballot.sol\":3295:3301  sender */\n      dup1\n        /* \"smartContract/contracts/3_Ballot.sol\":3295:3308  sender.weight */\n      0x00\n      add\n      sload\n        /* \"smartContract/contracts/3_Ballot.sol\":3251:3260  proposals */\n      0x03\n        /* \"smartContract/contracts/3_Ballot.sol\":3261:3274  random_vote() */\n      tag_43\n        /* \"smartContract/contracts/3_Ballot.sol\":3261:3272  random_vote */\n      tag_32\n        /* \"smartContract/contracts/3_Ballot.sol\":3261:3274  random_vote() */\n      jump\t// in\n    tag_43:\n        /* \"smartContract/contracts/3_Ballot.sol\":3251:3275  proposals[random_vote()] */\n      dup2\n      sload\n      dup2\n      lt\n      tag_44\n      jumpi\n      tag_45\n      tag_38\n      jump\t// in\n    tag_45:\n    tag_44:\n      swap1\n      0x00\n      mstore\n      keccak256(0x00, 0x20)\n      swap1\n      0x0c\n      mul\n      add\n        /* \"smartContract/contracts/3_Ballot.sol\":3251:3291  proposals[random_vote()].Votes_District0 */\n      0x02\n      add\n      0x00\n        /* \"smartContract/contracts/3_Ballot.sol\":3251:3308  proposals[random_vote()].Votes_District0 += sender.weight */\n      dup3\n      dup3\n      sload\n      tag_47\n      swap2\n      swap1\n      tag_41\n      jump\t// in\n    tag_47:\n      swap3\n      pop\n      pop\n      dup2\n      swap1\n      sstore\n      pop\n        /* \"smartContract/contracts/3_Ballot.sol\":3227:4160  if (sender.district==0){proposals[random_vote()].Votes_District0 += sender.weight;}... */\n      jump(tag_48)\n    tag_42:\n        /* \"smartContract/contracts/3_Ballot.sol\":3345:3346  1 */\n      0x01\n        /* \"smartContract/contracts/3_Ballot.sol\":3328:3334  sender */\n      dup2\n        /* \"smartContract/contracts/3_Ballot.sol\":3328:3343  sender.district */\n      0x02\n      add\n      sload\n        /* \"smartContract/contracts/3_Ballot.sol\":3328:3346  sender.district==1 */\n      eq\n        /* \"smartContract/contracts/3_Ballot.sol\":3324:4160  if (sender.district==1){proposals[random_vote()].Votes_District1 += sender.weight;}... */\n      iszero\n      tag_49\n      jumpi\n        /* \"smartContract/contracts/3_Ballot.sol\":3392:3398  sender */\n      dup1\n        /* \"smartContract/contracts/3_Ballot.sol\":3392:3405  sender.weight */\n      0x00\n      add\n      sload\n        /* \"smartContract/contracts/3_Ballot.sol\":3348:3357  proposals */\n      0x03\n        /* \"smartContract/contracts/3_Ballot.sol\":3358:3371  random_vote() */\n      tag_50\n        /* \"smartContract/contracts/3_Ballot.sol\":3358:3369  random_vote */\n      tag_32\n        /* \"smartContract/contracts/3_Ballot.sol\":3358:3371  random_vote() */\n      jump\t// in\n    tag_50:\n        /* \"smartContract/contracts/3_Ballot.sol\":3348:3372  proposals[random_vote()] */\n      dup2\n      sload\n      dup2\n      lt\n      tag_51\n      jumpi\n      tag_52\n      tag_38\n      jump\t// in\n    tag_52:\n    tag_51:\n      swap1\n      0x00\n      mstore\n      keccak256(0x00, 0x20)\n      swap1\n      0x0c\n      mul\n      add\n        /* \"smartContract/contracts/3_Ballot.sol\":3348:3388  proposals[random_vote()].Votes_District1 */\n      0x03\n      add\n      0x00\n        /* \"smartContract/contracts/3_Ballot.sol\":3348:3405  proposals[random_vote()].Votes_District1 += sender.weight */\n      dup3\n      dup3\n      sload\n      tag_54\n      swap2\n      swap1\n      tag_41\n      jump\t// in\n    tag_54:\n      swap3\n      pop\n      pop\n      dup2\n      swap1\n      sstore\n      pop\n        /* \"smartContract/contracts/3_Ballot.sol\":3324:4160  if (sender.district==1){proposals[random_vote()].Votes_District1 += sender.weight;}... */\n      jump(tag_55)\n    tag_49:\n        /* \"smartContract/contracts/3_Ballot.sol\":3442:3443  2 */\n      0x02\n        /* \"smartContract/contracts/3_Ballot.sol\":3425:3431  sender */\n      dup2\n        /* \"smartContract/contracts/3_Ballot.sol\":3425:3440  sender.district */\n      0x02\n      add\n      sload\n        /* \"smartContract/contracts/3_Ballot.sol\":3425:3443  sender.district==2 */\n      eq\n        /* \"smartContract/contracts/3_Ballot.sol\":3421:4160  if (sender.district==2){proposals[random_vote()].Votes_District2 += sender.weight;}... */\n      iszero\n      tag_56\n      jumpi\n        /* \"smartContract/contracts/3_Ballot.sol\":3489:3495  sender */\n      dup1\n        /* \"smartContract/contracts/3_Ballot.sol\":3489:3502  sender.weight */\n      0x00\n      add\n      sload\n        /* \"smartContract/contracts/3_Ballot.sol\":3445:3454  proposals */\n      0x03\n        /* \"smartContract/contracts/3_Ballot.sol\":3455:3468  random_vote() */\n      tag_57\n        /* \"smartContract/contracts/3_Ballot.sol\":3455:3466  random_vote */\n      tag_32\n        /* \"smartContract/contracts/3_Ballot.sol\":3455:3468  random_vote() */\n      jump\t// in\n    tag_57:\n        /* \"smartContract/contracts/3_Ballot.sol\":3445:3469  proposals[random_vote()] */\n      dup2\n      sload\n      dup2\n      lt\n      tag_58\n      jumpi\n      tag_59\n      tag_38\n      jump\t// in\n    tag_59:\n    tag_58:\n      swap1\n      0x00\n      mstore\n      keccak256(0x00, 0x20)\n      swap1\n      0x0c\n      mul\n      add\n        /* \"smartContract/contracts/3_Ballot.sol\":3445:3485  proposals[random_vote()].Votes_District2 */\n      0x04\n      add\n      0x00\n        /* \"smartContract/contracts/3_Ballot.sol\":3445:3502  proposals[random_vote()].Votes_District2 += sender.weight */\n      dup3\n      dup3\n      sload\n      tag_61\n      swap2\n      swap1\n      tag_41\n      jump\t// in\n    tag_61:\n      swap3\n      pop\n      pop\n      dup2\n      swap1\n      sstore\n      pop\n        /* \"smartContract/contracts/3_Ballot.sol\":3421:4160  if (sender.district==2){proposals[random_vote()].Votes_District2 += sender.weight;}... */\n      jump(tag_62)\n    tag_56:\n        /* \"smartContract/contracts/3_Ballot.sol\":3539:3540  3 */\n      0x03\n        /* \"smartContract/contracts/3_Ballot.sol\":3522:3528  sender */\n      dup2\n        /* \"smartContract/contracts/3_Ballot.sol\":3522:3537  sender.district */\n      0x02\n      add\n      sload\n        /* \"smartContract/contracts/3_Ballot.sol\":3522:3540  sender.district==3 */\n      eq\n        /* \"smartContract/contracts/3_Ballot.sol\":3518:4160  if (sender.district==3){proposals[random_vote()].Votes_District3 += sender.weight;}... */\n      iszero\n      tag_63\n      jumpi\n        /* \"smartContract/contracts/3_Ballot.sol\":3586:3592  sender */\n      dup1\n        /* \"smartContract/contracts/3_Ballot.sol\":3586:3599  sender.weight */\n      0x00\n      add\n      sload\n        /* \"smartContract/contracts/3_Ballot.sol\":3542:3551  proposals */\n      0x03\n        /* \"smartContract/contracts/3_Ballot.sol\":3552:3565  random_vote() */\n      tag_64\n        /* \"smartContract/contracts/3_Ballot.sol\":3552:3563  random_vote */\n      tag_32\n        /* \"smartContract/contracts/3_Ballot.sol\":3552:3565  random_vote() */\n      jump\t// in\n    tag_64:\n        /* \"smartContract/contracts/3_Ballot.sol\":3542:3566  proposals[random_vote()] */\n      dup2\n      sload\n      dup2\n      lt\n      tag_65\n      jumpi\n      tag_66\n      tag_38\n      jump\t// in\n    tag_66:\n    tag_65:\n      swap1\n      0x00\n      mstore\n      keccak256(0x00, 0x20)\n      swap1\n      0x0c\n      mul\n      add\n        /* \"smartContract/contracts/3_Ballot.sol\":3542:3582  proposals[random_vote()].Votes_District3 */\n      0x05\n      add\n      0x00\n        /* \"smartContract/contracts/3_Ballot.sol\":3542:3599  proposals[random_vote()].Votes_District3 += sender.weight */\n      dup3\n      dup3\n      sload\n      tag_68\n      swap2\n      swap1\n      tag_41\n      jump\t// in\n    tag_68:\n      swap3\n      pop\n      pop\n      dup2\n      swap1\n      sstore\n      pop\n        /* \"smartContract/contracts/3_Ballot.sol\":3518:4160  if (sender.district==3){proposals[random_vote()].Votes_District3 += sender.weight;}... */\n      jump(tag_69)\n    tag_63:\n        /* \"smartContract/contracts/3_Ballot.sol\":3636:3637  4 */\n      0x04\n        /* \"smartContract/contracts/3_Ballot.sol\":3619:3625  sender */\n      dup2\n        /* \"smartContract/contracts/3_Ballot.sol\":3619:3634  sender.district */\n      0x02\n      add\n      sload\n        /* \"smartContract/contracts/3_Ballot.sol\":3619:3637  sender.district==4 */\n      eq\n        /* \"smartContract/contracts/3_Ballot.sol\":3615:4160  if (sender.district==4){proposals[random_vote()].Votes_District4 += sender.weight;}... */\n      iszero\n      tag_70\n      jumpi\n        /* \"smartContract/contracts/3_Ballot.sol\":3683:3689  sender */\n      dup1\n        /* \"smartContract/contracts/3_Ballot.sol\":3683:3696  sender.weight */\n      0x00\n      add\n      sload\n        /* \"smartContract/contracts/3_Ballot.sol\":3639:3648  proposals */\n      0x03\n        /* \"smartContract/contracts/3_Ballot.sol\":3649:3662  random_vote() */\n      tag_71\n        /* \"smartContract/contracts/3_Ballot.sol\":3649:3660  random_vote */\n      tag_32\n        /* \"smartContract/contracts/3_Ballot.sol\":3649:3662  random_vote() */\n      jump\t// in\n    tag_71:\n        /* \"smartContract/contracts/3_Ballot.sol\":3639:3663  proposals[random_vote()] */\n      dup2\n      sload\n      dup2\n      lt\n      tag_72\n      jumpi\n      tag_73\n      tag_38\n      jump\t// in\n    tag_73:\n    tag_72:\n      swap1\n      0x00\n      mstore\n      keccak256(0x00, 0x20)\n      swap1\n      0x0c\n      mul\n      add\n        /* \"smartContract/contracts/3_Ballot.sol\":3639:3679  proposals[random_vote()].Votes_District4 */\n      0x06\n      add\n      0x00\n        /* \"smartContract/contracts/3_Ballot.sol\":3639:3696  proposals[random_vote()].Votes_District4 += sender.weight */\n      dup3\n      dup3\n      sload\n      tag_75\n      swap2\n      swap1\n      tag_41\n      jump\t// in\n    tag_75:\n      swap3\n      pop\n      pop\n      dup2\n      swap1\n      sstore\n      pop\n        /* \"smartContract/contracts/3_Ballot.sol\":3615:4160  if (sender.district==4){proposals[random_vote()].Votes_District4 += sender.weight;}... */\n      jump(tag_76)\n    tag_70:\n        /* \"smartContract/contracts/3_Ballot.sol\":3733:3734  5 */\n      0x05\n        /* \"smartContract/contracts/3_Ballot.sol\":3716:3722  sender */\n      dup2\n        /* \"smartContract/contracts/3_Ballot.sol\":3716:3731  sender.district */\n      0x02\n      add\n      sload\n        /* \"smartContract/contracts/3_Ballot.sol\":3716:3734  sender.district==5 */\n      eq\n        /* \"smartContract/contracts/3_Ballot.sol\":3712:4160  if (sender.district==5){proposals[random_vote()].Votes_District5 += sender.weight;}... */\n      iszero\n      tag_77\n      jumpi\n        /* \"smartContract/contracts/3_Ballot.sol\":3780:3786  sender */\n      dup1\n        /* \"smartContract/contracts/3_Ballot.sol\":3780:3793  sender.weight */\n      0x00\n      add\n      sload\n        /* \"smartContract/contracts/3_Ballot.sol\":3736:3745  proposals */\n      0x03\n        /* \"smartContract/contracts/3_Ballot.sol\":3746:3759  random_vote() */\n      tag_78\n        /* \"smartContract/contracts/3_Ballot.sol\":3746:3757  random_vote */\n      tag_32\n        /* \"smartContract/contracts/3_Ballot.sol\":3746:3759  random_vote() */\n      jump\t// in\n    tag_78:\n        /* \"smartContract/contracts/3_Ballot.sol\":3736:3760  proposals[random_vote()] */\n      dup2\n      sload\n      dup2\n      lt\n      tag_79\n      jumpi\n      tag_80\n      tag_38\n      jump\t// in\n    tag_80:\n    tag_79:\n      swap1\n      0x00\n      mstore\n      keccak256(0x00, 0x20)\n      swap1\n      0x0c\n      mul\n      add\n        /* \"smartContract/contracts/3_Ballot.sol\":3736:3776  proposals[random_vote()].Votes_District5 */\n      0x07\n      add\n      0x00\n        /* \"smartContract/contracts/3_Ballot.sol\":3736:3793  proposals[random_vote()].Votes_District5 += sender.weight */\n      dup3\n      dup3\n      sload\n      tag_82\n      swap2\n      swap1\n      tag_41\n      jump\t// in\n    tag_82:\n      swap3\n      pop\n      pop\n      dup2\n      swap1\n      sstore\n      pop\n        /* \"smartContract/contracts/3_Ballot.sol\":3712:4160  if (sender.district==5){proposals[random_vote()].Votes_District5 += sender.weight;}... */\n      jump(tag_83)\n    tag_77:\n        /* \"smartContract/contracts/3_Ballot.sol\":3830:3831  6 */\n      0x06\n        /* \"smartContract/contracts/3_Ballot.sol\":3813:3819  sender */\n      dup2\n        /* \"smartContract/contracts/3_Ballot.sol\":3813:3828  sender.district */\n      0x02\n      add\n      sload\n        /* \"smartContract/contracts/3_Ballot.sol\":3813:3831  sender.district==6 */\n      eq\n        /* \"smartContract/contracts/3_Ballot.sol\":3809:4160  if (sender.district==6){proposals[random_vote()].Votes_District6 += sender.weight;}... */\n      iszero\n      tag_84\n      jumpi\n        /* \"smartContract/contracts/3_Ballot.sol\":3877:3883  sender */\n      dup1\n        /* \"smartContract/contracts/3_Ballot.sol\":3877:3890  sender.weight */\n      0x00\n      add\n      sload\n        /* \"smartContract/contracts/3_Ballot.sol\":3833:3842  proposals */\n      0x03\n        /* \"smartContract/contracts/3_Ballot.sol\":3843:3856  random_vote() */\n      tag_85\n        /* \"smartContract/contracts/3_Ballot.sol\":3843:3854  random_vote */\n      tag_32\n        /* \"smartContract/contracts/3_Ballot.sol\":3843:3856  random_vote() */\n      jump\t// in\n    tag_85:\n        /* \"smartContract/contracts/3_Ballot.sol\":3833:3857  proposals[random_vote()] */\n      dup2\n      sload\n      dup2\n      lt\n      tag_86\n      jumpi\n      tag_87\n      tag_38\n      jump\t// in\n    tag_87:\n    tag_86:\n      swap1\n      0x00\n      mstore\n      keccak256(0x00, 0x20)\n      swap1\n      0x0c\n      mul\n      add\n        /* \"smartContract/contracts/3_Ballot.sol\":3833:3873  proposals[random_vote()].Votes_District6 */\n      0x08\n      add\n      0x00\n        /* \"smartContract/contracts/3_Ballot.sol\":3833:3890  proposals[random_vote()].Votes_District6 += sender.weight */\n      dup3\n      dup3\n      sload\n      tag_89\n      swap2\n      swap1\n      tag_41\n      jump\t// in\n    tag_89:\n      swap3\n      pop\n      pop\n      dup2\n      swap1\n      sstore\n      pop\n        /* \"smartContract/contracts/3_Ballot.sol\":3809:4160  if (sender.district==6){proposals[random_vote()].Votes_District6 += sender.weight;}... */\n      jump(tag_90)\n    tag_84:\n        /* \"smartContract/contracts/3_Ballot.sol\":3927:3928  7 */\n      0x07\n        /* \"smartContract/contracts/3_Ballot.sol\":3910:3916  sender */\n      dup2\n        /* \"smartContract/contracts/3_Ballot.sol\":3910:3925  sender.district */\n      0x02\n      add\n      sload\n        /* \"smartContract/contracts/3_Ballot.sol\":3910:3928  sender.district==7 */\n      eq\n        /* \"smartContract/contracts/3_Ballot.sol\":3906:4160  if (sender.district==7){proposals[random_vote()].Votes_District7 += sender.weight;}... */\n      iszero\n      tag_91\n      jumpi\n        /* \"smartContract/contracts/3_Ballot.sol\":3974:3980  sender */\n      dup1\n        /* \"smartContract/contracts/3_Ballot.sol\":3974:3987  sender.weight */\n      0x00\n      add\n      sload\n        /* \"smartContract/contracts/3_Ballot.sol\":3930:3939  proposals */\n      0x03\n        /* \"smartContract/contracts/3_Ballot.sol\":3940:3953  random_vote() */\n      tag_92\n        /* \"smartContract/contracts/3_Ballot.sol\":3940:3951  random_vote */\n      tag_32\n        /* \"smartContract/contracts/3_Ballot.sol\":3940:3953  random_vote() */\n      jump\t// in\n    tag_92:\n        /* \"smartContract/contracts/3_Ballot.sol\":3930:3954  proposals[random_vote()] */\n      dup2\n      sload\n      dup2\n      lt\n      tag_93\n      jumpi\n      tag_94\n      tag_38\n      jump\t// in\n    tag_94:\n    tag_93:\n      swap1\n      0x00\n      mstore\n      keccak256(0x00, 0x20)\n      swap1\n      0x0c\n      mul\n      add\n        /* \"smartContract/contracts/3_Ballot.sol\":3930:3970  proposals[random_vote()].Votes_District7 */\n      0x09\n      add\n      0x00\n        /* \"smartContract/contracts/3_Ballot.sol\":3930:3987  proposals[random_vote()].Votes_District7 += sender.weight */\n      dup3\n      dup3\n      sload\n      tag_96\n      swap2\n      swap1\n      tag_41\n      jump\t// in\n    tag_96:\n      swap3\n      pop\n      pop\n      dup2\n      swap1\n      sstore\n      pop\n        /* \"smartContract/contracts/3_Ballot.sol\":3906:4160  if (sender.district==7){proposals[random_vote()].Votes_District7 += sender.weight;}... */\n      jump(tag_97)\n    tag_91:\n        /* \"smartContract/contracts/3_Ballot.sol\":4024:4025  8 */\n      0x08\n        /* \"smartContract/contracts/3_Ballot.sol\":4007:4013  sender */\n      dup2\n        /* \"smartContract/contracts/3_Ballot.sol\":4007:4022  sender.district */\n      0x02\n      add\n      sload\n        /* \"smartContract/contracts/3_Ballot.sol\":4007:4025  sender.district==8 */\n      eq\n        /* \"smartContract/contracts/3_Ballot.sol\":4003:4160  if (sender.district==8){proposals[random_vote()].Votes_District8 += sender.weight;}... */\n      iszero\n      tag_98\n      jumpi\n        /* \"smartContract/contracts/3_Ballot.sol\":4071:4077  sender */\n      dup1\n        /* \"smartContract/contracts/3_Ballot.sol\":4071:4084  sender.weight */\n      0x00\n      add\n      sload\n        /* \"smartContract/contracts/3_Ballot.sol\":4027:4036  proposals */\n      0x03\n        /* \"smartContract/contracts/3_Ballot.sol\":4037:4050  random_vote() */\n      tag_99\n        /* \"smartContract/contracts/3_Ballot.sol\":4037:4048  random_vote */\n      tag_32\n        /* \"smartContract/contracts/3_Ballot.sol\":4037:4050  random_vote() */\n      jump\t// in\n    tag_99:\n        /* \"smartContract/contracts/3_Ballot.sol\":4027:4051  proposals[random_vote()] */\n      dup2\n      sload\n      dup2\n      lt\n      tag_100\n      jumpi\n      tag_101\n      tag_38\n      jump\t// in\n    tag_101:\n    tag_100:\n      swap1\n      0x00\n      mstore\n      keccak256(0x00, 0x20)\n      swap1\n      0x0c\n      mul\n      add\n        /* \"smartContract/contracts/3_Ballot.sol\":4027:4067  proposals[random_vote()].Votes_District8 */\n      0x0a\n      add\n      0x00\n        /* \"smartContract/contracts/3_Ballot.sol\":4027:4084  proposals[random_vote()].Votes_District8 += sender.weight */\n      dup3\n      dup3\n      sload\n      tag_103\n      swap2\n      swap1\n      tag_41\n      jump\t// in\n    tag_103:\n      swap3\n      pop\n      pop\n      dup2\n      swap1\n      sstore\n      pop\n        /* \"smartContract/contracts/3_Ballot.sol\":4003:4160  if (sender.district==8){proposals[random_vote()].Votes_District8 += sender.weight;}... */\n      jump(tag_104)\n    tag_98:\n        /* \"smartContract/contracts/3_Ballot.sol\":4145:4151  sender */\n      dup1\n        /* \"smartContract/contracts/3_Ballot.sol\":4145:4158  sender.weight */\n      0x00\n      add\n      sload\n        /* \"smartContract/contracts/3_Ballot.sol\":4101:4110  proposals */\n      0x03\n        /* \"smartContract/contracts/3_Ballot.sol\":4111:4124  random_vote() */\n      tag_105\n        /* \"smartContract/contracts/3_Ballot.sol\":4111:4122  random_vote */\n      tag_32\n        /* \"smartContract/contracts/3_Ballot.sol\":4111:4124  random_vote() */\n      jump\t// in\n    tag_105:\n        /* \"smartContract/contracts/3_Ballot.sol\":4101:4125  proposals[random_vote()] */\n      dup2\n      sload\n      dup2\n      lt\n      tag_106\n      jumpi\n      tag_107\n      tag_38\n      jump\t// in\n    tag_107:\n    tag_106:\n      swap1\n      0x00\n      mstore\n      keccak256(0x00, 0x20)\n      swap1\n      0x0c\n      mul\n      add\n        /* \"smartContract/contracts/3_Ballot.sol\":4101:4141  proposals[random_vote()].Votes_District9 */\n      0x0b\n      add\n      0x00\n        /* \"smartContract/contracts/3_Ballot.sol\":4101:4158  proposals[random_vote()].Votes_District9 += sender.weight */\n      dup3\n      dup3\n      sload\n      tag_109\n      swap2\n      swap1\n      tag_41\n      jump\t// in\n    tag_109:\n      swap3\n      pop\n      pop\n      dup2\n      swap1\n      sstore\n      pop\n        /* \"smartContract/contracts/3_Ballot.sol\":4003:4160  if (sender.district==8){proposals[random_vote()].Votes_District8 += sender.weight;}... */\n    tag_104:\n        /* \"smartContract/contracts/3_Ballot.sol\":3906:4160  if (sender.district==7){proposals[random_vote()].Votes_District7 += sender.weight;}... */\n    tag_97:\n        /* \"smartContract/contracts/3_Ballot.sol\":3809:4160  if (sender.district==6){proposals[random_vote()].Votes_District6 += sender.weight;}... */\n    tag_90:\n        /* \"smartContract/contracts/3_Ballot.sol\":3712:4160  if (sender.district==5){proposals[random_vote()].Votes_District5 += sender.weight;}... */\n    tag_83:\n        /* \"smartContract/contracts/3_Ballot.sol\":3615:4160  if (sender.district==4){proposals[random_vote()].Votes_District4 += sender.weight;}... */\n    tag_76:\n        /* \"smartContract/contracts/3_Ballot.sol\":3518:4160  if (sender.district==3){proposals[random_vote()].Votes_District3 += sender.weight;}... */\n    tag_69:\n        /* \"smartContract/contracts/3_Ballot.sol\":3421:4160  if (sender.district==2){proposals[random_vote()].Votes_District2 += sender.weight;}... */\n    tag_62:\n        /* \"smartContract/contracts/3_Ballot.sol\":3324:4160  if (sender.district==1){proposals[random_vote()].Votes_District1 += sender.weight;}... */\n    tag_55:\n        /* \"smartContract/contracts/3_Ballot.sol\":3227:4160  if (sender.district==0){proposals[random_vote()].Votes_District0 += sender.weight;}... */\n    tag_48:\n        /* \"smartContract/contracts/3_Ballot.sol\":2514:4278  {... */\n      pop\n        /* \"smartContract/contracts/3_Ballot.sol\":2491:4278  function vote() public {... */\n      jump\t// out\n        /* \"smartContract/contracts/3_Ballot.sol\":974:992  Voter[] public axx */\n    tag_11:\n      0x02\n      dup2\n      dup2\n      sload\n      dup2\n      lt\n      tag_110\n      jumpi\n      0x00\n      dup1\n      revert\n    tag_110:\n      swap1\n      0x00\n      mstore\n      keccak256(0x00, 0x20)\n      swap1\n      0x04\n      mul\n      add\n      0x00\n      swap2\n      pop\n      swap1\n      pop\n      dup1\n      0x00\n      add\n      sload\n      swap1\n      dup1\n      0x01\n      add\n      0x00\n      swap1\n      sload\n      swap1\n      0x0100\n      exp\n      swap1\n      div\n      0xff\n      and\n      swap1\n      dup1\n      0x02\n      add\n      sload\n      swap1\n      dup1\n      0x03\n      add\n      sload\n      swap1\n      pop\n      dup5\n      jump\t// out\n        /* \"smartContract/contracts/3_Ballot.sol\":4284:4381  function res(uint _id) public view returns(Proposal memory){... */\n    tag_16:\n        /* \"smartContract/contracts/3_Ballot.sol\":4327:4342  Proposal memory */\n      tag_112\n      tag_113\n      jump\t// in\n    tag_112:\n        /* \"smartContract/contracts/3_Ballot.sol\":4360:4369  proposals */\n      0x03\n        /* \"smartContract/contracts/3_Ballot.sol\":4370:4373  _id */\n      dup3\n        /* \"smartContract/contracts/3_Ballot.sol\":4360:4374  proposals[_id] */\n      dup2\n      sload\n      dup2\n      lt\n      tag_115\n      jumpi\n      tag_116\n      tag_38\n      jump\t// in\n    tag_116:\n    tag_115:\n      swap1\n      0x00\n      mstore\n      keccak256(0x00, 0x20)\n      swap1\n      0x0c\n      mul\n      add\n        /* \"smartContract/contracts/3_Ballot.sol\":4353:4374  return proposals[_id] */\n      mload(0x40)\n      dup1\n      0x0180\n      add\n      0x40\n      mstore\n      swap1\n      dup2\n      0x00\n      dup3\n      add\n      dup1\n      sload\n      tag_118\n      swap1\n      tag_119\n      jump\t// in\n    tag_118:\n      dup1\n      0x1f\n      add\n      0x20\n      dup1\n      swap2\n      div\n      mul\n      0x20\n      add\n      mload(0x40)\n      swap1\n      dup2\n      add\n      0x40\n      mstore\n      dup1\n      swap3\n      swap2\n      swap1\n      dup2\n      dup2\n      mstore\n      0x20\n      add\n      dup3\n      dup1\n      sload\n      tag_120\n      swap1\n      tag_119\n      jump\t// in\n    tag_120:\n      dup1\n      iszero\n      tag_121\n      jumpi\n      dup1\n      0x1f\n      lt\n      tag_122\n      jumpi\n      0x0100\n      dup1\n      dup4\n      sload\n      div\n      mul\n      dup4\n      mstore\n      swap2\n      0x20\n      add\n      swap2\n      jump(tag_121)\n    tag_122:\n      dup3\n      add\n      swap2\n      swap1\n      0x00\n      mstore\n      keccak256(0x00, 0x20)\n      swap1\n    tag_123:\n      dup2\n      sload\n      dup2\n      mstore\n      swap1\n      0x01\n      add\n      swap1\n      0x20\n      add\n      dup1\n      dup4\n      gt\n      tag_123\n      jumpi\n      dup3\n      swap1\n      sub\n      0x1f\n      and\n      dup3\n      add\n      swap2\n    tag_121:\n      pop\n      pop\n      pop\n      pop\n      pop\n      dup2\n      mstore\n      0x20\n      add\n      0x01\n      dup3\n      add\n      sload\n      dup2\n      mstore\n      0x20\n      add\n      0x02\n      dup3\n      add\n      sload\n      dup2\n      mstore\n      0x20\n      add\n      0x03\n      dup3\n      add\n      sload\n      dup2\n      mstore\n      0x20\n      add\n      0x04\n      dup3\n      add\n      sload\n      dup2\n      mstore\n      0x20\n      add\n      0x05\n      dup3\n      add\n      sload\n      dup2\n      mstore\n      0x20\n      add\n      0x06\n      dup3\n      add\n      sload\n      dup2\n      mstore\n      0x20\n      add\n      0x07\n      dup3\n      add\n      sload\n      dup2\n      mstore\n      0x20\n      add\n      0x08\n      dup3\n      add\n      sload\n      dup2\n      mstore\n      0x20\n      add\n      0x09\n      dup3\n      add\n      sload\n      dup2\n      mstore\n      0x20\n      add\n      0x0a\n      dup3\n      add\n      sload\n      dup2\n      mstore\n      0x20\n      add\n      0x0b\n      dup3\n      add\n      sload\n      dup2\n      mstore\n      pop\n      pop\n      swap1\n      pop\n        /* \"smartContract/contracts/3_Ballot.sol\":4284:4381  function res(uint _id) public view returns(Proposal memory){... */\n      swap2\n      swap1\n      pop\n      jump\t// out\n        /* \"smartContract/contracts/3_Ballot.sol\":1038:1209  function random_district() private view returns(uint){... */\n    tag_27:\n        /* \"smartContract/contracts/3_Ballot.sol\":1086:1090  uint */\n      0x00\n        /* \"smartContract/contracts/3_Ballot.sol\":1200:1202  10 */\n      0x0a\n        /* \"smartContract/contracts/3_Ballot.sol\":1140:1155  block.timestamp */\n      timestamp\n        /* \"smartContract/contracts/3_Ballot.sol\":1156:1172  block.difficulty */\n      difficulty\n        /* \"smartContract/contracts/3_Ballot.sol\":1184:1194  msg.sender */\n      caller\n        /* \"smartContract/contracts/3_Ballot.sol\":1123:1195  abi.encodePacked(block.timestamp,block.difficulty,  ... */\n      add(0x20, mload(0x40))\n      tag_125\n      swap4\n      swap3\n      swap2\n      swap1\n      tag_126\n      jump\t// in\n    tag_125:\n      mload(0x40)\n      0x20\n      dup2\n      dup4\n      sub\n      sub\n      dup2\n      mstore\n      swap1\n      0x40\n      mstore\n        /* \"smartContract/contracts/3_Ballot.sol\":1113:1196  keccak256(abi.encodePacked(block.timestamp,block.difficulty,  ... */\n      dup1\n      mload\n      swap1\n      0x20\n      add\n      keccak256\n        /* \"smartContract/contracts/3_Ballot.sol\":1108:1197  uint(keccak256(abi.encodePacked(block.timestamp,block.difficulty,  ... */\n      0x00\n      shr\n        /* \"smartContract/contracts/3_Ballot.sol\":1108:1202  uint(keccak256(abi.encodePacked(block.timestamp,block.difficulty,  ... */\n      tag_127\n      swap2\n      swap1\n      tag_128\n      jump\t// in\n    tag_127:\n        /* \"smartContract/contracts/3_Ballot.sol\":1101:1202  return uint(keccak256(abi.encodePacked(block.timestamp,block.difficulty,  ... */\n      swap1\n      pop\n        /* \"smartContract/contracts/3_Ballot.sol\":1038:1209  function random_district() private view returns(uint){... */\n      swap1\n      jump\t// out\n        /* \"smartContract/contracts/3_Ballot.sol\":2307:2485  function random_vote() private view returns(uint){... */\n    tag_32:\n        /* \"smartContract/contracts/3_Ballot.sol\":2351:2355  uint */\n      0x00\n        /* \"smartContract/contracts/3_Ballot.sol\":2473:2474  5 */\n      0x05\n        /* \"smartContract/contracts/3_Ballot.sol\":2409:2424  block.timestamp */\n      timestamp\n        /* \"smartContract/contracts/3_Ballot.sol\":2425:2441  block.difficulty */\n      difficulty\n        /* \"smartContract/contracts/3_Ballot.sol\":2457:2467  msg.sender */\n      caller\n        /* \"smartContract/contracts/3_Ballot.sol\":2392:2468  abi.encodePacked(block.timestamp,block.difficulty,  ... */\n      add(0x20, mload(0x40))\n      tag_130\n      swap4\n      swap3\n      swap2\n      swap1\n      tag_126\n      jump\t// in\n    tag_130:\n      mload(0x40)\n      0x20\n      dup2\n      dup4\n      sub\n      sub\n      dup2\n      mstore\n      swap1\n      0x40\n      mstore\n        /* \"smartContract/contracts/3_Ballot.sol\":2382:2469  keccak256(abi.encodePacked(block.timestamp,block.difficulty,  ... */\n      dup1\n      mload\n      swap1\n      0x20\n      add\n      keccak256\n        /* \"smartContract/contracts/3_Ballot.sol\":2377:2470  uint(keccak256(abi.encodePacked(block.timestamp,block.difficulty,  ... */\n      0x00\n      shr\n        /* \"smartContract/contracts/3_Ballot.sol\":2377:2474  uint(keccak256(abi.encodePacked(block.timestamp,block.difficulty,  ... */\n      tag_131\n      swap2\n      swap1\n      tag_128\n      jump\t// in\n    tag_131:\n        /* \"smartContract/contracts/3_Ballot.sol\":2370:2474  return uint(keccak256(abi.encodePacked(block.timestamp,block.difficulty,  ... */\n      swap1\n      pop\n        /* \"smartContract/contracts/3_Ballot.sol\":2307:2485  function random_vote() private view returns(uint){... */\n      swap1\n      jump\t// out\n        /* \"smartContract/contracts/3_Ballot.sol\":2131:2190  function countVoters() private {... */\n    tag_34:\n        /* \"smartContract/contracts/3_Ballot.sol\":2182:2183  1 */\n      0x01\n        /* \"smartContract/contracts/3_Ballot.sol\":2172:2178  countV */\n      0x04\n      0x00\n        /* \"smartContract/contracts/3_Ballot.sol\":2172:2183  countV += 1 */\n      dup3\n      dup3\n      sload\n      tag_133\n      swap2\n      swap1\n      tag_134\n      jump\t// in\n    tag_133:\n      swap3\n      pop\n      pop\n      dup2\n      swap1\n      sstore\n      pop\n        /* \"smartContract/contracts/3_Ballot.sol\":2131:2190  function countVoters() private {... */\n      jump\t// out\n    tag_113:\n      mload(0x40)\n      dup1\n      0x0180\n      add\n      0x40\n      mstore\n      dup1\n      0x60\n      dup2\n      mstore\n      0x20\n      add\n      0x00\n      dup2\n      mstore\n      0x20\n      add\n      0x00\n      dup2\n      mstore\n      0x20\n      add\n      0x00\n      dup2\n      mstore\n      0x20\n      add\n      0x00\n      dup2\n      mstore\n      0x20\n      add\n      0x00\n      dup2\n      mstore\n      0x20\n      add\n      0x00\n      dup2\n      mstore\n      0x20\n      add\n      0x00\n      dup2\n      mstore\n      0x20\n      add\n      0x00\n      dup2\n      mstore\n      0x20\n      add\n      0x00\n      dup2\n      mstore\n      0x20\n      add\n      0x00\n      dup2\n      mstore\n      0x20\n      add\n      0x00\n      dup2\n      mstore\n      pop\n      swap1\n      jump\t// out\n        /* \"#utility.yul\":7:146   */\n    tag_136:\n        /* \"#utility.yul\":53:58   */\n      0x00\n        /* \"#utility.yul\":91:97   */\n      dup2\n        /* \"#utility.yul\":78:98   */\n      calldataload\n        /* \"#utility.yul\":69:98   */\n      swap1\n      pop\n        /* \"#utility.yul\":107:140   */\n      tag_138\n        /* \"#utility.yul\":134:139   */\n      dup2\n        /* \"#utility.yul\":107:140   */\n      tag_139\n      jump\t// in\n    tag_138:\n        /* \"#utility.yul\":7:146   */\n      swap3\n      swap2\n      pop\n      pop\n      jump\t// out\n        /* \"#utility.yul\":152:481   */\n    tag_10:\n        /* \"#utility.yul\":211:217   */\n      0x00\n        /* \"#utility.yul\":260:262   */\n      0x20\n        /* \"#utility.yul\":248:257   */\n      dup3\n        /* \"#utility.yul\":239:246   */\n      dup5\n        /* \"#utility.yul\":235:258   */\n      sub\n        /* \"#utility.yul\":231:263   */\n      slt\n        /* \"#utility.yul\":228:347   */\n      iszero\n      tag_141\n      jumpi\n        /* \"#utility.yul\":266:345   */\n      tag_142\n      tag_143\n      jump\t// in\n    tag_142:\n        /* \"#utility.yul\":228:347   */\n    tag_141:\n        /* \"#utility.yul\":386:387   */\n      0x00\n        /* \"#utility.yul\":411:464   */\n      tag_144\n        /* \"#utility.yul\":456:463   */\n      dup5\n        /* \"#utility.yul\":447:453   */\n      dup3\n        /* \"#utility.yul\":436:445   */\n      dup6\n        /* \"#utility.yul\":432:454   */\n      add\n        /* \"#utility.yul\":411:464   */\n      tag_136\n      jump\t// in\n    tag_144:\n        /* \"#utility.yul\":401:464   */\n      swap2\n      pop\n        /* \"#utility.yul\":357:474   */\n      pop\n        /* \"#utility.yul\":152:481   */\n      swap3\n      swap2\n      pop\n      pop\n      jump\t// out\n        /* \"#utility.yul\":487:644   */\n    tag_145:\n        /* \"#utility.yul\":592:637   */\n      tag_147\n        /* \"#utility.yul\":612:636   */\n      tag_148\n        /* \"#utility.yul\":630:635   */\n      dup3\n        /* \"#utility.yul\":612:636   */\n      tag_149\n      jump\t// in\n    tag_148:\n        /* \"#utility.yul\":592:637   */\n      tag_150\n      jump\t// in\n    tag_147:\n        /* \"#utility.yul\":587:590   */\n      dup3\n        /* \"#utility.yul\":580:638   */\n      mstore\n        /* \"#utility.yul\":487:644   */\n      pop\n      pop\n      jump\t// out\n        /* \"#utility.yul\":650:759   */\n    tag_151:\n        /* \"#utility.yul\":731:752   */\n      tag_153\n        /* \"#utility.yul\":746:751   */\n      dup2\n        /* \"#utility.yul\":731:752   */\n      tag_154\n      jump\t// in\n    tag_153:\n        /* \"#utility.yul\":726:729   */\n      dup3\n        /* \"#utility.yul\":719:753   */\n      mstore\n        /* \"#utility.yul\":650:759   */\n      pop\n      pop\n      jump\t// out\n        /* \"#utility.yul\":765:1109   */\n    tag_155:\n        /* \"#utility.yul\":843:846   */\n      0x00\n        /* \"#utility.yul\":871:910   */\n      tag_157\n        /* \"#utility.yul\":904:909   */\n      dup3\n        /* \"#utility.yul\":871:910   */\n      tag_158\n      jump\t// in\n    tag_157:\n        /* \"#utility.yul\":926:987   */\n      tag_159\n        /* \"#utility.yul\":980:986   */\n      dup2\n        /* \"#utility.yul\":975:978   */\n      dup6\n        /* \"#utility.yul\":926:987   */\n      tag_160\n      jump\t// in\n    tag_159:\n        /* \"#utility.yul\":919:987   */\n      swap4\n      pop\n        /* \"#utility.yul\":996:1048   */\n      tag_161\n        /* \"#utility.yul\":1041:1047   */\n      dup2\n        /* \"#utility.yul\":1036:1039   */\n      dup6\n        /* \"#utility.yul\":1029:1033   */\n      0x20\n        /* \"#utility.yul\":1022:1027   */\n      dup7\n        /* \"#utility.yul\":1018:1034   */\n      add\n        /* \"#utility.yul\":996:1048   */\n      tag_162\n      jump\t// in\n    tag_161:\n        /* \"#utility.yul\":1073:1102   */\n      tag_163\n        /* \"#utility.yul\":1095:1101   */\n      dup2\n        /* \"#utility.yul\":1073:1102   */\n      tag_164\n      jump\t// in\n    tag_163:\n        /* \"#utility.yul\":1068:1071   */\n      dup5\n        /* \"#utility.yul\":1064:1103   */\n      add\n        /* \"#utility.yul\":1057:1103   */\n      swap2\n      pop\n        /* \"#utility.yul\":847:1109   */\n      pop\n        /* \"#utility.yul\":765:1109   */\n      swap3\n      swap2\n      pop\n      pop\n      jump\t// out\n        /* \"#utility.yul\":1115:1481   */\n    tag_165:\n        /* \"#utility.yul\":1257:1260   */\n      0x00\n        /* \"#utility.yul\":1278:1345   */\n      tag_167\n        /* \"#utility.yul\":1342:1344   */\n      0x0e\n        /* \"#utility.yul\":1337:1340   */\n      dup4\n        /* \"#utility.yul\":1278:1345   */\n      tag_168\n      jump\t// in\n    tag_167:\n        /* \"#utility.yul\":1271:1345   */\n      swap2\n      pop\n        /* \"#utility.yul\":1354:1447   */\n      tag_169\n        /* \"#utility.yul\":1443:1446   */\n      dup3\n        /* \"#utility.yul\":1354:1447   */\n      tag_170\n      jump\t// in\n    tag_169:\n        /* \"#utility.yul\":1472:1474   */\n      0x20\n        /* \"#utility.yul\":1467:1470   */\n      dup3\n        /* \"#utility.yul\":1463:1475   */\n      add\n        /* \"#utility.yul\":1456:1475   */\n      swap1\n      pop\n        /* \"#utility.yul\":1115:1481   */\n      swap2\n      swap1\n      pop\n      jump\t// out\n        /* \"#utility.yul\":1487:1853   */\n    tag_171:\n        /* \"#utility.yul\":1629:1632   */\n      0x00\n        /* \"#utility.yul\":1650:1717   */\n      tag_173\n        /* \"#utility.yul\":1714:1716   */\n      0x18\n        /* \"#utility.yul\":1709:1712   */\n      dup4\n        /* \"#utility.yul\":1650:1717   */\n      tag_168\n      jump\t// in\n    tag_173:\n        /* \"#utility.yul\":1643:1717   */\n      swap2\n      pop\n        /* \"#utility.yul\":1726:1819   */\n      tag_174\n        /* \"#utility.yul\":1815:1818   */\n      dup3\n        /* \"#utility.yul\":1726:1819   */\n      tag_175\n      jump\t// in\n    tag_174:\n        /* \"#utility.yul\":1844:1846   */\n      0x20\n        /* \"#utility.yul\":1839:1842   */\n      dup3\n        /* \"#utility.yul\":1835:1847   */\n      add\n        /* \"#utility.yul\":1828:1847   */\n      swap1\n      pop\n        /* \"#utility.yul\":1487:1853   */\n      swap2\n      swap1\n      pop\n      jump\t// out\n        /* \"#utility.yul\":1859:2225   */\n    tag_176:\n        /* \"#utility.yul\":2001:2004   */\n      0x00\n        /* \"#utility.yul\":2022:2089   */\n      tag_178\n        /* \"#utility.yul\":2086:2088   */\n      0x13\n        /* \"#utility.yul\":2081:2084   */\n      dup4\n        /* \"#utility.yul\":2022:2089   */\n      tag_168\n      jump\t// in\n    tag_178:\n        /* \"#utility.yul\":2015:2089   */\n      swap2\n      pop\n        /* \"#utility.yul\":2098:2191   */\n      tag_179\n        /* \"#utility.yul\":2187:2190   */\n      dup3\n        /* \"#utility.yul\":2098:2191   */\n      tag_180\n      jump\t// in\n    tag_179:\n        /* \"#utility.yul\":2216:2218   */\n      0x20\n        /* \"#utility.yul\":2211:2214   */\n      dup3\n        /* \"#utility.yul\":2207:2219   */\n      add\n        /* \"#utility.yul\":2200:2219   */\n      swap1\n      pop\n        /* \"#utility.yul\":1859:2225   */\n      swap2\n      swap1\n      pop\n      jump\t// out\n        /* \"#utility.yul\":2287:4766   */\n    tag_181:\n        /* \"#utility.yul\":2404:2407   */\n      0x00\n        /* \"#utility.yul\":2440:2446   */\n      0x0180\n        /* \"#utility.yul\":2435:2438   */\n      dup4\n        /* \"#utility.yul\":2431:2447   */\n      add\n        /* \"#utility.yul\":2529:2533   */\n      0x00\n        /* \"#utility.yul\":2522:2527   */\n      dup4\n        /* \"#utility.yul\":2518:2534   */\n      add\n        /* \"#utility.yul\":2512:2535   */\n      mload\n        /* \"#utility.yul\":2582:2585   */\n      dup5\n        /* \"#utility.yul\":2576:2580   */\n      dup3\n        /* \"#utility.yul\":2572:2586   */\n      sub\n        /* \"#utility.yul\":2565:2569   */\n      0x00\n        /* \"#utility.yul\":2560:2563   */\n      dup7\n        /* \"#utility.yul\":2556:2570   */\n      add\n        /* \"#utility.yul\":2549:2587   */\n      mstore\n        /* \"#utility.yul\":2608:2681   */\n      tag_183\n        /* \"#utility.yul\":2676:2680   */\n      dup3\n        /* \"#utility.yul\":2662:2674   */\n      dup3\n        /* \"#utility.yul\":2608:2681   */\n      tag_155\n      jump\t// in\n    tag_183:\n        /* \"#utility.yul\":2600:2681   */\n      swap2\n      pop\n        /* \"#utility.yul\":2457:2692   */\n      pop\n        /* \"#utility.yul\":2781:2785   */\n      0x20\n        /* \"#utility.yul\":2774:2779   */\n      dup4\n        /* \"#utility.yul\":2770:2786   */\n      add\n        /* \"#utility.yul\":2764:2787   */\n      mload\n        /* \"#utility.yul\":2800:2863   */\n      tag_184\n        /* \"#utility.yul\":2857:2861   */\n      0x20\n        /* \"#utility.yul\":2852:2855   */\n      dup7\n        /* \"#utility.yul\":2848:2862   */\n      add\n        /* \"#utility.yul\":2834:2846   */\n      dup3\n        /* \"#utility.yul\":2800:2863   */\n      tag_185\n      jump\t// in\n    tag_184:\n        /* \"#utility.yul\":2702:2873   */\n      pop\n        /* \"#utility.yul\":2966:2970   */\n      0x40\n        /* \"#utility.yul\":2959:2964   */\n      dup4\n        /* \"#utility.yul\":2955:2971   */\n      add\n        /* \"#utility.yul\":2949:2972   */\n      mload\n        /* \"#utility.yul\":2985:3048   */\n      tag_186\n        /* \"#utility.yul\":3042:3046   */\n      0x40\n        /* \"#utility.yul\":3037:3040   */\n      dup7\n        /* \"#utility.yul\":3033:3047   */\n      add\n        /* \"#utility.yul\":3019:3031   */\n      dup3\n        /* \"#utility.yul\":2985:3048   */\n      tag_185\n      jump\t// in\n    tag_186:\n        /* \"#utility.yul\":2883:3058   */\n      pop\n        /* \"#utility.yul\":3151:3155   */\n      0x60\n        /* \"#utility.yul\":3144:3149   */\n      dup4\n        /* \"#utility.yul\":3140:3156   */\n      add\n        /* \"#utility.yul\":3134:3157   */\n      mload\n        /* \"#utility.yul\":3170:3233   */\n      tag_187\n        /* \"#utility.yul\":3227:3231   */\n      0x60\n        /* \"#utility.yul\":3222:3225   */\n      dup7\n        /* \"#utility.yul\":3218:3232   */\n      add\n        /* \"#utility.yul\":3204:3216   */\n      dup3\n        /* \"#utility.yul\":3170:3233   */\n      tag_185\n      jump\t// in\n    tag_187:\n        /* \"#utility.yul\":3068:3243   */\n      pop\n        /* \"#utility.yul\":3336:3340   */\n      0x80\n        /* \"#utility.yul\":3329:3334   */\n      dup4\n        /* \"#utility.yul\":3325:3341   */\n      add\n        /* \"#utility.yul\":3319:3342   */\n      mload\n        /* \"#utility.yul\":3355:3418   */\n      tag_188\n        /* \"#utility.yul\":3412:3416   */\n      0x80\n        /* \"#utility.yul\":3407:3410   */\n      dup7\n        /* \"#utility.yul\":3403:3417   */\n      add\n        /* \"#utility.yul\":3389:3401   */\n      dup3\n        /* \"#utility.yul\":3355:3418   */\n      tag_185\n      jump\t// in\n    tag_188:\n        /* \"#utility.yul\":3253:3428   */\n      pop\n        /* \"#utility.yul\":3521:3525   */\n      0xa0\n        /* \"#utility.yul\":3514:3519   */\n      dup4\n        /* \"#utility.yul\":3510:3526   */\n      add\n        /* \"#utility.yul\":3504:3527   */\n      mload\n        /* \"#utility.yul\":3540:3603   */\n      tag_189\n        /* \"#utility.yul\":3597:3601   */\n      0xa0\n        /* \"#utility.yul\":3592:3595   */\n      dup7\n        /* \"#utility.yul\":3588:3602   */\n      add\n        /* \"#utility.yul\":3574:3586   */\n      dup3\n        /* \"#utility.yul\":3540:3603   */\n      tag_185\n      jump\t// in\n    tag_189:\n        /* \"#utility.yul\":3438:3613   */\n      pop\n        /* \"#utility.yul\":3706:3710   */\n      0xc0\n        /* \"#utility.yul\":3699:3704   */\n      dup4\n        /* \"#utility.yul\":3695:3711   */\n      add\n        /* \"#utility.yul\":3689:3712   */\n      mload\n        /* \"#utility.yul\":3725:3788   */\n      tag_190\n        /* \"#utility.yul\":3782:3786   */\n      0xc0\n        /* \"#utility.yul\":3777:3780   */\n      dup7\n        /* \"#utility.yul\":3773:3787   */\n      add\n        /* \"#utility.yul\":3759:3771   */\n      dup3\n        /* \"#utility.yul\":3725:3788   */\n      tag_185\n      jump\t// in\n    tag_190:\n        /* \"#utility.yul\":3623:3798   */\n      pop\n        /* \"#utility.yul\":3891:3895   */\n      0xe0\n        /* \"#utility.yul\":3884:3889   */\n      dup4\n        /* \"#utility.yul\":3880:3896   */\n      add\n        /* \"#utility.yul\":3874:3897   */\n      mload\n        /* \"#utility.yul\":3910:3973   */\n      tag_191\n        /* \"#utility.yul\":3967:3971   */\n      0xe0\n        /* \"#utility.yul\":3962:3965   */\n      dup7\n        /* \"#utility.yul\":3958:3972   */\n      add\n        /* \"#utility.yul\":3944:3956   */\n      dup3\n        /* \"#utility.yul\":3910:3973   */\n      tag_185\n      jump\t// in\n    tag_191:\n        /* \"#utility.yul\":3808:3983   */\n      pop\n        /* \"#utility.yul\":4076:4082   */\n      0x0100\n        /* \"#utility.yul\":4069:4074   */\n      dup4\n        /* \"#utility.yul\":4065:4083   */\n      add\n        /* \"#utility.yul\":4059:4084   */\n      mload\n        /* \"#utility.yul\":4097:4162   */\n      tag_192\n        /* \"#utility.yul\":4154:4160   */\n      0x0100\n        /* \"#utility.yul\":4149:4152   */\n      dup7\n        /* \"#utility.yul\":4145:4161   */\n      add\n        /* \"#utility.yul\":4131:4143   */\n      dup3\n        /* \"#utility.yul\":4097:4162   */\n      tag_185\n      jump\t// in\n    tag_192:\n        /* \"#utility.yul\":3993:4172   */\n      pop\n        /* \"#utility.yul\":4265:4271   */\n      0x0120\n        /* \"#utility.yul\":4258:4263   */\n      dup4\n        /* \"#utility.yul\":4254:4272   */\n      add\n        /* \"#utility.yul\":4248:4273   */\n      mload\n        /* \"#utility.yul\":4286:4351   */\n      tag_193\n        /* \"#utility.yul\":4343:4349   */\n      0x0120\n        /* \"#utility.yul\":4338:4341   */\n      dup7\n        /* \"#utility.yul\":4334:4350   */\n      add\n        /* \"#utility.yul\":4320:4332   */\n      dup3\n        /* \"#utility.yul\":4286:4351   */\n      tag_185\n      jump\t// in\n    tag_193:\n        /* \"#utility.yul\":4182:4361   */\n      pop\n        /* \"#utility.yul\":4454:4460   */\n      0x0140\n        /* \"#utility.yul\":4447:4452   */\n      dup4\n        /* \"#utility.yul\":4443:4461   */\n      add\n        /* \"#utility.yul\":4437:4462   */\n      mload\n        /* \"#utility.yul\":4475:4540   */\n      tag_194\n        /* \"#utility.yul\":4532:4538   */\n      0x0140\n        /* \"#utility.yul\":4527:4530   */\n      dup7\n        /* \"#utility.yul\":4523:4539   */\n      add\n        /* \"#utility.yul\":4509:4521   */\n      dup3\n        /* \"#utility.yul\":4475:4540   */\n      tag_185\n      jump\t// in\n    tag_194:\n        /* \"#utility.yul\":4371:4550   */\n      pop\n        /* \"#utility.yul\":4643:4649   */\n      0x0160\n        /* \"#utility.yul\":4636:4641   */\n      dup4\n        /* \"#utility.yul\":4632:4650   */\n      add\n        /* \"#utility.yul\":4626:4651   */\n      mload\n        /* \"#utility.yul\":4664:4729   */\n      tag_195\n        /* \"#utility.yul\":4721:4727   */\n      0x0160\n        /* \"#utility.yul\":4716:4719   */\n      dup7\n        /* \"#utility.yul\":4712:4728   */\n      add\n        /* \"#utility.yul\":4698:4710   */\n      dup3\n        /* \"#utility.yul\":4664:4729   */\n      tag_185\n      jump\t// in\n    tag_195:\n        /* \"#utility.yul\":4560:4739   */\n      pop\n        /* \"#utility.yul\":4756:4760   */\n      dup1\n        /* \"#utility.yul\":4749:4760   */\n      swap2\n      pop\n        /* \"#utility.yul\":2409:4766   */\n      pop\n        /* \"#utility.yul\":2287:4766   */\n      swap3\n      swap2\n      pop\n      pop\n      jump\t// out\n        /* \"#utility.yul\":4772:4880   */\n    tag_185:\n        /* \"#utility.yul\":4849:4873   */\n      tag_197\n        /* \"#utility.yul\":4867:4872   */\n      dup2\n        /* \"#utility.yul\":4849:4873   */\n      tag_198\n      jump\t// in\n    tag_197:\n        /* \"#utility.yul\":4844:4847   */\n      dup3\n        /* \"#utility.yul\":4837:4874   */\n      mstore\n        /* \"#utility.yul\":4772:4880   */\n      pop\n      pop\n      jump\t// out\n        /* \"#utility.yul\":4886:5004   */\n    tag_199:\n        /* \"#utility.yul\":4973:4997   */\n      tag_201\n        /* \"#utility.yul\":4991:4996   */\n      dup2\n        /* \"#utility.yul\":4973:4997   */\n      tag_198\n      jump\t// in\n    tag_201:\n        /* \"#utility.yul\":4968:4971   */\n      dup3\n        /* \"#utility.yul\":4961:4998   */\n      mstore\n        /* \"#utility.yul\":4886:5004   */\n      pop\n      pop\n      jump\t// out\n        /* \"#utility.yul\":5010:5167   */\n    tag_202:\n        /* \"#utility.yul\":5115:5160   */\n      tag_204\n        /* \"#utility.yul\":5135:5159   */\n      tag_205\n        /* \"#utility.yul\":5153:5158   */\n      dup3\n        /* \"#utility.yul\":5135:5159   */\n      tag_198\n      jump\t// in\n    tag_205:\n        /* \"#utility.yul\":5115:5160   */\n      tag_206\n      jump\t// in\n    tag_204:\n        /* \"#utility.yul\":5110:5113   */\n      dup3\n        /* \"#utility.yul\":5103:5161   */\n      mstore\n        /* \"#utility.yul\":5010:5167   */\n      pop\n      pop\n      jump\t// out\n        /* \"#utility.yul\":5173:5711   */\n    tag_126:\n        /* \"#utility.yul\":5341:5344   */\n      0x00\n        /* \"#utility.yul\":5356:5431   */\n      tag_208\n        /* \"#utility.yul\":5427:5430   */\n      dup3\n        /* \"#utility.yul\":5418:5424   */\n      dup7\n        /* \"#utility.yul\":5356:5431   */\n      tag_202\n      jump\t// in\n    tag_208:\n        /* \"#utility.yul\":5456:5458   */\n      0x20\n        /* \"#utility.yul\":5451:5454   */\n      dup3\n        /* \"#utility.yul\":5447:5459   */\n      add\n        /* \"#utility.yul\":5440:5459   */\n      swap2\n      pop\n        /* \"#utility.yul\":5469:5544   */\n      tag_209\n        /* \"#utility.yul\":5540:5543   */\n      dup3\n        /* \"#utility.yul\":5531:5537   */\n      dup6\n        /* \"#utility.yul\":5469:5544   */\n      tag_202\n      jump\t// in\n    tag_209:\n        /* \"#utility.yul\":5569:5571   */\n      0x20\n        /* \"#utility.yul\":5564:5567   */\n      dup3\n        /* \"#utility.yul\":5560:5572   */\n      add\n        /* \"#utility.yul\":5553:5572   */\n      swap2\n      pop\n        /* \"#utility.yul\":5582:5657   */\n      tag_210\n        /* \"#utility.yul\":5653:5656   */\n      dup3\n        /* \"#utility.yul\":5644:5650   */\n      dup5\n        /* \"#utility.yul\":5582:5657   */\n      tag_145\n      jump\t// in\n    tag_210:\n        /* \"#utility.yul\":5682:5684   */\n      0x14\n        /* \"#utility.yul\":5677:5680   */\n      dup3\n        /* \"#utility.yul\":5673:5685   */\n      add\n        /* \"#utility.yul\":5666:5685   */\n      swap2\n      pop\n        /* \"#utility.yul\":5702:5705   */\n      dup2\n        /* \"#utility.yul\":5695:5705   */\n      swap1\n      pop\n        /* \"#utility.yul\":5173:5711   */\n      swap5\n      swap4\n      pop\n      pop\n      pop\n      pop\n      jump\t// out\n        /* \"#utility.yul\":5717:6136   */\n    tag_30:\n        /* \"#utility.yul\":5883:5887   */\n      0x00\n        /* \"#utility.yul\":5921:5923   */\n      0x20\n        /* \"#utility.yul\":5910:5919   */\n      dup3\n        /* \"#utility.yul\":5906:5924   */\n      add\n        /* \"#utility.yul\":5898:5924   */\n      swap1\n      pop\n        /* \"#utility.yul\":5970:5979   */\n      dup2\n        /* \"#utility.yul\":5964:5968   */\n      dup2\n        /* \"#utility.yul\":5960:5980   */\n      sub\n        /* \"#utility.yul\":5956:5957   */\n      0x00\n        /* \"#utility.yul\":5945:5954   */\n      dup4\n        /* \"#utility.yul\":5941:5958   */\n      add\n        /* \"#utility.yul\":5934:5981   */\n      mstore\n        /* \"#utility.yul\":5998:6129   */\n      tag_212\n        /* \"#utility.yul\":6124:6128   */\n      dup2\n        /* \"#utility.yul\":5998:6129   */\n      tag_165\n      jump\t// in\n    tag_212:\n        /* \"#utility.yul\":5990:6129   */\n      swap1\n      pop\n        /* \"#utility.yul\":5717:6136   */\n      swap2\n      swap1\n      pop\n      jump\t// out\n        /* \"#utility.yul\":6142:6561   */\n    tag_22:\n        /* \"#utility.yul\":6308:6312   */\n      0x00\n        /* \"#utility.yul\":6346:6348   */\n      0x20\n        /* \"#utility.yul\":6335:6344   */\n      dup3\n        /* \"#utility.yul\":6331:6349   */\n      add\n        /* \"#utility.yul\":6323:6349   */\n      swap1\n      pop\n        /* \"#utility.yul\":6395:6404   */\n      dup2\n        /* \"#utility.yul\":6389:6393   */\n      dup2\n        /* \"#utility.yul\":6385:6405   */\n      sub\n        /* \"#utility.yul\":6381:6382   */\n      0x00\n        /* \"#utility.yul\":6370:6379   */\n      dup4\n        /* \"#utility.yul\":6366:6383   */\n      add\n        /* \"#utility.yul\":6359:6406   */\n      mstore\n        /* \"#utility.yul\":6423:6554   */\n      tag_214\n        /* \"#utility.yul\":6549:6553   */\n      dup2\n        /* \"#utility.yul\":6423:6554   */\n      tag_171\n      jump\t// in\n    tag_214:\n        /* \"#utility.yul\":6415:6554   */\n      swap1\n      pop\n        /* \"#utility.yul\":6142:6561   */\n      swap2\n      swap1\n      pop\n      jump\t// out\n        /* \"#utility.yul\":6567:6986   */\n    tag_25:\n        /* \"#utility.yul\":6733:6737   */\n      0x00\n        /* \"#utility.yul\":6771:6773   */\n      0x20\n        /* \"#utility.yul\":6760:6769   */\n      dup3\n        /* \"#utility.yul\":6756:6774   */\n      add\n        /* \"#utility.yul\":6748:6774   */\n      swap1\n      pop\n        /* \"#utility.yul\":6820:6829   */\n      dup2\n        /* \"#utility.yul\":6814:6818   */\n      dup2\n        /* \"#utility.yul\":6810:6830   */\n      sub\n        /* \"#utility.yul\":6806:6807   */\n      0x00\n        /* \"#utility.yul\":6795:6804   */\n      dup4\n        /* \"#utility.yul\":6791:6808   */\n      add\n        /* \"#utility.yul\":6784:6831   */\n      mstore\n        /* \"#utility.yul\":6848:6979   */\n      tag_216\n        /* \"#utility.yul\":6974:6978   */\n      dup2\n        /* \"#utility.yul\":6848:6979   */\n      tag_176\n      jump\t// in\n    tag_216:\n        /* \"#utility.yul\":6840:6979   */\n      swap1\n      pop\n        /* \"#utility.yul\":6567:6986   */\n      swap2\n      swap1\n      pop\n      jump\t// out\n        /* \"#utility.yul\":6992:7361   */\n    tag_18:\n        /* \"#utility.yul\":7133:7137   */\n      0x00\n        /* \"#utility.yul\":7171:7173   */\n      0x20\n        /* \"#utility.yul\":7160:7169   */\n      dup3\n        /* \"#utility.yul\":7156:7174   */\n      add\n        /* \"#utility.yul\":7148:7174   */\n      swap1\n      pop\n        /* \"#utility.yul\":7220:7229   */\n      dup2\n        /* \"#utility.yul\":7214:7218   */\n      dup2\n        /* \"#utility.yul\":7210:7230   */\n      sub\n        /* \"#utility.yul\":7206:7207   */\n      0x00\n        /* \"#utility.yul\":7195:7204   */\n      dup4\n        /* \"#utility.yul\":7191:7208   */\n      add\n        /* \"#utility.yul\":7184:7231   */\n      mstore\n        /* \"#utility.yul\":7248:7354   */\n      tag_218\n        /* \"#utility.yul\":7349:7353   */\n      dup2\n        /* \"#utility.yul\":7340:7346   */\n      dup5\n        /* \"#utility.yul\":7248:7354   */\n      tag_181\n      jump\t// in\n    tag_218:\n        /* \"#utility.yul\":7240:7354   */\n      swap1\n      pop\n        /* \"#utility.yul\":6992:7361   */\n      swap3\n      swap2\n      pop\n      pop\n      jump\t// out\n        /* \"#utility.yul\":7367:7908   */\n    tag_13:\n        /* \"#utility.yul\":7538:7542   */\n      0x00\n        /* \"#utility.yul\":7576:7579   */\n      0x80\n        /* \"#utility.yul\":7565:7574   */\n      dup3\n        /* \"#utility.yul\":7561:7580   */\n      add\n        /* \"#utility.yul\":7553:7580   */\n      swap1\n      pop\n        /* \"#utility.yul\":7590:7661   */\n      tag_220\n        /* \"#utility.yul\":7658:7659   */\n      0x00\n        /* \"#utility.yul\":7647:7656   */\n      dup4\n        /* \"#utility.yul\":7643:7660   */\n      add\n        /* \"#utility.yul\":7634:7640   */\n      dup8\n        /* \"#utility.yul\":7590:7661   */\n      tag_199\n      jump\t// in\n    tag_220:\n        /* \"#utility.yul\":7671:7737   */\n      tag_221\n        /* \"#utility.yul\":7733:7735   */\n      0x20\n        /* \"#utility.yul\":7722:7731   */\n      dup4\n        /* \"#utility.yul\":7718:7736   */\n      add\n        /* \"#utility.yul\":7709:7715   */\n      dup7\n        /* \"#utility.yul\":7671:7737   */\n      tag_151\n      jump\t// in\n    tag_221:\n        /* \"#utility.yul\":7747:7819   */\n      tag_222\n        /* \"#utility.yul\":7815:7817   */\n      0x40\n        /* \"#utility.yul\":7804:7813   */\n      dup4\n        /* \"#utility.yul\":7800:7818   */\n      add\n        /* \"#utility.yul\":7791:7797   */\n      dup6\n        /* \"#utility.yul\":7747:7819   */\n      tag_199\n      jump\t// in\n    tag_222:\n        /* \"#utility.yul\":7829:7901   */\n      tag_223\n        /* \"#utility.yul\":7897:7899   */\n      0x60\n        /* \"#utility.yul\":7886:7895   */\n      dup4\n        /* \"#utility.yul\":7882:7900   */\n      add\n        /* \"#utility.yul\":7873:7879   */\n      dup5\n        /* \"#utility.yul\":7829:7901   */\n      tag_199\n      jump\t// in\n    tag_223:\n        /* \"#utility.yul\":7367:7908   */\n      swap6\n      swap5\n      pop\n      pop\n      pop\n      pop\n      pop\n      jump\t// out\n        /* \"#utility.yul\":7995:8094   */\n    tag_158:\n        /* \"#utility.yul\":8047:8053   */\n      0x00\n        /* \"#utility.yul\":8081:8086   */\n      dup2\n        /* \"#utility.yul\":8075:8087   */\n      mload\n        /* \"#utility.yul\":8065:8087   */\n      swap1\n      pop\n        /* \"#utility.yul\":7995:8094   */\n      swap2\n      swap1\n      pop\n      jump\t// out\n        /* \"#utility.yul\":8100:8259   */\n    tag_160:\n        /* \"#utility.yul\":8174:8185   */\n      0x00\n        /* \"#utility.yul\":8208:8214   */\n      dup3\n        /* \"#utility.yul\":8203:8206   */\n      dup3\n        /* \"#utility.yul\":8196:8215   */\n      mstore\n        /* \"#utility.yul\":8248:8252   */\n      0x20\n        /* \"#utility.yul\":8243:8246   */\n      dup3\n        /* \"#utility.yul\":8239:8253   */\n      add\n        /* \"#utility.yul\":8224:8253   */\n      swap1\n      pop\n        /* \"#utility.yul\":8100:8259   */\n      swap3\n      swap2\n      pop\n      pop\n      jump\t// out\n        /* \"#utility.yul\":8265:8434   */\n    tag_168:\n        /* \"#utility.yul\":8349:8360   */\n      0x00\n        /* \"#utility.yul\":8383:8389   */\n      dup3\n        /* \"#utility.yul\":8378:8381   */\n      dup3\n        /* \"#utility.yul\":8371:8390   */\n      mstore\n        /* \"#utility.yul\":8423:8427   */\n      0x20\n        /* \"#utility.yul\":8418:8421   */\n      dup3\n        /* \"#utility.yul\":8414:8428   */\n      add\n        /* \"#utility.yul\":8399:8428   */\n      swap1\n      pop\n        /* \"#utility.yul\":8265:8434   */\n      swap3\n      swap2\n      pop\n      pop\n      jump\t// out\n        /* \"#utility.yul\":8440:8965   */\n    tag_134:\n        /* \"#utility.yul\":8479:8482   */\n      0x00\n        /* \"#utility.yul\":8498:8517   */\n      tag_230\n        /* \"#utility.yul\":8515:8516   */\n      dup3\n        /* \"#utility.yul\":8498:8517   */\n      tag_231\n      jump\t// in\n    tag_230:\n        /* \"#utility.yul\":8493:8517   */\n      swap2\n      pop\n        /* \"#utility.yul\":8531:8550   */\n      tag_232\n        /* \"#utility.yul\":8548:8549   */\n      dup4\n        /* \"#utility.yul\":8531:8550   */\n      tag_231\n      jump\t// in\n    tag_232:\n        /* \"#utility.yul\":8526:8550   */\n      swap3\n      pop\n        /* \"#utility.yul\":8719:8720   */\n      dup2\n        /* \"#utility.yul\":8651:8717   */\n      0x7fffffffffffffffffffffffffffffffffffffffffffffffffffffffffffffff\n        /* \"#utility.yul\":8647:8721   */\n      sub\n        /* \"#utility.yul\":8644:8645   */\n      dup4\n        /* \"#utility.yul\":8640:8722   */\n      sgt\n        /* \"#utility.yul\":8635:8636   */\n      0x00\n        /* \"#utility.yul\":8632:8633   */\n      dup4\n        /* \"#utility.yul\":8628:8637   */\n      slt\n        /* \"#utility.yul\":8621:8638   */\n      iszero\n        /* \"#utility.yul\":8617:8723   */\n      and\n        /* \"#utility.yul\":8614:8746   */\n      iszero\n      tag_233\n      jumpi\n        /* \"#utility.yul\":8726:8744   */\n      tag_234\n      tag_235\n      jump\t// in\n    tag_234:\n        /* \"#utility.yul\":8614:8746   */\n    tag_233:\n        /* \"#utility.yul\":8906:8907   */\n      dup2\n        /* \"#utility.yul\":8838:8904   */\n      0x8000000000000000000000000000000000000000000000000000000000000000\n        /* \"#utility.yul\":8834:8908   */\n      sub\n        /* \"#utility.yul\":8831:8832   */\n      dup4\n        /* \"#utility.yul\":8827:8909   */\n      slt\n        /* \"#utility.yul\":8823:8824   */\n      0x00\n        /* \"#utility.yul\":8820:8821   */\n      dup4\n        /* \"#utility.yul\":8816:8825   */\n      slt\n        /* \"#utility.yul\":8812:8910   */\n      and\n        /* \"#utility.yul\":8809:8933   */\n      iszero\n      tag_236\n      jumpi\n        /* \"#utility.yul\":8913:8931   */\n      tag_237\n      tag_235\n      jump\t// in\n    tag_237:\n        /* \"#utility.yul\":8809:8933   */\n    tag_236:\n        /* \"#utility.yul\":8957:8958   */\n      dup3\n        /* \"#utility.yul\":8954:8955   */\n      dup3\n        /* \"#utility.yul\":8950:8959   */\n      add\n        /* \"#utility.yul\":8943:8959   */\n      swap1\n      pop\n        /* \"#utility.yul\":8440:8965   */\n      swap3\n      swap2\n      pop\n      pop\n      jump\t// out\n        /* \"#utility.yul\":8971:9276   */\n    tag_41:\n        /* \"#utility.yul\":9011:9014   */\n      0x00\n        /* \"#utility.yul\":9030:9050   */\n      tag_239\n        /* \"#utility.yul\":9048:9049   */\n      dup3\n        /* \"#utility.yul\":9030:9050   */\n      tag_198\n      jump\t// in\n    tag_239:\n        /* \"#utility.yul\":9025:9050   */\n      swap2\n      pop\n        /* \"#utility.yul\":9064:9084   */\n      tag_240\n        /* \"#utility.yul\":9082:9083   */\n      dup4\n        /* \"#utility.yul\":9064:9084   */\n      tag_198\n      jump\t// in\n    tag_240:\n        /* \"#utility.yul\":9059:9084   */\n      swap3\n      pop\n        /* \"#utility.yul\":9218:9219   */\n      dup3\n        /* \"#utility.yul\":9150:9216   */\n      0xffffffffffffffffffffffffffffffffffffffffffffffffffffffffffffffff\n        /* \"#utility.yul\":9146:9220   */\n      sub\n        /* \"#utility.yul\":9143:9144   */\n      dup3\n        /* \"#utility.yul\":9140:9221   */\n      gt\n        /* \"#utility.yul\":9137:9244   */\n      iszero\n      tag_241\n      jumpi\n        /* \"#utility.yul\":9224:9242   */\n      tag_242\n      tag_235\n      jump\t// in\n    tag_242:\n        /* \"#utility.yul\":9137:9244   */\n    tag_241:\n        /* \"#utility.yul\":9268:9269   */\n      dup3\n        /* \"#utility.yul\":9265:9266   */\n      dup3\n        /* \"#utility.yul\":9261:9270   */\n      add\n        /* \"#utility.yul\":9254:9270   */\n      swap1\n      pop\n        /* \"#utility.yul\":8971:9276   */\n      swap3\n      swap2\n      pop\n      pop\n      jump\t// out\n        /* \"#utility.yul\":9282:9378   */\n    tag_149:\n        /* \"#utility.yul\":9319:9326   */\n      0x00\n        /* \"#utility.yul\":9348:9372   */\n      tag_244\n        /* \"#utility.yul\":9366:9371   */\n      dup3\n        /* \"#utility.yul\":9348:9372   */\n      tag_245\n      jump\t// in\n    tag_244:\n        /* \"#utility.yul\":9337:9372   */\n      swap1\n      pop\n        /* \"#utility.yul\":9282:9378   */\n      swap2\n      swap1\n      pop\n      jump\t// out\n        /* \"#utility.yul\":9384:9474   */\n    tag_154:\n        /* \"#utility.yul\":9418:9425   */\n      0x00\n        /* \"#utility.yul\":9461:9466   */\n      dup2\n        /* \"#utility.yul\":9454:9467   */\n      iszero\n        /* \"#utility.yul\":9447:9468   */\n      iszero\n        /* \"#utility.yul\":9436:9468   */\n      swap1\n      pop\n        /* \"#utility.yul\":9384:9474   */\n      swap2\n      swap1\n      pop\n      jump\t// out\n        /* \"#utility.yul\":9480:9556   */\n    tag_231:\n        /* \"#utility.yul\":9516:9523   */\n      0x00\n        /* \"#utility.yul\":9545:9550   */\n      dup2\n        /* \"#utility.yul\":9534:9550   */\n      swap1\n      pop\n        /* \"#utility.yul\":9480:9556   */\n      swap2\n      swap1\n      pop\n      jump\t// out\n        /* \"#utility.yul\":9562:9688   */\n    tag_245:\n        /* \"#utility.yul\":9599:9606   */\n      0x00\n        /* \"#utility.yul\":9639:9681   */\n      0xffffffffffffffffffffffffffffffffffffffff\n        /* \"#utility.yul\":9632:9637   */\n      dup3\n        /* \"#utility.yul\":9628:9682   */\n      and\n        /* \"#utility.yul\":9617:9682   */\n      swap1\n      pop\n        /* \"#utility.yul\":9562:9688   */\n      swap2\n      swap1\n      pop\n      jump\t// out\n        /* \"#utility.yul\":9694:9771   */\n    tag_198:\n        /* \"#utility.yul\":9731:9738   */\n      0x00\n        /* \"#utility.yul\":9760:9765   */\n      dup2\n        /* \"#utility.yul\":9749:9765   */\n      swap1\n      pop\n        /* \"#utility.yul\":9694:9771   */\n      swap2\n      swap1\n      pop\n      jump\t// out\n        /* \"#utility.yul\":9777:10084   */\n    tag_162:\n        /* \"#utility.yul\":9845:9846   */\n      0x00\n        /* \"#utility.yul\":9855:9968   */\n    tag_251:\n        /* \"#utility.yul\":9869:9875   */\n      dup4\n        /* \"#utility.yul\":9866:9867   */\n      dup2\n        /* \"#utility.yul\":9863:9876   */\n      lt\n        /* \"#utility.yul\":9855:9968   */\n      iszero\n      tag_253\n      jumpi\n        /* \"#utility.yul\":9954:9955   */\n      dup1\n        /* \"#utility.yul\":9949:9952   */\n      dup3\n        /* \"#utility.yul\":9945:9956   */\n      add\n        /* \"#utility.yul\":9939:9957   */\n      mload\n        /* \"#utility.yul\":9935:9936   */\n      dup2\n        /* \"#utility.yul\":9930:9933   */\n      dup5\n        /* \"#utility.yul\":9926:9937   */\n      add\n        /* \"#utility.yul\":9919:9958   */\n      mstore\n        /* \"#utility.yul\":9891:9893   */\n      0x20\n        /* \"#utility.yul\":9888:9889   */\n      dup2\n        /* \"#utility.yul\":9884:9894   */\n      add\n        /* \"#utility.yul\":9879:9894   */\n      swap1\n      pop\n        /* \"#utility.yul\":9855:9968   */\n      jump(tag_251)\n    tag_253:\n        /* \"#utility.yul\":9986:9992   */\n      dup4\n        /* \"#utility.yul\":9983:9984   */\n      dup2\n        /* \"#utility.yul\":9980:9993   */\n      gt\n        /* \"#utility.yul\":9977:10078   */\n      iszero\n      tag_254\n      jumpi\n        /* \"#utility.yul\":10066:10067   */\n      0x00\n        /* \"#utility.yul\":10057:10063   */\n      dup5\n        /* \"#utility.yul\":10052:10055   */\n      dup5\n        /* \"#utility.yul\":10048:10064   */\n      add\n        /* \"#utility.yul\":10041:10068   */\n      mstore\n        /* \"#utility.yul\":9977:10078   */\n    tag_254:\n        /* \"#utility.yul\":9826:10084   */\n      pop\n        /* \"#utility.yul\":9777:10084   */\n      pop\n      pop\n      pop\n      jump\t// out\n        /* \"#utility.yul\":10090:10410   */\n    tag_119:\n        /* \"#utility.yul\":10134:10140   */\n      0x00\n        /* \"#utility.yul\":10171:10172   */\n      0x02\n        /* \"#utility.yul\":10165:10169   */\n      dup3\n        /* \"#utility.yul\":10161:10173   */\n      div\n        /* \"#utility.yul\":10151:10173   */\n      swap1\n      pop\n        /* \"#utility.yul\":10218:10219   */\n      0x01\n        /* \"#utility.yul\":10212:10216   */\n      dup3\n        /* \"#utility.yul\":10208:10220   */\n      and\n        /* \"#utility.yul\":10239:10257   */\n      dup1\n        /* \"#utility.yul\":10229:10310   */\n      tag_256\n      jumpi\n        /* \"#utility.yul\":10295:10299   */\n      0x7f\n        /* \"#utility.yul\":10287:10293   */\n      dup3\n        /* \"#utility.yul\":10283:10300   */\n      and\n        /* \"#utility.yul\":10273:10300   */\n      swap2\n      pop\n        /* \"#utility.yul\":10229:10310   */\n    tag_256:\n        /* \"#utility.yul\":10357:10359   */\n      0x20\n        /* \"#utility.yul\":10349:10355   */\n      dup3\n        /* \"#utility.yul\":10346:10360   */\n      lt\n        /* \"#utility.yul\":10326:10344   */\n      dup2\n        /* \"#utility.yul\":10323:10361   */\n      eq\n        /* \"#utility.yul\":10320:10404   */\n      iszero\n      tag_257\n      jumpi\n        /* \"#utility.yul\":10376:10394   */\n      tag_258\n      tag_259\n      jump\t// in\n    tag_258:\n        /* \"#utility.yul\":10320:10404   */\n    tag_257:\n        /* \"#utility.yul\":10141:10410   */\n      pop\n        /* \"#utility.yul\":10090:10410   */\n      swap2\n      swap1\n      pop\n      jump\t// out\n        /* \"#utility.yul\":10416:10516   */\n    tag_150:\n        /* \"#utility.yul\":10455:10462   */\n      0x00\n        /* \"#utility.yul\":10484:10510   */\n      tag_261\n        /* \"#utility.yul\":10504:10509   */\n      dup3\n        /* \"#utility.yul\":10484:10510   */\n      tag_262\n      jump\t// in\n    tag_261:\n        /* \"#utility.yul\":10473:10510   */\n      swap1\n      pop\n        /* \"#utility.yul\":10416:10516   */\n      swap2\n      swap1\n      pop\n      jump\t// out\n        /* \"#utility.yul\":10522:10616   */\n    tag_262:\n        /* \"#utility.yul\":10561:10568   */\n      0x00\n        /* \"#utility.yul\":10590:10610   */\n      tag_264\n        /* \"#utility.yul\":10604:10609   */\n      dup3\n        /* \"#utility.yul\":10590:10610   */\n      tag_265\n      jump\t// in\n    tag_264:\n        /* \"#utility.yul\":10579:10610   */\n      swap1\n      pop\n        /* \"#utility.yul\":10522:10616   */\n      swap2\n      swap1\n      pop\n      jump\t// out\n        /* \"#utility.yul\":10622:10701   */\n    tag_206:\n        /* \"#utility.yul\":10661:10668   */\n      0x00\n        /* \"#utility.yul\":10690:10695   */\n      dup2\n        /* \"#utility.yul\":10679:10695   */\n      swap1\n      pop\n        /* \"#utility.yul\":10622:10701   */\n      swap2\n      swap1\n      pop\n      jump\t// out\n        /* \"#utility.yul\":10707:10883   */\n    tag_128:\n        /* \"#utility.yul\":10739:10740   */\n      0x00\n        /* \"#utility.yul\":10756:10776   */\n      tag_268\n        /* \"#utility.yul\":10774:10775   */\n      dup3\n        /* \"#utility.yul\":10756:10776   */\n      tag_198\n      jump\t// in\n    tag_268:\n        /* \"#utility.yul\":10751:10776   */\n      swap2\n      pop\n        /* \"#utility.yul\":10790:10810   */\n      tag_269\n        /* \"#utility.yul\":10808:10809   */\n      dup4\n        /* \"#utility.yul\":10790:10810   */\n      tag_198\n      jump\t// in\n    tag_269:\n        /* \"#utility.yul\":10785:10810   */\n      swap3\n      pop\n        /* \"#utility.yul\":10829:10830   */\n      dup3\n        /* \"#utility.yul\":10819:10854   */\n      tag_270\n      jumpi\n        /* \"#utility.yul\":10834:10852   */\n      tag_271\n      tag_272\n      jump\t// in\n    tag_271:\n        /* \"#utility.yul\":10819:10854   */\n    tag_270:\n        /* \"#utility.yul\":10875:10876   */\n      dup3\n        /* \"#utility.yul\":10872:10873   */\n      dup3\n        /* \"#utility.yul\":10868:10877   */\n      mod\n        /* \"#utility.yul\":10863:10877   */\n      swap1\n      pop\n        /* \"#utility.yul\":10707:10883   */\n      swap3\n      swap2\n      pop\n      pop\n      jump\t// out\n        /* \"#utility.yul\":10889:11069   */\n    tag_235:\n        /* \"#utility.yul\":10937:11014   */\n      0x4e487b7100000000000000000000000000000000000000000000000000000000\n        /* \"#utility.yul\":10934:10935   */\n      0x00\n        /* \"#utility.yul\":10927:11015   */\n      mstore\n        /* \"#utility.yul\":11034:11038   */\n      0x11\n        /* \"#utility.yul\":11031:11032   */\n      0x04\n        /* \"#utility.yul\":11024:11039   */\n      mstore\n        /* \"#utility.yul\":11058:11062   */\n      0x24\n        /* \"#utility.yul\":11055:11056   */\n      0x00\n        /* \"#utility.yul\":11048:11063   */\n      revert\n        /* \"#utility.yul\":11075:11255   */\n    tag_272:\n        /* \"#utility.yul\":11123:11200   */\n      0x4e487b7100000000000000000000000000000000000000000000000000000000\n        /* \"#utility.yul\":11120:11121   */\n      0x00\n        /* \"#utility.yul\":11113:11201   */\n      mstore\n        /* \"#utility.yul\":11220:11224   */\n      0x12\n        /* \"#utility.yul\":11217:11218   */\n      0x04\n        /* \"#utility.yul\":11210:11225   */\n      mstore\n        /* \"#utility.yul\":11244:11248   */\n      0x24\n        /* \"#utility.yul\":11241:11242   */\n      0x00\n        /* \"#utility.yul\":11234:11249   */\n      revert\n        /* \"#utility.yul\":11261:11441   */\n    tag_259:\n        /* \"#utility.yul\":11309:11386   */\n      0x4e487b7100000000000000000000000000000000000000000000000000000000\n        /* \"#utility.yul\":11306:11307   */\n      0x00\n        /* \"#utility.yul\":11299:11387   */\n      mstore\n        /* \"#utility.yul\":11406:11410   */\n      0x22\n        /* \"#utility.yul\":11403:11404   */\n      0x04\n        /* \"#utility.yul\":11396:11411   */\n      mstore\n        /* \"#utility.yul\":11430:11434   */\n      0x24\n        /* \"#utility.yul\":11427:11428   */\n      0x00\n        /* \"#utility.yul\":11420:11435   */\n      revert\n        /* \"#utility.yul\":11447:11627   */\n    tag_38:\n        /* \"#utility.yul\":11495:11572   */\n      0x4e487b7100000000000000000000000000000000000000000000000000000000\n        /* \"#utility.yul\":11492:11493   */\n      0x00\n        /* \"#utility.yul\":11485:11573   */\n      mstore\n        /* \"#utility.yul\":11592:11596   */\n      0x32\n        /* \"#utility.yul\":11589:11590   */\n      0x04\n        /* \"#utility.yul\":11582:11597   */\n      mstore\n        /* \"#utility.yul\":11616:11620   */\n      0x24\n        /* \"#utility.yul\":11613:11614   */\n      0x00\n        /* \"#utility.yul\":11606:11621   */\n      revert\n        /* \"#utility.yul\":11756:11873   */\n    tag_143:\n        /* \"#utility.yul\":11865:11866   */\n      0x00\n        /* \"#utility.yul\":11862:11863   */\n      dup1\n        /* \"#utility.yul\":11855:11867   */\n      revert\n        /* \"#utility.yul\":11879:11981   */\n    tag_164:\n        /* \"#utility.yul\":11920:11926   */\n      0x00\n        /* \"#utility.yul\":11971:11973   */\n      0x1f\n        /* \"#utility.yul\":11967:11974   */\n      not\n        /* \"#utility.yul\":11962:11964   */\n      0x1f\n        /* \"#utility.yul\":11955:11960   */\n      dup4\n        /* \"#utility.yul\":11951:11965   */\n      add\n        /* \"#utility.yul\":11947:11975   */\n      and\n        /* \"#utility.yul\":11937:11975   */\n      swap1\n      pop\n        /* \"#utility.yul\":11879:11981   */\n      swap2\n      swap1\n      pop\n      jump\t// out\n        /* \"#utility.yul\":11987:12081   */\n    tag_265:\n        /* \"#utility.yul\":12020:12028   */\n      0x00\n        /* \"#utility.yul\":12068:12073   */\n      dup2\n        /* \"#utility.yul\":12064:12066   */\n      0x60\n        /* \"#utility.yul\":12060:12074   */\n      shl\n        /* \"#utility.yul\":12039:12074   */\n      swap1\n      pop\n        /* \"#utility.yul\":11987:12081   */\n      swap2\n      swap1\n      pop\n      jump\t// out\n        /* \"#utility.yul\":12087:12251   */\n    tag_170:\n        /* \"#utility.yul\":12227:12243   */\n      0x416c726561647920766f7465642e000000000000000000000000000000000000\n        /* \"#utility.yul\":12223:12224   */\n      0x00\n        /* \"#utility.yul\":12215:12221   */\n      dup3\n        /* \"#utility.yul\":12211:12225   */\n      add\n        /* \"#utility.yul\":12204:12244   */\n      mstore\n        /* \"#utility.yul\":12087:12251   */\n      pop\n      jump\t// out\n        /* \"#utility.yul\":12257:12431   */\n    tag_175:\n        /* \"#utility.yul\":12397:12423   */\n      0x54686520766f74657220616c726561647920766f7465642e0000000000000000\n        /* \"#utility.yul\":12393:12394   */\n      0x00\n        /* \"#utility.yul\":12385:12391   */\n      dup3\n        /* \"#utility.yul\":12381:12395   */\n      add\n        /* \"#utility.yul\":12374:12424   */\n      mstore\n        /* \"#utility.yul\":12257:12431   */\n      pop\n      jump\t// out\n        /* \"#utility.yul\":12437:12606   */\n    tag_180:\n        /* \"#utility.yul\":12577:12598   */\n      0x52656163686564206d617820766f746572732e00000000000000000000000000\n        /* \"#utility.yul\":12573:12574   */\n      0x00\n        /* \"#utility.yul\":12565:12571   */\n      dup3\n        /* \"#utility.yul\":12561:12575   */\n      add\n        /* \"#utility.yul\":12554:12599   */\n      mstore\n        /* \"#utility.yul\":12437:12606   */\n      pop\n      jump\t// out\n        /* \"#utility.yul\":12612:12734   */\n    tag_139:\n        /* \"#utility.yul\":12685:12709   */\n      tag_286\n        /* \"#utility.yul\":12703:12708   */\n      dup2\n        /* \"#utility.yul\":12685:12709   */\n      tag_198\n      jump\t// in\n    tag_286:\n        /* \"#utility.yul\":12678:12683   */\n      dup2\n        /* \"#utility.yul\":12675:12710   */\n      eq\n        /* \"#utility.yul\":12665:12728   */\n      tag_287\n      jumpi\n        /* \"#utility.yul\":12724:12725   */\n      0x00\n        /* \"#utility.yul\":12721:12722   */\n      dup1\n        /* \"#utility.yul\":12714:12726   */\n      revert\n        /* \"#utility.yul\":12665:12728   */\n    tag_287:\n        /* \"#utility.yul\":12612:12734   */\n      pop\n      jump\t// out\n\n    auxdata: 0xa264697066735822122071e00197b0a9f0a1cbdf2786dde64146432ff7153bac2b12d37afa147879d9f264736f6c63430008070033\n}\n",
				"bytecode": {
					"linkReferences": {},
					"object": "608060405260006004553480156200001657600080fd5b50336000806101000a81548173ffffffffffffffffffffffffffffffffffffffff021916908373ffffffffffffffffffffffffffffffffffffffff16021790555060018060008060009054906101000a900473ffffffffffffffffffffffffffffffffffffffff1673ffffffffffffffffffffffffffffffffffffffff1673ffffffffffffffffffffffffffffffffffffffff1681526020019081526020016000206000018190555060006040518060a001604052806040518060400160405280600181526020017f610000000000000000000000000000000000000000000000000000000000000081525081526020016040518060400160405280600181526020017f620000000000000000000000000000000000000000000000000000000000000081525081526020016040518060400160405280600181526020017f630000000000000000000000000000000000000000000000000000000000000081525081526020016040518060400160405280600181526020017f640000000000000000000000000000000000000000000000000000000000000081525081526020016040518060400160405280600181526020017f650000000000000000000000000000000000000000000000000000000000000081525081525090506005801462000239576040517f08c379a0000000000000000000000000000000000000000000000000000000008152600401620002309062000470565b60405180910390fd5b60005b6005811015620003915760036040518061018001604052808484600581106200026a57620002696200058f565b5b6020020151815260200160008152602001600081526020016000815260200160008152602001600081526020016000815260200160008152602001600081526020016000815260200160008152602001600081525090806001815401808255809150506001900390600052602060002090600c020160009091909190915060008201518160000190805190602001906200030692919062000399565b506020820151816001015560408201518160020155606082015181600301556080820151816004015560a0820151816005015560c0820151816006015560e082015181600701556101008201518160080155610120820151816009015561014082015181600a015561016082015181600b0155505080806200038890620004e3565b9150506200023c565b5050620005e7565b828054620003a790620004ad565b90600052602060002090601f016020900481019282620003cb576000855562000417565b82601f10620003e657805160ff191683800117855562000417565b8280016001018555821562000417579182015b8281111562000416578251825591602001919060010190620003f9565b5b5090506200042691906200042a565b5090565b5b80821115620004455760008160009055506001016200042b565b5090565b60006200045860158362000492565b91506200046582620005be565b602082019050919050565b600060208201905081810360008301526200048b8162000449565b9050919050565b600082825260208201905092915050565b6000819050919050565b60006002820490506001821680620004c657607f821691505b60208210811415620004dd57620004dc62000560565b5b50919050565b6000620004f082620004a3565b91507fffffffffffffffffffffffffffffffffffffffffffffffffffffffffffffffff82141562000526576200052562000531565b5b600182019050919050565b7f4e487b7100000000000000000000000000000000000000000000000000000000600052601160045260246000fd5b7f4e487b7100000000000000000000000000000000000000000000000000000000600052602260045260246000fd5b7f4e487b7100000000000000000000000000000000000000000000000000000000600052603260045260246000fd5b7f43616e64696461746573206d75737420626520352e0000000000000000000000600082015250565b6110a180620005f76000396000f3fe608060405234801561001057600080fd5b50600436106100415760003560e01c8063632a9a521461004657806364030a1914610050578063d4e8fd2e14610083575b600080fd5b61004e6100b3565b005b61006a6004803603810190610065919061099b565b6106fd565b60405161007a9493929190610c88565b60405180910390f35b61009d6004803603810190610098919061099b565b61074a565b6040516100aa9190610c66565b60405180910390f35b600160003373ffffffffffffffffffffffffffffffffffffffff1673ffffffffffffffffffffffffffffffffffffffff16815260200190815260200160002060010160009054906101000a900460ff1615610143576040517f08c379a000000000000000000000000000000000000000000000000000000000815260040161013a90610c26565b60405180910390fd5b60018060003373ffffffffffffffffffffffffffffffffffffffff1673ffffffffffffffffffffffffffffffffffffffff16815260200190815260200160002060000181905550606460045413156101d0576040517f08c379a00000000000000000000000000000000000000000000000000000000081526004016101c790610c46565b60405180910390fd5b6101d8610887565b600160003373ffffffffffffffffffffffffffffffffffffffff1673ffffffffffffffffffffffffffffffffffffffff1681526020019081526020016000206002018190555060018060003373ffffffffffffffffffffffffffffffffffffffff1673ffffffffffffffffffffffffffffffffffffffff16815260200190815260200160002060010160006101000a81548160ff0219169083151502179055506000600160003373ffffffffffffffffffffffffffffffffffffffff1673ffffffffffffffffffffffffffffffffffffffff16815260200190815260200160002090508060010160009054906101000a900460ff161561030d576040517f08c379a000000000000000000000000000000000000000000000000000000000815260040161030490610c06565b60405180910390fd5b60018160010160006101000a81548160ff0219169083151502179055506103326108c8565b8160030181905550610342610909565b806000015460036103516108c8565b8154811061036257610361610f87565b5b90600052602060002090600c020160010160008282546103829190610d8e565b925050819055506000816002015414156103e257806000015460036103a56108c8565b815481106103b6576103b5610f87565b5b90600052602060002090600c020160020160008282546103d69190610d8e565b925050819055506106fa565b60018160020154141561043b57806000015460036103fe6108c8565b8154811061040f5761040e610f87565b5b90600052602060002090600c0201600301600082825461042f9190610d8e565b925050819055506106f9565b60028160020154141561049457806000015460036104576108c8565b8154811061046857610467610f87565b5b90600052602060002090600c020160040160008282546104889190610d8e565b925050819055506106f8565b6003816002015414156104ed57806000015460036104b06108c8565b815481106104c1576104c0610f87565b5b90600052602060002090600c020160050160008282546104e19190610d8e565b925050819055506106f7565b60048160020154141561054657806000015460036105096108c8565b8154811061051a57610519610f87565b5b90600052602060002090600c0201600601600082825461053a9190610d8e565b925050819055506106f6565b60058160020154141561059f57806000015460036105626108c8565b8154811061057357610572610f87565b5b90600052602060002090600c020160070160008282546105939190610d8e565b925050819055506106f5565b6006816002015414156105f857806000015460036105bb6108c8565b815481106105cc576105cb610f87565b5b90600052602060002090600c020160080160008282546105ec9190610d8e565b925050819055506106f4565b60078160020154141561065157806000015460036106146108c8565b8154811061062557610624610f87565b5b90600052602060002090600c020160090160008282546106459190610d8e565b925050819055506106f3565b6008816002015414156106aa578060000154600361066d6108c8565b8154811061067e5761067d610f87565b5b90600052602060002090600c0201600a01600082825461069e9190610d8e565b925050819055506106f2565b806000015460036106b96108c8565b815481106106ca576106c9610f87565b5b90600052602060002090600c0201600b0160008282546106ea9190610d8e565b925050819055505b5b5b5b5b5b5b5b5b50565b6002818154811061070d57600080fd5b90600052602060002090600402016000915090508060000154908060010160009054906101000a900460ff16908060020154908060030154905084565b610752610925565b6003828154811061076657610765610f87565b5b90600052602060002090600c02016040518061018001604052908160008201805461079090610e69565b80601f01602080910402602001604051908101604052809291908181526020018280546107bc90610e69565b80156108095780601f106107de57610100808354040283529160200191610809565b820191906000526020600020905b8154815290600101906020018083116107ec57829003601f168201915b50505050508152602001600182015481526020016002820154815260200160038201548152602001600482015481526020016005820154815260200160068201548152602001600782015481526020016008820154815260200160098201548152602001600a8201548152602001600b820154815250509050919050565b6000600a4244336040516020016108a093929190610bc9565b6040516020818303038152906040528051906020012060001c6108c39190610ec9565b905090565b600060054244336040516020016108e193929190610bc9565b6040516020818303038152906040528051906020012060001c6109049190610ec9565b905090565b60016004600082825461091c9190610cfa565b92505081905550565b6040518061018001604052806060815260200160008152602001600081526020016000815260200160008152602001600081526020016000815260200160008152602001600081526020016000815260200160008152602001600081525090565b60008135905061099581611054565b92915050565b6000602082840312156109b1576109b0610fb6565b5b60006109bf84828501610986565b91505092915050565b6109d96109d482610de4565b610e9b565b82525050565b6109e881610df6565b82525050565b60006109f982610ccd565b610a038185610cd8565b9350610a13818560208601610e36565b610a1c81610fbb565b840191505092915050565b6000610a34600e83610ce9565b9150610a3f82610fd9565b602082019050919050565b6000610a57601883610ce9565b9150610a6282611002565b602082019050919050565b6000610a7a601383610ce9565b9150610a858261102b565b602082019050919050565b6000610180830160008301518482036000860152610aae82826109ee565b9150506020830151610ac36020860182610b94565b506040830151610ad66040860182610b94565b506060830151610ae96060860182610b94565b506080830151610afc6080860182610b94565b5060a0830151610b0f60a0860182610b94565b5060c0830151610b2260c0860182610b94565b5060e0830151610b3560e0860182610b94565b50610100830151610b4a610100860182610b94565b50610120830151610b5f610120860182610b94565b50610140830151610b74610140860182610b94565b50610160830151610b89610160860182610b94565b508091505092915050565b610b9d81610e2c565b82525050565b610bac81610e2c565b82525050565b610bc3610bbe82610e2c565b610ebf565b82525050565b6000610bd58286610bb2565b602082019150610be58285610bb2565b602082019150610bf582846109c8565b601482019150819050949350505050565b60006020820190508181036000830152610c1f81610a27565b9050919050565b60006020820190508181036000830152610c3f81610a4a565b9050919050565b60006020820190508181036000830152610c5f81610a6d565b9050919050565b60006020820190508181036000830152610c808184610a90565b905092915050565b6000608082019050610c9d6000830187610ba3565b610caa60208301866109df565b610cb76040830185610ba3565b610cc46060830184610ba3565b95945050505050565b600081519050919050565b600082825260208201905092915050565b600082825260208201905092915050565b6000610d0582610e02565b9150610d1083610e02565b9250817f7fffffffffffffffffffffffffffffffffffffffffffffffffffffffffffffff03831360008312151615610d4b57610d4a610efa565b5b817f8000000000000000000000000000000000000000000000000000000000000000038312600083121615610d8357610d82610efa565b5b828201905092915050565b6000610d9982610e2c565b9150610da483610e2c565b9250827fffffffffffffffffffffffffffffffffffffffffffffffffffffffffffffffff03821115610dd957610dd8610efa565b5b828201905092915050565b6000610def82610e0c565b9050919050565b60008115159050919050565b6000819050919050565b600073ffffffffffffffffffffffffffffffffffffffff82169050919050565b6000819050919050565b60005b83811015610e54578082015181840152602081019050610e39565b83811115610e63576000848401525b50505050565b60006002820490506001821680610e8157607f821691505b60208210811415610e9557610e94610f58565b5b50919050565b6000610ea682610ead565b9050919050565b6000610eb882610fcc565b9050919050565b6000819050919050565b6000610ed482610e2c565b9150610edf83610e2c565b925082610eef57610eee610f29565b5b828206905092915050565b7f4e487b7100000000000000000000000000000000000000000000000000000000600052601160045260246000fd5b7f4e487b7100000000000000000000000000000000000000000000000000000000600052601260045260246000fd5b7f4e487b7100000000000000000000000000000000000000000000000000000000600052602260045260246000fd5b7f4e487b7100000000000000000000000000000000000000000000000000000000600052603260045260246000fd5b600080fd5b6000601f19601f8301169050919050565b60008160601b9050919050565b7f416c726561647920766f7465642e000000000000000000000000000000000000600082015250565b7f54686520766f74657220616c726561647920766f7465642e0000000000000000600082015250565b7f52656163686564206d617820766f746572732e00000000000000000000000000600082015250565b61105d81610e2c565b811461106857600080fd5b5056fea264697066735822122071e00197b0a9f0a1cbdf2786dde64146432ff7153bac2b12d37afa147879d9f264736f6c63430008070033",
					"opcodes": "PUSH1 0x80 PUSH1 0x40 MSTORE PUSH1 0x0 PUSH1 0x4 SSTORE CALLVALUE DUP1 ISZERO PUSH3 0x16 JUMPI PUSH1 0x0 DUP1 REVERT JUMPDEST POP CALLER PUSH1 0x0 DUP1 PUSH2 0x100 EXP DUP2 SLOAD DUP2 PUSH20 0xFFFFFFFFFFFFFFFFFFFFFFFFFFFFFFFFFFFFFFFF MUL NOT AND SWAP1 DUP4 PUSH20 0xFFFFFFFFFFFFFFFFFFFFFFFFFFFFFFFFFFFFFFFF AND MUL OR SWAP1 SSTORE POP PUSH1 0x1 DUP1 PUSH1 0x0 DUP1 PUSH1 0x0 SWAP1 SLOAD SWAP1 PUSH2 0x100 EXP SWAP1 DIV PUSH20 0xFFFFFFFFFFFFFFFFFFFFFFFFFFFFFFFFFFFFFFFF AND PUSH20 0xFFFFFFFFFFFFFFFFFFFFFFFFFFFFFFFFFFFFFFFF AND PUSH20 0xFFFFFFFFFFFFFFFFFFFFFFFFFFFFFFFFFFFFFFFF AND DUP2 MSTORE PUSH1 0x20 ADD SWAP1 DUP2 MSTORE PUSH1 0x20 ADD PUSH1 0x0 KECCAK256 PUSH1 0x0 ADD DUP2 SWAP1 SSTORE POP PUSH1 0x0 PUSH1 0x40 MLOAD DUP1 PUSH1 0xA0 ADD PUSH1 0x40 MSTORE DUP1 PUSH1 0x40 MLOAD DUP1 PUSH1 0x40 ADD PUSH1 0x40 MSTORE DUP1 PUSH1 0x1 DUP2 MSTORE PUSH1 0x20 ADD PUSH32 0x6100000000000000000000000000000000000000000000000000000000000000 DUP2 MSTORE POP DUP2 MSTORE PUSH1 0x20 ADD PUSH1 0x40 MLOAD DUP1 PUSH1 0x40 ADD PUSH1 0x40 MSTORE DUP1 PUSH1 0x1 DUP2 MSTORE PUSH1 0x20 ADD PUSH32 0x6200000000000000000000000000000000000000000000000000000000000000 DUP2 MSTORE POP DUP2 MSTORE PUSH1 0x20 ADD PUSH1 0x40 MLOAD DUP1 PUSH1 0x40 ADD PUSH1 0x40 MSTORE DUP1 PUSH1 0x1 DUP2 MSTORE PUSH1 0x20 ADD PUSH32 0x6300000000000000000000000000000000000000000000000000000000000000 DUP2 MSTORE POP DUP2 MSTORE PUSH1 0x20 ADD PUSH1 0x40 MLOAD DUP1 PUSH1 0x40 ADD PUSH1 0x40 MSTORE DUP1 PUSH1 0x1 DUP2 MSTORE PUSH1 0x20 ADD PUSH32 0x6400000000000000000000000000000000000000000000000000000000000000 DUP2 MSTORE POP DUP2 MSTORE PUSH1 0x20 ADD PUSH1 0x40 MLOAD DUP1 PUSH1 0x40 ADD PUSH1 0x40 MSTORE DUP1 PUSH1 0x1 DUP2 MSTORE PUSH1 0x20 ADD PUSH32 0x6500000000000000000000000000000000000000000000000000000000000000 DUP2 MSTORE POP DUP2 MSTORE POP SWAP1 POP PUSH1 0x5 DUP1 EQ PUSH3 0x239 JUMPI PUSH1 0x40 MLOAD PUSH32 0x8C379A000000000000000000000000000000000000000000000000000000000 DUP2 MSTORE PUSH1 0x4 ADD PUSH3 0x230 SWAP1 PUSH3 0x470 JUMP JUMPDEST PUSH1 0x40 MLOAD DUP1 SWAP2 SUB SWAP1 REVERT JUMPDEST PUSH1 0x0 JUMPDEST PUSH1 0x5 DUP2 LT ISZERO PUSH3 0x391 JUMPI PUSH1 0x3 PUSH1 0x40 MLOAD DUP1 PUSH2 0x180 ADD PUSH1 0x40 MSTORE DUP1 DUP5 DUP5 PUSH1 0x5 DUP2 LT PUSH3 0x26A JUMPI PUSH3 0x269 PUSH3 0x58F JUMP JUMPDEST JUMPDEST PUSH1 0x20 MUL ADD MLOAD DUP2 MSTORE PUSH1 0x20 ADD PUSH1 0x0 DUP2 MSTORE PUSH1 0x20 ADD PUSH1 0x0 DUP2 MSTORE PUSH1 0x20 ADD PUSH1 0x0 DUP2 MSTORE PUSH1 0x20 ADD PUSH1 0x0 DUP2 MSTORE PUSH1 0x20 ADD PUSH1 0x0 DUP2 MSTORE PUSH1 0x20 ADD PUSH1 0x0 DUP2 MSTORE PUSH1 0x20 ADD PUSH1 0x0 DUP2 MSTORE PUSH1 0x20 ADD PUSH1 0x0 DUP2 MSTORE PUSH1 0x20 ADD PUSH1 0x0 DUP2 MSTORE PUSH1 0x20 ADD PUSH1 0x0 DUP2 MSTORE PUSH1 0x20 ADD PUSH1 0x0 DUP2 MSTORE POP SWAP1 DUP1 PUSH1 0x1 DUP2 SLOAD ADD DUP1 DUP3 SSTORE DUP1 SWAP2 POP POP PUSH1 0x1 SWAP1 SUB SWAP1 PUSH1 0x0 MSTORE PUSH1 0x20 PUSH1 0x0 KECCAK256 SWAP1 PUSH1 0xC MUL ADD PUSH1 0x0 SWAP1 SWAP2 SWAP1 SWAP2 SWAP1 SWAP2 POP PUSH1 0x0 DUP3 ADD MLOAD DUP2 PUSH1 0x0 ADD SWAP1 DUP1 MLOAD SWAP1 PUSH1 0x20 ADD SWAP1 PUSH3 0x306 SWAP3 SWAP2 SWAP1 PUSH3 0x399 JUMP JUMPDEST POP PUSH1 0x20 DUP3 ADD MLOAD DUP2 PUSH1 0x1 ADD SSTORE PUSH1 0x40 DUP3 ADD MLOAD DUP2 PUSH1 0x2 ADD SSTORE PUSH1 0x60 DUP3 ADD MLOAD DUP2 PUSH1 0x3 ADD SSTORE PUSH1 0x80 DUP3 ADD MLOAD DUP2 PUSH1 0x4 ADD SSTORE PUSH1 0xA0 DUP3 ADD MLOAD DUP2 PUSH1 0x5 ADD SSTORE PUSH1 0xC0 DUP3 ADD MLOAD DUP2 PUSH1 0x6 ADD SSTORE PUSH1 0xE0 DUP3 ADD MLOAD DUP2 PUSH1 0x7 ADD SSTORE PUSH2 0x100 DUP3 ADD MLOAD DUP2 PUSH1 0x8 ADD SSTORE PUSH2 0x120 DUP3 ADD MLOAD DUP2 PUSH1 0x9 ADD SSTORE PUSH2 0x140 DUP3 ADD MLOAD DUP2 PUSH1 0xA ADD SSTORE PUSH2 0x160 DUP3 ADD MLOAD DUP2 PUSH1 0xB ADD SSTORE POP POP DUP1 DUP1 PUSH3 0x388 SWAP1 PUSH3 0x4E3 JUMP JUMPDEST SWAP2 POP POP PUSH3 0x23C JUMP JUMPDEST POP POP PUSH3 0x5E7 JUMP JUMPDEST DUP3 DUP1 SLOAD PUSH3 0x3A7 SWAP1 PUSH3 0x4AD JUMP JUMPDEST SWAP1 PUSH1 0x0 MSTORE PUSH1 0x20 PUSH1 0x0 KECCAK256 SWAP1 PUSH1 0x1F ADD PUSH1 0x20 SWAP1 DIV DUP2 ADD SWAP3 DUP3 PUSH3 0x3CB JUMPI PUSH1 0x0 DUP6 SSTORE PUSH3 0x417 JUMP JUMPDEST DUP3 PUSH1 0x1F LT PUSH3 0x3E6 JUMPI DUP1 MLOAD PUSH1 0xFF NOT AND DUP4 DUP1 ADD OR DUP6 SSTORE PUSH3 0x417 JUMP JUMPDEST DUP3 DUP1 ADD PUSH1 0x1 ADD DUP6 SSTORE DUP3 ISZERO PUSH3 0x417 JUMPI SWAP2 DUP3 ADD JUMPDEST DUP3 DUP2 GT ISZERO PUSH3 0x416 JUMPI DUP3 MLOAD DUP3 SSTORE SWAP2 PUSH1 0x20 ADD SWAP2 SWAP1 PUSH1 0x1 ADD SWAP1 PUSH3 0x3F9 JUMP JUMPDEST JUMPDEST POP SWAP1 POP PUSH3 0x426 SWAP2 SWAP1 PUSH3 0x42A JUMP JUMPDEST POP SWAP1 JUMP JUMPDEST JUMPDEST DUP1 DUP3 GT ISZERO PUSH3 0x445 JUMPI PUSH1 0x0 DUP2 PUSH1 0x0 SWAP1 SSTORE POP PUSH1 0x1 ADD PUSH3 0x42B JUMP JUMPDEST POP SWAP1 JUMP JUMPDEST PUSH1 0x0 PUSH3 0x458 PUSH1 0x15 DUP4 PUSH3 0x492 JUMP JUMPDEST SWAP2 POP PUSH3 0x465 DUP3 PUSH3 0x5BE JUMP JUMPDEST PUSH1 0x20 DUP3 ADD SWAP1 POP SWAP2 SWAP1 POP JUMP JUMPDEST PUSH1 0x0 PUSH1 0x20 DUP3 ADD SWAP1 POP DUP2 DUP2 SUB PUSH1 0x0 DUP4 ADD MSTORE PUSH3 0x48B DUP2 PUSH3 0x449 JUMP JUMPDEST SWAP1 POP SWAP2 SWAP1 POP JUMP JUMPDEST PUSH1 0x0 DUP3 DUP3 MSTORE PUSH1 0x20 DUP3 ADD SWAP1 POP SWAP3 SWAP2 POP POP JUMP JUMPDEST PUSH1 0x0 DUP2 SWAP1 POP SWAP2 SWAP1 POP JUMP JUMPDEST PUSH1 0x0 PUSH1 0x2 DUP3 DIV SWAP1 POP PUSH1 0x1 DUP3 AND DUP1 PUSH3 0x4C6 JUMPI PUSH1 0x7F DUP3 AND SWAP2 POP JUMPDEST PUSH1 0x20 DUP3 LT DUP2 EQ ISZERO PUSH3 0x4DD JUMPI PUSH3 0x4DC PUSH3 0x560 JUMP JUMPDEST JUMPDEST POP SWAP2 SWAP1 POP JUMP JUMPDEST PUSH1 0x0 PUSH3 0x4F0 DUP3 PUSH3 0x4A3 JUMP JUMPDEST SWAP2 POP PUSH32 0xFFFFFFFFFFFFFFFFFFFFFFFFFFFFFFFFFFFFFFFFFFFFFFFFFFFFFFFFFFFFFFFF DUP3 EQ ISZERO PUSH3 0x526 JUMPI PUSH3 0x525 PUSH3 0x531 JUMP JUMPDEST JUMPDEST PUSH1 0x1 DUP3 ADD SWAP1 POP SWAP2 SWAP1 POP JUMP JUMPDEST PUSH32 0x4E487B7100000000000000000000000000000000000000000000000000000000 PUSH1 0x0 MSTORE PUSH1 0x11 PUSH1 0x4 MSTORE PUSH1 0x24 PUSH1 0x0 REVERT JUMPDEST PUSH32 0x4E487B7100000000000000000000000000000000000000000000000000000000 PUSH1 0x0 MSTORE PUSH1 0x22 PUSH1 0x4 MSTORE PUSH1 0x24 PUSH1 0x0 REVERT JUMPDEST PUSH32 0x4E487B7100000000000000000000000000000000000000000000000000000000 PUSH1 0x0 MSTORE PUSH1 0x32 PUSH1 0x4 MSTORE PUSH1 0x24 PUSH1 0x0 REVERT JUMPDEST PUSH32 0x43616E64696461746573206D75737420626520352E0000000000000000000000 PUSH1 0x0 DUP3 ADD MSTORE POP JUMP JUMPDEST PUSH2 0x10A1 DUP1 PUSH3 0x5F7 PUSH1 0x0 CODECOPY PUSH1 0x0 RETURN INVALID PUSH1 0x80 PUSH1 0x40 MSTORE CALLVALUE DUP1 ISZERO PUSH2 0x10 JUMPI PUSH1 0x0 DUP1 REVERT JUMPDEST POP PUSH1 0x4 CALLDATASIZE LT PUSH2 0x41 JUMPI PUSH1 0x0 CALLDATALOAD PUSH1 0xE0 SHR DUP1 PUSH4 0x632A9A52 EQ PUSH2 0x46 JUMPI DUP1 PUSH4 0x64030A19 EQ PUSH2 0x50 JUMPI DUP1 PUSH4 0xD4E8FD2E EQ PUSH2 0x83 JUMPI JUMPDEST PUSH1 0x0 DUP1 REVERT JUMPDEST PUSH2 0x4E PUSH2 0xB3 JUMP JUMPDEST STOP JUMPDEST PUSH2 0x6A PUSH1 0x4 DUP1 CALLDATASIZE SUB DUP2 ADD SWAP1 PUSH2 0x65 SWAP2 SWAP1 PUSH2 0x99B JUMP JUMPDEST PUSH2 0x6FD JUMP JUMPDEST PUSH1 0x40 MLOAD PUSH2 0x7A SWAP5 SWAP4 SWAP3 SWAP2 SWAP1 PUSH2 0xC88 JUMP JUMPDEST PUSH1 0x40 MLOAD DUP1 SWAP2 SUB SWAP1 RETURN JUMPDEST PUSH2 0x9D PUSH1 0x4 DUP1 CALLDATASIZE SUB DUP2 ADD SWAP1 PUSH2 0x98 SWAP2 SWAP1 PUSH2 0x99B JUMP JUMPDEST PUSH2 0x74A JUMP JUMPDEST PUSH1 0x40 MLOAD PUSH2 0xAA SWAP2 SWAP1 PUSH2 0xC66 JUMP JUMPDEST PUSH1 0x40 MLOAD DUP1 SWAP2 SUB SWAP1 RETURN JUMPDEST PUSH1 0x1 PUSH1 0x0 CALLER PUSH20 0xFFFFFFFFFFFFFFFFFFFFFFFFFFFFFFFFFFFFFFFF AND PUSH20 0xFFFFFFFFFFFFFFFFFFFFFFFFFFFFFFFFFFFFFFFF AND DUP2 MSTORE PUSH1 0x20 ADD SWAP1 DUP2 MSTORE PUSH1 0x20 ADD PUSH1 0x0 KECCAK256 PUSH1 0x1 ADD PUSH1 0x0 SWAP1 SLOAD SWAP1 PUSH2 0x100 EXP SWAP1 DIV PUSH1 0xFF AND ISZERO PUSH2 0x143 JUMPI PUSH1 0x40 MLOAD PUSH32 0x8C379A000000000000000000000000000000000000000000000000000000000 DUP2 MSTORE PUSH1 0x4 ADD PUSH2 0x13A SWAP1 PUSH2 0xC26 JUMP JUMPDEST PUSH1 0x40 MLOAD DUP1 SWAP2 SUB SWAP1 REVERT JUMPDEST PUSH1 0x1 DUP1 PUSH1 0x0 CALLER PUSH20 0xFFFFFFFFFFFFFFFFFFFFFFFFFFFFFFFFFFFFFFFF AND PUSH20 0xFFFFFFFFFFFFFFFFFFFFFFFFFFFFFFFFFFFFFFFF AND DUP2 MSTORE PUSH1 0x20 ADD SWAP1 DUP2 MSTORE PUSH1 0x20 ADD PUSH1 0x0 KECCAK256 PUSH1 0x0 ADD DUP2 SWAP1 SSTORE POP PUSH1 0x64 PUSH1 0x4 SLOAD SGT ISZERO PUSH2 0x1D0 JUMPI PUSH1 0x40 MLOAD PUSH32 0x8C379A000000000000000000000000000000000000000000000000000000000 DUP2 MSTORE PUSH1 0x4 ADD PUSH2 0x1C7 SWAP1 PUSH2 0xC46 JUMP JUMPDEST PUSH1 0x40 MLOAD DUP1 SWAP2 SUB SWAP1 REVERT JUMPDEST PUSH2 0x1D8 PUSH2 0x887 JUMP JUMPDEST PUSH1 0x1 PUSH1 0x0 CALLER PUSH20 0xFFFFFFFFFFFFFFFFFFFFFFFFFFFFFFFFFFFFFFFF AND PUSH20 0xFFFFFFFFFFFFFFFFFFFFFFFFFFFFFFFFFFFFFFFF AND DUP2 MSTORE PUSH1 0x20 ADD SWAP1 DUP2 MSTORE PUSH1 0x20 ADD PUSH1 0x0 KECCAK256 PUSH1 0x2 ADD DUP2 SWAP1 SSTORE POP PUSH1 0x1 DUP1 PUSH1 0x0 CALLER PUSH20 0xFFFFFFFFFFFFFFFFFFFFFFFFFFFFFFFFFFFFFFFF AND PUSH20 0xFFFFFFFFFFFFFFFFFFFFFFFFFFFFFFFFFFFFFFFF AND DUP2 MSTORE PUSH1 0x20 ADD SWAP1 DUP2 MSTORE PUSH1 0x20 ADD PUSH1 0x0 KECCAK256 PUSH1 0x1 ADD PUSH1 0x0 PUSH2 0x100 EXP DUP2 SLOAD DUP2 PUSH1 0xFF MUL NOT AND SWAP1 DUP4 ISZERO ISZERO MUL OR SWAP1 SSTORE POP PUSH1 0x0 PUSH1 0x1 PUSH1 0x0 CALLER PUSH20 0xFFFFFFFFFFFFFFFFFFFFFFFFFFFFFFFFFFFFFFFF AND PUSH20 0xFFFFFFFFFFFFFFFFFFFFFFFFFFFFFFFFFFFFFFFF AND DUP2 MSTORE PUSH1 0x20 ADD SWAP1 DUP2 MSTORE PUSH1 0x20 ADD PUSH1 0x0 KECCAK256 SWAP1 POP DUP1 PUSH1 0x1 ADD PUSH1 0x0 SWAP1 SLOAD SWAP1 PUSH2 0x100 EXP SWAP1 DIV PUSH1 0xFF AND ISZERO PUSH2 0x30D JUMPI PUSH1 0x40 MLOAD PUSH32 0x8C379A000000000000000000000000000000000000000000000000000000000 DUP2 MSTORE PUSH1 0x4 ADD PUSH2 0x304 SWAP1 PUSH2 0xC06 JUMP JUMPDEST PUSH1 0x40 MLOAD DUP1 SWAP2 SUB SWAP1 REVERT JUMPDEST PUSH1 0x1 DUP2 PUSH1 0x1 ADD PUSH1 0x0 PUSH2 0x100 EXP DUP2 SLOAD DUP2 PUSH1 0xFF MUL NOT AND SWAP1 DUP4 ISZERO ISZERO MUL OR SWAP1 SSTORE POP PUSH2 0x332 PUSH2 0x8C8 JUMP JUMPDEST DUP2 PUSH1 0x3 ADD DUP2 SWAP1 SSTORE POP PUSH2 0x342 PUSH2 0x909 JUMP JUMPDEST DUP1 PUSH1 0x0 ADD SLOAD PUSH1 0x3 PUSH2 0x351 PUSH2 0x8C8 JUMP JUMPDEST DUP2 SLOAD DUP2 LT PUSH2 0x362 JUMPI PUSH2 0x361 PUSH2 0xF87 JUMP JUMPDEST JUMPDEST SWAP1 PUSH1 0x0 MSTORE PUSH1 0x20 PUSH1 0x0 KECCAK256 SWAP1 PUSH1 0xC MUL ADD PUSH1 0x1 ADD PUSH1 0x0 DUP3 DUP3 SLOAD PUSH2 0x382 SWAP2 SWAP1 PUSH2 0xD8E JUMP JUMPDEST SWAP3 POP POP DUP2 SWAP1 SSTORE POP PUSH1 0x0 DUP2 PUSH1 0x2 ADD SLOAD EQ ISZERO PUSH2 0x3E2 JUMPI DUP1 PUSH1 0x0 ADD SLOAD PUSH1 0x3 PUSH2 0x3A5 PUSH2 0x8C8 JUMP JUMPDEST DUP2 SLOAD DUP2 LT PUSH2 0x3B6 JUMPI PUSH2 0x3B5 PUSH2 0xF87 JUMP JUMPDEST JUMPDEST SWAP1 PUSH1 0x0 MSTORE PUSH1 0x20 PUSH1 0x0 KECCAK256 SWAP1 PUSH1 0xC MUL ADD PUSH1 0x2 ADD PUSH1 0x0 DUP3 DUP3 SLOAD PUSH2 0x3D6 SWAP2 SWAP1 PUSH2 0xD8E JUMP JUMPDEST SWAP3 POP POP DUP2 SWAP1 SSTORE POP PUSH2 0x6FA JUMP JUMPDEST PUSH1 0x1 DUP2 PUSH1 0x2 ADD SLOAD EQ ISZERO PUSH2 0x43B JUMPI DUP1 PUSH1 0x0 ADD SLOAD PUSH1 0x3 PUSH2 0x3FE PUSH2 0x8C8 JUMP JUMPDEST DUP2 SLOAD DUP2 LT PUSH2 0x40F JUMPI PUSH2 0x40E PUSH2 0xF87 JUMP JUMPDEST JUMPDEST SWAP1 PUSH1 0x0 MSTORE PUSH1 0x20 PUSH1 0x0 KECCAK256 SWAP1 PUSH1 0xC MUL ADD PUSH1 0x3 ADD PUSH1 0x0 DUP3 DUP3 SLOAD PUSH2 0x42F SWAP2 SWAP1 PUSH2 0xD8E JUMP JUMPDEST SWAP3 POP POP DUP2 SWAP1 SSTORE POP PUSH2 0x6F9 JUMP JUMPDEST PUSH1 0x2 DUP2 PUSH1 0x2 ADD SLOAD EQ ISZERO PUSH2 0x494 JUMPI DUP1 PUSH1 0x0 ADD SLOAD PUSH1 0x3 PUSH2 0x457 PUSH2 0x8C8 JUMP JUMPDEST DUP2 SLOAD DUP2 LT PUSH2 0x468 JUMPI PUSH2 0x467 PUSH2 0xF87 JUMP JUMPDEST JUMPDEST SWAP1 PUSH1 0x0 MSTORE PUSH1 0x20 PUSH1 0x0 KECCAK256 SWAP1 PUSH1 0xC MUL ADD PUSH1 0x4 ADD PUSH1 0x0 DUP3 DUP3 SLOAD PUSH2 0x488 SWAP2 SWAP1 PUSH2 0xD8E JUMP JUMPDEST SWAP3 POP POP DUP2 SWAP1 SSTORE POP PUSH2 0x6F8 JUMP JUMPDEST PUSH1 0x3 DUP2 PUSH1 0x2 ADD SLOAD EQ ISZERO PUSH2 0x4ED JUMPI DUP1 PUSH1 0x0 ADD SLOAD PUSH1 0x3 PUSH2 0x4B0 PUSH2 0x8C8 JUMP JUMPDEST DUP2 SLOAD DUP2 LT PUSH2 0x4C1 JUMPI PUSH2 0x4C0 PUSH2 0xF87 JUMP JUMPDEST JUMPDEST SWAP1 PUSH1 0x0 MSTORE PUSH1 0x20 PUSH1 0x0 KECCAK256 SWAP1 PUSH1 0xC MUL ADD PUSH1 0x5 ADD PUSH1 0x0 DUP3 DUP3 SLOAD PUSH2 0x4E1 SWAP2 SWAP1 PUSH2 0xD8E JUMP JUMPDEST SWAP3 POP POP DUP2 SWAP1 SSTORE POP PUSH2 0x6F7 JUMP JUMPDEST PUSH1 0x4 DUP2 PUSH1 0x2 ADD SLOAD EQ ISZERO PUSH2 0x546 JUMPI DUP1 PUSH1 0x0 ADD SLOAD PUSH1 0x3 PUSH2 0x509 PUSH2 0x8C8 JUMP JUMPDEST DUP2 SLOAD DUP2 LT PUSH2 0x51A JUMPI PUSH2 0x519 PUSH2 0xF87 JUMP JUMPDEST JUMPDEST SWAP1 PUSH1 0x0 MSTORE PUSH1 0x20 PUSH1 0x0 KECCAK256 SWAP1 PUSH1 0xC MUL ADD PUSH1 0x6 ADD PUSH1 0x0 DUP3 DUP3 SLOAD PUSH2 0x53A SWAP2 SWAP1 PUSH2 0xD8E JUMP JUMPDEST SWAP3 POP POP DUP2 SWAP1 SSTORE POP PUSH2 0x6F6 JUMP JUMPDEST PUSH1 0x5 DUP2 PUSH1 0x2 ADD SLOAD EQ ISZERO PUSH2 0x59F JUMPI DUP1 PUSH1 0x0 ADD SLOAD PUSH1 0x3 PUSH2 0x562 PUSH2 0x8C8 JUMP JUMPDEST DUP2 SLOAD DUP2 LT PUSH2 0x573 JUMPI PUSH2 0x572 PUSH2 0xF87 JUMP JUMPDEST JUMPDEST SWAP1 PUSH1 0x0 MSTORE PUSH1 0x20 PUSH1 0x0 KECCAK256 SWAP1 PUSH1 0xC MUL ADD PUSH1 0x7 ADD PUSH1 0x0 DUP3 DUP3 SLOAD PUSH2 0x593 SWAP2 SWAP1 PUSH2 0xD8E JUMP JUMPDEST SWAP3 POP POP DUP2 SWAP1 SSTORE POP PUSH2 0x6F5 JUMP JUMPDEST PUSH1 0x6 DUP2 PUSH1 0x2 ADD SLOAD EQ ISZERO PUSH2 0x5F8 JUMPI DUP1 PUSH1 0x0 ADD SLOAD PUSH1 0x3 PUSH2 0x5BB PUSH2 0x8C8 JUMP JUMPDEST DUP2 SLOAD DUP2 LT PUSH2 0x5CC JUMPI PUSH2 0x5CB PUSH2 0xF87 JUMP JUMPDEST JUMPDEST SWAP1 PUSH1 0x0 MSTORE PUSH1 0x20 PUSH1 0x0 KECCAK256 SWAP1 PUSH1 0xC MUL ADD PUSH1 0x8 ADD PUSH1 0x0 DUP3 DUP3 SLOAD PUSH2 0x5EC SWAP2 SWAP1 PUSH2 0xD8E JUMP JUMPDEST SWAP3 POP POP DUP2 SWAP1 SSTORE POP PUSH2 0x6F4 JUMP JUMPDEST PUSH1 0x7 DUP2 PUSH1 0x2 ADD SLOAD EQ ISZERO PUSH2 0x651 JUMPI DUP1 PUSH1 0x0 ADD SLOAD PUSH1 0x3 PUSH2 0x614 PUSH2 0x8C8 JUMP JUMPDEST DUP2 SLOAD DUP2 LT PUSH2 0x625 JUMPI PUSH2 0x624 PUSH2 0xF87 JUMP JUMPDEST JUMPDEST SWAP1 PUSH1 0x0 MSTORE PUSH1 0x20 PUSH1 0x0 KECCAK256 SWAP1 PUSH1 0xC MUL ADD PUSH1 0x9 ADD PUSH1 0x0 DUP3 DUP3 SLOAD PUSH2 0x645 SWAP2 SWAP1 PUSH2 0xD8E JUMP JUMPDEST SWAP3 POP POP DUP2 SWAP1 SSTORE POP PUSH2 0x6F3 JUMP JUMPDEST PUSH1 0x8 DUP2 PUSH1 0x2 ADD SLOAD EQ ISZERO PUSH2 0x6AA JUMPI DUP1 PUSH1 0x0 ADD SLOAD PUSH1 0x3 PUSH2 0x66D PUSH2 0x8C8 JUMP JUMPDEST DUP2 SLOAD DUP2 LT PUSH2 0x67E JUMPI PUSH2 0x67D PUSH2 0xF87 JUMP JUMPDEST JUMPDEST SWAP1 PUSH1 0x0 MSTORE PUSH1 0x20 PUSH1 0x0 KECCAK256 SWAP1 PUSH1 0xC MUL ADD PUSH1 0xA ADD PUSH1 0x0 DUP3 DUP3 SLOAD PUSH2 0x69E SWAP2 SWAP1 PUSH2 0xD8E JUMP JUMPDEST SWAP3 POP POP DUP2 SWAP1 SSTORE POP PUSH2 0x6F2 JUMP JUMPDEST DUP1 PUSH1 0x0 ADD SLOAD PUSH1 0x3 PUSH2 0x6B9 PUSH2 0x8C8 JUMP JUMPDEST DUP2 SLOAD DUP2 LT PUSH2 0x6CA JUMPI PUSH2 0x6C9 PUSH2 0xF87 JUMP JUMPDEST JUMPDEST SWAP1 PUSH1 0x0 MSTORE PUSH1 0x20 PUSH1 0x0 KECCAK256 SWAP1 PUSH1 0xC MUL ADD PUSH1 0xB ADD PUSH1 0x0 DUP3 DUP3 SLOAD PUSH2 0x6EA SWAP2 SWAP1 PUSH2 0xD8E JUMP JUMPDEST SWAP3 POP POP DUP2 SWAP1 SSTORE POP JUMPDEST JUMPDEST JUMPDEST JUMPDEST JUMPDEST JUMPDEST JUMPDEST JUMPDEST JUMPDEST POP JUMP JUMPDEST PUSH1 0x2 DUP2 DUP2 SLOAD DUP2 LT PUSH2 0x70D JUMPI PUSH1 0x0 DUP1 REVERT JUMPDEST SWAP1 PUSH1 0x0 MSTORE PUSH1 0x20 PUSH1 0x0 KECCAK256 SWAP1 PUSH1 0x4 MUL ADD PUSH1 0x0 SWAP2 POP SWAP1 POP DUP1 PUSH1 0x0 ADD SLOAD SWAP1 DUP1 PUSH1 0x1 ADD PUSH1 0x0 SWAP1 SLOAD SWAP1 PUSH2 0x100 EXP SWAP1 DIV PUSH1 0xFF AND SWAP1 DUP1 PUSH1 0x2 ADD SLOAD SWAP1 DUP1 PUSH1 0x3 ADD SLOAD SWAP1 POP DUP5 JUMP JUMPDEST PUSH2 0x752 PUSH2 0x925 JUMP JUMPDEST PUSH1 0x3 DUP3 DUP2 SLOAD DUP2 LT PUSH2 0x766 JUMPI PUSH2 0x765 PUSH2 0xF87 JUMP JUMPDEST JUMPDEST SWAP1 PUSH1 0x0 MSTORE PUSH1 0x20 PUSH1 0x0 KECCAK256 SWAP1 PUSH1 0xC MUL ADD PUSH1 0x40 MLOAD DUP1 PUSH2 0x180 ADD PUSH1 0x40 MSTORE SWAP1 DUP2 PUSH1 0x0 DUP3 ADD DUP1 SLOAD PUSH2 0x790 SWAP1 PUSH2 0xE69 JUMP JUMPDEST DUP1 PUSH1 0x1F ADD PUSH1 0x20 DUP1 SWAP2 DIV MUL PUSH1 0x20 ADD PUSH1 0x40 MLOAD SWAP1 DUP2 ADD PUSH1 0x40 MSTORE DUP1 SWAP3 SWAP2 SWAP1 DUP2 DUP2 MSTORE PUSH1 0x20 ADD DUP3 DUP1 SLOAD PUSH2 0x7BC SWAP1 PUSH2 0xE69 JUMP JUMPDEST DUP1 ISZERO PUSH2 0x809 JUMPI DUP1 PUSH1 0x1F LT PUSH2 0x7DE JUMPI PUSH2 0x100 DUP1 DUP4 SLOAD DIV MUL DUP4 MSTORE SWAP2 PUSH1 0x20 ADD SWAP2 PUSH2 0x809 JUMP JUMPDEST DUP3 ADD SWAP2 SWAP1 PUSH1 0x0 MSTORE PUSH1 0x20 PUSH1 0x0 KECCAK256 SWAP1 JUMPDEST DUP2 SLOAD DUP2 MSTORE SWAP1 PUSH1 0x1 ADD SWAP1 PUSH1 0x20 ADD DUP1 DUP4 GT PUSH2 0x7EC JUMPI DUP3 SWAP1 SUB PUSH1 0x1F AND DUP3 ADD SWAP2 JUMPDEST POP POP POP POP POP DUP2 MSTORE PUSH1 0x20 ADD PUSH1 0x1 DUP3 ADD SLOAD DUP2 MSTORE PUSH1 0x20 ADD PUSH1 0x2 DUP3 ADD SLOAD DUP2 MSTORE PUSH1 0x20 ADD PUSH1 0x3 DUP3 ADD SLOAD DUP2 MSTORE PUSH1 0x20 ADD PUSH1 0x4 DUP3 ADD SLOAD DUP2 MSTORE PUSH1 0x20 ADD PUSH1 0x5 DUP3 ADD SLOAD DUP2 MSTORE PUSH1 0x20 ADD PUSH1 0x6 DUP3 ADD SLOAD DUP2 MSTORE PUSH1 0x20 ADD PUSH1 0x7 DUP3 ADD SLOAD DUP2 MSTORE PUSH1 0x20 ADD PUSH1 0x8 DUP3 ADD SLOAD DUP2 MSTORE PUSH1 0x20 ADD PUSH1 0x9 DUP3 ADD SLOAD DUP2 MSTORE PUSH1 0x20 ADD PUSH1 0xA DUP3 ADD SLOAD DUP2 MSTORE PUSH1 0x20 ADD PUSH1 0xB DUP3 ADD SLOAD DUP2 MSTORE POP POP SWAP1 POP SWAP2 SWAP1 POP JUMP JUMPDEST PUSH1 0x0 PUSH1 0xA TIMESTAMP DIFFICULTY CALLER PUSH1 0x40 MLOAD PUSH1 0x20 ADD PUSH2 0x8A0 SWAP4 SWAP3 SWAP2 SWAP1 PUSH2 0xBC9 JUMP JUMPDEST PUSH1 0x40 MLOAD PUSH1 0x20 DUP2 DUP4 SUB SUB DUP2 MSTORE SWAP1 PUSH1 0x40 MSTORE DUP1 MLOAD SWAP1 PUSH1 0x20 ADD KECCAK256 PUSH1 0x0 SHR PUSH2 0x8C3 SWAP2 SWAP1 PUSH2 0xEC9 JUMP JUMPDEST SWAP1 POP SWAP1 JUMP JUMPDEST PUSH1 0x0 PUSH1 0x5 TIMESTAMP DIFFICULTY CALLER PUSH1 0x40 MLOAD PUSH1 0x20 ADD PUSH2 0x8E1 SWAP4 SWAP3 SWAP2 SWAP1 PUSH2 0xBC9 JUMP JUMPDEST PUSH1 0x40 MLOAD PUSH1 0x20 DUP2 DUP4 SUB SUB DUP2 MSTORE SWAP1 PUSH1 0x40 MSTORE DUP1 MLOAD SWAP1 PUSH1 0x20 ADD KECCAK256 PUSH1 0x0 SHR PUSH2 0x904 SWAP2 SWAP1 PUSH2 0xEC9 JUMP JUMPDEST SWAP1 POP SWAP1 JUMP JUMPDEST PUSH1 0x1 PUSH1 0x4 PUSH1 0x0 DUP3 DUP3 SLOAD PUSH2 0x91C SWAP2 SWAP1 PUSH2 0xCFA JUMP JUMPDEST SWAP3 POP POP DUP2 SWAP1 SSTORE POP JUMP JUMPDEST PUSH1 0x40 MLOAD DUP1 PUSH2 0x180 ADD PUSH1 0x40 MSTORE DUP1 PUSH1 0x60 DUP2 MSTORE PUSH1 0x20 ADD PUSH1 0x0 DUP2 MSTORE PUSH1 0x20 ADD PUSH1 0x0 DUP2 MSTORE PUSH1 0x20 ADD PUSH1 0x0 DUP2 MSTORE PUSH1 0x20 ADD PUSH1 0x0 DUP2 MSTORE PUSH1 0x20 ADD PUSH1 0x0 DUP2 MSTORE PUSH1 0x20 ADD PUSH1 0x0 DUP2 MSTORE PUSH1 0x20 ADD PUSH1 0x0 DUP2 MSTORE PUSH1 0x20 ADD PUSH1 0x0 DUP2 MSTORE PUSH1 0x20 ADD PUSH1 0x0 DUP2 MSTORE PUSH1 0x20 ADD PUSH1 0x0 DUP2 MSTORE PUSH1 0x20 ADD PUSH1 0x0 DUP2 MSTORE POP SWAP1 JUMP JUMPDEST PUSH1 0x0 DUP2 CALLDATALOAD SWAP1 POP PUSH2 0x995 DUP2 PUSH2 0x1054 JUMP JUMPDEST SWAP3 SWAP2 POP POP JUMP JUMPDEST PUSH1 0x0 PUSH1 0x20 DUP3 DUP5 SUB SLT ISZERO PUSH2 0x9B1 JUMPI PUSH2 0x9B0 PUSH2 0xFB6 JUMP JUMPDEST JUMPDEST PUSH1 0x0 PUSH2 0x9BF DUP5 DUP3 DUP6 ADD PUSH2 0x986 JUMP JUMPDEST SWAP2 POP POP SWAP3 SWAP2 POP POP JUMP JUMPDEST PUSH2 0x9D9 PUSH2 0x9D4 DUP3 PUSH2 0xDE4 JUMP JUMPDEST PUSH2 0xE9B JUMP JUMPDEST DUP3 MSTORE POP POP JUMP JUMPDEST PUSH2 0x9E8 DUP2 PUSH2 0xDF6 JUMP JUMPDEST DUP3 MSTORE POP POP JUMP JUMPDEST PUSH1 0x0 PUSH2 0x9F9 DUP3 PUSH2 0xCCD JUMP JUMPDEST PUSH2 0xA03 DUP2 DUP6 PUSH2 0xCD8 JUMP JUMPDEST SWAP4 POP PUSH2 0xA13 DUP2 DUP6 PUSH1 0x20 DUP7 ADD PUSH2 0xE36 JUMP JUMPDEST PUSH2 0xA1C DUP2 PUSH2 0xFBB JUMP JUMPDEST DUP5 ADD SWAP2 POP POP SWAP3 SWAP2 POP POP JUMP JUMPDEST PUSH1 0x0 PUSH2 0xA34 PUSH1 0xE DUP4 PUSH2 0xCE9 JUMP JUMPDEST SWAP2 POP PUSH2 0xA3F DUP3 PUSH2 0xFD9 JUMP JUMPDEST PUSH1 0x20 DUP3 ADD SWAP1 POP SWAP2 SWAP1 POP JUMP JUMPDEST PUSH1 0x0 PUSH2 0xA57 PUSH1 0x18 DUP4 PUSH2 0xCE9 JUMP JUMPDEST SWAP2 POP PUSH2 0xA62 DUP3 PUSH2 0x1002 JUMP JUMPDEST PUSH1 0x20 DUP3 ADD SWAP1 POP SWAP2 SWAP1 POP JUMP JUMPDEST PUSH1 0x0 PUSH2 0xA7A PUSH1 0x13 DUP4 PUSH2 0xCE9 JUMP JUMPDEST SWAP2 POP PUSH2 0xA85 DUP3 PUSH2 0x102B JUMP JUMPDEST PUSH1 0x20 DUP3 ADD SWAP1 POP SWAP2 SWAP1 POP JUMP JUMPDEST PUSH1 0x0 PUSH2 0x180 DUP4 ADD PUSH1 0x0 DUP4 ADD MLOAD DUP5 DUP3 SUB PUSH1 0x0 DUP7 ADD MSTORE PUSH2 0xAAE DUP3 DUP3 PUSH2 0x9EE JUMP JUMPDEST SWAP2 POP POP PUSH1 0x20 DUP4 ADD MLOAD PUSH2 0xAC3 PUSH1 0x20 DUP7 ADD DUP3 PUSH2 0xB94 JUMP JUMPDEST POP PUSH1 0x40 DUP4 ADD MLOAD PUSH2 0xAD6 PUSH1 0x40 DUP7 ADD DUP3 PUSH2 0xB94 JUMP JUMPDEST POP PUSH1 0x60 DUP4 ADD MLOAD PUSH2 0xAE9 PUSH1 0x60 DUP7 ADD DUP3 PUSH2 0xB94 JUMP JUMPDEST POP PUSH1 0x80 DUP4 ADD MLOAD PUSH2 0xAFC PUSH1 0x80 DUP7 ADD DUP3 PUSH2 0xB94 JUMP JUMPDEST POP PUSH1 0xA0 DUP4 ADD MLOAD PUSH2 0xB0F PUSH1 0xA0 DUP7 ADD DUP3 PUSH2 0xB94 JUMP JUMPDEST POP PUSH1 0xC0 DUP4 ADD MLOAD PUSH2 0xB22 PUSH1 0xC0 DUP7 ADD DUP3 PUSH2 0xB94 JUMP JUMPDEST POP PUSH1 0xE0 DUP4 ADD MLOAD PUSH2 0xB35 PUSH1 0xE0 DUP7 ADD DUP3 PUSH2 0xB94 JUMP JUMPDEST POP PUSH2 0x100 DUP4 ADD MLOAD PUSH2 0xB4A PUSH2 0x100 DUP7 ADD DUP3 PUSH2 0xB94 JUMP JUMPDEST POP PUSH2 0x120 DUP4 ADD MLOAD PUSH2 0xB5F PUSH2 0x120 DUP7 ADD DUP3 PUSH2 0xB94 JUMP JUMPDEST POP PUSH2 0x140 DUP4 ADD MLOAD PUSH2 0xB74 PUSH2 0x140 DUP7 ADD DUP3 PUSH2 0xB94 JUMP JUMPDEST POP PUSH2 0x160 DUP4 ADD MLOAD PUSH2 0xB89 PUSH2 0x160 DUP7 ADD DUP3 PUSH2 0xB94 JUMP JUMPDEST POP DUP1 SWAP2 POP POP SWAP3 SWAP2 POP POP JUMP JUMPDEST PUSH2 0xB9D DUP2 PUSH2 0xE2C JUMP JUMPDEST DUP3 MSTORE POP POP JUMP JUMPDEST PUSH2 0xBAC DUP2 PUSH2 0xE2C JUMP JUMPDEST DUP3 MSTORE POP POP JUMP JUMPDEST PUSH2 0xBC3 PUSH2 0xBBE DUP3 PUSH2 0xE2C JUMP JUMPDEST PUSH2 0xEBF JUMP JUMPDEST DUP3 MSTORE POP POP JUMP JUMPDEST PUSH1 0x0 PUSH2 0xBD5 DUP3 DUP7 PUSH2 0xBB2 JUMP JUMPDEST PUSH1 0x20 DUP3 ADD SWAP2 POP PUSH2 0xBE5 DUP3 DUP6 PUSH2 0xBB2 JUMP JUMPDEST PUSH1 0x20 DUP3 ADD SWAP2 POP PUSH2 0xBF5 DUP3 DUP5 PUSH2 0x9C8 JUMP JUMPDEST PUSH1 0x14 DUP3 ADD SWAP2 POP DUP2 SWAP1 POP SWAP5 SWAP4 POP POP POP POP JUMP JUMPDEST PUSH1 0x0 PUSH1 0x20 DUP3 ADD SWAP1 POP DUP2 DUP2 SUB PUSH1 0x0 DUP4 ADD MSTORE PUSH2 0xC1F DUP2 PUSH2 0xA27 JUMP JUMPDEST SWAP1 POP SWAP2 SWAP1 POP JUMP JUMPDEST PUSH1 0x0 PUSH1 0x20 DUP3 ADD SWAP1 POP DUP2 DUP2 SUB PUSH1 0x0 DUP4 ADD MSTORE PUSH2 0xC3F DUP2 PUSH2 0xA4A JUMP JUMPDEST SWAP1 POP SWAP2 SWAP1 POP JUMP JUMPDEST PUSH1 0x0 PUSH1 0x20 DUP3 ADD SWAP1 POP DUP2 DUP2 SUB PUSH1 0x0 DUP4 ADD MSTORE PUSH2 0xC5F DUP2 PUSH2 0xA6D JUMP JUMPDEST SWAP1 POP SWAP2 SWAP1 POP JUMP JUMPDEST PUSH1 0x0 PUSH1 0x20 DUP3 ADD SWAP1 POP DUP2 DUP2 SUB PUSH1 0x0 DUP4 ADD MSTORE PUSH2 0xC80 DUP2 DUP5 PUSH2 0xA90 JUMP JUMPDEST SWAP1 POP SWAP3 SWAP2 POP POP JUMP JUMPDEST PUSH1 0x0 PUSH1 0x80 DUP3 ADD SWAP1 POP PUSH2 0xC9D PUSH1 0x0 DUP4 ADD DUP8 PUSH2 0xBA3 JUMP JUMPDEST PUSH2 0xCAA PUSH1 0x20 DUP4 ADD DUP7 PUSH2 0x9DF JUMP JUMPDEST PUSH2 0xCB7 PUSH1 0x40 DUP4 ADD DUP6 PUSH2 0xBA3 JUMP JUMPDEST PUSH2 0xCC4 PUSH1 0x60 DUP4 ADD DUP5 PUSH2 0xBA3 JUMP JUMPDEST SWAP6 SWAP5 POP POP POP POP POP JUMP JUMPDEST PUSH1 0x0 DUP2 MLOAD SWAP1 POP SWAP2 SWAP1 POP JUMP JUMPDEST PUSH1 0x0 DUP3 DUP3 MSTORE PUSH1 0x20 DUP3 ADD SWAP1 POP SWAP3 SWAP2 POP POP JUMP JUMPDEST PUSH1 0x0 DUP3 DUP3 MSTORE PUSH1 0x20 DUP3 ADD SWAP1 POP SWAP3 SWAP2 POP POP JUMP JUMPDEST PUSH1 0x0 PUSH2 0xD05 DUP3 PUSH2 0xE02 JUMP JUMPDEST SWAP2 POP PUSH2 0xD10 DUP4 PUSH2 0xE02 JUMP JUMPDEST SWAP3 POP DUP2 PUSH32 0x7FFFFFFFFFFFFFFFFFFFFFFFFFFFFFFFFFFFFFFFFFFFFFFFFFFFFFFFFFFFFFFF SUB DUP4 SGT PUSH1 0x0 DUP4 SLT ISZERO AND ISZERO PUSH2 0xD4B JUMPI PUSH2 0xD4A PUSH2 0xEFA JUMP JUMPDEST JUMPDEST DUP2 PUSH32 0x8000000000000000000000000000000000000000000000000000000000000000 SUB DUP4 SLT PUSH1 0x0 DUP4 SLT AND ISZERO PUSH2 0xD83 JUMPI PUSH2 0xD82 PUSH2 0xEFA JUMP JUMPDEST JUMPDEST DUP3 DUP3 ADD SWAP1 POP SWAP3 SWAP2 POP POP JUMP JUMPDEST PUSH1 0x0 PUSH2 0xD99 DUP3 PUSH2 0xE2C JUMP JUMPDEST SWAP2 POP PUSH2 0xDA4 DUP4 PUSH2 0xE2C JUMP JUMPDEST SWAP3 POP DUP3 PUSH32 0xFFFFFFFFFFFFFFFFFFFFFFFFFFFFFFFFFFFFFFFFFFFFFFFFFFFFFFFFFFFFFFFF SUB DUP3 GT ISZERO PUSH2 0xDD9 JUMPI PUSH2 0xDD8 PUSH2 0xEFA JUMP JUMPDEST JUMPDEST DUP3 DUP3 ADD SWAP1 POP SWAP3 SWAP2 POP POP JUMP JUMPDEST PUSH1 0x0 PUSH2 0xDEF DUP3 PUSH2 0xE0C JUMP JUMPDEST SWAP1 POP SWAP2 SWAP1 POP JUMP JUMPDEST PUSH1 0x0 DUP2 ISZERO ISZERO SWAP1 POP SWAP2 SWAP1 POP JUMP JUMPDEST PUSH1 0x0 DUP2 SWAP1 POP SWAP2 SWAP1 POP JUMP JUMPDEST PUSH1 0x0 PUSH20 0xFFFFFFFFFFFFFFFFFFFFFFFFFFFFFFFFFFFFFFFF DUP3 AND SWAP1 POP SWAP2 SWAP1 POP JUMP JUMPDEST PUSH1 0x0 DUP2 SWAP1 POP SWAP2 SWAP1 POP JUMP JUMPDEST PUSH1 0x0 JUMPDEST DUP4 DUP2 LT ISZERO PUSH2 0xE54 JUMPI DUP1 DUP3 ADD MLOAD DUP2 DUP5 ADD MSTORE PUSH1 0x20 DUP2 ADD SWAP1 POP PUSH2 0xE39 JUMP JUMPDEST DUP4 DUP2 GT ISZERO PUSH2 0xE63 JUMPI PUSH1 0x0 DUP5 DUP5 ADD MSTORE JUMPDEST POP POP POP POP JUMP JUMPDEST PUSH1 0x0 PUSH1 0x2 DUP3 DIV SWAP1 POP PUSH1 0x1 DUP3 AND DUP1 PUSH2 0xE81 JUMPI PUSH1 0x7F DUP3 AND SWAP2 POP JUMPDEST PUSH1 0x20 DUP3 LT DUP2 EQ ISZERO PUSH2 0xE95 JUMPI PUSH2 0xE94 PUSH2 0xF58 JUMP JUMPDEST JUMPDEST POP SWAP2 SWAP1 POP JUMP JUMPDEST PUSH1 0x0 PUSH2 0xEA6 DUP3 PUSH2 0xEAD JUMP JUMPDEST SWAP1 POP SWAP2 SWAP1 POP JUMP JUMPDEST PUSH1 0x0 PUSH2 0xEB8 DUP3 PUSH2 0xFCC JUMP JUMPDEST SWAP1 POP SWAP2 SWAP1 POP JUMP JUMPDEST PUSH1 0x0 DUP2 SWAP1 POP SWAP2 SWAP1 POP JUMP JUMPDEST PUSH1 0x0 PUSH2 0xED4 DUP3 PUSH2 0xE2C JUMP JUMPDEST SWAP2 POP PUSH2 0xEDF DUP4 PUSH2 0xE2C JUMP JUMPDEST SWAP3 POP DUP3 PUSH2 0xEEF JUMPI PUSH2 0xEEE PUSH2 0xF29 JUMP JUMPDEST JUMPDEST DUP3 DUP3 MOD SWAP1 POP SWAP3 SWAP2 POP POP JUMP JUMPDEST PUSH32 0x4E487B7100000000000000000000000000000000000000000000000000000000 PUSH1 0x0 MSTORE PUSH1 0x11 PUSH1 0x4 MSTORE PUSH1 0x24 PUSH1 0x0 REVERT JUMPDEST PUSH32 0x4E487B7100000000000000000000000000000000000000000000000000000000 PUSH1 0x0 MSTORE PUSH1 0x12 PUSH1 0x4 MSTORE PUSH1 0x24 PUSH1 0x0 REVERT JUMPDEST PUSH32 0x4E487B7100000000000000000000000000000000000000000000000000000000 PUSH1 0x0 MSTORE PUSH1 0x22 PUSH1 0x4 MSTORE PUSH1 0x24 PUSH1 0x0 REVERT JUMPDEST PUSH32 0x4E487B7100000000000000000000000000000000000000000000000000000000 PUSH1 0x0 MSTORE PUSH1 0x32 PUSH1 0x4 MSTORE PUSH1 0x24 PUSH1 0x0 REVERT JUMPDEST PUSH1 0x0 DUP1 REVERT JUMPDEST PUSH1 0x0 PUSH1 0x1F NOT PUSH1 0x1F DUP4 ADD AND SWAP1 POP SWAP2 SWAP1 POP JUMP JUMPDEST PUSH1 0x0 DUP2 PUSH1 0x60 SHL SWAP1 POP SWAP2 SWAP1 POP JUMP JUMPDEST PUSH32 0x416C726561647920766F7465642E000000000000000000000000000000000000 PUSH1 0x0 DUP3 ADD MSTORE POP JUMP JUMPDEST PUSH32 0x54686520766F74657220616C726561647920766F7465642E0000000000000000 PUSH1 0x0 DUP3 ADD MSTORE POP JUMP JUMPDEST PUSH32 0x52656163686564206D617820766F746572732E00000000000000000000000000 PUSH1 0x0 DUP3 ADD MSTORE POP JUMP JUMPDEST PUSH2 0x105D DUP2 PUSH2 0xE2C JUMP JUMPDEST DUP2 EQ PUSH2 0x1068 JUMPI PUSH1 0x0 DUP1 REVERT JUMPDEST POP JUMP INVALID LOG2 PUSH5 0x6970667358 0x22 SLT KECCAK256 PUSH18 0xE00197B0A9F0A1CBDF2786DDE64146432FF7 ISZERO EXTCODESIZE 0xAC 0x2B SLT 0xD3 PUSH27 0xFA147879D9F264736F6C6343000807003300000000000000000000 "
				},
				"gasEstimates": {
					"creation": {
						"codeDepositCost": "851400",
						"executionCost": "infinite",
						"totalCost": "infinite"
					},
					"external": {
						"axx(uint256)": "infinite",
						"res(uint256)": "infinite",
						"vote()": "infinite"
					},
					"internal": {
						"countVoters()": "infinite",
						"random_district()": "infinite",
						"random_vote()": "infinite"
					}
				},
				"methodIdentifiers": {
					"axx(uint256)": "64030a19",
					"res(uint256)": "d4e8fd2e",
					"vote()": "632a9a52"
				}
			},
			"storageLayout": {
				"storage": [
					{
						"astId": 38,
						"contract": "smartContract/contracts/3_Ballot.sol:Ballot",
						"label": "chairperson",
						"offset": 0,
						"slot": "0",
						"type": "t_address"
					},
					{
						"astId": 43,
						"contract": "smartContract/contracts/3_Ballot.sol:Ballot",
						"label": "voters",
						"offset": 0,
						"slot": "1",
						"type": "t_mapping(t_address,t_struct(Voter)11_storage)"
					},
					{
						"astId": 47,
						"contract": "smartContract/contracts/3_Ballot.sol:Ballot",
						"label": "axx",
						"offset": 0,
						"slot": "2",
						"type": "t_array(t_struct(Voter)11_storage)dyn_storage"
					},
					{
						"astId": 51,
						"contract": "smartContract/contracts/3_Ballot.sol:Ballot",
						"label": "proposals",
						"offset": 0,
						"slot": "3",
						"type": "t_array(t_struct(Proposal)36_storage)dyn_storage"
					},
					{
						"astId": 148,
						"contract": "smartContract/contracts/3_Ballot.sol:Ballot",
						"label": "countV",
						"offset": 0,
						"slot": "4",
						"type": "t_int256"
					}
				],
				"types": {
					"t_address": {
						"encoding": "inplace",
						"label": "address",
						"numberOfBytes": "20"
					},
					"t_array(t_struct(Proposal)36_storage)dyn_storage": {
						"base": "t_struct(Proposal)36_storage",
						"encoding": "dynamic_array",
						"label": "struct Ballot.Proposal[]",
						"numberOfBytes": "32"
					},
					"t_array(t_struct(Voter)11_storage)dyn_storage": {
						"base": "t_struct(Voter)11_storage",
						"encoding": "dynamic_array",
						"label": "struct Ballot.Voter[]",
						"numberOfBytes": "32"
					},
					"t_bool": {
						"encoding": "inplace",
						"label": "bool",
						"numberOfBytes": "1"
					},
					"t_int256": {
						"encoding": "inplace",
						"label": "int256",
						"numberOfBytes": "32"
					},
					"t_mapping(t_address,t_struct(Voter)11_storage)": {
						"encoding": "mapping",
						"key": "t_address",
						"label": "mapping(address => struct Ballot.Voter)",
						"numberOfBytes": "32",
						"value": "t_struct(Voter)11_storage"
					},
					"t_string_storage": {
						"encoding": "bytes",
						"label": "string",
						"numberOfBytes": "32"
					},
					"t_struct(Proposal)36_storage": {
						"encoding": "inplace",
						"label": "struct Ballot.Proposal",
						"members": [
							{
								"astId": 13,
								"contract": "smartContract/contracts/3_Ballot.sol:Ballot",
								"label": "name",
								"offset": 0,
								"slot": "0",
								"type": "t_string_storage"
							},
							{
								"astId": 15,
								"contract": "smartContract/contracts/3_Ballot.sol:Ballot",
								"label": "Total_Votes",
								"offset": 0,
								"slot": "1",
								"type": "t_uint256"
							},
							{
								"astId": 17,
								"contract": "smartContract/contracts/3_Ballot.sol:Ballot",
								"label": "Votes_District0",
								"offset": 0,
								"slot": "2",
								"type": "t_uint256"
							},
							{
								"astId": 19,
								"contract": "smartContract/contracts/3_Ballot.sol:Ballot",
								"label": "Votes_District1",
								"offset": 0,
								"slot": "3",
								"type": "t_uint256"
							},
							{
								"astId": 21,
								"contract": "smartContract/contracts/3_Ballot.sol:Ballot",
								"label": "Votes_District2",
								"offset": 0,
								"slot": "4",
								"type": "t_uint256"
							},
							{
								"astId": 23,
								"contract": "smartContract/contracts/3_Ballot.sol:Ballot",
								"label": "Votes_District3",
								"offset": 0,
								"slot": "5",
								"type": "t_uint256"
							},
							{
								"astId": 25,
								"contract": "smartContract/contracts/3_Ballot.sol:Ballot",
								"label": "Votes_District4",
								"offset": 0,
								"slot": "6",
								"type": "t_uint256"
							},
							{
								"astId": 27,
								"contract": "smartContract/contracts/3_Ballot.sol:Ballot",
								"label": "Votes_District5",
								"offset": 0,
								"slot": "7",
								"type": "t_uint256"
							},
							{
								"astId": 29,
								"contract": "smartContract/contracts/3_Ballot.sol:Ballot",
								"label": "Votes_District6",
								"offset": 0,
								"slot": "8",
								"type": "t_uint256"
							},
							{
								"astId": 31,
								"contract": "smartContract/contracts/3_Ballot.sol:Ballot",
								"label": "Votes_District7",
								"offset": 0,
								"slot": "9",
								"type": "t_uint256"
							},
							{
								"astId": 33,
								"contract": "smartContract/contracts/3_Ballot.sol:Ballot",
								"label": "Votes_District8",
								"offset": 0,
								"slot": "10",
								"type": "t_uint256"
							},
							{
								"astId": 35,
								"contract": "smartContract/contracts/3_Ballot.sol:Ballot",
								"label": "Votes_District9",
								"offset": 0,
								"slot": "11",
								"type": "t_uint256"
							}
						],
						"numberOfBytes": "384"
					},
					"t_struct(Voter)11_storage": {
						"encoding": "inplace",
						"label": "struct Ballot.Voter",
						"members": [
							{
								"astId": 4,
								"contract": "smartContract/contracts/3_Ballot.sol:Ballot",
								"label": "weight",
								"offset": 0,
								"slot": "0",
								"type": "t_uint256"
							},
							{
								"astId": 6,
								"contract": "smartContract/contracts/3_Ballot.sol:Ballot",
								"label": "voted",
								"offset": 0,
								"slot": "1",
								"type": "t_bool"
							},
							{
								"astId": 8,
								"contract": "smartContract/contracts/3_Ballot.sol:Ballot",
								"label": "district",
								"offset": 0,
								"slot": "2",
								"type": "t_uint256"
							},
							{
								"astId": 10,
								"contract": "smartContract/contracts/3_Ballot.sol:Ballot",
								"label": "vote",
								"offset": 0,
								"slot": "3",
								"type": "t_uint256"
							}
						],
						"numberOfBytes": "128"
					},
					"t_uint256": {
						"encoding": "inplace",
						"label": "uint256",
						"numberOfBytes": "32"
					}
				}
			},
			"userdoc": {
				"kind": "user",
				"methods": {},
				"version": 1
			}
		}
	}
}