{
	"data": {
		"bytecode": {
			"linkReferences": {},
			"object": "6080604052600060035560006004553480156200001b57600080fd5b50336000806101000a81548173ffffffffffffffffffffffffffffffffffffffff021916908373ffffffffffffffffffffffffffffffffffffffff16021790555060018060008060009054906101000a900473ffffffffffffffffffffffffffffffffffffffff1673ffffffffffffffffffffffffffffffffffffffff1673ffffffffffffffffffffffffffffffffffffffff1681526020019081526020016000206000018190555060006040518060a001604052806040518060400160405280600181526020017f610000000000000000000000000000000000000000000000000000000000000081525081526020016040518060400160405280600181526020017f620000000000000000000000000000000000000000000000000000000000000081525081526020016040518060400160405280600181526020017f630000000000000000000000000000000000000000000000000000000000000081525081526020016040518060400160405280600181526020017f640000000000000000000000000000000000000000000000000000000000000081525081526020016040518060400160405280600181526020017f65000000000000000000000000000000000000000000000000000000000000008152508152509050600580146200023e576040517f08c379a0000000000000000000000000000000000000000000000000000000008152600401620002359062000475565b60405180910390fd5b60005b6005811015620003965760026040518061018001604052808484600581106200026f576200026e62000594565b5b6020020151815260200160008152602001600081526020016000815260200160008152602001600081526020016000815260200160008152602001600081526020016000815260200160008152602001600081525090806001815401808255809150506001900390600052602060002090600c020160009091909190915060008201518160000190805190602001906200030b9291906200039e565b506020820151816001015560408201518160020155606082015181600301556080820151816004015560a0820151816005015560c0820151816006015560e082015181600701556101008201518160080155610120820151816009015561014082015181600a015561016082015181600b0155505080806200038d90620004e8565b91505062000241565b5050620005ec565b828054620003ac90620004b2565b90600052602060002090601f016020900481019282620003d057600085556200041c565b82601f10620003eb57805160ff19168380011785556200041c565b828001600101855582156200041c579182015b828111156200041b578251825591602001919060010190620003fe565b5b5090506200042b91906200042f565b5090565b5b808211156200044a57600081600090555060010162000430565b5090565b60006200045d60158362000497565b91506200046a82620005c3565b602082019050919050565b6000602082019050818103600083015262000490816200044e565b9050919050565b600082825260208201905092915050565b6000819050919050565b60006002820490506001821680620004cb57607f821691505b60208210811415620004e257620004e162000565565b5b50919050565b6000620004f582620004a8565b91507fffffffffffffffffffffffffffffffffffffffffffffffffffffffffffffffff8214156200052b576200052a62000536565b5b600182019050919050565b7f4e487b7100000000000000000000000000000000000000000000000000000000600052601160045260246000fd5b7f4e487b7100000000000000000000000000000000000000000000000000000000600052602260045260246000fd5b7f4e487b7100000000000000000000000000000000000000000000000000000000600052603260045260246000fd5b7f43616e64696461746573206d75737420626520352e0000000000000000000000600082015250565b61109580620005fc6000396000f3fe608060405234801561001057600080fd5b506004361061004c5760003560e01c8063632a9a5214610051578063a3ec138d1461005b578063cfa1f0371461008e578063d4e8fd2e146100ac575b600080fd5b6100596100dc565b005b6100756004803603810190610070919061099c565b6106dd565b6040516100859493929190610c8e565b60405180910390f35b61009661071a565b6040516100a39190610c73565b60405180910390f35b6100c660048036038101906100c191906109c9565b61075b565b6040516100d39190610c51565b60405180910390f35b600160003373ffffffffffffffffffffffffffffffffffffffff1673ffffffffffffffffffffffffffffffffffffffff16815260200190815260200160002060010160009054906101000a900460ff161561016c576040517f08c379a000000000000000000000000000000000000000000000000000000000815260040161016390610c31565b60405180910390fd5b6000600160003373ffffffffffffffffffffffffffffffffffffffff1673ffffffffffffffffffffffffffffffffffffffff16815260200190815260200160002060000154146101bb57600080fd5b60018060003373ffffffffffffffffffffffffffffffffffffffff1673ffffffffffffffffffffffffffffffffffffffff1681526020019081526020016000206000018190555061020a610898565b6102126108b4565b600160003373ffffffffffffffffffffffffffffffffffffffff1673ffffffffffffffffffffffffffffffffffffffff168152602001908152602001600020600201819055506000600160003373ffffffffffffffffffffffffffffffffffffffff1673ffffffffffffffffffffffffffffffffffffffff16815260200190815260200160002090508060010160009054906101000a900460ff16156102ed576040517f08c379a00000000000000000000000000000000000000000000000000000000081526004016102e490610c11565b60405180910390fd5b60018160010160006101000a81548160ff02191690831515021790555061031261071a565b81600301819055508060000154600261032961071a565b8154811061033a57610339610f8d565b5b90600052602060002090600c0201600101600082825461035a9190610d94565b925050819055506000816002015414156103ba578060000154600261037d61071a565b8154811061038e5761038d610f8d565b5b90600052602060002090600c020160020160008282546103ae9190610d94565b925050819055506106d2565b60018160020154141561041357806000015460026103d661071a565b815481106103e7576103e6610f8d565b5b90600052602060002090600c020160030160008282546104079190610d94565b925050819055506106d1565b60028160020154141561046c578060000154600261042f61071a565b815481106104405761043f610f8d565b5b90600052602060002090600c020160040160008282546104609190610d94565b925050819055506106d0565b6003816002015414156104c5578060000154600261048861071a565b8154811061049957610498610f8d565b5b90600052602060002090600c020160050160008282546104b99190610d94565b925050819055506106cf565b60048160020154141561051e57806000015460026104e161071a565b815481106104f2576104f1610f8d565b5b90600052602060002090600c020160060160008282546105129190610d94565b925050819055506106ce565b600581600201541415610577578060000154600261053a61071a565b8154811061054b5761054a610f8d565b5b90600052602060002090600c0201600701600082825461056b9190610d94565b925050819055506106cd565b6006816002015414156105d0578060000154600261059361071a565b815481106105a4576105a3610f8d565b5b90600052602060002090600c020160080160008282546105c49190610d94565b925050819055506106cc565b60078160020154141561062957806000015460026105ec61071a565b815481106105fd576105fc610f8d565b5b90600052602060002090600c0201600901600082825461061d9190610d94565b925050819055506106cb565b600881600201541415610682578060000154600261064561071a565b8154811061065657610655610f8d565b5b90600052602060002090600c0201600a0160008282546106769190610d94565b925050819055506106ca565b8060000154600261069161071a565b815481106106a2576106a1610f8d565b5b90600052602060002090600c0201600b0160008282546106c29190610d94565b925050819055505b5b5b5b5b5b5b5b5b6106da6108f5565b50565b60016020528060005260406000206000915090508060000154908060010160009054906101000a900460ff16908060020154908060030154905084565b6000600542443360405160200161073393929190610bd4565b6040516020818303038152906040528051906020012060001c6107569190610ecf565b905090565b610763610911565b6002828154811061077757610776610f8d565b5b90600052602060002090600c0201604051806101800160405290816000820180546107a190610e6f565b80601f01602080910402602001604051908101604052809291908181526020018280546107cd90610e6f565b801561081a5780601f106107ef5761010080835404028352916020019161081a565b820191906000526020600020905b8154815290600101906020018083116107fd57829003601f168201915b50505050508152602001600182015481526020016002820154815260200160038201548152602001600482015481526020016005820154815260200160068201548152602001600782015481526020016008820154815260200160098201548152602001600a8201548152602001600b820154815250509050919050565b6001600360008282546108ab9190610d00565b92505081905550565b6000600a4244336040516020016108cd93929190610bd4565b6040516020818303038152906040528051906020012060001c6108f09190610ecf565b905090565b6001600460008282546109089190610d00565b92505081905550565b6040518061018001604052806060815260200160008152602001600081526020016000815260200160008152602001600081526020016000815260200160008152602001600081526020016000815260200160008152602001600081525090565b60008135905061098181611031565b92915050565b60008135905061099681611048565b92915050565b6000602082840312156109b2576109b1610fbc565b5b60006109c084828501610972565b91505092915050565b6000602082840312156109df576109de610fbc565b5b60006109ed84828501610987565b91505092915050565b610a07610a0282610dea565b610ea1565b82525050565b610a1681610dfc565b82525050565b6000610a2782610cd3565b610a318185610cde565b9350610a41818560208601610e3c565b610a4a81610fc1565b840191505092915050565b6000610a62600e83610cef565b9150610a6d82610fdf565b602082019050919050565b6000610a85601883610cef565b9150610a9082611008565b602082019050919050565b6000610180830160008301518482036000860152610ab98282610a1c565b9150506020830151610ace6020860182610b9f565b506040830151610ae16040860182610b9f565b506060830151610af46060860182610b9f565b506080830151610b076080860182610b9f565b5060a0830151610b1a60a0860182610b9f565b5060c0830151610b2d60c0860182610b9f565b5060e0830151610b4060e0860182610b9f565b50610100830151610b55610100860182610b9f565b50610120830151610b6a610120860182610b9f565b50610140830151610b7f610140860182610b9f565b50610160830151610b94610160860182610b9f565b508091505092915050565b610ba881610e32565b82525050565b610bb781610e32565b82525050565b610bce610bc982610e32565b610ec5565b82525050565b6000610be08286610bbd565b602082019150610bf08285610bbd565b602082019150610c0082846109f6565b601482019150819050949350505050565b60006020820190508181036000830152610c2a81610a55565b9050919050565b60006020820190508181036000830152610c4a81610a78565b9050919050565b60006020820190508181036000830152610c6b8184610a9b565b905092915050565b6000602082019050610c886000830184610bae565b92915050565b6000608082019050610ca36000830187610bae565b610cb06020830186610a0d565b610cbd6040830185610bae565b610cca6060830184610bae565b95945050505050565b600081519050919050565b600082825260208201905092915050565b600082825260208201905092915050565b6000610d0b82610e08565b9150610d1683610e08565b9250817f7fffffffffffffffffffffffffffffffffffffffffffffffffffffffffffffff03831360008312151615610d5157610d50610f00565b5b817f8000000000000000000000000000000000000000000000000000000000000000038312600083121615610d8957610d88610f00565b5b828201905092915050565b6000610d9f82610e32565b9150610daa83610e32565b9250827fffffffffffffffffffffffffffffffffffffffffffffffffffffffffffffffff03821115610ddf57610dde610f00565b5b828201905092915050565b6000610df582610e12565b9050919050565b60008115159050919050565b6000819050919050565b600073ffffffffffffffffffffffffffffffffffffffff82169050919050565b6000819050919050565b60005b83811015610e5a578082015181840152602081019050610e3f565b83811115610e69576000848401525b50505050565b60006002820490506001821680610e8757607f821691505b60208210811415610e9b57610e9a610f5e565b5b50919050565b6000610eac82610eb3565b9050919050565b6000610ebe82610fd2565b9050919050565b6000819050919050565b6000610eda82610e32565b9150610ee583610e32565b925082610ef557610ef4610f2f565b5b828206905092915050565b7f4e487b7100000000000000000000000000000000000000000000000000000000600052601160045260246000fd5b7f4e487b7100000000000000000000000000000000000000000000000000000000600052601260045260246000fd5b7f4e487b7100000000000000000000000000000000000000000000000000000000600052602260045260246000fd5b7f4e487b7100000000000000000000000000000000000000000000000000000000600052603260045260246000fd5b600080fd5b6000601f19601f8301169050919050565b60008160601b9050919050565b7f416c726561647920766f7465642e000000000000000000000000000000000000600082015250565b7f54686520766f74657220616c726561647920766f7465642e0000000000000000600082015250565b61103a81610dea565b811461104557600080fd5b50565b61105181610e32565b811461105c57600080fd5b5056fea264697066735822122077e4a08fddf25aecc91d22633196cfeab762a52c47d431343a832378f7b3a5e264736f6c63430008070033",
			"opcodes": "PUSH1 0x80 PUSH1 0x40 MSTORE PUSH1 0x0 PUSH1 0x3 SSTORE PUSH1 0x0 PUSH1 0x4 SSTORE CALLVALUE DUP1 ISZERO PUSH3 0x1B JUMPI PUSH1 0x0 DUP1 REVERT JUMPDEST POP CALLER PUSH1 0x0 DUP1 PUSH2 0x100 EXP DUP2 SLOAD DUP2 PUSH20 0xFFFFFFFFFFFFFFFFFFFFFFFFFFFFFFFFFFFFFFFF MUL NOT AND SWAP1 DUP4 PUSH20 0xFFFFFFFFFFFFFFFFFFFFFFFFFFFFFFFFFFFFFFFF AND MUL OR SWAP1 SSTORE POP PUSH1 0x1 DUP1 PUSH1 0x0 DUP1 PUSH1 0x0 SWAP1 SLOAD SWAP1 PUSH2 0x100 EXP SWAP1 DIV PUSH20 0xFFFFFFFFFFFFFFFFFFFFFFFFFFFFFFFFFFFFFFFF AND PUSH20 0xFFFFFFFFFFFFFFFFFFFFFFFFFFFFFFFFFFFFFFFF AND PUSH20 0xFFFFFFFFFFFFFFFFFFFFFFFFFFFFFFFFFFFFFFFF AND DUP2 MSTORE PUSH1 0x20 ADD SWAP1 DUP2 MSTORE PUSH1 0x20 ADD PUSH1 0x0 KECCAK256 PUSH1 0x0 ADD DUP2 SWAP1 SSTORE POP PUSH1 0x0 PUSH1 0x40 MLOAD DUP1 PUSH1 0xA0 ADD PUSH1 0x40 MSTORE DUP1 PUSH1 0x40 MLOAD DUP1 PUSH1 0x40 ADD PUSH1 0x40 MSTORE DUP1 PUSH1 0x1 DUP2 MSTORE PUSH1 0x20 ADD PUSH32 0x6100000000000000000000000000000000000000000000000000000000000000 DUP2 MSTORE POP DUP2 MSTORE PUSH1 0x20 ADD PUSH1 0x40 MLOAD DUP1 PUSH1 0x40 ADD PUSH1 0x40 MSTORE DUP1 PUSH1 0x1 DUP2 MSTORE PUSH1 0x20 ADD PUSH32 0x6200000000000000000000000000000000000000000000000000000000000000 DUP2 MSTORE POP DUP2 MSTORE PUSH1 0x20 ADD PUSH1 0x40 MLOAD DUP1 PUSH1 0x40 ADD PUSH1 0x40 MSTORE DUP1 PUSH1 0x1 DUP2 MSTORE PUSH1 0x20 ADD PUSH32 0x6300000000000000000000000000000000000000000000000000000000000000 DUP2 MSTORE POP DUP2 MSTORE PUSH1 0x20 ADD PUSH1 0x40 MLOAD DUP1 PUSH1 0x40 ADD PUSH1 0x40 MSTORE DUP1 PUSH1 0x1 DUP2 MSTORE PUSH1 0x20 ADD PUSH32 0x6400000000000000000000000000000000000000000000000000000000000000 DUP2 MSTORE POP DUP2 MSTORE PUSH1 0x20 ADD PUSH1 0x40 MLOAD DUP1 PUSH1 0x40 ADD PUSH1 0x40 MSTORE DUP1 PUSH1 0x1 DUP2 MSTORE PUSH1 0x20 ADD PUSH32 0x6500000000000000000000000000000000000000000000000000000000000000 DUP2 MSTORE POP DUP2 MSTORE POP SWAP1 POP PUSH1 0x5 DUP1 EQ PUSH3 0x23E JUMPI PUSH1 0x40 MLOAD PUSH32 0x8C379A000000000000000000000000000000000000000000000000000000000 DUP2 MSTORE PUSH1 0x4 ADD PUSH3 0x235 SWAP1 PUSH3 0x475 JUMP JUMPDEST PUSH1 0x40 MLOAD DUP1 SWAP2 SUB SWAP1 REVERT JUMPDEST PUSH1 0x0 JUMPDEST PUSH1 0x5 DUP2 LT ISZERO PUSH3 0x396 JUMPI PUSH1 0x2 PUSH1 0x40 MLOAD DUP1 PUSH2 0x180 ADD PUSH1 0x40 MSTORE DUP1 DUP5 DUP5 PUSH1 0x5 DUP2 LT PUSH3 0x26F JUMPI PUSH3 0x26E PUSH3 0x594 JUMP JUMPDEST JUMPDEST PUSH1 0x20 MUL ADD MLOAD DUP2 MSTORE PUSH1 0x20 ADD PUSH1 0x0 DUP2 MSTORE PUSH1 0x20 ADD PUSH1 0x0 DUP2 MSTORE PUSH1 0x20 ADD PUSH1 0x0 DUP2 MSTORE PUSH1 0x20 ADD PUSH1 0x0 DUP2 MSTORE PUSH1 0x20 ADD PUSH1 0x0 DUP2 MSTORE PUSH1 0x20 ADD PUSH1 0x0 DUP2 MSTORE PUSH1 0x20 ADD PUSH1 0x0 DUP2 MSTORE PUSH1 0x20 ADD PUSH1 0x0 DUP2 MSTORE PUSH1 0x20 ADD PUSH1 0x0 DUP2 MSTORE PUSH1 0x20 ADD PUSH1 0x0 DUP2 MSTORE PUSH1 0x20 ADD PUSH1 0x0 DUP2 MSTORE POP SWAP1 DUP1 PUSH1 0x1 DUP2 SLOAD ADD DUP1 DUP3 SSTORE DUP1 SWAP2 POP POP PUSH1 0x1 SWAP1 SUB SWAP1 PUSH1 0x0 MSTORE PUSH1 0x20 PUSH1 0x0 KECCAK256 SWAP1 PUSH1 0xC MUL ADD PUSH1 0x0 SWAP1 SWAP2 SWAP1 SWAP2 SWAP1 SWAP2 POP PUSH1 0x0 DUP3 ADD MLOAD DUP2 PUSH1 0x0 ADD SWAP1 DUP1 MLOAD SWAP1 PUSH1 0x20 ADD SWAP1 PUSH3 0x30B SWAP3 SWAP2 SWAP1 PUSH3 0x39E JUMP JUMPDEST POP PUSH1 0x20 DUP3 ADD MLOAD DUP2 PUSH1 0x1 ADD SSTORE PUSH1 0x40 DUP3 ADD MLOAD DUP2 PUSH1 0x2 ADD SSTORE PUSH1 0x60 DUP3 ADD MLOAD DUP2 PUSH1 0x3 ADD SSTORE PUSH1 0x80 DUP3 ADD MLOAD DUP2 PUSH1 0x4 ADD SSTORE PUSH1 0xA0 DUP3 ADD MLOAD DUP2 PUSH1 0x5 ADD SSTORE PUSH1 0xC0 DUP3 ADD MLOAD DUP2 PUSH1 0x6 ADD SSTORE PUSH1 0xE0 DUP3 ADD MLOAD DUP2 PUSH1 0x7 ADD SSTORE PUSH2 0x100 DUP3 ADD MLOAD DUP2 PUSH1 0x8 ADD SSTORE PUSH2 0x120 DUP3 ADD MLOAD DUP2 PUSH1 0x9 ADD SSTORE PUSH2 0x140 DUP3 ADD MLOAD DUP2 PUSH1 0xA ADD SSTORE PUSH2 0x160 DUP3 ADD MLOAD DUP2 PUSH1 0xB ADD SSTORE POP POP DUP1 DUP1 PUSH3 0x38D SWAP1 PUSH3 0x4E8 JUMP JUMPDEST SWAP2 POP POP PUSH3 0x241 JUMP JUMPDEST POP POP PUSH3 0x5EC JUMP JUMPDEST DUP3 DUP1 SLOAD PUSH3 0x3AC SWAP1 PUSH3 0x4B2 JUMP JUMPDEST SWAP1 PUSH1 0x0 MSTORE PUSH1 0x20 PUSH1 0x0 KECCAK256 SWAP1 PUSH1 0x1F ADD PUSH1 0x20 SWAP1 DIV DUP2 ADD SWAP3 DUP3 PUSH3 0x3D0 JUMPI PUSH1 0x0 DUP6 SSTORE PUSH3 0x41C JUMP JUMPDEST DUP3 PUSH1 0x1F LT PUSH3 0x3EB JUMPI DUP1 MLOAD PUSH1 0xFF NOT AND DUP4 DUP1 ADD OR DUP6 SSTORE PUSH3 0x41C JUMP JUMPDEST DUP3 DUP1 ADD PUSH1 0x1 ADD DUP6 SSTORE DUP3 ISZERO PUSH3 0x41C JUMPI SWAP2 DUP3 ADD JUMPDEST DUP3 DUP2 GT ISZERO PUSH3 0x41B JUMPI DUP3 MLOAD DUP3 SSTORE SWAP2 PUSH1 0x20 ADD SWAP2 SWAP1 PUSH1 0x1 ADD SWAP1 PUSH3 0x3FE JUMP JUMPDEST JUMPDEST POP SWAP1 POP PUSH3 0x42B SWAP2 SWAP1 PUSH3 0x42F JUMP JUMPDEST POP SWAP1 JUMP JUMPDEST JUMPDEST DUP1 DUP3 GT ISZERO PUSH3 0x44A JUMPI PUSH1 0x0 DUP2 PUSH1 0x0 SWAP1 SSTORE POP PUSH1 0x1 ADD PUSH3 0x430 JUMP JUMPDEST POP SWAP1 JUMP JUMPDEST PUSH1 0x0 PUSH3 0x45D PUSH1 0x15 DUP4 PUSH3 0x497 JUMP JUMPDEST SWAP2 POP PUSH3 0x46A DUP3 PUSH3 0x5C3 JUMP JUMPDEST PUSH1 0x20 DUP3 ADD SWAP1 POP SWAP2 SWAP1 POP JUMP JUMPDEST PUSH1 0x0 PUSH1 0x20 DUP3 ADD SWAP1 POP DUP2 DUP2 SUB PUSH1 0x0 DUP4 ADD MSTORE PUSH3 0x490 DUP2 PUSH3 0x44E JUMP JUMPDEST SWAP1 POP SWAP2 SWAP1 POP JUMP JUMPDEST PUSH1 0x0 DUP3 DUP3 MSTORE PUSH1 0x20 DUP3 ADD SWAP1 POP SWAP3 SWAP2 POP POP JUMP JUMPDEST PUSH1 0x0 DUP2 SWAP1 POP SWAP2 SWAP1 POP JUMP JUMPDEST PUSH1 0x0 PUSH1 0x2 DUP3 DIV SWAP1 POP PUSH1 0x1 DUP3 AND DUP1 PUSH3 0x4CB JUMPI PUSH1 0x7F DUP3 AND SWAP2 POP JUMPDEST PUSH1 0x20 DUP3 LT DUP2 EQ ISZERO PUSH3 0x4E2 JUMPI PUSH3 0x4E1 PUSH3 0x565 JUMP JUMPDEST JUMPDEST POP SWAP2 SWAP1 POP JUMP JUMPDEST PUSH1 0x0 PUSH3 0x4F5 DUP3 PUSH3 0x4A8 JUMP JUMPDEST SWAP2 POP PUSH32 0xFFFFFFFFFFFFFFFFFFFFFFFFFFFFFFFFFFFFFFFFFFFFFFFFFFFFFFFFFFFFFFFF DUP3 EQ ISZERO PUSH3 0x52B JUMPI PUSH3 0x52A PUSH3 0x536 JUMP JUMPDEST JUMPDEST PUSH1 0x1 DUP3 ADD SWAP1 POP SWAP2 SWAP1 POP JUMP JUMPDEST PUSH32 0x4E487B7100000000000000000000000000000000000000000000000000000000 PUSH1 0x0 MSTORE PUSH1 0x11 PUSH1 0x4 MSTORE PUSH1 0x24 PUSH1 0x0 REVERT JUMPDEST PUSH32 0x4E487B7100000000000000000000000000000000000000000000000000000000 PUSH1 0x0 MSTORE PUSH1 0x22 PUSH1 0x4 MSTORE PUSH1 0x24 PUSH1 0x0 REVERT JUMPDEST PUSH32 0x4E487B7100000000000000000000000000000000000000000000000000000000 PUSH1 0x0 MSTORE PUSH1 0x32 PUSH1 0x4 MSTORE PUSH1 0x24 PUSH1 0x0 REVERT JUMPDEST PUSH32 0x43616E64696461746573206D75737420626520352E0000000000000000000000 PUSH1 0x0 DUP3 ADD MSTORE POP JUMP JUMPDEST PUSH2 0x1095 DUP1 PUSH3 0x5FC PUSH1 0x0 CODECOPY PUSH1 0x0 RETURN INVALID PUSH1 0x80 PUSH1 0x40 MSTORE CALLVALUE DUP1 ISZERO PUSH2 0x10 JUMPI PUSH1 0x0 DUP1 REVERT JUMPDEST POP PUSH1 0x4 CALLDATASIZE LT PUSH2 0x4C JUMPI PUSH1 0x0 CALLDATALOAD PUSH1 0xE0 SHR DUP1 PUSH4 0x632A9A52 EQ PUSH2 0x51 JUMPI DUP1 PUSH4 0xA3EC138D EQ PUSH2 0x5B JUMPI DUP1 PUSH4 0xCFA1F037 EQ PUSH2 0x8E JUMPI DUP1 PUSH4 0xD4E8FD2E EQ PUSH2 0xAC JUMPI JUMPDEST PUSH1 0x0 DUP1 REVERT JUMPDEST PUSH2 0x59 PUSH2 0xDC JUMP JUMPDEST STOP JUMPDEST PUSH2 0x75 PUSH1 0x4 DUP1 CALLDATASIZE SUB DUP2 ADD SWAP1 PUSH2 0x70 SWAP2 SWAP1 PUSH2 0x99C JUMP JUMPDEST PUSH2 0x6DD JUMP JUMPDEST PUSH1 0x40 MLOAD PUSH2 0x85 SWAP5 SWAP4 SWAP3 SWAP2 SWAP1 PUSH2 0xC8E JUMP JUMPDEST PUSH1 0x40 MLOAD DUP1 SWAP2 SUB SWAP1 RETURN JUMPDEST PUSH2 0x96 PUSH2 0x71A JUMP JUMPDEST PUSH1 0x40 MLOAD PUSH2 0xA3 SWAP2 SWAP1 PUSH2 0xC73 JUMP JUMPDEST PUSH1 0x40 MLOAD DUP1 SWAP2 SUB SWAP1 RETURN JUMPDEST PUSH2 0xC6 PUSH1 0x4 DUP1 CALLDATASIZE SUB DUP2 ADD SWAP1 PUSH2 0xC1 SWAP2 SWAP1 PUSH2 0x9C9 JUMP JUMPDEST PUSH2 0x75B JUMP JUMPDEST PUSH1 0x40 MLOAD PUSH2 0xD3 SWAP2 SWAP1 PUSH2 0xC51 JUMP JUMPDEST PUSH1 0x40 MLOAD DUP1 SWAP2 SUB SWAP1 RETURN JUMPDEST PUSH1 0x1 PUSH1 0x0 CALLER PUSH20 0xFFFFFFFFFFFFFFFFFFFFFFFFFFFFFFFFFFFFFFFF AND PUSH20 0xFFFFFFFFFFFFFFFFFFFFFFFFFFFFFFFFFFFFFFFF AND DUP2 MSTORE PUSH1 0x20 ADD SWAP1 DUP2 MSTORE PUSH1 0x20 ADD PUSH1 0x0 KECCAK256 PUSH1 0x1 ADD PUSH1 0x0 SWAP1 SLOAD SWAP1 PUSH2 0x100 EXP SWAP1 DIV PUSH1 0xFF AND ISZERO PUSH2 0x16C JUMPI PUSH1 0x40 MLOAD PUSH32 0x8C379A000000000000000000000000000000000000000000000000000000000 DUP2 MSTORE PUSH1 0x4 ADD PUSH2 0x163 SWAP1 PUSH2 0xC31 JUMP JUMPDEST PUSH1 0x40 MLOAD DUP1 SWAP2 SUB SWAP1 REVERT JUMPDEST PUSH1 0x0 PUSH1 0x1 PUSH1 0x0 CALLER PUSH20 0xFFFFFFFFFFFFFFFFFFFFFFFFFFFFFFFFFFFFFFFF AND PUSH20 0xFFFFFFFFFFFFFFFFFFFFFFFFFFFFFFFFFFFFFFFF AND DUP2 MSTORE PUSH1 0x20 ADD SWAP1 DUP2 MSTORE PUSH1 0x20 ADD PUSH1 0x0 KECCAK256 PUSH1 0x0 ADD SLOAD EQ PUSH2 0x1BB JUMPI PUSH1 0x0 DUP1 REVERT JUMPDEST PUSH1 0x1 DUP1 PUSH1 0x0 CALLER PUSH20 0xFFFFFFFFFFFFFFFFFFFFFFFFFFFFFFFFFFFFFFFF AND PUSH20 0xFFFFFFFFFFFFFFFFFFFFFFFFFFFFFFFFFFFFFFFF AND DUP2 MSTORE PUSH1 0x20 ADD SWAP1 DUP2 MSTORE PUSH1 0x20 ADD PUSH1 0x0 KECCAK256 PUSH1 0x0 ADD DUP2 SWAP1 SSTORE POP PUSH2 0x20A PUSH2 0x898 JUMP JUMPDEST PUSH2 0x212 PUSH2 0x8B4 JUMP JUMPDEST PUSH1 0x1 PUSH1 0x0 CALLER PUSH20 0xFFFFFFFFFFFFFFFFFFFFFFFFFFFFFFFFFFFFFFFF AND PUSH20 0xFFFFFFFFFFFFFFFFFFFFFFFFFFFFFFFFFFFFFFFF AND DUP2 MSTORE PUSH1 0x20 ADD SWAP1 DUP2 MSTORE PUSH1 0x20 ADD PUSH1 0x0 KECCAK256 PUSH1 0x2 ADD DUP2 SWAP1 SSTORE POP PUSH1 0x0 PUSH1 0x1 PUSH1 0x0 CALLER PUSH20 0xFFFFFFFFFFFFFFFFFFFFFFFFFFFFFFFFFFFFFFFF AND PUSH20 0xFFFFFFFFFFFFFFFFFFFFFFFFFFFFFFFFFFFFFFFF AND DUP2 MSTORE PUSH1 0x20 ADD SWAP1 DUP2 MSTORE PUSH1 0x20 ADD PUSH1 0x0 KECCAK256 SWAP1 POP DUP1 PUSH1 0x1 ADD PUSH1 0x0 SWAP1 SLOAD SWAP1 PUSH2 0x100 EXP SWAP1 DIV PUSH1 0xFF AND ISZERO PUSH2 0x2ED JUMPI PUSH1 0x40 MLOAD PUSH32 0x8C379A000000000000000000000000000000000000000000000000000000000 DUP2 MSTORE PUSH1 0x4 ADD PUSH2 0x2E4 SWAP1 PUSH2 0xC11 JUMP JUMPDEST PUSH1 0x40 MLOAD DUP1 SWAP2 SUB SWAP1 REVERT JUMPDEST PUSH1 0x1 DUP2 PUSH1 0x1 ADD PUSH1 0x0 PUSH2 0x100 EXP DUP2 SLOAD DUP2 PUSH1 0xFF MUL NOT AND SWAP1 DUP4 ISZERO ISZERO MUL OR SWAP1 SSTORE POP PUSH2 0x312 PUSH2 0x71A JUMP JUMPDEST DUP2 PUSH1 0x3 ADD DUP2 SWAP1 SSTORE POP DUP1 PUSH1 0x0 ADD SLOAD PUSH1 0x2 PUSH2 0x329 PUSH2 0x71A JUMP JUMPDEST DUP2 SLOAD DUP2 LT PUSH2 0x33A JUMPI PUSH2 0x339 PUSH2 0xF8D JUMP JUMPDEST JUMPDEST SWAP1 PUSH1 0x0 MSTORE PUSH1 0x20 PUSH1 0x0 KECCAK256 SWAP1 PUSH1 0xC MUL ADD PUSH1 0x1 ADD PUSH1 0x0 DUP3 DUP3 SLOAD PUSH2 0x35A SWAP2 SWAP1 PUSH2 0xD94 JUMP JUMPDEST SWAP3 POP POP DUP2 SWAP1 SSTORE POP PUSH1 0x0 DUP2 PUSH1 0x2 ADD SLOAD EQ ISZERO PUSH2 0x3BA JUMPI DUP1 PUSH1 0x0 ADD SLOAD PUSH1 0x2 PUSH2 0x37D PUSH2 0x71A JUMP JUMPDEST DUP2 SLOAD DUP2 LT PUSH2 0x38E JUMPI PUSH2 0x38D PUSH2 0xF8D JUMP JUMPDEST JUMPDEST SWAP1 PUSH1 0x0 MSTORE PUSH1 0x20 PUSH1 0x0 KECCAK256 SWAP1 PUSH1 0xC MUL ADD PUSH1 0x2 ADD PUSH1 0x0 DUP3 DUP3 SLOAD PUSH2 0x3AE SWAP2 SWAP1 PUSH2 0xD94 JUMP JUMPDEST SWAP3 POP POP DUP2 SWAP1 SSTORE POP PUSH2 0x6D2 JUMP JUMPDEST PUSH1 0x1 DUP2 PUSH1 0x2 ADD SLOAD EQ ISZERO PUSH2 0x413 JUMPI DUP1 PUSH1 0x0 ADD SLOAD PUSH1 0x2 PUSH2 0x3D6 PUSH2 0x71A JUMP JUMPDEST DUP2 SLOAD DUP2 LT PUSH2 0x3E7 JUMPI PUSH2 0x3E6 PUSH2 0xF8D JUMP JUMPDEST JUMPDEST SWAP1 PUSH1 0x0 MSTORE PUSH1 0x20 PUSH1 0x0 KECCAK256 SWAP1 PUSH1 0xC MUL ADD PUSH1 0x3 ADD PUSH1 0x0 DUP3 DUP3 SLOAD PUSH2 0x407 SWAP2 SWAP1 PUSH2 0xD94 JUMP JUMPDEST SWAP3 POP POP DUP2 SWAP1 SSTORE POP PUSH2 0x6D1 JUMP JUMPDEST PUSH1 0x2 DUP2 PUSH1 0x2 ADD SLOAD EQ ISZERO PUSH2 0x46C JUMPI DUP1 PUSH1 0x0 ADD SLOAD PUSH1 0x2 PUSH2 0x42F PUSH2 0x71A JUMP JUMPDEST DUP2 SLOAD DUP2 LT PUSH2 0x440 JUMPI PUSH2 0x43F PUSH2 0xF8D JUMP JUMPDEST JUMPDEST SWAP1 PUSH1 0x0 MSTORE PUSH1 0x20 PUSH1 0x0 KECCAK256 SWAP1 PUSH1 0xC MUL ADD PUSH1 0x4 ADD PUSH1 0x0 DUP3 DUP3 SLOAD PUSH2 0x460 SWAP2 SWAP1 PUSH2 0xD94 JUMP JUMPDEST SWAP3 POP POP DUP2 SWAP1 SSTORE POP PUSH2 0x6D0 JUMP JUMPDEST PUSH1 0x3 DUP2 PUSH1 0x2 ADD SLOAD EQ ISZERO PUSH2 0x4C5 JUMPI DUP1 PUSH1 0x0 ADD SLOAD PUSH1 0x2 PUSH2 0x488 PUSH2 0x71A JUMP JUMPDEST DUP2 SLOAD DUP2 LT PUSH2 0x499 JUMPI PUSH2 0x498 PUSH2 0xF8D JUMP JUMPDEST JUMPDEST SWAP1 PUSH1 0x0 MSTORE PUSH1 0x20 PUSH1 0x0 KECCAK256 SWAP1 PUSH1 0xC MUL ADD PUSH1 0x5 ADD PUSH1 0x0 DUP3 DUP3 SLOAD PUSH2 0x4B9 SWAP2 SWAP1 PUSH2 0xD94 JUMP JUMPDEST SWAP3 POP POP DUP2 SWAP1 SSTORE POP PUSH2 0x6CF JUMP JUMPDEST PUSH1 0x4 DUP2 PUSH1 0x2 ADD SLOAD EQ ISZERO PUSH2 0x51E JUMPI DUP1 PUSH1 0x0 ADD SLOAD PUSH1 0x2 PUSH2 0x4E1 PUSH2 0x71A JUMP JUMPDEST DUP2 SLOAD DUP2 LT PUSH2 0x4F2 JUMPI PUSH2 0x4F1 PUSH2 0xF8D JUMP JUMPDEST JUMPDEST SWAP1 PUSH1 0x0 MSTORE PUSH1 0x20 PUSH1 0x0 KECCAK256 SWAP1 PUSH1 0xC MUL ADD PUSH1 0x6 ADD PUSH1 0x0 DUP3 DUP3 SLOAD PUSH2 0x512 SWAP2 SWAP1 PUSH2 0xD94 JUMP JUMPDEST SWAP3 POP POP DUP2 SWAP1 SSTORE POP PUSH2 0x6CE JUMP JUMPDEST PUSH1 0x5 DUP2 PUSH1 0x2 ADD SLOAD EQ ISZERO PUSH2 0x577 JUMPI DUP1 PUSH1 0x0 ADD SLOAD PUSH1 0x2 PUSH2 0x53A PUSH2 0x71A JUMP JUMPDEST DUP2 SLOAD DUP2 LT PUSH2 0x54B JUMPI PUSH2 0x54A PUSH2 0xF8D JUMP JUMPDEST JUMPDEST SWAP1 PUSH1 0x0 MSTORE PUSH1 0x20 PUSH1 0x0 KECCAK256 SWAP1 PUSH1 0xC MUL ADD PUSH1 0x7 ADD PUSH1 0x0 DUP3 DUP3 SLOAD PUSH2 0x56B SWAP2 SWAP1 PUSH2 0xD94 JUMP JUMPDEST SWAP3 POP POP DUP2 SWAP1 SSTORE POP PUSH2 0x6CD JUMP JUMPDEST PUSH1 0x6 DUP2 PUSH1 0x2 ADD SLOAD EQ ISZERO PUSH2 0x5D0 JUMPI DUP1 PUSH1 0x0 ADD SLOAD PUSH1 0x2 PUSH2 0x593 PUSH2 0x71A JUMP JUMPDEST DUP2 SLOAD DUP2 LT PUSH2 0x5A4 JUMPI PUSH2 0x5A3 PUSH2 0xF8D JUMP JUMPDEST JUMPDEST SWAP1 PUSH1 0x0 MSTORE PUSH1 0x20 PUSH1 0x0 KECCAK256 SWAP1 PUSH1 0xC MUL ADD PUSH1 0x8 ADD PUSH1 0x0 DUP3 DUP3 SLOAD PUSH2 0x5C4 SWAP2 SWAP1 PUSH2 0xD94 JUMP JUMPDEST SWAP3 POP POP DUP2 SWAP1 SSTORE POP PUSH2 0x6CC JUMP JUMPDEST PUSH1 0x7 DUP2 PUSH1 0x2 ADD SLOAD EQ ISZERO PUSH2 0x629 JUMPI DUP1 PUSH1 0x0 ADD SLOAD PUSH1 0x2 PUSH2 0x5EC PUSH2 0x71A JUMP JUMPDEST DUP2 SLOAD DUP2 LT PUSH2 0x5FD JUMPI PUSH2 0x5FC PUSH2 0xF8D JUMP JUMPDEST JUMPDEST SWAP1 PUSH1 0x0 MSTORE PUSH1 0x20 PUSH1 0x0 KECCAK256 SWAP1 PUSH1 0xC MUL ADD PUSH1 0x9 ADD PUSH1 0x0 DUP3 DUP3 SLOAD PUSH2 0x61D SWAP2 SWAP1 PUSH2 0xD94 JUMP JUMPDEST SWAP3 POP POP DUP2 SWAP1 SSTORE POP PUSH2 0x6CB JUMP JUMPDEST PUSH1 0x8 DUP2 PUSH1 0x2 ADD SLOAD EQ ISZERO PUSH2 0x682 JUMPI DUP1 PUSH1 0x0 ADD SLOAD PUSH1 0x2 PUSH2 0x645 PUSH2 0x71A JUMP JUMPDEST DUP2 SLOAD DUP2 LT PUSH2 0x656 JUMPI PUSH2 0x655 PUSH2 0xF8D JUMP JUMPDEST JUMPDEST SWAP1 PUSH1 0x0 MSTORE PUSH1 0x20 PUSH1 0x0 KECCAK256 SWAP1 PUSH1 0xC MUL ADD PUSH1 0xA ADD PUSH1 0x0 DUP3 DUP3 SLOAD PUSH2 0x676 SWAP2 SWAP1 PUSH2 0xD94 JUMP JUMPDEST SWAP3 POP POP DUP2 SWAP1 SSTORE POP PUSH2 0x6CA JUMP JUMPDEST DUP1 PUSH1 0x0 ADD SLOAD PUSH1 0x2 PUSH2 0x691 PUSH2 0x71A JUMP JUMPDEST DUP2 SLOAD DUP2 LT PUSH2 0x6A2 JUMPI PUSH2 0x6A1 PUSH2 0xF8D JUMP JUMPDEST JUMPDEST SWAP1 PUSH1 0x0 MSTORE PUSH1 0x20 PUSH1 0x0 KECCAK256 SWAP1 PUSH1 0xC MUL ADD PUSH1 0xB ADD PUSH1 0x0 DUP3 DUP3 SLOAD PUSH2 0x6C2 SWAP2 SWAP1 PUSH2 0xD94 JUMP JUMPDEST SWAP3 POP POP DUP2 SWAP1 SSTORE POP JUMPDEST JUMPDEST JUMPDEST JUMPDEST JUMPDEST JUMPDEST JUMPDEST JUMPDEST JUMPDEST PUSH2 0x6DA PUSH2 0x8F5 JUMP JUMPDEST POP JUMP JUMPDEST PUSH1 0x1 PUSH1 0x20 MSTORE DUP1 PUSH1 0x0 MSTORE PUSH1 0x40 PUSH1 0x0 KECCAK256 PUSH1 0x0 SWAP2 POP SWAP1 POP DUP1 PUSH1 0x0 ADD SLOAD SWAP1 DUP1 PUSH1 0x1 ADD PUSH1 0x0 SWAP1 SLOAD SWAP1 PUSH2 0x100 EXP SWAP1 DIV PUSH1 0xFF AND SWAP1 DUP1 PUSH1 0x2 ADD SLOAD SWAP1 DUP1 PUSH1 0x3 ADD SLOAD SWAP1 POP DUP5 JUMP JUMPDEST PUSH1 0x0 PUSH1 0x5 TIMESTAMP DIFFICULTY CALLER PUSH1 0x40 MLOAD PUSH1 0x20 ADD PUSH2 0x733 SWAP4 SWAP3 SWAP2 SWAP1 PUSH2 0xBD4 JUMP JUMPDEST PUSH1 0x40 MLOAD PUSH1 0x20 DUP2 DUP4 SUB SUB DUP2 MSTORE SWAP1 PUSH1 0x40 MSTORE DUP1 MLOAD SWAP1 PUSH1 0x20 ADD KECCAK256 PUSH1 0x0 SHR PUSH2 0x756 SWAP2 SWAP1 PUSH2 0xECF JUMP JUMPDEST SWAP1 POP SWAP1 JUMP JUMPDEST PUSH2 0x763 PUSH2 0x911 JUMP JUMPDEST PUSH1 0x2 DUP3 DUP2 SLOAD DUP2 LT PUSH2 0x777 JUMPI PUSH2 0x776 PUSH2 0xF8D JUMP JUMPDEST JUMPDEST SWAP1 PUSH1 0x0 MSTORE PUSH1 0x20 PUSH1 0x0 KECCAK256 SWAP1 PUSH1 0xC MUL ADD PUSH1 0x40 MLOAD DUP1 PUSH2 0x180 ADD PUSH1 0x40 MSTORE SWAP1 DUP2 PUSH1 0x0 DUP3 ADD DUP1 SLOAD PUSH2 0x7A1 SWAP1 PUSH2 0xE6F JUMP JUMPDEST DUP1 PUSH1 0x1F ADD PUSH1 0x20 DUP1 SWAP2 DIV MUL PUSH1 0x20 ADD PUSH1 0x40 MLOAD SWAP1 DUP2 ADD PUSH1 0x40 MSTORE DUP1 SWAP3 SWAP2 SWAP1 DUP2 DUP2 MSTORE PUSH1 0x20 ADD DUP3 DUP1 SLOAD PUSH2 0x7CD SWAP1 PUSH2 0xE6F JUMP JUMPDEST DUP1 ISZERO PUSH2 0x81A JUMPI DUP1 PUSH1 0x1F LT PUSH2 0x7EF JUMPI PUSH2 0x100 DUP1 DUP4 SLOAD DIV MUL DUP4 MSTORE SWAP2 PUSH1 0x20 ADD SWAP2 PUSH2 0x81A JUMP JUMPDEST DUP3 ADD SWAP2 SWAP1 PUSH1 0x0 MSTORE PUSH1 0x20 PUSH1 0x0 KECCAK256 SWAP1 JUMPDEST DUP2 SLOAD DUP2 MSTORE SWAP1 PUSH1 0x1 ADD SWAP1 PUSH1 0x20 ADD DUP1 DUP4 GT PUSH2 0x7FD JUMPI DUP3 SWAP1 SUB PUSH1 0x1F AND DUP3 ADD SWAP2 JUMPDEST POP POP POP POP POP DUP2 MSTORE PUSH1 0x20 ADD PUSH1 0x1 DUP3 ADD SLOAD DUP2 MSTORE PUSH1 0x20 ADD PUSH1 0x2 DUP3 ADD SLOAD DUP2 MSTORE PUSH1 0x20 ADD PUSH1 0x3 DUP3 ADD SLOAD DUP2 MSTORE PUSH1 0x20 ADD PUSH1 0x4 DUP3 ADD SLOAD DUP2 MSTORE PUSH1 0x20 ADD PUSH1 0x5 DUP3 ADD SLOAD DUP2 MSTORE PUSH1 0x20 ADD PUSH1 0x6 DUP3 ADD SLOAD DUP2 MSTORE PUSH1 0x20 ADD PUSH1 0x7 DUP3 ADD SLOAD DUP2 MSTORE PUSH1 0x20 ADD PUSH1 0x8 DUP3 ADD SLOAD DUP2 MSTORE PUSH1 0x20 ADD PUSH1 0x9 DUP3 ADD SLOAD DUP2 MSTORE PUSH1 0x20 ADD PUSH1 0xA DUP3 ADD SLOAD DUP2 MSTORE PUSH1 0x20 ADD PUSH1 0xB DUP3 ADD SLOAD DUP2 MSTORE POP POP SWAP1 POP SWAP2 SWAP1 POP JUMP JUMPDEST PUSH1 0x1 PUSH1 0x3 PUSH1 0x0 DUP3 DUP3 SLOAD PUSH2 0x8AB SWAP2 SWAP1 PUSH2 0xD00 JUMP JUMPDEST SWAP3 POP POP DUP2 SWAP1 SSTORE POP JUMP JUMPDEST PUSH1 0x0 PUSH1 0xA TIMESTAMP DIFFICULTY CALLER PUSH1 0x40 MLOAD PUSH1 0x20 ADD PUSH2 0x8CD SWAP4 SWAP3 SWAP2 SWAP1 PUSH2 0xBD4 JUMP JUMPDEST PUSH1 0x40 MLOAD PUSH1 0x20 DUP2 DUP4 SUB SUB DUP2 MSTORE SWAP1 PUSH1 0x40 MSTORE DUP1 MLOAD SWAP1 PUSH1 0x20 ADD KECCAK256 PUSH1 0x0 SHR PUSH2 0x8F0 SWAP2 SWAP1 PUSH2 0xECF JUMP JUMPDEST SWAP1 POP SWAP1 JUMP JUMPDEST PUSH1 0x1 PUSH1 0x4 PUSH1 0x0 DUP3 DUP3 SLOAD PUSH2 0x908 SWAP2 SWAP1 PUSH2 0xD00 JUMP JUMPDEST SWAP3 POP POP DUP2 SWAP1 SSTORE POP JUMP JUMPDEST PUSH1 0x40 MLOAD DUP1 PUSH2 0x180 ADD PUSH1 0x40 MSTORE DUP1 PUSH1 0x60 DUP2 MSTORE PUSH1 0x20 ADD PUSH1 0x0 DUP2 MSTORE PUSH1 0x20 ADD PUSH1 0x0 DUP2 MSTORE PUSH1 0x20 ADD PUSH1 0x0 DUP2 MSTORE PUSH1 0x20 ADD PUSH1 0x0 DUP2 MSTORE PUSH1 0x20 ADD PUSH1 0x0 DUP2 MSTORE PUSH1 0x20 ADD PUSH1 0x0 DUP2 MSTORE PUSH1 0x20 ADD PUSH1 0x0 DUP2 MSTORE PUSH1 0x20 ADD PUSH1 0x0 DUP2 MSTORE PUSH1 0x20 ADD PUSH1 0x0 DUP2 MSTORE PUSH1 0x20 ADD PUSH1 0x0 DUP2 MSTORE PUSH1 0x20 ADD PUSH1 0x0 DUP2 MSTORE POP SWAP1 JUMP JUMPDEST PUSH1 0x0 DUP2 CALLDATALOAD SWAP1 POP PUSH2 0x981 DUP2 PUSH2 0x1031 JUMP JUMPDEST SWAP3 SWAP2 POP POP JUMP JUMPDEST PUSH1 0x0 DUP2 CALLDATALOAD SWAP1 POP PUSH2 0x996 DUP2 PUSH2 0x1048 JUMP JUMPDEST SWAP3 SWAP2 POP POP JUMP JUMPDEST PUSH1 0x0 PUSH1 0x20 DUP3 DUP5 SUB SLT ISZERO PUSH2 0x9B2 JUMPI PUSH2 0x9B1 PUSH2 0xFBC JUMP JUMPDEST JUMPDEST PUSH1 0x0 PUSH2 0x9C0 DUP5 DUP3 DUP6 ADD PUSH2 0x972 JUMP JUMPDEST SWAP2 POP POP SWAP3 SWAP2 POP POP JUMP JUMPDEST PUSH1 0x0 PUSH1 0x20 DUP3 DUP5 SUB SLT ISZERO PUSH2 0x9DF JUMPI PUSH2 0x9DE PUSH2 0xFBC JUMP JUMPDEST JUMPDEST PUSH1 0x0 PUSH2 0x9ED DUP5 DUP3 DUP6 ADD PUSH2 0x987 JUMP JUMPDEST SWAP2 POP POP SWAP3 SWAP2 POP POP JUMP JUMPDEST PUSH2 0xA07 PUSH2 0xA02 DUP3 PUSH2 0xDEA JUMP JUMPDEST PUSH2 0xEA1 JUMP JUMPDEST DUP3 MSTORE POP POP JUMP JUMPDEST PUSH2 0xA16 DUP2 PUSH2 0xDFC JUMP JUMPDEST DUP3 MSTORE POP POP JUMP JUMPDEST PUSH1 0x0 PUSH2 0xA27 DUP3 PUSH2 0xCD3 JUMP JUMPDEST PUSH2 0xA31 DUP2 DUP6 PUSH2 0xCDE JUMP JUMPDEST SWAP4 POP PUSH2 0xA41 DUP2 DUP6 PUSH1 0x20 DUP7 ADD PUSH2 0xE3C JUMP JUMPDEST PUSH2 0xA4A DUP2 PUSH2 0xFC1 JUMP JUMPDEST DUP5 ADD SWAP2 POP POP SWAP3 SWAP2 POP POP JUMP JUMPDEST PUSH1 0x0 PUSH2 0xA62 PUSH1 0xE DUP4 PUSH2 0xCEF JUMP JUMPDEST SWAP2 POP PUSH2 0xA6D DUP3 PUSH2 0xFDF JUMP JUMPDEST PUSH1 0x20 DUP3 ADD SWAP1 POP SWAP2 SWAP1 POP JUMP JUMPDEST PUSH1 0x0 PUSH2 0xA85 PUSH1 0x18 DUP4 PUSH2 0xCEF JUMP JUMPDEST SWAP2 POP PUSH2 0xA90 DUP3 PUSH2 0x1008 JUMP JUMPDEST PUSH1 0x20 DUP3 ADD SWAP1 POP SWAP2 SWAP1 POP JUMP JUMPDEST PUSH1 0x0 PUSH2 0x180 DUP4 ADD PUSH1 0x0 DUP4 ADD MLOAD DUP5 DUP3 SUB PUSH1 0x0 DUP7 ADD MSTORE PUSH2 0xAB9 DUP3 DUP3 PUSH2 0xA1C JUMP JUMPDEST SWAP2 POP POP PUSH1 0x20 DUP4 ADD MLOAD PUSH2 0xACE PUSH1 0x20 DUP7 ADD DUP3 PUSH2 0xB9F JUMP JUMPDEST POP PUSH1 0x40 DUP4 ADD MLOAD PUSH2 0xAE1 PUSH1 0x40 DUP7 ADD DUP3 PUSH2 0xB9F JUMP JUMPDEST POP PUSH1 0x60 DUP4 ADD MLOAD PUSH2 0xAF4 PUSH1 0x60 DUP7 ADD DUP3 PUSH2 0xB9F JUMP JUMPDEST POP PUSH1 0x80 DUP4 ADD MLOAD PUSH2 0xB07 PUSH1 0x80 DUP7 ADD DUP3 PUSH2 0xB9F JUMP JUMPDEST POP PUSH1 0xA0 DUP4 ADD MLOAD PUSH2 0xB1A PUSH1 0xA0 DUP7 ADD DUP3 PUSH2 0xB9F JUMP JUMPDEST POP PUSH1 0xC0 DUP4 ADD MLOAD PUSH2 0xB2D PUSH1 0xC0 DUP7 ADD DUP3 PUSH2 0xB9F JUMP JUMPDEST POP PUSH1 0xE0 DUP4 ADD MLOAD PUSH2 0xB40 PUSH1 0xE0 DUP7 ADD DUP3 PUSH2 0xB9F JUMP JUMPDEST POP PUSH2 0x100 DUP4 ADD MLOAD PUSH2 0xB55 PUSH2 0x100 DUP7 ADD DUP3 PUSH2 0xB9F JUMP JUMPDEST POP PUSH2 0x120 DUP4 ADD MLOAD PUSH2 0xB6A PUSH2 0x120 DUP7 ADD DUP3 PUSH2 0xB9F JUMP JUMPDEST POP PUSH2 0x140 DUP4 ADD MLOAD PUSH2 0xB7F PUSH2 0x140 DUP7 ADD DUP3 PUSH2 0xB9F JUMP JUMPDEST POP PUSH2 0x160 DUP4 ADD MLOAD PUSH2 0xB94 PUSH2 0x160 DUP7 ADD DUP3 PUSH2 0xB9F JUMP JUMPDEST POP DUP1 SWAP2 POP POP SWAP3 SWAP2 POP POP JUMP JUMPDEST PUSH2 0xBA8 DUP2 PUSH2 0xE32 JUMP JUMPDEST DUP3 MSTORE POP POP JUMP JUMPDEST PUSH2 0xBB7 DUP2 PUSH2 0xE32 JUMP JUMPDEST DUP3 MSTORE POP POP JUMP JUMPDEST PUSH2 0xBCE PUSH2 0xBC9 DUP3 PUSH2 0xE32 JUMP JUMPDEST PUSH2 0xEC5 JUMP JUMPDEST DUP3 MSTORE POP POP JUMP JUMPDEST PUSH1 0x0 PUSH2 0xBE0 DUP3 DUP7 PUSH2 0xBBD JUMP JUMPDEST PUSH1 0x20 DUP3 ADD SWAP2 POP PUSH2 0xBF0 DUP3 DUP6 PUSH2 0xBBD JUMP JUMPDEST PUSH1 0x20 DUP3 ADD SWAP2 POP PUSH2 0xC00 DUP3 DUP5 PUSH2 0x9F6 JUMP JUMPDEST PUSH1 0x14 DUP3 ADD SWAP2 POP DUP2 SWAP1 POP SWAP5 SWAP4 POP POP POP POP JUMP JUMPDEST PUSH1 0x0 PUSH1 0x20 DUP3 ADD SWAP1 POP DUP2 DUP2 SUB PUSH1 0x0 DUP4 ADD MSTORE PUSH2 0xC2A DUP2 PUSH2 0xA55 JUMP JUMPDEST SWAP1 POP SWAP2 SWAP1 POP JUMP JUMPDEST PUSH1 0x0 PUSH1 0x20 DUP3 ADD SWAP1 POP DUP2 DUP2 SUB PUSH1 0x0 DUP4 ADD MSTORE PUSH2 0xC4A DUP2 PUSH2 0xA78 JUMP JUMPDEST SWAP1 POP SWAP2 SWAP1 POP JUMP JUMPDEST PUSH1 0x0 PUSH1 0x20 DUP3 ADD SWAP1 POP DUP2 DUP2 SUB PUSH1 0x0 DUP4 ADD MSTORE PUSH2 0xC6B DUP2 DUP5 PUSH2 0xA9B JUMP JUMPDEST SWAP1 POP SWAP3 SWAP2 POP POP JUMP JUMPDEST PUSH1 0x0 PUSH1 0x20 DUP3 ADD SWAP1 POP PUSH2 0xC88 PUSH1 0x0 DUP4 ADD DUP5 PUSH2 0xBAE JUMP JUMPDEST SWAP3 SWAP2 POP POP JUMP JUMPDEST PUSH1 0x0 PUSH1 0x80 DUP3 ADD SWAP1 POP PUSH2 0xCA3 PUSH1 0x0 DUP4 ADD DUP8 PUSH2 0xBAE JUMP JUMPDEST PUSH2 0xCB0 PUSH1 0x20 DUP4 ADD DUP7 PUSH2 0xA0D JUMP JUMPDEST PUSH2 0xCBD PUSH1 0x40 DUP4 ADD DUP6 PUSH2 0xBAE JUMP JUMPDEST PUSH2 0xCCA PUSH1 0x60 DUP4 ADD DUP5 PUSH2 0xBAE JUMP JUMPDEST SWAP6 SWAP5 POP POP POP POP POP JUMP JUMPDEST PUSH1 0x0 DUP2 MLOAD SWAP1 POP SWAP2 SWAP1 POP JUMP JUMPDEST PUSH1 0x0 DUP3 DUP3 MSTORE PUSH1 0x20 DUP3 ADD SWAP1 POP SWAP3 SWAP2 POP POP JUMP JUMPDEST PUSH1 0x0 DUP3 DUP3 MSTORE PUSH1 0x20 DUP3 ADD SWAP1 POP SWAP3 SWAP2 POP POP JUMP JUMPDEST PUSH1 0x0 PUSH2 0xD0B DUP3 PUSH2 0xE08 JUMP JUMPDEST SWAP2 POP PUSH2 0xD16 DUP4 PUSH2 0xE08 JUMP JUMPDEST SWAP3 POP DUP2 PUSH32 0x7FFFFFFFFFFFFFFFFFFFFFFFFFFFFFFFFFFFFFFFFFFFFFFFFFFFFFFFFFFFFFFF SUB DUP4 SGT PUSH1 0x0 DUP4 SLT ISZERO AND ISZERO PUSH2 0xD51 JUMPI PUSH2 0xD50 PUSH2 0xF00 JUMP JUMPDEST JUMPDEST DUP2 PUSH32 0x8000000000000000000000000000000000000000000000000000000000000000 SUB DUP4 SLT PUSH1 0x0 DUP4 SLT AND ISZERO PUSH2 0xD89 JUMPI PUSH2 0xD88 PUSH2 0xF00 JUMP JUMPDEST JUMPDEST DUP3 DUP3 ADD SWAP1 POP SWAP3 SWAP2 POP POP JUMP JUMPDEST PUSH1 0x0 PUSH2 0xD9F DUP3 PUSH2 0xE32 JUMP JUMPDEST SWAP2 POP PUSH2 0xDAA DUP4 PUSH2 0xE32 JUMP JUMPDEST SWAP3 POP DUP3 PUSH32 0xFFFFFFFFFFFFFFFFFFFFFFFFFFFFFFFFFFFFFFFFFFFFFFFFFFFFFFFFFFFFFFFF SUB DUP3 GT ISZERO PUSH2 0xDDF JUMPI PUSH2 0xDDE PUSH2 0xF00 JUMP JUMPDEST JUMPDEST DUP3 DUP3 ADD SWAP1 POP SWAP3 SWAP2 POP POP JUMP JUMPDEST PUSH1 0x0 PUSH2 0xDF5 DUP3 PUSH2 0xE12 JUMP JUMPDEST SWAP1 POP SWAP2 SWAP1 POP JUMP JUMPDEST PUSH1 0x0 DUP2 ISZERO ISZERO SWAP1 POP SWAP2 SWAP1 POP JUMP JUMPDEST PUSH1 0x0 DUP2 SWAP1 POP SWAP2 SWAP1 POP JUMP JUMPDEST PUSH1 0x0 PUSH20 0xFFFFFFFFFFFFFFFFFFFFFFFFFFFFFFFFFFFFFFFF DUP3 AND SWAP1 POP SWAP2 SWAP1 POP JUMP JUMPDEST PUSH1 0x0 DUP2 SWAP1 POP SWAP2 SWAP1 POP JUMP JUMPDEST PUSH1 0x0 JUMPDEST DUP4 DUP2 LT ISZERO PUSH2 0xE5A JUMPI DUP1 DUP3 ADD MLOAD DUP2 DUP5 ADD MSTORE PUSH1 0x20 DUP2 ADD SWAP1 POP PUSH2 0xE3F JUMP JUMPDEST DUP4 DUP2 GT ISZERO PUSH2 0xE69 JUMPI PUSH1 0x0 DUP5 DUP5 ADD MSTORE JUMPDEST POP POP POP POP JUMP JUMPDEST PUSH1 0x0 PUSH1 0x2 DUP3 DIV SWAP1 POP PUSH1 0x1 DUP3 AND DUP1 PUSH2 0xE87 JUMPI PUSH1 0x7F DUP3 AND SWAP2 POP JUMPDEST PUSH1 0x20 DUP3 LT DUP2 EQ ISZERO PUSH2 0xE9B JUMPI PUSH2 0xE9A PUSH2 0xF5E JUMP JUMPDEST JUMPDEST POP SWAP2 SWAP1 POP JUMP JUMPDEST PUSH1 0x0 PUSH2 0xEAC DUP3 PUSH2 0xEB3 JUMP JUMPDEST SWAP1 POP SWAP2 SWAP1 POP JUMP JUMPDEST PUSH1 0x0 PUSH2 0xEBE DUP3 PUSH2 0xFD2 JUMP JUMPDEST SWAP1 POP SWAP2 SWAP1 POP JUMP JUMPDEST PUSH1 0x0 DUP2 SWAP1 POP SWAP2 SWAP1 POP JUMP JUMPDEST PUSH1 0x0 PUSH2 0xEDA DUP3 PUSH2 0xE32 JUMP JUMPDEST SWAP2 POP PUSH2 0xEE5 DUP4 PUSH2 0xE32 JUMP JUMPDEST SWAP3 POP DUP3 PUSH2 0xEF5 JUMPI PUSH2 0xEF4 PUSH2 0xF2F JUMP JUMPDEST JUMPDEST DUP3 DUP3 MOD SWAP1 POP SWAP3 SWAP2 POP POP JUMP JUMPDEST PUSH32 0x4E487B7100000000000000000000000000000000000000000000000000000000 PUSH1 0x0 MSTORE PUSH1 0x11 PUSH1 0x4 MSTORE PUSH1 0x24 PUSH1 0x0 REVERT JUMPDEST PUSH32 0x4E487B7100000000000000000000000000000000000000000000000000000000 PUSH1 0x0 MSTORE PUSH1 0x12 PUSH1 0x4 MSTORE PUSH1 0x24 PUSH1 0x0 REVERT JUMPDEST PUSH32 0x4E487B7100000000000000000000000000000000000000000000000000000000 PUSH1 0x0 MSTORE PUSH1 0x22 PUSH1 0x4 MSTORE PUSH1 0x24 PUSH1 0x0 REVERT JUMPDEST PUSH32 0x4E487B7100000000000000000000000000000000000000000000000000000000 PUSH1 0x0 MSTORE PUSH1 0x32 PUSH1 0x4 MSTORE PUSH1 0x24 PUSH1 0x0 REVERT JUMPDEST PUSH1 0x0 DUP1 REVERT JUMPDEST PUSH1 0x0 PUSH1 0x1F NOT PUSH1 0x1F DUP4 ADD AND SWAP1 POP SWAP2 SWAP1 POP JUMP JUMPDEST PUSH1 0x0 DUP2 PUSH1 0x60 SHL SWAP1 POP SWAP2 SWAP1 POP JUMP JUMPDEST PUSH32 0x416C726561647920766F7465642E000000000000000000000000000000000000 PUSH1 0x0 DUP3 ADD MSTORE POP JUMP JUMPDEST PUSH32 0x54686520766F74657220616C726561647920766F7465642E0000000000000000 PUSH1 0x0 DUP3 ADD MSTORE POP JUMP JUMPDEST PUSH2 0x103A DUP2 PUSH2 0xDEA JUMP JUMPDEST DUP2 EQ PUSH2 0x1045 JUMPI PUSH1 0x0 DUP1 REVERT JUMPDEST POP JUMP JUMPDEST PUSH2 0x1051 DUP2 PUSH2 0xE32 JUMP JUMPDEST DUP2 EQ PUSH2 0x105C JUMPI PUSH1 0x0 DUP1 REVERT JUMPDEST POP JUMP INVALID LOG2 PUSH5 0x6970667358 0x22 SLT KECCAK256 PUSH24 0xE4A08FDDF25AECC91D22633196CFEAB762A52C47D431343A DUP4 0x23 PUSH25 0xF7B3A5E264736F6C6343000807003300000000000000000000 "
		},
		"gasEstimates": {
			"creation": {
				"codeDepositCost": "849000",
				"executionCost": "infinite",
				"totalCost": "infinite"
			},
			"external": {
				"random_vote()": "infinite",
				"res(uint256)": "infinite",
				"vote()": "infinite",
				"voters(address)": "infinite"
			},
			"internal": {
				"incrementCounter()": "infinite",
				"incrementCounter2()": "infinite",
				"random_district()": "infinite"
			}
		},
		"methodIdentifiers": {
			"random_vote()": "cfa1f037",
			"res(uint256)": "d4e8fd2e",
			"vote()": "632a9a52",
			"voters(address)": "a3ec138d"
		}
	},
	"abi": [
		{
			"inputs": [],
			"stateMutability": "nonpayable",
			"type": "constructor"
		},
		{
			"inputs": [],
			"name": "random_vote",
			"outputs": [
				{
					"internalType": "uint256",
					"name": "",
					"type": "uint256"
				}
			],
			"stateMutability": "view",
			"type": "function"
		},
		{
			"inputs": [
				{
					"internalType": "uint256",
					"name": "_id",
					"type": "uint256"
				}
			],
			"name": "res",
			"outputs": [
				{
					"components": [
						{
							"internalType": "string",
							"name": "name",
							"type": "string"
						},
						{
							"internalType": "uint256",
							"name": "Total_Votes",
							"type": "uint256"
						},
						{
							"internalType": "uint256",
							"name": "Votes_District0",
							"type": "uint256"
						},
						{
							"internalType": "uint256",
							"name": "Votes_District1",
							"type": "uint256"
						},
						{
							"internalType": "uint256",
							"name": "Votes_District2",
							"type": "uint256"
						},
						{
							"internalType": "uint256",
							"name": "Votes_District3",
							"type": "uint256"
						},
						{
							"internalType": "uint256",
							"name": "Votes_District4",
							"type": "uint256"
						},
						{
							"internalType": "uint256",
							"name": "Votes_District5",
							"type": "uint256"
						},
						{
							"internalType": "uint256",
							"name": "Votes_District6",
							"type": "uint256"
						},
						{
							"internalType": "uint256",
							"name": "Votes_District7",
							"type": "uint256"
						},
						{
							"internalType": "uint256",
							"name": "Votes_District8",
							"type": "uint256"
						},
						{
							"internalType": "uint256",
							"name": "Votes_District9",
							"type": "uint256"
						}
					],
					"internalType": "struct Ballot.Proposal",
					"name": "",
					"type": "tuple"
				}
			],
			"stateMutability": "view",
			"type": "function"
		},
		{
			"inputs": [],
			"name": "vote",
			"outputs": [],
			"stateMutability": "nonpayable",
			"type": "function"
		},
		{
			"inputs": [
				{
					"internalType": "address",
					"name": "",
					"type": "address"
				}
			],
			"name": "voters",
			"outputs": [
				{
					"internalType": "uint256",
					"name": "weight",
					"type": "uint256"
				},
				{
					"internalType": "bool",
					"name": "voted",
					"type": "bool"
				},
				{
					"internalType": "uint256",
					"name": "district",
					"type": "uint256"
				},
				{
					"internalType": "uint256",
					"name": "vote",
					"type": "uint256"
				}
			],
			"stateMutability": "view",
			"type": "function"
		}
	]
}